{
	"contracts/Funge.sol": {
		"Funge": {
			"abi": [
				{
					"inputs": [
						{
							"internalType": "uint256",
							"name": "total",
							"type": "uint256"
						}
					],
					"stateMutability": "nonpayable",
					"type": "constructor"
				},
				{
					"anonymous": false,
					"inputs": [
						{
							"indexed": false,
							"internalType": "address",
							"name": "receiver",
							"type": "address"
						},
						{
							"indexed": false,
							"internalType": "uint256",
							"name": "amount",
							"type": "uint256"
						}
					],
					"name": "Mint",
					"type": "event"
				},
				{
					"anonymous": false,
					"inputs": [
						{
							"indexed": false,
							"internalType": "address",
							"name": "from",
							"type": "address"
						},
						{
							"indexed": false,
							"internalType": "address",
							"name": "to",
							"type": "address"
						},
						{
							"indexed": false,
							"internalType": "uint256",
							"name": "amount",
							"type": "uint256"
						}
					],
					"name": "Sent",
					"type": "event"
				},
				{
					"inputs": [
						{
							"internalType": "address",
							"name": "",
							"type": "address"
						}
					],
					"name": "balances",
					"outputs": [
						{
							"internalType": "uint256",
							"name": "",
							"type": "uint256"
						}
					],
					"stateMutability": "view",
					"type": "function"
				},
				{
					"inputs": [],
					"name": "decimals",
					"outputs": [
						{
							"internalType": "uint8",
							"name": "",
							"type": "uint8"
						}
					],
					"stateMutability": "view",
					"type": "function"
				},
				{
					"inputs": [
						{
							"internalType": "address",
							"name": "receiver",
							"type": "address"
						},
						{
							"internalType": "uint256",
							"name": "amount",
							"type": "uint256"
						}
					],
					"name": "mint",
					"outputs": [],
					"stateMutability": "nonpayable",
					"type": "function"
				},
				{
					"inputs": [],
					"name": "minter",
					"outputs": [
						{
							"internalType": "address",
							"name": "",
							"type": "address"
						}
					],
					"stateMutability": "view",
					"type": "function"
				},
				{
					"inputs": [],
					"name": "name",
					"outputs": [
						{
							"internalType": "string",
							"name": "",
							"type": "string"
						}
					],
					"stateMutability": "view",
					"type": "function"
				},
				{
					"inputs": [
						{
							"internalType": "address",
							"name": "receiver",
							"type": "address"
						},
						{
							"internalType": "uint256",
							"name": "amount",
							"type": "uint256"
						}
					],
					"name": "send",
					"outputs": [],
					"stateMutability": "nonpayable",
					"type": "function"
				},
				{
					"inputs": [],
					"name": "symbol",
					"outputs": [
						{
							"internalType": "string",
							"name": "",
							"type": "string"
						}
					],
					"stateMutability": "view",
					"type": "function"
				}
			],
			"devdoc": {
				"kind": "dev",
				"methods": {},
				"version": 1
			},
			"evm": {
				"assembly": "    /* \"contracts/Funge.sol\":282:1055  contract Funge {... */\n  mstore(0x40, 0x80)\n    /* \"contracts/Funge.sol\":614:730  constructor(uint256 total) {... */\n  callvalue\n  dup1\n  iszero\n  tag_1\n  jumpi\n  0x00\n  dup1\n  revert\ntag_1:\n  pop\n  mload(0x40)\n  sub(codesize, bytecodeSize)\n  dup1\n  bytecodeSize\n  dup4\n  codecopy\n  dup2\n  dup2\n  add\n  0x40\n  mstore\n  dup2\n  add\n  swap1\n  tag_2\n  swap2\n  swap1\n  tag_3\n  jump\t// in\ntag_2:\n    /* \"contracts/Funge.sol\":654:664  msg.sender */\n  caller\n    /* \"contracts/Funge.sol\":645:651  minter */\n  0x00\n  dup1\n    /* \"contracts/Funge.sol\":645:664  minter = msg.sender */\n  0x0100\n  exp\n  dup2\n  sload\n  dup2\n  0xffffffffffffffffffffffffffffffffffffffff\n  mul\n  not\n  and\n  swap1\n  dup4\n  0xffffffffffffffffffffffffffffffffffffffff\n  and\n  mul\n  or\n  swap1\n  sstore\n  pop\n    /* \"contracts/Funge.sol\":682:687  total */\n  dup1\n    /* \"contracts/Funge.sol\":668:680  totalSupply_ */\n  0x01\n    /* \"contracts/Funge.sol\":668:687  totalSupply_= total */\n  dup2\n  swap1\n  sstore\n  pop\n    /* \"contracts/Funge.sol\":714:726  totalSupply_ */\n  sload(0x01)\n    /* \"contracts/Funge.sol\":691:699  balances */\n  0x02\n    /* \"contracts/Funge.sol\":691:711  balances[msg.sender] */\n  0x00\n    /* \"contracts/Funge.sol\":700:710  msg.sender */\n  caller\n    /* \"contracts/Funge.sol\":691:711  balances[msg.sender] */\n  0xffffffffffffffffffffffffffffffffffffffff\n  and\n  0xffffffffffffffffffffffffffffffffffffffff\n  and\n  dup2\n  mstore\n  0x20\n  add\n  swap1\n  dup2\n  mstore\n  0x20\n  add\n  0x00\n  keccak256\n    /* \"contracts/Funge.sol\":691:726  balances[msg.sender] = totalSupply_ */\n  dup2\n  swap1\n  sstore\n  pop\n    /* \"contracts/Funge.sol\":614:730  constructor(uint256 total) {... */\n  pop\n    /* \"contracts/Funge.sol\":282:1055  contract Funge {... */\n  jump(tag_6)\n    /* \"#utility.yul\":88:205   */\ntag_8:\n    /* \"#utility.yul\":197:198   */\n  0x00\n    /* \"#utility.yul\":194:195   */\n  dup1\n    /* \"#utility.yul\":187:199   */\n  revert\n    /* \"#utility.yul\":334:411   */\ntag_10:\n    /* \"#utility.yul\":371:378   */\n  0x00\n    /* \"#utility.yul\":400:405   */\n  dup2\n    /* \"#utility.yul\":389:405   */\n  swap1\n  pop\n    /* \"#utility.yul\":334:411   */\n  swap2\n  swap1\n  pop\n  jump\t// out\n    /* \"#utility.yul\":417:539   */\ntag_11:\n    /* \"#utility.yul\":490:514   */\n  tag_19\n    /* \"#utility.yul\":508:513   */\n  dup2\n    /* \"#utility.yul\":490:514   */\n  tag_10\n  jump\t// in\ntag_19:\n    /* \"#utility.yul\":483:488   */\n  dup2\n    /* \"#utility.yul\":480:515   */\n  eq\n    /* \"#utility.yul\":470:533   */\n  tag_20\n  jumpi\n    /* \"#utility.yul\":529:530   */\n  0x00\n    /* \"#utility.yul\":526:527   */\n  dup1\n    /* \"#utility.yul\":519:531   */\n  revert\n    /* \"#utility.yul\":470:533   */\ntag_20:\n    /* \"#utility.yul\":417:539   */\n  pop\n  jump\t// out\n    /* \"#utility.yul\":545:688   */\ntag_12:\n    /* \"#utility.yul\":602:607   */\n  0x00\n    /* \"#utility.yul\":633:639   */\n  dup2\n    /* \"#utility.yul\":627:640   */\n  mload\n    /* \"#utility.yul\":618:640   */\n  swap1\n  pop\n    /* \"#utility.yul\":649:682   */\n  tag_22\n    /* \"#utility.yul\":676:681   */\n  dup2\n    /* \"#utility.yul\":649:682   */\n  tag_11\n  jump\t// in\ntag_22:\n    /* \"#utility.yul\":545:688   */\n  swap3\n  swap2\n  pop\n  pop\n  jump\t// out\n    /* \"#utility.yul\":694:1045   */\ntag_3:\n    /* \"#utility.yul\":764:770   */\n  0x00\n    /* \"#utility.yul\":813:815   */\n  0x20\n    /* \"#utility.yul\":801:810   */\n  dup3\n    /* \"#utility.yul\":792:799   */\n  dup5\n    /* \"#utility.yul\":788:811   */\n  sub\n    /* \"#utility.yul\":784:816   */\n  slt\n    /* \"#utility.yul\":781:900   */\n  iszero\n  tag_24\n  jumpi\n    /* \"#utility.yul\":819:898   */\n  tag_25\n  tag_8\n  jump\t// in\ntag_25:\n    /* \"#utility.yul\":781:900   */\ntag_24:\n    /* \"#utility.yul\":939:940   */\n  0x00\n    /* \"#utility.yul\":964:1028   */\n  tag_26\n    /* \"#utility.yul\":1020:1027   */\n  dup5\n    /* \"#utility.yul\":1011:1017   */\n  dup3\n    /* \"#utility.yul\":1000:1009   */\n  dup6\n    /* \"#utility.yul\":996:1018   */\n  add\n    /* \"#utility.yul\":964:1028   */\n  tag_12\n  jump\t// in\ntag_26:\n    /* \"#utility.yul\":954:1028   */\n  swap2\n  pop\n    /* \"#utility.yul\":910:1038   */\n  pop\n    /* \"#utility.yul\":694:1045   */\n  swap3\n  swap2\n  pop\n  pop\n  jump\t// out\n    /* \"contracts/Funge.sol\":282:1055  contract Funge {... */\ntag_6:\n  dataSize(sub_0)\n  dup1\n  dataOffset(sub_0)\n  0x00\n  codecopy\n  0x00\n  return\nstop\n\nsub_0: assembly {\n        /* \"contracts/Funge.sol\":282:1055  contract Funge {... */\n      mstore(0x40, 0x80)\n      callvalue\n      dup1\n      iszero\n      tag_1\n      jumpi\n      0x00\n      dup1\n      revert\n    tag_1:\n      pop\n      jumpi(tag_2, lt(calldatasize, 0x04))\n      shr(0xe0, calldataload(0x00))\n      dup1\n      0x313ce567\n      gt\n      tag_10\n      jumpi\n      dup1\n      0x313ce567\n      eq\n      tag_6\n      jumpi\n      dup1\n      0x40c10f19\n      eq\n      tag_7\n      jumpi\n      dup1\n      0x95d89b41\n      eq\n      tag_8\n      jumpi\n      dup1\n      0xd0679d34\n      eq\n      tag_9\n      jumpi\n      jump(tag_2)\n    tag_10:\n      dup1\n      0x06fdde03\n      eq\n      tag_3\n      jumpi\n      dup1\n      0x07546172\n      eq\n      tag_4\n      jumpi\n      dup1\n      0x27e235e3\n      eq\n      tag_5\n      jumpi\n    tag_2:\n      0x00\n      dup1\n      revert\n        /* \"contracts/Funge.sol\":301:338  string public constant name = \"Funge\" */\n    tag_3:\n      tag_11\n      tag_12\n      jump\t// in\n    tag_11:\n      mload(0x40)\n      tag_13\n      swap2\n      swap1\n      tag_14\n      jump\t// in\n    tag_13:\n      mload(0x40)\n      dup1\n      swap2\n      sub\n      swap1\n      return\n        /* \"contracts/Funge.sol\":425:446  address public minter */\n    tag_4:\n      tag_15\n      tag_16\n      jump\t// in\n    tag_15:\n      mload(0x40)\n      tag_17\n      swap2\n      swap1\n      tag_18\n      jump\t// in\n    tag_17:\n      mload(0x40)\n      dup1\n      swap2\n      sub\n      swap1\n      return\n        /* \"contracts/Funge.sol\":472:513  mapping (address => uint) public balances */\n    tag_5:\n      tag_19\n      0x04\n      dup1\n      calldatasize\n      sub\n      dup2\n      add\n      swap1\n      tag_20\n      swap2\n      swap1\n      tag_21\n      jump\t// in\n    tag_20:\n      tag_22\n      jump\t// in\n    tag_19:\n      mload(0x40)\n      tag_23\n      swap2\n      swap1\n      tag_24\n      jump\t// in\n    tag_23:\n      mload(0x40)\n      dup1\n      swap2\n      sub\n      swap1\n      return\n        /* \"contracts/Funge.sol\":387:422  uint8 public constant decimals = 18 */\n    tag_6:\n      tag_25\n      tag_26\n      jump\t// in\n    tag_25:\n      mload(0x40)\n      tag_27\n      swap2\n      swap1\n      tag_28\n      jump\t// in\n    tag_27:\n      mload(0x40)\n      dup1\n      swap2\n      sub\n      swap1\n      return\n        /* \"contracts/Funge.sol\":733:885  function mint(address receiver, uint amount) public {... */\n    tag_7:\n      tag_29\n      0x04\n      dup1\n      calldatasize\n      sub\n      dup2\n      add\n      swap1\n      tag_30\n      swap2\n      swap1\n      tag_31\n      jump\t// in\n    tag_30:\n      tag_32\n      jump\t// in\n    tag_29:\n      stop\n        /* \"contracts/Funge.sol\":344:381  string public constant symbol = \"FNG\" */\n    tag_8:\n      tag_33\n      tag_34\n      jump\t// in\n    tag_33:\n      mload(0x40)\n      tag_35\n      swap2\n      swap1\n      tag_14\n      jump\t// in\n    tag_35:\n      mload(0x40)\n      dup1\n      swap2\n      sub\n      swap1\n      return\n        /* \"contracts/Funge.sol\":888:1053  function send(address receiver, uint amount) public {... */\n    tag_9:\n      tag_36\n      0x04\n      dup1\n      calldatasize\n      sub\n      dup2\n      add\n      swap1\n      tag_37\n      swap2\n      swap1\n      tag_31\n      jump\t// in\n    tag_37:\n      tag_38\n      jump\t// in\n    tag_36:\n      stop\n        /* \"contracts/Funge.sol\":301:338  string public constant name = \"Funge\" */\n    tag_12:\n      mload(0x40)\n      dup1\n      0x40\n      add\n      0x40\n      mstore\n      dup1\n      0x05\n      dup2\n      mstore\n      0x20\n      add\n      0x46756e6765000000000000000000000000000000000000000000000000000000\n      dup2\n      mstore\n      pop\n      dup2\n      jump\t// out\n        /* \"contracts/Funge.sol\":425:446  address public minter */\n    tag_16:\n      0x00\n      dup1\n      sload\n      swap1\n      0x0100\n      exp\n      swap1\n      div\n      0xffffffffffffffffffffffffffffffffffffffff\n      and\n      dup2\n      jump\t// out\n        /* \"contracts/Funge.sol\":472:513  mapping (address => uint) public balances */\n    tag_22:\n      mstore(0x20, 0x02)\n      dup1\n      0x00\n      mstore\n      keccak256(0x00, 0x40)\n      0x00\n      swap2\n      pop\n      swap1\n      pop\n      sload\n      dup2\n      jump\t// out\n        /* \"contracts/Funge.sol\":387:422  uint8 public constant decimals = 18 */\n    tag_26:\n        /* \"contracts/Funge.sol\":420:422  18 */\n      0x12\n        /* \"contracts/Funge.sol\":387:422  uint8 public constant decimals = 18 */\n      dup2\n      jump\t// out\n        /* \"contracts/Funge.sol\":733:885  function mint(address receiver, uint amount) public {... */\n    tag_32:\n        /* \"contracts/Funge.sol\":811:817  minter */\n      0x00\n      dup1\n      sload\n      swap1\n      0x0100\n      exp\n      swap1\n      div\n      0xffffffffffffffffffffffffffffffffffffffff\n      and\n        /* \"contracts/Funge.sol\":797:817  msg.sender == minter */\n      0xffffffffffffffffffffffffffffffffffffffff\n      and\n        /* \"contracts/Funge.sol\":797:807  msg.sender */\n      caller\n        /* \"contracts/Funge.sol\":797:817  msg.sender == minter */\n      0xffffffffffffffffffffffffffffffffffffffff\n      and\n      eq\n        /* \"contracts/Funge.sol\":789:818  require(msg.sender == minter) */\n      tag_40\n      jumpi\n      0x00\n      dup1\n      revert\n    tag_40:\n        /* \"contracts/Funge.sol\":844:850  amount */\n      dup1\n        /* \"contracts/Funge.sol\":822:830  balances */\n      0x02\n        /* \"contracts/Funge.sol\":822:840  balances[receiver] */\n      0x00\n        /* \"contracts/Funge.sol\":831:839  receiver */\n      dup5\n        /* \"contracts/Funge.sol\":822:840  balances[receiver] */\n      0xffffffffffffffffffffffffffffffffffffffff\n      and\n      0xffffffffffffffffffffffffffffffffffffffff\n      and\n      dup2\n      mstore\n      0x20\n      add\n      swap1\n      dup2\n      mstore\n      0x20\n      add\n      0x00\n      keccak256\n      0x00\n        /* \"contracts/Funge.sol\":822:850  balances[receiver] += amount */\n      dup3\n      dup3\n      sload\n      tag_41\n      swap2\n      swap1\n      tag_42\n      jump\t// in\n    tag_41:\n      swap3\n      pop\n      pop\n      dup2\n      swap1\n      sstore\n      pop\n        /* \"contracts/Funge.sol\":859:881  Mint(receiver, amount) */\n      0x0f6798a560793a54c3bcfe86a93cde1e73087d944c0ea20544137d4121396885\n        /* \"contracts/Funge.sol\":864:872  receiver */\n      dup3\n        /* \"contracts/Funge.sol\":874:880  amount */\n      dup3\n        /* \"contracts/Funge.sol\":859:881  Mint(receiver, amount) */\n      mload(0x40)\n      tag_43\n      swap3\n      swap2\n      swap1\n      tag_44\n      jump\t// in\n    tag_43:\n      mload(0x40)\n      dup1\n      swap2\n      sub\n      swap1\n      log1\n        /* \"contracts/Funge.sol\":733:885  function mint(address receiver, uint amount) public {... */\n      pop\n      pop\n      jump\t// out\n        /* \"contracts/Funge.sol\":344:381  string public constant symbol = \"FNG\" */\n    tag_34:\n      mload(0x40)\n      dup1\n      0x40\n      add\n      0x40\n      mstore\n      dup1\n      0x03\n      dup2\n      mstore\n      0x20\n      add\n      0x464e470000000000000000000000000000000000000000000000000000000000\n      dup2\n      mstore\n      pop\n      dup2\n      jump\t// out\n        /* \"contracts/Funge.sol\":888:1053  function send(address receiver, uint amount) public {... */\n    tag_38:\n        /* \"contracts/Funge.sol\":968:974  amount */\n      dup1\n        /* \"contracts/Funge.sol\":944:952  balances */\n      0x02\n        /* \"contracts/Funge.sol\":944:964  balances[msg.sender] */\n      0x00\n        /* \"contracts/Funge.sol\":953:963  msg.sender */\n      caller\n        /* \"contracts/Funge.sol\":944:964  balances[msg.sender] */\n      0xffffffffffffffffffffffffffffffffffffffff\n      and\n      0xffffffffffffffffffffffffffffffffffffffff\n      and\n      dup2\n      mstore\n      0x20\n      add\n      swap1\n      dup2\n      mstore\n      0x20\n      add\n      0x00\n      keccak256\n      0x00\n        /* \"contracts/Funge.sol\":944:974  balances[msg.sender] -= amount */\n      dup3\n      dup3\n      sload\n      tag_46\n      swap2\n      swap1\n      tag_47\n      jump\t// in\n    tag_46:\n      swap3\n      pop\n      pop\n      dup2\n      swap1\n      sstore\n      pop\n        /* \"contracts/Funge.sol\":1000:1006  amount */\n      dup1\n        /* \"contracts/Funge.sol\":978:986  balances */\n      0x02\n        /* \"contracts/Funge.sol\":978:996  balances[receiver] */\n      0x00\n        /* \"contracts/Funge.sol\":987:995  receiver */\n      dup5\n        /* \"contracts/Funge.sol\":978:996  balances[receiver] */\n      0xffffffffffffffffffffffffffffffffffffffff\n      and\n      0xffffffffffffffffffffffffffffffffffffffff\n      and\n      dup2\n      mstore\n      0x20\n      add\n      swap1\n      dup2\n      mstore\n      0x20\n      add\n      0x00\n      keccak256\n      0x00\n        /* \"contracts/Funge.sol\":978:1006  balances[receiver] += amount */\n      dup3\n      dup3\n      sload\n      tag_48\n      swap2\n      swap1\n      tag_42\n      jump\t// in\n    tag_48:\n      swap3\n      pop\n      pop\n      dup2\n      swap1\n      sstore\n      pop\n        /* \"contracts/Funge.sol\":1015:1049  Sent(msg.sender, receiver, amount) */\n      0x3990db2d31862302a685e8086b5755072a6e2b5b780af1ee81ece35ee3cd3345\n        /* \"contracts/Funge.sol\":1020:1030  msg.sender */\n      caller\n        /* \"contracts/Funge.sol\":1032:1040  receiver */\n      dup4\n        /* \"contracts/Funge.sol\":1042:1048  amount */\n      dup4\n        /* \"contracts/Funge.sol\":1015:1049  Sent(msg.sender, receiver, amount) */\n      mload(0x40)\n      tag_49\n      swap4\n      swap3\n      swap2\n      swap1\n      tag_50\n      jump\t// in\n    tag_49:\n      mload(0x40)\n      dup1\n      swap2\n      sub\n      swap1\n      log1\n        /* \"contracts/Funge.sol\":888:1053  function send(address receiver, uint amount) public {... */\n      pop\n      pop\n      jump\t// out\n        /* \"#utility.yul\":7:106   */\n    tag_51:\n        /* \"#utility.yul\":59:65   */\n      0x00\n        /* \"#utility.yul\":93:98   */\n      dup2\n        /* \"#utility.yul\":87:99   */\n      mload\n        /* \"#utility.yul\":77:99   */\n      swap1\n      pop\n        /* \"#utility.yul\":7:106   */\n      swap2\n      swap1\n      pop\n      jump\t// out\n        /* \"#utility.yul\":112:281   */\n    tag_52:\n        /* \"#utility.yul\":196:207   */\n      0x00\n        /* \"#utility.yul\":230:236   */\n      dup3\n        /* \"#utility.yul\":225:228   */\n      dup3\n        /* \"#utility.yul\":218:237   */\n      mstore\n        /* \"#utility.yul\":270:274   */\n      0x20\n        /* \"#utility.yul\":265:268   */\n      dup3\n        /* \"#utility.yul\":261:275   */\n      add\n        /* \"#utility.yul\":246:275   */\n      swap1\n      pop\n        /* \"#utility.yul\":112:281   */\n      swap3\n      swap2\n      pop\n      pop\n      jump\t// out\n        /* \"#utility.yul\":287:594   */\n    tag_53:\n        /* \"#utility.yul\":355:356   */\n      0x00\n        /* \"#utility.yul\":365:478   */\n    tag_75:\n        /* \"#utility.yul\":379:385   */\n      dup4\n        /* \"#utility.yul\":376:377   */\n      dup2\n        /* \"#utility.yul\":373:386   */\n      lt\n        /* \"#utility.yul\":365:478   */\n      iszero\n      tag_77\n      jumpi\n        /* \"#utility.yul\":464:465   */\n      dup1\n        /* \"#utility.yul\":459:462   */\n      dup3\n        /* \"#utility.yul\":455:466   */\n      add\n        /* \"#utility.yul\":449:467   */\n      mload\n        /* \"#utility.yul\":445:446   */\n      dup2\n        /* \"#utility.yul\":440:443   */\n      dup5\n        /* \"#utility.yul\":436:447   */\n      add\n        /* \"#utility.yul\":429:468   */\n      mstore\n        /* \"#utility.yul\":401:403   */\n      0x20\n        /* \"#utility.yul\":398:399   */\n      dup2\n        /* \"#utility.yul\":394:404   */\n      add\n        /* \"#utility.yul\":389:404   */\n      swap1\n      pop\n        /* \"#utility.yul\":365:478   */\n      jump(tag_75)\n    tag_77:\n        /* \"#utility.yul\":496:502   */\n      dup4\n        /* \"#utility.yul\":493:494   */\n      dup2\n        /* \"#utility.yul\":490:503   */\n      gt\n        /* \"#utility.yul\":487:588   */\n      iszero\n      tag_78\n      jumpi\n        /* \"#utility.yul\":576:577   */\n      0x00\n        /* \"#utility.yul\":567:573   */\n      dup5\n        /* \"#utility.yul\":562:565   */\n      dup5\n        /* \"#utility.yul\":558:574   */\n      add\n        /* \"#utility.yul\":551:578   */\n      mstore\n        /* \"#utility.yul\":487:588   */\n    tag_78:\n        /* \"#utility.yul\":336:594   */\n      pop\n        /* \"#utility.yul\":287:594   */\n      pop\n      pop\n      pop\n      jump\t// out\n        /* \"#utility.yul\":600:702   */\n    tag_54:\n        /* \"#utility.yul\":641:647   */\n      0x00\n        /* \"#utility.yul\":692:694   */\n      0x1f\n        /* \"#utility.yul\":688:695   */\n      not\n        /* \"#utility.yul\":683:685   */\n      0x1f\n        /* \"#utility.yul\":676:681   */\n      dup4\n        /* \"#utility.yul\":672:686   */\n      add\n        /* \"#utility.yul\":668:696   */\n      and\n        /* \"#utility.yul\":658:696   */\n      swap1\n      pop\n        /* \"#utility.yul\":600:702   */\n      swap2\n      swap1\n      pop\n      jump\t// out\n        /* \"#utility.yul\":708:1072   */\n    tag_55:\n        /* \"#utility.yul\":796:799   */\n      0x00\n        /* \"#utility.yul\":824:863   */\n      tag_81\n        /* \"#utility.yul\":857:862   */\n      dup3\n        /* \"#utility.yul\":824:863   */\n      tag_51\n      jump\t// in\n    tag_81:\n        /* \"#utility.yul\":879:950   */\n      tag_82\n        /* \"#utility.yul\":943:949   */\n      dup2\n        /* \"#utility.yul\":938:941   */\n      dup6\n        /* \"#utility.yul\":879:950   */\n      tag_52\n      jump\t// in\n    tag_82:\n        /* \"#utility.yul\":872:950   */\n      swap4\n      pop\n        /* \"#utility.yul\":959:1011   */\n      tag_83\n        /* \"#utility.yul\":1004:1010   */\n      dup2\n        /* \"#utility.yul\":999:1002   */\n      dup6\n        /* \"#utility.yul\":992:996   */\n      0x20\n        /* \"#utility.yul\":985:990   */\n      dup7\n        /* \"#utility.yul\":981:997   */\n      add\n        /* \"#utility.yul\":959:1011   */\n      tag_53\n      jump\t// in\n    tag_83:\n        /* \"#utility.yul\":1036:1065   */\n      tag_84\n        /* \"#utility.yul\":1058:1064   */\n      dup2\n        /* \"#utility.yul\":1036:1065   */\n      tag_54\n      jump\t// in\n    tag_84:\n        /* \"#utility.yul\":1031:1034   */\n      dup5\n        /* \"#utility.yul\":1027:1066   */\n      add\n        /* \"#utility.yul\":1020:1066   */\n      swap2\n      pop\n        /* \"#utility.yul\":800:1072   */\n      pop\n        /* \"#utility.yul\":708:1072   */\n      swap3\n      swap2\n      pop\n      pop\n      jump\t// out\n        /* \"#utility.yul\":1078:1391   */\n    tag_14:\n        /* \"#utility.yul\":1191:1195   */\n      0x00\n        /* \"#utility.yul\":1229:1231   */\n      0x20\n        /* \"#utility.yul\":1218:1227   */\n      dup3\n        /* \"#utility.yul\":1214:1232   */\n      add\n        /* \"#utility.yul\":1206:1232   */\n      swap1\n      pop\n        /* \"#utility.yul\":1278:1287   */\n      dup2\n        /* \"#utility.yul\":1272:1276   */\n      dup2\n        /* \"#utility.yul\":1268:1288   */\n      sub\n        /* \"#utility.yul\":1264:1265   */\n      0x00\n        /* \"#utility.yul\":1253:1262   */\n      dup4\n        /* \"#utility.yul\":1249:1266   */\n      add\n        /* \"#utility.yul\":1242:1289   */\n      mstore\n        /* \"#utility.yul\":1306:1384   */\n      tag_86\n        /* \"#utility.yul\":1379:1383   */\n      dup2\n        /* \"#utility.yul\":1370:1376   */\n      dup5\n        /* \"#utility.yul\":1306:1384   */\n      tag_55\n      jump\t// in\n    tag_86:\n        /* \"#utility.yul\":1298:1384   */\n      swap1\n      pop\n        /* \"#utility.yul\":1078:1391   */\n      swap3\n      swap2\n      pop\n      pop\n      jump\t// out\n        /* \"#utility.yul\":1397:1523   */\n    tag_56:\n        /* \"#utility.yul\":1434:1441   */\n      0x00\n        /* \"#utility.yul\":1474:1516   */\n      0xffffffffffffffffffffffffffffffffffffffff\n        /* \"#utility.yul\":1467:1472   */\n      dup3\n        /* \"#utility.yul\":1463:1517   */\n      and\n        /* \"#utility.yul\":1452:1517   */\n      swap1\n      pop\n        /* \"#utility.yul\":1397:1523   */\n      swap2\n      swap1\n      pop\n      jump\t// out\n        /* \"#utility.yul\":1529:1625   */\n    tag_57:\n        /* \"#utility.yul\":1566:1573   */\n      0x00\n        /* \"#utility.yul\":1595:1619   */\n      tag_89\n        /* \"#utility.yul\":1613:1618   */\n      dup3\n        /* \"#utility.yul\":1595:1619   */\n      tag_56\n      jump\t// in\n    tag_89:\n        /* \"#utility.yul\":1584:1619   */\n      swap1\n      pop\n        /* \"#utility.yul\":1529:1625   */\n      swap2\n      swap1\n      pop\n      jump\t// out\n        /* \"#utility.yul\":1631:1749   */\n    tag_58:\n        /* \"#utility.yul\":1718:1742   */\n      tag_91\n        /* \"#utility.yul\":1736:1741   */\n      dup2\n        /* \"#utility.yul\":1718:1742   */\n      tag_57\n      jump\t// in\n    tag_91:\n        /* \"#utility.yul\":1713:1716   */\n      dup3\n        /* \"#utility.yul\":1706:1743   */\n      mstore\n        /* \"#utility.yul\":1631:1749   */\n      pop\n      pop\n      jump\t// out\n        /* \"#utility.yul\":1755:1977   */\n    tag_18:\n        /* \"#utility.yul\":1848:1852   */\n      0x00\n        /* \"#utility.yul\":1886:1888   */\n      0x20\n        /* \"#utility.yul\":1875:1884   */\n      dup3\n        /* \"#utility.yul\":1871:1889   */\n      add\n        /* \"#utility.yul\":1863:1889   */\n      swap1\n      pop\n        /* \"#utility.yul\":1899:1970   */\n      tag_93\n        /* \"#utility.yul\":1967:1968   */\n      0x00\n        /* \"#utility.yul\":1956:1965   */\n      dup4\n        /* \"#utility.yul\":1952:1969   */\n      add\n        /* \"#utility.yul\":1943:1949   */\n      dup5\n        /* \"#utility.yul\":1899:1970   */\n      tag_58\n      jump\t// in\n    tag_93:\n        /* \"#utility.yul\":1755:1977   */\n      swap3\n      swap2\n      pop\n      pop\n      jump\t// out\n        /* \"#utility.yul\":2064:2181   */\n    tag_60:\n        /* \"#utility.yul\":2173:2174   */\n      0x00\n        /* \"#utility.yul\":2170:2171   */\n      dup1\n        /* \"#utility.yul\":2163:2175   */\n      revert\n        /* \"#utility.yul\":2310:2432   */\n    tag_62:\n        /* \"#utility.yul\":2383:2407   */\n      tag_98\n        /* \"#utility.yul\":2401:2406   */\n      dup2\n        /* \"#utility.yul\":2383:2407   */\n      tag_57\n      jump\t// in\n    tag_98:\n        /* \"#utility.yul\":2376:2381   */\n      dup2\n        /* \"#utility.yul\":2373:2408   */\n      eq\n        /* \"#utility.yul\":2363:2426   */\n      tag_99\n      jumpi\n        /* \"#utility.yul\":2422:2423   */\n      0x00\n        /* \"#utility.yul\":2419:2420   */\n      dup1\n        /* \"#utility.yul\":2412:2424   */\n      revert\n        /* \"#utility.yul\":2363:2426   */\n    tag_99:\n        /* \"#utility.yul\":2310:2432   */\n      pop\n      jump\t// out\n        /* \"#utility.yul\":2438:2577   */\n    tag_63:\n        /* \"#utility.yul\":2484:2489   */\n      0x00\n        /* \"#utility.yul\":2522:2528   */\n      dup2\n        /* \"#utility.yul\":2509:2529   */\n      calldataload\n        /* \"#utility.yul\":2500:2529   */\n      swap1\n      pop\n        /* \"#utility.yul\":2538:2571   */\n      tag_101\n        /* \"#utility.yul\":2565:2570   */\n      dup2\n        /* \"#utility.yul\":2538:2571   */\n      tag_62\n      jump\t// in\n    tag_101:\n        /* \"#utility.yul\":2438:2577   */\n      swap3\n      swap2\n      pop\n      pop\n      jump\t// out\n        /* \"#utility.yul\":2583:2912   */\n    tag_21:\n        /* \"#utility.yul\":2642:2648   */\n      0x00\n        /* \"#utility.yul\":2691:2693   */\n      0x20\n        /* \"#utility.yul\":2679:2688   */\n      dup3\n        /* \"#utility.yul\":2670:2677   */\n      dup5\n        /* \"#utility.yul\":2666:2689   */\n      sub\n        /* \"#utility.yul\":2662:2694   */\n      slt\n        /* \"#utility.yul\":2659:2778   */\n      iszero\n      tag_103\n      jumpi\n        /* \"#utility.yul\":2697:2776   */\n      tag_104\n      tag_60\n      jump\t// in\n    tag_104:\n        /* \"#utility.yul\":2659:2778   */\n    tag_103:\n        /* \"#utility.yul\":2817:2818   */\n      0x00\n        /* \"#utility.yul\":2842:2895   */\n      tag_105\n        /* \"#utility.yul\":2887:2894   */\n      dup5\n        /* \"#utility.yul\":2878:2884   */\n      dup3\n        /* \"#utility.yul\":2867:2876   */\n      dup6\n        /* \"#utility.yul\":2863:2885   */\n      add\n        /* \"#utility.yul\":2842:2895   */\n      tag_63\n      jump\t// in\n    tag_105:\n        /* \"#utility.yul\":2832:2895   */\n      swap2\n      pop\n        /* \"#utility.yul\":2788:2905   */\n      pop\n        /* \"#utility.yul\":2583:2912   */\n      swap3\n      swap2\n      pop\n      pop\n      jump\t// out\n        /* \"#utility.yul\":2918:2995   */\n    tag_64:\n        /* \"#utility.yul\":2955:2962   */\n      0x00\n        /* \"#utility.yul\":2984:2989   */\n      dup2\n        /* \"#utility.yul\":2973:2989   */\n      swap1\n      pop\n        /* \"#utility.yul\":2918:2995   */\n      swap2\n      swap1\n      pop\n      jump\t// out\n        /* \"#utility.yul\":3001:3119   */\n    tag_65:\n        /* \"#utility.yul\":3088:3112   */\n      tag_108\n        /* \"#utility.yul\":3106:3111   */\n      dup2\n        /* \"#utility.yul\":3088:3112   */\n      tag_64\n      jump\t// in\n    tag_108:\n        /* \"#utility.yul\":3083:3086   */\n      dup3\n        /* \"#utility.yul\":3076:3113   */\n      mstore\n        /* \"#utility.yul\":3001:3119   */\n      pop\n      pop\n      jump\t// out\n        /* \"#utility.yul\":3125:3347   */\n    tag_24:\n        /* \"#utility.yul\":3218:3222   */\n      0x00\n        /* \"#utility.yul\":3256:3258   */\n      0x20\n        /* \"#utility.yul\":3245:3254   */\n      dup3\n        /* \"#utility.yul\":3241:3259   */\n      add\n        /* \"#utility.yul\":3233:3259   */\n      swap1\n      pop\n        /* \"#utility.yul\":3269:3340   */\n      tag_110\n        /* \"#utility.yul\":3337:3338   */\n      0x00\n        /* \"#utility.yul\":3326:3335   */\n      dup4\n        /* \"#utility.yul\":3322:3339   */\n      add\n        /* \"#utility.yul\":3313:3319   */\n      dup5\n        /* \"#utility.yul\":3269:3340   */\n      tag_65\n      jump\t// in\n    tag_110:\n        /* \"#utility.yul\":3125:3347   */\n      swap3\n      swap2\n      pop\n      pop\n      jump\t// out\n        /* \"#utility.yul\":3353:3439   */\n    tag_66:\n        /* \"#utility.yul\":3388:3395   */\n      0x00\n        /* \"#utility.yul\":3428:3432   */\n      0xff\n        /* \"#utility.yul\":3421:3426   */\n      dup3\n        /* \"#utility.yul\":3417:3433   */\n      and\n        /* \"#utility.yul\":3406:3433   */\n      swap1\n      pop\n        /* \"#utility.yul\":3353:3439   */\n      swap2\n      swap1\n      pop\n      jump\t// out\n        /* \"#utility.yul\":3445:3557   */\n    tag_67:\n        /* \"#utility.yul\":3528:3550   */\n      tag_113\n        /* \"#utility.yul\":3544:3549   */\n      dup2\n        /* \"#utility.yul\":3528:3550   */\n      tag_66\n      jump\t// in\n    tag_113:\n        /* \"#utility.yul\":3523:3526   */\n      dup3\n        /* \"#utility.yul\":3516:3551   */\n      mstore\n        /* \"#utility.yul\":3445:3557   */\n      pop\n      pop\n      jump\t// out\n        /* \"#utility.yul\":3563:3777   */\n    tag_28:\n        /* \"#utility.yul\":3652:3656   */\n      0x00\n        /* \"#utility.yul\":3690:3692   */\n      0x20\n        /* \"#utility.yul\":3679:3688   */\n      dup3\n        /* \"#utility.yul\":3675:3693   */\n      add\n        /* \"#utility.yul\":3667:3693   */\n      swap1\n      pop\n        /* \"#utility.yul\":3703:3770   */\n      tag_115\n        /* \"#utility.yul\":3767:3768   */\n      0x00\n        /* \"#utility.yul\":3756:3765   */\n      dup4\n        /* \"#utility.yul\":3752:3769   */\n      add\n        /* \"#utility.yul\":3743:3749   */\n      dup5\n        /* \"#utility.yul\":3703:3770   */\n      tag_67\n      jump\t// in\n    tag_115:\n        /* \"#utility.yul\":3563:3777   */\n      swap3\n      swap2\n      pop\n      pop\n      jump\t// out\n        /* \"#utility.yul\":3783:3905   */\n    tag_68:\n        /* \"#utility.yul\":3856:3880   */\n      tag_117\n        /* \"#utility.yul\":3874:3879   */\n      dup2\n        /* \"#utility.yul\":3856:3880   */\n      tag_64\n      jump\t// in\n    tag_117:\n        /* \"#utility.yul\":3849:3854   */\n      dup2\n        /* \"#utility.yul\":3846:3881   */\n      eq\n        /* \"#utility.yul\":3836:3899   */\n      tag_118\n      jumpi\n        /* \"#utility.yul\":3895:3896   */\n      0x00\n        /* \"#utility.yul\":3892:3893   */\n      dup1\n        /* \"#utility.yul\":3885:3897   */\n      revert\n        /* \"#utility.yul\":3836:3899   */\n    tag_118:\n        /* \"#utility.yul\":3783:3905   */\n      pop\n      jump\t// out\n        /* \"#utility.yul\":3911:4050   */\n    tag_69:\n        /* \"#utility.yul\":3957:3962   */\n      0x00\n        /* \"#utility.yul\":3995:4001   */\n      dup2\n        /* \"#utility.yul\":3982:4002   */\n      calldataload\n        /* \"#utility.yul\":3973:4002   */\n      swap1\n      pop\n        /* \"#utility.yul\":4011:4044   */\n      tag_120\n        /* \"#utility.yul\":4038:4043   */\n      dup2\n        /* \"#utility.yul\":4011:4044   */\n      tag_68\n      jump\t// in\n    tag_120:\n        /* \"#utility.yul\":3911:4050   */\n      swap3\n      swap2\n      pop\n      pop\n      jump\t// out\n        /* \"#utility.yul\":4056:4530   */\n    tag_31:\n        /* \"#utility.yul\":4124:4130   */\n      0x00\n        /* \"#utility.yul\":4132:4138   */\n      dup1\n        /* \"#utility.yul\":4181:4183   */\n      0x40\n        /* \"#utility.yul\":4169:4178   */\n      dup4\n        /* \"#utility.yul\":4160:4167   */\n      dup6\n        /* \"#utility.yul\":4156:4179   */\n      sub\n        /* \"#utility.yul\":4152:4184   */\n      slt\n        /* \"#utility.yul\":4149:4268   */\n      iszero\n      tag_122\n      jumpi\n        /* \"#utility.yul\":4187:4266   */\n      tag_123\n      tag_60\n      jump\t// in\n    tag_123:\n        /* \"#utility.yul\":4149:4268   */\n    tag_122:\n        /* \"#utility.yul\":4307:4308   */\n      0x00\n        /* \"#utility.yul\":4332:4385   */\n      tag_124\n        /* \"#utility.yul\":4377:4384   */\n      dup6\n        /* \"#utility.yul\":4368:4374   */\n      dup3\n        /* \"#utility.yul\":4357:4366   */\n      dup7\n        /* \"#utility.yul\":4353:4375   */\n      add\n        /* \"#utility.yul\":4332:4385   */\n      tag_63\n      jump\t// in\n    tag_124:\n        /* \"#utility.yul\":4322:4385   */\n      swap3\n      pop\n        /* \"#utility.yul\":4278:4395   */\n      pop\n        /* \"#utility.yul\":4434:4436   */\n      0x20\n        /* \"#utility.yul\":4460:4513   */\n      tag_125\n        /* \"#utility.yul\":4505:4512   */\n      dup6\n        /* \"#utility.yul\":4496:4502   */\n      dup3\n        /* \"#utility.yul\":4485:4494   */\n      dup7\n        /* \"#utility.yul\":4481:4503   */\n      add\n        /* \"#utility.yul\":4460:4513   */\n      tag_69\n      jump\t// in\n    tag_125:\n        /* \"#utility.yul\":4450:4513   */\n      swap2\n      pop\n        /* \"#utility.yul\":4405:4523   */\n      pop\n        /* \"#utility.yul\":4056:4530   */\n      swap3\n      pop\n      swap3\n      swap1\n      pop\n      jump\t// out\n        /* \"#utility.yul\":4536:4716   */\n    tag_70:\n        /* \"#utility.yul\":4584:4661   */\n      0x4e487b7100000000000000000000000000000000000000000000000000000000\n        /* \"#utility.yul\":4581:4582   */\n      0x00\n        /* \"#utility.yul\":4574:4662   */\n      mstore\n        /* \"#utility.yul\":4681:4685   */\n      0x11\n        /* \"#utility.yul\":4678:4679   */\n      0x04\n        /* \"#utility.yul\":4671:4686   */\n      mstore\n        /* \"#utility.yul\":4705:4709   */\n      0x24\n        /* \"#utility.yul\":4702:4703   */\n      0x00\n        /* \"#utility.yul\":4695:4710   */\n      revert\n        /* \"#utility.yul\":4722:5027   */\n    tag_42:\n        /* \"#utility.yul\":4762:4765   */\n      0x00\n        /* \"#utility.yul\":4781:4801   */\n      tag_128\n        /* \"#utility.yul\":4799:4800   */\n      dup3\n        /* \"#utility.yul\":4781:4801   */\n      tag_64\n      jump\t// in\n    tag_128:\n        /* \"#utility.yul\":4776:4801   */\n      swap2\n      pop\n        /* \"#utility.yul\":4815:4835   */\n      tag_129\n        /* \"#utility.yul\":4833:4834   */\n      dup4\n        /* \"#utility.yul\":4815:4835   */\n      tag_64\n      jump\t// in\n    tag_129:\n        /* \"#utility.yul\":4810:4835   */\n      swap3\n      pop\n        /* \"#utility.yul\":4969:4970   */\n      dup3\n        /* \"#utility.yul\":4901:4967   */\n      0xffffffffffffffffffffffffffffffffffffffffffffffffffffffffffffffff\n        /* \"#utility.yul\":4897:4971   */\n      sub\n        /* \"#utility.yul\":4894:4895   */\n      dup3\n        /* \"#utility.yul\":4891:4972   */\n      gt\n        /* \"#utility.yul\":4888:4995   */\n      iszero\n      tag_130\n      jumpi\n        /* \"#utility.yul\":4975:4993   */\n      tag_131\n      tag_70\n      jump\t// in\n    tag_131:\n        /* \"#utility.yul\":4888:4995   */\n    tag_130:\n        /* \"#utility.yul\":5019:5020   */\n      dup3\n        /* \"#utility.yul\":5016:5017   */\n      dup3\n        /* \"#utility.yul\":5012:5021   */\n      add\n        /* \"#utility.yul\":5005:5021   */\n      swap1\n      pop\n        /* \"#utility.yul\":4722:5027   */\n      swap3\n      swap2\n      pop\n      pop\n      jump\t// out\n        /* \"#utility.yul\":5033:5365   */\n    tag_44:\n        /* \"#utility.yul\":5154:5158   */\n      0x00\n        /* \"#utility.yul\":5192:5194   */\n      0x40\n        /* \"#utility.yul\":5181:5190   */\n      dup3\n        /* \"#utility.yul\":5177:5195   */\n      add\n        /* \"#utility.yul\":5169:5195   */\n      swap1\n      pop\n        /* \"#utility.yul\":5205:5276   */\n      tag_133\n        /* \"#utility.yul\":5273:5274   */\n      0x00\n        /* \"#utility.yul\":5262:5271   */\n      dup4\n        /* \"#utility.yul\":5258:5275   */\n      add\n        /* \"#utility.yul\":5249:5255   */\n      dup6\n        /* \"#utility.yul\":5205:5276   */\n      tag_58\n      jump\t// in\n    tag_133:\n        /* \"#utility.yul\":5286:5358   */\n      tag_134\n        /* \"#utility.yul\":5354:5356   */\n      0x20\n        /* \"#utility.yul\":5343:5352   */\n      dup4\n        /* \"#utility.yul\":5339:5357   */\n      add\n        /* \"#utility.yul\":5330:5336   */\n      dup5\n        /* \"#utility.yul\":5286:5358   */\n      tag_65\n      jump\t// in\n    tag_134:\n        /* \"#utility.yul\":5033:5365   */\n      swap4\n      swap3\n      pop\n      pop\n      pop\n      jump\t// out\n        /* \"#utility.yul\":5371:5562   */\n    tag_47:\n        /* \"#utility.yul\":5411:5415   */\n      0x00\n        /* \"#utility.yul\":5431:5451   */\n      tag_136\n        /* \"#utility.yul\":5449:5450   */\n      dup3\n        /* \"#utility.yul\":5431:5451   */\n      tag_64\n      jump\t// in\n    tag_136:\n        /* \"#utility.yul\":5426:5451   */\n      swap2\n      pop\n        /* \"#utility.yul\":5465:5485   */\n      tag_137\n        /* \"#utility.yul\":5483:5484   */\n      dup4\n        /* \"#utility.yul\":5465:5485   */\n      tag_64\n      jump\t// in\n    tag_137:\n        /* \"#utility.yul\":5460:5485   */\n      swap3\n      pop\n        /* \"#utility.yul\":5504:5505   */\n      dup3\n        /* \"#utility.yul\":5501:5502   */\n      dup3\n        /* \"#utility.yul\":5498:5506   */\n      lt\n        /* \"#utility.yul\":5495:5529   */\n      iszero\n      tag_138\n      jumpi\n        /* \"#utility.yul\":5509:5527   */\n      tag_139\n      tag_70\n      jump\t// in\n    tag_139:\n        /* \"#utility.yul\":5495:5529   */\n    tag_138:\n        /* \"#utility.yul\":5554:5555   */\n      dup3\n        /* \"#utility.yul\":5551:5552   */\n      dup3\n        /* \"#utility.yul\":5547:5556   */\n      sub\n        /* \"#utility.yul\":5539:5556   */\n      swap1\n      pop\n        /* \"#utility.yul\":5371:5562   */\n      swap3\n      swap2\n      pop\n      pop\n      jump\t// out\n        /* \"#utility.yul\":5568:6010   */\n    tag_50:\n        /* \"#utility.yul\":5717:5721   */\n      0x00\n        /* \"#utility.yul\":5755:5757   */\n      0x60\n        /* \"#utility.yul\":5744:5753   */\n      dup3\n        /* \"#utility.yul\":5740:5758   */\n      add\n        /* \"#utility.yul\":5732:5758   */\n      swap1\n      pop\n        /* \"#utility.yul\":5768:5839   */\n      tag_141\n        /* \"#utility.yul\":5836:5837   */\n      0x00\n        /* \"#utility.yul\":5825:5834   */\n      dup4\n        /* \"#utility.yul\":5821:5838   */\n      add\n        /* \"#utility.yul\":5812:5818   */\n      dup7\n        /* \"#utility.yul\":5768:5839   */\n      tag_58\n      jump\t// in\n    tag_141:\n        /* \"#utility.yul\":5849:5921   */\n      tag_142\n        /* \"#utility.yul\":5917:5919   */\n      0x20\n        /* \"#utility.yul\":5906:5915   */\n      dup4\n        /* \"#utility.yul\":5902:5920   */\n      add\n        /* \"#utility.yul\":5893:5899   */\n      dup6\n        /* \"#utility.yul\":5849:5921   */\n      tag_58\n      jump\t// in\n    tag_142:\n        /* \"#utility.yul\":5931:6003   */\n      tag_143\n        /* \"#utility.yul\":5999:6001   */\n      0x40\n        /* \"#utility.yul\":5988:5997   */\n      dup4\n        /* \"#utility.yul\":5984:6002   */\n      add\n        /* \"#utility.yul\":5975:5981   */\n      dup5\n        /* \"#utility.yul\":5931:6003   */\n      tag_65\n      jump\t// in\n    tag_143:\n        /* \"#utility.yul\":5568:6010   */\n      swap5\n      swap4\n      pop\n      pop\n      pop\n      pop\n      jump\t// out\n\n    auxdata: 0xa264697066735822122097f567241c976e06add18af1e7eb713fee7e5f70e5aaa18cdf12bfd61c07e75364736f6c634300080d0033\n}\n",
				"bytecode": {
					"linkReferences": {},
					"object": "608060405234801561001057600080fd5b506040516108c23803806108c283398181016040528101906100329190610100565b336000806101000a81548173ffffffffffffffffffffffffffffffffffffffff021916908373ffffffffffffffffffffffffffffffffffffffff16021790555080600181905550600154600260003373ffffffffffffffffffffffffffffffffffffffff1673ffffffffffffffffffffffffffffffffffffffff168152602001908152602001600020819055505061012d565b600080fd5b6000819050919050565b6100dd816100ca565b81146100e857600080fd5b50565b6000815190506100fa816100d4565b92915050565b600060208284031215610116576101156100c5565b5b6000610124848285016100eb565b91505092915050565b6107868061013c6000396000f3fe608060405234801561001057600080fd5b506004361061007d5760003560e01c8063313ce5671161005b578063313ce567146100ee57806340c10f191461010c57806395d89b4114610128578063d0679d34146101465761007d565b806306fdde031461008257806307546172146100a057806327e235e3146100be575b600080fd5b61008a610162565b6040516100979190610484565b60405180910390f35b6100a861019b565b6040516100b591906104e7565b60405180910390f35b6100d860048036038101906100d39190610533565b6101bf565b6040516100e59190610579565b60405180910390f35b6100f66101d7565b60405161010391906105b0565b60405180910390f35b610126600480360381019061012191906105f7565b6101dc565b005b6101306102c7565b60405161013d9190610484565b60405180910390f35b610160600480360381019061015b91906105f7565b610300565b005b6040518060400160405280600581526020017f46756e676500000000000000000000000000000000000000000000000000000081525081565b60008054906101000a900473ffffffffffffffffffffffffffffffffffffffff1681565b60026020528060005260406000206000915090505481565b601281565b60008054906101000a900473ffffffffffffffffffffffffffffffffffffffff1673ffffffffffffffffffffffffffffffffffffffff163373ffffffffffffffffffffffffffffffffffffffff161461023457600080fd5b80600260008473ffffffffffffffffffffffffffffffffffffffff1673ffffffffffffffffffffffffffffffffffffffff16815260200190815260200160002060008282546102839190610666565b925050819055507f0f6798a560793a54c3bcfe86a93cde1e73087d944c0ea20544137d412139688582826040516102bb9291906106bc565b60405180910390a15050565b6040518060400160405280600381526020017f464e47000000000000000000000000000000000000000000000000000000000081525081565b80600260003373ffffffffffffffffffffffffffffffffffffffff1673ffffffffffffffffffffffffffffffffffffffff168152602001908152602001600020600082825461034f91906106e5565b9250508190555080600260008473ffffffffffffffffffffffffffffffffffffffff1673ffffffffffffffffffffffffffffffffffffffff16815260200190815260200160002060008282546103a59190610666565b925050819055507f3990db2d31862302a685e8086b5755072a6e2b5b780af1ee81ece35ee3cd33453383836040516103df93929190610719565b60405180910390a15050565b600081519050919050565b600082825260208201905092915050565b60005b8381101561042557808201518184015260208101905061040a565b83811115610434576000848401525b50505050565b6000601f19601f8301169050919050565b6000610456826103eb565b61046081856103f6565b9350610470818560208601610407565b6104798161043a565b840191505092915050565b6000602082019050818103600083015261049e818461044b565b905092915050565b600073ffffffffffffffffffffffffffffffffffffffff82169050919050565b60006104d1826104a6565b9050919050565b6104e1816104c6565b82525050565b60006020820190506104fc60008301846104d8565b92915050565b600080fd5b610510816104c6565b811461051b57600080fd5b50565b60008135905061052d81610507565b92915050565b60006020828403121561054957610548610502565b5b60006105578482850161051e565b91505092915050565b6000819050919050565b61057381610560565b82525050565b600060208201905061058e600083018461056a565b92915050565b600060ff82169050919050565b6105aa81610594565b82525050565b60006020820190506105c560008301846105a1565b92915050565b6105d481610560565b81146105df57600080fd5b50565b6000813590506105f1816105cb565b92915050565b6000806040838503121561060e5761060d610502565b5b600061061c8582860161051e565b925050602061062d858286016105e2565b9150509250929050565b7f4e487b7100000000000000000000000000000000000000000000000000000000600052601160045260246000fd5b600061067182610560565b915061067c83610560565b9250827fffffffffffffffffffffffffffffffffffffffffffffffffffffffffffffffff038211156106b1576106b0610637565b5b828201905092915050565b60006040820190506106d160008301856104d8565b6106de602083018461056a565b9392505050565b60006106f082610560565b91506106fb83610560565b92508282101561070e5761070d610637565b5b828203905092915050565b600060608201905061072e60008301866104d8565b61073b60208301856104d8565b610748604083018461056a565b94935050505056fea264697066735822122097f567241c976e06add18af1e7eb713fee7e5f70e5aaa18cdf12bfd61c07e75364736f6c634300080d0033",
					"opcodes": "PUSH1 0x80 PUSH1 0x40 MSTORE CALLVALUE DUP1 ISZERO PUSH2 0x10 JUMPI PUSH1 0x0 DUP1 REVERT JUMPDEST POP PUSH1 0x40 MLOAD PUSH2 0x8C2 CODESIZE SUB DUP1 PUSH2 0x8C2 DUP4 CODECOPY DUP2 DUP2 ADD PUSH1 0x40 MSTORE DUP2 ADD SWAP1 PUSH2 0x32 SWAP2 SWAP1 PUSH2 0x100 JUMP JUMPDEST CALLER PUSH1 0x0 DUP1 PUSH2 0x100 EXP DUP2 SLOAD DUP2 PUSH20 0xFFFFFFFFFFFFFFFFFFFFFFFFFFFFFFFFFFFFFFFF MUL NOT AND SWAP1 DUP4 PUSH20 0xFFFFFFFFFFFFFFFFFFFFFFFFFFFFFFFFFFFFFFFF AND MUL OR SWAP1 SSTORE POP DUP1 PUSH1 0x1 DUP2 SWAP1 SSTORE POP PUSH1 0x1 SLOAD PUSH1 0x2 PUSH1 0x0 CALLER PUSH20 0xFFFFFFFFFFFFFFFFFFFFFFFFFFFFFFFFFFFFFFFF AND PUSH20 0xFFFFFFFFFFFFFFFFFFFFFFFFFFFFFFFFFFFFFFFF AND DUP2 MSTORE PUSH1 0x20 ADD SWAP1 DUP2 MSTORE PUSH1 0x20 ADD PUSH1 0x0 KECCAK256 DUP2 SWAP1 SSTORE POP POP PUSH2 0x12D JUMP JUMPDEST PUSH1 0x0 DUP1 REVERT JUMPDEST PUSH1 0x0 DUP2 SWAP1 POP SWAP2 SWAP1 POP JUMP JUMPDEST PUSH2 0xDD DUP2 PUSH2 0xCA JUMP JUMPDEST DUP2 EQ PUSH2 0xE8 JUMPI PUSH1 0x0 DUP1 REVERT JUMPDEST POP JUMP JUMPDEST PUSH1 0x0 DUP2 MLOAD SWAP1 POP PUSH2 0xFA DUP2 PUSH2 0xD4 JUMP JUMPDEST SWAP3 SWAP2 POP POP JUMP JUMPDEST PUSH1 0x0 PUSH1 0x20 DUP3 DUP5 SUB SLT ISZERO PUSH2 0x116 JUMPI PUSH2 0x115 PUSH2 0xC5 JUMP JUMPDEST JUMPDEST PUSH1 0x0 PUSH2 0x124 DUP5 DUP3 DUP6 ADD PUSH2 0xEB JUMP JUMPDEST SWAP2 POP POP SWAP3 SWAP2 POP POP JUMP JUMPDEST PUSH2 0x786 DUP1 PUSH2 0x13C PUSH1 0x0 CODECOPY PUSH1 0x0 RETURN INVALID PUSH1 0x80 PUSH1 0x40 MSTORE CALLVALUE DUP1 ISZERO PUSH2 0x10 JUMPI PUSH1 0x0 DUP1 REVERT JUMPDEST POP PUSH1 0x4 CALLDATASIZE LT PUSH2 0x7D JUMPI PUSH1 0x0 CALLDATALOAD PUSH1 0xE0 SHR DUP1 PUSH4 0x313CE567 GT PUSH2 0x5B JUMPI DUP1 PUSH4 0x313CE567 EQ PUSH2 0xEE JUMPI DUP1 PUSH4 0x40C10F19 EQ PUSH2 0x10C JUMPI DUP1 PUSH4 0x95D89B41 EQ PUSH2 0x128 JUMPI DUP1 PUSH4 0xD0679D34 EQ PUSH2 0x146 JUMPI PUSH2 0x7D JUMP JUMPDEST DUP1 PUSH4 0x6FDDE03 EQ PUSH2 0x82 JUMPI DUP1 PUSH4 0x7546172 EQ PUSH2 0xA0 JUMPI DUP1 PUSH4 0x27E235E3 EQ PUSH2 0xBE JUMPI JUMPDEST PUSH1 0x0 DUP1 REVERT JUMPDEST PUSH2 0x8A PUSH2 0x162 JUMP JUMPDEST PUSH1 0x40 MLOAD PUSH2 0x97 SWAP2 SWAP1 PUSH2 0x484 JUMP JUMPDEST PUSH1 0x40 MLOAD DUP1 SWAP2 SUB SWAP1 RETURN JUMPDEST PUSH2 0xA8 PUSH2 0x19B JUMP JUMPDEST PUSH1 0x40 MLOAD PUSH2 0xB5 SWAP2 SWAP1 PUSH2 0x4E7 JUMP JUMPDEST PUSH1 0x40 MLOAD DUP1 SWAP2 SUB SWAP1 RETURN JUMPDEST PUSH2 0xD8 PUSH1 0x4 DUP1 CALLDATASIZE SUB DUP2 ADD SWAP1 PUSH2 0xD3 SWAP2 SWAP1 PUSH2 0x533 JUMP JUMPDEST PUSH2 0x1BF JUMP JUMPDEST PUSH1 0x40 MLOAD PUSH2 0xE5 SWAP2 SWAP1 PUSH2 0x579 JUMP JUMPDEST PUSH1 0x40 MLOAD DUP1 SWAP2 SUB SWAP1 RETURN JUMPDEST PUSH2 0xF6 PUSH2 0x1D7 JUMP JUMPDEST PUSH1 0x40 MLOAD PUSH2 0x103 SWAP2 SWAP1 PUSH2 0x5B0 JUMP JUMPDEST PUSH1 0x40 MLOAD DUP1 SWAP2 SUB SWAP1 RETURN JUMPDEST PUSH2 0x126 PUSH1 0x4 DUP1 CALLDATASIZE SUB DUP2 ADD SWAP1 PUSH2 0x121 SWAP2 SWAP1 PUSH2 0x5F7 JUMP JUMPDEST PUSH2 0x1DC JUMP JUMPDEST STOP JUMPDEST PUSH2 0x130 PUSH2 0x2C7 JUMP JUMPDEST PUSH1 0x40 MLOAD PUSH2 0x13D SWAP2 SWAP1 PUSH2 0x484 JUMP JUMPDEST PUSH1 0x40 MLOAD DUP1 SWAP2 SUB SWAP1 RETURN JUMPDEST PUSH2 0x160 PUSH1 0x4 DUP1 CALLDATASIZE SUB DUP2 ADD SWAP1 PUSH2 0x15B SWAP2 SWAP1 PUSH2 0x5F7 JUMP JUMPDEST PUSH2 0x300 JUMP JUMPDEST STOP JUMPDEST PUSH1 0x40 MLOAD DUP1 PUSH1 0x40 ADD PUSH1 0x40 MSTORE DUP1 PUSH1 0x5 DUP2 MSTORE PUSH1 0x20 ADD PUSH32 0x46756E6765000000000000000000000000000000000000000000000000000000 DUP2 MSTORE POP DUP2 JUMP JUMPDEST PUSH1 0x0 DUP1 SLOAD SWAP1 PUSH2 0x100 EXP SWAP1 DIV PUSH20 0xFFFFFFFFFFFFFFFFFFFFFFFFFFFFFFFFFFFFFFFF AND DUP2 JUMP JUMPDEST PUSH1 0x2 PUSH1 0x20 MSTORE DUP1 PUSH1 0x0 MSTORE PUSH1 0x40 PUSH1 0x0 KECCAK256 PUSH1 0x0 SWAP2 POP SWAP1 POP SLOAD DUP2 JUMP JUMPDEST PUSH1 0x12 DUP2 JUMP JUMPDEST PUSH1 0x0 DUP1 SLOAD SWAP1 PUSH2 0x100 EXP SWAP1 DIV PUSH20 0xFFFFFFFFFFFFFFFFFFFFFFFFFFFFFFFFFFFFFFFF AND PUSH20 0xFFFFFFFFFFFFFFFFFFFFFFFFFFFFFFFFFFFFFFFF AND CALLER PUSH20 0xFFFFFFFFFFFFFFFFFFFFFFFFFFFFFFFFFFFFFFFF AND EQ PUSH2 0x234 JUMPI PUSH1 0x0 DUP1 REVERT JUMPDEST DUP1 PUSH1 0x2 PUSH1 0x0 DUP5 PUSH20 0xFFFFFFFFFFFFFFFFFFFFFFFFFFFFFFFFFFFFFFFF AND PUSH20 0xFFFFFFFFFFFFFFFFFFFFFFFFFFFFFFFFFFFFFFFF AND DUP2 MSTORE PUSH1 0x20 ADD SWAP1 DUP2 MSTORE PUSH1 0x20 ADD PUSH1 0x0 KECCAK256 PUSH1 0x0 DUP3 DUP3 SLOAD PUSH2 0x283 SWAP2 SWAP1 PUSH2 0x666 JUMP JUMPDEST SWAP3 POP POP DUP2 SWAP1 SSTORE POP PUSH32 0xF6798A560793A54C3BCFE86A93CDE1E73087D944C0EA20544137D4121396885 DUP3 DUP3 PUSH1 0x40 MLOAD PUSH2 0x2BB SWAP3 SWAP2 SWAP1 PUSH2 0x6BC JUMP JUMPDEST PUSH1 0x40 MLOAD DUP1 SWAP2 SUB SWAP1 LOG1 POP POP JUMP JUMPDEST PUSH1 0x40 MLOAD DUP1 PUSH1 0x40 ADD PUSH1 0x40 MSTORE DUP1 PUSH1 0x3 DUP2 MSTORE PUSH1 0x20 ADD PUSH32 0x464E470000000000000000000000000000000000000000000000000000000000 DUP2 MSTORE POP DUP2 JUMP JUMPDEST DUP1 PUSH1 0x2 PUSH1 0x0 CALLER PUSH20 0xFFFFFFFFFFFFFFFFFFFFFFFFFFFFFFFFFFFFFFFF AND PUSH20 0xFFFFFFFFFFFFFFFFFFFFFFFFFFFFFFFFFFFFFFFF AND DUP2 MSTORE PUSH1 0x20 ADD SWAP1 DUP2 MSTORE PUSH1 0x20 ADD PUSH1 0x0 KECCAK256 PUSH1 0x0 DUP3 DUP3 SLOAD PUSH2 0x34F SWAP2 SWAP1 PUSH2 0x6E5 JUMP JUMPDEST SWAP3 POP POP DUP2 SWAP1 SSTORE POP DUP1 PUSH1 0x2 PUSH1 0x0 DUP5 PUSH20 0xFFFFFFFFFFFFFFFFFFFFFFFFFFFFFFFFFFFFFFFF AND PUSH20 0xFFFFFFFFFFFFFFFFFFFFFFFFFFFFFFFFFFFFFFFF AND DUP2 MSTORE PUSH1 0x20 ADD SWAP1 DUP2 MSTORE PUSH1 0x20 ADD PUSH1 0x0 KECCAK256 PUSH1 0x0 DUP3 DUP3 SLOAD PUSH2 0x3A5 SWAP2 SWAP1 PUSH2 0x666 JUMP JUMPDEST SWAP3 POP POP DUP2 SWAP1 SSTORE POP PUSH32 0x3990DB2D31862302A685E8086B5755072A6E2B5B780AF1EE81ECE35EE3CD3345 CALLER DUP4 DUP4 PUSH1 0x40 MLOAD PUSH2 0x3DF SWAP4 SWAP3 SWAP2 SWAP1 PUSH2 0x719 JUMP JUMPDEST PUSH1 0x40 MLOAD DUP1 SWAP2 SUB SWAP1 LOG1 POP POP JUMP JUMPDEST PUSH1 0x0 DUP2 MLOAD SWAP1 POP SWAP2 SWAP1 POP JUMP JUMPDEST PUSH1 0x0 DUP3 DUP3 MSTORE PUSH1 0x20 DUP3 ADD SWAP1 POP SWAP3 SWAP2 POP POP JUMP JUMPDEST PUSH1 0x0 JUMPDEST DUP4 DUP2 LT ISZERO PUSH2 0x425 JUMPI DUP1 DUP3 ADD MLOAD DUP2 DUP5 ADD MSTORE PUSH1 0x20 DUP2 ADD SWAP1 POP PUSH2 0x40A JUMP JUMPDEST DUP4 DUP2 GT ISZERO PUSH2 0x434 JUMPI PUSH1 0x0 DUP5 DUP5 ADD MSTORE JUMPDEST POP POP POP POP JUMP JUMPDEST PUSH1 0x0 PUSH1 0x1F NOT PUSH1 0x1F DUP4 ADD AND SWAP1 POP SWAP2 SWAP1 POP JUMP JUMPDEST PUSH1 0x0 PUSH2 0x456 DUP3 PUSH2 0x3EB JUMP JUMPDEST PUSH2 0x460 DUP2 DUP6 PUSH2 0x3F6 JUMP JUMPDEST SWAP4 POP PUSH2 0x470 DUP2 DUP6 PUSH1 0x20 DUP7 ADD PUSH2 0x407 JUMP JUMPDEST PUSH2 0x479 DUP2 PUSH2 0x43A JUMP JUMPDEST DUP5 ADD SWAP2 POP POP SWAP3 SWAP2 POP POP JUMP JUMPDEST PUSH1 0x0 PUSH1 0x20 DUP3 ADD SWAP1 POP DUP2 DUP2 SUB PUSH1 0x0 DUP4 ADD MSTORE PUSH2 0x49E DUP2 DUP5 PUSH2 0x44B JUMP JUMPDEST SWAP1 POP SWAP3 SWAP2 POP POP JUMP JUMPDEST PUSH1 0x0 PUSH20 0xFFFFFFFFFFFFFFFFFFFFFFFFFFFFFFFFFFFFFFFF DUP3 AND SWAP1 POP SWAP2 SWAP1 POP JUMP JUMPDEST PUSH1 0x0 PUSH2 0x4D1 DUP3 PUSH2 0x4A6 JUMP JUMPDEST SWAP1 POP SWAP2 SWAP1 POP JUMP JUMPDEST PUSH2 0x4E1 DUP2 PUSH2 0x4C6 JUMP JUMPDEST DUP3 MSTORE POP POP JUMP JUMPDEST PUSH1 0x0 PUSH1 0x20 DUP3 ADD SWAP1 POP PUSH2 0x4FC PUSH1 0x0 DUP4 ADD DUP5 PUSH2 0x4D8 JUMP JUMPDEST SWAP3 SWAP2 POP POP JUMP JUMPDEST PUSH1 0x0 DUP1 REVERT JUMPDEST PUSH2 0x510 DUP2 PUSH2 0x4C6 JUMP JUMPDEST DUP2 EQ PUSH2 0x51B JUMPI PUSH1 0x0 DUP1 REVERT JUMPDEST POP JUMP JUMPDEST PUSH1 0x0 DUP2 CALLDATALOAD SWAP1 POP PUSH2 0x52D DUP2 PUSH2 0x507 JUMP JUMPDEST SWAP3 SWAP2 POP POP JUMP JUMPDEST PUSH1 0x0 PUSH1 0x20 DUP3 DUP5 SUB SLT ISZERO PUSH2 0x549 JUMPI PUSH2 0x548 PUSH2 0x502 JUMP JUMPDEST JUMPDEST PUSH1 0x0 PUSH2 0x557 DUP5 DUP3 DUP6 ADD PUSH2 0x51E JUMP JUMPDEST SWAP2 POP POP SWAP3 SWAP2 POP POP JUMP JUMPDEST PUSH1 0x0 DUP2 SWAP1 POP SWAP2 SWAP1 POP JUMP JUMPDEST PUSH2 0x573 DUP2 PUSH2 0x560 JUMP JUMPDEST DUP3 MSTORE POP POP JUMP JUMPDEST PUSH1 0x0 PUSH1 0x20 DUP3 ADD SWAP1 POP PUSH2 0x58E PUSH1 0x0 DUP4 ADD DUP5 PUSH2 0x56A JUMP JUMPDEST SWAP3 SWAP2 POP POP JUMP JUMPDEST PUSH1 0x0 PUSH1 0xFF DUP3 AND SWAP1 POP SWAP2 SWAP1 POP JUMP JUMPDEST PUSH2 0x5AA DUP2 PUSH2 0x594 JUMP JUMPDEST DUP3 MSTORE POP POP JUMP JUMPDEST PUSH1 0x0 PUSH1 0x20 DUP3 ADD SWAP1 POP PUSH2 0x5C5 PUSH1 0x0 DUP4 ADD DUP5 PUSH2 0x5A1 JUMP JUMPDEST SWAP3 SWAP2 POP POP JUMP JUMPDEST PUSH2 0x5D4 DUP2 PUSH2 0x560 JUMP JUMPDEST DUP2 EQ PUSH2 0x5DF JUMPI PUSH1 0x0 DUP1 REVERT JUMPDEST POP JUMP JUMPDEST PUSH1 0x0 DUP2 CALLDATALOAD SWAP1 POP PUSH2 0x5F1 DUP2 PUSH2 0x5CB JUMP JUMPDEST SWAP3 SWAP2 POP POP JUMP JUMPDEST PUSH1 0x0 DUP1 PUSH1 0x40 DUP4 DUP6 SUB SLT ISZERO PUSH2 0x60E JUMPI PUSH2 0x60D PUSH2 0x502 JUMP JUMPDEST JUMPDEST PUSH1 0x0 PUSH2 0x61C DUP6 DUP3 DUP7 ADD PUSH2 0x51E JUMP JUMPDEST SWAP3 POP POP PUSH1 0x20 PUSH2 0x62D DUP6 DUP3 DUP7 ADD PUSH2 0x5E2 JUMP JUMPDEST SWAP2 POP POP SWAP3 POP SWAP3 SWAP1 POP JUMP JUMPDEST PUSH32 0x4E487B7100000000000000000000000000000000000000000000000000000000 PUSH1 0x0 MSTORE PUSH1 0x11 PUSH1 0x4 MSTORE PUSH1 0x24 PUSH1 0x0 REVERT JUMPDEST PUSH1 0x0 PUSH2 0x671 DUP3 PUSH2 0x560 JUMP JUMPDEST SWAP2 POP PUSH2 0x67C DUP4 PUSH2 0x560 JUMP JUMPDEST SWAP3 POP DUP3 PUSH32 0xFFFFFFFFFFFFFFFFFFFFFFFFFFFFFFFFFFFFFFFFFFFFFFFFFFFFFFFFFFFFFFFF SUB DUP3 GT ISZERO PUSH2 0x6B1 JUMPI PUSH2 0x6B0 PUSH2 0x637 JUMP JUMPDEST JUMPDEST DUP3 DUP3 ADD SWAP1 POP SWAP3 SWAP2 POP POP JUMP JUMPDEST PUSH1 0x0 PUSH1 0x40 DUP3 ADD SWAP1 POP PUSH2 0x6D1 PUSH1 0x0 DUP4 ADD DUP6 PUSH2 0x4D8 JUMP JUMPDEST PUSH2 0x6DE PUSH1 0x20 DUP4 ADD DUP5 PUSH2 0x56A JUMP JUMPDEST SWAP4 SWAP3 POP POP POP JUMP JUMPDEST PUSH1 0x0 PUSH2 0x6F0 DUP3 PUSH2 0x560 JUMP JUMPDEST SWAP2 POP PUSH2 0x6FB DUP4 PUSH2 0x560 JUMP JUMPDEST SWAP3 POP DUP3 DUP3 LT ISZERO PUSH2 0x70E JUMPI PUSH2 0x70D PUSH2 0x637 JUMP JUMPDEST JUMPDEST DUP3 DUP3 SUB SWAP1 POP SWAP3 SWAP2 POP POP JUMP JUMPDEST PUSH1 0x0 PUSH1 0x60 DUP3 ADD SWAP1 POP PUSH2 0x72E PUSH1 0x0 DUP4 ADD DUP7 PUSH2 0x4D8 JUMP JUMPDEST PUSH2 0x73B PUSH1 0x20 DUP4 ADD DUP6 PUSH2 0x4D8 JUMP JUMPDEST PUSH2 0x748 PUSH1 0x40 DUP4 ADD DUP5 PUSH2 0x56A JUMP JUMPDEST SWAP5 SWAP4 POP POP POP POP JUMP INVALID LOG2 PUSH5 0x6970667358 0x22 SLT KECCAK256 SWAP8 CREATE2 PUSH8 0x241C976E06ADD18A CALL 0xE7 0xEB PUSH18 0x3FEE7E5F70E5AAA18CDF12BFD61C07E75364 PUSH20 0x6F6C634300080D00330000000000000000000000 "
				},
				"gasEstimates": {
					"creation": {
						"codeDepositCost": "385200",
						"executionCost": "infinite",
						"totalCost": "infinite"
					},
					"external": {
						"balances(address)": "2859",
						"decimals()": "335",
						"mint(address,uint256)": "infinite",
						"minter()": "2534",
						"name()": "infinite",
						"send(address,uint256)": "infinite",
						"symbol()": "infinite"
					}
				},
				"methodIdentifiers": {
					"balances(address)": "27e235e3",
					"decimals()": "313ce567",
					"mint(address,uint256)": "40c10f19",
					"minter()": "07546172",
					"name()": "06fdde03",
					"send(address,uint256)": "d0679d34",
					"symbol()": "95d89b41"
				}
			},
			"storageLayout": {
				"storage": [
					{
						"astId": 12,
						"contract": "contracts/Funge.sol:Funge",
						"label": "minter",
						"offset": 0,
						"slot": "0",
						"type": "t_address"
					},
					{
						"astId": 14,
						"contract": "contracts/Funge.sol:Funge",
						"label": "totalSupply_",
						"offset": 0,
						"slot": "1",
						"type": "t_uint256"
					},
					{
						"astId": 18,
						"contract": "contracts/Funge.sol:Funge",
						"label": "balances",
						"offset": 0,
						"slot": "2",
						"type": "t_mapping(t_address,t_uint256)"
					}
				],
				"types": {
					"t_address": {
						"encoding": "inplace",
						"label": "address",
						"numberOfBytes": "20"
					},
					"t_mapping(t_address,t_uint256)": {
						"encoding": "mapping",
						"key": "t_address",
						"label": "mapping(address => uint256)",
						"numberOfBytes": "32",
						"value": "t_uint256"
					},
					"t_uint256": {
						"encoding": "inplace",
						"label": "uint256",
						"numberOfBytes": "32"
					}
				}
			},
			"userdoc": {
				"kind": "user",
				"methods": {},
				"version": 1
			}
		}
	}
}