{
	"contracts/NFTSwapper.sol": {
		"NFTSwapper": {
			"abi": [
				{
					"inputs": [],
					"stateMutability": "nonpayable",
					"type": "constructor"
				},
				{
					"anonymous": false,
					"inputs": [
						{
							"indexed": true,
							"internalType": "address",
							"name": "previousOwner",
							"type": "address"
						},
						{
							"indexed": true,
							"internalType": "address",
							"name": "newOwner",
							"type": "address"
						}
					],
					"name": "OwnershipTransferred",
					"type": "event"
				},
				{
					"anonymous": false,
					"inputs": [
						{
							"indexed": true,
							"internalType": "uint256",
							"name": "id",
							"type": "uint256"
						},
						{
							"indexed": true,
							"internalType": "enum NFTSwapper.SwapState",
							"name": "state",
							"type": "uint8"
						}
					],
					"name": "SwapStateChanged",
					"type": "event"
				},
				{
					"anonymous": false,
					"inputs": [
						{
							"indexed": true,
							"internalType": "address",
							"name": "sender",
							"type": "address"
						},
						{
							"indexed": true,
							"internalType": "uint256",
							"name": "amount",
							"type": "uint256"
						}
					],
					"name": "WithdrawBalance",
					"type": "event"
				},
				{
					"stateMutability": "payable",
					"type": "fallback"
				},
				{
					"inputs": [
						{
							"internalType": "uint256",
							"name": "id",
							"type": "uint256"
						}
					],
					"name": "cancel",
					"outputs": [],
					"stateMutability": "nonpayable",
					"type": "function"
				},
				{
					"inputs": [],
					"name": "getContributors",
					"outputs": [
						{
							"internalType": "address[]",
							"name": "",
							"type": "address[]"
						}
					],
					"stateMutability": "view",
					"type": "function"
				},
				{
					"inputs": [
						{
							"internalType": "address",
							"name": "nft",
							"type": "address"
						}
					],
					"name": "getHandler",
					"outputs": [
						{
							"internalType": "contract ISwapperHandler",
							"name": "handler",
							"type": "address"
						}
					],
					"stateMutability": "view",
					"type": "function"
				},
				{
					"inputs": [],
					"name": "getHandlers",
					"outputs": [
						{
							"internalType": "contract ISwapperHandler[]",
							"name": "",
							"type": "address[]"
						}
					],
					"stateMutability": "view",
					"type": "function"
				},
				{
					"inputs": [],
					"name": "getRegisterFee",
					"outputs": [
						{
							"internalType": "uint256",
							"name": "",
							"type": "uint256"
						}
					],
					"stateMutability": "view",
					"type": "function"
				},
				{
					"inputs": [
						{
							"internalType": "address",
							"name": "constributor",
							"type": "address"
						}
					],
					"name": "getShare",
					"outputs": [
						{
							"internalType": "uint256",
							"name": "",
							"type": "uint256"
						}
					],
					"stateMutability": "view",
					"type": "function"
				},
				{
					"inputs": [
						{
							"internalType": "uint256",
							"name": "id",
							"type": "uint256"
						}
					],
					"name": "getSwap",
					"outputs": [
						{
							"components": [
								{
									"internalType": "uint256",
									"name": "Id",
									"type": "uint256"
								},
								{
									"internalType": "enum NFTSwapper.SwapState",
									"name": "State",
									"type": "uint8"
								},
								{
									"internalType": "address",
									"name": "Bidder",
									"type": "address"
								},
								{
									"components": [
										{
											"internalType": "address",
											"name": "NFT",
											"type": "address"
										},
										{
											"internalType": "bytes32",
											"name": "TokenId",
											"type": "bytes32"
										},
										{
											"internalType": "uint256",
											"name": "Amount",
											"type": "uint256"
										}
									],
									"internalType": "struct NFTSwapper.Token[]",
									"name": "Offer",
									"type": "tuple[]"
								},
								{
									"internalType": "address[]",
									"name": "Tendered",
									"type": "address[]"
								},
								{
									"components": [
										{
											"internalType": "address",
											"name": "NFT",
											"type": "address"
										},
										{
											"internalType": "bytes32",
											"name": "TokenId",
											"type": "bytes32"
										},
										{
											"internalType": "uint256",
											"name": "Amount",
											"type": "uint256"
										}
									],
									"internalType": "struct NFTSwapper.Token[]",
									"name": "Demand",
									"type": "tuple[]"
								}
							],
							"internalType": "struct NFTSwapper.Swap",
							"name": "",
							"type": "tuple"
						}
					],
					"stateMutability": "view",
					"type": "function"
				},
				{
					"inputs": [],
					"name": "getSwapCount",
					"outputs": [
						{
							"internalType": "uint256",
							"name": "",
							"type": "uint256"
						}
					],
					"stateMutability": "view",
					"type": "function"
				},
				{
					"inputs": [],
					"name": "getSwapFee",
					"outputs": [
						{
							"internalType": "uint256",
							"name": "",
							"type": "uint256"
						}
					],
					"stateMutability": "view",
					"type": "function"
				},
				{
					"inputs": [
						{
							"internalType": "address",
							"name": "account",
							"type": "address"
						}
					],
					"name": "getSwaps",
					"outputs": [
						{
							"internalType": "uint256[]",
							"name": "",
							"type": "uint256[]"
						}
					],
					"stateMutability": "view",
					"type": "function"
				},
				{
					"inputs": [],
					"name": "getTotalShares",
					"outputs": [
						{
							"internalType": "uint256",
							"name": "",
							"type": "uint256"
						}
					],
					"stateMutability": "view",
					"type": "function"
				},
				{
					"inputs": [],
					"name": "owner",
					"outputs": [
						{
							"internalType": "address",
							"name": "",
							"type": "address"
						}
					],
					"stateMutability": "view",
					"type": "function"
				},
				{
					"inputs": [
						{
							"internalType": "address",
							"name": "bidder",
							"type": "address"
						},
						{
							"components": [
								{
									"internalType": "address",
									"name": "NFT",
									"type": "address"
								},
								{
									"internalType": "bytes32",
									"name": "TokenId",
									"type": "bytes32"
								},
								{
									"internalType": "uint256",
									"name": "Amount",
									"type": "uint256"
								}
							],
							"internalType": "struct NFTSwapper.Token[]",
							"name": "offer",
							"type": "tuple[]"
						},
						{
							"internalType": "address[]",
							"name": "tendered",
							"type": "address[]"
						},
						{
							"components": [
								{
									"internalType": "address",
									"name": "NFT",
									"type": "address"
								},
								{
									"internalType": "bytes32",
									"name": "TokenId",
									"type": "bytes32"
								},
								{
									"internalType": "uint256",
									"name": "Amount",
									"type": "uint256"
								}
							],
							"internalType": "struct NFTSwapper.Token[]",
							"name": "demand",
							"type": "tuple[]"
						}
					],
					"name": "register",
					"outputs": [
						{
							"internalType": "uint256",
							"name": "id",
							"type": "uint256"
						}
					],
					"stateMutability": "payable",
					"type": "function"
				},
				{
					"inputs": [],
					"name": "renounceOwnership",
					"outputs": [],
					"stateMutability": "nonpayable",
					"type": "function"
				},
				{
					"inputs": [
						{
							"internalType": "uint256",
							"name": "id",
							"type": "uint256"
						},
						{
							"internalType": "address",
							"name": "applicant",
							"type": "address"
						},
						{
							"internalType": "bool",
							"name": "approved",
							"type": "bool"
						}
					],
					"name": "setApprovedTendered",
					"outputs": [],
					"stateMutability": "nonpayable",
					"type": "function"
				},
				{
					"inputs": [
						{
							"internalType": "address",
							"name": "contributor",
							"type": "address"
						},
						{
							"internalType": "uint256",
							"name": "share",
							"type": "uint256"
						}
					],
					"name": "setContributor",
					"outputs": [],
					"stateMutability": "nonpayable",
					"type": "function"
				},
				{
					"inputs": [
						{
							"internalType": "uint256",
							"name": "fee",
							"type": "uint256"
						}
					],
					"name": "setRegisterFee",
					"outputs": [],
					"stateMutability": "nonpayable",
					"type": "function"
				},
				{
					"inputs": [
						{
							"internalType": "uint256",
							"name": "fee",
							"type": "uint256"
						}
					],
					"name": "setSwapFee",
					"outputs": [],
					"stateMutability": "nonpayable",
					"type": "function"
				},
				{
					"inputs": [
						{
							"internalType": "address",
							"name": "handlerAddress",
							"type": "address"
						}
					],
					"name": "supportStandard",
					"outputs": [],
					"stateMutability": "nonpayable",
					"type": "function"
				},
				{
					"inputs": [
						{
							"internalType": "uint256",
							"name": "id",
							"type": "uint256"
						}
					],
					"name": "swap",
					"outputs": [],
					"stateMutability": "payable",
					"type": "function"
				},
				{
					"inputs": [
						{
							"internalType": "address",
							"name": "newOwner",
							"type": "address"
						}
					],
					"name": "transferOwnership",
					"outputs": [],
					"stateMutability": "nonpayable",
					"type": "function"
				},
				{
					"inputs": [
						{
							"internalType": "uint256",
							"name": "id",
							"type": "uint256"
						}
					],
					"name": "uncancel",
					"outputs": [],
					"stateMutability": "nonpayable",
					"type": "function"
				},
				{
					"inputs": [
						{
							"internalType": "address",
							"name": "handlerAddress",
							"type": "address"
						}
					],
					"name": "unsupportStandard",
					"outputs": [],
					"stateMutability": "nonpayable",
					"type": "function"
				},
				{
					"inputs": [],
					"name": "withdraw",
					"outputs": [],
					"stateMutability": "nonpayable",
					"type": "function"
				},
				{
					"stateMutability": "payable",
					"type": "receive"
				}
			],
			"devdoc": {
				"kind": "dev",
				"methods": {
					"owner()": {
						"details": "Returns the address of the current owner."
					},
					"renounceOwnership()": {
						"details": "Leaves the contract without owner. It will not be possible to call `onlyOwner` functions anymore. Can only be called by the current owner. NOTE: Renouncing ownership will leave the contract without an owner, thereby removing any functionality that is only available to the owner."
					},
					"transferOwnership(address)": {
						"details": "Transfers ownership of the contract to a new account (`newOwner`). Can only be called by the current owner."
					}
				},
				"version": 1
			},
			"evm": {
				"assembly": "    /* \"contracts/NFTSwapper.sol\":258:11693  contract NFTSwapper is Context, Ownable... */\n  mstore(0x40, 0x80)\n    /* \"contracts/NFTSwapper.sol\":1119:1126  0 ether */\n  0x00\n    /* \"contracts/NFTSwapper.sol\":1088:1126  uint256 private _registerFee = 0 ether */\n  0x06\n  sstore\n    /* \"contracts/NFTSwapper.sol\":1160:1167  0 ether */\n  0x00\n    /* \"contracts/NFTSwapper.sol\":1133:1167  uint256 private _swapFee = 0 ether */\n  0x07\n  sstore\n    /* \"contracts/NFTSwapper.sol\":1266:1332  constructor() {... */\n  callvalue\n  dup1\n  iszero\n  tag_1\n  jumpi\n  0x00\n  dup1\n  revert\ntag_1:\n  pop\n    /* \"@openzeppelin/contracts/access/Ownable.sol\":936:968  _transferOwnership(_msgSender()) */\n  tag_5\n    /* \"@openzeppelin/contracts/access/Ownable.sol\":955:967  _msgSender() */\n  tag_6\n    /* \"@openzeppelin/contracts/access/Ownable.sol\":955:965  _msgSender */\n  shl(0x20, tag_7)\n    /* \"@openzeppelin/contracts/access/Ownable.sol\":955:967  _msgSender() */\n  0x20\n  shr\n  jump\t// in\ntag_6:\n    /* \"@openzeppelin/contracts/access/Ownable.sol\":936:954  _transferOwnership */\n  shl(0x20, tag_8)\n    /* \"@openzeppelin/contracts/access/Ownable.sol\":936:968  _transferOwnership(_msgSender()) */\n  0x20\n  shr\n  jump\t// in\ntag_5:\n    /* \"contracts/NFTSwapper.sol\":1291:1324  setContributor(_msgSender(), 100) */\n  tag_10\n    /* \"contracts/NFTSwapper.sol\":1306:1318  _msgSender() */\n  tag_11\n    /* \"contracts/NFTSwapper.sol\":1306:1316  _msgSender */\n  shl(0x20, tag_7)\n    /* \"contracts/NFTSwapper.sol\":1306:1318  _msgSender() */\n  0x20\n  shr\n  jump\t// in\ntag_11:\n    /* \"contracts/NFTSwapper.sol\":1320:1323  100 */\n  0x64\n    /* \"contracts/NFTSwapper.sol\":1291:1305  setContributor */\n  shl(0x20, tag_12)\n    /* \"contracts/NFTSwapper.sol\":1291:1324  setContributor(_msgSender(), 100) */\n  0x20\n  shr\n  jump\t// in\ntag_10:\n    /* \"contracts/NFTSwapper.sol\":258:11693  contract NFTSwapper is Context, Ownable... */\n  jump(tag_13)\n    /* \"@openzeppelin/contracts/utils/Context.sol\":640:736  function _msgSender() internal view virtual returns (address) {... */\ntag_7:\n    /* \"@openzeppelin/contracts/utils/Context.sol\":693:700  address */\n  0x00\n    /* \"@openzeppelin/contracts/utils/Context.sol\":719:729  msg.sender */\n  caller\n    /* \"@openzeppelin/contracts/utils/Context.sol\":712:729  return msg.sender */\n  swap1\n  pop\n    /* \"@openzeppelin/contracts/utils/Context.sol\":640:736  function _msgSender() internal view virtual returns (address) {... */\n  swap1\n  jump\t// out\n    /* \"@openzeppelin/contracts/access/Ownable.sol\":2433:2620  function _transferOwnership(address newOwner) internal virtual {... */\ntag_8:\n    /* \"@openzeppelin/contracts/access/Ownable.sol\":2506:2522  address oldOwner */\n  0x00\n    /* \"@openzeppelin/contracts/access/Ownable.sol\":2525:2531  _owner */\n  dup1\n  0x00\n  swap1\n  sload\n  swap1\n  0x0100\n  exp\n  swap1\n  div\n  0xffffffffffffffffffffffffffffffffffffffff\n  and\n    /* \"@openzeppelin/contracts/access/Ownable.sol\":2506:2531  address oldOwner = _owner */\n  swap1\n  pop\n    /* \"@openzeppelin/contracts/access/Ownable.sol\":2550:2558  newOwner */\n  dup2\n    /* \"@openzeppelin/contracts/access/Ownable.sol\":2541:2547  _owner */\n  0x00\n  dup1\n    /* \"@openzeppelin/contracts/access/Ownable.sol\":2541:2558  _owner = newOwner */\n  0x0100\n  exp\n  dup2\n  sload\n  dup2\n  0xffffffffffffffffffffffffffffffffffffffff\n  mul\n  not\n  and\n  swap1\n  dup4\n  0xffffffffffffffffffffffffffffffffffffffff\n  and\n  mul\n  or\n  swap1\n  sstore\n  pop\n    /* \"@openzeppelin/contracts/access/Ownable.sol\":2604:2612  newOwner */\n  dup2\n    /* \"@openzeppelin/contracts/access/Ownable.sol\":2573:2613  OwnershipTransferred(oldOwner, newOwner) */\n  0xffffffffffffffffffffffffffffffffffffffff\n  and\n    /* \"@openzeppelin/contracts/access/Ownable.sol\":2594:2602  oldOwner */\n  dup2\n    /* \"@openzeppelin/contracts/access/Ownable.sol\":2573:2613  OwnershipTransferred(oldOwner, newOwner) */\n  0xffffffffffffffffffffffffffffffffffffffff\n  and\n  0x8be0079c531659141344cd1fd0a4f28419497f9722a3daafe3b4186f6b6457e0\n  mload(0x40)\n  mload(0x40)\n  dup1\n  swap2\n  sub\n  swap1\n  log3\n    /* \"@openzeppelin/contracts/access/Ownable.sol\":2496:2620  {... */\n  pop\n    /* \"@openzeppelin/contracts/access/Ownable.sol\":2433:2620  function _transferOwnership(address newOwner) internal virtual {... */\n  pop\n  jump\t// out\n    /* \"contracts/NFTSwapper.sol\":9037:10206  function setContributor(address contributor, uint256 share) public onlyOwner()... */\ntag_12:\n    /* \"@openzeppelin/contracts/access/Ownable.sol\":1094:1107  _checkOwner() */\n  tag_17\n    /* \"@openzeppelin/contracts/access/Ownable.sol\":1094:1105  _checkOwner */\n  shl(0x20, tag_18)\n    /* \"@openzeppelin/contracts/access/Ownable.sol\":1094:1107  _checkOwner() */\n  0x20\n  shr\n  jump\t// in\ntag_17:\n    /* \"contracts/NFTSwapper.sol\":9168:9169  0 */\n  0x00\n    /* \"contracts/NFTSwapper.sol\":9141:9152  contributor */\n  dup3\n    /* \"contracts/NFTSwapper.sol\":9141:9164  contributor.code.length */\n  0xffffffffffffffffffffffffffffffffffffffff\n  and\n  extcodesize\n    /* \"contracts/NFTSwapper.sol\":9141:9169  contributor.code.length == 0 */\n  eq\n    /* \"contracts/NFTSwapper.sol\":9133:9234  require(contributor.code.length == 0, \"NFTSwapper: setContributor: contributor address is not a EOA\") */\n  tag_20\n  jumpi\n  mload(0x40)\n  0x08c379a000000000000000000000000000000000000000000000000000000000\n  dup2\n  mstore\n  0x04\n  add\n  tag_21\n  swap1\n  tag_22\n  jump\t// in\ntag_21:\n  mload(0x40)\n  dup1\n  swap2\n  sub\n  swap1\n  revert\ntag_20:\n    /* \"contracts/NFTSwapper.sol\":9256:9257  0 */\n  0x00\n    /* \"contracts/NFTSwapper.sol\":9248:9253  share */\n  dup2\n    /* \"contracts/NFTSwapper.sol\":9248:9257  share > 0 */\n  gt\n    /* \"contracts/NFTSwapper.sol\":9245:10198  if(share > 0){... */\n  iszero\n  tag_23\n  jumpi\n    /* \"contracts/NFTSwapper.sol\":9310:9311  0 */\n  0x00\n    /* \"contracts/NFTSwapper.sol\":9276:9294  _contributorShares */\n  0x03\n    /* \"contracts/NFTSwapper.sol\":9276:9307  _contributorShares[contributor] */\n  0x00\n    /* \"contracts/NFTSwapper.sol\":9295:9306  contributor */\n  dup5\n    /* \"contracts/NFTSwapper.sol\":9276:9307  _contributorShares[contributor] */\n  0xffffffffffffffffffffffffffffffffffffffff\n  and\n  0xffffffffffffffffffffffffffffffffffffffff\n  and\n  dup2\n  mstore\n  0x20\n  add\n  swap1\n  dup2\n  mstore\n  0x20\n  add\n  0x00\n  keccak256\n  sload\n    /* \"contracts/NFTSwapper.sol\":9276:9311  _contributorShares[contributor] > 0 */\n  gt\n    /* \"contracts/NFTSwapper.sol\":9273:9657  if(_contributorShares[contributor] > 0){... */\n  iszero\n  tag_24\n  jumpi\n    /* \"contracts/NFTSwapper.sol\":9395:9400  share */\n  dup1\n    /* \"contracts/NFTSwapper.sol\":9361:9379  _contributorShares */\n  0x03\n    /* \"contracts/NFTSwapper.sol\":9361:9392  _contributorShares[contributor] */\n  0x00\n    /* \"contracts/NFTSwapper.sol\":9380:9391  contributor */\n  dup5\n    /* \"contracts/NFTSwapper.sol\":9361:9392  _contributorShares[contributor] */\n  0xffffffffffffffffffffffffffffffffffffffff\n  and\n  0xffffffffffffffffffffffffffffffffffffffff\n  and\n  dup2\n  mstore\n  0x20\n  add\n  swap1\n  dup2\n  mstore\n  0x20\n  add\n  0x00\n  keccak256\n  sload\n    /* \"contracts/NFTSwapper.sol\":9346:9358  _totalShares */\n  sload(0x05)\n    /* \"contracts/NFTSwapper.sol\":9346:9392  _totalShares - _contributorShares[contributor] */\n  tag_25\n  swap2\n  swap1\n  tag_26\n  jump\t// in\ntag_25:\n    /* \"contracts/NFTSwapper.sol\":9346:9400  _totalShares - _contributorShares[contributor] + share */\n  tag_27\n  swap2\n  swap1\n  tag_28\n  jump\t// in\ntag_27:\n    /* \"contracts/NFTSwapper.sol\":9331:9343  _totalShares */\n  0x05\n    /* \"contracts/NFTSwapper.sol\":9331:9400  _totalShares = _totalShares - _contributorShares[contributor] + share */\n  dup2\n  swap1\n  sstore\n  pop\n    /* \"contracts/NFTSwapper.sol\":9453:9458  share */\n  dup1\n    /* \"contracts/NFTSwapper.sol\":9419:9437  _contributorShares */\n  0x03\n    /* \"contracts/NFTSwapper.sol\":9419:9450  _contributorShares[contributor] */\n  0x00\n    /* \"contracts/NFTSwapper.sol\":9438:9449  contributor */\n  dup5\n    /* \"contracts/NFTSwapper.sol\":9419:9450  _contributorShares[contributor] */\n  0xffffffffffffffffffffffffffffffffffffffff\n  and\n  0xffffffffffffffffffffffffffffffffffffffff\n  and\n  dup2\n  mstore\n  0x20\n  add\n  swap1\n  dup2\n  mstore\n  0x20\n  add\n  0x00\n  keccak256\n    /* \"contracts/NFTSwapper.sol\":9419:9458  _contributorShares[contributor] = share */\n  dup2\n  swap1\n  sstore\n  pop\n    /* \"contracts/NFTSwapper.sol\":9273:9657  if(_contributorShares[contributor] > 0){... */\n  jump(tag_29)\ntag_24:\n    /* \"contracts/NFTSwapper.sol\":9528:9533  share */\n  dup1\n    /* \"contracts/NFTSwapper.sol\":9513:9525  _totalShares */\n  sload(0x05)\n    /* \"contracts/NFTSwapper.sol\":9513:9533  _totalShares + share */\n  tag_30\n  swap2\n  swap1\n  tag_28\n  jump\t// in\ntag_30:\n    /* \"contracts/NFTSwapper.sol\":9498:9510  _totalShares */\n  0x05\n    /* \"contracts/NFTSwapper.sol\":9498:9533  _totalShares = _totalShares + share */\n  dup2\n  swap1\n  sstore\n  pop\n    /* \"contracts/NFTSwapper.sol\":9586:9591  share */\n  dup1\n    /* \"contracts/NFTSwapper.sol\":9552:9570  _contributorShares */\n  0x03\n    /* \"contracts/NFTSwapper.sol\":9552:9583  _contributorShares[contributor] */\n  0x00\n    /* \"contracts/NFTSwapper.sol\":9571:9582  contributor */\n  dup5\n    /* \"contracts/NFTSwapper.sol\":9552:9583  _contributorShares[contributor] */\n  0xffffffffffffffffffffffffffffffffffffffff\n  and\n  0xffffffffffffffffffffffffffffffffffffffff\n  and\n  dup2\n  mstore\n  0x20\n  add\n  swap1\n  dup2\n  mstore\n  0x20\n  add\n  0x00\n  keccak256\n    /* \"contracts/NFTSwapper.sol\":9552:9591  _contributorShares[contributor] = share */\n  dup2\n  swap1\n  sstore\n  pop\n    /* \"contracts/NFTSwapper.sol\":9610:9623  _contributors */\n  0x04\n    /* \"contracts/NFTSwapper.sol\":9629:9640  contributor */\n  dup3\n    /* \"contracts/NFTSwapper.sol\":9610:9641  _contributors.push(contributor) */\n  swap1\n  dup1\n  0x01\n  dup2\n  sload\n  add\n  dup1\n  dup3\n  sstore\n  dup1\n  swap2\n  pop\n  pop\n  0x01\n  swap1\n  sub\n  swap1\n  0x00\n  mstore\n  keccak256(0x00, 0x20)\n  add\n  0x00\n  swap1\n  swap2\n  swap1\n  swap2\n  swap1\n  swap2\n  0x0100\n  exp\n  dup2\n  sload\n  dup2\n  0xffffffffffffffffffffffffffffffffffffffff\n  mul\n  not\n  and\n  swap1\n  dup4\n  0xffffffffffffffffffffffffffffffffffffffff\n  and\n  mul\n  or\n  swap1\n  sstore\n  pop\n    /* \"contracts/NFTSwapper.sol\":9273:9657  if(_contributorShares[contributor] > 0){... */\ntag_29:\n    /* \"contracts/NFTSwapper.sol\":9245:10198  if(share > 0){... */\n  jump(tag_32)\ntag_23:\n    /* \"contracts/NFTSwapper.sol\":9729:9730  0 */\n  0x00\n    /* \"contracts/NFTSwapper.sol\":9695:9713  _contributorShares */\n  0x03\n    /* \"contracts/NFTSwapper.sol\":9695:9726  _contributorShares[contributor] */\n  0x00\n    /* \"contracts/NFTSwapper.sol\":9714:9725  contributor */\n  dup5\n    /* \"contracts/NFTSwapper.sol\":9695:9726  _contributorShares[contributor] */\n  0xffffffffffffffffffffffffffffffffffffffff\n  and\n  0xffffffffffffffffffffffffffffffffffffffff\n  and\n  dup2\n  mstore\n  0x20\n  add\n  swap1\n  dup2\n  mstore\n  0x20\n  add\n  0x00\n  keccak256\n  sload\n    /* \"contracts/NFTSwapper.sol\":9695:9730  _contributorShares[contributor] > 0 */\n  gt\n    /* \"contracts/NFTSwapper.sol\":9687:9787  require(_contributorShares[contributor] > 0, \"NFTSwapper: removeContributor: contributor not found\") */\n  tag_33\n  jumpi\n  mload(0x40)\n  0x08c379a000000000000000000000000000000000000000000000000000000000\n  dup2\n  mstore\n  0x04\n  add\n  tag_34\n  swap1\n  tag_35\n  jump\t// in\ntag_34:\n  mload(0x40)\n  dup1\n  swap2\n  sub\n  swap1\n  revert\ntag_33:\n    /* \"contracts/NFTSwapper.sol\":9832:9850  _contributorShares */\n  0x03\n    /* \"contracts/NFTSwapper.sol\":9832:9863  _contributorShares[contributor] */\n  0x00\n    /* \"contracts/NFTSwapper.sol\":9851:9862  contributor */\n  dup4\n    /* \"contracts/NFTSwapper.sol\":9832:9863  _contributorShares[contributor] */\n  0xffffffffffffffffffffffffffffffffffffffff\n  and\n  0xffffffffffffffffffffffffffffffffffffffff\n  and\n  dup2\n  mstore\n  0x20\n  add\n  swap1\n  dup2\n  mstore\n  0x20\n  add\n  0x00\n  keccak256\n  sload\n    /* \"contracts/NFTSwapper.sol\":9817:9829  _totalShares */\n  sload(0x05)\n    /* \"contracts/NFTSwapper.sol\":9817:9863  _totalShares - _contributorShares[contributor] */\n  tag_36\n  swap2\n  swap1\n  tag_26\n  jump\t// in\ntag_36:\n    /* \"contracts/NFTSwapper.sol\":9802:9814  _totalShares */\n  0x05\n    /* \"contracts/NFTSwapper.sol\":9802:9863  _totalShares = _totalShares - _contributorShares[contributor] */\n  dup2\n  swap1\n  sstore\n  pop\n    /* \"contracts/NFTSwapper.sol\":9882:9891  uint256 i */\n  0x00\n    /* \"contracts/NFTSwapper.sol\":9878:10134  for(uint256 i = 0; i < _contributors.length; i++) {... */\ntag_37:\n    /* \"contracts/NFTSwapper.sol\":9901:9914  _contributors */\n  0x04\n    /* \"contracts/NFTSwapper.sol\":9901:9921  _contributors.length */\n  dup1\n  sload\n  swap1\n  pop\n    /* \"contracts/NFTSwapper.sol\":9897:9898  i */\n  dup2\n    /* \"contracts/NFTSwapper.sol\":9897:9921  i < _contributors.length */\n  lt\n    /* \"contracts/NFTSwapper.sol\":9878:10134  for(uint256 i = 0; i < _contributors.length; i++) {... */\n  iszero\n  tag_38\n  jumpi\n    /* \"contracts/NFTSwapper.sol\":9970:9981  contributor */\n  dup3\n    /* \"contracts/NFTSwapper.sol\":9950:9981  _contributors[i] == contributor */\n  0xffffffffffffffffffffffffffffffffffffffff\n  and\n    /* \"contracts/NFTSwapper.sol\":9950:9963  _contributors */\n  0x04\n    /* \"contracts/NFTSwapper.sol\":9964:9965  i */\n  dup3\n    /* \"contracts/NFTSwapper.sol\":9950:9966  _contributors[i] */\n  dup2\n  sload\n  dup2\n  lt\n  tag_40\n  jumpi\n  tag_41\n  tag_42\n  jump\t// in\ntag_41:\ntag_40:\n  swap1\n  0x00\n  mstore\n  keccak256(0x00, 0x20)\n  add\n  0x00\n  swap1\n  sload\n  swap1\n  0x0100\n  exp\n  swap1\n  div\n  0xffffffffffffffffffffffffffffffffffffffff\n  and\n    /* \"contracts/NFTSwapper.sol\":9950:9981  _contributors[i] == contributor */\n  0xffffffffffffffffffffffffffffffffffffffff\n  and\n  eq\n    /* \"contracts/NFTSwapper.sol\":9947:10119  if(_contributors[i] == contributor) {... */\n  iszero\n  tag_44\n  jumpi\n    /* \"contracts/NFTSwapper.sol\":10013:10026  _contributors */\n  0x04\n    /* \"contracts/NFTSwapper.sol\":10027:10028  i */\n  dup2\n    /* \"contracts/NFTSwapper.sol\":10013:10029  _contributors[i] */\n  dup2\n  sload\n  dup2\n  lt\n  tag_45\n  jumpi\n  tag_46\n  tag_42\n  jump\t// in\ntag_46:\ntag_45:\n  swap1\n  0x00\n  mstore\n  keccak256(0x00, 0x20)\n  add\n  0x00\n    /* \"contracts/NFTSwapper.sol\":10006:10029  delete _contributors[i] */\n  0x0100\n  exp\n  dup2\n  sload\n  swap1\n  0xffffffffffffffffffffffffffffffffffffffff\n  mul\n  not\n  and\n  swap1\n  sstore\n    /* \"contracts/NFTSwapper.sol\":10052:10065  _contributors */\n  0x04\n    /* \"contracts/NFTSwapper.sol\":10052:10071  _contributors.pop() */\n  dup1\n  sload\n  dup1\n  tag_48\n  jumpi\n  tag_49\n  tag_50\n  jump\t// in\ntag_49:\ntag_48:\n  0x01\n  swap1\n  sub\n  dup2\n  dup2\n  swap1\n  0x00\n  mstore\n  keccak256(0x00, 0x20)\n  add\n  exp(0x0100, 0x00)\n  dup2\n  sload\n  swap1\n  0xffffffffffffffffffffffffffffffffffffffff\n  mul\n  not\n  and\n  swap1\n  sstore\n  swap1\n  sstore\n    /* \"contracts/NFTSwapper.sol\":10094:10099  break */\n  jump(tag_38)\n    /* \"contracts/NFTSwapper.sol\":9947:10119  if(_contributors[i] == contributor) {... */\ntag_44:\n    /* \"contracts/NFTSwapper.sol\":9923:9926  i++ */\n  dup1\n  dup1\n  tag_52\n  swap1\n  tag_53\n  jump\t// in\ntag_52:\n  swap2\n  pop\n  pop\n    /* \"contracts/NFTSwapper.sol\":9878:10134  for(uint256 i = 0; i < _contributors.length; i++) {... */\n  jump(tag_37)\ntag_38:\n  pop\n    /* \"contracts/NFTSwapper.sol\":10155:10173  _contributorShares */\n  0x03\n    /* \"contracts/NFTSwapper.sol\":10155:10186  _contributorShares[contributor] */\n  0x00\n    /* \"contracts/NFTSwapper.sol\":10174:10185  contributor */\n  dup4\n    /* \"contracts/NFTSwapper.sol\":10155:10186  _contributorShares[contributor] */\n  0xffffffffffffffffffffffffffffffffffffffff\n  and\n  0xffffffffffffffffffffffffffffffffffffffff\n  and\n  dup2\n  mstore\n  0x20\n  add\n  swap1\n  dup2\n  mstore\n  0x20\n  add\n  0x00\n  keccak256\n    /* \"contracts/NFTSwapper.sol\":10148:10186  delete _contributorShares[contributor] */\n  0x00\n  swap1\n  sstore\n    /* \"contracts/NFTSwapper.sol\":9245:10198  if(share > 0){... */\ntag_32:\n    /* \"contracts/NFTSwapper.sol\":9037:10206  function setContributor(address contributor, uint256 share) public onlyOwner()... */\n  pop\n  pop\n  jump\t// out\n    /* \"@openzeppelin/contracts/access/Ownable.sol\":1359:1489  function _checkOwner() internal view virtual {... */\ntag_18:\n    /* \"@openzeppelin/contracts/access/Ownable.sol\":1433:1445  _msgSender() */\n  tag_55\n    /* \"@openzeppelin/contracts/access/Ownable.sol\":1433:1443  _msgSender */\n  shl(0x20, tag_7)\n    /* \"@openzeppelin/contracts/access/Ownable.sol\":1433:1445  _msgSender() */\n  0x20\n  shr\n  jump\t// in\ntag_55:\n    /* \"@openzeppelin/contracts/access/Ownable.sol\":1422:1445  owner() == _msgSender() */\n  0xffffffffffffffffffffffffffffffffffffffff\n  and\n    /* \"@openzeppelin/contracts/access/Ownable.sol\":1422:1429  owner() */\n  tag_56\n    /* \"@openzeppelin/contracts/access/Ownable.sol\":1422:1427  owner */\n  shl(0x20, tag_57)\n    /* \"@openzeppelin/contracts/access/Ownable.sol\":1422:1429  owner() */\n  0x20\n  shr\n  jump\t// in\ntag_56:\n    /* \"@openzeppelin/contracts/access/Ownable.sol\":1422:1445  owner() == _msgSender() */\n  0xffffffffffffffffffffffffffffffffffffffff\n  and\n  eq\n    /* \"@openzeppelin/contracts/access/Ownable.sol\":1414:1482  require(owner() == _msgSender(), \"Ownable: caller is not the owner\") */\n  tag_58\n  jumpi\n  mload(0x40)\n  0x08c379a000000000000000000000000000000000000000000000000000000000\n  dup2\n  mstore\n  0x04\n  add\n  tag_59\n  swap1\n  tag_60\n  jump\t// in\ntag_59:\n  mload(0x40)\n  dup1\n  swap2\n  sub\n  swap1\n  revert\ntag_58:\n    /* \"@openzeppelin/contracts/access/Ownable.sol\":1359:1489  function _checkOwner() internal view virtual {... */\n  jump\t// out\n    /* \"@openzeppelin/contracts/access/Ownable.sol\":1201:1286  function owner() public view virtual returns (address) {... */\ntag_57:\n    /* \"@openzeppelin/contracts/access/Ownable.sol\":1247:1254  address */\n  0x00\n    /* \"@openzeppelin/contracts/access/Ownable.sol\":1273:1279  _owner */\n  dup1\n  0x00\n  swap1\n  sload\n  swap1\n  0x0100\n  exp\n  swap1\n  div\n  0xffffffffffffffffffffffffffffffffffffffff\n  and\n    /* \"@openzeppelin/contracts/access/Ownable.sol\":1266:1279  return _owner */\n  swap1\n  pop\n    /* \"@openzeppelin/contracts/access/Ownable.sol\":1201:1286  function owner() public view virtual returns (address) {... */\n  swap1\n  jump\t// out\n    /* \"#utility.yul\":7:176   */\ntag_62:\n    /* \"#utility.yul\":91:102   */\n  0x00\n    /* \"#utility.yul\":125:131   */\n  dup3\n    /* \"#utility.yul\":120:123   */\n  dup3\n    /* \"#utility.yul\":113:132   */\n  mstore\n    /* \"#utility.yul\":165:169   */\n  0x20\n    /* \"#utility.yul\":160:163   */\n  dup3\n    /* \"#utility.yul\":156:170   */\n  add\n    /* \"#utility.yul\":141:170   */\n  swap1\n  pop\n    /* \"#utility.yul\":7:176   */\n  swap3\n  swap2\n  pop\n  pop\n  jump\t// out\n    /* \"#utility.yul\":182:429   */\ntag_63:\n    /* \"#utility.yul\":322:356   */\n  0x4e4654537761707065723a20736574436f6e7472696275746f723a20636f6e74\n    /* \"#utility.yul\":318:319   */\n  0x00\n    /* \"#utility.yul\":310:316   */\n  dup3\n    /* \"#utility.yul\":306:320   */\n  add\n    /* \"#utility.yul\":299:357   */\n  mstore\n    /* \"#utility.yul\":391:421   */\n  0x72696275746f722061646472657373206973206e6f74206120454f4100000000\n    /* \"#utility.yul\":386:388   */\n  0x20\n    /* \"#utility.yul\":378:384   */\n  dup3\n    /* \"#utility.yul\":374:389   */\n  add\n    /* \"#utility.yul\":367:422   */\n  mstore\n    /* \"#utility.yul\":182:429   */\n  pop\n  jump\t// out\n    /* \"#utility.yul\":435:801   */\ntag_64:\n    /* \"#utility.yul\":577:580   */\n  0x00\n    /* \"#utility.yul\":598:665   */\n  tag_75\n    /* \"#utility.yul\":662:664   */\n  0x3c\n    /* \"#utility.yul\":657:660   */\n  dup4\n    /* \"#utility.yul\":598:665   */\n  tag_62\n  jump\t// in\ntag_75:\n    /* \"#utility.yul\":591:665   */\n  swap2\n  pop\n    /* \"#utility.yul\":674:767   */\n  tag_76\n    /* \"#utility.yul\":763:766   */\n  dup3\n    /* \"#utility.yul\":674:767   */\n  tag_63\n  jump\t// in\ntag_76:\n    /* \"#utility.yul\":792:794   */\n  0x40\n    /* \"#utility.yul\":787:790   */\n  dup3\n    /* \"#utility.yul\":783:795   */\n  add\n    /* \"#utility.yul\":776:795   */\n  swap1\n  pop\n    /* \"#utility.yul\":435:801   */\n  swap2\n  swap1\n  pop\n  jump\t// out\n    /* \"#utility.yul\":807:1226   */\ntag_22:\n    /* \"#utility.yul\":973:977   */\n  0x00\n    /* \"#utility.yul\":1011:1013   */\n  0x20\n    /* \"#utility.yul\":1000:1009   */\n  dup3\n    /* \"#utility.yul\":996:1014   */\n  add\n    /* \"#utility.yul\":988:1014   */\n  swap1\n  pop\n    /* \"#utility.yul\":1060:1069   */\n  dup2\n    /* \"#utility.yul\":1054:1058   */\n  dup2\n    /* \"#utility.yul\":1050:1070   */\n  sub\n    /* \"#utility.yul\":1046:1047   */\n  0x00\n    /* \"#utility.yul\":1035:1044   */\n  dup4\n    /* \"#utility.yul\":1031:1048   */\n  add\n    /* \"#utility.yul\":1024:1071   */\n  mstore\n    /* \"#utility.yul\":1088:1219   */\n  tag_78\n    /* \"#utility.yul\":1214:1218   */\n  dup2\n    /* \"#utility.yul\":1088:1219   */\n  tag_64\n  jump\t// in\ntag_78:\n    /* \"#utility.yul\":1080:1219   */\n  swap1\n  pop\n    /* \"#utility.yul\":807:1226   */\n  swap2\n  swap1\n  pop\n  jump\t// out\n    /* \"#utility.yul\":1232:1309   */\ntag_65:\n    /* \"#utility.yul\":1269:1276   */\n  0x00\n    /* \"#utility.yul\":1298:1303   */\n  dup2\n    /* \"#utility.yul\":1287:1303   */\n  swap1\n  pop\n    /* \"#utility.yul\":1232:1309   */\n  swap2\n  swap1\n  pop\n  jump\t// out\n    /* \"#utility.yul\":1315:1495   */\ntag_66:\n    /* \"#utility.yul\":1363:1440   */\n  0x4e487b7100000000000000000000000000000000000000000000000000000000\n    /* \"#utility.yul\":1360:1361   */\n  0x00\n    /* \"#utility.yul\":1353:1441   */\n  mstore\n    /* \"#utility.yul\":1460:1464   */\n  0x11\n    /* \"#utility.yul\":1457:1458   */\n  0x04\n    /* \"#utility.yul\":1450:1465   */\n  mstore\n    /* \"#utility.yul\":1484:1488   */\n  0x24\n    /* \"#utility.yul\":1481:1482   */\n  0x00\n    /* \"#utility.yul\":1474:1489   */\n  revert\n    /* \"#utility.yul\":1501:1692   */\ntag_26:\n    /* \"#utility.yul\":1541:1545   */\n  0x00\n    /* \"#utility.yul\":1561:1581   */\n  tag_82\n    /* \"#utility.yul\":1579:1580   */\n  dup3\n    /* \"#utility.yul\":1561:1581   */\n  tag_65\n  jump\t// in\ntag_82:\n    /* \"#utility.yul\":1556:1581   */\n  swap2\n  pop\n    /* \"#utility.yul\":1595:1615   */\n  tag_83\n    /* \"#utility.yul\":1613:1614   */\n  dup4\n    /* \"#utility.yul\":1595:1615   */\n  tag_65\n  jump\t// in\ntag_83:\n    /* \"#utility.yul\":1590:1615   */\n  swap3\n  pop\n    /* \"#utility.yul\":1634:1635   */\n  dup3\n    /* \"#utility.yul\":1631:1632   */\n  dup3\n    /* \"#utility.yul\":1628:1636   */\n  lt\n    /* \"#utility.yul\":1625:1659   */\n  iszero\n  tag_84\n  jumpi\n    /* \"#utility.yul\":1639:1657   */\n  tag_85\n  tag_66\n  jump\t// in\ntag_85:\n    /* \"#utility.yul\":1625:1659   */\ntag_84:\n    /* \"#utility.yul\":1684:1685   */\n  dup3\n    /* \"#utility.yul\":1681:1682   */\n  dup3\n    /* \"#utility.yul\":1677:1686   */\n  sub\n    /* \"#utility.yul\":1669:1686   */\n  swap1\n  pop\n    /* \"#utility.yul\":1501:1692   */\n  swap3\n  swap2\n  pop\n  pop\n  jump\t// out\n    /* \"#utility.yul\":1698:2003   */\ntag_28:\n    /* \"#utility.yul\":1738:1741   */\n  0x00\n    /* \"#utility.yul\":1757:1777   */\n  tag_87\n    /* \"#utility.yul\":1775:1776   */\n  dup3\n    /* \"#utility.yul\":1757:1777   */\n  tag_65\n  jump\t// in\ntag_87:\n    /* \"#utility.yul\":1752:1777   */\n  swap2\n  pop\n    /* \"#utility.yul\":1791:1811   */\n  tag_88\n    /* \"#utility.yul\":1809:1810   */\n  dup4\n    /* \"#utility.yul\":1791:1811   */\n  tag_65\n  jump\t// in\ntag_88:\n    /* \"#utility.yul\":1786:1811   */\n  swap3\n  pop\n    /* \"#utility.yul\":1945:1946   */\n  dup3\n    /* \"#utility.yul\":1877:1943   */\n  0xffffffffffffffffffffffffffffffffffffffffffffffffffffffffffffffff\n    /* \"#utility.yul\":1873:1947   */\n  sub\n    /* \"#utility.yul\":1870:1871   */\n  dup3\n    /* \"#utility.yul\":1867:1948   */\n  gt\n    /* \"#utility.yul\":1864:1971   */\n  iszero\n  tag_89\n  jumpi\n    /* \"#utility.yul\":1951:1969   */\n  tag_90\n  tag_66\n  jump\t// in\ntag_90:\n    /* \"#utility.yul\":1864:1971   */\ntag_89:\n    /* \"#utility.yul\":1995:1996   */\n  dup3\n    /* \"#utility.yul\":1992:1993   */\n  dup3\n    /* \"#utility.yul\":1988:1997   */\n  add\n    /* \"#utility.yul\":1981:1997   */\n  swap1\n  pop\n    /* \"#utility.yul\":1698:2003   */\n  swap3\n  swap2\n  pop\n  pop\n  jump\t// out\n    /* \"#utility.yul\":2009:2248   */\ntag_67:\n    /* \"#utility.yul\":2149:2183   */\n  0x4e4654537761707065723a2072656d6f7665436f6e7472696275746f723a2063\n    /* \"#utility.yul\":2145:2146   */\n  0x00\n    /* \"#utility.yul\":2137:2143   */\n  dup3\n    /* \"#utility.yul\":2133:2147   */\n  add\n    /* \"#utility.yul\":2126:2184   */\n  mstore\n    /* \"#utility.yul\":2218:2240   */\n  0x6f6e7472696275746f72206e6f7420666f756e64000000000000000000000000\n    /* \"#utility.yul\":2213:2215   */\n  0x20\n    /* \"#utility.yul\":2205:2211   */\n  dup3\n    /* \"#utility.yul\":2201:2216   */\n  add\n    /* \"#utility.yul\":2194:2241   */\n  mstore\n    /* \"#utility.yul\":2009:2248   */\n  pop\n  jump\t// out\n    /* \"#utility.yul\":2254:2620   */\ntag_68:\n    /* \"#utility.yul\":2396:2399   */\n  0x00\n    /* \"#utility.yul\":2417:2484   */\n  tag_93\n    /* \"#utility.yul\":2481:2483   */\n  0x34\n    /* \"#utility.yul\":2476:2479   */\n  dup4\n    /* \"#utility.yul\":2417:2484   */\n  tag_62\n  jump\t// in\ntag_93:\n    /* \"#utility.yul\":2410:2484   */\n  swap2\n  pop\n    /* \"#utility.yul\":2493:2586   */\n  tag_94\n    /* \"#utility.yul\":2582:2585   */\n  dup3\n    /* \"#utility.yul\":2493:2586   */\n  tag_67\n  jump\t// in\ntag_94:\n    /* \"#utility.yul\":2611:2613   */\n  0x40\n    /* \"#utility.yul\":2606:2609   */\n  dup3\n    /* \"#utility.yul\":2602:2614   */\n  add\n    /* \"#utility.yul\":2595:2614   */\n  swap1\n  pop\n    /* \"#utility.yul\":2254:2620   */\n  swap2\n  swap1\n  pop\n  jump\t// out\n    /* \"#utility.yul\":2626:3045   */\ntag_35:\n    /* \"#utility.yul\":2792:2796   */\n  0x00\n    /* \"#utility.yul\":2830:2832   */\n  0x20\n    /* \"#utility.yul\":2819:2828   */\n  dup3\n    /* \"#utility.yul\":2815:2833   */\n  add\n    /* \"#utility.yul\":2807:2833   */\n  swap1\n  pop\n    /* \"#utility.yul\":2879:2888   */\n  dup2\n    /* \"#utility.yul\":2873:2877   */\n  dup2\n    /* \"#utility.yul\":2869:2889   */\n  sub\n    /* \"#utility.yul\":2865:2866   */\n  0x00\n    /* \"#utility.yul\":2854:2863   */\n  dup4\n    /* \"#utility.yul\":2850:2867   */\n  add\n    /* \"#utility.yul\":2843:2890   */\n  mstore\n    /* \"#utility.yul\":2907:3038   */\n  tag_96\n    /* \"#utility.yul\":3033:3037   */\n  dup2\n    /* \"#utility.yul\":2907:3038   */\n  tag_68\n  jump\t// in\ntag_96:\n    /* \"#utility.yul\":2899:3038   */\n  swap1\n  pop\n    /* \"#utility.yul\":2626:3045   */\n  swap2\n  swap1\n  pop\n  jump\t// out\n    /* \"#utility.yul\":3051:3231   */\ntag_42:\n    /* \"#utility.yul\":3099:3176   */\n  0x4e487b7100000000000000000000000000000000000000000000000000000000\n    /* \"#utility.yul\":3096:3097   */\n  0x00\n    /* \"#utility.yul\":3089:3177   */\n  mstore\n    /* \"#utility.yul\":3196:3200   */\n  0x32\n    /* \"#utility.yul\":3193:3194   */\n  0x04\n    /* \"#utility.yul\":3186:3201   */\n  mstore\n    /* \"#utility.yul\":3220:3224   */\n  0x24\n    /* \"#utility.yul\":3217:3218   */\n  0x00\n    /* \"#utility.yul\":3210:3225   */\n  revert\n    /* \"#utility.yul\":3237:3417   */\ntag_50:\n    /* \"#utility.yul\":3285:3362   */\n  0x4e487b7100000000000000000000000000000000000000000000000000000000\n    /* \"#utility.yul\":3282:3283   */\n  0x00\n    /* \"#utility.yul\":3275:3363   */\n  mstore\n    /* \"#utility.yul\":3382:3386   */\n  0x31\n    /* \"#utility.yul\":3379:3380   */\n  0x04\n    /* \"#utility.yul\":3372:3387   */\n  mstore\n    /* \"#utility.yul\":3406:3410   */\n  0x24\n    /* \"#utility.yul\":3403:3404   */\n  0x00\n    /* \"#utility.yul\":3396:3411   */\n  revert\n    /* \"#utility.yul\":3423:3656   */\ntag_53:\n    /* \"#utility.yul\":3462:3465   */\n  0x00\n    /* \"#utility.yul\":3485:3509   */\n  tag_100\n    /* \"#utility.yul\":3503:3508   */\n  dup3\n    /* \"#utility.yul\":3485:3509   */\n  tag_65\n  jump\t// in\ntag_100:\n    /* \"#utility.yul\":3476:3509   */\n  swap2\n  pop\n    /* \"#utility.yul\":3531:3597   */\n  0xffffffffffffffffffffffffffffffffffffffffffffffffffffffffffffffff\n    /* \"#utility.yul\":3524:3529   */\n  dup3\n    /* \"#utility.yul\":3521:3598   */\n  eq\n    /* \"#utility.yul\":3518:3621   */\n  iszero\n  tag_101\n  jumpi\n    /* \"#utility.yul\":3601:3619   */\n  tag_102\n  tag_66\n  jump\t// in\ntag_102:\n    /* \"#utility.yul\":3518:3621   */\ntag_101:\n    /* \"#utility.yul\":3648:3649   */\n  0x01\n    /* \"#utility.yul\":3641:3646   */\n  dup3\n    /* \"#utility.yul\":3637:3650   */\n  add\n    /* \"#utility.yul\":3630:3650   */\n  swap1\n  pop\n    /* \"#utility.yul\":3423:3656   */\n  swap2\n  swap1\n  pop\n  jump\t// out\n    /* \"#utility.yul\":3662:3844   */\ntag_69:\n    /* \"#utility.yul\":3802:3836   */\n  0x4f776e61626c653a2063616c6c6572206973206e6f7420746865206f776e6572\n    /* \"#utility.yul\":3798:3799   */\n  0x00\n    /* \"#utility.yul\":3790:3796   */\n  dup3\n    /* \"#utility.yul\":3786:3800   */\n  add\n    /* \"#utility.yul\":3779:3837   */\n  mstore\n    /* \"#utility.yul\":3662:3844   */\n  pop\n  jump\t// out\n    /* \"#utility.yul\":3850:4216   */\ntag_70:\n    /* \"#utility.yul\":3992:3995   */\n  0x00\n    /* \"#utility.yul\":4013:4080   */\n  tag_105\n    /* \"#utility.yul\":4077:4079   */\n  0x20\n    /* \"#utility.yul\":4072:4075   */\n  dup4\n    /* \"#utility.yul\":4013:4080   */\n  tag_62\n  jump\t// in\ntag_105:\n    /* \"#utility.yul\":4006:4080   */\n  swap2\n  pop\n    /* \"#utility.yul\":4089:4182   */\n  tag_106\n    /* \"#utility.yul\":4178:4181   */\n  dup3\n    /* \"#utility.yul\":4089:4182   */\n  tag_69\n  jump\t// in\ntag_106:\n    /* \"#utility.yul\":4207:4209   */\n  0x20\n    /* \"#utility.yul\":4202:4205   */\n  dup3\n    /* \"#utility.yul\":4198:4210   */\n  add\n    /* \"#utility.yul\":4191:4210   */\n  swap1\n  pop\n    /* \"#utility.yul\":3850:4216   */\n  swap2\n  swap1\n  pop\n  jump\t// out\n    /* \"#utility.yul\":4222:4641   */\ntag_60:\n    /* \"#utility.yul\":4388:4392   */\n  0x00\n    /* \"#utility.yul\":4426:4428   */\n  0x20\n    /* \"#utility.yul\":4415:4424   */\n  dup3\n    /* \"#utility.yul\":4411:4429   */\n  add\n    /* \"#utility.yul\":4403:4429   */\n  swap1\n  pop\n    /* \"#utility.yul\":4475:4484   */\n  dup2\n    /* \"#utility.yul\":4469:4473   */\n  dup2\n    /* \"#utility.yul\":4465:4485   */\n  sub\n    /* \"#utility.yul\":4461:4462   */\n  0x00\n    /* \"#utility.yul\":4450:4459   */\n  dup4\n    /* \"#utility.yul\":4446:4463   */\n  add\n    /* \"#utility.yul\":4439:4486   */\n  mstore\n    /* \"#utility.yul\":4503:4634   */\n  tag_108\n    /* \"#utility.yul\":4629:4633   */\n  dup2\n    /* \"#utility.yul\":4503:4634   */\n  tag_70\n  jump\t// in\ntag_108:\n    /* \"#utility.yul\":4495:4634   */\n  swap1\n  pop\n    /* \"#utility.yul\":4222:4641   */\n  swap2\n  swap1\n  pop\n  jump\t// out\n    /* \"contracts/NFTSwapper.sol\":258:11693  contract NFTSwapper is Context, Ownable... */\ntag_13:\n  dataSize(sub_0)\n  dup1\n  dataOffset(sub_0)\n  0x00\n  codecopy\n  0x00\n  return\nstop\n\nsub_0: assembly {\n        /* \"contracts/NFTSwapper.sol\":258:11693  contract NFTSwapper is Context, Ownable... */\n      mstore(0x40, 0x80)\n      jumpi(tag_1, lt(calldatasize, 0x04))\n      shr(0xe0, calldataload(0x00))\n      dup1\n      0x8da5cb5b\n      gt\n      tag_27\n      jumpi\n      dup1\n      0xd5002f2e\n      gt\n      tag_28\n      jumpi\n      dup1\n      0xd5002f2e\n      eq\n      tag_21\n      jumpi\n      dup1\n      0xd81671bc\n      eq\n      tag_22\n      jumpi\n      dup1\n      0xe0efc2f5\n      eq\n      tag_23\n      jumpi\n      dup1\n      0xeb57ce55\n      eq\n      tag_24\n      jumpi\n      dup1\n      0xed470a3a\n      eq\n      tag_25\n      jumpi\n      dup1\n      0xf2fde38b\n      eq\n      tag_26\n      jumpi\n      jump(tag_2)\n    tag_28:\n      dup1\n      0x8da5cb5b\n      eq\n      tag_15\n      jumpi\n      dup1\n      0x92be2ab8\n      eq\n      tag_16\n      jumpi\n      dup1\n      0x94b918de\n      eq\n      tag_17\n      jumpi\n      dup1\n      0xaf157c19\n      eq\n      tag_18\n      jumpi\n      dup1\n      0xb6c9b393\n      eq\n      tag_19\n      jumpi\n      dup1\n      0xd4cadf68\n      eq\n      tag_20\n      jumpi\n      jump(tag_2)\n    tag_27:\n      dup1\n      0x4a0d89ba\n      gt\n      tag_29\n      jumpi\n      dup1\n      0x4a0d89ba\n      eq\n      tag_9\n      jumpi\n      dup1\n      0x4b3ab9c5\n      eq\n      tag_10\n      jumpi\n      dup1\n      0x61784c7a\n      eq\n      tag_11\n      jumpi\n      dup1\n      0x6e214a8e\n      eq\n      tag_12\n      jumpi\n      dup1\n      0x715018a6\n      eq\n      tag_13\n      jumpi\n      dup1\n      0x7634c6c3\n      eq\n      tag_14\n      jumpi\n      jump(tag_2)\n    tag_29:\n      dup1\n      0x21c616da\n      eq\n      tag_3\n      jumpi\n      dup1\n      0x32a58e79\n      eq\n      tag_4\n      jumpi\n      dup1\n      0x34e19907\n      eq\n      tag_5\n      jumpi\n      dup1\n      0x3801a828\n      eq\n      tag_6\n      jumpi\n      dup1\n      0x3ccfd60b\n      eq\n      tag_7\n      jumpi\n      dup1\n      0x40e58ee5\n      eq\n      tag_8\n      jumpi\n      jump(tag_2)\n    tag_1:\n      jumpi(tag_2, calldatasize)\n      stop\n    tag_2:\n      stop\n        /* \"contracts/NFTSwapper.sol\":7450:7570  function getSwaps(address account) public view returns(uint256[] memory){... */\n    tag_3:\n      callvalue\n      dup1\n      iszero\n      tag_34\n      jumpi\n      0x00\n      dup1\n      revert\n    tag_34:\n      pop\n      tag_35\n      0x04\n      dup1\n      calldatasize\n      sub\n      dup2\n      add\n      swap1\n      tag_36\n      swap2\n      swap1\n      tag_37\n      jump\t// in\n    tag_36:\n      tag_38\n      jump\t// in\n    tag_35:\n      mload(0x40)\n      tag_39\n      swap2\n      swap1\n      tag_40\n      jump\t// in\n    tag_39:\n      mload(0x40)\n      dup1\n      swap2\n      sub\n      swap1\n      return\n        /* \"contracts/NFTSwapper.sol\":10693:10785  function getRegisterFee() public view returns(uint256){... */\n    tag_4:\n      callvalue\n      dup1\n      iszero\n      tag_41\n      jumpi\n      0x00\n      dup1\n      revert\n    tag_41:\n      pop\n      tag_42\n      tag_43\n      jump\t// in\n    tag_42:\n      mload(0x40)\n      tag_44\n      swap2\n      swap1\n      tag_45\n      jump\t// in\n    tag_44:\n      mload(0x40)\n      dup1\n      swap2\n      sub\n      swap1\n      return\n        /* \"contracts/NFTSwapper.sol\":10987:11077  function setSwapFee(uint256 fee) public onlyOwner()... */\n    tag_5:\n      callvalue\n      dup1\n      iszero\n      tag_46\n      jumpi\n      0x00\n      dup1\n      revert\n    tag_46:\n      pop\n      tag_47\n      0x04\n      dup1\n      calldatasize\n      sub\n      dup2\n      add\n      swap1\n      tag_48\n      swap2\n      swap1\n      tag_49\n      jump\t// in\n    tag_48:\n      tag_50\n      jump\t// in\n    tag_47:\n      stop\n        /* \"contracts/NFTSwapper.sol\":8058:8161  function getHandlers() public view returns(ISwapperHandler[] memory){... */\n    tag_6:\n      callvalue\n      dup1\n      iszero\n      tag_51\n      jumpi\n      0x00\n      dup1\n      revert\n    tag_51:\n      pop\n      tag_52\n      tag_53\n      jump\t// in\n    tag_52:\n      mload(0x40)\n      tag_54\n      swap2\n      swap1\n      tag_55\n      jump\t// in\n    tag_54:\n      mload(0x40)\n      dup1\n      swap2\n      sub\n      swap1\n      return\n        /* \"contracts/NFTSwapper.sol\":11085:11613  function withdraw() public onlyContributor(){... */\n    tag_7:\n      callvalue\n      dup1\n      iszero\n      tag_56\n      jumpi\n      0x00\n      dup1\n      revert\n    tag_56:\n      pop\n      tag_57\n      tag_58\n      jump\t// in\n    tag_57:\n      stop\n        /* \"contracts/NFTSwapper.sol\":3914:4196  function cancel(uint256 id) public... */\n    tag_8:\n      callvalue\n      dup1\n      iszero\n      tag_59\n      jumpi\n      0x00\n      dup1\n      revert\n    tag_59:\n      pop\n      tag_60\n      0x04\n      dup1\n      calldatasize\n      sub\n      dup2\n      add\n      swap1\n      tag_61\n      swap2\n      swap1\n      tag_49\n      jump\t// in\n    tag_61:\n      tag_62\n      jump\t// in\n    tag_60:\n      stop\n        /* \"contracts/NFTSwapper.sol\":7328:7442  function getSwap(uint256 id) public view existsSwapId(id) returns(Swap memory){... */\n    tag_9:\n      callvalue\n      dup1\n      iszero\n      tag_63\n      jumpi\n      0x00\n      dup1\n      revert\n    tag_63:\n      pop\n      tag_64\n      0x04\n      dup1\n      calldatasize\n      sub\n      dup2\n      add\n      swap1\n      tag_65\n      swap2\n      swap1\n      tag_49\n      jump\t// in\n    tag_65:\n      tag_66\n      jump\t// in\n    tag_64:\n      mload(0x40)\n      tag_67\n      swap2\n      swap1\n      tag_68\n      jump\t// in\n    tag_67:\n      mload(0x40)\n      dup1\n      swap2\n      sub\n      swap1\n      return\n        /* \"contracts/NFTSwapper.sol\":10457:10601  function getShare(address constributor) public view onlyContributor() returns(uint256){... */\n    tag_10:\n      callvalue\n      dup1\n      iszero\n      tag_69\n      jumpi\n      0x00\n      dup1\n      revert\n    tag_69:\n      pop\n      tag_70\n      0x04\n      dup1\n      calldatasize\n      sub\n      dup2\n      add\n      swap1\n      tag_71\n      swap2\n      swap1\n      tag_37\n      jump\t// in\n    tag_71:\n      tag_72\n      jump\t// in\n    tag_70:\n      mload(0x40)\n      tag_73\n      swap2\n      swap1\n      tag_45\n      jump\t// in\n    tag_73:\n      mload(0x40)\n      dup1\n      swap2\n      sub\n      swap1\n      return\n        /* \"contracts/NFTSwapper.sol\":9037:10206  function setContributor(address contributor, uint256 share) public onlyOwner()... */\n    tag_11:\n      callvalue\n      dup1\n      iszero\n      tag_74\n      jumpi\n      0x00\n      dup1\n      revert\n    tag_74:\n      pop\n      tag_75\n      0x04\n      dup1\n      calldatasize\n      sub\n      dup2\n      add\n      swap1\n      tag_76\n      swap2\n      swap1\n      tag_77\n      jump\t// in\n    tag_76:\n      tag_78\n      jump\t// in\n    tag_75:\n      stop\n        /* \"contracts/NFTSwapper.sol\":4202:4551  function uncancel(uint256 id) public... */\n    tag_12:\n      callvalue\n      dup1\n      iszero\n      tag_79\n      jumpi\n      0x00\n      dup1\n      revert\n    tag_79:\n      pop\n      tag_80\n      0x04\n      dup1\n      calldatasize\n      sub\n      dup2\n      add\n      swap1\n      tag_81\n      swap2\n      swap1\n      tag_49\n      jump\t// in\n    tag_81:\n      tag_82\n      jump\t// in\n    tag_80:\n      stop\n        /* \"@openzeppelin/contracts/access/Ownable.sol\":1831:1932  function renounceOwnership() public virtual onlyOwner {... */\n    tag_13:\n      callvalue\n      dup1\n      iszero\n      tag_83\n      jumpi\n      0x00\n      dup1\n      revert\n    tag_83:\n      pop\n      tag_84\n      tag_85\n      jump\t// in\n    tag_84:\n      stop\n        /* \"contracts/NFTSwapper.sol\":5975:7320  function setApprovedTendered(uint256 id, address applicant, bool approved) public... */\n    tag_14:\n      callvalue\n      dup1\n      iszero\n      tag_86\n      jumpi\n      0x00\n      dup1\n      revert\n    tag_86:\n      pop\n      tag_87\n      0x04\n      dup1\n      calldatasize\n      sub\n      dup2\n      add\n      swap1\n      tag_88\n      swap2\n      swap1\n      tag_89\n      jump\t// in\n    tag_88:\n      tag_90\n      jump\t// in\n    tag_87:\n      stop\n        /* \"@openzeppelin/contracts/access/Ownable.sol\":1201:1286  function owner() public view virtual returns (address) {... */\n    tag_15:\n      callvalue\n      dup1\n      iszero\n      tag_91\n      jumpi\n      0x00\n      dup1\n      revert\n    tag_91:\n      pop\n      tag_92\n      tag_93\n      jump\t// in\n    tag_92:\n      mload(0x40)\n      tag_94\n      swap2\n      swap1\n      tag_95\n      jump\t// in\n    tag_94:\n      mload(0x40)\n      dup1\n      swap2\n      sub\n      swap1\n      return\n        /* \"contracts/NFTSwapper.sol\":10791:10889  function setRegisterFee(uint256 fee) public onlyOwner()... */\n    tag_16:\n      callvalue\n      dup1\n      iszero\n      tag_96\n      jumpi\n      0x00\n      dup1\n      revert\n    tag_96:\n      pop\n      tag_97\n      0x04\n      dup1\n      calldatasize\n      sub\n      dup2\n      add\n      swap1\n      tag_98\n      swap2\n      swap1\n      tag_49\n      jump\t// in\n    tag_98:\n      tag_99\n      jump\t// in\n    tag_97:\n      stop\n        /* \"contracts/NFTSwapper.sol\":4559:5967  function swap(uint256 id) public payable... */\n    tag_17:\n      tag_100\n      0x04\n      dup1\n      calldatasize\n      sub\n      dup2\n      add\n      swap1\n      tag_101\n      swap2\n      swap1\n      tag_49\n      jump\t// in\n    tag_101:\n      tag_102\n      jump\t// in\n    tag_100:\n      stop\n        /* \"contracts/NFTSwapper.sol\":10214:10335  function getContributors() public view onlyContributor() returns(address[] memory){... */\n    tag_18:\n      callvalue\n      dup1\n      iszero\n      tag_103\n      jumpi\n      0x00\n      dup1\n      revert\n    tag_103:\n      pop\n      tag_104\n      tag_105\n      jump\t// in\n    tag_104:\n      mload(0x40)\n      tag_106\n      swap2\n      swap1\n      tag_107\n      jump\t// in\n    tag_106:\n      mload(0x40)\n      dup1\n      swap2\n      sub\n      swap1\n      return\n        /* \"contracts/NFTSwapper.sol\":7690:8050  function getHandler(address nft) public view returns(ISwapperHandler handler)... */\n    tag_19:\n      callvalue\n      dup1\n      iszero\n      tag_108\n      jumpi\n      0x00\n      dup1\n      revert\n    tag_108:\n      pop\n      tag_109\n      0x04\n      dup1\n      calldatasize\n      sub\n      dup2\n      add\n      swap1\n      tag_110\n      swap2\n      swap1\n      tag_37\n      jump\t// in\n    tag_110:\n      tag_111\n      jump\t// in\n    tag_109:\n      mload(0x40)\n      tag_112\n      swap2\n      swap1\n      tag_113\n      jump\t// in\n    tag_112:\n      mload(0x40)\n      dup1\n      swap2\n      sub\n      swap1\n      return\n        /* \"contracts/NFTSwapper.sol\":10897:10981  function getSwapFee() public view returns(uint256){... */\n    tag_20:\n      callvalue\n      dup1\n      iszero\n      tag_114\n      jumpi\n      0x00\n      dup1\n      revert\n    tag_114:\n      pop\n      tag_115\n      tag_116\n      jump\t// in\n    tag_115:\n      mload(0x40)\n      tag_117\n      swap2\n      swap1\n      tag_45\n      jump\t// in\n    tag_117:\n      mload(0x40)\n      dup1\n      swap2\n      sub\n      swap1\n      return\n        /* \"contracts/NFTSwapper.sol\":10341:10451  function getTotalShares() public view onlyContributor() returns(uint256){... */\n    tag_21:\n      callvalue\n      dup1\n      iszero\n      tag_118\n      jumpi\n      0x00\n      dup1\n      revert\n    tag_118:\n      pop\n      tag_119\n      tag_120\n      jump\t// in\n    tag_119:\n      mload(0x40)\n      tag_121\n      swap2\n      swap1\n      tag_45\n      jump\t// in\n    tag_121:\n      mload(0x40)\n      dup1\n      swap2\n      sub\n      swap1\n      return\n        /* \"contracts/NFTSwapper.sol\":7578:7682  function getSwapCount() public view virtual returns(uint256){... */\n    tag_22:\n      callvalue\n      dup1\n      iszero\n      tag_122\n      jumpi\n      0x00\n      dup1\n      revert\n    tag_122:\n      pop\n      tag_123\n      tag_124\n      jump\t// in\n    tag_123:\n      mload(0x40)\n      tag_125\n      swap2\n      swap1\n      tag_45\n      jump\t// in\n    tag_125:\n      mload(0x40)\n      dup1\n      swap2\n      sub\n      swap1\n      return\n        /* \"contracts/NFTSwapper.sol\":2836:3901  function register(address bidder, Token[] calldata offer, address[] calldata tendered, Token[] calldata demand)   ... */\n    tag_23:\n      tag_126\n      0x04\n      dup1\n      calldatasize\n      sub\n      dup2\n      add\n      swap1\n      tag_127\n      swap2\n      swap1\n      tag_128\n      jump\t// in\n    tag_127:\n      tag_129\n      jump\t// in\n    tag_126:\n      mload(0x40)\n      tag_130\n      swap2\n      swap1\n      tag_45\n      jump\t// in\n    tag_130:\n      mload(0x40)\n      dup1\n      swap2\n      sub\n      swap1\n      return\n        /* \"contracts/NFTSwapper.sol\":8266:8553  function supportStandard(address handlerAddress) public onlyOwner()... */\n    tag_24:\n      callvalue\n      dup1\n      iszero\n      tag_131\n      jumpi\n      0x00\n      dup1\n      revert\n    tag_131:\n      pop\n      tag_132\n      0x04\n      dup1\n      calldatasize\n      sub\n      dup2\n      add\n      swap1\n      tag_133\n      swap2\n      swap1\n      tag_37\n      jump\t// in\n    tag_133:\n      tag_134\n      jump\t// in\n    tag_132:\n      stop\n        /* \"contracts/NFTSwapper.sol\":8559:9029  function unsupportStandard(address handlerAddress) public onlyOwner()... */\n    tag_25:\n      callvalue\n      dup1\n      iszero\n      tag_135\n      jumpi\n      0x00\n      dup1\n      revert\n    tag_135:\n      pop\n      tag_136\n      0x04\n      dup1\n      calldatasize\n      sub\n      dup2\n      add\n      swap1\n      tag_137\n      swap2\n      swap1\n      tag_37\n      jump\t// in\n    tag_137:\n      tag_138\n      jump\t// in\n    tag_136:\n      stop\n        /* \"@openzeppelin/contracts/access/Ownable.sol\":2081:2279  function transferOwnership(address newOwner) public virtual onlyOwner {... */\n    tag_26:\n      callvalue\n      dup1\n      iszero\n      tag_139\n      jumpi\n      0x00\n      dup1\n      revert\n    tag_139:\n      pop\n      tag_140\n      0x04\n      dup1\n      calldatasize\n      sub\n      dup2\n      add\n      swap1\n      tag_141\n      swap2\n      swap1\n      tag_37\n      jump\t// in\n    tag_141:\n      tag_142\n      jump\t// in\n    tag_140:\n      stop\n        /* \"contracts/NFTSwapper.sol\":7450:7570  function getSwaps(address account) public view returns(uint256[] memory){... */\n    tag_38:\n        /* \"contracts/NFTSwapper.sol\":7505:7521  uint256[] memory */\n      0x60\n        /* \"contracts/NFTSwapper.sol\":7540:7553  _participants */\n      0x02\n        /* \"contracts/NFTSwapper.sol\":7540:7562  _participants[account] */\n      0x00\n        /* \"contracts/NFTSwapper.sol\":7554:7561  account */\n      dup4\n        /* \"contracts/NFTSwapper.sol\":7540:7562  _participants[account] */\n      0xffffffffffffffffffffffffffffffffffffffff\n      and\n      0xffffffffffffffffffffffffffffffffffffffff\n      and\n      dup2\n      mstore\n      0x20\n      add\n      swap1\n      dup2\n      mstore\n      0x20\n      add\n      0x00\n      keccak256\n        /* \"contracts/NFTSwapper.sol\":7533:7562  return _participants[account] */\n      dup1\n      sload\n      dup1\n      0x20\n      mul\n      0x20\n      add\n      mload(0x40)\n      swap1\n      dup2\n      add\n      0x40\n      mstore\n      dup1\n      swap3\n      swap2\n      swap1\n      dup2\n      dup2\n      mstore\n      0x20\n      add\n      dup3\n      dup1\n      sload\n      dup1\n      iszero\n      tag_144\n      jumpi\n      0x20\n      mul\n      dup3\n      add\n      swap2\n      swap1\n      0x00\n      mstore\n      keccak256(0x00, 0x20)\n      swap1\n    tag_145:\n      dup2\n      sload\n      dup2\n      mstore\n      0x20\n      add\n      swap1\n      0x01\n      add\n      swap1\n      dup1\n      dup4\n      gt\n      tag_145\n      jumpi\n    tag_144:\n      pop\n      pop\n      pop\n      pop\n      pop\n      swap1\n      pop\n        /* \"contracts/NFTSwapper.sol\":7450:7570  function getSwaps(address account) public view returns(uint256[] memory){... */\n      swap2\n      swap1\n      pop\n      jump\t// out\n        /* \"contracts/NFTSwapper.sol\":10693:10785  function getRegisterFee() public view returns(uint256){... */\n    tag_43:\n        /* \"contracts/NFTSwapper.sol\":10739:10746  uint256 */\n      0x00\n        /* \"contracts/NFTSwapper.sol\":10765:10777  _registerFee */\n      sload(0x06)\n        /* \"contracts/NFTSwapper.sol\":10758:10777  return _registerFee */\n      swap1\n      pop\n        /* \"contracts/NFTSwapper.sol\":10693:10785  function getRegisterFee() public view returns(uint256){... */\n      swap1\n      jump\t// out\n        /* \"contracts/NFTSwapper.sol\":10987:11077  function setSwapFee(uint256 fee) public onlyOwner()... */\n    tag_50:\n        /* \"@openzeppelin/contracts/access/Ownable.sol\":1094:1107  _checkOwner() */\n      tag_148\n        /* \"@openzeppelin/contracts/access/Ownable.sol\":1094:1105  _checkOwner */\n      tag_149\n        /* \"@openzeppelin/contracts/access/Ownable.sol\":1094:1107  _checkOwner() */\n      jump\t// in\n    tag_148:\n        /* \"contracts/NFTSwapper.sol\":11066:11069  fee */\n      dup1\n        /* \"contracts/NFTSwapper.sol\":11055:11063  _swapFee */\n      0x07\n        /* \"contracts/NFTSwapper.sol\":11055:11069  _swapFee = fee */\n      dup2\n      swap1\n      sstore\n      pop\n        /* \"contracts/NFTSwapper.sol\":10987:11077  function setSwapFee(uint256 fee) public onlyOwner()... */\n      pop\n      jump\t// out\n        /* \"contracts/NFTSwapper.sol\":8058:8161  function getHandlers() public view returns(ISwapperHandler[] memory){... */\n    tag_53:\n        /* \"contracts/NFTSwapper.sol\":8101:8125  ISwapperHandler[] memory */\n      0x60\n        /* \"contracts/NFTSwapper.sol\":8144:8153  _handlers */\n      0x08\n        /* \"contracts/NFTSwapper.sol\":8137:8153  return _handlers */\n      dup1\n      sload\n      dup1\n      0x20\n      mul\n      0x20\n      add\n      mload(0x40)\n      swap1\n      dup2\n      add\n      0x40\n      mstore\n      dup1\n      swap3\n      swap2\n      swap1\n      dup2\n      dup2\n      mstore\n      0x20\n      add\n      dup3\n      dup1\n      sload\n      dup1\n      iszero\n      tag_152\n      jumpi\n      0x20\n      mul\n      dup3\n      add\n      swap2\n      swap1\n      0x00\n      mstore\n      keccak256(0x00, 0x20)\n      swap1\n    tag_153:\n      dup2\n      0x00\n      swap1\n      sload\n      swap1\n      0x0100\n      exp\n      swap1\n      div\n      0xffffffffffffffffffffffffffffffffffffffff\n      and\n      0xffffffffffffffffffffffffffffffffffffffff\n      and\n      dup2\n      mstore\n      0x20\n      add\n      swap1\n      0x01\n      add\n      swap1\n      dup1\n      dup4\n      gt\n      tag_153\n      jumpi\n    tag_152:\n      pop\n      pop\n      pop\n      pop\n      pop\n      swap1\n      pop\n        /* \"contracts/NFTSwapper.sol\":8058:8161  function getHandlers() public view returns(ISwapperHandler[] memory){... */\n      swap1\n      jump\t// out\n        /* \"contracts/NFTSwapper.sol\":11085:11613  function withdraw() public onlyContributor(){... */\n    tag_58:\n        /* \"contracts/NFTSwapper.sol\":2528:2529  0 */\n      0x00\n        /* \"contracts/NFTSwapper.sol\":2493:2511  _contributorShares */\n      0x03\n        /* \"contracts/NFTSwapper.sol\":2493:2525  _contributorShares[_msgSender()] */\n      0x00\n        /* \"contracts/NFTSwapper.sol\":2512:2524  _msgSender() */\n      tag_155\n        /* \"contracts/NFTSwapper.sol\":2512:2522  _msgSender */\n      tag_156\n        /* \"contracts/NFTSwapper.sol\":2512:2524  _msgSender() */\n      jump\t// in\n    tag_155:\n        /* \"contracts/NFTSwapper.sol\":2493:2525  _contributorShares[_msgSender()] */\n      0xffffffffffffffffffffffffffffffffffffffff\n      and\n      0xffffffffffffffffffffffffffffffffffffffff\n      and\n      dup2\n      mstore\n      0x20\n      add\n      swap1\n      dup2\n      mstore\n      0x20\n      add\n      0x00\n      keccak256\n      sload\n        /* \"contracts/NFTSwapper.sol\":2493:2529  _contributorShares[_msgSender()] > 0 */\n      gt\n        /* \"contracts/NFTSwapper.sol\":2485:2563  require(_contributorShares[_msgSender()] > 0, \"NFTSwapper: not a contributor\") */\n      tag_157\n      jumpi\n      mload(0x40)\n      0x08c379a000000000000000000000000000000000000000000000000000000000\n      dup2\n      mstore\n      0x04\n      add\n      tag_158\n      swap1\n      tag_159\n      jump\t// in\n    tag_158:\n      mload(0x40)\n      dup1\n      swap2\n      sub\n      swap1\n      revert\n    tag_157:\n        /* \"contracts/NFTSwapper.sol\":11140:11155  uint256 balance */\n      0x00\n        /* \"contracts/NFTSwapper.sol\":11158:11179  address(this).balance */\n      selfbalance\n        /* \"contracts/NFTSwapper.sol\":11140:11179  uint256 balance = address(this).balance */\n      swap1\n      pop\n        /* \"contracts/NFTSwapper.sol\":11208:11209  0 */\n      0x00\n        /* \"contracts/NFTSwapper.sol\":11198:11205  balance */\n      dup2\n        /* \"contracts/NFTSwapper.sol\":11198:11209  balance > 0 */\n      gt\n        /* \"contracts/NFTSwapper.sol\":11190:11246  require(balance > 0, \"NFTSwapper: withdraw: no balance\") */\n      tag_161\n      jumpi\n      mload(0x40)\n      0x08c379a000000000000000000000000000000000000000000000000000000000\n      dup2\n      mstore\n      0x04\n      add\n      tag_162\n      swap1\n      tag_163\n      jump\t// in\n    tag_162:\n      mload(0x40)\n      dup1\n      swap2\n      sub\n      swap1\n      revert\n    tag_161:\n        /* \"contracts/NFTSwapper.sol\":11262:11271  uint256 i */\n      0x00\n        /* \"contracts/NFTSwapper.sol\":11258:11552  for(uint256 i=0; i<_contributors.length; i++){... */\n    tag_164:\n        /* \"contracts/NFTSwapper.sol\":11277:11290  _contributors */\n      0x04\n        /* \"contracts/NFTSwapper.sol\":11277:11297  _contributors.length */\n      dup1\n      sload\n      swap1\n      pop\n        /* \"contracts/NFTSwapper.sol\":11275:11276  i */\n      dup2\n        /* \"contracts/NFTSwapper.sol\":11275:11297  i<_contributors.length */\n      lt\n        /* \"contracts/NFTSwapper.sol\":11258:11552  for(uint256 i=0; i<_contributors.length; i++){... */\n      iszero\n      tag_165\n      jumpi\n        /* \"contracts/NFTSwapper.sol\":11318:11345  address payable contributor */\n      0x00\n        /* \"contracts/NFTSwapper.sol\":11356:11369  _contributors */\n      0x04\n        /* \"contracts/NFTSwapper.sol\":11370:11371  i */\n      dup3\n        /* \"contracts/NFTSwapper.sol\":11356:11372  _contributors[i] */\n      dup2\n      sload\n      dup2\n      lt\n      tag_167\n      jumpi\n      tag_168\n      tag_169\n      jump\t// in\n    tag_168:\n    tag_167:\n      swap1\n      0x00\n      mstore\n      keccak256(0x00, 0x20)\n      add\n      0x00\n      swap1\n      sload\n      swap1\n      0x0100\n      exp\n      swap1\n      div\n      0xffffffffffffffffffffffffffffffffffffffff\n      and\n        /* \"contracts/NFTSwapper.sol\":11318:11373  address payable contributor = payable(_contributors[i]) */\n      swap1\n      pop\n        /* \"contracts/NFTSwapper.sol\":11388:11401  uint256 share */\n      0x00\n        /* \"contracts/NFTSwapper.sol\":11404:11422  _contributorShares */\n      0x03\n        /* \"contracts/NFTSwapper.sol\":11404:11435  _contributorShares[contributor] */\n      0x00\n        /* \"contracts/NFTSwapper.sol\":11423:11434  contributor */\n      dup4\n        /* \"contracts/NFTSwapper.sol\":11404:11435  _contributorShares[contributor] */\n      0xffffffffffffffffffffffffffffffffffffffff\n      and\n      0xffffffffffffffffffffffffffffffffffffffff\n      and\n      dup2\n      mstore\n      0x20\n      add\n      swap1\n      dup2\n      mstore\n      0x20\n      add\n      0x00\n      keccak256\n      sload\n        /* \"contracts/NFTSwapper.sol\":11388:11435  uint256 share = _contributorShares[contributor] */\n      swap1\n      pop\n        /* \"contracts/NFTSwapper.sol\":11450:11464  uint256 amount */\n      0x00\n        /* \"contracts/NFTSwapper.sol\":11485:11497  _totalShares */\n      sload(0x05)\n        /* \"contracts/NFTSwapper.sol\":11477:11482  share */\n      dup3\n        /* \"contracts/NFTSwapper.sol\":11467:11474  balance */\n      dup7\n        /* \"contracts/NFTSwapper.sol\":11467:11482  balance * share */\n      tag_171\n      swap2\n      swap1\n      tag_172\n      jump\t// in\n    tag_171:\n        /* \"contracts/NFTSwapper.sol\":11467:11497  balance * share / _totalShares */\n      tag_173\n      swap2\n      swap1\n      tag_174\n      jump\t// in\n    tag_173:\n        /* \"contracts/NFTSwapper.sol\":11450:11497  uint256 amount = balance * share / _totalShares */\n      swap1\n      pop\n        /* \"contracts/NFTSwapper.sol\":11512:11523  contributor */\n      dup3\n        /* \"contracts/NFTSwapper.sol\":11512:11532  contributor.transfer */\n      0xffffffffffffffffffffffffffffffffffffffff\n      and\n        /* \"contracts/NFTSwapper.sol\":11512:11540  contributor.transfer(amount) */\n      0x08fc\n        /* \"contracts/NFTSwapper.sol\":11533:11539  amount */\n      dup3\n        /* \"contracts/NFTSwapper.sol\":11512:11540  contributor.transfer(amount) */\n      swap1\n      dup2\n      iszero\n      mul\n      swap1\n      mload(0x40)\n      0x00\n      mload(0x40)\n      dup1\n      dup4\n      sub\n      dup2\n      dup6\n      dup9\n      dup9\n      call\n      swap4\n      pop\n      pop\n      pop\n      pop\n      iszero\n      dup1\n      iszero\n      tag_176\n      jumpi\n      returndatasize\n      0x00\n      dup1\n      returndatacopy\n      revert(0x00, returndatasize)\n    tag_176:\n      pop\n        /* \"contracts/NFTSwapper.sol\":11303:11552  {... */\n      pop\n      pop\n      pop\n        /* \"contracts/NFTSwapper.sol\":11299:11302  i++ */\n      dup1\n      dup1\n      tag_177\n      swap1\n      tag_178\n      jump\t// in\n    tag_177:\n      swap2\n      pop\n      pop\n        /* \"contracts/NFTSwapper.sol\":11258:11552  for(uint256 i=0; i<_contributors.length; i++){... */\n      jump(tag_164)\n    tag_165:\n      pop\n        /* \"contracts/NFTSwapper.sol\":11597:11604  balance */\n      dup1\n        /* \"contracts/NFTSwapper.sol\":11583:11595  _msgSender() */\n      tag_179\n        /* \"contracts/NFTSwapper.sol\":11583:11593  _msgSender */\n      tag_156\n        /* \"contracts/NFTSwapper.sol\":11583:11595  _msgSender() */\n      jump\t// in\n    tag_179:\n        /* \"contracts/NFTSwapper.sol\":11567:11605  WithdrawBalance(_msgSender(), balance) */\n      0xffffffffffffffffffffffffffffffffffffffff\n      and\n      0x0875ab8e60d8ffe0781ba5e1d1adadeb6250bc1bee87d3094cc6ac4eb9f88512\n      mload(0x40)\n      mload(0x40)\n      dup1\n      swap2\n      sub\n      swap1\n      log3\n        /* \"contracts/NFTSwapper.sol\":11129:11613  {... */\n      pop\n        /* \"contracts/NFTSwapper.sol\":11085:11613  function withdraw() public onlyContributor(){... */\n      jump\t// out\n        /* \"contracts/NFTSwapper.sol\":3914:4196  function cancel(uint256 id) public... */\n    tag_62:\n        /* \"contracts/NFTSwapper.sol\":3983:3985  id */\n      dup1\n        /* \"contracts/NFTSwapper.sol\":1495:1496  0 */\n      0x00\n        /* \"contracts/NFTSwapper.sol\":1479:1485  _swaps */\n      0x01\n        /* \"contracts/NFTSwapper.sol\":1479:1489  _swaps[id] */\n      0x00\n        /* \"contracts/NFTSwapper.sol\":1486:1488  id */\n      dup4\n        /* \"contracts/NFTSwapper.sol\":1479:1489  _swaps[id] */\n      dup2\n      mstore\n      0x20\n      add\n      swap1\n      dup2\n      mstore\n      0x20\n      add\n      0x00\n      keccak256\n        /* \"contracts/NFTSwapper.sol\":1479:1492  _swaps[id].Id */\n      0x00\n      add\n      sload\n        /* \"contracts/NFTSwapper.sol\":1479:1496  _swaps[id].Id > 0 */\n      gt\n        /* \"contracts/NFTSwapper.sol\":1471:1530  require(_swaps[id].Id > 0, \"NFTSwapper: id does not exist\") */\n      tag_181\n      jumpi\n      mload(0x40)\n      0x08c379a000000000000000000000000000000000000000000000000000000000\n      dup2\n      mstore\n      0x04\n      add\n      tag_182\n      swap1\n      tag_183\n      jump\t// in\n    tag_182:\n      mload(0x40)\n      dup1\n      swap2\n      sub\n      swap1\n      revert\n    tag_181:\n        /* \"contracts/NFTSwapper.sol\":4019:4021  id */\n      dup2\n        /* \"contracts/NFTSwapper.sol\":4023:4035  _msgSender() */\n      tag_184\n        /* \"contracts/NFTSwapper.sol\":4023:4033  _msgSender */\n      tag_156\n        /* \"contracts/NFTSwapper.sol\":4023:4035  _msgSender() */\n      jump\t// in\n    tag_184:\n        /* \"contracts/NFTSwapper.sol\":1646:1655  applicant */\n      dup1\n        /* \"contracts/NFTSwapper.sol\":1625:1655  _swaps[id].Bidder == applicant */\n      0xffffffffffffffffffffffffffffffffffffffff\n      and\n        /* \"contracts/NFTSwapper.sol\":1625:1631  _swaps */\n      0x01\n        /* \"contracts/NFTSwapper.sol\":1625:1635  _swaps[id] */\n      0x00\n        /* \"contracts/NFTSwapper.sol\":1632:1634  id */\n      dup5\n        /* \"contracts/NFTSwapper.sol\":1625:1635  _swaps[id] */\n      dup2\n      mstore\n      0x20\n      add\n      swap1\n      dup2\n      mstore\n      0x20\n      add\n      0x00\n      keccak256\n        /* \"contracts/NFTSwapper.sol\":1625:1642  _swaps[id].Bidder */\n      0x01\n      add\n      0x01\n      swap1\n      sload\n      swap1\n      0x0100\n      exp\n      swap1\n      div\n      0xffffffffffffffffffffffffffffffffffffffff\n      and\n        /* \"contracts/NFTSwapper.sol\":1625:1655  _swaps[id].Bidder == applicant */\n      0xffffffffffffffffffffffffffffffffffffffff\n      and\n      eq\n        /* \"contracts/NFTSwapper.sol\":1617:1686  require(_swaps[id].Bidder == applicant, \"NFTSwapper: not the bidder\") */\n      tag_186\n      jumpi\n      mload(0x40)\n      0x08c379a000000000000000000000000000000000000000000000000000000000\n      dup2\n      mstore\n      0x04\n      add\n      tag_187\n      swap1\n      tag_188\n      jump\t// in\n    tag_187:\n      mload(0x40)\n      dup1\n      swap2\n      sub\n      swap1\n      revert\n    tag_186:\n        /* \"contracts/NFTSwapper.sol\":4071:4073  id */\n      dup4\n        /* \"contracts/NFTSwapper.sol\":2662:2679  SwapState.Pending */\n      0x00\n        /* \"contracts/NFTSwapper.sol\":2642:2679  _swaps[id].State == SwapState.Pending */\n      0x02\n      dup2\n      gt\n      iszero\n      tag_190\n      jumpi\n      tag_191\n      tag_192\n      jump\t// in\n    tag_191:\n    tag_190:\n        /* \"contracts/NFTSwapper.sol\":2642:2648  _swaps */\n      0x01\n        /* \"contracts/NFTSwapper.sol\":2642:2652  _swaps[id] */\n      0x00\n        /* \"contracts/NFTSwapper.sol\":2649:2651  id */\n      dup4\n        /* \"contracts/NFTSwapper.sol\":2642:2652  _swaps[id] */\n      dup2\n      mstore\n      0x20\n      add\n      swap1\n      dup2\n      mstore\n      0x20\n      add\n      0x00\n      keccak256\n        /* \"contracts/NFTSwapper.sol\":2642:2658  _swaps[id].State */\n      0x01\n      add\n      0x00\n      swap1\n      sload\n      swap1\n      0x0100\n      exp\n      swap1\n      div\n      0xff\n      and\n        /* \"contracts/NFTSwapper.sol\":2642:2679  _swaps[id].State == SwapState.Pending */\n      0x02\n      dup2\n      gt\n      iszero\n      tag_193\n      jumpi\n      tag_194\n      tag_192\n      jump\t// in\n    tag_194:\n    tag_193:\n      eq\n        /* \"contracts/NFTSwapper.sol\":2634:2726  require(_swaps[id].State == SwapState.Pending, \"NFTSwapper: swap is completed or cancelled\") */\n      tag_195\n      jumpi\n      mload(0x40)\n      0x08c379a000000000000000000000000000000000000000000000000000000000\n      dup2\n      mstore\n      0x04\n      add\n      tag_196\n      swap1\n      tag_197\n      jump\t// in\n    tag_196:\n      mload(0x40)\n      dup1\n      swap2\n      sub\n      swap1\n      revert\n    tag_195:\n        /* \"contracts/NFTSwapper.sol\":4111:4130  SwapState.Cancelled */\n      0x01\n        /* \"contracts/NFTSwapper.sol\":4092:4098  _swaps */\n      dup1\n        /* \"contracts/NFTSwapper.sol\":4092:4102  _swaps[id] */\n      0x00\n        /* \"contracts/NFTSwapper.sol\":4099:4101  id */\n      dup8\n        /* \"contracts/NFTSwapper.sol\":4092:4102  _swaps[id] */\n      dup2\n      mstore\n      0x20\n      add\n      swap1\n      dup2\n      mstore\n      0x20\n      add\n      0x00\n      keccak256\n        /* \"contracts/NFTSwapper.sol\":4092:4108  _swaps[id].State */\n      0x01\n      add\n      0x00\n        /* \"contracts/NFTSwapper.sol\":4092:4130  _swaps[id].State = SwapState.Cancelled */\n      0x0100\n      exp\n      dup2\n      sload\n      dup2\n      0xff\n      mul\n      not\n      and\n      swap1\n      dup4\n      0x02\n      dup2\n      gt\n      iszero\n      tag_199\n      jumpi\n      tag_200\n      tag_192\n      jump\t// in\n    tag_200:\n    tag_199:\n      mul\n      or\n      swap1\n      sstore\n      pop\n        /* \"contracts/NFTSwapper.sol\":4168:4187  SwapState.Cancelled */\n      0x01\n        /* \"contracts/NFTSwapper.sol\":4147:4188  SwapStateChanged(id, SwapState.Cancelled) */\n      0x02\n      dup2\n      gt\n      iszero\n      tag_201\n      jumpi\n      tag_202\n      tag_192\n      jump\t// in\n    tag_202:\n    tag_201:\n        /* \"contracts/NFTSwapper.sol\":4164:4166  id */\n      dup6\n        /* \"contracts/NFTSwapper.sol\":4147:4188  SwapStateChanged(id, SwapState.Cancelled) */\n      0x15211d78a502c0edd03f8cefb0ba09c0bcdb3045a82c5d05dbdfff58efc82f03\n      mload(0x40)\n      mload(0x40)\n      dup1\n      swap2\n      sub\n      swap1\n      log3\n        /* \"contracts/NFTSwapper.sol\":1697:1698  _ */\n      pop\n        /* \"contracts/NFTSwapper.sol\":1541:1542  _ */\n      pop\n      pop\n        /* \"contracts/NFTSwapper.sol\":3914:4196  function cancel(uint256 id) public... */\n      pop\n      pop\n      jump\t// out\n        /* \"contracts/NFTSwapper.sol\":7328:7442  function getSwap(uint256 id) public view existsSwapId(id) returns(Swap memory){... */\n    tag_66:\n        /* \"contracts/NFTSwapper.sol\":7394:7405  Swap memory */\n      tag_203\n      tag_204\n      jump\t// in\n    tag_203:\n        /* \"contracts/NFTSwapper.sol\":7382:7384  id */\n      dup2\n        /* \"contracts/NFTSwapper.sol\":1495:1496  0 */\n      0x00\n        /* \"contracts/NFTSwapper.sol\":1479:1485  _swaps */\n      0x01\n        /* \"contracts/NFTSwapper.sol\":1479:1489  _swaps[id] */\n      0x00\n        /* \"contracts/NFTSwapper.sol\":1486:1488  id */\n      dup4\n        /* \"contracts/NFTSwapper.sol\":1479:1489  _swaps[id] */\n      dup2\n      mstore\n      0x20\n      add\n      swap1\n      dup2\n      mstore\n      0x20\n      add\n      0x00\n      keccak256\n        /* \"contracts/NFTSwapper.sol\":1479:1492  _swaps[id].Id */\n      0x00\n      add\n      sload\n        /* \"contracts/NFTSwapper.sol\":1479:1496  _swaps[id].Id > 0 */\n      gt\n        /* \"contracts/NFTSwapper.sol\":1471:1530  require(_swaps[id].Id > 0, \"NFTSwapper: id does not exist\") */\n      tag_206\n      jumpi\n      mload(0x40)\n      0x08c379a000000000000000000000000000000000000000000000000000000000\n      dup2\n      mstore\n      0x04\n      add\n      tag_207\n      swap1\n      tag_183\n      jump\t// in\n    tag_207:\n      mload(0x40)\n      dup1\n      swap2\n      sub\n      swap1\n      revert\n    tag_206:\n        /* \"contracts/NFTSwapper.sol\":7424:7430  _swaps */\n      0x01\n        /* \"contracts/NFTSwapper.sol\":7424:7434  _swaps[id] */\n      0x00\n        /* \"contracts/NFTSwapper.sol\":7431:7433  id */\n      dup5\n        /* \"contracts/NFTSwapper.sol\":7424:7434  _swaps[id] */\n      dup2\n      mstore\n      0x20\n      add\n      swap1\n      dup2\n      mstore\n      0x20\n      add\n      0x00\n      keccak256\n        /* \"contracts/NFTSwapper.sol\":7417:7434  return _swaps[id] */\n      mload(0x40)\n      dup1\n      0xc0\n      add\n      0x40\n      mstore\n      swap1\n      dup2\n      0x00\n      dup3\n      add\n      sload\n      dup2\n      mstore\n      0x20\n      add\n      0x01\n      dup3\n      add\n      0x00\n      swap1\n      sload\n      swap1\n      0x0100\n      exp\n      swap1\n      div\n      0xff\n      and\n      0x02\n      dup2\n      gt\n      iszero\n      tag_209\n      jumpi\n      tag_210\n      tag_192\n      jump\t// in\n    tag_210:\n    tag_209:\n      0x02\n      dup2\n      gt\n      iszero\n      tag_211\n      jumpi\n      tag_212\n      tag_192\n      jump\t// in\n    tag_212:\n    tag_211:\n      dup2\n      mstore\n      0x20\n      add\n      0x01\n      dup3\n      add\n      0x01\n      swap1\n      sload\n      swap1\n      0x0100\n      exp\n      swap1\n      div\n      0xffffffffffffffffffffffffffffffffffffffff\n      and\n      0xffffffffffffffffffffffffffffffffffffffff\n      and\n      0xffffffffffffffffffffffffffffffffffffffff\n      and\n      dup2\n      mstore\n      0x20\n      add\n      0x02\n      dup3\n      add\n      dup1\n      sload\n      dup1\n      0x20\n      mul\n      0x20\n      add\n      mload(0x40)\n      swap1\n      dup2\n      add\n      0x40\n      mstore\n      dup1\n      swap3\n      swap2\n      swap1\n      dup2\n      dup2\n      mstore\n      0x20\n      add\n      0x00\n      swap1\n    tag_213:\n      dup3\n      dup3\n      lt\n      iszero\n      tag_214\n      jumpi\n      dup4\n      dup3\n      swap1\n      0x00\n      mstore\n      keccak256(0x00, 0x20)\n      swap1\n      0x03\n      mul\n      add\n      mload(0x40)\n      dup1\n      0x60\n      add\n      0x40\n      mstore\n      swap1\n      dup2\n      0x00\n      dup3\n      add\n      0x00\n      swap1\n      sload\n      swap1\n      0x0100\n      exp\n      swap1\n      div\n      0xffffffffffffffffffffffffffffffffffffffff\n      and\n      0xffffffffffffffffffffffffffffffffffffffff\n      and\n      0xffffffffffffffffffffffffffffffffffffffff\n      and\n      dup2\n      mstore\n      0x20\n      add\n      0x01\n      dup3\n      add\n      sload\n      dup2\n      mstore\n      0x20\n      add\n      0x02\n      dup3\n      add\n      sload\n      dup2\n      mstore\n      pop\n      pop\n      dup2\n      mstore\n      0x20\n      add\n      swap1\n      0x01\n      add\n      swap1\n      jump(tag_213)\n    tag_214:\n      pop\n      pop\n      pop\n      pop\n      dup2\n      mstore\n      0x20\n      add\n      0x03\n      dup3\n      add\n      dup1\n      sload\n      dup1\n      0x20\n      mul\n      0x20\n      add\n      mload(0x40)\n      swap1\n      dup2\n      add\n      0x40\n      mstore\n      dup1\n      swap3\n      swap2\n      swap1\n      dup2\n      dup2\n      mstore\n      0x20\n      add\n      dup3\n      dup1\n      sload\n      dup1\n      iszero\n      tag_216\n      jumpi\n      0x20\n      mul\n      dup3\n      add\n      swap2\n      swap1\n      0x00\n      mstore\n      keccak256(0x00, 0x20)\n      swap1\n    tag_217:\n      dup2\n      0x00\n      swap1\n      sload\n      swap1\n      0x0100\n      exp\n      swap1\n      div\n      0xffffffffffffffffffffffffffffffffffffffff\n      and\n      0xffffffffffffffffffffffffffffffffffffffff\n      and\n      dup2\n      mstore\n      0x20\n      add\n      swap1\n      0x01\n      add\n      swap1\n      dup1\n      dup4\n      gt\n      tag_217\n      jumpi\n    tag_216:\n      pop\n      pop\n      pop\n      pop\n      pop\n      dup2\n      mstore\n      0x20\n      add\n      0x04\n      dup3\n      add\n      dup1\n      sload\n      dup1\n      0x20\n      mul\n      0x20\n      add\n      mload(0x40)\n      swap1\n      dup2\n      add\n      0x40\n      mstore\n      dup1\n      swap3\n      swap2\n      swap1\n      dup2\n      dup2\n      mstore\n      0x20\n      add\n      0x00\n      swap1\n    tag_218:\n      dup3\n      dup3\n      lt\n      iszero\n      tag_219\n      jumpi\n      dup4\n      dup3\n      swap1\n      0x00\n      mstore\n      keccak256(0x00, 0x20)\n      swap1\n      0x03\n      mul\n      add\n      mload(0x40)\n      dup1\n      0x60\n      add\n      0x40\n      mstore\n      swap1\n      dup2\n      0x00\n      dup3\n      add\n      0x00\n      swap1\n      sload\n      swap1\n      0x0100\n      exp\n      swap1\n      div\n      0xffffffffffffffffffffffffffffffffffffffff\n      and\n      0xffffffffffffffffffffffffffffffffffffffff\n      and\n      0xffffffffffffffffffffffffffffffffffffffff\n      and\n      dup2\n      mstore\n      0x20\n      add\n      0x01\n      dup3\n      add\n      sload\n      dup2\n      mstore\n      0x20\n      add\n      0x02\n      dup3\n      add\n      sload\n      dup2\n      mstore\n      pop\n      pop\n      dup2\n      mstore\n      0x20\n      add\n      swap1\n      0x01\n      add\n      swap1\n      jump(tag_218)\n    tag_219:\n      pop\n      pop\n      pop\n      pop\n      dup2\n      mstore\n      pop\n      pop\n      swap2\n      pop\n        /* \"contracts/NFTSwapper.sol\":7328:7442  function getSwap(uint256 id) public view existsSwapId(id) returns(Swap memory){... */\n      pop\n      swap2\n      swap1\n      pop\n      jump\t// out\n        /* \"contracts/NFTSwapper.sol\":10457:10601  function getShare(address constributor) public view onlyContributor() returns(uint256){... */\n    tag_72:\n        /* \"contracts/NFTSwapper.sol\":10535:10542  uint256 */\n      0x00\n        /* \"contracts/NFTSwapper.sol\":2528:2529  0 */\n      dup1\n        /* \"contracts/NFTSwapper.sol\":2493:2511  _contributorShares */\n      0x03\n        /* \"contracts/NFTSwapper.sol\":2493:2525  _contributorShares[_msgSender()] */\n      0x00\n        /* \"contracts/NFTSwapper.sol\":2512:2524  _msgSender() */\n      tag_222\n        /* \"contracts/NFTSwapper.sol\":2512:2522  _msgSender */\n      tag_156\n        /* \"contracts/NFTSwapper.sol\":2512:2524  _msgSender() */\n      jump\t// in\n    tag_222:\n        /* \"contracts/NFTSwapper.sol\":2493:2525  _contributorShares[_msgSender()] */\n      0xffffffffffffffffffffffffffffffffffffffff\n      and\n      0xffffffffffffffffffffffffffffffffffffffff\n      and\n      dup2\n      mstore\n      0x20\n      add\n      swap1\n      dup2\n      mstore\n      0x20\n      add\n      0x00\n      keccak256\n      sload\n        /* \"contracts/NFTSwapper.sol\":2493:2529  _contributorShares[_msgSender()] > 0 */\n      gt\n        /* \"contracts/NFTSwapper.sol\":2485:2563  require(_contributorShares[_msgSender()] > 0, \"NFTSwapper: not a contributor\") */\n      tag_223\n      jumpi\n      mload(0x40)\n      0x08c379a000000000000000000000000000000000000000000000000000000000\n      dup2\n      mstore\n      0x04\n      add\n      tag_224\n      swap1\n      tag_159\n      jump\t// in\n    tag_224:\n      mload(0x40)\n      dup1\n      swap2\n      sub\n      swap1\n      revert\n    tag_223:\n        /* \"contracts/NFTSwapper.sol\":10561:10579  _contributorShares */\n      0x03\n        /* \"contracts/NFTSwapper.sol\":10561:10593  _contributorShares[constributor] */\n      0x00\n        /* \"contracts/NFTSwapper.sol\":10580:10592  constributor */\n      dup4\n        /* \"contracts/NFTSwapper.sol\":10561:10593  _contributorShares[constributor] */\n      0xffffffffffffffffffffffffffffffffffffffff\n      and\n      0xffffffffffffffffffffffffffffffffffffffff\n      and\n      dup2\n      mstore\n      0x20\n      add\n      swap1\n      dup2\n      mstore\n      0x20\n      add\n      0x00\n      keccak256\n      sload\n        /* \"contracts/NFTSwapper.sol\":10554:10593  return _contributorShares[constributor] */\n      swap1\n      pop\n        /* \"contracts/NFTSwapper.sol\":10457:10601  function getShare(address constributor) public view onlyContributor() returns(uint256){... */\n      swap2\n      swap1\n      pop\n      jump\t// out\n        /* \"contracts/NFTSwapper.sol\":9037:10206  function setContributor(address contributor, uint256 share) public onlyOwner()... */\n    tag_78:\n        /* \"@openzeppelin/contracts/access/Ownable.sol\":1094:1107  _checkOwner() */\n      tag_227\n        /* \"@openzeppelin/contracts/access/Ownable.sol\":1094:1105  _checkOwner */\n      tag_149\n        /* \"@openzeppelin/contracts/access/Ownable.sol\":1094:1107  _checkOwner() */\n      jump\t// in\n    tag_227:\n        /* \"contracts/NFTSwapper.sol\":9168:9169  0 */\n      0x00\n        /* \"contracts/NFTSwapper.sol\":9141:9152  contributor */\n      dup3\n        /* \"contracts/NFTSwapper.sol\":9141:9164  contributor.code.length */\n      0xffffffffffffffffffffffffffffffffffffffff\n      and\n      extcodesize\n        /* \"contracts/NFTSwapper.sol\":9141:9169  contributor.code.length == 0 */\n      eq\n        /* \"contracts/NFTSwapper.sol\":9133:9234  require(contributor.code.length == 0, \"NFTSwapper: setContributor: contributor address is not a EOA\") */\n      tag_229\n      jumpi\n      mload(0x40)\n      0x08c379a000000000000000000000000000000000000000000000000000000000\n      dup2\n      mstore\n      0x04\n      add\n      tag_230\n      swap1\n      tag_231\n      jump\t// in\n    tag_230:\n      mload(0x40)\n      dup1\n      swap2\n      sub\n      swap1\n      revert\n    tag_229:\n        /* \"contracts/NFTSwapper.sol\":9256:9257  0 */\n      0x00\n        /* \"contracts/NFTSwapper.sol\":9248:9253  share */\n      dup2\n        /* \"contracts/NFTSwapper.sol\":9248:9257  share > 0 */\n      gt\n        /* \"contracts/NFTSwapper.sol\":9245:10198  if(share > 0){... */\n      iszero\n      tag_232\n      jumpi\n        /* \"contracts/NFTSwapper.sol\":9310:9311  0 */\n      0x00\n        /* \"contracts/NFTSwapper.sol\":9276:9294  _contributorShares */\n      0x03\n        /* \"contracts/NFTSwapper.sol\":9276:9307  _contributorShares[contributor] */\n      0x00\n        /* \"contracts/NFTSwapper.sol\":9295:9306  contributor */\n      dup5\n        /* \"contracts/NFTSwapper.sol\":9276:9307  _contributorShares[contributor] */\n      0xffffffffffffffffffffffffffffffffffffffff\n      and\n      0xffffffffffffffffffffffffffffffffffffffff\n      and\n      dup2\n      mstore\n      0x20\n      add\n      swap1\n      dup2\n      mstore\n      0x20\n      add\n      0x00\n      keccak256\n      sload\n        /* \"contracts/NFTSwapper.sol\":9276:9311  _contributorShares[contributor] > 0 */\n      gt\n        /* \"contracts/NFTSwapper.sol\":9273:9657  if(_contributorShares[contributor] > 0){... */\n      iszero\n      tag_233\n      jumpi\n        /* \"contracts/NFTSwapper.sol\":9395:9400  share */\n      dup1\n        /* \"contracts/NFTSwapper.sol\":9361:9379  _contributorShares */\n      0x03\n        /* \"contracts/NFTSwapper.sol\":9361:9392  _contributorShares[contributor] */\n      0x00\n        /* \"contracts/NFTSwapper.sol\":9380:9391  contributor */\n      dup5\n        /* \"contracts/NFTSwapper.sol\":9361:9392  _contributorShares[contributor] */\n      0xffffffffffffffffffffffffffffffffffffffff\n      and\n      0xffffffffffffffffffffffffffffffffffffffff\n      and\n      dup2\n      mstore\n      0x20\n      add\n      swap1\n      dup2\n      mstore\n      0x20\n      add\n      0x00\n      keccak256\n      sload\n        /* \"contracts/NFTSwapper.sol\":9346:9358  _totalShares */\n      sload(0x05)\n        /* \"contracts/NFTSwapper.sol\":9346:9392  _totalShares - _contributorShares[contributor] */\n      tag_234\n      swap2\n      swap1\n      tag_235\n      jump\t// in\n    tag_234:\n        /* \"contracts/NFTSwapper.sol\":9346:9400  _totalShares - _contributorShares[contributor] + share */\n      tag_236\n      swap2\n      swap1\n      tag_237\n      jump\t// in\n    tag_236:\n        /* \"contracts/NFTSwapper.sol\":9331:9343  _totalShares */\n      0x05\n        /* \"contracts/NFTSwapper.sol\":9331:9400  _totalShares = _totalShares - _contributorShares[contributor] + share */\n      dup2\n      swap1\n      sstore\n      pop\n        /* \"contracts/NFTSwapper.sol\":9453:9458  share */\n      dup1\n        /* \"contracts/NFTSwapper.sol\":9419:9437  _contributorShares */\n      0x03\n        /* \"contracts/NFTSwapper.sol\":9419:9450  _contributorShares[contributor] */\n      0x00\n        /* \"contracts/NFTSwapper.sol\":9438:9449  contributor */\n      dup5\n        /* \"contracts/NFTSwapper.sol\":9419:9450  _contributorShares[contributor] */\n      0xffffffffffffffffffffffffffffffffffffffff\n      and\n      0xffffffffffffffffffffffffffffffffffffffff\n      and\n      dup2\n      mstore\n      0x20\n      add\n      swap1\n      dup2\n      mstore\n      0x20\n      add\n      0x00\n      keccak256\n        /* \"contracts/NFTSwapper.sol\":9419:9458  _contributorShares[contributor] = share */\n      dup2\n      swap1\n      sstore\n      pop\n        /* \"contracts/NFTSwapper.sol\":9273:9657  if(_contributorShares[contributor] > 0){... */\n      jump(tag_238)\n    tag_233:\n        /* \"contracts/NFTSwapper.sol\":9528:9533  share */\n      dup1\n        /* \"contracts/NFTSwapper.sol\":9513:9525  _totalShares */\n      sload(0x05)\n        /* \"contracts/NFTSwapper.sol\":9513:9533  _totalShares + share */\n      tag_239\n      swap2\n      swap1\n      tag_237\n      jump\t// in\n    tag_239:\n        /* \"contracts/NFTSwapper.sol\":9498:9510  _totalShares */\n      0x05\n        /* \"contracts/NFTSwapper.sol\":9498:9533  _totalShares = _totalShares + share */\n      dup2\n      swap1\n      sstore\n      pop\n        /* \"contracts/NFTSwapper.sol\":9586:9591  share */\n      dup1\n        /* \"contracts/NFTSwapper.sol\":9552:9570  _contributorShares */\n      0x03\n        /* \"contracts/NFTSwapper.sol\":9552:9583  _contributorShares[contributor] */\n      0x00\n        /* \"contracts/NFTSwapper.sol\":9571:9582  contributor */\n      dup5\n        /* \"contracts/NFTSwapper.sol\":9552:9583  _contributorShares[contributor] */\n      0xffffffffffffffffffffffffffffffffffffffff\n      and\n      0xffffffffffffffffffffffffffffffffffffffff\n      and\n      dup2\n      mstore\n      0x20\n      add\n      swap1\n      dup2\n      mstore\n      0x20\n      add\n      0x00\n      keccak256\n        /* \"contracts/NFTSwapper.sol\":9552:9591  _contributorShares[contributor] = share */\n      dup2\n      swap1\n      sstore\n      pop\n        /* \"contracts/NFTSwapper.sol\":9610:9623  _contributors */\n      0x04\n        /* \"contracts/NFTSwapper.sol\":9629:9640  contributor */\n      dup3\n        /* \"contracts/NFTSwapper.sol\":9610:9641  _contributors.push(contributor) */\n      swap1\n      dup1\n      0x01\n      dup2\n      sload\n      add\n      dup1\n      dup3\n      sstore\n      dup1\n      swap2\n      pop\n      pop\n      0x01\n      swap1\n      sub\n      swap1\n      0x00\n      mstore\n      keccak256(0x00, 0x20)\n      add\n      0x00\n      swap1\n      swap2\n      swap1\n      swap2\n      swap1\n      swap2\n      0x0100\n      exp\n      dup2\n      sload\n      dup2\n      0xffffffffffffffffffffffffffffffffffffffff\n      mul\n      not\n      and\n      swap1\n      dup4\n      0xffffffffffffffffffffffffffffffffffffffff\n      and\n      mul\n      or\n      swap1\n      sstore\n      pop\n        /* \"contracts/NFTSwapper.sol\":9273:9657  if(_contributorShares[contributor] > 0){... */\n    tag_238:\n        /* \"contracts/NFTSwapper.sol\":9245:10198  if(share > 0){... */\n      jump(tag_241)\n    tag_232:\n        /* \"contracts/NFTSwapper.sol\":9729:9730  0 */\n      0x00\n        /* \"contracts/NFTSwapper.sol\":9695:9713  _contributorShares */\n      0x03\n        /* \"contracts/NFTSwapper.sol\":9695:9726  _contributorShares[contributor] */\n      0x00\n        /* \"contracts/NFTSwapper.sol\":9714:9725  contributor */\n      dup5\n        /* \"contracts/NFTSwapper.sol\":9695:9726  _contributorShares[contributor] */\n      0xffffffffffffffffffffffffffffffffffffffff\n      and\n      0xffffffffffffffffffffffffffffffffffffffff\n      and\n      dup2\n      mstore\n      0x20\n      add\n      swap1\n      dup2\n      mstore\n      0x20\n      add\n      0x00\n      keccak256\n      sload\n        /* \"contracts/NFTSwapper.sol\":9695:9730  _contributorShares[contributor] > 0 */\n      gt\n        /* \"contracts/NFTSwapper.sol\":9687:9787  require(_contributorShares[contributor] > 0, \"NFTSwapper: removeContributor: contributor not found\") */\n      tag_242\n      jumpi\n      mload(0x40)\n      0x08c379a000000000000000000000000000000000000000000000000000000000\n      dup2\n      mstore\n      0x04\n      add\n      tag_243\n      swap1\n      tag_244\n      jump\t// in\n    tag_243:\n      mload(0x40)\n      dup1\n      swap2\n      sub\n      swap1\n      revert\n    tag_242:\n        /* \"contracts/NFTSwapper.sol\":9832:9850  _contributorShares */\n      0x03\n        /* \"contracts/NFTSwapper.sol\":9832:9863  _contributorShares[contributor] */\n      0x00\n        /* \"contracts/NFTSwapper.sol\":9851:9862  contributor */\n      dup4\n        /* \"contracts/NFTSwapper.sol\":9832:9863  _contributorShares[contributor] */\n      0xffffffffffffffffffffffffffffffffffffffff\n      and\n      0xffffffffffffffffffffffffffffffffffffffff\n      and\n      dup2\n      mstore\n      0x20\n      add\n      swap1\n      dup2\n      mstore\n      0x20\n      add\n      0x00\n      keccak256\n      sload\n        /* \"contracts/NFTSwapper.sol\":9817:9829  _totalShares */\n      sload(0x05)\n        /* \"contracts/NFTSwapper.sol\":9817:9863  _totalShares - _contributorShares[contributor] */\n      tag_245\n      swap2\n      swap1\n      tag_235\n      jump\t// in\n    tag_245:\n        /* \"contracts/NFTSwapper.sol\":9802:9814  _totalShares */\n      0x05\n        /* \"contracts/NFTSwapper.sol\":9802:9863  _totalShares = _totalShares - _contributorShares[contributor] */\n      dup2\n      swap1\n      sstore\n      pop\n        /* \"contracts/NFTSwapper.sol\":9882:9891  uint256 i */\n      0x00\n        /* \"contracts/NFTSwapper.sol\":9878:10134  for(uint256 i = 0; i < _contributors.length; i++) {... */\n    tag_246:\n        /* \"contracts/NFTSwapper.sol\":9901:9914  _contributors */\n      0x04\n        /* \"contracts/NFTSwapper.sol\":9901:9921  _contributors.length */\n      dup1\n      sload\n      swap1\n      pop\n        /* \"contracts/NFTSwapper.sol\":9897:9898  i */\n      dup2\n        /* \"contracts/NFTSwapper.sol\":9897:9921  i < _contributors.length */\n      lt\n        /* \"contracts/NFTSwapper.sol\":9878:10134  for(uint256 i = 0; i < _contributors.length; i++) {... */\n      iszero\n      tag_247\n      jumpi\n        /* \"contracts/NFTSwapper.sol\":9970:9981  contributor */\n      dup3\n        /* \"contracts/NFTSwapper.sol\":9950:9981  _contributors[i] == contributor */\n      0xffffffffffffffffffffffffffffffffffffffff\n      and\n        /* \"contracts/NFTSwapper.sol\":9950:9963  _contributors */\n      0x04\n        /* \"contracts/NFTSwapper.sol\":9964:9965  i */\n      dup3\n        /* \"contracts/NFTSwapper.sol\":9950:9966  _contributors[i] */\n      dup2\n      sload\n      dup2\n      lt\n      tag_249\n      jumpi\n      tag_250\n      tag_169\n      jump\t// in\n    tag_250:\n    tag_249:\n      swap1\n      0x00\n      mstore\n      keccak256(0x00, 0x20)\n      add\n      0x00\n      swap1\n      sload\n      swap1\n      0x0100\n      exp\n      swap1\n      div\n      0xffffffffffffffffffffffffffffffffffffffff\n      and\n        /* \"contracts/NFTSwapper.sol\":9950:9981  _contributors[i] == contributor */\n      0xffffffffffffffffffffffffffffffffffffffff\n      and\n      eq\n        /* \"contracts/NFTSwapper.sol\":9947:10119  if(_contributors[i] == contributor) {... */\n      iszero\n      tag_252\n      jumpi\n        /* \"contracts/NFTSwapper.sol\":10013:10026  _contributors */\n      0x04\n        /* \"contracts/NFTSwapper.sol\":10027:10028  i */\n      dup2\n        /* \"contracts/NFTSwapper.sol\":10013:10029  _contributors[i] */\n      dup2\n      sload\n      dup2\n      lt\n      tag_253\n      jumpi\n      tag_254\n      tag_169\n      jump\t// in\n    tag_254:\n    tag_253:\n      swap1\n      0x00\n      mstore\n      keccak256(0x00, 0x20)\n      add\n      0x00\n        /* \"contracts/NFTSwapper.sol\":10006:10029  delete _contributors[i] */\n      0x0100\n      exp\n      dup2\n      sload\n      swap1\n      0xffffffffffffffffffffffffffffffffffffffff\n      mul\n      not\n      and\n      swap1\n      sstore\n        /* \"contracts/NFTSwapper.sol\":10052:10065  _contributors */\n      0x04\n        /* \"contracts/NFTSwapper.sol\":10052:10071  _contributors.pop() */\n      dup1\n      sload\n      dup1\n      tag_256\n      jumpi\n      tag_257\n      tag_258\n      jump\t// in\n    tag_257:\n    tag_256:\n      0x01\n      swap1\n      sub\n      dup2\n      dup2\n      swap1\n      0x00\n      mstore\n      keccak256(0x00, 0x20)\n      add\n      exp(0x0100, 0x00)\n      dup2\n      sload\n      swap1\n      0xffffffffffffffffffffffffffffffffffffffff\n      mul\n      not\n      and\n      swap1\n      sstore\n      swap1\n      sstore\n        /* \"contracts/NFTSwapper.sol\":10094:10099  break */\n      jump(tag_247)\n        /* \"contracts/NFTSwapper.sol\":9947:10119  if(_contributors[i] == contributor) {... */\n    tag_252:\n        /* \"contracts/NFTSwapper.sol\":9923:9926  i++ */\n      dup1\n      dup1\n      tag_260\n      swap1\n      tag_178\n      jump\t// in\n    tag_260:\n      swap2\n      pop\n      pop\n        /* \"contracts/NFTSwapper.sol\":9878:10134  for(uint256 i = 0; i < _contributors.length; i++) {... */\n      jump(tag_246)\n    tag_247:\n      pop\n        /* \"contracts/NFTSwapper.sol\":10155:10173  _contributorShares */\n      0x03\n        /* \"contracts/NFTSwapper.sol\":10155:10186  _contributorShares[contributor] */\n      0x00\n        /* \"contracts/NFTSwapper.sol\":10174:10185  contributor */\n      dup4\n        /* \"contracts/NFTSwapper.sol\":10155:10186  _contributorShares[contributor] */\n      0xffffffffffffffffffffffffffffffffffffffff\n      and\n      0xffffffffffffffffffffffffffffffffffffffff\n      and\n      dup2\n      mstore\n      0x20\n      add\n      swap1\n      dup2\n      mstore\n      0x20\n      add\n      0x00\n      keccak256\n        /* \"contracts/NFTSwapper.sol\":10148:10186  delete _contributorShares[contributor] */\n      0x00\n      swap1\n      sstore\n        /* \"contracts/NFTSwapper.sol\":9245:10198  if(share > 0){... */\n    tag_241:\n        /* \"contracts/NFTSwapper.sol\":9037:10206  function setContributor(address contributor, uint256 share) public onlyOwner()... */\n      pop\n      pop\n      jump\t// out\n        /* \"contracts/NFTSwapper.sol\":4202:4551  function uncancel(uint256 id) public... */\n    tag_82:\n        /* \"contracts/NFTSwapper.sol\":4273:4275  id */\n      dup1\n        /* \"contracts/NFTSwapper.sol\":1495:1496  0 */\n      0x00\n        /* \"contracts/NFTSwapper.sol\":1479:1485  _swaps */\n      0x01\n        /* \"contracts/NFTSwapper.sol\":1479:1489  _swaps[id] */\n      0x00\n        /* \"contracts/NFTSwapper.sol\":1486:1488  id */\n      dup4\n        /* \"contracts/NFTSwapper.sol\":1479:1489  _swaps[id] */\n      dup2\n      mstore\n      0x20\n      add\n      swap1\n      dup2\n      mstore\n      0x20\n      add\n      0x00\n      keccak256\n        /* \"contracts/NFTSwapper.sol\":1479:1492  _swaps[id].Id */\n      0x00\n      add\n      sload\n        /* \"contracts/NFTSwapper.sol\":1479:1496  _swaps[id].Id > 0 */\n      gt\n        /* \"contracts/NFTSwapper.sol\":1471:1530  require(_swaps[id].Id > 0, \"NFTSwapper: id does not exist\") */\n      tag_262\n      jumpi\n      mload(0x40)\n      0x08c379a000000000000000000000000000000000000000000000000000000000\n      dup2\n      mstore\n      0x04\n      add\n      tag_263\n      swap1\n      tag_183\n      jump\t// in\n    tag_263:\n      mload(0x40)\n      dup1\n      swap2\n      sub\n      swap1\n      revert\n    tag_262:\n        /* \"contracts/NFTSwapper.sol\":4309:4311  id */\n      dup2\n        /* \"contracts/NFTSwapper.sol\":4313:4325  _msgSender() */\n      tag_264\n        /* \"contracts/NFTSwapper.sol\":4313:4323  _msgSender */\n      tag_156\n        /* \"contracts/NFTSwapper.sol\":4313:4325  _msgSender() */\n      jump\t// in\n    tag_264:\n        /* \"contracts/NFTSwapper.sol\":1646:1655  applicant */\n      dup1\n        /* \"contracts/NFTSwapper.sol\":1625:1655  _swaps[id].Bidder == applicant */\n      0xffffffffffffffffffffffffffffffffffffffff\n      and\n        /* \"contracts/NFTSwapper.sol\":1625:1631  _swaps */\n      0x01\n        /* \"contracts/NFTSwapper.sol\":1625:1635  _swaps[id] */\n      0x00\n        /* \"contracts/NFTSwapper.sol\":1632:1634  id */\n      dup5\n        /* \"contracts/NFTSwapper.sol\":1625:1635  _swaps[id] */\n      dup2\n      mstore\n      0x20\n      add\n      swap1\n      dup2\n      mstore\n      0x20\n      add\n      0x00\n      keccak256\n        /* \"contracts/NFTSwapper.sol\":1625:1642  _swaps[id].Bidder */\n      0x01\n      add\n      0x01\n      swap1\n      sload\n      swap1\n      0x0100\n      exp\n      swap1\n      div\n      0xffffffffffffffffffffffffffffffffffffffff\n      and\n        /* \"contracts/NFTSwapper.sol\":1625:1655  _swaps[id].Bidder == applicant */\n      0xffffffffffffffffffffffffffffffffffffffff\n      and\n      eq\n        /* \"contracts/NFTSwapper.sol\":1617:1686  require(_swaps[id].Bidder == applicant, \"NFTSwapper: not the bidder\") */\n      tag_266\n      jumpi\n      mload(0x40)\n      0x08c379a000000000000000000000000000000000000000000000000000000000\n      dup2\n      mstore\n      0x04\n      add\n      tag_267\n      swap1\n      tag_188\n      jump\t// in\n    tag_267:\n      mload(0x40)\n      dup1\n      swap2\n      sub\n      swap1\n      revert\n    tag_266:\n        /* \"contracts/NFTSwapper.sol\":4373:4392  SwapState.Cancelled */\n      0x01\n        /* \"contracts/NFTSwapper.sol\":4353:4392  _swaps[id].State == SwapState.Cancelled */\n      0x02\n      dup2\n      gt\n      iszero\n      tag_269\n      jumpi\n      tag_270\n      tag_192\n      jump\t// in\n    tag_270:\n    tag_269:\n        /* \"contracts/NFTSwapper.sol\":4353:4359  _swaps */\n      0x01\n        /* \"contracts/NFTSwapper.sol\":4353:4363  _swaps[id] */\n      0x00\n        /* \"contracts/NFTSwapper.sol\":4360:4362  id */\n      dup7\n        /* \"contracts/NFTSwapper.sol\":4353:4363  _swaps[id] */\n      dup2\n      mstore\n      0x20\n      add\n      swap1\n      dup2\n      mstore\n      0x20\n      add\n      0x00\n      keccak256\n        /* \"contracts/NFTSwapper.sol\":4353:4369  _swaps[id].State */\n      0x01\n      add\n      0x00\n      swap1\n      sload\n      swap1\n      0x0100\n      exp\n      swap1\n      div\n      0xff\n      and\n        /* \"contracts/NFTSwapper.sol\":4353:4392  _swaps[id].State == SwapState.Cancelled */\n      0x02\n      dup2\n      gt\n      iszero\n      tag_271\n      jumpi\n      tag_272\n      tag_192\n      jump\t// in\n    tag_272:\n    tag_271:\n      eq\n        /* \"contracts/NFTSwapper.sol\":4345:4440  require(_swaps[id].State == SwapState.Cancelled, \"NFTSwapper: uncancel: swap is not cancelled\") */\n      tag_273\n      jumpi\n      mload(0x40)\n      0x08c379a000000000000000000000000000000000000000000000000000000000\n      dup2\n      mstore\n      0x04\n      add\n      tag_274\n      swap1\n      tag_275\n      jump\t// in\n    tag_274:\n      mload(0x40)\n      dup1\n      swap2\n      sub\n      swap1\n      revert\n    tag_273:\n        /* \"contracts/NFTSwapper.sol\":4470:4487  SwapState.Pending */\n      0x00\n        /* \"contracts/NFTSwapper.sol\":4451:4457  _swaps */\n      0x01\n        /* \"contracts/NFTSwapper.sol\":4451:4461  _swaps[id] */\n      0x00\n        /* \"contracts/NFTSwapper.sol\":4458:4460  id */\n      dup7\n        /* \"contracts/NFTSwapper.sol\":4451:4461  _swaps[id] */\n      dup2\n      mstore\n      0x20\n      add\n      swap1\n      dup2\n      mstore\n      0x20\n      add\n      0x00\n      keccak256\n        /* \"contracts/NFTSwapper.sol\":4451:4467  _swaps[id].State */\n      0x01\n      add\n      0x00\n        /* \"contracts/NFTSwapper.sol\":4451:4487  _swaps[id].State = SwapState.Pending */\n      0x0100\n      exp\n      dup2\n      sload\n      dup2\n      0xff\n      mul\n      not\n      and\n      swap1\n      dup4\n      0x02\n      dup2\n      gt\n      iszero\n      tag_276\n      jumpi\n      tag_277\n      tag_192\n      jump\t// in\n    tag_277:\n    tag_276:\n      mul\n      or\n      swap1\n      sstore\n      pop\n        /* \"contracts/NFTSwapper.sol\":4525:4542  SwapState.Pending */\n      0x00\n        /* \"contracts/NFTSwapper.sol\":4504:4543  SwapStateChanged(id, SwapState.Pending) */\n      0x02\n      dup2\n      gt\n      iszero\n      tag_278\n      jumpi\n      tag_279\n      tag_192\n      jump\t// in\n    tag_279:\n    tag_278:\n        /* \"contracts/NFTSwapper.sol\":4521:4523  id */\n      dup5\n        /* \"contracts/NFTSwapper.sol\":4504:4543  SwapStateChanged(id, SwapState.Pending) */\n      0x15211d78a502c0edd03f8cefb0ba09c0bcdb3045a82c5d05dbdfff58efc82f03\n      mload(0x40)\n      mload(0x40)\n      dup1\n      swap2\n      sub\n      swap1\n      log3\n        /* \"contracts/NFTSwapper.sol\":1541:1542  _ */\n      pop\n      pop\n        /* \"contracts/NFTSwapper.sol\":4202:4551  function uncancel(uint256 id) public... */\n      pop\n      pop\n      jump\t// out\n        /* \"@openzeppelin/contracts/access/Ownable.sol\":1831:1932  function renounceOwnership() public virtual onlyOwner {... */\n    tag_85:\n        /* \"@openzeppelin/contracts/access/Ownable.sol\":1094:1107  _checkOwner() */\n      tag_281\n        /* \"@openzeppelin/contracts/access/Ownable.sol\":1094:1105  _checkOwner */\n      tag_149\n        /* \"@openzeppelin/contracts/access/Ownable.sol\":1094:1107  _checkOwner() */\n      jump\t// in\n    tag_281:\n        /* \"@openzeppelin/contracts/access/Ownable.sol\":1895:1925  _transferOwnership(address(0)) */\n      tag_283\n        /* \"@openzeppelin/contracts/access/Ownable.sol\":1922:1923  0 */\n      0x00\n        /* \"@openzeppelin/contracts/access/Ownable.sol\":1895:1913  _transferOwnership */\n      tag_284\n        /* \"@openzeppelin/contracts/access/Ownable.sol\":1895:1925  _transferOwnership(address(0)) */\n      jump\t// in\n    tag_283:\n        /* \"@openzeppelin/contracts/access/Ownable.sol\":1831:1932  function renounceOwnership() public virtual onlyOwner {... */\n      jump\t// out\n        /* \"contracts/NFTSwapper.sol\":5975:7320  function setApprovedTendered(uint256 id, address applicant, bool approved) public... */\n    tag_90:\n        /* \"contracts/NFTSwapper.sol\":6099:6101  id */\n      dup3\n        /* \"contracts/NFTSwapper.sol\":1495:1496  0 */\n      0x00\n        /* \"contracts/NFTSwapper.sol\":1479:1485  _swaps */\n      0x01\n        /* \"contracts/NFTSwapper.sol\":1479:1489  _swaps[id] */\n      0x00\n        /* \"contracts/NFTSwapper.sol\":1486:1488  id */\n      dup4\n        /* \"contracts/NFTSwapper.sol\":1479:1489  _swaps[id] */\n      dup2\n      mstore\n      0x20\n      add\n      swap1\n      dup2\n      mstore\n      0x20\n      add\n      0x00\n      keccak256\n        /* \"contracts/NFTSwapper.sol\":1479:1492  _swaps[id].Id */\n      0x00\n      add\n      sload\n        /* \"contracts/NFTSwapper.sol\":1479:1496  _swaps[id].Id > 0 */\n      gt\n        /* \"contracts/NFTSwapper.sol\":1471:1530  require(_swaps[id].Id > 0, \"NFTSwapper: id does not exist\") */\n      tag_286\n      jumpi\n      mload(0x40)\n      0x08c379a000000000000000000000000000000000000000000000000000000000\n      dup2\n      mstore\n      0x04\n      add\n      tag_287\n      swap1\n      tag_183\n      jump\t// in\n    tag_287:\n      mload(0x40)\n      dup1\n      swap2\n      sub\n      swap1\n      revert\n    tag_286:\n        /* \"contracts/NFTSwapper.sol\":6143:6145  id */\n      dup4\n        /* \"contracts/NFTSwapper.sol\":6147:6159  _msgSender() */\n      tag_288\n        /* \"contracts/NFTSwapper.sol\":6147:6157  _msgSender */\n      tag_156\n        /* \"contracts/NFTSwapper.sol\":6147:6159  _msgSender() */\n      jump\t// in\n    tag_288:\n        /* \"contracts/NFTSwapper.sol\":1646:1655  applicant */\n      dup1\n        /* \"contracts/NFTSwapper.sol\":1625:1655  _swaps[id].Bidder == applicant */\n      0xffffffffffffffffffffffffffffffffffffffff\n      and\n        /* \"contracts/NFTSwapper.sol\":1625:1631  _swaps */\n      0x01\n        /* \"contracts/NFTSwapper.sol\":1625:1635  _swaps[id] */\n      0x00\n        /* \"contracts/NFTSwapper.sol\":1632:1634  id */\n      dup5\n        /* \"contracts/NFTSwapper.sol\":1625:1635  _swaps[id] */\n      dup2\n      mstore\n      0x20\n      add\n      swap1\n      dup2\n      mstore\n      0x20\n      add\n      0x00\n      keccak256\n        /* \"contracts/NFTSwapper.sol\":1625:1642  _swaps[id].Bidder */\n      0x01\n      add\n      0x01\n      swap1\n      sload\n      swap1\n      0x0100\n      exp\n      swap1\n      div\n      0xffffffffffffffffffffffffffffffffffffffff\n      and\n        /* \"contracts/NFTSwapper.sol\":1625:1655  _swaps[id].Bidder == applicant */\n      0xffffffffffffffffffffffffffffffffffffffff\n      and\n      eq\n        /* \"contracts/NFTSwapper.sol\":1617:1686  require(_swaps[id].Bidder == applicant, \"NFTSwapper: not the bidder\") */\n      tag_290\n      jumpi\n      mload(0x40)\n      0x08c379a000000000000000000000000000000000000000000000000000000000\n      dup2\n      mstore\n      0x04\n      add\n      tag_291\n      swap1\n      tag_188\n      jump\t// in\n    tag_291:\n      mload(0x40)\n      dup1\n      swap2\n      sub\n      swap1\n      revert\n    tag_290:\n        /* \"contracts/NFTSwapper.sol\":6177:6203  address[] storage tendered */\n      0x00\n        /* \"contracts/NFTSwapper.sol\":6206:6212  _swaps */\n      0x01\n        /* \"contracts/NFTSwapper.sol\":6206:6216  _swaps[id] */\n      0x00\n        /* \"contracts/NFTSwapper.sol\":6213:6215  id */\n      dup9\n        /* \"contracts/NFTSwapper.sol\":6206:6216  _swaps[id] */\n      dup2\n      mstore\n      0x20\n      add\n      swap1\n      dup2\n      mstore\n      0x20\n      add\n      0x00\n      keccak256\n        /* \"contracts/NFTSwapper.sol\":6206:6225  _swaps[id].Tendered */\n      0x03\n      add\n        /* \"contracts/NFTSwapper.sol\":6177:6225  address[] storage tendered = _swaps[id].Tendered */\n      swap1\n      pop\n        /* \"contracts/NFTSwapper.sol\":6239:6247  approved */\n      dup5\n        /* \"contracts/NFTSwapper.sol\":6236:7311  if(approved){... */\n      iszero\n      tag_293\n      jumpi\n        /* \"contracts/NFTSwapper.sol\":6267:6276  uint256 i */\n      0x00\n        /* \"contracts/NFTSwapper.sol\":6263:6414  for(uint256 i=0; i<tendered.length; i++){... */\n    tag_294:\n        /* \"contracts/NFTSwapper.sol\":6282:6290  tendered */\n      dup2\n        /* \"contracts/NFTSwapper.sol\":6282:6297  tendered.length */\n      dup1\n      sload\n      swap1\n      pop\n        /* \"contracts/NFTSwapper.sol\":6280:6281  i */\n      dup2\n        /* \"contracts/NFTSwapper.sol\":6280:6297  i<tendered.length */\n      lt\n        /* \"contracts/NFTSwapper.sol\":6263:6414  for(uint256 i=0; i<tendered.length; i++){... */\n      iszero\n      tag_295\n      jumpi\n        /* \"contracts/NFTSwapper.sol\":6340:6349  applicant */\n      dup7\n        /* \"contracts/NFTSwapper.sol\":6325:6349  tendered[i] == applicant */\n      0xffffffffffffffffffffffffffffffffffffffff\n      and\n        /* \"contracts/NFTSwapper.sol\":6325:6333  tendered */\n      dup3\n        /* \"contracts/NFTSwapper.sol\":6334:6335  i */\n      dup3\n        /* \"contracts/NFTSwapper.sol\":6325:6336  tendered[i] */\n      dup2\n      sload\n      dup2\n      lt\n      tag_297\n      jumpi\n      tag_298\n      tag_169\n      jump\t// in\n    tag_298:\n    tag_297:\n      swap1\n      0x00\n      mstore\n      keccak256(0x00, 0x20)\n      add\n      0x00\n      swap1\n      sload\n      swap1\n      0x0100\n      exp\n      swap1\n      div\n      0xffffffffffffffffffffffffffffffffffffffff\n      and\n        /* \"contracts/NFTSwapper.sol\":6325:6349  tendered[i] == applicant */\n      0xffffffffffffffffffffffffffffffffffffffff\n      and\n      eq\n        /* \"contracts/NFTSwapper.sol\":6322:6399  if(tendered[i] == applicant){... */\n      iszero\n      tag_300\n      jumpi\n        /* \"contracts/NFTSwapper.sol\":6373:6380  return; */\n      pop\n      pop\n      jump(tag_292)\n        /* \"contracts/NFTSwapper.sol\":6322:6399  if(tendered[i] == applicant){... */\n    tag_300:\n        /* \"contracts/NFTSwapper.sol\":6299:6302  i++ */\n      dup1\n      dup1\n      tag_301\n      swap1\n      tag_178\n      jump\t// in\n    tag_301:\n      swap2\n      pop\n      pop\n        /* \"contracts/NFTSwapper.sol\":6263:6414  for(uint256 i=0; i<tendered.length; i++){... */\n      jump(tag_294)\n    tag_295:\n      pop\n        /* \"contracts/NFTSwapper.sol\":6428:6436  tendered */\n      dup1\n        /* \"contracts/NFTSwapper.sol\":6442:6451  applicant */\n      dup7\n        /* \"contracts/NFTSwapper.sol\":6428:6452  tendered.push(applicant) */\n      swap1\n      dup1\n      0x01\n      dup2\n      sload\n      add\n      dup1\n      dup3\n      sstore\n      dup1\n      swap2\n      pop\n      pop\n      0x01\n      swap1\n      sub\n      swap1\n      0x00\n      mstore\n      keccak256(0x00, 0x20)\n      add\n      0x00\n      swap1\n      swap2\n      swap1\n      swap2\n      swap1\n      swap2\n      0x0100\n      exp\n      dup2\n      sload\n      dup2\n      0xffffffffffffffffffffffffffffffffffffffff\n      mul\n      not\n      and\n      swap1\n      dup4\n      0xffffffffffffffffffffffffffffffffffffffff\n      and\n      mul\n      or\n      swap1\n      sstore\n      pop\n        /* \"contracts/NFTSwapper.sol\":6467:6480  _participants */\n      0x02\n        /* \"contracts/NFTSwapper.sol\":6467:6491  _participants[applicant] */\n      0x00\n        /* \"contracts/NFTSwapper.sol\":6481:6490  applicant */\n      dup8\n        /* \"contracts/NFTSwapper.sol\":6467:6491  _participants[applicant] */\n      0xffffffffffffffffffffffffffffffffffffffff\n      and\n      0xffffffffffffffffffffffffffffffffffffffff\n      and\n      dup2\n      mstore\n      0x20\n      add\n      swap1\n      dup2\n      mstore\n      0x20\n      add\n      0x00\n      keccak256\n        /* \"contracts/NFTSwapper.sol\":6497:6499  id */\n      dup8\n        /* \"contracts/NFTSwapper.sol\":6467:6500  _participants[applicant].push(id) */\n      swap1\n      dup1\n      0x01\n      dup2\n      sload\n      add\n      dup1\n      dup3\n      sstore\n      dup1\n      swap2\n      pop\n      pop\n      0x01\n      swap1\n      sub\n      swap1\n      0x00\n      mstore\n      keccak256(0x00, 0x20)\n      add\n      0x00\n      swap1\n      swap2\n      swap1\n      swap2\n      swap1\n      swap2\n      pop\n      sstore\n        /* \"contracts/NFTSwapper.sol\":6236:7311  if(approved){... */\n      jump(tag_304)\n    tag_293:\n        /* \"contracts/NFTSwapper.sol\":6535:6544  uint256 i */\n      0x00\n        /* \"contracts/NFTSwapper.sol\":6531:7300  for(uint256 i=0; i<tendered.length; i++){... */\n    tag_305:\n        /* \"contracts/NFTSwapper.sol\":6550:6558  tendered */\n      dup2\n        /* \"contracts/NFTSwapper.sol\":6550:6565  tendered.length */\n      dup1\n      sload\n      swap1\n      pop\n        /* \"contracts/NFTSwapper.sol\":6548:6549  i */\n      dup2\n        /* \"contracts/NFTSwapper.sol\":6548:6565  i<tendered.length */\n      lt\n        /* \"contracts/NFTSwapper.sol\":6531:7300  for(uint256 i=0; i<tendered.length; i++){... */\n      iszero\n      tag_306\n      jumpi\n        /* \"contracts/NFTSwapper.sol\":6608:6617  applicant */\n      dup7\n        /* \"contracts/NFTSwapper.sol\":6593:6617  tendered[i] == applicant */\n      0xffffffffffffffffffffffffffffffffffffffff\n      and\n        /* \"contracts/NFTSwapper.sol\":6593:6601  tendered */\n      dup3\n        /* \"contracts/NFTSwapper.sol\":6602:6603  i */\n      dup3\n        /* \"contracts/NFTSwapper.sol\":6593:6604  tendered[i] */\n      dup2\n      sload\n      dup2\n      lt\n      tag_308\n      jumpi\n      tag_309\n      tag_169\n      jump\t// in\n    tag_309:\n    tag_308:\n      swap1\n      0x00\n      mstore\n      keccak256(0x00, 0x20)\n      add\n      0x00\n      swap1\n      sload\n      swap1\n      0x0100\n      exp\n      swap1\n      div\n      0xffffffffffffffffffffffffffffffffffffffff\n      and\n        /* \"contracts/NFTSwapper.sol\":6593:6617  tendered[i] == applicant */\n      0xffffffffffffffffffffffffffffffffffffffff\n      and\n      eq\n        /* \"contracts/NFTSwapper.sol\":6590:7285  if(tendered[i] == applicant){... */\n      iszero\n      tag_311\n      jumpi\n        /* \"contracts/NFTSwapper.sol\":6648:6656  tendered */\n      dup2\n        /* \"contracts/NFTSwapper.sol\":6657:6658  i */\n      dup2\n        /* \"contracts/NFTSwapper.sol\":6648:6659  tendered[i] */\n      dup2\n      sload\n      dup2\n      lt\n      tag_312\n      jumpi\n      tag_313\n      tag_169\n      jump\t// in\n    tag_313:\n    tag_312:\n      swap1\n      0x00\n      mstore\n      keccak256(0x00, 0x20)\n      add\n      0x00\n        /* \"contracts/NFTSwapper.sol\":6641:6659  delete tendered[i] */\n      0x0100\n      exp\n      dup2\n      sload\n      swap1\n      0xffffffffffffffffffffffffffffffffffffffff\n      mul\n      not\n      and\n      swap1\n      sstore\n        /* \"contracts/NFTSwapper.sol\":6682:6690  tendered */\n      dup2\n        /* \"contracts/NFTSwapper.sol\":6682:6696  tendered.pop() */\n      dup1\n      sload\n      dup1\n      tag_315\n      jumpi\n      tag_316\n      tag_258\n      jump\t// in\n    tag_316:\n    tag_315:\n      0x01\n      swap1\n      sub\n      dup2\n      dup2\n      swap1\n      0x00\n      mstore\n      keccak256(0x00, 0x20)\n      add\n      exp(0x0100, 0x00)\n      dup2\n      sload\n      swap1\n      0xffffffffffffffffffffffffffffffffffffffff\n      mul\n      not\n      and\n      swap1\n      sstore\n      swap1\n      sstore\n        /* \"contracts/NFTSwapper.sol\":6723:6732  uint256 j */\n      0x00\n        /* \"contracts/NFTSwapper.sol\":6719:7053  for(uint256 j=0; j<_participants[applicant].length; j++){... */\n    tag_318:\n        /* \"contracts/NFTSwapper.sol\":6738:6751  _participants */\n      0x02\n        /* \"contracts/NFTSwapper.sol\":6738:6762  _participants[applicant] */\n      0x00\n        /* \"contracts/NFTSwapper.sol\":6752:6761  applicant */\n      dup10\n        /* \"contracts/NFTSwapper.sol\":6738:6762  _participants[applicant] */\n      0xffffffffffffffffffffffffffffffffffffffff\n      and\n      0xffffffffffffffffffffffffffffffffffffffff\n      and\n      dup2\n      mstore\n      0x20\n      add\n      swap1\n      dup2\n      mstore\n      0x20\n      add\n      0x00\n      keccak256\n        /* \"contracts/NFTSwapper.sol\":6738:6769  _participants[applicant].length */\n      dup1\n      sload\n      swap1\n      pop\n        /* \"contracts/NFTSwapper.sol\":6736:6737  j */\n      dup2\n        /* \"contracts/NFTSwapper.sol\":6736:6769  j<_participants[applicant].length */\n      lt\n        /* \"contracts/NFTSwapper.sol\":6719:7053  for(uint256 j=0; j<_participants[applicant].length; j++){... */\n      iszero\n      tag_319\n      jumpi\n        /* \"contracts/NFTSwapper.sol\":6836:6838  id */\n      dup9\n        /* \"contracts/NFTSwapper.sol\":6805:6818  _participants */\n      0x02\n        /* \"contracts/NFTSwapper.sol\":6805:6829  _participants[applicant] */\n      0x00\n        /* \"contracts/NFTSwapper.sol\":6819:6828  applicant */\n      dup11\n        /* \"contracts/NFTSwapper.sol\":6805:6829  _participants[applicant] */\n      0xffffffffffffffffffffffffffffffffffffffff\n      and\n      0xffffffffffffffffffffffffffffffffffffffff\n      and\n      dup2\n      mstore\n      0x20\n      add\n      swap1\n      dup2\n      mstore\n      0x20\n      add\n      0x00\n      keccak256\n        /* \"contracts/NFTSwapper.sol\":6830:6831  j */\n      dup3\n        /* \"contracts/NFTSwapper.sol\":6805:6832  _participants[applicant][j] */\n      dup2\n      sload\n      dup2\n      lt\n      tag_321\n      jumpi\n      tag_322\n      tag_169\n      jump\t// in\n    tag_322:\n    tag_321:\n      swap1\n      0x00\n      mstore\n      keccak256(0x00, 0x20)\n      add\n      sload\n        /* \"contracts/NFTSwapper.sol\":6805:6838  _participants[applicant][j] == id */\n      eq\n        /* \"contracts/NFTSwapper.sol\":6802:7029  if(_participants[applicant][j] == id){... */\n      iszero\n      tag_324\n      jumpi\n        /* \"contracts/NFTSwapper.sol\":6877:6890  _participants */\n      0x02\n        /* \"contracts/NFTSwapper.sol\":6877:6901  _participants[applicant] */\n      0x00\n        /* \"contracts/NFTSwapper.sol\":6891:6900  applicant */\n      dup10\n        /* \"contracts/NFTSwapper.sol\":6877:6901  _participants[applicant] */\n      0xffffffffffffffffffffffffffffffffffffffff\n      and\n      0xffffffffffffffffffffffffffffffffffffffff\n      and\n      dup2\n      mstore\n      0x20\n      add\n      swap1\n      dup2\n      mstore\n      0x20\n      add\n      0x00\n      keccak256\n        /* \"contracts/NFTSwapper.sol\":6902:6903  j */\n      dup2\n        /* \"contracts/NFTSwapper.sol\":6877:6904  _participants[applicant][j] */\n      dup2\n      sload\n      dup2\n      lt\n      tag_325\n      jumpi\n      tag_326\n      tag_169\n      jump\t// in\n    tag_326:\n    tag_325:\n      swap1\n      0x00\n      mstore\n      keccak256(0x00, 0x20)\n      add\n        /* \"contracts/NFTSwapper.sol\":6870:6904  delete _participants[applicant][j] */\n      0x00\n      swap1\n      sstore\n        /* \"contracts/NFTSwapper.sol\":6935:6948  _participants */\n      0x02\n        /* \"contracts/NFTSwapper.sol\":6935:6959  _participants[applicant] */\n      0x00\n        /* \"contracts/NFTSwapper.sol\":6949:6958  applicant */\n      dup10\n        /* \"contracts/NFTSwapper.sol\":6935:6959  _participants[applicant] */\n      0xffffffffffffffffffffffffffffffffffffffff\n      and\n      0xffffffffffffffffffffffffffffffffffffffff\n      and\n      dup2\n      mstore\n      0x20\n      add\n      swap1\n      dup2\n      mstore\n      0x20\n      add\n      0x00\n      keccak256\n        /* \"contracts/NFTSwapper.sol\":6935:6965  _participants[applicant].pop() */\n      dup1\n      sload\n      dup1\n      tag_328\n      jumpi\n      tag_329\n      tag_258\n      jump\t// in\n    tag_329:\n    tag_328:\n      0x01\n      swap1\n      sub\n      dup2\n      dup2\n      swap1\n      0x00\n      mstore\n      keccak256(0x00, 0x20)\n      add\n      0x00\n      swap1\n      sstore\n      swap1\n      sstore\n        /* \"contracts/NFTSwapper.sol\":6996:7001  break */\n      jump(tag_319)\n        /* \"contracts/NFTSwapper.sol\":6802:7029  if(_participants[applicant][j] == id){... */\n    tag_324:\n        /* \"contracts/NFTSwapper.sol\":6771:6774  j++ */\n      dup1\n      dup1\n      tag_331\n      swap1\n      tag_178\n      jump\t// in\n    tag_331:\n      swap2\n      pop\n      pop\n        /* \"contracts/NFTSwapper.sol\":6719:7053  for(uint256 j=0; j<_participants[applicant].length; j++){... */\n      jump(tag_318)\n    tag_319:\n      pop\n        /* \"contracts/NFTSwapper.sol\":7097:7098  0 */\n      0x00\n        /* \"contracts/NFTSwapper.sol\":7078:7086  tendered */\n      dup3\n        /* \"contracts/NFTSwapper.sol\":7078:7093  tendered.length */\n      dup1\n      sload\n      swap1\n      pop\n        /* \"contracts/NFTSwapper.sol\":7078:7098  tendered.length == 0 */\n      eq\n        /* \"contracts/NFTSwapper.sol\":7075:7237  if(tendered.length == 0){ ... */\n      iszero\n      tag_332\n      jumpi\n        /* \"contracts/NFTSwapper.sol\":7127:7135  tendered */\n      dup2\n        /* \"contracts/NFTSwapper.sol\":7149:7150  0 */\n      0x00\n        /* \"contracts/NFTSwapper.sol\":7127:7152  tendered.push(address(0)) */\n      swap1\n      dup1\n      0x01\n      dup2\n      sload\n      add\n      dup1\n      dup3\n      sstore\n      dup1\n      swap2\n      pop\n      pop\n      0x01\n      swap1\n      sub\n      swap1\n      0x00\n      mstore\n      keccak256(0x00, 0x20)\n      add\n      0x00\n      swap1\n      swap2\n      swap1\n      swap2\n      swap1\n      swap2\n      0x0100\n      exp\n      dup2\n      sload\n      dup2\n      0xffffffffffffffffffffffffffffffffffffffff\n      mul\n      not\n      and\n      swap1\n      dup4\n      0xffffffffffffffffffffffffffffffffffffffff\n      and\n      mul\n      or\n      swap1\n      sstore\n      pop\n        /* \"contracts/NFTSwapper.sol\":7179:7192  _participants */\n      0x02\n        /* \"contracts/NFTSwapper.sol\":7179:7204  _participants[address(0)] */\n      0x00\n        /* \"contracts/NFTSwapper.sol\":7201:7202  0 */\n      dup1\n        /* \"contracts/NFTSwapper.sol\":7179:7204  _participants[address(0)] */\n      0xffffffffffffffffffffffffffffffffffffffff\n      and\n      0xffffffffffffffffffffffffffffffffffffffff\n      and\n      dup2\n      mstore\n      0x20\n      add\n      swap1\n      dup2\n      mstore\n      0x20\n      add\n      0x00\n      keccak256\n        /* \"contracts/NFTSwapper.sol\":7210:7212  id */\n      dup9\n        /* \"contracts/NFTSwapper.sol\":7179:7213  _participants[address(0)].push(id) */\n      swap1\n      dup1\n      0x01\n      dup2\n      sload\n      add\n      dup1\n      dup3\n      sstore\n      dup1\n      swap2\n      pop\n      pop\n      0x01\n      swap1\n      sub\n      swap1\n      0x00\n      mstore\n      keccak256(0x00, 0x20)\n      add\n      0x00\n      swap1\n      swap2\n      swap1\n      swap2\n      swap1\n      swap2\n      pop\n      sstore\n        /* \"contracts/NFTSwapper.sol\":7075:7237  if(tendered.length == 0){ ... */\n    tag_332:\n        /* \"contracts/NFTSwapper.sol\":7259:7266  return; */\n      pop\n      pop\n      jump(tag_292)\n        /* \"contracts/NFTSwapper.sol\":6590:7285  if(tendered[i] == applicant){... */\n    tag_311:\n        /* \"contracts/NFTSwapper.sol\":6567:6570  i++ */\n      dup1\n      dup1\n      tag_335\n      swap1\n      tag_178\n      jump\t// in\n    tag_335:\n      swap2\n      pop\n      pop\n        /* \"contracts/NFTSwapper.sol\":6531:7300  for(uint256 i=0; i<tendered.length; i++){... */\n      jump(tag_305)\n    tag_306:\n      pop\n        /* \"contracts/NFTSwapper.sol\":6236:7311  if(approved){... */\n    tag_304:\n        /* \"contracts/NFTSwapper.sol\":6166:7320  {... */\n      pop\n        /* \"contracts/NFTSwapper.sol\":1697:1698  _ */\n    tag_292:\n        /* \"contracts/NFTSwapper.sol\":1541:1542  _ */\n      pop\n      pop\n        /* \"contracts/NFTSwapper.sol\":5975:7320  function setApprovedTendered(uint256 id, address applicant, bool approved) public... */\n      pop\n      pop\n      pop\n      pop\n      jump\t// out\n        /* \"@openzeppelin/contracts/access/Ownable.sol\":1201:1286  function owner() public view virtual returns (address) {... */\n    tag_93:\n        /* \"@openzeppelin/contracts/access/Ownable.sol\":1247:1254  address */\n      0x00\n        /* \"@openzeppelin/contracts/access/Ownable.sol\":1273:1279  _owner */\n      dup1\n      0x00\n      swap1\n      sload\n      swap1\n      0x0100\n      exp\n      swap1\n      div\n      0xffffffffffffffffffffffffffffffffffffffff\n      and\n        /* \"@openzeppelin/contracts/access/Ownable.sol\":1266:1279  return _owner */\n      swap1\n      pop\n        /* \"@openzeppelin/contracts/access/Ownable.sol\":1201:1286  function owner() public view virtual returns (address) {... */\n      swap1\n      jump\t// out\n        /* \"contracts/NFTSwapper.sol\":10791:10889  function setRegisterFee(uint256 fee) public onlyOwner()... */\n    tag_99:\n        /* \"@openzeppelin/contracts/access/Ownable.sol\":1094:1107  _checkOwner() */\n      tag_338\n        /* \"@openzeppelin/contracts/access/Ownable.sol\":1094:1105  _checkOwner */\n      tag_149\n        /* \"@openzeppelin/contracts/access/Ownable.sol\":1094:1107  _checkOwner() */\n      jump\t// in\n    tag_338:\n        /* \"contracts/NFTSwapper.sol\":10878:10881  fee */\n      dup1\n        /* \"contracts/NFTSwapper.sol\":10863:10875  _registerFee */\n      0x06\n        /* \"contracts/NFTSwapper.sol\":10863:10881  _registerFee = fee */\n      dup2\n      swap1\n      sstore\n      pop\n        /* \"contracts/NFTSwapper.sol\":10791:10889  function setRegisterFee(uint256 fee) public onlyOwner()... */\n      pop\n      jump\t// out\n        /* \"contracts/NFTSwapper.sol\":4559:5967  function swap(uint256 id) public payable... */\n    tag_102:\n        /* \"contracts/NFTSwapper.sol\":4634:4636  id */\n      dup1\n        /* \"contracts/NFTSwapper.sol\":1495:1496  0 */\n      0x00\n        /* \"contracts/NFTSwapper.sol\":1479:1485  _swaps */\n      0x01\n        /* \"contracts/NFTSwapper.sol\":1479:1489  _swaps[id] */\n      0x00\n        /* \"contracts/NFTSwapper.sol\":1486:1488  id */\n      dup4\n        /* \"contracts/NFTSwapper.sol\":1479:1489  _swaps[id] */\n      dup2\n      mstore\n      0x20\n      add\n      swap1\n      dup2\n      mstore\n      0x20\n      add\n      0x00\n      keccak256\n        /* \"contracts/NFTSwapper.sol\":1479:1492  _swaps[id].Id */\n      0x00\n      add\n      sload\n        /* \"contracts/NFTSwapper.sol\":1479:1496  _swaps[id].Id > 0 */\n      gt\n        /* \"contracts/NFTSwapper.sol\":1471:1530  require(_swaps[id].Id > 0, \"NFTSwapper: id does not exist\") */\n      tag_341\n      jumpi\n      mload(0x40)\n      0x08c379a000000000000000000000000000000000000000000000000000000000\n      dup2\n      mstore\n      0x04\n      add\n      tag_342\n      swap1\n      tag_183\n      jump\t// in\n    tag_342:\n      mload(0x40)\n      dup1\n      swap2\n      sub\n      swap1\n      revert\n    tag_341:\n        /* \"contracts/NFTSwapper.sol\":4672:4674  id */\n      dup2\n        /* \"contracts/NFTSwapper.sol\":4676:4688  _msgSender() */\n      tag_343\n        /* \"contracts/NFTSwapper.sol\":4676:4686  _msgSender */\n      tag_156\n        /* \"contracts/NFTSwapper.sol\":4676:4688  _msgSender() */\n      jump\t// in\n    tag_343:\n        /* \"contracts/NFTSwapper.sol\":1776:1790  Swap storage s */\n      0x00\n        /* \"contracts/NFTSwapper.sol\":1793:1799  _swaps */\n      0x01\n        /* \"contracts/NFTSwapper.sol\":1793:1803  _swaps[id] */\n      0x00\n        /* \"contracts/NFTSwapper.sol\":1800:1802  id */\n      dup5\n        /* \"contracts/NFTSwapper.sol\":1793:1803  _swaps[id] */\n      dup2\n      mstore\n      0x20\n      add\n      swap1\n      dup2\n      mstore\n      0x20\n      add\n      0x00\n      keccak256\n        /* \"contracts/NFTSwapper.sol\":1776:1803  Swap storage s = _swaps[id] */\n      swap1\n      pop\n        /* \"contracts/NFTSwapper.sol\":1819:1828  uint256 i */\n      0x00\n        /* \"contracts/NFTSwapper.sol\":1815:2005  for(uint256 i=0; i<s.Tendered.length; i++){... */\n    tag_345:\n        /* \"contracts/NFTSwapper.sol\":1834:1835  s */\n      dup2\n        /* \"contracts/NFTSwapper.sol\":1834:1844  s.Tendered */\n      0x03\n      add\n        /* \"contracts/NFTSwapper.sol\":1834:1851  s.Tendered.length */\n      dup1\n      sload\n      swap1\n      pop\n        /* \"contracts/NFTSwapper.sol\":1832:1833  i */\n      dup2\n        /* \"contracts/NFTSwapper.sol\":1832:1851  i<s.Tendered.length */\n      lt\n        /* \"contracts/NFTSwapper.sol\":1815:2005  for(uint256 i=0; i<s.Tendered.length; i++){... */\n      iszero\n      tag_346\n      jumpi\n        /* \"contracts/NFTSwapper.sol\":1900:1901  0 */\n      0x00\n        /* \"contracts/NFTSwapper.sol\":1875:1902  s.Tendered[i] == address(0) */\n      0xffffffffffffffffffffffffffffffffffffffff\n      and\n        /* \"contracts/NFTSwapper.sol\":1875:1876  s */\n      dup3\n        /* \"contracts/NFTSwapper.sol\":1875:1885  s.Tendered */\n      0x03\n      add\n        /* \"contracts/NFTSwapper.sol\":1886:1887  i */\n      dup3\n        /* \"contracts/NFTSwapper.sol\":1875:1888  s.Tendered[i] */\n      dup2\n      sload\n      dup2\n      lt\n      tag_348\n      jumpi\n      tag_349\n      tag_169\n      jump\t// in\n    tag_349:\n    tag_348:\n      swap1\n      0x00\n      mstore\n      keccak256(0x00, 0x20)\n      add\n      0x00\n      swap1\n      sload\n      swap1\n      0x0100\n      exp\n      swap1\n      div\n      0xffffffffffffffffffffffffffffffffffffffff\n      and\n        /* \"contracts/NFTSwapper.sol\":1875:1902  s.Tendered[i] == address(0) */\n      0xffffffffffffffffffffffffffffffffffffffff\n      and\n      eq\n        /* \"contracts/NFTSwapper.sol\":1875:1932  s.Tendered[i] == address(0) || s.Tendered[i] == applicant */\n      dup1\n      tag_351\n      jumpi\n      pop\n        /* \"contracts/NFTSwapper.sol\":1923:1932  applicant */\n      dup3\n        /* \"contracts/NFTSwapper.sol\":1906:1932  s.Tendered[i] == applicant */\n      0xffffffffffffffffffffffffffffffffffffffff\n      and\n        /* \"contracts/NFTSwapper.sol\":1906:1907  s */\n      dup3\n        /* \"contracts/NFTSwapper.sol\":1906:1916  s.Tendered */\n      0x03\n      add\n        /* \"contracts/NFTSwapper.sol\":1917:1918  i */\n      dup3\n        /* \"contracts/NFTSwapper.sol\":1906:1919  s.Tendered[i] */\n      dup2\n      sload\n      dup2\n      lt\n      tag_352\n      jumpi\n      tag_353\n      tag_169\n      jump\t// in\n    tag_353:\n    tag_352:\n      swap1\n      0x00\n      mstore\n      keccak256(0x00, 0x20)\n      add\n      0x00\n      swap1\n      sload\n      swap1\n      0x0100\n      exp\n      swap1\n      div\n      0xffffffffffffffffffffffffffffffffffffffff\n      and\n        /* \"contracts/NFTSwapper.sol\":1906:1932  s.Tendered[i] == applicant */\n      0xffffffffffffffffffffffffffffffffffffffff\n      and\n      eq\n        /* \"contracts/NFTSwapper.sol\":1875:1932  s.Tendered[i] == address(0) || s.Tendered[i] == applicant */\n    tag_351:\n        /* \"contracts/NFTSwapper.sol\":1872:1994  if(s.Tendered[i] == address(0) || s.Tendered[i] == applicant){... */\n      iszero\n      tag_355\n      jumpi\n        /* \"contracts/NFTSwapper.sol\":4724:4726  id */\n      dup6\n        /* \"contracts/NFTSwapper.sol\":2662:2679  SwapState.Pending */\n      0x00\n        /* \"contracts/NFTSwapper.sol\":2642:2679  _swaps[id].State == SwapState.Pending */\n      0x02\n      dup2\n      gt\n      iszero\n      tag_357\n      jumpi\n      tag_358\n      tag_192\n      jump\t// in\n    tag_358:\n    tag_357:\n        /* \"contracts/NFTSwapper.sol\":2642:2648  _swaps */\n      0x01\n        /* \"contracts/NFTSwapper.sol\":2642:2652  _swaps[id] */\n      0x00\n        /* \"contracts/NFTSwapper.sol\":2649:2651  id */\n      dup4\n        /* \"contracts/NFTSwapper.sol\":2642:2652  _swaps[id] */\n      dup2\n      mstore\n      0x20\n      add\n      swap1\n      dup2\n      mstore\n      0x20\n      add\n      0x00\n      keccak256\n        /* \"contracts/NFTSwapper.sol\":2642:2658  _swaps[id].State */\n      0x01\n      add\n      0x00\n      swap1\n      sload\n      swap1\n      0x0100\n      exp\n      swap1\n      div\n      0xff\n      and\n        /* \"contracts/NFTSwapper.sol\":2642:2679  _swaps[id].State == SwapState.Pending */\n      0x02\n      dup2\n      gt\n      iszero\n      tag_359\n      jumpi\n      tag_360\n      tag_192\n      jump\t// in\n    tag_360:\n    tag_359:\n      eq\n        /* \"contracts/NFTSwapper.sol\":2634:2726  require(_swaps[id].State == SwapState.Pending, \"NFTSwapper: swap is completed or cancelled\") */\n      tag_361\n      jumpi\n      mload(0x40)\n      0x08c379a000000000000000000000000000000000000000000000000000000000\n      dup2\n      mstore\n      0x04\n      add\n      tag_362\n      swap1\n      tag_197\n      jump\t// in\n    tag_362:\n      mload(0x40)\n      dup1\n      swap2\n      sub\n      swap1\n      revert\n    tag_361:\n        /* \"contracts/NFTSwapper.sol\":4765:4777  getSwapFee() */\n      tag_364\n        /* \"contracts/NFTSwapper.sol\":4765:4775  getSwapFee */\n      tag_116\n        /* \"contracts/NFTSwapper.sol\":4765:4777  getSwapFee() */\n      jump\t// in\n    tag_364:\n        /* \"contracts/NFTSwapper.sol\":4752:4761  msg.value */\n      callvalue\n        /* \"contracts/NFTSwapper.sol\":4752:4777  msg.value >= getSwapFee() */\n      lt\n      iszero\n        /* \"contracts/NFTSwapper.sol\":4744:4827  require(msg.value >= getSwapFee(), \"NFTSwapper: swap: insufficient value for swap\") */\n      tag_365\n      jumpi\n      mload(0x40)\n      0x08c379a000000000000000000000000000000000000000000000000000000000\n      dup2\n      mstore\n      0x04\n      add\n      tag_366\n      swap1\n      tag_367\n      jump\t// in\n    tag_366:\n      mload(0x40)\n      dup1\n      swap2\n      sub\n      swap1\n      revert\n    tag_365:\n        /* \"contracts/NFTSwapper.sol\":4838:4852  Swap storage s */\n      0x00\n        /* \"contracts/NFTSwapper.sol\":4855:4861  _swaps */\n      0x01\n        /* \"contracts/NFTSwapper.sol\":4855:4865  _swaps[id] */\n      0x00\n        /* \"contracts/NFTSwapper.sol\":4862:4864  id */\n      dup10\n        /* \"contracts/NFTSwapper.sol\":4855:4865  _swaps[id] */\n      dup2\n      mstore\n      0x20\n      add\n      swap1\n      dup2\n      mstore\n      0x20\n      add\n      0x00\n      keccak256\n        /* \"contracts/NFTSwapper.sol\":4838:4865  Swap storage s = _swaps[id] */\n      swap1\n      pop\n        /* \"contracts/NFTSwapper.sol\":4881:4890  uint256 i */\n      0x00\n        /* \"contracts/NFTSwapper.sol\":4877:5359  for(uint256 i=0; i<s.Demand.length; i++){... */\n    tag_368:\n        /* \"contracts/NFTSwapper.sol\":4896:4897  s */\n      dup2\n        /* \"contracts/NFTSwapper.sol\":4896:4904  s.Demand */\n      0x04\n      add\n        /* \"contracts/NFTSwapper.sol\":4896:4911  s.Demand.length */\n      dup1\n      sload\n      swap1\n      pop\n        /* \"contracts/NFTSwapper.sol\":4894:4895  i */\n      dup2\n        /* \"contracts/NFTSwapper.sol\":4894:4911  i<s.Demand.length */\n      lt\n        /* \"contracts/NFTSwapper.sol\":4877:5359  for(uint256 i=0; i<s.Demand.length; i++){... */\n      iszero\n      tag_369\n      jumpi\n        /* \"contracts/NFTSwapper.sol\":4932:4951  Token storage token */\n      0x00\n        /* \"contracts/NFTSwapper.sol\":4954:4955  s */\n      dup3\n        /* \"contracts/NFTSwapper.sol\":4954:4962  s.Demand */\n      0x04\n      add\n        /* \"contracts/NFTSwapper.sol\":4963:4964  i */\n      dup3\n        /* \"contracts/NFTSwapper.sol\":4954:4965  s.Demand[i] */\n      dup2\n      sload\n      dup2\n      lt\n      tag_371\n      jumpi\n      tag_372\n      tag_169\n      jump\t// in\n    tag_372:\n    tag_371:\n      swap1\n      0x00\n      mstore\n      keccak256(0x00, 0x20)\n      swap1\n      0x03\n      mul\n      add\n        /* \"contracts/NFTSwapper.sol\":4932:4965  Token storage token = s.Demand[i] */\n      swap1\n      pop\n        /* \"contracts/NFTSwapper.sol\":4966:4989  ISwapperHandler handler */\n      0x00\n        /* \"contracts/NFTSwapper.sol\":4992:5013  getHandler(token.NFT) */\n      tag_374\n        /* \"contracts/NFTSwapper.sol\":5003:5008  token */\n      dup3\n        /* \"contracts/NFTSwapper.sol\":5003:5012  token.NFT */\n      0x00\n      add\n      0x00\n      swap1\n      sload\n      swap1\n      0x0100\n      exp\n      swap1\n      div\n      0xffffffffffffffffffffffffffffffffffffffff\n      and\n        /* \"contracts/NFTSwapper.sol\":4992:5002  getHandler */\n      tag_111\n        /* \"contracts/NFTSwapper.sol\":4992:5013  getHandler(token.NFT) */\n      jump\t// in\n    tag_374:\n        /* \"contracts/NFTSwapper.sol\":4966:5013  ISwapperHandler handler = getHandler(token.NFT) */\n      swap1\n      pop\n        /* \"contracts/NFTSwapper.sol\":5037:5044  handler */\n      dup1\n        /* \"contracts/NFTSwapper.sol\":5037:5054  handler.isOwnerOf */\n      0xffffffffffffffffffffffffffffffffffffffff\n      and\n      0x03850f3b\n        /* \"contracts/NFTSwapper.sol\":5055:5067  _msgSender() */\n      tag_375\n        /* \"contracts/NFTSwapper.sol\":5055:5065  _msgSender */\n      tag_156\n        /* \"contracts/NFTSwapper.sol\":5055:5067  _msgSender() */\n      jump\t// in\n    tag_375:\n        /* \"contracts/NFTSwapper.sol\":5069:5074  token */\n      dup5\n        /* \"contracts/NFTSwapper.sol\":5069:5078  token.NFT */\n      0x00\n      add\n      0x00\n      swap1\n      sload\n      swap1\n      0x0100\n      exp\n      swap1\n      div\n      0xffffffffffffffffffffffffffffffffffffffff\n      and\n        /* \"contracts/NFTSwapper.sol\":5080:5085  token */\n      dup6\n        /* \"contracts/NFTSwapper.sol\":5080:5093  token.TokenId */\n      0x01\n      add\n      sload\n        /* \"contracts/NFTSwapper.sol\":5095:5100  token */\n      dup7\n        /* \"contracts/NFTSwapper.sol\":5095:5107  token.Amount */\n      0x02\n      add\n      sload\n        /* \"contracts/NFTSwapper.sol\":5037:5108  handler.isOwnerOf(_msgSender(), token.NFT, token.TokenId, token.Amount) */\n      mload(0x40)\n      dup6\n      0xffffffff\n      and\n      0xe0\n      shl\n      dup2\n      mstore\n      0x04\n      add\n      tag_376\n      swap5\n      swap4\n      swap3\n      swap2\n      swap1\n      tag_377\n      jump\t// in\n    tag_376:\n      0x20\n      mload(0x40)\n      dup1\n      dup4\n      sub\n      dup2\n      dup7\n      dup1\n      extcodesize\n      iszero\n      dup1\n      iszero\n      tag_378\n      jumpi\n      0x00\n      dup1\n      revert\n    tag_378:\n      pop\n      gas\n      staticcall\n      iszero\n      dup1\n      iszero\n      tag_380\n      jumpi\n      returndatasize\n      0x00\n      dup1\n      returndatacopy\n      revert(0x00, returndatasize)\n    tag_380:\n      pop\n      pop\n      pop\n      pop\n      mload(0x40)\n      returndatasize\n      not(0x1f)\n      0x1f\n      dup3\n      add\n      and\n      dup3\n      add\n      dup1\n      0x40\n      mstore\n      pop\n      dup2\n      add\n      swap1\n      tag_381\n      swap2\n      swap1\n      tag_382\n      jump\t// in\n    tag_381:\n        /* \"contracts/NFTSwapper.sol\":5029:5171  require(handler.isOwnerOf(_msgSender(), token.NFT, token.TokenId, token.Amount), \"NFTSwapper: swap: sender is not the owner of demanded NFTs\") */\n      tag_383\n      jumpi\n      mload(0x40)\n      0x08c379a000000000000000000000000000000000000000000000000000000000\n      dup2\n      mstore\n      0x04\n      add\n      tag_384\n      swap1\n      tag_385\n      jump\t// in\n    tag_384:\n      mload(0x40)\n      dup1\n      swap2\n      sub\n      swap1\n      revert\n    tag_383:\n        /* \"contracts/NFTSwapper.sol\":5194:5201  handler */\n      dup1\n        /* \"contracts/NFTSwapper.sol\":5194:5219  handler.transferOwnership */\n      0xffffffffffffffffffffffffffffffffffffffff\n      and\n      0xc6bc20b6\n        /* \"contracts/NFTSwapper.sol\":5220:5232  _msgSender() */\n      tag_386\n        /* \"contracts/NFTSwapper.sol\":5220:5230  _msgSender */\n      tag_156\n        /* \"contracts/NFTSwapper.sol\":5220:5232  _msgSender() */\n      jump\t// in\n    tag_386:\n        /* \"contracts/NFTSwapper.sol\":5234:5239  token */\n      dup5\n        /* \"contracts/NFTSwapper.sol\":5234:5243  token.NFT */\n      0x00\n      add\n      0x00\n      swap1\n      sload\n      swap1\n      0x0100\n      exp\n      swap1\n      div\n      0xffffffffffffffffffffffffffffffffffffffff\n      and\n        /* \"contracts/NFTSwapper.sol\":5245:5250  token */\n      dup6\n        /* \"contracts/NFTSwapper.sol\":5245:5258  token.TokenId */\n      0x01\n      add\n      sload\n        /* \"contracts/NFTSwapper.sol\":5260:5265  token */\n      dup7\n        /* \"contracts/NFTSwapper.sol\":5260:5272  token.Amount */\n      0x02\n      add\n      sload\n        /* \"contracts/NFTSwapper.sol\":5274:5275  s */\n      dup10\n        /* \"contracts/NFTSwapper.sol\":5274:5282  s.Bidder */\n      0x01\n      add\n      0x01\n      swap1\n      sload\n      swap1\n      0x0100\n      exp\n      swap1\n      div\n      0xffffffffffffffffffffffffffffffffffffffff\n      and\n        /* \"contracts/NFTSwapper.sol\":5194:5283  handler.transferOwnership(_msgSender(), token.NFT, token.TokenId, token.Amount, s.Bidder) */\n      mload(0x40)\n      dup7\n      0xffffffff\n      and\n      0xe0\n      shl\n      dup2\n      mstore\n      0x04\n      add\n      tag_387\n      swap6\n      swap5\n      swap4\n      swap3\n      swap2\n      swap1\n      tag_388\n      jump\t// in\n    tag_387:\n      0x20\n      mload(0x40)\n      dup1\n      dup4\n      sub\n      dup2\n      0x00\n      dup8\n      dup1\n      extcodesize\n      iszero\n      dup1\n      iszero\n      tag_389\n      jumpi\n      0x00\n      dup1\n      revert\n    tag_389:\n      pop\n      gas\n      call\n      iszero\n      dup1\n      iszero\n      tag_391\n      jumpi\n      returndatasize\n      0x00\n      dup1\n      returndatacopy\n      revert(0x00, returndatasize)\n    tag_391:\n      pop\n      pop\n      pop\n      pop\n      mload(0x40)\n      returndatasize\n      not(0x1f)\n      0x1f\n      dup3\n      add\n      and\n      dup3\n      add\n      dup1\n      0x40\n      mstore\n      pop\n      dup2\n      add\n      swap1\n      tag_392\n      swap2\n      swap1\n      tag_382\n      jump\t// in\n    tag_392:\n        /* \"contracts/NFTSwapper.sol\":5186:5345  require(handler.transferOwnership(_msgSender(), token.NFT, token.TokenId, token.Amount, s.Bidder), \"NFTSwapper: swap: transfer from tendered to bidder failed\") */\n      tag_393\n      jumpi\n      mload(0x40)\n      0x08c379a000000000000000000000000000000000000000000000000000000000\n      dup2\n      mstore\n      0x04\n      add\n      tag_394\n      swap1\n      tag_395\n      jump\t// in\n    tag_394:\n      mload(0x40)\n      dup1\n      swap2\n      sub\n      swap1\n      revert\n    tag_393:\n        /* \"contracts/NFTSwapper.sol\":4917:5359  {... */\n      pop\n      pop\n        /* \"contracts/NFTSwapper.sol\":4913:4916  i++ */\n      dup1\n      dup1\n      tag_396\n      swap1\n      tag_178\n      jump\t// in\n    tag_396:\n      swap2\n      pop\n      pop\n        /* \"contracts/NFTSwapper.sol\":4877:5359  for(uint256 i=0; i<s.Demand.length; i++){... */\n      jump(tag_368)\n    tag_369:\n      pop\n        /* \"contracts/NFTSwapper.sol\":5375:5384  uint256 i */\n      0x00\n        /* \"contracts/NFTSwapper.sol\":5371:5863  for(uint256 i=0; i<s.Offer.length; i++){... */\n    tag_397:\n        /* \"contracts/NFTSwapper.sol\":5390:5391  s */\n      dup2\n        /* \"contracts/NFTSwapper.sol\":5390:5397  s.Offer */\n      0x02\n      add\n        /* \"contracts/NFTSwapper.sol\":5390:5404  s.Offer.length */\n      dup1\n      sload\n      swap1\n      pop\n        /* \"contracts/NFTSwapper.sol\":5388:5389  i */\n      dup2\n        /* \"contracts/NFTSwapper.sol\":5388:5404  i<s.Offer.length */\n      lt\n        /* \"contracts/NFTSwapper.sol\":5371:5863  for(uint256 i=0; i<s.Offer.length; i++){... */\n      iszero\n      tag_398\n      jumpi\n        /* \"contracts/NFTSwapper.sol\":5425:5444  Token storage token */\n      0x00\n        /* \"contracts/NFTSwapper.sol\":5447:5448  s */\n      dup3\n        /* \"contracts/NFTSwapper.sol\":5447:5454  s.Offer */\n      0x02\n      add\n        /* \"contracts/NFTSwapper.sol\":5455:5456  i */\n      dup3\n        /* \"contracts/NFTSwapper.sol\":5447:5457  s.Offer[i] */\n      dup2\n      sload\n      dup2\n      lt\n      tag_400\n      jumpi\n      tag_401\n      tag_169\n      jump\t// in\n    tag_401:\n    tag_400:\n      swap1\n      0x00\n      mstore\n      keccak256(0x00, 0x20)\n      swap1\n      0x03\n      mul\n      add\n        /* \"contracts/NFTSwapper.sol\":5425:5457  Token storage token = s.Offer[i] */\n      swap1\n      pop\n        /* \"contracts/NFTSwapper.sol\":5472:5495  ISwapperHandler handler */\n      0x00\n        /* \"contracts/NFTSwapper.sol\":5498:5519  getHandler(token.NFT) */\n      tag_403\n        /* \"contracts/NFTSwapper.sol\":5509:5514  token */\n      dup3\n        /* \"contracts/NFTSwapper.sol\":5509:5518  token.NFT */\n      0x00\n      add\n      0x00\n      swap1\n      sload\n      swap1\n      0x0100\n      exp\n      swap1\n      div\n      0xffffffffffffffffffffffffffffffffffffffff\n      and\n        /* \"contracts/NFTSwapper.sol\":5498:5508  getHandler */\n      tag_111\n        /* \"contracts/NFTSwapper.sol\":5498:5519  getHandler(token.NFT) */\n      jump\t// in\n    tag_403:\n        /* \"contracts/NFTSwapper.sol\":5472:5519  ISwapperHandler handler = getHandler(token.NFT) */\n      swap1\n      pop\n        /* \"contracts/NFTSwapper.sol\":5543:5550  handler */\n      dup1\n        /* \"contracts/NFTSwapper.sol\":5543:5560  handler.isOwnerOf */\n      0xffffffffffffffffffffffffffffffffffffffff\n      and\n      0x03850f3b\n        /* \"contracts/NFTSwapper.sol\":5561:5562  s */\n      dup6\n        /* \"contracts/NFTSwapper.sol\":5561:5569  s.Bidder */\n      0x01\n      add\n      0x01\n      swap1\n      sload\n      swap1\n      0x0100\n      exp\n      swap1\n      div\n      0xffffffffffffffffffffffffffffffffffffffff\n      and\n        /* \"contracts/NFTSwapper.sol\":5571:5576  token */\n      dup5\n        /* \"contracts/NFTSwapper.sol\":5571:5580  token.NFT */\n      0x00\n      add\n      0x00\n      swap1\n      sload\n      swap1\n      0x0100\n      exp\n      swap1\n      div\n      0xffffffffffffffffffffffffffffffffffffffff\n      and\n        /* \"contracts/NFTSwapper.sol\":5582:5587  token */\n      dup6\n        /* \"contracts/NFTSwapper.sol\":5582:5595  token.TokenId */\n      0x01\n      add\n      sload\n        /* \"contracts/NFTSwapper.sol\":5597:5602  token */\n      dup7\n        /* \"contracts/NFTSwapper.sol\":5597:5609  token.Amount */\n      0x02\n      add\n      sload\n        /* \"contracts/NFTSwapper.sol\":5543:5610  handler.isOwnerOf(s.Bidder, token.NFT, token.TokenId, token.Amount) */\n      mload(0x40)\n      dup6\n      0xffffffff\n      and\n      0xe0\n      shl\n      dup2\n      mstore\n      0x04\n      add\n      tag_404\n      swap5\n      swap4\n      swap3\n      swap2\n      swap1\n      tag_377\n      jump\t// in\n    tag_404:\n      0x20\n      mload(0x40)\n      dup1\n      dup4\n      sub\n      dup2\n      dup7\n      dup1\n      extcodesize\n      iszero\n      dup1\n      iszero\n      tag_405\n      jumpi\n      0x00\n      dup1\n      revert\n    tag_405:\n      pop\n      gas\n      staticcall\n      iszero\n      dup1\n      iszero\n      tag_407\n      jumpi\n      returndatasize\n      0x00\n      dup1\n      returndatacopy\n      revert(0x00, returndatasize)\n    tag_407:\n      pop\n      pop\n      pop\n      pop\n      mload(0x40)\n      returndatasize\n      not(0x1f)\n      0x1f\n      dup3\n      add\n      and\n      dup3\n      add\n      dup1\n      0x40\n      mstore\n      pop\n      dup2\n      add\n      swap1\n      tag_408\n      swap2\n      swap1\n      tag_382\n      jump\t// in\n    tag_408:\n        /* \"contracts/NFTSwapper.sol\":5535:5677  require(handler.isOwnerOf(s.Bidder, token.NFT, token.TokenId, token.Amount), \"NFTSwapper: swap: Swap bidder is not the owner of offered NFTs\") */\n      tag_409\n      jumpi\n      mload(0x40)\n      0x08c379a000000000000000000000000000000000000000000000000000000000\n      dup2\n      mstore\n      0x04\n      add\n      tag_410\n      swap1\n      tag_411\n      jump\t// in\n    tag_410:\n      mload(0x40)\n      dup1\n      swap2\n      sub\n      swap1\n      revert\n    tag_409:\n        /* \"contracts/NFTSwapper.sol\":5700:5707  handler */\n      dup1\n        /* \"contracts/NFTSwapper.sol\":5700:5725  handler.transferOwnership */\n      0xffffffffffffffffffffffffffffffffffffffff\n      and\n      0xc6bc20b6\n        /* \"contracts/NFTSwapper.sol\":5726:5727  s */\n      dup6\n        /* \"contracts/NFTSwapper.sol\":5726:5734  s.Bidder */\n      0x01\n      add\n      0x01\n      swap1\n      sload\n      swap1\n      0x0100\n      exp\n      swap1\n      div\n      0xffffffffffffffffffffffffffffffffffffffff\n      and\n        /* \"contracts/NFTSwapper.sol\":5736:5741  token */\n      dup5\n        /* \"contracts/NFTSwapper.sol\":5736:5745  token.NFT */\n      0x00\n      add\n      0x00\n      swap1\n      sload\n      swap1\n      0x0100\n      exp\n      swap1\n      div\n      0xffffffffffffffffffffffffffffffffffffffff\n      and\n        /* \"contracts/NFTSwapper.sol\":5747:5752  token */\n      dup6\n        /* \"contracts/NFTSwapper.sol\":5747:5760  token.TokenId */\n      0x01\n      add\n      sload\n        /* \"contracts/NFTSwapper.sol\":5762:5767  token */\n      dup7\n        /* \"contracts/NFTSwapper.sol\":5762:5774  token.Amount */\n      0x02\n      add\n      sload\n        /* \"contracts/NFTSwapper.sol\":5776:5788  _msgSender() */\n      tag_412\n        /* \"contracts/NFTSwapper.sol\":5776:5786  _msgSender */\n      tag_156\n        /* \"contracts/NFTSwapper.sol\":5776:5788  _msgSender() */\n      jump\t// in\n    tag_412:\n        /* \"contracts/NFTSwapper.sol\":5700:5789  handler.transferOwnership(s.Bidder, token.NFT, token.TokenId, token.Amount, _msgSender()) */\n      mload(0x40)\n      dup7\n      0xffffffff\n      and\n      0xe0\n      shl\n      dup2\n      mstore\n      0x04\n      add\n      tag_413\n      swap6\n      swap5\n      swap4\n      swap3\n      swap2\n      swap1\n      tag_388\n      jump\t// in\n    tag_413:\n      0x20\n      mload(0x40)\n      dup1\n      dup4\n      sub\n      dup2\n      0x00\n      dup8\n      dup1\n      extcodesize\n      iszero\n      dup1\n      iszero\n      tag_414\n      jumpi\n      0x00\n      dup1\n      revert\n    tag_414:\n      pop\n      gas\n      call\n      iszero\n      dup1\n      iszero\n      tag_416\n      jumpi\n      returndatasize\n      0x00\n      dup1\n      returndatacopy\n      revert(0x00, returndatasize)\n    tag_416:\n      pop\n      pop\n      pop\n      pop\n      mload(0x40)\n      returndatasize\n      not(0x1f)\n      0x1f\n      dup3\n      add\n      and\n      dup3\n      add\n      dup1\n      0x40\n      mstore\n      pop\n      dup2\n      add\n      swap1\n      tag_417\n      swap2\n      swap1\n      tag_382\n      jump\t// in\n    tag_417:\n        /* \"contracts/NFTSwapper.sol\":5692:5851  require(handler.transferOwnership(s.Bidder, token.NFT, token.TokenId, token.Amount, _msgSender()), \"NFTSwapper: swap: transfer from bidder to tendered failed\") */\n      tag_418\n      jumpi\n      mload(0x40)\n      0x08c379a000000000000000000000000000000000000000000000000000000000\n      dup2\n      mstore\n      0x04\n      add\n      tag_419\n      swap1\n      tag_420\n      jump\t// in\n    tag_419:\n      mload(0x40)\n      dup1\n      swap2\n      sub\n      swap1\n      revert\n    tag_418:\n        /* \"contracts/NFTSwapper.sol\":5410:5863  {... */\n      pop\n      pop\n        /* \"contracts/NFTSwapper.sol\":5406:5409  i++ */\n      dup1\n      dup1\n      tag_421\n      swap1\n      tag_178\n      jump\t// in\n    tag_421:\n      swap2\n      pop\n      pop\n        /* \"contracts/NFTSwapper.sol\":5371:5863  for(uint256 i=0; i<s.Offer.length; i++){... */\n      jump(tag_397)\n    tag_398:\n      pop\n        /* \"contracts/NFTSwapper.sol\":5883:5902  SwapState.Completed */\n      0x02\n        /* \"contracts/NFTSwapper.sol\":5873:5874  s */\n      dup2\n        /* \"contracts/NFTSwapper.sol\":5873:5880  s.State */\n      0x01\n      add\n      0x00\n        /* \"contracts/NFTSwapper.sol\":5873:5902  s.State = SwapState.Completed */\n      0x0100\n      exp\n      dup2\n      sload\n      dup2\n      0xff\n      mul\n      not\n      and\n      swap1\n      dup4\n      0x02\n      dup2\n      gt\n      iszero\n      tag_422\n      jumpi\n      tag_423\n      tag_192\n      jump\t// in\n    tag_423:\n    tag_422:\n      mul\n      or\n      swap1\n      sstore\n      pop\n        /* \"contracts/NFTSwapper.sol\":5939:5958  SwapState.Completed */\n      0x02\n        /* \"contracts/NFTSwapper.sol\":5918:5959  SwapStateChanged(id, SwapState.Completed) */\n      dup1\n      dup2\n      gt\n      iszero\n      tag_424\n      jumpi\n      tag_425\n      tag_192\n      jump\t// in\n    tag_425:\n    tag_424:\n        /* \"contracts/NFTSwapper.sol\":5935:5937  id */\n      dup9\n        /* \"contracts/NFTSwapper.sol\":5918:5959  SwapStateChanged(id, SwapState.Completed) */\n      0x15211d78a502c0edd03f8cefb0ba09c0bcdb3045a82c5d05dbdfff58efc82f03\n      mload(0x40)\n      mload(0x40)\n      dup1\n      swap2\n      sub\n      swap1\n      log3\n        /* \"contracts/NFTSwapper.sol\":4733:5967  {... */\n      pop\n        /* \"contracts/NFTSwapper.sol\":1952:1953  _ */\n      pop\n        /* \"contracts/NFTSwapper.sol\":1972:1979  return; */\n      pop\n      pop\n      jump(tag_344)\n        /* \"contracts/NFTSwapper.sol\":1872:1994  if(s.Tendered[i] == address(0) || s.Tendered[i] == applicant){... */\n    tag_355:\n        /* \"contracts/NFTSwapper.sol\":1853:1856  i++ */\n      dup1\n      dup1\n      tag_426\n      swap1\n      tag_178\n      jump\t// in\n    tag_426:\n      swap2\n      pop\n      pop\n        /* \"contracts/NFTSwapper.sol\":1815:2005  for(uint256 i=0; i<s.Tendered.length; i++){... */\n      jump(tag_345)\n    tag_346:\n      pop\n        /* \"contracts/NFTSwapper.sol\":2023:2028  false */\n      0x00\n        /* \"contracts/NFTSwapper.sol\":2015:2059  require(false, \"NFTSwapper: not a tendered\") */\n      tag_427\n      jumpi\n      mload(0x40)\n      0x08c379a000000000000000000000000000000000000000000000000000000000\n      dup2\n      mstore\n      0x04\n      add\n      tag_428\n      swap1\n      tag_429\n      jump\t// in\n    tag_428:\n      mload(0x40)\n      dup1\n      swap2\n      sub\n      swap1\n      revert\n    tag_427:\n        /* \"contracts/NFTSwapper.sol\":1765:2078  {... */\n      pop\n        /* \"contracts/NFTSwapper.sol\":1541:1542  _ */\n    tag_344:\n      pop\n      pop\n        /* \"contracts/NFTSwapper.sol\":4559:5967  function swap(uint256 id) public payable... */\n      pop\n      pop\n      jump\t// out\n        /* \"contracts/NFTSwapper.sol\":10214:10335  function getContributors() public view onlyContributor() returns(address[] memory){... */\n    tag_105:\n        /* \"contracts/NFTSwapper.sol\":10279:10295  address[] memory */\n      0x60\n        /* \"contracts/NFTSwapper.sol\":2528:2529  0 */\n      0x00\n        /* \"contracts/NFTSwapper.sol\":2493:2511  _contributorShares */\n      0x03\n        /* \"contracts/NFTSwapper.sol\":2493:2525  _contributorShares[_msgSender()] */\n      0x00\n        /* \"contracts/NFTSwapper.sol\":2512:2524  _msgSender() */\n      tag_431\n        /* \"contracts/NFTSwapper.sol\":2512:2522  _msgSender */\n      tag_156\n        /* \"contracts/NFTSwapper.sol\":2512:2524  _msgSender() */\n      jump\t// in\n    tag_431:\n        /* \"contracts/NFTSwapper.sol\":2493:2525  _contributorShares[_msgSender()] */\n      0xffffffffffffffffffffffffffffffffffffffff\n      and\n      0xffffffffffffffffffffffffffffffffffffffff\n      and\n      dup2\n      mstore\n      0x20\n      add\n      swap1\n      dup2\n      mstore\n      0x20\n      add\n      0x00\n      keccak256\n      sload\n        /* \"contracts/NFTSwapper.sol\":2493:2529  _contributorShares[_msgSender()] > 0 */\n      gt\n        /* \"contracts/NFTSwapper.sol\":2485:2563  require(_contributorShares[_msgSender()] > 0, \"NFTSwapper: not a contributor\") */\n      tag_432\n      jumpi\n      mload(0x40)\n      0x08c379a000000000000000000000000000000000000000000000000000000000\n      dup2\n      mstore\n      0x04\n      add\n      tag_433\n      swap1\n      tag_159\n      jump\t// in\n    tag_433:\n      mload(0x40)\n      dup1\n      swap2\n      sub\n      swap1\n      revert\n    tag_432:\n        /* \"contracts/NFTSwapper.sol\":10314:10327  _contributors */\n      0x04\n        /* \"contracts/NFTSwapper.sol\":10307:10327  return _contributors */\n      dup1\n      sload\n      dup1\n      0x20\n      mul\n      0x20\n      add\n      mload(0x40)\n      swap1\n      dup2\n      add\n      0x40\n      mstore\n      dup1\n      swap3\n      swap2\n      swap1\n      dup2\n      dup2\n      mstore\n      0x20\n      add\n      dup3\n      dup1\n      sload\n      dup1\n      iszero\n      tag_435\n      jumpi\n      0x20\n      mul\n      dup3\n      add\n      swap2\n      swap1\n      0x00\n      mstore\n      keccak256(0x00, 0x20)\n      swap1\n    tag_436:\n      dup2\n      0x00\n      swap1\n      sload\n      swap1\n      0x0100\n      exp\n      swap1\n      div\n      0xffffffffffffffffffffffffffffffffffffffff\n      and\n      0xffffffffffffffffffffffffffffffffffffffff\n      and\n      dup2\n      mstore\n      0x20\n      add\n      swap1\n      0x01\n      add\n      swap1\n      dup1\n      dup4\n      gt\n      tag_436\n      jumpi\n    tag_435:\n      pop\n      pop\n      pop\n      pop\n      pop\n      swap1\n      pop\n        /* \"contracts/NFTSwapper.sol\":10214:10335  function getContributors() public view onlyContributor() returns(address[] memory){... */\n      swap1\n      jump\t// out\n        /* \"contracts/NFTSwapper.sol\":7690:8050  function getHandler(address nft) public view returns(ISwapperHandler handler)... */\n    tag_111:\n        /* \"contracts/NFTSwapper.sol\":7743:7766  ISwapperHandler handler */\n      0x00\n        /* \"contracts/NFTSwapper.sol\":7788:7797  uint256 i */\n      dup1\n        /* \"contracts/NFTSwapper.sol\":7798:7799  0 */\n      0x00\n        /* \"contracts/NFTSwapper.sol\":7788:7799  uint256 i=0 */\n      swap1\n      pop\n        /* \"contracts/NFTSwapper.sol\":7784:7974  for(uint256 i=0; i<_handlers.length; i++){... */\n    tag_438:\n        /* \"contracts/NFTSwapper.sol\":7803:7812  _handlers */\n      0x08\n        /* \"contracts/NFTSwapper.sol\":7803:7819  _handlers.length */\n      dup1\n      sload\n      swap1\n      pop\n        /* \"contracts/NFTSwapper.sol\":7801:7802  i */\n      dup2\n        /* \"contracts/NFTSwapper.sol\":7801:7819  i<_handlers.length */\n      lt\n        /* \"contracts/NFTSwapper.sol\":7784:7974  for(uint256 i=0; i<_handlers.length; i++){... */\n      iszero\n      tag_439\n      jumpi\n        /* \"contracts/NFTSwapper.sol\":7843:7852  _handlers */\n      0x08\n        /* \"contracts/NFTSwapper.sol\":7853:7854  i */\n      dup2\n        /* \"contracts/NFTSwapper.sol\":7843:7855  _handlers[i] */\n      dup2\n      sload\n      dup2\n      lt\n      tag_441\n      jumpi\n      tag_442\n      tag_169\n      jump\t// in\n    tag_442:\n    tag_441:\n      swap1\n      0x00\n      mstore\n      keccak256(0x00, 0x20)\n      add\n      0x00\n      swap1\n      sload\n      swap1\n      0x0100\n      exp\n      swap1\n      div\n      0xffffffffffffffffffffffffffffffffffffffff\n      and\n        /* \"contracts/NFTSwapper.sol\":7843:7867  _handlers[i].isHandlerOf */\n      0xffffffffffffffffffffffffffffffffffffffff\n      and\n      0x0b829275\n        /* \"contracts/NFTSwapper.sol\":7868:7871  nft */\n      dup5\n        /* \"contracts/NFTSwapper.sol\":7843:7872  _handlers[i].isHandlerOf(nft) */\n      mload(0x40)\n      dup3\n      0xffffffff\n      and\n      0xe0\n      shl\n      dup2\n      mstore\n      0x04\n      add\n      tag_444\n      swap2\n      swap1\n      tag_95\n      jump\t// in\n    tag_444:\n      0x20\n      mload(0x40)\n      dup1\n      dup4\n      sub\n      dup2\n      dup7\n      dup1\n      extcodesize\n      iszero\n      dup1\n      iszero\n      tag_445\n      jumpi\n      0x00\n      dup1\n      revert\n    tag_445:\n      pop\n      gas\n      staticcall\n      iszero\n      dup1\n      iszero\n      tag_447\n      jumpi\n      returndatasize\n      0x00\n      dup1\n      returndatacopy\n      revert(0x00, returndatasize)\n    tag_447:\n      pop\n      pop\n      pop\n      pop\n      mload(0x40)\n      returndatasize\n      not(0x1f)\n      0x1f\n      dup3\n      add\n      and\n      dup3\n      add\n      dup1\n      0x40\n      mstore\n      pop\n      dup2\n      add\n      swap1\n      tag_448\n      swap2\n      swap1\n      tag_382\n      jump\t// in\n    tag_448:\n        /* \"contracts/NFTSwapper.sol\":7840:7963  if(_handlers[i].isHandlerOf(nft)){... */\n      iszero\n      tag_449\n      jumpi\n        /* \"contracts/NFTSwapper.sol\":7902:7911  _handlers */\n      0x08\n        /* \"contracts/NFTSwapper.sol\":7912:7913  i */\n      dup2\n        /* \"contracts/NFTSwapper.sol\":7902:7914  _handlers[i] */\n      dup2\n      sload\n      dup2\n      lt\n      tag_450\n      jumpi\n      tag_451\n      tag_169\n      jump\t// in\n    tag_451:\n    tag_450:\n      swap1\n      0x00\n      mstore\n      keccak256(0x00, 0x20)\n      add\n      0x00\n      swap1\n      sload\n      swap1\n      0x0100\n      exp\n      swap1\n      div\n      0xffffffffffffffffffffffffffffffffffffffff\n      and\n        /* \"contracts/NFTSwapper.sol\":7892:7914  handler = _handlers[i] */\n      swap2\n      pop\n        /* \"contracts/NFTSwapper.sol\":7933:7947  return handler */\n      pop\n      jump(tag_437)\n        /* \"contracts/NFTSwapper.sol\":7840:7963  if(_handlers[i].isHandlerOf(nft)){... */\n    tag_449:\n        /* \"contracts/NFTSwapper.sol\":7821:7824  i++ */\n      dup1\n      dup1\n      tag_453\n      swap1\n      tag_178\n      jump\t// in\n    tag_453:\n      swap2\n      pop\n      pop\n        /* \"contracts/NFTSwapper.sol\":7784:7974  for(uint256 i=0; i<_handlers.length; i++){... */\n      jump(tag_438)\n    tag_439:\n      pop\n        /* \"contracts/NFTSwapper.sol\":7992:7997  false */\n      0x00\n        /* \"contracts/NFTSwapper.sol\":7984:8042  require(false, \"NFTSwapper: getHandler: no handler found\") */\n      tag_454\n      jumpi\n      mload(0x40)\n      0x08c379a000000000000000000000000000000000000000000000000000000000\n      dup2\n      mstore\n      0x04\n      add\n      tag_455\n      swap1\n      tag_456\n      jump\t// in\n    tag_455:\n      mload(0x40)\n      dup1\n      swap2\n      sub\n      swap1\n      revert\n    tag_454:\n        /* \"contracts/NFTSwapper.sol\":7690:8050  function getHandler(address nft) public view returns(ISwapperHandler handler)... */\n    tag_437:\n      swap2\n      swap1\n      pop\n      jump\t// out\n        /* \"contracts/NFTSwapper.sol\":10897:10981  function getSwapFee() public view returns(uint256){... */\n    tag_116:\n        /* \"contracts/NFTSwapper.sol\":10939:10946  uint256 */\n      0x00\n        /* \"contracts/NFTSwapper.sol\":10965:10973  _swapFee */\n      sload(0x07)\n        /* \"contracts/NFTSwapper.sol\":10958:10973  return _swapFee */\n      swap1\n      pop\n        /* \"contracts/NFTSwapper.sol\":10897:10981  function getSwapFee() public view returns(uint256){... */\n      swap1\n      jump\t// out\n        /* \"contracts/NFTSwapper.sol\":10341:10451  function getTotalShares() public view onlyContributor() returns(uint256){... */\n    tag_120:\n        /* \"contracts/NFTSwapper.sol\":10405:10412  uint256 */\n      0x00\n        /* \"contracts/NFTSwapper.sol\":2528:2529  0 */\n      dup1\n        /* \"contracts/NFTSwapper.sol\":2493:2511  _contributorShares */\n      0x03\n        /* \"contracts/NFTSwapper.sol\":2493:2525  _contributorShares[_msgSender()] */\n      0x00\n        /* \"contracts/NFTSwapper.sol\":2512:2524  _msgSender() */\n      tag_459\n        /* \"contracts/NFTSwapper.sol\":2512:2522  _msgSender */\n      tag_156\n        /* \"contracts/NFTSwapper.sol\":2512:2524  _msgSender() */\n      jump\t// in\n    tag_459:\n        /* \"contracts/NFTSwapper.sol\":2493:2525  _contributorShares[_msgSender()] */\n      0xffffffffffffffffffffffffffffffffffffffff\n      and\n      0xffffffffffffffffffffffffffffffffffffffff\n      and\n      dup2\n      mstore\n      0x20\n      add\n      swap1\n      dup2\n      mstore\n      0x20\n      add\n      0x00\n      keccak256\n      sload\n        /* \"contracts/NFTSwapper.sol\":2493:2529  _contributorShares[_msgSender()] > 0 */\n      gt\n        /* \"contracts/NFTSwapper.sol\":2485:2563  require(_contributorShares[_msgSender()] > 0, \"NFTSwapper: not a contributor\") */\n      tag_460\n      jumpi\n      mload(0x40)\n      0x08c379a000000000000000000000000000000000000000000000000000000000\n      dup2\n      mstore\n      0x04\n      add\n      tag_461\n      swap1\n      tag_159\n      jump\t// in\n    tag_461:\n      mload(0x40)\n      dup1\n      swap2\n      sub\n      swap1\n      revert\n    tag_460:\n        /* \"contracts/NFTSwapper.sol\":10431:10443  _totalShares */\n      sload(0x05)\n        /* \"contracts/NFTSwapper.sol\":10424:10443  return _totalShares */\n      swap1\n      pop\n        /* \"contracts/NFTSwapper.sol\":10341:10451  function getTotalShares() public view onlyContributor() returns(uint256){... */\n      swap1\n      jump\t// out\n        /* \"contracts/NFTSwapper.sol\":7578:7682  function getSwapCount() public view virtual returns(uint256){... */\n    tag_124:\n        /* \"contracts/NFTSwapper.sol\":7630:7637  uint256 */\n      0x00\n        /* \"contracts/NFTSwapper.sol\":7656:7674  _counter.current() */\n      tag_464\n        /* \"contracts/NFTSwapper.sol\":7656:7664  _counter */\n      0x09\n        /* \"contracts/NFTSwapper.sol\":7656:7672  _counter.current */\n      tag_465\n        /* \"contracts/NFTSwapper.sol\":7656:7674  _counter.current() */\n      jump\t// in\n    tag_464:\n        /* \"contracts/NFTSwapper.sol\":7649:7674  return _counter.current() */\n      swap1\n      pop\n        /* \"contracts/NFTSwapper.sol\":7578:7682  function getSwapCount() public view virtual returns(uint256){... */\n      swap1\n      jump\t// out\n        /* \"contracts/NFTSwapper.sol\":2836:3901  function register(address bidder, Token[] calldata offer, address[] calldata tendered, Token[] calldata demand)   ... */\n    tag_129:\n        /* \"contracts/NFTSwapper.sol\":3000:3010  uint256 id */\n      0x00\n        /* \"contracts/NFTSwapper.sol\":3055:3056  0 */\n      dup1\n        /* \"contracts/NFTSwapper.sol\":3037:3057  bidder != address(0) */\n      0xffffffffffffffffffffffffffffffffffffffff\n      and\n        /* \"contracts/NFTSwapper.sol\":3037:3043  bidder */\n      dup9\n        /* \"contracts/NFTSwapper.sol\":3037:3057  bidder != address(0) */\n      0xffffffffffffffffffffffffffffffffffffffff\n      and\n      eq\n      iszero\n        /* \"contracts/NFTSwapper.sol\":3029:3103  require(bidder != address(0), \"NFTSwapper: register: bidder is not valid\") */\n      tag_467\n      jumpi\n      mload(0x40)\n      0x08c379a000000000000000000000000000000000000000000000000000000000\n      dup2\n      mstore\n      0x04\n      add\n      tag_468\n      swap1\n      tag_469\n      jump\t// in\n    tag_468:\n      mload(0x40)\n      dup1\n      swap2\n      sub\n      swap1\n      revert\n    tag_467:\n        /* \"contracts/NFTSwapper.sol\":3135:3151  getRegisterFee() */\n      tag_470\n        /* \"contracts/NFTSwapper.sol\":3135:3149  getRegisterFee */\n      tag_43\n        /* \"contracts/NFTSwapper.sol\":3135:3151  getRegisterFee() */\n      jump\t// in\n    tag_470:\n        /* \"contracts/NFTSwapper.sol\":3122:3131  msg.value */\n      callvalue\n        /* \"contracts/NFTSwapper.sol\":3122:3151  msg.value >= getRegisterFee() */\n      lt\n      iszero\n        /* \"contracts/NFTSwapper.sol\":3114:3209  require(msg.value >= getRegisterFee(), \"NFTSwapper: register: insufficient value for register\") */\n      tag_471\n      jumpi\n      mload(0x40)\n      0x08c379a000000000000000000000000000000000000000000000000000000000\n      dup2\n      mstore\n      0x04\n      add\n      tag_472\n      swap1\n      tag_473\n      jump\t// in\n    tag_472:\n      mload(0x40)\n      dup1\n      swap2\n      sub\n      swap1\n      revert\n    tag_471:\n        /* \"contracts/NFTSwapper.sol\":3220:3240  _counter.increment() */\n      tag_474\n        /* \"contracts/NFTSwapper.sol\":3220:3228  _counter */\n      0x09\n        /* \"contracts/NFTSwapper.sol\":3220:3238  _counter.increment */\n      tag_475\n        /* \"contracts/NFTSwapper.sol\":3220:3240  _counter.increment() */\n      jump\t// in\n    tag_474:\n        /* \"contracts/NFTSwapper.sol\":3256:3274  _counter.current() */\n      tag_476\n        /* \"contracts/NFTSwapper.sol\":3256:3264  _counter */\n      0x09\n        /* \"contracts/NFTSwapper.sol\":3256:3272  _counter.current */\n      tag_465\n        /* \"contracts/NFTSwapper.sol\":3256:3274  _counter.current() */\n      jump\t// in\n    tag_476:\n        /* \"contracts/NFTSwapper.sol\":3251:3274  id = _counter.current() */\n      swap1\n      pop\n        /* \"contracts/NFTSwapper.sol\":3302:3304  id */\n      dup1\n        /* \"contracts/NFTSwapper.sol\":3286:3292  _swaps */\n      0x01\n        /* \"contracts/NFTSwapper.sol\":3286:3296  _swaps[id] */\n      0x00\n        /* \"contracts/NFTSwapper.sol\":3293:3295  id */\n      dup4\n        /* \"contracts/NFTSwapper.sol\":3286:3296  _swaps[id] */\n      dup2\n      mstore\n      0x20\n      add\n      swap1\n      dup2\n      mstore\n      0x20\n      add\n      0x00\n      keccak256\n        /* \"contracts/NFTSwapper.sol\":3286:3299  _swaps[id].Id */\n      0x00\n      add\n        /* \"contracts/NFTSwapper.sol\":3286:3304  _swaps[id].Id = id */\n      dup2\n      swap1\n      sstore\n      pop\n        /* \"contracts/NFTSwapper.sol\":3335:3341  bidder */\n      dup8\n        /* \"contracts/NFTSwapper.sol\":3315:3321  _swaps */\n      0x01\n        /* \"contracts/NFTSwapper.sol\":3315:3325  _swaps[id] */\n      0x00\n        /* \"contracts/NFTSwapper.sol\":3322:3324  id */\n      dup4\n        /* \"contracts/NFTSwapper.sol\":3315:3325  _swaps[id] */\n      dup2\n      mstore\n      0x20\n      add\n      swap1\n      dup2\n      mstore\n      0x20\n      add\n      0x00\n      keccak256\n        /* \"contracts/NFTSwapper.sol\":3315:3332  _swaps[id].Bidder */\n      0x01\n      add\n      0x01\n        /* \"contracts/NFTSwapper.sol\":3315:3341  _swaps[id].Bidder = bidder */\n      0x0100\n      exp\n      dup2\n      sload\n      dup2\n      0xffffffffffffffffffffffffffffffffffffffff\n      mul\n      not\n      and\n      swap1\n      dup4\n      0xffffffffffffffffffffffffffffffffffffffff\n      and\n      mul\n      or\n      swap1\n      sstore\n      pop\n        /* \"contracts/NFTSwapper.sol\":3352:3365  _participants */\n      0x02\n        /* \"contracts/NFTSwapper.sol\":3352:3373  _participants[bidder] */\n      0x00\n        /* \"contracts/NFTSwapper.sol\":3366:3372  bidder */\n      dup10\n        /* \"contracts/NFTSwapper.sol\":3352:3373  _participants[bidder] */\n      0xffffffffffffffffffffffffffffffffffffffff\n      and\n      0xffffffffffffffffffffffffffffffffffffffff\n      and\n      dup2\n      mstore\n      0x20\n      add\n      swap1\n      dup2\n      mstore\n      0x20\n      add\n      0x00\n      keccak256\n        /* \"contracts/NFTSwapper.sol\":3379:3381  id */\n      dup2\n        /* \"contracts/NFTSwapper.sol\":3352:3382  _participants[bidder].push(id) */\n      swap1\n      dup1\n      0x01\n      dup2\n      sload\n      add\n      dup1\n      dup3\n      sstore\n      dup1\n      swap2\n      pop\n      pop\n      0x01\n      swap1\n      sub\n      swap1\n      0x00\n      mstore\n      keccak256(0x00, 0x20)\n      add\n      0x00\n      swap1\n      swap2\n      swap1\n      swap2\n      swap1\n      swap2\n      pop\n      sstore\n        /* \"contracts/NFTSwapper.sol\":3397:3406  uint256 i */\n      0x00\n        /* \"contracts/NFTSwapper.sol\":3393:3527  for(uint256 i=0; i<offer.length; i++){... */\n    tag_478:\n        /* \"contracts/NFTSwapper.sol\":3412:3417  offer */\n      dup8\n      dup8\n        /* \"contracts/NFTSwapper.sol\":3412:3424  offer.length */\n      swap1\n      pop\n        /* \"contracts/NFTSwapper.sol\":3410:3411  i */\n      dup2\n        /* \"contracts/NFTSwapper.sol\":3410:3424  i<offer.length */\n      lt\n        /* \"contracts/NFTSwapper.sol\":3393:3527  for(uint256 i=0; i<offer.length; i++){... */\n      iszero\n      tag_479\n      jumpi\n        /* \"contracts/NFTSwapper.sol\":3445:3469  getHandler(offer[i].NFT) */\n      tag_481\n        /* \"contracts/NFTSwapper.sol\":3456:3461  offer */\n      dup9\n      dup9\n        /* \"contracts/NFTSwapper.sol\":3462:3463  i */\n      dup4\n        /* \"contracts/NFTSwapper.sol\":3456:3464  offer[i] */\n      dup2\n      dup2\n      lt\n      tag_482\n      jumpi\n      tag_483\n      tag_169\n      jump\t// in\n    tag_483:\n    tag_482:\n      swap1\n      pop\n      0x60\n      mul\n      add\n        /* \"contracts/NFTSwapper.sol\":3456:3468  offer[i].NFT */\n      0x00\n      add\n      0x20\n      dup2\n      add\n      swap1\n      tag_484\n      swap2\n      swap1\n      tag_37\n      jump\t// in\n    tag_484:\n        /* \"contracts/NFTSwapper.sol\":3445:3455  getHandler */\n      tag_111\n        /* \"contracts/NFTSwapper.sol\":3445:3469  getHandler(offer[i].NFT) */\n      jump\t// in\n    tag_481:\n      pop\n        /* \"contracts/NFTSwapper.sol\":3484:3490  _swaps */\n      0x01\n        /* \"contracts/NFTSwapper.sol\":3484:3494  _swaps[id] */\n      0x00\n        /* \"contracts/NFTSwapper.sol\":3491:3493  id */\n      dup4\n        /* \"contracts/NFTSwapper.sol\":3484:3494  _swaps[id] */\n      dup2\n      mstore\n      0x20\n      add\n      swap1\n      dup2\n      mstore\n      0x20\n      add\n      0x00\n      keccak256\n        /* \"contracts/NFTSwapper.sol\":3484:3500  _swaps[id].Offer */\n      0x02\n      add\n        /* \"contracts/NFTSwapper.sol\":3506:3511  offer */\n      dup9\n      dup9\n        /* \"contracts/NFTSwapper.sol\":3512:3513  i */\n      dup4\n        /* \"contracts/NFTSwapper.sol\":3506:3514  offer[i] */\n      dup2\n      dup2\n      lt\n      tag_485\n      jumpi\n      tag_486\n      tag_169\n      jump\t// in\n    tag_486:\n    tag_485:\n      swap1\n      pop\n      0x60\n      mul\n      add\n        /* \"contracts/NFTSwapper.sol\":3484:3515  _swaps[id].Offer.push(offer[i]) */\n      swap1\n      dup1\n      0x01\n      dup2\n      sload\n      add\n      dup1\n      dup3\n      sstore\n      dup1\n      swap2\n      pop\n      pop\n      0x01\n      swap1\n      sub\n      swap1\n      0x00\n      mstore\n      keccak256(0x00, 0x20)\n      swap1\n      0x03\n      mul\n      add\n      0x00\n      swap1\n      swap2\n      swap1\n      swap2\n      swap1\n      swap2\n      pop\n      dup2\n      dup2\n      tag_488\n      swap2\n      swap1\n      tag_489\n      jump\t// in\n    tag_488:\n      pop\n      pop\n        /* \"contracts/NFTSwapper.sol\":3426:3429  i++ */\n      dup1\n      dup1\n      tag_490\n      swap1\n      tag_178\n      jump\t// in\n    tag_490:\n      swap2\n      pop\n      pop\n        /* \"contracts/NFTSwapper.sol\":3393:3527  for(uint256 i=0; i<offer.length; i++){... */\n      jump(tag_478)\n    tag_479:\n      pop\n        /* \"contracts/NFTSwapper.sol\":3541:3550  uint256 i */\n      0x00\n        /* \"contracts/NFTSwapper.sol\":3537:3691  for(uint256 i=0; i<tendered.length; i++){... */\n    tag_491:\n        /* \"contracts/NFTSwapper.sol\":3556:3564  tendered */\n      dup6\n      dup6\n        /* \"contracts/NFTSwapper.sol\":3556:3571  tendered.length */\n      swap1\n      pop\n        /* \"contracts/NFTSwapper.sol\":3554:3555  i */\n      dup2\n        /* \"contracts/NFTSwapper.sol\":3554:3571  i<tendered.length */\n      lt\n        /* \"contracts/NFTSwapper.sol\":3537:3691  for(uint256 i=0; i<tendered.length; i++){... */\n      iszero\n      tag_492\n      jumpi\n        /* \"contracts/NFTSwapper.sol\":3592:3598  _swaps */\n      0x01\n        /* \"contracts/NFTSwapper.sol\":3592:3602  _swaps[id] */\n      0x00\n        /* \"contracts/NFTSwapper.sol\":3599:3601  id */\n      dup4\n        /* \"contracts/NFTSwapper.sol\":3592:3602  _swaps[id] */\n      dup2\n      mstore\n      0x20\n      add\n      swap1\n      dup2\n      mstore\n      0x20\n      add\n      0x00\n      keccak256\n        /* \"contracts/NFTSwapper.sol\":3592:3611  _swaps[id].Tendered */\n      0x03\n      add\n        /* \"contracts/NFTSwapper.sol\":3617:3625  tendered */\n      dup7\n      dup7\n        /* \"contracts/NFTSwapper.sol\":3626:3627  i */\n      dup4\n        /* \"contracts/NFTSwapper.sol\":3617:3628  tendered[i] */\n      dup2\n      dup2\n      lt\n      tag_494\n      jumpi\n      tag_495\n      tag_169\n      jump\t// in\n    tag_495:\n    tag_494:\n      swap1\n      pop\n      0x20\n      mul\n      add\n      0x20\n      dup2\n      add\n      swap1\n      tag_496\n      swap2\n      swap1\n      tag_37\n      jump\t// in\n    tag_496:\n        /* \"contracts/NFTSwapper.sol\":3592:3629  _swaps[id].Tendered.push(tendered[i]) */\n      swap1\n      dup1\n      0x01\n      dup2\n      sload\n      add\n      dup1\n      dup3\n      sstore\n      dup1\n      swap2\n      pop\n      pop\n      0x01\n      swap1\n      sub\n      swap1\n      0x00\n      mstore\n      keccak256(0x00, 0x20)\n      add\n      0x00\n      swap1\n      swap2\n      swap1\n      swap2\n      swap1\n      swap2\n      0x0100\n      exp\n      dup2\n      sload\n      dup2\n      0xffffffffffffffffffffffffffffffffffffffff\n      mul\n      not\n      and\n      swap1\n      dup4\n      0xffffffffffffffffffffffffffffffffffffffff\n      and\n      mul\n      or\n      swap1\n      sstore\n      pop\n        /* \"contracts/NFTSwapper.sol\":3644:3657  _participants */\n      0x02\n        /* \"contracts/NFTSwapper.sol\":3644:3670  _participants[tendered[i]] */\n      0x00\n        /* \"contracts/NFTSwapper.sol\":3658:3666  tendered */\n      dup8\n      dup8\n        /* \"contracts/NFTSwapper.sol\":3667:3668  i */\n      dup5\n        /* \"contracts/NFTSwapper.sol\":3658:3669  tendered[i] */\n      dup2\n      dup2\n      lt\n      tag_498\n      jumpi\n      tag_499\n      tag_169\n      jump\t// in\n    tag_499:\n    tag_498:\n      swap1\n      pop\n      0x20\n      mul\n      add\n      0x20\n      dup2\n      add\n      swap1\n      tag_500\n      swap2\n      swap1\n      tag_37\n      jump\t// in\n    tag_500:\n        /* \"contracts/NFTSwapper.sol\":3644:3670  _participants[tendered[i]] */\n      0xffffffffffffffffffffffffffffffffffffffff\n      and\n      0xffffffffffffffffffffffffffffffffffffffff\n      and\n      dup2\n      mstore\n      0x20\n      add\n      swap1\n      dup2\n      mstore\n      0x20\n      add\n      0x00\n      keccak256\n        /* \"contracts/NFTSwapper.sol\":3676:3678  id */\n      dup3\n        /* \"contracts/NFTSwapper.sol\":3644:3679  _participants[tendered[i]].push(id) */\n      swap1\n      dup1\n      0x01\n      dup2\n      sload\n      add\n      dup1\n      dup3\n      sstore\n      dup1\n      swap2\n      pop\n      pop\n      0x01\n      swap1\n      sub\n      swap1\n      0x00\n      mstore\n      keccak256(0x00, 0x20)\n      add\n      0x00\n      swap1\n      swap2\n      swap1\n      swap2\n      swap1\n      swap2\n      pop\n      sstore\n        /* \"contracts/NFTSwapper.sol\":3573:3576  i++ */\n      dup1\n      dup1\n      tag_502\n      swap1\n      tag_178\n      jump\t// in\n    tag_502:\n      swap2\n      pop\n      pop\n        /* \"contracts/NFTSwapper.sol\":3537:3691  for(uint256 i=0; i<tendered.length; i++){... */\n      jump(tag_491)\n    tag_492:\n      pop\n        /* \"contracts/NFTSwapper.sol\":3705:3714  uint256 i */\n      0x00\n        /* \"contracts/NFTSwapper.sol\":3701:3839  for(uint256 i=0; i<demand.length; i++){... */\n    tag_503:\n        /* \"contracts/NFTSwapper.sol\":3720:3726  demand */\n      dup4\n      dup4\n        /* \"contracts/NFTSwapper.sol\":3720:3733  demand.length */\n      swap1\n      pop\n        /* \"contracts/NFTSwapper.sol\":3718:3719  i */\n      dup2\n        /* \"contracts/NFTSwapper.sol\":3718:3733  i<demand.length */\n      lt\n        /* \"contracts/NFTSwapper.sol\":3701:3839  for(uint256 i=0; i<demand.length; i++){... */\n      iszero\n      tag_504\n      jumpi\n        /* \"contracts/NFTSwapper.sol\":3754:3779  getHandler(demand[i].NFT) */\n      tag_506\n        /* \"contracts/NFTSwapper.sol\":3765:3771  demand */\n      dup5\n      dup5\n        /* \"contracts/NFTSwapper.sol\":3772:3773  i */\n      dup4\n        /* \"contracts/NFTSwapper.sol\":3765:3774  demand[i] */\n      dup2\n      dup2\n      lt\n      tag_507\n      jumpi\n      tag_508\n      tag_169\n      jump\t// in\n    tag_508:\n    tag_507:\n      swap1\n      pop\n      0x60\n      mul\n      add\n        /* \"contracts/NFTSwapper.sol\":3765:3778  demand[i].NFT */\n      0x00\n      add\n      0x20\n      dup2\n      add\n      swap1\n      tag_509\n      swap2\n      swap1\n      tag_37\n      jump\t// in\n    tag_509:\n        /* \"contracts/NFTSwapper.sol\":3754:3764  getHandler */\n      tag_111\n        /* \"contracts/NFTSwapper.sol\":3754:3779  getHandler(demand[i].NFT) */\n      jump\t// in\n    tag_506:\n      pop\n        /* \"contracts/NFTSwapper.sol\":3794:3800  _swaps */\n      0x01\n        /* \"contracts/NFTSwapper.sol\":3794:3804  _swaps[id] */\n      0x00\n        /* \"contracts/NFTSwapper.sol\":3801:3803  id */\n      dup4\n        /* \"contracts/NFTSwapper.sol\":3794:3804  _swaps[id] */\n      dup2\n      mstore\n      0x20\n      add\n      swap1\n      dup2\n      mstore\n      0x20\n      add\n      0x00\n      keccak256\n        /* \"contracts/NFTSwapper.sol\":3794:3811  _swaps[id].Demand */\n      0x04\n      add\n        /* \"contracts/NFTSwapper.sol\":3817:3823  demand */\n      dup5\n      dup5\n        /* \"contracts/NFTSwapper.sol\":3824:3825  i */\n      dup4\n        /* \"contracts/NFTSwapper.sol\":3817:3826  demand[i] */\n      dup2\n      dup2\n      lt\n      tag_510\n      jumpi\n      tag_511\n      tag_169\n      jump\t// in\n    tag_511:\n    tag_510:\n      swap1\n      pop\n      0x60\n      mul\n      add\n        /* \"contracts/NFTSwapper.sol\":3794:3827  _swaps[id].Demand.push(demand[i]) */\n      swap1\n      dup1\n      0x01\n      dup2\n      sload\n      add\n      dup1\n      dup3\n      sstore\n      dup1\n      swap2\n      pop\n      pop\n      0x01\n      swap1\n      sub\n      swap1\n      0x00\n      mstore\n      keccak256(0x00, 0x20)\n      swap1\n      0x03\n      mul\n      add\n      0x00\n      swap1\n      swap2\n      swap1\n      swap2\n      swap1\n      swap2\n      pop\n      dup2\n      dup2\n      tag_513\n      swap2\n      swap1\n      tag_489\n      jump\t// in\n    tag_513:\n      pop\n      pop\n        /* \"contracts/NFTSwapper.sol\":3735:3738  i++ */\n      dup1\n      dup1\n      tag_514\n      swap1\n      tag_178\n      jump\t// in\n    tag_514:\n      swap2\n      pop\n      pop\n        /* \"contracts/NFTSwapper.sol\":3701:3839  for(uint256 i=0; i<demand.length; i++){... */\n      jump(tag_503)\n    tag_504:\n      pop\n        /* \"contracts/NFTSwapper.sol\":3875:3892  SwapState.Pending */\n      0x00\n        /* \"contracts/NFTSwapper.sol\":3854:3893  SwapStateChanged(id, SwapState.Pending) */\n      0x02\n      dup2\n      gt\n      iszero\n      tag_515\n      jumpi\n      tag_516\n      tag_192\n      jump\t// in\n    tag_516:\n    tag_515:\n        /* \"contracts/NFTSwapper.sol\":3871:3873  id */\n      dup2\n        /* \"contracts/NFTSwapper.sol\":3854:3893  SwapStateChanged(id, SwapState.Pending) */\n      0x15211d78a502c0edd03f8cefb0ba09c0bcdb3045a82c5d05dbdfff58efc82f03\n      mload(0x40)\n      mload(0x40)\n      dup1\n      swap2\n      sub\n      swap1\n      log3\n        /* \"contracts/NFTSwapper.sol\":2836:3901  function register(address bidder, Token[] calldata offer, address[] calldata tendered, Token[] calldata demand)   ... */\n      swap8\n      swap7\n      pop\n      pop\n      pop\n      pop\n      pop\n      pop\n      pop\n      jump\t// out\n        /* \"contracts/NFTSwapper.sol\":8266:8553  function supportStandard(address handlerAddress) public onlyOwner()... */\n    tag_134:\n        /* \"@openzeppelin/contracts/access/Ownable.sol\":1094:1107  _checkOwner() */\n      tag_518\n        /* \"@openzeppelin/contracts/access/Ownable.sol\":1094:1105  _checkOwner */\n      tag_149\n        /* \"@openzeppelin/contracts/access/Ownable.sol\":1094:1107  _checkOwner() */\n      jump\t// in\n    tag_518:\n        /* \"contracts/NFTSwapper.sol\":8374:8388  handlerAddress */\n      dup1\n        /* \"contracts/NFTSwapper.sol\":8358:8407  ISwapperHandler(handlerAddress).supportsInterface */\n      0xffffffffffffffffffffffffffffffffffffffff\n      and\n      0x01ffc9a7\n        /* \"contracts/NFTSwapper.sol\":8408:8441  type(ISwapperHandler).interfaceId */\n      0xcf44745f00000000000000000000000000000000000000000000000000000000\n        /* \"contracts/NFTSwapper.sol\":8358:8442  ISwapperHandler(handlerAddress).supportsInterface(type(ISwapperHandler).interfaceId) */\n      mload(0x40)\n      dup3\n      0xffffffff\n      and\n      0xe0\n      shl\n      dup2\n      mstore\n      0x04\n      add\n      tag_520\n      swap2\n      swap1\n      tag_521\n      jump\t// in\n    tag_520:\n      0x20\n      mload(0x40)\n      dup1\n      dup4\n      sub\n      dup2\n      dup7\n      dup1\n      extcodesize\n      iszero\n      dup1\n      iszero\n      tag_522\n      jumpi\n      0x00\n      dup1\n      revert\n    tag_522:\n      pop\n      gas\n      staticcall\n      iszero\n      dup1\n      iszero\n      tag_524\n      jumpi\n      returndatasize\n      0x00\n      dup1\n      returndatacopy\n      revert(0x00, returndatasize)\n    tag_524:\n      pop\n      pop\n      pop\n      pop\n      mload(0x40)\n      returndatasize\n      not(0x1f)\n      0x1f\n      dup3\n      add\n      and\n      dup3\n      add\n      dup1\n      0x40\n      mstore\n      pop\n      dup2\n      add\n      swap1\n      tag_525\n      swap2\n      swap1\n      tag_382\n      jump\t// in\n    tag_525:\n        /* \"contracts/NFTSwapper.sol\":8350:8487  require(ISwapperHandler(handlerAddress).supportsInterface(type(ISwapperHandler).interfaceId), \"handler does not support ISwapperHandler\") */\n      tag_526\n      jumpi\n      mload(0x40)\n      0x08c379a000000000000000000000000000000000000000000000000000000000\n      dup2\n      mstore\n      0x04\n      add\n      tag_527\n      swap1\n      tag_528\n      jump\t// in\n    tag_527:\n      mload(0x40)\n      dup1\n      swap2\n      sub\n      swap1\n      revert\n    tag_526:\n        /* \"contracts/NFTSwapper.sol\":8498:8507  _handlers */\n      0x08\n        /* \"contracts/NFTSwapper.sol\":8529:8543  handlerAddress */\n      dup2\n        /* \"contracts/NFTSwapper.sol\":8498:8545  _handlers.push(ISwapperHandler(handlerAddress)) */\n      swap1\n      dup1\n      0x01\n      dup2\n      sload\n      add\n      dup1\n      dup3\n      sstore\n      dup1\n      swap2\n      pop\n      pop\n      0x01\n      swap1\n      sub\n      swap1\n      0x00\n      mstore\n      keccak256(0x00, 0x20)\n      add\n      0x00\n      swap1\n      swap2\n      swap1\n      swap2\n      swap1\n      swap2\n      0x0100\n      exp\n      dup2\n      sload\n      dup2\n      0xffffffffffffffffffffffffffffffffffffffff\n      mul\n      not\n      and\n      swap1\n      dup4\n      0xffffffffffffffffffffffffffffffffffffffff\n      and\n      mul\n      or\n      swap1\n      sstore\n      pop\n        /* \"contracts/NFTSwapper.sol\":8266:8553  function supportStandard(address handlerAddress) public onlyOwner()... */\n      pop\n      jump\t// out\n        /* \"contracts/NFTSwapper.sol\":8559:9029  function unsupportStandard(address handlerAddress) public onlyOwner()... */\n    tag_138:\n        /* \"@openzeppelin/contracts/access/Ownable.sol\":1094:1107  _checkOwner() */\n      tag_531\n        /* \"@openzeppelin/contracts/access/Ownable.sol\":1094:1105  _checkOwner */\n      tag_149\n        /* \"@openzeppelin/contracts/access/Ownable.sol\":1094:1107  _checkOwner() */\n      jump\t// in\n    tag_531:\n        /* \"contracts/NFTSwapper.sol\":8669:8683  handlerAddress */\n      dup1\n        /* \"contracts/NFTSwapper.sol\":8653:8702  ISwapperHandler(handlerAddress).supportsInterface */\n      0xffffffffffffffffffffffffffffffffffffffff\n      and\n      0x01ffc9a7\n        /* \"contracts/NFTSwapper.sol\":8703:8736  type(ISwapperHandler).interfaceId */\n      0xcf44745f00000000000000000000000000000000000000000000000000000000\n        /* \"contracts/NFTSwapper.sol\":8653:8737  ISwapperHandler(handlerAddress).supportsInterface(type(ISwapperHandler).interfaceId) */\n      mload(0x40)\n      dup3\n      0xffffffff\n      and\n      0xe0\n      shl\n      dup2\n      mstore\n      0x04\n      add\n      tag_533\n      swap2\n      swap1\n      tag_521\n      jump\t// in\n    tag_533:\n      0x20\n      mload(0x40)\n      dup1\n      dup4\n      sub\n      dup2\n      dup7\n      dup1\n      extcodesize\n      iszero\n      dup1\n      iszero\n      tag_534\n      jumpi\n      0x00\n      dup1\n      revert\n    tag_534:\n      pop\n      gas\n      staticcall\n      iszero\n      dup1\n      iszero\n      tag_536\n      jumpi\n      returndatasize\n      0x00\n      dup1\n      returndatacopy\n      revert(0x00, returndatasize)\n    tag_536:\n      pop\n      pop\n      pop\n      pop\n      mload(0x40)\n      returndatasize\n      not(0x1f)\n      0x1f\n      dup3\n      add\n      and\n      dup3\n      add\n      dup1\n      0x40\n      mstore\n      pop\n      dup2\n      add\n      swap1\n      tag_537\n      swap2\n      swap1\n      tag_382\n      jump\t// in\n    tag_537:\n        /* \"contracts/NFTSwapper.sol\":8645:8782  require(ISwapperHandler(handlerAddress).supportsInterface(type(ISwapperHandler).interfaceId), \"handler does not support ISwapperHandler\") */\n      tag_538\n      jumpi\n      mload(0x40)\n      0x08c379a000000000000000000000000000000000000000000000000000000000\n      dup2\n      mstore\n      0x04\n      add\n      tag_539\n      swap1\n      tag_528\n      jump\t// in\n    tag_539:\n      mload(0x40)\n      dup1\n      swap2\n      sub\n      swap1\n      revert\n    tag_538:\n        /* \"contracts/NFTSwapper.sol\":8797:8806  uint256 i */\n      0x00\n        /* \"contracts/NFTSwapper.sol\":8793:9021  for(uint256 i = 0; i < _handlers.length; i++) {... */\n    tag_540:\n        /* \"contracts/NFTSwapper.sol\":8816:8825  _handlers */\n      0x08\n        /* \"contracts/NFTSwapper.sol\":8816:8832  _handlers.length */\n      dup1\n      sload\n      swap1\n      pop\n        /* \"contracts/NFTSwapper.sol\":8812:8813  i */\n      dup2\n        /* \"contracts/NFTSwapper.sol\":8812:8832  i < _handlers.length */\n      lt\n        /* \"contracts/NFTSwapper.sol\":8793:9021  for(uint256 i = 0; i < _handlers.length; i++) {... */\n      iszero\n      tag_541\n      jumpi\n        /* \"contracts/NFTSwapper.sol\":8882:8896  handlerAddress */\n      dup2\n        /* \"contracts/NFTSwapper.sol\":8857:8896  address(_handlers[i]) == handlerAddress */\n      0xffffffffffffffffffffffffffffffffffffffff\n      and\n        /* \"contracts/NFTSwapper.sol\":8865:8874  _handlers */\n      0x08\n        /* \"contracts/NFTSwapper.sol\":8875:8876  i */\n      dup3\n        /* \"contracts/NFTSwapper.sol\":8865:8877  _handlers[i] */\n      dup2\n      sload\n      dup2\n      lt\n      tag_543\n      jumpi\n      tag_544\n      tag_169\n      jump\t// in\n    tag_544:\n    tag_543:\n      swap1\n      0x00\n      mstore\n      keccak256(0x00, 0x20)\n      add\n      0x00\n      swap1\n      sload\n      swap1\n      0x0100\n      exp\n      swap1\n      div\n      0xffffffffffffffffffffffffffffffffffffffff\n      and\n        /* \"contracts/NFTSwapper.sol\":8857:8896  address(_handlers[i]) == handlerAddress */\n      0xffffffffffffffffffffffffffffffffffffffff\n      and\n      eq\n        /* \"contracts/NFTSwapper.sol\":8854:9010  if(address(_handlers[i]) == handlerAddress) {... */\n      iszero\n      tag_546\n      jumpi\n        /* \"contracts/NFTSwapper.sol\":8924:8933  _handlers */\n      0x08\n        /* \"contracts/NFTSwapper.sol\":8934:8935  i */\n      dup2\n        /* \"contracts/NFTSwapper.sol\":8924:8936  _handlers[i] */\n      dup2\n      sload\n      dup2\n      lt\n      tag_547\n      jumpi\n      tag_548\n      tag_169\n      jump\t// in\n    tag_548:\n    tag_547:\n      swap1\n      0x00\n      mstore\n      keccak256(0x00, 0x20)\n      add\n      0x00\n        /* \"contracts/NFTSwapper.sol\":8917:8936  delete _handlers[i] */\n      0x0100\n      exp\n      dup2\n      sload\n      swap1\n      0xffffffffffffffffffffffffffffffffffffffff\n      mul\n      not\n      and\n      swap1\n      sstore\n        /* \"contracts/NFTSwapper.sol\":8955:8964  _handlers */\n      0x08\n        /* \"contracts/NFTSwapper.sol\":8955:8970  _handlers.pop() */\n      dup1\n      sload\n      dup1\n      tag_550\n      jumpi\n      tag_551\n      tag_258\n      jump\t// in\n    tag_551:\n    tag_550:\n      0x01\n      swap1\n      sub\n      dup2\n      dup2\n      swap1\n      0x00\n      mstore\n      keccak256(0x00, 0x20)\n      add\n      exp(0x0100, 0x00)\n      dup2\n      sload\n      swap1\n      0xffffffffffffffffffffffffffffffffffffffff\n      mul\n      not\n      and\n      swap1\n      sstore\n      swap1\n      sstore\n        /* \"contracts/NFTSwapper.sol\":8989:8994  break */\n      jump(tag_541)\n        /* \"contracts/NFTSwapper.sol\":8854:9010  if(address(_handlers[i]) == handlerAddress) {... */\n    tag_546:\n        /* \"contracts/NFTSwapper.sol\":8834:8837  i++ */\n      dup1\n      dup1\n      tag_553\n      swap1\n      tag_178\n      jump\t// in\n    tag_553:\n      swap2\n      pop\n      pop\n        /* \"contracts/NFTSwapper.sol\":8793:9021  for(uint256 i = 0; i < _handlers.length; i++) {... */\n      jump(tag_540)\n    tag_541:\n      pop\n        /* \"contracts/NFTSwapper.sol\":8559:9029  function unsupportStandard(address handlerAddress) public onlyOwner()... */\n      pop\n      jump\t// out\n        /* \"@openzeppelin/contracts/access/Ownable.sol\":2081:2279  function transferOwnership(address newOwner) public virtual onlyOwner {... */\n    tag_142:\n        /* \"@openzeppelin/contracts/access/Ownable.sol\":1094:1107  _checkOwner() */\n      tag_555\n        /* \"@openzeppelin/contracts/access/Ownable.sol\":1094:1105  _checkOwner */\n      tag_149\n        /* \"@openzeppelin/contracts/access/Ownable.sol\":1094:1107  _checkOwner() */\n      jump\t// in\n    tag_555:\n        /* \"@openzeppelin/contracts/access/Ownable.sol\":2189:2190  0 */\n      0x00\n        /* \"@openzeppelin/contracts/access/Ownable.sol\":2169:2191  newOwner != address(0) */\n      0xffffffffffffffffffffffffffffffffffffffff\n      and\n        /* \"@openzeppelin/contracts/access/Ownable.sol\":2169:2177  newOwner */\n      dup2\n        /* \"@openzeppelin/contracts/access/Ownable.sol\":2169:2191  newOwner != address(0) */\n      0xffffffffffffffffffffffffffffffffffffffff\n      and\n      eq\n      iszero\n        /* \"@openzeppelin/contracts/access/Ownable.sol\":2161:2234  require(newOwner != address(0), \"Ownable: new owner is the zero address\") */\n      tag_557\n      jumpi\n      mload(0x40)\n      0x08c379a000000000000000000000000000000000000000000000000000000000\n      dup2\n      mstore\n      0x04\n      add\n      tag_558\n      swap1\n      tag_559\n      jump\t// in\n    tag_558:\n      mload(0x40)\n      dup1\n      swap2\n      sub\n      swap1\n      revert\n    tag_557:\n        /* \"@openzeppelin/contracts/access/Ownable.sol\":2244:2272  _transferOwnership(newOwner) */\n      tag_560\n        /* \"@openzeppelin/contracts/access/Ownable.sol\":2263:2271  newOwner */\n      dup2\n        /* \"@openzeppelin/contracts/access/Ownable.sol\":2244:2262  _transferOwnership */\n      tag_284\n        /* \"@openzeppelin/contracts/access/Ownable.sol\":2244:2272  _transferOwnership(newOwner) */\n      jump\t// in\n    tag_560:\n        /* \"@openzeppelin/contracts/access/Ownable.sol\":2081:2279  function transferOwnership(address newOwner) public virtual onlyOwner {... */\n      pop\n      jump\t// out\n        /* \"@openzeppelin/contracts/access/Ownable.sol\":1359:1489  function _checkOwner() internal view virtual {... */\n    tag_149:\n        /* \"@openzeppelin/contracts/access/Ownable.sol\":1433:1445  _msgSender() */\n      tag_562\n        /* \"@openzeppelin/contracts/access/Ownable.sol\":1433:1443  _msgSender */\n      tag_156\n        /* \"@openzeppelin/contracts/access/Ownable.sol\":1433:1445  _msgSender() */\n      jump\t// in\n    tag_562:\n        /* \"@openzeppelin/contracts/access/Ownable.sol\":1422:1445  owner() == _msgSender() */\n      0xffffffffffffffffffffffffffffffffffffffff\n      and\n        /* \"@openzeppelin/contracts/access/Ownable.sol\":1422:1429  owner() */\n      tag_563\n        /* \"@openzeppelin/contracts/access/Ownable.sol\":1422:1427  owner */\n      tag_93\n        /* \"@openzeppelin/contracts/access/Ownable.sol\":1422:1429  owner() */\n      jump\t// in\n    tag_563:\n        /* \"@openzeppelin/contracts/access/Ownable.sol\":1422:1445  owner() == _msgSender() */\n      0xffffffffffffffffffffffffffffffffffffffff\n      and\n      eq\n        /* \"@openzeppelin/contracts/access/Ownable.sol\":1414:1482  require(owner() == _msgSender(), \"Ownable: caller is not the owner\") */\n      tag_564\n      jumpi\n      mload(0x40)\n      0x08c379a000000000000000000000000000000000000000000000000000000000\n      dup2\n      mstore\n      0x04\n      add\n      tag_565\n      swap1\n      tag_566\n      jump\t// in\n    tag_565:\n      mload(0x40)\n      dup1\n      swap2\n      sub\n      swap1\n      revert\n    tag_564:\n        /* \"@openzeppelin/contracts/access/Ownable.sol\":1359:1489  function _checkOwner() internal view virtual {... */\n      jump\t// out\n        /* \"@openzeppelin/contracts/utils/Context.sol\":640:736  function _msgSender() internal view virtual returns (address) {... */\n    tag_156:\n        /* \"@openzeppelin/contracts/utils/Context.sol\":693:700  address */\n      0x00\n        /* \"@openzeppelin/contracts/utils/Context.sol\":719:729  msg.sender */\n      caller\n        /* \"@openzeppelin/contracts/utils/Context.sol\":712:729  return msg.sender */\n      swap1\n      pop\n        /* \"@openzeppelin/contracts/utils/Context.sol\":640:736  function _msgSender() internal view virtual returns (address) {... */\n      swap1\n      jump\t// out\n        /* \"@openzeppelin/contracts/access/Ownable.sol\":2433:2620  function _transferOwnership(address newOwner) internal virtual {... */\n    tag_284:\n        /* \"@openzeppelin/contracts/access/Ownable.sol\":2506:2522  address oldOwner */\n      0x00\n        /* \"@openzeppelin/contracts/access/Ownable.sol\":2525:2531  _owner */\n      dup1\n      0x00\n      swap1\n      sload\n      swap1\n      0x0100\n      exp\n      swap1\n      div\n      0xffffffffffffffffffffffffffffffffffffffff\n      and\n        /* \"@openzeppelin/contracts/access/Ownable.sol\":2506:2531  address oldOwner = _owner */\n      swap1\n      pop\n        /* \"@openzeppelin/contracts/access/Ownable.sol\":2550:2558  newOwner */\n      dup2\n        /* \"@openzeppelin/contracts/access/Ownable.sol\":2541:2547  _owner */\n      0x00\n      dup1\n        /* \"@openzeppelin/contracts/access/Ownable.sol\":2541:2558  _owner = newOwner */\n      0x0100\n      exp\n      dup2\n      sload\n      dup2\n      0xffffffffffffffffffffffffffffffffffffffff\n      mul\n      not\n      and\n      swap1\n      dup4\n      0xffffffffffffffffffffffffffffffffffffffff\n      and\n      mul\n      or\n      swap1\n      sstore\n      pop\n        /* \"@openzeppelin/contracts/access/Ownable.sol\":2604:2612  newOwner */\n      dup2\n        /* \"@openzeppelin/contracts/access/Ownable.sol\":2573:2613  OwnershipTransferred(oldOwner, newOwner) */\n      0xffffffffffffffffffffffffffffffffffffffff\n      and\n        /* \"@openzeppelin/contracts/access/Ownable.sol\":2594:2602  oldOwner */\n      dup2\n        /* \"@openzeppelin/contracts/access/Ownable.sol\":2573:2613  OwnershipTransferred(oldOwner, newOwner) */\n      0xffffffffffffffffffffffffffffffffffffffff\n      and\n      0x8be0079c531659141344cd1fd0a4f28419497f9722a3daafe3b4186f6b6457e0\n      mload(0x40)\n      mload(0x40)\n      dup1\n      swap2\n      sub\n      swap1\n      log3\n        /* \"@openzeppelin/contracts/access/Ownable.sol\":2496:2620  {... */\n      pop\n        /* \"@openzeppelin/contracts/access/Ownable.sol\":2433:2620  function _transferOwnership(address newOwner) internal virtual {... */\n      pop\n      jump\t// out\n        /* \"@openzeppelin/contracts/utils/Counters.sol\":827:939  function current(Counter storage counter) internal view returns (uint256) {... */\n    tag_465:\n        /* \"@openzeppelin/contracts/utils/Counters.sol\":892:899  uint256 */\n      0x00\n        /* \"@openzeppelin/contracts/utils/Counters.sol\":918:925  counter */\n      dup2\n        /* \"@openzeppelin/contracts/utils/Counters.sol\":918:932  counter._value */\n      0x00\n      add\n      sload\n        /* \"@openzeppelin/contracts/utils/Counters.sol\":911:932  return counter._value */\n      swap1\n      pop\n        /* \"@openzeppelin/contracts/utils/Counters.sol\":827:939  function current(Counter storage counter) internal view returns (uint256) {... */\n      swap2\n      swap1\n      pop\n      jump\t// out\n        /* \"@openzeppelin/contracts/utils/Counters.sol\":945:1068  function increment(Counter storage counter) internal {... */\n    tag_475:\n        /* \"@openzeppelin/contracts/utils/Counters.sol\":1050:1051  1 */\n      0x01\n        /* \"@openzeppelin/contracts/utils/Counters.sol\":1032:1039  counter */\n      dup2\n        /* \"@openzeppelin/contracts/utils/Counters.sol\":1032:1046  counter._value */\n      0x00\n      add\n      0x00\n        /* \"@openzeppelin/contracts/utils/Counters.sol\":1032:1051  counter._value += 1 */\n      dup3\n      dup3\n      sload\n      add\n      swap3\n      pop\n      pop\n      dup2\n      swap1\n      sstore\n      pop\n        /* \"@openzeppelin/contracts/utils/Counters.sol\":945:1068  function increment(Counter storage counter) internal {... */\n      pop\n      jump\t// out\n    tag_204:\n      mload(0x40)\n      dup1\n      0xc0\n      add\n      0x40\n      mstore\n      dup1\n      0x00\n      dup2\n      mstore\n      0x20\n      add\n      0x00\n      0x02\n      dup2\n      gt\n      iszero\n      tag_571\n      jumpi\n      tag_572\n      tag_192\n      jump\t// in\n    tag_572:\n    tag_571:\n      dup2\n      mstore\n      0x20\n      add\n      and(0xffffffffffffffffffffffffffffffffffffffff, 0x00)\n      dup2\n      mstore\n      0x20\n      add\n      0x60\n      dup2\n      mstore\n      0x20\n      add\n      0x60\n      dup2\n      mstore\n      0x20\n      add\n      0x60\n      dup2\n      mstore\n      pop\n      swap1\n      jump\t// out\n        /* \"#utility.yul\":88:205   */\n    tag_574:\n        /* \"#utility.yul\":197:198   */\n      0x00\n        /* \"#utility.yul\":194:195   */\n      dup1\n        /* \"#utility.yul\":187:199   */\n      revert\n        /* \"#utility.yul\":211:328   */\n    tag_575:\n        /* \"#utility.yul\":320:321   */\n      0x00\n        /* \"#utility.yul\":317:318   */\n      dup1\n        /* \"#utility.yul\":310:322   */\n      revert\n        /* \"#utility.yul\":334:460   */\n    tag_576:\n        /* \"#utility.yul\":371:378   */\n      0x00\n        /* \"#utility.yul\":411:453   */\n      0xffffffffffffffffffffffffffffffffffffffff\n        /* \"#utility.yul\":404:409   */\n      dup3\n        /* \"#utility.yul\":400:454   */\n      and\n        /* \"#utility.yul\":389:454   */\n      swap1\n      pop\n        /* \"#utility.yul\":334:460   */\n      swap2\n      swap1\n      pop\n      jump\t// out\n        /* \"#utility.yul\":466:562   */\n    tag_577:\n        /* \"#utility.yul\":503:510   */\n      0x00\n        /* \"#utility.yul\":532:556   */\n      tag_706\n        /* \"#utility.yul\":550:555   */\n      dup3\n        /* \"#utility.yul\":532:556   */\n      tag_576\n      jump\t// in\n    tag_706:\n        /* \"#utility.yul\":521:556   */\n      swap1\n      pop\n        /* \"#utility.yul\":466:562   */\n      swap2\n      swap1\n      pop\n      jump\t// out\n        /* \"#utility.yul\":568:690   */\n    tag_578:\n        /* \"#utility.yul\":641:665   */\n      tag_708\n        /* \"#utility.yul\":659:664   */\n      dup2\n        /* \"#utility.yul\":641:665   */\n      tag_577\n      jump\t// in\n    tag_708:\n        /* \"#utility.yul\":634:639   */\n      dup2\n        /* \"#utility.yul\":631:666   */\n      eq\n        /* \"#utility.yul\":621:684   */\n      tag_709\n      jumpi\n        /* \"#utility.yul\":680:681   */\n      0x00\n        /* \"#utility.yul\":677:678   */\n      dup1\n        /* \"#utility.yul\":670:682   */\n      revert\n        /* \"#utility.yul\":621:684   */\n    tag_709:\n        /* \"#utility.yul\":568:690   */\n      pop\n      jump\t// out\n        /* \"#utility.yul\":696:835   */\n    tag_579:\n        /* \"#utility.yul\":742:747   */\n      0x00\n        /* \"#utility.yul\":780:786   */\n      dup2\n        /* \"#utility.yul\":767:787   */\n      calldataload\n        /* \"#utility.yul\":758:787   */\n      swap1\n      pop\n        /* \"#utility.yul\":796:829   */\n      tag_711\n        /* \"#utility.yul\":823:828   */\n      dup2\n        /* \"#utility.yul\":796:829   */\n      tag_578\n      jump\t// in\n    tag_711:\n        /* \"#utility.yul\":696:835   */\n      swap3\n      swap2\n      pop\n      pop\n      jump\t// out\n        /* \"#utility.yul\":841:1170   */\n    tag_37:\n        /* \"#utility.yul\":900:906   */\n      0x00\n        /* \"#utility.yul\":949:951   */\n      0x20\n        /* \"#utility.yul\":937:946   */\n      dup3\n        /* \"#utility.yul\":928:935   */\n      dup5\n        /* \"#utility.yul\":924:947   */\n      sub\n        /* \"#utility.yul\":920:952   */\n      slt\n        /* \"#utility.yul\":917:1036   */\n      iszero\n      tag_713\n      jumpi\n        /* \"#utility.yul\":955:1034   */\n      tag_714\n      tag_574\n      jump\t// in\n    tag_714:\n        /* \"#utility.yul\":917:1036   */\n    tag_713:\n        /* \"#utility.yul\":1075:1076   */\n      0x00\n        /* \"#utility.yul\":1100:1153   */\n      tag_715\n        /* \"#utility.yul\":1145:1152   */\n      dup5\n        /* \"#utility.yul\":1136:1142   */\n      dup3\n        /* \"#utility.yul\":1125:1134   */\n      dup6\n        /* \"#utility.yul\":1121:1143   */\n      add\n        /* \"#utility.yul\":1100:1153   */\n      tag_579\n      jump\t// in\n    tag_715:\n        /* \"#utility.yul\":1090:1153   */\n      swap2\n      pop\n        /* \"#utility.yul\":1046:1163   */\n      pop\n        /* \"#utility.yul\":841:1170   */\n      swap3\n      swap2\n      pop\n      pop\n      jump\t// out\n        /* \"#utility.yul\":1176:1290   */\n    tag_580:\n        /* \"#utility.yul\":1243:1249   */\n      0x00\n        /* \"#utility.yul\":1277:1282   */\n      dup2\n        /* \"#utility.yul\":1271:1283   */\n      mload\n        /* \"#utility.yul\":1261:1283   */\n      swap1\n      pop\n        /* \"#utility.yul\":1176:1290   */\n      swap2\n      swap1\n      pop\n      jump\t// out\n        /* \"#utility.yul\":1296:1480   */\n    tag_581:\n        /* \"#utility.yul\":1395:1406   */\n      0x00\n        /* \"#utility.yul\":1429:1435   */\n      dup3\n        /* \"#utility.yul\":1424:1427   */\n      dup3\n        /* \"#utility.yul\":1417:1436   */\n      mstore\n        /* \"#utility.yul\":1469:1473   */\n      0x20\n        /* \"#utility.yul\":1464:1467   */\n      dup3\n        /* \"#utility.yul\":1460:1474   */\n      add\n        /* \"#utility.yul\":1445:1474   */\n      swap1\n      pop\n        /* \"#utility.yul\":1296:1480   */\n      swap3\n      swap2\n      pop\n      pop\n      jump\t// out\n        /* \"#utility.yul\":1486:1618   */\n    tag_582:\n        /* \"#utility.yul\":1553:1557   */\n      0x00\n        /* \"#utility.yul\":1576:1579   */\n      dup2\n        /* \"#utility.yul\":1568:1579   */\n      swap1\n      pop\n        /* \"#utility.yul\":1606:1610   */\n      0x20\n        /* \"#utility.yul\":1601:1604   */\n      dup3\n        /* \"#utility.yul\":1597:1611   */\n      add\n        /* \"#utility.yul\":1589:1611   */\n      swap1\n      pop\n        /* \"#utility.yul\":1486:1618   */\n      swap2\n      swap1\n      pop\n      jump\t// out\n        /* \"#utility.yul\":1624:1701   */\n    tag_583:\n        /* \"#utility.yul\":1661:1668   */\n      0x00\n        /* \"#utility.yul\":1690:1695   */\n      dup2\n        /* \"#utility.yul\":1679:1695   */\n      swap1\n      pop\n        /* \"#utility.yul\":1624:1701   */\n      swap2\n      swap1\n      pop\n      jump\t// out\n        /* \"#utility.yul\":1707:1815   */\n    tag_584:\n        /* \"#utility.yul\":1784:1808   */\n      tag_721\n        /* \"#utility.yul\":1802:1807   */\n      dup2\n        /* \"#utility.yul\":1784:1808   */\n      tag_583\n      jump\t// in\n    tag_721:\n        /* \"#utility.yul\":1779:1782   */\n      dup3\n        /* \"#utility.yul\":1772:1809   */\n      mstore\n        /* \"#utility.yul\":1707:1815   */\n      pop\n      pop\n      jump\t// out\n        /* \"#utility.yul\":1821:2000   */\n    tag_585:\n        /* \"#utility.yul\":1890:1900   */\n      0x00\n        /* \"#utility.yul\":1911:1957   */\n      tag_723\n        /* \"#utility.yul\":1953:1956   */\n      dup4\n        /* \"#utility.yul\":1945:1951   */\n      dup4\n        /* \"#utility.yul\":1911:1957   */\n      tag_584\n      jump\t// in\n    tag_723:\n        /* \"#utility.yul\":1989:1993   */\n      0x20\n        /* \"#utility.yul\":1984:1987   */\n      dup4\n        /* \"#utility.yul\":1980:1994   */\n      add\n        /* \"#utility.yul\":1966:1994   */\n      swap1\n      pop\n        /* \"#utility.yul\":1821:2000   */\n      swap3\n      swap2\n      pop\n      pop\n      jump\t// out\n        /* \"#utility.yul\":2006:2119   */\n    tag_586:\n        /* \"#utility.yul\":2076:2080   */\n      0x00\n        /* \"#utility.yul\":2108:2112   */\n      0x20\n        /* \"#utility.yul\":2103:2106   */\n      dup3\n        /* \"#utility.yul\":2099:2113   */\n      add\n        /* \"#utility.yul\":2091:2113   */\n      swap1\n      pop\n        /* \"#utility.yul\":2006:2119   */\n      swap2\n      swap1\n      pop\n      jump\t// out\n        /* \"#utility.yul\":2155:2887   */\n    tag_587:\n        /* \"#utility.yul\":2274:2277   */\n      0x00\n        /* \"#utility.yul\":2303:2357   */\n      tag_726\n        /* \"#utility.yul\":2351:2356   */\n      dup3\n        /* \"#utility.yul\":2303:2357   */\n      tag_580\n      jump\t// in\n    tag_726:\n        /* \"#utility.yul\":2373:2459   */\n      tag_727\n        /* \"#utility.yul\":2452:2458   */\n      dup2\n        /* \"#utility.yul\":2447:2450   */\n      dup6\n        /* \"#utility.yul\":2373:2459   */\n      tag_581\n      jump\t// in\n    tag_727:\n        /* \"#utility.yul\":2366:2459   */\n      swap4\n      pop\n        /* \"#utility.yul\":2483:2539   */\n      tag_728\n        /* \"#utility.yul\":2533:2538   */\n      dup4\n        /* \"#utility.yul\":2483:2539   */\n      tag_582\n      jump\t// in\n    tag_728:\n        /* \"#utility.yul\":2562:2569   */\n      dup1\n        /* \"#utility.yul\":2593:2594   */\n      0x00\n        /* \"#utility.yul\":2578:2862   */\n    tag_729:\n        /* \"#utility.yul\":2603:2609   */\n      dup4\n        /* \"#utility.yul\":2600:2601   */\n      dup2\n        /* \"#utility.yul\":2597:2610   */\n      lt\n        /* \"#utility.yul\":2578:2862   */\n      iszero\n      tag_731\n      jumpi\n        /* \"#utility.yul\":2679:2685   */\n      dup2\n        /* \"#utility.yul\":2673:2686   */\n      mload\n        /* \"#utility.yul\":2706:2769   */\n      tag_732\n        /* \"#utility.yul\":2765:2768   */\n      dup9\n        /* \"#utility.yul\":2750:2763   */\n      dup3\n        /* \"#utility.yul\":2706:2769   */\n      tag_585\n      jump\t// in\n    tag_732:\n        /* \"#utility.yul\":2699:2769   */\n      swap8\n      pop\n        /* \"#utility.yul\":2792:2852   */\n      tag_733\n        /* \"#utility.yul\":2845:2851   */\n      dup4\n        /* \"#utility.yul\":2792:2852   */\n      tag_586\n      jump\t// in\n    tag_733:\n        /* \"#utility.yul\":2782:2852   */\n      swap3\n      pop\n        /* \"#utility.yul\":2638:2862   */\n      pop\n        /* \"#utility.yul\":2625:2626   */\n      0x01\n        /* \"#utility.yul\":2622:2623   */\n      dup2\n        /* \"#utility.yul\":2618:2627   */\n      add\n        /* \"#utility.yul\":2613:2627   */\n      swap1\n      pop\n        /* \"#utility.yul\":2578:2862   */\n      jump(tag_729)\n    tag_731:\n        /* \"#utility.yul\":2582:2596   */\n      pop\n        /* \"#utility.yul\":2878:2881   */\n      dup6\n        /* \"#utility.yul\":2871:2881   */\n      swap4\n      pop\n        /* \"#utility.yul\":2279:2887   */\n      pop\n      pop\n      pop\n        /* \"#utility.yul\":2155:2887   */\n      swap3\n      swap2\n      pop\n      pop\n      jump\t// out\n        /* \"#utility.yul\":2893:3266   */\n    tag_40:\n        /* \"#utility.yul\":3036:3040   */\n      0x00\n        /* \"#utility.yul\":3074:3076   */\n      0x20\n        /* \"#utility.yul\":3063:3072   */\n      dup3\n        /* \"#utility.yul\":3059:3077   */\n      add\n        /* \"#utility.yul\":3051:3077   */\n      swap1\n      pop\n        /* \"#utility.yul\":3123:3132   */\n      dup2\n        /* \"#utility.yul\":3117:3121   */\n      dup2\n        /* \"#utility.yul\":3113:3133   */\n      sub\n        /* \"#utility.yul\":3109:3110   */\n      0x00\n        /* \"#utility.yul\":3098:3107   */\n      dup4\n        /* \"#utility.yul\":3094:3111   */\n      add\n        /* \"#utility.yul\":3087:3134   */\n      mstore\n        /* \"#utility.yul\":3151:3259   */\n      tag_735\n        /* \"#utility.yul\":3254:3258   */\n      dup2\n        /* \"#utility.yul\":3245:3251   */\n      dup5\n        /* \"#utility.yul\":3151:3259   */\n      tag_587\n      jump\t// in\n    tag_735:\n        /* \"#utility.yul\":3143:3259   */\n      swap1\n      pop\n        /* \"#utility.yul\":2893:3266   */\n      swap3\n      swap2\n      pop\n      pop\n      jump\t// out\n        /* \"#utility.yul\":3272:3390   */\n    tag_588:\n        /* \"#utility.yul\":3359:3383   */\n      tag_737\n        /* \"#utility.yul\":3377:3382   */\n      dup2\n        /* \"#utility.yul\":3359:3383   */\n      tag_583\n      jump\t// in\n    tag_737:\n        /* \"#utility.yul\":3354:3357   */\n      dup3\n        /* \"#utility.yul\":3347:3384   */\n      mstore\n        /* \"#utility.yul\":3272:3390   */\n      pop\n      pop\n      jump\t// out\n        /* \"#utility.yul\":3396:3618   */\n    tag_45:\n        /* \"#utility.yul\":3489:3493   */\n      0x00\n        /* \"#utility.yul\":3527:3529   */\n      0x20\n        /* \"#utility.yul\":3516:3525   */\n      dup3\n        /* \"#utility.yul\":3512:3530   */\n      add\n        /* \"#utility.yul\":3504:3530   */\n      swap1\n      pop\n        /* \"#utility.yul\":3540:3611   */\n      tag_739\n        /* \"#utility.yul\":3608:3609   */\n      0x00\n        /* \"#utility.yul\":3597:3606   */\n      dup4\n        /* \"#utility.yul\":3593:3610   */\n      add\n        /* \"#utility.yul\":3584:3590   */\n      dup5\n        /* \"#utility.yul\":3540:3611   */\n      tag_588\n      jump\t// in\n    tag_739:\n        /* \"#utility.yul\":3396:3618   */\n      swap3\n      swap2\n      pop\n      pop\n      jump\t// out\n        /* \"#utility.yul\":3624:3746   */\n    tag_589:\n        /* \"#utility.yul\":3697:3721   */\n      tag_741\n        /* \"#utility.yul\":3715:3720   */\n      dup2\n        /* \"#utility.yul\":3697:3721   */\n      tag_583\n      jump\t// in\n    tag_741:\n        /* \"#utility.yul\":3690:3695   */\n      dup2\n        /* \"#utility.yul\":3687:3722   */\n      eq\n        /* \"#utility.yul\":3677:3740   */\n      tag_742\n      jumpi\n        /* \"#utility.yul\":3736:3737   */\n      0x00\n        /* \"#utility.yul\":3733:3734   */\n      dup1\n        /* \"#utility.yul\":3726:3738   */\n      revert\n        /* \"#utility.yul\":3677:3740   */\n    tag_742:\n        /* \"#utility.yul\":3624:3746   */\n      pop\n      jump\t// out\n        /* \"#utility.yul\":3752:3891   */\n    tag_590:\n        /* \"#utility.yul\":3798:3803   */\n      0x00\n        /* \"#utility.yul\":3836:3842   */\n      dup2\n        /* \"#utility.yul\":3823:3843   */\n      calldataload\n        /* \"#utility.yul\":3814:3843   */\n      swap1\n      pop\n        /* \"#utility.yul\":3852:3885   */\n      tag_744\n        /* \"#utility.yul\":3879:3884   */\n      dup2\n        /* \"#utility.yul\":3852:3885   */\n      tag_589\n      jump\t// in\n    tag_744:\n        /* \"#utility.yul\":3752:3891   */\n      swap3\n      swap2\n      pop\n      pop\n      jump\t// out\n        /* \"#utility.yul\":3897:4226   */\n    tag_49:\n        /* \"#utility.yul\":3956:3962   */\n      0x00\n        /* \"#utility.yul\":4005:4007   */\n      0x20\n        /* \"#utility.yul\":3993:4002   */\n      dup3\n        /* \"#utility.yul\":3984:3991   */\n      dup5\n        /* \"#utility.yul\":3980:4003   */\n      sub\n        /* \"#utility.yul\":3976:4008   */\n      slt\n        /* \"#utility.yul\":3973:4092   */\n      iszero\n      tag_746\n      jumpi\n        /* \"#utility.yul\":4011:4090   */\n      tag_747\n      tag_574\n      jump\t// in\n    tag_747:\n        /* \"#utility.yul\":3973:4092   */\n    tag_746:\n        /* \"#utility.yul\":4131:4132   */\n      0x00\n        /* \"#utility.yul\":4156:4209   */\n      tag_748\n        /* \"#utility.yul\":4201:4208   */\n      dup5\n        /* \"#utility.yul\":4192:4198   */\n      dup3\n        /* \"#utility.yul\":4181:4190   */\n      dup6\n        /* \"#utility.yul\":4177:4199   */\n      add\n        /* \"#utility.yul\":4156:4209   */\n      tag_590\n      jump\t// in\n    tag_748:\n        /* \"#utility.yul\":4146:4209   */\n      swap2\n      pop\n        /* \"#utility.yul\":4102:4219   */\n      pop\n        /* \"#utility.yul\":3897:4226   */\n      swap3\n      swap2\n      pop\n      pop\n      jump\t// out\n        /* \"#utility.yul\":4232:4369   */\n    tag_591:\n        /* \"#utility.yul\":4322:4328   */\n      0x00\n        /* \"#utility.yul\":4356:4361   */\n      dup2\n        /* \"#utility.yul\":4350:4362   */\n      mload\n        /* \"#utility.yul\":4340:4362   */\n      swap1\n      pop\n        /* \"#utility.yul\":4232:4369   */\n      swap2\n      swap1\n      pop\n      jump\t// out\n        /* \"#utility.yul\":4375:4559   */\n    tag_592:\n        /* \"#utility.yul\":4474:4485   */\n      0x00\n        /* \"#utility.yul\":4508:4514   */\n      dup3\n        /* \"#utility.yul\":4503:4506   */\n      dup3\n        /* \"#utility.yul\":4496:4515   */\n      mstore\n        /* \"#utility.yul\":4548:4552   */\n      0x20\n        /* \"#utility.yul\":4543:4546   */\n      dup3\n        /* \"#utility.yul\":4539:4553   */\n      add\n        /* \"#utility.yul\":4524:4553   */\n      swap1\n      pop\n        /* \"#utility.yul\":4375:4559   */\n      swap3\n      swap2\n      pop\n      pop\n      jump\t// out\n        /* \"#utility.yul\":4565:4720   */\n    tag_593:\n        /* \"#utility.yul\":4655:4659   */\n      0x00\n        /* \"#utility.yul\":4678:4681   */\n      dup2\n        /* \"#utility.yul\":4670:4681   */\n      swap1\n      pop\n        /* \"#utility.yul\":4708:4712   */\n      0x20\n        /* \"#utility.yul\":4703:4706   */\n      dup3\n        /* \"#utility.yul\":4699:4713   */\n      add\n        /* \"#utility.yul\":4691:4713   */\n      swap1\n      pop\n        /* \"#utility.yul\":4565:4720   */\n      swap2\n      swap1\n      pop\n      jump\t// out\n        /* \"#utility.yul\":4726:4786   */\n    tag_594:\n        /* \"#utility.yul\":4754:4757   */\n      0x00\n        /* \"#utility.yul\":4775:4780   */\n      dup2\n        /* \"#utility.yul\":4768:4780   */\n      swap1\n      pop\n        /* \"#utility.yul\":4726:4786   */\n      swap2\n      swap1\n      pop\n      jump\t// out\n        /* \"#utility.yul\":4792:4934   */\n    tag_595:\n        /* \"#utility.yul\":4842:4851   */\n      0x00\n        /* \"#utility.yul\":4875:4928   */\n      tag_754\n        /* \"#utility.yul\":4893:4927   */\n      tag_755\n        /* \"#utility.yul\":4902:4926   */\n      tag_756\n        /* \"#utility.yul\":4920:4925   */\n      dup5\n        /* \"#utility.yul\":4902:4926   */\n      tag_576\n      jump\t// in\n    tag_756:\n        /* \"#utility.yul\":4893:4927   */\n      tag_594\n      jump\t// in\n    tag_755:\n        /* \"#utility.yul\":4875:4928   */\n      tag_576\n      jump\t// in\n    tag_754:\n        /* \"#utility.yul\":4862:4928   */\n      swap1\n      pop\n        /* \"#utility.yul\":4792:4934   */\n      swap2\n      swap1\n      pop\n      jump\t// out\n        /* \"#utility.yul\":4940:5066   */\n    tag_596:\n        /* \"#utility.yul\":4990:4999   */\n      0x00\n        /* \"#utility.yul\":5023:5060   */\n      tag_758\n        /* \"#utility.yul\":5054:5059   */\n      dup3\n        /* \"#utility.yul\":5023:5060   */\n      tag_595\n      jump\t// in\n    tag_758:\n        /* \"#utility.yul\":5010:5060   */\n      swap1\n      pop\n        /* \"#utility.yul\":4940:5066   */\n      swap2\n      swap1\n      pop\n      jump\t// out\n        /* \"#utility.yul\":5072:5221   */\n    tag_597:\n        /* \"#utility.yul\":5145:5154   */\n      0x00\n        /* \"#utility.yul\":5178:5215   */\n      tag_760\n        /* \"#utility.yul\":5209:5214   */\n      dup3\n        /* \"#utility.yul\":5178:5215   */\n      tag_596\n      jump\t// in\n    tag_760:\n        /* \"#utility.yul\":5165:5215   */\n      swap1\n      pop\n        /* \"#utility.yul\":5072:5221   */\n      swap2\n      swap1\n      pop\n      jump\t// out\n        /* \"#utility.yul\":5227:5394   */\n    tag_598:\n        /* \"#utility.yul\":5327:5387   */\n      tag_762\n        /* \"#utility.yul\":5381:5386   */\n      dup2\n        /* \"#utility.yul\":5327:5387   */\n      tag_597\n      jump\t// in\n    tag_762:\n        /* \"#utility.yul\":5322:5325   */\n      dup3\n        /* \"#utility.yul\":5315:5388   */\n      mstore\n        /* \"#utility.yul\":5227:5394   */\n      pop\n      pop\n      jump\t// out\n        /* \"#utility.yul\":5400:5625   */\n    tag_599:\n        /* \"#utility.yul\":5492:5502   */\n      0x00\n        /* \"#utility.yul\":5513:5582   */\n      tag_764\n        /* \"#utility.yul\":5578:5581   */\n      dup4\n        /* \"#utility.yul\":5570:5576   */\n      dup4\n        /* \"#utility.yul\":5513:5582   */\n      tag_598\n      jump\t// in\n    tag_764:\n        /* \"#utility.yul\":5614:5618   */\n      0x20\n        /* \"#utility.yul\":5609:5612   */\n      dup4\n        /* \"#utility.yul\":5605:5619   */\n      add\n        /* \"#utility.yul\":5591:5619   */\n      swap1\n      pop\n        /* \"#utility.yul\":5400:5625   */\n      swap3\n      swap2\n      pop\n      pop\n      jump\t// out\n        /* \"#utility.yul\":5631:5767   */\n    tag_600:\n        /* \"#utility.yul\":5724:5728   */\n      0x00\n        /* \"#utility.yul\":5756:5760   */\n      0x20\n        /* \"#utility.yul\":5751:5754   */\n      dup3\n        /* \"#utility.yul\":5747:5761   */\n      add\n        /* \"#utility.yul\":5739:5761   */\n      swap1\n      pop\n        /* \"#utility.yul\":5631:5767   */\n      swap2\n      swap1\n      pop\n      jump\t// out\n        /* \"#utility.yul\":5820:6667   */\n    tag_601:\n        /* \"#utility.yul\":5962:5965   */\n      0x00\n        /* \"#utility.yul\":5991:6068   */\n      tag_767\n        /* \"#utility.yul\":6062:6067   */\n      dup3\n        /* \"#utility.yul\":5991:6068   */\n      tag_591\n      jump\t// in\n    tag_767:\n        /* \"#utility.yul\":6084:6170   */\n      tag_768\n        /* \"#utility.yul\":6163:6169   */\n      dup2\n        /* \"#utility.yul\":6158:6161   */\n      dup6\n        /* \"#utility.yul\":6084:6170   */\n      tag_592\n      jump\t// in\n    tag_768:\n        /* \"#utility.yul\":6077:6170   */\n      swap4\n      pop\n        /* \"#utility.yul\":6194:6273   */\n      tag_769\n        /* \"#utility.yul\":6267:6272   */\n      dup4\n        /* \"#utility.yul\":6194:6273   */\n      tag_593\n      jump\t// in\n    tag_769:\n        /* \"#utility.yul\":6296:6303   */\n      dup1\n        /* \"#utility.yul\":6327:6328   */\n      0x00\n        /* \"#utility.yul\":6312:6642   */\n    tag_770:\n        /* \"#utility.yul\":6337:6343   */\n      dup4\n        /* \"#utility.yul\":6334:6335   */\n      dup2\n        /* \"#utility.yul\":6331:6344   */\n      lt\n        /* \"#utility.yul\":6312:6642   */\n      iszero\n      tag_772\n      jumpi\n        /* \"#utility.yul\":6413:6419   */\n      dup2\n        /* \"#utility.yul\":6407:6420   */\n      mload\n        /* \"#utility.yul\":6440:6526   */\n      tag_773\n        /* \"#utility.yul\":6522:6525   */\n      dup9\n        /* \"#utility.yul\":6507:6520   */\n      dup3\n        /* \"#utility.yul\":6440:6526   */\n      tag_599\n      jump\t// in\n    tag_773:\n        /* \"#utility.yul\":6433:6526   */\n      swap8\n      pop\n        /* \"#utility.yul\":6549:6632   */\n      tag_774\n        /* \"#utility.yul\":6625:6631   */\n      dup4\n        /* \"#utility.yul\":6549:6632   */\n      tag_600\n      jump\t// in\n    tag_774:\n        /* \"#utility.yul\":6539:6632   */\n      swap3\n      pop\n        /* \"#utility.yul\":6372:6642   */\n      pop\n        /* \"#utility.yul\":6359:6360   */\n      0x01\n        /* \"#utility.yul\":6356:6357   */\n      dup2\n        /* \"#utility.yul\":6352:6361   */\n      add\n        /* \"#utility.yul\":6347:6361   */\n      swap1\n      pop\n        /* \"#utility.yul\":6312:6642   */\n      jump(tag_770)\n    tag_772:\n        /* \"#utility.yul\":6316:6330   */\n      pop\n        /* \"#utility.yul\":6658:6661   */\n      dup6\n        /* \"#utility.yul\":6651:6661   */\n      swap4\n      pop\n        /* \"#utility.yul\":5967:6667   */\n      pop\n      pop\n      pop\n        /* \"#utility.yul\":5820:6667   */\n      swap3\n      swap2\n      pop\n      pop\n      jump\t// out\n        /* \"#utility.yul\":6673:7092   */\n    tag_55:\n        /* \"#utility.yul\":6839:6843   */\n      0x00\n        /* \"#utility.yul\":6877:6879   */\n      0x20\n        /* \"#utility.yul\":6866:6875   */\n      dup3\n        /* \"#utility.yul\":6862:6880   */\n      add\n        /* \"#utility.yul\":6854:6880   */\n      swap1\n      pop\n        /* \"#utility.yul\":6926:6935   */\n      dup2\n        /* \"#utility.yul\":6920:6924   */\n      dup2\n        /* \"#utility.yul\":6916:6936   */\n      sub\n        /* \"#utility.yul\":6912:6913   */\n      0x00\n        /* \"#utility.yul\":6901:6910   */\n      dup4\n        /* \"#utility.yul\":6897:6914   */\n      add\n        /* \"#utility.yul\":6890:6937   */\n      mstore\n        /* \"#utility.yul\":6954:7085   */\n      tag_776\n        /* \"#utility.yul\":7080:7084   */\n      dup2\n        /* \"#utility.yul\":7071:7077   */\n      dup5\n        /* \"#utility.yul\":6954:7085   */\n      tag_601\n      jump\t// in\n    tag_776:\n        /* \"#utility.yul\":6946:7085   */\n      swap1\n      pop\n        /* \"#utility.yul\":6673:7092   */\n      swap3\n      swap2\n      pop\n      pop\n      jump\t// out\n        /* \"#utility.yul\":7098:7278   */\n    tag_192:\n        /* \"#utility.yul\":7146:7223   */\n      0x4e487b7100000000000000000000000000000000000000000000000000000000\n        /* \"#utility.yul\":7143:7144   */\n      0x00\n        /* \"#utility.yul\":7136:7224   */\n      mstore\n        /* \"#utility.yul\":7243:7247   */\n      0x21\n        /* \"#utility.yul\":7240:7241   */\n      0x04\n        /* \"#utility.yul\":7233:7248   */\n      mstore\n        /* \"#utility.yul\":7267:7271   */\n      0x24\n        /* \"#utility.yul\":7264:7265   */\n      0x00\n        /* \"#utility.yul\":7257:7272   */\n      revert\n        /* \"#utility.yul\":7284:7402   */\n    tag_602:\n        /* \"#utility.yul\":7370:7371   */\n      0x03\n        /* \"#utility.yul\":7363:7368   */\n      dup2\n        /* \"#utility.yul\":7360:7372   */\n      lt\n        /* \"#utility.yul\":7350:7396   */\n      tag_779\n      jumpi\n        /* \"#utility.yul\":7376:7394   */\n      tag_780\n      tag_192\n      jump\t// in\n    tag_780:\n        /* \"#utility.yul\":7350:7396   */\n    tag_779:\n        /* \"#utility.yul\":7284:7402   */\n      pop\n      jump\t// out\n        /* \"#utility.yul\":7408:7545   */\n    tag_603:\n        /* \"#utility.yul\":7458:7465   */\n      0x00\n        /* \"#utility.yul\":7487:7492   */\n      dup2\n        /* \"#utility.yul\":7476:7492   */\n      swap1\n      pop\n        /* \"#utility.yul\":7493:7539   */\n      tag_782\n        /* \"#utility.yul\":7533:7538   */\n      dup3\n        /* \"#utility.yul\":7493:7539   */\n      tag_602\n      jump\t// in\n    tag_782:\n        /* \"#utility.yul\":7408:7545   */\n      swap2\n      swap1\n      pop\n      jump\t// out\n        /* \"#utility.yul\":7551:7688   */\n    tag_604:\n        /* \"#utility.yul\":7612:7621   */\n      0x00\n        /* \"#utility.yul\":7645:7682   */\n      tag_784\n        /* \"#utility.yul\":7676:7681   */\n      dup3\n        /* \"#utility.yul\":7645:7682   */\n      tag_603\n      jump\t// in\n    tag_784:\n        /* \"#utility.yul\":7632:7682   */\n      swap1\n      pop\n        /* \"#utility.yul\":7551:7688   */\n      swap2\n      swap1\n      pop\n      jump\t// out\n        /* \"#utility.yul\":7694:7837   */\n    tag_605:\n        /* \"#utility.yul\":7782:7830   */\n      tag_786\n        /* \"#utility.yul\":7824:7829   */\n      dup2\n        /* \"#utility.yul\":7782:7830   */\n      tag_604\n      jump\t// in\n    tag_786:\n        /* \"#utility.yul\":7777:7780   */\n      dup3\n        /* \"#utility.yul\":7770:7831   */\n      mstore\n        /* \"#utility.yul\":7694:7837   */\n      pop\n      pop\n      jump\t// out\n        /* \"#utility.yul\":7843:7951   */\n    tag_606:\n        /* \"#utility.yul\":7920:7944   */\n      tag_788\n        /* \"#utility.yul\":7938:7943   */\n      dup2\n        /* \"#utility.yul\":7920:7944   */\n      tag_577\n      jump\t// in\n    tag_788:\n        /* \"#utility.yul\":7915:7918   */\n      dup3\n        /* \"#utility.yul\":7908:7945   */\n      mstore\n        /* \"#utility.yul\":7843:7951   */\n      pop\n      pop\n      jump\t// out\n        /* \"#utility.yul\":7957:8093   */\n    tag_607:\n        /* \"#utility.yul\":8046:8052   */\n      0x00\n        /* \"#utility.yul\":8080:8085   */\n      dup2\n        /* \"#utility.yul\":8074:8086   */\n      mload\n        /* \"#utility.yul\":8064:8086   */\n      swap1\n      pop\n        /* \"#utility.yul\":7957:8093   */\n      swap2\n      swap1\n      pop\n      jump\t// out\n        /* \"#utility.yul\":8099:8295   */\n    tag_608:\n        /* \"#utility.yul\":8210:8221   */\n      0x00\n        /* \"#utility.yul\":8244:8250   */\n      dup3\n        /* \"#utility.yul\":8239:8242   */\n      dup3\n        /* \"#utility.yul\":8232:8251   */\n      mstore\n        /* \"#utility.yul\":8284:8288   */\n      0x20\n        /* \"#utility.yul\":8279:8282   */\n      dup3\n        /* \"#utility.yul\":8275:8289   */\n      add\n        /* \"#utility.yul\":8260:8289   */\n      swap1\n      pop\n        /* \"#utility.yul\":8099:8295   */\n      swap3\n      swap2\n      pop\n      pop\n      jump\t// out\n        /* \"#utility.yul\":8301:8455   */\n    tag_609:\n        /* \"#utility.yul\":8390:8394   */\n      0x00\n        /* \"#utility.yul\":8413:8416   */\n      dup2\n        /* \"#utility.yul\":8405:8416   */\n      swap1\n      pop\n        /* \"#utility.yul\":8443:8447   */\n      0x20\n        /* \"#utility.yul\":8438:8441   */\n      dup3\n        /* \"#utility.yul\":8434:8448   */\n      add\n        /* \"#utility.yul\":8426:8448   */\n      swap1\n      pop\n        /* \"#utility.yul\":8301:8455   */\n      swap2\n      swap1\n      pop\n      jump\t// out\n        /* \"#utility.yul\":8461:8538   */\n    tag_610:\n        /* \"#utility.yul\":8498:8505   */\n      0x00\n        /* \"#utility.yul\":8527:8532   */\n      dup2\n        /* \"#utility.yul\":8516:8532   */\n      swap1\n      pop\n        /* \"#utility.yul\":8461:8538   */\n      swap2\n      swap1\n      pop\n      jump\t// out\n        /* \"#utility.yul\":8544:8652   */\n    tag_611:\n        /* \"#utility.yul\":8621:8645   */\n      tag_794\n        /* \"#utility.yul\":8639:8644   */\n      dup2\n        /* \"#utility.yul\":8621:8645   */\n      tag_610\n      jump\t// in\n    tag_794:\n        /* \"#utility.yul\":8616:8619   */\n      dup3\n        /* \"#utility.yul\":8609:8646   */\n      mstore\n        /* \"#utility.yul\":8544:8652   */\n      pop\n      pop\n      jump\t// out\n        /* \"#utility.yul\":8716:9385   */\n    tag_612:\n        /* \"#utility.yul\":8847:8851   */\n      0x60\n        /* \"#utility.yul\":8842:8845   */\n      dup3\n        /* \"#utility.yul\":8838:8852   */\n      add\n        /* \"#utility.yul\":8933:8937   */\n      0x00\n        /* \"#utility.yul\":8926:8931   */\n      dup3\n        /* \"#utility.yul\":8922:8938   */\n      add\n        /* \"#utility.yul\":8916:8939   */\n      mload\n        /* \"#utility.yul\":8952:9015   */\n      tag_796\n        /* \"#utility.yul\":9009:9013   */\n      0x00\n        /* \"#utility.yul\":9004:9007   */\n      dup6\n        /* \"#utility.yul\":9000:9014   */\n      add\n        /* \"#utility.yul\":8986:8998   */\n      dup3\n        /* \"#utility.yul\":8952:9015   */\n      tag_606\n      jump\t// in\n    tag_796:\n        /* \"#utility.yul\":8862:9025   */\n      pop\n        /* \"#utility.yul\":9110:9114   */\n      0x20\n        /* \"#utility.yul\":9103:9108   */\n      dup3\n        /* \"#utility.yul\":9099:9115   */\n      add\n        /* \"#utility.yul\":9093:9116   */\n      mload\n        /* \"#utility.yul\":9129:9192   */\n      tag_797\n        /* \"#utility.yul\":9186:9190   */\n      0x20\n        /* \"#utility.yul\":9181:9184   */\n      dup6\n        /* \"#utility.yul\":9177:9191   */\n      add\n        /* \"#utility.yul\":9163:9175   */\n      dup3\n        /* \"#utility.yul\":9129:9192   */\n      tag_611\n      jump\t// in\n    tag_797:\n        /* \"#utility.yul\":9035:9202   */\n      pop\n        /* \"#utility.yul\":9286:9290   */\n      0x40\n        /* \"#utility.yul\":9279:9284   */\n      dup3\n        /* \"#utility.yul\":9275:9291   */\n      add\n        /* \"#utility.yul\":9269:9292   */\n      mload\n        /* \"#utility.yul\":9305:9368   */\n      tag_798\n        /* \"#utility.yul\":9362:9366   */\n      0x40\n        /* \"#utility.yul\":9357:9360   */\n      dup6\n        /* \"#utility.yul\":9353:9367   */\n      add\n        /* \"#utility.yul\":9339:9351   */\n      dup3\n        /* \"#utility.yul\":9305:9368   */\n      tag_584\n      jump\t// in\n    tag_798:\n        /* \"#utility.yul\":9212:9378   */\n      pop\n        /* \"#utility.yul\":8816:9385   */\n      pop\n        /* \"#utility.yul\":8716:9385   */\n      pop\n      pop\n      jump\t// out\n        /* \"#utility.yul\":9391:9658   */\n    tag_613:\n        /* \"#utility.yul\":9504:9514   */\n      0x00\n        /* \"#utility.yul\":9525:9615   */\n      tag_800\n        /* \"#utility.yul\":9611:9614   */\n      dup4\n        /* \"#utility.yul\":9603:9609   */\n      dup4\n        /* \"#utility.yul\":9525:9615   */\n      tag_612\n      jump\t// in\n    tag_800:\n        /* \"#utility.yul\":9647:9651   */\n      0x60\n        /* \"#utility.yul\":9642:9645   */\n      dup4\n        /* \"#utility.yul\":9638:9652   */\n      add\n        /* \"#utility.yul\":9624:9652   */\n      swap1\n      pop\n        /* \"#utility.yul\":9391:9658   */\n      swap3\n      swap2\n      pop\n      pop\n      jump\t// out\n        /* \"#utility.yul\":9664:9799   */\n    tag_614:\n        /* \"#utility.yul\":9756:9760   */\n      0x00\n        /* \"#utility.yul\":9788:9792   */\n      0x20\n        /* \"#utility.yul\":9783:9786   */\n      dup3\n        /* \"#utility.yul\":9779:9793   */\n      add\n        /* \"#utility.yul\":9771:9793   */\n      swap1\n      pop\n        /* \"#utility.yul\":9664:9799   */\n      swap2\n      swap1\n      pop\n      jump\t// out\n        /* \"#utility.yul\":9867:10755   */\n    tag_615:\n        /* \"#utility.yul\":10020:10023   */\n      0x00\n        /* \"#utility.yul\":10049:10125   */\n      tag_803\n        /* \"#utility.yul\":10119:10124   */\n      dup3\n        /* \"#utility.yul\":10049:10125   */\n      tag_607\n      jump\t// in\n    tag_803:\n        /* \"#utility.yul\":10141:10239   */\n      tag_804\n        /* \"#utility.yul\":10232:10238   */\n      dup2\n        /* \"#utility.yul\":10227:10230   */\n      dup6\n        /* \"#utility.yul\":10141:10239   */\n      tag_608\n      jump\t// in\n    tag_804:\n        /* \"#utility.yul\":10134:10239   */\n      swap4\n      pop\n        /* \"#utility.yul\":10263:10341   */\n      tag_805\n        /* \"#utility.yul\":10335:10340   */\n      dup4\n        /* \"#utility.yul\":10263:10341   */\n      tag_609\n      jump\t// in\n    tag_805:\n        /* \"#utility.yul\":10364:10371   */\n      dup1\n        /* \"#utility.yul\":10395:10396   */\n      0x00\n        /* \"#utility.yul\":10380:10730   */\n    tag_806:\n        /* \"#utility.yul\":10405:10411   */\n      dup4\n        /* \"#utility.yul\":10402:10403   */\n      dup2\n        /* \"#utility.yul\":10399:10412   */\n      lt\n        /* \"#utility.yul\":10380:10730   */\n      iszero\n      tag_808\n      jumpi\n        /* \"#utility.yul\":10481:10487   */\n      dup2\n        /* \"#utility.yul\":10475:10488   */\n      mload\n        /* \"#utility.yul\":10508:10615   */\n      tag_809\n        /* \"#utility.yul\":10611:10614   */\n      dup9\n        /* \"#utility.yul\":10596:10609   */\n      dup3\n        /* \"#utility.yul\":10508:10615   */\n      tag_613\n      jump\t// in\n    tag_809:\n        /* \"#utility.yul\":10501:10615   */\n      swap8\n      pop\n        /* \"#utility.yul\":10638:10720   */\n      tag_810\n        /* \"#utility.yul\":10713:10719   */\n      dup4\n        /* \"#utility.yul\":10638:10720   */\n      tag_614\n      jump\t// in\n    tag_810:\n        /* \"#utility.yul\":10628:10720   */\n      swap3\n      pop\n        /* \"#utility.yul\":10440:10730   */\n      pop\n        /* \"#utility.yul\":10427:10428   */\n      0x01\n        /* \"#utility.yul\":10424:10425   */\n      dup2\n        /* \"#utility.yul\":10420:10429   */\n      add\n        /* \"#utility.yul\":10415:10429   */\n      swap1\n      pop\n        /* \"#utility.yul\":10380:10730   */\n      jump(tag_806)\n    tag_808:\n        /* \"#utility.yul\":10384:10398   */\n      pop\n        /* \"#utility.yul\":10746:10749   */\n      dup6\n        /* \"#utility.yul\":10739:10749   */\n      swap4\n      pop\n        /* \"#utility.yul\":10025:10755   */\n      pop\n      pop\n      pop\n        /* \"#utility.yul\":9867:10755   */\n      swap3\n      swap2\n      pop\n      pop\n      jump\t// out\n        /* \"#utility.yul\":10761:10875   */\n    tag_616:\n        /* \"#utility.yul\":10828:10834   */\n      0x00\n        /* \"#utility.yul\":10862:10867   */\n      dup2\n        /* \"#utility.yul\":10856:10868   */\n      mload\n        /* \"#utility.yul\":10846:10868   */\n      swap1\n      pop\n        /* \"#utility.yul\":10761:10875   */\n      swap2\n      swap1\n      pop\n      jump\t// out\n        /* \"#utility.yul\":10881:11055   */\n    tag_617:\n        /* \"#utility.yul\":10970:10981   */\n      0x00\n        /* \"#utility.yul\":11004:11010   */\n      dup3\n        /* \"#utility.yul\":10999:11002   */\n      dup3\n        /* \"#utility.yul\":10992:11011   */\n      mstore\n        /* \"#utility.yul\":11044:11048   */\n      0x20\n        /* \"#utility.yul\":11039:11042   */\n      dup3\n        /* \"#utility.yul\":11035:11049   */\n      add\n        /* \"#utility.yul\":11020:11049   */\n      swap1\n      pop\n        /* \"#utility.yul\":10881:11055   */\n      swap3\n      swap2\n      pop\n      pop\n      jump\t// out\n        /* \"#utility.yul\":11061:11193   */\n    tag_618:\n        /* \"#utility.yul\":11128:11132   */\n      0x00\n        /* \"#utility.yul\":11151:11154   */\n      dup2\n        /* \"#utility.yul\":11143:11154   */\n      swap1\n      pop\n        /* \"#utility.yul\":11181:11185   */\n      0x20\n        /* \"#utility.yul\":11176:11179   */\n      dup3\n        /* \"#utility.yul\":11172:11186   */\n      add\n        /* \"#utility.yul\":11164:11186   */\n      swap1\n      pop\n        /* \"#utility.yul\":11061:11193   */\n      swap2\n      swap1\n      pop\n      jump\t// out\n        /* \"#utility.yul\":11199:11378   */\n    tag_619:\n        /* \"#utility.yul\":11268:11278   */\n      0x00\n        /* \"#utility.yul\":11289:11335   */\n      tag_815\n        /* \"#utility.yul\":11331:11334   */\n      dup4\n        /* \"#utility.yul\":11323:11329   */\n      dup4\n        /* \"#utility.yul\":11289:11335   */\n      tag_606\n      jump\t// in\n    tag_815:\n        /* \"#utility.yul\":11367:11371   */\n      0x20\n        /* \"#utility.yul\":11362:11365   */\n      dup4\n        /* \"#utility.yul\":11358:11372   */\n      add\n        /* \"#utility.yul\":11344:11372   */\n      swap1\n      pop\n        /* \"#utility.yul\":11199:11378   */\n      swap3\n      swap2\n      pop\n      pop\n      jump\t// out\n        /* \"#utility.yul\":11384:11497   */\n    tag_620:\n        /* \"#utility.yul\":11454:11458   */\n      0x00\n        /* \"#utility.yul\":11486:11490   */\n      0x20\n        /* \"#utility.yul\":11481:11484   */\n      dup3\n        /* \"#utility.yul\":11477:11491   */\n      add\n        /* \"#utility.yul\":11469:11491   */\n      swap1\n      pop\n        /* \"#utility.yul\":11384:11497   */\n      swap2\n      swap1\n      pop\n      jump\t// out\n        /* \"#utility.yul\":11533:12245   */\n    tag_621:\n        /* \"#utility.yul\":11642:11645   */\n      0x00\n        /* \"#utility.yul\":11671:11725   */\n      tag_818\n        /* \"#utility.yul\":11719:11724   */\n      dup3\n        /* \"#utility.yul\":11671:11725   */\n      tag_616\n      jump\t// in\n    tag_818:\n        /* \"#utility.yul\":11741:11817   */\n      tag_819\n        /* \"#utility.yul\":11810:11816   */\n      dup2\n        /* \"#utility.yul\":11805:11808   */\n      dup6\n        /* \"#utility.yul\":11741:11817   */\n      tag_617\n      jump\t// in\n    tag_819:\n        /* \"#utility.yul\":11734:11817   */\n      swap4\n      pop\n        /* \"#utility.yul\":11841:11897   */\n      tag_820\n        /* \"#utility.yul\":11891:11896   */\n      dup4\n        /* \"#utility.yul\":11841:11897   */\n      tag_618\n      jump\t// in\n    tag_820:\n        /* \"#utility.yul\":11920:11927   */\n      dup1\n        /* \"#utility.yul\":11951:11952   */\n      0x00\n        /* \"#utility.yul\":11936:12220   */\n    tag_821:\n        /* \"#utility.yul\":11961:11967   */\n      dup4\n        /* \"#utility.yul\":11958:11959   */\n      dup2\n        /* \"#utility.yul\":11955:11968   */\n      lt\n        /* \"#utility.yul\":11936:12220   */\n      iszero\n      tag_823\n      jumpi\n        /* \"#utility.yul\":12037:12043   */\n      dup2\n        /* \"#utility.yul\":12031:12044   */\n      mload\n        /* \"#utility.yul\":12064:12127   */\n      tag_824\n        /* \"#utility.yul\":12123:12126   */\n      dup9\n        /* \"#utility.yul\":12108:12121   */\n      dup3\n        /* \"#utility.yul\":12064:12127   */\n      tag_619\n      jump\t// in\n    tag_824:\n        /* \"#utility.yul\":12057:12127   */\n      swap8\n      pop\n        /* \"#utility.yul\":12150:12210   */\n      tag_825\n        /* \"#utility.yul\":12203:12209   */\n      dup4\n        /* \"#utility.yul\":12150:12210   */\n      tag_620\n      jump\t// in\n    tag_825:\n        /* \"#utility.yul\":12140:12210   */\n      swap3\n      pop\n        /* \"#utility.yul\":11996:12220   */\n      pop\n        /* \"#utility.yul\":11983:11984   */\n      0x01\n        /* \"#utility.yul\":11980:11981   */\n      dup2\n        /* \"#utility.yul\":11976:11985   */\n      add\n        /* \"#utility.yul\":11971:11985   */\n      swap1\n      pop\n        /* \"#utility.yul\":11936:12220   */\n      jump(tag_821)\n    tag_823:\n        /* \"#utility.yul\":11940:11954   */\n      pop\n        /* \"#utility.yul\":12236:12239   */\n      dup6\n        /* \"#utility.yul\":12229:12239   */\n      swap4\n      pop\n        /* \"#utility.yul\":11647:12245   */\n      pop\n      pop\n      pop\n        /* \"#utility.yul\":11533:12245   */\n      swap3\n      swap2\n      pop\n      pop\n      jump\t// out\n        /* \"#utility.yul\":12307:13940   */\n    tag_622:\n        /* \"#utility.yul\":12418:12421   */\n      0x00\n        /* \"#utility.yul\":12454:12458   */\n      0xc0\n        /* \"#utility.yul\":12449:12452   */\n      dup4\n        /* \"#utility.yul\":12445:12459   */\n      add\n        /* \"#utility.yul\":12539:12543   */\n      0x00\n        /* \"#utility.yul\":12532:12537   */\n      dup4\n        /* \"#utility.yul\":12528:12544   */\n      add\n        /* \"#utility.yul\":12522:12545   */\n      mload\n        /* \"#utility.yul\":12558:12621   */\n      tag_827\n        /* \"#utility.yul\":12615:12619   */\n      0x00\n        /* \"#utility.yul\":12610:12613   */\n      dup7\n        /* \"#utility.yul\":12606:12620   */\n      add\n        /* \"#utility.yul\":12592:12604   */\n      dup3\n        /* \"#utility.yul\":12558:12621   */\n      tag_584\n      jump\t// in\n    tag_827:\n        /* \"#utility.yul\":12469:12631   */\n      pop\n        /* \"#utility.yul\":12714:12718   */\n      0x20\n        /* \"#utility.yul\":12707:12712   */\n      dup4\n        /* \"#utility.yul\":12703:12719   */\n      add\n        /* \"#utility.yul\":12697:12720   */\n      mload\n        /* \"#utility.yul\":12733:12807   */\n      tag_828\n        /* \"#utility.yul\":12801:12805   */\n      0x20\n        /* \"#utility.yul\":12796:12799   */\n      dup7\n        /* \"#utility.yul\":12792:12806   */\n      add\n        /* \"#utility.yul\":12778:12790   */\n      dup3\n        /* \"#utility.yul\":12733:12807   */\n      tag_605\n      jump\t// in\n    tag_828:\n        /* \"#utility.yul\":12641:12817   */\n      pop\n        /* \"#utility.yul\":12901:12905   */\n      0x40\n        /* \"#utility.yul\":12894:12899   */\n      dup4\n        /* \"#utility.yul\":12890:12906   */\n      add\n        /* \"#utility.yul\":12884:12907   */\n      mload\n        /* \"#utility.yul\":12920:12983   */\n      tag_829\n        /* \"#utility.yul\":12977:12981   */\n      0x40\n        /* \"#utility.yul\":12972:12975   */\n      dup7\n        /* \"#utility.yul\":12968:12982   */\n      add\n        /* \"#utility.yul\":12954:12966   */\n      dup3\n        /* \"#utility.yul\":12920:12983   */\n      tag_606\n      jump\t// in\n    tag_829:\n        /* \"#utility.yul\":12827:12993   */\n      pop\n        /* \"#utility.yul\":13076:13080   */\n      0x60\n        /* \"#utility.yul\":13069:13074   */\n      dup4\n        /* \"#utility.yul\":13065:13081   */\n      add\n        /* \"#utility.yul\":13059:13082   */\n      mload\n        /* \"#utility.yul\":13129:13132   */\n      dup5\n        /* \"#utility.yul\":13123:13127   */\n      dup3\n        /* \"#utility.yul\":13119:13133   */\n      sub\n        /* \"#utility.yul\":13112:13116   */\n      0x60\n        /* \"#utility.yul\":13107:13110   */\n      dup7\n        /* \"#utility.yul\":13103:13117   */\n      add\n        /* \"#utility.yul\":13096:13134   */\n      mstore\n        /* \"#utility.yul\":13155:13302   */\n      tag_830\n        /* \"#utility.yul\":13297:13301   */\n      dup3\n        /* \"#utility.yul\":13283:13295   */\n      dup3\n        /* \"#utility.yul\":13155:13302   */\n      tag_615\n      jump\t// in\n    tag_830:\n        /* \"#utility.yul\":13147:13302   */\n      swap2\n      pop\n        /* \"#utility.yul\":13003:13313   */\n      pop\n        /* \"#utility.yul\":13399:13403   */\n      0x80\n        /* \"#utility.yul\":13392:13397   */\n      dup4\n        /* \"#utility.yul\":13388:13404   */\n      add\n        /* \"#utility.yul\":13382:13405   */\n      mload\n        /* \"#utility.yul\":13452:13455   */\n      dup5\n        /* \"#utility.yul\":13446:13450   */\n      dup3\n        /* \"#utility.yul\":13442:13456   */\n      sub\n        /* \"#utility.yul\":13435:13439   */\n      0x80\n        /* \"#utility.yul\":13430:13433   */\n      dup7\n        /* \"#utility.yul\":13426:13440   */\n      add\n        /* \"#utility.yul\":13419:13457   */\n      mstore\n        /* \"#utility.yul\":13478:13581   */\n      tag_831\n        /* \"#utility.yul\":13576:13580   */\n      dup3\n        /* \"#utility.yul\":13562:13574   */\n      dup3\n        /* \"#utility.yul\":13478:13581   */\n      tag_621\n      jump\t// in\n    tag_831:\n        /* \"#utility.yul\":13470:13581   */\n      swap2\n      pop\n        /* \"#utility.yul\":13323:13592   */\n      pop\n        /* \"#utility.yul\":13676:13680   */\n      0xa0\n        /* \"#utility.yul\":13669:13674   */\n      dup4\n        /* \"#utility.yul\":13665:13681   */\n      add\n        /* \"#utility.yul\":13659:13682   */\n      mload\n        /* \"#utility.yul\":13729:13732   */\n      dup5\n        /* \"#utility.yul\":13723:13727   */\n      dup3\n        /* \"#utility.yul\":13719:13733   */\n      sub\n        /* \"#utility.yul\":13712:13716   */\n      0xa0\n        /* \"#utility.yul\":13707:13710   */\n      dup7\n        /* \"#utility.yul\":13703:13717   */\n      add\n        /* \"#utility.yul\":13696:13734   */\n      mstore\n        /* \"#utility.yul\":13755:13902   */\n      tag_832\n        /* \"#utility.yul\":13897:13901   */\n      dup3\n        /* \"#utility.yul\":13883:13895   */\n      dup3\n        /* \"#utility.yul\":13755:13902   */\n      tag_615\n      jump\t// in\n    tag_832:\n        /* \"#utility.yul\":13747:13902   */\n      swap2\n      pop\n        /* \"#utility.yul\":13602:13913   */\n      pop\n        /* \"#utility.yul\":13930:13934   */\n      dup1\n        /* \"#utility.yul\":13923:13934   */\n      swap2\n      pop\n        /* \"#utility.yul\":12423:13940   */\n      pop\n        /* \"#utility.yul\":12307:13940   */\n      swap3\n      swap2\n      pop\n      pop\n      jump\t// out\n        /* \"#utility.yul\":13946:14303   */\n    tag_68:\n        /* \"#utility.yul\":14081:14085   */\n      0x00\n        /* \"#utility.yul\":14119:14121   */\n      0x20\n        /* \"#utility.yul\":14108:14117   */\n      dup3\n        /* \"#utility.yul\":14104:14122   */\n      add\n        /* \"#utility.yul\":14096:14122   */\n      swap1\n      pop\n        /* \"#utility.yul\":14168:14177   */\n      dup2\n        /* \"#utility.yul\":14162:14166   */\n      dup2\n        /* \"#utility.yul\":14158:14178   */\n      sub\n        /* \"#utility.yul\":14154:14155   */\n      0x00\n        /* \"#utility.yul\":14143:14152   */\n      dup4\n        /* \"#utility.yul\":14139:14156   */\n      add\n        /* \"#utility.yul\":14132:14179   */\n      mstore\n        /* \"#utility.yul\":14196:14296   */\n      tag_834\n        /* \"#utility.yul\":14291:14295   */\n      dup2\n        /* \"#utility.yul\":14282:14288   */\n      dup5\n        /* \"#utility.yul\":14196:14296   */\n      tag_622\n      jump\t// in\n    tag_834:\n        /* \"#utility.yul\":14188:14296   */\n      swap1\n      pop\n        /* \"#utility.yul\":13946:14303   */\n      swap3\n      swap2\n      pop\n      pop\n      jump\t// out\n        /* \"#utility.yul\":14309:14783   */\n    tag_77:\n        /* \"#utility.yul\":14377:14383   */\n      0x00\n        /* \"#utility.yul\":14385:14391   */\n      dup1\n        /* \"#utility.yul\":14434:14436   */\n      0x40\n        /* \"#utility.yul\":14422:14431   */\n      dup4\n        /* \"#utility.yul\":14413:14420   */\n      dup6\n        /* \"#utility.yul\":14409:14432   */\n      sub\n        /* \"#utility.yul\":14405:14437   */\n      slt\n        /* \"#utility.yul\":14402:14521   */\n      iszero\n      tag_836\n      jumpi\n        /* \"#utility.yul\":14440:14519   */\n      tag_837\n      tag_574\n      jump\t// in\n    tag_837:\n        /* \"#utility.yul\":14402:14521   */\n    tag_836:\n        /* \"#utility.yul\":14560:14561   */\n      0x00\n        /* \"#utility.yul\":14585:14638   */\n      tag_838\n        /* \"#utility.yul\":14630:14637   */\n      dup6\n        /* \"#utility.yul\":14621:14627   */\n      dup3\n        /* \"#utility.yul\":14610:14619   */\n      dup7\n        /* \"#utility.yul\":14606:14628   */\n      add\n        /* \"#utility.yul\":14585:14638   */\n      tag_579\n      jump\t// in\n    tag_838:\n        /* \"#utility.yul\":14575:14638   */\n      swap3\n      pop\n        /* \"#utility.yul\":14531:14648   */\n      pop\n        /* \"#utility.yul\":14687:14689   */\n      0x20\n        /* \"#utility.yul\":14713:14766   */\n      tag_839\n        /* \"#utility.yul\":14758:14765   */\n      dup6\n        /* \"#utility.yul\":14749:14755   */\n      dup3\n        /* \"#utility.yul\":14738:14747   */\n      dup7\n        /* \"#utility.yul\":14734:14756   */\n      add\n        /* \"#utility.yul\":14713:14766   */\n      tag_590\n      jump\t// in\n    tag_839:\n        /* \"#utility.yul\":14703:14766   */\n      swap2\n      pop\n        /* \"#utility.yul\":14658:14776   */\n      pop\n        /* \"#utility.yul\":14309:14783   */\n      swap3\n      pop\n      swap3\n      swap1\n      pop\n      jump\t// out\n        /* \"#utility.yul\":14789:14879   */\n    tag_623:\n        /* \"#utility.yul\":14823:14830   */\n      0x00\n        /* \"#utility.yul\":14866:14871   */\n      dup2\n        /* \"#utility.yul\":14859:14872   */\n      iszero\n        /* \"#utility.yul\":14852:14873   */\n      iszero\n        /* \"#utility.yul\":14841:14873   */\n      swap1\n      pop\n        /* \"#utility.yul\":14789:14879   */\n      swap2\n      swap1\n      pop\n      jump\t// out\n        /* \"#utility.yul\":14885:15001   */\n    tag_624:\n        /* \"#utility.yul\":14955:14976   */\n      tag_842\n        /* \"#utility.yul\":14970:14975   */\n      dup2\n        /* \"#utility.yul\":14955:14976   */\n      tag_623\n      jump\t// in\n    tag_842:\n        /* \"#utility.yul\":14948:14953   */\n      dup2\n        /* \"#utility.yul\":14945:14977   */\n      eq\n        /* \"#utility.yul\":14935:14995   */\n      tag_843\n      jumpi\n        /* \"#utility.yul\":14991:14992   */\n      0x00\n        /* \"#utility.yul\":14988:14989   */\n      dup1\n        /* \"#utility.yul\":14981:14993   */\n      revert\n        /* \"#utility.yul\":14935:14995   */\n    tag_843:\n        /* \"#utility.yul\":14885:15001   */\n      pop\n      jump\t// out\n        /* \"#utility.yul\":15007:15140   */\n    tag_625:\n        /* \"#utility.yul\":15050:15055   */\n      0x00\n        /* \"#utility.yul\":15088:15094   */\n      dup2\n        /* \"#utility.yul\":15075:15095   */\n      calldataload\n        /* \"#utility.yul\":15066:15095   */\n      swap1\n      pop\n        /* \"#utility.yul\":15104:15134   */\n      tag_845\n        /* \"#utility.yul\":15128:15133   */\n      dup2\n        /* \"#utility.yul\":15104:15134   */\n      tag_624\n      jump\t// in\n    tag_845:\n        /* \"#utility.yul\":15007:15140   */\n      swap3\n      swap2\n      pop\n      pop\n      jump\t// out\n        /* \"#utility.yul\":15146:15759   */\n    tag_89:\n        /* \"#utility.yul\":15220:15226   */\n      0x00\n        /* \"#utility.yul\":15228:15234   */\n      dup1\n        /* \"#utility.yul\":15236:15242   */\n      0x00\n        /* \"#utility.yul\":15285:15287   */\n      0x60\n        /* \"#utility.yul\":15273:15282   */\n      dup5\n        /* \"#utility.yul\":15264:15271   */\n      dup7\n        /* \"#utility.yul\":15260:15283   */\n      sub\n        /* \"#utility.yul\":15256:15288   */\n      slt\n        /* \"#utility.yul\":15253:15372   */\n      iszero\n      tag_847\n      jumpi\n        /* \"#utility.yul\":15291:15370   */\n      tag_848\n      tag_574\n      jump\t// in\n    tag_848:\n        /* \"#utility.yul\":15253:15372   */\n    tag_847:\n        /* \"#utility.yul\":15411:15412   */\n      0x00\n        /* \"#utility.yul\":15436:15489   */\n      tag_849\n        /* \"#utility.yul\":15481:15488   */\n      dup7\n        /* \"#utility.yul\":15472:15478   */\n      dup3\n        /* \"#utility.yul\":15461:15470   */\n      dup8\n        /* \"#utility.yul\":15457:15479   */\n      add\n        /* \"#utility.yul\":15436:15489   */\n      tag_590\n      jump\t// in\n    tag_849:\n        /* \"#utility.yul\":15426:15489   */\n      swap4\n      pop\n        /* \"#utility.yul\":15382:15499   */\n      pop\n        /* \"#utility.yul\":15538:15540   */\n      0x20\n        /* \"#utility.yul\":15564:15617   */\n      tag_850\n        /* \"#utility.yul\":15609:15616   */\n      dup7\n        /* \"#utility.yul\":15600:15606   */\n      dup3\n        /* \"#utility.yul\":15589:15598   */\n      dup8\n        /* \"#utility.yul\":15585:15607   */\n      add\n        /* \"#utility.yul\":15564:15617   */\n      tag_579\n      jump\t// in\n    tag_850:\n        /* \"#utility.yul\":15554:15617   */\n      swap3\n      pop\n        /* \"#utility.yul\":15509:15627   */\n      pop\n        /* \"#utility.yul\":15666:15668   */\n      0x40\n        /* \"#utility.yul\":15692:15742   */\n      tag_851\n        /* \"#utility.yul\":15734:15741   */\n      dup7\n        /* \"#utility.yul\":15725:15731   */\n      dup3\n        /* \"#utility.yul\":15714:15723   */\n      dup8\n        /* \"#utility.yul\":15710:15732   */\n      add\n        /* \"#utility.yul\":15692:15742   */\n      tag_625\n      jump\t// in\n    tag_851:\n        /* \"#utility.yul\":15682:15742   */\n      swap2\n      pop\n        /* \"#utility.yul\":15637:15752   */\n      pop\n        /* \"#utility.yul\":15146:15759   */\n      swap3\n      pop\n      swap3\n      pop\n      swap3\n      jump\t// out\n        /* \"#utility.yul\":15765:15883   */\n    tag_626:\n        /* \"#utility.yul\":15852:15876   */\n      tag_853\n        /* \"#utility.yul\":15870:15875   */\n      dup2\n        /* \"#utility.yul\":15852:15876   */\n      tag_577\n      jump\t// in\n    tag_853:\n        /* \"#utility.yul\":15847:15850   */\n      dup3\n        /* \"#utility.yul\":15840:15877   */\n      mstore\n        /* \"#utility.yul\":15765:15883   */\n      pop\n      pop\n      jump\t// out\n        /* \"#utility.yul\":15889:16111   */\n    tag_95:\n        /* \"#utility.yul\":15982:15986   */\n      0x00\n        /* \"#utility.yul\":16020:16022   */\n      0x20\n        /* \"#utility.yul\":16009:16018   */\n      dup3\n        /* \"#utility.yul\":16005:16023   */\n      add\n        /* \"#utility.yul\":15997:16023   */\n      swap1\n      pop\n        /* \"#utility.yul\":16033:16104   */\n      tag_855\n        /* \"#utility.yul\":16101:16102   */\n      0x00\n        /* \"#utility.yul\":16090:16099   */\n      dup4\n        /* \"#utility.yul\":16086:16103   */\n      add\n        /* \"#utility.yul\":16077:16083   */\n      dup5\n        /* \"#utility.yul\":16033:16104   */\n      tag_626\n      jump\t// in\n    tag_855:\n        /* \"#utility.yul\":15889:16111   */\n      swap3\n      swap2\n      pop\n      pop\n      jump\t// out\n        /* \"#utility.yul\":16147:16879   */\n    tag_627:\n        /* \"#utility.yul\":16266:16269   */\n      0x00\n        /* \"#utility.yul\":16295:16349   */\n      tag_857\n        /* \"#utility.yul\":16343:16348   */\n      dup3\n        /* \"#utility.yul\":16295:16349   */\n      tag_616\n      jump\t// in\n    tag_857:\n        /* \"#utility.yul\":16365:16451   */\n      tag_858\n        /* \"#utility.yul\":16444:16450   */\n      dup2\n        /* \"#utility.yul\":16439:16442   */\n      dup6\n        /* \"#utility.yul\":16365:16451   */\n      tag_592\n      jump\t// in\n    tag_858:\n        /* \"#utility.yul\":16358:16451   */\n      swap4\n      pop\n        /* \"#utility.yul\":16475:16531   */\n      tag_859\n        /* \"#utility.yul\":16525:16530   */\n      dup4\n        /* \"#utility.yul\":16475:16531   */\n      tag_618\n      jump\t// in\n    tag_859:\n        /* \"#utility.yul\":16554:16561   */\n      dup1\n        /* \"#utility.yul\":16585:16586   */\n      0x00\n        /* \"#utility.yul\":16570:16854   */\n    tag_860:\n        /* \"#utility.yul\":16595:16601   */\n      dup4\n        /* \"#utility.yul\":16592:16593   */\n      dup2\n        /* \"#utility.yul\":16589:16602   */\n      lt\n        /* \"#utility.yul\":16570:16854   */\n      iszero\n      tag_862\n      jumpi\n        /* \"#utility.yul\":16671:16677   */\n      dup2\n        /* \"#utility.yul\":16665:16678   */\n      mload\n        /* \"#utility.yul\":16698:16761   */\n      tag_863\n        /* \"#utility.yul\":16757:16760   */\n      dup9\n        /* \"#utility.yul\":16742:16755   */\n      dup3\n        /* \"#utility.yul\":16698:16761   */\n      tag_619\n      jump\t// in\n    tag_863:\n        /* \"#utility.yul\":16691:16761   */\n      swap8\n      pop\n        /* \"#utility.yul\":16784:16844   */\n      tag_864\n        /* \"#utility.yul\":16837:16843   */\n      dup4\n        /* \"#utility.yul\":16784:16844   */\n      tag_620\n      jump\t// in\n    tag_864:\n        /* \"#utility.yul\":16774:16844   */\n      swap3\n      pop\n        /* \"#utility.yul\":16630:16854   */\n      pop\n        /* \"#utility.yul\":16617:16618   */\n      0x01\n        /* \"#utility.yul\":16614:16615   */\n      dup2\n        /* \"#utility.yul\":16610:16619   */\n      add\n        /* \"#utility.yul\":16605:16619   */\n      swap1\n      pop\n        /* \"#utility.yul\":16570:16854   */\n      jump(tag_860)\n    tag_862:\n        /* \"#utility.yul\":16574:16588   */\n      pop\n        /* \"#utility.yul\":16870:16873   */\n      dup6\n        /* \"#utility.yul\":16863:16873   */\n      swap4\n      pop\n        /* \"#utility.yul\":16271:16879   */\n      pop\n      pop\n      pop\n        /* \"#utility.yul\":16147:16879   */\n      swap3\n      swap2\n      pop\n      pop\n      jump\t// out\n        /* \"#utility.yul\":16885:17258   */\n    tag_107:\n        /* \"#utility.yul\":17028:17032   */\n      0x00\n        /* \"#utility.yul\":17066:17068   */\n      0x20\n        /* \"#utility.yul\":17055:17064   */\n      dup3\n        /* \"#utility.yul\":17051:17069   */\n      add\n        /* \"#utility.yul\":17043:17069   */\n      swap1\n      pop\n        /* \"#utility.yul\":17115:17124   */\n      dup2\n        /* \"#utility.yul\":17109:17113   */\n      dup2\n        /* \"#utility.yul\":17105:17125   */\n      sub\n        /* \"#utility.yul\":17101:17102   */\n      0x00\n        /* \"#utility.yul\":17090:17099   */\n      dup4\n        /* \"#utility.yul\":17086:17103   */\n      add\n        /* \"#utility.yul\":17079:17126   */\n      mstore\n        /* \"#utility.yul\":17143:17251   */\n      tag_866\n        /* \"#utility.yul\":17246:17250   */\n      dup2\n        /* \"#utility.yul\":17237:17243   */\n      dup5\n        /* \"#utility.yul\":17143:17251   */\n      tag_627\n      jump\t// in\n    tag_866:\n        /* \"#utility.yul\":17135:17251   */\n      swap1\n      pop\n        /* \"#utility.yul\":16885:17258   */\n      swap3\n      swap2\n      pop\n      pop\n      jump\t// out\n        /* \"#utility.yul\":17264:17441   */\n    tag_628:\n        /* \"#utility.yul\":17374:17434   */\n      tag_868\n        /* \"#utility.yul\":17428:17433   */\n      dup2\n        /* \"#utility.yul\":17374:17434   */\n      tag_597\n      jump\t// in\n    tag_868:\n        /* \"#utility.yul\":17369:17372   */\n      dup3\n        /* \"#utility.yul\":17362:17435   */\n      mstore\n        /* \"#utility.yul\":17264:17441   */\n      pop\n      pop\n      jump\t// out\n        /* \"#utility.yul\":17447:17715   */\n    tag_113:\n        /* \"#utility.yul\":17563:17567   */\n      0x00\n        /* \"#utility.yul\":17601:17603   */\n      0x20\n        /* \"#utility.yul\":17590:17599   */\n      dup3\n        /* \"#utility.yul\":17586:17604   */\n      add\n        /* \"#utility.yul\":17578:17604   */\n      swap1\n      pop\n        /* \"#utility.yul\":17614:17708   */\n      tag_870\n        /* \"#utility.yul\":17705:17706   */\n      0x00\n        /* \"#utility.yul\":17694:17703   */\n      dup4\n        /* \"#utility.yul\":17690:17707   */\n      add\n        /* \"#utility.yul\":17681:17687   */\n      dup5\n        /* \"#utility.yul\":17614:17708   */\n      tag_628\n      jump\t// in\n    tag_870:\n        /* \"#utility.yul\":17447:17715   */\n      swap3\n      swap2\n      pop\n      pop\n      jump\t// out\n        /* \"#utility.yul\":17721:17838   */\n    tag_629:\n        /* \"#utility.yul\":17830:17831   */\n      0x00\n        /* \"#utility.yul\":17827:17828   */\n      dup1\n        /* \"#utility.yul\":17820:17832   */\n      revert\n        /* \"#utility.yul\":17844:17961   */\n    tag_630:\n        /* \"#utility.yul\":17953:17954   */\n      0x00\n        /* \"#utility.yul\":17950:17951   */\n      dup1\n        /* \"#utility.yul\":17943:17955   */\n      revert\n        /* \"#utility.yul\":17967:18084   */\n    tag_631:\n        /* \"#utility.yul\":18076:18077   */\n      0x00\n        /* \"#utility.yul\":18073:18074   */\n      dup1\n        /* \"#utility.yul\":18066:18078   */\n      revert\n        /* \"#utility.yul\":18123:18715   */\n    tag_632:\n        /* \"#utility.yul\":18220:18228   */\n      0x00\n        /* \"#utility.yul\":18230:18236   */\n      dup1\n        /* \"#utility.yul\":18280:18283   */\n      dup4\n        /* \"#utility.yul\":18273:18277   */\n      0x1f\n        /* \"#utility.yul\":18265:18271   */\n      dup5\n        /* \"#utility.yul\":18261:18278   */\n      add\n        /* \"#utility.yul\":18257:18284   */\n      slt\n        /* \"#utility.yul\":18247:18369   */\n      tag_875\n      jumpi\n        /* \"#utility.yul\":18288:18367   */\n      tag_876\n      tag_629\n      jump\t// in\n    tag_876:\n        /* \"#utility.yul\":18247:18369   */\n    tag_875:\n        /* \"#utility.yul\":18401:18407   */\n      dup3\n        /* \"#utility.yul\":18388:18408   */\n      calldataload\n        /* \"#utility.yul\":18378:18408   */\n      swap1\n      pop\n        /* \"#utility.yul\":18431:18449   */\n      0xffffffffffffffff\n        /* \"#utility.yul\":18423:18429   */\n      dup2\n        /* \"#utility.yul\":18420:18450   */\n      gt\n        /* \"#utility.yul\":18417:18534   */\n      iszero\n      tag_877\n      jumpi\n        /* \"#utility.yul\":18453:18532   */\n      tag_878\n      tag_630\n      jump\t// in\n    tag_878:\n        /* \"#utility.yul\":18417:18534   */\n    tag_877:\n        /* \"#utility.yul\":18567:18571   */\n      0x20\n        /* \"#utility.yul\":18559:18565   */\n      dup4\n        /* \"#utility.yul\":18555:18572   */\n      add\n        /* \"#utility.yul\":18543:18572   */\n      swap2\n      pop\n        /* \"#utility.yul\":18621:18624   */\n      dup4\n        /* \"#utility.yul\":18613:18617   */\n      0x60\n        /* \"#utility.yul\":18605:18611   */\n      dup3\n        /* \"#utility.yul\":18601:18618   */\n      mul\n        /* \"#utility.yul\":18591:18599   */\n      dup4\n        /* \"#utility.yul\":18587:18619   */\n      add\n        /* \"#utility.yul\":18584:18625   */\n      gt\n        /* \"#utility.yul\":18581:18709   */\n      iszero\n      tag_879\n      jumpi\n        /* \"#utility.yul\":18628:18707   */\n      tag_880\n      tag_631\n      jump\t// in\n    tag_880:\n        /* \"#utility.yul\":18581:18709   */\n    tag_879:\n        /* \"#utility.yul\":18123:18715   */\n      swap3\n      pop\n      swap3\n      swap1\n      pop\n      jump\t// out\n        /* \"#utility.yul\":18738:19306   */\n    tag_633:\n        /* \"#utility.yul\":18811:18819   */\n      0x00\n        /* \"#utility.yul\":18821:18827   */\n      dup1\n        /* \"#utility.yul\":18871:18874   */\n      dup4\n        /* \"#utility.yul\":18864:18868   */\n      0x1f\n        /* \"#utility.yul\":18856:18862   */\n      dup5\n        /* \"#utility.yul\":18852:18869   */\n      add\n        /* \"#utility.yul\":18848:18875   */\n      slt\n        /* \"#utility.yul\":18838:18960   */\n      tag_882\n      jumpi\n        /* \"#utility.yul\":18879:18958   */\n      tag_883\n      tag_629\n      jump\t// in\n    tag_883:\n        /* \"#utility.yul\":18838:18960   */\n    tag_882:\n        /* \"#utility.yul\":18992:18998   */\n      dup3\n        /* \"#utility.yul\":18979:18999   */\n      calldataload\n        /* \"#utility.yul\":18969:18999   */\n      swap1\n      pop\n        /* \"#utility.yul\":19022:19040   */\n      0xffffffffffffffff\n        /* \"#utility.yul\":19014:19020   */\n      dup2\n        /* \"#utility.yul\":19011:19041   */\n      gt\n        /* \"#utility.yul\":19008:19125   */\n      iszero\n      tag_884\n      jumpi\n        /* \"#utility.yul\":19044:19123   */\n      tag_885\n      tag_630\n      jump\t// in\n    tag_885:\n        /* \"#utility.yul\":19008:19125   */\n    tag_884:\n        /* \"#utility.yul\":19158:19162   */\n      0x20\n        /* \"#utility.yul\":19150:19156   */\n      dup4\n        /* \"#utility.yul\":19146:19163   */\n      add\n        /* \"#utility.yul\":19134:19163   */\n      swap2\n      pop\n        /* \"#utility.yul\":19212:19215   */\n      dup4\n        /* \"#utility.yul\":19204:19208   */\n      0x20\n        /* \"#utility.yul\":19196:19202   */\n      dup3\n        /* \"#utility.yul\":19192:19209   */\n      mul\n        /* \"#utility.yul\":19182:19190   */\n      dup4\n        /* \"#utility.yul\":19178:19210   */\n      add\n        /* \"#utility.yul\":19175:19216   */\n      gt\n        /* \"#utility.yul\":19172:19300   */\n      iszero\n      tag_886\n      jumpi\n        /* \"#utility.yul\":19219:19298   */\n      tag_887\n      tag_631\n      jump\t// in\n    tag_887:\n        /* \"#utility.yul\":19172:19300   */\n    tag_886:\n        /* \"#utility.yul\":18738:19306   */\n      swap3\n      pop\n      swap3\n      swap1\n      pop\n      jump\t// out\n        /* \"#utility.yul\":19312:20863   */\n    tag_128:\n        /* \"#utility.yul\":19527:19533   */\n      0x00\n        /* \"#utility.yul\":19535:19541   */\n      dup1\n        /* \"#utility.yul\":19543:19549   */\n      0x00\n        /* \"#utility.yul\":19551:19557   */\n      dup1\n        /* \"#utility.yul\":19559:19565   */\n      0x00\n        /* \"#utility.yul\":19567:19573   */\n      dup1\n        /* \"#utility.yul\":19575:19581   */\n      0x00\n        /* \"#utility.yul\":19624:19627   */\n      0x80\n        /* \"#utility.yul\":19612:19621   */\n      dup9\n        /* \"#utility.yul\":19603:19610   */\n      dup11\n        /* \"#utility.yul\":19599:19622   */\n      sub\n        /* \"#utility.yul\":19595:19628   */\n      slt\n        /* \"#utility.yul\":19592:19712   */\n      iszero\n      tag_889\n      jumpi\n        /* \"#utility.yul\":19631:19710   */\n      tag_890\n      tag_574\n      jump\t// in\n    tag_890:\n        /* \"#utility.yul\":19592:19712   */\n    tag_889:\n        /* \"#utility.yul\":19751:19752   */\n      0x00\n        /* \"#utility.yul\":19776:19829   */\n      tag_891\n        /* \"#utility.yul\":19821:19828   */\n      dup11\n        /* \"#utility.yul\":19812:19818   */\n      dup3\n        /* \"#utility.yul\":19801:19810   */\n      dup12\n        /* \"#utility.yul\":19797:19819   */\n      add\n        /* \"#utility.yul\":19776:19829   */\n      tag_579\n      jump\t// in\n    tag_891:\n        /* \"#utility.yul\":19766:19829   */\n      swap8\n      pop\n        /* \"#utility.yul\":19722:19839   */\n      pop\n        /* \"#utility.yul\":19906:19908   */\n      0x20\n        /* \"#utility.yul\":19895:19904   */\n      dup9\n        /* \"#utility.yul\":19891:19909   */\n      add\n        /* \"#utility.yul\":19878:19910   */\n      calldataload\n        /* \"#utility.yul\":19937:19955   */\n      0xffffffffffffffff\n        /* \"#utility.yul\":19929:19935   */\n      dup2\n        /* \"#utility.yul\":19926:19956   */\n      gt\n        /* \"#utility.yul\":19923:20040   */\n      iszero\n      tag_892\n      jumpi\n        /* \"#utility.yul\":19959:20038   */\n      tag_893\n      tag_575\n      jump\t// in\n    tag_893:\n        /* \"#utility.yul\":19923:20040   */\n    tag_892:\n        /* \"#utility.yul\":20072:20176   */\n      tag_894\n        /* \"#utility.yul\":20168:20175   */\n      dup11\n        /* \"#utility.yul\":20159:20165   */\n      dup3\n        /* \"#utility.yul\":20148:20157   */\n      dup12\n        /* \"#utility.yul\":20144:20166   */\n      add\n        /* \"#utility.yul\":20072:20176   */\n      tag_632\n      jump\t// in\n    tag_894:\n        /* \"#utility.yul\":20054:20176   */\n      swap7\n      pop\n      swap7\n      pop\n        /* \"#utility.yul\":19849:20186   */\n      pop\n        /* \"#utility.yul\":20253:20255   */\n      0x40\n        /* \"#utility.yul\":20242:20251   */\n      dup9\n        /* \"#utility.yul\":20238:20256   */\n      add\n        /* \"#utility.yul\":20225:20257   */\n      calldataload\n        /* \"#utility.yul\":20284:20302   */\n      0xffffffffffffffff\n        /* \"#utility.yul\":20276:20282   */\n      dup2\n        /* \"#utility.yul\":20273:20303   */\n      gt\n        /* \"#utility.yul\":20270:20387   */\n      iszero\n      tag_895\n      jumpi\n        /* \"#utility.yul\":20306:20385   */\n      tag_896\n      tag_575\n      jump\t// in\n    tag_896:\n        /* \"#utility.yul\":20270:20387   */\n    tag_895:\n        /* \"#utility.yul\":20419:20499   */\n      tag_897\n        /* \"#utility.yul\":20491:20498   */\n      dup11\n        /* \"#utility.yul\":20482:20488   */\n      dup3\n        /* \"#utility.yul\":20471:20480   */\n      dup12\n        /* \"#utility.yul\":20467:20489   */\n      add\n        /* \"#utility.yul\":20419:20499   */\n      tag_633\n      jump\t// in\n    tag_897:\n        /* \"#utility.yul\":20401:20499   */\n      swap5\n      pop\n      swap5\n      pop\n        /* \"#utility.yul\":20196:20509   */\n      pop\n        /* \"#utility.yul\":20576:20578   */\n      0x60\n        /* \"#utility.yul\":20565:20574   */\n      dup9\n        /* \"#utility.yul\":20561:20579   */\n      add\n        /* \"#utility.yul\":20548:20580   */\n      calldataload\n        /* \"#utility.yul\":20607:20625   */\n      0xffffffffffffffff\n        /* \"#utility.yul\":20599:20605   */\n      dup2\n        /* \"#utility.yul\":20596:20626   */\n      gt\n        /* \"#utility.yul\":20593:20710   */\n      iszero\n      tag_898\n      jumpi\n        /* \"#utility.yul\":20629:20708   */\n      tag_899\n      tag_575\n      jump\t// in\n    tag_899:\n        /* \"#utility.yul\":20593:20710   */\n    tag_898:\n        /* \"#utility.yul\":20742:20846   */\n      tag_900\n        /* \"#utility.yul\":20838:20845   */\n      dup11\n        /* \"#utility.yul\":20829:20835   */\n      dup3\n        /* \"#utility.yul\":20818:20827   */\n      dup12\n        /* \"#utility.yul\":20814:20836   */\n      add\n        /* \"#utility.yul\":20742:20846   */\n      tag_632\n      jump\t// in\n    tag_900:\n        /* \"#utility.yul\":20724:20846   */\n      swap3\n      pop\n      swap3\n      pop\n        /* \"#utility.yul\":20519:20856   */\n      pop\n        /* \"#utility.yul\":19312:20863   */\n      swap3\n      swap6\n      swap9\n      swap2\n      swap5\n      swap8\n      pop\n      swap3\n      swap6\n      pop\n      jump\t// out\n        /* \"#utility.yul\":20869:21038   */\n    tag_634:\n        /* \"#utility.yul\":20953:20964   */\n      0x00\n        /* \"#utility.yul\":20987:20993   */\n      dup3\n        /* \"#utility.yul\":20982:20985   */\n      dup3\n        /* \"#utility.yul\":20975:20994   */\n      mstore\n        /* \"#utility.yul\":21027:21031   */\n      0x20\n        /* \"#utility.yul\":21022:21025   */\n      dup3\n        /* \"#utility.yul\":21018:21032   */\n      add\n        /* \"#utility.yul\":21003:21032   */\n      swap1\n      pop\n        /* \"#utility.yul\":20869:21038   */\n      swap3\n      swap2\n      pop\n      pop\n      jump\t// out\n        /* \"#utility.yul\":21044:21223   */\n    tag_635:\n        /* \"#utility.yul\":21184:21215   */\n      0x4e4654537761707065723a206e6f74206120636f6e7472696275746f72000000\n        /* \"#utility.yul\":21180:21181   */\n      0x00\n        /* \"#utility.yul\":21172:21178   */\n      dup3\n        /* \"#utility.yul\":21168:21182   */\n      add\n        /* \"#utility.yul\":21161:21216   */\n      mstore\n        /* \"#utility.yul\":21044:21223   */\n      pop\n      jump\t// out\n        /* \"#utility.yul\":21229:21595   */\n    tag_636:\n        /* \"#utility.yul\":21371:21374   */\n      0x00\n        /* \"#utility.yul\":21392:21459   */\n      tag_904\n        /* \"#utility.yul\":21456:21458   */\n      0x1d\n        /* \"#utility.yul\":21451:21454   */\n      dup4\n        /* \"#utility.yul\":21392:21459   */\n      tag_634\n      jump\t// in\n    tag_904:\n        /* \"#utility.yul\":21385:21459   */\n      swap2\n      pop\n        /* \"#utility.yul\":21468:21561   */\n      tag_905\n        /* \"#utility.yul\":21557:21560   */\n      dup3\n        /* \"#utility.yul\":21468:21561   */\n      tag_635\n      jump\t// in\n    tag_905:\n        /* \"#utility.yul\":21586:21588   */\n      0x20\n        /* \"#utility.yul\":21581:21584   */\n      dup3\n        /* \"#utility.yul\":21577:21589   */\n      add\n        /* \"#utility.yul\":21570:21589   */\n      swap1\n      pop\n        /* \"#utility.yul\":21229:21595   */\n      swap2\n      swap1\n      pop\n      jump\t// out\n        /* \"#utility.yul\":21601:22020   */\n    tag_159:\n        /* \"#utility.yul\":21767:21771   */\n      0x00\n        /* \"#utility.yul\":21805:21807   */\n      0x20\n        /* \"#utility.yul\":21794:21803   */\n      dup3\n        /* \"#utility.yul\":21790:21808   */\n      add\n        /* \"#utility.yul\":21782:21808   */\n      swap1\n      pop\n        /* \"#utility.yul\":21854:21863   */\n      dup2\n        /* \"#utility.yul\":21848:21852   */\n      dup2\n        /* \"#utility.yul\":21844:21864   */\n      sub\n        /* \"#utility.yul\":21840:21841   */\n      0x00\n        /* \"#utility.yul\":21829:21838   */\n      dup4\n        /* \"#utility.yul\":21825:21842   */\n      add\n        /* \"#utility.yul\":21818:21865   */\n      mstore\n        /* \"#utility.yul\":21882:22013   */\n      tag_907\n        /* \"#utility.yul\":22008:22012   */\n      dup2\n        /* \"#utility.yul\":21882:22013   */\n      tag_636\n      jump\t// in\n    tag_907:\n        /* \"#utility.yul\":21874:22013   */\n      swap1\n      pop\n        /* \"#utility.yul\":21601:22020   */\n      swap2\n      swap1\n      pop\n      jump\t// out\n        /* \"#utility.yul\":22026:22208   */\n    tag_637:\n        /* \"#utility.yul\":22166:22200   */\n      0x4e4654537761707065723a2077697468647261773a206e6f2062616c616e6365\n        /* \"#utility.yul\":22162:22163   */\n      0x00\n        /* \"#utility.yul\":22154:22160   */\n      dup3\n        /* \"#utility.yul\":22150:22164   */\n      add\n        /* \"#utility.yul\":22143:22201   */\n      mstore\n        /* \"#utility.yul\":22026:22208   */\n      pop\n      jump\t// out\n        /* \"#utility.yul\":22214:22580   */\n    tag_638:\n        /* \"#utility.yul\":22356:22359   */\n      0x00\n        /* \"#utility.yul\":22377:22444   */\n      tag_910\n        /* \"#utility.yul\":22441:22443   */\n      0x20\n        /* \"#utility.yul\":22436:22439   */\n      dup4\n        /* \"#utility.yul\":22377:22444   */\n      tag_634\n      jump\t// in\n    tag_910:\n        /* \"#utility.yul\":22370:22444   */\n      swap2\n      pop\n        /* \"#utility.yul\":22453:22546   */\n      tag_911\n        /* \"#utility.yul\":22542:22545   */\n      dup3\n        /* \"#utility.yul\":22453:22546   */\n      tag_637\n      jump\t// in\n    tag_911:\n        /* \"#utility.yul\":22571:22573   */\n      0x20\n        /* \"#utility.yul\":22566:22569   */\n      dup3\n        /* \"#utility.yul\":22562:22574   */\n      add\n        /* \"#utility.yul\":22555:22574   */\n      swap1\n      pop\n        /* \"#utility.yul\":22214:22580   */\n      swap2\n      swap1\n      pop\n      jump\t// out\n        /* \"#utility.yul\":22586:23005   */\n    tag_163:\n        /* \"#utility.yul\":22752:22756   */\n      0x00\n        /* \"#utility.yul\":22790:22792   */\n      0x20\n        /* \"#utility.yul\":22779:22788   */\n      dup3\n        /* \"#utility.yul\":22775:22793   */\n      add\n        /* \"#utility.yul\":22767:22793   */\n      swap1\n      pop\n        /* \"#utility.yul\":22839:22848   */\n      dup2\n        /* \"#utility.yul\":22833:22837   */\n      dup2\n        /* \"#utility.yul\":22829:22849   */\n      sub\n        /* \"#utility.yul\":22825:22826   */\n      0x00\n        /* \"#utility.yul\":22814:22823   */\n      dup4\n        /* \"#utility.yul\":22810:22827   */\n      add\n        /* \"#utility.yul\":22803:22850   */\n      mstore\n        /* \"#utility.yul\":22867:22998   */\n      tag_913\n        /* \"#utility.yul\":22993:22997   */\n      dup2\n        /* \"#utility.yul\":22867:22998   */\n      tag_638\n      jump\t// in\n    tag_913:\n        /* \"#utility.yul\":22859:22998   */\n      swap1\n      pop\n        /* \"#utility.yul\":22586:23005   */\n      swap2\n      swap1\n      pop\n      jump\t// out\n        /* \"#utility.yul\":23011:23191   */\n    tag_169:\n        /* \"#utility.yul\":23059:23136   */\n      0x4e487b7100000000000000000000000000000000000000000000000000000000\n        /* \"#utility.yul\":23056:23057   */\n      0x00\n        /* \"#utility.yul\":23049:23137   */\n      mstore\n        /* \"#utility.yul\":23156:23160   */\n      0x32\n        /* \"#utility.yul\":23153:23154   */\n      0x04\n        /* \"#utility.yul\":23146:23161   */\n      mstore\n        /* \"#utility.yul\":23180:23184   */\n      0x24\n        /* \"#utility.yul\":23177:23178   */\n      0x00\n        /* \"#utility.yul\":23170:23185   */\n      revert\n        /* \"#utility.yul\":23197:23377   */\n    tag_639:\n        /* \"#utility.yul\":23245:23322   */\n      0x4e487b7100000000000000000000000000000000000000000000000000000000\n        /* \"#utility.yul\":23242:23243   */\n      0x00\n        /* \"#utility.yul\":23235:23323   */\n      mstore\n        /* \"#utility.yul\":23342:23346   */\n      0x11\n        /* \"#utility.yul\":23339:23340   */\n      0x04\n        /* \"#utility.yul\":23332:23347   */\n      mstore\n        /* \"#utility.yul\":23366:23370   */\n      0x24\n        /* \"#utility.yul\":23363:23364   */\n      0x00\n        /* \"#utility.yul\":23356:23371   */\n      revert\n        /* \"#utility.yul\":23383:23731   */\n    tag_172:\n        /* \"#utility.yul\":23423:23430   */\n      0x00\n        /* \"#utility.yul\":23446:23466   */\n      tag_917\n        /* \"#utility.yul\":23464:23465   */\n      dup3\n        /* \"#utility.yul\":23446:23466   */\n      tag_583\n      jump\t// in\n    tag_917:\n        /* \"#utility.yul\":23441:23466   */\n      swap2\n      pop\n        /* \"#utility.yul\":23480:23500   */\n      tag_918\n        /* \"#utility.yul\":23498:23499   */\n      dup4\n        /* \"#utility.yul\":23480:23500   */\n      tag_583\n      jump\t// in\n    tag_918:\n        /* \"#utility.yul\":23475:23500   */\n      swap3\n      pop\n        /* \"#utility.yul\":23668:23669   */\n      dup2\n        /* \"#utility.yul\":23600:23666   */\n      0xffffffffffffffffffffffffffffffffffffffffffffffffffffffffffffffff\n        /* \"#utility.yul\":23596:23670   */\n      div\n        /* \"#utility.yul\":23593:23594   */\n      dup4\n        /* \"#utility.yul\":23590:23671   */\n      gt\n        /* \"#utility.yul\":23585:23586   */\n      dup3\n        /* \"#utility.yul\":23578:23587   */\n      iszero\n        /* \"#utility.yul\":23571:23588   */\n      iszero\n        /* \"#utility.yul\":23567:23672   */\n      and\n        /* \"#utility.yul\":23564:23695   */\n      iszero\n      tag_919\n      jumpi\n        /* \"#utility.yul\":23675:23693   */\n      tag_920\n      tag_639\n      jump\t// in\n    tag_920:\n        /* \"#utility.yul\":23564:23695   */\n    tag_919:\n        /* \"#utility.yul\":23723:23724   */\n      dup3\n        /* \"#utility.yul\":23720:23721   */\n      dup3\n        /* \"#utility.yul\":23716:23725   */\n      mul\n        /* \"#utility.yul\":23705:23725   */\n      swap1\n      pop\n        /* \"#utility.yul\":23383:23731   */\n      swap3\n      swap2\n      pop\n      pop\n      jump\t// out\n        /* \"#utility.yul\":23737:23917   */\n    tag_640:\n        /* \"#utility.yul\":23785:23862   */\n      0x4e487b7100000000000000000000000000000000000000000000000000000000\n        /* \"#utility.yul\":23782:23783   */\n      0x00\n        /* \"#utility.yul\":23775:23863   */\n      mstore\n        /* \"#utility.yul\":23882:23886   */\n      0x12\n        /* \"#utility.yul\":23879:23880   */\n      0x04\n        /* \"#utility.yul\":23872:23887   */\n      mstore\n        /* \"#utility.yul\":23906:23910   */\n      0x24\n        /* \"#utility.yul\":23903:23904   */\n      0x00\n        /* \"#utility.yul\":23896:23911   */\n      revert\n        /* \"#utility.yul\":23923:24108   */\n    tag_174:\n        /* \"#utility.yul\":23963:23964   */\n      0x00\n        /* \"#utility.yul\":23980:24000   */\n      tag_923\n        /* \"#utility.yul\":23998:23999   */\n      dup3\n        /* \"#utility.yul\":23980:24000   */\n      tag_583\n      jump\t// in\n    tag_923:\n        /* \"#utility.yul\":23975:24000   */\n      swap2\n      pop\n        /* \"#utility.yul\":24014:24034   */\n      tag_924\n        /* \"#utility.yul\":24032:24033   */\n      dup4\n        /* \"#utility.yul\":24014:24034   */\n      tag_583\n      jump\t// in\n    tag_924:\n        /* \"#utility.yul\":24009:24034   */\n      swap3\n      pop\n        /* \"#utility.yul\":24053:24054   */\n      dup3\n        /* \"#utility.yul\":24043:24078   */\n      tag_925\n      jumpi\n        /* \"#utility.yul\":24058:24076   */\n      tag_926\n      tag_640\n      jump\t// in\n    tag_926:\n        /* \"#utility.yul\":24043:24078   */\n    tag_925:\n        /* \"#utility.yul\":24100:24101   */\n      dup3\n        /* \"#utility.yul\":24097:24098   */\n      dup3\n        /* \"#utility.yul\":24093:24102   */\n      div\n        /* \"#utility.yul\":24088:24102   */\n      swap1\n      pop\n        /* \"#utility.yul\":23923:24108   */\n      swap3\n      swap2\n      pop\n      pop\n      jump\t// out\n        /* \"#utility.yul\":24114:24347   */\n    tag_178:\n        /* \"#utility.yul\":24153:24156   */\n      0x00\n        /* \"#utility.yul\":24176:24200   */\n      tag_928\n        /* \"#utility.yul\":24194:24199   */\n      dup3\n        /* \"#utility.yul\":24176:24200   */\n      tag_583\n      jump\t// in\n    tag_928:\n        /* \"#utility.yul\":24167:24200   */\n      swap2\n      pop\n        /* \"#utility.yul\":24222:24288   */\n      0xffffffffffffffffffffffffffffffffffffffffffffffffffffffffffffffff\n        /* \"#utility.yul\":24215:24220   */\n      dup3\n        /* \"#utility.yul\":24212:24289   */\n      eq\n        /* \"#utility.yul\":24209:24312   */\n      iszero\n      tag_929\n      jumpi\n        /* \"#utility.yul\":24292:24310   */\n      tag_930\n      tag_639\n      jump\t// in\n    tag_930:\n        /* \"#utility.yul\":24209:24312   */\n    tag_929:\n        /* \"#utility.yul\":24339:24340   */\n      0x01\n        /* \"#utility.yul\":24332:24337   */\n      dup3\n        /* \"#utility.yul\":24328:24341   */\n      add\n        /* \"#utility.yul\":24321:24341   */\n      swap1\n      pop\n        /* \"#utility.yul\":24114:24347   */\n      swap2\n      swap1\n      pop\n      jump\t// out\n        /* \"#utility.yul\":24353:24532   */\n    tag_641:\n        /* \"#utility.yul\":24493:24524   */\n      0x4e4654537761707065723a20696420646f6573206e6f74206578697374000000\n        /* \"#utility.yul\":24489:24490   */\n      0x00\n        /* \"#utility.yul\":24481:24487   */\n      dup3\n        /* \"#utility.yul\":24477:24491   */\n      add\n        /* \"#utility.yul\":24470:24525   */\n      mstore\n        /* \"#utility.yul\":24353:24532   */\n      pop\n      jump\t// out\n        /* \"#utility.yul\":24538:24904   */\n    tag_642:\n        /* \"#utility.yul\":24680:24683   */\n      0x00\n        /* \"#utility.yul\":24701:24768   */\n      tag_933\n        /* \"#utility.yul\":24765:24767   */\n      0x1d\n        /* \"#utility.yul\":24760:24763   */\n      dup4\n        /* \"#utility.yul\":24701:24768   */\n      tag_634\n      jump\t// in\n    tag_933:\n        /* \"#utility.yul\":24694:24768   */\n      swap2\n      pop\n        /* \"#utility.yul\":24777:24870   */\n      tag_934\n        /* \"#utility.yul\":24866:24869   */\n      dup3\n        /* \"#utility.yul\":24777:24870   */\n      tag_641\n      jump\t// in\n    tag_934:\n        /* \"#utility.yul\":24895:24897   */\n      0x20\n        /* \"#utility.yul\":24890:24893   */\n      dup3\n        /* \"#utility.yul\":24886:24898   */\n      add\n        /* \"#utility.yul\":24879:24898   */\n      swap1\n      pop\n        /* \"#utility.yul\":24538:24904   */\n      swap2\n      swap1\n      pop\n      jump\t// out\n        /* \"#utility.yul\":24910:25329   */\n    tag_183:\n        /* \"#utility.yul\":25076:25080   */\n      0x00\n        /* \"#utility.yul\":25114:25116   */\n      0x20\n        /* \"#utility.yul\":25103:25112   */\n      dup3\n        /* \"#utility.yul\":25099:25117   */\n      add\n        /* \"#utility.yul\":25091:25117   */\n      swap1\n      pop\n        /* \"#utility.yul\":25163:25172   */\n      dup2\n        /* \"#utility.yul\":25157:25161   */\n      dup2\n        /* \"#utility.yul\":25153:25173   */\n      sub\n        /* \"#utility.yul\":25149:25150   */\n      0x00\n        /* \"#utility.yul\":25138:25147   */\n      dup4\n        /* \"#utility.yul\":25134:25151   */\n      add\n        /* \"#utility.yul\":25127:25174   */\n      mstore\n        /* \"#utility.yul\":25191:25322   */\n      tag_936\n        /* \"#utility.yul\":25317:25321   */\n      dup2\n        /* \"#utility.yul\":25191:25322   */\n      tag_642\n      jump\t// in\n    tag_936:\n        /* \"#utility.yul\":25183:25322   */\n      swap1\n      pop\n        /* \"#utility.yul\":24910:25329   */\n      swap2\n      swap1\n      pop\n      jump\t// out\n        /* \"#utility.yul\":25335:25511   */\n    tag_643:\n        /* \"#utility.yul\":25475:25503   */\n      0x4e4654537761707065723a206e6f742074686520626964646572000000000000\n        /* \"#utility.yul\":25471:25472   */\n      0x00\n        /* \"#utility.yul\":25463:25469   */\n      dup3\n        /* \"#utility.yul\":25459:25473   */\n      add\n        /* \"#utility.yul\":25452:25504   */\n      mstore\n        /* \"#utility.yul\":25335:25511   */\n      pop\n      jump\t// out\n        /* \"#utility.yul\":25517:25883   */\n    tag_644:\n        /* \"#utility.yul\":25659:25662   */\n      0x00\n        /* \"#utility.yul\":25680:25747   */\n      tag_939\n        /* \"#utility.yul\":25744:25746   */\n      0x1a\n        /* \"#utility.yul\":25739:25742   */\n      dup4\n        /* \"#utility.yul\":25680:25747   */\n      tag_634\n      jump\t// in\n    tag_939:\n        /* \"#utility.yul\":25673:25747   */\n      swap2\n      pop\n        /* \"#utility.yul\":25756:25849   */\n      tag_940\n        /* \"#utility.yul\":25845:25848   */\n      dup3\n        /* \"#utility.yul\":25756:25849   */\n      tag_643\n      jump\t// in\n    tag_940:\n        /* \"#utility.yul\":25874:25876   */\n      0x20\n        /* \"#utility.yul\":25869:25872   */\n      dup3\n        /* \"#utility.yul\":25865:25877   */\n      add\n        /* \"#utility.yul\":25858:25877   */\n      swap1\n      pop\n        /* \"#utility.yul\":25517:25883   */\n      swap2\n      swap1\n      pop\n      jump\t// out\n        /* \"#utility.yul\":25889:26308   */\n    tag_188:\n        /* \"#utility.yul\":26055:26059   */\n      0x00\n        /* \"#utility.yul\":26093:26095   */\n      0x20\n        /* \"#utility.yul\":26082:26091   */\n      dup3\n        /* \"#utility.yul\":26078:26096   */\n      add\n        /* \"#utility.yul\":26070:26096   */\n      swap1\n      pop\n        /* \"#utility.yul\":26142:26151   */\n      dup2\n        /* \"#utility.yul\":26136:26140   */\n      dup2\n        /* \"#utility.yul\":26132:26152   */\n      sub\n        /* \"#utility.yul\":26128:26129   */\n      0x00\n        /* \"#utility.yul\":26117:26126   */\n      dup4\n        /* \"#utility.yul\":26113:26130   */\n      add\n        /* \"#utility.yul\":26106:26153   */\n      mstore\n        /* \"#utility.yul\":26170:26301   */\n      tag_942\n        /* \"#utility.yul\":26296:26300   */\n      dup2\n        /* \"#utility.yul\":26170:26301   */\n      tag_644\n      jump\t// in\n    tag_942:\n        /* \"#utility.yul\":26162:26301   */\n      swap1\n      pop\n        /* \"#utility.yul\":25889:26308   */\n      swap2\n      swap1\n      pop\n      jump\t// out\n        /* \"#utility.yul\":26314:26543   */\n    tag_645:\n        /* \"#utility.yul\":26454:26488   */\n      0x4e4654537761707065723a207377617020697320636f6d706c65746564206f72\n        /* \"#utility.yul\":26450:26451   */\n      0x00\n        /* \"#utility.yul\":26442:26448   */\n      dup3\n        /* \"#utility.yul\":26438:26452   */\n      add\n        /* \"#utility.yul\":26431:26489   */\n      mstore\n        /* \"#utility.yul\":26523:26535   */\n      0x2063616e63656c6c656400000000000000000000000000000000000000000000\n        /* \"#utility.yul\":26518:26520   */\n      0x20\n        /* \"#utility.yul\":26510:26516   */\n      dup3\n        /* \"#utility.yul\":26506:26521   */\n      add\n        /* \"#utility.yul\":26499:26536   */\n      mstore\n        /* \"#utility.yul\":26314:26543   */\n      pop\n      jump\t// out\n        /* \"#utility.yul\":26549:26915   */\n    tag_646:\n        /* \"#utility.yul\":26691:26694   */\n      0x00\n        /* \"#utility.yul\":26712:26779   */\n      tag_945\n        /* \"#utility.yul\":26776:26778   */\n      0x2a\n        /* \"#utility.yul\":26771:26774   */\n      dup4\n        /* \"#utility.yul\":26712:26779   */\n      tag_634\n      jump\t// in\n    tag_945:\n        /* \"#utility.yul\":26705:26779   */\n      swap2\n      pop\n        /* \"#utility.yul\":26788:26881   */\n      tag_946\n        /* \"#utility.yul\":26877:26880   */\n      dup3\n        /* \"#utility.yul\":26788:26881   */\n      tag_645\n      jump\t// in\n    tag_946:\n        /* \"#utility.yul\":26906:26908   */\n      0x40\n        /* \"#utility.yul\":26901:26904   */\n      dup3\n        /* \"#utility.yul\":26897:26909   */\n      add\n        /* \"#utility.yul\":26890:26909   */\n      swap1\n      pop\n        /* \"#utility.yul\":26549:26915   */\n      swap2\n      swap1\n      pop\n      jump\t// out\n        /* \"#utility.yul\":26921:27340   */\n    tag_197:\n        /* \"#utility.yul\":27087:27091   */\n      0x00\n        /* \"#utility.yul\":27125:27127   */\n      0x20\n        /* \"#utility.yul\":27114:27123   */\n      dup3\n        /* \"#utility.yul\":27110:27128   */\n      add\n        /* \"#utility.yul\":27102:27128   */\n      swap1\n      pop\n        /* \"#utility.yul\":27174:27183   */\n      dup2\n        /* \"#utility.yul\":27168:27172   */\n      dup2\n        /* \"#utility.yul\":27164:27184   */\n      sub\n        /* \"#utility.yul\":27160:27161   */\n      0x00\n        /* \"#utility.yul\":27149:27158   */\n      dup4\n        /* \"#utility.yul\":27145:27162   */\n      add\n        /* \"#utility.yul\":27138:27185   */\n      mstore\n        /* \"#utility.yul\":27202:27333   */\n      tag_948\n        /* \"#utility.yul\":27328:27332   */\n      dup2\n        /* \"#utility.yul\":27202:27333   */\n      tag_646\n      jump\t// in\n    tag_948:\n        /* \"#utility.yul\":27194:27333   */\n      swap1\n      pop\n        /* \"#utility.yul\":26921:27340   */\n      swap2\n      swap1\n      pop\n      jump\t// out\n        /* \"#utility.yul\":27346:27593   */\n    tag_647:\n        /* \"#utility.yul\":27486:27520   */\n      0x4e4654537761707065723a20736574436f6e7472696275746f723a20636f6e74\n        /* \"#utility.yul\":27482:27483   */\n      0x00\n        /* \"#utility.yul\":27474:27480   */\n      dup3\n        /* \"#utility.yul\":27470:27484   */\n      add\n        /* \"#utility.yul\":27463:27521   */\n      mstore\n        /* \"#utility.yul\":27555:27585   */\n      0x72696275746f722061646472657373206973206e6f74206120454f4100000000\n        /* \"#utility.yul\":27550:27552   */\n      0x20\n        /* \"#utility.yul\":27542:27548   */\n      dup3\n        /* \"#utility.yul\":27538:27553   */\n      add\n        /* \"#utility.yul\":27531:27586   */\n      mstore\n        /* \"#utility.yul\":27346:27593   */\n      pop\n      jump\t// out\n        /* \"#utility.yul\":27599:27965   */\n    tag_648:\n        /* \"#utility.yul\":27741:27744   */\n      0x00\n        /* \"#utility.yul\":27762:27829   */\n      tag_951\n        /* \"#utility.yul\":27826:27828   */\n      0x3c\n        /* \"#utility.yul\":27821:27824   */\n      dup4\n        /* \"#utility.yul\":27762:27829   */\n      tag_634\n      jump\t// in\n    tag_951:\n        /* \"#utility.yul\":27755:27829   */\n      swap2\n      pop\n        /* \"#utility.yul\":27838:27931   */\n      tag_952\n        /* \"#utility.yul\":27927:27930   */\n      dup3\n        /* \"#utility.yul\":27838:27931   */\n      tag_647\n      jump\t// in\n    tag_952:\n        /* \"#utility.yul\":27956:27958   */\n      0x40\n        /* \"#utility.yul\":27951:27954   */\n      dup3\n        /* \"#utility.yul\":27947:27959   */\n      add\n        /* \"#utility.yul\":27940:27959   */\n      swap1\n      pop\n        /* \"#utility.yul\":27599:27965   */\n      swap2\n      swap1\n      pop\n      jump\t// out\n        /* \"#utility.yul\":27971:28390   */\n    tag_231:\n        /* \"#utility.yul\":28137:28141   */\n      0x00\n        /* \"#utility.yul\":28175:28177   */\n      0x20\n        /* \"#utility.yul\":28164:28173   */\n      dup3\n        /* \"#utility.yul\":28160:28178   */\n      add\n        /* \"#utility.yul\":28152:28178   */\n      swap1\n      pop\n        /* \"#utility.yul\":28224:28233   */\n      dup2\n        /* \"#utility.yul\":28218:28222   */\n      dup2\n        /* \"#utility.yul\":28214:28234   */\n      sub\n        /* \"#utility.yul\":28210:28211   */\n      0x00\n        /* \"#utility.yul\":28199:28208   */\n      dup4\n        /* \"#utility.yul\":28195:28212   */\n      add\n        /* \"#utility.yul\":28188:28235   */\n      mstore\n        /* \"#utility.yul\":28252:28383   */\n      tag_954\n        /* \"#utility.yul\":28378:28382   */\n      dup2\n        /* \"#utility.yul\":28252:28383   */\n      tag_648\n      jump\t// in\n    tag_954:\n        /* \"#utility.yul\":28244:28383   */\n      swap1\n      pop\n        /* \"#utility.yul\":27971:28390   */\n      swap2\n      swap1\n      pop\n      jump\t// out\n        /* \"#utility.yul\":28396:28587   */\n    tag_235:\n        /* \"#utility.yul\":28436:28440   */\n      0x00\n        /* \"#utility.yul\":28456:28476   */\n      tag_956\n        /* \"#utility.yul\":28474:28475   */\n      dup3\n        /* \"#utility.yul\":28456:28476   */\n      tag_583\n      jump\t// in\n    tag_956:\n        /* \"#utility.yul\":28451:28476   */\n      swap2\n      pop\n        /* \"#utility.yul\":28490:28510   */\n      tag_957\n        /* \"#utility.yul\":28508:28509   */\n      dup4\n        /* \"#utility.yul\":28490:28510   */\n      tag_583\n      jump\t// in\n    tag_957:\n        /* \"#utility.yul\":28485:28510   */\n      swap3\n      pop\n        /* \"#utility.yul\":28529:28530   */\n      dup3\n        /* \"#utility.yul\":28526:28527   */\n      dup3\n        /* \"#utility.yul\":28523:28531   */\n      lt\n        /* \"#utility.yul\":28520:28554   */\n      iszero\n      tag_958\n      jumpi\n        /* \"#utility.yul\":28534:28552   */\n      tag_959\n      tag_639\n      jump\t// in\n    tag_959:\n        /* \"#utility.yul\":28520:28554   */\n    tag_958:\n        /* \"#utility.yul\":28579:28580   */\n      dup3\n        /* \"#utility.yul\":28576:28577   */\n      dup3\n        /* \"#utility.yul\":28572:28581   */\n      sub\n        /* \"#utility.yul\":28564:28581   */\n      swap1\n      pop\n        /* \"#utility.yul\":28396:28587   */\n      swap3\n      swap2\n      pop\n      pop\n      jump\t// out\n        /* \"#utility.yul\":28593:28898   */\n    tag_237:\n        /* \"#utility.yul\":28633:28636   */\n      0x00\n        /* \"#utility.yul\":28652:28672   */\n      tag_961\n        /* \"#utility.yul\":28670:28671   */\n      dup3\n        /* \"#utility.yul\":28652:28672   */\n      tag_583\n      jump\t// in\n    tag_961:\n        /* \"#utility.yul\":28647:28672   */\n      swap2\n      pop\n        /* \"#utility.yul\":28686:28706   */\n      tag_962\n        /* \"#utility.yul\":28704:28705   */\n      dup4\n        /* \"#utility.yul\":28686:28706   */\n      tag_583\n      jump\t// in\n    tag_962:\n        /* \"#utility.yul\":28681:28706   */\n      swap3\n      pop\n        /* \"#utility.yul\":28840:28841   */\n      dup3\n        /* \"#utility.yul\":28772:28838   */\n      0xffffffffffffffffffffffffffffffffffffffffffffffffffffffffffffffff\n        /* \"#utility.yul\":28768:28842   */\n      sub\n        /* \"#utility.yul\":28765:28766   */\n      dup3\n        /* \"#utility.yul\":28762:28843   */\n      gt\n        /* \"#utility.yul\":28759:28866   */\n      iszero\n      tag_963\n      jumpi\n        /* \"#utility.yul\":28846:28864   */\n      tag_964\n      tag_639\n      jump\t// in\n    tag_964:\n        /* \"#utility.yul\":28759:28866   */\n    tag_963:\n        /* \"#utility.yul\":28890:28891   */\n      dup3\n        /* \"#utility.yul\":28887:28888   */\n      dup3\n        /* \"#utility.yul\":28883:28892   */\n      add\n        /* \"#utility.yul\":28876:28892   */\n      swap1\n      pop\n        /* \"#utility.yul\":28593:28898   */\n      swap3\n      swap2\n      pop\n      pop\n      jump\t// out\n        /* \"#utility.yul\":28904:29143   */\n    tag_649:\n        /* \"#utility.yul\":29044:29078   */\n      0x4e4654537761707065723a2072656d6f7665436f6e7472696275746f723a2063\n        /* \"#utility.yul\":29040:29041   */\n      0x00\n        /* \"#utility.yul\":29032:29038   */\n      dup3\n        /* \"#utility.yul\":29028:29042   */\n      add\n        /* \"#utility.yul\":29021:29079   */\n      mstore\n        /* \"#utility.yul\":29113:29135   */\n      0x6f6e7472696275746f72206e6f7420666f756e64000000000000000000000000\n        /* \"#utility.yul\":29108:29110   */\n      0x20\n        /* \"#utility.yul\":29100:29106   */\n      dup3\n        /* \"#utility.yul\":29096:29111   */\n      add\n        /* \"#utility.yul\":29089:29136   */\n      mstore\n        /* \"#utility.yul\":28904:29143   */\n      pop\n      jump\t// out\n        /* \"#utility.yul\":29149:29515   */\n    tag_650:\n        /* \"#utility.yul\":29291:29294   */\n      0x00\n        /* \"#utility.yul\":29312:29379   */\n      tag_967\n        /* \"#utility.yul\":29376:29378   */\n      0x34\n        /* \"#utility.yul\":29371:29374   */\n      dup4\n        /* \"#utility.yul\":29312:29379   */\n      tag_634\n      jump\t// in\n    tag_967:\n        /* \"#utility.yul\":29305:29379   */\n      swap2\n      pop\n        /* \"#utility.yul\":29388:29481   */\n      tag_968\n        /* \"#utility.yul\":29477:29480   */\n      dup3\n        /* \"#utility.yul\":29388:29481   */\n      tag_649\n      jump\t// in\n    tag_968:\n        /* \"#utility.yul\":29506:29508   */\n      0x40\n        /* \"#utility.yul\":29501:29504   */\n      dup3\n        /* \"#utility.yul\":29497:29509   */\n      add\n        /* \"#utility.yul\":29490:29509   */\n      swap1\n      pop\n        /* \"#utility.yul\":29149:29515   */\n      swap2\n      swap1\n      pop\n      jump\t// out\n        /* \"#utility.yul\":29521:29940   */\n    tag_244:\n        /* \"#utility.yul\":29687:29691   */\n      0x00\n        /* \"#utility.yul\":29725:29727   */\n      0x20\n        /* \"#utility.yul\":29714:29723   */\n      dup3\n        /* \"#utility.yul\":29710:29728   */\n      add\n        /* \"#utility.yul\":29702:29728   */\n      swap1\n      pop\n        /* \"#utility.yul\":29774:29783   */\n      dup2\n        /* \"#utility.yul\":29768:29772   */\n      dup2\n        /* \"#utility.yul\":29764:29784   */\n      sub\n        /* \"#utility.yul\":29760:29761   */\n      0x00\n        /* \"#utility.yul\":29749:29758   */\n      dup4\n        /* \"#utility.yul\":29745:29762   */\n      add\n        /* \"#utility.yul\":29738:29785   */\n      mstore\n        /* \"#utility.yul\":29802:29933   */\n      tag_970\n        /* \"#utility.yul\":29928:29932   */\n      dup2\n        /* \"#utility.yul\":29802:29933   */\n      tag_650\n      jump\t// in\n    tag_970:\n        /* \"#utility.yul\":29794:29933   */\n      swap1\n      pop\n        /* \"#utility.yul\":29521:29940   */\n      swap2\n      swap1\n      pop\n      jump\t// out\n        /* \"#utility.yul\":29946:30126   */\n    tag_258:\n        /* \"#utility.yul\":29994:30071   */\n      0x4e487b7100000000000000000000000000000000000000000000000000000000\n        /* \"#utility.yul\":29991:29992   */\n      0x00\n        /* \"#utility.yul\":29984:30072   */\n      mstore\n        /* \"#utility.yul\":30091:30095   */\n      0x31\n        /* \"#utility.yul\":30088:30089   */\n      0x04\n        /* \"#utility.yul\":30081:30096   */\n      mstore\n        /* \"#utility.yul\":30115:30119   */\n      0x24\n        /* \"#utility.yul\":30112:30113   */\n      0x00\n        /* \"#utility.yul\":30105:30120   */\n      revert\n        /* \"#utility.yul\":30132:30362   */\n    tag_651:\n        /* \"#utility.yul\":30272:30306   */\n      0x4e4654537761707065723a20756e63616e63656c3a2073776170206973206e6f\n        /* \"#utility.yul\":30268:30269   */\n      0x00\n        /* \"#utility.yul\":30260:30266   */\n      dup3\n        /* \"#utility.yul\":30256:30270   */\n      add\n        /* \"#utility.yul\":30249:30307   */\n      mstore\n        /* \"#utility.yul\":30341:30354   */\n      0x742063616e63656c6c6564000000000000000000000000000000000000000000\n        /* \"#utility.yul\":30336:30338   */\n      0x20\n        /* \"#utility.yul\":30328:30334   */\n      dup3\n        /* \"#utility.yul\":30324:30339   */\n      add\n        /* \"#utility.yul\":30317:30355   */\n      mstore\n        /* \"#utility.yul\":30132:30362   */\n      pop\n      jump\t// out\n        /* \"#utility.yul\":30368:30734   */\n    tag_652:\n        /* \"#utility.yul\":30510:30513   */\n      0x00\n        /* \"#utility.yul\":30531:30598   */\n      tag_974\n        /* \"#utility.yul\":30595:30597   */\n      0x2b\n        /* \"#utility.yul\":30590:30593   */\n      dup4\n        /* \"#utility.yul\":30531:30598   */\n      tag_634\n      jump\t// in\n    tag_974:\n        /* \"#utility.yul\":30524:30598   */\n      swap2\n      pop\n        /* \"#utility.yul\":30607:30700   */\n      tag_975\n        /* \"#utility.yul\":30696:30699   */\n      dup3\n        /* \"#utility.yul\":30607:30700   */\n      tag_651\n      jump\t// in\n    tag_975:\n        /* \"#utility.yul\":30725:30727   */\n      0x40\n        /* \"#utility.yul\":30720:30723   */\n      dup3\n        /* \"#utility.yul\":30716:30728   */\n      add\n        /* \"#utility.yul\":30709:30728   */\n      swap1\n      pop\n        /* \"#utility.yul\":30368:30734   */\n      swap2\n      swap1\n      pop\n      jump\t// out\n        /* \"#utility.yul\":30740:31159   */\n    tag_275:\n        /* \"#utility.yul\":30906:30910   */\n      0x00\n        /* \"#utility.yul\":30944:30946   */\n      0x20\n        /* \"#utility.yul\":30933:30942   */\n      dup3\n        /* \"#utility.yul\":30929:30947   */\n      add\n        /* \"#utility.yul\":30921:30947   */\n      swap1\n      pop\n        /* \"#utility.yul\":30993:31002   */\n      dup2\n        /* \"#utility.yul\":30987:30991   */\n      dup2\n        /* \"#utility.yul\":30983:31003   */\n      sub\n        /* \"#utility.yul\":30979:30980   */\n      0x00\n        /* \"#utility.yul\":30968:30977   */\n      dup4\n        /* \"#utility.yul\":30964:30981   */\n      add\n        /* \"#utility.yul\":30957:31004   */\n      mstore\n        /* \"#utility.yul\":31021:31152   */\n      tag_977\n        /* \"#utility.yul\":31147:31151   */\n      dup2\n        /* \"#utility.yul\":31021:31152   */\n      tag_652\n      jump\t// in\n    tag_977:\n        /* \"#utility.yul\":31013:31152   */\n      swap1\n      pop\n        /* \"#utility.yul\":30740:31159   */\n      swap2\n      swap1\n      pop\n      jump\t// out\n        /* \"#utility.yul\":31165:31397   */\n    tag_653:\n        /* \"#utility.yul\":31305:31339   */\n      0x4e4654537761707065723a20737761703a20696e73756666696369656e742076\n        /* \"#utility.yul\":31301:31302   */\n      0x00\n        /* \"#utility.yul\":31293:31299   */\n      dup3\n        /* \"#utility.yul\":31289:31303   */\n      add\n        /* \"#utility.yul\":31282:31340   */\n      mstore\n        /* \"#utility.yul\":31374:31389   */\n      0x616c756520666f72207377617000000000000000000000000000000000000000\n        /* \"#utility.yul\":31369:31371   */\n      0x20\n        /* \"#utility.yul\":31361:31367   */\n      dup3\n        /* \"#utility.yul\":31357:31372   */\n      add\n        /* \"#utility.yul\":31350:31390   */\n      mstore\n        /* \"#utility.yul\":31165:31397   */\n      pop\n      jump\t// out\n        /* \"#utility.yul\":31403:31769   */\n    tag_654:\n        /* \"#utility.yul\":31545:31548   */\n      0x00\n        /* \"#utility.yul\":31566:31633   */\n      tag_980\n        /* \"#utility.yul\":31630:31632   */\n      0x2d\n        /* \"#utility.yul\":31625:31628   */\n      dup4\n        /* \"#utility.yul\":31566:31633   */\n      tag_634\n      jump\t// in\n    tag_980:\n        /* \"#utility.yul\":31559:31633   */\n      swap2\n      pop\n        /* \"#utility.yul\":31642:31735   */\n      tag_981\n        /* \"#utility.yul\":31731:31734   */\n      dup3\n        /* \"#utility.yul\":31642:31735   */\n      tag_653\n      jump\t// in\n    tag_981:\n        /* \"#utility.yul\":31760:31762   */\n      0x40\n        /* \"#utility.yul\":31755:31758   */\n      dup3\n        /* \"#utility.yul\":31751:31763   */\n      add\n        /* \"#utility.yul\":31744:31763   */\n      swap1\n      pop\n        /* \"#utility.yul\":31403:31769   */\n      swap2\n      swap1\n      pop\n      jump\t// out\n        /* \"#utility.yul\":31775:32194   */\n    tag_367:\n        /* \"#utility.yul\":31941:31945   */\n      0x00\n        /* \"#utility.yul\":31979:31981   */\n      0x20\n        /* \"#utility.yul\":31968:31977   */\n      dup3\n        /* \"#utility.yul\":31964:31982   */\n      add\n        /* \"#utility.yul\":31956:31982   */\n      swap1\n      pop\n        /* \"#utility.yul\":32028:32037   */\n      dup2\n        /* \"#utility.yul\":32022:32026   */\n      dup2\n        /* \"#utility.yul\":32018:32038   */\n      sub\n        /* \"#utility.yul\":32014:32015   */\n      0x00\n        /* \"#utility.yul\":32003:32012   */\n      dup4\n        /* \"#utility.yul\":31999:32016   */\n      add\n        /* \"#utility.yul\":31992:32039   */\n      mstore\n        /* \"#utility.yul\":32056:32187   */\n      tag_983\n        /* \"#utility.yul\":32182:32186   */\n      dup2\n        /* \"#utility.yul\":32056:32187   */\n      tag_654\n      jump\t// in\n    tag_983:\n        /* \"#utility.yul\":32048:32187   */\n      swap1\n      pop\n        /* \"#utility.yul\":31775:32194   */\n      swap2\n      swap1\n      pop\n      jump\t// out\n        /* \"#utility.yul\":32200:32318   */\n    tag_655:\n        /* \"#utility.yul\":32287:32311   */\n      tag_985\n        /* \"#utility.yul\":32305:32310   */\n      dup2\n        /* \"#utility.yul\":32287:32311   */\n      tag_610\n      jump\t// in\n    tag_985:\n        /* \"#utility.yul\":32282:32285   */\n      dup3\n        /* \"#utility.yul\":32275:32312   */\n      mstore\n        /* \"#utility.yul\":32200:32318   */\n      pop\n      pop\n      jump\t// out\n        /* \"#utility.yul\":32324:32877   */\n    tag_377:\n        /* \"#utility.yul\":32501:32505   */\n      0x00\n        /* \"#utility.yul\":32539:32542   */\n      0x80\n        /* \"#utility.yul\":32528:32537   */\n      dup3\n        /* \"#utility.yul\":32524:32543   */\n      add\n        /* \"#utility.yul\":32516:32543   */\n      swap1\n      pop\n        /* \"#utility.yul\":32553:32624   */\n      tag_987\n        /* \"#utility.yul\":32621:32622   */\n      0x00\n        /* \"#utility.yul\":32610:32619   */\n      dup4\n        /* \"#utility.yul\":32606:32623   */\n      add\n        /* \"#utility.yul\":32597:32603   */\n      dup8\n        /* \"#utility.yul\":32553:32624   */\n      tag_626\n      jump\t// in\n    tag_987:\n        /* \"#utility.yul\":32634:32706   */\n      tag_988\n        /* \"#utility.yul\":32702:32704   */\n      0x20\n        /* \"#utility.yul\":32691:32700   */\n      dup4\n        /* \"#utility.yul\":32687:32705   */\n      add\n        /* \"#utility.yul\":32678:32684   */\n      dup7\n        /* \"#utility.yul\":32634:32706   */\n      tag_626\n      jump\t// in\n    tag_988:\n        /* \"#utility.yul\":32716:32788   */\n      tag_989\n        /* \"#utility.yul\":32784:32786   */\n      0x40\n        /* \"#utility.yul\":32773:32782   */\n      dup4\n        /* \"#utility.yul\":32769:32787   */\n      add\n        /* \"#utility.yul\":32760:32766   */\n      dup6\n        /* \"#utility.yul\":32716:32788   */\n      tag_655\n      jump\t// in\n    tag_989:\n        /* \"#utility.yul\":32798:32870   */\n      tag_990\n        /* \"#utility.yul\":32866:32868   */\n      0x60\n        /* \"#utility.yul\":32855:32864   */\n      dup4\n        /* \"#utility.yul\":32851:32869   */\n      add\n        /* \"#utility.yul\":32842:32848   */\n      dup5\n        /* \"#utility.yul\":32798:32870   */\n      tag_588\n      jump\t// in\n    tag_990:\n        /* \"#utility.yul\":32324:32877   */\n      swap6\n      swap5\n      pop\n      pop\n      pop\n      pop\n      pop\n      jump\t// out\n        /* \"#utility.yul\":32883:33020   */\n    tag_656:\n        /* \"#utility.yul\":32937:32942   */\n      0x00\n        /* \"#utility.yul\":32968:32974   */\n      dup2\n        /* \"#utility.yul\":32962:32975   */\n      mload\n        /* \"#utility.yul\":32953:32975   */\n      swap1\n      pop\n        /* \"#utility.yul\":32984:33014   */\n      tag_992\n        /* \"#utility.yul\":33008:33013   */\n      dup2\n        /* \"#utility.yul\":32984:33014   */\n      tag_624\n      jump\t// in\n    tag_992:\n        /* \"#utility.yul\":32883:33020   */\n      swap3\n      swap2\n      pop\n      pop\n      jump\t// out\n        /* \"#utility.yul\":33026:33371   */\n    tag_382:\n        /* \"#utility.yul\":33093:33099   */\n      0x00\n        /* \"#utility.yul\":33142:33144   */\n      0x20\n        /* \"#utility.yul\":33130:33139   */\n      dup3\n        /* \"#utility.yul\":33121:33128   */\n      dup5\n        /* \"#utility.yul\":33117:33140   */\n      sub\n        /* \"#utility.yul\":33113:33145   */\n      slt\n        /* \"#utility.yul\":33110:33229   */\n      iszero\n      tag_994\n      jumpi\n        /* \"#utility.yul\":33148:33227   */\n      tag_995\n      tag_574\n      jump\t// in\n    tag_995:\n        /* \"#utility.yul\":33110:33229   */\n    tag_994:\n        /* \"#utility.yul\":33268:33269   */\n      0x00\n        /* \"#utility.yul\":33293:33354   */\n      tag_996\n        /* \"#utility.yul\":33346:33353   */\n      dup5\n        /* \"#utility.yul\":33337:33343   */\n      dup3\n        /* \"#utility.yul\":33326:33335   */\n      dup6\n        /* \"#utility.yul\":33322:33344   */\n      add\n        /* \"#utility.yul\":33293:33354   */\n      tag_656\n      jump\t// in\n    tag_996:\n        /* \"#utility.yul\":33283:33354   */\n      swap2\n      pop\n        /* \"#utility.yul\":33239:33364   */\n      pop\n        /* \"#utility.yul\":33026:33371   */\n      swap3\n      swap2\n      pop\n      pop\n      jump\t// out\n        /* \"#utility.yul\":33377:33622   */\n    tag_657:\n        /* \"#utility.yul\":33517:33551   */\n      0x4e4654537761707065723a20737761703a2073656e646572206973206e6f7420\n        /* \"#utility.yul\":33513:33514   */\n      0x00\n        /* \"#utility.yul\":33505:33511   */\n      dup3\n        /* \"#utility.yul\":33501:33515   */\n      add\n        /* \"#utility.yul\":33494:33552   */\n      mstore\n        /* \"#utility.yul\":33586:33614   */\n      0x746865206f776e6572206f662064656d616e646564204e465473000000000000\n        /* \"#utility.yul\":33581:33583   */\n      0x20\n        /* \"#utility.yul\":33573:33579   */\n      dup3\n        /* \"#utility.yul\":33569:33584   */\n      add\n        /* \"#utility.yul\":33562:33615   */\n      mstore\n        /* \"#utility.yul\":33377:33622   */\n      pop\n      jump\t// out\n        /* \"#utility.yul\":33628:33994   */\n    tag_658:\n        /* \"#utility.yul\":33770:33773   */\n      0x00\n        /* \"#utility.yul\":33791:33858   */\n      tag_999\n        /* \"#utility.yul\":33855:33857   */\n      0x3a\n        /* \"#utility.yul\":33850:33853   */\n      dup4\n        /* \"#utility.yul\":33791:33858   */\n      tag_634\n      jump\t// in\n    tag_999:\n        /* \"#utility.yul\":33784:33858   */\n      swap2\n      pop\n        /* \"#utility.yul\":33867:33960   */\n      tag_1000\n        /* \"#utility.yul\":33956:33959   */\n      dup3\n        /* \"#utility.yul\":33867:33960   */\n      tag_657\n      jump\t// in\n    tag_1000:\n        /* \"#utility.yul\":33985:33987   */\n      0x40\n        /* \"#utility.yul\":33980:33983   */\n      dup3\n        /* \"#utility.yul\":33976:33988   */\n      add\n        /* \"#utility.yul\":33969:33988   */\n      swap1\n      pop\n        /* \"#utility.yul\":33628:33994   */\n      swap2\n      swap1\n      pop\n      jump\t// out\n        /* \"#utility.yul\":34000:34419   */\n    tag_385:\n        /* \"#utility.yul\":34166:34170   */\n      0x00\n        /* \"#utility.yul\":34204:34206   */\n      0x20\n        /* \"#utility.yul\":34193:34202   */\n      dup3\n        /* \"#utility.yul\":34189:34207   */\n      add\n        /* \"#utility.yul\":34181:34207   */\n      swap1\n      pop\n        /* \"#utility.yul\":34253:34262   */\n      dup2\n        /* \"#utility.yul\":34247:34251   */\n      dup2\n        /* \"#utility.yul\":34243:34263   */\n      sub\n        /* \"#utility.yul\":34239:34240   */\n      0x00\n        /* \"#utility.yul\":34228:34237   */\n      dup4\n        /* \"#utility.yul\":34224:34241   */\n      add\n        /* \"#utility.yul\":34217:34264   */\n      mstore\n        /* \"#utility.yul\":34281:34412   */\n      tag_1002\n        /* \"#utility.yul\":34407:34411   */\n      dup2\n        /* \"#utility.yul\":34281:34412   */\n      tag_658\n      jump\t// in\n    tag_1002:\n        /* \"#utility.yul\":34273:34412   */\n      swap1\n      pop\n        /* \"#utility.yul\":34000:34419   */\n      swap2\n      swap1\n      pop\n      jump\t// out\n        /* \"#utility.yul\":34425:35089   */\n    tag_388:\n        /* \"#utility.yul\":34630:34634   */\n      0x00\n        /* \"#utility.yul\":34668:34671   */\n      0xa0\n        /* \"#utility.yul\":34657:34666   */\n      dup3\n        /* \"#utility.yul\":34653:34672   */\n      add\n        /* \"#utility.yul\":34645:34672   */\n      swap1\n      pop\n        /* \"#utility.yul\":34682:34753   */\n      tag_1004\n        /* \"#utility.yul\":34750:34751   */\n      0x00\n        /* \"#utility.yul\":34739:34748   */\n      dup4\n        /* \"#utility.yul\":34735:34752   */\n      add\n        /* \"#utility.yul\":34726:34732   */\n      dup9\n        /* \"#utility.yul\":34682:34753   */\n      tag_626\n      jump\t// in\n    tag_1004:\n        /* \"#utility.yul\":34763:34835   */\n      tag_1005\n        /* \"#utility.yul\":34831:34833   */\n      0x20\n        /* \"#utility.yul\":34820:34829   */\n      dup4\n        /* \"#utility.yul\":34816:34834   */\n      add\n        /* \"#utility.yul\":34807:34813   */\n      dup8\n        /* \"#utility.yul\":34763:34835   */\n      tag_626\n      jump\t// in\n    tag_1005:\n        /* \"#utility.yul\":34845:34917   */\n      tag_1006\n        /* \"#utility.yul\":34913:34915   */\n      0x40\n        /* \"#utility.yul\":34902:34911   */\n      dup4\n        /* \"#utility.yul\":34898:34916   */\n      add\n        /* \"#utility.yul\":34889:34895   */\n      dup7\n        /* \"#utility.yul\":34845:34917   */\n      tag_655\n      jump\t// in\n    tag_1006:\n        /* \"#utility.yul\":34927:34999   */\n      tag_1007\n        /* \"#utility.yul\":34995:34997   */\n      0x60\n        /* \"#utility.yul\":34984:34993   */\n      dup4\n        /* \"#utility.yul\":34980:34998   */\n      add\n        /* \"#utility.yul\":34971:34977   */\n      dup6\n        /* \"#utility.yul\":34927:34999   */\n      tag_588\n      jump\t// in\n    tag_1007:\n        /* \"#utility.yul\":35009:35082   */\n      tag_1008\n        /* \"#utility.yul\":35077:35080   */\n      0x80\n        /* \"#utility.yul\":35066:35075   */\n      dup4\n        /* \"#utility.yul\":35062:35081   */\n      add\n        /* \"#utility.yul\":35053:35059   */\n      dup5\n        /* \"#utility.yul\":35009:35082   */\n      tag_626\n      jump\t// in\n    tag_1008:\n        /* \"#utility.yul\":34425:35089   */\n      swap7\n      swap6\n      pop\n      pop\n      pop\n      pop\n      pop\n      pop\n      jump\t// out\n        /* \"#utility.yul\":35095:35339   */\n    tag_659:\n        /* \"#utility.yul\":35235:35269   */\n      0x4e4654537761707065723a20737761703a207472616e736665722066726f6d20\n        /* \"#utility.yul\":35231:35232   */\n      0x00\n        /* \"#utility.yul\":35223:35229   */\n      dup3\n        /* \"#utility.yul\":35219:35233   */\n      add\n        /* \"#utility.yul\":35212:35270   */\n      mstore\n        /* \"#utility.yul\":35304:35331   */\n      0x74656e646572656420746f20626964646572206661696c656400000000000000\n        /* \"#utility.yul\":35299:35301   */\n      0x20\n        /* \"#utility.yul\":35291:35297   */\n      dup3\n        /* \"#utility.yul\":35287:35302   */\n      add\n        /* \"#utility.yul\":35280:35332   */\n      mstore\n        /* \"#utility.yul\":35095:35339   */\n      pop\n      jump\t// out\n        /* \"#utility.yul\":35345:35711   */\n    tag_660:\n        /* \"#utility.yul\":35487:35490   */\n      0x00\n        /* \"#utility.yul\":35508:35575   */\n      tag_1011\n        /* \"#utility.yul\":35572:35574   */\n      0x39\n        /* \"#utility.yul\":35567:35570   */\n      dup4\n        /* \"#utility.yul\":35508:35575   */\n      tag_634\n      jump\t// in\n    tag_1011:\n        /* \"#utility.yul\":35501:35575   */\n      swap2\n      pop\n        /* \"#utility.yul\":35584:35677   */\n      tag_1012\n        /* \"#utility.yul\":35673:35676   */\n      dup3\n        /* \"#utility.yul\":35584:35677   */\n      tag_659\n      jump\t// in\n    tag_1012:\n        /* \"#utility.yul\":35702:35704   */\n      0x40\n        /* \"#utility.yul\":35697:35700   */\n      dup3\n        /* \"#utility.yul\":35693:35705   */\n      add\n        /* \"#utility.yul\":35686:35705   */\n      swap1\n      pop\n        /* \"#utility.yul\":35345:35711   */\n      swap2\n      swap1\n      pop\n      jump\t// out\n        /* \"#utility.yul\":35717:36136   */\n    tag_395:\n        /* \"#utility.yul\":35883:35887   */\n      0x00\n        /* \"#utility.yul\":35921:35923   */\n      0x20\n        /* \"#utility.yul\":35910:35919   */\n      dup3\n        /* \"#utility.yul\":35906:35924   */\n      add\n        /* \"#utility.yul\":35898:35924   */\n      swap1\n      pop\n        /* \"#utility.yul\":35970:35979   */\n      dup2\n        /* \"#utility.yul\":35964:35968   */\n      dup2\n        /* \"#utility.yul\":35960:35980   */\n      sub\n        /* \"#utility.yul\":35956:35957   */\n      0x00\n        /* \"#utility.yul\":35945:35954   */\n      dup4\n        /* \"#utility.yul\":35941:35958   */\n      add\n        /* \"#utility.yul\":35934:35981   */\n      mstore\n        /* \"#utility.yul\":35998:36129   */\n      tag_1014\n        /* \"#utility.yul\":36124:36128   */\n      dup2\n        /* \"#utility.yul\":35998:36129   */\n      tag_660\n      jump\t// in\n    tag_1014:\n        /* \"#utility.yul\":35990:36129   */\n      swap1\n      pop\n        /* \"#utility.yul\":35717:36136   */\n      swap2\n      swap1\n      pop\n      jump\t// out\n        /* \"#utility.yul\":36142:36391   */\n    tag_661:\n        /* \"#utility.yul\":36282:36316   */\n      0x4e4654537761707065723a20737761703a205377617020626964646572206973\n        /* \"#utility.yul\":36278:36279   */\n      0x00\n        /* \"#utility.yul\":36270:36276   */\n      dup3\n        /* \"#utility.yul\":36266:36280   */\n      add\n        /* \"#utility.yul\":36259:36317   */\n      mstore\n        /* \"#utility.yul\":36351:36383   */\n      0x206e6f7420746865206f776e6572206f66206f666665726564204e4654730000\n        /* \"#utility.yul\":36346:36348   */\n      0x20\n        /* \"#utility.yul\":36338:36344   */\n      dup3\n        /* \"#utility.yul\":36334:36349   */\n      add\n        /* \"#utility.yul\":36327:36384   */\n      mstore\n        /* \"#utility.yul\":36142:36391   */\n      pop\n      jump\t// out\n        /* \"#utility.yul\":36397:36763   */\n    tag_662:\n        /* \"#utility.yul\":36539:36542   */\n      0x00\n        /* \"#utility.yul\":36560:36627   */\n      tag_1017\n        /* \"#utility.yul\":36624:36626   */\n      0x3e\n        /* \"#utility.yul\":36619:36622   */\n      dup4\n        /* \"#utility.yul\":36560:36627   */\n      tag_634\n      jump\t// in\n    tag_1017:\n        /* \"#utility.yul\":36553:36627   */\n      swap2\n      pop\n        /* \"#utility.yul\":36636:36729   */\n      tag_1018\n        /* \"#utility.yul\":36725:36728   */\n      dup3\n        /* \"#utility.yul\":36636:36729   */\n      tag_661\n      jump\t// in\n    tag_1018:\n        /* \"#utility.yul\":36754:36756   */\n      0x40\n        /* \"#utility.yul\":36749:36752   */\n      dup3\n        /* \"#utility.yul\":36745:36757   */\n      add\n        /* \"#utility.yul\":36738:36757   */\n      swap1\n      pop\n        /* \"#utility.yul\":36397:36763   */\n      swap2\n      swap1\n      pop\n      jump\t// out\n        /* \"#utility.yul\":36769:37188   */\n    tag_411:\n        /* \"#utility.yul\":36935:36939   */\n      0x00\n        /* \"#utility.yul\":36973:36975   */\n      0x20\n        /* \"#utility.yul\":36962:36971   */\n      dup3\n        /* \"#utility.yul\":36958:36976   */\n      add\n        /* \"#utility.yul\":36950:36976   */\n      swap1\n      pop\n        /* \"#utility.yul\":37022:37031   */\n      dup2\n        /* \"#utility.yul\":37016:37020   */\n      dup2\n        /* \"#utility.yul\":37012:37032   */\n      sub\n        /* \"#utility.yul\":37008:37009   */\n      0x00\n        /* \"#utility.yul\":36997:37006   */\n      dup4\n        /* \"#utility.yul\":36993:37010   */\n      add\n        /* \"#utility.yul\":36986:37033   */\n      mstore\n        /* \"#utility.yul\":37050:37181   */\n      tag_1020\n        /* \"#utility.yul\":37176:37180   */\n      dup2\n        /* \"#utility.yul\":37050:37181   */\n      tag_662\n      jump\t// in\n    tag_1020:\n        /* \"#utility.yul\":37042:37181   */\n      swap1\n      pop\n        /* \"#utility.yul\":36769:37188   */\n      swap2\n      swap1\n      pop\n      jump\t// out\n        /* \"#utility.yul\":37194:37438   */\n    tag_663:\n        /* \"#utility.yul\":37334:37368   */\n      0x4e4654537761707065723a20737761703a207472616e736665722066726f6d20\n        /* \"#utility.yul\":37330:37331   */\n      0x00\n        /* \"#utility.yul\":37322:37328   */\n      dup3\n        /* \"#utility.yul\":37318:37332   */\n      add\n        /* \"#utility.yul\":37311:37369   */\n      mstore\n        /* \"#utility.yul\":37403:37430   */\n      0x62696464657220746f2074656e6465726564206661696c656400000000000000\n        /* \"#utility.yul\":37398:37400   */\n      0x20\n        /* \"#utility.yul\":37390:37396   */\n      dup3\n        /* \"#utility.yul\":37386:37401   */\n      add\n        /* \"#utility.yul\":37379:37431   */\n      mstore\n        /* \"#utility.yul\":37194:37438   */\n      pop\n      jump\t// out\n        /* \"#utility.yul\":37444:37810   */\n    tag_664:\n        /* \"#utility.yul\":37586:37589   */\n      0x00\n        /* \"#utility.yul\":37607:37674   */\n      tag_1023\n        /* \"#utility.yul\":37671:37673   */\n      0x39\n        /* \"#utility.yul\":37666:37669   */\n      dup4\n        /* \"#utility.yul\":37607:37674   */\n      tag_634\n      jump\t// in\n    tag_1023:\n        /* \"#utility.yul\":37600:37674   */\n      swap2\n      pop\n        /* \"#utility.yul\":37683:37776   */\n      tag_1024\n        /* \"#utility.yul\":37772:37775   */\n      dup3\n        /* \"#utility.yul\":37683:37776   */\n      tag_663\n      jump\t// in\n    tag_1024:\n        /* \"#utility.yul\":37801:37803   */\n      0x40\n        /* \"#utility.yul\":37796:37799   */\n      dup3\n        /* \"#utility.yul\":37792:37804   */\n      add\n        /* \"#utility.yul\":37785:37804   */\n      swap1\n      pop\n        /* \"#utility.yul\":37444:37810   */\n      swap2\n      swap1\n      pop\n      jump\t// out\n        /* \"#utility.yul\":37816:38235   */\n    tag_420:\n        /* \"#utility.yul\":37982:37986   */\n      0x00\n        /* \"#utility.yul\":38020:38022   */\n      0x20\n        /* \"#utility.yul\":38009:38018   */\n      dup3\n        /* \"#utility.yul\":38005:38023   */\n      add\n        /* \"#utility.yul\":37997:38023   */\n      swap1\n      pop\n        /* \"#utility.yul\":38069:38078   */\n      dup2\n        /* \"#utility.yul\":38063:38067   */\n      dup2\n        /* \"#utility.yul\":38059:38079   */\n      sub\n        /* \"#utility.yul\":38055:38056   */\n      0x00\n        /* \"#utility.yul\":38044:38053   */\n      dup4\n        /* \"#utility.yul\":38040:38057   */\n      add\n        /* \"#utility.yul\":38033:38080   */\n      mstore\n        /* \"#utility.yul\":38097:38228   */\n      tag_1026\n        /* \"#utility.yul\":38223:38227   */\n      dup2\n        /* \"#utility.yul\":38097:38228   */\n      tag_664\n      jump\t// in\n    tag_1026:\n        /* \"#utility.yul\":38089:38228   */\n      swap1\n      pop\n        /* \"#utility.yul\":37816:38235   */\n      swap2\n      swap1\n      pop\n      jump\t// out\n        /* \"#utility.yul\":38241:38417   */\n    tag_665:\n        /* \"#utility.yul\":38381:38409   */\n      0x4e4654537761707065723a206e6f7420612074656e6465726564000000000000\n        /* \"#utility.yul\":38377:38378   */\n      0x00\n        /* \"#utility.yul\":38369:38375   */\n      dup3\n        /* \"#utility.yul\":38365:38379   */\n      add\n        /* \"#utility.yul\":38358:38410   */\n      mstore\n        /* \"#utility.yul\":38241:38417   */\n      pop\n      jump\t// out\n        /* \"#utility.yul\":38423:38789   */\n    tag_666:\n        /* \"#utility.yul\":38565:38568   */\n      0x00\n        /* \"#utility.yul\":38586:38653   */\n      tag_1029\n        /* \"#utility.yul\":38650:38652   */\n      0x1a\n        /* \"#utility.yul\":38645:38648   */\n      dup4\n        /* \"#utility.yul\":38586:38653   */\n      tag_634\n      jump\t// in\n    tag_1029:\n        /* \"#utility.yul\":38579:38653   */\n      swap2\n      pop\n        /* \"#utility.yul\":38662:38755   */\n      tag_1030\n        /* \"#utility.yul\":38751:38754   */\n      dup3\n        /* \"#utility.yul\":38662:38755   */\n      tag_665\n      jump\t// in\n    tag_1030:\n        /* \"#utility.yul\":38780:38782   */\n      0x20\n        /* \"#utility.yul\":38775:38778   */\n      dup3\n        /* \"#utility.yul\":38771:38783   */\n      add\n        /* \"#utility.yul\":38764:38783   */\n      swap1\n      pop\n        /* \"#utility.yul\":38423:38789   */\n      swap2\n      swap1\n      pop\n      jump\t// out\n        /* \"#utility.yul\":38795:39214   */\n    tag_429:\n        /* \"#utility.yul\":38961:38965   */\n      0x00\n        /* \"#utility.yul\":38999:39001   */\n      0x20\n        /* \"#utility.yul\":38988:38997   */\n      dup3\n        /* \"#utility.yul\":38984:39002   */\n      add\n        /* \"#utility.yul\":38976:39002   */\n      swap1\n      pop\n        /* \"#utility.yul\":39048:39057   */\n      dup2\n        /* \"#utility.yul\":39042:39046   */\n      dup2\n        /* \"#utility.yul\":39038:39058   */\n      sub\n        /* \"#utility.yul\":39034:39035   */\n      0x00\n        /* \"#utility.yul\":39023:39032   */\n      dup4\n        /* \"#utility.yul\":39019:39036   */\n      add\n        /* \"#utility.yul\":39012:39059   */\n      mstore\n        /* \"#utility.yul\":39076:39207   */\n      tag_1032\n        /* \"#utility.yul\":39202:39206   */\n      dup2\n        /* \"#utility.yul\":39076:39207   */\n      tag_666\n      jump\t// in\n    tag_1032:\n        /* \"#utility.yul\":39068:39207   */\n      swap1\n      pop\n        /* \"#utility.yul\":38795:39214   */\n      swap2\n      swap1\n      pop\n      jump\t// out\n        /* \"#utility.yul\":39220:39447   */\n    tag_667:\n        /* \"#utility.yul\":39360:39394   */\n      0x4e4654537761707065723a2067657448616e646c65723a206e6f2068616e646c\n        /* \"#utility.yul\":39356:39357   */\n      0x00\n        /* \"#utility.yul\":39348:39354   */\n      dup3\n        /* \"#utility.yul\":39344:39358   */\n      add\n        /* \"#utility.yul\":39337:39395   */\n      mstore\n        /* \"#utility.yul\":39429:39439   */\n      0x657220666f756e64000000000000000000000000000000000000000000000000\n        /* \"#utility.yul\":39424:39426   */\n      0x20\n        /* \"#utility.yul\":39416:39422   */\n      dup3\n        /* \"#utility.yul\":39412:39427   */\n      add\n        /* \"#utility.yul\":39405:39440   */\n      mstore\n        /* \"#utility.yul\":39220:39447   */\n      pop\n      jump\t// out\n        /* \"#utility.yul\":39453:39819   */\n    tag_668:\n        /* \"#utility.yul\":39595:39598   */\n      0x00\n        /* \"#utility.yul\":39616:39683   */\n      tag_1035\n        /* \"#utility.yul\":39680:39682   */\n      0x28\n        /* \"#utility.yul\":39675:39678   */\n      dup4\n        /* \"#utility.yul\":39616:39683   */\n      tag_634\n      jump\t// in\n    tag_1035:\n        /* \"#utility.yul\":39609:39683   */\n      swap2\n      pop\n        /* \"#utility.yul\":39692:39785   */\n      tag_1036\n        /* \"#utility.yul\":39781:39784   */\n      dup3\n        /* \"#utility.yul\":39692:39785   */\n      tag_667\n      jump\t// in\n    tag_1036:\n        /* \"#utility.yul\":39810:39812   */\n      0x40\n        /* \"#utility.yul\":39805:39808   */\n      dup3\n        /* \"#utility.yul\":39801:39813   */\n      add\n        /* \"#utility.yul\":39794:39813   */\n      swap1\n      pop\n        /* \"#utility.yul\":39453:39819   */\n      swap2\n      swap1\n      pop\n      jump\t// out\n        /* \"#utility.yul\":39825:40244   */\n    tag_456:\n        /* \"#utility.yul\":39991:39995   */\n      0x00\n        /* \"#utility.yul\":40029:40031   */\n      0x20\n        /* \"#utility.yul\":40018:40027   */\n      dup3\n        /* \"#utility.yul\":40014:40032   */\n      add\n        /* \"#utility.yul\":40006:40032   */\n      swap1\n      pop\n        /* \"#utility.yul\":40078:40087   */\n      dup2\n        /* \"#utility.yul\":40072:40076   */\n      dup2\n        /* \"#utility.yul\":40068:40088   */\n      sub\n        /* \"#utility.yul\":40064:40065   */\n      0x00\n        /* \"#utility.yul\":40053:40062   */\n      dup4\n        /* \"#utility.yul\":40049:40066   */\n      add\n        /* \"#utility.yul\":40042:40089   */\n      mstore\n        /* \"#utility.yul\":40106:40237   */\n      tag_1038\n        /* \"#utility.yul\":40232:40236   */\n      dup2\n        /* \"#utility.yul\":40106:40237   */\n      tag_668\n      jump\t// in\n    tag_1038:\n        /* \"#utility.yul\":40098:40237   */\n      swap1\n      pop\n        /* \"#utility.yul\":39825:40244   */\n      swap2\n      swap1\n      pop\n      jump\t// out\n        /* \"#utility.yul\":40250:40478   */\n    tag_669:\n        /* \"#utility.yul\":40390:40424   */\n      0x4e4654537761707065723a2072656769737465723a2062696464657220697320\n        /* \"#utility.yul\":40386:40387   */\n      0x00\n        /* \"#utility.yul\":40378:40384   */\n      dup3\n        /* \"#utility.yul\":40374:40388   */\n      add\n        /* \"#utility.yul\":40367:40425   */\n      mstore\n        /* \"#utility.yul\":40459:40470   */\n      0x6e6f742076616c69640000000000000000000000000000000000000000000000\n        /* \"#utility.yul\":40454:40456   */\n      0x20\n        /* \"#utility.yul\":40446:40452   */\n      dup3\n        /* \"#utility.yul\":40442:40457   */\n      add\n        /* \"#utility.yul\":40435:40471   */\n      mstore\n        /* \"#utility.yul\":40250:40478   */\n      pop\n      jump\t// out\n        /* \"#utility.yul\":40484:40850   */\n    tag_670:\n        /* \"#utility.yul\":40626:40629   */\n      0x00\n        /* \"#utility.yul\":40647:40714   */\n      tag_1041\n        /* \"#utility.yul\":40711:40713   */\n      0x29\n        /* \"#utility.yul\":40706:40709   */\n      dup4\n        /* \"#utility.yul\":40647:40714   */\n      tag_634\n      jump\t// in\n    tag_1041:\n        /* \"#utility.yul\":40640:40714   */\n      swap2\n      pop\n        /* \"#utility.yul\":40723:40816   */\n      tag_1042\n        /* \"#utility.yul\":40812:40815   */\n      dup3\n        /* \"#utility.yul\":40723:40816   */\n      tag_669\n      jump\t// in\n    tag_1042:\n        /* \"#utility.yul\":40841:40843   */\n      0x40\n        /* \"#utility.yul\":40836:40839   */\n      dup3\n        /* \"#utility.yul\":40832:40844   */\n      add\n        /* \"#utility.yul\":40825:40844   */\n      swap1\n      pop\n        /* \"#utility.yul\":40484:40850   */\n      swap2\n      swap1\n      pop\n      jump\t// out\n        /* \"#utility.yul\":40856:41275   */\n    tag_469:\n        /* \"#utility.yul\":41022:41026   */\n      0x00\n        /* \"#utility.yul\":41060:41062   */\n      0x20\n        /* \"#utility.yul\":41049:41058   */\n      dup3\n        /* \"#utility.yul\":41045:41063   */\n      add\n        /* \"#utility.yul\":41037:41063   */\n      swap1\n      pop\n        /* \"#utility.yul\":41109:41118   */\n      dup2\n        /* \"#utility.yul\":41103:41107   */\n      dup2\n        /* \"#utility.yul\":41099:41119   */\n      sub\n        /* \"#utility.yul\":41095:41096   */\n      0x00\n        /* \"#utility.yul\":41084:41093   */\n      dup4\n        /* \"#utility.yul\":41080:41097   */\n      add\n        /* \"#utility.yul\":41073:41120   */\n      mstore\n        /* \"#utility.yul\":41137:41268   */\n      tag_1044\n        /* \"#utility.yul\":41263:41267   */\n      dup2\n        /* \"#utility.yul\":41137:41268   */\n      tag_670\n      jump\t// in\n    tag_1044:\n        /* \"#utility.yul\":41129:41268   */\n      swap1\n      pop\n        /* \"#utility.yul\":40856:41275   */\n      swap2\n      swap1\n      pop\n      jump\t// out\n        /* \"#utility.yul\":41281:41521   */\n    tag_671:\n        /* \"#utility.yul\":41421:41455   */\n      0x4e4654537761707065723a2072656769737465723a20696e7375666669636965\n        /* \"#utility.yul\":41417:41418   */\n      0x00\n        /* \"#utility.yul\":41409:41415   */\n      dup3\n        /* \"#utility.yul\":41405:41419   */\n      add\n        /* \"#utility.yul\":41398:41456   */\n      mstore\n        /* \"#utility.yul\":41490:41513   */\n      0x6e742076616c756520666f722072656769737465720000000000000000000000\n        /* \"#utility.yul\":41485:41487   */\n      0x20\n        /* \"#utility.yul\":41477:41483   */\n      dup3\n        /* \"#utility.yul\":41473:41488   */\n      add\n        /* \"#utility.yul\":41466:41514   */\n      mstore\n        /* \"#utility.yul\":41281:41521   */\n      pop\n      jump\t// out\n        /* \"#utility.yul\":41527:41893   */\n    tag_672:\n        /* \"#utility.yul\":41669:41672   */\n      0x00\n        /* \"#utility.yul\":41690:41757   */\n      tag_1047\n        /* \"#utility.yul\":41754:41756   */\n      0x35\n        /* \"#utility.yul\":41749:41752   */\n      dup4\n        /* \"#utility.yul\":41690:41757   */\n      tag_634\n      jump\t// in\n    tag_1047:\n        /* \"#utility.yul\":41683:41757   */\n      swap2\n      pop\n        /* \"#utility.yul\":41766:41859   */\n      tag_1048\n        /* \"#utility.yul\":41855:41858   */\n      dup3\n        /* \"#utility.yul\":41766:41859   */\n      tag_671\n      jump\t// in\n    tag_1048:\n        /* \"#utility.yul\":41884:41886   */\n      0x40\n        /* \"#utility.yul\":41879:41882   */\n      dup3\n        /* \"#utility.yul\":41875:41887   */\n      add\n        /* \"#utility.yul\":41868:41887   */\n      swap1\n      pop\n        /* \"#utility.yul\":41527:41893   */\n      swap2\n      swap1\n      pop\n      jump\t// out\n        /* \"#utility.yul\":41899:42318   */\n    tag_473:\n        /* \"#utility.yul\":42065:42069   */\n      0x00\n        /* \"#utility.yul\":42103:42105   */\n      0x20\n        /* \"#utility.yul\":42092:42101   */\n      dup3\n        /* \"#utility.yul\":42088:42106   */\n      add\n        /* \"#utility.yul\":42080:42106   */\n      swap1\n      pop\n        /* \"#utility.yul\":42152:42161   */\n      dup2\n        /* \"#utility.yul\":42146:42150   */\n      dup2\n        /* \"#utility.yul\":42142:42162   */\n      sub\n        /* \"#utility.yul\":42138:42139   */\n      0x00\n        /* \"#utility.yul\":42127:42136   */\n      dup4\n        /* \"#utility.yul\":42123:42140   */\n      add\n        /* \"#utility.yul\":42116:42163   */\n      mstore\n        /* \"#utility.yul\":42180:42311   */\n      tag_1050\n        /* \"#utility.yul\":42306:42310   */\n      dup2\n        /* \"#utility.yul\":42180:42311   */\n      tag_672\n      jump\t// in\n    tag_1050:\n        /* \"#utility.yul\":42172:42311   */\n      swap1\n      pop\n        /* \"#utility.yul\":41899:42318   */\n      swap2\n      swap1\n      pop\n      jump\t// out\n        /* \"#utility.yul\":42510:42696   */\n    tag_674:\n        /* \"#utility.yul\":42555:42566   */\n      0x00\n        /* \"#utility.yul\":42604:42607   */\n      dup2\n        /* \"#utility.yul\":42591:42608   */\n      calldataload\n        /* \"#utility.yul\":42617:42650   */\n      tag_1053\n        /* \"#utility.yul\":42644:42649   */\n      dup2\n        /* \"#utility.yul\":42617:42650   */\n      tag_578\n      jump\t// in\n    tag_1053:\n        /* \"#utility.yul\":42684:42689   */\n      dup1\n        /* \"#utility.yul\":42660:42689   */\n      swap2\n      pop\n        /* \"#utility.yul\":42567:42696   */\n      pop\n        /* \"#utility.yul\":42510:42696   */\n      swap2\n      swap1\n      pop\n      jump\t// out\n        /* \"#utility.yul\":42702:42794   */\n    tag_675:\n        /* \"#utility.yul\":42734:42742   */\n      0x00\n        /* \"#utility.yul\":42781:42786   */\n      dup2\n        /* \"#utility.yul\":42778:42779   */\n      0x00\n        /* \"#utility.yul\":42774:42787   */\n      shl\n        /* \"#utility.yul\":42753:42787   */\n      swap1\n      pop\n        /* \"#utility.yul\":42702:42794   */\n      swap2\n      swap1\n      pop\n      jump\t// out\n        /* \"#utility.yul\":42800:43066   */\n    tag_676:\n        /* \"#utility.yul\":42858:42864   */\n      0x00\n        /* \"#utility.yul\":42887:42929   */\n      0xffffffffffffffffffffffffffffffffffffffff\n        /* \"#utility.yul\":42950:42972   */\n      tag_1056\n        /* \"#utility.yul\":42963:42971   */\n      dup5\n        /* \"#utility.yul\":42950:42972   */\n      tag_675\n      jump\t// in\n    tag_1056:\n        /* \"#utility.yul\":42938:42972   */\n      swap4\n      pop\n        /* \"#utility.yul\":43005:43009   */\n      dup1\n        /* \"#utility.yul\":43001:43010   */\n      not\n        /* \"#utility.yul\":42994:42999   */\n      dup4\n        /* \"#utility.yul\":42990:43011   */\n      and\n        /* \"#utility.yul\":42981:43011   */\n      swap3\n      pop\n        /* \"#utility.yul\":43054:43058   */\n      dup1\n        /* \"#utility.yul\":43044:43052   */\n      dup5\n        /* \"#utility.yul\":43040:43059   */\n      and\n        /* \"#utility.yul\":43033:43038   */\n      dup4\n        /* \"#utility.yul\":43030:43060   */\n      or\n        /* \"#utility.yul\":43020:43060   */\n      swap2\n      pop\n        /* \"#utility.yul\":42865:43066   */\n      pop\n        /* \"#utility.yul\":42800:43066   */\n      swap3\n      swap2\n      pop\n      pop\n      jump\t// out\n        /* \"#utility.yul\":43072:43198   */\n    tag_677:\n        /* \"#utility.yul\":43122:43131   */\n      0x00\n        /* \"#utility.yul\":43155:43192   */\n      tag_1058\n        /* \"#utility.yul\":43186:43191   */\n      dup3\n        /* \"#utility.yul\":43155:43192   */\n      tag_596\n      jump\t// in\n    tag_1058:\n        /* \"#utility.yul\":43142:43192   */\n      swap1\n      pop\n        /* \"#utility.yul\":43072:43198   */\n      swap2\n      swap1\n      pop\n      jump\t// out\n        /* \"#utility.yul\":43204:43279   */\n    tag_678:\n        /* \"#utility.yul\":43247:43250   */\n      0x00\n        /* \"#utility.yul\":43268:43273   */\n      dup2\n        /* \"#utility.yul\":43261:43273   */\n      swap1\n      pop\n        /* \"#utility.yul\":43204:43279   */\n      swap2\n      swap1\n      pop\n      jump\t// out\n        /* \"#utility.yul\":43285:43547   */\n    tag_679:\n        /* \"#utility.yul\":43395:43434   */\n      tag_1061\n        /* \"#utility.yul\":43426:43433   */\n      dup3\n        /* \"#utility.yul\":43395:43434   */\n      tag_677\n      jump\t// in\n    tag_1061:\n        /* \"#utility.yul\":43456:43540   */\n      tag_1062\n        /* \"#utility.yul\":43498:43539   */\n      tag_1063\n        /* \"#utility.yul\":43522:43538   */\n      dup3\n        /* \"#utility.yul\":43498:43539   */\n      tag_678\n      jump\t// in\n    tag_1063:\n        /* \"#utility.yul\":43491:43495   */\n      dup4\n        /* \"#utility.yul\":43485:43496   */\n      sload\n        /* \"#utility.yul\":43456:43540   */\n      tag_676\n      jump\t// in\n    tag_1062:\n        /* \"#utility.yul\":43450:43454   */\n      dup3\n        /* \"#utility.yul\":43443:43541   */\n      sstore\n        /* \"#utility.yul\":43361:43547   */\n      pop\n        /* \"#utility.yul\":43285:43547   */\n      pop\n      pop\n      jump\t// out\n        /* \"#utility.yul\":43553:43675   */\n    tag_680:\n        /* \"#utility.yul\":43626:43650   */\n      tag_1065\n        /* \"#utility.yul\":43644:43649   */\n      dup2\n        /* \"#utility.yul\":43626:43650   */\n      tag_610\n      jump\t// in\n    tag_1065:\n        /* \"#utility.yul\":43619:43624   */\n      dup2\n        /* \"#utility.yul\":43616:43651   */\n      eq\n        /* \"#utility.yul\":43606:43669   */\n      tag_1066\n      jumpi\n        /* \"#utility.yul\":43665:43666   */\n      0x00\n        /* \"#utility.yul\":43662:43663   */\n      dup1\n        /* \"#utility.yul\":43655:43667   */\n      revert\n        /* \"#utility.yul\":43606:43669   */\n    tag_1066:\n        /* \"#utility.yul\":43553:43675   */\n      pop\n      jump\t// out\n        /* \"#utility.yul\":43681:43867   */\n    tag_681:\n        /* \"#utility.yul\":43726:43737   */\n      0x00\n        /* \"#utility.yul\":43775:43778   */\n      dup2\n        /* \"#utility.yul\":43762:43779   */\n      calldataload\n        /* \"#utility.yul\":43788:43821   */\n      tag_1068\n        /* \"#utility.yul\":43815:43820   */\n      dup2\n        /* \"#utility.yul\":43788:43821   */\n      tag_680\n      jump\t// in\n    tag_1068:\n        /* \"#utility.yul\":43855:43860   */\n      dup1\n        /* \"#utility.yul\":43831:43860   */\n      swap2\n      pop\n        /* \"#utility.yul\":43738:43867   */\n      pop\n        /* \"#utility.yul\":43681:43867   */\n      swap2\n      swap1\n      pop\n      jump\t// out\n        /* \"#utility.yul\":43873:44163   */\n    tag_682:\n        /* \"#utility.yul\":43931:43937   */\n      0x00\n        /* \"#utility.yul\":43960:44026   */\n      0xffffffffffffffffffffffffffffffffffffffffffffffffffffffffffffffff\n        /* \"#utility.yul\":44047:44069   */\n      tag_1070\n        /* \"#utility.yul\":44060:44068   */\n      dup5\n        /* \"#utility.yul\":44047:44069   */\n      tag_675\n      jump\t// in\n    tag_1070:\n        /* \"#utility.yul\":44035:44069   */\n      swap4\n      pop\n        /* \"#utility.yul\":44102:44106   */\n      dup1\n        /* \"#utility.yul\":44098:44107   */\n      not\n        /* \"#utility.yul\":44091:44096   */\n      dup4\n        /* \"#utility.yul\":44087:44108   */\n      and\n        /* \"#utility.yul\":44078:44108   */\n      swap3\n      pop\n        /* \"#utility.yul\":44151:44155   */\n      dup1\n        /* \"#utility.yul\":44141:44149   */\n      dup5\n        /* \"#utility.yul\":44137:44156   */\n      and\n        /* \"#utility.yul\":44130:44135   */\n      dup4\n        /* \"#utility.yul\":44127:44157   */\n      or\n        /* \"#utility.yul\":44117:44157   */\n      swap2\n      pop\n        /* \"#utility.yul\":43938:44163   */\n      pop\n        /* \"#utility.yul\":43873:44163   */\n      swap3\n      swap2\n      pop\n      pop\n      jump\t// out\n        /* \"#utility.yul\":44169:44282   */\n    tag_683:\n        /* \"#utility.yul\":44219:44228   */\n      0x00\n        /* \"#utility.yul\":44252:44276   */\n      tag_1072\n        /* \"#utility.yul\":44270:44275   */\n      dup3\n        /* \"#utility.yul\":44252:44276   */\n      tag_610\n      jump\t// in\n    tag_1072:\n        /* \"#utility.yul\":44239:44276   */\n      swap1\n      pop\n        /* \"#utility.yul\":44169:44282   */\n      swap2\n      swap1\n      pop\n      jump\t// out\n        /* \"#utility.yul\":44288:44390   */\n    tag_684:\n        /* \"#utility.yul\":44330:44338   */\n      0x00\n        /* \"#utility.yul\":44377:44382   */\n      dup2\n        /* \"#utility.yul\":44374:44375   */\n      0x00\n        /* \"#utility.yul\":44370:44383   */\n      shr\n        /* \"#utility.yul\":44349:44383   */\n      swap1\n      pop\n        /* \"#utility.yul\":44288:44390   */\n      swap2\n      swap1\n      pop\n      jump\t// out\n        /* \"#utility.yul\":44396:44495   */\n    tag_685:\n        /* \"#utility.yul\":44439:44442   */\n      0x00\n        /* \"#utility.yul\":44460:44489   */\n      tag_1075\n        /* \"#utility.yul\":44483:44488   */\n      dup3\n        /* \"#utility.yul\":44460:44489   */\n      tag_684\n      jump\t// in\n    tag_1075:\n        /* \"#utility.yul\":44453:44489   */\n      swap1\n      pop\n        /* \"#utility.yul\":44396:44495   */\n      swap2\n      swap1\n      pop\n      jump\t// out\n        /* \"#utility.yul\":44501:44763   */\n    tag_686:\n        /* \"#utility.yul\":44611:44650   */\n      tag_1077\n        /* \"#utility.yul\":44642:44649   */\n      dup3\n        /* \"#utility.yul\":44611:44650   */\n      tag_683\n      jump\t// in\n    tag_1077:\n        /* \"#utility.yul\":44672:44756   */\n      tag_1078\n        /* \"#utility.yul\":44714:44755   */\n      tag_1079\n        /* \"#utility.yul\":44738:44754   */\n      dup3\n        /* \"#utility.yul\":44714:44755   */\n      tag_685\n      jump\t// in\n    tag_1079:\n        /* \"#utility.yul\":44707:44711   */\n      dup4\n        /* \"#utility.yul\":44701:44712   */\n      sload\n        /* \"#utility.yul\":44672:44756   */\n      tag_682\n      jump\t// in\n    tag_1078:\n        /* \"#utility.yul\":44666:44670   */\n      dup3\n        /* \"#utility.yul\":44659:44757   */\n      sstore\n        /* \"#utility.yul\":44577:44763   */\n      pop\n        /* \"#utility.yul\":44501:44763   */\n      pop\n      pop\n      jump\t// out\n        /* \"#utility.yul\":44769:44955   */\n    tag_687:\n        /* \"#utility.yul\":44814:44825   */\n      0x00\n        /* \"#utility.yul\":44863:44866   */\n      dup2\n        /* \"#utility.yul\":44850:44867   */\n      calldataload\n        /* \"#utility.yul\":44876:44909   */\n      tag_1081\n        /* \"#utility.yul\":44903:44908   */\n      dup2\n        /* \"#utility.yul\":44876:44909   */\n      tag_589\n      jump\t// in\n    tag_1081:\n        /* \"#utility.yul\":44943:44948   */\n      dup1\n        /* \"#utility.yul\":44919:44948   */\n      swap2\n      pop\n        /* \"#utility.yul\":44826:44955   */\n      pop\n        /* \"#utility.yul\":44769:44955   */\n      swap2\n      swap1\n      pop\n      jump\t// out\n        /* \"#utility.yul\":44961:45103   */\n    tag_688:\n        /* \"#utility.yul\":45011:45020   */\n      0x00\n        /* \"#utility.yul\":45044:45097   */\n      tag_1083\n        /* \"#utility.yul\":45062:45096   */\n      tag_1084\n        /* \"#utility.yul\":45071:45095   */\n      tag_1085\n        /* \"#utility.yul\":45089:45094   */\n      dup5\n        /* \"#utility.yul\":45071:45095   */\n      tag_583\n      jump\t// in\n    tag_1085:\n        /* \"#utility.yul\":45062:45096   */\n      tag_594\n      jump\t// in\n    tag_1084:\n        /* \"#utility.yul\":45044:45097   */\n      tag_583\n      jump\t// in\n    tag_1083:\n        /* \"#utility.yul\":45031:45097   */\n      swap1\n      pop\n        /* \"#utility.yul\":44961:45103   */\n      swap2\n      swap1\n      pop\n      jump\t// out\n        /* \"#utility.yul\":45109:45184   */\n    tag_689:\n        /* \"#utility.yul\":45152:45155   */\n      0x00\n        /* \"#utility.yul\":45173:45178   */\n      dup2\n        /* \"#utility.yul\":45166:45178   */\n      swap1\n      pop\n        /* \"#utility.yul\":45109:45184   */\n      swap2\n      swap1\n      pop\n      jump\t// out\n        /* \"#utility.yul\":45190:45452   */\n    tag_690:\n        /* \"#utility.yul\":45300:45339   */\n      tag_1088\n        /* \"#utility.yul\":45331:45338   */\n      dup3\n        /* \"#utility.yul\":45300:45339   */\n      tag_688\n      jump\t// in\n    tag_1088:\n        /* \"#utility.yul\":45361:45445   */\n      tag_1089\n        /* \"#utility.yul\":45403:45444   */\n      tag_1090\n        /* \"#utility.yul\":45427:45443   */\n      dup3\n        /* \"#utility.yul\":45403:45444   */\n      tag_689\n      jump\t// in\n    tag_1090:\n        /* \"#utility.yul\":45396:45400   */\n      dup4\n        /* \"#utility.yul\":45390:45401   */\n      sload\n        /* \"#utility.yul\":45361:45445   */\n      tag_682\n      jump\t// in\n    tag_1089:\n        /* \"#utility.yul\":45355:45359   */\n      dup3\n        /* \"#utility.yul\":45348:45446   */\n      sstore\n        /* \"#utility.yul\":45266:45452   */\n      pop\n        /* \"#utility.yul\":45190:45452   */\n      pop\n      pop\n      jump\t// out\n        /* \"#utility.yul\":45458:46595   */\n    tag_691:\n        /* \"#utility.yul\":45628:45629   */\n      0x00\n        /* \"#utility.yul\":45622:45626   */\n      dup2\n        /* \"#utility.yul\":45618:45630   */\n      add\n        /* \"#utility.yul\":45674:45675   */\n      0x00\n        /* \"#utility.yul\":45667:45672   */\n      dup4\n        /* \"#utility.yul\":45663:45676   */\n      add\n        /* \"#utility.yul\":45724:45736   */\n      dup1\n        /* \"#utility.yul\":45767:45809   */\n      tag_1092\n        /* \"#utility.yul\":45795:45808   */\n      dup2\n        /* \"#utility.yul\":45767:45809   */\n      tag_674\n      jump\t// in\n    tag_1092:\n        /* \"#utility.yul\":45750:45809   */\n      swap1\n      pop\n        /* \"#utility.yul\":45823:45901   */\n      tag_1093\n        /* \"#utility.yul\":45887:45900   */\n      dup2\n        /* \"#utility.yul\":45875:45885   */\n      dup5\n        /* \"#utility.yul\":45823:45901   */\n      tag_679\n      jump\t// in\n    tag_1093:\n        /* \"#utility.yul\":45585:45912   */\n      pop\n      pop\n      pop\n        /* \"#utility.yul\":45965:45966   */\n      0x01\n        /* \"#utility.yul\":45959:45963   */\n      dup2\n        /* \"#utility.yul\":45955:45967   */\n      add\n        /* \"#utility.yul\":46011:46013   */\n      0x20\n        /* \"#utility.yul\":46004:46009   */\n      dup4\n        /* \"#utility.yul\":46000:46014   */\n      add\n        /* \"#utility.yul\":46062:46074   */\n      dup1\n        /* \"#utility.yul\":46105:46147   */\n      tag_1094\n        /* \"#utility.yul\":46133:46146   */\n      dup2\n        /* \"#utility.yul\":46105:46147   */\n      tag_681\n      jump\t// in\n    tag_1094:\n        /* \"#utility.yul\":46088:46147   */\n      swap1\n      pop\n        /* \"#utility.yul\":46161:46239   */\n      tag_1095\n        /* \"#utility.yul\":46225:46238   */\n      dup2\n        /* \"#utility.yul\":46213:46223   */\n      dup5\n        /* \"#utility.yul\":46161:46239   */\n      tag_686\n      jump\t// in\n    tag_1095:\n        /* \"#utility.yul\":45922:46250   */\n      pop\n      pop\n      pop\n        /* \"#utility.yul\":46303:46304   */\n      0x02\n        /* \"#utility.yul\":46297:46301   */\n      dup2\n        /* \"#utility.yul\":46293:46305   */\n      add\n        /* \"#utility.yul\":46349:46351   */\n      0x40\n        /* \"#utility.yul\":46342:46347   */\n      dup4\n        /* \"#utility.yul\":46338:46352   */\n      add\n        /* \"#utility.yul\":46400:46412   */\n      dup1\n        /* \"#utility.yul\":46443:46485   */\n      tag_1096\n        /* \"#utility.yul\":46471:46484   */\n      dup2\n        /* \"#utility.yul\":46443:46485   */\n      tag_687\n      jump\t// in\n    tag_1096:\n        /* \"#utility.yul\":46426:46485   */\n      swap1\n      pop\n        /* \"#utility.yul\":46499:46577   */\n      tag_1097\n        /* \"#utility.yul\":46563:46576   */\n      dup2\n        /* \"#utility.yul\":46551:46561   */\n      dup5\n        /* \"#utility.yul\":46499:46577   */\n      tag_690\n      jump\t// in\n    tag_1097:\n        /* \"#utility.yul\":46260:46588   */\n      pop\n      pop\n      pop\n        /* \"#utility.yul\":45458:46595   */\n      pop\n      pop\n      jump\t// out\n        /* \"#utility.yul\":46601:46845   */\n    tag_489:\n        /* \"#utility.yul\":46731:46839   */\n      tag_1099\n        /* \"#utility.yul\":46831:46838   */\n      dup3\n        /* \"#utility.yul\":46825:46829   */\n      dup3\n        /* \"#utility.yul\":46731:46839   */\n      tag_691\n      jump\t// in\n    tag_1099:\n        /* \"#utility.yul\":46601:46845   */\n      pop\n      pop\n      jump\t// out\n        /* \"#utility.yul\":46851:47000   */\n    tag_692:\n        /* \"#utility.yul\":46887:46894   */\n      0x00\n        /* \"#utility.yul\":46927:46993   */\n      0xffffffff00000000000000000000000000000000000000000000000000000000\n        /* \"#utility.yul\":46920:46925   */\n      dup3\n        /* \"#utility.yul\":46916:46994   */\n      and\n        /* \"#utility.yul\":46905:46994   */\n      swap1\n      pop\n        /* \"#utility.yul\":46851:47000   */\n      swap2\n      swap1\n      pop\n      jump\t// out\n        /* \"#utility.yul\":47006:47121   */\n    tag_693:\n        /* \"#utility.yul\":47091:47114   */\n      tag_1102\n        /* \"#utility.yul\":47108:47113   */\n      dup2\n        /* \"#utility.yul\":47091:47114   */\n      tag_692\n      jump\t// in\n    tag_1102:\n        /* \"#utility.yul\":47086:47089   */\n      dup3\n        /* \"#utility.yul\":47079:47115   */\n      mstore\n        /* \"#utility.yul\":47006:47121   */\n      pop\n      pop\n      jump\t// out\n        /* \"#utility.yul\":47127:47345   */\n    tag_521:\n        /* \"#utility.yul\":47218:47222   */\n      0x00\n        /* \"#utility.yul\":47256:47258   */\n      0x20\n        /* \"#utility.yul\":47245:47254   */\n      dup3\n        /* \"#utility.yul\":47241:47259   */\n      add\n        /* \"#utility.yul\":47233:47259   */\n      swap1\n      pop\n        /* \"#utility.yul\":47269:47338   */\n      tag_1104\n        /* \"#utility.yul\":47335:47336   */\n      0x00\n        /* \"#utility.yul\":47324:47333   */\n      dup4\n        /* \"#utility.yul\":47320:47337   */\n      add\n        /* \"#utility.yul\":47311:47317   */\n      dup5\n        /* \"#utility.yul\":47269:47338   */\n      tag_693\n      jump\t// in\n    tag_1104:\n        /* \"#utility.yul\":47127:47345   */\n      swap3\n      swap2\n      pop\n      pop\n      jump\t// out\n        /* \"#utility.yul\":47351:47578   */\n    tag_694:\n        /* \"#utility.yul\":47491:47525   */\n      0x68616e646c657220646f6573206e6f7420737570706f72742049537761707065\n        /* \"#utility.yul\":47487:47488   */\n      0x00\n        /* \"#utility.yul\":47479:47485   */\n      dup3\n        /* \"#utility.yul\":47475:47489   */\n      add\n        /* \"#utility.yul\":47468:47526   */\n      mstore\n        /* \"#utility.yul\":47560:47570   */\n      0x7248616e646c6572000000000000000000000000000000000000000000000000\n        /* \"#utility.yul\":47555:47557   */\n      0x20\n        /* \"#utility.yul\":47547:47553   */\n      dup3\n        /* \"#utility.yul\":47543:47558   */\n      add\n        /* \"#utility.yul\":47536:47571   */\n      mstore\n        /* \"#utility.yul\":47351:47578   */\n      pop\n      jump\t// out\n        /* \"#utility.yul\":47584:47950   */\n    tag_695:\n        /* \"#utility.yul\":47726:47729   */\n      0x00\n        /* \"#utility.yul\":47747:47814   */\n      tag_1107\n        /* \"#utility.yul\":47811:47813   */\n      0x28\n        /* \"#utility.yul\":47806:47809   */\n      dup4\n        /* \"#utility.yul\":47747:47814   */\n      tag_634\n      jump\t// in\n    tag_1107:\n        /* \"#utility.yul\":47740:47814   */\n      swap2\n      pop\n        /* \"#utility.yul\":47823:47916   */\n      tag_1108\n        /* \"#utility.yul\":47912:47915   */\n      dup3\n        /* \"#utility.yul\":47823:47916   */\n      tag_694\n      jump\t// in\n    tag_1108:\n        /* \"#utility.yul\":47941:47943   */\n      0x40\n        /* \"#utility.yul\":47936:47939   */\n      dup3\n        /* \"#utility.yul\":47932:47944   */\n      add\n        /* \"#utility.yul\":47925:47944   */\n      swap1\n      pop\n        /* \"#utility.yul\":47584:47950   */\n      swap2\n      swap1\n      pop\n      jump\t// out\n        /* \"#utility.yul\":47956:48375   */\n    tag_528:\n        /* \"#utility.yul\":48122:48126   */\n      0x00\n        /* \"#utility.yul\":48160:48162   */\n      0x20\n        /* \"#utility.yul\":48149:48158   */\n      dup3\n        /* \"#utility.yul\":48145:48163   */\n      add\n        /* \"#utility.yul\":48137:48163   */\n      swap1\n      pop\n        /* \"#utility.yul\":48209:48218   */\n      dup2\n        /* \"#utility.yul\":48203:48207   */\n      dup2\n        /* \"#utility.yul\":48199:48219   */\n      sub\n        /* \"#utility.yul\":48195:48196   */\n      0x00\n        /* \"#utility.yul\":48184:48193   */\n      dup4\n        /* \"#utility.yul\":48180:48197   */\n      add\n        /* \"#utility.yul\":48173:48220   */\n      mstore\n        /* \"#utility.yul\":48237:48368   */\n      tag_1110\n        /* \"#utility.yul\":48363:48367   */\n      dup2\n        /* \"#utility.yul\":48237:48368   */\n      tag_695\n      jump\t// in\n    tag_1110:\n        /* \"#utility.yul\":48229:48368   */\n      swap1\n      pop\n        /* \"#utility.yul\":47956:48375   */\n      swap2\n      swap1\n      pop\n      jump\t// out\n        /* \"#utility.yul\":48381:48606   */\n    tag_696:\n        /* \"#utility.yul\":48521:48555   */\n      0x4f776e61626c653a206e6577206f776e657220697320746865207a65726f2061\n        /* \"#utility.yul\":48517:48518   */\n      0x00\n        /* \"#utility.yul\":48509:48515   */\n      dup3\n        /* \"#utility.yul\":48505:48519   */\n      add\n        /* \"#utility.yul\":48498:48556   */\n      mstore\n        /* \"#utility.yul\":48590:48598   */\n      0x6464726573730000000000000000000000000000000000000000000000000000\n        /* \"#utility.yul\":48585:48587   */\n      0x20\n        /* \"#utility.yul\":48577:48583   */\n      dup3\n        /* \"#utility.yul\":48573:48588   */\n      add\n        /* \"#utility.yul\":48566:48599   */\n      mstore\n        /* \"#utility.yul\":48381:48606   */\n      pop\n      jump\t// out\n        /* \"#utility.yul\":48612:48978   */\n    tag_697:\n        /* \"#utility.yul\":48754:48757   */\n      0x00\n        /* \"#utility.yul\":48775:48842   */\n      tag_1113\n        /* \"#utility.yul\":48839:48841   */\n      0x26\n        /* \"#utility.yul\":48834:48837   */\n      dup4\n        /* \"#utility.yul\":48775:48842   */\n      tag_634\n      jump\t// in\n    tag_1113:\n        /* \"#utility.yul\":48768:48842   */\n      swap2\n      pop\n        /* \"#utility.yul\":48851:48944   */\n      tag_1114\n        /* \"#utility.yul\":48940:48943   */\n      dup3\n        /* \"#utility.yul\":48851:48944   */\n      tag_696\n      jump\t// in\n    tag_1114:\n        /* \"#utility.yul\":48969:48971   */\n      0x40\n        /* \"#utility.yul\":48964:48967   */\n      dup3\n        /* \"#utility.yul\":48960:48972   */\n      add\n        /* \"#utility.yul\":48953:48972   */\n      swap1\n      pop\n        /* \"#utility.yul\":48612:48978   */\n      swap2\n      swap1\n      pop\n      jump\t// out\n        /* \"#utility.yul\":48984:49403   */\n    tag_559:\n        /* \"#utility.yul\":49150:49154   */\n      0x00\n        /* \"#utility.yul\":49188:49190   */\n      0x20\n        /* \"#utility.yul\":49177:49186   */\n      dup3\n        /* \"#utility.yul\":49173:49191   */\n      add\n        /* \"#utility.yul\":49165:49191   */\n      swap1\n      pop\n        /* \"#utility.yul\":49237:49246   */\n      dup2\n        /* \"#utility.yul\":49231:49235   */\n      dup2\n        /* \"#utility.yul\":49227:49247   */\n      sub\n        /* \"#utility.yul\":49223:49224   */\n      0x00\n        /* \"#utility.yul\":49212:49221   */\n      dup4\n        /* \"#utility.yul\":49208:49225   */\n      add\n        /* \"#utility.yul\":49201:49248   */\n      mstore\n        /* \"#utility.yul\":49265:49396   */\n      tag_1116\n        /* \"#utility.yul\":49391:49395   */\n      dup2\n        /* \"#utility.yul\":49265:49396   */\n      tag_697\n      jump\t// in\n    tag_1116:\n        /* \"#utility.yul\":49257:49396   */\n      swap1\n      pop\n        /* \"#utility.yul\":48984:49403   */\n      swap2\n      swap1\n      pop\n      jump\t// out\n        /* \"#utility.yul\":49409:49591   */\n    tag_698:\n        /* \"#utility.yul\":49549:49583   */\n      0x4f776e61626c653a2063616c6c6572206973206e6f7420746865206f776e6572\n        /* \"#utility.yul\":49545:49546   */\n      0x00\n        /* \"#utility.yul\":49537:49543   */\n      dup3\n        /* \"#utility.yul\":49533:49547   */\n      add\n        /* \"#utility.yul\":49526:49584   */\n      mstore\n        /* \"#utility.yul\":49409:49591   */\n      pop\n      jump\t// out\n        /* \"#utility.yul\":49597:49963   */\n    tag_699:\n        /* \"#utility.yul\":49739:49742   */\n      0x00\n        /* \"#utility.yul\":49760:49827   */\n      tag_1119\n        /* \"#utility.yul\":49824:49826   */\n      0x20\n        /* \"#utility.yul\":49819:49822   */\n      dup4\n        /* \"#utility.yul\":49760:49827   */\n      tag_634\n      jump\t// in\n    tag_1119:\n        /* \"#utility.yul\":49753:49827   */\n      swap2\n      pop\n        /* \"#utility.yul\":49836:49929   */\n      tag_1120\n        /* \"#utility.yul\":49925:49928   */\n      dup3\n        /* \"#utility.yul\":49836:49929   */\n      tag_698\n      jump\t// in\n    tag_1120:\n        /* \"#utility.yul\":49954:49956   */\n      0x20\n        /* \"#utility.yul\":49949:49952   */\n      dup3\n        /* \"#utility.yul\":49945:49957   */\n      add\n        /* \"#utility.yul\":49938:49957   */\n      swap1\n      pop\n        /* \"#utility.yul\":49597:49963   */\n      swap2\n      swap1\n      pop\n      jump\t// out\n        /* \"#utility.yul\":49969:50388   */\n    tag_566:\n        /* \"#utility.yul\":50135:50139   */\n      0x00\n        /* \"#utility.yul\":50173:50175   */\n      0x20\n        /* \"#utility.yul\":50162:50171   */\n      dup3\n        /* \"#utility.yul\":50158:50176   */\n      add\n        /* \"#utility.yul\":50150:50176   */\n      swap1\n      pop\n        /* \"#utility.yul\":50222:50231   */\n      dup2\n        /* \"#utility.yul\":50216:50220   */\n      dup2\n        /* \"#utility.yul\":50212:50232   */\n      sub\n        /* \"#utility.yul\":50208:50209   */\n      0x00\n        /* \"#utility.yul\":50197:50206   */\n      dup4\n        /* \"#utility.yul\":50193:50210   */\n      add\n        /* \"#utility.yul\":50186:50233   */\n      mstore\n        /* \"#utility.yul\":50250:50381   */\n      tag_1122\n        /* \"#utility.yul\":50376:50380   */\n      dup2\n        /* \"#utility.yul\":50250:50381   */\n      tag_699\n      jump\t// in\n    tag_1122:\n        /* \"#utility.yul\":50242:50381   */\n      swap1\n      pop\n        /* \"#utility.yul\":49969:50388   */\n      swap2\n      swap1\n      pop\n      jump\t// out\n\n    auxdata: 0xa26469706673582212204b10d94e456570729cbef7d4f789d2298397243d475d7d4d0bbf18d6729ded4664736f6c63430008090033\n}\n",
				"bytecode": {
					"linkReferences": {},
					"object": "6080604052600060065560006007553480156200001b57600080fd5b506200003c620000306200006460201b60201c565b6200006c60201b60201c565b6200005e620000506200006460201b60201c565b60646200013060201b60201c565b6200099e565b600033905090565b60008060009054906101000a900473ffffffffffffffffffffffffffffffffffffffff169050816000806101000a81548173ffffffffffffffffffffffffffffffffffffffff021916908373ffffffffffffffffffffffffffffffffffffffff1602179055508173ffffffffffffffffffffffffffffffffffffffff168173ffffffffffffffffffffffffffffffffffffffff167f8be0079c531659141344cd1fd0a4f28419497f9722a3daafe3b4186f6b6457e060405160405180910390a35050565b62000140620005b460201b60201c565b60008273ffffffffffffffffffffffffffffffffffffffff163b146200019d576040517f08c379a00000000000000000000000000000000000000000000000000000000081526004016200019490620006f5565b60405180910390fd5b600081111562000360576000600360008473ffffffffffffffffffffffffffffffffffffffff1673ffffffffffffffffffffffffffffffffffffffff1681526020019081526020016000205411156200029c5780600360008473ffffffffffffffffffffffffffffffffffffffff1673ffffffffffffffffffffffffffffffffffffffff1681526020019081526020016000205460055462000240919062000750565b6200024c91906200078b565b60058190555080600360008473ffffffffffffffffffffffffffffffffffffffff1673ffffffffffffffffffffffffffffffffffffffff168152602001908152602001600020819055506200035a565b80600554620002ac91906200078b565b60058190555080600360008473ffffffffffffffffffffffffffffffffffffffff1673ffffffffffffffffffffffffffffffffffffffff168152602001908152602001600020819055506004829080600181540180825580915050600190039060005260206000200160009091909190916101000a81548173ffffffffffffffffffffffffffffffffffffffff021916908373ffffffffffffffffffffffffffffffffffffffff1602179055505b620005b0565b6000600360008473ffffffffffffffffffffffffffffffffffffffff1673ffffffffffffffffffffffffffffffffffffffff1681526020019081526020016000205411620003e5576040517f08c379a0000000000000000000000000000000000000000000000000000000008152600401620003dc906200085e565b60405180910390fd5b600360008373ffffffffffffffffffffffffffffffffffffffff1673ffffffffffffffffffffffffffffffffffffffff1681526020019081526020016000205460055462000434919062000750565b60058190555060005b6004805490508110156200056b578273ffffffffffffffffffffffffffffffffffffffff166004828154811062000479576200047862000880565b5b9060005260206000200160009054906101000a900473ffffffffffffffffffffffffffffffffffffffff1673ffffffffffffffffffffffffffffffffffffffff161415620005555760048181548110620004d857620004d762000880565b5b9060005260206000200160006101000a81549073ffffffffffffffffffffffffffffffffffffffff021916905560048054806200051a5762000519620008af565b5b6001900381819060005260206000200160006101000a81549073ffffffffffffffffffffffffffffffffffffffff021916905590556200056b565b80806200056290620008de565b9150506200043d565b50600360008373ffffffffffffffffffffffffffffffffffffffff1673ffffffffffffffffffffffffffffffffffffffff168152602001908152602001600020600090555b5050565b620005c46200006460201b60201c565b73ffffffffffffffffffffffffffffffffffffffff16620005ea6200064560201b60201c565b73ffffffffffffffffffffffffffffffffffffffff161462000643576040517f08c379a00000000000000000000000000000000000000000000000000000000081526004016200063a906200097c565b60405180910390fd5b565b60008060009054906101000a900473ffffffffffffffffffffffffffffffffffffffff16905090565b600082825260208201905092915050565b7f4e4654537761707065723a20736574436f6e7472696275746f723a20636f6e7460008201527f72696275746f722061646472657373206973206e6f74206120454f4100000000602082015250565b6000620006dd603c836200066e565b9150620006ea826200067f565b604082019050919050565b600060208201905081810360008301526200071081620006ce565b9050919050565b6000819050919050565b7f4e487b7100000000000000000000000000000000000000000000000000000000600052601160045260246000fd5b60006200075d8262000717565b91506200076a8362000717565b92508282101562000780576200077f62000721565b5b828203905092915050565b6000620007988262000717565b9150620007a58362000717565b9250827fffffffffffffffffffffffffffffffffffffffffffffffffffffffffffffffff03821115620007dd57620007dc62000721565b5b828201905092915050565b7f4e4654537761707065723a2072656d6f7665436f6e7472696275746f723a206360008201527f6f6e7472696275746f72206e6f7420666f756e64000000000000000000000000602082015250565b6000620008466034836200066e565b91506200085382620007e8565b604082019050919050565b60006020820190508181036000830152620008798162000837565b9050919050565b7f4e487b7100000000000000000000000000000000000000000000000000000000600052603260045260246000fd5b7f4e487b7100000000000000000000000000000000000000000000000000000000600052603160045260246000fd5b6000620008eb8262000717565b91507fffffffffffffffffffffffffffffffffffffffffffffffffffffffffffffffff82141562000921576200092062000721565b5b600182019050919050565b7f4f776e61626c653a2063616c6c6572206973206e6f7420746865206f776e6572600082015250565b6000620009646020836200066e565b915062000971826200092c565b602082019050919050565b60006020820190508181036000830152620009978162000955565b9050919050565b614bec80620009ae6000396000f3fe60806040526004361061014f5760003560e01c80638da5cb5b116100b6578063d5002f2e1161006f578063d5002f2e14610463578063d81671bc1461048e578063e0efc2f5146104b9578063eb57ce55146104e9578063ed470a3a14610512578063f2fde38b1461053b57610156565b80638da5cb5b1461036057806392be2ab81461038b57806394b918de146103b4578063af157c19146103d0578063b6c9b393146103fb578063d4cadf681461043857610156565b80634a0d89ba116101085780634a0d89ba146102545780634b3ab9c51461029157806361784c7a146102ce5780636e214a8e146102f7578063715018a6146103205780637634c6c31461033757610156565b806321c616da1461015857806332a58e791461019557806334e19907146101c05780633801a828146101e95780633ccfd60b1461021457806340e58ee51461022b57610156565b3661015657005b005b34801561016457600080fd5b5061017f600480360381019061017a91906132ae565b610564565b60405161018c91906133a3565b60405180910390f35b3480156101a157600080fd5b506101aa6105fb565b6040516101b791906133d4565b60405180910390f35b3480156101cc57600080fd5b506101e760048036038101906101e2919061341b565b610605565b005b3480156101f557600080fd5b506101fe610617565b60405161020b9190613556565b60405180910390f35b34801561022057600080fd5b506102296106a5565b005b34801561023757600080fd5b50610252600480360381019061024d919061341b565b6108d6565b005b34801561026057600080fd5b5061027b6004803603810190610276919061341b565b610aee565b604051610288919061384e565b60405180910390f35b34801561029d57600080fd5b506102b860048036038101906102b391906132ae565b610e31565b6040516102c591906133d4565b60405180910390f35b3480156102da57600080fd5b506102f560048036038101906102f09190613870565b610f02565b005b34801561030357600080fd5b5061031e6004803603810190610319919061341b565b61135d565b005b34801561032c57600080fd5b50610335611574565b005b34801561034357600080fd5b5061035e600480360381019061035991906138e8565b611588565b005b34801561036c57600080fd5b50610375611ba7565b604051610382919061394a565b60405180910390f35b34801561039757600080fd5b506103b260048036038101906103ad919061341b565b611bd0565b005b6103ce60048036038101906103c9919061341b565b611be2565b005b3480156103dc57600080fd5b506103e561248b565b6040516103f291906139c3565b60405180910390f35b34801561040757600080fd5b50610422600480360381019061041d91906132ae565b6125a2565b60405161042f91906139f4565b60405180910390f35b34801561044457600080fd5b5061044d612725565b60405161045a91906133d4565b60405180910390f35b34801561046f57600080fd5b5061047861272f565b60405161048591906133d4565b60405180910390f35b34801561049a57600080fd5b506104a36127c1565b6040516104b091906133d4565b60405180910390f35b6104d360048036038101906104ce9190613aca565b6127d2565b6040516104e091906133d4565b60405180910390f35b3480156104f557600080fd5b50610510600480360381019061050b91906132ae565b612c8a565b005b34801561051e57600080fd5b50610539600480360381019061053491906132ae565b612de0565b005b34801561054757600080fd5b50610562600480360381019061055d91906132ae565b612ff6565b005b6060600260008373ffffffffffffffffffffffffffffffffffffffff1673ffffffffffffffffffffffffffffffffffffffff1681526020019081526020016000208054806020026020016040519081016040528092919081815260200182805480156105ef57602002820191906000526020600020905b8154815260200190600101908083116105db575b50505050509050919050565b6000600654905090565b61060d61307a565b8060078190555050565b6060600880548060200260200160405190810160405280929190818152602001828054801561069b57602002820191906000526020600020905b8160009054906101000a900473ffffffffffffffffffffffffffffffffffffffff1673ffffffffffffffffffffffffffffffffffffffff1681526020019060010190808311610651575b5050505050905090565b6000600360006106b36130f8565b73ffffffffffffffffffffffffffffffffffffffff1673ffffffffffffffffffffffffffffffffffffffff168152602001908152602001600020541161072e576040517f08c379a000000000000000000000000000000000000000000000000000000000815260040161072590613bf0565b60405180910390fd5b600047905060008111610776576040517f08c379a000000000000000000000000000000000000000000000000000000000815260040161076d90613c5c565b60405180910390fd5b60005b6004805490508110156108875760006004828154811061079c5761079b613c7c565b5b9060005260206000200160009054906101000a900473ffffffffffffffffffffffffffffffffffffffff1690506000600360008373ffffffffffffffffffffffffffffffffffffffff1673ffffffffffffffffffffffffffffffffffffffff1681526020019081526020016000205490506000600554828661081e9190613cda565b6108289190613d63565b90508273ffffffffffffffffffffffffffffffffffffffff166108fc829081150290604051600060405180830381858888f19350505050158015610870573d6000803e3d6000fd5b50505050808061087f90613d94565b915050610779565b50806108916130f8565b73ffffffffffffffffffffffffffffffffffffffff167f0875ab8e60d8ffe0781ba5e1d1adadeb6250bc1bee87d3094cc6ac4eb9f8851260405160405180910390a350565b806000600160008381526020019081526020016000206000015411610930576040517f08c379a000000000000000000000000000000000000000000000000000000000815260040161092790613e29565b60405180910390fd5b816109396130f8565b8073ffffffffffffffffffffffffffffffffffffffff166001600084815260200190815260200160002060010160019054906101000a900473ffffffffffffffffffffffffffffffffffffffff1673ffffffffffffffffffffffffffffffffffffffff16146109dd576040517f08c379a00000000000000000000000000000000000000000000000000000000081526004016109d490613e95565b60405180910390fd5b83600060028111156109f2576109f1613578565b5b6001600083815260200190815260200160002060010160009054906101000a900460ff166002811115610a2857610a27613578565b5b14610a68576040517f08c379a0000000000000000000000000000000000000000000000000000000008152600401610a5f90613f27565b60405180910390fd5b600180600087815260200190815260200160002060010160006101000a81548160ff02191690836002811115610aa157610aa0613578565b5b021790555060016002811115610aba57610ab9613578565b5b857f15211d78a502c0edd03f8cefb0ba09c0bcdb3045a82c5d05dbdfff58efc82f0360405160405180910390a35050505050565b610af66131e8565b816000600160008381526020019081526020016000206000015411610b50576040517f08c379a0000000000000000000000000000000000000000000000000000000008152600401610b4790613e29565b60405180910390fd5b600160008481526020019081526020016000206040518060c0016040529081600082015481526020016001820160009054906101000a900460ff166002811115610b9d57610b9c613578565b5b6002811115610baf57610bae613578565b5b81526020016001820160019054906101000a900473ffffffffffffffffffffffffffffffffffffffff1673ffffffffffffffffffffffffffffffffffffffff1673ffffffffffffffffffffffffffffffffffffffff16815260200160028201805480602002602001604051908101604052809291908181526020016000905b82821015610cca57838290600052602060002090600302016040518060600160405290816000820160009054906101000a900473ffffffffffffffffffffffffffffffffffffffff1673ffffffffffffffffffffffffffffffffffffffff1673ffffffffffffffffffffffffffffffffffffffff1681526020016001820154815260200160028201548152505081526020019060010190610c2e565b50505050815260200160038201805480602002602001604051908101604052809291908181526020018280548015610d5757602002820191906000526020600020905b8160009054906101000a900473ffffffffffffffffffffffffffffffffffffffff1673ffffffffffffffffffffffffffffffffffffffff1681526020019060010190808311610d0d575b5050505050815260200160048201805480602002602001604051908101604052809291908181526020016000905b82821015610e2157838290600052602060002090600302016040518060600160405290816000820160009054906101000a900473ffffffffffffffffffffffffffffffffffffffff1673ffffffffffffffffffffffffffffffffffffffff1673ffffffffffffffffffffffffffffffffffffffff1681526020016001820154815260200160028201548152505081526020019060010190610d85565b5050505081525050915050919050565b60008060036000610e406130f8565b73ffffffffffffffffffffffffffffffffffffffff1673ffffffffffffffffffffffffffffffffffffffff1681526020019081526020016000205411610ebb576040517f08c379a0000000000000000000000000000000000000000000000000000000008152600401610eb290613bf0565b60405180910390fd5b600360008373ffffffffffffffffffffffffffffffffffffffff1673ffffffffffffffffffffffffffffffffffffffff168152602001908152602001600020549050919050565b610f0a61307a565b60008273ffffffffffffffffffffffffffffffffffffffff163b14610f64576040517f08c379a0000000000000000000000000000000000000000000000000000000008152600401610f5b90613fb9565b60405180910390fd5b600081111561111d576000600360008473ffffffffffffffffffffffffffffffffffffffff1673ffffffffffffffffffffffffffffffffffffffff16815260200190815260200160002054111561105c5780600360008473ffffffffffffffffffffffffffffffffffffffff1673ffffffffffffffffffffffffffffffffffffffff168152602001908152602001600020546005546110039190613fd9565b61100d919061400d565b60058190555080600360008473ffffffffffffffffffffffffffffffffffffffff1673ffffffffffffffffffffffffffffffffffffffff16815260200190815260200160002081905550611118565b8060055461106a919061400d565b60058190555080600360008473ffffffffffffffffffffffffffffffffffffffff1673ffffffffffffffffffffffffffffffffffffffff168152602001908152602001600020819055506004829080600181540180825580915050600190039060005260206000200160009091909190916101000a81548173ffffffffffffffffffffffffffffffffffffffff021916908373ffffffffffffffffffffffffffffffffffffffff1602179055505b611359565b6000600360008473ffffffffffffffffffffffffffffffffffffffff1673ffffffffffffffffffffffffffffffffffffffff168152602001908152602001600020541161119f576040517f08c379a0000000000000000000000000000000000000000000000000000000008152600401611196906140d5565b60405180910390fd5b600360008373ffffffffffffffffffffffffffffffffffffffff1673ffffffffffffffffffffffffffffffffffffffff168152602001908152602001600020546005546111ec9190613fd9565b60058190555060005b600480549050811015611314578273ffffffffffffffffffffffffffffffffffffffff166004828154811061122d5761122c613c7c565b5b9060005260206000200160009054906101000a900473ffffffffffffffffffffffffffffffffffffffff1673ffffffffffffffffffffffffffffffffffffffff161415611301576004818154811061128857611287613c7c565b5b9060005260206000200160006101000a81549073ffffffffffffffffffffffffffffffffffffffff021916905560048054806112c7576112c66140f5565b5b6001900381819060005260206000200160006101000a81549073ffffffffffffffffffffffffffffffffffffffff02191690559055611314565b808061130c90613d94565b9150506111f5565b50600360008373ffffffffffffffffffffffffffffffffffffffff1673ffffffffffffffffffffffffffffffffffffffff168152602001908152602001600020600090555b5050565b8060006001600083815260200190815260200160002060000154116113b7576040517f08c379a00000000000000000000000000000000000000000000000000000000081526004016113ae90613e29565b60405180910390fd5b816113c06130f8565b8073ffffffffffffffffffffffffffffffffffffffff166001600084815260200190815260200160002060010160019054906101000a900473ffffffffffffffffffffffffffffffffffffffff1673ffffffffffffffffffffffffffffffffffffffff1614611464576040517f08c379a000000000000000000000000000000000000000000000000000000000815260040161145b90613e95565b60405180910390fd5b6001600281111561147857611477613578565b5b6001600086815260200190815260200160002060010160009054906101000a900460ff1660028111156114ae576114ad613578565b5b146114ee576040517f08c379a00000000000000000000000000000000000000000000000000000000081526004016114e590614196565b60405180910390fd5b60006001600086815260200190815260200160002060010160006101000a81548160ff0219169083600281111561152857611527613578565b5b02179055506000600281111561154157611540613578565b5b847f15211d78a502c0edd03f8cefb0ba09c0bcdb3045a82c5d05dbdfff58efc82f0360405160405180910390a350505050565b61157c61307a565b6115866000613100565b565b8260006001600083815260200190815260200160002060000154116115e2576040517f08c379a00000000000000000000000000000000000000000000000000000000081526004016115d990613e29565b60405180910390fd5b836115eb6130f8565b8073ffffffffffffffffffffffffffffffffffffffff166001600084815260200190815260200160002060010160019054906101000a900473ffffffffffffffffffffffffffffffffffffffff1673ffffffffffffffffffffffffffffffffffffffff161461168f576040517f08c379a000000000000000000000000000000000000000000000000000000000815260040161168690613e95565b60405180910390fd5b600060016000888152602001908152602001600020600301905084156118175760005b8180549050811015611749578673ffffffffffffffffffffffffffffffffffffffff168282815481106116e8576116e7613c7c565b5b9060005260206000200160009054906101000a900473ffffffffffffffffffffffffffffffffffffffff1673ffffffffffffffffffffffffffffffffffffffff161415611736575050611b9f565b808061174190613d94565b9150506116b2565b5080869080600181540180825580915050600190039060005260206000200160009091909190916101000a81548173ffffffffffffffffffffffffffffffffffffffff021916908373ffffffffffffffffffffffffffffffffffffffff160217905550600260008773ffffffffffffffffffffffffffffffffffffffff1673ffffffffffffffffffffffffffffffffffffffff168152602001908152602001600020879080600181540180825580915050600190039060005260206000200160009091909190915055611b9d565b60005b8180549050811015611b9b578673ffffffffffffffffffffffffffffffffffffffff168282815481106118505761184f613c7c565b5b9060005260206000200160009054906101000a900473ffffffffffffffffffffffffffffffffffffffff1673ffffffffffffffffffffffffffffffffffffffff161415611b88578181815481106118aa576118a9613c7c565b5b9060005260206000200160006101000a81549073ffffffffffffffffffffffffffffffffffffffff0219169055818054806118e8576118e76140f5565b5b6001900381819060005260206000200160006101000a81549073ffffffffffffffffffffffffffffffffffffffff0219169055905560005b600260008973ffffffffffffffffffffffffffffffffffffffff1673ffffffffffffffffffffffffffffffffffffffff16815260200190815260200160002080549050811015611aa95788600260008a73ffffffffffffffffffffffffffffffffffffffff1673ffffffffffffffffffffffffffffffffffffffff16815260200190815260200160002082815481106119bc576119bb613c7c565b5b90600052602060002001541415611a9657600260008973ffffffffffffffffffffffffffffffffffffffff1673ffffffffffffffffffffffffffffffffffffffff1681526020019081526020016000208181548110611a1e57611a1d613c7c565b5b9060005260206000200160009055600260008973ffffffffffffffffffffffffffffffffffffffff1673ffffffffffffffffffffffffffffffffffffffff168152602001908152602001600020805480611a7b57611a7a6140f5565b5b60019003818190600052602060002001600090559055611aa9565b8080611aa190613d94565b915050611920565b50600082805490501415611b81578160009080600181540180825580915050600190039060005260206000200160009091909190916101000a81548173ffffffffffffffffffffffffffffffffffffffff021916908373ffffffffffffffffffffffffffffffffffffffff160217905550600260008073ffffffffffffffffffffffffffffffffffffffff1673ffffffffffffffffffffffffffffffffffffffff1681526020019081526020016000208890806001815401808255809150506001900390600052602060002001600090919091909150555b5050611b9f565b8080611b9390613d94565b91505061181a565b505b505b505050505050565b60008060009054906101000a900473ffffffffffffffffffffffffffffffffffffffff16905090565b611bd861307a565b8060068190555050565b806000600160008381526020019081526020016000206000015411611c3c576040517f08c379a0000000000000000000000000000000000000000000000000000000008152600401611c3390613e29565b60405180910390fd5b81611c456130f8565b600060016000848152602001908152602001600020905060005b816003018054905081101561244157600073ffffffffffffffffffffffffffffffffffffffff16826003018281548110611c9c57611c9b613c7c565b5b9060005260206000200160009054906101000a900473ffffffffffffffffffffffffffffffffffffffff1673ffffffffffffffffffffffffffffffffffffffff161480611d5457508273ffffffffffffffffffffffffffffffffffffffff16826003018281548110611d1157611d10613c7c565b5b9060005260206000200160009054906101000a900473ffffffffffffffffffffffffffffffffffffffff1673ffffffffffffffffffffffffffffffffffffffff16145b1561242e578560006002811115611d6e57611d6d613578565b5b6001600083815260200190815260200160002060010160009054906101000a900460ff166002811115611da457611da3613578565b5b14611de4576040517f08c379a0000000000000000000000000000000000000000000000000000000008152600401611ddb90613f27565b60405180910390fd5b611dec612725565b341015611e2e576040517f08c379a0000000000000000000000000000000000000000000000000000000008152600401611e2590614228565b60405180910390fd5b600060016000898152602001908152602001600020905060005b81600401805490508110156120ef576000826004018281548110611e6f57611e6e613c7c565b5b906000526020600020906003020190506000611eae8260000160009054906101000a900473ffffffffffffffffffffffffffffffffffffffff166125a2565b90508073ffffffffffffffffffffffffffffffffffffffff166303850f3b611ed46130f8565b8460000160009054906101000a900473ffffffffffffffffffffffffffffffffffffffff16856001015486600201546040518563ffffffff1660e01b8152600401611f229493929190614257565b60206040518083038186803b158015611f3a57600080fd5b505afa158015611f4e573d6000803e3d6000fd5b505050506040513d601f19601f82011682018060405250810190611f7291906142b1565b611fb1576040517f08c379a0000000000000000000000000000000000000000000000000000000008152600401611fa890614350565b60405180910390fd5b8073ffffffffffffffffffffffffffffffffffffffff1663c6bc20b6611fd56130f8565b8460000160009054906101000a900473ffffffffffffffffffffffffffffffffffffffff16856001015486600201548960010160019054906101000a900473ffffffffffffffffffffffffffffffffffffffff166040518663ffffffff1660e01b8152600401612049959493929190614370565b602060405180830381600087803b15801561206357600080fd5b505af1158015612077573d6000803e3d6000fd5b505050506040513d601f19601f8201168201806040525081019061209b91906142b1565b6120da576040517f08c379a00000000000000000000000000000000000000000000000000000000081526004016120d190614435565b60405180910390fd5b505080806120e790613d94565b915050611e48565b5060005b81600201805490508110156123b757600082600201828154811061211a57612119613c7c565b5b9060005260206000209060030201905060006121598260000160009054906101000a900473ffffffffffffffffffffffffffffffffffffffff166125a2565b90508073ffffffffffffffffffffffffffffffffffffffff166303850f3b8560010160019054906101000a900473ffffffffffffffffffffffffffffffffffffffff168460000160009054906101000a900473ffffffffffffffffffffffffffffffffffffffff16856001015486600201546040518563ffffffff1660e01b81526004016121ea9493929190614257565b60206040518083038186803b15801561220257600080fd5b505afa158015612216573d6000803e3d6000fd5b505050506040513d601f19601f8201168201806040525081019061223a91906142b1565b612279576040517f08c379a0000000000000000000000000000000000000000000000000000000008152600401612270906144c7565b60405180910390fd5b8073ffffffffffffffffffffffffffffffffffffffff1663c6bc20b68560010160019054906101000a900473ffffffffffffffffffffffffffffffffffffffff168460000160009054906101000a900473ffffffffffffffffffffffffffffffffffffffff16856001015486600201546122f16130f8565b6040518663ffffffff1660e01b8152600401612311959493929190614370565b602060405180830381600087803b15801561232b57600080fd5b505af115801561233f573d6000803e3d6000fd5b505050506040513d601f19601f8201168201806040525081019061236391906142b1565b6123a2576040517f08c379a000000000000000000000000000000000000000000000000000000000815260040161239990614559565b60405180910390fd5b505080806123af90613d94565b9150506120f3565b5060028160010160006101000a81548160ff021916908360028111156123e0576123df613578565b5b02179055506002808111156123f8576123f7613578565b5b887f15211d78a502c0edd03f8cefb0ba09c0bcdb3045a82c5d05dbdfff58efc82f0360405160405180910390a350505050612485565b808061243990613d94565b915050611c5f565b506000612483576040517f08c379a000000000000000000000000000000000000000000000000000000000815260040161247a906145c5565b60405180910390fd5b505b50505050565b606060006003600061249b6130f8565b73ffffffffffffffffffffffffffffffffffffffff1673ffffffffffffffffffffffffffffffffffffffff1681526020019081526020016000205411612516576040517f08c379a000000000000000000000000000000000000000000000000000000000815260040161250d90613bf0565b60405180910390fd5b600480548060200260200160405190810160405280929190818152602001828054801561259857602002820191906000526020600020905b8160009054906101000a900473ffffffffffffffffffffffffffffffffffffffff1673ffffffffffffffffffffffffffffffffffffffff168152602001906001019080831161254e575b5050505050905090565b600080600090505b6008805490508110156126dd57600881815481106125cb576125ca613c7c565b5b9060005260206000200160009054906101000a900473ffffffffffffffffffffffffffffffffffffffff1673ffffffffffffffffffffffffffffffffffffffff16630b829275846040518263ffffffff1660e01b815260040161262e919061394a565b60206040518083038186803b15801561264657600080fd5b505afa15801561265a573d6000803e3d6000fd5b505050506040513d601f19601f8201168201806040525081019061267e91906142b1565b156126ca576008818154811061269757612696613c7c565b5b9060005260206000200160009054906101000a900473ffffffffffffffffffffffffffffffffffffffff16915050612720565b80806126d590613d94565b9150506125aa565b50600061271f576040517f08c379a000000000000000000000000000000000000000000000000000000000815260040161271690614657565b60405180910390fd5b5b919050565b6000600754905090565b6000806003600061273e6130f8565b73ffffffffffffffffffffffffffffffffffffffff1673ffffffffffffffffffffffffffffffffffffffff16815260200190815260200160002054116127b9576040517f08c379a00000000000000000000000000000000000000000000000000000000081526004016127b090613bf0565b60405180910390fd5b600554905090565b60006127cd60096131c4565b905090565b60008073ffffffffffffffffffffffffffffffffffffffff168873ffffffffffffffffffffffffffffffffffffffff161415612843576040517f08c379a000000000000000000000000000000000000000000000000000000000815260040161283a906146e9565b60405180910390fd5b61284b6105fb565b34101561288d576040517f08c379a00000000000000000000000000000000000000000000000000000000081526004016128849061477b565b60405180910390fd5b61289760096131d2565b6128a160096131c4565b9050806001600083815260200190815260200160002060000181905550876001600083815260200190815260200160002060010160016101000a81548173ffffffffffffffffffffffffffffffffffffffff021916908373ffffffffffffffffffffffffffffffffffffffff160217905550600260008973ffffffffffffffffffffffffffffffffffffffff1673ffffffffffffffffffffffffffffffffffffffff16815260200190815260200160002081908060018154018082558091505060019003906000526020600020016000909190919091505560005b87879050811015612a34576129ba88888381811061299d5761299c613c7c565b5b90506060020160000160208101906129b591906132ae565b6125a2565b50600160008381526020019081526020016000206002018888838181106129e4576129e3613c7c565b5b90506060020190806001815401808255809150506001900390600052602060002090600302016000909190919091508181612a1f91906149c2565b50508080612a2c90613d94565b91505061297c565b5060005b85859050811015612b815760016000838152602001908152602001600020600301868683818110612a6c57612a6b613c7c565b5b9050602002016020810190612a8191906132ae565b9080600181540180825580915050600190039060005260206000200160009091909190916101000a81548173ffffffffffffffffffffffffffffffffffffffff021916908373ffffffffffffffffffffffffffffffffffffffff16021790555060026000878784818110612af857612af7613c7c565b5b9050602002016020810190612b0d91906132ae565b73ffffffffffffffffffffffffffffffffffffffff1673ffffffffffffffffffffffffffffffffffffffff1681526020019081526020016000208290806001815401808255809150506001900390600052602060002001600090919091909150558080612b7990613d94565b915050612a38565b5060005b83839050811015612c3d57612bc3848483818110612ba657612ba5613c7c565b5b9050606002016000016020810190612bbe91906132ae565b6125a2565b5060016000838152602001908152602001600020600401848483818110612bed57612bec613c7c565b5b90506060020190806001815401808255809150506001900390600052602060002090600302016000909190919091508181612c2891906149c2565b50508080612c3590613d94565b915050612b85565b5060006002811115612c5257612c51613578565b5b817f15211d78a502c0edd03f8cefb0ba09c0bcdb3045a82c5d05dbdfff58efc82f0360405160405180910390a3979650505050505050565b612c9261307a565b8073ffffffffffffffffffffffffffffffffffffffff166301ffc9a77fcf44745f000000000000000000000000000000000000000000000000000000006040518263ffffffff1660e01b8152600401612ceb9190614a0b565b60206040518083038186803b158015612d0357600080fd5b505afa158015612d17573d6000803e3d6000fd5b505050506040513d601f19601f82011682018060405250810190612d3b91906142b1565b612d7a576040517f08c379a0000000000000000000000000000000000000000000000000000000008152600401612d7190614a98565b60405180910390fd5b6008819080600181540180825580915050600190039060005260206000200160009091909190916101000a81548173ffffffffffffffffffffffffffffffffffffffff021916908373ffffffffffffffffffffffffffffffffffffffff16021790555050565b612de861307a565b8073ffffffffffffffffffffffffffffffffffffffff166301ffc9a77fcf44745f000000000000000000000000000000000000000000000000000000006040518263ffffffff1660e01b8152600401612e419190614a0b565b60206040518083038186803b158015612e5957600080fd5b505afa158015612e6d573d6000803e3d6000fd5b505050506040513d601f19601f82011682018060405250810190612e9191906142b1565b612ed0576040517f08c379a0000000000000000000000000000000000000000000000000000000008152600401612ec790614a98565b60405180910390fd5b60005b600880549050811015612ff2578173ffffffffffffffffffffffffffffffffffffffff1660088281548110612f0b57612f0a613c7c565b5b9060005260206000200160009054906101000a900473ffffffffffffffffffffffffffffffffffffffff1673ffffffffffffffffffffffffffffffffffffffff161415612fdf5760088181548110612f6657612f65613c7c565b5b9060005260206000200160006101000a81549073ffffffffffffffffffffffffffffffffffffffff02191690556008805480612fa557612fa46140f5565b5b6001900381819060005260206000200160006101000a81549073ffffffffffffffffffffffffffffffffffffffff02191690559055612ff2565b8080612fea90613d94565b915050612ed3565b5050565b612ffe61307a565b600073ffffffffffffffffffffffffffffffffffffffff168173ffffffffffffffffffffffffffffffffffffffff16141561306e576040517f08c379a000000000000000000000000000000000000000000000000000000000815260040161306590614b2a565b60405180910390fd5b61307781613100565b50565b6130826130f8565b73ffffffffffffffffffffffffffffffffffffffff166130a0611ba7565b73ffffffffffffffffffffffffffffffffffffffff16146130f6576040517f08c379a00000000000000000000000000000000000000000000000000000000081526004016130ed90614b96565b60405180910390fd5b565b600033905090565b60008060009054906101000a900473ffffffffffffffffffffffffffffffffffffffff169050816000806101000a81548173ffffffffffffffffffffffffffffffffffffffff021916908373ffffffffffffffffffffffffffffffffffffffff1602179055508173ffffffffffffffffffffffffffffffffffffffff168173ffffffffffffffffffffffffffffffffffffffff167f8be0079c531659141344cd1fd0a4f28419497f9722a3daafe3b4186f6b6457e060405160405180910390a35050565b600081600001549050919050565b6001816000016000828254019250508190555050565b6040518060c00160405280600081526020016000600281111561320e5761320d613578565b5b8152602001600073ffffffffffffffffffffffffffffffffffffffff1681526020016060815260200160608152602001606081525090565b600080fd5b600080fd5b600073ffffffffffffffffffffffffffffffffffffffff82169050919050565b600061327b82613250565b9050919050565b61328b81613270565b811461329657600080fd5b50565b6000813590506132a881613282565b92915050565b6000602082840312156132c4576132c3613246565b5b60006132d284828501613299565b91505092915050565b600081519050919050565b600082825260208201905092915050565b6000819050602082019050919050565b6000819050919050565b61331a81613307565b82525050565b600061332c8383613311565b60208301905092915050565b6000602082019050919050565b6000613350826132db565b61335a81856132e6565b9350613365836132f7565b8060005b8381101561339657815161337d8882613320565b975061338883613338565b925050600181019050613369565b5085935050505092915050565b600060208201905081810360008301526133bd8184613345565b905092915050565b6133ce81613307565b82525050565b60006020820190506133e960008301846133c5565b92915050565b6133f881613307565b811461340357600080fd5b50565b600081359050613415816133ef565b92915050565b60006020828403121561343157613430613246565b5b600061343f84828501613406565b91505092915050565b600081519050919050565b600082825260208201905092915050565b6000819050602082019050919050565b6000819050919050565b600061349961349461348f84613250565b613474565b613250565b9050919050565b60006134ab8261347e565b9050919050565b60006134bd826134a0565b9050919050565b6134cd816134b2565b82525050565b60006134df83836134c4565b60208301905092915050565b6000602082019050919050565b600061350382613448565b61350d8185613453565b935061351883613464565b8060005b8381101561354957815161353088826134d3565b975061353b836134eb565b92505060018101905061351c565b5085935050505092915050565b6000602082019050818103600083015261357081846134f8565b905092915050565b7f4e487b7100000000000000000000000000000000000000000000000000000000600052602160045260246000fd5b600381106135b8576135b7613578565b5b50565b60008190506135c9826135a7565b919050565b60006135d9826135bb565b9050919050565b6135e9816135ce565b82525050565b6135f881613270565b82525050565b600081519050919050565b600082825260208201905092915050565b6000819050602082019050919050565b6000819050919050565b61363d8161362a565b82525050565b60608201600082015161365960008501826135ef565b50602082015161366c6020850182613634565b50604082015161367f6040850182613311565b50505050565b60006136918383613643565b60608301905092915050565b6000602082019050919050565b60006136b5826135fe565b6136bf8185613609565b93506136ca8361361a565b8060005b838110156136fb5781516136e28882613685565b97506136ed8361369d565b9250506001810190506136ce565b5085935050505092915050565b600081519050919050565b600082825260208201905092915050565b6000819050602082019050919050565b600061374083836135ef565b60208301905092915050565b6000602082019050919050565b600061376482613708565b61376e8185613713565b935061377983613724565b8060005b838110156137aa5781516137918882613734565b975061379c8361374c565b92505060018101905061377d565b5085935050505092915050565b600060c0830160008301516137cf6000860182613311565b5060208301516137e260208601826135e0565b5060408301516137f560408601826135ef565b506060830151848203606086015261380d82826136aa565b915050608083015184820360808601526138278282613759565b91505060a083015184820360a086015261384182826136aa565b9150508091505092915050565b6000602082019050818103600083015261386881846137b7565b905092915050565b6000806040838503121561388757613886613246565b5b600061389585828601613299565b92505060206138a685828601613406565b9150509250929050565b60008115159050919050565b6138c5816138b0565b81146138d057600080fd5b50565b6000813590506138e2816138bc565b92915050565b60008060006060848603121561390157613900613246565b5b600061390f86828701613406565b935050602061392086828701613299565b9250506040613931868287016138d3565b9150509250925092565b61394481613270565b82525050565b600060208201905061395f600083018461393b565b92915050565b600061397082613708565b61397a8185613453565b935061398583613724565b8060005b838110156139b657815161399d8882613734565b97506139a88361374c565b925050600181019050613989565b5085935050505092915050565b600060208201905081810360008301526139dd8184613965565b905092915050565b6139ee816134b2565b82525050565b6000602082019050613a0960008301846139e5565b92915050565b600080fd5b600080fd5b600080fd5b60008083601f840112613a3457613a33613a0f565b5b8235905067ffffffffffffffff811115613a5157613a50613a14565b5b602083019150836060820283011115613a6d57613a6c613a19565b5b9250929050565b60008083601f840112613a8a57613a89613a0f565b5b8235905067ffffffffffffffff811115613aa757613aa6613a14565b5b602083019150836020820283011115613ac357613ac2613a19565b5b9250929050565b60008060008060008060006080888a031215613ae957613ae8613246565b5b6000613af78a828b01613299565b975050602088013567ffffffffffffffff811115613b1857613b1761324b565b5b613b248a828b01613a1e565b9650965050604088013567ffffffffffffffff811115613b4757613b4661324b565b5b613b538a828b01613a74565b9450945050606088013567ffffffffffffffff811115613b7657613b7561324b565b5b613b828a828b01613a1e565b925092505092959891949750929550565b600082825260208201905092915050565b7f4e4654537761707065723a206e6f74206120636f6e7472696275746f72000000600082015250565b6000613bda601d83613b93565b9150613be582613ba4565b602082019050919050565b60006020820190508181036000830152613c0981613bcd565b9050919050565b7f4e4654537761707065723a2077697468647261773a206e6f2062616c616e6365600082015250565b6000613c46602083613b93565b9150613c5182613c10565b602082019050919050565b60006020820190508181036000830152613c7581613c39565b9050919050565b7f4e487b7100000000000000000000000000000000000000000000000000000000600052603260045260246000fd5b7f4e487b7100000000000000000000000000000000000000000000000000000000600052601160045260246000fd5b6000613ce582613307565b9150613cf083613307565b9250817fffffffffffffffffffffffffffffffffffffffffffffffffffffffffffffffff0483118215151615613d2957613d28613cab565b5b828202905092915050565b7f4e487b7100000000000000000000000000000000000000000000000000000000600052601260045260246000fd5b6000613d6e82613307565b9150613d7983613307565b925082613d8957613d88613d34565b5b828204905092915050565b6000613d9f82613307565b91507fffffffffffffffffffffffffffffffffffffffffffffffffffffffffffffffff821415613dd257613dd1613cab565b5b600182019050919050565b7f4e4654537761707065723a20696420646f6573206e6f74206578697374000000600082015250565b6000613e13601d83613b93565b9150613e1e82613ddd565b602082019050919050565b60006020820190508181036000830152613e4281613e06565b9050919050565b7f4e4654537761707065723a206e6f742074686520626964646572000000000000600082015250565b6000613e7f601a83613b93565b9150613e8a82613e49565b602082019050919050565b60006020820190508181036000830152613eae81613e72565b9050919050565b7f4e4654537761707065723a207377617020697320636f6d706c65746564206f7260008201527f2063616e63656c6c656400000000000000000000000000000000000000000000602082015250565b6000613f11602a83613b93565b9150613f1c82613eb5565b604082019050919050565b60006020820190508181036000830152613f4081613f04565b9050919050565b7f4e4654537761707065723a20736574436f6e7472696275746f723a20636f6e7460008201527f72696275746f722061646472657373206973206e6f74206120454f4100000000602082015250565b6000613fa3603c83613b93565b9150613fae82613f47565b604082019050919050565b60006020820190508181036000830152613fd281613f96565b9050919050565b6000613fe482613307565b9150613fef83613307565b92508282101561400257614001613cab565b5b828203905092915050565b600061401882613307565b915061402383613307565b9250827fffffffffffffffffffffffffffffffffffffffffffffffffffffffffffffffff0382111561405857614057613cab565b5b828201905092915050565b7f4e4654537761707065723a2072656d6f7665436f6e7472696275746f723a206360008201527f6f6e7472696275746f72206e6f7420666f756e64000000000000000000000000602082015250565b60006140bf603483613b93565b91506140ca82614063565b604082019050919050565b600060208201905081810360008301526140ee816140b2565b9050919050565b7f4e487b7100000000000000000000000000000000000000000000000000000000600052603160045260246000fd5b7f4e4654537761707065723a20756e63616e63656c3a2073776170206973206e6f60008201527f742063616e63656c6c6564000000000000000000000000000000000000000000602082015250565b6000614180602b83613b93565b915061418b82614124565b604082019050919050565b600060208201905081810360008301526141af81614173565b9050919050565b7f4e4654537761707065723a20737761703a20696e73756666696369656e74207660008201527f616c756520666f72207377617000000000000000000000000000000000000000602082015250565b6000614212602d83613b93565b915061421d826141b6565b604082019050919050565b6000602082019050818103600083015261424181614205565b9050919050565b6142518161362a565b82525050565b600060808201905061426c600083018761393b565b614279602083018661393b565b6142866040830185614248565b61429360608301846133c5565b95945050505050565b6000815190506142ab816138bc565b92915050565b6000602082840312156142c7576142c6613246565b5b60006142d58482850161429c565b91505092915050565b7f4e4654537761707065723a20737761703a2073656e646572206973206e6f742060008201527f746865206f776e6572206f662064656d616e646564204e465473000000000000602082015250565b600061433a603a83613b93565b9150614345826142de565b604082019050919050565b600060208201905081810360008301526143698161432d565b9050919050565b600060a082019050614385600083018861393b565b614392602083018761393b565b61439f6040830186614248565b6143ac60608301856133c5565b6143b9608083018461393b565b9695505050505050565b7f4e4654537761707065723a20737761703a207472616e736665722066726f6d2060008201527f74656e646572656420746f20626964646572206661696c656400000000000000602082015250565b600061441f603983613b93565b915061442a826143c3565b604082019050919050565b6000602082019050818103600083015261444e81614412565b9050919050565b7f4e4654537761707065723a20737761703a20537761702062696464657220697360008201527f206e6f7420746865206f776e6572206f66206f666665726564204e4654730000602082015250565b60006144b1603e83613b93565b91506144bc82614455565b604082019050919050565b600060208201905081810360008301526144e0816144a4565b9050919050565b7f4e4654537761707065723a20737761703a207472616e736665722066726f6d2060008201527f62696464657220746f2074656e6465726564206661696c656400000000000000602082015250565b6000614543603983613b93565b915061454e826144e7565b604082019050919050565b6000602082019050818103600083015261457281614536565b9050919050565b7f4e4654537761707065723a206e6f7420612074656e6465726564000000000000600082015250565b60006145af601a83613b93565b91506145ba82614579565b602082019050919050565b600060208201905081810360008301526145de816145a2565b9050919050565b7f4e4654537761707065723a2067657448616e646c65723a206e6f2068616e646c60008201527f657220666f756e64000000000000000000000000000000000000000000000000602082015250565b6000614641602883613b93565b915061464c826145e5565b604082019050919050565b6000602082019050818103600083015261467081614634565b9050919050565b7f4e4654537761707065723a2072656769737465723a206269646465722069732060008201527f6e6f742076616c69640000000000000000000000000000000000000000000000602082015250565b60006146d3602983613b93565b91506146de82614677565b604082019050919050565b60006020820190508181036000830152614702816146c6565b9050919050565b7f4e4654537761707065723a2072656769737465723a20696e737566666963696560008201527f6e742076616c756520666f722072656769737465720000000000000000000000602082015250565b6000614765603583613b93565b915061477082614709565b604082019050919050565b6000602082019050818103600083015261479481614758565b9050919050565b600081356147a881613282565b80915050919050565b60008160001b9050919050565b600073ffffffffffffffffffffffffffffffffffffffff6147de846147b1565b9350801983169250808416831791505092915050565b60006147ff826134a0565b9050919050565b6000819050919050565b614819826147f4565b61482c61482582614806565b83546147be565b8255505050565b61483c8161362a565b811461484757600080fd5b50565b6000813561485781614833565b80915050919050565b60007fffffffffffffffffffffffffffffffffffffffffffffffffffffffffffffffff61488c846147b1565b9350801983169250808416831791505092915050565b60006148ad8261362a565b9050919050565b60008160001c9050919050565b60006148cc826148b4565b9050919050565b6148dc826148a2565b6148ef6148e8826148c1565b8354614860565b8255505050565b60008135614903816133ef565b80915050919050565b600061492761492261491d84613307565b613474565b613307565b9050919050565b6000819050919050565b6149418261490c565b61495461494d8261492e565b8354614860565b8255505050565b60008101600083018061496d8161479b565b90506149798184614810565b50505060018101602083018061498e8161484a565b905061499a81846148d3565b5050506002810160408301806149af816148f6565b90506149bb8184614938565b5050505050565b6149cc828261495b565b5050565b60007fffffffff0000000000000000000000000000000000000000000000000000000082169050919050565b614a05816149d0565b82525050565b6000602082019050614a2060008301846149fc565b92915050565b7f68616e646c657220646f6573206e6f7420737570706f7274204953776170706560008201527f7248616e646c6572000000000000000000000000000000000000000000000000602082015250565b6000614a82602883613b93565b9150614a8d82614a26565b604082019050919050565b60006020820190508181036000830152614ab181614a75565b9050919050565b7f4f776e61626c653a206e6577206f776e657220697320746865207a65726f206160008201527f6464726573730000000000000000000000000000000000000000000000000000602082015250565b6000614b14602683613b93565b9150614b1f82614ab8565b604082019050919050565b60006020820190508181036000830152614b4381614b07565b9050919050565b7f4f776e61626c653a2063616c6c6572206973206e6f7420746865206f776e6572600082015250565b6000614b80602083613b93565b9150614b8b82614b4a565b602082019050919050565b60006020820190508181036000830152614baf81614b73565b905091905056fea26469706673582212204b10d94e456570729cbef7d4f789d2298397243d475d7d4d0bbf18d6729ded4664736f6c63430008090033",
					"opcodes": "PUSH1 0x80 PUSH1 0x40 MSTORE PUSH1 0x0 PUSH1 0x6 SSTORE PUSH1 0x0 PUSH1 0x7 SSTORE CALLVALUE DUP1 ISZERO PUSH3 0x1B JUMPI PUSH1 0x0 DUP1 REVERT JUMPDEST POP PUSH3 0x3C PUSH3 0x30 PUSH3 0x64 PUSH1 0x20 SHL PUSH1 0x20 SHR JUMP JUMPDEST PUSH3 0x6C PUSH1 0x20 SHL PUSH1 0x20 SHR JUMP JUMPDEST PUSH3 0x5E PUSH3 0x50 PUSH3 0x64 PUSH1 0x20 SHL PUSH1 0x20 SHR JUMP JUMPDEST PUSH1 0x64 PUSH3 0x130 PUSH1 0x20 SHL PUSH1 0x20 SHR JUMP JUMPDEST PUSH3 0x99E JUMP JUMPDEST PUSH1 0x0 CALLER SWAP1 POP SWAP1 JUMP JUMPDEST PUSH1 0x0 DUP1 PUSH1 0x0 SWAP1 SLOAD SWAP1 PUSH2 0x100 EXP SWAP1 DIV PUSH20 0xFFFFFFFFFFFFFFFFFFFFFFFFFFFFFFFFFFFFFFFF AND SWAP1 POP DUP2 PUSH1 0x0 DUP1 PUSH2 0x100 EXP DUP2 SLOAD DUP2 PUSH20 0xFFFFFFFFFFFFFFFFFFFFFFFFFFFFFFFFFFFFFFFF MUL NOT AND SWAP1 DUP4 PUSH20 0xFFFFFFFFFFFFFFFFFFFFFFFFFFFFFFFFFFFFFFFF AND MUL OR SWAP1 SSTORE POP DUP2 PUSH20 0xFFFFFFFFFFFFFFFFFFFFFFFFFFFFFFFFFFFFFFFF AND DUP2 PUSH20 0xFFFFFFFFFFFFFFFFFFFFFFFFFFFFFFFFFFFFFFFF AND PUSH32 0x8BE0079C531659141344CD1FD0A4F28419497F9722A3DAAFE3B4186F6B6457E0 PUSH1 0x40 MLOAD PUSH1 0x40 MLOAD DUP1 SWAP2 SUB SWAP1 LOG3 POP POP JUMP JUMPDEST PUSH3 0x140 PUSH3 0x5B4 PUSH1 0x20 SHL PUSH1 0x20 SHR JUMP JUMPDEST PUSH1 0x0 DUP3 PUSH20 0xFFFFFFFFFFFFFFFFFFFFFFFFFFFFFFFFFFFFFFFF AND EXTCODESIZE EQ PUSH3 0x19D JUMPI PUSH1 0x40 MLOAD PUSH32 0x8C379A000000000000000000000000000000000000000000000000000000000 DUP2 MSTORE PUSH1 0x4 ADD PUSH3 0x194 SWAP1 PUSH3 0x6F5 JUMP JUMPDEST PUSH1 0x40 MLOAD DUP1 SWAP2 SUB SWAP1 REVERT JUMPDEST PUSH1 0x0 DUP2 GT ISZERO PUSH3 0x360 JUMPI PUSH1 0x0 PUSH1 0x3 PUSH1 0x0 DUP5 PUSH20 0xFFFFFFFFFFFFFFFFFFFFFFFFFFFFFFFFFFFFFFFF AND PUSH20 0xFFFFFFFFFFFFFFFFFFFFFFFFFFFFFFFFFFFFFFFF AND DUP2 MSTORE PUSH1 0x20 ADD SWAP1 DUP2 MSTORE PUSH1 0x20 ADD PUSH1 0x0 KECCAK256 SLOAD GT ISZERO PUSH3 0x29C JUMPI DUP1 PUSH1 0x3 PUSH1 0x0 DUP5 PUSH20 0xFFFFFFFFFFFFFFFFFFFFFFFFFFFFFFFFFFFFFFFF AND PUSH20 0xFFFFFFFFFFFFFFFFFFFFFFFFFFFFFFFFFFFFFFFF AND DUP2 MSTORE PUSH1 0x20 ADD SWAP1 DUP2 MSTORE PUSH1 0x20 ADD PUSH1 0x0 KECCAK256 SLOAD PUSH1 0x5 SLOAD PUSH3 0x240 SWAP2 SWAP1 PUSH3 0x750 JUMP JUMPDEST PUSH3 0x24C SWAP2 SWAP1 PUSH3 0x78B JUMP JUMPDEST PUSH1 0x5 DUP2 SWAP1 SSTORE POP DUP1 PUSH1 0x3 PUSH1 0x0 DUP5 PUSH20 0xFFFFFFFFFFFFFFFFFFFFFFFFFFFFFFFFFFFFFFFF AND PUSH20 0xFFFFFFFFFFFFFFFFFFFFFFFFFFFFFFFFFFFFFFFF AND DUP2 MSTORE PUSH1 0x20 ADD SWAP1 DUP2 MSTORE PUSH1 0x20 ADD PUSH1 0x0 KECCAK256 DUP2 SWAP1 SSTORE POP PUSH3 0x35A JUMP JUMPDEST DUP1 PUSH1 0x5 SLOAD PUSH3 0x2AC SWAP2 SWAP1 PUSH3 0x78B JUMP JUMPDEST PUSH1 0x5 DUP2 SWAP1 SSTORE POP DUP1 PUSH1 0x3 PUSH1 0x0 DUP5 PUSH20 0xFFFFFFFFFFFFFFFFFFFFFFFFFFFFFFFFFFFFFFFF AND PUSH20 0xFFFFFFFFFFFFFFFFFFFFFFFFFFFFFFFFFFFFFFFF AND DUP2 MSTORE PUSH1 0x20 ADD SWAP1 DUP2 MSTORE PUSH1 0x20 ADD PUSH1 0x0 KECCAK256 DUP2 SWAP1 SSTORE POP PUSH1 0x4 DUP3 SWAP1 DUP1 PUSH1 0x1 DUP2 SLOAD ADD DUP1 DUP3 SSTORE DUP1 SWAP2 POP POP PUSH1 0x1 SWAP1 SUB SWAP1 PUSH1 0x0 MSTORE PUSH1 0x20 PUSH1 0x0 KECCAK256 ADD PUSH1 0x0 SWAP1 SWAP2 SWAP1 SWAP2 SWAP1 SWAP2 PUSH2 0x100 EXP DUP2 SLOAD DUP2 PUSH20 0xFFFFFFFFFFFFFFFFFFFFFFFFFFFFFFFFFFFFFFFF MUL NOT AND SWAP1 DUP4 PUSH20 0xFFFFFFFFFFFFFFFFFFFFFFFFFFFFFFFFFFFFFFFF AND MUL OR SWAP1 SSTORE POP JUMPDEST PUSH3 0x5B0 JUMP JUMPDEST PUSH1 0x0 PUSH1 0x3 PUSH1 0x0 DUP5 PUSH20 0xFFFFFFFFFFFFFFFFFFFFFFFFFFFFFFFFFFFFFFFF AND PUSH20 0xFFFFFFFFFFFFFFFFFFFFFFFFFFFFFFFFFFFFFFFF AND DUP2 MSTORE PUSH1 0x20 ADD SWAP1 DUP2 MSTORE PUSH1 0x20 ADD PUSH1 0x0 KECCAK256 SLOAD GT PUSH3 0x3E5 JUMPI PUSH1 0x40 MLOAD PUSH32 0x8C379A000000000000000000000000000000000000000000000000000000000 DUP2 MSTORE PUSH1 0x4 ADD PUSH3 0x3DC SWAP1 PUSH3 0x85E JUMP JUMPDEST PUSH1 0x40 MLOAD DUP1 SWAP2 SUB SWAP1 REVERT JUMPDEST PUSH1 0x3 PUSH1 0x0 DUP4 PUSH20 0xFFFFFFFFFFFFFFFFFFFFFFFFFFFFFFFFFFFFFFFF AND PUSH20 0xFFFFFFFFFFFFFFFFFFFFFFFFFFFFFFFFFFFFFFFF AND DUP2 MSTORE PUSH1 0x20 ADD SWAP1 DUP2 MSTORE PUSH1 0x20 ADD PUSH1 0x0 KECCAK256 SLOAD PUSH1 0x5 SLOAD PUSH3 0x434 SWAP2 SWAP1 PUSH3 0x750 JUMP JUMPDEST PUSH1 0x5 DUP2 SWAP1 SSTORE POP PUSH1 0x0 JUMPDEST PUSH1 0x4 DUP1 SLOAD SWAP1 POP DUP2 LT ISZERO PUSH3 0x56B JUMPI DUP3 PUSH20 0xFFFFFFFFFFFFFFFFFFFFFFFFFFFFFFFFFFFFFFFF AND PUSH1 0x4 DUP3 DUP2 SLOAD DUP2 LT PUSH3 0x479 JUMPI PUSH3 0x478 PUSH3 0x880 JUMP JUMPDEST JUMPDEST SWAP1 PUSH1 0x0 MSTORE PUSH1 0x20 PUSH1 0x0 KECCAK256 ADD PUSH1 0x0 SWAP1 SLOAD SWAP1 PUSH2 0x100 EXP SWAP1 DIV PUSH20 0xFFFFFFFFFFFFFFFFFFFFFFFFFFFFFFFFFFFFFFFF AND PUSH20 0xFFFFFFFFFFFFFFFFFFFFFFFFFFFFFFFFFFFFFFFF AND EQ ISZERO PUSH3 0x555 JUMPI PUSH1 0x4 DUP2 DUP2 SLOAD DUP2 LT PUSH3 0x4D8 JUMPI PUSH3 0x4D7 PUSH3 0x880 JUMP JUMPDEST JUMPDEST SWAP1 PUSH1 0x0 MSTORE PUSH1 0x20 PUSH1 0x0 KECCAK256 ADD PUSH1 0x0 PUSH2 0x100 EXP DUP2 SLOAD SWAP1 PUSH20 0xFFFFFFFFFFFFFFFFFFFFFFFFFFFFFFFFFFFFFFFF MUL NOT AND SWAP1 SSTORE PUSH1 0x4 DUP1 SLOAD DUP1 PUSH3 0x51A JUMPI PUSH3 0x519 PUSH3 0x8AF JUMP JUMPDEST JUMPDEST PUSH1 0x1 SWAP1 SUB DUP2 DUP2 SWAP1 PUSH1 0x0 MSTORE PUSH1 0x20 PUSH1 0x0 KECCAK256 ADD PUSH1 0x0 PUSH2 0x100 EXP DUP2 SLOAD SWAP1 PUSH20 0xFFFFFFFFFFFFFFFFFFFFFFFFFFFFFFFFFFFFFFFF MUL NOT AND SWAP1 SSTORE SWAP1 SSTORE PUSH3 0x56B JUMP JUMPDEST DUP1 DUP1 PUSH3 0x562 SWAP1 PUSH3 0x8DE JUMP JUMPDEST SWAP2 POP POP PUSH3 0x43D JUMP JUMPDEST POP PUSH1 0x3 PUSH1 0x0 DUP4 PUSH20 0xFFFFFFFFFFFFFFFFFFFFFFFFFFFFFFFFFFFFFFFF AND PUSH20 0xFFFFFFFFFFFFFFFFFFFFFFFFFFFFFFFFFFFFFFFF AND DUP2 MSTORE PUSH1 0x20 ADD SWAP1 DUP2 MSTORE PUSH1 0x20 ADD PUSH1 0x0 KECCAK256 PUSH1 0x0 SWAP1 SSTORE JUMPDEST POP POP JUMP JUMPDEST PUSH3 0x5C4 PUSH3 0x64 PUSH1 0x20 SHL PUSH1 0x20 SHR JUMP JUMPDEST PUSH20 0xFFFFFFFFFFFFFFFFFFFFFFFFFFFFFFFFFFFFFFFF AND PUSH3 0x5EA PUSH3 0x645 PUSH1 0x20 SHL PUSH1 0x20 SHR JUMP JUMPDEST PUSH20 0xFFFFFFFFFFFFFFFFFFFFFFFFFFFFFFFFFFFFFFFF AND EQ PUSH3 0x643 JUMPI PUSH1 0x40 MLOAD PUSH32 0x8C379A000000000000000000000000000000000000000000000000000000000 DUP2 MSTORE PUSH1 0x4 ADD PUSH3 0x63A SWAP1 PUSH3 0x97C JUMP JUMPDEST PUSH1 0x40 MLOAD DUP1 SWAP2 SUB SWAP1 REVERT JUMPDEST JUMP JUMPDEST PUSH1 0x0 DUP1 PUSH1 0x0 SWAP1 SLOAD SWAP1 PUSH2 0x100 EXP SWAP1 DIV PUSH20 0xFFFFFFFFFFFFFFFFFFFFFFFFFFFFFFFFFFFFFFFF AND SWAP1 POP SWAP1 JUMP JUMPDEST PUSH1 0x0 DUP3 DUP3 MSTORE PUSH1 0x20 DUP3 ADD SWAP1 POP SWAP3 SWAP2 POP POP JUMP JUMPDEST PUSH32 0x4E4654537761707065723A20736574436F6E7472696275746F723A20636F6E74 PUSH1 0x0 DUP3 ADD MSTORE PUSH32 0x72696275746F722061646472657373206973206E6F74206120454F4100000000 PUSH1 0x20 DUP3 ADD MSTORE POP JUMP JUMPDEST PUSH1 0x0 PUSH3 0x6DD PUSH1 0x3C DUP4 PUSH3 0x66E JUMP JUMPDEST SWAP2 POP PUSH3 0x6EA DUP3 PUSH3 0x67F JUMP JUMPDEST PUSH1 0x40 DUP3 ADD SWAP1 POP SWAP2 SWAP1 POP JUMP JUMPDEST PUSH1 0x0 PUSH1 0x20 DUP3 ADD SWAP1 POP DUP2 DUP2 SUB PUSH1 0x0 DUP4 ADD MSTORE PUSH3 0x710 DUP2 PUSH3 0x6CE JUMP JUMPDEST SWAP1 POP SWAP2 SWAP1 POP JUMP JUMPDEST PUSH1 0x0 DUP2 SWAP1 POP SWAP2 SWAP1 POP JUMP JUMPDEST PUSH32 0x4E487B7100000000000000000000000000000000000000000000000000000000 PUSH1 0x0 MSTORE PUSH1 0x11 PUSH1 0x4 MSTORE PUSH1 0x24 PUSH1 0x0 REVERT JUMPDEST PUSH1 0x0 PUSH3 0x75D DUP3 PUSH3 0x717 JUMP JUMPDEST SWAP2 POP PUSH3 0x76A DUP4 PUSH3 0x717 JUMP JUMPDEST SWAP3 POP DUP3 DUP3 LT ISZERO PUSH3 0x780 JUMPI PUSH3 0x77F PUSH3 0x721 JUMP JUMPDEST JUMPDEST DUP3 DUP3 SUB SWAP1 POP SWAP3 SWAP2 POP POP JUMP JUMPDEST PUSH1 0x0 PUSH3 0x798 DUP3 PUSH3 0x717 JUMP JUMPDEST SWAP2 POP PUSH3 0x7A5 DUP4 PUSH3 0x717 JUMP JUMPDEST SWAP3 POP DUP3 PUSH32 0xFFFFFFFFFFFFFFFFFFFFFFFFFFFFFFFFFFFFFFFFFFFFFFFFFFFFFFFFFFFFFFFF SUB DUP3 GT ISZERO PUSH3 0x7DD JUMPI PUSH3 0x7DC PUSH3 0x721 JUMP JUMPDEST JUMPDEST DUP3 DUP3 ADD SWAP1 POP SWAP3 SWAP2 POP POP JUMP JUMPDEST PUSH32 0x4E4654537761707065723A2072656D6F7665436F6E7472696275746F723A2063 PUSH1 0x0 DUP3 ADD MSTORE PUSH32 0x6F6E7472696275746F72206E6F7420666F756E64000000000000000000000000 PUSH1 0x20 DUP3 ADD MSTORE POP JUMP JUMPDEST PUSH1 0x0 PUSH3 0x846 PUSH1 0x34 DUP4 PUSH3 0x66E JUMP JUMPDEST SWAP2 POP PUSH3 0x853 DUP3 PUSH3 0x7E8 JUMP JUMPDEST PUSH1 0x40 DUP3 ADD SWAP1 POP SWAP2 SWAP1 POP JUMP JUMPDEST PUSH1 0x0 PUSH1 0x20 DUP3 ADD SWAP1 POP DUP2 DUP2 SUB PUSH1 0x0 DUP4 ADD MSTORE PUSH3 0x879 DUP2 PUSH3 0x837 JUMP JUMPDEST SWAP1 POP SWAP2 SWAP1 POP JUMP JUMPDEST PUSH32 0x4E487B7100000000000000000000000000000000000000000000000000000000 PUSH1 0x0 MSTORE PUSH1 0x32 PUSH1 0x4 MSTORE PUSH1 0x24 PUSH1 0x0 REVERT JUMPDEST PUSH32 0x4E487B7100000000000000000000000000000000000000000000000000000000 PUSH1 0x0 MSTORE PUSH1 0x31 PUSH1 0x4 MSTORE PUSH1 0x24 PUSH1 0x0 REVERT JUMPDEST PUSH1 0x0 PUSH3 0x8EB DUP3 PUSH3 0x717 JUMP JUMPDEST SWAP2 POP PUSH32 0xFFFFFFFFFFFFFFFFFFFFFFFFFFFFFFFFFFFFFFFFFFFFFFFFFFFFFFFFFFFFFFFF DUP3 EQ ISZERO PUSH3 0x921 JUMPI PUSH3 0x920 PUSH3 0x721 JUMP JUMPDEST JUMPDEST PUSH1 0x1 DUP3 ADD SWAP1 POP SWAP2 SWAP1 POP JUMP JUMPDEST PUSH32 0x4F776E61626C653A2063616C6C6572206973206E6F7420746865206F776E6572 PUSH1 0x0 DUP3 ADD MSTORE POP JUMP JUMPDEST PUSH1 0x0 PUSH3 0x964 PUSH1 0x20 DUP4 PUSH3 0x66E JUMP JUMPDEST SWAP2 POP PUSH3 0x971 DUP3 PUSH3 0x92C JUMP JUMPDEST PUSH1 0x20 DUP3 ADD SWAP1 POP SWAP2 SWAP1 POP JUMP JUMPDEST PUSH1 0x0 PUSH1 0x20 DUP3 ADD SWAP1 POP DUP2 DUP2 SUB PUSH1 0x0 DUP4 ADD MSTORE PUSH3 0x997 DUP2 PUSH3 0x955 JUMP JUMPDEST SWAP1 POP SWAP2 SWAP1 POP JUMP JUMPDEST PUSH2 0x4BEC DUP1 PUSH3 0x9AE PUSH1 0x0 CODECOPY PUSH1 0x0 RETURN INVALID PUSH1 0x80 PUSH1 0x40 MSTORE PUSH1 0x4 CALLDATASIZE LT PUSH2 0x14F JUMPI PUSH1 0x0 CALLDATALOAD PUSH1 0xE0 SHR DUP1 PUSH4 0x8DA5CB5B GT PUSH2 0xB6 JUMPI DUP1 PUSH4 0xD5002F2E GT PUSH2 0x6F JUMPI DUP1 PUSH4 0xD5002F2E EQ PUSH2 0x463 JUMPI DUP1 PUSH4 0xD81671BC EQ PUSH2 0x48E JUMPI DUP1 PUSH4 0xE0EFC2F5 EQ PUSH2 0x4B9 JUMPI DUP1 PUSH4 0xEB57CE55 EQ PUSH2 0x4E9 JUMPI DUP1 PUSH4 0xED470A3A EQ PUSH2 0x512 JUMPI DUP1 PUSH4 0xF2FDE38B EQ PUSH2 0x53B JUMPI PUSH2 0x156 JUMP JUMPDEST DUP1 PUSH4 0x8DA5CB5B EQ PUSH2 0x360 JUMPI DUP1 PUSH4 0x92BE2AB8 EQ PUSH2 0x38B JUMPI DUP1 PUSH4 0x94B918DE EQ PUSH2 0x3B4 JUMPI DUP1 PUSH4 0xAF157C19 EQ PUSH2 0x3D0 JUMPI DUP1 PUSH4 0xB6C9B393 EQ PUSH2 0x3FB JUMPI DUP1 PUSH4 0xD4CADF68 EQ PUSH2 0x438 JUMPI PUSH2 0x156 JUMP JUMPDEST DUP1 PUSH4 0x4A0D89BA GT PUSH2 0x108 JUMPI DUP1 PUSH4 0x4A0D89BA EQ PUSH2 0x254 JUMPI DUP1 PUSH4 0x4B3AB9C5 EQ PUSH2 0x291 JUMPI DUP1 PUSH4 0x61784C7A EQ PUSH2 0x2CE JUMPI DUP1 PUSH4 0x6E214A8E EQ PUSH2 0x2F7 JUMPI DUP1 PUSH4 0x715018A6 EQ PUSH2 0x320 JUMPI DUP1 PUSH4 0x7634C6C3 EQ PUSH2 0x337 JUMPI PUSH2 0x156 JUMP JUMPDEST DUP1 PUSH4 0x21C616DA EQ PUSH2 0x158 JUMPI DUP1 PUSH4 0x32A58E79 EQ PUSH2 0x195 JUMPI DUP1 PUSH4 0x34E19907 EQ PUSH2 0x1C0 JUMPI DUP1 PUSH4 0x3801A828 EQ PUSH2 0x1E9 JUMPI DUP1 PUSH4 0x3CCFD60B EQ PUSH2 0x214 JUMPI DUP1 PUSH4 0x40E58EE5 EQ PUSH2 0x22B JUMPI PUSH2 0x156 JUMP JUMPDEST CALLDATASIZE PUSH2 0x156 JUMPI STOP JUMPDEST STOP JUMPDEST CALLVALUE DUP1 ISZERO PUSH2 0x164 JUMPI PUSH1 0x0 DUP1 REVERT JUMPDEST POP PUSH2 0x17F PUSH1 0x4 DUP1 CALLDATASIZE SUB DUP2 ADD SWAP1 PUSH2 0x17A SWAP2 SWAP1 PUSH2 0x32AE JUMP JUMPDEST PUSH2 0x564 JUMP JUMPDEST PUSH1 0x40 MLOAD PUSH2 0x18C SWAP2 SWAP1 PUSH2 0x33A3 JUMP JUMPDEST PUSH1 0x40 MLOAD DUP1 SWAP2 SUB SWAP1 RETURN JUMPDEST CALLVALUE DUP1 ISZERO PUSH2 0x1A1 JUMPI PUSH1 0x0 DUP1 REVERT JUMPDEST POP PUSH2 0x1AA PUSH2 0x5FB JUMP JUMPDEST PUSH1 0x40 MLOAD PUSH2 0x1B7 SWAP2 SWAP1 PUSH2 0x33D4 JUMP JUMPDEST PUSH1 0x40 MLOAD DUP1 SWAP2 SUB SWAP1 RETURN JUMPDEST CALLVALUE DUP1 ISZERO PUSH2 0x1CC JUMPI PUSH1 0x0 DUP1 REVERT JUMPDEST POP PUSH2 0x1E7 PUSH1 0x4 DUP1 CALLDATASIZE SUB DUP2 ADD SWAP1 PUSH2 0x1E2 SWAP2 SWAP1 PUSH2 0x341B JUMP JUMPDEST PUSH2 0x605 JUMP JUMPDEST STOP JUMPDEST CALLVALUE DUP1 ISZERO PUSH2 0x1F5 JUMPI PUSH1 0x0 DUP1 REVERT JUMPDEST POP PUSH2 0x1FE PUSH2 0x617 JUMP JUMPDEST PUSH1 0x40 MLOAD PUSH2 0x20B SWAP2 SWAP1 PUSH2 0x3556 JUMP JUMPDEST PUSH1 0x40 MLOAD DUP1 SWAP2 SUB SWAP1 RETURN JUMPDEST CALLVALUE DUP1 ISZERO PUSH2 0x220 JUMPI PUSH1 0x0 DUP1 REVERT JUMPDEST POP PUSH2 0x229 PUSH2 0x6A5 JUMP JUMPDEST STOP JUMPDEST CALLVALUE DUP1 ISZERO PUSH2 0x237 JUMPI PUSH1 0x0 DUP1 REVERT JUMPDEST POP PUSH2 0x252 PUSH1 0x4 DUP1 CALLDATASIZE SUB DUP2 ADD SWAP1 PUSH2 0x24D SWAP2 SWAP1 PUSH2 0x341B JUMP JUMPDEST PUSH2 0x8D6 JUMP JUMPDEST STOP JUMPDEST CALLVALUE DUP1 ISZERO PUSH2 0x260 JUMPI PUSH1 0x0 DUP1 REVERT JUMPDEST POP PUSH2 0x27B PUSH1 0x4 DUP1 CALLDATASIZE SUB DUP2 ADD SWAP1 PUSH2 0x276 SWAP2 SWAP1 PUSH2 0x341B JUMP JUMPDEST PUSH2 0xAEE JUMP JUMPDEST PUSH1 0x40 MLOAD PUSH2 0x288 SWAP2 SWAP1 PUSH2 0x384E JUMP JUMPDEST PUSH1 0x40 MLOAD DUP1 SWAP2 SUB SWAP1 RETURN JUMPDEST CALLVALUE DUP1 ISZERO PUSH2 0x29D JUMPI PUSH1 0x0 DUP1 REVERT JUMPDEST POP PUSH2 0x2B8 PUSH1 0x4 DUP1 CALLDATASIZE SUB DUP2 ADD SWAP1 PUSH2 0x2B3 SWAP2 SWAP1 PUSH2 0x32AE JUMP JUMPDEST PUSH2 0xE31 JUMP JUMPDEST PUSH1 0x40 MLOAD PUSH2 0x2C5 SWAP2 SWAP1 PUSH2 0x33D4 JUMP JUMPDEST PUSH1 0x40 MLOAD DUP1 SWAP2 SUB SWAP1 RETURN JUMPDEST CALLVALUE DUP1 ISZERO PUSH2 0x2DA JUMPI PUSH1 0x0 DUP1 REVERT JUMPDEST POP PUSH2 0x2F5 PUSH1 0x4 DUP1 CALLDATASIZE SUB DUP2 ADD SWAP1 PUSH2 0x2F0 SWAP2 SWAP1 PUSH2 0x3870 JUMP JUMPDEST PUSH2 0xF02 JUMP JUMPDEST STOP JUMPDEST CALLVALUE DUP1 ISZERO PUSH2 0x303 JUMPI PUSH1 0x0 DUP1 REVERT JUMPDEST POP PUSH2 0x31E PUSH1 0x4 DUP1 CALLDATASIZE SUB DUP2 ADD SWAP1 PUSH2 0x319 SWAP2 SWAP1 PUSH2 0x341B JUMP JUMPDEST PUSH2 0x135D JUMP JUMPDEST STOP JUMPDEST CALLVALUE DUP1 ISZERO PUSH2 0x32C JUMPI PUSH1 0x0 DUP1 REVERT JUMPDEST POP PUSH2 0x335 PUSH2 0x1574 JUMP JUMPDEST STOP JUMPDEST CALLVALUE DUP1 ISZERO PUSH2 0x343 JUMPI PUSH1 0x0 DUP1 REVERT JUMPDEST POP PUSH2 0x35E PUSH1 0x4 DUP1 CALLDATASIZE SUB DUP2 ADD SWAP1 PUSH2 0x359 SWAP2 SWAP1 PUSH2 0x38E8 JUMP JUMPDEST PUSH2 0x1588 JUMP JUMPDEST STOP JUMPDEST CALLVALUE DUP1 ISZERO PUSH2 0x36C JUMPI PUSH1 0x0 DUP1 REVERT JUMPDEST POP PUSH2 0x375 PUSH2 0x1BA7 JUMP JUMPDEST PUSH1 0x40 MLOAD PUSH2 0x382 SWAP2 SWAP1 PUSH2 0x394A JUMP JUMPDEST PUSH1 0x40 MLOAD DUP1 SWAP2 SUB SWAP1 RETURN JUMPDEST CALLVALUE DUP1 ISZERO PUSH2 0x397 JUMPI PUSH1 0x0 DUP1 REVERT JUMPDEST POP PUSH2 0x3B2 PUSH1 0x4 DUP1 CALLDATASIZE SUB DUP2 ADD SWAP1 PUSH2 0x3AD SWAP2 SWAP1 PUSH2 0x341B JUMP JUMPDEST PUSH2 0x1BD0 JUMP JUMPDEST STOP JUMPDEST PUSH2 0x3CE PUSH1 0x4 DUP1 CALLDATASIZE SUB DUP2 ADD SWAP1 PUSH2 0x3C9 SWAP2 SWAP1 PUSH2 0x341B JUMP JUMPDEST PUSH2 0x1BE2 JUMP JUMPDEST STOP JUMPDEST CALLVALUE DUP1 ISZERO PUSH2 0x3DC JUMPI PUSH1 0x0 DUP1 REVERT JUMPDEST POP PUSH2 0x3E5 PUSH2 0x248B JUMP JUMPDEST PUSH1 0x40 MLOAD PUSH2 0x3F2 SWAP2 SWAP1 PUSH2 0x39C3 JUMP JUMPDEST PUSH1 0x40 MLOAD DUP1 SWAP2 SUB SWAP1 RETURN JUMPDEST CALLVALUE DUP1 ISZERO PUSH2 0x407 JUMPI PUSH1 0x0 DUP1 REVERT JUMPDEST POP PUSH2 0x422 PUSH1 0x4 DUP1 CALLDATASIZE SUB DUP2 ADD SWAP1 PUSH2 0x41D SWAP2 SWAP1 PUSH2 0x32AE JUMP JUMPDEST PUSH2 0x25A2 JUMP JUMPDEST PUSH1 0x40 MLOAD PUSH2 0x42F SWAP2 SWAP1 PUSH2 0x39F4 JUMP JUMPDEST PUSH1 0x40 MLOAD DUP1 SWAP2 SUB SWAP1 RETURN JUMPDEST CALLVALUE DUP1 ISZERO PUSH2 0x444 JUMPI PUSH1 0x0 DUP1 REVERT JUMPDEST POP PUSH2 0x44D PUSH2 0x2725 JUMP JUMPDEST PUSH1 0x40 MLOAD PUSH2 0x45A SWAP2 SWAP1 PUSH2 0x33D4 JUMP JUMPDEST PUSH1 0x40 MLOAD DUP1 SWAP2 SUB SWAP1 RETURN JUMPDEST CALLVALUE DUP1 ISZERO PUSH2 0x46F JUMPI PUSH1 0x0 DUP1 REVERT JUMPDEST POP PUSH2 0x478 PUSH2 0x272F JUMP JUMPDEST PUSH1 0x40 MLOAD PUSH2 0x485 SWAP2 SWAP1 PUSH2 0x33D4 JUMP JUMPDEST PUSH1 0x40 MLOAD DUP1 SWAP2 SUB SWAP1 RETURN JUMPDEST CALLVALUE DUP1 ISZERO PUSH2 0x49A JUMPI PUSH1 0x0 DUP1 REVERT JUMPDEST POP PUSH2 0x4A3 PUSH2 0x27C1 JUMP JUMPDEST PUSH1 0x40 MLOAD PUSH2 0x4B0 SWAP2 SWAP1 PUSH2 0x33D4 JUMP JUMPDEST PUSH1 0x40 MLOAD DUP1 SWAP2 SUB SWAP1 RETURN JUMPDEST PUSH2 0x4D3 PUSH1 0x4 DUP1 CALLDATASIZE SUB DUP2 ADD SWAP1 PUSH2 0x4CE SWAP2 SWAP1 PUSH2 0x3ACA JUMP JUMPDEST PUSH2 0x27D2 JUMP JUMPDEST PUSH1 0x40 MLOAD PUSH2 0x4E0 SWAP2 SWAP1 PUSH2 0x33D4 JUMP JUMPDEST PUSH1 0x40 MLOAD DUP1 SWAP2 SUB SWAP1 RETURN JUMPDEST CALLVALUE DUP1 ISZERO PUSH2 0x4F5 JUMPI PUSH1 0x0 DUP1 REVERT JUMPDEST POP PUSH2 0x510 PUSH1 0x4 DUP1 CALLDATASIZE SUB DUP2 ADD SWAP1 PUSH2 0x50B SWAP2 SWAP1 PUSH2 0x32AE JUMP JUMPDEST PUSH2 0x2C8A JUMP JUMPDEST STOP JUMPDEST CALLVALUE DUP1 ISZERO PUSH2 0x51E JUMPI PUSH1 0x0 DUP1 REVERT JUMPDEST POP PUSH2 0x539 PUSH1 0x4 DUP1 CALLDATASIZE SUB DUP2 ADD SWAP1 PUSH2 0x534 SWAP2 SWAP1 PUSH2 0x32AE JUMP JUMPDEST PUSH2 0x2DE0 JUMP JUMPDEST STOP JUMPDEST CALLVALUE DUP1 ISZERO PUSH2 0x547 JUMPI PUSH1 0x0 DUP1 REVERT JUMPDEST POP PUSH2 0x562 PUSH1 0x4 DUP1 CALLDATASIZE SUB DUP2 ADD SWAP1 PUSH2 0x55D SWAP2 SWAP1 PUSH2 0x32AE JUMP JUMPDEST PUSH2 0x2FF6 JUMP JUMPDEST STOP JUMPDEST PUSH1 0x60 PUSH1 0x2 PUSH1 0x0 DUP4 PUSH20 0xFFFFFFFFFFFFFFFFFFFFFFFFFFFFFFFFFFFFFFFF AND PUSH20 0xFFFFFFFFFFFFFFFFFFFFFFFFFFFFFFFFFFFFFFFF AND DUP2 MSTORE PUSH1 0x20 ADD SWAP1 DUP2 MSTORE PUSH1 0x20 ADD PUSH1 0x0 KECCAK256 DUP1 SLOAD DUP1 PUSH1 0x20 MUL PUSH1 0x20 ADD PUSH1 0x40 MLOAD SWAP1 DUP2 ADD PUSH1 0x40 MSTORE DUP1 SWAP3 SWAP2 SWAP1 DUP2 DUP2 MSTORE PUSH1 0x20 ADD DUP3 DUP1 SLOAD DUP1 ISZERO PUSH2 0x5EF JUMPI PUSH1 0x20 MUL DUP3 ADD SWAP2 SWAP1 PUSH1 0x0 MSTORE PUSH1 0x20 PUSH1 0x0 KECCAK256 SWAP1 JUMPDEST DUP2 SLOAD DUP2 MSTORE PUSH1 0x20 ADD SWAP1 PUSH1 0x1 ADD SWAP1 DUP1 DUP4 GT PUSH2 0x5DB JUMPI JUMPDEST POP POP POP POP POP SWAP1 POP SWAP2 SWAP1 POP JUMP JUMPDEST PUSH1 0x0 PUSH1 0x6 SLOAD SWAP1 POP SWAP1 JUMP JUMPDEST PUSH2 0x60D PUSH2 0x307A JUMP JUMPDEST DUP1 PUSH1 0x7 DUP2 SWAP1 SSTORE POP POP JUMP JUMPDEST PUSH1 0x60 PUSH1 0x8 DUP1 SLOAD DUP1 PUSH1 0x20 MUL PUSH1 0x20 ADD PUSH1 0x40 MLOAD SWAP1 DUP2 ADD PUSH1 0x40 MSTORE DUP1 SWAP3 SWAP2 SWAP1 DUP2 DUP2 MSTORE PUSH1 0x20 ADD DUP3 DUP1 SLOAD DUP1 ISZERO PUSH2 0x69B JUMPI PUSH1 0x20 MUL DUP3 ADD SWAP2 SWAP1 PUSH1 0x0 MSTORE PUSH1 0x20 PUSH1 0x0 KECCAK256 SWAP1 JUMPDEST DUP2 PUSH1 0x0 SWAP1 SLOAD SWAP1 PUSH2 0x100 EXP SWAP1 DIV PUSH20 0xFFFFFFFFFFFFFFFFFFFFFFFFFFFFFFFFFFFFFFFF AND PUSH20 0xFFFFFFFFFFFFFFFFFFFFFFFFFFFFFFFFFFFFFFFF AND DUP2 MSTORE PUSH1 0x20 ADD SWAP1 PUSH1 0x1 ADD SWAP1 DUP1 DUP4 GT PUSH2 0x651 JUMPI JUMPDEST POP POP POP POP POP SWAP1 POP SWAP1 JUMP JUMPDEST PUSH1 0x0 PUSH1 0x3 PUSH1 0x0 PUSH2 0x6B3 PUSH2 0x30F8 JUMP JUMPDEST PUSH20 0xFFFFFFFFFFFFFFFFFFFFFFFFFFFFFFFFFFFFFFFF AND PUSH20 0xFFFFFFFFFFFFFFFFFFFFFFFFFFFFFFFFFFFFFFFF AND DUP2 MSTORE PUSH1 0x20 ADD SWAP1 DUP2 MSTORE PUSH1 0x20 ADD PUSH1 0x0 KECCAK256 SLOAD GT PUSH2 0x72E JUMPI PUSH1 0x40 MLOAD PUSH32 0x8C379A000000000000000000000000000000000000000000000000000000000 DUP2 MSTORE PUSH1 0x4 ADD PUSH2 0x725 SWAP1 PUSH2 0x3BF0 JUMP JUMPDEST PUSH1 0x40 MLOAD DUP1 SWAP2 SUB SWAP1 REVERT JUMPDEST PUSH1 0x0 SELFBALANCE SWAP1 POP PUSH1 0x0 DUP2 GT PUSH2 0x776 JUMPI PUSH1 0x40 MLOAD PUSH32 0x8C379A000000000000000000000000000000000000000000000000000000000 DUP2 MSTORE PUSH1 0x4 ADD PUSH2 0x76D SWAP1 PUSH2 0x3C5C JUMP JUMPDEST PUSH1 0x40 MLOAD DUP1 SWAP2 SUB SWAP1 REVERT JUMPDEST PUSH1 0x0 JUMPDEST PUSH1 0x4 DUP1 SLOAD SWAP1 POP DUP2 LT ISZERO PUSH2 0x887 JUMPI PUSH1 0x0 PUSH1 0x4 DUP3 DUP2 SLOAD DUP2 LT PUSH2 0x79C JUMPI PUSH2 0x79B PUSH2 0x3C7C JUMP JUMPDEST JUMPDEST SWAP1 PUSH1 0x0 MSTORE PUSH1 0x20 PUSH1 0x0 KECCAK256 ADD PUSH1 0x0 SWAP1 SLOAD SWAP1 PUSH2 0x100 EXP SWAP1 DIV PUSH20 0xFFFFFFFFFFFFFFFFFFFFFFFFFFFFFFFFFFFFFFFF AND SWAP1 POP PUSH1 0x0 PUSH1 0x3 PUSH1 0x0 DUP4 PUSH20 0xFFFFFFFFFFFFFFFFFFFFFFFFFFFFFFFFFFFFFFFF AND PUSH20 0xFFFFFFFFFFFFFFFFFFFFFFFFFFFFFFFFFFFFFFFF AND DUP2 MSTORE PUSH1 0x20 ADD SWAP1 DUP2 MSTORE PUSH1 0x20 ADD PUSH1 0x0 KECCAK256 SLOAD SWAP1 POP PUSH1 0x0 PUSH1 0x5 SLOAD DUP3 DUP7 PUSH2 0x81E SWAP2 SWAP1 PUSH2 0x3CDA JUMP JUMPDEST PUSH2 0x828 SWAP2 SWAP1 PUSH2 0x3D63 JUMP JUMPDEST SWAP1 POP DUP3 PUSH20 0xFFFFFFFFFFFFFFFFFFFFFFFFFFFFFFFFFFFFFFFF AND PUSH2 0x8FC DUP3 SWAP1 DUP2 ISZERO MUL SWAP1 PUSH1 0x40 MLOAD PUSH1 0x0 PUSH1 0x40 MLOAD DUP1 DUP4 SUB DUP2 DUP6 DUP9 DUP9 CALL SWAP4 POP POP POP POP ISZERO DUP1 ISZERO PUSH2 0x870 JUMPI RETURNDATASIZE PUSH1 0x0 DUP1 RETURNDATACOPY RETURNDATASIZE PUSH1 0x0 REVERT JUMPDEST POP POP POP POP DUP1 DUP1 PUSH2 0x87F SWAP1 PUSH2 0x3D94 JUMP JUMPDEST SWAP2 POP POP PUSH2 0x779 JUMP JUMPDEST POP DUP1 PUSH2 0x891 PUSH2 0x30F8 JUMP JUMPDEST PUSH20 0xFFFFFFFFFFFFFFFFFFFFFFFFFFFFFFFFFFFFFFFF AND PUSH32 0x875AB8E60D8FFE0781BA5E1D1ADADEB6250BC1BEE87D3094CC6AC4EB9F88512 PUSH1 0x40 MLOAD PUSH1 0x40 MLOAD DUP1 SWAP2 SUB SWAP1 LOG3 POP JUMP JUMPDEST DUP1 PUSH1 0x0 PUSH1 0x1 PUSH1 0x0 DUP4 DUP2 MSTORE PUSH1 0x20 ADD SWAP1 DUP2 MSTORE PUSH1 0x20 ADD PUSH1 0x0 KECCAK256 PUSH1 0x0 ADD SLOAD GT PUSH2 0x930 JUMPI PUSH1 0x40 MLOAD PUSH32 0x8C379A000000000000000000000000000000000000000000000000000000000 DUP2 MSTORE PUSH1 0x4 ADD PUSH2 0x927 SWAP1 PUSH2 0x3E29 JUMP JUMPDEST PUSH1 0x40 MLOAD DUP1 SWAP2 SUB SWAP1 REVERT JUMPDEST DUP2 PUSH2 0x939 PUSH2 0x30F8 JUMP JUMPDEST DUP1 PUSH20 0xFFFFFFFFFFFFFFFFFFFFFFFFFFFFFFFFFFFFFFFF AND PUSH1 0x1 PUSH1 0x0 DUP5 DUP2 MSTORE PUSH1 0x20 ADD SWAP1 DUP2 MSTORE PUSH1 0x20 ADD PUSH1 0x0 KECCAK256 PUSH1 0x1 ADD PUSH1 0x1 SWAP1 SLOAD SWAP1 PUSH2 0x100 EXP SWAP1 DIV PUSH20 0xFFFFFFFFFFFFFFFFFFFFFFFFFFFFFFFFFFFFFFFF AND PUSH20 0xFFFFFFFFFFFFFFFFFFFFFFFFFFFFFFFFFFFFFFFF AND EQ PUSH2 0x9DD JUMPI PUSH1 0x40 MLOAD PUSH32 0x8C379A000000000000000000000000000000000000000000000000000000000 DUP2 MSTORE PUSH1 0x4 ADD PUSH2 0x9D4 SWAP1 PUSH2 0x3E95 JUMP JUMPDEST PUSH1 0x40 MLOAD DUP1 SWAP2 SUB SWAP1 REVERT JUMPDEST DUP4 PUSH1 0x0 PUSH1 0x2 DUP2 GT ISZERO PUSH2 0x9F2 JUMPI PUSH2 0x9F1 PUSH2 0x3578 JUMP JUMPDEST JUMPDEST PUSH1 0x1 PUSH1 0x0 DUP4 DUP2 MSTORE PUSH1 0x20 ADD SWAP1 DUP2 MSTORE PUSH1 0x20 ADD PUSH1 0x0 KECCAK256 PUSH1 0x1 ADD PUSH1 0x0 SWAP1 SLOAD SWAP1 PUSH2 0x100 EXP SWAP1 DIV PUSH1 0xFF AND PUSH1 0x2 DUP2 GT ISZERO PUSH2 0xA28 JUMPI PUSH2 0xA27 PUSH2 0x3578 JUMP JUMPDEST JUMPDEST EQ PUSH2 0xA68 JUMPI PUSH1 0x40 MLOAD PUSH32 0x8C379A000000000000000000000000000000000000000000000000000000000 DUP2 MSTORE PUSH1 0x4 ADD PUSH2 0xA5F SWAP1 PUSH2 0x3F27 JUMP JUMPDEST PUSH1 0x40 MLOAD DUP1 SWAP2 SUB SWAP1 REVERT JUMPDEST PUSH1 0x1 DUP1 PUSH1 0x0 DUP8 DUP2 MSTORE PUSH1 0x20 ADD SWAP1 DUP2 MSTORE PUSH1 0x20 ADD PUSH1 0x0 KECCAK256 PUSH1 0x1 ADD PUSH1 0x0 PUSH2 0x100 EXP DUP2 SLOAD DUP2 PUSH1 0xFF MUL NOT AND SWAP1 DUP4 PUSH1 0x2 DUP2 GT ISZERO PUSH2 0xAA1 JUMPI PUSH2 0xAA0 PUSH2 0x3578 JUMP JUMPDEST JUMPDEST MUL OR SWAP1 SSTORE POP PUSH1 0x1 PUSH1 0x2 DUP2 GT ISZERO PUSH2 0xABA JUMPI PUSH2 0xAB9 PUSH2 0x3578 JUMP JUMPDEST JUMPDEST DUP6 PUSH32 0x15211D78A502C0EDD03F8CEFB0BA09C0BCDB3045A82C5D05DBDFFF58EFC82F03 PUSH1 0x40 MLOAD PUSH1 0x40 MLOAD DUP1 SWAP2 SUB SWAP1 LOG3 POP POP POP POP POP JUMP JUMPDEST PUSH2 0xAF6 PUSH2 0x31E8 JUMP JUMPDEST DUP2 PUSH1 0x0 PUSH1 0x1 PUSH1 0x0 DUP4 DUP2 MSTORE PUSH1 0x20 ADD SWAP1 DUP2 MSTORE PUSH1 0x20 ADD PUSH1 0x0 KECCAK256 PUSH1 0x0 ADD SLOAD GT PUSH2 0xB50 JUMPI PUSH1 0x40 MLOAD PUSH32 0x8C379A000000000000000000000000000000000000000000000000000000000 DUP2 MSTORE PUSH1 0x4 ADD PUSH2 0xB47 SWAP1 PUSH2 0x3E29 JUMP JUMPDEST PUSH1 0x40 MLOAD DUP1 SWAP2 SUB SWAP1 REVERT JUMPDEST PUSH1 0x1 PUSH1 0x0 DUP5 DUP2 MSTORE PUSH1 0x20 ADD SWAP1 DUP2 MSTORE PUSH1 0x20 ADD PUSH1 0x0 KECCAK256 PUSH1 0x40 MLOAD DUP1 PUSH1 0xC0 ADD PUSH1 0x40 MSTORE SWAP1 DUP2 PUSH1 0x0 DUP3 ADD SLOAD DUP2 MSTORE PUSH1 0x20 ADD PUSH1 0x1 DUP3 ADD PUSH1 0x0 SWAP1 SLOAD SWAP1 PUSH2 0x100 EXP SWAP1 DIV PUSH1 0xFF AND PUSH1 0x2 DUP2 GT ISZERO PUSH2 0xB9D JUMPI PUSH2 0xB9C PUSH2 0x3578 JUMP JUMPDEST JUMPDEST PUSH1 0x2 DUP2 GT ISZERO PUSH2 0xBAF JUMPI PUSH2 0xBAE PUSH2 0x3578 JUMP JUMPDEST JUMPDEST DUP2 MSTORE PUSH1 0x20 ADD PUSH1 0x1 DUP3 ADD PUSH1 0x1 SWAP1 SLOAD SWAP1 PUSH2 0x100 EXP SWAP1 DIV PUSH20 0xFFFFFFFFFFFFFFFFFFFFFFFFFFFFFFFFFFFFFFFF AND PUSH20 0xFFFFFFFFFFFFFFFFFFFFFFFFFFFFFFFFFFFFFFFF AND PUSH20 0xFFFFFFFFFFFFFFFFFFFFFFFFFFFFFFFFFFFFFFFF AND DUP2 MSTORE PUSH1 0x20 ADD PUSH1 0x2 DUP3 ADD DUP1 SLOAD DUP1 PUSH1 0x20 MUL PUSH1 0x20 ADD PUSH1 0x40 MLOAD SWAP1 DUP2 ADD PUSH1 0x40 MSTORE DUP1 SWAP3 SWAP2 SWAP1 DUP2 DUP2 MSTORE PUSH1 0x20 ADD PUSH1 0x0 SWAP1 JUMPDEST DUP3 DUP3 LT ISZERO PUSH2 0xCCA JUMPI DUP4 DUP3 SWAP1 PUSH1 0x0 MSTORE PUSH1 0x20 PUSH1 0x0 KECCAK256 SWAP1 PUSH1 0x3 MUL ADD PUSH1 0x40 MLOAD DUP1 PUSH1 0x60 ADD PUSH1 0x40 MSTORE SWAP1 DUP2 PUSH1 0x0 DUP3 ADD PUSH1 0x0 SWAP1 SLOAD SWAP1 PUSH2 0x100 EXP SWAP1 DIV PUSH20 0xFFFFFFFFFFFFFFFFFFFFFFFFFFFFFFFFFFFFFFFF AND PUSH20 0xFFFFFFFFFFFFFFFFFFFFFFFFFFFFFFFFFFFFFFFF AND PUSH20 0xFFFFFFFFFFFFFFFFFFFFFFFFFFFFFFFFFFFFFFFF AND DUP2 MSTORE PUSH1 0x20 ADD PUSH1 0x1 DUP3 ADD SLOAD DUP2 MSTORE PUSH1 0x20 ADD PUSH1 0x2 DUP3 ADD SLOAD DUP2 MSTORE POP POP DUP2 MSTORE PUSH1 0x20 ADD SWAP1 PUSH1 0x1 ADD SWAP1 PUSH2 0xC2E JUMP JUMPDEST POP POP POP POP DUP2 MSTORE PUSH1 0x20 ADD PUSH1 0x3 DUP3 ADD DUP1 SLOAD DUP1 PUSH1 0x20 MUL PUSH1 0x20 ADD PUSH1 0x40 MLOAD SWAP1 DUP2 ADD PUSH1 0x40 MSTORE DUP1 SWAP3 SWAP2 SWAP1 DUP2 DUP2 MSTORE PUSH1 0x20 ADD DUP3 DUP1 SLOAD DUP1 ISZERO PUSH2 0xD57 JUMPI PUSH1 0x20 MUL DUP3 ADD SWAP2 SWAP1 PUSH1 0x0 MSTORE PUSH1 0x20 PUSH1 0x0 KECCAK256 SWAP1 JUMPDEST DUP2 PUSH1 0x0 SWAP1 SLOAD SWAP1 PUSH2 0x100 EXP SWAP1 DIV PUSH20 0xFFFFFFFFFFFFFFFFFFFFFFFFFFFFFFFFFFFFFFFF AND PUSH20 0xFFFFFFFFFFFFFFFFFFFFFFFFFFFFFFFFFFFFFFFF AND DUP2 MSTORE PUSH1 0x20 ADD SWAP1 PUSH1 0x1 ADD SWAP1 DUP1 DUP4 GT PUSH2 0xD0D JUMPI JUMPDEST POP POP POP POP POP DUP2 MSTORE PUSH1 0x20 ADD PUSH1 0x4 DUP3 ADD DUP1 SLOAD DUP1 PUSH1 0x20 MUL PUSH1 0x20 ADD PUSH1 0x40 MLOAD SWAP1 DUP2 ADD PUSH1 0x40 MSTORE DUP1 SWAP3 SWAP2 SWAP1 DUP2 DUP2 MSTORE PUSH1 0x20 ADD PUSH1 0x0 SWAP1 JUMPDEST DUP3 DUP3 LT ISZERO PUSH2 0xE21 JUMPI DUP4 DUP3 SWAP1 PUSH1 0x0 MSTORE PUSH1 0x20 PUSH1 0x0 KECCAK256 SWAP1 PUSH1 0x3 MUL ADD PUSH1 0x40 MLOAD DUP1 PUSH1 0x60 ADD PUSH1 0x40 MSTORE SWAP1 DUP2 PUSH1 0x0 DUP3 ADD PUSH1 0x0 SWAP1 SLOAD SWAP1 PUSH2 0x100 EXP SWAP1 DIV PUSH20 0xFFFFFFFFFFFFFFFFFFFFFFFFFFFFFFFFFFFFFFFF AND PUSH20 0xFFFFFFFFFFFFFFFFFFFFFFFFFFFFFFFFFFFFFFFF AND PUSH20 0xFFFFFFFFFFFFFFFFFFFFFFFFFFFFFFFFFFFFFFFF AND DUP2 MSTORE PUSH1 0x20 ADD PUSH1 0x1 DUP3 ADD SLOAD DUP2 MSTORE PUSH1 0x20 ADD PUSH1 0x2 DUP3 ADD SLOAD DUP2 MSTORE POP POP DUP2 MSTORE PUSH1 0x20 ADD SWAP1 PUSH1 0x1 ADD SWAP1 PUSH2 0xD85 JUMP JUMPDEST POP POP POP POP DUP2 MSTORE POP POP SWAP2 POP POP SWAP2 SWAP1 POP JUMP JUMPDEST PUSH1 0x0 DUP1 PUSH1 0x3 PUSH1 0x0 PUSH2 0xE40 PUSH2 0x30F8 JUMP JUMPDEST PUSH20 0xFFFFFFFFFFFFFFFFFFFFFFFFFFFFFFFFFFFFFFFF AND PUSH20 0xFFFFFFFFFFFFFFFFFFFFFFFFFFFFFFFFFFFFFFFF AND DUP2 MSTORE PUSH1 0x20 ADD SWAP1 DUP2 MSTORE PUSH1 0x20 ADD PUSH1 0x0 KECCAK256 SLOAD GT PUSH2 0xEBB JUMPI PUSH1 0x40 MLOAD PUSH32 0x8C379A000000000000000000000000000000000000000000000000000000000 DUP2 MSTORE PUSH1 0x4 ADD PUSH2 0xEB2 SWAP1 PUSH2 0x3BF0 JUMP JUMPDEST PUSH1 0x40 MLOAD DUP1 SWAP2 SUB SWAP1 REVERT JUMPDEST PUSH1 0x3 PUSH1 0x0 DUP4 PUSH20 0xFFFFFFFFFFFFFFFFFFFFFFFFFFFFFFFFFFFFFFFF AND PUSH20 0xFFFFFFFFFFFFFFFFFFFFFFFFFFFFFFFFFFFFFFFF AND DUP2 MSTORE PUSH1 0x20 ADD SWAP1 DUP2 MSTORE PUSH1 0x20 ADD PUSH1 0x0 KECCAK256 SLOAD SWAP1 POP SWAP2 SWAP1 POP JUMP JUMPDEST PUSH2 0xF0A PUSH2 0x307A JUMP JUMPDEST PUSH1 0x0 DUP3 PUSH20 0xFFFFFFFFFFFFFFFFFFFFFFFFFFFFFFFFFFFFFFFF AND EXTCODESIZE EQ PUSH2 0xF64 JUMPI PUSH1 0x40 MLOAD PUSH32 0x8C379A000000000000000000000000000000000000000000000000000000000 DUP2 MSTORE PUSH1 0x4 ADD PUSH2 0xF5B SWAP1 PUSH2 0x3FB9 JUMP JUMPDEST PUSH1 0x40 MLOAD DUP1 SWAP2 SUB SWAP1 REVERT JUMPDEST PUSH1 0x0 DUP2 GT ISZERO PUSH2 0x111D JUMPI PUSH1 0x0 PUSH1 0x3 PUSH1 0x0 DUP5 PUSH20 0xFFFFFFFFFFFFFFFFFFFFFFFFFFFFFFFFFFFFFFFF AND PUSH20 0xFFFFFFFFFFFFFFFFFFFFFFFFFFFFFFFFFFFFFFFF AND DUP2 MSTORE PUSH1 0x20 ADD SWAP1 DUP2 MSTORE PUSH1 0x20 ADD PUSH1 0x0 KECCAK256 SLOAD GT ISZERO PUSH2 0x105C JUMPI DUP1 PUSH1 0x3 PUSH1 0x0 DUP5 PUSH20 0xFFFFFFFFFFFFFFFFFFFFFFFFFFFFFFFFFFFFFFFF AND PUSH20 0xFFFFFFFFFFFFFFFFFFFFFFFFFFFFFFFFFFFFFFFF AND DUP2 MSTORE PUSH1 0x20 ADD SWAP1 DUP2 MSTORE PUSH1 0x20 ADD PUSH1 0x0 KECCAK256 SLOAD PUSH1 0x5 SLOAD PUSH2 0x1003 SWAP2 SWAP1 PUSH2 0x3FD9 JUMP JUMPDEST PUSH2 0x100D SWAP2 SWAP1 PUSH2 0x400D JUMP JUMPDEST PUSH1 0x5 DUP2 SWAP1 SSTORE POP DUP1 PUSH1 0x3 PUSH1 0x0 DUP5 PUSH20 0xFFFFFFFFFFFFFFFFFFFFFFFFFFFFFFFFFFFFFFFF AND PUSH20 0xFFFFFFFFFFFFFFFFFFFFFFFFFFFFFFFFFFFFFFFF AND DUP2 MSTORE PUSH1 0x20 ADD SWAP1 DUP2 MSTORE PUSH1 0x20 ADD PUSH1 0x0 KECCAK256 DUP2 SWAP1 SSTORE POP PUSH2 0x1118 JUMP JUMPDEST DUP1 PUSH1 0x5 SLOAD PUSH2 0x106A SWAP2 SWAP1 PUSH2 0x400D JUMP JUMPDEST PUSH1 0x5 DUP2 SWAP1 SSTORE POP DUP1 PUSH1 0x3 PUSH1 0x0 DUP5 PUSH20 0xFFFFFFFFFFFFFFFFFFFFFFFFFFFFFFFFFFFFFFFF AND PUSH20 0xFFFFFFFFFFFFFFFFFFFFFFFFFFFFFFFFFFFFFFFF AND DUP2 MSTORE PUSH1 0x20 ADD SWAP1 DUP2 MSTORE PUSH1 0x20 ADD PUSH1 0x0 KECCAK256 DUP2 SWAP1 SSTORE POP PUSH1 0x4 DUP3 SWAP1 DUP1 PUSH1 0x1 DUP2 SLOAD ADD DUP1 DUP3 SSTORE DUP1 SWAP2 POP POP PUSH1 0x1 SWAP1 SUB SWAP1 PUSH1 0x0 MSTORE PUSH1 0x20 PUSH1 0x0 KECCAK256 ADD PUSH1 0x0 SWAP1 SWAP2 SWAP1 SWAP2 SWAP1 SWAP2 PUSH2 0x100 EXP DUP2 SLOAD DUP2 PUSH20 0xFFFFFFFFFFFFFFFFFFFFFFFFFFFFFFFFFFFFFFFF MUL NOT AND SWAP1 DUP4 PUSH20 0xFFFFFFFFFFFFFFFFFFFFFFFFFFFFFFFFFFFFFFFF AND MUL OR SWAP1 SSTORE POP JUMPDEST PUSH2 0x1359 JUMP JUMPDEST PUSH1 0x0 PUSH1 0x3 PUSH1 0x0 DUP5 PUSH20 0xFFFFFFFFFFFFFFFFFFFFFFFFFFFFFFFFFFFFFFFF AND PUSH20 0xFFFFFFFFFFFFFFFFFFFFFFFFFFFFFFFFFFFFFFFF AND DUP2 MSTORE PUSH1 0x20 ADD SWAP1 DUP2 MSTORE PUSH1 0x20 ADD PUSH1 0x0 KECCAK256 SLOAD GT PUSH2 0x119F JUMPI PUSH1 0x40 MLOAD PUSH32 0x8C379A000000000000000000000000000000000000000000000000000000000 DUP2 MSTORE PUSH1 0x4 ADD PUSH2 0x1196 SWAP1 PUSH2 0x40D5 JUMP JUMPDEST PUSH1 0x40 MLOAD DUP1 SWAP2 SUB SWAP1 REVERT JUMPDEST PUSH1 0x3 PUSH1 0x0 DUP4 PUSH20 0xFFFFFFFFFFFFFFFFFFFFFFFFFFFFFFFFFFFFFFFF AND PUSH20 0xFFFFFFFFFFFFFFFFFFFFFFFFFFFFFFFFFFFFFFFF AND DUP2 MSTORE PUSH1 0x20 ADD SWAP1 DUP2 MSTORE PUSH1 0x20 ADD PUSH1 0x0 KECCAK256 SLOAD PUSH1 0x5 SLOAD PUSH2 0x11EC SWAP2 SWAP1 PUSH2 0x3FD9 JUMP JUMPDEST PUSH1 0x5 DUP2 SWAP1 SSTORE POP PUSH1 0x0 JUMPDEST PUSH1 0x4 DUP1 SLOAD SWAP1 POP DUP2 LT ISZERO PUSH2 0x1314 JUMPI DUP3 PUSH20 0xFFFFFFFFFFFFFFFFFFFFFFFFFFFFFFFFFFFFFFFF AND PUSH1 0x4 DUP3 DUP2 SLOAD DUP2 LT PUSH2 0x122D JUMPI PUSH2 0x122C PUSH2 0x3C7C JUMP JUMPDEST JUMPDEST SWAP1 PUSH1 0x0 MSTORE PUSH1 0x20 PUSH1 0x0 KECCAK256 ADD PUSH1 0x0 SWAP1 SLOAD SWAP1 PUSH2 0x100 EXP SWAP1 DIV PUSH20 0xFFFFFFFFFFFFFFFFFFFFFFFFFFFFFFFFFFFFFFFF AND PUSH20 0xFFFFFFFFFFFFFFFFFFFFFFFFFFFFFFFFFFFFFFFF AND EQ ISZERO PUSH2 0x1301 JUMPI PUSH1 0x4 DUP2 DUP2 SLOAD DUP2 LT PUSH2 0x1288 JUMPI PUSH2 0x1287 PUSH2 0x3C7C JUMP JUMPDEST JUMPDEST SWAP1 PUSH1 0x0 MSTORE PUSH1 0x20 PUSH1 0x0 KECCAK256 ADD PUSH1 0x0 PUSH2 0x100 EXP DUP2 SLOAD SWAP1 PUSH20 0xFFFFFFFFFFFFFFFFFFFFFFFFFFFFFFFFFFFFFFFF MUL NOT AND SWAP1 SSTORE PUSH1 0x4 DUP1 SLOAD DUP1 PUSH2 0x12C7 JUMPI PUSH2 0x12C6 PUSH2 0x40F5 JUMP JUMPDEST JUMPDEST PUSH1 0x1 SWAP1 SUB DUP2 DUP2 SWAP1 PUSH1 0x0 MSTORE PUSH1 0x20 PUSH1 0x0 KECCAK256 ADD PUSH1 0x0 PUSH2 0x100 EXP DUP2 SLOAD SWAP1 PUSH20 0xFFFFFFFFFFFFFFFFFFFFFFFFFFFFFFFFFFFFFFFF MUL NOT AND SWAP1 SSTORE SWAP1 SSTORE PUSH2 0x1314 JUMP JUMPDEST DUP1 DUP1 PUSH2 0x130C SWAP1 PUSH2 0x3D94 JUMP JUMPDEST SWAP2 POP POP PUSH2 0x11F5 JUMP JUMPDEST POP PUSH1 0x3 PUSH1 0x0 DUP4 PUSH20 0xFFFFFFFFFFFFFFFFFFFFFFFFFFFFFFFFFFFFFFFF AND PUSH20 0xFFFFFFFFFFFFFFFFFFFFFFFFFFFFFFFFFFFFFFFF AND DUP2 MSTORE PUSH1 0x20 ADD SWAP1 DUP2 MSTORE PUSH1 0x20 ADD PUSH1 0x0 KECCAK256 PUSH1 0x0 SWAP1 SSTORE JUMPDEST POP POP JUMP JUMPDEST DUP1 PUSH1 0x0 PUSH1 0x1 PUSH1 0x0 DUP4 DUP2 MSTORE PUSH1 0x20 ADD SWAP1 DUP2 MSTORE PUSH1 0x20 ADD PUSH1 0x0 KECCAK256 PUSH1 0x0 ADD SLOAD GT PUSH2 0x13B7 JUMPI PUSH1 0x40 MLOAD PUSH32 0x8C379A000000000000000000000000000000000000000000000000000000000 DUP2 MSTORE PUSH1 0x4 ADD PUSH2 0x13AE SWAP1 PUSH2 0x3E29 JUMP JUMPDEST PUSH1 0x40 MLOAD DUP1 SWAP2 SUB SWAP1 REVERT JUMPDEST DUP2 PUSH2 0x13C0 PUSH2 0x30F8 JUMP JUMPDEST DUP1 PUSH20 0xFFFFFFFFFFFFFFFFFFFFFFFFFFFFFFFFFFFFFFFF AND PUSH1 0x1 PUSH1 0x0 DUP5 DUP2 MSTORE PUSH1 0x20 ADD SWAP1 DUP2 MSTORE PUSH1 0x20 ADD PUSH1 0x0 KECCAK256 PUSH1 0x1 ADD PUSH1 0x1 SWAP1 SLOAD SWAP1 PUSH2 0x100 EXP SWAP1 DIV PUSH20 0xFFFFFFFFFFFFFFFFFFFFFFFFFFFFFFFFFFFFFFFF AND PUSH20 0xFFFFFFFFFFFFFFFFFFFFFFFFFFFFFFFFFFFFFFFF AND EQ PUSH2 0x1464 JUMPI PUSH1 0x40 MLOAD PUSH32 0x8C379A000000000000000000000000000000000000000000000000000000000 DUP2 MSTORE PUSH1 0x4 ADD PUSH2 0x145B SWAP1 PUSH2 0x3E95 JUMP JUMPDEST PUSH1 0x40 MLOAD DUP1 SWAP2 SUB SWAP1 REVERT JUMPDEST PUSH1 0x1 PUSH1 0x2 DUP2 GT ISZERO PUSH2 0x1478 JUMPI PUSH2 0x1477 PUSH2 0x3578 JUMP JUMPDEST JUMPDEST PUSH1 0x1 PUSH1 0x0 DUP7 DUP2 MSTORE PUSH1 0x20 ADD SWAP1 DUP2 MSTORE PUSH1 0x20 ADD PUSH1 0x0 KECCAK256 PUSH1 0x1 ADD PUSH1 0x0 SWAP1 SLOAD SWAP1 PUSH2 0x100 EXP SWAP1 DIV PUSH1 0xFF AND PUSH1 0x2 DUP2 GT ISZERO PUSH2 0x14AE JUMPI PUSH2 0x14AD PUSH2 0x3578 JUMP JUMPDEST JUMPDEST EQ PUSH2 0x14EE JUMPI PUSH1 0x40 MLOAD PUSH32 0x8C379A000000000000000000000000000000000000000000000000000000000 DUP2 MSTORE PUSH1 0x4 ADD PUSH2 0x14E5 SWAP1 PUSH2 0x4196 JUMP JUMPDEST PUSH1 0x40 MLOAD DUP1 SWAP2 SUB SWAP1 REVERT JUMPDEST PUSH1 0x0 PUSH1 0x1 PUSH1 0x0 DUP7 DUP2 MSTORE PUSH1 0x20 ADD SWAP1 DUP2 MSTORE PUSH1 0x20 ADD PUSH1 0x0 KECCAK256 PUSH1 0x1 ADD PUSH1 0x0 PUSH2 0x100 EXP DUP2 SLOAD DUP2 PUSH1 0xFF MUL NOT AND SWAP1 DUP4 PUSH1 0x2 DUP2 GT ISZERO PUSH2 0x1528 JUMPI PUSH2 0x1527 PUSH2 0x3578 JUMP JUMPDEST JUMPDEST MUL OR SWAP1 SSTORE POP PUSH1 0x0 PUSH1 0x2 DUP2 GT ISZERO PUSH2 0x1541 JUMPI PUSH2 0x1540 PUSH2 0x3578 JUMP JUMPDEST JUMPDEST DUP5 PUSH32 0x15211D78A502C0EDD03F8CEFB0BA09C0BCDB3045A82C5D05DBDFFF58EFC82F03 PUSH1 0x40 MLOAD PUSH1 0x40 MLOAD DUP1 SWAP2 SUB SWAP1 LOG3 POP POP POP POP JUMP JUMPDEST PUSH2 0x157C PUSH2 0x307A JUMP JUMPDEST PUSH2 0x1586 PUSH1 0x0 PUSH2 0x3100 JUMP JUMPDEST JUMP JUMPDEST DUP3 PUSH1 0x0 PUSH1 0x1 PUSH1 0x0 DUP4 DUP2 MSTORE PUSH1 0x20 ADD SWAP1 DUP2 MSTORE PUSH1 0x20 ADD PUSH1 0x0 KECCAK256 PUSH1 0x0 ADD SLOAD GT PUSH2 0x15E2 JUMPI PUSH1 0x40 MLOAD PUSH32 0x8C379A000000000000000000000000000000000000000000000000000000000 DUP2 MSTORE PUSH1 0x4 ADD PUSH2 0x15D9 SWAP1 PUSH2 0x3E29 JUMP JUMPDEST PUSH1 0x40 MLOAD DUP1 SWAP2 SUB SWAP1 REVERT JUMPDEST DUP4 PUSH2 0x15EB PUSH2 0x30F8 JUMP JUMPDEST DUP1 PUSH20 0xFFFFFFFFFFFFFFFFFFFFFFFFFFFFFFFFFFFFFFFF AND PUSH1 0x1 PUSH1 0x0 DUP5 DUP2 MSTORE PUSH1 0x20 ADD SWAP1 DUP2 MSTORE PUSH1 0x20 ADD PUSH1 0x0 KECCAK256 PUSH1 0x1 ADD PUSH1 0x1 SWAP1 SLOAD SWAP1 PUSH2 0x100 EXP SWAP1 DIV PUSH20 0xFFFFFFFFFFFFFFFFFFFFFFFFFFFFFFFFFFFFFFFF AND PUSH20 0xFFFFFFFFFFFFFFFFFFFFFFFFFFFFFFFFFFFFFFFF AND EQ PUSH2 0x168F JUMPI PUSH1 0x40 MLOAD PUSH32 0x8C379A000000000000000000000000000000000000000000000000000000000 DUP2 MSTORE PUSH1 0x4 ADD PUSH2 0x1686 SWAP1 PUSH2 0x3E95 JUMP JUMPDEST PUSH1 0x40 MLOAD DUP1 SWAP2 SUB SWAP1 REVERT JUMPDEST PUSH1 0x0 PUSH1 0x1 PUSH1 0x0 DUP9 DUP2 MSTORE PUSH1 0x20 ADD SWAP1 DUP2 MSTORE PUSH1 0x20 ADD PUSH1 0x0 KECCAK256 PUSH1 0x3 ADD SWAP1 POP DUP5 ISZERO PUSH2 0x1817 JUMPI PUSH1 0x0 JUMPDEST DUP2 DUP1 SLOAD SWAP1 POP DUP2 LT ISZERO PUSH2 0x1749 JUMPI DUP7 PUSH20 0xFFFFFFFFFFFFFFFFFFFFFFFFFFFFFFFFFFFFFFFF AND DUP3 DUP3 DUP2 SLOAD DUP2 LT PUSH2 0x16E8 JUMPI PUSH2 0x16E7 PUSH2 0x3C7C JUMP JUMPDEST JUMPDEST SWAP1 PUSH1 0x0 MSTORE PUSH1 0x20 PUSH1 0x0 KECCAK256 ADD PUSH1 0x0 SWAP1 SLOAD SWAP1 PUSH2 0x100 EXP SWAP1 DIV PUSH20 0xFFFFFFFFFFFFFFFFFFFFFFFFFFFFFFFFFFFFFFFF AND PUSH20 0xFFFFFFFFFFFFFFFFFFFFFFFFFFFFFFFFFFFFFFFF AND EQ ISZERO PUSH2 0x1736 JUMPI POP POP PUSH2 0x1B9F JUMP JUMPDEST DUP1 DUP1 PUSH2 0x1741 SWAP1 PUSH2 0x3D94 JUMP JUMPDEST SWAP2 POP POP PUSH2 0x16B2 JUMP JUMPDEST POP DUP1 DUP7 SWAP1 DUP1 PUSH1 0x1 DUP2 SLOAD ADD DUP1 DUP3 SSTORE DUP1 SWAP2 POP POP PUSH1 0x1 SWAP1 SUB SWAP1 PUSH1 0x0 MSTORE PUSH1 0x20 PUSH1 0x0 KECCAK256 ADD PUSH1 0x0 SWAP1 SWAP2 SWAP1 SWAP2 SWAP1 SWAP2 PUSH2 0x100 EXP DUP2 SLOAD DUP2 PUSH20 0xFFFFFFFFFFFFFFFFFFFFFFFFFFFFFFFFFFFFFFFF MUL NOT AND SWAP1 DUP4 PUSH20 0xFFFFFFFFFFFFFFFFFFFFFFFFFFFFFFFFFFFFFFFF AND MUL OR SWAP1 SSTORE POP PUSH1 0x2 PUSH1 0x0 DUP8 PUSH20 0xFFFFFFFFFFFFFFFFFFFFFFFFFFFFFFFFFFFFFFFF AND PUSH20 0xFFFFFFFFFFFFFFFFFFFFFFFFFFFFFFFFFFFFFFFF AND DUP2 MSTORE PUSH1 0x20 ADD SWAP1 DUP2 MSTORE PUSH1 0x20 ADD PUSH1 0x0 KECCAK256 DUP8 SWAP1 DUP1 PUSH1 0x1 DUP2 SLOAD ADD DUP1 DUP3 SSTORE DUP1 SWAP2 POP POP PUSH1 0x1 SWAP1 SUB SWAP1 PUSH1 0x0 MSTORE PUSH1 0x20 PUSH1 0x0 KECCAK256 ADD PUSH1 0x0 SWAP1 SWAP2 SWAP1 SWAP2 SWAP1 SWAP2 POP SSTORE PUSH2 0x1B9D JUMP JUMPDEST PUSH1 0x0 JUMPDEST DUP2 DUP1 SLOAD SWAP1 POP DUP2 LT ISZERO PUSH2 0x1B9B JUMPI DUP7 PUSH20 0xFFFFFFFFFFFFFFFFFFFFFFFFFFFFFFFFFFFFFFFF AND DUP3 DUP3 DUP2 SLOAD DUP2 LT PUSH2 0x1850 JUMPI PUSH2 0x184F PUSH2 0x3C7C JUMP JUMPDEST JUMPDEST SWAP1 PUSH1 0x0 MSTORE PUSH1 0x20 PUSH1 0x0 KECCAK256 ADD PUSH1 0x0 SWAP1 SLOAD SWAP1 PUSH2 0x100 EXP SWAP1 DIV PUSH20 0xFFFFFFFFFFFFFFFFFFFFFFFFFFFFFFFFFFFFFFFF AND PUSH20 0xFFFFFFFFFFFFFFFFFFFFFFFFFFFFFFFFFFFFFFFF AND EQ ISZERO PUSH2 0x1B88 JUMPI DUP2 DUP2 DUP2 SLOAD DUP2 LT PUSH2 0x18AA JUMPI PUSH2 0x18A9 PUSH2 0x3C7C JUMP JUMPDEST JUMPDEST SWAP1 PUSH1 0x0 MSTORE PUSH1 0x20 PUSH1 0x0 KECCAK256 ADD PUSH1 0x0 PUSH2 0x100 EXP DUP2 SLOAD SWAP1 PUSH20 0xFFFFFFFFFFFFFFFFFFFFFFFFFFFFFFFFFFFFFFFF MUL NOT AND SWAP1 SSTORE DUP2 DUP1 SLOAD DUP1 PUSH2 0x18E8 JUMPI PUSH2 0x18E7 PUSH2 0x40F5 JUMP JUMPDEST JUMPDEST PUSH1 0x1 SWAP1 SUB DUP2 DUP2 SWAP1 PUSH1 0x0 MSTORE PUSH1 0x20 PUSH1 0x0 KECCAK256 ADD PUSH1 0x0 PUSH2 0x100 EXP DUP2 SLOAD SWAP1 PUSH20 0xFFFFFFFFFFFFFFFFFFFFFFFFFFFFFFFFFFFFFFFF MUL NOT AND SWAP1 SSTORE SWAP1 SSTORE PUSH1 0x0 JUMPDEST PUSH1 0x2 PUSH1 0x0 DUP10 PUSH20 0xFFFFFFFFFFFFFFFFFFFFFFFFFFFFFFFFFFFFFFFF AND PUSH20 0xFFFFFFFFFFFFFFFFFFFFFFFFFFFFFFFFFFFFFFFF AND DUP2 MSTORE PUSH1 0x20 ADD SWAP1 DUP2 MSTORE PUSH1 0x20 ADD PUSH1 0x0 KECCAK256 DUP1 SLOAD SWAP1 POP DUP2 LT ISZERO PUSH2 0x1AA9 JUMPI DUP9 PUSH1 0x2 PUSH1 0x0 DUP11 PUSH20 0xFFFFFFFFFFFFFFFFFFFFFFFFFFFFFFFFFFFFFFFF AND PUSH20 0xFFFFFFFFFFFFFFFFFFFFFFFFFFFFFFFFFFFFFFFF AND DUP2 MSTORE PUSH1 0x20 ADD SWAP1 DUP2 MSTORE PUSH1 0x20 ADD PUSH1 0x0 KECCAK256 DUP3 DUP2 SLOAD DUP2 LT PUSH2 0x19BC JUMPI PUSH2 0x19BB PUSH2 0x3C7C JUMP JUMPDEST JUMPDEST SWAP1 PUSH1 0x0 MSTORE PUSH1 0x20 PUSH1 0x0 KECCAK256 ADD SLOAD EQ ISZERO PUSH2 0x1A96 JUMPI PUSH1 0x2 PUSH1 0x0 DUP10 PUSH20 0xFFFFFFFFFFFFFFFFFFFFFFFFFFFFFFFFFFFFFFFF AND PUSH20 0xFFFFFFFFFFFFFFFFFFFFFFFFFFFFFFFFFFFFFFFF AND DUP2 MSTORE PUSH1 0x20 ADD SWAP1 DUP2 MSTORE PUSH1 0x20 ADD PUSH1 0x0 KECCAK256 DUP2 DUP2 SLOAD DUP2 LT PUSH2 0x1A1E JUMPI PUSH2 0x1A1D PUSH2 0x3C7C JUMP JUMPDEST JUMPDEST SWAP1 PUSH1 0x0 MSTORE PUSH1 0x20 PUSH1 0x0 KECCAK256 ADD PUSH1 0x0 SWAP1 SSTORE PUSH1 0x2 PUSH1 0x0 DUP10 PUSH20 0xFFFFFFFFFFFFFFFFFFFFFFFFFFFFFFFFFFFFFFFF AND PUSH20 0xFFFFFFFFFFFFFFFFFFFFFFFFFFFFFFFFFFFFFFFF AND DUP2 MSTORE PUSH1 0x20 ADD SWAP1 DUP2 MSTORE PUSH1 0x20 ADD PUSH1 0x0 KECCAK256 DUP1 SLOAD DUP1 PUSH2 0x1A7B JUMPI PUSH2 0x1A7A PUSH2 0x40F5 JUMP JUMPDEST JUMPDEST PUSH1 0x1 SWAP1 SUB DUP2 DUP2 SWAP1 PUSH1 0x0 MSTORE PUSH1 0x20 PUSH1 0x0 KECCAK256 ADD PUSH1 0x0 SWAP1 SSTORE SWAP1 SSTORE PUSH2 0x1AA9 JUMP JUMPDEST DUP1 DUP1 PUSH2 0x1AA1 SWAP1 PUSH2 0x3D94 JUMP JUMPDEST SWAP2 POP POP PUSH2 0x1920 JUMP JUMPDEST POP PUSH1 0x0 DUP3 DUP1 SLOAD SWAP1 POP EQ ISZERO PUSH2 0x1B81 JUMPI DUP2 PUSH1 0x0 SWAP1 DUP1 PUSH1 0x1 DUP2 SLOAD ADD DUP1 DUP3 SSTORE DUP1 SWAP2 POP POP PUSH1 0x1 SWAP1 SUB SWAP1 PUSH1 0x0 MSTORE PUSH1 0x20 PUSH1 0x0 KECCAK256 ADD PUSH1 0x0 SWAP1 SWAP2 SWAP1 SWAP2 SWAP1 SWAP2 PUSH2 0x100 EXP DUP2 SLOAD DUP2 PUSH20 0xFFFFFFFFFFFFFFFFFFFFFFFFFFFFFFFFFFFFFFFF MUL NOT AND SWAP1 DUP4 PUSH20 0xFFFFFFFFFFFFFFFFFFFFFFFFFFFFFFFFFFFFFFFF AND MUL OR SWAP1 SSTORE POP PUSH1 0x2 PUSH1 0x0 DUP1 PUSH20 0xFFFFFFFFFFFFFFFFFFFFFFFFFFFFFFFFFFFFFFFF AND PUSH20 0xFFFFFFFFFFFFFFFFFFFFFFFFFFFFFFFFFFFFFFFF AND DUP2 MSTORE PUSH1 0x20 ADD SWAP1 DUP2 MSTORE PUSH1 0x20 ADD PUSH1 0x0 KECCAK256 DUP9 SWAP1 DUP1 PUSH1 0x1 DUP2 SLOAD ADD DUP1 DUP3 SSTORE DUP1 SWAP2 POP POP PUSH1 0x1 SWAP1 SUB SWAP1 PUSH1 0x0 MSTORE PUSH1 0x20 PUSH1 0x0 KECCAK256 ADD PUSH1 0x0 SWAP1 SWAP2 SWAP1 SWAP2 SWAP1 SWAP2 POP SSTORE JUMPDEST POP POP PUSH2 0x1B9F JUMP JUMPDEST DUP1 DUP1 PUSH2 0x1B93 SWAP1 PUSH2 0x3D94 JUMP JUMPDEST SWAP2 POP POP PUSH2 0x181A JUMP JUMPDEST POP JUMPDEST POP JUMPDEST POP POP POP POP POP POP JUMP JUMPDEST PUSH1 0x0 DUP1 PUSH1 0x0 SWAP1 SLOAD SWAP1 PUSH2 0x100 EXP SWAP1 DIV PUSH20 0xFFFFFFFFFFFFFFFFFFFFFFFFFFFFFFFFFFFFFFFF AND SWAP1 POP SWAP1 JUMP JUMPDEST PUSH2 0x1BD8 PUSH2 0x307A JUMP JUMPDEST DUP1 PUSH1 0x6 DUP2 SWAP1 SSTORE POP POP JUMP JUMPDEST DUP1 PUSH1 0x0 PUSH1 0x1 PUSH1 0x0 DUP4 DUP2 MSTORE PUSH1 0x20 ADD SWAP1 DUP2 MSTORE PUSH1 0x20 ADD PUSH1 0x0 KECCAK256 PUSH1 0x0 ADD SLOAD GT PUSH2 0x1C3C JUMPI PUSH1 0x40 MLOAD PUSH32 0x8C379A000000000000000000000000000000000000000000000000000000000 DUP2 MSTORE PUSH1 0x4 ADD PUSH2 0x1C33 SWAP1 PUSH2 0x3E29 JUMP JUMPDEST PUSH1 0x40 MLOAD DUP1 SWAP2 SUB SWAP1 REVERT JUMPDEST DUP2 PUSH2 0x1C45 PUSH2 0x30F8 JUMP JUMPDEST PUSH1 0x0 PUSH1 0x1 PUSH1 0x0 DUP5 DUP2 MSTORE PUSH1 0x20 ADD SWAP1 DUP2 MSTORE PUSH1 0x20 ADD PUSH1 0x0 KECCAK256 SWAP1 POP PUSH1 0x0 JUMPDEST DUP2 PUSH1 0x3 ADD DUP1 SLOAD SWAP1 POP DUP2 LT ISZERO PUSH2 0x2441 JUMPI PUSH1 0x0 PUSH20 0xFFFFFFFFFFFFFFFFFFFFFFFFFFFFFFFFFFFFFFFF AND DUP3 PUSH1 0x3 ADD DUP3 DUP2 SLOAD DUP2 LT PUSH2 0x1C9C JUMPI PUSH2 0x1C9B PUSH2 0x3C7C JUMP JUMPDEST JUMPDEST SWAP1 PUSH1 0x0 MSTORE PUSH1 0x20 PUSH1 0x0 KECCAK256 ADD PUSH1 0x0 SWAP1 SLOAD SWAP1 PUSH2 0x100 EXP SWAP1 DIV PUSH20 0xFFFFFFFFFFFFFFFFFFFFFFFFFFFFFFFFFFFFFFFF AND PUSH20 0xFFFFFFFFFFFFFFFFFFFFFFFFFFFFFFFFFFFFFFFF AND EQ DUP1 PUSH2 0x1D54 JUMPI POP DUP3 PUSH20 0xFFFFFFFFFFFFFFFFFFFFFFFFFFFFFFFFFFFFFFFF AND DUP3 PUSH1 0x3 ADD DUP3 DUP2 SLOAD DUP2 LT PUSH2 0x1D11 JUMPI PUSH2 0x1D10 PUSH2 0x3C7C JUMP JUMPDEST JUMPDEST SWAP1 PUSH1 0x0 MSTORE PUSH1 0x20 PUSH1 0x0 KECCAK256 ADD PUSH1 0x0 SWAP1 SLOAD SWAP1 PUSH2 0x100 EXP SWAP1 DIV PUSH20 0xFFFFFFFFFFFFFFFFFFFFFFFFFFFFFFFFFFFFFFFF AND PUSH20 0xFFFFFFFFFFFFFFFFFFFFFFFFFFFFFFFFFFFFFFFF AND EQ JUMPDEST ISZERO PUSH2 0x242E JUMPI DUP6 PUSH1 0x0 PUSH1 0x2 DUP2 GT ISZERO PUSH2 0x1D6E JUMPI PUSH2 0x1D6D PUSH2 0x3578 JUMP JUMPDEST JUMPDEST PUSH1 0x1 PUSH1 0x0 DUP4 DUP2 MSTORE PUSH1 0x20 ADD SWAP1 DUP2 MSTORE PUSH1 0x20 ADD PUSH1 0x0 KECCAK256 PUSH1 0x1 ADD PUSH1 0x0 SWAP1 SLOAD SWAP1 PUSH2 0x100 EXP SWAP1 DIV PUSH1 0xFF AND PUSH1 0x2 DUP2 GT ISZERO PUSH2 0x1DA4 JUMPI PUSH2 0x1DA3 PUSH2 0x3578 JUMP JUMPDEST JUMPDEST EQ PUSH2 0x1DE4 JUMPI PUSH1 0x40 MLOAD PUSH32 0x8C379A000000000000000000000000000000000000000000000000000000000 DUP2 MSTORE PUSH1 0x4 ADD PUSH2 0x1DDB SWAP1 PUSH2 0x3F27 JUMP JUMPDEST PUSH1 0x40 MLOAD DUP1 SWAP2 SUB SWAP1 REVERT JUMPDEST PUSH2 0x1DEC PUSH2 0x2725 JUMP JUMPDEST CALLVALUE LT ISZERO PUSH2 0x1E2E JUMPI PUSH1 0x40 MLOAD PUSH32 0x8C379A000000000000000000000000000000000000000000000000000000000 DUP2 MSTORE PUSH1 0x4 ADD PUSH2 0x1E25 SWAP1 PUSH2 0x4228 JUMP JUMPDEST PUSH1 0x40 MLOAD DUP1 SWAP2 SUB SWAP1 REVERT JUMPDEST PUSH1 0x0 PUSH1 0x1 PUSH1 0x0 DUP10 DUP2 MSTORE PUSH1 0x20 ADD SWAP1 DUP2 MSTORE PUSH1 0x20 ADD PUSH1 0x0 KECCAK256 SWAP1 POP PUSH1 0x0 JUMPDEST DUP2 PUSH1 0x4 ADD DUP1 SLOAD SWAP1 POP DUP2 LT ISZERO PUSH2 0x20EF JUMPI PUSH1 0x0 DUP3 PUSH1 0x4 ADD DUP3 DUP2 SLOAD DUP2 LT PUSH2 0x1E6F JUMPI PUSH2 0x1E6E PUSH2 0x3C7C JUMP JUMPDEST JUMPDEST SWAP1 PUSH1 0x0 MSTORE PUSH1 0x20 PUSH1 0x0 KECCAK256 SWAP1 PUSH1 0x3 MUL ADD SWAP1 POP PUSH1 0x0 PUSH2 0x1EAE DUP3 PUSH1 0x0 ADD PUSH1 0x0 SWAP1 SLOAD SWAP1 PUSH2 0x100 EXP SWAP1 DIV PUSH20 0xFFFFFFFFFFFFFFFFFFFFFFFFFFFFFFFFFFFFFFFF AND PUSH2 0x25A2 JUMP JUMPDEST SWAP1 POP DUP1 PUSH20 0xFFFFFFFFFFFFFFFFFFFFFFFFFFFFFFFFFFFFFFFF AND PUSH4 0x3850F3B PUSH2 0x1ED4 PUSH2 0x30F8 JUMP JUMPDEST DUP5 PUSH1 0x0 ADD PUSH1 0x0 SWAP1 SLOAD SWAP1 PUSH2 0x100 EXP SWAP1 DIV PUSH20 0xFFFFFFFFFFFFFFFFFFFFFFFFFFFFFFFFFFFFFFFF AND DUP6 PUSH1 0x1 ADD SLOAD DUP7 PUSH1 0x2 ADD SLOAD PUSH1 0x40 MLOAD DUP6 PUSH4 0xFFFFFFFF AND PUSH1 0xE0 SHL DUP2 MSTORE PUSH1 0x4 ADD PUSH2 0x1F22 SWAP5 SWAP4 SWAP3 SWAP2 SWAP1 PUSH2 0x4257 JUMP JUMPDEST PUSH1 0x20 PUSH1 0x40 MLOAD DUP1 DUP4 SUB DUP2 DUP7 DUP1 EXTCODESIZE ISZERO DUP1 ISZERO PUSH2 0x1F3A JUMPI PUSH1 0x0 DUP1 REVERT JUMPDEST POP GAS STATICCALL ISZERO DUP1 ISZERO PUSH2 0x1F4E JUMPI RETURNDATASIZE PUSH1 0x0 DUP1 RETURNDATACOPY RETURNDATASIZE PUSH1 0x0 REVERT JUMPDEST POP POP POP POP PUSH1 0x40 MLOAD RETURNDATASIZE PUSH1 0x1F NOT PUSH1 0x1F DUP3 ADD AND DUP3 ADD DUP1 PUSH1 0x40 MSTORE POP DUP2 ADD SWAP1 PUSH2 0x1F72 SWAP2 SWAP1 PUSH2 0x42B1 JUMP JUMPDEST PUSH2 0x1FB1 JUMPI PUSH1 0x40 MLOAD PUSH32 0x8C379A000000000000000000000000000000000000000000000000000000000 DUP2 MSTORE PUSH1 0x4 ADD PUSH2 0x1FA8 SWAP1 PUSH2 0x4350 JUMP JUMPDEST PUSH1 0x40 MLOAD DUP1 SWAP2 SUB SWAP1 REVERT JUMPDEST DUP1 PUSH20 0xFFFFFFFFFFFFFFFFFFFFFFFFFFFFFFFFFFFFFFFF AND PUSH4 0xC6BC20B6 PUSH2 0x1FD5 PUSH2 0x30F8 JUMP JUMPDEST DUP5 PUSH1 0x0 ADD PUSH1 0x0 SWAP1 SLOAD SWAP1 PUSH2 0x100 EXP SWAP1 DIV PUSH20 0xFFFFFFFFFFFFFFFFFFFFFFFFFFFFFFFFFFFFFFFF AND DUP6 PUSH1 0x1 ADD SLOAD DUP7 PUSH1 0x2 ADD SLOAD DUP10 PUSH1 0x1 ADD PUSH1 0x1 SWAP1 SLOAD SWAP1 PUSH2 0x100 EXP SWAP1 DIV PUSH20 0xFFFFFFFFFFFFFFFFFFFFFFFFFFFFFFFFFFFFFFFF AND PUSH1 0x40 MLOAD DUP7 PUSH4 0xFFFFFFFF AND PUSH1 0xE0 SHL DUP2 MSTORE PUSH1 0x4 ADD PUSH2 0x2049 SWAP6 SWAP5 SWAP4 SWAP3 SWAP2 SWAP1 PUSH2 0x4370 JUMP JUMPDEST PUSH1 0x20 PUSH1 0x40 MLOAD DUP1 DUP4 SUB DUP2 PUSH1 0x0 DUP8 DUP1 EXTCODESIZE ISZERO DUP1 ISZERO PUSH2 0x2063 JUMPI PUSH1 0x0 DUP1 REVERT JUMPDEST POP GAS CALL ISZERO DUP1 ISZERO PUSH2 0x2077 JUMPI RETURNDATASIZE PUSH1 0x0 DUP1 RETURNDATACOPY RETURNDATASIZE PUSH1 0x0 REVERT JUMPDEST POP POP POP POP PUSH1 0x40 MLOAD RETURNDATASIZE PUSH1 0x1F NOT PUSH1 0x1F DUP3 ADD AND DUP3 ADD DUP1 PUSH1 0x40 MSTORE POP DUP2 ADD SWAP1 PUSH2 0x209B SWAP2 SWAP1 PUSH2 0x42B1 JUMP JUMPDEST PUSH2 0x20DA JUMPI PUSH1 0x40 MLOAD PUSH32 0x8C379A000000000000000000000000000000000000000000000000000000000 DUP2 MSTORE PUSH1 0x4 ADD PUSH2 0x20D1 SWAP1 PUSH2 0x4435 JUMP JUMPDEST PUSH1 0x40 MLOAD DUP1 SWAP2 SUB SWAP1 REVERT JUMPDEST POP POP DUP1 DUP1 PUSH2 0x20E7 SWAP1 PUSH2 0x3D94 JUMP JUMPDEST SWAP2 POP POP PUSH2 0x1E48 JUMP JUMPDEST POP PUSH1 0x0 JUMPDEST DUP2 PUSH1 0x2 ADD DUP1 SLOAD SWAP1 POP DUP2 LT ISZERO PUSH2 0x23B7 JUMPI PUSH1 0x0 DUP3 PUSH1 0x2 ADD DUP3 DUP2 SLOAD DUP2 LT PUSH2 0x211A JUMPI PUSH2 0x2119 PUSH2 0x3C7C JUMP JUMPDEST JUMPDEST SWAP1 PUSH1 0x0 MSTORE PUSH1 0x20 PUSH1 0x0 KECCAK256 SWAP1 PUSH1 0x3 MUL ADD SWAP1 POP PUSH1 0x0 PUSH2 0x2159 DUP3 PUSH1 0x0 ADD PUSH1 0x0 SWAP1 SLOAD SWAP1 PUSH2 0x100 EXP SWAP1 DIV PUSH20 0xFFFFFFFFFFFFFFFFFFFFFFFFFFFFFFFFFFFFFFFF AND PUSH2 0x25A2 JUMP JUMPDEST SWAP1 POP DUP1 PUSH20 0xFFFFFFFFFFFFFFFFFFFFFFFFFFFFFFFFFFFFFFFF AND PUSH4 0x3850F3B DUP6 PUSH1 0x1 ADD PUSH1 0x1 SWAP1 SLOAD SWAP1 PUSH2 0x100 EXP SWAP1 DIV PUSH20 0xFFFFFFFFFFFFFFFFFFFFFFFFFFFFFFFFFFFFFFFF AND DUP5 PUSH1 0x0 ADD PUSH1 0x0 SWAP1 SLOAD SWAP1 PUSH2 0x100 EXP SWAP1 DIV PUSH20 0xFFFFFFFFFFFFFFFFFFFFFFFFFFFFFFFFFFFFFFFF AND DUP6 PUSH1 0x1 ADD SLOAD DUP7 PUSH1 0x2 ADD SLOAD PUSH1 0x40 MLOAD DUP6 PUSH4 0xFFFFFFFF AND PUSH1 0xE0 SHL DUP2 MSTORE PUSH1 0x4 ADD PUSH2 0x21EA SWAP5 SWAP4 SWAP3 SWAP2 SWAP1 PUSH2 0x4257 JUMP JUMPDEST PUSH1 0x20 PUSH1 0x40 MLOAD DUP1 DUP4 SUB DUP2 DUP7 DUP1 EXTCODESIZE ISZERO DUP1 ISZERO PUSH2 0x2202 JUMPI PUSH1 0x0 DUP1 REVERT JUMPDEST POP GAS STATICCALL ISZERO DUP1 ISZERO PUSH2 0x2216 JUMPI RETURNDATASIZE PUSH1 0x0 DUP1 RETURNDATACOPY RETURNDATASIZE PUSH1 0x0 REVERT JUMPDEST POP POP POP POP PUSH1 0x40 MLOAD RETURNDATASIZE PUSH1 0x1F NOT PUSH1 0x1F DUP3 ADD AND DUP3 ADD DUP1 PUSH1 0x40 MSTORE POP DUP2 ADD SWAP1 PUSH2 0x223A SWAP2 SWAP1 PUSH2 0x42B1 JUMP JUMPDEST PUSH2 0x2279 JUMPI PUSH1 0x40 MLOAD PUSH32 0x8C379A000000000000000000000000000000000000000000000000000000000 DUP2 MSTORE PUSH1 0x4 ADD PUSH2 0x2270 SWAP1 PUSH2 0x44C7 JUMP JUMPDEST PUSH1 0x40 MLOAD DUP1 SWAP2 SUB SWAP1 REVERT JUMPDEST DUP1 PUSH20 0xFFFFFFFFFFFFFFFFFFFFFFFFFFFFFFFFFFFFFFFF AND PUSH4 0xC6BC20B6 DUP6 PUSH1 0x1 ADD PUSH1 0x1 SWAP1 SLOAD SWAP1 PUSH2 0x100 EXP SWAP1 DIV PUSH20 0xFFFFFFFFFFFFFFFFFFFFFFFFFFFFFFFFFFFFFFFF AND DUP5 PUSH1 0x0 ADD PUSH1 0x0 SWAP1 SLOAD SWAP1 PUSH2 0x100 EXP SWAP1 DIV PUSH20 0xFFFFFFFFFFFFFFFFFFFFFFFFFFFFFFFFFFFFFFFF AND DUP6 PUSH1 0x1 ADD SLOAD DUP7 PUSH1 0x2 ADD SLOAD PUSH2 0x22F1 PUSH2 0x30F8 JUMP JUMPDEST PUSH1 0x40 MLOAD DUP7 PUSH4 0xFFFFFFFF AND PUSH1 0xE0 SHL DUP2 MSTORE PUSH1 0x4 ADD PUSH2 0x2311 SWAP6 SWAP5 SWAP4 SWAP3 SWAP2 SWAP1 PUSH2 0x4370 JUMP JUMPDEST PUSH1 0x20 PUSH1 0x40 MLOAD DUP1 DUP4 SUB DUP2 PUSH1 0x0 DUP8 DUP1 EXTCODESIZE ISZERO DUP1 ISZERO PUSH2 0x232B JUMPI PUSH1 0x0 DUP1 REVERT JUMPDEST POP GAS CALL ISZERO DUP1 ISZERO PUSH2 0x233F JUMPI RETURNDATASIZE PUSH1 0x0 DUP1 RETURNDATACOPY RETURNDATASIZE PUSH1 0x0 REVERT JUMPDEST POP POP POP POP PUSH1 0x40 MLOAD RETURNDATASIZE PUSH1 0x1F NOT PUSH1 0x1F DUP3 ADD AND DUP3 ADD DUP1 PUSH1 0x40 MSTORE POP DUP2 ADD SWAP1 PUSH2 0x2363 SWAP2 SWAP1 PUSH2 0x42B1 JUMP JUMPDEST PUSH2 0x23A2 JUMPI PUSH1 0x40 MLOAD PUSH32 0x8C379A000000000000000000000000000000000000000000000000000000000 DUP2 MSTORE PUSH1 0x4 ADD PUSH2 0x2399 SWAP1 PUSH2 0x4559 JUMP JUMPDEST PUSH1 0x40 MLOAD DUP1 SWAP2 SUB SWAP1 REVERT JUMPDEST POP POP DUP1 DUP1 PUSH2 0x23AF SWAP1 PUSH2 0x3D94 JUMP JUMPDEST SWAP2 POP POP PUSH2 0x20F3 JUMP JUMPDEST POP PUSH1 0x2 DUP2 PUSH1 0x1 ADD PUSH1 0x0 PUSH2 0x100 EXP DUP2 SLOAD DUP2 PUSH1 0xFF MUL NOT AND SWAP1 DUP4 PUSH1 0x2 DUP2 GT ISZERO PUSH2 0x23E0 JUMPI PUSH2 0x23DF PUSH2 0x3578 JUMP JUMPDEST JUMPDEST MUL OR SWAP1 SSTORE POP PUSH1 0x2 DUP1 DUP2 GT ISZERO PUSH2 0x23F8 JUMPI PUSH2 0x23F7 PUSH2 0x3578 JUMP JUMPDEST JUMPDEST DUP9 PUSH32 0x15211D78A502C0EDD03F8CEFB0BA09C0BCDB3045A82C5D05DBDFFF58EFC82F03 PUSH1 0x40 MLOAD PUSH1 0x40 MLOAD DUP1 SWAP2 SUB SWAP1 LOG3 POP POP POP POP PUSH2 0x2485 JUMP JUMPDEST DUP1 DUP1 PUSH2 0x2439 SWAP1 PUSH2 0x3D94 JUMP JUMPDEST SWAP2 POP POP PUSH2 0x1C5F JUMP JUMPDEST POP PUSH1 0x0 PUSH2 0x2483 JUMPI PUSH1 0x40 MLOAD PUSH32 0x8C379A000000000000000000000000000000000000000000000000000000000 DUP2 MSTORE PUSH1 0x4 ADD PUSH2 0x247A SWAP1 PUSH2 0x45C5 JUMP JUMPDEST PUSH1 0x40 MLOAD DUP1 SWAP2 SUB SWAP1 REVERT JUMPDEST POP JUMPDEST POP POP POP POP JUMP JUMPDEST PUSH1 0x60 PUSH1 0x0 PUSH1 0x3 PUSH1 0x0 PUSH2 0x249B PUSH2 0x30F8 JUMP JUMPDEST PUSH20 0xFFFFFFFFFFFFFFFFFFFFFFFFFFFFFFFFFFFFFFFF AND PUSH20 0xFFFFFFFFFFFFFFFFFFFFFFFFFFFFFFFFFFFFFFFF AND DUP2 MSTORE PUSH1 0x20 ADD SWAP1 DUP2 MSTORE PUSH1 0x20 ADD PUSH1 0x0 KECCAK256 SLOAD GT PUSH2 0x2516 JUMPI PUSH1 0x40 MLOAD PUSH32 0x8C379A000000000000000000000000000000000000000000000000000000000 DUP2 MSTORE PUSH1 0x4 ADD PUSH2 0x250D SWAP1 PUSH2 0x3BF0 JUMP JUMPDEST PUSH1 0x40 MLOAD DUP1 SWAP2 SUB SWAP1 REVERT JUMPDEST PUSH1 0x4 DUP1 SLOAD DUP1 PUSH1 0x20 MUL PUSH1 0x20 ADD PUSH1 0x40 MLOAD SWAP1 DUP2 ADD PUSH1 0x40 MSTORE DUP1 SWAP3 SWAP2 SWAP1 DUP2 DUP2 MSTORE PUSH1 0x20 ADD DUP3 DUP1 SLOAD DUP1 ISZERO PUSH2 0x2598 JUMPI PUSH1 0x20 MUL DUP3 ADD SWAP2 SWAP1 PUSH1 0x0 MSTORE PUSH1 0x20 PUSH1 0x0 KECCAK256 SWAP1 JUMPDEST DUP2 PUSH1 0x0 SWAP1 SLOAD SWAP1 PUSH2 0x100 EXP SWAP1 DIV PUSH20 0xFFFFFFFFFFFFFFFFFFFFFFFFFFFFFFFFFFFFFFFF AND PUSH20 0xFFFFFFFFFFFFFFFFFFFFFFFFFFFFFFFFFFFFFFFF AND DUP2 MSTORE PUSH1 0x20 ADD SWAP1 PUSH1 0x1 ADD SWAP1 DUP1 DUP4 GT PUSH2 0x254E JUMPI JUMPDEST POP POP POP POP POP SWAP1 POP SWAP1 JUMP JUMPDEST PUSH1 0x0 DUP1 PUSH1 0x0 SWAP1 POP JUMPDEST PUSH1 0x8 DUP1 SLOAD SWAP1 POP DUP2 LT ISZERO PUSH2 0x26DD JUMPI PUSH1 0x8 DUP2 DUP2 SLOAD DUP2 LT PUSH2 0x25CB JUMPI PUSH2 0x25CA PUSH2 0x3C7C JUMP JUMPDEST JUMPDEST SWAP1 PUSH1 0x0 MSTORE PUSH1 0x20 PUSH1 0x0 KECCAK256 ADD PUSH1 0x0 SWAP1 SLOAD SWAP1 PUSH2 0x100 EXP SWAP1 DIV PUSH20 0xFFFFFFFFFFFFFFFFFFFFFFFFFFFFFFFFFFFFFFFF AND PUSH20 0xFFFFFFFFFFFFFFFFFFFFFFFFFFFFFFFFFFFFFFFF AND PUSH4 0xB829275 DUP5 PUSH1 0x40 MLOAD DUP3 PUSH4 0xFFFFFFFF AND PUSH1 0xE0 SHL DUP2 MSTORE PUSH1 0x4 ADD PUSH2 0x262E SWAP2 SWAP1 PUSH2 0x394A JUMP JUMPDEST PUSH1 0x20 PUSH1 0x40 MLOAD DUP1 DUP4 SUB DUP2 DUP7 DUP1 EXTCODESIZE ISZERO DUP1 ISZERO PUSH2 0x2646 JUMPI PUSH1 0x0 DUP1 REVERT JUMPDEST POP GAS STATICCALL ISZERO DUP1 ISZERO PUSH2 0x265A JUMPI RETURNDATASIZE PUSH1 0x0 DUP1 RETURNDATACOPY RETURNDATASIZE PUSH1 0x0 REVERT JUMPDEST POP POP POP POP PUSH1 0x40 MLOAD RETURNDATASIZE PUSH1 0x1F NOT PUSH1 0x1F DUP3 ADD AND DUP3 ADD DUP1 PUSH1 0x40 MSTORE POP DUP2 ADD SWAP1 PUSH2 0x267E SWAP2 SWAP1 PUSH2 0x42B1 JUMP JUMPDEST ISZERO PUSH2 0x26CA JUMPI PUSH1 0x8 DUP2 DUP2 SLOAD DUP2 LT PUSH2 0x2697 JUMPI PUSH2 0x2696 PUSH2 0x3C7C JUMP JUMPDEST JUMPDEST SWAP1 PUSH1 0x0 MSTORE PUSH1 0x20 PUSH1 0x0 KECCAK256 ADD PUSH1 0x0 SWAP1 SLOAD SWAP1 PUSH2 0x100 EXP SWAP1 DIV PUSH20 0xFFFFFFFFFFFFFFFFFFFFFFFFFFFFFFFFFFFFFFFF AND SWAP2 POP POP PUSH2 0x2720 JUMP JUMPDEST DUP1 DUP1 PUSH2 0x26D5 SWAP1 PUSH2 0x3D94 JUMP JUMPDEST SWAP2 POP POP PUSH2 0x25AA JUMP JUMPDEST POP PUSH1 0x0 PUSH2 0x271F JUMPI PUSH1 0x40 MLOAD PUSH32 0x8C379A000000000000000000000000000000000000000000000000000000000 DUP2 MSTORE PUSH1 0x4 ADD PUSH2 0x2716 SWAP1 PUSH2 0x4657 JUMP JUMPDEST PUSH1 0x40 MLOAD DUP1 SWAP2 SUB SWAP1 REVERT JUMPDEST JUMPDEST SWAP2 SWAP1 POP JUMP JUMPDEST PUSH1 0x0 PUSH1 0x7 SLOAD SWAP1 POP SWAP1 JUMP JUMPDEST PUSH1 0x0 DUP1 PUSH1 0x3 PUSH1 0x0 PUSH2 0x273E PUSH2 0x30F8 JUMP JUMPDEST PUSH20 0xFFFFFFFFFFFFFFFFFFFFFFFFFFFFFFFFFFFFFFFF AND PUSH20 0xFFFFFFFFFFFFFFFFFFFFFFFFFFFFFFFFFFFFFFFF AND DUP2 MSTORE PUSH1 0x20 ADD SWAP1 DUP2 MSTORE PUSH1 0x20 ADD PUSH1 0x0 KECCAK256 SLOAD GT PUSH2 0x27B9 JUMPI PUSH1 0x40 MLOAD PUSH32 0x8C379A000000000000000000000000000000000000000000000000000000000 DUP2 MSTORE PUSH1 0x4 ADD PUSH2 0x27B0 SWAP1 PUSH2 0x3BF0 JUMP JUMPDEST PUSH1 0x40 MLOAD DUP1 SWAP2 SUB SWAP1 REVERT JUMPDEST PUSH1 0x5 SLOAD SWAP1 POP SWAP1 JUMP JUMPDEST PUSH1 0x0 PUSH2 0x27CD PUSH1 0x9 PUSH2 0x31C4 JUMP JUMPDEST SWAP1 POP SWAP1 JUMP JUMPDEST PUSH1 0x0 DUP1 PUSH20 0xFFFFFFFFFFFFFFFFFFFFFFFFFFFFFFFFFFFFFFFF AND DUP9 PUSH20 0xFFFFFFFFFFFFFFFFFFFFFFFFFFFFFFFFFFFFFFFF AND EQ ISZERO PUSH2 0x2843 JUMPI PUSH1 0x40 MLOAD PUSH32 0x8C379A000000000000000000000000000000000000000000000000000000000 DUP2 MSTORE PUSH1 0x4 ADD PUSH2 0x283A SWAP1 PUSH2 0x46E9 JUMP JUMPDEST PUSH1 0x40 MLOAD DUP1 SWAP2 SUB SWAP1 REVERT JUMPDEST PUSH2 0x284B PUSH2 0x5FB JUMP JUMPDEST CALLVALUE LT ISZERO PUSH2 0x288D JUMPI PUSH1 0x40 MLOAD PUSH32 0x8C379A000000000000000000000000000000000000000000000000000000000 DUP2 MSTORE PUSH1 0x4 ADD PUSH2 0x2884 SWAP1 PUSH2 0x477B JUMP JUMPDEST PUSH1 0x40 MLOAD DUP1 SWAP2 SUB SWAP1 REVERT JUMPDEST PUSH2 0x2897 PUSH1 0x9 PUSH2 0x31D2 JUMP JUMPDEST PUSH2 0x28A1 PUSH1 0x9 PUSH2 0x31C4 JUMP JUMPDEST SWAP1 POP DUP1 PUSH1 0x1 PUSH1 0x0 DUP4 DUP2 MSTORE PUSH1 0x20 ADD SWAP1 DUP2 MSTORE PUSH1 0x20 ADD PUSH1 0x0 KECCAK256 PUSH1 0x0 ADD DUP2 SWAP1 SSTORE POP DUP8 PUSH1 0x1 PUSH1 0x0 DUP4 DUP2 MSTORE PUSH1 0x20 ADD SWAP1 DUP2 MSTORE PUSH1 0x20 ADD PUSH1 0x0 KECCAK256 PUSH1 0x1 ADD PUSH1 0x1 PUSH2 0x100 EXP DUP2 SLOAD DUP2 PUSH20 0xFFFFFFFFFFFFFFFFFFFFFFFFFFFFFFFFFFFFFFFF MUL NOT AND SWAP1 DUP4 PUSH20 0xFFFFFFFFFFFFFFFFFFFFFFFFFFFFFFFFFFFFFFFF AND MUL OR SWAP1 SSTORE POP PUSH1 0x2 PUSH1 0x0 DUP10 PUSH20 0xFFFFFFFFFFFFFFFFFFFFFFFFFFFFFFFFFFFFFFFF AND PUSH20 0xFFFFFFFFFFFFFFFFFFFFFFFFFFFFFFFFFFFFFFFF AND DUP2 MSTORE PUSH1 0x20 ADD SWAP1 DUP2 MSTORE PUSH1 0x20 ADD PUSH1 0x0 KECCAK256 DUP2 SWAP1 DUP1 PUSH1 0x1 DUP2 SLOAD ADD DUP1 DUP3 SSTORE DUP1 SWAP2 POP POP PUSH1 0x1 SWAP1 SUB SWAP1 PUSH1 0x0 MSTORE PUSH1 0x20 PUSH1 0x0 KECCAK256 ADD PUSH1 0x0 SWAP1 SWAP2 SWAP1 SWAP2 SWAP1 SWAP2 POP SSTORE PUSH1 0x0 JUMPDEST DUP8 DUP8 SWAP1 POP DUP2 LT ISZERO PUSH2 0x2A34 JUMPI PUSH2 0x29BA DUP9 DUP9 DUP4 DUP2 DUP2 LT PUSH2 0x299D JUMPI PUSH2 0x299C PUSH2 0x3C7C JUMP JUMPDEST JUMPDEST SWAP1 POP PUSH1 0x60 MUL ADD PUSH1 0x0 ADD PUSH1 0x20 DUP2 ADD SWAP1 PUSH2 0x29B5 SWAP2 SWAP1 PUSH2 0x32AE JUMP JUMPDEST PUSH2 0x25A2 JUMP JUMPDEST POP PUSH1 0x1 PUSH1 0x0 DUP4 DUP2 MSTORE PUSH1 0x20 ADD SWAP1 DUP2 MSTORE PUSH1 0x20 ADD PUSH1 0x0 KECCAK256 PUSH1 0x2 ADD DUP9 DUP9 DUP4 DUP2 DUP2 LT PUSH2 0x29E4 JUMPI PUSH2 0x29E3 PUSH2 0x3C7C JUMP JUMPDEST JUMPDEST SWAP1 POP PUSH1 0x60 MUL ADD SWAP1 DUP1 PUSH1 0x1 DUP2 SLOAD ADD DUP1 DUP3 SSTORE DUP1 SWAP2 POP POP PUSH1 0x1 SWAP1 SUB SWAP1 PUSH1 0x0 MSTORE PUSH1 0x20 PUSH1 0x0 KECCAK256 SWAP1 PUSH1 0x3 MUL ADD PUSH1 0x0 SWAP1 SWAP2 SWAP1 SWAP2 SWAP1 SWAP2 POP DUP2 DUP2 PUSH2 0x2A1F SWAP2 SWAP1 PUSH2 0x49C2 JUMP JUMPDEST POP POP DUP1 DUP1 PUSH2 0x2A2C SWAP1 PUSH2 0x3D94 JUMP JUMPDEST SWAP2 POP POP PUSH2 0x297C JUMP JUMPDEST POP PUSH1 0x0 JUMPDEST DUP6 DUP6 SWAP1 POP DUP2 LT ISZERO PUSH2 0x2B81 JUMPI PUSH1 0x1 PUSH1 0x0 DUP4 DUP2 MSTORE PUSH1 0x20 ADD SWAP1 DUP2 MSTORE PUSH1 0x20 ADD PUSH1 0x0 KECCAK256 PUSH1 0x3 ADD DUP7 DUP7 DUP4 DUP2 DUP2 LT PUSH2 0x2A6C JUMPI PUSH2 0x2A6B PUSH2 0x3C7C JUMP JUMPDEST JUMPDEST SWAP1 POP PUSH1 0x20 MUL ADD PUSH1 0x20 DUP2 ADD SWAP1 PUSH2 0x2A81 SWAP2 SWAP1 PUSH2 0x32AE JUMP JUMPDEST SWAP1 DUP1 PUSH1 0x1 DUP2 SLOAD ADD DUP1 DUP3 SSTORE DUP1 SWAP2 POP POP PUSH1 0x1 SWAP1 SUB SWAP1 PUSH1 0x0 MSTORE PUSH1 0x20 PUSH1 0x0 KECCAK256 ADD PUSH1 0x0 SWAP1 SWAP2 SWAP1 SWAP2 SWAP1 SWAP2 PUSH2 0x100 EXP DUP2 SLOAD DUP2 PUSH20 0xFFFFFFFFFFFFFFFFFFFFFFFFFFFFFFFFFFFFFFFF MUL NOT AND SWAP1 DUP4 PUSH20 0xFFFFFFFFFFFFFFFFFFFFFFFFFFFFFFFFFFFFFFFF AND MUL OR SWAP1 SSTORE POP PUSH1 0x2 PUSH1 0x0 DUP8 DUP8 DUP5 DUP2 DUP2 LT PUSH2 0x2AF8 JUMPI PUSH2 0x2AF7 PUSH2 0x3C7C JUMP JUMPDEST JUMPDEST SWAP1 POP PUSH1 0x20 MUL ADD PUSH1 0x20 DUP2 ADD SWAP1 PUSH2 0x2B0D SWAP2 SWAP1 PUSH2 0x32AE JUMP JUMPDEST PUSH20 0xFFFFFFFFFFFFFFFFFFFFFFFFFFFFFFFFFFFFFFFF AND PUSH20 0xFFFFFFFFFFFFFFFFFFFFFFFFFFFFFFFFFFFFFFFF AND DUP2 MSTORE PUSH1 0x20 ADD SWAP1 DUP2 MSTORE PUSH1 0x20 ADD PUSH1 0x0 KECCAK256 DUP3 SWAP1 DUP1 PUSH1 0x1 DUP2 SLOAD ADD DUP1 DUP3 SSTORE DUP1 SWAP2 POP POP PUSH1 0x1 SWAP1 SUB SWAP1 PUSH1 0x0 MSTORE PUSH1 0x20 PUSH1 0x0 KECCAK256 ADD PUSH1 0x0 SWAP1 SWAP2 SWAP1 SWAP2 SWAP1 SWAP2 POP SSTORE DUP1 DUP1 PUSH2 0x2B79 SWAP1 PUSH2 0x3D94 JUMP JUMPDEST SWAP2 POP POP PUSH2 0x2A38 JUMP JUMPDEST POP PUSH1 0x0 JUMPDEST DUP4 DUP4 SWAP1 POP DUP2 LT ISZERO PUSH2 0x2C3D JUMPI PUSH2 0x2BC3 DUP5 DUP5 DUP4 DUP2 DUP2 LT PUSH2 0x2BA6 JUMPI PUSH2 0x2BA5 PUSH2 0x3C7C JUMP JUMPDEST JUMPDEST SWAP1 POP PUSH1 0x60 MUL ADD PUSH1 0x0 ADD PUSH1 0x20 DUP2 ADD SWAP1 PUSH2 0x2BBE SWAP2 SWAP1 PUSH2 0x32AE JUMP JUMPDEST PUSH2 0x25A2 JUMP JUMPDEST POP PUSH1 0x1 PUSH1 0x0 DUP4 DUP2 MSTORE PUSH1 0x20 ADD SWAP1 DUP2 MSTORE PUSH1 0x20 ADD PUSH1 0x0 KECCAK256 PUSH1 0x4 ADD DUP5 DUP5 DUP4 DUP2 DUP2 LT PUSH2 0x2BED JUMPI PUSH2 0x2BEC PUSH2 0x3C7C JUMP JUMPDEST JUMPDEST SWAP1 POP PUSH1 0x60 MUL ADD SWAP1 DUP1 PUSH1 0x1 DUP2 SLOAD ADD DUP1 DUP3 SSTORE DUP1 SWAP2 POP POP PUSH1 0x1 SWAP1 SUB SWAP1 PUSH1 0x0 MSTORE PUSH1 0x20 PUSH1 0x0 KECCAK256 SWAP1 PUSH1 0x3 MUL ADD PUSH1 0x0 SWAP1 SWAP2 SWAP1 SWAP2 SWAP1 SWAP2 POP DUP2 DUP2 PUSH2 0x2C28 SWAP2 SWAP1 PUSH2 0x49C2 JUMP JUMPDEST POP POP DUP1 DUP1 PUSH2 0x2C35 SWAP1 PUSH2 0x3D94 JUMP JUMPDEST SWAP2 POP POP PUSH2 0x2B85 JUMP JUMPDEST POP PUSH1 0x0 PUSH1 0x2 DUP2 GT ISZERO PUSH2 0x2C52 JUMPI PUSH2 0x2C51 PUSH2 0x3578 JUMP JUMPDEST JUMPDEST DUP2 PUSH32 0x15211D78A502C0EDD03F8CEFB0BA09C0BCDB3045A82C5D05DBDFFF58EFC82F03 PUSH1 0x40 MLOAD PUSH1 0x40 MLOAD DUP1 SWAP2 SUB SWAP1 LOG3 SWAP8 SWAP7 POP POP POP POP POP POP POP JUMP JUMPDEST PUSH2 0x2C92 PUSH2 0x307A JUMP JUMPDEST DUP1 PUSH20 0xFFFFFFFFFFFFFFFFFFFFFFFFFFFFFFFFFFFFFFFF AND PUSH4 0x1FFC9A7 PUSH32 0xCF44745F00000000000000000000000000000000000000000000000000000000 PUSH1 0x40 MLOAD DUP3 PUSH4 0xFFFFFFFF AND PUSH1 0xE0 SHL DUP2 MSTORE PUSH1 0x4 ADD PUSH2 0x2CEB SWAP2 SWAP1 PUSH2 0x4A0B JUMP JUMPDEST PUSH1 0x20 PUSH1 0x40 MLOAD DUP1 DUP4 SUB DUP2 DUP7 DUP1 EXTCODESIZE ISZERO DUP1 ISZERO PUSH2 0x2D03 JUMPI PUSH1 0x0 DUP1 REVERT JUMPDEST POP GAS STATICCALL ISZERO DUP1 ISZERO PUSH2 0x2D17 JUMPI RETURNDATASIZE PUSH1 0x0 DUP1 RETURNDATACOPY RETURNDATASIZE PUSH1 0x0 REVERT JUMPDEST POP POP POP POP PUSH1 0x40 MLOAD RETURNDATASIZE PUSH1 0x1F NOT PUSH1 0x1F DUP3 ADD AND DUP3 ADD DUP1 PUSH1 0x40 MSTORE POP DUP2 ADD SWAP1 PUSH2 0x2D3B SWAP2 SWAP1 PUSH2 0x42B1 JUMP JUMPDEST PUSH2 0x2D7A JUMPI PUSH1 0x40 MLOAD PUSH32 0x8C379A000000000000000000000000000000000000000000000000000000000 DUP2 MSTORE PUSH1 0x4 ADD PUSH2 0x2D71 SWAP1 PUSH2 0x4A98 JUMP JUMPDEST PUSH1 0x40 MLOAD DUP1 SWAP2 SUB SWAP1 REVERT JUMPDEST PUSH1 0x8 DUP2 SWAP1 DUP1 PUSH1 0x1 DUP2 SLOAD ADD DUP1 DUP3 SSTORE DUP1 SWAP2 POP POP PUSH1 0x1 SWAP1 SUB SWAP1 PUSH1 0x0 MSTORE PUSH1 0x20 PUSH1 0x0 KECCAK256 ADD PUSH1 0x0 SWAP1 SWAP2 SWAP1 SWAP2 SWAP1 SWAP2 PUSH2 0x100 EXP DUP2 SLOAD DUP2 PUSH20 0xFFFFFFFFFFFFFFFFFFFFFFFFFFFFFFFFFFFFFFFF MUL NOT AND SWAP1 DUP4 PUSH20 0xFFFFFFFFFFFFFFFFFFFFFFFFFFFFFFFFFFFFFFFF AND MUL OR SWAP1 SSTORE POP POP JUMP JUMPDEST PUSH2 0x2DE8 PUSH2 0x307A JUMP JUMPDEST DUP1 PUSH20 0xFFFFFFFFFFFFFFFFFFFFFFFFFFFFFFFFFFFFFFFF AND PUSH4 0x1FFC9A7 PUSH32 0xCF44745F00000000000000000000000000000000000000000000000000000000 PUSH1 0x40 MLOAD DUP3 PUSH4 0xFFFFFFFF AND PUSH1 0xE0 SHL DUP2 MSTORE PUSH1 0x4 ADD PUSH2 0x2E41 SWAP2 SWAP1 PUSH2 0x4A0B JUMP JUMPDEST PUSH1 0x20 PUSH1 0x40 MLOAD DUP1 DUP4 SUB DUP2 DUP7 DUP1 EXTCODESIZE ISZERO DUP1 ISZERO PUSH2 0x2E59 JUMPI PUSH1 0x0 DUP1 REVERT JUMPDEST POP GAS STATICCALL ISZERO DUP1 ISZERO PUSH2 0x2E6D JUMPI RETURNDATASIZE PUSH1 0x0 DUP1 RETURNDATACOPY RETURNDATASIZE PUSH1 0x0 REVERT JUMPDEST POP POP POP POP PUSH1 0x40 MLOAD RETURNDATASIZE PUSH1 0x1F NOT PUSH1 0x1F DUP3 ADD AND DUP3 ADD DUP1 PUSH1 0x40 MSTORE POP DUP2 ADD SWAP1 PUSH2 0x2E91 SWAP2 SWAP1 PUSH2 0x42B1 JUMP JUMPDEST PUSH2 0x2ED0 JUMPI PUSH1 0x40 MLOAD PUSH32 0x8C379A000000000000000000000000000000000000000000000000000000000 DUP2 MSTORE PUSH1 0x4 ADD PUSH2 0x2EC7 SWAP1 PUSH2 0x4A98 JUMP JUMPDEST PUSH1 0x40 MLOAD DUP1 SWAP2 SUB SWAP1 REVERT JUMPDEST PUSH1 0x0 JUMPDEST PUSH1 0x8 DUP1 SLOAD SWAP1 POP DUP2 LT ISZERO PUSH2 0x2FF2 JUMPI DUP2 PUSH20 0xFFFFFFFFFFFFFFFFFFFFFFFFFFFFFFFFFFFFFFFF AND PUSH1 0x8 DUP3 DUP2 SLOAD DUP2 LT PUSH2 0x2F0B JUMPI PUSH2 0x2F0A PUSH2 0x3C7C JUMP JUMPDEST JUMPDEST SWAP1 PUSH1 0x0 MSTORE PUSH1 0x20 PUSH1 0x0 KECCAK256 ADD PUSH1 0x0 SWAP1 SLOAD SWAP1 PUSH2 0x100 EXP SWAP1 DIV PUSH20 0xFFFFFFFFFFFFFFFFFFFFFFFFFFFFFFFFFFFFFFFF AND PUSH20 0xFFFFFFFFFFFFFFFFFFFFFFFFFFFFFFFFFFFFFFFF AND EQ ISZERO PUSH2 0x2FDF JUMPI PUSH1 0x8 DUP2 DUP2 SLOAD DUP2 LT PUSH2 0x2F66 JUMPI PUSH2 0x2F65 PUSH2 0x3C7C JUMP JUMPDEST JUMPDEST SWAP1 PUSH1 0x0 MSTORE PUSH1 0x20 PUSH1 0x0 KECCAK256 ADD PUSH1 0x0 PUSH2 0x100 EXP DUP2 SLOAD SWAP1 PUSH20 0xFFFFFFFFFFFFFFFFFFFFFFFFFFFFFFFFFFFFFFFF MUL NOT AND SWAP1 SSTORE PUSH1 0x8 DUP1 SLOAD DUP1 PUSH2 0x2FA5 JUMPI PUSH2 0x2FA4 PUSH2 0x40F5 JUMP JUMPDEST JUMPDEST PUSH1 0x1 SWAP1 SUB DUP2 DUP2 SWAP1 PUSH1 0x0 MSTORE PUSH1 0x20 PUSH1 0x0 KECCAK256 ADD PUSH1 0x0 PUSH2 0x100 EXP DUP2 SLOAD SWAP1 PUSH20 0xFFFFFFFFFFFFFFFFFFFFFFFFFFFFFFFFFFFFFFFF MUL NOT AND SWAP1 SSTORE SWAP1 SSTORE PUSH2 0x2FF2 JUMP JUMPDEST DUP1 DUP1 PUSH2 0x2FEA SWAP1 PUSH2 0x3D94 JUMP JUMPDEST SWAP2 POP POP PUSH2 0x2ED3 JUMP JUMPDEST POP POP JUMP JUMPDEST PUSH2 0x2FFE PUSH2 0x307A JUMP JUMPDEST PUSH1 0x0 PUSH20 0xFFFFFFFFFFFFFFFFFFFFFFFFFFFFFFFFFFFFFFFF AND DUP2 PUSH20 0xFFFFFFFFFFFFFFFFFFFFFFFFFFFFFFFFFFFFFFFF AND EQ ISZERO PUSH2 0x306E JUMPI PUSH1 0x40 MLOAD PUSH32 0x8C379A000000000000000000000000000000000000000000000000000000000 DUP2 MSTORE PUSH1 0x4 ADD PUSH2 0x3065 SWAP1 PUSH2 0x4B2A JUMP JUMPDEST PUSH1 0x40 MLOAD DUP1 SWAP2 SUB SWAP1 REVERT JUMPDEST PUSH2 0x3077 DUP2 PUSH2 0x3100 JUMP JUMPDEST POP JUMP JUMPDEST PUSH2 0x3082 PUSH2 0x30F8 JUMP JUMPDEST PUSH20 0xFFFFFFFFFFFFFFFFFFFFFFFFFFFFFFFFFFFFFFFF AND PUSH2 0x30A0 PUSH2 0x1BA7 JUMP JUMPDEST PUSH20 0xFFFFFFFFFFFFFFFFFFFFFFFFFFFFFFFFFFFFFFFF AND EQ PUSH2 0x30F6 JUMPI PUSH1 0x40 MLOAD PUSH32 0x8C379A000000000000000000000000000000000000000000000000000000000 DUP2 MSTORE PUSH1 0x4 ADD PUSH2 0x30ED SWAP1 PUSH2 0x4B96 JUMP JUMPDEST PUSH1 0x40 MLOAD DUP1 SWAP2 SUB SWAP1 REVERT JUMPDEST JUMP JUMPDEST PUSH1 0x0 CALLER SWAP1 POP SWAP1 JUMP JUMPDEST PUSH1 0x0 DUP1 PUSH1 0x0 SWAP1 SLOAD SWAP1 PUSH2 0x100 EXP SWAP1 DIV PUSH20 0xFFFFFFFFFFFFFFFFFFFFFFFFFFFFFFFFFFFFFFFF AND SWAP1 POP DUP2 PUSH1 0x0 DUP1 PUSH2 0x100 EXP DUP2 SLOAD DUP2 PUSH20 0xFFFFFFFFFFFFFFFFFFFFFFFFFFFFFFFFFFFFFFFF MUL NOT AND SWAP1 DUP4 PUSH20 0xFFFFFFFFFFFFFFFFFFFFFFFFFFFFFFFFFFFFFFFF AND MUL OR SWAP1 SSTORE POP DUP2 PUSH20 0xFFFFFFFFFFFFFFFFFFFFFFFFFFFFFFFFFFFFFFFF AND DUP2 PUSH20 0xFFFFFFFFFFFFFFFFFFFFFFFFFFFFFFFFFFFFFFFF AND PUSH32 0x8BE0079C531659141344CD1FD0A4F28419497F9722A3DAAFE3B4186F6B6457E0 PUSH1 0x40 MLOAD PUSH1 0x40 MLOAD DUP1 SWAP2 SUB SWAP1 LOG3 POP POP JUMP JUMPDEST PUSH1 0x0 DUP2 PUSH1 0x0 ADD SLOAD SWAP1 POP SWAP2 SWAP1 POP JUMP JUMPDEST PUSH1 0x1 DUP2 PUSH1 0x0 ADD PUSH1 0x0 DUP3 DUP3 SLOAD ADD SWAP3 POP POP DUP2 SWAP1 SSTORE POP POP JUMP JUMPDEST PUSH1 0x40 MLOAD DUP1 PUSH1 0xC0 ADD PUSH1 0x40 MSTORE DUP1 PUSH1 0x0 DUP2 MSTORE PUSH1 0x20 ADD PUSH1 0x0 PUSH1 0x2 DUP2 GT ISZERO PUSH2 0x320E JUMPI PUSH2 0x320D PUSH2 0x3578 JUMP JUMPDEST JUMPDEST DUP2 MSTORE PUSH1 0x20 ADD PUSH1 0x0 PUSH20 0xFFFFFFFFFFFFFFFFFFFFFFFFFFFFFFFFFFFFFFFF AND DUP2 MSTORE PUSH1 0x20 ADD PUSH1 0x60 DUP2 MSTORE PUSH1 0x20 ADD PUSH1 0x60 DUP2 MSTORE PUSH1 0x20 ADD PUSH1 0x60 DUP2 MSTORE POP SWAP1 JUMP JUMPDEST PUSH1 0x0 DUP1 REVERT JUMPDEST PUSH1 0x0 DUP1 REVERT JUMPDEST PUSH1 0x0 PUSH20 0xFFFFFFFFFFFFFFFFFFFFFFFFFFFFFFFFFFFFFFFF DUP3 AND SWAP1 POP SWAP2 SWAP1 POP JUMP JUMPDEST PUSH1 0x0 PUSH2 0x327B DUP3 PUSH2 0x3250 JUMP JUMPDEST SWAP1 POP SWAP2 SWAP1 POP JUMP JUMPDEST PUSH2 0x328B DUP2 PUSH2 0x3270 JUMP JUMPDEST DUP2 EQ PUSH2 0x3296 JUMPI PUSH1 0x0 DUP1 REVERT JUMPDEST POP JUMP JUMPDEST PUSH1 0x0 DUP2 CALLDATALOAD SWAP1 POP PUSH2 0x32A8 DUP2 PUSH2 0x3282 JUMP JUMPDEST SWAP3 SWAP2 POP POP JUMP JUMPDEST PUSH1 0x0 PUSH1 0x20 DUP3 DUP5 SUB SLT ISZERO PUSH2 0x32C4 JUMPI PUSH2 0x32C3 PUSH2 0x3246 JUMP JUMPDEST JUMPDEST PUSH1 0x0 PUSH2 0x32D2 DUP5 DUP3 DUP6 ADD PUSH2 0x3299 JUMP JUMPDEST SWAP2 POP POP SWAP3 SWAP2 POP POP JUMP JUMPDEST PUSH1 0x0 DUP2 MLOAD SWAP1 POP SWAP2 SWAP1 POP JUMP JUMPDEST PUSH1 0x0 DUP3 DUP3 MSTORE PUSH1 0x20 DUP3 ADD SWAP1 POP SWAP3 SWAP2 POP POP JUMP JUMPDEST PUSH1 0x0 DUP2 SWAP1 POP PUSH1 0x20 DUP3 ADD SWAP1 POP SWAP2 SWAP1 POP JUMP JUMPDEST PUSH1 0x0 DUP2 SWAP1 POP SWAP2 SWAP1 POP JUMP JUMPDEST PUSH2 0x331A DUP2 PUSH2 0x3307 JUMP JUMPDEST DUP3 MSTORE POP POP JUMP JUMPDEST PUSH1 0x0 PUSH2 0x332C DUP4 DUP4 PUSH2 0x3311 JUMP JUMPDEST PUSH1 0x20 DUP4 ADD SWAP1 POP SWAP3 SWAP2 POP POP JUMP JUMPDEST PUSH1 0x0 PUSH1 0x20 DUP3 ADD SWAP1 POP SWAP2 SWAP1 POP JUMP JUMPDEST PUSH1 0x0 PUSH2 0x3350 DUP3 PUSH2 0x32DB JUMP JUMPDEST PUSH2 0x335A DUP2 DUP6 PUSH2 0x32E6 JUMP JUMPDEST SWAP4 POP PUSH2 0x3365 DUP4 PUSH2 0x32F7 JUMP JUMPDEST DUP1 PUSH1 0x0 JUMPDEST DUP4 DUP2 LT ISZERO PUSH2 0x3396 JUMPI DUP2 MLOAD PUSH2 0x337D DUP9 DUP3 PUSH2 0x3320 JUMP JUMPDEST SWAP8 POP PUSH2 0x3388 DUP4 PUSH2 0x3338 JUMP JUMPDEST SWAP3 POP POP PUSH1 0x1 DUP2 ADD SWAP1 POP PUSH2 0x3369 JUMP JUMPDEST POP DUP6 SWAP4 POP POP POP POP SWAP3 SWAP2 POP POP JUMP JUMPDEST PUSH1 0x0 PUSH1 0x20 DUP3 ADD SWAP1 POP DUP2 DUP2 SUB PUSH1 0x0 DUP4 ADD MSTORE PUSH2 0x33BD DUP2 DUP5 PUSH2 0x3345 JUMP JUMPDEST SWAP1 POP SWAP3 SWAP2 POP POP JUMP JUMPDEST PUSH2 0x33CE DUP2 PUSH2 0x3307 JUMP JUMPDEST DUP3 MSTORE POP POP JUMP JUMPDEST PUSH1 0x0 PUSH1 0x20 DUP3 ADD SWAP1 POP PUSH2 0x33E9 PUSH1 0x0 DUP4 ADD DUP5 PUSH2 0x33C5 JUMP JUMPDEST SWAP3 SWAP2 POP POP JUMP JUMPDEST PUSH2 0x33F8 DUP2 PUSH2 0x3307 JUMP JUMPDEST DUP2 EQ PUSH2 0x3403 JUMPI PUSH1 0x0 DUP1 REVERT JUMPDEST POP JUMP JUMPDEST PUSH1 0x0 DUP2 CALLDATALOAD SWAP1 POP PUSH2 0x3415 DUP2 PUSH2 0x33EF JUMP JUMPDEST SWAP3 SWAP2 POP POP JUMP JUMPDEST PUSH1 0x0 PUSH1 0x20 DUP3 DUP5 SUB SLT ISZERO PUSH2 0x3431 JUMPI PUSH2 0x3430 PUSH2 0x3246 JUMP JUMPDEST JUMPDEST PUSH1 0x0 PUSH2 0x343F DUP5 DUP3 DUP6 ADD PUSH2 0x3406 JUMP JUMPDEST SWAP2 POP POP SWAP3 SWAP2 POP POP JUMP JUMPDEST PUSH1 0x0 DUP2 MLOAD SWAP1 POP SWAP2 SWAP1 POP JUMP JUMPDEST PUSH1 0x0 DUP3 DUP3 MSTORE PUSH1 0x20 DUP3 ADD SWAP1 POP SWAP3 SWAP2 POP POP JUMP JUMPDEST PUSH1 0x0 DUP2 SWAP1 POP PUSH1 0x20 DUP3 ADD SWAP1 POP SWAP2 SWAP1 POP JUMP JUMPDEST PUSH1 0x0 DUP2 SWAP1 POP SWAP2 SWAP1 POP JUMP JUMPDEST PUSH1 0x0 PUSH2 0x3499 PUSH2 0x3494 PUSH2 0x348F DUP5 PUSH2 0x3250 JUMP JUMPDEST PUSH2 0x3474 JUMP JUMPDEST PUSH2 0x3250 JUMP JUMPDEST SWAP1 POP SWAP2 SWAP1 POP JUMP JUMPDEST PUSH1 0x0 PUSH2 0x34AB DUP3 PUSH2 0x347E JUMP JUMPDEST SWAP1 POP SWAP2 SWAP1 POP JUMP JUMPDEST PUSH1 0x0 PUSH2 0x34BD DUP3 PUSH2 0x34A0 JUMP JUMPDEST SWAP1 POP SWAP2 SWAP1 POP JUMP JUMPDEST PUSH2 0x34CD DUP2 PUSH2 0x34B2 JUMP JUMPDEST DUP3 MSTORE POP POP JUMP JUMPDEST PUSH1 0x0 PUSH2 0x34DF DUP4 DUP4 PUSH2 0x34C4 JUMP JUMPDEST PUSH1 0x20 DUP4 ADD SWAP1 POP SWAP3 SWAP2 POP POP JUMP JUMPDEST PUSH1 0x0 PUSH1 0x20 DUP3 ADD SWAP1 POP SWAP2 SWAP1 POP JUMP JUMPDEST PUSH1 0x0 PUSH2 0x3503 DUP3 PUSH2 0x3448 JUMP JUMPDEST PUSH2 0x350D DUP2 DUP6 PUSH2 0x3453 JUMP JUMPDEST SWAP4 POP PUSH2 0x3518 DUP4 PUSH2 0x3464 JUMP JUMPDEST DUP1 PUSH1 0x0 JUMPDEST DUP4 DUP2 LT ISZERO PUSH2 0x3549 JUMPI DUP2 MLOAD PUSH2 0x3530 DUP9 DUP3 PUSH2 0x34D3 JUMP JUMPDEST SWAP8 POP PUSH2 0x353B DUP4 PUSH2 0x34EB JUMP JUMPDEST SWAP3 POP POP PUSH1 0x1 DUP2 ADD SWAP1 POP PUSH2 0x351C JUMP JUMPDEST POP DUP6 SWAP4 POP POP POP POP SWAP3 SWAP2 POP POP JUMP JUMPDEST PUSH1 0x0 PUSH1 0x20 DUP3 ADD SWAP1 POP DUP2 DUP2 SUB PUSH1 0x0 DUP4 ADD MSTORE PUSH2 0x3570 DUP2 DUP5 PUSH2 0x34F8 JUMP JUMPDEST SWAP1 POP SWAP3 SWAP2 POP POP JUMP JUMPDEST PUSH32 0x4E487B7100000000000000000000000000000000000000000000000000000000 PUSH1 0x0 MSTORE PUSH1 0x21 PUSH1 0x4 MSTORE PUSH1 0x24 PUSH1 0x0 REVERT JUMPDEST PUSH1 0x3 DUP2 LT PUSH2 0x35B8 JUMPI PUSH2 0x35B7 PUSH2 0x3578 JUMP JUMPDEST JUMPDEST POP JUMP JUMPDEST PUSH1 0x0 DUP2 SWAP1 POP PUSH2 0x35C9 DUP3 PUSH2 0x35A7 JUMP JUMPDEST SWAP2 SWAP1 POP JUMP JUMPDEST PUSH1 0x0 PUSH2 0x35D9 DUP3 PUSH2 0x35BB JUMP JUMPDEST SWAP1 POP SWAP2 SWAP1 POP JUMP JUMPDEST PUSH2 0x35E9 DUP2 PUSH2 0x35CE JUMP JUMPDEST DUP3 MSTORE POP POP JUMP JUMPDEST PUSH2 0x35F8 DUP2 PUSH2 0x3270 JUMP JUMPDEST DUP3 MSTORE POP POP JUMP JUMPDEST PUSH1 0x0 DUP2 MLOAD SWAP1 POP SWAP2 SWAP1 POP JUMP JUMPDEST PUSH1 0x0 DUP3 DUP3 MSTORE PUSH1 0x20 DUP3 ADD SWAP1 POP SWAP3 SWAP2 POP POP JUMP JUMPDEST PUSH1 0x0 DUP2 SWAP1 POP PUSH1 0x20 DUP3 ADD SWAP1 POP SWAP2 SWAP1 POP JUMP JUMPDEST PUSH1 0x0 DUP2 SWAP1 POP SWAP2 SWAP1 POP JUMP JUMPDEST PUSH2 0x363D DUP2 PUSH2 0x362A JUMP JUMPDEST DUP3 MSTORE POP POP JUMP JUMPDEST PUSH1 0x60 DUP3 ADD PUSH1 0x0 DUP3 ADD MLOAD PUSH2 0x3659 PUSH1 0x0 DUP6 ADD DUP3 PUSH2 0x35EF JUMP JUMPDEST POP PUSH1 0x20 DUP3 ADD MLOAD PUSH2 0x366C PUSH1 0x20 DUP6 ADD DUP3 PUSH2 0x3634 JUMP JUMPDEST POP PUSH1 0x40 DUP3 ADD MLOAD PUSH2 0x367F PUSH1 0x40 DUP6 ADD DUP3 PUSH2 0x3311 JUMP JUMPDEST POP POP POP POP JUMP JUMPDEST PUSH1 0x0 PUSH2 0x3691 DUP4 DUP4 PUSH2 0x3643 JUMP JUMPDEST PUSH1 0x60 DUP4 ADD SWAP1 POP SWAP3 SWAP2 POP POP JUMP JUMPDEST PUSH1 0x0 PUSH1 0x20 DUP3 ADD SWAP1 POP SWAP2 SWAP1 POP JUMP JUMPDEST PUSH1 0x0 PUSH2 0x36B5 DUP3 PUSH2 0x35FE JUMP JUMPDEST PUSH2 0x36BF DUP2 DUP6 PUSH2 0x3609 JUMP JUMPDEST SWAP4 POP PUSH2 0x36CA DUP4 PUSH2 0x361A JUMP JUMPDEST DUP1 PUSH1 0x0 JUMPDEST DUP4 DUP2 LT ISZERO PUSH2 0x36FB JUMPI DUP2 MLOAD PUSH2 0x36E2 DUP9 DUP3 PUSH2 0x3685 JUMP JUMPDEST SWAP8 POP PUSH2 0x36ED DUP4 PUSH2 0x369D JUMP JUMPDEST SWAP3 POP POP PUSH1 0x1 DUP2 ADD SWAP1 POP PUSH2 0x36CE JUMP JUMPDEST POP DUP6 SWAP4 POP POP POP POP SWAP3 SWAP2 POP POP JUMP JUMPDEST PUSH1 0x0 DUP2 MLOAD SWAP1 POP SWAP2 SWAP1 POP JUMP JUMPDEST PUSH1 0x0 DUP3 DUP3 MSTORE PUSH1 0x20 DUP3 ADD SWAP1 POP SWAP3 SWAP2 POP POP JUMP JUMPDEST PUSH1 0x0 DUP2 SWAP1 POP PUSH1 0x20 DUP3 ADD SWAP1 POP SWAP2 SWAP1 POP JUMP JUMPDEST PUSH1 0x0 PUSH2 0x3740 DUP4 DUP4 PUSH2 0x35EF JUMP JUMPDEST PUSH1 0x20 DUP4 ADD SWAP1 POP SWAP3 SWAP2 POP POP JUMP JUMPDEST PUSH1 0x0 PUSH1 0x20 DUP3 ADD SWAP1 POP SWAP2 SWAP1 POP JUMP JUMPDEST PUSH1 0x0 PUSH2 0x3764 DUP3 PUSH2 0x3708 JUMP JUMPDEST PUSH2 0x376E DUP2 DUP6 PUSH2 0x3713 JUMP JUMPDEST SWAP4 POP PUSH2 0x3779 DUP4 PUSH2 0x3724 JUMP JUMPDEST DUP1 PUSH1 0x0 JUMPDEST DUP4 DUP2 LT ISZERO PUSH2 0x37AA JUMPI DUP2 MLOAD PUSH2 0x3791 DUP9 DUP3 PUSH2 0x3734 JUMP JUMPDEST SWAP8 POP PUSH2 0x379C DUP4 PUSH2 0x374C JUMP JUMPDEST SWAP3 POP POP PUSH1 0x1 DUP2 ADD SWAP1 POP PUSH2 0x377D JUMP JUMPDEST POP DUP6 SWAP4 POP POP POP POP SWAP3 SWAP2 POP POP JUMP JUMPDEST PUSH1 0x0 PUSH1 0xC0 DUP4 ADD PUSH1 0x0 DUP4 ADD MLOAD PUSH2 0x37CF PUSH1 0x0 DUP7 ADD DUP3 PUSH2 0x3311 JUMP JUMPDEST POP PUSH1 0x20 DUP4 ADD MLOAD PUSH2 0x37E2 PUSH1 0x20 DUP7 ADD DUP3 PUSH2 0x35E0 JUMP JUMPDEST POP PUSH1 0x40 DUP4 ADD MLOAD PUSH2 0x37F5 PUSH1 0x40 DUP7 ADD DUP3 PUSH2 0x35EF JUMP JUMPDEST POP PUSH1 0x60 DUP4 ADD MLOAD DUP5 DUP3 SUB PUSH1 0x60 DUP7 ADD MSTORE PUSH2 0x380D DUP3 DUP3 PUSH2 0x36AA JUMP JUMPDEST SWAP2 POP POP PUSH1 0x80 DUP4 ADD MLOAD DUP5 DUP3 SUB PUSH1 0x80 DUP7 ADD MSTORE PUSH2 0x3827 DUP3 DUP3 PUSH2 0x3759 JUMP JUMPDEST SWAP2 POP POP PUSH1 0xA0 DUP4 ADD MLOAD DUP5 DUP3 SUB PUSH1 0xA0 DUP7 ADD MSTORE PUSH2 0x3841 DUP3 DUP3 PUSH2 0x36AA JUMP JUMPDEST SWAP2 POP POP DUP1 SWAP2 POP POP SWAP3 SWAP2 POP POP JUMP JUMPDEST PUSH1 0x0 PUSH1 0x20 DUP3 ADD SWAP1 POP DUP2 DUP2 SUB PUSH1 0x0 DUP4 ADD MSTORE PUSH2 0x3868 DUP2 DUP5 PUSH2 0x37B7 JUMP JUMPDEST SWAP1 POP SWAP3 SWAP2 POP POP JUMP JUMPDEST PUSH1 0x0 DUP1 PUSH1 0x40 DUP4 DUP6 SUB SLT ISZERO PUSH2 0x3887 JUMPI PUSH2 0x3886 PUSH2 0x3246 JUMP JUMPDEST JUMPDEST PUSH1 0x0 PUSH2 0x3895 DUP6 DUP3 DUP7 ADD PUSH2 0x3299 JUMP JUMPDEST SWAP3 POP POP PUSH1 0x20 PUSH2 0x38A6 DUP6 DUP3 DUP7 ADD PUSH2 0x3406 JUMP JUMPDEST SWAP2 POP POP SWAP3 POP SWAP3 SWAP1 POP JUMP JUMPDEST PUSH1 0x0 DUP2 ISZERO ISZERO SWAP1 POP SWAP2 SWAP1 POP JUMP JUMPDEST PUSH2 0x38C5 DUP2 PUSH2 0x38B0 JUMP JUMPDEST DUP2 EQ PUSH2 0x38D0 JUMPI PUSH1 0x0 DUP1 REVERT JUMPDEST POP JUMP JUMPDEST PUSH1 0x0 DUP2 CALLDATALOAD SWAP1 POP PUSH2 0x38E2 DUP2 PUSH2 0x38BC JUMP JUMPDEST SWAP3 SWAP2 POP POP JUMP JUMPDEST PUSH1 0x0 DUP1 PUSH1 0x0 PUSH1 0x60 DUP5 DUP7 SUB SLT ISZERO PUSH2 0x3901 JUMPI PUSH2 0x3900 PUSH2 0x3246 JUMP JUMPDEST JUMPDEST PUSH1 0x0 PUSH2 0x390F DUP7 DUP3 DUP8 ADD PUSH2 0x3406 JUMP JUMPDEST SWAP4 POP POP PUSH1 0x20 PUSH2 0x3920 DUP7 DUP3 DUP8 ADD PUSH2 0x3299 JUMP JUMPDEST SWAP3 POP POP PUSH1 0x40 PUSH2 0x3931 DUP7 DUP3 DUP8 ADD PUSH2 0x38D3 JUMP JUMPDEST SWAP2 POP POP SWAP3 POP SWAP3 POP SWAP3 JUMP JUMPDEST PUSH2 0x3944 DUP2 PUSH2 0x3270 JUMP JUMPDEST DUP3 MSTORE POP POP JUMP JUMPDEST PUSH1 0x0 PUSH1 0x20 DUP3 ADD SWAP1 POP PUSH2 0x395F PUSH1 0x0 DUP4 ADD DUP5 PUSH2 0x393B JUMP JUMPDEST SWAP3 SWAP2 POP POP JUMP JUMPDEST PUSH1 0x0 PUSH2 0x3970 DUP3 PUSH2 0x3708 JUMP JUMPDEST PUSH2 0x397A DUP2 DUP6 PUSH2 0x3453 JUMP JUMPDEST SWAP4 POP PUSH2 0x3985 DUP4 PUSH2 0x3724 JUMP JUMPDEST DUP1 PUSH1 0x0 JUMPDEST DUP4 DUP2 LT ISZERO PUSH2 0x39B6 JUMPI DUP2 MLOAD PUSH2 0x399D DUP9 DUP3 PUSH2 0x3734 JUMP JUMPDEST SWAP8 POP PUSH2 0x39A8 DUP4 PUSH2 0x374C JUMP JUMPDEST SWAP3 POP POP PUSH1 0x1 DUP2 ADD SWAP1 POP PUSH2 0x3989 JUMP JUMPDEST POP DUP6 SWAP4 POP POP POP POP SWAP3 SWAP2 POP POP JUMP JUMPDEST PUSH1 0x0 PUSH1 0x20 DUP3 ADD SWAP1 POP DUP2 DUP2 SUB PUSH1 0x0 DUP4 ADD MSTORE PUSH2 0x39DD DUP2 DUP5 PUSH2 0x3965 JUMP JUMPDEST SWAP1 POP SWAP3 SWAP2 POP POP JUMP JUMPDEST PUSH2 0x39EE DUP2 PUSH2 0x34B2 JUMP JUMPDEST DUP3 MSTORE POP POP JUMP JUMPDEST PUSH1 0x0 PUSH1 0x20 DUP3 ADD SWAP1 POP PUSH2 0x3A09 PUSH1 0x0 DUP4 ADD DUP5 PUSH2 0x39E5 JUMP JUMPDEST SWAP3 SWAP2 POP POP JUMP JUMPDEST PUSH1 0x0 DUP1 REVERT JUMPDEST PUSH1 0x0 DUP1 REVERT JUMPDEST PUSH1 0x0 DUP1 REVERT JUMPDEST PUSH1 0x0 DUP1 DUP4 PUSH1 0x1F DUP5 ADD SLT PUSH2 0x3A34 JUMPI PUSH2 0x3A33 PUSH2 0x3A0F JUMP JUMPDEST JUMPDEST DUP3 CALLDATALOAD SWAP1 POP PUSH8 0xFFFFFFFFFFFFFFFF DUP2 GT ISZERO PUSH2 0x3A51 JUMPI PUSH2 0x3A50 PUSH2 0x3A14 JUMP JUMPDEST JUMPDEST PUSH1 0x20 DUP4 ADD SWAP2 POP DUP4 PUSH1 0x60 DUP3 MUL DUP4 ADD GT ISZERO PUSH2 0x3A6D JUMPI PUSH2 0x3A6C PUSH2 0x3A19 JUMP JUMPDEST JUMPDEST SWAP3 POP SWAP3 SWAP1 POP JUMP JUMPDEST PUSH1 0x0 DUP1 DUP4 PUSH1 0x1F DUP5 ADD SLT PUSH2 0x3A8A JUMPI PUSH2 0x3A89 PUSH2 0x3A0F JUMP JUMPDEST JUMPDEST DUP3 CALLDATALOAD SWAP1 POP PUSH8 0xFFFFFFFFFFFFFFFF DUP2 GT ISZERO PUSH2 0x3AA7 JUMPI PUSH2 0x3AA6 PUSH2 0x3A14 JUMP JUMPDEST JUMPDEST PUSH1 0x20 DUP4 ADD SWAP2 POP DUP4 PUSH1 0x20 DUP3 MUL DUP4 ADD GT ISZERO PUSH2 0x3AC3 JUMPI PUSH2 0x3AC2 PUSH2 0x3A19 JUMP JUMPDEST JUMPDEST SWAP3 POP SWAP3 SWAP1 POP JUMP JUMPDEST PUSH1 0x0 DUP1 PUSH1 0x0 DUP1 PUSH1 0x0 DUP1 PUSH1 0x0 PUSH1 0x80 DUP9 DUP11 SUB SLT ISZERO PUSH2 0x3AE9 JUMPI PUSH2 0x3AE8 PUSH2 0x3246 JUMP JUMPDEST JUMPDEST PUSH1 0x0 PUSH2 0x3AF7 DUP11 DUP3 DUP12 ADD PUSH2 0x3299 JUMP JUMPDEST SWAP8 POP POP PUSH1 0x20 DUP9 ADD CALLDATALOAD PUSH8 0xFFFFFFFFFFFFFFFF DUP2 GT ISZERO PUSH2 0x3B18 JUMPI PUSH2 0x3B17 PUSH2 0x324B JUMP JUMPDEST JUMPDEST PUSH2 0x3B24 DUP11 DUP3 DUP12 ADD PUSH2 0x3A1E JUMP JUMPDEST SWAP7 POP SWAP7 POP POP PUSH1 0x40 DUP9 ADD CALLDATALOAD PUSH8 0xFFFFFFFFFFFFFFFF DUP2 GT ISZERO PUSH2 0x3B47 JUMPI PUSH2 0x3B46 PUSH2 0x324B JUMP JUMPDEST JUMPDEST PUSH2 0x3B53 DUP11 DUP3 DUP12 ADD PUSH2 0x3A74 JUMP JUMPDEST SWAP5 POP SWAP5 POP POP PUSH1 0x60 DUP9 ADD CALLDATALOAD PUSH8 0xFFFFFFFFFFFFFFFF DUP2 GT ISZERO PUSH2 0x3B76 JUMPI PUSH2 0x3B75 PUSH2 0x324B JUMP JUMPDEST JUMPDEST PUSH2 0x3B82 DUP11 DUP3 DUP12 ADD PUSH2 0x3A1E JUMP JUMPDEST SWAP3 POP SWAP3 POP POP SWAP3 SWAP6 SWAP9 SWAP2 SWAP5 SWAP8 POP SWAP3 SWAP6 POP JUMP JUMPDEST PUSH1 0x0 DUP3 DUP3 MSTORE PUSH1 0x20 DUP3 ADD SWAP1 POP SWAP3 SWAP2 POP POP JUMP JUMPDEST PUSH32 0x4E4654537761707065723A206E6F74206120636F6E7472696275746F72000000 PUSH1 0x0 DUP3 ADD MSTORE POP JUMP JUMPDEST PUSH1 0x0 PUSH2 0x3BDA PUSH1 0x1D DUP4 PUSH2 0x3B93 JUMP JUMPDEST SWAP2 POP PUSH2 0x3BE5 DUP3 PUSH2 0x3BA4 JUMP JUMPDEST PUSH1 0x20 DUP3 ADD SWAP1 POP SWAP2 SWAP1 POP JUMP JUMPDEST PUSH1 0x0 PUSH1 0x20 DUP3 ADD SWAP1 POP DUP2 DUP2 SUB PUSH1 0x0 DUP4 ADD MSTORE PUSH2 0x3C09 DUP2 PUSH2 0x3BCD JUMP JUMPDEST SWAP1 POP SWAP2 SWAP1 POP JUMP JUMPDEST PUSH32 0x4E4654537761707065723A2077697468647261773A206E6F2062616C616E6365 PUSH1 0x0 DUP3 ADD MSTORE POP JUMP JUMPDEST PUSH1 0x0 PUSH2 0x3C46 PUSH1 0x20 DUP4 PUSH2 0x3B93 JUMP JUMPDEST SWAP2 POP PUSH2 0x3C51 DUP3 PUSH2 0x3C10 JUMP JUMPDEST PUSH1 0x20 DUP3 ADD SWAP1 POP SWAP2 SWAP1 POP JUMP JUMPDEST PUSH1 0x0 PUSH1 0x20 DUP3 ADD SWAP1 POP DUP2 DUP2 SUB PUSH1 0x0 DUP4 ADD MSTORE PUSH2 0x3C75 DUP2 PUSH2 0x3C39 JUMP JUMPDEST SWAP1 POP SWAP2 SWAP1 POP JUMP JUMPDEST PUSH32 0x4E487B7100000000000000000000000000000000000000000000000000000000 PUSH1 0x0 MSTORE PUSH1 0x32 PUSH1 0x4 MSTORE PUSH1 0x24 PUSH1 0x0 REVERT JUMPDEST PUSH32 0x4E487B7100000000000000000000000000000000000000000000000000000000 PUSH1 0x0 MSTORE PUSH1 0x11 PUSH1 0x4 MSTORE PUSH1 0x24 PUSH1 0x0 REVERT JUMPDEST PUSH1 0x0 PUSH2 0x3CE5 DUP3 PUSH2 0x3307 JUMP JUMPDEST SWAP2 POP PUSH2 0x3CF0 DUP4 PUSH2 0x3307 JUMP JUMPDEST SWAP3 POP DUP2 PUSH32 0xFFFFFFFFFFFFFFFFFFFFFFFFFFFFFFFFFFFFFFFFFFFFFFFFFFFFFFFFFFFFFFFF DIV DUP4 GT DUP3 ISZERO ISZERO AND ISZERO PUSH2 0x3D29 JUMPI PUSH2 0x3D28 PUSH2 0x3CAB JUMP JUMPDEST JUMPDEST DUP3 DUP3 MUL SWAP1 POP SWAP3 SWAP2 POP POP JUMP JUMPDEST PUSH32 0x4E487B7100000000000000000000000000000000000000000000000000000000 PUSH1 0x0 MSTORE PUSH1 0x12 PUSH1 0x4 MSTORE PUSH1 0x24 PUSH1 0x0 REVERT JUMPDEST PUSH1 0x0 PUSH2 0x3D6E DUP3 PUSH2 0x3307 JUMP JUMPDEST SWAP2 POP PUSH2 0x3D79 DUP4 PUSH2 0x3307 JUMP JUMPDEST SWAP3 POP DUP3 PUSH2 0x3D89 JUMPI PUSH2 0x3D88 PUSH2 0x3D34 JUMP JUMPDEST JUMPDEST DUP3 DUP3 DIV SWAP1 POP SWAP3 SWAP2 POP POP JUMP JUMPDEST PUSH1 0x0 PUSH2 0x3D9F DUP3 PUSH2 0x3307 JUMP JUMPDEST SWAP2 POP PUSH32 0xFFFFFFFFFFFFFFFFFFFFFFFFFFFFFFFFFFFFFFFFFFFFFFFFFFFFFFFFFFFFFFFF DUP3 EQ ISZERO PUSH2 0x3DD2 JUMPI PUSH2 0x3DD1 PUSH2 0x3CAB JUMP JUMPDEST JUMPDEST PUSH1 0x1 DUP3 ADD SWAP1 POP SWAP2 SWAP1 POP JUMP JUMPDEST PUSH32 0x4E4654537761707065723A20696420646F6573206E6F74206578697374000000 PUSH1 0x0 DUP3 ADD MSTORE POP JUMP JUMPDEST PUSH1 0x0 PUSH2 0x3E13 PUSH1 0x1D DUP4 PUSH2 0x3B93 JUMP JUMPDEST SWAP2 POP PUSH2 0x3E1E DUP3 PUSH2 0x3DDD JUMP JUMPDEST PUSH1 0x20 DUP3 ADD SWAP1 POP SWAP2 SWAP1 POP JUMP JUMPDEST PUSH1 0x0 PUSH1 0x20 DUP3 ADD SWAP1 POP DUP2 DUP2 SUB PUSH1 0x0 DUP4 ADD MSTORE PUSH2 0x3E42 DUP2 PUSH2 0x3E06 JUMP JUMPDEST SWAP1 POP SWAP2 SWAP1 POP JUMP JUMPDEST PUSH32 0x4E4654537761707065723A206E6F742074686520626964646572000000000000 PUSH1 0x0 DUP3 ADD MSTORE POP JUMP JUMPDEST PUSH1 0x0 PUSH2 0x3E7F PUSH1 0x1A DUP4 PUSH2 0x3B93 JUMP JUMPDEST SWAP2 POP PUSH2 0x3E8A DUP3 PUSH2 0x3E49 JUMP JUMPDEST PUSH1 0x20 DUP3 ADD SWAP1 POP SWAP2 SWAP1 POP JUMP JUMPDEST PUSH1 0x0 PUSH1 0x20 DUP3 ADD SWAP1 POP DUP2 DUP2 SUB PUSH1 0x0 DUP4 ADD MSTORE PUSH2 0x3EAE DUP2 PUSH2 0x3E72 JUMP JUMPDEST SWAP1 POP SWAP2 SWAP1 POP JUMP JUMPDEST PUSH32 0x4E4654537761707065723A207377617020697320636F6D706C65746564206F72 PUSH1 0x0 DUP3 ADD MSTORE PUSH32 0x2063616E63656C6C656400000000000000000000000000000000000000000000 PUSH1 0x20 DUP3 ADD MSTORE POP JUMP JUMPDEST PUSH1 0x0 PUSH2 0x3F11 PUSH1 0x2A DUP4 PUSH2 0x3B93 JUMP JUMPDEST SWAP2 POP PUSH2 0x3F1C DUP3 PUSH2 0x3EB5 JUMP JUMPDEST PUSH1 0x40 DUP3 ADD SWAP1 POP SWAP2 SWAP1 POP JUMP JUMPDEST PUSH1 0x0 PUSH1 0x20 DUP3 ADD SWAP1 POP DUP2 DUP2 SUB PUSH1 0x0 DUP4 ADD MSTORE PUSH2 0x3F40 DUP2 PUSH2 0x3F04 JUMP JUMPDEST SWAP1 POP SWAP2 SWAP1 POP JUMP JUMPDEST PUSH32 0x4E4654537761707065723A20736574436F6E7472696275746F723A20636F6E74 PUSH1 0x0 DUP3 ADD MSTORE PUSH32 0x72696275746F722061646472657373206973206E6F74206120454F4100000000 PUSH1 0x20 DUP3 ADD MSTORE POP JUMP JUMPDEST PUSH1 0x0 PUSH2 0x3FA3 PUSH1 0x3C DUP4 PUSH2 0x3B93 JUMP JUMPDEST SWAP2 POP PUSH2 0x3FAE DUP3 PUSH2 0x3F47 JUMP JUMPDEST PUSH1 0x40 DUP3 ADD SWAP1 POP SWAP2 SWAP1 POP JUMP JUMPDEST PUSH1 0x0 PUSH1 0x20 DUP3 ADD SWAP1 POP DUP2 DUP2 SUB PUSH1 0x0 DUP4 ADD MSTORE PUSH2 0x3FD2 DUP2 PUSH2 0x3F96 JUMP JUMPDEST SWAP1 POP SWAP2 SWAP1 POP JUMP JUMPDEST PUSH1 0x0 PUSH2 0x3FE4 DUP3 PUSH2 0x3307 JUMP JUMPDEST SWAP2 POP PUSH2 0x3FEF DUP4 PUSH2 0x3307 JUMP JUMPDEST SWAP3 POP DUP3 DUP3 LT ISZERO PUSH2 0x4002 JUMPI PUSH2 0x4001 PUSH2 0x3CAB JUMP JUMPDEST JUMPDEST DUP3 DUP3 SUB SWAP1 POP SWAP3 SWAP2 POP POP JUMP JUMPDEST PUSH1 0x0 PUSH2 0x4018 DUP3 PUSH2 0x3307 JUMP JUMPDEST SWAP2 POP PUSH2 0x4023 DUP4 PUSH2 0x3307 JUMP JUMPDEST SWAP3 POP DUP3 PUSH32 0xFFFFFFFFFFFFFFFFFFFFFFFFFFFFFFFFFFFFFFFFFFFFFFFFFFFFFFFFFFFFFFFF SUB DUP3 GT ISZERO PUSH2 0x4058 JUMPI PUSH2 0x4057 PUSH2 0x3CAB JUMP JUMPDEST JUMPDEST DUP3 DUP3 ADD SWAP1 POP SWAP3 SWAP2 POP POP JUMP JUMPDEST PUSH32 0x4E4654537761707065723A2072656D6F7665436F6E7472696275746F723A2063 PUSH1 0x0 DUP3 ADD MSTORE PUSH32 0x6F6E7472696275746F72206E6F7420666F756E64000000000000000000000000 PUSH1 0x20 DUP3 ADD MSTORE POP JUMP JUMPDEST PUSH1 0x0 PUSH2 0x40BF PUSH1 0x34 DUP4 PUSH2 0x3B93 JUMP JUMPDEST SWAP2 POP PUSH2 0x40CA DUP3 PUSH2 0x4063 JUMP JUMPDEST PUSH1 0x40 DUP3 ADD SWAP1 POP SWAP2 SWAP1 POP JUMP JUMPDEST PUSH1 0x0 PUSH1 0x20 DUP3 ADD SWAP1 POP DUP2 DUP2 SUB PUSH1 0x0 DUP4 ADD MSTORE PUSH2 0x40EE DUP2 PUSH2 0x40B2 JUMP JUMPDEST SWAP1 POP SWAP2 SWAP1 POP JUMP JUMPDEST PUSH32 0x4E487B7100000000000000000000000000000000000000000000000000000000 PUSH1 0x0 MSTORE PUSH1 0x31 PUSH1 0x4 MSTORE PUSH1 0x24 PUSH1 0x0 REVERT JUMPDEST PUSH32 0x4E4654537761707065723A20756E63616E63656C3A2073776170206973206E6F PUSH1 0x0 DUP3 ADD MSTORE PUSH32 0x742063616E63656C6C6564000000000000000000000000000000000000000000 PUSH1 0x20 DUP3 ADD MSTORE POP JUMP JUMPDEST PUSH1 0x0 PUSH2 0x4180 PUSH1 0x2B DUP4 PUSH2 0x3B93 JUMP JUMPDEST SWAP2 POP PUSH2 0x418B DUP3 PUSH2 0x4124 JUMP JUMPDEST PUSH1 0x40 DUP3 ADD SWAP1 POP SWAP2 SWAP1 POP JUMP JUMPDEST PUSH1 0x0 PUSH1 0x20 DUP3 ADD SWAP1 POP DUP2 DUP2 SUB PUSH1 0x0 DUP4 ADD MSTORE PUSH2 0x41AF DUP2 PUSH2 0x4173 JUMP JUMPDEST SWAP1 POP SWAP2 SWAP1 POP JUMP JUMPDEST PUSH32 0x4E4654537761707065723A20737761703A20696E73756666696369656E742076 PUSH1 0x0 DUP3 ADD MSTORE PUSH32 0x616C756520666F72207377617000000000000000000000000000000000000000 PUSH1 0x20 DUP3 ADD MSTORE POP JUMP JUMPDEST PUSH1 0x0 PUSH2 0x4212 PUSH1 0x2D DUP4 PUSH2 0x3B93 JUMP JUMPDEST SWAP2 POP PUSH2 0x421D DUP3 PUSH2 0x41B6 JUMP JUMPDEST PUSH1 0x40 DUP3 ADD SWAP1 POP SWAP2 SWAP1 POP JUMP JUMPDEST PUSH1 0x0 PUSH1 0x20 DUP3 ADD SWAP1 POP DUP2 DUP2 SUB PUSH1 0x0 DUP4 ADD MSTORE PUSH2 0x4241 DUP2 PUSH2 0x4205 JUMP JUMPDEST SWAP1 POP SWAP2 SWAP1 POP JUMP JUMPDEST PUSH2 0x4251 DUP2 PUSH2 0x362A JUMP JUMPDEST DUP3 MSTORE POP POP JUMP JUMPDEST PUSH1 0x0 PUSH1 0x80 DUP3 ADD SWAP1 POP PUSH2 0x426C PUSH1 0x0 DUP4 ADD DUP8 PUSH2 0x393B JUMP JUMPDEST PUSH2 0x4279 PUSH1 0x20 DUP4 ADD DUP7 PUSH2 0x393B JUMP JUMPDEST PUSH2 0x4286 PUSH1 0x40 DUP4 ADD DUP6 PUSH2 0x4248 JUMP JUMPDEST PUSH2 0x4293 PUSH1 0x60 DUP4 ADD DUP5 PUSH2 0x33C5 JUMP JUMPDEST SWAP6 SWAP5 POP POP POP POP POP JUMP JUMPDEST PUSH1 0x0 DUP2 MLOAD SWAP1 POP PUSH2 0x42AB DUP2 PUSH2 0x38BC JUMP JUMPDEST SWAP3 SWAP2 POP POP JUMP JUMPDEST PUSH1 0x0 PUSH1 0x20 DUP3 DUP5 SUB SLT ISZERO PUSH2 0x42C7 JUMPI PUSH2 0x42C6 PUSH2 0x3246 JUMP JUMPDEST JUMPDEST PUSH1 0x0 PUSH2 0x42D5 DUP5 DUP3 DUP6 ADD PUSH2 0x429C JUMP JUMPDEST SWAP2 POP POP SWAP3 SWAP2 POP POP JUMP JUMPDEST PUSH32 0x4E4654537761707065723A20737761703A2073656E646572206973206E6F7420 PUSH1 0x0 DUP3 ADD MSTORE PUSH32 0x746865206F776E6572206F662064656D616E646564204E465473000000000000 PUSH1 0x20 DUP3 ADD MSTORE POP JUMP JUMPDEST PUSH1 0x0 PUSH2 0x433A PUSH1 0x3A DUP4 PUSH2 0x3B93 JUMP JUMPDEST SWAP2 POP PUSH2 0x4345 DUP3 PUSH2 0x42DE JUMP JUMPDEST PUSH1 0x40 DUP3 ADD SWAP1 POP SWAP2 SWAP1 POP JUMP JUMPDEST PUSH1 0x0 PUSH1 0x20 DUP3 ADD SWAP1 POP DUP2 DUP2 SUB PUSH1 0x0 DUP4 ADD MSTORE PUSH2 0x4369 DUP2 PUSH2 0x432D JUMP JUMPDEST SWAP1 POP SWAP2 SWAP1 POP JUMP JUMPDEST PUSH1 0x0 PUSH1 0xA0 DUP3 ADD SWAP1 POP PUSH2 0x4385 PUSH1 0x0 DUP4 ADD DUP9 PUSH2 0x393B JUMP JUMPDEST PUSH2 0x4392 PUSH1 0x20 DUP4 ADD DUP8 PUSH2 0x393B JUMP JUMPDEST PUSH2 0x439F PUSH1 0x40 DUP4 ADD DUP7 PUSH2 0x4248 JUMP JUMPDEST PUSH2 0x43AC PUSH1 0x60 DUP4 ADD DUP6 PUSH2 0x33C5 JUMP JUMPDEST PUSH2 0x43B9 PUSH1 0x80 DUP4 ADD DUP5 PUSH2 0x393B JUMP JUMPDEST SWAP7 SWAP6 POP POP POP POP POP POP JUMP JUMPDEST PUSH32 0x4E4654537761707065723A20737761703A207472616E736665722066726F6D20 PUSH1 0x0 DUP3 ADD MSTORE PUSH32 0x74656E646572656420746F20626964646572206661696C656400000000000000 PUSH1 0x20 DUP3 ADD MSTORE POP JUMP JUMPDEST PUSH1 0x0 PUSH2 0x441F PUSH1 0x39 DUP4 PUSH2 0x3B93 JUMP JUMPDEST SWAP2 POP PUSH2 0x442A DUP3 PUSH2 0x43C3 JUMP JUMPDEST PUSH1 0x40 DUP3 ADD SWAP1 POP SWAP2 SWAP1 POP JUMP JUMPDEST PUSH1 0x0 PUSH1 0x20 DUP3 ADD SWAP1 POP DUP2 DUP2 SUB PUSH1 0x0 DUP4 ADD MSTORE PUSH2 0x444E DUP2 PUSH2 0x4412 JUMP JUMPDEST SWAP1 POP SWAP2 SWAP1 POP JUMP JUMPDEST PUSH32 0x4E4654537761707065723A20737761703A205377617020626964646572206973 PUSH1 0x0 DUP3 ADD MSTORE PUSH32 0x206E6F7420746865206F776E6572206F66206F666665726564204E4654730000 PUSH1 0x20 DUP3 ADD MSTORE POP JUMP JUMPDEST PUSH1 0x0 PUSH2 0x44B1 PUSH1 0x3E DUP4 PUSH2 0x3B93 JUMP JUMPDEST SWAP2 POP PUSH2 0x44BC DUP3 PUSH2 0x4455 JUMP JUMPDEST PUSH1 0x40 DUP3 ADD SWAP1 POP SWAP2 SWAP1 POP JUMP JUMPDEST PUSH1 0x0 PUSH1 0x20 DUP3 ADD SWAP1 POP DUP2 DUP2 SUB PUSH1 0x0 DUP4 ADD MSTORE PUSH2 0x44E0 DUP2 PUSH2 0x44A4 JUMP JUMPDEST SWAP1 POP SWAP2 SWAP1 POP JUMP JUMPDEST PUSH32 0x4E4654537761707065723A20737761703A207472616E736665722066726F6D20 PUSH1 0x0 DUP3 ADD MSTORE PUSH32 0x62696464657220746F2074656E6465726564206661696C656400000000000000 PUSH1 0x20 DUP3 ADD MSTORE POP JUMP JUMPDEST PUSH1 0x0 PUSH2 0x4543 PUSH1 0x39 DUP4 PUSH2 0x3B93 JUMP JUMPDEST SWAP2 POP PUSH2 0x454E DUP3 PUSH2 0x44E7 JUMP JUMPDEST PUSH1 0x40 DUP3 ADD SWAP1 POP SWAP2 SWAP1 POP JUMP JUMPDEST PUSH1 0x0 PUSH1 0x20 DUP3 ADD SWAP1 POP DUP2 DUP2 SUB PUSH1 0x0 DUP4 ADD MSTORE PUSH2 0x4572 DUP2 PUSH2 0x4536 JUMP JUMPDEST SWAP1 POP SWAP2 SWAP1 POP JUMP JUMPDEST PUSH32 0x4E4654537761707065723A206E6F7420612074656E6465726564000000000000 PUSH1 0x0 DUP3 ADD MSTORE POP JUMP JUMPDEST PUSH1 0x0 PUSH2 0x45AF PUSH1 0x1A DUP4 PUSH2 0x3B93 JUMP JUMPDEST SWAP2 POP PUSH2 0x45BA DUP3 PUSH2 0x4579 JUMP JUMPDEST PUSH1 0x20 DUP3 ADD SWAP1 POP SWAP2 SWAP1 POP JUMP JUMPDEST PUSH1 0x0 PUSH1 0x20 DUP3 ADD SWAP1 POP DUP2 DUP2 SUB PUSH1 0x0 DUP4 ADD MSTORE PUSH2 0x45DE DUP2 PUSH2 0x45A2 JUMP JUMPDEST SWAP1 POP SWAP2 SWAP1 POP JUMP JUMPDEST PUSH32 0x4E4654537761707065723A2067657448616E646C65723A206E6F2068616E646C PUSH1 0x0 DUP3 ADD MSTORE PUSH32 0x657220666F756E64000000000000000000000000000000000000000000000000 PUSH1 0x20 DUP3 ADD MSTORE POP JUMP JUMPDEST PUSH1 0x0 PUSH2 0x4641 PUSH1 0x28 DUP4 PUSH2 0x3B93 JUMP JUMPDEST SWAP2 POP PUSH2 0x464C DUP3 PUSH2 0x45E5 JUMP JUMPDEST PUSH1 0x40 DUP3 ADD SWAP1 POP SWAP2 SWAP1 POP JUMP JUMPDEST PUSH1 0x0 PUSH1 0x20 DUP3 ADD SWAP1 POP DUP2 DUP2 SUB PUSH1 0x0 DUP4 ADD MSTORE PUSH2 0x4670 DUP2 PUSH2 0x4634 JUMP JUMPDEST SWAP1 POP SWAP2 SWAP1 POP JUMP JUMPDEST PUSH32 0x4E4654537761707065723A2072656769737465723A2062696464657220697320 PUSH1 0x0 DUP3 ADD MSTORE PUSH32 0x6E6F742076616C69640000000000000000000000000000000000000000000000 PUSH1 0x20 DUP3 ADD MSTORE POP JUMP JUMPDEST PUSH1 0x0 PUSH2 0x46D3 PUSH1 0x29 DUP4 PUSH2 0x3B93 JUMP JUMPDEST SWAP2 POP PUSH2 0x46DE DUP3 PUSH2 0x4677 JUMP JUMPDEST PUSH1 0x40 DUP3 ADD SWAP1 POP SWAP2 SWAP1 POP JUMP JUMPDEST PUSH1 0x0 PUSH1 0x20 DUP3 ADD SWAP1 POP DUP2 DUP2 SUB PUSH1 0x0 DUP4 ADD MSTORE PUSH2 0x4702 DUP2 PUSH2 0x46C6 JUMP JUMPDEST SWAP1 POP SWAP2 SWAP1 POP JUMP JUMPDEST PUSH32 0x4E4654537761707065723A2072656769737465723A20696E7375666669636965 PUSH1 0x0 DUP3 ADD MSTORE PUSH32 0x6E742076616C756520666F722072656769737465720000000000000000000000 PUSH1 0x20 DUP3 ADD MSTORE POP JUMP JUMPDEST PUSH1 0x0 PUSH2 0x4765 PUSH1 0x35 DUP4 PUSH2 0x3B93 JUMP JUMPDEST SWAP2 POP PUSH2 0x4770 DUP3 PUSH2 0x4709 JUMP JUMPDEST PUSH1 0x40 DUP3 ADD SWAP1 POP SWAP2 SWAP1 POP JUMP JUMPDEST PUSH1 0x0 PUSH1 0x20 DUP3 ADD SWAP1 POP DUP2 DUP2 SUB PUSH1 0x0 DUP4 ADD MSTORE PUSH2 0x4794 DUP2 PUSH2 0x4758 JUMP JUMPDEST SWAP1 POP SWAP2 SWAP1 POP JUMP JUMPDEST PUSH1 0x0 DUP2 CALLDATALOAD PUSH2 0x47A8 DUP2 PUSH2 0x3282 JUMP JUMPDEST DUP1 SWAP2 POP POP SWAP2 SWAP1 POP JUMP JUMPDEST PUSH1 0x0 DUP2 PUSH1 0x0 SHL SWAP1 POP SWAP2 SWAP1 POP JUMP JUMPDEST PUSH1 0x0 PUSH20 0xFFFFFFFFFFFFFFFFFFFFFFFFFFFFFFFFFFFFFFFF PUSH2 0x47DE DUP5 PUSH2 0x47B1 JUMP JUMPDEST SWAP4 POP DUP1 NOT DUP4 AND SWAP3 POP DUP1 DUP5 AND DUP4 OR SWAP2 POP POP SWAP3 SWAP2 POP POP JUMP JUMPDEST PUSH1 0x0 PUSH2 0x47FF DUP3 PUSH2 0x34A0 JUMP JUMPDEST SWAP1 POP SWAP2 SWAP1 POP JUMP JUMPDEST PUSH1 0x0 DUP2 SWAP1 POP SWAP2 SWAP1 POP JUMP JUMPDEST PUSH2 0x4819 DUP3 PUSH2 0x47F4 JUMP JUMPDEST PUSH2 0x482C PUSH2 0x4825 DUP3 PUSH2 0x4806 JUMP JUMPDEST DUP4 SLOAD PUSH2 0x47BE JUMP JUMPDEST DUP3 SSTORE POP POP POP JUMP JUMPDEST PUSH2 0x483C DUP2 PUSH2 0x362A JUMP JUMPDEST DUP2 EQ PUSH2 0x4847 JUMPI PUSH1 0x0 DUP1 REVERT JUMPDEST POP JUMP JUMPDEST PUSH1 0x0 DUP2 CALLDATALOAD PUSH2 0x4857 DUP2 PUSH2 0x4833 JUMP JUMPDEST DUP1 SWAP2 POP POP SWAP2 SWAP1 POP JUMP JUMPDEST PUSH1 0x0 PUSH32 0xFFFFFFFFFFFFFFFFFFFFFFFFFFFFFFFFFFFFFFFFFFFFFFFFFFFFFFFFFFFFFFFF PUSH2 0x488C DUP5 PUSH2 0x47B1 JUMP JUMPDEST SWAP4 POP DUP1 NOT DUP4 AND SWAP3 POP DUP1 DUP5 AND DUP4 OR SWAP2 POP POP SWAP3 SWAP2 POP POP JUMP JUMPDEST PUSH1 0x0 PUSH2 0x48AD DUP3 PUSH2 0x362A JUMP JUMPDEST SWAP1 POP SWAP2 SWAP1 POP JUMP JUMPDEST PUSH1 0x0 DUP2 PUSH1 0x0 SHR SWAP1 POP SWAP2 SWAP1 POP JUMP JUMPDEST PUSH1 0x0 PUSH2 0x48CC DUP3 PUSH2 0x48B4 JUMP JUMPDEST SWAP1 POP SWAP2 SWAP1 POP JUMP JUMPDEST PUSH2 0x48DC DUP3 PUSH2 0x48A2 JUMP JUMPDEST PUSH2 0x48EF PUSH2 0x48E8 DUP3 PUSH2 0x48C1 JUMP JUMPDEST DUP4 SLOAD PUSH2 0x4860 JUMP JUMPDEST DUP3 SSTORE POP POP POP JUMP JUMPDEST PUSH1 0x0 DUP2 CALLDATALOAD PUSH2 0x4903 DUP2 PUSH2 0x33EF JUMP JUMPDEST DUP1 SWAP2 POP POP SWAP2 SWAP1 POP JUMP JUMPDEST PUSH1 0x0 PUSH2 0x4927 PUSH2 0x4922 PUSH2 0x491D DUP5 PUSH2 0x3307 JUMP JUMPDEST PUSH2 0x3474 JUMP JUMPDEST PUSH2 0x3307 JUMP JUMPDEST SWAP1 POP SWAP2 SWAP1 POP JUMP JUMPDEST PUSH1 0x0 DUP2 SWAP1 POP SWAP2 SWAP1 POP JUMP JUMPDEST PUSH2 0x4941 DUP3 PUSH2 0x490C JUMP JUMPDEST PUSH2 0x4954 PUSH2 0x494D DUP3 PUSH2 0x492E JUMP JUMPDEST DUP4 SLOAD PUSH2 0x4860 JUMP JUMPDEST DUP3 SSTORE POP POP POP JUMP JUMPDEST PUSH1 0x0 DUP2 ADD PUSH1 0x0 DUP4 ADD DUP1 PUSH2 0x496D DUP2 PUSH2 0x479B JUMP JUMPDEST SWAP1 POP PUSH2 0x4979 DUP2 DUP5 PUSH2 0x4810 JUMP JUMPDEST POP POP POP PUSH1 0x1 DUP2 ADD PUSH1 0x20 DUP4 ADD DUP1 PUSH2 0x498E DUP2 PUSH2 0x484A JUMP JUMPDEST SWAP1 POP PUSH2 0x499A DUP2 DUP5 PUSH2 0x48D3 JUMP JUMPDEST POP POP POP PUSH1 0x2 DUP2 ADD PUSH1 0x40 DUP4 ADD DUP1 PUSH2 0x49AF DUP2 PUSH2 0x48F6 JUMP JUMPDEST SWAP1 POP PUSH2 0x49BB DUP2 DUP5 PUSH2 0x4938 JUMP JUMPDEST POP POP POP POP POP JUMP JUMPDEST PUSH2 0x49CC DUP3 DUP3 PUSH2 0x495B JUMP JUMPDEST POP POP JUMP JUMPDEST PUSH1 0x0 PUSH32 0xFFFFFFFF00000000000000000000000000000000000000000000000000000000 DUP3 AND SWAP1 POP SWAP2 SWAP1 POP JUMP JUMPDEST PUSH2 0x4A05 DUP2 PUSH2 0x49D0 JUMP JUMPDEST DUP3 MSTORE POP POP JUMP JUMPDEST PUSH1 0x0 PUSH1 0x20 DUP3 ADD SWAP1 POP PUSH2 0x4A20 PUSH1 0x0 DUP4 ADD DUP5 PUSH2 0x49FC JUMP JUMPDEST SWAP3 SWAP2 POP POP JUMP JUMPDEST PUSH32 0x68616E646C657220646F6573206E6F7420737570706F72742049537761707065 PUSH1 0x0 DUP3 ADD MSTORE PUSH32 0x7248616E646C6572000000000000000000000000000000000000000000000000 PUSH1 0x20 DUP3 ADD MSTORE POP JUMP JUMPDEST PUSH1 0x0 PUSH2 0x4A82 PUSH1 0x28 DUP4 PUSH2 0x3B93 JUMP JUMPDEST SWAP2 POP PUSH2 0x4A8D DUP3 PUSH2 0x4A26 JUMP JUMPDEST PUSH1 0x40 DUP3 ADD SWAP1 POP SWAP2 SWAP1 POP JUMP JUMPDEST PUSH1 0x0 PUSH1 0x20 DUP3 ADD SWAP1 POP DUP2 DUP2 SUB PUSH1 0x0 DUP4 ADD MSTORE PUSH2 0x4AB1 DUP2 PUSH2 0x4A75 JUMP JUMPDEST SWAP1 POP SWAP2 SWAP1 POP JUMP JUMPDEST PUSH32 0x4F776E61626C653A206E6577206F776E657220697320746865207A65726F2061 PUSH1 0x0 DUP3 ADD MSTORE PUSH32 0x6464726573730000000000000000000000000000000000000000000000000000 PUSH1 0x20 DUP3 ADD MSTORE POP JUMP JUMPDEST PUSH1 0x0 PUSH2 0x4B14 PUSH1 0x26 DUP4 PUSH2 0x3B93 JUMP JUMPDEST SWAP2 POP PUSH2 0x4B1F DUP3 PUSH2 0x4AB8 JUMP JUMPDEST PUSH1 0x40 DUP3 ADD SWAP1 POP SWAP2 SWAP1 POP JUMP JUMPDEST PUSH1 0x0 PUSH1 0x20 DUP3 ADD SWAP1 POP DUP2 DUP2 SUB PUSH1 0x0 DUP4 ADD MSTORE PUSH2 0x4B43 DUP2 PUSH2 0x4B07 JUMP JUMPDEST SWAP1 POP SWAP2 SWAP1 POP JUMP JUMPDEST PUSH32 0x4F776E61626C653A2063616C6C6572206973206E6F7420746865206F776E6572 PUSH1 0x0 DUP3 ADD MSTORE POP JUMP JUMPDEST PUSH1 0x0 PUSH2 0x4B80 PUSH1 0x20 DUP4 PUSH2 0x3B93 JUMP JUMPDEST SWAP2 POP PUSH2 0x4B8B DUP3 PUSH2 0x4B4A JUMP JUMPDEST PUSH1 0x20 DUP3 ADD SWAP1 POP SWAP2 SWAP1 POP JUMP JUMPDEST PUSH1 0x0 PUSH1 0x20 DUP3 ADD SWAP1 POP DUP2 DUP2 SUB PUSH1 0x0 DUP4 ADD MSTORE PUSH2 0x4BAF DUP2 PUSH2 0x4B73 JUMP JUMPDEST SWAP1 POP SWAP2 SWAP1 POP JUMP INVALID LOG2 PUSH5 0x6970667358 0x22 SLT KECCAK256 0x4B LT 0xD9 0x4E GASLIMIT PUSH6 0x70729CBEF7D4 0xF7 DUP10 0xD2 0x29 DUP4 SWAP8 0x24 RETURNDATASIZE SELFBALANCE 0x5D PUSH30 0x4D0BBF18D6729DED4664736F6C6343000809003300000000000000000000 "
				},
				"gasEstimates": {
					"creation": {
						"codeDepositCost": "3887200",
						"executionCost": "infinite",
						"totalCost": "infinite"
					},
					"external": {
						"": "241",
						"cancel(uint256)": "33331",
						"getContributors()": "infinite",
						"getHandler(address)": "infinite",
						"getHandlers()": "infinite",
						"getRegisterFee()": "2483",
						"getShare(address)": "5133",
						"getSwap(uint256)": "infinite",
						"getSwapCount()": "2530",
						"getSwapFee()": "2570",
						"getSwaps(address)": "infinite",
						"getTotalShares()": "4706",
						"owner()": "2545",
						"register(address,(address,bytes32,uint256)[],address[],(address,bytes32,uint256)[])": "infinite",
						"renounceOwnership()": "30509",
						"setApprovedTendered(uint256,address,bool)": "infinite",
						"setContributor(address,uint256)": "infinite",
						"setRegisterFee(uint256)": "24829",
						"setSwapFee(uint256)": "24852",
						"supportStandard(address)": "infinite",
						"swap(uint256)": "infinite",
						"transferOwnership(address)": "30879",
						"uncancel(uint256)": "33281",
						"unsupportStandard(address)": "infinite",
						"withdraw()": "infinite"
					}
				},
				"methodIdentifiers": {
					"cancel(uint256)": "40e58ee5",
					"getContributors()": "af157c19",
					"getHandler(address)": "b6c9b393",
					"getHandlers()": "3801a828",
					"getRegisterFee()": "32a58e79",
					"getShare(address)": "4b3ab9c5",
					"getSwap(uint256)": "4a0d89ba",
					"getSwapCount()": "d81671bc",
					"getSwapFee()": "d4cadf68",
					"getSwaps(address)": "21c616da",
					"getTotalShares()": "d5002f2e",
					"owner()": "8da5cb5b",
					"register(address,(address,bytes32,uint256)[],address[],(address,bytes32,uint256)[])": "e0efc2f5",
					"renounceOwnership()": "715018a6",
					"setApprovedTendered(uint256,address,bool)": "7634c6c3",
					"setContributor(address,uint256)": "61784c7a",
					"setRegisterFee(uint256)": "92be2ab8",
					"setSwapFee(uint256)": "34e19907",
					"supportStandard(address)": "eb57ce55",
					"swap(uint256)": "94b918de",
					"transferOwnership(address)": "f2fde38b",
					"uncancel(uint256)": "6e214a8e",
					"unsupportStandard(address)": "ed470a3a",
					"withdraw()": "3ccfd60b"
				}
			},
			"storageLayout": {
				"storage": [
					{
						"astId": 7,
						"contract": "contracts/NFTSwapper.sol:NFTSwapper",
						"label": "_owner",
						"offset": 0,
						"slot": "0",
						"type": "t_address"
					},
					{
						"astId": 346,
						"contract": "contracts/NFTSwapper.sol:NFTSwapper",
						"label": "_swaps",
						"offset": 0,
						"slot": "1",
						"type": "t_mapping(t_uint256,t_struct(Swap)341_storage)"
					},
					{
						"astId": 351,
						"contract": "contracts/NFTSwapper.sol:NFTSwapper",
						"label": "_participants",
						"offset": 0,
						"slot": "2",
						"type": "t_mapping(t_address,t_array(t_uint256)dyn_storage)"
					},
					{
						"astId": 355,
						"contract": "contracts/NFTSwapper.sol:NFTSwapper",
						"label": "_contributorShares",
						"offset": 0,
						"slot": "3",
						"type": "t_mapping(t_address,t_uint256)"
					},
					{
						"astId": 358,
						"contract": "contracts/NFTSwapper.sol:NFTSwapper",
						"label": "_contributors",
						"offset": 0,
						"slot": "4",
						"type": "t_array(t_address)dyn_storage"
					},
					{
						"astId": 360,
						"contract": "contracts/NFTSwapper.sol:NFTSwapper",
						"label": "_totalShares",
						"offset": 0,
						"slot": "5",
						"type": "t_uint256"
					},
					{
						"astId": 363,
						"contract": "contracts/NFTSwapper.sol:NFTSwapper",
						"label": "_registerFee",
						"offset": 0,
						"slot": "6",
						"type": "t_uint256"
					},
					{
						"astId": 366,
						"contract": "contracts/NFTSwapper.sol:NFTSwapper",
						"label": "_swapFee",
						"offset": 0,
						"slot": "7",
						"type": "t_uint256"
					},
					{
						"astId": 370,
						"contract": "contracts/NFTSwapper.sol:NFTSwapper",
						"label": "_handlers",
						"offset": 0,
						"slot": "8",
						"type": "t_array(t_contract(ISwapperHandler)284)dyn_storage"
					},
					{
						"astId": 373,
						"contract": "contracts/NFTSwapper.sol:NFTSwapper",
						"label": "_counter",
						"offset": 0,
						"slot": "9",
						"type": "t_struct(Counter)140_storage"
					}
				],
				"types": {
					"t_address": {
						"encoding": "inplace",
						"label": "address",
						"numberOfBytes": "20"
					},
					"t_array(t_address)dyn_storage": {
						"base": "t_address",
						"encoding": "dynamic_array",
						"label": "address[]",
						"numberOfBytes": "32"
					},
					"t_array(t_contract(ISwapperHandler)284)dyn_storage": {
						"base": "t_contract(ISwapperHandler)284",
						"encoding": "dynamic_array",
						"label": "contract ISwapperHandler[]",
						"numberOfBytes": "32"
					},
					"t_array(t_struct(Token)322_storage)dyn_storage": {
						"base": "t_struct(Token)322_storage",
						"encoding": "dynamic_array",
						"label": "struct NFTSwapper.Token[]",
						"numberOfBytes": "32"
					},
					"t_array(t_uint256)dyn_storage": {
						"base": "t_uint256",
						"encoding": "dynamic_array",
						"label": "uint256[]",
						"numberOfBytes": "32"
					},
					"t_bytes32": {
						"encoding": "inplace",
						"label": "bytes32",
						"numberOfBytes": "32"
					},
					"t_contract(ISwapperHandler)284": {
						"encoding": "inplace",
						"label": "contract ISwapperHandler",
						"numberOfBytes": "20"
					},
					"t_enum(SwapState)302": {
						"encoding": "inplace",
						"label": "enum NFTSwapper.SwapState",
						"numberOfBytes": "1"
					},
					"t_mapping(t_address,t_array(t_uint256)dyn_storage)": {
						"encoding": "mapping",
						"key": "t_address",
						"label": "mapping(address => uint256[])",
						"numberOfBytes": "32",
						"value": "t_array(t_uint256)dyn_storage"
					},
					"t_mapping(t_address,t_uint256)": {
						"encoding": "mapping",
						"key": "t_address",
						"label": "mapping(address => uint256)",
						"numberOfBytes": "32",
						"value": "t_uint256"
					},
					"t_mapping(t_uint256,t_struct(Swap)341_storage)": {
						"encoding": "mapping",
						"key": "t_uint256",
						"label": "mapping(uint256 => struct NFTSwapper.Swap)",
						"numberOfBytes": "32",
						"value": "t_struct(Swap)341_storage"
					},
					"t_struct(Counter)140_storage": {
						"encoding": "inplace",
						"label": "struct Counters.Counter",
						"members": [
							{
								"astId": 139,
								"contract": "contracts/NFTSwapper.sol:NFTSwapper",
								"label": "_value",
								"offset": 0,
								"slot": "0",
								"type": "t_uint256"
							}
						],
						"numberOfBytes": "32"
					},
					"t_struct(Swap)341_storage": {
						"encoding": "inplace",
						"label": "struct NFTSwapper.Swap",
						"members": [
							{
								"astId": 324,
								"contract": "contracts/NFTSwapper.sol:NFTSwapper",
								"label": "Id",
								"offset": 0,
								"slot": "0",
								"type": "t_uint256"
							},
							{
								"astId": 327,
								"contract": "contracts/NFTSwapper.sol:NFTSwapper",
								"label": "State",
								"offset": 0,
								"slot": "1",
								"type": "t_enum(SwapState)302"
							},
							{
								"astId": 329,
								"contract": "contracts/NFTSwapper.sol:NFTSwapper",
								"label": "Bidder",
								"offset": 1,
								"slot": "1",
								"type": "t_address"
							},
							{
								"astId": 333,
								"contract": "contracts/NFTSwapper.sol:NFTSwapper",
								"label": "Offer",
								"offset": 0,
								"slot": "2",
								"type": "t_array(t_struct(Token)322_storage)dyn_storage"
							},
							{
								"astId": 336,
								"contract": "contracts/NFTSwapper.sol:NFTSwapper",
								"label": "Tendered",
								"offset": 0,
								"slot": "3",
								"type": "t_array(t_address)dyn_storage"
							},
							{
								"astId": 340,
								"contract": "contracts/NFTSwapper.sol:NFTSwapper",
								"label": "Demand",
								"offset": 0,
								"slot": "4",
								"type": "t_array(t_struct(Token)322_storage)dyn_storage"
							}
						],
						"numberOfBytes": "160"
					},
					"t_struct(Token)322_storage": {
						"encoding": "inplace",
						"label": "struct NFTSwapper.Token",
						"members": [
							{
								"astId": 317,
								"contract": "contracts/NFTSwapper.sol:NFTSwapper",
								"label": "NFT",
								"offset": 0,
								"slot": "0",
								"type": "t_address"
							},
							{
								"astId": 319,
								"contract": "contracts/NFTSwapper.sol:NFTSwapper",
								"label": "TokenId",
								"offset": 0,
								"slot": "1",
								"type": "t_bytes32"
							},
							{
								"astId": 321,
								"contract": "contracts/NFTSwapper.sol:NFTSwapper",
								"label": "Amount",
								"offset": 0,
								"slot": "2",
								"type": "t_uint256"
							}
						],
						"numberOfBytes": "96"
					},
					"t_uint256": {
						"encoding": "inplace",
						"label": "uint256",
						"numberOfBytes": "32"
					}
				}
			},
			"userdoc": {
				"kind": "user",
				"methods": {},
				"version": 1
			}
		}
	}
}