{
	"contracts/Farming.sol": {
		"Farming": {
			"abi": [
				{
					"inputs": [
						{
							"internalType": "contract PondToken",
							"name": "_pondToken",
							"type": "address"
						}
					],
					"stateMutability": "nonpayable",
					"type": "constructor"
				},
				{
					"inputs": [],
					"name": "apy",
					"outputs": [
						{
							"internalType": "uint256",
							"name": "",
							"type": "uint256"
						}
					],
					"stateMutability": "view",
					"type": "function"
				},
				{
					"inputs": [],
					"name": "getRewardTokens",
					"outputs": [
						{
							"internalType": "uint256",
							"name": "",
							"type": "uint256"
						},
						{
							"internalType": "uint256",
							"name": "",
							"type": "uint256"
						}
					],
					"stateMutability": "view",
					"type": "function"
				},
				{
					"inputs": [
						{
							"internalType": "address",
							"name": "",
							"type": "address"
						}
					],
					"name": "hasStaked",
					"outputs": [
						{
							"internalType": "bool",
							"name": "",
							"type": "bool"
						}
					],
					"stateMutability": "view",
					"type": "function"
				},
				{
					"inputs": [
						{
							"internalType": "address",
							"name": "recipient",
							"type": "address"
						}
					],
					"name": "issueTokens",
					"outputs": [],
					"stateMutability": "nonpayable",
					"type": "function"
				},
				{
					"inputs": [],
					"name": "name",
					"outputs": [
						{
							"internalType": "string",
							"name": "",
							"type": "string"
						}
					],
					"stateMutability": "view",
					"type": "function"
				},
				{
					"inputs": [],
					"name": "owner",
					"outputs": [
						{
							"internalType": "address",
							"name": "",
							"type": "address"
						}
					],
					"stateMutability": "view",
					"type": "function"
				},
				{
					"inputs": [],
					"name": "pondToken",
					"outputs": [
						{
							"internalType": "contract PondToken",
							"name": "",
							"type": "address"
						}
					],
					"stateMutability": "view",
					"type": "function"
				},
				{
					"inputs": [
						{
							"internalType": "uint256",
							"name": "_amount",
							"type": "uint256"
						}
					],
					"name": "stakeTokens",
					"outputs": [],
					"stateMutability": "nonpayable",
					"type": "function"
				},
				{
					"inputs": [
						{
							"internalType": "uint256",
							"name": "",
							"type": "uint256"
						}
					],
					"name": "stakers",
					"outputs": [
						{
							"internalType": "address",
							"name": "",
							"type": "address"
						}
					],
					"stateMutability": "view",
					"type": "function"
				},
				{
					"inputs": [
						{
							"internalType": "address",
							"name": "",
							"type": "address"
						}
					],
					"name": "stakingBalance",
					"outputs": [
						{
							"internalType": "uint256",
							"name": "",
							"type": "uint256"
						}
					],
					"stateMutability": "view",
					"type": "function"
				},
				{
					"inputs": [
						{
							"internalType": "address",
							"name": "",
							"type": "address"
						}
					],
					"name": "stakingTime",
					"outputs": [
						{
							"internalType": "uint256",
							"name": "",
							"type": "uint256"
						}
					],
					"stateMutability": "view",
					"type": "function"
				},
				{
					"inputs": [],
					"name": "unstakeTokens",
					"outputs": [],
					"stateMutability": "nonpayable",
					"type": "function"
				}
			],
			"devdoc": {
				"kind": "dev",
				"methods": {},
				"version": 1
			},
			"evm": {
				"assembly": "    /* \"contracts/Farming.sol\":1880:4417  contract Farming {... */\n  mstore(0x40, 0x80)\n    /* \"contracts/Farming.sol\":1901:1928  string public name = \"Farm\" */\n  mload(0x40)\n  dup1\n  0x40\n  add\n  0x40\n  mstore\n  dup1\n  0x04\n  dup2\n  mstore\n  0x20\n  add\n  0x4661726d00000000000000000000000000000000000000000000000000000000\n  dup2\n  mstore\n  pop\n  0x00\n  swap1\n  dup1\n  mload\n  swap1\n  0x20\n  add\n  swap1\n  tag_1\n  swap3\n  swap2\n  swap1\n  tag_2\n  jump\t// in\ntag_1:\n  pop\n    /* \"contracts/Farming.sol\":2211:2352  constructor(PondToken _pondToken) {... */\n  callvalue\n  dup1\n  iszero\n  tag_3\n  jumpi\n  0x00\n  dup1\n  revert\ntag_3:\n  pop\n  mload(0x40)\n  sub(codesize, bytecodeSize)\n  dup1\n  bytecodeSize\n  dup4\n  codecopy\n  dup2\n  dup2\n  add\n  0x40\n  mstore\n  dup2\n  add\n  swap1\n  tag_4\n  swap2\n  swap1\n  tag_5\n  jump\t// in\ntag_4:\n    /* \"contracts/Farming.sol\":2263:2273  _pondToken */\n  dup1\n    /* \"contracts/Farming.sol\":2251:2260  pondToken */\n  0x03\n  0x00\n    /* \"contracts/Farming.sol\":2251:2273  pondToken = _pondToken */\n  0x0100\n  exp\n  dup2\n  sload\n  dup2\n  0xffffffffffffffffffffffffffffffffffffffff\n  mul\n  not\n  and\n  swap1\n  dup4\n  0xffffffffffffffffffffffffffffffffffffffff\n  and\n  mul\n  or\n  swap1\n  sstore\n  pop\n    /* \"contracts/Farming.sol\":2287:2297  msg.sender */\n  caller\n    /* \"contracts/Farming.sol\":2279:2284  owner */\n  0x02\n  0x00\n    /* \"contracts/Farming.sol\":2279:2297  owner = msg.sender */\n  0x0100\n  exp\n  dup2\n  sload\n  dup2\n  0xffffffffffffffffffffffffffffffffffffffff\n  mul\n  not\n  and\n  swap1\n  dup4\n  0xffffffffffffffffffffffffffffffffffffffff\n  and\n  mul\n  or\n  swap1\n  sstore\n  pop\n    /* \"contracts/Farming.sol\":2342:2347  10000 */\n  0x2710\n    /* \"contracts/Farming.sol\":2338:2341  apy */\n  0x01\n    /* \"contracts/Farming.sol\":2338:2347  apy=10000 */\n  dup2\n  swap1\n  sstore\n  pop\n    /* \"contracts/Farming.sol\":2211:2352  constructor(PondToken _pondToken) {... */\n  pop\n    /* \"contracts/Farming.sol\":1880:4417  contract Farming {... */\n  jump(tag_8)\ntag_2:\n  dup3\n  dup1\n  sload\n  tag_9\n  swap1\n  tag_10\n  jump\t// in\ntag_9:\n  swap1\n  0x00\n  mstore\n  keccak256(0x00, 0x20)\n  swap1\n  0x1f\n  add\n  0x20\n  swap1\n  div\n  dup2\n  add\n  swap3\n  dup3\n  tag_12\n  jumpi\n  0x00\n  dup6\n  sstore\n  jump(tag_11)\ntag_12:\n  dup3\n  0x1f\n  lt\n  tag_13\n  jumpi\n  dup1\n  mload\n  not(0xff)\n  and\n  dup4\n  dup1\n  add\n  or\n  dup6\n  sstore\n  jump(tag_11)\ntag_13:\n  dup3\n  dup1\n  add\n  0x01\n  add\n  dup6\n  sstore\n  dup3\n  iszero\n  tag_11\n  jumpi\n  swap2\n  dup3\n  add\ntag_14:\n  dup3\n  dup2\n  gt\n  iszero\n  tag_15\n  jumpi\n  dup3\n  mload\n  dup3\n  sstore\n  swap2\n  0x20\n  add\n  swap2\n  swap1\n  0x01\n  add\n  swap1\n  jump(tag_14)\ntag_15:\ntag_11:\n  pop\n  swap1\n  pop\n  tag_16\n  swap2\n  swap1\n  tag_17\n  jump\t// in\ntag_16:\n  pop\n  swap1\n  jump\t// out\ntag_17:\ntag_18:\n  dup1\n  dup3\n  gt\n  iszero\n  tag_19\n  jumpi\n  0x00\n  dup2\n  0x00\n  swap1\n  sstore\n  pop\n  0x01\n  add\n  jump(tag_18)\ntag_19:\n  pop\n  swap1\n  jump\t// out\n    /* \"#utility.yul\":88:205   */\ntag_21:\n    /* \"#utility.yul\":197:198   */\n  0x00\n    /* \"#utility.yul\":194:195   */\n  dup1\n    /* \"#utility.yul\":187:199   */\n  revert\n    /* \"#utility.yul\":334:460   */\ntag_23:\n    /* \"#utility.yul\":371:378   */\n  0x00\n    /* \"#utility.yul\":411:453   */\n  0xffffffffffffffffffffffffffffffffffffffff\n    /* \"#utility.yul\":404:409   */\n  dup3\n    /* \"#utility.yul\":400:454   */\n  and\n    /* \"#utility.yul\":389:454   */\n  swap1\n  pop\n    /* \"#utility.yul\":334:460   */\n  swap2\n  swap1\n  pop\n  jump\t// out\n    /* \"#utility.yul\":466:562   */\ntag_24:\n    /* \"#utility.yul\":503:510   */\n  0x00\n    /* \"#utility.yul\":532:556   */\n  tag_35\n    /* \"#utility.yul\":550:555   */\n  dup3\n    /* \"#utility.yul\":532:556   */\n  tag_23\n  jump\t// in\ntag_35:\n    /* \"#utility.yul\":521:556   */\n  swap1\n  pop\n    /* \"#utility.yul\":466:562   */\n  swap2\n  swap1\n  pop\n  jump\t// out\n    /* \"#utility.yul\":568:681   */\ntag_25:\n    /* \"#utility.yul\":622:629   */\n  0x00\n    /* \"#utility.yul\":651:675   */\n  tag_37\n    /* \"#utility.yul\":669:674   */\n  dup3\n    /* \"#utility.yul\":651:675   */\n  tag_24\n  jump\t// in\ntag_37:\n    /* \"#utility.yul\":640:675   */\n  swap1\n  pop\n    /* \"#utility.yul\":568:681   */\n  swap2\n  swap1\n  pop\n  jump\t// out\n    /* \"#utility.yul\":687:843   */\ntag_26:\n    /* \"#utility.yul\":777:818   */\n  tag_39\n    /* \"#utility.yul\":812:817   */\n  dup2\n    /* \"#utility.yul\":777:818   */\n  tag_25\n  jump\t// in\ntag_39:\n    /* \"#utility.yul\":770:775   */\n  dup2\n    /* \"#utility.yul\":767:819   */\n  eq\n    /* \"#utility.yul\":757:837   */\n  tag_40\n  jumpi\n    /* \"#utility.yul\":833:834   */\n  0x00\n    /* \"#utility.yul\":830:831   */\n  dup1\n    /* \"#utility.yul\":823:835   */\n  revert\n    /* \"#utility.yul\":757:837   */\ntag_40:\n    /* \"#utility.yul\":687:843   */\n  pop\n  jump\t// out\n    /* \"#utility.yul\":849:1026   */\ntag_27:\n    /* \"#utility.yul\":923:928   */\n  0x00\n    /* \"#utility.yul\":954:960   */\n  dup2\n    /* \"#utility.yul\":948:961   */\n  mload\n    /* \"#utility.yul\":939:961   */\n  swap1\n  pop\n    /* \"#utility.yul\":970:1020   */\n  tag_42\n    /* \"#utility.yul\":1014:1019   */\n  dup2\n    /* \"#utility.yul\":970:1020   */\n  tag_26\n  jump\t// in\ntag_42:\n    /* \"#utility.yul\":849:1026   */\n  swap3\n  swap2\n  pop\n  pop\n  jump\t// out\n    /* \"#utility.yul\":1032:1417   */\ntag_5:\n    /* \"#utility.yul\":1119:1125   */\n  0x00\n    /* \"#utility.yul\":1168:1170   */\n  0x20\n    /* \"#utility.yul\":1156:1165   */\n  dup3\n    /* \"#utility.yul\":1147:1154   */\n  dup5\n    /* \"#utility.yul\":1143:1166   */\n  sub\n    /* \"#utility.yul\":1139:1171   */\n  slt\n    /* \"#utility.yul\":1136:1255   */\n  iszero\n  tag_44\n  jumpi\n    /* \"#utility.yul\":1174:1253   */\n  tag_45\n  tag_21\n  jump\t// in\ntag_45:\n    /* \"#utility.yul\":1136:1255   */\ntag_44:\n    /* \"#utility.yul\":1294:1295   */\n  0x00\n    /* \"#utility.yul\":1319:1400   */\n  tag_46\n    /* \"#utility.yul\":1392:1399   */\n  dup5\n    /* \"#utility.yul\":1383:1389   */\n  dup3\n    /* \"#utility.yul\":1372:1381   */\n  dup6\n    /* \"#utility.yul\":1368:1390   */\n  add\n    /* \"#utility.yul\":1319:1400   */\n  tag_27\n  jump\t// in\ntag_46:\n    /* \"#utility.yul\":1309:1400   */\n  swap2\n  pop\n    /* \"#utility.yul\":1265:1410   */\n  pop\n    /* \"#utility.yul\":1032:1417   */\n  swap3\n  swap2\n  pop\n  pop\n  jump\t// out\n    /* \"#utility.yul\":1423:1603   */\ntag_28:\n    /* \"#utility.yul\":1471:1548   */\n  0x4e487b7100000000000000000000000000000000000000000000000000000000\n    /* \"#utility.yul\":1468:1469   */\n  0x00\n    /* \"#utility.yul\":1461:1549   */\n  mstore\n    /* \"#utility.yul\":1568:1572   */\n  0x22\n    /* \"#utility.yul\":1565:1566   */\n  0x04\n    /* \"#utility.yul\":1558:1573   */\n  mstore\n    /* \"#utility.yul\":1592:1596   */\n  0x24\n    /* \"#utility.yul\":1589:1590   */\n  0x00\n    /* \"#utility.yul\":1582:1597   */\n  revert\n    /* \"#utility.yul\":1609:1929   */\ntag_10:\n    /* \"#utility.yul\":1653:1659   */\n  0x00\n    /* \"#utility.yul\":1690:1691   */\n  0x02\n    /* \"#utility.yul\":1684:1688   */\n  dup3\n    /* \"#utility.yul\":1680:1692   */\n  div\n    /* \"#utility.yul\":1670:1692   */\n  swap1\n  pop\n    /* \"#utility.yul\":1737:1738   */\n  0x01\n    /* \"#utility.yul\":1731:1735   */\n  dup3\n    /* \"#utility.yul\":1727:1739   */\n  and\n    /* \"#utility.yul\":1758:1776   */\n  dup1\n    /* \"#utility.yul\":1748:1829   */\n  tag_49\n  jumpi\n    /* \"#utility.yul\":1814:1818   */\n  0x7f\n    /* \"#utility.yul\":1806:1812   */\n  dup3\n    /* \"#utility.yul\":1802:1819   */\n  and\n    /* \"#utility.yul\":1792:1819   */\n  swap2\n  pop\n    /* \"#utility.yul\":1748:1829   */\ntag_49:\n    /* \"#utility.yul\":1876:1878   */\n  0x20\n    /* \"#utility.yul\":1868:1874   */\n  dup3\n    /* \"#utility.yul\":1865:1879   */\n  lt\n    /* \"#utility.yul\":1845:1863   */\n  dup2\n    /* \"#utility.yul\":1842:1880   */\n  sub\n    /* \"#utility.yul\":1839:1923   */\n  tag_50\n  jumpi\n    /* \"#utility.yul\":1895:1913   */\n  tag_51\n  tag_28\n  jump\t// in\ntag_51:\n    /* \"#utility.yul\":1839:1923   */\ntag_50:\n    /* \"#utility.yul\":1660:1929   */\n  pop\n    /* \"#utility.yul\":1609:1929   */\n  swap2\n  swap1\n  pop\n  jump\t// out\n    /* \"contracts/Farming.sol\":1880:4417  contract Farming {... */\ntag_8:\n  dataSize(sub_0)\n  dup1\n  dataOffset(sub_0)\n  0x00\n  codecopy\n  0x00\n  return\nstop\n\nsub_0: assembly {\n        /* \"contracts/Farming.sol\":1880:4417  contract Farming {... */\n      mstore(0x40, 0x80)\n      callvalue\n      dup1\n      iszero\n      tag_1\n      jumpi\n      0x00\n      dup1\n      revert\n    tag_1:\n      pop\n      jumpi(tag_2, lt(calldatasize, 0x04))\n      shr(0xe0, calldataload(0x00))\n      dup1\n      0x8da5cb5b\n      gt\n      tag_15\n      jumpi\n      dup1\n      0x8da5cb5b\n      eq\n      tag_9\n      jumpi\n      dup1\n      0xa5ce413b\n      eq\n      tag_10\n      jumpi\n      dup1\n      0xc4f59f9b\n      eq\n      tag_11\n      jumpi\n      dup1\n      0xc93c8f34\n      eq\n      tag_12\n      jumpi\n      dup1\n      0xfd5e6dd1\n      eq\n      tag_13\n      jumpi\n      dup1\n      0xfe8be557\n      eq\n      tag_14\n      jumpi\n      jump(tag_2)\n    tag_15:\n      dup1\n      0x06fdde03\n      eq\n      tag_3\n      jumpi\n      dup1\n      0x3bcfc4b8\n      eq\n      tag_4\n      jumpi\n      dup1\n      0x3ff54c71\n      eq\n      tag_5\n      jumpi\n      dup1\n      0x45bc78ab\n      eq\n      tag_6\n      jumpi\n      dup1\n      0x583d42fd\n      eq\n      tag_7\n      jumpi\n      dup1\n      0x7547c7a3\n      eq\n      tag_8\n      jumpi\n    tag_2:\n      0x00\n      dup1\n      revert\n        /* \"contracts/Farming.sol\":1901:1928  string public name = \"Farm\" */\n    tag_3:\n      tag_16\n      tag_17\n      jump\t// in\n    tag_16:\n      mload(0x40)\n      tag_18\n      swap2\n      swap1\n      tag_19\n      jump\t// in\n    tag_18:\n      mload(0x40)\n      dup1\n      swap2\n      sub\n      swap1\n      return\n        /* \"contracts/Farming.sol\":1932:1947  uint public apy */\n    tag_4:\n      tag_20\n      tag_21\n      jump\t// in\n    tag_20:\n      mload(0x40)\n      tag_22\n      swap2\n      swap1\n      tag_23\n      jump\t// in\n    tag_22:\n      mload(0x40)\n      dup1\n      swap2\n      sub\n      swap1\n      return\n        /* \"contracts/Farming.sol\":3398:3958  function issueTokens(address recipient) public {... */\n    tag_5:\n      tag_24\n      0x04\n      dup1\n      calldatasize\n      sub\n      dup2\n      add\n      swap1\n      tag_25\n      swap2\n      swap1\n      tag_26\n      jump\t// in\n    tag_25:\n      tag_27\n      jump\t// in\n    tag_24:\n      stop\n        /* \"contracts/Farming.sol\":2068:2114  mapping(address => uint) public stakingBalance */\n    tag_6:\n      tag_28\n      0x04\n      dup1\n      calldatasize\n      sub\n      dup2\n      add\n      swap1\n      tag_29\n      swap2\n      swap1\n      tag_26\n      jump\t// in\n    tag_29:\n      tag_30\n      jump\t// in\n    tag_28:\n      mload(0x40)\n      tag_31\n      swap2\n      swap1\n      tag_23\n      jump\t// in\n    tag_31:\n      mload(0x40)\n      dup1\n      swap2\n      sub\n      swap1\n      return\n        /* \"contracts/Farming.sol\":2118:2161  mapping(address => uint) public stakingTime */\n    tag_7:\n      tag_32\n      0x04\n      dup1\n      calldatasize\n      sub\n      dup2\n      add\n      swap1\n      tag_33\n      swap2\n      swap1\n      tag_26\n      jump\t// in\n    tag_33:\n      tag_34\n      jump\t// in\n    tag_32:\n      mload(0x40)\n      tag_35\n      swap2\n      swap1\n      tag_23\n      jump\t// in\n    tag_35:\n      mload(0x40)\n      dup1\n      swap2\n      sub\n      swap1\n      return\n        /* \"contracts/Farming.sol\":2747:3372  function stakeTokens(uint _amount) public {... */\n    tag_8:\n      tag_36\n      0x04\n      dup1\n      calldatasize\n      sub\n      dup2\n      add\n      swap1\n      tag_37\n      swap2\n      swap1\n      tag_38\n      jump\t// in\n    tag_37:\n      tag_39\n      jump\t// in\n    tag_36:\n      stop\n        /* \"contracts/Farming.sol\":1951:1971  address public owner */\n    tag_9:\n      tag_40\n      tag_41\n      jump\t// in\n    tag_40:\n      mload(0x40)\n      tag_42\n      swap2\n      swap1\n      tag_43\n      jump\t// in\n    tag_42:\n      mload(0x40)\n      dup1\n      swap2\n      sub\n      swap1\n      return\n        /* \"contracts/Farming.sol\":4054:4414  function unstakeTokens() public {... */\n    tag_10:\n      tag_44\n      tag_45\n      jump\t// in\n    tag_44:\n      stop\n        /* \"contracts/Farming.sol\":2399:2713  function getRewardTokens() public view returns(uint, uint){... */\n    tag_11:\n      tag_46\n      tag_47\n      jump\t// in\n    tag_46:\n      mload(0x40)\n      tag_48\n      swap3\n      swap2\n      swap1\n      tag_49\n      jump\t// in\n    tag_48:\n      mload(0x40)\n      dup1\n      swap2\n      sub\n      swap1\n      return\n        /* \"contracts/Farming.sol\":2165:2206  mapping(address => bool) public hasStaked */\n    tag_12:\n      tag_50\n      0x04\n      dup1\n      calldatasize\n      sub\n      dup2\n      add\n      swap1\n      tag_51\n      swap2\n      swap1\n      tag_26\n      jump\t// in\n    tag_51:\n      tag_52\n      jump\t// in\n    tag_50:\n      mload(0x40)\n      tag_53\n      swap2\n      swap1\n      tag_54\n      jump\t// in\n    tag_53:\n      mload(0x40)\n      dup1\n      swap2\n      sub\n      swap1\n      return\n        /* \"contracts/Farming.sol\":2040:2064  address[] public stakers */\n    tag_13:\n      tag_55\n      0x04\n      dup1\n      calldatasize\n      sub\n      dup2\n      add\n      swap1\n      tag_56\n      swap2\n      swap1\n      tag_38\n      jump\t// in\n    tag_56:\n      tag_57\n      jump\t// in\n    tag_55:\n      mload(0x40)\n      tag_58\n      swap2\n      swap1\n      tag_43\n      jump\t// in\n    tag_58:\n      mload(0x40)\n      dup1\n      swap2\n      sub\n      swap1\n      return\n        /* \"contracts/Farming.sol\":1975:2001  PondToken public pondToken */\n    tag_14:\n      tag_59\n      tag_60\n      jump\t// in\n    tag_59:\n      mload(0x40)\n      tag_61\n      swap2\n      swap1\n      tag_62\n      jump\t// in\n    tag_61:\n      mload(0x40)\n      dup1\n      swap2\n      sub\n      swap1\n      return\n        /* \"contracts/Farming.sol\":1901:1928  string public name = \"Farm\" */\n    tag_17:\n      0x00\n      dup1\n      sload\n      tag_63\n      swap1\n      tag_64\n      jump\t// in\n    tag_63:\n      dup1\n      0x1f\n      add\n      0x20\n      dup1\n      swap2\n      div\n      mul\n      0x20\n      add\n      mload(0x40)\n      swap1\n      dup2\n      add\n      0x40\n      mstore\n      dup1\n      swap3\n      swap2\n      swap1\n      dup2\n      dup2\n      mstore\n      0x20\n      add\n      dup3\n      dup1\n      sload\n      tag_65\n      swap1\n      tag_64\n      jump\t// in\n    tag_65:\n      dup1\n      iszero\n      tag_66\n      jumpi\n      dup1\n      0x1f\n      lt\n      tag_67\n      jumpi\n      0x0100\n      dup1\n      dup4\n      sload\n      div\n      mul\n      dup4\n      mstore\n      swap2\n      0x20\n      add\n      swap2\n      jump(tag_66)\n    tag_67:\n      dup3\n      add\n      swap2\n      swap1\n      0x00\n      mstore\n      keccak256(0x00, 0x20)\n      swap1\n    tag_68:\n      dup2\n      sload\n      dup2\n      mstore\n      swap1\n      0x01\n      add\n      swap1\n      0x20\n      add\n      dup1\n      dup4\n      gt\n      tag_68\n      jumpi\n      dup3\n      swap1\n      sub\n      0x1f\n      and\n      dup3\n      add\n      swap2\n    tag_66:\n      pop\n      pop\n      pop\n      pop\n      pop\n      dup2\n      jump\t// out\n        /* \"contracts/Farming.sol\":1932:1947  uint public apy */\n    tag_21:\n      sload(0x01)\n      dup2\n      jump\t// out\n        /* \"contracts/Farming.sol\":3398:3958  function issueTokens(address recipient) public {... */\n    tag_27:\n        /* \"contracts/Farming.sol\":3473:3478  owner */\n      0x02\n      0x00\n      swap1\n      sload\n      swap1\n      0x0100\n      exp\n      swap1\n      div\n      0xffffffffffffffffffffffffffffffffffffffff\n      and\n        /* \"contracts/Farming.sol\":3459:3478  msg.sender == owner */\n      0xffffffffffffffffffffffffffffffffffffffff\n      and\n        /* \"contracts/Farming.sol\":3459:3469  msg.sender */\n      caller\n        /* \"contracts/Farming.sol\":3459:3478  msg.sender == owner */\n      0xffffffffffffffffffffffffffffffffffffffff\n      and\n      eq\n        /* \"contracts/Farming.sol\":3451:3492  require(msg.sender == owner, \"not owner\") */\n      tag_70\n      jumpi\n      mload(0x40)\n      0x08c379a000000000000000000000000000000000000000000000000000000000\n      dup2\n      mstore\n      0x04\n      add\n      tag_71\n      swap1\n      tag_72\n      jump\t// in\n    tag_71:\n      mload(0x40)\n      dup1\n      swap2\n      sub\n      swap1\n      revert\n    tag_70:\n        /* \"contracts/Farming.sol\":3498:3510  uint balance */\n      0x00\n        /* \"contracts/Farming.sol\":3513:3527  stakingBalance */\n      0x05\n        /* \"contracts/Farming.sol\":3513:3538  stakingBalance[recipient] */\n      0x00\n        /* \"contracts/Farming.sol\":3528:3537  recipient */\n      dup4\n        /* \"contracts/Farming.sol\":3513:3538  stakingBalance[recipient] */\n      0xffffffffffffffffffffffffffffffffffffffff\n      and\n      0xffffffffffffffffffffffffffffffffffffffff\n      and\n      dup2\n      mstore\n      0x20\n      add\n      swap1\n      dup2\n      mstore\n      0x20\n      add\n      0x00\n      keccak256\n      sload\n        /* \"contracts/Farming.sol\":3498:3538  uint balance = stakingBalance[recipient] */\n      swap1\n      pop\n        /* \"contracts/Farming.sol\":3559:3560  0 */\n      0x00\n        /* \"contracts/Farming.sol\":3549:3556  balance */\n      dup2\n        /* \"contracts/Farming.sol\":3549:3560  balance > 0 */\n      gt\n        /* \"contracts/Farming.sol\":3546:3954  if(balance > 0) {... */\n      iszero\n      tag_73\n      jumpi\n        /* \"contracts/Farming.sol\":3657:3670  uint lastTime */\n      0x00\n        /* \"contracts/Farming.sol\":3673:3684  stakingTime */\n      0x06\n        /* \"contracts/Farming.sol\":3673:3695  stakingTime[recipient] */\n      0x00\n        /* \"contracts/Farming.sol\":3685:3694  recipient */\n      dup5\n        /* \"contracts/Farming.sol\":3673:3695  stakingTime[recipient] */\n      0xffffffffffffffffffffffffffffffffffffffff\n      and\n      0xffffffffffffffffffffffffffffffffffffffff\n      and\n      dup2\n      mstore\n      0x20\n      add\n      swap1\n      dup2\n      mstore\n      0x20\n      add\n      0x00\n      keccak256\n      sload\n        /* \"contracts/Farming.sol\":3657:3695  uint lastTime = stakingTime[recipient] */\n      swap1\n      pop\n        /* \"contracts/Farming.sol\":3705:3716  uint reward */\n      0x00\n        /* \"contracts/Farming.sol\":3770:3778  365 days */\n      0x01e13380\n        /* \"contracts/Farming.sol\":3764:3767  100 */\n      0x64\n        /* \"contracts/Farming.sol\":3760:3763  apy */\n      sload(0x01)\n        /* \"contracts/Farming.sol\":3748:3756  lastTime */\n      dup5\n        /* \"contracts/Farming.sol\":3730:3745  block.timestamp */\n      timestamp\n        /* \"contracts/Farming.sol\":3730:3756  block.timestamp - lastTime */\n      tag_74\n      swap2\n      swap1\n      tag_75\n      jump\t// in\n    tag_74:\n        /* \"contracts/Farming.sol\":3719:3726  balance */\n      dup7\n        /* \"contracts/Farming.sol\":3719:3757  balance * (block.timestamp - lastTime) */\n      tag_76\n      swap2\n      swap1\n      tag_77\n      jump\t// in\n    tag_76:\n        /* \"contracts/Farming.sol\":3719:3763  balance * (block.timestamp - lastTime) * apy */\n      tag_78\n      swap2\n      swap1\n      tag_77\n      jump\t// in\n    tag_78:\n        /* \"contracts/Farming.sol\":3719:3767  balance * (block.timestamp - lastTime) * apy/100 */\n      tag_79\n      swap2\n      swap1\n      tag_80\n      jump\t// in\n    tag_79:\n        /* \"contracts/Farming.sol\":3719:3778  balance * (block.timestamp - lastTime) * apy/100 / 365 days */\n      tag_81\n      swap2\n      swap1\n      tag_80\n      jump\t// in\n    tag_81:\n        /* \"contracts/Farming.sol\":3705:3778  uint reward = balance * (block.timestamp - lastTime) * apy/100 / 365 days */\n      swap1\n      pop\n        /* \"contracts/Farming.sol\":3821:3830  pondToken */\n      0x03\n      0x00\n      swap1\n      sload\n      swap1\n      0x0100\n      exp\n      swap1\n      div\n      0xffffffffffffffffffffffffffffffffffffffff\n      and\n        /* \"contracts/Farming.sol\":3821:3839  pondToken.transfer */\n      0xffffffffffffffffffffffffffffffffffffffff\n      and\n      0xa9059cbb\n        /* \"contracts/Farming.sol\":3840:3849  recipient */\n      dup6\n        /* \"contracts/Farming.sol\":3861:3867  reward */\n      dup4\n        /* \"contracts/Farming.sol\":3851:3858  balance */\n      dup7\n        /* \"contracts/Farming.sol\":3851:3867  balance + reward */\n      tag_82\n      swap2\n      swap1\n      tag_83\n      jump\t// in\n    tag_82:\n        /* \"contracts/Farming.sol\":3821:3868  pondToken.transfer(recipient, balance + reward) */\n      mload(0x40)\n      dup4\n      0xffffffff\n      and\n      0xe0\n      shl\n      dup2\n      mstore\n      0x04\n      add\n      tag_84\n      swap3\n      swap2\n      swap1\n      tag_85\n      jump\t// in\n    tag_84:\n      0x20\n      mload(0x40)\n      dup1\n      dup4\n      sub\n      dup2\n      0x00\n      dup8\n      gas\n      call\n      iszero\n      dup1\n      iszero\n      tag_87\n      jumpi\n      returndatasize\n      0x00\n      dup1\n      returndatacopy\n      revert(0x00, returndatasize)\n    tag_87:\n      pop\n      pop\n      pop\n      pop\n      mload(0x40)\n      returndatasize\n      not(0x1f)\n      0x1f\n      dup3\n      add\n      and\n      dup3\n      add\n      dup1\n      0x40\n      mstore\n      pop\n      dup2\n      add\n      swap1\n      tag_88\n      swap2\n      swap1\n      tag_89\n      jump\t// in\n    tag_88:\n      pop\n        /* \"contracts/Farming.sol\":3906:3907  0 */\n      0x00\n        /* \"contracts/Farming.sol\":3878:3892  stakingBalance */\n      0x05\n        /* \"contracts/Farming.sol\":3878:3903  stakingBalance[recipient] */\n      0x00\n        /* \"contracts/Farming.sol\":3893:3902  recipient */\n      dup7\n        /* \"contracts/Farming.sol\":3878:3903  stakingBalance[recipient] */\n      0xffffffffffffffffffffffffffffffffffffffff\n      and\n      0xffffffffffffffffffffffffffffffffffffffff\n      and\n      dup2\n      mstore\n      0x20\n      add\n      swap1\n      dup2\n      mstore\n      0x20\n      add\n      0x00\n      keccak256\n        /* \"contracts/Farming.sol\":3878:3907  stakingBalance[recipient] = 0 */\n      dup2\n      swap1\n      sstore\n      pop\n        /* \"contracts/Farming.sol\":3940:3945  false */\n      0x00\n        /* \"contracts/Farming.sol\":3917:3926  hasStaked */\n      0x07\n        /* \"contracts/Farming.sol\":3917:3937  hasStaked[recipient] */\n      0x00\n        /* \"contracts/Farming.sol\":3927:3936  recipient */\n      dup7\n        /* \"contracts/Farming.sol\":3917:3937  hasStaked[recipient] */\n      0xffffffffffffffffffffffffffffffffffffffff\n      and\n      0xffffffffffffffffffffffffffffffffffffffff\n      and\n      dup2\n      mstore\n      0x20\n      add\n      swap1\n      dup2\n      mstore\n      0x20\n      add\n      0x00\n      keccak256\n      0x00\n        /* \"contracts/Farming.sol\":3917:3945  hasStaked[recipient] = false */\n      0x0100\n      exp\n      dup2\n      sload\n      dup2\n      0xff\n      mul\n      not\n      and\n      swap1\n      dup4\n      iszero\n      iszero\n      mul\n      or\n      swap1\n      sstore\n      pop\n        /* \"contracts/Farming.sol\":3562:3954  {... */\n      pop\n      pop\n        /* \"contracts/Farming.sol\":3546:3954  if(balance > 0) {... */\n    tag_73:\n        /* \"contracts/Farming.sol\":3445:3958  {... */\n      pop\n        /* \"contracts/Farming.sol\":3398:3958  function issueTokens(address recipient) public {... */\n      pop\n      jump\t// out\n        /* \"contracts/Farming.sol\":2068:2114  mapping(address => uint) public stakingBalance */\n    tag_30:\n      mstore(0x20, 0x05)\n      dup1\n      0x00\n      mstore\n      keccak256(0x00, 0x40)\n      0x00\n      swap2\n      pop\n      swap1\n      pop\n      sload\n      dup2\n      jump\t// out\n        /* \"contracts/Farming.sol\":2118:2161  mapping(address => uint) public stakingTime */\n    tag_34:\n      mstore(0x20, 0x06)\n      dup1\n      0x00\n      mstore\n      keccak256(0x00, 0x40)\n      0x00\n      swap2\n      pop\n      swap1\n      pop\n      sload\n      dup2\n      jump\t// out\n        /* \"contracts/Farming.sol\":2747:3372  function stakeTokens(uint _amount) public {... */\n    tag_39:\n        /* \"contracts/Farming.sol\":2813:2814  0 */\n      0x00\n        /* \"contracts/Farming.sol\":2803:2810  _amount */\n      dup2\n        /* \"contracts/Farming.sol\":2803:2814  _amount > 0 */\n      gt\n        /* \"contracts/Farming.sol\":2795:2837  require(_amount > 0, \"amount cannot be 0\") */\n      tag_91\n      jumpi\n      mload(0x40)\n      0x08c379a000000000000000000000000000000000000000000000000000000000\n      dup2\n      mstore\n      0x04\n      add\n      tag_92\n      swap1\n      tag_93\n      jump\t// in\n    tag_92:\n      mload(0x40)\n      dup1\n      swap2\n      sub\n      swap1\n      revert\n    tag_91:\n        /* \"contracts/Farming.sol\":2843:2852  pondToken */\n      0x03\n      0x00\n      swap1\n      sload\n      swap1\n      0x0100\n      exp\n      swap1\n      div\n      0xffffffffffffffffffffffffffffffffffffffff\n      and\n        /* \"contracts/Farming.sol\":2843:2865  pondToken.transferFrom */\n      0xffffffffffffffffffffffffffffffffffffffff\n      and\n      0x23b872dd\n        /* \"contracts/Farming.sol\":2866:2876  msg.sender */\n      caller\n        /* \"contracts/Farming.sol\":2886:2890  this */\n      address\n        /* \"contracts/Farming.sol\":2893:2900  _amount */\n      dup5\n        /* \"contracts/Farming.sol\":2843:2901  pondToken.transferFrom(msg.sender, address(this), _amount) */\n      mload(0x40)\n      dup5\n      0xffffffff\n      and\n      0xe0\n      shl\n      dup2\n      mstore\n      0x04\n      add\n      tag_94\n      swap4\n      swap3\n      swap2\n      swap1\n      tag_95\n      jump\t// in\n    tag_94:\n      0x20\n      mload(0x40)\n      dup1\n      dup4\n      sub\n      dup2\n      0x00\n      dup8\n      gas\n      call\n      iszero\n      dup1\n      iszero\n      tag_97\n      jumpi\n      returndatasize\n      0x00\n      dup1\n      returndatacopy\n      revert(0x00, returndatasize)\n    tag_97:\n      pop\n      pop\n      pop\n      pop\n      mload(0x40)\n      returndatasize\n      not(0x1f)\n      0x1f\n      dup3\n      add\n      and\n      dup3\n      add\n      dup1\n      0x40\n      mstore\n      pop\n      dup2\n      add\n      swap1\n      tag_98\n      swap2\n      swap1\n      tag_89\n      jump\t// in\n    tag_98:\n      pop\n        /* \"contracts/Farming.sol\":2907:2919  uint balance */\n      0x00\n        /* \"contracts/Farming.sol\":2925:2936  uint reward */\n      dup1\n        /* \"contracts/Farming.sol\":2962:2979  getRewardTokens() */\n      tag_99\n        /* \"contracts/Farming.sol\":2962:2977  getRewardTokens */\n      tag_47\n        /* \"contracts/Farming.sol\":2962:2979  getRewardTokens() */\n      jump\t// in\n    tag_99:\n        /* \"contracts/Farming.sol\":2942:2979  (balance, reward) = getRewardTokens() */\n      dup1\n      swap3\n      pop\n      dup2\n      swap4\n      pop\n      pop\n      pop\n        /* \"contracts/Farming.sol\":2985:2994  pondToken */\n      0x03\n      0x00\n      swap1\n      sload\n      swap1\n      0x0100\n      exp\n      swap1\n      div\n      0xffffffffffffffffffffffffffffffffffffffff\n      and\n        /* \"contracts/Farming.sol\":2985:3003  pondToken.transfer */\n      0xffffffffffffffffffffffffffffffffffffffff\n      and\n      0xa9059cbb\n        /* \"contracts/Farming.sol\":3004:3014  msg.sender */\n      caller\n        /* \"contracts/Farming.sol\":3016:3022  reward */\n      dup4\n        /* \"contracts/Farming.sol\":2985:3023  pondToken.transfer(msg.sender, reward) */\n      mload(0x40)\n      dup4\n      0xffffffff\n      and\n      0xe0\n      shl\n      dup2\n      mstore\n      0x04\n      add\n      tag_100\n      swap3\n      swap2\n      swap1\n      tag_85\n      jump\t// in\n    tag_100:\n      0x20\n      mload(0x40)\n      dup1\n      dup4\n      sub\n      dup2\n      0x00\n      dup8\n      gas\n      call\n      iszero\n      dup1\n      iszero\n      tag_102\n      jumpi\n      returndatasize\n      0x00\n      dup1\n      returndatacopy\n      revert(0x00, returndatasize)\n    tag_102:\n      pop\n      pop\n      pop\n      pop\n      mload(0x40)\n      returndatasize\n      not(0x1f)\n      0x1f\n      dup3\n      add\n      and\n      dup3\n      add\n      dup1\n      0x40\n      mstore\n      pop\n      dup2\n      add\n      swap1\n      tag_103\n      swap2\n      swap1\n      tag_89\n      jump\t// in\n    tag_103:\n      pop\n        /* \"contracts/Farming.sol\":3107:3114  _amount */\n      dup3\n        /* \"contracts/Farming.sol\":3097:3104  balance */\n      dup3\n        /* \"contracts/Farming.sol\":3097:3114  balance + _amount */\n      tag_104\n      swap2\n      swap1\n      tag_83\n      jump\t// in\n    tag_104:\n        /* \"contracts/Farming.sol\":3068:3082  stakingBalance */\n      0x05\n        /* \"contracts/Farming.sol\":3068:3094  stakingBalance[msg.sender] */\n      0x00\n        /* \"contracts/Farming.sol\":3083:3093  msg.sender */\n      caller\n        /* \"contracts/Farming.sol\":3068:3094  stakingBalance[msg.sender] */\n      0xffffffffffffffffffffffffffffffffffffffff\n      and\n      0xffffffffffffffffffffffffffffffffffffffff\n      and\n      dup2\n      mstore\n      0x20\n      add\n      swap1\n      dup2\n      mstore\n      0x20\n      add\n      0x00\n      keccak256\n        /* \"contracts/Farming.sol\":3068:3114  stakingBalance[msg.sender] = balance + _amount */\n      dup2\n      swap1\n      sstore\n      pop\n        /* \"contracts/Farming.sol\":3146:3161  block.timestamp */\n      timestamp\n        /* \"contracts/Farming.sol\":3120:3131  stakingTime */\n      0x06\n        /* \"contracts/Farming.sol\":3120:3143  stakingTime[msg.sender] */\n      0x00\n        /* \"contracts/Farming.sol\":3132:3142  msg.sender */\n      caller\n        /* \"contracts/Farming.sol\":3120:3143  stakingTime[msg.sender] */\n      0xffffffffffffffffffffffffffffffffffffffff\n      and\n      0xffffffffffffffffffffffffffffffffffffffff\n      and\n      dup2\n      mstore\n      0x20\n      add\n      swap1\n      dup2\n      mstore\n      0x20\n      add\n      0x00\n      keccak256\n        /* \"contracts/Farming.sol\":3120:3161  stakingTime[msg.sender] = block.timestamp */\n      dup2\n      swap1\n      sstore\n      pop\n        /* \"contracts/Farming.sol\":3236:3245  hasStaked */\n      0x07\n        /* \"contracts/Farming.sol\":3236:3257  hasStaked[msg.sender] */\n      0x00\n        /* \"contracts/Farming.sol\":3246:3256  msg.sender */\n      caller\n        /* \"contracts/Farming.sol\":3236:3257  hasStaked[msg.sender] */\n      0xffffffffffffffffffffffffffffffffffffffff\n      and\n      0xffffffffffffffffffffffffffffffffffffffff\n      and\n      dup2\n      mstore\n      0x20\n      add\n      swap1\n      dup2\n      mstore\n      0x20\n      add\n      0x00\n      keccak256\n      0x00\n      swap1\n      sload\n      swap1\n      0x0100\n      exp\n      swap1\n      div\n      0xff\n      and\n        /* \"contracts/Farming.sol\":3232:3298  if(!hasStaked[msg.sender]) {... */\n      tag_105\n      jumpi\n        /* \"contracts/Farming.sol\":3267:3274  stakers */\n      0x04\n        /* \"contracts/Farming.sol\":3280:3290  msg.sender */\n      caller\n        /* \"contracts/Farming.sol\":3267:3291  stakers.push(msg.sender) */\n      swap1\n      dup1\n      0x01\n      dup2\n      sload\n      add\n      dup1\n      dup3\n      sstore\n      dup1\n      swap2\n      pop\n      pop\n      0x01\n      swap1\n      sub\n      swap1\n      0x00\n      mstore\n      keccak256(0x00, 0x20)\n      add\n      0x00\n      swap1\n      swap2\n      swap1\n      swap2\n      swap1\n      swap2\n      0x0100\n      exp\n      dup2\n      sload\n      dup2\n      0xffffffffffffffffffffffffffffffffffffffff\n      mul\n      not\n      and\n      swap1\n      dup4\n      0xffffffffffffffffffffffffffffffffffffffff\n      and\n      mul\n      or\n      swap1\n      sstore\n      pop\n        /* \"contracts/Farming.sol\":3232:3298  if(!hasStaked[msg.sender]) {... */\n    tag_105:\n        /* \"contracts/Farming.sol\":3363:3367  true */\n      0x01\n        /* \"contracts/Farming.sol\":3339:3348  hasStaked */\n      0x07\n        /* \"contracts/Farming.sol\":3339:3360  hasStaked[msg.sender] */\n      0x00\n        /* \"contracts/Farming.sol\":3349:3359  msg.sender */\n      caller\n        /* \"contracts/Farming.sol\":3339:3360  hasStaked[msg.sender] */\n      0xffffffffffffffffffffffffffffffffffffffff\n      and\n      0xffffffffffffffffffffffffffffffffffffffff\n      and\n      dup2\n      mstore\n      0x20\n      add\n      swap1\n      dup2\n      mstore\n      0x20\n      add\n      0x00\n      keccak256\n      0x00\n        /* \"contracts/Farming.sol\":3339:3367  hasStaked[msg.sender] = true */\n      0x0100\n      exp\n      dup2\n      sload\n      dup2\n      0xff\n      mul\n      not\n      and\n      swap1\n      dup4\n      iszero\n      iszero\n      mul\n      or\n      swap1\n      sstore\n      pop\n        /* \"contracts/Farming.sol\":2789:3372  {... */\n      pop\n      pop\n        /* \"contracts/Farming.sol\":2747:3372  function stakeTokens(uint _amount) public {... */\n      pop\n      jump\t// out\n        /* \"contracts/Farming.sol\":1951:1971  address public owner */\n    tag_41:\n      0x02\n      0x00\n      swap1\n      sload\n      swap1\n      0x0100\n      exp\n      swap1\n      div\n      0xffffffffffffffffffffffffffffffffffffffff\n      and\n      dup2\n      jump\t// out\n        /* \"contracts/Farming.sol\":4054:4414  function unstakeTokens() public {... */\n    tag_45:\n        /* \"contracts/Farming.sol\":4092:4104  uint balance */\n      0x00\n        /* \"contracts/Farming.sol\":4106:4117  uint reward */\n      dup1\n        /* \"contracts/Farming.sol\":4143:4160  getRewardTokens() */\n      tag_108\n        /* \"contracts/Farming.sol\":4143:4158  getRewardTokens */\n      tag_47\n        /* \"contracts/Farming.sol\":4143:4160  getRewardTokens() */\n      jump\t// in\n    tag_108:\n        /* \"contracts/Farming.sol\":4123:4160  (balance, reward) = getRewardTokens() */\n      dup1\n      swap3\n      pop\n      dup2\n      swap4\n      pop\n      pop\n      pop\n        /* \"contracts/Farming.sol\":4184:4185  0 */\n      0x00\n        /* \"contracts/Farming.sol\":4174:4181  balance */\n      dup3\n        /* \"contracts/Farming.sol\":4174:4185  balance > 0 */\n      gt\n        /* \"contracts/Farming.sol\":4166:4218  require(balance > 0, \"Staking Balance cannot be 0.\") */\n      tag_109\n      jumpi\n      mload(0x40)\n      0x08c379a000000000000000000000000000000000000000000000000000000000\n      dup2\n      mstore\n      0x04\n      add\n      tag_110\n      swap1\n      tag_111\n      jump\t// in\n    tag_110:\n      mload(0x40)\n      dup1\n      swap2\n      sub\n      swap1\n      revert\n    tag_109:\n        /* \"contracts/Farming.sol\":4224:4233  pondToken */\n      0x03\n      0x00\n      swap1\n      sload\n      swap1\n      0x0100\n      exp\n      swap1\n      div\n      0xffffffffffffffffffffffffffffffffffffffff\n      and\n        /* \"contracts/Farming.sol\":4224:4242  pondToken.transfer */\n      0xffffffffffffffffffffffffffffffffffffffff\n      and\n      0xa9059cbb\n        /* \"contracts/Farming.sol\":4243:4253  msg.sender */\n      caller\n        /* \"contracts/Farming.sol\":4265:4271  reward */\n      dup4\n        /* \"contracts/Farming.sol\":4255:4262  balance */\n      dup6\n        /* \"contracts/Farming.sol\":4255:4271  balance + reward */\n      tag_112\n      swap2\n      swap1\n      tag_83\n      jump\t// in\n    tag_112:\n        /* \"contracts/Farming.sol\":4224:4272  pondToken.transfer(msg.sender, balance + reward) */\n      mload(0x40)\n      dup4\n      0xffffffff\n      and\n      0xe0\n      shl\n      dup2\n      mstore\n      0x04\n      add\n      tag_113\n      swap3\n      swap2\n      swap1\n      tag_85\n      jump\t// in\n    tag_113:\n      0x20\n      mload(0x40)\n      dup1\n      dup4\n      sub\n      dup2\n      0x00\n      dup8\n      gas\n      call\n      iszero\n      dup1\n      iszero\n      tag_115\n      jumpi\n      returndatasize\n      0x00\n      dup1\n      returndatacopy\n      revert(0x00, returndatasize)\n    tag_115:\n      pop\n      pop\n      pop\n      pop\n      mload(0x40)\n      returndatasize\n      not(0x1f)\n      0x1f\n      dup3\n      add\n      and\n      dup3\n      add\n      dup1\n      0x40\n      mstore\n      pop\n      dup2\n      add\n      swap1\n      tag_116\n      swap2\n      swap1\n      tag_89\n      jump\t// in\n    tag_116:\n      pop\n        /* \"contracts/Farming.sol\":4373:4374  0 */\n      0x00\n        /* \"contracts/Farming.sol\":4344:4358  stakingBalance */\n      0x05\n        /* \"contracts/Farming.sol\":4344:4370  stakingBalance[msg.sender] */\n      0x00\n        /* \"contracts/Farming.sol\":4359:4369  msg.sender */\n      caller\n        /* \"contracts/Farming.sol\":4344:4370  stakingBalance[msg.sender] */\n      0xffffffffffffffffffffffffffffffffffffffff\n      and\n      0xffffffffffffffffffffffffffffffffffffffff\n      and\n      dup2\n      mstore\n      0x20\n      add\n      swap1\n      dup2\n      mstore\n      0x20\n      add\n      0x00\n      keccak256\n        /* \"contracts/Farming.sol\":4344:4374  stakingBalance[msg.sender] = 0 */\n      dup2\n      swap1\n      sstore\n      pop\n        /* \"contracts/Farming.sol\":4404:4409  false */\n      0x00\n        /* \"contracts/Farming.sol\":4380:4389  hasStaked */\n      0x07\n        /* \"contracts/Farming.sol\":4380:4401  hasStaked[msg.sender] */\n      0x00\n        /* \"contracts/Farming.sol\":4390:4400  msg.sender */\n      caller\n        /* \"contracts/Farming.sol\":4380:4401  hasStaked[msg.sender] */\n      0xffffffffffffffffffffffffffffffffffffffff\n      and\n      0xffffffffffffffffffffffffffffffffffffffff\n      and\n      dup2\n      mstore\n      0x20\n      add\n      swap1\n      dup2\n      mstore\n      0x20\n      add\n      0x00\n      keccak256\n      0x00\n        /* \"contracts/Farming.sol\":4380:4409  hasStaked[msg.sender] = false */\n      0x0100\n      exp\n      dup2\n      sload\n      dup2\n      0xff\n      mul\n      not\n      and\n      swap1\n      dup4\n      iszero\n      iszero\n      mul\n      or\n      swap1\n      sstore\n      pop\n        /* \"contracts/Farming.sol\":4086:4414  {... */\n      pop\n      pop\n        /* \"contracts/Farming.sol\":4054:4414  function unstakeTokens() public {... */\n      jump\t// out\n        /* \"contracts/Farming.sol\":2399:2713  function getRewardTokens() public view returns(uint, uint){... */\n    tag_47:\n        /* \"contracts/Farming.sol\":2446:2450  uint */\n      0x00\n        /* \"contracts/Farming.sol\":2452:2456  uint */\n      dup1\n        /* \"contracts/Farming.sol\":2463:2475  uint balance */\n      0x00\n        /* \"contracts/Farming.sol\":2478:2492  stakingBalance */\n      0x05\n        /* \"contracts/Farming.sol\":2478:2504  stakingBalance[msg.sender] */\n      0x00\n        /* \"contracts/Farming.sol\":2493:2503  msg.sender */\n      caller\n        /* \"contracts/Farming.sol\":2478:2504  stakingBalance[msg.sender] */\n      0xffffffffffffffffffffffffffffffffffffffff\n      and\n      0xffffffffffffffffffffffffffffffffffffffff\n      and\n      dup2\n      mstore\n      0x20\n      add\n      swap1\n      dup2\n      mstore\n      0x20\n      add\n      0x00\n      keccak256\n      sload\n        /* \"contracts/Farming.sol\":2463:2504  uint balance = stakingBalance[msg.sender] */\n      swap1\n      pop\n        /* \"contracts/Farming.sol\":2525:2526  0 */\n      0x00\n        /* \"contracts/Farming.sol\":2514:2521  balance */\n      dup2\n        /* \"contracts/Farming.sol\":2514:2526  balance == 0 */\n      sub\n        /* \"contracts/Farming.sol\":2510:2555  if (balance == 0){... */\n      tag_118\n      jumpi\n        /* \"contracts/Farming.sol\":2543:2544  0 */\n      0x00\n        /* \"contracts/Farming.sol\":2546:2547  0 */\n      dup1\n        /* \"contracts/Farming.sol\":2535:2548  return (0, 0) */\n      swap3\n      pop\n      swap3\n      pop\n      pop\n      jump(tag_117)\n        /* \"contracts/Farming.sol\":2510:2555  if (balance == 0){... */\n    tag_118:\n        /* \"contracts/Farming.sol\":2560:2573  uint lastTime */\n      0x00\n        /* \"contracts/Farming.sol\":2576:2587  stakingTime */\n      0x06\n        /* \"contracts/Farming.sol\":2576:2599  stakingTime[msg.sender] */\n      0x00\n        /* \"contracts/Farming.sol\":2588:2598  msg.sender */\n      caller\n        /* \"contracts/Farming.sol\":2576:2599  stakingTime[msg.sender] */\n      0xffffffffffffffffffffffffffffffffffffffff\n      and\n      0xffffffffffffffffffffffffffffffffffffffff\n      and\n      dup2\n      mstore\n      0x20\n      add\n      swap1\n      dup2\n      mstore\n      0x20\n      add\n      0x00\n      keccak256\n      sload\n        /* \"contracts/Farming.sol\":2560:2599  uint lastTime = stakingTime[msg.sender] */\n      swap1\n      pop\n        /* \"contracts/Farming.sol\":2605:2616  uint reward */\n      0x00\n        /* \"contracts/Farming.sol\":2670:2678  365 days */\n      0x01e13380\n        /* \"contracts/Farming.sol\":2664:2667  100 */\n      0x64\n        /* \"contracts/Farming.sol\":2660:2663  apy */\n      sload(0x01)\n        /* \"contracts/Farming.sol\":2648:2656  lastTime */\n      dup5\n        /* \"contracts/Farming.sol\":2630:2645  block.timestamp */\n      timestamp\n        /* \"contracts/Farming.sol\":2630:2656  block.timestamp - lastTime */\n      tag_119\n      swap2\n      swap1\n      tag_75\n      jump\t// in\n    tag_119:\n        /* \"contracts/Farming.sol\":2619:2626  balance */\n      dup7\n        /* \"contracts/Farming.sol\":2619:2657  balance * (block.timestamp - lastTime) */\n      tag_120\n      swap2\n      swap1\n      tag_77\n      jump\t// in\n    tag_120:\n        /* \"contracts/Farming.sol\":2619:2663  balance * (block.timestamp - lastTime) * apy */\n      tag_121\n      swap2\n      swap1\n      tag_77\n      jump\t// in\n    tag_121:\n        /* \"contracts/Farming.sol\":2619:2667  balance * (block.timestamp - lastTime) * apy/100 */\n      tag_122\n      swap2\n      swap1\n      tag_80\n      jump\t// in\n    tag_122:\n        /* \"contracts/Farming.sol\":2619:2678  balance * (block.timestamp - lastTime) * apy/100 / 365 days */\n      tag_123\n      swap2\n      swap1\n      tag_80\n      jump\t// in\n    tag_123:\n        /* \"contracts/Farming.sol\":2605:2678  uint reward = balance * (block.timestamp - lastTime) * apy/100 / 365 days */\n      swap1\n      pop\n        /* \"contracts/Farming.sol\":2692:2699  balance */\n      dup3\n        /* \"contracts/Farming.sol\":2701:2707  reward */\n      dup2\n        /* \"contracts/Farming.sol\":2684:2708  return (balance, reward) */\n      swap5\n      pop\n      swap5\n      pop\n      pop\n      pop\n      pop\n        /* \"contracts/Farming.sol\":2399:2713  function getRewardTokens() public view returns(uint, uint){... */\n    tag_117:\n      swap1\n      swap2\n      jump\t// out\n        /* \"contracts/Farming.sol\":2165:2206  mapping(address => bool) public hasStaked */\n    tag_52:\n      mstore(0x20, 0x07)\n      dup1\n      0x00\n      mstore\n      keccak256(0x00, 0x40)\n      0x00\n      swap2\n      pop\n      sload\n      swap1\n      0x0100\n      exp\n      swap1\n      div\n      0xff\n      and\n      dup2\n      jump\t// out\n        /* \"contracts/Farming.sol\":2040:2064  address[] public stakers */\n    tag_57:\n      0x04\n      dup2\n      dup2\n      sload\n      dup2\n      lt\n      tag_124\n      jumpi\n      0x00\n      dup1\n      revert\n    tag_124:\n      swap1\n      0x00\n      mstore\n      keccak256(0x00, 0x20)\n      add\n      0x00\n      swap2\n      pop\n      sload\n      swap1\n      0x0100\n      exp\n      swap1\n      div\n      0xffffffffffffffffffffffffffffffffffffffff\n      and\n      dup2\n      jump\t// out\n        /* \"contracts/Farming.sol\":1975:2001  PondToken public pondToken */\n    tag_60:\n      0x03\n      0x00\n      swap1\n      sload\n      swap1\n      0x0100\n      exp\n      swap1\n      div\n      0xffffffffffffffffffffffffffffffffffffffff\n      and\n      dup2\n      jump\t// out\n        /* \"#utility.yul\":7:106   */\n    tag_126:\n        /* \"#utility.yul\":59:65   */\n      0x00\n        /* \"#utility.yul\":93:98   */\n      dup2\n        /* \"#utility.yul\":87:99   */\n      mload\n        /* \"#utility.yul\":77:99   */\n      swap1\n      pop\n        /* \"#utility.yul\":7:106   */\n      swap2\n      swap1\n      pop\n      jump\t// out\n        /* \"#utility.yul\":112:281   */\n    tag_127:\n        /* \"#utility.yul\":196:207   */\n      0x00\n        /* \"#utility.yul\":230:236   */\n      dup3\n        /* \"#utility.yul\":225:228   */\n      dup3\n        /* \"#utility.yul\":218:237   */\n      mstore\n        /* \"#utility.yul\":270:274   */\n      0x20\n        /* \"#utility.yul\":265:268   */\n      dup3\n        /* \"#utility.yul\":261:275   */\n      add\n        /* \"#utility.yul\":246:275   */\n      swap1\n      pop\n        /* \"#utility.yul\":112:281   */\n      swap3\n      swap2\n      pop\n      pop\n      jump\t// out\n        /* \"#utility.yul\":287:594   */\n    tag_128:\n        /* \"#utility.yul\":355:356   */\n      0x00\n        /* \"#utility.yul\":365:478   */\n    tag_165:\n        /* \"#utility.yul\":379:385   */\n      dup4\n        /* \"#utility.yul\":376:377   */\n      dup2\n        /* \"#utility.yul\":373:386   */\n      lt\n        /* \"#utility.yul\":365:478   */\n      iszero\n      tag_167\n      jumpi\n        /* \"#utility.yul\":464:465   */\n      dup1\n        /* \"#utility.yul\":459:462   */\n      dup3\n        /* \"#utility.yul\":455:466   */\n      add\n        /* \"#utility.yul\":449:467   */\n      mload\n        /* \"#utility.yul\":445:446   */\n      dup2\n        /* \"#utility.yul\":440:443   */\n      dup5\n        /* \"#utility.yul\":436:447   */\n      add\n        /* \"#utility.yul\":429:468   */\n      mstore\n        /* \"#utility.yul\":401:403   */\n      0x20\n        /* \"#utility.yul\":398:399   */\n      dup2\n        /* \"#utility.yul\":394:404   */\n      add\n        /* \"#utility.yul\":389:404   */\n      swap1\n      pop\n        /* \"#utility.yul\":365:478   */\n      jump(tag_165)\n    tag_167:\n        /* \"#utility.yul\":496:502   */\n      dup4\n        /* \"#utility.yul\":493:494   */\n      dup2\n        /* \"#utility.yul\":490:503   */\n      gt\n        /* \"#utility.yul\":487:588   */\n      iszero\n      tag_168\n      jumpi\n        /* \"#utility.yul\":576:577   */\n      0x00\n        /* \"#utility.yul\":567:573   */\n      dup5\n        /* \"#utility.yul\":562:565   */\n      dup5\n        /* \"#utility.yul\":558:574   */\n      add\n        /* \"#utility.yul\":551:578   */\n      mstore\n        /* \"#utility.yul\":487:588   */\n    tag_168:\n        /* \"#utility.yul\":336:594   */\n      pop\n        /* \"#utility.yul\":287:594   */\n      pop\n      pop\n      pop\n      jump\t// out\n        /* \"#utility.yul\":600:702   */\n    tag_129:\n        /* \"#utility.yul\":641:647   */\n      0x00\n        /* \"#utility.yul\":692:694   */\n      0x1f\n        /* \"#utility.yul\":688:695   */\n      not\n        /* \"#utility.yul\":683:685   */\n      0x1f\n        /* \"#utility.yul\":676:681   */\n      dup4\n        /* \"#utility.yul\":672:686   */\n      add\n        /* \"#utility.yul\":668:696   */\n      and\n        /* \"#utility.yul\":658:696   */\n      swap1\n      pop\n        /* \"#utility.yul\":600:702   */\n      swap2\n      swap1\n      pop\n      jump\t// out\n        /* \"#utility.yul\":708:1072   */\n    tag_130:\n        /* \"#utility.yul\":796:799   */\n      0x00\n        /* \"#utility.yul\":824:863   */\n      tag_171\n        /* \"#utility.yul\":857:862   */\n      dup3\n        /* \"#utility.yul\":824:863   */\n      tag_126\n      jump\t// in\n    tag_171:\n        /* \"#utility.yul\":879:950   */\n      tag_172\n        /* \"#utility.yul\":943:949   */\n      dup2\n        /* \"#utility.yul\":938:941   */\n      dup6\n        /* \"#utility.yul\":879:950   */\n      tag_127\n      jump\t// in\n    tag_172:\n        /* \"#utility.yul\":872:950   */\n      swap4\n      pop\n        /* \"#utility.yul\":959:1011   */\n      tag_173\n        /* \"#utility.yul\":1004:1010   */\n      dup2\n        /* \"#utility.yul\":999:1002   */\n      dup6\n        /* \"#utility.yul\":992:996   */\n      0x20\n        /* \"#utility.yul\":985:990   */\n      dup7\n        /* \"#utility.yul\":981:997   */\n      add\n        /* \"#utility.yul\":959:1011   */\n      tag_128\n      jump\t// in\n    tag_173:\n        /* \"#utility.yul\":1036:1065   */\n      tag_174\n        /* \"#utility.yul\":1058:1064   */\n      dup2\n        /* \"#utility.yul\":1036:1065   */\n      tag_129\n      jump\t// in\n    tag_174:\n        /* \"#utility.yul\":1031:1034   */\n      dup5\n        /* \"#utility.yul\":1027:1066   */\n      add\n        /* \"#utility.yul\":1020:1066   */\n      swap2\n      pop\n        /* \"#utility.yul\":800:1072   */\n      pop\n        /* \"#utility.yul\":708:1072   */\n      swap3\n      swap2\n      pop\n      pop\n      jump\t// out\n        /* \"#utility.yul\":1078:1391   */\n    tag_19:\n        /* \"#utility.yul\":1191:1195   */\n      0x00\n        /* \"#utility.yul\":1229:1231   */\n      0x20\n        /* \"#utility.yul\":1218:1227   */\n      dup3\n        /* \"#utility.yul\":1214:1232   */\n      add\n        /* \"#utility.yul\":1206:1232   */\n      swap1\n      pop\n        /* \"#utility.yul\":1278:1287   */\n      dup2\n        /* \"#utility.yul\":1272:1276   */\n      dup2\n        /* \"#utility.yul\":1268:1288   */\n      sub\n        /* \"#utility.yul\":1264:1265   */\n      0x00\n        /* \"#utility.yul\":1253:1262   */\n      dup4\n        /* \"#utility.yul\":1249:1266   */\n      add\n        /* \"#utility.yul\":1242:1289   */\n      mstore\n        /* \"#utility.yul\":1306:1384   */\n      tag_176\n        /* \"#utility.yul\":1379:1383   */\n      dup2\n        /* \"#utility.yul\":1370:1376   */\n      dup5\n        /* \"#utility.yul\":1306:1384   */\n      tag_130\n      jump\t// in\n    tag_176:\n        /* \"#utility.yul\":1298:1384   */\n      swap1\n      pop\n        /* \"#utility.yul\":1078:1391   */\n      swap3\n      swap2\n      pop\n      pop\n      jump\t// out\n        /* \"#utility.yul\":1397:1474   */\n    tag_131:\n        /* \"#utility.yul\":1434:1441   */\n      0x00\n        /* \"#utility.yul\":1463:1468   */\n      dup2\n        /* \"#utility.yul\":1452:1468   */\n      swap1\n      pop\n        /* \"#utility.yul\":1397:1474   */\n      swap2\n      swap1\n      pop\n      jump\t// out\n        /* \"#utility.yul\":1480:1598   */\n    tag_132:\n        /* \"#utility.yul\":1567:1591   */\n      tag_179\n        /* \"#utility.yul\":1585:1590   */\n      dup2\n        /* \"#utility.yul\":1567:1591   */\n      tag_131\n      jump\t// in\n    tag_179:\n        /* \"#utility.yul\":1562:1565   */\n      dup3\n        /* \"#utility.yul\":1555:1592   */\n      mstore\n        /* \"#utility.yul\":1480:1598   */\n      pop\n      pop\n      jump\t// out\n        /* \"#utility.yul\":1604:1826   */\n    tag_23:\n        /* \"#utility.yul\":1697:1701   */\n      0x00\n        /* \"#utility.yul\":1735:1737   */\n      0x20\n        /* \"#utility.yul\":1724:1733   */\n      dup3\n        /* \"#utility.yul\":1720:1738   */\n      add\n        /* \"#utility.yul\":1712:1738   */\n      swap1\n      pop\n        /* \"#utility.yul\":1748:1819   */\n      tag_181\n        /* \"#utility.yul\":1816:1817   */\n      0x00\n        /* \"#utility.yul\":1805:1814   */\n      dup4\n        /* \"#utility.yul\":1801:1818   */\n      add\n        /* \"#utility.yul\":1792:1798   */\n      dup5\n        /* \"#utility.yul\":1748:1819   */\n      tag_132\n      jump\t// in\n    tag_181:\n        /* \"#utility.yul\":1604:1826   */\n      swap3\n      swap2\n      pop\n      pop\n      jump\t// out\n        /* \"#utility.yul\":1913:2030   */\n    tag_134:\n        /* \"#utility.yul\":2022:2023   */\n      0x00\n        /* \"#utility.yul\":2019:2020   */\n      dup1\n        /* \"#utility.yul\":2012:2024   */\n      revert\n        /* \"#utility.yul\":2159:2285   */\n    tag_136:\n        /* \"#utility.yul\":2196:2203   */\n      0x00\n        /* \"#utility.yul\":2236:2278   */\n      0xffffffffffffffffffffffffffffffffffffffff\n        /* \"#utility.yul\":2229:2234   */\n      dup3\n        /* \"#utility.yul\":2225:2279   */\n      and\n        /* \"#utility.yul\":2214:2279   */\n      swap1\n      pop\n        /* \"#utility.yul\":2159:2285   */\n      swap2\n      swap1\n      pop\n      jump\t// out\n        /* \"#utility.yul\":2291:2387   */\n    tag_137:\n        /* \"#utility.yul\":2328:2335   */\n      0x00\n        /* \"#utility.yul\":2357:2381   */\n      tag_187\n        /* \"#utility.yul\":2375:2380   */\n      dup3\n        /* \"#utility.yul\":2357:2381   */\n      tag_136\n      jump\t// in\n    tag_187:\n        /* \"#utility.yul\":2346:2381   */\n      swap1\n      pop\n        /* \"#utility.yul\":2291:2387   */\n      swap2\n      swap1\n      pop\n      jump\t// out\n        /* \"#utility.yul\":2393:2515   */\n    tag_138:\n        /* \"#utility.yul\":2466:2490   */\n      tag_189\n        /* \"#utility.yul\":2484:2489   */\n      dup2\n        /* \"#utility.yul\":2466:2490   */\n      tag_137\n      jump\t// in\n    tag_189:\n        /* \"#utility.yul\":2459:2464   */\n      dup2\n        /* \"#utility.yul\":2456:2491   */\n      eq\n        /* \"#utility.yul\":2446:2509   */\n      tag_190\n      jumpi\n        /* \"#utility.yul\":2505:2506   */\n      0x00\n        /* \"#utility.yul\":2502:2503   */\n      dup1\n        /* \"#utility.yul\":2495:2507   */\n      revert\n        /* \"#utility.yul\":2446:2509   */\n    tag_190:\n        /* \"#utility.yul\":2393:2515   */\n      pop\n      jump\t// out\n        /* \"#utility.yul\":2521:2660   */\n    tag_139:\n        /* \"#utility.yul\":2567:2572   */\n      0x00\n        /* \"#utility.yul\":2605:2611   */\n      dup2\n        /* \"#utility.yul\":2592:2612   */\n      calldataload\n        /* \"#utility.yul\":2583:2612   */\n      swap1\n      pop\n        /* \"#utility.yul\":2621:2654   */\n      tag_192\n        /* \"#utility.yul\":2648:2653   */\n      dup2\n        /* \"#utility.yul\":2621:2654   */\n      tag_138\n      jump\t// in\n    tag_192:\n        /* \"#utility.yul\":2521:2660   */\n      swap3\n      swap2\n      pop\n      pop\n      jump\t// out\n        /* \"#utility.yul\":2666:2995   */\n    tag_26:\n        /* \"#utility.yul\":2725:2731   */\n      0x00\n        /* \"#utility.yul\":2774:2776   */\n      0x20\n        /* \"#utility.yul\":2762:2771   */\n      dup3\n        /* \"#utility.yul\":2753:2760   */\n      dup5\n        /* \"#utility.yul\":2749:2772   */\n      sub\n        /* \"#utility.yul\":2745:2777   */\n      slt\n        /* \"#utility.yul\":2742:2861   */\n      iszero\n      tag_194\n      jumpi\n        /* \"#utility.yul\":2780:2859   */\n      tag_195\n      tag_134\n      jump\t// in\n    tag_195:\n        /* \"#utility.yul\":2742:2861   */\n    tag_194:\n        /* \"#utility.yul\":2900:2901   */\n      0x00\n        /* \"#utility.yul\":2925:2978   */\n      tag_196\n        /* \"#utility.yul\":2970:2977   */\n      dup5\n        /* \"#utility.yul\":2961:2967   */\n      dup3\n        /* \"#utility.yul\":2950:2959   */\n      dup6\n        /* \"#utility.yul\":2946:2968   */\n      add\n        /* \"#utility.yul\":2925:2978   */\n      tag_139\n      jump\t// in\n    tag_196:\n        /* \"#utility.yul\":2915:2978   */\n      swap2\n      pop\n        /* \"#utility.yul\":2871:2988   */\n      pop\n        /* \"#utility.yul\":2666:2995   */\n      swap3\n      swap2\n      pop\n      pop\n      jump\t// out\n        /* \"#utility.yul\":3001:3123   */\n    tag_140:\n        /* \"#utility.yul\":3074:3098   */\n      tag_198\n        /* \"#utility.yul\":3092:3097   */\n      dup2\n        /* \"#utility.yul\":3074:3098   */\n      tag_131\n      jump\t// in\n    tag_198:\n        /* \"#utility.yul\":3067:3072   */\n      dup2\n        /* \"#utility.yul\":3064:3099   */\n      eq\n        /* \"#utility.yul\":3054:3117   */\n      tag_199\n      jumpi\n        /* \"#utility.yul\":3113:3114   */\n      0x00\n        /* \"#utility.yul\":3110:3111   */\n      dup1\n        /* \"#utility.yul\":3103:3115   */\n      revert\n        /* \"#utility.yul\":3054:3117   */\n    tag_199:\n        /* \"#utility.yul\":3001:3123   */\n      pop\n      jump\t// out\n        /* \"#utility.yul\":3129:3268   */\n    tag_141:\n        /* \"#utility.yul\":3175:3180   */\n      0x00\n        /* \"#utility.yul\":3213:3219   */\n      dup2\n        /* \"#utility.yul\":3200:3220   */\n      calldataload\n        /* \"#utility.yul\":3191:3220   */\n      swap1\n      pop\n        /* \"#utility.yul\":3229:3262   */\n      tag_201\n        /* \"#utility.yul\":3256:3261   */\n      dup2\n        /* \"#utility.yul\":3229:3262   */\n      tag_140\n      jump\t// in\n    tag_201:\n        /* \"#utility.yul\":3129:3268   */\n      swap3\n      swap2\n      pop\n      pop\n      jump\t// out\n        /* \"#utility.yul\":3274:3603   */\n    tag_38:\n        /* \"#utility.yul\":3333:3339   */\n      0x00\n        /* \"#utility.yul\":3382:3384   */\n      0x20\n        /* \"#utility.yul\":3370:3379   */\n      dup3\n        /* \"#utility.yul\":3361:3368   */\n      dup5\n        /* \"#utility.yul\":3357:3380   */\n      sub\n        /* \"#utility.yul\":3353:3385   */\n      slt\n        /* \"#utility.yul\":3350:3469   */\n      iszero\n      tag_203\n      jumpi\n        /* \"#utility.yul\":3388:3467   */\n      tag_204\n      tag_134\n      jump\t// in\n    tag_204:\n        /* \"#utility.yul\":3350:3469   */\n    tag_203:\n        /* \"#utility.yul\":3508:3509   */\n      0x00\n        /* \"#utility.yul\":3533:3586   */\n      tag_205\n        /* \"#utility.yul\":3578:3585   */\n      dup5\n        /* \"#utility.yul\":3569:3575   */\n      dup3\n        /* \"#utility.yul\":3558:3567   */\n      dup6\n        /* \"#utility.yul\":3554:3576   */\n      add\n        /* \"#utility.yul\":3533:3586   */\n      tag_141\n      jump\t// in\n    tag_205:\n        /* \"#utility.yul\":3523:3586   */\n      swap2\n      pop\n        /* \"#utility.yul\":3479:3596   */\n      pop\n        /* \"#utility.yul\":3274:3603   */\n      swap3\n      swap2\n      pop\n      pop\n      jump\t// out\n        /* \"#utility.yul\":3609:3727   */\n    tag_142:\n        /* \"#utility.yul\":3696:3720   */\n      tag_207\n        /* \"#utility.yul\":3714:3719   */\n      dup2\n        /* \"#utility.yul\":3696:3720   */\n      tag_137\n      jump\t// in\n    tag_207:\n        /* \"#utility.yul\":3691:3694   */\n      dup3\n        /* \"#utility.yul\":3684:3721   */\n      mstore\n        /* \"#utility.yul\":3609:3727   */\n      pop\n      pop\n      jump\t// out\n        /* \"#utility.yul\":3733:3955   */\n    tag_43:\n        /* \"#utility.yul\":3826:3830   */\n      0x00\n        /* \"#utility.yul\":3864:3866   */\n      0x20\n        /* \"#utility.yul\":3853:3862   */\n      dup3\n        /* \"#utility.yul\":3849:3867   */\n      add\n        /* \"#utility.yul\":3841:3867   */\n      swap1\n      pop\n        /* \"#utility.yul\":3877:3948   */\n      tag_209\n        /* \"#utility.yul\":3945:3946   */\n      0x00\n        /* \"#utility.yul\":3934:3943   */\n      dup4\n        /* \"#utility.yul\":3930:3947   */\n      add\n        /* \"#utility.yul\":3921:3927   */\n      dup5\n        /* \"#utility.yul\":3877:3948   */\n      tag_142\n      jump\t// in\n    tag_209:\n        /* \"#utility.yul\":3733:3955   */\n      swap3\n      swap2\n      pop\n      pop\n      jump\t// out\n        /* \"#utility.yul\":3961:4293   */\n    tag_49:\n        /* \"#utility.yul\":4082:4086   */\n      0x00\n        /* \"#utility.yul\":4120:4122   */\n      0x40\n        /* \"#utility.yul\":4109:4118   */\n      dup3\n        /* \"#utility.yul\":4105:4123   */\n      add\n        /* \"#utility.yul\":4097:4123   */\n      swap1\n      pop\n        /* \"#utility.yul\":4133:4204   */\n      tag_211\n        /* \"#utility.yul\":4201:4202   */\n      0x00\n        /* \"#utility.yul\":4190:4199   */\n      dup4\n        /* \"#utility.yul\":4186:4203   */\n      add\n        /* \"#utility.yul\":4177:4183   */\n      dup6\n        /* \"#utility.yul\":4133:4204   */\n      tag_132\n      jump\t// in\n    tag_211:\n        /* \"#utility.yul\":4214:4286   */\n      tag_212\n        /* \"#utility.yul\":4282:4284   */\n      0x20\n        /* \"#utility.yul\":4271:4280   */\n      dup4\n        /* \"#utility.yul\":4267:4285   */\n      add\n        /* \"#utility.yul\":4258:4264   */\n      dup5\n        /* \"#utility.yul\":4214:4286   */\n      tag_132\n      jump\t// in\n    tag_212:\n        /* \"#utility.yul\":3961:4293   */\n      swap4\n      swap3\n      pop\n      pop\n      pop\n      jump\t// out\n        /* \"#utility.yul\":4299:4389   */\n    tag_143:\n        /* \"#utility.yul\":4333:4340   */\n      0x00\n        /* \"#utility.yul\":4376:4381   */\n      dup2\n        /* \"#utility.yul\":4369:4382   */\n      iszero\n        /* \"#utility.yul\":4362:4383   */\n      iszero\n        /* \"#utility.yul\":4351:4383   */\n      swap1\n      pop\n        /* \"#utility.yul\":4299:4389   */\n      swap2\n      swap1\n      pop\n      jump\t// out\n        /* \"#utility.yul\":4395:4504   */\n    tag_144:\n        /* \"#utility.yul\":4476:4497   */\n      tag_215\n        /* \"#utility.yul\":4491:4496   */\n      dup2\n        /* \"#utility.yul\":4476:4497   */\n      tag_143\n      jump\t// in\n    tag_215:\n        /* \"#utility.yul\":4471:4474   */\n      dup3\n        /* \"#utility.yul\":4464:4498   */\n      mstore\n        /* \"#utility.yul\":4395:4504   */\n      pop\n      pop\n      jump\t// out\n        /* \"#utility.yul\":4510:4720   */\n    tag_54:\n        /* \"#utility.yul\":4597:4601   */\n      0x00\n        /* \"#utility.yul\":4635:4637   */\n      0x20\n        /* \"#utility.yul\":4624:4633   */\n      dup3\n        /* \"#utility.yul\":4620:4638   */\n      add\n        /* \"#utility.yul\":4612:4638   */\n      swap1\n      pop\n        /* \"#utility.yul\":4648:4713   */\n      tag_217\n        /* \"#utility.yul\":4710:4711   */\n      0x00\n        /* \"#utility.yul\":4699:4708   */\n      dup4\n        /* \"#utility.yul\":4695:4712   */\n      add\n        /* \"#utility.yul\":4686:4692   */\n      dup5\n        /* \"#utility.yul\":4648:4713   */\n      tag_144\n      jump\t// in\n    tag_217:\n        /* \"#utility.yul\":4510:4720   */\n      swap3\n      swap2\n      pop\n      pop\n      jump\t// out\n        /* \"#utility.yul\":4726:4786   */\n    tag_145:\n        /* \"#utility.yul\":4754:4757   */\n      0x00\n        /* \"#utility.yul\":4775:4780   */\n      dup2\n        /* \"#utility.yul\":4768:4780   */\n      swap1\n      pop\n        /* \"#utility.yul\":4726:4786   */\n      swap2\n      swap1\n      pop\n      jump\t// out\n        /* \"#utility.yul\":4792:4934   */\n    tag_146:\n        /* \"#utility.yul\":4842:4851   */\n      0x00\n        /* \"#utility.yul\":4875:4928   */\n      tag_220\n        /* \"#utility.yul\":4893:4927   */\n      tag_221\n        /* \"#utility.yul\":4902:4926   */\n      tag_222\n        /* \"#utility.yul\":4920:4925   */\n      dup5\n        /* \"#utility.yul\":4902:4926   */\n      tag_136\n      jump\t// in\n    tag_222:\n        /* \"#utility.yul\":4893:4927   */\n      tag_145\n      jump\t// in\n    tag_221:\n        /* \"#utility.yul\":4875:4928   */\n      tag_136\n      jump\t// in\n    tag_220:\n        /* \"#utility.yul\":4862:4928   */\n      swap1\n      pop\n        /* \"#utility.yul\":4792:4934   */\n      swap2\n      swap1\n      pop\n      jump\t// out\n        /* \"#utility.yul\":4940:5066   */\n    tag_147:\n        /* \"#utility.yul\":4990:4999   */\n      0x00\n        /* \"#utility.yul\":5023:5060   */\n      tag_224\n        /* \"#utility.yul\":5054:5059   */\n      dup3\n        /* \"#utility.yul\":5023:5060   */\n      tag_146\n      jump\t// in\n    tag_224:\n        /* \"#utility.yul\":5010:5060   */\n      swap1\n      pop\n        /* \"#utility.yul\":4940:5066   */\n      swap2\n      swap1\n      pop\n      jump\t// out\n        /* \"#utility.yul\":5072:5215   */\n    tag_148:\n        /* \"#utility.yul\":5139:5148   */\n      0x00\n        /* \"#utility.yul\":5172:5209   */\n      tag_226\n        /* \"#utility.yul\":5203:5208   */\n      dup3\n        /* \"#utility.yul\":5172:5209   */\n      tag_147\n      jump\t// in\n    tag_226:\n        /* \"#utility.yul\":5159:5209   */\n      swap1\n      pop\n        /* \"#utility.yul\":5072:5215   */\n      swap2\n      swap1\n      pop\n      jump\t// out\n        /* \"#utility.yul\":5221:5386   */\n    tag_149:\n        /* \"#utility.yul\":5325:5379   */\n      tag_228\n        /* \"#utility.yul\":5373:5378   */\n      dup2\n        /* \"#utility.yul\":5325:5379   */\n      tag_148\n      jump\t// in\n    tag_228:\n        /* \"#utility.yul\":5320:5323   */\n      dup3\n        /* \"#utility.yul\":5313:5380   */\n      mstore\n        /* \"#utility.yul\":5221:5386   */\n      pop\n      pop\n      jump\t// out\n        /* \"#utility.yul\":5392:5648   */\n    tag_62:\n        /* \"#utility.yul\":5502:5506   */\n      0x00\n        /* \"#utility.yul\":5540:5542   */\n      0x20\n        /* \"#utility.yul\":5529:5538   */\n      dup3\n        /* \"#utility.yul\":5525:5543   */\n      add\n        /* \"#utility.yul\":5517:5543   */\n      swap1\n      pop\n        /* \"#utility.yul\":5553:5641   */\n      tag_230\n        /* \"#utility.yul\":5638:5639   */\n      0x00\n        /* \"#utility.yul\":5627:5636   */\n      dup4\n        /* \"#utility.yul\":5623:5640   */\n      add\n        /* \"#utility.yul\":5614:5620   */\n      dup5\n        /* \"#utility.yul\":5553:5641   */\n      tag_149\n      jump\t// in\n    tag_230:\n        /* \"#utility.yul\":5392:5648   */\n      swap3\n      swap2\n      pop\n      pop\n      jump\t// out\n        /* \"#utility.yul\":5654:5834   */\n    tag_150:\n        /* \"#utility.yul\":5702:5779   */\n      0x4e487b7100000000000000000000000000000000000000000000000000000000\n        /* \"#utility.yul\":5699:5700   */\n      0x00\n        /* \"#utility.yul\":5692:5780   */\n      mstore\n        /* \"#utility.yul\":5799:5803   */\n      0x22\n        /* \"#utility.yul\":5796:5797   */\n      0x04\n        /* \"#utility.yul\":5789:5804   */\n      mstore\n        /* \"#utility.yul\":5823:5827   */\n      0x24\n        /* \"#utility.yul\":5820:5821   */\n      0x00\n        /* \"#utility.yul\":5813:5828   */\n      revert\n        /* \"#utility.yul\":5840:6160   */\n    tag_64:\n        /* \"#utility.yul\":5884:5890   */\n      0x00\n        /* \"#utility.yul\":5921:5922   */\n      0x02\n        /* \"#utility.yul\":5915:5919   */\n      dup3\n        /* \"#utility.yul\":5911:5923   */\n      div\n        /* \"#utility.yul\":5901:5923   */\n      swap1\n      pop\n        /* \"#utility.yul\":5968:5969   */\n      0x01\n        /* \"#utility.yul\":5962:5966   */\n      dup3\n        /* \"#utility.yul\":5958:5970   */\n      and\n        /* \"#utility.yul\":5989:6007   */\n      dup1\n        /* \"#utility.yul\":5979:6060   */\n      tag_233\n      jumpi\n        /* \"#utility.yul\":6045:6049   */\n      0x7f\n        /* \"#utility.yul\":6037:6043   */\n      dup3\n        /* \"#utility.yul\":6033:6050   */\n      and\n        /* \"#utility.yul\":6023:6050   */\n      swap2\n      pop\n        /* \"#utility.yul\":5979:6060   */\n    tag_233:\n        /* \"#utility.yul\":6107:6109   */\n      0x20\n        /* \"#utility.yul\":6099:6105   */\n      dup3\n        /* \"#utility.yul\":6096:6110   */\n      lt\n        /* \"#utility.yul\":6076:6094   */\n      dup2\n        /* \"#utility.yul\":6073:6111   */\n      sub\n        /* \"#utility.yul\":6070:6154   */\n      tag_234\n      jumpi\n        /* \"#utility.yul\":6126:6144   */\n      tag_235\n      tag_150\n      jump\t// in\n    tag_235:\n        /* \"#utility.yul\":6070:6154   */\n    tag_234:\n        /* \"#utility.yul\":5891:6160   */\n      pop\n        /* \"#utility.yul\":5840:6160   */\n      swap2\n      swap1\n      pop\n      jump\t// out\n        /* \"#utility.yul\":6166:6325   */\n    tag_151:\n        /* \"#utility.yul\":6306:6317   */\n      0x6e6f74206f776e65720000000000000000000000000000000000000000000000\n        /* \"#utility.yul\":6302:6303   */\n      0x00\n        /* \"#utility.yul\":6294:6300   */\n      dup3\n        /* \"#utility.yul\":6290:6304   */\n      add\n        /* \"#utility.yul\":6283:6318   */\n      mstore\n        /* \"#utility.yul\":6166:6325   */\n      pop\n      jump\t// out\n        /* \"#utility.yul\":6331:6696   */\n    tag_152:\n        /* \"#utility.yul\":6473:6476   */\n      0x00\n        /* \"#utility.yul\":6494:6560   */\n      tag_238\n        /* \"#utility.yul\":6558:6559   */\n      0x09\n        /* \"#utility.yul\":6553:6556   */\n      dup4\n        /* \"#utility.yul\":6494:6560   */\n      tag_127\n      jump\t// in\n    tag_238:\n        /* \"#utility.yul\":6487:6560   */\n      swap2\n      pop\n        /* \"#utility.yul\":6569:6662   */\n      tag_239\n        /* \"#utility.yul\":6658:6661   */\n      dup3\n        /* \"#utility.yul\":6569:6662   */\n      tag_151\n      jump\t// in\n    tag_239:\n        /* \"#utility.yul\":6687:6689   */\n      0x20\n        /* \"#utility.yul\":6682:6685   */\n      dup3\n        /* \"#utility.yul\":6678:6690   */\n      add\n        /* \"#utility.yul\":6671:6690   */\n      swap1\n      pop\n        /* \"#utility.yul\":6331:6696   */\n      swap2\n      swap1\n      pop\n      jump\t// out\n        /* \"#utility.yul\":6702:7121   */\n    tag_72:\n        /* \"#utility.yul\":6868:6872   */\n      0x00\n        /* \"#utility.yul\":6906:6908   */\n      0x20\n        /* \"#utility.yul\":6895:6904   */\n      dup3\n        /* \"#utility.yul\":6891:6909   */\n      add\n        /* \"#utility.yul\":6883:6909   */\n      swap1\n      pop\n        /* \"#utility.yul\":6955:6964   */\n      dup2\n        /* \"#utility.yul\":6949:6953   */\n      dup2\n        /* \"#utility.yul\":6945:6965   */\n      sub\n        /* \"#utility.yul\":6941:6942   */\n      0x00\n        /* \"#utility.yul\":6930:6939   */\n      dup4\n        /* \"#utility.yul\":6926:6943   */\n      add\n        /* \"#utility.yul\":6919:6966   */\n      mstore\n        /* \"#utility.yul\":6983:7114   */\n      tag_241\n        /* \"#utility.yul\":7109:7113   */\n      dup2\n        /* \"#utility.yul\":6983:7114   */\n      tag_152\n      jump\t// in\n    tag_241:\n        /* \"#utility.yul\":6975:7114   */\n      swap1\n      pop\n        /* \"#utility.yul\":6702:7121   */\n      swap2\n      swap1\n      pop\n      jump\t// out\n        /* \"#utility.yul\":7127:7307   */\n    tag_153:\n        /* \"#utility.yul\":7175:7252   */\n      0x4e487b7100000000000000000000000000000000000000000000000000000000\n        /* \"#utility.yul\":7172:7173   */\n      0x00\n        /* \"#utility.yul\":7165:7253   */\n      mstore\n        /* \"#utility.yul\":7272:7276   */\n      0x11\n        /* \"#utility.yul\":7269:7270   */\n      0x04\n        /* \"#utility.yul\":7262:7277   */\n      mstore\n        /* \"#utility.yul\":7296:7300   */\n      0x24\n        /* \"#utility.yul\":7293:7294   */\n      0x00\n        /* \"#utility.yul\":7286:7301   */\n      revert\n        /* \"#utility.yul\":7313:7504   */\n    tag_75:\n        /* \"#utility.yul\":7353:7357   */\n      0x00\n        /* \"#utility.yul\":7373:7393   */\n      tag_244\n        /* \"#utility.yul\":7391:7392   */\n      dup3\n        /* \"#utility.yul\":7373:7393   */\n      tag_131\n      jump\t// in\n    tag_244:\n        /* \"#utility.yul\":7368:7393   */\n      swap2\n      pop\n        /* \"#utility.yul\":7407:7427   */\n      tag_245\n        /* \"#utility.yul\":7425:7426   */\n      dup4\n        /* \"#utility.yul\":7407:7427   */\n      tag_131\n      jump\t// in\n    tag_245:\n        /* \"#utility.yul\":7402:7427   */\n      swap3\n      pop\n        /* \"#utility.yul\":7446:7447   */\n      dup3\n        /* \"#utility.yul\":7443:7444   */\n      dup3\n        /* \"#utility.yul\":7440:7448   */\n      lt\n        /* \"#utility.yul\":7437:7471   */\n      iszero\n      tag_246\n      jumpi\n        /* \"#utility.yul\":7451:7469   */\n      tag_247\n      tag_153\n      jump\t// in\n    tag_247:\n        /* \"#utility.yul\":7437:7471   */\n    tag_246:\n        /* \"#utility.yul\":7496:7497   */\n      dup3\n        /* \"#utility.yul\":7493:7494   */\n      dup3\n        /* \"#utility.yul\":7489:7498   */\n      sub\n        /* \"#utility.yul\":7481:7498   */\n      swap1\n      pop\n        /* \"#utility.yul\":7313:7504   */\n      swap3\n      swap2\n      pop\n      pop\n      jump\t// out\n        /* \"#utility.yul\":7510:7858   */\n    tag_77:\n        /* \"#utility.yul\":7550:7557   */\n      0x00\n        /* \"#utility.yul\":7573:7593   */\n      tag_249\n        /* \"#utility.yul\":7591:7592   */\n      dup3\n        /* \"#utility.yul\":7573:7593   */\n      tag_131\n      jump\t// in\n    tag_249:\n        /* \"#utility.yul\":7568:7593   */\n      swap2\n      pop\n        /* \"#utility.yul\":7607:7627   */\n      tag_250\n        /* \"#utility.yul\":7625:7626   */\n      dup4\n        /* \"#utility.yul\":7607:7627   */\n      tag_131\n      jump\t// in\n    tag_250:\n        /* \"#utility.yul\":7602:7627   */\n      swap3\n      pop\n        /* \"#utility.yul\":7795:7796   */\n      dup2\n        /* \"#utility.yul\":7727:7793   */\n      0xffffffffffffffffffffffffffffffffffffffffffffffffffffffffffffffff\n        /* \"#utility.yul\":7723:7797   */\n      div\n        /* \"#utility.yul\":7720:7721   */\n      dup4\n        /* \"#utility.yul\":7717:7798   */\n      gt\n        /* \"#utility.yul\":7712:7713   */\n      dup3\n        /* \"#utility.yul\":7705:7714   */\n      iszero\n        /* \"#utility.yul\":7698:7715   */\n      iszero\n        /* \"#utility.yul\":7694:7799   */\n      and\n        /* \"#utility.yul\":7691:7822   */\n      iszero\n      tag_251\n      jumpi\n        /* \"#utility.yul\":7802:7820   */\n      tag_252\n      tag_153\n      jump\t// in\n    tag_252:\n        /* \"#utility.yul\":7691:7822   */\n    tag_251:\n        /* \"#utility.yul\":7850:7851   */\n      dup3\n        /* \"#utility.yul\":7847:7848   */\n      dup3\n        /* \"#utility.yul\":7843:7852   */\n      mul\n        /* \"#utility.yul\":7832:7852   */\n      swap1\n      pop\n        /* \"#utility.yul\":7510:7858   */\n      swap3\n      swap2\n      pop\n      pop\n      jump\t// out\n        /* \"#utility.yul\":7864:8044   */\n    tag_154:\n        /* \"#utility.yul\":7912:7989   */\n      0x4e487b7100000000000000000000000000000000000000000000000000000000\n        /* \"#utility.yul\":7909:7910   */\n      0x00\n        /* \"#utility.yul\":7902:7990   */\n      mstore\n        /* \"#utility.yul\":8009:8013   */\n      0x12\n        /* \"#utility.yul\":8006:8007   */\n      0x04\n        /* \"#utility.yul\":7999:8014   */\n      mstore\n        /* \"#utility.yul\":8033:8037   */\n      0x24\n        /* \"#utility.yul\":8030:8031   */\n      0x00\n        /* \"#utility.yul\":8023:8038   */\n      revert\n        /* \"#utility.yul\":8050:8235   */\n    tag_80:\n        /* \"#utility.yul\":8090:8091   */\n      0x00\n        /* \"#utility.yul\":8107:8127   */\n      tag_255\n        /* \"#utility.yul\":8125:8126   */\n      dup3\n        /* \"#utility.yul\":8107:8127   */\n      tag_131\n      jump\t// in\n    tag_255:\n        /* \"#utility.yul\":8102:8127   */\n      swap2\n      pop\n        /* \"#utility.yul\":8141:8161   */\n      tag_256\n        /* \"#utility.yul\":8159:8160   */\n      dup4\n        /* \"#utility.yul\":8141:8161   */\n      tag_131\n      jump\t// in\n    tag_256:\n        /* \"#utility.yul\":8136:8161   */\n      swap3\n      pop\n        /* \"#utility.yul\":8180:8181   */\n      dup3\n        /* \"#utility.yul\":8170:8205   */\n      tag_257\n      jumpi\n        /* \"#utility.yul\":8185:8203   */\n      tag_258\n      tag_154\n      jump\t// in\n    tag_258:\n        /* \"#utility.yul\":8170:8205   */\n    tag_257:\n        /* \"#utility.yul\":8227:8228   */\n      dup3\n        /* \"#utility.yul\":8224:8225   */\n      dup3\n        /* \"#utility.yul\":8220:8229   */\n      div\n        /* \"#utility.yul\":8215:8229   */\n      swap1\n      pop\n        /* \"#utility.yul\":8050:8235   */\n      swap3\n      swap2\n      pop\n      pop\n      jump\t// out\n        /* \"#utility.yul\":8241:8546   */\n    tag_83:\n        /* \"#utility.yul\":8281:8284   */\n      0x00\n        /* \"#utility.yul\":8300:8320   */\n      tag_260\n        /* \"#utility.yul\":8318:8319   */\n      dup3\n        /* \"#utility.yul\":8300:8320   */\n      tag_131\n      jump\t// in\n    tag_260:\n        /* \"#utility.yul\":8295:8320   */\n      swap2\n      pop\n        /* \"#utility.yul\":8334:8354   */\n      tag_261\n        /* \"#utility.yul\":8352:8353   */\n      dup4\n        /* \"#utility.yul\":8334:8354   */\n      tag_131\n      jump\t// in\n    tag_261:\n        /* \"#utility.yul\":8329:8354   */\n      swap3\n      pop\n        /* \"#utility.yul\":8488:8489   */\n      dup3\n        /* \"#utility.yul\":8420:8486   */\n      0xffffffffffffffffffffffffffffffffffffffffffffffffffffffffffffffff\n        /* \"#utility.yul\":8416:8490   */\n      sub\n        /* \"#utility.yul\":8413:8414   */\n      dup3\n        /* \"#utility.yul\":8410:8491   */\n      gt\n        /* \"#utility.yul\":8407:8514   */\n      iszero\n      tag_262\n      jumpi\n        /* \"#utility.yul\":8494:8512   */\n      tag_263\n      tag_153\n      jump\t// in\n    tag_263:\n        /* \"#utility.yul\":8407:8514   */\n    tag_262:\n        /* \"#utility.yul\":8538:8539   */\n      dup3\n        /* \"#utility.yul\":8535:8536   */\n      dup3\n        /* \"#utility.yul\":8531:8540   */\n      add\n        /* \"#utility.yul\":8524:8540   */\n      swap1\n      pop\n        /* \"#utility.yul\":8241:8546   */\n      swap3\n      swap2\n      pop\n      pop\n      jump\t// out\n        /* \"#utility.yul\":8552:8884   */\n    tag_85:\n        /* \"#utility.yul\":8673:8677   */\n      0x00\n        /* \"#utility.yul\":8711:8713   */\n      0x40\n        /* \"#utility.yul\":8700:8709   */\n      dup3\n        /* \"#utility.yul\":8696:8714   */\n      add\n        /* \"#utility.yul\":8688:8714   */\n      swap1\n      pop\n        /* \"#utility.yul\":8724:8795   */\n      tag_265\n        /* \"#utility.yul\":8792:8793   */\n      0x00\n        /* \"#utility.yul\":8781:8790   */\n      dup4\n        /* \"#utility.yul\":8777:8794   */\n      add\n        /* \"#utility.yul\":8768:8774   */\n      dup6\n        /* \"#utility.yul\":8724:8795   */\n      tag_142\n      jump\t// in\n    tag_265:\n        /* \"#utility.yul\":8805:8877   */\n      tag_266\n        /* \"#utility.yul\":8873:8875   */\n      0x20\n        /* \"#utility.yul\":8862:8871   */\n      dup4\n        /* \"#utility.yul\":8858:8876   */\n      add\n        /* \"#utility.yul\":8849:8855   */\n      dup5\n        /* \"#utility.yul\":8805:8877   */\n      tag_132\n      jump\t// in\n    tag_266:\n        /* \"#utility.yul\":8552:8884   */\n      swap4\n      swap3\n      pop\n      pop\n      pop\n      jump\t// out\n        /* \"#utility.yul\":8890:9006   */\n    tag_155:\n        /* \"#utility.yul\":8960:8981   */\n      tag_268\n        /* \"#utility.yul\":8975:8980   */\n      dup2\n        /* \"#utility.yul\":8960:8981   */\n      tag_143\n      jump\t// in\n    tag_268:\n        /* \"#utility.yul\":8953:8958   */\n      dup2\n        /* \"#utility.yul\":8950:8982   */\n      eq\n        /* \"#utility.yul\":8940:9000   */\n      tag_269\n      jumpi\n        /* \"#utility.yul\":8996:8997   */\n      0x00\n        /* \"#utility.yul\":8993:8994   */\n      dup1\n        /* \"#utility.yul\":8986:8998   */\n      revert\n        /* \"#utility.yul\":8940:9000   */\n    tag_269:\n        /* \"#utility.yul\":8890:9006   */\n      pop\n      jump\t// out\n        /* \"#utility.yul\":9012:9149   */\n    tag_156:\n        /* \"#utility.yul\":9066:9071   */\n      0x00\n        /* \"#utility.yul\":9097:9103   */\n      dup2\n        /* \"#utility.yul\":9091:9104   */\n      mload\n        /* \"#utility.yul\":9082:9104   */\n      swap1\n      pop\n        /* \"#utility.yul\":9113:9143   */\n      tag_271\n        /* \"#utility.yul\":9137:9142   */\n      dup2\n        /* \"#utility.yul\":9113:9143   */\n      tag_155\n      jump\t// in\n    tag_271:\n        /* \"#utility.yul\":9012:9149   */\n      swap3\n      swap2\n      pop\n      pop\n      jump\t// out\n        /* \"#utility.yul\":9155:9500   */\n    tag_89:\n        /* \"#utility.yul\":9222:9228   */\n      0x00\n        /* \"#utility.yul\":9271:9273   */\n      0x20\n        /* \"#utility.yul\":9259:9268   */\n      dup3\n        /* \"#utility.yul\":9250:9257   */\n      dup5\n        /* \"#utility.yul\":9246:9269   */\n      sub\n        /* \"#utility.yul\":9242:9274   */\n      slt\n        /* \"#utility.yul\":9239:9358   */\n      iszero\n      tag_273\n      jumpi\n        /* \"#utility.yul\":9277:9356   */\n      tag_274\n      tag_134\n      jump\t// in\n    tag_274:\n        /* \"#utility.yul\":9239:9358   */\n    tag_273:\n        /* \"#utility.yul\":9397:9398   */\n      0x00\n        /* \"#utility.yul\":9422:9483   */\n      tag_275\n        /* \"#utility.yul\":9475:9482   */\n      dup5\n        /* \"#utility.yul\":9466:9472   */\n      dup3\n        /* \"#utility.yul\":9455:9464   */\n      dup6\n        /* \"#utility.yul\":9451:9473   */\n      add\n        /* \"#utility.yul\":9422:9483   */\n      tag_156\n      jump\t// in\n    tag_275:\n        /* \"#utility.yul\":9412:9483   */\n      swap2\n      pop\n        /* \"#utility.yul\":9368:9493   */\n      pop\n        /* \"#utility.yul\":9155:9500   */\n      swap3\n      swap2\n      pop\n      pop\n      jump\t// out\n        /* \"#utility.yul\":9506:9674   */\n    tag_157:\n        /* \"#utility.yul\":9646:9666   */\n      0x616d6f756e742063616e6e6f7420626520300000000000000000000000000000\n        /* \"#utility.yul\":9642:9643   */\n      0x00\n        /* \"#utility.yul\":9634:9640   */\n      dup3\n        /* \"#utility.yul\":9630:9644   */\n      add\n        /* \"#utility.yul\":9623:9667   */\n      mstore\n        /* \"#utility.yul\":9506:9674   */\n      pop\n      jump\t// out\n        /* \"#utility.yul\":9680:10046   */\n    tag_158:\n        /* \"#utility.yul\":9822:9825   */\n      0x00\n        /* \"#utility.yul\":9843:9910   */\n      tag_278\n        /* \"#utility.yul\":9907:9909   */\n      0x12\n        /* \"#utility.yul\":9902:9905   */\n      dup4\n        /* \"#utility.yul\":9843:9910   */\n      tag_127\n      jump\t// in\n    tag_278:\n        /* \"#utility.yul\":9836:9910   */\n      swap2\n      pop\n        /* \"#utility.yul\":9919:10012   */\n      tag_279\n        /* \"#utility.yul\":10008:10011   */\n      dup3\n        /* \"#utility.yul\":9919:10012   */\n      tag_157\n      jump\t// in\n    tag_279:\n        /* \"#utility.yul\":10037:10039   */\n      0x20\n        /* \"#utility.yul\":10032:10035   */\n      dup3\n        /* \"#utility.yul\":10028:10040   */\n      add\n        /* \"#utility.yul\":10021:10040   */\n      swap1\n      pop\n        /* \"#utility.yul\":9680:10046   */\n      swap2\n      swap1\n      pop\n      jump\t// out\n        /* \"#utility.yul\":10052:10471   */\n    tag_93:\n        /* \"#utility.yul\":10218:10222   */\n      0x00\n        /* \"#utility.yul\":10256:10258   */\n      0x20\n        /* \"#utility.yul\":10245:10254   */\n      dup3\n        /* \"#utility.yul\":10241:10259   */\n      add\n        /* \"#utility.yul\":10233:10259   */\n      swap1\n      pop\n        /* \"#utility.yul\":10305:10314   */\n      dup2\n        /* \"#utility.yul\":10299:10303   */\n      dup2\n        /* \"#utility.yul\":10295:10315   */\n      sub\n        /* \"#utility.yul\":10291:10292   */\n      0x00\n        /* \"#utility.yul\":10280:10289   */\n      dup4\n        /* \"#utility.yul\":10276:10293   */\n      add\n        /* \"#utility.yul\":10269:10316   */\n      mstore\n        /* \"#utility.yul\":10333:10464   */\n      tag_281\n        /* \"#utility.yul\":10459:10463   */\n      dup2\n        /* \"#utility.yul\":10333:10464   */\n      tag_158\n      jump\t// in\n    tag_281:\n        /* \"#utility.yul\":10325:10464   */\n      swap1\n      pop\n        /* \"#utility.yul\":10052:10471   */\n      swap2\n      swap1\n      pop\n      jump\t// out\n        /* \"#utility.yul\":10477:10919   */\n    tag_95:\n        /* \"#utility.yul\":10626:10630   */\n      0x00\n        /* \"#utility.yul\":10664:10666   */\n      0x60\n        /* \"#utility.yul\":10653:10662   */\n      dup3\n        /* \"#utility.yul\":10649:10667   */\n      add\n        /* \"#utility.yul\":10641:10667   */\n      swap1\n      pop\n        /* \"#utility.yul\":10677:10748   */\n      tag_283\n        /* \"#utility.yul\":10745:10746   */\n      0x00\n        /* \"#utility.yul\":10734:10743   */\n      dup4\n        /* \"#utility.yul\":10730:10747   */\n      add\n        /* \"#utility.yul\":10721:10727   */\n      dup7\n        /* \"#utility.yul\":10677:10748   */\n      tag_142\n      jump\t// in\n    tag_283:\n        /* \"#utility.yul\":10758:10830   */\n      tag_284\n        /* \"#utility.yul\":10826:10828   */\n      0x20\n        /* \"#utility.yul\":10815:10824   */\n      dup4\n        /* \"#utility.yul\":10811:10829   */\n      add\n        /* \"#utility.yul\":10802:10808   */\n      dup6\n        /* \"#utility.yul\":10758:10830   */\n      tag_142\n      jump\t// in\n    tag_284:\n        /* \"#utility.yul\":10840:10912   */\n      tag_285\n        /* \"#utility.yul\":10908:10910   */\n      0x40\n        /* \"#utility.yul\":10897:10906   */\n      dup4\n        /* \"#utility.yul\":10893:10911   */\n      add\n        /* \"#utility.yul\":10884:10890   */\n      dup5\n        /* \"#utility.yul\":10840:10912   */\n      tag_132\n      jump\t// in\n    tag_285:\n        /* \"#utility.yul\":10477:10919   */\n      swap5\n      swap4\n      pop\n      pop\n      pop\n      pop\n      jump\t// out\n        /* \"#utility.yul\":10925:11103   */\n    tag_159:\n        /* \"#utility.yul\":11065:11095   */\n      0x5374616b696e672042616c616e63652063616e6e6f7420626520302e00000000\n        /* \"#utility.yul\":11061:11062   */\n      0x00\n        /* \"#utility.yul\":11053:11059   */\n      dup3\n        /* \"#utility.yul\":11049:11063   */\n      add\n        /* \"#utility.yul\":11042:11096   */\n      mstore\n        /* \"#utility.yul\":10925:11103   */\n      pop\n      jump\t// out\n        /* \"#utility.yul\":11109:11475   */\n    tag_160:\n        /* \"#utility.yul\":11251:11254   */\n      0x00\n        /* \"#utility.yul\":11272:11339   */\n      tag_288\n        /* \"#utility.yul\":11336:11338   */\n      0x1c\n        /* \"#utility.yul\":11331:11334   */\n      dup4\n        /* \"#utility.yul\":11272:11339   */\n      tag_127\n      jump\t// in\n    tag_288:\n        /* \"#utility.yul\":11265:11339   */\n      swap2\n      pop\n        /* \"#utility.yul\":11348:11441   */\n      tag_289\n        /* \"#utility.yul\":11437:11440   */\n      dup3\n        /* \"#utility.yul\":11348:11441   */\n      tag_159\n      jump\t// in\n    tag_289:\n        /* \"#utility.yul\":11466:11468   */\n      0x20\n        /* \"#utility.yul\":11461:11464   */\n      dup3\n        /* \"#utility.yul\":11457:11469   */\n      add\n        /* \"#utility.yul\":11450:11469   */\n      swap1\n      pop\n        /* \"#utility.yul\":11109:11475   */\n      swap2\n      swap1\n      pop\n      jump\t// out\n        /* \"#utility.yul\":11481:11900   */\n    tag_111:\n        /* \"#utility.yul\":11647:11651   */\n      0x00\n        /* \"#utility.yul\":11685:11687   */\n      0x20\n        /* \"#utility.yul\":11674:11683   */\n      dup3\n        /* \"#utility.yul\":11670:11688   */\n      add\n        /* \"#utility.yul\":11662:11688   */\n      swap1\n      pop\n        /* \"#utility.yul\":11734:11743   */\n      dup2\n        /* \"#utility.yul\":11728:11732   */\n      dup2\n        /* \"#utility.yul\":11724:11744   */\n      sub\n        /* \"#utility.yul\":11720:11721   */\n      0x00\n        /* \"#utility.yul\":11709:11718   */\n      dup4\n        /* \"#utility.yul\":11705:11722   */\n      add\n        /* \"#utility.yul\":11698:11745   */\n      mstore\n        /* \"#utility.yul\":11762:11893   */\n      tag_291\n        /* \"#utility.yul\":11888:11892   */\n      dup2\n        /* \"#utility.yul\":11762:11893   */\n      tag_160\n      jump\t// in\n    tag_291:\n        /* \"#utility.yul\":11754:11893   */\n      swap1\n      pop\n        /* \"#utility.yul\":11481:11900   */\n      swap2\n      swap1\n      pop\n      jump\t// out\n\n    auxdata: 0xa26469706673582212201216178042bf4df54e0db596d0e581bb9078fab6eb610ffc493a33b10a2d295564736f6c634300080d0033\n}\n",
				"bytecode": {
					"linkReferences": {},
					"object": "60806040526040518060400160405280600481526020017f4661726d00000000000000000000000000000000000000000000000000000000815250600090805190602001906200005192919062000117565b503480156200005f57600080fd5b506040516200161438038062001614833981810160405281019062000085919062000245565b80600360006101000a81548173ffffffffffffffffffffffffffffffffffffffff021916908373ffffffffffffffffffffffffffffffffffffffff16021790555033600260006101000a81548173ffffffffffffffffffffffffffffffffffffffff021916908373ffffffffffffffffffffffffffffffffffffffff16021790555061271060018190555050620002db565b8280546200012590620002a6565b90600052602060002090601f01602090048101928262000149576000855562000195565b82601f106200016457805160ff191683800117855562000195565b8280016001018555821562000195579182015b828111156200019457825182559160200191906001019062000177565b5b509050620001a49190620001a8565b5090565b5b80821115620001c3576000816000905550600101620001a9565b5090565b600080fd5b600073ffffffffffffffffffffffffffffffffffffffff82169050919050565b6000620001f982620001cc565b9050919050565b60006200020d82620001ec565b9050919050565b6200021f8162000200565b81146200022b57600080fd5b50565b6000815190506200023f8162000214565b92915050565b6000602082840312156200025e576200025d620001c7565b5b60006200026e848285016200022e565b91505092915050565b7f4e487b7100000000000000000000000000000000000000000000000000000000600052602260045260246000fd5b60006002820490506001821680620002bf57607f821691505b602082108103620002d557620002d462000277565b5b50919050565b61132980620002eb6000396000f3fe608060405234801561001057600080fd5b50600436106100b45760003560e01c80638da5cb5b116100715780638da5cb5b1461018d578063a5ce413b146101ab578063c4f59f9b146101b5578063c93c8f34146101d4578063fd5e6dd114610204578063fe8be55714610234576100b4565b806306fdde03146100b95780633bcfc4b8146100d75780633ff54c71146100f557806345bc78ab14610111578063583d42fd146101415780637547c7a314610171575b600080fd5b6100c1610252565b6040516100ce9190610ce1565b60405180910390f35b6100df6102e0565b6040516100ec9190610d1c565b60405180910390f35b61010f600480360381019061010a9190610d9a565b6102e6565b005b61012b60048036038101906101269190610d9a565b61059a565b6040516101389190610d1c565b60405180910390f35b61015b60048036038101906101569190610d9a565b6105b2565b6040516101689190610d1c565b60405180910390f35b61018b60048036038101906101869190610df3565b6105ca565b005b610195610909565b6040516101a29190610e2f565b60405180910390f35b6101b361092f565b005b6101bd610ad2565b6040516101cb929190610e4a565b60405180910390f35b6101ee60048036038101906101e99190610d9a565b610bc3565b6040516101fb9190610e8e565b60405180910390f35b61021e60048036038101906102199190610df3565b610be3565b60405161022b9190610e2f565b60405180910390f35b61023c610c22565b6040516102499190610f08565b60405180910390f35b6000805461025f90610f52565b80601f016020809104026020016040519081016040528092919081815260200182805461028b90610f52565b80156102d85780601f106102ad576101008083540402835291602001916102d8565b820191906000526020600020905b8154815290600101906020018083116102bb57829003601f168201915b505050505081565b60015481565b600260009054906101000a900473ffffffffffffffffffffffffffffffffffffffff1673ffffffffffffffffffffffffffffffffffffffff163373ffffffffffffffffffffffffffffffffffffffff1614610376576040517f08c379a000000000000000000000000000000000000000000000000000000000815260040161036d90610fcf565b60405180910390fd5b6000600560008373ffffffffffffffffffffffffffffffffffffffff1673ffffffffffffffffffffffffffffffffffffffff1681526020019081526020016000205490506000811115610596576000600660008473ffffffffffffffffffffffffffffffffffffffff1673ffffffffffffffffffffffffffffffffffffffff16815260200190815260200160002054905060006301e133806064600154844261041f919061101e565b8661042a9190611052565b6104349190611052565b61043e91906110db565b61044891906110db565b9050600360009054906101000a900473ffffffffffffffffffffffffffffffffffffffff1673ffffffffffffffffffffffffffffffffffffffff1663a9059cbb858386610495919061110c565b6040518363ffffffff1660e01b81526004016104b2929190611162565b6020604051808303816000875af11580156104d1573d6000803e3d6000fd5b505050506040513d601f19601f820116820180604052508101906104f591906111b7565b506000600560008673ffffffffffffffffffffffffffffffffffffffff1673ffffffffffffffffffffffffffffffffffffffff168152602001908152602001600020819055506000600760008673ffffffffffffffffffffffffffffffffffffffff1673ffffffffffffffffffffffffffffffffffffffff16815260200190815260200160002060006101000a81548160ff02191690831515021790555050505b5050565b60056020528060005260406000206000915090505481565b60066020528060005260406000206000915090505481565b6000811161060d576040517f08c379a000000000000000000000000000000000000000000000000000000000815260040161060490611230565b60405180910390fd5b600360009054906101000a900473ffffffffffffffffffffffffffffffffffffffff1673ffffffffffffffffffffffffffffffffffffffff166323b872dd3330846040518463ffffffff1660e01b815260040161066c93929190611250565b6020604051808303816000875af115801561068b573d6000803e3d6000fd5b505050506040513d601f19601f820116820180604052508101906106af91906111b7565b506000806106bb610ad2565b8092508193505050600360009054906101000a900473ffffffffffffffffffffffffffffffffffffffff1673ffffffffffffffffffffffffffffffffffffffff1663a9059cbb33836040518363ffffffff1660e01b8152600401610720929190611162565b6020604051808303816000875af115801561073f573d6000803e3d6000fd5b505050506040513d601f19601f8201168201806040525081019061076391906111b7565b508282610770919061110c565b600560003373ffffffffffffffffffffffffffffffffffffffff1673ffffffffffffffffffffffffffffffffffffffff1681526020019081526020016000208190555042600660003373ffffffffffffffffffffffffffffffffffffffff1673ffffffffffffffffffffffffffffffffffffffff16815260200190815260200160002081905550600760003373ffffffffffffffffffffffffffffffffffffffff1673ffffffffffffffffffffffffffffffffffffffff16815260200190815260200160002060009054906101000a900460ff166108ac576004339080600181540180825580915050600190039060005260206000200160009091909190916101000a81548173ffffffffffffffffffffffffffffffffffffffff021916908373ffffffffffffffffffffffffffffffffffffffff1602179055505b6001600760003373ffffffffffffffffffffffffffffffffffffffff1673ffffffffffffffffffffffffffffffffffffffff16815260200190815260200160002060006101000a81548160ff021916908315150217905550505050565b600260009054906101000a900473ffffffffffffffffffffffffffffffffffffffff1681565b60008061093a610ad2565b809250819350505060008211610985576040517f08c379a000000000000000000000000000000000000000000000000000000000815260040161097c906112d3565b60405180910390fd5b600360009054906101000a900473ffffffffffffffffffffffffffffffffffffffff1673ffffffffffffffffffffffffffffffffffffffff1663a9059cbb3383856109d0919061110c565b6040518363ffffffff1660e01b81526004016109ed929190611162565b6020604051808303816000875af1158015610a0c573d6000803e3d6000fd5b505050506040513d601f19601f82011682018060405250810190610a3091906111b7565b506000600560003373ffffffffffffffffffffffffffffffffffffffff1673ffffffffffffffffffffffffffffffffffffffff168152602001908152602001600020819055506000600760003373ffffffffffffffffffffffffffffffffffffffff1673ffffffffffffffffffffffffffffffffffffffff16815260200190815260200160002060006101000a81548160ff0219169083151502179055505050565b6000806000600560003373ffffffffffffffffffffffffffffffffffffffff1673ffffffffffffffffffffffffffffffffffffffff16815260200190815260200160002054905060008103610b2e576000809250925050610bbf565b6000600660003373ffffffffffffffffffffffffffffffffffffffff1673ffffffffffffffffffffffffffffffffffffffff16815260200190815260200160002054905060006301e1338060646001548442610b8a919061101e565b86610b959190611052565b610b9f9190611052565b610ba991906110db565b610bb391906110db565b90508281945094505050505b9091565b60076020528060005260406000206000915054906101000a900460ff1681565b60048181548110610bf357600080fd5b906000526020600020016000915054906101000a900473ffffffffffffffffffffffffffffffffffffffff1681565b600360009054906101000a900473ffffffffffffffffffffffffffffffffffffffff1681565b600081519050919050565b600082825260208201905092915050565b60005b83811015610c82578082015181840152602081019050610c67565b83811115610c91576000848401525b50505050565b6000601f19601f8301169050919050565b6000610cb382610c48565b610cbd8185610c53565b9350610ccd818560208601610c64565b610cd681610c97565b840191505092915050565b60006020820190508181036000830152610cfb8184610ca8565b905092915050565b6000819050919050565b610d1681610d03565b82525050565b6000602082019050610d316000830184610d0d565b92915050565b600080fd5b600073ffffffffffffffffffffffffffffffffffffffff82169050919050565b6000610d6782610d3c565b9050919050565b610d7781610d5c565b8114610d8257600080fd5b50565b600081359050610d9481610d6e565b92915050565b600060208284031215610db057610daf610d37565b5b6000610dbe84828501610d85565b91505092915050565b610dd081610d03565b8114610ddb57600080fd5b50565b600081359050610ded81610dc7565b92915050565b600060208284031215610e0957610e08610d37565b5b6000610e1784828501610dde565b91505092915050565b610e2981610d5c565b82525050565b6000602082019050610e446000830184610e20565b92915050565b6000604082019050610e5f6000830185610d0d565b610e6c6020830184610d0d565b9392505050565b60008115159050919050565b610e8881610e73565b82525050565b6000602082019050610ea36000830184610e7f565b92915050565b6000819050919050565b6000610ece610ec9610ec484610d3c565b610ea9565b610d3c565b9050919050565b6000610ee082610eb3565b9050919050565b6000610ef282610ed5565b9050919050565b610f0281610ee7565b82525050565b6000602082019050610f1d6000830184610ef9565b92915050565b7f4e487b7100000000000000000000000000000000000000000000000000000000600052602260045260246000fd5b60006002820490506001821680610f6a57607f821691505b602082108103610f7d57610f7c610f23565b5b50919050565b7f6e6f74206f776e65720000000000000000000000000000000000000000000000600082015250565b6000610fb9600983610c53565b9150610fc482610f83565b602082019050919050565b60006020820190508181036000830152610fe881610fac565b9050919050565b7f4e487b7100000000000000000000000000000000000000000000000000000000600052601160045260246000fd5b600061102982610d03565b915061103483610d03565b92508282101561104757611046610fef565b5b828203905092915050565b600061105d82610d03565b915061106883610d03565b9250817fffffffffffffffffffffffffffffffffffffffffffffffffffffffffffffffff04831182151516156110a1576110a0610fef565b5b828202905092915050565b7f4e487b7100000000000000000000000000000000000000000000000000000000600052601260045260246000fd5b60006110e682610d03565b91506110f183610d03565b925082611101576111006110ac565b5b828204905092915050565b600061111782610d03565b915061112283610d03565b9250827fffffffffffffffffffffffffffffffffffffffffffffffffffffffffffffffff0382111561115757611156610fef565b5b828201905092915050565b60006040820190506111776000830185610e20565b6111846020830184610d0d565b9392505050565b61119481610e73565b811461119f57600080fd5b50565b6000815190506111b18161118b565b92915050565b6000602082840312156111cd576111cc610d37565b5b60006111db848285016111a2565b91505092915050565b7f616d6f756e742063616e6e6f7420626520300000000000000000000000000000600082015250565b600061121a601283610c53565b9150611225826111e4565b602082019050919050565b600060208201905081810360008301526112498161120d565b9050919050565b60006060820190506112656000830186610e20565b6112726020830185610e20565b61127f6040830184610d0d565b949350505050565b7f5374616b696e672042616c616e63652063616e6e6f7420626520302e00000000600082015250565b60006112bd601c83610c53565b91506112c882611287565b602082019050919050565b600060208201905081810360008301526112ec816112b0565b905091905056fea26469706673582212201216178042bf4df54e0db596d0e581bb9078fab6eb610ffc493a33b10a2d295564736f6c634300080d0033",
					"opcodes": "PUSH1 0x80 PUSH1 0x40 MSTORE PUSH1 0x40 MLOAD DUP1 PUSH1 0x40 ADD PUSH1 0x40 MSTORE DUP1 PUSH1 0x4 DUP2 MSTORE PUSH1 0x20 ADD PUSH32 0x4661726D00000000000000000000000000000000000000000000000000000000 DUP2 MSTORE POP PUSH1 0x0 SWAP1 DUP1 MLOAD SWAP1 PUSH1 0x20 ADD SWAP1 PUSH3 0x51 SWAP3 SWAP2 SWAP1 PUSH3 0x117 JUMP JUMPDEST POP CALLVALUE DUP1 ISZERO PUSH3 0x5F JUMPI PUSH1 0x0 DUP1 REVERT JUMPDEST POP PUSH1 0x40 MLOAD PUSH3 0x1614 CODESIZE SUB DUP1 PUSH3 0x1614 DUP4 CODECOPY DUP2 DUP2 ADD PUSH1 0x40 MSTORE DUP2 ADD SWAP1 PUSH3 0x85 SWAP2 SWAP1 PUSH3 0x245 JUMP JUMPDEST DUP1 PUSH1 0x3 PUSH1 0x0 PUSH2 0x100 EXP DUP2 SLOAD DUP2 PUSH20 0xFFFFFFFFFFFFFFFFFFFFFFFFFFFFFFFFFFFFFFFF MUL NOT AND SWAP1 DUP4 PUSH20 0xFFFFFFFFFFFFFFFFFFFFFFFFFFFFFFFFFFFFFFFF AND MUL OR SWAP1 SSTORE POP CALLER PUSH1 0x2 PUSH1 0x0 PUSH2 0x100 EXP DUP2 SLOAD DUP2 PUSH20 0xFFFFFFFFFFFFFFFFFFFFFFFFFFFFFFFFFFFFFFFF MUL NOT AND SWAP1 DUP4 PUSH20 0xFFFFFFFFFFFFFFFFFFFFFFFFFFFFFFFFFFFFFFFF AND MUL OR SWAP1 SSTORE POP PUSH2 0x2710 PUSH1 0x1 DUP2 SWAP1 SSTORE POP POP PUSH3 0x2DB JUMP JUMPDEST DUP3 DUP1 SLOAD PUSH3 0x125 SWAP1 PUSH3 0x2A6 JUMP JUMPDEST SWAP1 PUSH1 0x0 MSTORE PUSH1 0x20 PUSH1 0x0 KECCAK256 SWAP1 PUSH1 0x1F ADD PUSH1 0x20 SWAP1 DIV DUP2 ADD SWAP3 DUP3 PUSH3 0x149 JUMPI PUSH1 0x0 DUP6 SSTORE PUSH3 0x195 JUMP JUMPDEST DUP3 PUSH1 0x1F LT PUSH3 0x164 JUMPI DUP1 MLOAD PUSH1 0xFF NOT AND DUP4 DUP1 ADD OR DUP6 SSTORE PUSH3 0x195 JUMP JUMPDEST DUP3 DUP1 ADD PUSH1 0x1 ADD DUP6 SSTORE DUP3 ISZERO PUSH3 0x195 JUMPI SWAP2 DUP3 ADD JUMPDEST DUP3 DUP2 GT ISZERO PUSH3 0x194 JUMPI DUP3 MLOAD DUP3 SSTORE SWAP2 PUSH1 0x20 ADD SWAP2 SWAP1 PUSH1 0x1 ADD SWAP1 PUSH3 0x177 JUMP JUMPDEST JUMPDEST POP SWAP1 POP PUSH3 0x1A4 SWAP2 SWAP1 PUSH3 0x1A8 JUMP JUMPDEST POP SWAP1 JUMP JUMPDEST JUMPDEST DUP1 DUP3 GT ISZERO PUSH3 0x1C3 JUMPI PUSH1 0x0 DUP2 PUSH1 0x0 SWAP1 SSTORE POP PUSH1 0x1 ADD PUSH3 0x1A9 JUMP JUMPDEST POP SWAP1 JUMP JUMPDEST PUSH1 0x0 DUP1 REVERT JUMPDEST PUSH1 0x0 PUSH20 0xFFFFFFFFFFFFFFFFFFFFFFFFFFFFFFFFFFFFFFFF DUP3 AND SWAP1 POP SWAP2 SWAP1 POP JUMP JUMPDEST PUSH1 0x0 PUSH3 0x1F9 DUP3 PUSH3 0x1CC JUMP JUMPDEST SWAP1 POP SWAP2 SWAP1 POP JUMP JUMPDEST PUSH1 0x0 PUSH3 0x20D DUP3 PUSH3 0x1EC JUMP JUMPDEST SWAP1 POP SWAP2 SWAP1 POP JUMP JUMPDEST PUSH3 0x21F DUP2 PUSH3 0x200 JUMP JUMPDEST DUP2 EQ PUSH3 0x22B JUMPI PUSH1 0x0 DUP1 REVERT JUMPDEST POP JUMP JUMPDEST PUSH1 0x0 DUP2 MLOAD SWAP1 POP PUSH3 0x23F DUP2 PUSH3 0x214 JUMP JUMPDEST SWAP3 SWAP2 POP POP JUMP JUMPDEST PUSH1 0x0 PUSH1 0x20 DUP3 DUP5 SUB SLT ISZERO PUSH3 0x25E JUMPI PUSH3 0x25D PUSH3 0x1C7 JUMP JUMPDEST JUMPDEST PUSH1 0x0 PUSH3 0x26E DUP5 DUP3 DUP6 ADD PUSH3 0x22E JUMP JUMPDEST SWAP2 POP POP SWAP3 SWAP2 POP POP JUMP JUMPDEST PUSH32 0x4E487B7100000000000000000000000000000000000000000000000000000000 PUSH1 0x0 MSTORE PUSH1 0x22 PUSH1 0x4 MSTORE PUSH1 0x24 PUSH1 0x0 REVERT JUMPDEST PUSH1 0x0 PUSH1 0x2 DUP3 DIV SWAP1 POP PUSH1 0x1 DUP3 AND DUP1 PUSH3 0x2BF JUMPI PUSH1 0x7F DUP3 AND SWAP2 POP JUMPDEST PUSH1 0x20 DUP3 LT DUP2 SUB PUSH3 0x2D5 JUMPI PUSH3 0x2D4 PUSH3 0x277 JUMP JUMPDEST JUMPDEST POP SWAP2 SWAP1 POP JUMP JUMPDEST PUSH2 0x1329 DUP1 PUSH3 0x2EB PUSH1 0x0 CODECOPY PUSH1 0x0 RETURN INVALID PUSH1 0x80 PUSH1 0x40 MSTORE CALLVALUE DUP1 ISZERO PUSH2 0x10 JUMPI PUSH1 0x0 DUP1 REVERT JUMPDEST POP PUSH1 0x4 CALLDATASIZE LT PUSH2 0xB4 JUMPI PUSH1 0x0 CALLDATALOAD PUSH1 0xE0 SHR DUP1 PUSH4 0x8DA5CB5B GT PUSH2 0x71 JUMPI DUP1 PUSH4 0x8DA5CB5B EQ PUSH2 0x18D JUMPI DUP1 PUSH4 0xA5CE413B EQ PUSH2 0x1AB JUMPI DUP1 PUSH4 0xC4F59F9B EQ PUSH2 0x1B5 JUMPI DUP1 PUSH4 0xC93C8F34 EQ PUSH2 0x1D4 JUMPI DUP1 PUSH4 0xFD5E6DD1 EQ PUSH2 0x204 JUMPI DUP1 PUSH4 0xFE8BE557 EQ PUSH2 0x234 JUMPI PUSH2 0xB4 JUMP JUMPDEST DUP1 PUSH4 0x6FDDE03 EQ PUSH2 0xB9 JUMPI DUP1 PUSH4 0x3BCFC4B8 EQ PUSH2 0xD7 JUMPI DUP1 PUSH4 0x3FF54C71 EQ PUSH2 0xF5 JUMPI DUP1 PUSH4 0x45BC78AB EQ PUSH2 0x111 JUMPI DUP1 PUSH4 0x583D42FD EQ PUSH2 0x141 JUMPI DUP1 PUSH4 0x7547C7A3 EQ PUSH2 0x171 JUMPI JUMPDEST PUSH1 0x0 DUP1 REVERT JUMPDEST PUSH2 0xC1 PUSH2 0x252 JUMP JUMPDEST PUSH1 0x40 MLOAD PUSH2 0xCE SWAP2 SWAP1 PUSH2 0xCE1 JUMP JUMPDEST PUSH1 0x40 MLOAD DUP1 SWAP2 SUB SWAP1 RETURN JUMPDEST PUSH2 0xDF PUSH2 0x2E0 JUMP JUMPDEST PUSH1 0x40 MLOAD PUSH2 0xEC SWAP2 SWAP1 PUSH2 0xD1C JUMP JUMPDEST PUSH1 0x40 MLOAD DUP1 SWAP2 SUB SWAP1 RETURN JUMPDEST PUSH2 0x10F PUSH1 0x4 DUP1 CALLDATASIZE SUB DUP2 ADD SWAP1 PUSH2 0x10A SWAP2 SWAP1 PUSH2 0xD9A JUMP JUMPDEST PUSH2 0x2E6 JUMP JUMPDEST STOP JUMPDEST PUSH2 0x12B PUSH1 0x4 DUP1 CALLDATASIZE SUB DUP2 ADD SWAP1 PUSH2 0x126 SWAP2 SWAP1 PUSH2 0xD9A JUMP JUMPDEST PUSH2 0x59A JUMP JUMPDEST PUSH1 0x40 MLOAD PUSH2 0x138 SWAP2 SWAP1 PUSH2 0xD1C JUMP JUMPDEST PUSH1 0x40 MLOAD DUP1 SWAP2 SUB SWAP1 RETURN JUMPDEST PUSH2 0x15B PUSH1 0x4 DUP1 CALLDATASIZE SUB DUP2 ADD SWAP1 PUSH2 0x156 SWAP2 SWAP1 PUSH2 0xD9A JUMP JUMPDEST PUSH2 0x5B2 JUMP JUMPDEST PUSH1 0x40 MLOAD PUSH2 0x168 SWAP2 SWAP1 PUSH2 0xD1C JUMP JUMPDEST PUSH1 0x40 MLOAD DUP1 SWAP2 SUB SWAP1 RETURN JUMPDEST PUSH2 0x18B PUSH1 0x4 DUP1 CALLDATASIZE SUB DUP2 ADD SWAP1 PUSH2 0x186 SWAP2 SWAP1 PUSH2 0xDF3 JUMP JUMPDEST PUSH2 0x5CA JUMP JUMPDEST STOP JUMPDEST PUSH2 0x195 PUSH2 0x909 JUMP JUMPDEST PUSH1 0x40 MLOAD PUSH2 0x1A2 SWAP2 SWAP1 PUSH2 0xE2F JUMP JUMPDEST PUSH1 0x40 MLOAD DUP1 SWAP2 SUB SWAP1 RETURN JUMPDEST PUSH2 0x1B3 PUSH2 0x92F JUMP JUMPDEST STOP JUMPDEST PUSH2 0x1BD PUSH2 0xAD2 JUMP JUMPDEST PUSH1 0x40 MLOAD PUSH2 0x1CB SWAP3 SWAP2 SWAP1 PUSH2 0xE4A JUMP JUMPDEST PUSH1 0x40 MLOAD DUP1 SWAP2 SUB SWAP1 RETURN JUMPDEST PUSH2 0x1EE PUSH1 0x4 DUP1 CALLDATASIZE SUB DUP2 ADD SWAP1 PUSH2 0x1E9 SWAP2 SWAP1 PUSH2 0xD9A JUMP JUMPDEST PUSH2 0xBC3 JUMP JUMPDEST PUSH1 0x40 MLOAD PUSH2 0x1FB SWAP2 SWAP1 PUSH2 0xE8E JUMP JUMPDEST PUSH1 0x40 MLOAD DUP1 SWAP2 SUB SWAP1 RETURN JUMPDEST PUSH2 0x21E PUSH1 0x4 DUP1 CALLDATASIZE SUB DUP2 ADD SWAP1 PUSH2 0x219 SWAP2 SWAP1 PUSH2 0xDF3 JUMP JUMPDEST PUSH2 0xBE3 JUMP JUMPDEST PUSH1 0x40 MLOAD PUSH2 0x22B SWAP2 SWAP1 PUSH2 0xE2F JUMP JUMPDEST PUSH1 0x40 MLOAD DUP1 SWAP2 SUB SWAP1 RETURN JUMPDEST PUSH2 0x23C PUSH2 0xC22 JUMP JUMPDEST PUSH1 0x40 MLOAD PUSH2 0x249 SWAP2 SWAP1 PUSH2 0xF08 JUMP JUMPDEST PUSH1 0x40 MLOAD DUP1 SWAP2 SUB SWAP1 RETURN JUMPDEST PUSH1 0x0 DUP1 SLOAD PUSH2 0x25F SWAP1 PUSH2 0xF52 JUMP JUMPDEST DUP1 PUSH1 0x1F ADD PUSH1 0x20 DUP1 SWAP2 DIV MUL PUSH1 0x20 ADD PUSH1 0x40 MLOAD SWAP1 DUP2 ADD PUSH1 0x40 MSTORE DUP1 SWAP3 SWAP2 SWAP1 DUP2 DUP2 MSTORE PUSH1 0x20 ADD DUP3 DUP1 SLOAD PUSH2 0x28B SWAP1 PUSH2 0xF52 JUMP JUMPDEST DUP1 ISZERO PUSH2 0x2D8 JUMPI DUP1 PUSH1 0x1F LT PUSH2 0x2AD JUMPI PUSH2 0x100 DUP1 DUP4 SLOAD DIV MUL DUP4 MSTORE SWAP2 PUSH1 0x20 ADD SWAP2 PUSH2 0x2D8 JUMP JUMPDEST DUP3 ADD SWAP2 SWAP1 PUSH1 0x0 MSTORE PUSH1 0x20 PUSH1 0x0 KECCAK256 SWAP1 JUMPDEST DUP2 SLOAD DUP2 MSTORE SWAP1 PUSH1 0x1 ADD SWAP1 PUSH1 0x20 ADD DUP1 DUP4 GT PUSH2 0x2BB JUMPI DUP3 SWAP1 SUB PUSH1 0x1F AND DUP3 ADD SWAP2 JUMPDEST POP POP POP POP POP DUP2 JUMP JUMPDEST PUSH1 0x1 SLOAD DUP2 JUMP JUMPDEST PUSH1 0x2 PUSH1 0x0 SWAP1 SLOAD SWAP1 PUSH2 0x100 EXP SWAP1 DIV PUSH20 0xFFFFFFFFFFFFFFFFFFFFFFFFFFFFFFFFFFFFFFFF AND PUSH20 0xFFFFFFFFFFFFFFFFFFFFFFFFFFFFFFFFFFFFFFFF AND CALLER PUSH20 0xFFFFFFFFFFFFFFFFFFFFFFFFFFFFFFFFFFFFFFFF AND EQ PUSH2 0x376 JUMPI PUSH1 0x40 MLOAD PUSH32 0x8C379A000000000000000000000000000000000000000000000000000000000 DUP2 MSTORE PUSH1 0x4 ADD PUSH2 0x36D SWAP1 PUSH2 0xFCF JUMP JUMPDEST PUSH1 0x40 MLOAD DUP1 SWAP2 SUB SWAP1 REVERT JUMPDEST PUSH1 0x0 PUSH1 0x5 PUSH1 0x0 DUP4 PUSH20 0xFFFFFFFFFFFFFFFFFFFFFFFFFFFFFFFFFFFFFFFF AND PUSH20 0xFFFFFFFFFFFFFFFFFFFFFFFFFFFFFFFFFFFFFFFF AND DUP2 MSTORE PUSH1 0x20 ADD SWAP1 DUP2 MSTORE PUSH1 0x20 ADD PUSH1 0x0 KECCAK256 SLOAD SWAP1 POP PUSH1 0x0 DUP2 GT ISZERO PUSH2 0x596 JUMPI PUSH1 0x0 PUSH1 0x6 PUSH1 0x0 DUP5 PUSH20 0xFFFFFFFFFFFFFFFFFFFFFFFFFFFFFFFFFFFFFFFF AND PUSH20 0xFFFFFFFFFFFFFFFFFFFFFFFFFFFFFFFFFFFFFFFF AND DUP2 MSTORE PUSH1 0x20 ADD SWAP1 DUP2 MSTORE PUSH1 0x20 ADD PUSH1 0x0 KECCAK256 SLOAD SWAP1 POP PUSH1 0x0 PUSH4 0x1E13380 PUSH1 0x64 PUSH1 0x1 SLOAD DUP5 TIMESTAMP PUSH2 0x41F SWAP2 SWAP1 PUSH2 0x101E JUMP JUMPDEST DUP7 PUSH2 0x42A SWAP2 SWAP1 PUSH2 0x1052 JUMP JUMPDEST PUSH2 0x434 SWAP2 SWAP1 PUSH2 0x1052 JUMP JUMPDEST PUSH2 0x43E SWAP2 SWAP1 PUSH2 0x10DB JUMP JUMPDEST PUSH2 0x448 SWAP2 SWAP1 PUSH2 0x10DB JUMP JUMPDEST SWAP1 POP PUSH1 0x3 PUSH1 0x0 SWAP1 SLOAD SWAP1 PUSH2 0x100 EXP SWAP1 DIV PUSH20 0xFFFFFFFFFFFFFFFFFFFFFFFFFFFFFFFFFFFFFFFF AND PUSH20 0xFFFFFFFFFFFFFFFFFFFFFFFFFFFFFFFFFFFFFFFF AND PUSH4 0xA9059CBB DUP6 DUP4 DUP7 PUSH2 0x495 SWAP2 SWAP1 PUSH2 0x110C JUMP JUMPDEST PUSH1 0x40 MLOAD DUP4 PUSH4 0xFFFFFFFF AND PUSH1 0xE0 SHL DUP2 MSTORE PUSH1 0x4 ADD PUSH2 0x4B2 SWAP3 SWAP2 SWAP1 PUSH2 0x1162 JUMP JUMPDEST PUSH1 0x20 PUSH1 0x40 MLOAD DUP1 DUP4 SUB DUP2 PUSH1 0x0 DUP8 GAS CALL ISZERO DUP1 ISZERO PUSH2 0x4D1 JUMPI RETURNDATASIZE PUSH1 0x0 DUP1 RETURNDATACOPY RETURNDATASIZE PUSH1 0x0 REVERT JUMPDEST POP POP POP POP PUSH1 0x40 MLOAD RETURNDATASIZE PUSH1 0x1F NOT PUSH1 0x1F DUP3 ADD AND DUP3 ADD DUP1 PUSH1 0x40 MSTORE POP DUP2 ADD SWAP1 PUSH2 0x4F5 SWAP2 SWAP1 PUSH2 0x11B7 JUMP JUMPDEST POP PUSH1 0x0 PUSH1 0x5 PUSH1 0x0 DUP7 PUSH20 0xFFFFFFFFFFFFFFFFFFFFFFFFFFFFFFFFFFFFFFFF AND PUSH20 0xFFFFFFFFFFFFFFFFFFFFFFFFFFFFFFFFFFFFFFFF AND DUP2 MSTORE PUSH1 0x20 ADD SWAP1 DUP2 MSTORE PUSH1 0x20 ADD PUSH1 0x0 KECCAK256 DUP2 SWAP1 SSTORE POP PUSH1 0x0 PUSH1 0x7 PUSH1 0x0 DUP7 PUSH20 0xFFFFFFFFFFFFFFFFFFFFFFFFFFFFFFFFFFFFFFFF AND PUSH20 0xFFFFFFFFFFFFFFFFFFFFFFFFFFFFFFFFFFFFFFFF AND DUP2 MSTORE PUSH1 0x20 ADD SWAP1 DUP2 MSTORE PUSH1 0x20 ADD PUSH1 0x0 KECCAK256 PUSH1 0x0 PUSH2 0x100 EXP DUP2 SLOAD DUP2 PUSH1 0xFF MUL NOT AND SWAP1 DUP4 ISZERO ISZERO MUL OR SWAP1 SSTORE POP POP POP JUMPDEST POP POP JUMP JUMPDEST PUSH1 0x5 PUSH1 0x20 MSTORE DUP1 PUSH1 0x0 MSTORE PUSH1 0x40 PUSH1 0x0 KECCAK256 PUSH1 0x0 SWAP2 POP SWAP1 POP SLOAD DUP2 JUMP JUMPDEST PUSH1 0x6 PUSH1 0x20 MSTORE DUP1 PUSH1 0x0 MSTORE PUSH1 0x40 PUSH1 0x0 KECCAK256 PUSH1 0x0 SWAP2 POP SWAP1 POP SLOAD DUP2 JUMP JUMPDEST PUSH1 0x0 DUP2 GT PUSH2 0x60D JUMPI PUSH1 0x40 MLOAD PUSH32 0x8C379A000000000000000000000000000000000000000000000000000000000 DUP2 MSTORE PUSH1 0x4 ADD PUSH2 0x604 SWAP1 PUSH2 0x1230 JUMP JUMPDEST PUSH1 0x40 MLOAD DUP1 SWAP2 SUB SWAP1 REVERT JUMPDEST PUSH1 0x3 PUSH1 0x0 SWAP1 SLOAD SWAP1 PUSH2 0x100 EXP SWAP1 DIV PUSH20 0xFFFFFFFFFFFFFFFFFFFFFFFFFFFFFFFFFFFFFFFF AND PUSH20 0xFFFFFFFFFFFFFFFFFFFFFFFFFFFFFFFFFFFFFFFF AND PUSH4 0x23B872DD CALLER ADDRESS DUP5 PUSH1 0x40 MLOAD DUP5 PUSH4 0xFFFFFFFF AND PUSH1 0xE0 SHL DUP2 MSTORE PUSH1 0x4 ADD PUSH2 0x66C SWAP4 SWAP3 SWAP2 SWAP1 PUSH2 0x1250 JUMP JUMPDEST PUSH1 0x20 PUSH1 0x40 MLOAD DUP1 DUP4 SUB DUP2 PUSH1 0x0 DUP8 GAS CALL ISZERO DUP1 ISZERO PUSH2 0x68B JUMPI RETURNDATASIZE PUSH1 0x0 DUP1 RETURNDATACOPY RETURNDATASIZE PUSH1 0x0 REVERT JUMPDEST POP POP POP POP PUSH1 0x40 MLOAD RETURNDATASIZE PUSH1 0x1F NOT PUSH1 0x1F DUP3 ADD AND DUP3 ADD DUP1 PUSH1 0x40 MSTORE POP DUP2 ADD SWAP1 PUSH2 0x6AF SWAP2 SWAP1 PUSH2 0x11B7 JUMP JUMPDEST POP PUSH1 0x0 DUP1 PUSH2 0x6BB PUSH2 0xAD2 JUMP JUMPDEST DUP1 SWAP3 POP DUP2 SWAP4 POP POP POP PUSH1 0x3 PUSH1 0x0 SWAP1 SLOAD SWAP1 PUSH2 0x100 EXP SWAP1 DIV PUSH20 0xFFFFFFFFFFFFFFFFFFFFFFFFFFFFFFFFFFFFFFFF AND PUSH20 0xFFFFFFFFFFFFFFFFFFFFFFFFFFFFFFFFFFFFFFFF AND PUSH4 0xA9059CBB CALLER DUP4 PUSH1 0x40 MLOAD DUP4 PUSH4 0xFFFFFFFF AND PUSH1 0xE0 SHL DUP2 MSTORE PUSH1 0x4 ADD PUSH2 0x720 SWAP3 SWAP2 SWAP1 PUSH2 0x1162 JUMP JUMPDEST PUSH1 0x20 PUSH1 0x40 MLOAD DUP1 DUP4 SUB DUP2 PUSH1 0x0 DUP8 GAS CALL ISZERO DUP1 ISZERO PUSH2 0x73F JUMPI RETURNDATASIZE PUSH1 0x0 DUP1 RETURNDATACOPY RETURNDATASIZE PUSH1 0x0 REVERT JUMPDEST POP POP POP POP PUSH1 0x40 MLOAD RETURNDATASIZE PUSH1 0x1F NOT PUSH1 0x1F DUP3 ADD AND DUP3 ADD DUP1 PUSH1 0x40 MSTORE POP DUP2 ADD SWAP1 PUSH2 0x763 SWAP2 SWAP1 PUSH2 0x11B7 JUMP JUMPDEST POP DUP3 DUP3 PUSH2 0x770 SWAP2 SWAP1 PUSH2 0x110C JUMP JUMPDEST PUSH1 0x5 PUSH1 0x0 CALLER PUSH20 0xFFFFFFFFFFFFFFFFFFFFFFFFFFFFFFFFFFFFFFFF AND PUSH20 0xFFFFFFFFFFFFFFFFFFFFFFFFFFFFFFFFFFFFFFFF AND DUP2 MSTORE PUSH1 0x20 ADD SWAP1 DUP2 MSTORE PUSH1 0x20 ADD PUSH1 0x0 KECCAK256 DUP2 SWAP1 SSTORE POP TIMESTAMP PUSH1 0x6 PUSH1 0x0 CALLER PUSH20 0xFFFFFFFFFFFFFFFFFFFFFFFFFFFFFFFFFFFFFFFF AND PUSH20 0xFFFFFFFFFFFFFFFFFFFFFFFFFFFFFFFFFFFFFFFF AND DUP2 MSTORE PUSH1 0x20 ADD SWAP1 DUP2 MSTORE PUSH1 0x20 ADD PUSH1 0x0 KECCAK256 DUP2 SWAP1 SSTORE POP PUSH1 0x7 PUSH1 0x0 CALLER PUSH20 0xFFFFFFFFFFFFFFFFFFFFFFFFFFFFFFFFFFFFFFFF AND PUSH20 0xFFFFFFFFFFFFFFFFFFFFFFFFFFFFFFFFFFFFFFFF AND DUP2 MSTORE PUSH1 0x20 ADD SWAP1 DUP2 MSTORE PUSH1 0x20 ADD PUSH1 0x0 KECCAK256 PUSH1 0x0 SWAP1 SLOAD SWAP1 PUSH2 0x100 EXP SWAP1 DIV PUSH1 0xFF AND PUSH2 0x8AC JUMPI PUSH1 0x4 CALLER SWAP1 DUP1 PUSH1 0x1 DUP2 SLOAD ADD DUP1 DUP3 SSTORE DUP1 SWAP2 POP POP PUSH1 0x1 SWAP1 SUB SWAP1 PUSH1 0x0 MSTORE PUSH1 0x20 PUSH1 0x0 KECCAK256 ADD PUSH1 0x0 SWAP1 SWAP2 SWAP1 SWAP2 SWAP1 SWAP2 PUSH2 0x100 EXP DUP2 SLOAD DUP2 PUSH20 0xFFFFFFFFFFFFFFFFFFFFFFFFFFFFFFFFFFFFFFFF MUL NOT AND SWAP1 DUP4 PUSH20 0xFFFFFFFFFFFFFFFFFFFFFFFFFFFFFFFFFFFFFFFF AND MUL OR SWAP1 SSTORE POP JUMPDEST PUSH1 0x1 PUSH1 0x7 PUSH1 0x0 CALLER PUSH20 0xFFFFFFFFFFFFFFFFFFFFFFFFFFFFFFFFFFFFFFFF AND PUSH20 0xFFFFFFFFFFFFFFFFFFFFFFFFFFFFFFFFFFFFFFFF AND DUP2 MSTORE PUSH1 0x20 ADD SWAP1 DUP2 MSTORE PUSH1 0x20 ADD PUSH1 0x0 KECCAK256 PUSH1 0x0 PUSH2 0x100 EXP DUP2 SLOAD DUP2 PUSH1 0xFF MUL NOT AND SWAP1 DUP4 ISZERO ISZERO MUL OR SWAP1 SSTORE POP POP POP POP JUMP JUMPDEST PUSH1 0x2 PUSH1 0x0 SWAP1 SLOAD SWAP1 PUSH2 0x100 EXP SWAP1 DIV PUSH20 0xFFFFFFFFFFFFFFFFFFFFFFFFFFFFFFFFFFFFFFFF AND DUP2 JUMP JUMPDEST PUSH1 0x0 DUP1 PUSH2 0x93A PUSH2 0xAD2 JUMP JUMPDEST DUP1 SWAP3 POP DUP2 SWAP4 POP POP POP PUSH1 0x0 DUP3 GT PUSH2 0x985 JUMPI PUSH1 0x40 MLOAD PUSH32 0x8C379A000000000000000000000000000000000000000000000000000000000 DUP2 MSTORE PUSH1 0x4 ADD PUSH2 0x97C SWAP1 PUSH2 0x12D3 JUMP JUMPDEST PUSH1 0x40 MLOAD DUP1 SWAP2 SUB SWAP1 REVERT JUMPDEST PUSH1 0x3 PUSH1 0x0 SWAP1 SLOAD SWAP1 PUSH2 0x100 EXP SWAP1 DIV PUSH20 0xFFFFFFFFFFFFFFFFFFFFFFFFFFFFFFFFFFFFFFFF AND PUSH20 0xFFFFFFFFFFFFFFFFFFFFFFFFFFFFFFFFFFFFFFFF AND PUSH4 0xA9059CBB CALLER DUP4 DUP6 PUSH2 0x9D0 SWAP2 SWAP1 PUSH2 0x110C JUMP JUMPDEST PUSH1 0x40 MLOAD DUP4 PUSH4 0xFFFFFFFF AND PUSH1 0xE0 SHL DUP2 MSTORE PUSH1 0x4 ADD PUSH2 0x9ED SWAP3 SWAP2 SWAP1 PUSH2 0x1162 JUMP JUMPDEST PUSH1 0x20 PUSH1 0x40 MLOAD DUP1 DUP4 SUB DUP2 PUSH1 0x0 DUP8 GAS CALL ISZERO DUP1 ISZERO PUSH2 0xA0C JUMPI RETURNDATASIZE PUSH1 0x0 DUP1 RETURNDATACOPY RETURNDATASIZE PUSH1 0x0 REVERT JUMPDEST POP POP POP POP PUSH1 0x40 MLOAD RETURNDATASIZE PUSH1 0x1F NOT PUSH1 0x1F DUP3 ADD AND DUP3 ADD DUP1 PUSH1 0x40 MSTORE POP DUP2 ADD SWAP1 PUSH2 0xA30 SWAP2 SWAP1 PUSH2 0x11B7 JUMP JUMPDEST POP PUSH1 0x0 PUSH1 0x5 PUSH1 0x0 CALLER PUSH20 0xFFFFFFFFFFFFFFFFFFFFFFFFFFFFFFFFFFFFFFFF AND PUSH20 0xFFFFFFFFFFFFFFFFFFFFFFFFFFFFFFFFFFFFFFFF AND DUP2 MSTORE PUSH1 0x20 ADD SWAP1 DUP2 MSTORE PUSH1 0x20 ADD PUSH1 0x0 KECCAK256 DUP2 SWAP1 SSTORE POP PUSH1 0x0 PUSH1 0x7 PUSH1 0x0 CALLER PUSH20 0xFFFFFFFFFFFFFFFFFFFFFFFFFFFFFFFFFFFFFFFF AND PUSH20 0xFFFFFFFFFFFFFFFFFFFFFFFFFFFFFFFFFFFFFFFF AND DUP2 MSTORE PUSH1 0x20 ADD SWAP1 DUP2 MSTORE PUSH1 0x20 ADD PUSH1 0x0 KECCAK256 PUSH1 0x0 PUSH2 0x100 EXP DUP2 SLOAD DUP2 PUSH1 0xFF MUL NOT AND SWAP1 DUP4 ISZERO ISZERO MUL OR SWAP1 SSTORE POP POP POP JUMP JUMPDEST PUSH1 0x0 DUP1 PUSH1 0x0 PUSH1 0x5 PUSH1 0x0 CALLER PUSH20 0xFFFFFFFFFFFFFFFFFFFFFFFFFFFFFFFFFFFFFFFF AND PUSH20 0xFFFFFFFFFFFFFFFFFFFFFFFFFFFFFFFFFFFFFFFF AND DUP2 MSTORE PUSH1 0x20 ADD SWAP1 DUP2 MSTORE PUSH1 0x20 ADD PUSH1 0x0 KECCAK256 SLOAD SWAP1 POP PUSH1 0x0 DUP2 SUB PUSH2 0xB2E JUMPI PUSH1 0x0 DUP1 SWAP3 POP SWAP3 POP POP PUSH2 0xBBF JUMP JUMPDEST PUSH1 0x0 PUSH1 0x6 PUSH1 0x0 CALLER PUSH20 0xFFFFFFFFFFFFFFFFFFFFFFFFFFFFFFFFFFFFFFFF AND PUSH20 0xFFFFFFFFFFFFFFFFFFFFFFFFFFFFFFFFFFFFFFFF AND DUP2 MSTORE PUSH1 0x20 ADD SWAP1 DUP2 MSTORE PUSH1 0x20 ADD PUSH1 0x0 KECCAK256 SLOAD SWAP1 POP PUSH1 0x0 PUSH4 0x1E13380 PUSH1 0x64 PUSH1 0x1 SLOAD DUP5 TIMESTAMP PUSH2 0xB8A SWAP2 SWAP1 PUSH2 0x101E JUMP JUMPDEST DUP7 PUSH2 0xB95 SWAP2 SWAP1 PUSH2 0x1052 JUMP JUMPDEST PUSH2 0xB9F SWAP2 SWAP1 PUSH2 0x1052 JUMP JUMPDEST PUSH2 0xBA9 SWAP2 SWAP1 PUSH2 0x10DB JUMP JUMPDEST PUSH2 0xBB3 SWAP2 SWAP1 PUSH2 0x10DB JUMP JUMPDEST SWAP1 POP DUP3 DUP2 SWAP5 POP SWAP5 POP POP POP POP JUMPDEST SWAP1 SWAP2 JUMP JUMPDEST PUSH1 0x7 PUSH1 0x20 MSTORE DUP1 PUSH1 0x0 MSTORE PUSH1 0x40 PUSH1 0x0 KECCAK256 PUSH1 0x0 SWAP2 POP SLOAD SWAP1 PUSH2 0x100 EXP SWAP1 DIV PUSH1 0xFF AND DUP2 JUMP JUMPDEST PUSH1 0x4 DUP2 DUP2 SLOAD DUP2 LT PUSH2 0xBF3 JUMPI PUSH1 0x0 DUP1 REVERT JUMPDEST SWAP1 PUSH1 0x0 MSTORE PUSH1 0x20 PUSH1 0x0 KECCAK256 ADD PUSH1 0x0 SWAP2 POP SLOAD SWAP1 PUSH2 0x100 EXP SWAP1 DIV PUSH20 0xFFFFFFFFFFFFFFFFFFFFFFFFFFFFFFFFFFFFFFFF AND DUP2 JUMP JUMPDEST PUSH1 0x3 PUSH1 0x0 SWAP1 SLOAD SWAP1 PUSH2 0x100 EXP SWAP1 DIV PUSH20 0xFFFFFFFFFFFFFFFFFFFFFFFFFFFFFFFFFFFFFFFF AND DUP2 JUMP JUMPDEST PUSH1 0x0 DUP2 MLOAD SWAP1 POP SWAP2 SWAP1 POP JUMP JUMPDEST PUSH1 0x0 DUP3 DUP3 MSTORE PUSH1 0x20 DUP3 ADD SWAP1 POP SWAP3 SWAP2 POP POP JUMP JUMPDEST PUSH1 0x0 JUMPDEST DUP4 DUP2 LT ISZERO PUSH2 0xC82 JUMPI DUP1 DUP3 ADD MLOAD DUP2 DUP5 ADD MSTORE PUSH1 0x20 DUP2 ADD SWAP1 POP PUSH2 0xC67 JUMP JUMPDEST DUP4 DUP2 GT ISZERO PUSH2 0xC91 JUMPI PUSH1 0x0 DUP5 DUP5 ADD MSTORE JUMPDEST POP POP POP POP JUMP JUMPDEST PUSH1 0x0 PUSH1 0x1F NOT PUSH1 0x1F DUP4 ADD AND SWAP1 POP SWAP2 SWAP1 POP JUMP JUMPDEST PUSH1 0x0 PUSH2 0xCB3 DUP3 PUSH2 0xC48 JUMP JUMPDEST PUSH2 0xCBD DUP2 DUP6 PUSH2 0xC53 JUMP JUMPDEST SWAP4 POP PUSH2 0xCCD DUP2 DUP6 PUSH1 0x20 DUP7 ADD PUSH2 0xC64 JUMP JUMPDEST PUSH2 0xCD6 DUP2 PUSH2 0xC97 JUMP JUMPDEST DUP5 ADD SWAP2 POP POP SWAP3 SWAP2 POP POP JUMP JUMPDEST PUSH1 0x0 PUSH1 0x20 DUP3 ADD SWAP1 POP DUP2 DUP2 SUB PUSH1 0x0 DUP4 ADD MSTORE PUSH2 0xCFB DUP2 DUP5 PUSH2 0xCA8 JUMP JUMPDEST SWAP1 POP SWAP3 SWAP2 POP POP JUMP JUMPDEST PUSH1 0x0 DUP2 SWAP1 POP SWAP2 SWAP1 POP JUMP JUMPDEST PUSH2 0xD16 DUP2 PUSH2 0xD03 JUMP JUMPDEST DUP3 MSTORE POP POP JUMP JUMPDEST PUSH1 0x0 PUSH1 0x20 DUP3 ADD SWAP1 POP PUSH2 0xD31 PUSH1 0x0 DUP4 ADD DUP5 PUSH2 0xD0D JUMP JUMPDEST SWAP3 SWAP2 POP POP JUMP JUMPDEST PUSH1 0x0 DUP1 REVERT JUMPDEST PUSH1 0x0 PUSH20 0xFFFFFFFFFFFFFFFFFFFFFFFFFFFFFFFFFFFFFFFF DUP3 AND SWAP1 POP SWAP2 SWAP1 POP JUMP JUMPDEST PUSH1 0x0 PUSH2 0xD67 DUP3 PUSH2 0xD3C JUMP JUMPDEST SWAP1 POP SWAP2 SWAP1 POP JUMP JUMPDEST PUSH2 0xD77 DUP2 PUSH2 0xD5C JUMP JUMPDEST DUP2 EQ PUSH2 0xD82 JUMPI PUSH1 0x0 DUP1 REVERT JUMPDEST POP JUMP JUMPDEST PUSH1 0x0 DUP2 CALLDATALOAD SWAP1 POP PUSH2 0xD94 DUP2 PUSH2 0xD6E JUMP JUMPDEST SWAP3 SWAP2 POP POP JUMP JUMPDEST PUSH1 0x0 PUSH1 0x20 DUP3 DUP5 SUB SLT ISZERO PUSH2 0xDB0 JUMPI PUSH2 0xDAF PUSH2 0xD37 JUMP JUMPDEST JUMPDEST PUSH1 0x0 PUSH2 0xDBE DUP5 DUP3 DUP6 ADD PUSH2 0xD85 JUMP JUMPDEST SWAP2 POP POP SWAP3 SWAP2 POP POP JUMP JUMPDEST PUSH2 0xDD0 DUP2 PUSH2 0xD03 JUMP JUMPDEST DUP2 EQ PUSH2 0xDDB JUMPI PUSH1 0x0 DUP1 REVERT JUMPDEST POP JUMP JUMPDEST PUSH1 0x0 DUP2 CALLDATALOAD SWAP1 POP PUSH2 0xDED DUP2 PUSH2 0xDC7 JUMP JUMPDEST SWAP3 SWAP2 POP POP JUMP JUMPDEST PUSH1 0x0 PUSH1 0x20 DUP3 DUP5 SUB SLT ISZERO PUSH2 0xE09 JUMPI PUSH2 0xE08 PUSH2 0xD37 JUMP JUMPDEST JUMPDEST PUSH1 0x0 PUSH2 0xE17 DUP5 DUP3 DUP6 ADD PUSH2 0xDDE JUMP JUMPDEST SWAP2 POP POP SWAP3 SWAP2 POP POP JUMP JUMPDEST PUSH2 0xE29 DUP2 PUSH2 0xD5C JUMP JUMPDEST DUP3 MSTORE POP POP JUMP JUMPDEST PUSH1 0x0 PUSH1 0x20 DUP3 ADD SWAP1 POP PUSH2 0xE44 PUSH1 0x0 DUP4 ADD DUP5 PUSH2 0xE20 JUMP JUMPDEST SWAP3 SWAP2 POP POP JUMP JUMPDEST PUSH1 0x0 PUSH1 0x40 DUP3 ADD SWAP1 POP PUSH2 0xE5F PUSH1 0x0 DUP4 ADD DUP6 PUSH2 0xD0D JUMP JUMPDEST PUSH2 0xE6C PUSH1 0x20 DUP4 ADD DUP5 PUSH2 0xD0D JUMP JUMPDEST SWAP4 SWAP3 POP POP POP JUMP JUMPDEST PUSH1 0x0 DUP2 ISZERO ISZERO SWAP1 POP SWAP2 SWAP1 POP JUMP JUMPDEST PUSH2 0xE88 DUP2 PUSH2 0xE73 JUMP JUMPDEST DUP3 MSTORE POP POP JUMP JUMPDEST PUSH1 0x0 PUSH1 0x20 DUP3 ADD SWAP1 POP PUSH2 0xEA3 PUSH1 0x0 DUP4 ADD DUP5 PUSH2 0xE7F JUMP JUMPDEST SWAP3 SWAP2 POP POP JUMP JUMPDEST PUSH1 0x0 DUP2 SWAP1 POP SWAP2 SWAP1 POP JUMP JUMPDEST PUSH1 0x0 PUSH2 0xECE PUSH2 0xEC9 PUSH2 0xEC4 DUP5 PUSH2 0xD3C JUMP JUMPDEST PUSH2 0xEA9 JUMP JUMPDEST PUSH2 0xD3C JUMP JUMPDEST SWAP1 POP SWAP2 SWAP1 POP JUMP JUMPDEST PUSH1 0x0 PUSH2 0xEE0 DUP3 PUSH2 0xEB3 JUMP JUMPDEST SWAP1 POP SWAP2 SWAP1 POP JUMP JUMPDEST PUSH1 0x0 PUSH2 0xEF2 DUP3 PUSH2 0xED5 JUMP JUMPDEST SWAP1 POP SWAP2 SWAP1 POP JUMP JUMPDEST PUSH2 0xF02 DUP2 PUSH2 0xEE7 JUMP JUMPDEST DUP3 MSTORE POP POP JUMP JUMPDEST PUSH1 0x0 PUSH1 0x20 DUP3 ADD SWAP1 POP PUSH2 0xF1D PUSH1 0x0 DUP4 ADD DUP5 PUSH2 0xEF9 JUMP JUMPDEST SWAP3 SWAP2 POP POP JUMP JUMPDEST PUSH32 0x4E487B7100000000000000000000000000000000000000000000000000000000 PUSH1 0x0 MSTORE PUSH1 0x22 PUSH1 0x4 MSTORE PUSH1 0x24 PUSH1 0x0 REVERT JUMPDEST PUSH1 0x0 PUSH1 0x2 DUP3 DIV SWAP1 POP PUSH1 0x1 DUP3 AND DUP1 PUSH2 0xF6A JUMPI PUSH1 0x7F DUP3 AND SWAP2 POP JUMPDEST PUSH1 0x20 DUP3 LT DUP2 SUB PUSH2 0xF7D JUMPI PUSH2 0xF7C PUSH2 0xF23 JUMP JUMPDEST JUMPDEST POP SWAP2 SWAP1 POP JUMP JUMPDEST PUSH32 0x6E6F74206F776E65720000000000000000000000000000000000000000000000 PUSH1 0x0 DUP3 ADD MSTORE POP JUMP JUMPDEST PUSH1 0x0 PUSH2 0xFB9 PUSH1 0x9 DUP4 PUSH2 0xC53 JUMP JUMPDEST SWAP2 POP PUSH2 0xFC4 DUP3 PUSH2 0xF83 JUMP JUMPDEST PUSH1 0x20 DUP3 ADD SWAP1 POP SWAP2 SWAP1 POP JUMP JUMPDEST PUSH1 0x0 PUSH1 0x20 DUP3 ADD SWAP1 POP DUP2 DUP2 SUB PUSH1 0x0 DUP4 ADD MSTORE PUSH2 0xFE8 DUP2 PUSH2 0xFAC JUMP JUMPDEST SWAP1 POP SWAP2 SWAP1 POP JUMP JUMPDEST PUSH32 0x4E487B7100000000000000000000000000000000000000000000000000000000 PUSH1 0x0 MSTORE PUSH1 0x11 PUSH1 0x4 MSTORE PUSH1 0x24 PUSH1 0x0 REVERT JUMPDEST PUSH1 0x0 PUSH2 0x1029 DUP3 PUSH2 0xD03 JUMP JUMPDEST SWAP2 POP PUSH2 0x1034 DUP4 PUSH2 0xD03 JUMP JUMPDEST SWAP3 POP DUP3 DUP3 LT ISZERO PUSH2 0x1047 JUMPI PUSH2 0x1046 PUSH2 0xFEF JUMP JUMPDEST JUMPDEST DUP3 DUP3 SUB SWAP1 POP SWAP3 SWAP2 POP POP JUMP JUMPDEST PUSH1 0x0 PUSH2 0x105D DUP3 PUSH2 0xD03 JUMP JUMPDEST SWAP2 POP PUSH2 0x1068 DUP4 PUSH2 0xD03 JUMP JUMPDEST SWAP3 POP DUP2 PUSH32 0xFFFFFFFFFFFFFFFFFFFFFFFFFFFFFFFFFFFFFFFFFFFFFFFFFFFFFFFFFFFFFFFF DIV DUP4 GT DUP3 ISZERO ISZERO AND ISZERO PUSH2 0x10A1 JUMPI PUSH2 0x10A0 PUSH2 0xFEF JUMP JUMPDEST JUMPDEST DUP3 DUP3 MUL SWAP1 POP SWAP3 SWAP2 POP POP JUMP JUMPDEST PUSH32 0x4E487B7100000000000000000000000000000000000000000000000000000000 PUSH1 0x0 MSTORE PUSH1 0x12 PUSH1 0x4 MSTORE PUSH1 0x24 PUSH1 0x0 REVERT JUMPDEST PUSH1 0x0 PUSH2 0x10E6 DUP3 PUSH2 0xD03 JUMP JUMPDEST SWAP2 POP PUSH2 0x10F1 DUP4 PUSH2 0xD03 JUMP JUMPDEST SWAP3 POP DUP3 PUSH2 0x1101 JUMPI PUSH2 0x1100 PUSH2 0x10AC JUMP JUMPDEST JUMPDEST DUP3 DUP3 DIV SWAP1 POP SWAP3 SWAP2 POP POP JUMP JUMPDEST PUSH1 0x0 PUSH2 0x1117 DUP3 PUSH2 0xD03 JUMP JUMPDEST SWAP2 POP PUSH2 0x1122 DUP4 PUSH2 0xD03 JUMP JUMPDEST SWAP3 POP DUP3 PUSH32 0xFFFFFFFFFFFFFFFFFFFFFFFFFFFFFFFFFFFFFFFFFFFFFFFFFFFFFFFFFFFFFFFF SUB DUP3 GT ISZERO PUSH2 0x1157 JUMPI PUSH2 0x1156 PUSH2 0xFEF JUMP JUMPDEST JUMPDEST DUP3 DUP3 ADD SWAP1 POP SWAP3 SWAP2 POP POP JUMP JUMPDEST PUSH1 0x0 PUSH1 0x40 DUP3 ADD SWAP1 POP PUSH2 0x1177 PUSH1 0x0 DUP4 ADD DUP6 PUSH2 0xE20 JUMP JUMPDEST PUSH2 0x1184 PUSH1 0x20 DUP4 ADD DUP5 PUSH2 0xD0D JUMP JUMPDEST SWAP4 SWAP3 POP POP POP JUMP JUMPDEST PUSH2 0x1194 DUP2 PUSH2 0xE73 JUMP JUMPDEST DUP2 EQ PUSH2 0x119F JUMPI PUSH1 0x0 DUP1 REVERT JUMPDEST POP JUMP JUMPDEST PUSH1 0x0 DUP2 MLOAD SWAP1 POP PUSH2 0x11B1 DUP2 PUSH2 0x118B JUMP JUMPDEST SWAP3 SWAP2 POP POP JUMP JUMPDEST PUSH1 0x0 PUSH1 0x20 DUP3 DUP5 SUB SLT ISZERO PUSH2 0x11CD JUMPI PUSH2 0x11CC PUSH2 0xD37 JUMP JUMPDEST JUMPDEST PUSH1 0x0 PUSH2 0x11DB DUP5 DUP3 DUP6 ADD PUSH2 0x11A2 JUMP JUMPDEST SWAP2 POP POP SWAP3 SWAP2 POP POP JUMP JUMPDEST PUSH32 0x616D6F756E742063616E6E6F7420626520300000000000000000000000000000 PUSH1 0x0 DUP3 ADD MSTORE POP JUMP JUMPDEST PUSH1 0x0 PUSH2 0x121A PUSH1 0x12 DUP4 PUSH2 0xC53 JUMP JUMPDEST SWAP2 POP PUSH2 0x1225 DUP3 PUSH2 0x11E4 JUMP JUMPDEST PUSH1 0x20 DUP3 ADD SWAP1 POP SWAP2 SWAP1 POP JUMP JUMPDEST PUSH1 0x0 PUSH1 0x20 DUP3 ADD SWAP1 POP DUP2 DUP2 SUB PUSH1 0x0 DUP4 ADD MSTORE PUSH2 0x1249 DUP2 PUSH2 0x120D JUMP JUMPDEST SWAP1 POP SWAP2 SWAP1 POP JUMP JUMPDEST PUSH1 0x0 PUSH1 0x60 DUP3 ADD SWAP1 POP PUSH2 0x1265 PUSH1 0x0 DUP4 ADD DUP7 PUSH2 0xE20 JUMP JUMPDEST PUSH2 0x1272 PUSH1 0x20 DUP4 ADD DUP6 PUSH2 0xE20 JUMP JUMPDEST PUSH2 0x127F PUSH1 0x40 DUP4 ADD DUP5 PUSH2 0xD0D JUMP JUMPDEST SWAP5 SWAP4 POP POP POP POP JUMP JUMPDEST PUSH32 0x5374616B696E672042616C616E63652063616E6E6F7420626520302E00000000 PUSH1 0x0 DUP3 ADD MSTORE POP JUMP JUMPDEST PUSH1 0x0 PUSH2 0x12BD PUSH1 0x1C DUP4 PUSH2 0xC53 JUMP JUMPDEST SWAP2 POP PUSH2 0x12C8 DUP3 PUSH2 0x1287 JUMP JUMPDEST PUSH1 0x20 DUP3 ADD SWAP1 POP SWAP2 SWAP1 POP JUMP JUMPDEST PUSH1 0x0 PUSH1 0x20 DUP3 ADD SWAP1 POP DUP2 DUP2 SUB PUSH1 0x0 DUP4 ADD MSTORE PUSH2 0x12EC DUP2 PUSH2 0x12B0 JUMP JUMPDEST SWAP1 POP SWAP2 SWAP1 POP JUMP INVALID LOG2 PUSH5 0x6970667358 0x22 SLT KECCAK256 SLT AND OR DUP1 TIMESTAMP 0xBF 0x4D CREATE2 0x4E 0xD 0xB5 SWAP7 0xD0 0xE5 DUP2 0xBB SWAP1 PUSH25 0xFAB6EB610FFC493A33B10A2D295564736F6C634300080D0033 "
				},
				"gasEstimates": {
					"creation": {
						"codeDepositCost": "981000",
						"executionCost": "infinite",
						"totalCost": "infinite"
					},
					"external": {
						"apy()": "2452",
						"getRewardTokens()": "infinite",
						"hasStaked(address)": "2911",
						"issueTokens(address)": "infinite",
						"name()": "infinite",
						"owner()": "2514",
						"pondToken()": "infinite",
						"stakeTokens(uint256)": "infinite",
						"stakers(uint256)": "5044",
						"stakingBalance(address)": "2881",
						"stakingTime(address)": "2903",
						"unstakeTokens()": "infinite"
					}
				},
				"methodIdentifiers": {
					"apy()": "3bcfc4b8",
					"getRewardTokens()": "c4f59f9b",
					"hasStaked(address)": "c93c8f34",
					"issueTokens(address)": "3ff54c71",
					"name()": "06fdde03",
					"owner()": "8da5cb5b",
					"pondToken()": "fe8be557",
					"stakeTokens(uint256)": "7547c7a3",
					"stakers(uint256)": "fd5e6dd1",
					"stakingBalance(address)": "45bc78ab",
					"stakingTime(address)": "583d42fd",
					"unstakeTokens()": "a5ce413b"
				}
			},
			"storageLayout": {
				"storage": [
					{
						"astId": 224,
						"contract": "contracts/Farming.sol:Farming",
						"label": "name",
						"offset": 0,
						"slot": "0",
						"type": "t_string_storage"
					},
					{
						"astId": 226,
						"contract": "contracts/Farming.sol:Farming",
						"label": "apy",
						"offset": 0,
						"slot": "1",
						"type": "t_uint256"
					},
					{
						"astId": 228,
						"contract": "contracts/Farming.sol:Farming",
						"label": "owner",
						"offset": 0,
						"slot": "2",
						"type": "t_address"
					},
					{
						"astId": 231,
						"contract": "contracts/Farming.sol:Farming",
						"label": "pondToken",
						"offset": 0,
						"slot": "3",
						"type": "t_contract(PondToken)221"
					},
					{
						"astId": 234,
						"contract": "contracts/Farming.sol:Farming",
						"label": "stakers",
						"offset": 0,
						"slot": "4",
						"type": "t_array(t_address)dyn_storage"
					},
					{
						"astId": 238,
						"contract": "contracts/Farming.sol:Farming",
						"label": "stakingBalance",
						"offset": 0,
						"slot": "5",
						"type": "t_mapping(t_address,t_uint256)"
					},
					{
						"astId": 242,
						"contract": "contracts/Farming.sol:Farming",
						"label": "stakingTime",
						"offset": 0,
						"slot": "6",
						"type": "t_mapping(t_address,t_uint256)"
					},
					{
						"astId": 246,
						"contract": "contracts/Farming.sol:Farming",
						"label": "hasStaked",
						"offset": 0,
						"slot": "7",
						"type": "t_mapping(t_address,t_bool)"
					}
				],
				"types": {
					"t_address": {
						"encoding": "inplace",
						"label": "address",
						"numberOfBytes": "20"
					},
					"t_array(t_address)dyn_storage": {
						"base": "t_address",
						"encoding": "dynamic_array",
						"label": "address[]",
						"numberOfBytes": "32"
					},
					"t_bool": {
						"encoding": "inplace",
						"label": "bool",
						"numberOfBytes": "1"
					},
					"t_contract(PondToken)221": {
						"encoding": "inplace",
						"label": "contract PondToken",
						"numberOfBytes": "20"
					},
					"t_mapping(t_address,t_bool)": {
						"encoding": "mapping",
						"key": "t_address",
						"label": "mapping(address => bool)",
						"numberOfBytes": "32",
						"value": "t_bool"
					},
					"t_mapping(t_address,t_uint256)": {
						"encoding": "mapping",
						"key": "t_address",
						"label": "mapping(address => uint256)",
						"numberOfBytes": "32",
						"value": "t_uint256"
					},
					"t_string_storage": {
						"encoding": "bytes",
						"label": "string",
						"numberOfBytes": "32"
					},
					"t_uint256": {
						"encoding": "inplace",
						"label": "uint256",
						"numberOfBytes": "32"
					}
				}
			},
			"userdoc": {
				"kind": "user",
				"methods": {},
				"version": 1
			}
		}
	}
}