{
	"contracts/Comfree.sol": {
		"ComfreeProtocol": {
			"abi": [
				{
					"inputs": [],
					"stateMutability": "nonpayable",
					"type": "constructor"
				},
				{
					"anonymous": false,
					"inputs": [
						{
							"indexed": false,
							"internalType": "uint256",
							"name": "_offerContractId",
							"type": "uint256"
						},
						{
							"indexed": false,
							"internalType": "bool",
							"name": "_conditionMet",
							"type": "bool"
						}
					],
					"name": "ConditionListCreate",
					"type": "event"
				},
				{
					"anonymous": false,
					"inputs": [
						{
							"indexed": false,
							"internalType": "uint256",
							"name": "_offerId",
							"type": "uint256"
						}
					],
					"name": "ConditionMet",
					"type": "event"
				},
				{
					"anonymous": false,
					"inputs": [
						{
							"indexed": false,
							"internalType": "uint256",
							"name": "_offerId",
							"type": "uint256"
						}
					],
					"name": "ConditionNotMet",
					"type": "event"
				},
				{
					"anonymous": false,
					"inputs": [
						{
							"indexed": false,
							"internalType": "uint256",
							"name": "propertyid",
							"type": "uint256"
						},
						{
							"indexed": false,
							"internalType": "uint256",
							"name": "price",
							"type": "uint256"
						},
						{
							"indexed": false,
							"internalType": "address",
							"name": "buyer",
							"type": "address"
						}
					],
					"name": "OfferAccepted",
					"type": "event"
				},
				{
					"anonymous": false,
					"inputs": [
						{
							"indexed": false,
							"internalType": "uint256",
							"name": "id",
							"type": "uint256"
						},
						{
							"indexed": true,
							"internalType": "address",
							"name": "sellerAddress",
							"type": "address"
						},
						{
							"indexed": true,
							"internalType": "address",
							"name": "buyerAddress",
							"type": "address"
						},
						{
							"indexed": false,
							"internalType": "uint256",
							"name": "priceAmount",
							"type": "uint256"
						}
					],
					"name": "OfferCreated",
					"type": "event"
				},
				{
					"inputs": [
						{
							"internalType": "uint256",
							"name": "",
							"type": "uint256"
						}
					],
					"name": "_conditionList",
					"outputs": [
						{
							"internalType": "bool",
							"name": "conditionMet",
							"type": "bool"
						},
						{
							"internalType": "bool",
							"name": "WallsPainted",
							"type": "bool"
						},
						{
							"internalType": "bool",
							"name": "CarpetCleaned",
							"type": "bool"
						},
						{
							"internalType": "bool",
							"name": "WindowsWashed",
							"type": "bool"
						}
					],
					"stateMutability": "view",
					"type": "function"
				},
				{
					"inputs": [
						{
							"internalType": "uint256",
							"name": "",
							"type": "uint256"
						}
					],
					"name": "_homesForSale",
					"outputs": [
						{
							"internalType": "uint256",
							"name": "id",
							"type": "uint256"
						},
						{
							"internalType": "address",
							"name": "seller",
							"type": "address"
						},
						{
							"internalType": "address",
							"name": "buyer",
							"type": "address"
						},
						{
							"internalType": "string",
							"name": "imgurl",
							"type": "string"
						},
						{
							"internalType": "string",
							"name": "propertyaddress",
							"type": "string"
						},
						{
							"internalType": "uint256",
							"name": "ethprice",
							"type": "uint256"
						},
						{
							"internalType": "bool",
							"name": "inescrow",
							"type": "bool"
						}
					],
					"stateMutability": "view",
					"type": "function"
				},
				{
					"inputs": [
						{
							"internalType": "uint256",
							"name": "",
							"type": "uint256"
						}
					],
					"name": "_listOfOfferContracts",
					"outputs": [
						{
							"internalType": "uint256",
							"name": "id",
							"type": "uint256"
						},
						{
							"internalType": "uint256",
							"name": "propertyid",
							"type": "uint256"
						},
						{
							"internalType": "address",
							"name": "buyerAddress",
							"type": "address"
						},
						{
							"internalType": "address",
							"name": "sellerAddress",
							"type": "address"
						},
						{
							"internalType": "string",
							"name": "imgurl",
							"type": "string"
						},
						{
							"internalType": "uint256",
							"name": "offerAmount",
							"type": "uint256"
						},
						{
							"internalType": "bool",
							"name": "accepted",
							"type": "bool"
						},
						{
							"internalType": "uint256",
							"name": "conditionListId",
							"type": "uint256"
						}
					],
					"stateMutability": "view",
					"type": "function"
				},
				{
					"inputs": [
						{
							"internalType": "uint256",
							"name": "_id",
							"type": "uint256"
						},
						{
							"internalType": "bool",
							"name": "_value",
							"type": "bool"
						},
						{
							"internalType": "uint256",
							"name": "_propertyid",
							"type": "uint256"
						}
					],
					"name": "accept",
					"outputs": [
						{
							"internalType": "bool",
							"name": "",
							"type": "bool"
						}
					],
					"stateMutability": "payable",
					"type": "function"
				},
				{
					"inputs": [
						{
							"internalType": "address",
							"name": "_buyerAddress",
							"type": "address"
						},
						{
							"internalType": "address",
							"name": "_sellerAddress",
							"type": "address"
						},
						{
							"internalType": "string",
							"name": "imgurl",
							"type": "string"
						},
						{
							"internalType": "string",
							"name": "propertyaddress",
							"type": "string"
						},
						{
							"internalType": "uint256",
							"name": "_ethprice",
							"type": "uint256"
						}
					],
					"name": "addPropertyForSale",
					"outputs": [],
					"stateMutability": "nonpayable",
					"type": "function"
				},
				{
					"inputs": [
						{
							"internalType": "uint256",
							"name": "_offerId",
							"type": "uint256"
						}
					],
					"name": "createConditionList",
					"outputs": [],
					"stateMutability": "nonpayable",
					"type": "function"
				},
				{
					"inputs": [
						{
							"internalType": "uint256",
							"name": "_proertyid",
							"type": "uint256"
						},
						{
							"internalType": "address",
							"name": "_buyerAddress",
							"type": "address"
						},
						{
							"internalType": "address",
							"name": "_sellerAddress",
							"type": "address"
						},
						{
							"internalType": "string",
							"name": "_imgurl",
							"type": "string"
						},
						{
							"internalType": "uint256",
							"name": "_offerAmount",
							"type": "uint256"
						},
						{
							"internalType": "bool",
							"name": "_accepted",
							"type": "bool"
						}
					],
					"name": "createOfferContract",
					"outputs": [],
					"stateMutability": "nonpayable",
					"type": "function"
				},
				{
					"inputs": [],
					"name": "getHomesForSale",
					"outputs": [
						{
							"internalType": "uint256[]",
							"name": "",
							"type": "uint256[]"
						}
					],
					"stateMutability": "view",
					"type": "function"
				},
				{
					"inputs": [],
					"name": "getOfferContractDetailsById",
					"outputs": [
						{
							"internalType": "uint256[]",
							"name": "",
							"type": "uint256[]"
						}
					],
					"stateMutability": "view",
					"type": "function"
				},
				{
					"inputs": [
						{
							"internalType": "uint256",
							"name": "_offerId",
							"type": "uint256"
						},
						{
							"internalType": "bool",
							"name": "_wallsPainted",
							"type": "bool"
						},
						{
							"internalType": "bool",
							"name": "_CarpetCleaned",
							"type": "bool"
						},
						{
							"internalType": "bool",
							"name": "_WindowsWashed",
							"type": "bool"
						}
					],
					"name": "manageConditions",
					"outputs": [],
					"stateMutability": "nonpayable",
					"type": "function"
				},
				{
					"inputs": [],
					"name": "name",
					"outputs": [
						{
							"internalType": "string",
							"name": "",
							"type": "string"
						}
					],
					"stateMutability": "view",
					"type": "function"
				},
				{
					"inputs": [],
					"name": "symbol",
					"outputs": [
						{
							"internalType": "string",
							"name": "",
							"type": "string"
						}
					],
					"stateMutability": "view",
					"type": "function"
				}
			],
			"devdoc": {
				"kind": "dev",
				"methods": {},
				"version": 1
			},
			"evm": {
				"assembly": "    /* \"contracts/Comfree.sol\":118:6880  contract ComfreeProtocol {... */\n  mstore(0x40, 0x80)\n    /* \"contracts/Comfree.sol\":201:286  constructor() {... */\n  callvalue\n  dup1\n  iszero\n  tag_1\n  jumpi\n  0x00\n  dup1\n  revert\ntag_1:\n  pop\n    /* \"contracts/Comfree.sol\":225:250  name = \"ComFree Protocol\" */\n  mload(0x40)\n  dup1\n  0x40\n  add\n  0x40\n  mstore\n  dup1\n  0x10\n  dup2\n  mstore\n  0x20\n  add\n  0x436f6d467265652050726f746f636f6c00000000000000000000000000000000\n  dup2\n  mstore\n  pop\n    /* \"contracts/Comfree.sol\":225:229  name */\n  0x00\n    /* \"contracts/Comfree.sol\":225:250  name = \"ComFree Protocol\" */\n  swap1\n  dup2\n  tag_4\n  swap2\n  swap1\n  tag_5\n  jump\t// in\ntag_4:\n  pop\n    /* \"contracts/Comfree.sol\":261:279  symbol = \"Comfree\" */\n  mload(0x40)\n  dup1\n  0x40\n  add\n  0x40\n  mstore\n  dup1\n  0x07\n  dup2\n  mstore\n  0x20\n  add\n  0x436f6d6672656500000000000000000000000000000000000000000000000000\n  dup2\n  mstore\n  pop\n    /* \"contracts/Comfree.sol\":261:267  symbol */\n  0x01\n    /* \"contracts/Comfree.sol\":261:279  symbol = \"Comfree\" */\n  swap1\n  dup2\n  tag_6\n  swap2\n  swap1\n  tag_5\n  jump\t// in\ntag_6:\n  pop\n    /* \"contracts/Comfree.sol\":118:6880  contract ComfreeProtocol {... */\n  jump(tag_7)\n    /* \"#utility.yul\":7:106   */\ntag_8:\n    /* \"#utility.yul\":59:65   */\n  0x00\n    /* \"#utility.yul\":93:98   */\n  dup2\n    /* \"#utility.yul\":87:99   */\n  mload\n    /* \"#utility.yul\":77:99   */\n  swap1\n  pop\n    /* \"#utility.yul\":7:106   */\n  swap2\n  swap1\n  pop\n  jump\t// out\n    /* \"#utility.yul\":112:292   */\ntag_9:\n    /* \"#utility.yul\":160:237   */\n  0x4e487b7100000000000000000000000000000000000000000000000000000000\n    /* \"#utility.yul\":157:158   */\n  0x00\n    /* \"#utility.yul\":150:238   */\n  mstore\n    /* \"#utility.yul\":257:261   */\n  0x41\n    /* \"#utility.yul\":254:255   */\n  0x04\n    /* \"#utility.yul\":247:262   */\n  mstore\n    /* \"#utility.yul\":281:285   */\n  0x24\n    /* \"#utility.yul\":278:279   */\n  0x00\n    /* \"#utility.yul\":271:286   */\n  revert\n    /* \"#utility.yul\":298:478   */\ntag_10:\n    /* \"#utility.yul\":346:423   */\n  0x4e487b7100000000000000000000000000000000000000000000000000000000\n    /* \"#utility.yul\":343:344   */\n  0x00\n    /* \"#utility.yul\":336:424   */\n  mstore\n    /* \"#utility.yul\":443:447   */\n  0x22\n    /* \"#utility.yul\":440:441   */\n  0x04\n    /* \"#utility.yul\":433:448   */\n  mstore\n    /* \"#utility.yul\":467:471   */\n  0x24\n    /* \"#utility.yul\":464:465   */\n  0x00\n    /* \"#utility.yul\":457:472   */\n  revert\n    /* \"#utility.yul\":484:804   */\ntag_11:\n    /* \"#utility.yul\":528:534   */\n  0x00\n    /* \"#utility.yul\":565:566   */\n  0x02\n    /* \"#utility.yul\":559:563   */\n  dup3\n    /* \"#utility.yul\":555:567   */\n  div\n    /* \"#utility.yul\":545:567   */\n  swap1\n  pop\n    /* \"#utility.yul\":612:613   */\n  0x01\n    /* \"#utility.yul\":606:610   */\n  dup3\n    /* \"#utility.yul\":602:614   */\n  and\n    /* \"#utility.yul\":633:651   */\n  dup1\n    /* \"#utility.yul\":623:704   */\n  tag_33\n  jumpi\n    /* \"#utility.yul\":689:693   */\n  0x7f\n    /* \"#utility.yul\":681:687   */\n  dup3\n    /* \"#utility.yul\":677:694   */\n  and\n    /* \"#utility.yul\":667:694   */\n  swap2\n  pop\n    /* \"#utility.yul\":623:704   */\ntag_33:\n    /* \"#utility.yul\":751:753   */\n  0x20\n    /* \"#utility.yul\":743:749   */\n  dup3\n    /* \"#utility.yul\":740:754   */\n  lt\n    /* \"#utility.yul\":720:738   */\n  dup2\n    /* \"#utility.yul\":717:755   */\n  sub\n    /* \"#utility.yul\":714:798   */\n  tag_34\n  jumpi\n    /* \"#utility.yul\":770:788   */\n  tag_35\n  tag_10\n  jump\t// in\ntag_35:\n    /* \"#utility.yul\":714:798   */\ntag_34:\n    /* \"#utility.yul\":535:804   */\n  pop\n    /* \"#utility.yul\":484:804   */\n  swap2\n  swap1\n  pop\n  jump\t// out\n    /* \"#utility.yul\":810:951   */\ntag_12:\n    /* \"#utility.yul\":859:863   */\n  0x00\n    /* \"#utility.yul\":882:885   */\n  dup2\n    /* \"#utility.yul\":874:885   */\n  swap1\n  pop\n    /* \"#utility.yul\":905:908   */\n  dup2\n    /* \"#utility.yul\":902:903   */\n  0x00\n    /* \"#utility.yul\":895:909   */\n  mstore\n    /* \"#utility.yul\":939:943   */\n  0x20\n    /* \"#utility.yul\":936:937   */\n  0x00\n    /* \"#utility.yul\":926:944   */\n  keccak256\n    /* \"#utility.yul\":918:944   */\n  swap1\n  pop\n    /* \"#utility.yul\":810:951   */\n  swap2\n  swap1\n  pop\n  jump\t// out\n    /* \"#utility.yul\":957:1050   */\ntag_13:\n    /* \"#utility.yul\":994:1000   */\n  0x00\n    /* \"#utility.yul\":1041:1043   */\n  0x20\n    /* \"#utility.yul\":1036:1038   */\n  0x1f\n    /* \"#utility.yul\":1029:1034   */\n  dup4\n    /* \"#utility.yul\":1025:1039   */\n  add\n    /* \"#utility.yul\":1021:1044   */\n  div\n    /* \"#utility.yul\":1011:1044   */\n  swap1\n  pop\n    /* \"#utility.yul\":957:1050   */\n  swap2\n  swap1\n  pop\n  jump\t// out\n    /* \"#utility.yul\":1056:1163   */\ntag_14:\n    /* \"#utility.yul\":1100:1108   */\n  0x00\n    /* \"#utility.yul\":1150:1155   */\n  dup3\n    /* \"#utility.yul\":1144:1148   */\n  dup3\n    /* \"#utility.yul\":1140:1156   */\n  shl\n    /* \"#utility.yul\":1119:1156   */\n  swap1\n  pop\n    /* \"#utility.yul\":1056:1163   */\n  swap3\n  swap2\n  pop\n  pop\n  jump\t// out\n    /* \"#utility.yul\":1169:1562   */\ntag_15:\n    /* \"#utility.yul\":1238:1244   */\n  0x00\n    /* \"#utility.yul\":1288:1289   */\n  0x08\n    /* \"#utility.yul\":1276:1286   */\n  dup4\n    /* \"#utility.yul\":1272:1290   */\n  mul\n    /* \"#utility.yul\":1311:1408   */\n  tag_40\n    /* \"#utility.yul\":1341:1407   */\n  0xffffffffffffffffffffffffffffffffffffffffffffffffffffffffffffffff\n    /* \"#utility.yul\":1330:1339   */\n  dup3\n    /* \"#utility.yul\":1311:1408   */\n  tag_14\n  jump\t// in\ntag_40:\n    /* \"#utility.yul\":1429:1468   */\n  tag_41\n    /* \"#utility.yul\":1459:1467   */\n  dup7\n    /* \"#utility.yul\":1448:1457   */\n  dup4\n    /* \"#utility.yul\":1429:1468   */\n  tag_14\n  jump\t// in\ntag_41:\n    /* \"#utility.yul\":1417:1468   */\n  swap6\n  pop\n    /* \"#utility.yul\":1501:1505   */\n  dup1\n    /* \"#utility.yul\":1497:1506   */\n  not\n    /* \"#utility.yul\":1490:1495   */\n  dup5\n    /* \"#utility.yul\":1486:1507   */\n  and\n    /* \"#utility.yul\":1477:1507   */\n  swap4\n  pop\n    /* \"#utility.yul\":1550:1554   */\n  dup1\n    /* \"#utility.yul\":1540:1548   */\n  dup7\n    /* \"#utility.yul\":1536:1555   */\n  and\n    /* \"#utility.yul\":1529:1534   */\n  dup5\n    /* \"#utility.yul\":1526:1556   */\n  or\n    /* \"#utility.yul\":1516:1556   */\n  swap3\n  pop\n    /* \"#utility.yul\":1245:1562   */\n  pop\n  pop\n    /* \"#utility.yul\":1169:1562   */\n  swap4\n  swap3\n  pop\n  pop\n  pop\n  jump\t// out\n    /* \"#utility.yul\":1568:1645   */\ntag_16:\n    /* \"#utility.yul\":1605:1612   */\n  0x00\n    /* \"#utility.yul\":1634:1639   */\n  dup2\n    /* \"#utility.yul\":1623:1639   */\n  swap1\n  pop\n    /* \"#utility.yul\":1568:1645   */\n  swap2\n  swap1\n  pop\n  jump\t// out\n    /* \"#utility.yul\":1651:1711   */\ntag_17:\n    /* \"#utility.yul\":1679:1682   */\n  0x00\n    /* \"#utility.yul\":1700:1705   */\n  dup2\n    /* \"#utility.yul\":1693:1705   */\n  swap1\n  pop\n    /* \"#utility.yul\":1651:1711   */\n  swap2\n  swap1\n  pop\n  jump\t// out\n    /* \"#utility.yul\":1717:1859   */\ntag_18:\n    /* \"#utility.yul\":1767:1776   */\n  0x00\n    /* \"#utility.yul\":1800:1853   */\n  tag_45\n    /* \"#utility.yul\":1818:1852   */\n  tag_46\n    /* \"#utility.yul\":1827:1851   */\n  tag_47\n    /* \"#utility.yul\":1845:1850   */\n  dup5\n    /* \"#utility.yul\":1827:1851   */\n  tag_16\n  jump\t// in\ntag_47:\n    /* \"#utility.yul\":1818:1852   */\n  tag_17\n  jump\t// in\ntag_46:\n    /* \"#utility.yul\":1800:1853   */\n  tag_16\n  jump\t// in\ntag_45:\n    /* \"#utility.yul\":1787:1853   */\n  swap1\n  pop\n    /* \"#utility.yul\":1717:1859   */\n  swap2\n  swap1\n  pop\n  jump\t// out\n    /* \"#utility.yul\":1865:1940   */\ntag_19:\n    /* \"#utility.yul\":1908:1911   */\n  0x00\n    /* \"#utility.yul\":1929:1934   */\n  dup2\n    /* \"#utility.yul\":1922:1934   */\n  swap1\n  pop\n    /* \"#utility.yul\":1865:1940   */\n  swap2\n  swap1\n  pop\n  jump\t// out\n    /* \"#utility.yul\":1946:2215   */\ntag_20:\n    /* \"#utility.yul\":2056:2095   */\n  tag_50\n    /* \"#utility.yul\":2087:2094   */\n  dup4\n    /* \"#utility.yul\":2056:2095   */\n  tag_18\n  jump\t// in\ntag_50:\n    /* \"#utility.yul\":2117:2208   */\n  tag_51\n    /* \"#utility.yul\":2166:2207   */\n  tag_52\n    /* \"#utility.yul\":2190:2206   */\n  dup3\n    /* \"#utility.yul\":2166:2207   */\n  tag_19\n  jump\t// in\ntag_52:\n    /* \"#utility.yul\":2158:2164   */\n  dup5\n    /* \"#utility.yul\":2151:2155   */\n  dup5\n    /* \"#utility.yul\":2145:2156   */\n  sload\n    /* \"#utility.yul\":2117:2208   */\n  tag_15\n  jump\t// in\ntag_51:\n    /* \"#utility.yul\":2111:2115   */\n  dup3\n    /* \"#utility.yul\":2104:2209   */\n  sstore\n    /* \"#utility.yul\":2022:2215   */\n  pop\n    /* \"#utility.yul\":1946:2215   */\n  pop\n  pop\n  pop\n  jump\t// out\n    /* \"#utility.yul\":2221:2294   */\ntag_21:\n    /* \"#utility.yul\":2266:2269   */\n  0x00\n    /* \"#utility.yul\":2221:2294   */\n  swap1\n  jump\t// out\n    /* \"#utility.yul\":2300:2489   */\ntag_22:\n    /* \"#utility.yul\":2377:2409   */\n  tag_55\n  tag_21\n  jump\t// in\ntag_55:\n    /* \"#utility.yul\":2418:2483   */\n  tag_56\n    /* \"#utility.yul\":2476:2482   */\n  dup2\n    /* \"#utility.yul\":2468:2474   */\n  dup5\n    /* \"#utility.yul\":2462:2466   */\n  dup5\n    /* \"#utility.yul\":2418:2483   */\n  tag_20\n  jump\t// in\ntag_56:\n    /* \"#utility.yul\":2353:2489   */\n  pop\n    /* \"#utility.yul\":2300:2489   */\n  pop\n  pop\n  jump\t// out\n    /* \"#utility.yul\":2495:2681   */\ntag_23:\n    /* \"#utility.yul\":2555:2675   */\ntag_58:\n    /* \"#utility.yul\":2572:2575   */\n  dup2\n    /* \"#utility.yul\":2565:2570   */\n  dup2\n    /* \"#utility.yul\":2562:2576   */\n  lt\n    /* \"#utility.yul\":2555:2675   */\n  iszero\n  tag_60\n  jumpi\n    /* \"#utility.yul\":2626:2665   */\n  tag_61\n    /* \"#utility.yul\":2663:2664   */\n  0x00\n    /* \"#utility.yul\":2656:2661   */\n  dup3\n    /* \"#utility.yul\":2626:2665   */\n  tag_22\n  jump\t// in\ntag_61:\n    /* \"#utility.yul\":2599:2600   */\n  0x01\n    /* \"#utility.yul\":2592:2597   */\n  dup2\n    /* \"#utility.yul\":2588:2601   */\n  add\n    /* \"#utility.yul\":2579:2601   */\n  swap1\n  pop\n    /* \"#utility.yul\":2555:2675   */\n  jump(tag_58)\ntag_60:\n    /* \"#utility.yul\":2495:2681   */\n  pop\n  pop\n  jump\t// out\n    /* \"#utility.yul\":2687:3230   */\ntag_24:\n    /* \"#utility.yul\":2788:2790   */\n  0x1f\n    /* \"#utility.yul\":2783:2786   */\n  dup3\n    /* \"#utility.yul\":2780:2791   */\n  gt\n    /* \"#utility.yul\":2777:3223   */\n  iszero\n  tag_63\n  jumpi\n    /* \"#utility.yul\":2822:2860   */\n  tag_64\n    /* \"#utility.yul\":2854:2859   */\n  dup2\n    /* \"#utility.yul\":2822:2860   */\n  tag_12\n  jump\t// in\ntag_64:\n    /* \"#utility.yul\":2906:2935   */\n  tag_65\n    /* \"#utility.yul\":2924:2934   */\n  dup5\n    /* \"#utility.yul\":2906:2935   */\n  tag_13\n  jump\t// in\ntag_65:\n    /* \"#utility.yul\":2896:2904   */\n  dup2\n    /* \"#utility.yul\":2892:2936   */\n  add\n    /* \"#utility.yul\":3089:3091   */\n  0x20\n    /* \"#utility.yul\":3077:3087   */\n  dup6\n    /* \"#utility.yul\":3074:3092   */\n  lt\n    /* \"#utility.yul\":3071:3120   */\n  iszero\n  tag_66\n  jumpi\n    /* \"#utility.yul\":3110:3118   */\n  dup2\n    /* \"#utility.yul\":3095:3118   */\n  swap1\n  pop\n    /* \"#utility.yul\":3071:3120   */\ntag_66:\n    /* \"#utility.yul\":3133:3213   */\n  tag_67\n    /* \"#utility.yul\":3189:3211   */\n  tag_68\n    /* \"#utility.yul\":3207:3210   */\n  dup6\n    /* \"#utility.yul\":3189:3211   */\n  tag_13\n  jump\t// in\ntag_68:\n    /* \"#utility.yul\":3179:3187   */\n  dup4\n    /* \"#utility.yul\":3175:3212   */\n  add\n    /* \"#utility.yul\":3162:3173   */\n  dup3\n    /* \"#utility.yul\":3133:3213   */\n  tag_23\n  jump\t// in\ntag_67:\n    /* \"#utility.yul\":2792:3223   */\n  pop\n  pop\n    /* \"#utility.yul\":2777:3223   */\ntag_63:\n    /* \"#utility.yul\":2687:3230   */\n  pop\n  pop\n  pop\n  jump\t// out\n    /* \"#utility.yul\":3236:3353   */\ntag_25:\n    /* \"#utility.yul\":3290:3298   */\n  0x00\n    /* \"#utility.yul\":3340:3345   */\n  dup3\n    /* \"#utility.yul\":3334:3338   */\n  dup3\n    /* \"#utility.yul\":3330:3346   */\n  shr\n    /* \"#utility.yul\":3309:3346   */\n  swap1\n  pop\n    /* \"#utility.yul\":3236:3353   */\n  swap3\n  swap2\n  pop\n  pop\n  jump\t// out\n    /* \"#utility.yul\":3359:3528   */\ntag_26:\n    /* \"#utility.yul\":3403:3409   */\n  0x00\n    /* \"#utility.yul\":3436:3487   */\n  tag_71\n    /* \"#utility.yul\":3484:3485   */\n  0x00\n    /* \"#utility.yul\":3480:3486   */\n  not\n    /* \"#utility.yul\":3472:3477   */\n  dup5\n    /* \"#utility.yul\":3469:3470   */\n  0x08\n    /* \"#utility.yul\":3465:3478   */\n  mul\n    /* \"#utility.yul\":3436:3487   */\n  tag_25\n  jump\t// in\ntag_71:\n    /* \"#utility.yul\":3432:3488   */\n  not\n    /* \"#utility.yul\":3517:3521   */\n  dup1\n    /* \"#utility.yul\":3511:3515   */\n  dup4\n    /* \"#utility.yul\":3507:3522   */\n  and\n    /* \"#utility.yul\":3497:3522   */\n  swap2\n  pop\n    /* \"#utility.yul\":3410:3528   */\n  pop\n    /* \"#utility.yul\":3359:3528   */\n  swap3\n  swap2\n  pop\n  pop\n  jump\t// out\n    /* \"#utility.yul\":3533:3828   */\ntag_27:\n    /* \"#utility.yul\":3609:3613   */\n  0x00\n    /* \"#utility.yul\":3755:3784   */\n  tag_73\n    /* \"#utility.yul\":3780:3783   */\n  dup4\n    /* \"#utility.yul\":3774:3778   */\n  dup4\n    /* \"#utility.yul\":3755:3784   */\n  tag_26\n  jump\t// in\ntag_73:\n    /* \"#utility.yul\":3747:3784   */\n  swap2\n  pop\n    /* \"#utility.yul\":3817:3820   */\n  dup3\n    /* \"#utility.yul\":3814:3815   */\n  0x02\n    /* \"#utility.yul\":3810:3821   */\n  mul\n    /* \"#utility.yul\":3804:3808   */\n  dup3\n    /* \"#utility.yul\":3801:3822   */\n  or\n    /* \"#utility.yul\":3793:3822   */\n  swap1\n  pop\n    /* \"#utility.yul\":3533:3828   */\n  swap3\n  swap2\n  pop\n  pop\n  jump\t// out\n    /* \"#utility.yul\":3833:5228   */\ntag_5:\n    /* \"#utility.yul\":3950:3987   */\n  tag_75\n    /* \"#utility.yul\":3983:3986   */\n  dup3\n    /* \"#utility.yul\":3950:3987   */\n  tag_8\n  jump\t// in\ntag_75:\n    /* \"#utility.yul\":4052:4070   */\n  0xffffffffffffffff\n    /* \"#utility.yul\":4044:4050   */\n  dup2\n    /* \"#utility.yul\":4041:4071   */\n  gt\n    /* \"#utility.yul\":4038:4094   */\n  iszero\n  tag_76\n  jumpi\n    /* \"#utility.yul\":4074:4092   */\n  tag_77\n  tag_9\n  jump\t// in\ntag_77:\n    /* \"#utility.yul\":4038:4094   */\ntag_76:\n    /* \"#utility.yul\":4118:4156   */\n  tag_78\n    /* \"#utility.yul\":4150:4154   */\n  dup3\n    /* \"#utility.yul\":4144:4155   */\n  sload\n    /* \"#utility.yul\":4118:4156   */\n  tag_11\n  jump\t// in\ntag_78:\n    /* \"#utility.yul\":4203:4270   */\n  tag_79\n    /* \"#utility.yul\":4263:4269   */\n  dup3\n    /* \"#utility.yul\":4255:4261   */\n  dup3\n    /* \"#utility.yul\":4249:4253   */\n  dup6\n    /* \"#utility.yul\":4203:4270   */\n  tag_24\n  jump\t// in\ntag_79:\n    /* \"#utility.yul\":4297:4298   */\n  0x00\n    /* \"#utility.yul\":4321:4325   */\n  0x20\n    /* \"#utility.yul\":4308:4325   */\n  swap1\n  pop\n    /* \"#utility.yul\":4353:4355   */\n  0x1f\n    /* \"#utility.yul\":4345:4351   */\n  dup4\n    /* \"#utility.yul\":4342:4356   */\n  gt\n    /* \"#utility.yul\":4370:4371   */\n  0x01\n    /* \"#utility.yul\":4365:4983   */\n  dup2\n  eq\n  tag_81\n  jumpi\n    /* \"#utility.yul\":5027:5028   */\n  0x00\n    /* \"#utility.yul\":5044:5050   */\n  dup5\n    /* \"#utility.yul\":5041:5118   */\n  iszero\n  tag_82\n  jumpi\n    /* \"#utility.yul\":5093:5102   */\n  dup3\n    /* \"#utility.yul\":5088:5091   */\n  dup8\n    /* \"#utility.yul\":5084:5103   */\n  add\n    /* \"#utility.yul\":5078:5104   */\n  mload\n    /* \"#utility.yul\":5069:5104   */\n  swap1\n  pop\n    /* \"#utility.yul\":5041:5118   */\ntag_82:\n    /* \"#utility.yul\":5144:5211   */\n  tag_83\n    /* \"#utility.yul\":5204:5210   */\n  dup6\n    /* \"#utility.yul\":5197:5202   */\n  dup3\n    /* \"#utility.yul\":5144:5211   */\n  tag_27\n  jump\t// in\ntag_83:\n    /* \"#utility.yul\":5138:5142   */\n  dup7\n    /* \"#utility.yul\":5131:5212   */\n  sstore\n    /* \"#utility.yul\":5000:5222   */\n  pop\n    /* \"#utility.yul\":4335:5222   */\n  jump(tag_80)\n    /* \"#utility.yul\":4365:4983   */\ntag_81:\n    /* \"#utility.yul\":4417:4421   */\n  0x1f\n    /* \"#utility.yul\":4413:4422   */\n  not\n    /* \"#utility.yul\":4405:4411   */\n  dup5\n    /* \"#utility.yul\":4401:4423   */\n  and\n    /* \"#utility.yul\":4451:4488   */\n  tag_84\n    /* \"#utility.yul\":4483:4487   */\n  dup7\n    /* \"#utility.yul\":4451:4488   */\n  tag_12\n  jump\t// in\ntag_84:\n    /* \"#utility.yul\":4510:4511   */\n  0x00\n    /* \"#utility.yul\":4524:4732   */\ntag_85:\n    /* \"#utility.yul\":4538:4545   */\n  dup3\n    /* \"#utility.yul\":4535:4536   */\n  dup2\n    /* \"#utility.yul\":4532:4546   */\n  lt\n    /* \"#utility.yul\":4524:4732   */\n  iszero\n  tag_87\n  jumpi\n    /* \"#utility.yul\":4617:4626   */\n  dup5\n    /* \"#utility.yul\":4612:4615   */\n  dup10\n    /* \"#utility.yul\":4608:4627   */\n  add\n    /* \"#utility.yul\":4602:4628   */\n  mload\n    /* \"#utility.yul\":4594:4600   */\n  dup3\n    /* \"#utility.yul\":4587:4629   */\n  sstore\n    /* \"#utility.yul\":4668:4669   */\n  0x01\n    /* \"#utility.yul\":4660:4666   */\n  dup3\n    /* \"#utility.yul\":4656:4670   */\n  add\n    /* \"#utility.yul\":4646:4670   */\n  swap2\n  pop\n    /* \"#utility.yul\":4715:4717   */\n  0x20\n    /* \"#utility.yul\":4704:4713   */\n  dup6\n    /* \"#utility.yul\":4700:4718   */\n  add\n    /* \"#utility.yul\":4687:4718   */\n  swap5\n  pop\n    /* \"#utility.yul\":4561:4565   */\n  0x20\n    /* \"#utility.yul\":4558:4559   */\n  dup2\n    /* \"#utility.yul\":4554:4566   */\n  add\n    /* \"#utility.yul\":4549:4566   */\n  swap1\n  pop\n    /* \"#utility.yul\":4524:4732   */\n  jump(tag_85)\ntag_87:\n    /* \"#utility.yul\":4760:4766   */\n  dup7\n    /* \"#utility.yul\":4751:4758   */\n  dup4\n    /* \"#utility.yul\":4748:4767   */\n  lt\n    /* \"#utility.yul\":4745:4924   */\n  iszero\n  tag_88\n  jumpi\n    /* \"#utility.yul\":4818:4827   */\n  dup5\n    /* \"#utility.yul\":4813:4816   */\n  dup10\n    /* \"#utility.yul\":4809:4828   */\n  add\n    /* \"#utility.yul\":4803:4829   */\n  mload\n    /* \"#utility.yul\":4861:4909   */\n  tag_89\n    /* \"#utility.yul\":4903:4907   */\n  0x1f\n    /* \"#utility.yul\":4895:4901   */\n  dup10\n    /* \"#utility.yul\":4891:4908   */\n  and\n    /* \"#utility.yul\":4880:4889   */\n  dup3\n    /* \"#utility.yul\":4861:4909   */\n  tag_26\n  jump\t// in\ntag_89:\n    /* \"#utility.yul\":4853:4859   */\n  dup4\n    /* \"#utility.yul\":4846:4910   */\n  sstore\n    /* \"#utility.yul\":4768:4924   */\n  pop\n    /* \"#utility.yul\":4745:4924   */\ntag_88:\n    /* \"#utility.yul\":4970:4971   */\n  0x01\n    /* \"#utility.yul\":4966:4967   */\n  0x02\n    /* \"#utility.yul\":4958:4964   */\n  dup9\n    /* \"#utility.yul\":4954:4968   */\n  mul\n    /* \"#utility.yul\":4950:4972   */\n  add\n    /* \"#utility.yul\":4944:4948   */\n  dup9\n    /* \"#utility.yul\":4937:4973   */\n  sstore\n    /* \"#utility.yul\":4372:4983   */\n  pop\n  pop\n  pop\n    /* \"#utility.yul\":4335:5222   */\ntag_80:\n  pop\n    /* \"#utility.yul\":3925:5228   */\n  pop\n  pop\n  pop\n    /* \"#utility.yul\":3833:5228   */\n  pop\n  pop\n  jump\t// out\n    /* \"contracts/Comfree.sol\":118:6880  contract ComfreeProtocol {... */\ntag_7:\n  dataSize(sub_0)\n  dup1\n  dataOffset(sub_0)\n  0x00\n  codecopy\n  0x00\n  return\nstop\n\nsub_0: assembly {\n        /* \"contracts/Comfree.sol\":118:6880  contract ComfreeProtocol {... */\n      mstore(0x40, 0x80)\n      jumpi(tag_1, lt(calldatasize, 0x04))\n      shr(0xe0, calldataload(0x00))\n      dup1\n      0x871457f6\n      gt\n      tag_14\n      jumpi\n      dup1\n      0x871457f6\n      eq\n      tag_8\n      jumpi\n      dup1\n      0x95d89b41\n      eq\n      tag_9\n      jumpi\n      dup1\n      0xb81c877b\n      eq\n      tag_10\n      jumpi\n      dup1\n      0xdab62bed\n      eq\n      tag_11\n      jumpi\n      dup1\n      0xef6cb581\n      eq\n      tag_12\n      jumpi\n      dup1\n      0xfb2bbcd3\n      eq\n      tag_13\n      jumpi\n      jump(tag_1)\n    tag_14:\n      dup1\n      0x06fdde03\n      eq\n      tag_2\n      jumpi\n      dup1\n      0x3ad1ce1f\n      eq\n      tag_3\n      jumpi\n      dup1\n      0x53a68691\n      eq\n      tag_4\n      jumpi\n      dup1\n      0x5496623a\n      eq\n      tag_5\n      jumpi\n      dup1\n      0x554d8bb6\n      eq\n      tag_6\n      jumpi\n      dup1\n      0x5e230c90\n      eq\n      tag_7\n      jumpi\n    tag_1:\n      0x00\n      dup1\n      revert\n        /* \"contracts/Comfree.sol\":150:168  string public name */\n    tag_2:\n      callvalue\n      dup1\n      iszero\n      tag_15\n      jumpi\n      0x00\n      dup1\n      revert\n    tag_15:\n      pop\n      tag_16\n      tag_17\n      jump\t// in\n    tag_16:\n      mload(0x40)\n      tag_18\n      swap2\n      swap1\n      tag_19\n      jump\t// in\n    tag_18:\n      mload(0x40)\n      dup1\n      swap2\n      sub\n      swap1\n      return\n        /* \"contracts/Comfree.sol\":3962:4431  function createConditionList(uint _offerId) public {... */\n    tag_3:\n      callvalue\n      dup1\n      iszero\n      tag_20\n      jumpi\n      0x00\n      dup1\n      revert\n    tag_20:\n      pop\n      tag_21\n      0x04\n      dup1\n      calldatasize\n      sub\n      dup2\n      add\n      swap1\n      tag_22\n      swap2\n      swap1\n      tag_23\n      jump\t// in\n    tag_22:\n      tag_24\n      jump\t// in\n    tag_21:\n      stop\n        /* \"contracts/Comfree.sol\":1213:1266  mapping (uint => conditionList) public _conditionList */\n    tag_4:\n      callvalue\n      dup1\n      iszero\n      tag_25\n      jumpi\n      0x00\n      dup1\n      revert\n    tag_25:\n      pop\n      tag_26\n      0x04\n      dup1\n      calldatasize\n      sub\n      dup2\n      add\n      swap1\n      tag_27\n      swap2\n      swap1\n      tag_23\n      jump\t// in\n    tag_27:\n      tag_28\n      jump\t// in\n    tag_26:\n      mload(0x40)\n      tag_29\n      swap5\n      swap4\n      swap3\n      swap2\n      swap1\n      tag_30\n      jump\t// in\n    tag_29:\n      mload(0x40)\n      dup1\n      swap2\n      sub\n      swap1\n      return\n        /* \"contracts/Comfree.sol\":1091:1141  mapping (uint => homeForSale) public _homesForSale */\n    tag_5:\n      callvalue\n      dup1\n      iszero\n      tag_31\n      jumpi\n      0x00\n      dup1\n      revert\n    tag_31:\n      pop\n      tag_32\n      0x04\n      dup1\n      calldatasize\n      sub\n      dup2\n      add\n      swap1\n      tag_33\n      swap2\n      swap1\n      tag_23\n      jump\t// in\n    tag_33:\n      tag_34\n      jump\t// in\n    tag_32:\n      mload(0x40)\n      tag_35\n      swap8\n      swap7\n      swap6\n      swap5\n      swap4\n      swap3\n      swap2\n      swap1\n      tag_36\n      jump\t// in\n    tag_35:\n      mload(0x40)\n      dup1\n      swap2\n      sub\n      swap1\n      return\n        /* \"contracts/Comfree.sol\":1147:1207  mapping (uint => offerContract) public _listOfOfferContracts */\n    tag_6:\n      callvalue\n      dup1\n      iszero\n      tag_37\n      jumpi\n      0x00\n      dup1\n      revert\n    tag_37:\n      pop\n      tag_38\n      0x04\n      dup1\n      calldatasize\n      sub\n      dup2\n      add\n      swap1\n      tag_39\n      swap2\n      swap1\n      tag_23\n      jump\t// in\n    tag_39:\n      tag_40\n      jump\t// in\n    tag_38:\n      mload(0x40)\n      tag_41\n      swap9\n      swap8\n      swap7\n      swap6\n      swap5\n      swap4\n      swap3\n      swap2\n      swap1\n      tag_42\n      jump\t// in\n    tag_41:\n      mload(0x40)\n      dup1\n      swap2\n      sub\n      swap1\n      return\n        /* \"contracts/Comfree.sol\":1791:2432  function addPropertyForSale(address _buyerAddress, address _sellerAddress, string memory imgurl, string memory propertyaddress, uint _ethprice) public  {... */\n    tag_7:\n      callvalue\n      dup1\n      iszero\n      tag_43\n      jumpi\n      0x00\n      dup1\n      revert\n    tag_43:\n      pop\n      tag_44\n      0x04\n      dup1\n      calldatasize\n      sub\n      dup2\n      add\n      swap1\n      tag_45\n      swap2\n      swap1\n      tag_46\n      jump\t// in\n    tag_45:\n      tag_47\n      jump\t// in\n    tag_44:\n      stop\n        /* \"contracts/Comfree.sol\":6263:6877  function getOfferContractDetailsById() public view returns(uint[] memory) {... */\n    tag_8:\n      callvalue\n      dup1\n      iszero\n      tag_48\n      jumpi\n      0x00\n      dup1\n      revert\n    tag_48:\n      pop\n      tag_49\n      tag_50\n      jump\t// in\n    tag_49:\n      mload(0x40)\n      tag_51\n      swap2\n      swap1\n      tag_52\n      jump\t// in\n    tag_51:\n      mload(0x40)\n      dup1\n      swap2\n      sub\n      swap1\n      return\n        /* \"contracts/Comfree.sol\":174:194  string public symbol */\n    tag_9:\n      callvalue\n      dup1\n      iszero\n      tag_53\n      jumpi\n      0x00\n      dup1\n      revert\n    tag_53:\n      pop\n      tag_54\n      tag_55\n      jump\t// in\n    tag_54:\n      mload(0x40)\n      tag_56\n      swap2\n      swap1\n      tag_19\n      jump\t// in\n    tag_56:\n      mload(0x40)\n      dup1\n      swap2\n      sub\n      swap1\n      return\n        /* \"contracts/Comfree.sol\":4446:5363  function createOfferContract(uint _proertyid, address _buyerAddress, address _sellerAddress, string memory _imgurl, uint _offerAmount,bool _accepted) public  {... */\n    tag_10:\n      callvalue\n      dup1\n      iszero\n      tag_57\n      jumpi\n      0x00\n      dup1\n      revert\n    tag_57:\n      pop\n      tag_58\n      0x04\n      dup1\n      calldatasize\n      sub\n      dup2\n      add\n      swap1\n      tag_59\n      swap2\n      swap1\n      tag_60\n      jump\t// in\n    tag_59:\n      tag_61\n      jump\t// in\n    tag_58:\n      stop\n        /* \"contracts/Comfree.sol\":2438:3137  function getHomesForSale() public view returns(uint[] memory) {... */\n    tag_11:\n      callvalue\n      dup1\n      iszero\n      tag_62\n      jumpi\n      0x00\n      dup1\n      revert\n    tag_62:\n      pop\n      tag_63\n      tag_64\n      jump\t// in\n    tag_63:\n      mload(0x40)\n      tag_65\n      swap2\n      swap1\n      tag_52\n      jump\t// in\n    tag_65:\n      mload(0x40)\n      dup1\n      swap2\n      sub\n      swap1\n      return\n        /* \"contracts/Comfree.sol\":5369:6257  function accept(uint _id, bool _value, uint _propertyid) payable public returns(bool) {... */\n    tag_12:\n      tag_66\n      0x04\n      dup1\n      calldatasize\n      sub\n      dup2\n      add\n      swap1\n      tag_67\n      swap2\n      swap1\n      tag_68\n      jump\t// in\n    tag_67:\n      tag_69\n      jump\t// in\n    tag_66:\n      mload(0x40)\n      tag_70\n      swap2\n      swap1\n      tag_71\n      jump\t// in\n    tag_70:\n      mload(0x40)\n      dup1\n      swap2\n      sub\n      swap1\n      return\n        /* \"contracts/Comfree.sol\":3143:3956  function manageConditions(uint _offerId, bool _wallsPainted, bool _CarpetCleaned, bool _WindowsWashed) public {... */\n    tag_13:\n      callvalue\n      dup1\n      iszero\n      tag_72\n      jumpi\n      0x00\n      dup1\n      revert\n    tag_72:\n      pop\n      tag_73\n      0x04\n      dup1\n      calldatasize\n      sub\n      dup2\n      add\n      swap1\n      tag_74\n      swap2\n      swap1\n      tag_75\n      jump\t// in\n    tag_74:\n      tag_76\n      jump\t// in\n    tag_73:\n      stop\n        /* \"contracts/Comfree.sol\":150:168  string public name */\n    tag_17:\n      0x00\n      dup1\n      sload\n      tag_77\n      swap1\n      tag_78\n      jump\t// in\n    tag_77:\n      dup1\n      0x1f\n      add\n      0x20\n      dup1\n      swap2\n      div\n      mul\n      0x20\n      add\n      mload(0x40)\n      swap1\n      dup2\n      add\n      0x40\n      mstore\n      dup1\n      swap3\n      swap2\n      swap1\n      dup2\n      dup2\n      mstore\n      0x20\n      add\n      dup3\n      dup1\n      sload\n      tag_79\n      swap1\n      tag_78\n      jump\t// in\n    tag_79:\n      dup1\n      iszero\n      tag_80\n      jumpi\n      dup1\n      0x1f\n      lt\n      tag_81\n      jumpi\n      0x0100\n      dup1\n      dup4\n      sload\n      div\n      mul\n      dup4\n      mstore\n      swap2\n      0x20\n      add\n      swap2\n      jump(tag_80)\n    tag_81:\n      dup3\n      add\n      swap2\n      swap1\n      0x00\n      mstore\n      keccak256(0x00, 0x20)\n      swap1\n    tag_82:\n      dup2\n      sload\n      dup2\n      mstore\n      swap1\n      0x01\n      add\n      swap1\n      0x20\n      add\n      dup1\n      dup4\n      gt\n      tag_82\n      jumpi\n      dup3\n      swap1\n      sub\n      0x1f\n      and\n      dup3\n      add\n      swap2\n    tag_80:\n      pop\n      pop\n      pop\n      pop\n      pop\n      dup2\n      jump\t// out\n        /* \"contracts/Comfree.sol\":3962:4431  function createConditionList(uint _offerId) public {... */\n    tag_24:\n        /* \"contracts/Comfree.sol\":4023:4038  bool isAccepted */\n      0x00\n        /* \"contracts/Comfree.sol\":4041:4062  _listOfOfferContracts */\n      0x03\n        /* \"contracts/Comfree.sol\":4041:4072  _listOfOfferContracts[_offerId] */\n      0x00\n        /* \"contracts/Comfree.sol\":4063:4071  _offerId */\n      dup4\n        /* \"contracts/Comfree.sol\":4041:4072  _listOfOfferContracts[_offerId] */\n      dup2\n      mstore\n      0x20\n      add\n      swap1\n      dup2\n      mstore\n      0x20\n      add\n      0x00\n      keccak256\n        /* \"contracts/Comfree.sol\":4041:4081  _listOfOfferContracts[_offerId].accepted */\n      0x06\n      add\n      0x00\n      swap1\n      sload\n      swap1\n      0x0100\n      exp\n      swap1\n      div\n      0xff\n      and\n        /* \"contracts/Comfree.sol\":4023:4081  bool isAccepted = _listOfOfferContracts[_offerId].accepted */\n      swap1\n      pop\n        /* \"contracts/Comfree.sol\":4113:4117  true */\n      0x01\n        /* \"contracts/Comfree.sol\":4099:4117  isAccepted == true */\n      iszero\n      iszero\n        /* \"contracts/Comfree.sol\":4099:4109  isAccepted */\n      dup2\n        /* \"contracts/Comfree.sol\":4099:4117  isAccepted == true */\n      iszero\n      iszero\n      eq\n        /* \"contracts/Comfree.sol\":4091:4118  require(isAccepted == true) */\n      tag_84\n      jumpi\n      0x00\n      dup1\n      revert\n    tag_84:\n        /* \"contracts/Comfree.sol\":4168:4173  false */\n      0x00\n        /* \"contracts/Comfree.sol\":4128:4142  _conditionList */\n      0x04\n        /* \"contracts/Comfree.sol\":4128:4152  _conditionList[_offerId] */\n      0x00\n        /* \"contracts/Comfree.sol\":4143:4151  _offerId */\n      dup5\n        /* \"contracts/Comfree.sol\":4128:4152  _conditionList[_offerId] */\n      dup2\n      mstore\n      0x20\n      add\n      swap1\n      dup2\n      mstore\n      0x20\n      add\n      0x00\n      keccak256\n        /* \"contracts/Comfree.sol\":4128:4165  _conditionList[_offerId].conditionMet */\n      0x00\n      add\n      0x00\n        /* \"contracts/Comfree.sol\":4128:4173  _conditionList[_offerId].conditionMet = false */\n      0x0100\n      exp\n      dup2\n      sload\n      dup2\n      0xff\n      mul\n      not\n      and\n      swap1\n      dup4\n      iszero\n      iszero\n      mul\n      or\n      swap1\n      sstore\n      pop\n        /* \"contracts/Comfree.sol\":4223:4228  false */\n      0x00\n        /* \"contracts/Comfree.sol\":4183:4197  _conditionList */\n      0x04\n        /* \"contracts/Comfree.sol\":4183:4207  _conditionList[_offerId] */\n      0x00\n        /* \"contracts/Comfree.sol\":4198:4206  _offerId */\n      dup5\n        /* \"contracts/Comfree.sol\":4183:4207  _conditionList[_offerId] */\n      dup2\n      mstore\n      0x20\n      add\n      swap1\n      dup2\n      mstore\n      0x20\n      add\n      0x00\n      keccak256\n        /* \"contracts/Comfree.sol\":4183:4220  _conditionList[_offerId].WallsPainted */\n      0x00\n      add\n      0x01\n        /* \"contracts/Comfree.sol\":4183:4228  _conditionList[_offerId].WallsPainted = false */\n      0x0100\n      exp\n      dup2\n      sload\n      dup2\n      0xff\n      mul\n      not\n      and\n      swap1\n      dup4\n      iszero\n      iszero\n      mul\n      or\n      swap1\n      sstore\n      pop\n        /* \"contracts/Comfree.sol\":4279:4284  false */\n      0x00\n        /* \"contracts/Comfree.sol\":4238:4252  _conditionList */\n      0x04\n        /* \"contracts/Comfree.sol\":4238:4262  _conditionList[_offerId] */\n      0x00\n        /* \"contracts/Comfree.sol\":4253:4261  _offerId */\n      dup5\n        /* \"contracts/Comfree.sol\":4238:4262  _conditionList[_offerId] */\n      dup2\n      mstore\n      0x20\n      add\n      swap1\n      dup2\n      mstore\n      0x20\n      add\n      0x00\n      keccak256\n        /* \"contracts/Comfree.sol\":4238:4276  _conditionList[_offerId].CarpetCleaned */\n      0x00\n      add\n      0x02\n        /* \"contracts/Comfree.sol\":4238:4284  _conditionList[_offerId].CarpetCleaned = false */\n      0x0100\n      exp\n      dup2\n      sload\n      dup2\n      0xff\n      mul\n      not\n      and\n      swap1\n      dup4\n      iszero\n      iszero\n      mul\n      or\n      swap1\n      sstore\n      pop\n        /* \"contracts/Comfree.sol\":4335:4340  false */\n      0x00\n        /* \"contracts/Comfree.sol\":4294:4308  _conditionList */\n      0x04\n        /* \"contracts/Comfree.sol\":4294:4318  _conditionList[_offerId] */\n      0x00\n        /* \"contracts/Comfree.sol\":4309:4317  _offerId */\n      dup5\n        /* \"contracts/Comfree.sol\":4294:4318  _conditionList[_offerId] */\n      dup2\n      mstore\n      0x20\n      add\n      swap1\n      dup2\n      mstore\n      0x20\n      add\n      0x00\n      keccak256\n        /* \"contracts/Comfree.sol\":4294:4332  _conditionList[_offerId].WindowsWashed */\n      0x00\n      add\n      0x03\n        /* \"contracts/Comfree.sol\":4294:4340  _conditionList[_offerId].WindowsWashed = false */\n      0x0100\n      exp\n      dup2\n      sload\n      dup2\n      0xff\n      mul\n      not\n      and\n      swap1\n      dup4\n      iszero\n      iszero\n      mul\n      or\n      swap1\n      sstore\n      pop\n        /* \"contracts/Comfree.sol\":4356:4424  ConditionListCreate(_offerId, _conditionList[_offerId].conditionMet) */\n      0x0985068d1545f3a3582c605476bc5fe6aaf9acc51845acef22cb74694222ea2e\n        /* \"contracts/Comfree.sol\":4376:4384  _offerId */\n      dup3\n        /* \"contracts/Comfree.sol\":4386:4400  _conditionList */\n      0x04\n        /* \"contracts/Comfree.sol\":4386:4410  _conditionList[_offerId] */\n      0x00\n        /* \"contracts/Comfree.sol\":4401:4409  _offerId */\n      dup6\n        /* \"contracts/Comfree.sol\":4386:4410  _conditionList[_offerId] */\n      dup2\n      mstore\n      0x20\n      add\n      swap1\n      dup2\n      mstore\n      0x20\n      add\n      0x00\n      keccak256\n        /* \"contracts/Comfree.sol\":4386:4423  _conditionList[_offerId].conditionMet */\n      0x00\n      add\n      0x00\n      swap1\n      sload\n      swap1\n      0x0100\n      exp\n      swap1\n      div\n      0xff\n      and\n        /* \"contracts/Comfree.sol\":4356:4424  ConditionListCreate(_offerId, _conditionList[_offerId].conditionMet) */\n      mload(0x40)\n      tag_85\n      swap3\n      swap2\n      swap1\n      tag_86\n      jump\t// in\n    tag_85:\n      mload(0x40)\n      dup1\n      swap2\n      sub\n      swap1\n      log1\n        /* \"contracts/Comfree.sol\":4013:4431  {... */\n      pop\n        /* \"contracts/Comfree.sol\":3962:4431  function createConditionList(uint _offerId) public {... */\n      pop\n      jump\t// out\n        /* \"contracts/Comfree.sol\":1213:1266  mapping (uint => conditionList) public _conditionList */\n    tag_28:\n      mstore(0x20, 0x04)\n      dup1\n      0x00\n      mstore\n      keccak256(0x00, 0x40)\n      0x00\n      swap2\n      pop\n      swap1\n      pop\n      dup1\n      0x00\n      add\n      0x00\n      swap1\n      sload\n      swap1\n      0x0100\n      exp\n      swap1\n      div\n      0xff\n      and\n      swap1\n      dup1\n      0x00\n      add\n      0x01\n      swap1\n      sload\n      swap1\n      0x0100\n      exp\n      swap1\n      div\n      0xff\n      and\n      swap1\n      dup1\n      0x00\n      add\n      0x02\n      swap1\n      sload\n      swap1\n      0x0100\n      exp\n      swap1\n      div\n      0xff\n      and\n      swap1\n      dup1\n      0x00\n      add\n      0x03\n      swap1\n      sload\n      swap1\n      0x0100\n      exp\n      swap1\n      div\n      0xff\n      and\n      swap1\n      pop\n      dup5\n      jump\t// out\n        /* \"contracts/Comfree.sol\":1091:1141  mapping (uint => homeForSale) public _homesForSale */\n    tag_34:\n      mstore(0x20, 0x02)\n      dup1\n      0x00\n      mstore\n      keccak256(0x00, 0x40)\n      0x00\n      swap2\n      pop\n      swap1\n      pop\n      dup1\n      0x00\n      add\n      sload\n      swap1\n      dup1\n      0x01\n      add\n      0x00\n      swap1\n      sload\n      swap1\n      0x0100\n      exp\n      swap1\n      div\n      0xffffffffffffffffffffffffffffffffffffffff\n      and\n      swap1\n      dup1\n      0x02\n      add\n      0x00\n      swap1\n      sload\n      swap1\n      0x0100\n      exp\n      swap1\n      div\n      0xffffffffffffffffffffffffffffffffffffffff\n      and\n      swap1\n      dup1\n      0x03\n      add\n      dup1\n      sload\n      tag_87\n      swap1\n      tag_78\n      jump\t// in\n    tag_87:\n      dup1\n      0x1f\n      add\n      0x20\n      dup1\n      swap2\n      div\n      mul\n      0x20\n      add\n      mload(0x40)\n      swap1\n      dup2\n      add\n      0x40\n      mstore\n      dup1\n      swap3\n      swap2\n      swap1\n      dup2\n      dup2\n      mstore\n      0x20\n      add\n      dup3\n      dup1\n      sload\n      tag_88\n      swap1\n      tag_78\n      jump\t// in\n    tag_88:\n      dup1\n      iszero\n      tag_89\n      jumpi\n      dup1\n      0x1f\n      lt\n      tag_90\n      jumpi\n      0x0100\n      dup1\n      dup4\n      sload\n      div\n      mul\n      dup4\n      mstore\n      swap2\n      0x20\n      add\n      swap2\n      jump(tag_89)\n    tag_90:\n      dup3\n      add\n      swap2\n      swap1\n      0x00\n      mstore\n      keccak256(0x00, 0x20)\n      swap1\n    tag_91:\n      dup2\n      sload\n      dup2\n      mstore\n      swap1\n      0x01\n      add\n      swap1\n      0x20\n      add\n      dup1\n      dup4\n      gt\n      tag_91\n      jumpi\n      dup3\n      swap1\n      sub\n      0x1f\n      and\n      dup3\n      add\n      swap2\n    tag_89:\n      pop\n      pop\n      pop\n      pop\n      pop\n      swap1\n      dup1\n      0x04\n      add\n      dup1\n      sload\n      tag_92\n      swap1\n      tag_78\n      jump\t// in\n    tag_92:\n      dup1\n      0x1f\n      add\n      0x20\n      dup1\n      swap2\n      div\n      mul\n      0x20\n      add\n      mload(0x40)\n      swap1\n      dup2\n      add\n      0x40\n      mstore\n      dup1\n      swap3\n      swap2\n      swap1\n      dup2\n      dup2\n      mstore\n      0x20\n      add\n      dup3\n      dup1\n      sload\n      tag_93\n      swap1\n      tag_78\n      jump\t// in\n    tag_93:\n      dup1\n      iszero\n      tag_94\n      jumpi\n      dup1\n      0x1f\n      lt\n      tag_95\n      jumpi\n      0x0100\n      dup1\n      dup4\n      sload\n      div\n      mul\n      dup4\n      mstore\n      swap2\n      0x20\n      add\n      swap2\n      jump(tag_94)\n    tag_95:\n      dup3\n      add\n      swap2\n      swap1\n      0x00\n      mstore\n      keccak256(0x00, 0x20)\n      swap1\n    tag_96:\n      dup2\n      sload\n      dup2\n      mstore\n      swap1\n      0x01\n      add\n      swap1\n      0x20\n      add\n      dup1\n      dup4\n      gt\n      tag_96\n      jumpi\n      dup3\n      swap1\n      sub\n      0x1f\n      and\n      dup3\n      add\n      swap2\n    tag_94:\n      pop\n      pop\n      pop\n      pop\n      pop\n      swap1\n      dup1\n      0x05\n      add\n      sload\n      swap1\n      dup1\n      0x06\n      add\n      0x00\n      swap1\n      sload\n      swap1\n      0x0100\n      exp\n      swap1\n      div\n      0xff\n      and\n      swap1\n      pop\n      dup8\n      jump\t// out\n        /* \"contracts/Comfree.sol\":1147:1207  mapping (uint => offerContract) public _listOfOfferContracts */\n    tag_40:\n      mstore(0x20, 0x03)\n      dup1\n      0x00\n      mstore\n      keccak256(0x00, 0x40)\n      0x00\n      swap2\n      pop\n      swap1\n      pop\n      dup1\n      0x00\n      add\n      sload\n      swap1\n      dup1\n      0x01\n      add\n      sload\n      swap1\n      dup1\n      0x02\n      add\n      0x00\n      swap1\n      sload\n      swap1\n      0x0100\n      exp\n      swap1\n      div\n      0xffffffffffffffffffffffffffffffffffffffff\n      and\n      swap1\n      dup1\n      0x03\n      add\n      0x00\n      swap1\n      sload\n      swap1\n      0x0100\n      exp\n      swap1\n      div\n      0xffffffffffffffffffffffffffffffffffffffff\n      and\n      swap1\n      dup1\n      0x04\n      add\n      dup1\n      sload\n      tag_97\n      swap1\n      tag_78\n      jump\t// in\n    tag_97:\n      dup1\n      0x1f\n      add\n      0x20\n      dup1\n      swap2\n      div\n      mul\n      0x20\n      add\n      mload(0x40)\n      swap1\n      dup2\n      add\n      0x40\n      mstore\n      dup1\n      swap3\n      swap2\n      swap1\n      dup2\n      dup2\n      mstore\n      0x20\n      add\n      dup3\n      dup1\n      sload\n      tag_98\n      swap1\n      tag_78\n      jump\t// in\n    tag_98:\n      dup1\n      iszero\n      tag_99\n      jumpi\n      dup1\n      0x1f\n      lt\n      tag_100\n      jumpi\n      0x0100\n      dup1\n      dup4\n      sload\n      div\n      mul\n      dup4\n      mstore\n      swap2\n      0x20\n      add\n      swap2\n      jump(tag_99)\n    tag_100:\n      dup3\n      add\n      swap2\n      swap1\n      0x00\n      mstore\n      keccak256(0x00, 0x20)\n      swap1\n    tag_101:\n      dup2\n      sload\n      dup2\n      mstore\n      swap1\n      0x01\n      add\n      swap1\n      0x20\n      add\n      dup1\n      dup4\n      gt\n      tag_101\n      jumpi\n      dup3\n      swap1\n      sub\n      0x1f\n      and\n      dup3\n      add\n      swap2\n    tag_99:\n      pop\n      pop\n      pop\n      pop\n      pop\n      swap1\n      dup1\n      0x05\n      add\n      sload\n      swap1\n      dup1\n      0x06\n      add\n      0x00\n      swap1\n      sload\n      swap1\n      0x0100\n      exp\n      swap1\n      div\n      0xff\n      and\n      swap1\n      dup1\n      0x07\n      add\n      sload\n      swap1\n      pop\n      dup9\n      jump\t// out\n        /* \"contracts/Comfree.sol\":1791:2432  function addPropertyForSale(address _buyerAddress, address _sellerAddress, string memory imgurl, string memory propertyaddress, uint _ethprice) public  {... */\n    tag_47:\n        /* \"contracts/Comfree.sol\":1954:1968  listingCounter */\n      0x06\n      0x00\n        /* \"contracts/Comfree.sol\":1954:1970  listingCounter++ */\n      dup2\n      sload\n      dup1\n      swap3\n      swap2\n      swap1\n      tag_103\n      swap1\n      tag_104\n      jump\t// in\n    tag_103:\n      swap2\n      swap1\n      pop\n      sstore\n      pop\n        /* \"contracts/Comfree.sol\":2019:2033  listingCounter */\n      sload(0x06)\n        /* \"contracts/Comfree.sol\":1984:1997  _homesForSale */\n      0x02\n        /* \"contracts/Comfree.sol\":1984:2013  _homesForSale[listingCounter] */\n      0x00\n        /* \"contracts/Comfree.sol\":1998:2012  listingCounter */\n      sload(0x06)\n        /* \"contracts/Comfree.sol\":1984:2013  _homesForSale[listingCounter] */\n      dup2\n      mstore\n      0x20\n      add\n      swap1\n      dup2\n      mstore\n      0x20\n      add\n      0x00\n      keccak256\n        /* \"contracts/Comfree.sol\":1984:2016  _homesForSale[listingCounter].id */\n      0x00\n      add\n        /* \"contracts/Comfree.sol\":1984:2033  _homesForSale[listingCounter].id = listingCounter */\n      dup2\n      swap1\n      sstore\n      pop\n        /* \"contracts/Comfree.sol\":2086:2100  _sellerAddress */\n      dup4\n        /* \"contracts/Comfree.sol\":2047:2060  _homesForSale */\n      0x02\n        /* \"contracts/Comfree.sol\":2047:2076  _homesForSale[listingCounter] */\n      0x00\n        /* \"contracts/Comfree.sol\":2061:2075  listingCounter */\n      sload(0x06)\n        /* \"contracts/Comfree.sol\":2047:2076  _homesForSale[listingCounter] */\n      dup2\n      mstore\n      0x20\n      add\n      swap1\n      dup2\n      mstore\n      0x20\n      add\n      0x00\n      keccak256\n        /* \"contracts/Comfree.sol\":2047:2083  _homesForSale[listingCounter].seller */\n      0x01\n      add\n      0x00\n        /* \"contracts/Comfree.sol\":2047:2100  _homesForSale[listingCounter].seller = _sellerAddress */\n      0x0100\n      exp\n      dup2\n      sload\n      dup2\n      0xffffffffffffffffffffffffffffffffffffffff\n      mul\n      not\n      and\n      swap1\n      dup4\n      0xffffffffffffffffffffffffffffffffffffffff\n      and\n      mul\n      or\n      swap1\n      sstore\n      pop\n        /* \"contracts/Comfree.sol\":2152:2165  _buyerAddress */\n      dup5\n        /* \"contracts/Comfree.sol\":2114:2127  _homesForSale */\n      0x02\n        /* \"contracts/Comfree.sol\":2114:2143  _homesForSale[listingCounter] */\n      0x00\n        /* \"contracts/Comfree.sol\":2128:2142  listingCounter */\n      sload(0x06)\n        /* \"contracts/Comfree.sol\":2114:2143  _homesForSale[listingCounter] */\n      dup2\n      mstore\n      0x20\n      add\n      swap1\n      dup2\n      mstore\n      0x20\n      add\n      0x00\n      keccak256\n        /* \"contracts/Comfree.sol\":2114:2149  _homesForSale[listingCounter].buyer */\n      0x02\n      add\n      0x00\n        /* \"contracts/Comfree.sol\":2114:2165  _homesForSale[listingCounter].buyer = _buyerAddress */\n      0x0100\n      exp\n      dup2\n      sload\n      dup2\n      0xffffffffffffffffffffffffffffffffffffffff\n      mul\n      not\n      and\n      swap1\n      dup4\n      0xffffffffffffffffffffffffffffffffffffffff\n      and\n      mul\n      or\n      swap1\n      sstore\n      pop\n        /* \"contracts/Comfree.sol\":2218:2224  imgurl */\n      dup3\n        /* \"contracts/Comfree.sol\":2179:2192  _homesForSale */\n      0x02\n        /* \"contracts/Comfree.sol\":2179:2208  _homesForSale[listingCounter] */\n      0x00\n        /* \"contracts/Comfree.sol\":2193:2207  listingCounter */\n      sload(0x06)\n        /* \"contracts/Comfree.sol\":2179:2208  _homesForSale[listingCounter] */\n      dup2\n      mstore\n      0x20\n      add\n      swap1\n      dup2\n      mstore\n      0x20\n      add\n      0x00\n      keccak256\n        /* \"contracts/Comfree.sol\":2179:2215  _homesForSale[listingCounter].imgurl */\n      0x03\n      add\n        /* \"contracts/Comfree.sol\":2179:2224  _homesForSale[listingCounter].imgurl = imgurl */\n      swap1\n      dup2\n      tag_105\n      swap2\n      swap1\n      tag_106\n      jump\t// in\n    tag_105:\n      pop\n        /* \"contracts/Comfree.sol\":2286:2301  propertyaddress */\n      dup2\n        /* \"contracts/Comfree.sol\":2238:2251  _homesForSale */\n      0x02\n        /* \"contracts/Comfree.sol\":2238:2267  _homesForSale[listingCounter] */\n      0x00\n        /* \"contracts/Comfree.sol\":2252:2266  listingCounter */\n      sload(0x06)\n        /* \"contracts/Comfree.sol\":2238:2267  _homesForSale[listingCounter] */\n      dup2\n      mstore\n      0x20\n      add\n      swap1\n      dup2\n      mstore\n      0x20\n      add\n      0x00\n      keccak256\n        /* \"contracts/Comfree.sol\":2238:2283  _homesForSale[listingCounter].propertyaddress */\n      0x04\n      add\n        /* \"contracts/Comfree.sol\":2238:2301  _homesForSale[listingCounter].propertyaddress = propertyaddress */\n      swap1\n      dup2\n      tag_107\n      swap2\n      swap1\n      tag_106\n      jump\t// in\n    tag_107:\n      pop\n        /* \"contracts/Comfree.sol\":2356:2365  _ethprice */\n      dup1\n        /* \"contracts/Comfree.sol\":2315:2328  _homesForSale */\n      0x02\n        /* \"contracts/Comfree.sol\":2315:2344  _homesForSale[listingCounter] */\n      0x00\n        /* \"contracts/Comfree.sol\":2329:2343  listingCounter */\n      sload(0x06)\n        /* \"contracts/Comfree.sol\":2315:2344  _homesForSale[listingCounter] */\n      dup2\n      mstore\n      0x20\n      add\n      swap1\n      dup2\n      mstore\n      0x20\n      add\n      0x00\n      keccak256\n        /* \"contracts/Comfree.sol\":2315:2353  _homesForSale[listingCounter].ethprice */\n      0x05\n      add\n        /* \"contracts/Comfree.sol\":2315:2365  _homesForSale[listingCounter].ethprice = _ethprice */\n      dup2\n      swap1\n      sstore\n      pop\n        /* \"contracts/Comfree.sol\":2420:2425  false */\n      0x00\n        /* \"contracts/Comfree.sol\":2379:2392  _homesForSale */\n      0x02\n        /* \"contracts/Comfree.sol\":2379:2408  _homesForSale[listingCounter] */\n      0x00\n        /* \"contracts/Comfree.sol\":2393:2407  listingCounter */\n      sload(0x06)\n        /* \"contracts/Comfree.sol\":2379:2408  _homesForSale[listingCounter] */\n      dup2\n      mstore\n      0x20\n      add\n      swap1\n      dup2\n      mstore\n      0x20\n      add\n      0x00\n      keccak256\n        /* \"contracts/Comfree.sol\":2379:2417  _homesForSale[listingCounter].inescrow */\n      0x06\n      add\n      0x00\n        /* \"contracts/Comfree.sol\":2379:2425  _homesForSale[listingCounter].inescrow = false */\n      0x0100\n      exp\n      dup2\n      sload\n      dup2\n      0xff\n      mul\n      not\n      and\n      swap1\n      dup4\n      iszero\n      iszero\n      mul\n      or\n      swap1\n      sstore\n      pop\n        /* \"contracts/Comfree.sol\":1791:2432  function addPropertyForSale(address _buyerAddress, address _sellerAddress, string memory imgurl, string memory propertyaddress, uint _ethprice) public  {... */\n      pop\n      pop\n      pop\n      pop\n      pop\n      jump\t// out\n        /* \"contracts/Comfree.sol\":6263:6877  function getOfferContractDetailsById() public view returns(uint[] memory) {... */\n    tag_50:\n        /* \"contracts/Comfree.sol\":6322:6335  uint[] memory */\n      0x60\n        /* \"contracts/Comfree.sol\":6347:6369  uint[] memory offerIds */\n      0x00\n        /* \"contracts/Comfree.sol\":6383:6403  offerContractCounter */\n      sload(0x08)\n        /* \"contracts/Comfree.sol\":6372:6404  new uint[](offerContractCounter) */\n      0xffffffffffffffff\n      dup2\n      gt\n      iszero\n      tag_109\n      jumpi\n      tag_110\n      tag_111\n      jump\t// in\n    tag_110:\n    tag_109:\n      mload(0x40)\n      swap1\n      dup1\n      dup3\n      mstore\n      dup1\n      0x20\n      mul\n      0x20\n      add\n      dup3\n      add\n      0x40\n      mstore\n      dup1\n      iszero\n      tag_112\n      jumpi\n      dup2\n      0x20\n      add\n      0x20\n      dup3\n      mul\n      dup1\n      calldatasize\n      dup4\n      calldatacopy\n      dup1\n      dup3\n      add\n      swap2\n      pop\n      pop\n      swap1\n      pop\n    tag_112:\n      pop\n        /* \"contracts/Comfree.sol\":6347:6404  uint[] memory offerIds = new uint[](offerContractCounter) */\n      swap1\n      pop\n        /* \"contracts/Comfree.sol\":6415:6445  uint numberOfPropertiesForSale */\n      0x00\n        /* \"contracts/Comfree.sol\":6481:6487  uint i */\n      dup1\n        /* \"contracts/Comfree.sol\":6490:6491  1 */\n      0x01\n        /* \"contracts/Comfree.sol\":6481:6491  uint i = 1 */\n      swap1\n      pop\n        /* \"contracts/Comfree.sol\":6477:6665  for(uint i = 1; i <= offerContractCounter; i++) {... */\n    tag_113:\n        /* \"contracts/Comfree.sol\":6498:6518  offerContractCounter */\n      sload(0x08)\n        /* \"contracts/Comfree.sol\":6493:6494  i */\n      dup2\n        /* \"contracts/Comfree.sol\":6493:6518  i <= offerContractCounter */\n      gt\n        /* \"contracts/Comfree.sol\":6477:6665  for(uint i = 1; i <= offerContractCounter; i++) {... */\n      tag_114\n      jumpi\n        /* \"contracts/Comfree.sol\":6582:6603  _listOfOfferContracts */\n      0x03\n        /* \"contracts/Comfree.sol\":6582:6606  _listOfOfferContracts[i] */\n      0x00\n        /* \"contracts/Comfree.sol\":6604:6605  i */\n      dup3\n        /* \"contracts/Comfree.sol\":6582:6606  _listOfOfferContracts[i] */\n      dup2\n      mstore\n      0x20\n      add\n      swap1\n      dup2\n      mstore\n      0x20\n      add\n      0x00\n      keccak256\n        /* \"contracts/Comfree.sol\":6582:6609  _listOfOfferContracts[i].id */\n      0x00\n      add\n      sload\n        /* \"contracts/Comfree.sol\":6543:6551  offerIds */\n      dup4\n        /* \"contracts/Comfree.sol\":6552:6577  numberOfPropertiesForSale */\n      dup4\n        /* \"contracts/Comfree.sol\":6543:6578  offerIds[numberOfPropertiesForSale] */\n      dup2\n      mload\n      dup2\n      lt\n      tag_116\n      jumpi\n      tag_117\n      tag_118\n      jump\t// in\n    tag_117:\n    tag_116:\n      0x20\n      mul\n      0x20\n      add\n      add\n        /* \"contracts/Comfree.sol\":6543:6609  offerIds[numberOfPropertiesForSale] =  _listOfOfferContracts[i].id */\n      dup2\n      dup2\n      mstore\n      pop\n      pop\n        /* \"contracts/Comfree.sol\":6627:6654  numberOfPropertiesForSale++ */\n      dup2\n      dup1\n      tag_119\n      swap1\n      tag_104\n      jump\t// in\n    tag_119:\n      swap3\n      pop\n      pop\n        /* \"contracts/Comfree.sol\":6520:6523  i++ */\n      dup1\n      dup1\n      tag_120\n      swap1\n      tag_104\n      jump\t// in\n    tag_120:\n      swap2\n      pop\n      pop\n        /* \"contracts/Comfree.sol\":6477:6665  for(uint i = 1; i <= offerContractCounter; i++) {... */\n      jump(tag_113)\n    tag_114:\n      pop\n        /* \"contracts/Comfree.sol\":6675:6696  uint[] memory forSale */\n      0x00\n        /* \"contracts/Comfree.sol\":6710:6735  numberOfPropertiesForSale */\n      dup2\n        /* \"contracts/Comfree.sol\":6699:6736  new uint[](numberOfPropertiesForSale) */\n      0xffffffffffffffff\n      dup2\n      gt\n      iszero\n      tag_121\n      jumpi\n      tag_122\n      tag_111\n      jump\t// in\n    tag_122:\n    tag_121:\n      mload(0x40)\n      swap1\n      dup1\n      dup3\n      mstore\n      dup1\n      0x20\n      mul\n      0x20\n      add\n      dup3\n      add\n      0x40\n      mstore\n      dup1\n      iszero\n      tag_123\n      jumpi\n      dup2\n      0x20\n      add\n      0x20\n      dup3\n      mul\n      dup1\n      calldatasize\n      dup4\n      calldatacopy\n      dup1\n      dup3\n      add\n      swap2\n      pop\n      pop\n      swap1\n      pop\n    tag_123:\n      pop\n        /* \"contracts/Comfree.sol\":6675:6736  uint[] memory forSale = new uint[](numberOfPropertiesForSale) */\n      swap1\n      pop\n        /* \"contracts/Comfree.sol\":6750:6756  uint j */\n      0x00\n        /* \"contracts/Comfree.sol\":6746:6847  for(uint j = 0; j < numberOfPropertiesForSale; j++) {... */\n    tag_124:\n        /* \"contracts/Comfree.sol\":6766:6791  numberOfPropertiesForSale */\n      dup3\n        /* \"contracts/Comfree.sol\":6762:6763  j */\n      dup2\n        /* \"contracts/Comfree.sol\":6762:6791  j < numberOfPropertiesForSale */\n      lt\n        /* \"contracts/Comfree.sol\":6746:6847  for(uint j = 0; j < numberOfPropertiesForSale; j++) {... */\n      iszero\n      tag_125\n      jumpi\n        /* \"contracts/Comfree.sol\":6825:6833  offerIds */\n      dup4\n        /* \"contracts/Comfree.sol\":6834:6835  j */\n      dup2\n        /* \"contracts/Comfree.sol\":6825:6836  offerIds[j] */\n      dup2\n      mload\n      dup2\n      lt\n      tag_127\n      jumpi\n      tag_128\n      tag_118\n      jump\t// in\n    tag_128:\n    tag_127:\n      0x20\n      mul\n      0x20\n      add\n      add\n      mload\n        /* \"contracts/Comfree.sol\":6812:6819  forSale */\n      dup3\n        /* \"contracts/Comfree.sol\":6820:6821  j */\n      dup3\n        /* \"contracts/Comfree.sol\":6812:6822  forSale[j] */\n      dup2\n      mload\n      dup2\n      lt\n      tag_129\n      jumpi\n      tag_130\n      tag_118\n      jump\t// in\n    tag_130:\n    tag_129:\n      0x20\n      mul\n      0x20\n      add\n      add\n        /* \"contracts/Comfree.sol\":6812:6836  forSale[j] = offerIds[j] */\n      dup2\n      dup2\n      mstore\n      pop\n      pop\n        /* \"contracts/Comfree.sol\":6793:6796  j++ */\n      dup1\n      dup1\n      tag_131\n      swap1\n      tag_104\n      jump\t// in\n    tag_131:\n      swap2\n      pop\n      pop\n        /* \"contracts/Comfree.sol\":6746:6847  for(uint j = 0; j < numberOfPropertiesForSale; j++) {... */\n      jump(tag_124)\n    tag_125:\n      pop\n        /* \"contracts/Comfree.sol\":6863:6870  forSale */\n      dup1\n        /* \"contracts/Comfree.sol\":6856:6870  return forSale */\n      swap4\n      pop\n      pop\n      pop\n      pop\n        /* \"contracts/Comfree.sol\":6263:6877  function getOfferContractDetailsById() public view returns(uint[] memory) {... */\n      swap1\n      jump\t// out\n        /* \"contracts/Comfree.sol\":174:194  string public symbol */\n    tag_55:\n      0x01\n      dup1\n      sload\n      tag_132\n      swap1\n      tag_78\n      jump\t// in\n    tag_132:\n      dup1\n      0x1f\n      add\n      0x20\n      dup1\n      swap2\n      div\n      mul\n      0x20\n      add\n      mload(0x40)\n      swap1\n      dup2\n      add\n      0x40\n      mstore\n      dup1\n      swap3\n      swap2\n      swap1\n      dup2\n      dup2\n      mstore\n      0x20\n      add\n      dup3\n      dup1\n      sload\n      tag_133\n      swap1\n      tag_78\n      jump\t// in\n    tag_133:\n      dup1\n      iszero\n      tag_134\n      jumpi\n      dup1\n      0x1f\n      lt\n      tag_135\n      jumpi\n      0x0100\n      dup1\n      dup4\n      sload\n      div\n      mul\n      dup4\n      mstore\n      swap2\n      0x20\n      add\n      swap2\n      jump(tag_134)\n    tag_135:\n      dup3\n      add\n      swap2\n      swap1\n      0x00\n      mstore\n      keccak256(0x00, 0x20)\n      swap1\n    tag_136:\n      dup2\n      sload\n      dup2\n      mstore\n      swap1\n      0x01\n      add\n      swap1\n      0x20\n      add\n      dup1\n      dup4\n      gt\n      tag_136\n      jumpi\n      dup3\n      swap1\n      sub\n      0x1f\n      and\n      dup3\n      add\n      swap2\n    tag_134:\n      pop\n      pop\n      pop\n      pop\n      pop\n      dup2\n      jump\t// out\n        /* \"contracts/Comfree.sol\":4446:5363  function createOfferContract(uint _proertyid, address _buyerAddress, address _sellerAddress, string memory _imgurl, uint _offerAmount,bool _accepted) public  {... */\n    tag_61:\n        /* \"contracts/Comfree.sol\":4636:4650  _sellerAddress */\n      dup4\n        /* \"contracts/Comfree.sol\":4622:4650  msg.sender != _sellerAddress */\n      0xffffffffffffffffffffffffffffffffffffffff\n      and\n        /* \"contracts/Comfree.sol\":4622:4632  msg.sender */\n      caller\n        /* \"contracts/Comfree.sol\":4622:4650  msg.sender != _sellerAddress */\n      0xffffffffffffffffffffffffffffffffffffffff\n      and\n      sub\n        /* \"contracts/Comfree.sol\":4614:4651  require(msg.sender != _sellerAddress) */\n      tag_138\n      jumpi\n      0x00\n      dup1\n      revert\n    tag_138:\n        /* \"contracts/Comfree.sol\":4661:4681  offerContractCounter */\n      0x08\n      0x00\n        /* \"contracts/Comfree.sol\":4661:4683  offerContractCounter++ */\n      dup2\n      sload\n      dup1\n      swap3\n      swap2\n      swap1\n      tag_139\n      swap1\n      tag_104\n      jump\t// in\n    tag_139:\n      swap2\n      swap1\n      pop\n      sstore\n      pop\n        /* \"contracts/Comfree.sol\":4746:4766  offerContractCounter */\n      sload(0x08)\n        /* \"contracts/Comfree.sol\":4697:4718  _listOfOfferContracts */\n      0x03\n        /* \"contracts/Comfree.sol\":4697:4740  _listOfOfferContracts[offerContractCounter] */\n      0x00\n        /* \"contracts/Comfree.sol\":4719:4739  offerContractCounter */\n      sload(0x08)\n        /* \"contracts/Comfree.sol\":4697:4740  _listOfOfferContracts[offerContractCounter] */\n      dup2\n      mstore\n      0x20\n      add\n      swap1\n      dup2\n      mstore\n      0x20\n      add\n      0x00\n      keccak256\n        /* \"contracts/Comfree.sol\":4697:4743  _listOfOfferContracts[offerContractCounter].id */\n      0x00\n      add\n        /* \"contracts/Comfree.sol\":4697:4766  _listOfOfferContracts[offerContractCounter].id = offerContractCounter */\n      dup2\n      swap1\n      sstore\n      pop\n        /* \"contracts/Comfree.sol\":4837:4847  _proertyid */\n      dup6\n        /* \"contracts/Comfree.sol\":4780:4801  _listOfOfferContracts */\n      0x03\n        /* \"contracts/Comfree.sol\":4780:4823  _listOfOfferContracts[offerContractCounter] */\n      0x00\n        /* \"contracts/Comfree.sol\":4802:4822  offerContractCounter */\n      sload(0x08)\n        /* \"contracts/Comfree.sol\":4780:4823  _listOfOfferContracts[offerContractCounter] */\n      dup2\n      mstore\n      0x20\n      add\n      swap1\n      dup2\n      mstore\n      0x20\n      add\n      0x00\n      keccak256\n        /* \"contracts/Comfree.sol\":4780:4834  _listOfOfferContracts[offerContractCounter].propertyid */\n      0x01\n      add\n        /* \"contracts/Comfree.sol\":4780:4847  _listOfOfferContracts[offerContractCounter].propertyid = _proertyid */\n      dup2\n      swap1\n      sstore\n      pop\n        /* \"contracts/Comfree.sol\":4920:4933  _buyerAddress */\n      dup5\n        /* \"contracts/Comfree.sol\":4861:4882  _listOfOfferContracts */\n      0x03\n        /* \"contracts/Comfree.sol\":4861:4904  _listOfOfferContracts[offerContractCounter] */\n      0x00\n        /* \"contracts/Comfree.sol\":4883:4903  offerContractCounter */\n      sload(0x08)\n        /* \"contracts/Comfree.sol\":4861:4904  _listOfOfferContracts[offerContractCounter] */\n      dup2\n      mstore\n      0x20\n      add\n      swap1\n      dup2\n      mstore\n      0x20\n      add\n      0x00\n      keccak256\n        /* \"contracts/Comfree.sol\":4861:4917  _listOfOfferContracts[offerContractCounter].buyerAddress */\n      0x02\n      add\n      0x00\n        /* \"contracts/Comfree.sol\":4861:4933  _listOfOfferContracts[offerContractCounter].buyerAddress = _buyerAddress */\n      0x0100\n      exp\n      dup2\n      sload\n      dup2\n      0xffffffffffffffffffffffffffffffffffffffff\n      mul\n      not\n      and\n      swap1\n      dup4\n      0xffffffffffffffffffffffffffffffffffffffff\n      and\n      mul\n      or\n      swap1\n      sstore\n      pop\n        /* \"contracts/Comfree.sol\":5007:5021  _sellerAddress */\n      dup4\n        /* \"contracts/Comfree.sol\":4947:4968  _listOfOfferContracts */\n      0x03\n        /* \"contracts/Comfree.sol\":4947:4990  _listOfOfferContracts[offerContractCounter] */\n      0x00\n        /* \"contracts/Comfree.sol\":4969:4989  offerContractCounter */\n      sload(0x08)\n        /* \"contracts/Comfree.sol\":4947:4990  _listOfOfferContracts[offerContractCounter] */\n      dup2\n      mstore\n      0x20\n      add\n      swap1\n      dup2\n      mstore\n      0x20\n      add\n      0x00\n      keccak256\n        /* \"contracts/Comfree.sol\":4947:5004  _listOfOfferContracts[offerContractCounter].sellerAddress */\n      0x03\n      add\n      0x00\n        /* \"contracts/Comfree.sol\":4947:5021  _listOfOfferContracts[offerContractCounter].sellerAddress = _sellerAddress */\n      0x0100\n      exp\n      dup2\n      sload\n      dup2\n      0xffffffffffffffffffffffffffffffffffffffff\n      mul\n      not\n      and\n      swap1\n      dup4\n      0xffffffffffffffffffffffffffffffffffffffff\n      and\n      mul\n      or\n      swap1\n      sstore\n      pop\n        /* \"contracts/Comfree.sol\":5088:5095  _imgurl */\n      dup3\n        /* \"contracts/Comfree.sol\":5035:5056  _listOfOfferContracts */\n      0x03\n        /* \"contracts/Comfree.sol\":5035:5078  _listOfOfferContracts[offerContractCounter] */\n      0x00\n        /* \"contracts/Comfree.sol\":5057:5077  offerContractCounter */\n      sload(0x08)\n        /* \"contracts/Comfree.sol\":5035:5078  _listOfOfferContracts[offerContractCounter] */\n      dup2\n      mstore\n      0x20\n      add\n      swap1\n      dup2\n      mstore\n      0x20\n      add\n      0x00\n      keccak256\n        /* \"contracts/Comfree.sol\":5035:5085  _listOfOfferContracts[offerContractCounter].imgurl */\n      0x04\n      add\n        /* \"contracts/Comfree.sol\":5035:5095  _listOfOfferContracts[offerContractCounter].imgurl = _imgurl */\n      swap1\n      dup2\n      tag_140\n      swap2\n      swap1\n      tag_106\n      jump\t// in\n    tag_140:\n      pop\n        /* \"contracts/Comfree.sol\":5167:5179  _offerAmount */\n      dup2\n        /* \"contracts/Comfree.sol\":5109:5130  _listOfOfferContracts */\n      0x03\n        /* \"contracts/Comfree.sol\":5109:5152  _listOfOfferContracts[offerContractCounter] */\n      0x00\n        /* \"contracts/Comfree.sol\":5131:5151  offerContractCounter */\n      sload(0x08)\n        /* \"contracts/Comfree.sol\":5109:5152  _listOfOfferContracts[offerContractCounter] */\n      dup2\n      mstore\n      0x20\n      add\n      swap1\n      dup2\n      mstore\n      0x20\n      add\n      0x00\n      keccak256\n        /* \"contracts/Comfree.sol\":5109:5164  _listOfOfferContracts[offerContractCounter].offerAmount */\n      0x05\n      add\n        /* \"contracts/Comfree.sol\":5109:5179  _listOfOfferContracts[offerContractCounter].offerAmount = _offerAmount */\n      dup2\n      swap1\n      sstore\n      pop\n        /* \"contracts/Comfree.sol\":5248:5257  _accepted */\n      dup1\n        /* \"contracts/Comfree.sol\":5193:5214  _listOfOfferContracts */\n      0x03\n        /* \"contracts/Comfree.sol\":5193:5236  _listOfOfferContracts[offerContractCounter] */\n      0x00\n        /* \"contracts/Comfree.sol\":5215:5235  offerContractCounter */\n      sload(0x08)\n        /* \"contracts/Comfree.sol\":5193:5236  _listOfOfferContracts[offerContractCounter] */\n      dup2\n      mstore\n      0x20\n      add\n      swap1\n      dup2\n      mstore\n      0x20\n      add\n      0x00\n      keccak256\n        /* \"contracts/Comfree.sol\":5193:5245  _listOfOfferContracts[offerContractCounter].accepted */\n      0x06\n      add\n      0x00\n        /* \"contracts/Comfree.sol\":5193:5257  _listOfOfferContracts[offerContractCounter].accepted = _accepted */\n      0x0100\n      exp\n      dup2\n      sload\n      dup2\n      0xff\n      mul\n      not\n      and\n      swap1\n      dup4\n      iszero\n      iszero\n      mul\n      or\n      swap1\n      sstore\n      pop\n        /* \"contracts/Comfree.sol\":5326:5340  _sellerAddress */\n      dup4\n        /* \"contracts/Comfree.sol\":5276:5355  OfferCreated(offerContractCounter, _buyerAddress, _sellerAddress, _offerAmount) */\n      0xffffffffffffffffffffffffffffffffffffffff\n      and\n        /* \"contracts/Comfree.sol\":5311:5324  _buyerAddress */\n      dup6\n        /* \"contracts/Comfree.sol\":5276:5355  OfferCreated(offerContractCounter, _buyerAddress, _sellerAddress, _offerAmount) */\n      0xffffffffffffffffffffffffffffffffffffffff\n      and\n      0xd7717a251aa6b58c031ecb17600f5fd443e3e40f6689d9c3ef687ce7f4b4e616\n        /* \"contracts/Comfree.sol\":5289:5309  offerContractCounter */\n      sload(0x08)\n        /* \"contracts/Comfree.sol\":5342:5354  _offerAmount */\n      dup6\n        /* \"contracts/Comfree.sol\":5276:5355  OfferCreated(offerContractCounter, _buyerAddress, _sellerAddress, _offerAmount) */\n      mload(0x40)\n      tag_141\n      swap3\n      swap2\n      swap1\n      tag_142\n      jump\t// in\n    tag_141:\n      mload(0x40)\n      dup1\n      swap2\n      sub\n      swap1\n      log3\n        /* \"contracts/Comfree.sol\":4446:5363  function createOfferContract(uint _proertyid, address _buyerAddress, address _sellerAddress, string memory _imgurl, uint _offerAmount,bool _accepted) public  {... */\n      pop\n      pop\n      pop\n      pop\n      pop\n      pop\n      jump\t// out\n        /* \"contracts/Comfree.sol\":2438:3137  function getHomesForSale() public view returns(uint[] memory) {... */\n    tag_64:\n        /* \"contracts/Comfree.sol\":2485:2498  uint[] memory */\n      0x60\n        /* \"contracts/Comfree.sol\":2510:2527  uint[] memory Ids */\n      0x00\n        /* \"contracts/Comfree.sol\":2541:2555  listingCounter */\n      sload(0x06)\n        /* \"contracts/Comfree.sol\":2530:2556  new uint[](listingCounter) */\n      0xffffffffffffffff\n      dup2\n      gt\n      iszero\n      tag_144\n      jumpi\n      tag_145\n      tag_111\n      jump\t// in\n    tag_145:\n    tag_144:\n      mload(0x40)\n      swap1\n      dup1\n      dup3\n      mstore\n      dup1\n      0x20\n      mul\n      0x20\n      add\n      dup3\n      add\n      0x40\n      mstore\n      dup1\n      iszero\n      tag_146\n      jumpi\n      dup2\n      0x20\n      add\n      0x20\n      dup3\n      mul\n      dup1\n      calldatasize\n      dup4\n      calldatacopy\n      dup1\n      dup3\n      add\n      swap2\n      pop\n      pop\n      swap1\n      pop\n    tag_146:\n      pop\n        /* \"contracts/Comfree.sol\":2510:2556  uint[] memory Ids = new uint[](listingCounter) */\n      swap1\n      pop\n        /* \"contracts/Comfree.sol\":2567:2594  uint numberOflistingCounter */\n      0x00\n        /* \"contracts/Comfree.sol\":2630:2636  uint i */\n      dup1\n        /* \"contracts/Comfree.sol\":2639:2640  1 */\n      0x01\n        /* \"contracts/Comfree.sol\":2630:2640  uint i = 1 */\n      swap1\n      pop\n        /* \"contracts/Comfree.sol\":2626:2936  for(uint i = 1; i <= listingCounter; i++) {... */\n    tag_147:\n        /* \"contracts/Comfree.sol\":2647:2661  listingCounter */\n      sload(0x06)\n        /* \"contracts/Comfree.sol\":2642:2643  i */\n      dup2\n        /* \"contracts/Comfree.sol\":2642:2661  i <= listingCounter */\n      gt\n        /* \"contracts/Comfree.sol\":2626:2936  for(uint i = 1; i <= listingCounter; i++) {... */\n      tag_148\n      jumpi\n        /* \"contracts/Comfree.sol\":2782:2787  false */\n      0x00\n        /* \"contracts/Comfree.sol\":2753:2787  _homesForSale[i].inescrow == false */\n      iszero\n      iszero\n        /* \"contracts/Comfree.sol\":2753:2766  _homesForSale */\n      0x02\n        /* \"contracts/Comfree.sol\":2753:2769  _homesForSale[i] */\n      0x00\n        /* \"contracts/Comfree.sol\":2767:2768  i */\n      dup4\n        /* \"contracts/Comfree.sol\":2753:2769  _homesForSale[i] */\n      dup2\n      mstore\n      0x20\n      add\n      swap1\n      dup2\n      mstore\n      0x20\n      add\n      0x00\n      keccak256\n        /* \"contracts/Comfree.sol\":2753:2778  _homesForSale[i].inescrow */\n      0x06\n      add\n      0x00\n      swap1\n      sload\n      swap1\n      0x0100\n      exp\n      swap1\n      div\n      0xff\n      and\n        /* \"contracts/Comfree.sol\":2753:2787  _homesForSale[i].inescrow == false */\n      iszero\n      iszero\n      sub\n        /* \"contracts/Comfree.sol\":2750:2926  if(_homesForSale[i].inescrow == false) {... */\n      tag_150\n      jumpi\n        /* \"contracts/Comfree.sol\":2842:2855  _homesForSale */\n      0x02\n        /* \"contracts/Comfree.sol\":2842:2858  _homesForSale[i] */\n      0x00\n        /* \"contracts/Comfree.sol\":2856:2857  i */\n      dup3\n        /* \"contracts/Comfree.sol\":2842:2858  _homesForSale[i] */\n      dup2\n      mstore\n      0x20\n      add\n      swap1\n      dup2\n      mstore\n      0x20\n      add\n      0x00\n      keccak256\n        /* \"contracts/Comfree.sol\":2842:2861  _homesForSale[i].id */\n      0x00\n      add\n      sload\n        /* \"contracts/Comfree.sol\":2811:2814  Ids */\n      dup4\n        /* \"contracts/Comfree.sol\":2815:2837  numberOflistingCounter */\n      dup4\n        /* \"contracts/Comfree.sol\":2811:2838  Ids[numberOflistingCounter] */\n      dup2\n      mload\n      dup2\n      lt\n      tag_151\n      jumpi\n      tag_152\n      tag_118\n      jump\t// in\n    tag_152:\n    tag_151:\n      0x20\n      mul\n      0x20\n      add\n      add\n        /* \"contracts/Comfree.sol\":2811:2861  Ids[numberOflistingCounter] =  _homesForSale[i].id */\n      dup2\n      dup2\n      mstore\n      pop\n      pop\n        /* \"contracts/Comfree.sol\":2883:2907  numberOflistingCounter++ */\n      dup2\n      dup1\n      tag_153\n      swap1\n      tag_104\n      jump\t// in\n    tag_153:\n      swap3\n      pop\n      pop\n        /* \"contracts/Comfree.sol\":2750:2926  if(_homesForSale[i].inescrow == false) {... */\n    tag_150:\n        /* \"contracts/Comfree.sol\":2663:2666  i++ */\n      dup1\n      dup1\n      tag_154\n      swap1\n      tag_104\n      jump\t// in\n    tag_154:\n      swap2\n      pop\n      pop\n        /* \"contracts/Comfree.sol\":2626:2936  for(uint i = 1; i <= listingCounter; i++) {... */\n      jump(tag_147)\n    tag_148:\n      pop\n        /* \"contracts/Comfree.sol\":2946:2967  uint[] memory forSale */\n      0x00\n        /* \"contracts/Comfree.sol\":2981:3003  numberOflistingCounter */\n      dup2\n        /* \"contracts/Comfree.sol\":2970:3004  new uint[](numberOflistingCounter) */\n      0xffffffffffffffff\n      dup2\n      gt\n      iszero\n      tag_155\n      jumpi\n      tag_156\n      tag_111\n      jump\t// in\n    tag_156:\n    tag_155:\n      mload(0x40)\n      swap1\n      dup1\n      dup3\n      mstore\n      dup1\n      0x20\n      mul\n      0x20\n      add\n      dup3\n      add\n      0x40\n      mstore\n      dup1\n      iszero\n      tag_157\n      jumpi\n      dup2\n      0x20\n      add\n      0x20\n      dup3\n      mul\n      dup1\n      calldatasize\n      dup4\n      calldatacopy\n      dup1\n      dup3\n      add\n      swap2\n      pop\n      pop\n      swap1\n      pop\n    tag_157:\n      pop\n        /* \"contracts/Comfree.sol\":2946:3004  uint[] memory forSale = new uint[](numberOflistingCounter) */\n      swap1\n      pop\n        /* \"contracts/Comfree.sol\":3018:3024  uint j */\n      0x00\n        /* \"contracts/Comfree.sol\":3014:3107  for(uint j = 0; j < numberOflistingCounter; j++) {... */\n    tag_158:\n        /* \"contracts/Comfree.sol\":3034:3056  numberOflistingCounter */\n      dup3\n        /* \"contracts/Comfree.sol\":3030:3031  j */\n      dup2\n        /* \"contracts/Comfree.sol\":3030:3056  j < numberOflistingCounter */\n      lt\n        /* \"contracts/Comfree.sol\":3014:3107  for(uint j = 0; j < numberOflistingCounter; j++) {... */\n      iszero\n      tag_159\n      jumpi\n        /* \"contracts/Comfree.sol\":3090:3093  Ids */\n      dup4\n        /* \"contracts/Comfree.sol\":3094:3095  j */\n      dup2\n        /* \"contracts/Comfree.sol\":3090:3096  Ids[j] */\n      dup2\n      mload\n      dup2\n      lt\n      tag_161\n      jumpi\n      tag_162\n      tag_118\n      jump\t// in\n    tag_162:\n    tag_161:\n      0x20\n      mul\n      0x20\n      add\n      add\n      mload\n        /* \"contracts/Comfree.sol\":3077:3084  forSale */\n      dup3\n        /* \"contracts/Comfree.sol\":3085:3086  j */\n      dup3\n        /* \"contracts/Comfree.sol\":3077:3087  forSale[j] */\n      dup2\n      mload\n      dup2\n      lt\n      tag_163\n      jumpi\n      tag_164\n      tag_118\n      jump\t// in\n    tag_164:\n    tag_163:\n      0x20\n      mul\n      0x20\n      add\n      add\n        /* \"contracts/Comfree.sol\":3077:3096  forSale[j] = Ids[j] */\n      dup2\n      dup2\n      mstore\n      pop\n      pop\n        /* \"contracts/Comfree.sol\":3058:3061  j++ */\n      dup1\n      dup1\n      tag_165\n      swap1\n      tag_104\n      jump\t// in\n    tag_165:\n      swap2\n      pop\n      pop\n        /* \"contracts/Comfree.sol\":3014:3107  for(uint j = 0; j < numberOflistingCounter; j++) {... */\n      jump(tag_158)\n    tag_159:\n      pop\n        /* \"contracts/Comfree.sol\":3123:3130  forSale */\n      dup1\n        /* \"contracts/Comfree.sol\":3116:3130  return forSale */\n      swap4\n      pop\n      pop\n      pop\n      pop\n        /* \"contracts/Comfree.sol\":2438:3137  function getHomesForSale() public view returns(uint[] memory) {... */\n      swap1\n      jump\t// out\n        /* \"contracts/Comfree.sol\":5369:6257  function accept(uint _id, bool _value, uint _propertyid) payable public returns(bool) {... */\n    tag_69:\n        /* \"contracts/Comfree.sol\":5449:5453  bool */\n      0x00\n        /* \"contracts/Comfree.sol\":5967:5973  _value */\n      dup3\n        /* \"contracts/Comfree.sol\":5929:5950  _listOfOfferContracts */\n      0x03\n        /* \"contracts/Comfree.sol\":5929:5955  _listOfOfferContracts[_id] */\n      0x00\n        /* \"contracts/Comfree.sol\":5951:5954  _id */\n      dup7\n        /* \"contracts/Comfree.sol\":5929:5955  _listOfOfferContracts[_id] */\n      dup2\n      mstore\n      0x20\n      add\n      swap1\n      dup2\n      mstore\n      0x20\n      add\n      0x00\n      keccak256\n        /* \"contracts/Comfree.sol\":5929:5964  _listOfOfferContracts[_id].accepted */\n      0x06\n      add\n      0x00\n        /* \"contracts/Comfree.sol\":5929:5973  _listOfOfferContracts[_id].accepted = _value */\n      0x0100\n      exp\n      dup2\n      sload\n      dup2\n      0xff\n      mul\n      not\n      and\n      swap1\n      dup4\n      iszero\n      iszero\n      mul\n      or\n      swap1\n      sstore\n      pop\n        /* \"contracts/Comfree.sol\":6021:6025  true */\n      0x01\n        /* \"contracts/Comfree.sol\":5983:5996  _homesForSale */\n      0x02\n        /* \"contracts/Comfree.sol\":5983:6009  _homesForSale[_propertyid] */\n      0x00\n        /* \"contracts/Comfree.sol\":5997:6008  _propertyid */\n      dup5\n        /* \"contracts/Comfree.sol\":5983:6009  _homesForSale[_propertyid] */\n      dup2\n      mstore\n      0x20\n      add\n      swap1\n      dup2\n      mstore\n      0x20\n      add\n      0x00\n      keccak256\n        /* \"contracts/Comfree.sol\":5983:6018  _homesForSale[_propertyid].inescrow */\n      0x06\n      add\n      0x00\n        /* \"contracts/Comfree.sol\":5983:6025  _homesForSale[_propertyid].inescrow = true */\n      0x0100\n      exp\n      dup2\n      sload\n      dup2\n      0xff\n      mul\n      not\n      and\n      swap1\n      dup4\n      iszero\n      iszero\n      mul\n      or\n      swap1\n      sstore\n      pop\n        /* \"contracts/Comfree.sol\":6062:6083  _listOfOfferContracts */\n      0x03\n        /* \"contracts/Comfree.sol\":6062:6088  _listOfOfferContracts[_id] */\n      0x00\n        /* \"contracts/Comfree.sol\":6084:6087  _id */\n      dup6\n        /* \"contracts/Comfree.sol\":6062:6088  _listOfOfferContracts[_id] */\n      dup2\n      mstore\n      0x20\n      add\n      swap1\n      dup2\n      mstore\n      0x20\n      add\n      0x00\n      keccak256\n        /* \"contracts/Comfree.sol\":6062:6102  _listOfOfferContracts[_id].sellerAddress */\n      0x03\n      add\n      0x00\n      swap1\n      sload\n      swap1\n      0x0100\n      exp\n      swap1\n      div\n      0xffffffffffffffffffffffffffffffffffffffff\n      and\n        /* \"contracts/Comfree.sol\":6054:6112  payable(_listOfOfferContracts[_id].sellerAddress).transfer */\n      0xffffffffffffffffffffffffffffffffffffffff\n      and\n        /* \"contracts/Comfree.sol\":6054:6123  payable(_listOfOfferContracts[_id].sellerAddress).transfer(msg.value) */\n      0x08fc\n        /* \"contracts/Comfree.sol\":6113:6122  msg.value */\n      callvalue\n        /* \"contracts/Comfree.sol\":6054:6123  payable(_listOfOfferContracts[_id].sellerAddress).transfer(msg.value) */\n      swap1\n      dup2\n      iszero\n      mul\n      swap1\n      mload(0x40)\n      0x00\n      mload(0x40)\n      dup1\n      dup4\n      sub\n      dup2\n      dup6\n      dup9\n      dup9\n      call\n      swap4\n      pop\n      pop\n      pop\n      pop\n      iszero\n      dup1\n      iszero\n      tag_168\n      jumpi\n      returndatasize\n      0x00\n      dup1\n      returndatacopy\n      revert(0x00, returndatasize)\n    tag_168:\n      pop\n        /* \"contracts/Comfree.sol\":6138:6187  OfferAccepted(_propertyid, msg.value, msg.sender) */\n      0xcb229072cbcd1d5410a56504f86a872c0eac1578c7eb4463ec190b52d3b669e2\n        /* \"contracts/Comfree.sol\":6152:6163  _propertyid */\n      dup3\n        /* \"contracts/Comfree.sol\":6165:6174  msg.value */\n      callvalue\n        /* \"contracts/Comfree.sol\":6176:6186  msg.sender */\n      caller\n        /* \"contracts/Comfree.sol\":6138:6187  OfferAccepted(_propertyid, msg.value, msg.sender) */\n      mload(0x40)\n      tag_169\n      swap4\n      swap3\n      swap2\n      swap1\n      tag_170\n      jump\t// in\n    tag_169:\n      mload(0x40)\n      dup1\n      swap2\n      sub\n      swap1\n      log1\n        /* \"contracts/Comfree.sol\":6204:6210  _value */\n      dup3\n        /* \"contracts/Comfree.sol\":6197:6210  return _value */\n      swap1\n      pop\n        /* \"contracts/Comfree.sol\":5369:6257  function accept(uint _id, bool _value, uint _propertyid) payable public returns(bool) {... */\n      swap4\n      swap3\n      pop\n      pop\n      pop\n      jump\t// out\n        /* \"contracts/Comfree.sol\":3143:3956  function manageConditions(uint _offerId, bool _wallsPainted, bool _CarpetCleaned, bool _WindowsWashed) public {... */\n    tag_76:\n        /* \"contracts/Comfree.sol\":3303:3316  _wallsPainted */\n      dup3\n        /* \"contracts/Comfree.sol\":3263:3277  _conditionList */\n      0x04\n        /* \"contracts/Comfree.sol\":3263:3287  _conditionList[_offerId] */\n      0x00\n        /* \"contracts/Comfree.sol\":3278:3286  _offerId */\n      dup7\n        /* \"contracts/Comfree.sol\":3263:3287  _conditionList[_offerId] */\n      dup2\n      mstore\n      0x20\n      add\n      swap1\n      dup2\n      mstore\n      0x20\n      add\n      0x00\n      keccak256\n        /* \"contracts/Comfree.sol\":3263:3300  _conditionList[_offerId].WallsPainted */\n      0x00\n      add\n      0x01\n        /* \"contracts/Comfree.sol\":3263:3316  _conditionList[_offerId].WallsPainted = _wallsPainted */\n      0x0100\n      exp\n      dup2\n      sload\n      dup2\n      0xff\n      mul\n      not\n      and\n      swap1\n      dup4\n      iszero\n      iszero\n      mul\n      or\n      swap1\n      sstore\n      pop\n        /* \"contracts/Comfree.sol\":3367:3381  _CarpetCleaned */\n      dup2\n        /* \"contracts/Comfree.sol\":3326:3340  _conditionList */\n      0x04\n        /* \"contracts/Comfree.sol\":3326:3350  _conditionList[_offerId] */\n      0x00\n        /* \"contracts/Comfree.sol\":3341:3349  _offerId */\n      dup7\n        /* \"contracts/Comfree.sol\":3326:3350  _conditionList[_offerId] */\n      dup2\n      mstore\n      0x20\n      add\n      swap1\n      dup2\n      mstore\n      0x20\n      add\n      0x00\n      keccak256\n        /* \"contracts/Comfree.sol\":3326:3364  _conditionList[_offerId].CarpetCleaned */\n      0x00\n      add\n      0x02\n        /* \"contracts/Comfree.sol\":3326:3381  _conditionList[_offerId].CarpetCleaned = _CarpetCleaned */\n      0x0100\n      exp\n      dup2\n      sload\n      dup2\n      0xff\n      mul\n      not\n      and\n      swap1\n      dup4\n      iszero\n      iszero\n      mul\n      or\n      swap1\n      sstore\n      pop\n        /* \"contracts/Comfree.sol\":3432:3446  _WindowsWashed */\n      dup1\n        /* \"contracts/Comfree.sol\":3391:3405  _conditionList */\n      0x04\n        /* \"contracts/Comfree.sol\":3391:3415  _conditionList[_offerId] */\n      0x00\n        /* \"contracts/Comfree.sol\":3406:3414  _offerId */\n      dup7\n        /* \"contracts/Comfree.sol\":3391:3415  _conditionList[_offerId] */\n      dup2\n      mstore\n      0x20\n      add\n      swap1\n      dup2\n      mstore\n      0x20\n      add\n      0x00\n      keccak256\n        /* \"contracts/Comfree.sol\":3391:3429  _conditionList[_offerId].WindowsWashed */\n      0x00\n      add\n      0x03\n        /* \"contracts/Comfree.sol\":3391:3446  _conditionList[_offerId].WindowsWashed = _WindowsWashed */\n      0x0100\n      exp\n      dup2\n      sload\n      dup2\n      0xff\n      mul\n      not\n      and\n      swap1\n      dup4\n      iszero\n      iszero\n      mul\n      or\n      swap1\n      sstore\n      pop\n        /* \"contracts/Comfree.sol\":3586:3590  true */\n      0x01\n        /* \"contracts/Comfree.sol\":3545:3590  _conditionList[_offerId].WallsPainted == true */\n      iszero\n      iszero\n        /* \"contracts/Comfree.sol\":3545:3559  _conditionList */\n      0x04\n        /* \"contracts/Comfree.sol\":3545:3569  _conditionList[_offerId] */\n      0x00\n        /* \"contracts/Comfree.sol\":3560:3568  _offerId */\n      dup7\n        /* \"contracts/Comfree.sol\":3545:3569  _conditionList[_offerId] */\n      dup2\n      mstore\n      0x20\n      add\n      swap1\n      dup2\n      mstore\n      0x20\n      add\n      0x00\n      keccak256\n        /* \"contracts/Comfree.sol\":3545:3582  _conditionList[_offerId].WallsPainted */\n      0x00\n      add\n      0x01\n      swap1\n      sload\n      swap1\n      0x0100\n      exp\n      swap1\n      div\n      0xff\n      and\n        /* \"contracts/Comfree.sol\":3545:3590  _conditionList[_offerId].WallsPainted == true */\n      iszero\n      iszero\n      eq\n        /* \"contracts/Comfree.sol\":3545:3640  _conditionList[_offerId].WallsPainted == true && _conditionList[_offerId].CarpetCleaned == true */\n      dup1\n      iszero\n      tag_172\n      jumpi\n      pop\n        /* \"contracts/Comfree.sol\":3636:3640  true */\n      0x01\n        /* \"contracts/Comfree.sol\":3594:3640  _conditionList[_offerId].CarpetCleaned == true */\n      iszero\n      iszero\n        /* \"contracts/Comfree.sol\":3594:3608  _conditionList */\n      0x04\n        /* \"contracts/Comfree.sol\":3594:3618  _conditionList[_offerId] */\n      0x00\n        /* \"contracts/Comfree.sol\":3609:3617  _offerId */\n      dup7\n        /* \"contracts/Comfree.sol\":3594:3618  _conditionList[_offerId] */\n      dup2\n      mstore\n      0x20\n      add\n      swap1\n      dup2\n      mstore\n      0x20\n      add\n      0x00\n      keccak256\n        /* \"contracts/Comfree.sol\":3594:3632  _conditionList[_offerId].CarpetCleaned */\n      0x00\n      add\n      0x02\n      swap1\n      sload\n      swap1\n      0x0100\n      exp\n      swap1\n      div\n      0xff\n      and\n        /* \"contracts/Comfree.sol\":3594:3640  _conditionList[_offerId].CarpetCleaned == true */\n      iszero\n      iszero\n      eq\n        /* \"contracts/Comfree.sol\":3545:3640  _conditionList[_offerId].WallsPainted == true && _conditionList[_offerId].CarpetCleaned == true */\n    tag_172:\n        /* \"contracts/Comfree.sol\":3545:3690  _conditionList[_offerId].WallsPainted == true && _conditionList[_offerId].CarpetCleaned == true && _conditionList[_offerId].WindowsWashed == true */\n      dup1\n      iszero\n      tag_173\n      jumpi\n      pop\n        /* \"contracts/Comfree.sol\":3686:3690  true */\n      0x01\n        /* \"contracts/Comfree.sol\":3644:3690  _conditionList[_offerId].WindowsWashed == true */\n      iszero\n      iszero\n        /* \"contracts/Comfree.sol\":3644:3658  _conditionList */\n      0x04\n        /* \"contracts/Comfree.sol\":3644:3668  _conditionList[_offerId] */\n      0x00\n        /* \"contracts/Comfree.sol\":3659:3667  _offerId */\n      dup7\n        /* \"contracts/Comfree.sol\":3644:3668  _conditionList[_offerId] */\n      dup2\n      mstore\n      0x20\n      add\n      swap1\n      dup2\n      mstore\n      0x20\n      add\n      0x00\n      keccak256\n        /* \"contracts/Comfree.sol\":3644:3682  _conditionList[_offerId].WindowsWashed */\n      0x00\n      add\n      0x03\n      swap1\n      sload\n      swap1\n      0x0100\n      exp\n      swap1\n      div\n      0xff\n      and\n        /* \"contracts/Comfree.sol\":3644:3690  _conditionList[_offerId].WindowsWashed == true */\n      iszero\n      iszero\n      eq\n        /* \"contracts/Comfree.sol\":3545:3690  _conditionList[_offerId].WallsPainted == true && _conditionList[_offerId].CarpetCleaned == true && _conditionList[_offerId].WindowsWashed == true */\n    tag_173:\n        /* \"contracts/Comfree.sol\":3541:3761  if( _conditionList[_offerId].WallsPainted == true && _conditionList[_offerId].CarpetCleaned == true && _conditionList[_offerId].WindowsWashed == true) {... */\n      iszero\n      tag_174\n      jumpi\n        /* \"contracts/Comfree.sol\":3746:3750  true */\n      0x01\n        /* \"contracts/Comfree.sol\":3706:3720  _conditionList */\n      0x04\n        /* \"contracts/Comfree.sol\":3706:3730  _conditionList[_offerId] */\n      0x00\n        /* \"contracts/Comfree.sol\":3721:3729  _offerId */\n      dup7\n        /* \"contracts/Comfree.sol\":3706:3730  _conditionList[_offerId] */\n      dup2\n      mstore\n      0x20\n      add\n      swap1\n      dup2\n      mstore\n      0x20\n      add\n      0x00\n      keccak256\n        /* \"contracts/Comfree.sol\":3706:3743  _conditionList[_offerId].conditionMet */\n      0x00\n      add\n      0x00\n        /* \"contracts/Comfree.sol\":3706:3750  _conditionList[_offerId].conditionMet = true */\n      0x0100\n      exp\n      dup2\n      sload\n      dup2\n      0xff\n      mul\n      not\n      and\n      swap1\n      dup4\n      iszero\n      iszero\n      mul\n      or\n      swap1\n      sstore\n      pop\n        /* \"contracts/Comfree.sol\":3541:3761  if( _conditionList[_offerId].WallsPainted == true && _conditionList[_offerId].CarpetCleaned == true && _conditionList[_offerId].WindowsWashed == true) {... */\n    tag_174:\n        /* \"contracts/Comfree.sol\":3814:3818  true */\n      0x01\n        /* \"contracts/Comfree.sol\":3773:3818  _conditionList[_offerId].conditionMet == true */\n      iszero\n      iszero\n        /* \"contracts/Comfree.sol\":3773:3787  _conditionList */\n      0x04\n        /* \"contracts/Comfree.sol\":3773:3797  _conditionList[_offerId] */\n      0x00\n        /* \"contracts/Comfree.sol\":3788:3796  _offerId */\n      dup7\n        /* \"contracts/Comfree.sol\":3773:3797  _conditionList[_offerId] */\n      dup2\n      mstore\n      0x20\n      add\n      swap1\n      dup2\n      mstore\n      0x20\n      add\n      0x00\n      keccak256\n        /* \"contracts/Comfree.sol\":3773:3810  _conditionList[_offerId].conditionMet */\n      0x00\n      add\n      0x00\n      swap1\n      sload\n      swap1\n      0x0100\n      exp\n      swap1\n      div\n      0xff\n      and\n        /* \"contracts/Comfree.sol\":3773:3818  _conditionList[_offerId].conditionMet == true */\n      iszero\n      iszero\n      sub\n        /* \"contracts/Comfree.sol\":3770:3941  if(_conditionList[_offerId].conditionMet == true) {... */\n      tag_175\n      jumpi\n        /* \"contracts/Comfree.sol\":3839:3861  ConditionMet(_offerId) */\n      0xbed19c48ffbfb01ca0faa826d3e3844746b0628593a6c4aeea7290af66735d20\n        /* \"contracts/Comfree.sol\":3852:3860  _offerId */\n      dup5\n        /* \"contracts/Comfree.sol\":3839:3861  ConditionMet(_offerId) */\n      mload(0x40)\n      tag_176\n      swap2\n      swap1\n      tag_177\n      jump\t// in\n    tag_176:\n      mload(0x40)\n      dup1\n      swap2\n      sub\n      swap1\n      log1\n        /* \"contracts/Comfree.sol\":3770:3941  if(_conditionList[_offerId].conditionMet == true) {... */\n      jump(tag_178)\n    tag_175:\n        /* \"contracts/Comfree.sol\":3905:3930  ConditionNotMet(_offerId) */\n      0x1f0c1db71d57570daa726bc2aa30a91e34f107443dfdbfc1bed51f3810ce362e\n        /* \"contracts/Comfree.sol\":3921:3929  _offerId */\n      dup5\n        /* \"contracts/Comfree.sol\":3905:3930  ConditionNotMet(_offerId) */\n      mload(0x40)\n      tag_179\n      swap2\n      swap1\n      tag_177\n      jump\t// in\n    tag_179:\n      mload(0x40)\n      dup1\n      swap2\n      sub\n      swap1\n      log1\n        /* \"contracts/Comfree.sol\":3770:3941  if(_conditionList[_offerId].conditionMet == true) {... */\n    tag_178:\n        /* \"contracts/Comfree.sol\":3143:3956  function manageConditions(uint _offerId, bool _wallsPainted, bool _CarpetCleaned, bool _WindowsWashed) public {... */\n      pop\n      pop\n      pop\n      pop\n      jump\t// out\n        /* \"#utility.yul\":7:106   */\n    tag_180:\n        /* \"#utility.yul\":59:65   */\n      0x00\n        /* \"#utility.yul\":93:98   */\n      dup2\n        /* \"#utility.yul\":87:99   */\n      mload\n        /* \"#utility.yul\":77:99   */\n      swap1\n      pop\n        /* \"#utility.yul\":7:106   */\n      swap2\n      swap1\n      pop\n      jump\t// out\n        /* \"#utility.yul\":112:281   */\n    tag_181:\n        /* \"#utility.yul\":196:207   */\n      0x00\n        /* \"#utility.yul\":230:236   */\n      dup3\n        /* \"#utility.yul\":225:228   */\n      dup3\n        /* \"#utility.yul\":218:237   */\n      mstore\n        /* \"#utility.yul\":270:274   */\n      0x20\n        /* \"#utility.yul\":265:268   */\n      dup3\n        /* \"#utility.yul\":261:275   */\n      add\n        /* \"#utility.yul\":246:275   */\n      swap1\n      pop\n        /* \"#utility.yul\":112:281   */\n      swap3\n      swap2\n      pop\n      pop\n      jump\t// out\n        /* \"#utility.yul\":287:533   */\n    tag_182:\n        /* \"#utility.yul\":368:369   */\n      0x00\n        /* \"#utility.yul\":378:491   */\n    tag_237:\n        /* \"#utility.yul\":392:398   */\n      dup4\n        /* \"#utility.yul\":389:390   */\n      dup2\n        /* \"#utility.yul\":386:399   */\n      lt\n        /* \"#utility.yul\":378:491   */\n      iszero\n      tag_239\n      jumpi\n        /* \"#utility.yul\":477:478   */\n      dup1\n        /* \"#utility.yul\":472:475   */\n      dup3\n        /* \"#utility.yul\":468:479   */\n      add\n        /* \"#utility.yul\":462:480   */\n      mload\n        /* \"#utility.yul\":458:459   */\n      dup2\n        /* \"#utility.yul\":453:456   */\n      dup5\n        /* \"#utility.yul\":449:460   */\n      add\n        /* \"#utility.yul\":442:481   */\n      mstore\n        /* \"#utility.yul\":414:416   */\n      0x20\n        /* \"#utility.yul\":411:412   */\n      dup2\n        /* \"#utility.yul\":407:417   */\n      add\n        /* \"#utility.yul\":402:417   */\n      swap1\n      pop\n        /* \"#utility.yul\":378:491   */\n      jump(tag_237)\n    tag_239:\n        /* \"#utility.yul\":525:526   */\n      0x00\n        /* \"#utility.yul\":516:522   */\n      dup5\n        /* \"#utility.yul\":511:514   */\n      dup5\n        /* \"#utility.yul\":507:523   */\n      add\n        /* \"#utility.yul\":500:527   */\n      mstore\n        /* \"#utility.yul\":349:533   */\n      pop\n        /* \"#utility.yul\":287:533   */\n      pop\n      pop\n      pop\n      jump\t// out\n        /* \"#utility.yul\":539:641   */\n    tag_183:\n        /* \"#utility.yul\":580:586   */\n      0x00\n        /* \"#utility.yul\":631:633   */\n      0x1f\n        /* \"#utility.yul\":627:634   */\n      not\n        /* \"#utility.yul\":622:624   */\n      0x1f\n        /* \"#utility.yul\":615:620   */\n      dup4\n        /* \"#utility.yul\":611:625   */\n      add\n        /* \"#utility.yul\":607:635   */\n      and\n        /* \"#utility.yul\":597:635   */\n      swap1\n      pop\n        /* \"#utility.yul\":539:641   */\n      swap2\n      swap1\n      pop\n      jump\t// out\n        /* \"#utility.yul\":647:1024   */\n    tag_184:\n        /* \"#utility.yul\":735:738   */\n      0x00\n        /* \"#utility.yul\":763:802   */\n      tag_242\n        /* \"#utility.yul\":796:801   */\n      dup3\n        /* \"#utility.yul\":763:802   */\n      tag_180\n      jump\t// in\n    tag_242:\n        /* \"#utility.yul\":818:889   */\n      tag_243\n        /* \"#utility.yul\":882:888   */\n      dup2\n        /* \"#utility.yul\":877:880   */\n      dup6\n        /* \"#utility.yul\":818:889   */\n      tag_181\n      jump\t// in\n    tag_243:\n        /* \"#utility.yul\":811:889   */\n      swap4\n      pop\n        /* \"#utility.yul\":898:963   */\n      tag_244\n        /* \"#utility.yul\":956:962   */\n      dup2\n        /* \"#utility.yul\":951:954   */\n      dup6\n        /* \"#utility.yul\":944:948   */\n      0x20\n        /* \"#utility.yul\":937:942   */\n      dup7\n        /* \"#utility.yul\":933:949   */\n      add\n        /* \"#utility.yul\":898:963   */\n      tag_182\n      jump\t// in\n    tag_244:\n        /* \"#utility.yul\":988:1017   */\n      tag_245\n        /* \"#utility.yul\":1010:1016   */\n      dup2\n        /* \"#utility.yul\":988:1017   */\n      tag_183\n      jump\t// in\n    tag_245:\n        /* \"#utility.yul\":983:986   */\n      dup5\n        /* \"#utility.yul\":979:1018   */\n      add\n        /* \"#utility.yul\":972:1018   */\n      swap2\n      pop\n        /* \"#utility.yul\":739:1024   */\n      pop\n        /* \"#utility.yul\":647:1024   */\n      swap3\n      swap2\n      pop\n      pop\n      jump\t// out\n        /* \"#utility.yul\":1030:1343   */\n    tag_19:\n        /* \"#utility.yul\":1143:1147   */\n      0x00\n        /* \"#utility.yul\":1181:1183   */\n      0x20\n        /* \"#utility.yul\":1170:1179   */\n      dup3\n        /* \"#utility.yul\":1166:1184   */\n      add\n        /* \"#utility.yul\":1158:1184   */\n      swap1\n      pop\n        /* \"#utility.yul\":1230:1239   */\n      dup2\n        /* \"#utility.yul\":1224:1228   */\n      dup2\n        /* \"#utility.yul\":1220:1240   */\n      sub\n        /* \"#utility.yul\":1216:1217   */\n      0x00\n        /* \"#utility.yul\":1205:1214   */\n      dup4\n        /* \"#utility.yul\":1201:1218   */\n      add\n        /* \"#utility.yul\":1194:1241   */\n      mstore\n        /* \"#utility.yul\":1258:1336   */\n      tag_247\n        /* \"#utility.yul\":1331:1335   */\n      dup2\n        /* \"#utility.yul\":1322:1328   */\n      dup5\n        /* \"#utility.yul\":1258:1336   */\n      tag_184\n      jump\t// in\n    tag_247:\n        /* \"#utility.yul\":1250:1336   */\n      swap1\n      pop\n        /* \"#utility.yul\":1030:1343   */\n      swap3\n      swap2\n      pop\n      pop\n      jump\t// out\n        /* \"#utility.yul\":1349:1424   */\n    tag_185:\n        /* \"#utility.yul\":1382:1388   */\n      0x00\n        /* \"#utility.yul\":1415:1417   */\n      0x40\n        /* \"#utility.yul\":1409:1418   */\n      mload\n        /* \"#utility.yul\":1399:1418   */\n      swap1\n      pop\n        /* \"#utility.yul\":1349:1424   */\n      swap1\n      jump\t// out\n        /* \"#utility.yul\":1430:1547   */\n    tag_186:\n        /* \"#utility.yul\":1539:1540   */\n      0x00\n        /* \"#utility.yul\":1536:1537   */\n      dup1\n        /* \"#utility.yul\":1529:1541   */\n      revert\n        /* \"#utility.yul\":1553:1670   */\n    tag_187:\n        /* \"#utility.yul\":1662:1663   */\n      0x00\n        /* \"#utility.yul\":1659:1660   */\n      dup1\n        /* \"#utility.yul\":1652:1664   */\n      revert\n        /* \"#utility.yul\":1676:1753   */\n    tag_188:\n        /* \"#utility.yul\":1713:1720   */\n      0x00\n        /* \"#utility.yul\":1742:1747   */\n      dup2\n        /* \"#utility.yul\":1731:1747   */\n      swap1\n      pop\n        /* \"#utility.yul\":1676:1753   */\n      swap2\n      swap1\n      pop\n      jump\t// out\n        /* \"#utility.yul\":1759:1881   */\n    tag_189:\n        /* \"#utility.yul\":1832:1856   */\n      tag_253\n        /* \"#utility.yul\":1850:1855   */\n      dup2\n        /* \"#utility.yul\":1832:1856   */\n      tag_188\n      jump\t// in\n    tag_253:\n        /* \"#utility.yul\":1825:1830   */\n      dup2\n        /* \"#utility.yul\":1822:1857   */\n      eq\n        /* \"#utility.yul\":1812:1875   */\n      tag_254\n      jumpi\n        /* \"#utility.yul\":1871:1872   */\n      0x00\n        /* \"#utility.yul\":1868:1869   */\n      dup1\n        /* \"#utility.yul\":1861:1873   */\n      revert\n        /* \"#utility.yul\":1812:1875   */\n    tag_254:\n        /* \"#utility.yul\":1759:1881   */\n      pop\n      jump\t// out\n        /* \"#utility.yul\":1887:2026   */\n    tag_190:\n        /* \"#utility.yul\":1933:1938   */\n      0x00\n        /* \"#utility.yul\":1971:1977   */\n      dup2\n        /* \"#utility.yul\":1958:1978   */\n      calldataload\n        /* \"#utility.yul\":1949:1978   */\n      swap1\n      pop\n        /* \"#utility.yul\":1987:2020   */\n      tag_256\n        /* \"#utility.yul\":2014:2019   */\n      dup2\n        /* \"#utility.yul\":1987:2020   */\n      tag_189\n      jump\t// in\n    tag_256:\n        /* \"#utility.yul\":1887:2026   */\n      swap3\n      swap2\n      pop\n      pop\n      jump\t// out\n        /* \"#utility.yul\":2032:2361   */\n    tag_23:\n        /* \"#utility.yul\":2091:2097   */\n      0x00\n        /* \"#utility.yul\":2140:2142   */\n      0x20\n        /* \"#utility.yul\":2128:2137   */\n      dup3\n        /* \"#utility.yul\":2119:2126   */\n      dup5\n        /* \"#utility.yul\":2115:2138   */\n      sub\n        /* \"#utility.yul\":2111:2143   */\n      slt\n        /* \"#utility.yul\":2108:2227   */\n      iszero\n      tag_258\n      jumpi\n        /* \"#utility.yul\":2146:2225   */\n      tag_259\n      tag_186\n      jump\t// in\n    tag_259:\n        /* \"#utility.yul\":2108:2227   */\n    tag_258:\n        /* \"#utility.yul\":2266:2267   */\n      0x00\n        /* \"#utility.yul\":2291:2344   */\n      tag_260\n        /* \"#utility.yul\":2336:2343   */\n      dup5\n        /* \"#utility.yul\":2327:2333   */\n      dup3\n        /* \"#utility.yul\":2316:2325   */\n      dup6\n        /* \"#utility.yul\":2312:2334   */\n      add\n        /* \"#utility.yul\":2291:2344   */\n      tag_190\n      jump\t// in\n    tag_260:\n        /* \"#utility.yul\":2281:2344   */\n      swap2\n      pop\n        /* \"#utility.yul\":2237:2354   */\n      pop\n        /* \"#utility.yul\":2032:2361   */\n      swap3\n      swap2\n      pop\n      pop\n      jump\t// out\n        /* \"#utility.yul\":2367:2457   */\n    tag_191:\n        /* \"#utility.yul\":2401:2408   */\n      0x00\n        /* \"#utility.yul\":2444:2449   */\n      dup2\n        /* \"#utility.yul\":2437:2450   */\n      iszero\n        /* \"#utility.yul\":2430:2451   */\n      iszero\n        /* \"#utility.yul\":2419:2451   */\n      swap1\n      pop\n        /* \"#utility.yul\":2367:2457   */\n      swap2\n      swap1\n      pop\n      jump\t// out\n        /* \"#utility.yul\":2463:2572   */\n    tag_192:\n        /* \"#utility.yul\":2544:2565   */\n      tag_263\n        /* \"#utility.yul\":2559:2564   */\n      dup2\n        /* \"#utility.yul\":2544:2565   */\n      tag_191\n      jump\t// in\n    tag_263:\n        /* \"#utility.yul\":2539:2542   */\n      dup3\n        /* \"#utility.yul\":2532:2566   */\n      mstore\n        /* \"#utility.yul\":2463:2572   */\n      pop\n      pop\n      jump\t// out\n        /* \"#utility.yul\":2578:3083   */\n    tag_30:\n        /* \"#utility.yul\":2731:2735   */\n      0x00\n        /* \"#utility.yul\":2769:2772   */\n      0x80\n        /* \"#utility.yul\":2758:2767   */\n      dup3\n        /* \"#utility.yul\":2754:2773   */\n      add\n        /* \"#utility.yul\":2746:2773   */\n      swap1\n      pop\n        /* \"#utility.yul\":2783:2848   */\n      tag_265\n        /* \"#utility.yul\":2845:2846   */\n      0x00\n        /* \"#utility.yul\":2834:2843   */\n      dup4\n        /* \"#utility.yul\":2830:2847   */\n      add\n        /* \"#utility.yul\":2821:2827   */\n      dup8\n        /* \"#utility.yul\":2783:2848   */\n      tag_192\n      jump\t// in\n    tag_265:\n        /* \"#utility.yul\":2858:2924   */\n      tag_266\n        /* \"#utility.yul\":2920:2922   */\n      0x20\n        /* \"#utility.yul\":2909:2918   */\n      dup4\n        /* \"#utility.yul\":2905:2923   */\n      add\n        /* \"#utility.yul\":2896:2902   */\n      dup7\n        /* \"#utility.yul\":2858:2924   */\n      tag_192\n      jump\t// in\n    tag_266:\n        /* \"#utility.yul\":2934:3000   */\n      tag_267\n        /* \"#utility.yul\":2996:2998   */\n      0x40\n        /* \"#utility.yul\":2985:2994   */\n      dup4\n        /* \"#utility.yul\":2981:2999   */\n      add\n        /* \"#utility.yul\":2972:2978   */\n      dup6\n        /* \"#utility.yul\":2934:3000   */\n      tag_192\n      jump\t// in\n    tag_267:\n        /* \"#utility.yul\":3010:3076   */\n      tag_268\n        /* \"#utility.yul\":3072:3074   */\n      0x60\n        /* \"#utility.yul\":3061:3070   */\n      dup4\n        /* \"#utility.yul\":3057:3075   */\n      add\n        /* \"#utility.yul\":3048:3054   */\n      dup5\n        /* \"#utility.yul\":3010:3076   */\n      tag_192\n      jump\t// in\n    tag_268:\n        /* \"#utility.yul\":2578:3083   */\n      swap6\n      swap5\n      pop\n      pop\n      pop\n      pop\n      pop\n      jump\t// out\n        /* \"#utility.yul\":3089:3207   */\n    tag_193:\n        /* \"#utility.yul\":3176:3200   */\n      tag_270\n        /* \"#utility.yul\":3194:3199   */\n      dup2\n        /* \"#utility.yul\":3176:3200   */\n      tag_188\n      jump\t// in\n    tag_270:\n        /* \"#utility.yul\":3171:3174   */\n      dup3\n        /* \"#utility.yul\":3164:3201   */\n      mstore\n        /* \"#utility.yul\":3089:3207   */\n      pop\n      pop\n      jump\t// out\n        /* \"#utility.yul\":3213:3339   */\n    tag_194:\n        /* \"#utility.yul\":3250:3257   */\n      0x00\n        /* \"#utility.yul\":3290:3332   */\n      0xffffffffffffffffffffffffffffffffffffffff\n        /* \"#utility.yul\":3283:3288   */\n      dup3\n        /* \"#utility.yul\":3279:3333   */\n      and\n        /* \"#utility.yul\":3268:3333   */\n      swap1\n      pop\n        /* \"#utility.yul\":3213:3339   */\n      swap2\n      swap1\n      pop\n      jump\t// out\n        /* \"#utility.yul\":3345:3441   */\n    tag_195:\n        /* \"#utility.yul\":3382:3389   */\n      0x00\n        /* \"#utility.yul\":3411:3435   */\n      tag_273\n        /* \"#utility.yul\":3429:3434   */\n      dup3\n        /* \"#utility.yul\":3411:3435   */\n      tag_194\n      jump\t// in\n    tag_273:\n        /* \"#utility.yul\":3400:3435   */\n      swap1\n      pop\n        /* \"#utility.yul\":3345:3441   */\n      swap2\n      swap1\n      pop\n      jump\t// out\n        /* \"#utility.yul\":3447:3565   */\n    tag_196:\n        /* \"#utility.yul\":3534:3558   */\n      tag_275\n        /* \"#utility.yul\":3552:3557   */\n      dup2\n        /* \"#utility.yul\":3534:3558   */\n      tag_195\n      jump\t// in\n    tag_275:\n        /* \"#utility.yul\":3529:3532   */\n      dup3\n        /* \"#utility.yul\":3522:3559   */\n      mstore\n        /* \"#utility.yul\":3447:3565   */\n      pop\n      pop\n      jump\t// out\n        /* \"#utility.yul\":3571:4627   */\n    tag_36:\n        /* \"#utility.yul\":3866:3870   */\n      0x00\n        /* \"#utility.yul\":3904:3907   */\n      0xe0\n        /* \"#utility.yul\":3893:3902   */\n      dup3\n        /* \"#utility.yul\":3889:3908   */\n      add\n        /* \"#utility.yul\":3881:3908   */\n      swap1\n      pop\n        /* \"#utility.yul\":3918:3989   */\n      tag_277\n        /* \"#utility.yul\":3986:3987   */\n      0x00\n        /* \"#utility.yul\":3975:3984   */\n      dup4\n        /* \"#utility.yul\":3971:3988   */\n      add\n        /* \"#utility.yul\":3962:3968   */\n      dup11\n        /* \"#utility.yul\":3918:3989   */\n      tag_193\n      jump\t// in\n    tag_277:\n        /* \"#utility.yul\":3999:4071   */\n      tag_278\n        /* \"#utility.yul\":4067:4069   */\n      0x20\n        /* \"#utility.yul\":4056:4065   */\n      dup4\n        /* \"#utility.yul\":4052:4070   */\n      add\n        /* \"#utility.yul\":4043:4049   */\n      dup10\n        /* \"#utility.yul\":3999:4071   */\n      tag_196\n      jump\t// in\n    tag_278:\n        /* \"#utility.yul\":4081:4153   */\n      tag_279\n        /* \"#utility.yul\":4149:4151   */\n      0x40\n        /* \"#utility.yul\":4138:4147   */\n      dup4\n        /* \"#utility.yul\":4134:4152   */\n      add\n        /* \"#utility.yul\":4125:4131   */\n      dup9\n        /* \"#utility.yul\":4081:4153   */\n      tag_196\n      jump\t// in\n    tag_279:\n        /* \"#utility.yul\":4200:4209   */\n      dup2\n        /* \"#utility.yul\":4194:4198   */\n      dup2\n        /* \"#utility.yul\":4190:4210   */\n      sub\n        /* \"#utility.yul\":4185:4187   */\n      0x60\n        /* \"#utility.yul\":4174:4183   */\n      dup4\n        /* \"#utility.yul\":4170:4188   */\n      add\n        /* \"#utility.yul\":4163:4211   */\n      mstore\n        /* \"#utility.yul\":4228:4306   */\n      tag_280\n        /* \"#utility.yul\":4301:4305   */\n      dup2\n        /* \"#utility.yul\":4292:4298   */\n      dup8\n        /* \"#utility.yul\":4228:4306   */\n      tag_184\n      jump\t// in\n    tag_280:\n        /* \"#utility.yul\":4220:4306   */\n      swap1\n      pop\n        /* \"#utility.yul\":4354:4363   */\n      dup2\n        /* \"#utility.yul\":4348:4352   */\n      dup2\n        /* \"#utility.yul\":4344:4364   */\n      sub\n        /* \"#utility.yul\":4338:4341   */\n      0x80\n        /* \"#utility.yul\":4327:4336   */\n      dup4\n        /* \"#utility.yul\":4323:4342   */\n      add\n        /* \"#utility.yul\":4316:4365   */\n      mstore\n        /* \"#utility.yul\":4382:4460   */\n      tag_281\n        /* \"#utility.yul\":4455:4459   */\n      dup2\n        /* \"#utility.yul\":4446:4452   */\n      dup7\n        /* \"#utility.yul\":4382:4460   */\n      tag_184\n      jump\t// in\n    tag_281:\n        /* \"#utility.yul\":4374:4460   */\n      swap1\n      pop\n        /* \"#utility.yul\":4470:4543   */\n      tag_282\n        /* \"#utility.yul\":4538:4541   */\n      0xa0\n        /* \"#utility.yul\":4527:4536   */\n      dup4\n        /* \"#utility.yul\":4523:4542   */\n      add\n        /* \"#utility.yul\":4514:4520   */\n      dup6\n        /* \"#utility.yul\":4470:4543   */\n      tag_193\n      jump\t// in\n    tag_282:\n        /* \"#utility.yul\":4553:4620   */\n      tag_283\n        /* \"#utility.yul\":4615:4618   */\n      0xc0\n        /* \"#utility.yul\":4604:4613   */\n      dup4\n        /* \"#utility.yul\":4600:4619   */\n      add\n        /* \"#utility.yul\":4591:4597   */\n      dup5\n        /* \"#utility.yul\":4553:4620   */\n      tag_192\n      jump\t// in\n    tag_283:\n        /* \"#utility.yul\":3571:4627   */\n      swap9\n      swap8\n      pop\n      pop\n      pop\n      pop\n      pop\n      pop\n      pop\n      pop\n      jump\t// out\n        /* \"#utility.yul\":4633:5709   */\n    tag_42:\n        /* \"#utility.yul\":4936:4940   */\n      0x00\n        /* \"#utility.yul\":4974:4977   */\n      0x0100\n        /* \"#utility.yul\":4963:4972   */\n      dup3\n        /* \"#utility.yul\":4959:4978   */\n      add\n        /* \"#utility.yul\":4951:4978   */\n      swap1\n      pop\n        /* \"#utility.yul\":4988:5059   */\n      tag_285\n        /* \"#utility.yul\":5056:5057   */\n      0x00\n        /* \"#utility.yul\":5045:5054   */\n      dup4\n        /* \"#utility.yul\":5041:5058   */\n      add\n        /* \"#utility.yul\":5032:5038   */\n      dup12\n        /* \"#utility.yul\":4988:5059   */\n      tag_193\n      jump\t// in\n    tag_285:\n        /* \"#utility.yul\":5069:5141   */\n      tag_286\n        /* \"#utility.yul\":5137:5139   */\n      0x20\n        /* \"#utility.yul\":5126:5135   */\n      dup4\n        /* \"#utility.yul\":5122:5140   */\n      add\n        /* \"#utility.yul\":5113:5119   */\n      dup11\n        /* \"#utility.yul\":5069:5141   */\n      tag_193\n      jump\t// in\n    tag_286:\n        /* \"#utility.yul\":5151:5223   */\n      tag_287\n        /* \"#utility.yul\":5219:5221   */\n      0x40\n        /* \"#utility.yul\":5208:5217   */\n      dup4\n        /* \"#utility.yul\":5204:5222   */\n      add\n        /* \"#utility.yul\":5195:5201   */\n      dup10\n        /* \"#utility.yul\":5151:5223   */\n      tag_196\n      jump\t// in\n    tag_287:\n        /* \"#utility.yul\":5233:5305   */\n      tag_288\n        /* \"#utility.yul\":5301:5303   */\n      0x60\n        /* \"#utility.yul\":5290:5299   */\n      dup4\n        /* \"#utility.yul\":5286:5304   */\n      add\n        /* \"#utility.yul\":5277:5283   */\n      dup9\n        /* \"#utility.yul\":5233:5305   */\n      tag_196\n      jump\t// in\n    tag_288:\n        /* \"#utility.yul\":5353:5362   */\n      dup2\n        /* \"#utility.yul\":5347:5351   */\n      dup2\n        /* \"#utility.yul\":5343:5363   */\n      sub\n        /* \"#utility.yul\":5337:5340   */\n      0x80\n        /* \"#utility.yul\":5326:5335   */\n      dup4\n        /* \"#utility.yul\":5322:5341   */\n      add\n        /* \"#utility.yul\":5315:5364   */\n      mstore\n        /* \"#utility.yul\":5381:5459   */\n      tag_289\n        /* \"#utility.yul\":5454:5458   */\n      dup2\n        /* \"#utility.yul\":5445:5451   */\n      dup8\n        /* \"#utility.yul\":5381:5459   */\n      tag_184\n      jump\t// in\n    tag_289:\n        /* \"#utility.yul\":5373:5459   */\n      swap1\n      pop\n        /* \"#utility.yul\":5469:5542   */\n      tag_290\n        /* \"#utility.yul\":5537:5540   */\n      0xa0\n        /* \"#utility.yul\":5526:5535   */\n      dup4\n        /* \"#utility.yul\":5522:5541   */\n      add\n        /* \"#utility.yul\":5513:5519   */\n      dup7\n        /* \"#utility.yul\":5469:5542   */\n      tag_193\n      jump\t// in\n    tag_290:\n        /* \"#utility.yul\":5552:5619   */\n      tag_291\n        /* \"#utility.yul\":5614:5617   */\n      0xc0\n        /* \"#utility.yul\":5603:5612   */\n      dup4\n        /* \"#utility.yul\":5599:5618   */\n      add\n        /* \"#utility.yul\":5590:5596   */\n      dup6\n        /* \"#utility.yul\":5552:5619   */\n      tag_192\n      jump\t// in\n    tag_291:\n        /* \"#utility.yul\":5629:5702   */\n      tag_292\n        /* \"#utility.yul\":5697:5700   */\n      0xe0\n        /* \"#utility.yul\":5686:5695   */\n      dup4\n        /* \"#utility.yul\":5682:5701   */\n      add\n        /* \"#utility.yul\":5673:5679   */\n      dup5\n        /* \"#utility.yul\":5629:5702   */\n      tag_193\n      jump\t// in\n    tag_292:\n        /* \"#utility.yul\":4633:5709   */\n      swap10\n      swap9\n      pop\n      pop\n      pop\n      pop\n      pop\n      pop\n      pop\n      pop\n      pop\n      jump\t// out\n        /* \"#utility.yul\":5715:5837   */\n    tag_197:\n        /* \"#utility.yul\":5788:5812   */\n      tag_294\n        /* \"#utility.yul\":5806:5811   */\n      dup2\n        /* \"#utility.yul\":5788:5812   */\n      tag_195\n      jump\t// in\n    tag_294:\n        /* \"#utility.yul\":5781:5786   */\n      dup2\n        /* \"#utility.yul\":5778:5813   */\n      eq\n        /* \"#utility.yul\":5768:5831   */\n      tag_295\n      jumpi\n        /* \"#utility.yul\":5827:5828   */\n      0x00\n        /* \"#utility.yul\":5824:5825   */\n      dup1\n        /* \"#utility.yul\":5817:5829   */\n      revert\n        /* \"#utility.yul\":5768:5831   */\n    tag_295:\n        /* \"#utility.yul\":5715:5837   */\n      pop\n      jump\t// out\n        /* \"#utility.yul\":5843:5982   */\n    tag_198:\n        /* \"#utility.yul\":5889:5894   */\n      0x00\n        /* \"#utility.yul\":5927:5933   */\n      dup2\n        /* \"#utility.yul\":5914:5934   */\n      calldataload\n        /* \"#utility.yul\":5905:5934   */\n      swap1\n      pop\n        /* \"#utility.yul\":5943:5976   */\n      tag_297\n        /* \"#utility.yul\":5970:5975   */\n      dup2\n        /* \"#utility.yul\":5943:5976   */\n      tag_197\n      jump\t// in\n    tag_297:\n        /* \"#utility.yul\":5843:5982   */\n      swap3\n      swap2\n      pop\n      pop\n      jump\t// out\n        /* \"#utility.yul\":5988:6105   */\n    tag_199:\n        /* \"#utility.yul\":6097:6098   */\n      0x00\n        /* \"#utility.yul\":6094:6095   */\n      dup1\n        /* \"#utility.yul\":6087:6099   */\n      revert\n        /* \"#utility.yul\":6111:6228   */\n    tag_200:\n        /* \"#utility.yul\":6220:6221   */\n      0x00\n        /* \"#utility.yul\":6217:6218   */\n      dup1\n        /* \"#utility.yul\":6210:6222   */\n      revert\n        /* \"#utility.yul\":6234:6414   */\n    tag_111:\n        /* \"#utility.yul\":6282:6359   */\n      0x4e487b7100000000000000000000000000000000000000000000000000000000\n        /* \"#utility.yul\":6279:6280   */\n      0x00\n        /* \"#utility.yul\":6272:6360   */\n      mstore\n        /* \"#utility.yul\":6379:6383   */\n      0x41\n        /* \"#utility.yul\":6376:6377   */\n      0x04\n        /* \"#utility.yul\":6369:6384   */\n      mstore\n        /* \"#utility.yul\":6403:6407   */\n      0x24\n        /* \"#utility.yul\":6400:6401   */\n      0x00\n        /* \"#utility.yul\":6393:6408   */\n      revert\n        /* \"#utility.yul\":6420:6701   */\n    tag_201:\n        /* \"#utility.yul\":6503:6530   */\n      tag_302\n        /* \"#utility.yul\":6525:6529   */\n      dup3\n        /* \"#utility.yul\":6503:6530   */\n      tag_183\n      jump\t// in\n    tag_302:\n        /* \"#utility.yul\":6495:6501   */\n      dup2\n        /* \"#utility.yul\":6491:6531   */\n      add\n        /* \"#utility.yul\":6633:6639   */\n      dup2\n        /* \"#utility.yul\":6621:6631   */\n      dup2\n        /* \"#utility.yul\":6618:6640   */\n      lt\n        /* \"#utility.yul\":6597:6615   */\n      0xffffffffffffffff\n        /* \"#utility.yul\":6585:6595   */\n      dup3\n        /* \"#utility.yul\":6582:6616   */\n      gt\n        /* \"#utility.yul\":6579:6641   */\n      or\n        /* \"#utility.yul\":6576:6664   */\n      iszero\n      tag_303\n      jumpi\n        /* \"#utility.yul\":6644:6662   */\n      tag_304\n      tag_111\n      jump\t// in\n    tag_304:\n        /* \"#utility.yul\":6576:6664   */\n    tag_303:\n        /* \"#utility.yul\":6684:6694   */\n      dup1\n        /* \"#utility.yul\":6680:6682   */\n      0x40\n        /* \"#utility.yul\":6673:6695   */\n      mstore\n        /* \"#utility.yul\":6463:6701   */\n      pop\n        /* \"#utility.yul\":6420:6701   */\n      pop\n      pop\n      jump\t// out\n        /* \"#utility.yul\":6707:6836   */\n    tag_202:\n        /* \"#utility.yul\":6741:6747   */\n      0x00\n        /* \"#utility.yul\":6768:6788   */\n      tag_306\n      tag_185\n      jump\t// in\n    tag_306:\n        /* \"#utility.yul\":6758:6788   */\n      swap1\n      pop\n        /* \"#utility.yul\":6797:6830   */\n      tag_307\n        /* \"#utility.yul\":6825:6829   */\n      dup3\n        /* \"#utility.yul\":6817:6823   */\n      dup3\n        /* \"#utility.yul\":6797:6830   */\n      tag_201\n      jump\t// in\n    tag_307:\n        /* \"#utility.yul\":6707:6836   */\n      swap2\n      swap1\n      pop\n      jump\t// out\n        /* \"#utility.yul\":6842:7150   */\n    tag_203:\n        /* \"#utility.yul\":6904:6908   */\n      0x00\n        /* \"#utility.yul\":6994:7012   */\n      0xffffffffffffffff\n        /* \"#utility.yul\":6986:6992   */\n      dup3\n        /* \"#utility.yul\":6983:7013   */\n      gt\n        /* \"#utility.yul\":6980:7036   */\n      iszero\n      tag_309\n      jumpi\n        /* \"#utility.yul\":7016:7034   */\n      tag_310\n      tag_111\n      jump\t// in\n    tag_310:\n        /* \"#utility.yul\":6980:7036   */\n    tag_309:\n        /* \"#utility.yul\":7054:7083   */\n      tag_311\n        /* \"#utility.yul\":7076:7082   */\n      dup3\n        /* \"#utility.yul\":7054:7083   */\n      tag_183\n      jump\t// in\n    tag_311:\n        /* \"#utility.yul\":7046:7083   */\n      swap1\n      pop\n        /* \"#utility.yul\":7138:7142   */\n      0x20\n        /* \"#utility.yul\":7132:7136   */\n      dup2\n        /* \"#utility.yul\":7128:7143   */\n      add\n        /* \"#utility.yul\":7120:7143   */\n      swap1\n      pop\n        /* \"#utility.yul\":6842:7150   */\n      swap2\n      swap1\n      pop\n      jump\t// out\n        /* \"#utility.yul\":7156:7302   */\n    tag_204:\n        /* \"#utility.yul\":7253:7259   */\n      dup3\n        /* \"#utility.yul\":7248:7251   */\n      dup2\n        /* \"#utility.yul\":7243:7246   */\n      dup4\n        /* \"#utility.yul\":7230:7260   */\n      calldatacopy\n        /* \"#utility.yul\":7294:7295   */\n      0x00\n        /* \"#utility.yul\":7285:7291   */\n      dup4\n        /* \"#utility.yul\":7280:7283   */\n      dup4\n        /* \"#utility.yul\":7276:7292   */\n      add\n        /* \"#utility.yul\":7269:7296   */\n      mstore\n        /* \"#utility.yul\":7156:7302   */\n      pop\n      pop\n      pop\n      jump\t// out\n        /* \"#utility.yul\":7308:7733   */\n    tag_205:\n        /* \"#utility.yul\":7386:7391   */\n      0x00\n        /* \"#utility.yul\":7411:7477   */\n      tag_314\n        /* \"#utility.yul\":7427:7476   */\n      tag_315\n        /* \"#utility.yul\":7469:7475   */\n      dup5\n        /* \"#utility.yul\":7427:7476   */\n      tag_203\n      jump\t// in\n    tag_315:\n        /* \"#utility.yul\":7411:7477   */\n      tag_202\n      jump\t// in\n    tag_314:\n        /* \"#utility.yul\":7402:7477   */\n      swap1\n      pop\n        /* \"#utility.yul\":7500:7506   */\n      dup3\n        /* \"#utility.yul\":7493:7498   */\n      dup2\n        /* \"#utility.yul\":7486:7507   */\n      mstore\n        /* \"#utility.yul\":7538:7542   */\n      0x20\n        /* \"#utility.yul\":7531:7536   */\n      dup2\n        /* \"#utility.yul\":7527:7543   */\n      add\n        /* \"#utility.yul\":7576:7579   */\n      dup5\n        /* \"#utility.yul\":7567:7573   */\n      dup5\n        /* \"#utility.yul\":7562:7565   */\n      dup5\n        /* \"#utility.yul\":7558:7574   */\n      add\n        /* \"#utility.yul\":7555:7580   */\n      gt\n        /* \"#utility.yul\":7552:7664   */\n      iszero\n      tag_316\n      jumpi\n        /* \"#utility.yul\":7583:7662   */\n      tag_317\n      tag_200\n      jump\t// in\n    tag_317:\n        /* \"#utility.yul\":7552:7664   */\n    tag_316:\n        /* \"#utility.yul\":7673:7727   */\n      tag_318\n        /* \"#utility.yul\":7720:7726   */\n      dup5\n        /* \"#utility.yul\":7715:7718   */\n      dup3\n        /* \"#utility.yul\":7710:7713   */\n      dup6\n        /* \"#utility.yul\":7673:7727   */\n      tag_204\n      jump\t// in\n    tag_318:\n        /* \"#utility.yul\":7392:7733   */\n      pop\n        /* \"#utility.yul\":7308:7733   */\n      swap4\n      swap3\n      pop\n      pop\n      pop\n      jump\t// out\n        /* \"#utility.yul\":7753:8093   */\n    tag_206:\n        /* \"#utility.yul\":7809:7814   */\n      0x00\n        /* \"#utility.yul\":7858:7861   */\n      dup3\n        /* \"#utility.yul\":7851:7855   */\n      0x1f\n        /* \"#utility.yul\":7843:7849   */\n      dup4\n        /* \"#utility.yul\":7839:7856   */\n      add\n        /* \"#utility.yul\":7835:7862   */\n      slt\n        /* \"#utility.yul\":7825:7947   */\n      tag_320\n      jumpi\n        /* \"#utility.yul\":7866:7945   */\n      tag_321\n      tag_199\n      jump\t// in\n    tag_321:\n        /* \"#utility.yul\":7825:7947   */\n    tag_320:\n        /* \"#utility.yul\":7983:7989   */\n      dup2\n        /* \"#utility.yul\":7970:7990   */\n      calldataload\n        /* \"#utility.yul\":8008:8087   */\n      tag_322\n        /* \"#utility.yul\":8083:8086   */\n      dup5\n        /* \"#utility.yul\":8075:8081   */\n      dup3\n        /* \"#utility.yul\":8068:8072   */\n      0x20\n        /* \"#utility.yul\":8060:8066   */\n      dup7\n        /* \"#utility.yul\":8056:8073   */\n      add\n        /* \"#utility.yul\":8008:8087   */\n      tag_205\n      jump\t// in\n    tag_322:\n        /* \"#utility.yul\":7999:8087   */\n      swap2\n      pop\n        /* \"#utility.yul\":7815:8093   */\n      pop\n        /* \"#utility.yul\":7753:8093   */\n      swap3\n      swap2\n      pop\n      pop\n      jump\t// out\n        /* \"#utility.yul\":8099:9370   */\n    tag_46:\n        /* \"#utility.yul\":8214:8220   */\n      0x00\n        /* \"#utility.yul\":8222:8228   */\n      dup1\n        /* \"#utility.yul\":8230:8236   */\n      0x00\n        /* \"#utility.yul\":8238:8244   */\n      dup1\n        /* \"#utility.yul\":8246:8252   */\n      0x00\n        /* \"#utility.yul\":8295:8298   */\n      0xa0\n        /* \"#utility.yul\":8283:8292   */\n      dup7\n        /* \"#utility.yul\":8274:8281   */\n      dup9\n        /* \"#utility.yul\":8270:8293   */\n      sub\n        /* \"#utility.yul\":8266:8299   */\n      slt\n        /* \"#utility.yul\":8263:8383   */\n      iszero\n      tag_324\n      jumpi\n        /* \"#utility.yul\":8302:8381   */\n      tag_325\n      tag_186\n      jump\t// in\n    tag_325:\n        /* \"#utility.yul\":8263:8383   */\n    tag_324:\n        /* \"#utility.yul\":8422:8423   */\n      0x00\n        /* \"#utility.yul\":8447:8500   */\n      tag_326\n        /* \"#utility.yul\":8492:8499   */\n      dup9\n        /* \"#utility.yul\":8483:8489   */\n      dup3\n        /* \"#utility.yul\":8472:8481   */\n      dup10\n        /* \"#utility.yul\":8468:8490   */\n      add\n        /* \"#utility.yul\":8447:8500   */\n      tag_198\n      jump\t// in\n    tag_326:\n        /* \"#utility.yul\":8437:8500   */\n      swap6\n      pop\n        /* \"#utility.yul\":8393:8510   */\n      pop\n        /* \"#utility.yul\":8549:8551   */\n      0x20\n        /* \"#utility.yul\":8575:8628   */\n      tag_327\n        /* \"#utility.yul\":8620:8627   */\n      dup9\n        /* \"#utility.yul\":8611:8617   */\n      dup3\n        /* \"#utility.yul\":8600:8609   */\n      dup10\n        /* \"#utility.yul\":8596:8618   */\n      add\n        /* \"#utility.yul\":8575:8628   */\n      tag_198\n      jump\t// in\n    tag_327:\n        /* \"#utility.yul\":8565:8628   */\n      swap5\n      pop\n        /* \"#utility.yul\":8520:8638   */\n      pop\n        /* \"#utility.yul\":8705:8707   */\n      0x40\n        /* \"#utility.yul\":8694:8703   */\n      dup7\n        /* \"#utility.yul\":8690:8708   */\n      add\n        /* \"#utility.yul\":8677:8709   */\n      calldataload\n        /* \"#utility.yul\":8736:8754   */\n      0xffffffffffffffff\n        /* \"#utility.yul\":8728:8734   */\n      dup2\n        /* \"#utility.yul\":8725:8755   */\n      gt\n        /* \"#utility.yul\":8722:8839   */\n      iszero\n      tag_328\n      jumpi\n        /* \"#utility.yul\":8758:8837   */\n      tag_329\n      tag_187\n      jump\t// in\n    tag_329:\n        /* \"#utility.yul\":8722:8839   */\n    tag_328:\n        /* \"#utility.yul\":8863:8926   */\n      tag_330\n        /* \"#utility.yul\":8918:8925   */\n      dup9\n        /* \"#utility.yul\":8909:8915   */\n      dup3\n        /* \"#utility.yul\":8898:8907   */\n      dup10\n        /* \"#utility.yul\":8894:8916   */\n      add\n        /* \"#utility.yul\":8863:8926   */\n      tag_206\n      jump\t// in\n    tag_330:\n        /* \"#utility.yul\":8853:8926   */\n      swap4\n      pop\n        /* \"#utility.yul\":8648:8936   */\n      pop\n        /* \"#utility.yul\":9003:9005   */\n      0x60\n        /* \"#utility.yul\":8992:9001   */\n      dup7\n        /* \"#utility.yul\":8988:9006   */\n      add\n        /* \"#utility.yul\":8975:9007   */\n      calldataload\n        /* \"#utility.yul\":9034:9052   */\n      0xffffffffffffffff\n        /* \"#utility.yul\":9026:9032   */\n      dup2\n        /* \"#utility.yul\":9023:9053   */\n      gt\n        /* \"#utility.yul\":9020:9137   */\n      iszero\n      tag_331\n      jumpi\n        /* \"#utility.yul\":9056:9135   */\n      tag_332\n      tag_187\n      jump\t// in\n    tag_332:\n        /* \"#utility.yul\":9020:9137   */\n    tag_331:\n        /* \"#utility.yul\":9161:9224   */\n      tag_333\n        /* \"#utility.yul\":9216:9223   */\n      dup9\n        /* \"#utility.yul\":9207:9213   */\n      dup3\n        /* \"#utility.yul\":9196:9205   */\n      dup10\n        /* \"#utility.yul\":9192:9214   */\n      add\n        /* \"#utility.yul\":9161:9224   */\n      tag_206\n      jump\t// in\n    tag_333:\n        /* \"#utility.yul\":9151:9224   */\n      swap3\n      pop\n        /* \"#utility.yul\":8946:9234   */\n      pop\n        /* \"#utility.yul\":9273:9276   */\n      0x80\n        /* \"#utility.yul\":9300:9353   */\n      tag_334\n        /* \"#utility.yul\":9345:9352   */\n      dup9\n        /* \"#utility.yul\":9336:9342   */\n      dup3\n        /* \"#utility.yul\":9325:9334   */\n      dup10\n        /* \"#utility.yul\":9321:9343   */\n      add\n        /* \"#utility.yul\":9300:9353   */\n      tag_190\n      jump\t// in\n    tag_334:\n        /* \"#utility.yul\":9290:9353   */\n      swap2\n      pop\n        /* \"#utility.yul\":9244:9363   */\n      pop\n        /* \"#utility.yul\":8099:9370   */\n      swap3\n      swap6\n      pop\n      swap3\n      swap6\n      swap1\n      swap4\n      pop\n      jump\t// out\n        /* \"#utility.yul\":9376:9490   */\n    tag_207:\n        /* \"#utility.yul\":9443:9449   */\n      0x00\n        /* \"#utility.yul\":9477:9482   */\n      dup2\n        /* \"#utility.yul\":9471:9483   */\n      mload\n        /* \"#utility.yul\":9461:9483   */\n      swap1\n      pop\n        /* \"#utility.yul\":9376:9490   */\n      swap2\n      swap1\n      pop\n      jump\t// out\n        /* \"#utility.yul\":9496:9680   */\n    tag_208:\n        /* \"#utility.yul\":9595:9606   */\n      0x00\n        /* \"#utility.yul\":9629:9635   */\n      dup3\n        /* \"#utility.yul\":9624:9627   */\n      dup3\n        /* \"#utility.yul\":9617:9636   */\n      mstore\n        /* \"#utility.yul\":9669:9673   */\n      0x20\n        /* \"#utility.yul\":9664:9667   */\n      dup3\n        /* \"#utility.yul\":9660:9674   */\n      add\n        /* \"#utility.yul\":9645:9674   */\n      swap1\n      pop\n        /* \"#utility.yul\":9496:9680   */\n      swap3\n      swap2\n      pop\n      pop\n      jump\t// out\n        /* \"#utility.yul\":9686:9818   */\n    tag_209:\n        /* \"#utility.yul\":9753:9757   */\n      0x00\n        /* \"#utility.yul\":9776:9779   */\n      dup2\n        /* \"#utility.yul\":9768:9779   */\n      swap1\n      pop\n        /* \"#utility.yul\":9806:9810   */\n      0x20\n        /* \"#utility.yul\":9801:9804   */\n      dup3\n        /* \"#utility.yul\":9797:9811   */\n      add\n        /* \"#utility.yul\":9789:9811   */\n      swap1\n      pop\n        /* \"#utility.yul\":9686:9818   */\n      swap2\n      swap1\n      pop\n      jump\t// out\n        /* \"#utility.yul\":9824:9932   */\n    tag_210:\n        /* \"#utility.yul\":9901:9925   */\n      tag_339\n        /* \"#utility.yul\":9919:9924   */\n      dup2\n        /* \"#utility.yul\":9901:9925   */\n      tag_188\n      jump\t// in\n    tag_339:\n        /* \"#utility.yul\":9896:9899   */\n      dup3\n        /* \"#utility.yul\":9889:9926   */\n      mstore\n        /* \"#utility.yul\":9824:9932   */\n      pop\n      pop\n      jump\t// out\n        /* \"#utility.yul\":9938:10117   */\n    tag_211:\n        /* \"#utility.yul\":10007:10017   */\n      0x00\n        /* \"#utility.yul\":10028:10074   */\n      tag_341\n        /* \"#utility.yul\":10070:10073   */\n      dup4\n        /* \"#utility.yul\":10062:10068   */\n      dup4\n        /* \"#utility.yul\":10028:10074   */\n      tag_210\n      jump\t// in\n    tag_341:\n        /* \"#utility.yul\":10106:10110   */\n      0x20\n        /* \"#utility.yul\":10101:10104   */\n      dup4\n        /* \"#utility.yul\":10097:10111   */\n      add\n        /* \"#utility.yul\":10083:10111   */\n      swap1\n      pop\n        /* \"#utility.yul\":9938:10117   */\n      swap3\n      swap2\n      pop\n      pop\n      jump\t// out\n        /* \"#utility.yul\":10123:10236   */\n    tag_212:\n        /* \"#utility.yul\":10193:10197   */\n      0x00\n        /* \"#utility.yul\":10225:10229   */\n      0x20\n        /* \"#utility.yul\":10220:10223   */\n      dup3\n        /* \"#utility.yul\":10216:10230   */\n      add\n        /* \"#utility.yul\":10208:10230   */\n      swap1\n      pop\n        /* \"#utility.yul\":10123:10236   */\n      swap2\n      swap1\n      pop\n      jump\t// out\n        /* \"#utility.yul\":10272:11004   */\n    tag_213:\n        /* \"#utility.yul\":10391:10394   */\n      0x00\n        /* \"#utility.yul\":10420:10474   */\n      tag_344\n        /* \"#utility.yul\":10468:10473   */\n      dup3\n        /* \"#utility.yul\":10420:10474   */\n      tag_207\n      jump\t// in\n    tag_344:\n        /* \"#utility.yul\":10490:10576   */\n      tag_345\n        /* \"#utility.yul\":10569:10575   */\n      dup2\n        /* \"#utility.yul\":10564:10567   */\n      dup6\n        /* \"#utility.yul\":10490:10576   */\n      tag_208\n      jump\t// in\n    tag_345:\n        /* \"#utility.yul\":10483:10576   */\n      swap4\n      pop\n        /* \"#utility.yul\":10600:10656   */\n      tag_346\n        /* \"#utility.yul\":10650:10655   */\n      dup4\n        /* \"#utility.yul\":10600:10656   */\n      tag_209\n      jump\t// in\n    tag_346:\n        /* \"#utility.yul\":10679:10686   */\n      dup1\n        /* \"#utility.yul\":10710:10711   */\n      0x00\n        /* \"#utility.yul\":10695:10979   */\n    tag_347:\n        /* \"#utility.yul\":10720:10726   */\n      dup4\n        /* \"#utility.yul\":10717:10718   */\n      dup2\n        /* \"#utility.yul\":10714:10727   */\n      lt\n        /* \"#utility.yul\":10695:10979   */\n      iszero\n      tag_349\n      jumpi\n        /* \"#utility.yul\":10796:10802   */\n      dup2\n        /* \"#utility.yul\":10790:10803   */\n      mload\n        /* \"#utility.yul\":10823:10886   */\n      tag_350\n        /* \"#utility.yul\":10882:10885   */\n      dup9\n        /* \"#utility.yul\":10867:10880   */\n      dup3\n        /* \"#utility.yul\":10823:10886   */\n      tag_211\n      jump\t// in\n    tag_350:\n        /* \"#utility.yul\":10816:10886   */\n      swap8\n      pop\n        /* \"#utility.yul\":10909:10969   */\n      tag_351\n        /* \"#utility.yul\":10962:10968   */\n      dup4\n        /* \"#utility.yul\":10909:10969   */\n      tag_212\n      jump\t// in\n    tag_351:\n        /* \"#utility.yul\":10899:10969   */\n      swap3\n      pop\n        /* \"#utility.yul\":10755:10979   */\n      pop\n        /* \"#utility.yul\":10742:10743   */\n      0x01\n        /* \"#utility.yul\":10739:10740   */\n      dup2\n        /* \"#utility.yul\":10735:10744   */\n      add\n        /* \"#utility.yul\":10730:10744   */\n      swap1\n      pop\n        /* \"#utility.yul\":10695:10979   */\n      jump(tag_347)\n    tag_349:\n        /* \"#utility.yul\":10699:10713   */\n      pop\n        /* \"#utility.yul\":10995:10998   */\n      dup6\n        /* \"#utility.yul\":10988:10998   */\n      swap4\n      pop\n        /* \"#utility.yul\":10396:11004   */\n      pop\n      pop\n      pop\n        /* \"#utility.yul\":10272:11004   */\n      swap3\n      swap2\n      pop\n      pop\n      jump\t// out\n        /* \"#utility.yul\":11010:11383   */\n    tag_52:\n        /* \"#utility.yul\":11153:11157   */\n      0x00\n        /* \"#utility.yul\":11191:11193   */\n      0x20\n        /* \"#utility.yul\":11180:11189   */\n      dup3\n        /* \"#utility.yul\":11176:11194   */\n      add\n        /* \"#utility.yul\":11168:11194   */\n      swap1\n      pop\n        /* \"#utility.yul\":11240:11249   */\n      dup2\n        /* \"#utility.yul\":11234:11238   */\n      dup2\n        /* \"#utility.yul\":11230:11250   */\n      sub\n        /* \"#utility.yul\":11226:11227   */\n      0x00\n        /* \"#utility.yul\":11215:11224   */\n      dup4\n        /* \"#utility.yul\":11211:11228   */\n      add\n        /* \"#utility.yul\":11204:11251   */\n      mstore\n        /* \"#utility.yul\":11268:11376   */\n      tag_353\n        /* \"#utility.yul\":11371:11375   */\n      dup2\n        /* \"#utility.yul\":11362:11368   */\n      dup5\n        /* \"#utility.yul\":11268:11376   */\n      tag_213\n      jump\t// in\n    tag_353:\n        /* \"#utility.yul\":11260:11376   */\n      swap1\n      pop\n        /* \"#utility.yul\":11010:11383   */\n      swap3\n      swap2\n      pop\n      pop\n      jump\t// out\n        /* \"#utility.yul\":11389:11505   */\n    tag_214:\n        /* \"#utility.yul\":11459:11480   */\n      tag_355\n        /* \"#utility.yul\":11474:11479   */\n      dup2\n        /* \"#utility.yul\":11459:11480   */\n      tag_191\n      jump\t// in\n    tag_355:\n        /* \"#utility.yul\":11452:11457   */\n      dup2\n        /* \"#utility.yul\":11449:11481   */\n      eq\n        /* \"#utility.yul\":11439:11499   */\n      tag_356\n      jumpi\n        /* \"#utility.yul\":11495:11496   */\n      0x00\n        /* \"#utility.yul\":11492:11493   */\n      dup1\n        /* \"#utility.yul\":11485:11497   */\n      revert\n        /* \"#utility.yul\":11439:11499   */\n    tag_356:\n        /* \"#utility.yul\":11389:11505   */\n      pop\n      jump\t// out\n        /* \"#utility.yul\":11511:11644   */\n    tag_215:\n        /* \"#utility.yul\":11554:11559   */\n      0x00\n        /* \"#utility.yul\":11592:11598   */\n      dup2\n        /* \"#utility.yul\":11579:11599   */\n      calldataload\n        /* \"#utility.yul\":11570:11599   */\n      swap1\n      pop\n        /* \"#utility.yul\":11608:11638   */\n      tag_358\n        /* \"#utility.yul\":11632:11637   */\n      dup2\n        /* \"#utility.yul\":11608:11638   */\n      tag_214\n      jump\t// in\n    tag_358:\n        /* \"#utility.yul\":11511:11644   */\n      swap3\n      swap2\n      pop\n      pop\n      jump\t// out\n        /* \"#utility.yul\":11650:12881   */\n    tag_60:\n        /* \"#utility.yul\":11761:11767   */\n      0x00\n        /* \"#utility.yul\":11769:11775   */\n      dup1\n        /* \"#utility.yul\":11777:11783   */\n      0x00\n        /* \"#utility.yul\":11785:11791   */\n      dup1\n        /* \"#utility.yul\":11793:11799   */\n      0x00\n        /* \"#utility.yul\":11801:11807   */\n      dup1\n        /* \"#utility.yul\":11850:11853   */\n      0xc0\n        /* \"#utility.yul\":11838:11847   */\n      dup8\n        /* \"#utility.yul\":11829:11836   */\n      dup10\n        /* \"#utility.yul\":11825:11848   */\n      sub\n        /* \"#utility.yul\":11821:11854   */\n      slt\n        /* \"#utility.yul\":11818:11938   */\n      iszero\n      tag_360\n      jumpi\n        /* \"#utility.yul\":11857:11936   */\n      tag_361\n      tag_186\n      jump\t// in\n    tag_361:\n        /* \"#utility.yul\":11818:11938   */\n    tag_360:\n        /* \"#utility.yul\":11977:11978   */\n      0x00\n        /* \"#utility.yul\":12002:12055   */\n      tag_362\n        /* \"#utility.yul\":12047:12054   */\n      dup10\n        /* \"#utility.yul\":12038:12044   */\n      dup3\n        /* \"#utility.yul\":12027:12036   */\n      dup11\n        /* \"#utility.yul\":12023:12045   */\n      add\n        /* \"#utility.yul\":12002:12055   */\n      tag_190\n      jump\t// in\n    tag_362:\n        /* \"#utility.yul\":11992:12055   */\n      swap7\n      pop\n        /* \"#utility.yul\":11948:12065   */\n      pop\n        /* \"#utility.yul\":12104:12106   */\n      0x20\n        /* \"#utility.yul\":12130:12183   */\n      tag_363\n        /* \"#utility.yul\":12175:12182   */\n      dup10\n        /* \"#utility.yul\":12166:12172   */\n      dup3\n        /* \"#utility.yul\":12155:12164   */\n      dup11\n        /* \"#utility.yul\":12151:12173   */\n      add\n        /* \"#utility.yul\":12130:12183   */\n      tag_198\n      jump\t// in\n    tag_363:\n        /* \"#utility.yul\":12120:12183   */\n      swap6\n      pop\n        /* \"#utility.yul\":12075:12193   */\n      pop\n        /* \"#utility.yul\":12232:12234   */\n      0x40\n        /* \"#utility.yul\":12258:12311   */\n      tag_364\n        /* \"#utility.yul\":12303:12310   */\n      dup10\n        /* \"#utility.yul\":12294:12300   */\n      dup3\n        /* \"#utility.yul\":12283:12292   */\n      dup11\n        /* \"#utility.yul\":12279:12301   */\n      add\n        /* \"#utility.yul\":12258:12311   */\n      tag_198\n      jump\t// in\n    tag_364:\n        /* \"#utility.yul\":12248:12311   */\n      swap5\n      pop\n        /* \"#utility.yul\":12203:12321   */\n      pop\n        /* \"#utility.yul\":12388:12390   */\n      0x60\n        /* \"#utility.yul\":12377:12386   */\n      dup8\n        /* \"#utility.yul\":12373:12391   */\n      add\n        /* \"#utility.yul\":12360:12392   */\n      calldataload\n        /* \"#utility.yul\":12419:12437   */\n      0xffffffffffffffff\n        /* \"#utility.yul\":12411:12417   */\n      dup2\n        /* \"#utility.yul\":12408:12438   */\n      gt\n        /* \"#utility.yul\":12405:12522   */\n      iszero\n      tag_365\n      jumpi\n        /* \"#utility.yul\":12441:12520   */\n      tag_366\n      tag_187\n      jump\t// in\n    tag_366:\n        /* \"#utility.yul\":12405:12522   */\n    tag_365:\n        /* \"#utility.yul\":12546:12609   */\n      tag_367\n        /* \"#utility.yul\":12601:12608   */\n      dup10\n        /* \"#utility.yul\":12592:12598   */\n      dup3\n        /* \"#utility.yul\":12581:12590   */\n      dup11\n        /* \"#utility.yul\":12577:12599   */\n      add\n        /* \"#utility.yul\":12546:12609   */\n      tag_206\n      jump\t// in\n    tag_367:\n        /* \"#utility.yul\":12536:12609   */\n      swap4\n      pop\n        /* \"#utility.yul\":12331:12619   */\n      pop\n        /* \"#utility.yul\":12658:12661   */\n      0x80\n        /* \"#utility.yul\":12685:12738   */\n      tag_368\n        /* \"#utility.yul\":12730:12737   */\n      dup10\n        /* \"#utility.yul\":12721:12727   */\n      dup3\n        /* \"#utility.yul\":12710:12719   */\n      dup11\n        /* \"#utility.yul\":12706:12728   */\n      add\n        /* \"#utility.yul\":12685:12738   */\n      tag_190\n      jump\t// in\n    tag_368:\n        /* \"#utility.yul\":12675:12738   */\n      swap3\n      pop\n        /* \"#utility.yul\":12629:12748   */\n      pop\n        /* \"#utility.yul\":12787:12790   */\n      0xa0\n        /* \"#utility.yul\":12814:12864   */\n      tag_369\n        /* \"#utility.yul\":12856:12863   */\n      dup10\n        /* \"#utility.yul\":12847:12853   */\n      dup3\n        /* \"#utility.yul\":12836:12845   */\n      dup11\n        /* \"#utility.yul\":12832:12854   */\n      add\n        /* \"#utility.yul\":12814:12864   */\n      tag_215\n      jump\t// in\n    tag_369:\n        /* \"#utility.yul\":12804:12864   */\n      swap2\n      pop\n        /* \"#utility.yul\":12758:12874   */\n      pop\n        /* \"#utility.yul\":11650:12881   */\n      swap3\n      swap6\n      pop\n      swap3\n      swap6\n      pop\n      swap3\n      swap6\n      jump\t// out\n        /* \"#utility.yul\":12887:13500   */\n    tag_68:\n        /* \"#utility.yul\":12961:12967   */\n      0x00\n        /* \"#utility.yul\":12969:12975   */\n      dup1\n        /* \"#utility.yul\":12977:12983   */\n      0x00\n        /* \"#utility.yul\":13026:13028   */\n      0x60\n        /* \"#utility.yul\":13014:13023   */\n      dup5\n        /* \"#utility.yul\":13005:13012   */\n      dup7\n        /* \"#utility.yul\":13001:13024   */\n      sub\n        /* \"#utility.yul\":12997:13029   */\n      slt\n        /* \"#utility.yul\":12994:13113   */\n      iszero\n      tag_371\n      jumpi\n        /* \"#utility.yul\":13032:13111   */\n      tag_372\n      tag_186\n      jump\t// in\n    tag_372:\n        /* \"#utility.yul\":12994:13113   */\n    tag_371:\n        /* \"#utility.yul\":13152:13153   */\n      0x00\n        /* \"#utility.yul\":13177:13230   */\n      tag_373\n        /* \"#utility.yul\":13222:13229   */\n      dup7\n        /* \"#utility.yul\":13213:13219   */\n      dup3\n        /* \"#utility.yul\":13202:13211   */\n      dup8\n        /* \"#utility.yul\":13198:13220   */\n      add\n        /* \"#utility.yul\":13177:13230   */\n      tag_190\n      jump\t// in\n    tag_373:\n        /* \"#utility.yul\":13167:13230   */\n      swap4\n      pop\n        /* \"#utility.yul\":13123:13240   */\n      pop\n        /* \"#utility.yul\":13279:13281   */\n      0x20\n        /* \"#utility.yul\":13305:13355   */\n      tag_374\n        /* \"#utility.yul\":13347:13354   */\n      dup7\n        /* \"#utility.yul\":13338:13344   */\n      dup3\n        /* \"#utility.yul\":13327:13336   */\n      dup8\n        /* \"#utility.yul\":13323:13345   */\n      add\n        /* \"#utility.yul\":13305:13355   */\n      tag_215\n      jump\t// in\n    tag_374:\n        /* \"#utility.yul\":13295:13355   */\n      swap3\n      pop\n        /* \"#utility.yul\":13250:13365   */\n      pop\n        /* \"#utility.yul\":13404:13406   */\n      0x40\n        /* \"#utility.yul\":13430:13483   */\n      tag_375\n        /* \"#utility.yul\":13475:13482   */\n      dup7\n        /* \"#utility.yul\":13466:13472   */\n      dup3\n        /* \"#utility.yul\":13455:13464   */\n      dup8\n        /* \"#utility.yul\":13451:13473   */\n      add\n        /* \"#utility.yul\":13430:13483   */\n      tag_190\n      jump\t// in\n    tag_375:\n        /* \"#utility.yul\":13420:13483   */\n      swap2\n      pop\n        /* \"#utility.yul\":13375:13493   */\n      pop\n        /* \"#utility.yul\":12887:13500   */\n      swap3\n      pop\n      swap3\n      pop\n      swap3\n      jump\t// out\n        /* \"#utility.yul\":13506:13716   */\n    tag_71:\n        /* \"#utility.yul\":13593:13597   */\n      0x00\n        /* \"#utility.yul\":13631:13633   */\n      0x20\n        /* \"#utility.yul\":13620:13629   */\n      dup3\n        /* \"#utility.yul\":13616:13634   */\n      add\n        /* \"#utility.yul\":13608:13634   */\n      swap1\n      pop\n        /* \"#utility.yul\":13644:13709   */\n      tag_377\n        /* \"#utility.yul\":13706:13707   */\n      0x00\n        /* \"#utility.yul\":13695:13704   */\n      dup4\n        /* \"#utility.yul\":13691:13708   */\n      add\n        /* \"#utility.yul\":13682:13688   */\n      dup5\n        /* \"#utility.yul\":13644:13709   */\n      tag_192\n      jump\t// in\n    tag_377:\n        /* \"#utility.yul\":13506:13716   */\n      swap3\n      swap2\n      pop\n      pop\n      jump\t// out\n        /* \"#utility.yul\":13722:14469   */\n    tag_75:\n        /* \"#utility.yul\":13799:13805   */\n      0x00\n        /* \"#utility.yul\":13807:13813   */\n      dup1\n        /* \"#utility.yul\":13815:13821   */\n      0x00\n        /* \"#utility.yul\":13823:13829   */\n      dup1\n        /* \"#utility.yul\":13872:13875   */\n      0x80\n        /* \"#utility.yul\":13860:13869   */\n      dup6\n        /* \"#utility.yul\":13851:13858   */\n      dup8\n        /* \"#utility.yul\":13847:13870   */\n      sub\n        /* \"#utility.yul\":13843:13876   */\n      slt\n        /* \"#utility.yul\":13840:13960   */\n      iszero\n      tag_379\n      jumpi\n        /* \"#utility.yul\":13879:13958   */\n      tag_380\n      tag_186\n      jump\t// in\n    tag_380:\n        /* \"#utility.yul\":13840:13960   */\n    tag_379:\n        /* \"#utility.yul\":13999:14000   */\n      0x00\n        /* \"#utility.yul\":14024:14077   */\n      tag_381\n        /* \"#utility.yul\":14069:14076   */\n      dup8\n        /* \"#utility.yul\":14060:14066   */\n      dup3\n        /* \"#utility.yul\":14049:14058   */\n      dup9\n        /* \"#utility.yul\":14045:14067   */\n      add\n        /* \"#utility.yul\":14024:14077   */\n      tag_190\n      jump\t// in\n    tag_381:\n        /* \"#utility.yul\":14014:14077   */\n      swap5\n      pop\n        /* \"#utility.yul\":13970:14087   */\n      pop\n        /* \"#utility.yul\":14126:14128   */\n      0x20\n        /* \"#utility.yul\":14152:14202   */\n      tag_382\n        /* \"#utility.yul\":14194:14201   */\n      dup8\n        /* \"#utility.yul\":14185:14191   */\n      dup3\n        /* \"#utility.yul\":14174:14183   */\n      dup9\n        /* \"#utility.yul\":14170:14192   */\n      add\n        /* \"#utility.yul\":14152:14202   */\n      tag_215\n      jump\t// in\n    tag_382:\n        /* \"#utility.yul\":14142:14202   */\n      swap4\n      pop\n        /* \"#utility.yul\":14097:14212   */\n      pop\n        /* \"#utility.yul\":14251:14253   */\n      0x40\n        /* \"#utility.yul\":14277:14327   */\n      tag_383\n        /* \"#utility.yul\":14319:14326   */\n      dup8\n        /* \"#utility.yul\":14310:14316   */\n      dup3\n        /* \"#utility.yul\":14299:14308   */\n      dup9\n        /* \"#utility.yul\":14295:14317   */\n      add\n        /* \"#utility.yul\":14277:14327   */\n      tag_215\n      jump\t// in\n    tag_383:\n        /* \"#utility.yul\":14267:14327   */\n      swap3\n      pop\n        /* \"#utility.yul\":14222:14337   */\n      pop\n        /* \"#utility.yul\":14376:14378   */\n      0x60\n        /* \"#utility.yul\":14402:14452   */\n      tag_384\n        /* \"#utility.yul\":14444:14451   */\n      dup8\n        /* \"#utility.yul\":14435:14441   */\n      dup3\n        /* \"#utility.yul\":14424:14433   */\n      dup9\n        /* \"#utility.yul\":14420:14442   */\n      add\n        /* \"#utility.yul\":14402:14452   */\n      tag_215\n      jump\t// in\n    tag_384:\n        /* \"#utility.yul\":14392:14452   */\n      swap2\n      pop\n        /* \"#utility.yul\":14347:14462   */\n      pop\n        /* \"#utility.yul\":13722:14469   */\n      swap3\n      swap6\n      swap2\n      swap5\n      pop\n      swap3\n      pop\n      jump\t// out\n        /* \"#utility.yul\":14475:14655   */\n    tag_216:\n        /* \"#utility.yul\":14523:14600   */\n      0x4e487b7100000000000000000000000000000000000000000000000000000000\n        /* \"#utility.yul\":14520:14521   */\n      0x00\n        /* \"#utility.yul\":14513:14601   */\n      mstore\n        /* \"#utility.yul\":14620:14624   */\n      0x22\n        /* \"#utility.yul\":14617:14618   */\n      0x04\n        /* \"#utility.yul\":14610:14625   */\n      mstore\n        /* \"#utility.yul\":14644:14648   */\n      0x24\n        /* \"#utility.yul\":14641:14642   */\n      0x00\n        /* \"#utility.yul\":14634:14649   */\n      revert\n        /* \"#utility.yul\":14661:14981   */\n    tag_78:\n        /* \"#utility.yul\":14705:14711   */\n      0x00\n        /* \"#utility.yul\":14742:14743   */\n      0x02\n        /* \"#utility.yul\":14736:14740   */\n      dup3\n        /* \"#utility.yul\":14732:14744   */\n      div\n        /* \"#utility.yul\":14722:14744   */\n      swap1\n      pop\n        /* \"#utility.yul\":14789:14790   */\n      0x01\n        /* \"#utility.yul\":14783:14787   */\n      dup3\n        /* \"#utility.yul\":14779:14791   */\n      and\n        /* \"#utility.yul\":14810:14828   */\n      dup1\n        /* \"#utility.yul\":14800:14881   */\n      tag_387\n      jumpi\n        /* \"#utility.yul\":14866:14870   */\n      0x7f\n        /* \"#utility.yul\":14858:14864   */\n      dup3\n        /* \"#utility.yul\":14854:14871   */\n      and\n        /* \"#utility.yul\":14844:14871   */\n      swap2\n      pop\n        /* \"#utility.yul\":14800:14881   */\n    tag_387:\n        /* \"#utility.yul\":14928:14930   */\n      0x20\n        /* \"#utility.yul\":14920:14926   */\n      dup3\n        /* \"#utility.yul\":14917:14931   */\n      lt\n        /* \"#utility.yul\":14897:14915   */\n      dup2\n        /* \"#utility.yul\":14894:14932   */\n      sub\n        /* \"#utility.yul\":14891:14975   */\n      tag_388\n      jumpi\n        /* \"#utility.yul\":14947:14965   */\n      tag_389\n      tag_216\n      jump\t// in\n    tag_389:\n        /* \"#utility.yul\":14891:14975   */\n    tag_388:\n        /* \"#utility.yul\":14712:14981   */\n      pop\n        /* \"#utility.yul\":14661:14981   */\n      swap2\n      swap1\n      pop\n      jump\t// out\n        /* \"#utility.yul\":14987:15307   */\n    tag_86:\n        /* \"#utility.yul\":15102:15106   */\n      0x00\n        /* \"#utility.yul\":15140:15142   */\n      0x40\n        /* \"#utility.yul\":15129:15138   */\n      dup3\n        /* \"#utility.yul\":15125:15143   */\n      add\n        /* \"#utility.yul\":15117:15143   */\n      swap1\n      pop\n        /* \"#utility.yul\":15153:15224   */\n      tag_391\n        /* \"#utility.yul\":15221:15222   */\n      0x00\n        /* \"#utility.yul\":15210:15219   */\n      dup4\n        /* \"#utility.yul\":15206:15223   */\n      add\n        /* \"#utility.yul\":15197:15203   */\n      dup6\n        /* \"#utility.yul\":15153:15224   */\n      tag_193\n      jump\t// in\n    tag_391:\n        /* \"#utility.yul\":15234:15300   */\n      tag_392\n        /* \"#utility.yul\":15296:15298   */\n      0x20\n        /* \"#utility.yul\":15285:15294   */\n      dup4\n        /* \"#utility.yul\":15281:15299   */\n      add\n        /* \"#utility.yul\":15272:15278   */\n      dup5\n        /* \"#utility.yul\":15234:15300   */\n      tag_192\n      jump\t// in\n    tag_392:\n        /* \"#utility.yul\":14987:15307   */\n      swap4\n      swap3\n      pop\n      pop\n      pop\n      jump\t// out\n        /* \"#utility.yul\":15313:15493   */\n    tag_217:\n        /* \"#utility.yul\":15361:15438   */\n      0x4e487b7100000000000000000000000000000000000000000000000000000000\n        /* \"#utility.yul\":15358:15359   */\n      0x00\n        /* \"#utility.yul\":15351:15439   */\n      mstore\n        /* \"#utility.yul\":15458:15462   */\n      0x11\n        /* \"#utility.yul\":15455:15456   */\n      0x04\n        /* \"#utility.yul\":15448:15463   */\n      mstore\n        /* \"#utility.yul\":15482:15486   */\n      0x24\n        /* \"#utility.yul\":15479:15480   */\n      0x00\n        /* \"#utility.yul\":15472:15487   */\n      revert\n        /* \"#utility.yul\":15499:15732   */\n    tag_104:\n        /* \"#utility.yul\":15538:15541   */\n      0x00\n        /* \"#utility.yul\":15561:15585   */\n      tag_395\n        /* \"#utility.yul\":15579:15584   */\n      dup3\n        /* \"#utility.yul\":15561:15585   */\n      tag_188\n      jump\t// in\n    tag_395:\n        /* \"#utility.yul\":15552:15585   */\n      swap2\n      pop\n        /* \"#utility.yul\":15607:15673   */\n      0xffffffffffffffffffffffffffffffffffffffffffffffffffffffffffffffff\n        /* \"#utility.yul\":15600:15605   */\n      dup3\n        /* \"#utility.yul\":15597:15674   */\n      sub\n        /* \"#utility.yul\":15594:15697   */\n      tag_396\n      jumpi\n        /* \"#utility.yul\":15677:15695   */\n      tag_397\n      tag_217\n      jump\t// in\n    tag_397:\n        /* \"#utility.yul\":15594:15697   */\n    tag_396:\n        /* \"#utility.yul\":15724:15725   */\n      0x01\n        /* \"#utility.yul\":15717:15722   */\n      dup3\n        /* \"#utility.yul\":15713:15726   */\n      add\n        /* \"#utility.yul\":15706:15726   */\n      swap1\n      pop\n        /* \"#utility.yul\":15499:15732   */\n      swap2\n      swap1\n      pop\n      jump\t// out\n        /* \"#utility.yul\":15738:15879   */\n    tag_218:\n        /* \"#utility.yul\":15787:15791   */\n      0x00\n        /* \"#utility.yul\":15810:15813   */\n      dup2\n        /* \"#utility.yul\":15802:15813   */\n      swap1\n      pop\n        /* \"#utility.yul\":15833:15836   */\n      dup2\n        /* \"#utility.yul\":15830:15831   */\n      0x00\n        /* \"#utility.yul\":15823:15837   */\n      mstore\n        /* \"#utility.yul\":15867:15871   */\n      0x20\n        /* \"#utility.yul\":15864:15865   */\n      0x00\n        /* \"#utility.yul\":15854:15872   */\n      keccak256\n        /* \"#utility.yul\":15846:15872   */\n      swap1\n      pop\n        /* \"#utility.yul\":15738:15879   */\n      swap2\n      swap1\n      pop\n      jump\t// out\n        /* \"#utility.yul\":15885:15978   */\n    tag_219:\n        /* \"#utility.yul\":15922:15928   */\n      0x00\n        /* \"#utility.yul\":15969:15971   */\n      0x20\n        /* \"#utility.yul\":15964:15966   */\n      0x1f\n        /* \"#utility.yul\":15957:15962   */\n      dup4\n        /* \"#utility.yul\":15953:15967   */\n      add\n        /* \"#utility.yul\":15949:15972   */\n      div\n        /* \"#utility.yul\":15939:15972   */\n      swap1\n      pop\n        /* \"#utility.yul\":15885:15978   */\n      swap2\n      swap1\n      pop\n      jump\t// out\n        /* \"#utility.yul\":15984:16091   */\n    tag_220:\n        /* \"#utility.yul\":16028:16036   */\n      0x00\n        /* \"#utility.yul\":16078:16083   */\n      dup3\n        /* \"#utility.yul\":16072:16076   */\n      dup3\n        /* \"#utility.yul\":16068:16084   */\n      shl\n        /* \"#utility.yul\":16047:16084   */\n      swap1\n      pop\n        /* \"#utility.yul\":15984:16091   */\n      swap3\n      swap2\n      pop\n      pop\n      jump\t// out\n        /* \"#utility.yul\":16097:16490   */\n    tag_221:\n        /* \"#utility.yul\":16166:16172   */\n      0x00\n        /* \"#utility.yul\":16216:16217   */\n      0x08\n        /* \"#utility.yul\":16204:16214   */\n      dup4\n        /* \"#utility.yul\":16200:16218   */\n      mul\n        /* \"#utility.yul\":16239:16336   */\n      tag_402\n        /* \"#utility.yul\":16269:16335   */\n      0xffffffffffffffffffffffffffffffffffffffffffffffffffffffffffffffff\n        /* \"#utility.yul\":16258:16267   */\n      dup3\n        /* \"#utility.yul\":16239:16336   */\n      tag_220\n      jump\t// in\n    tag_402:\n        /* \"#utility.yul\":16357:16396   */\n      tag_403\n        /* \"#utility.yul\":16387:16395   */\n      dup7\n        /* \"#utility.yul\":16376:16385   */\n      dup4\n        /* \"#utility.yul\":16357:16396   */\n      tag_220\n      jump\t// in\n    tag_403:\n        /* \"#utility.yul\":16345:16396   */\n      swap6\n      pop\n        /* \"#utility.yul\":16429:16433   */\n      dup1\n        /* \"#utility.yul\":16425:16434   */\n      not\n        /* \"#utility.yul\":16418:16423   */\n      dup5\n        /* \"#utility.yul\":16414:16435   */\n      and\n        /* \"#utility.yul\":16405:16435   */\n      swap4\n      pop\n        /* \"#utility.yul\":16478:16482   */\n      dup1\n        /* \"#utility.yul\":16468:16476   */\n      dup7\n        /* \"#utility.yul\":16464:16483   */\n      and\n        /* \"#utility.yul\":16457:16462   */\n      dup5\n        /* \"#utility.yul\":16454:16484   */\n      or\n        /* \"#utility.yul\":16444:16484   */\n      swap3\n      pop\n        /* \"#utility.yul\":16173:16490   */\n      pop\n      pop\n        /* \"#utility.yul\":16097:16490   */\n      swap4\n      swap3\n      pop\n      pop\n      pop\n      jump\t// out\n        /* \"#utility.yul\":16496:16556   */\n    tag_222:\n        /* \"#utility.yul\":16524:16527   */\n      0x00\n        /* \"#utility.yul\":16545:16550   */\n      dup2\n        /* \"#utility.yul\":16538:16550   */\n      swap1\n      pop\n        /* \"#utility.yul\":16496:16556   */\n      swap2\n      swap1\n      pop\n      jump\t// out\n        /* \"#utility.yul\":16562:16704   */\n    tag_223:\n        /* \"#utility.yul\":16612:16621   */\n      0x00\n        /* \"#utility.yul\":16645:16698   */\n      tag_406\n        /* \"#utility.yul\":16663:16697   */\n      tag_407\n        /* \"#utility.yul\":16672:16696   */\n      tag_408\n        /* \"#utility.yul\":16690:16695   */\n      dup5\n        /* \"#utility.yul\":16672:16696   */\n      tag_188\n      jump\t// in\n    tag_408:\n        /* \"#utility.yul\":16663:16697   */\n      tag_222\n      jump\t// in\n    tag_407:\n        /* \"#utility.yul\":16645:16698   */\n      tag_188\n      jump\t// in\n    tag_406:\n        /* \"#utility.yul\":16632:16698   */\n      swap1\n      pop\n        /* \"#utility.yul\":16562:16704   */\n      swap2\n      swap1\n      pop\n      jump\t// out\n        /* \"#utility.yul\":16710:16785   */\n    tag_224:\n        /* \"#utility.yul\":16753:16756   */\n      0x00\n        /* \"#utility.yul\":16774:16779   */\n      dup2\n        /* \"#utility.yul\":16767:16779   */\n      swap1\n      pop\n        /* \"#utility.yul\":16710:16785   */\n      swap2\n      swap1\n      pop\n      jump\t// out\n        /* \"#utility.yul\":16791:17060   */\n    tag_225:\n        /* \"#utility.yul\":16901:16940   */\n      tag_411\n        /* \"#utility.yul\":16932:16939   */\n      dup4\n        /* \"#utility.yul\":16901:16940   */\n      tag_223\n      jump\t// in\n    tag_411:\n        /* \"#utility.yul\":16962:17053   */\n      tag_412\n        /* \"#utility.yul\":17011:17052   */\n      tag_413\n        /* \"#utility.yul\":17035:17051   */\n      dup3\n        /* \"#utility.yul\":17011:17052   */\n      tag_224\n      jump\t// in\n    tag_413:\n        /* \"#utility.yul\":17003:17009   */\n      dup5\n        /* \"#utility.yul\":16996:17000   */\n      dup5\n        /* \"#utility.yul\":16990:17001   */\n      sload\n        /* \"#utility.yul\":16962:17053   */\n      tag_221\n      jump\t// in\n    tag_412:\n        /* \"#utility.yul\":16956:16960   */\n      dup3\n        /* \"#utility.yul\":16949:17054   */\n      sstore\n        /* \"#utility.yul\":16867:17060   */\n      pop\n        /* \"#utility.yul\":16791:17060   */\n      pop\n      pop\n      pop\n      jump\t// out\n        /* \"#utility.yul\":17066:17139   */\n    tag_226:\n        /* \"#utility.yul\":17111:17114   */\n      0x00\n        /* \"#utility.yul\":17066:17139   */\n      swap1\n      jump\t// out\n        /* \"#utility.yul\":17145:17334   */\n    tag_227:\n        /* \"#utility.yul\":17222:17254   */\n      tag_416\n      tag_226\n      jump\t// in\n    tag_416:\n        /* \"#utility.yul\":17263:17328   */\n      tag_417\n        /* \"#utility.yul\":17321:17327   */\n      dup2\n        /* \"#utility.yul\":17313:17319   */\n      dup5\n        /* \"#utility.yul\":17307:17311   */\n      dup5\n        /* \"#utility.yul\":17263:17328   */\n      tag_225\n      jump\t// in\n    tag_417:\n        /* \"#utility.yul\":17198:17334   */\n      pop\n        /* \"#utility.yul\":17145:17334   */\n      pop\n      pop\n      jump\t// out\n        /* \"#utility.yul\":17340:17526   */\n    tag_228:\n        /* \"#utility.yul\":17400:17520   */\n    tag_419:\n        /* \"#utility.yul\":17417:17420   */\n      dup2\n        /* \"#utility.yul\":17410:17415   */\n      dup2\n        /* \"#utility.yul\":17407:17421   */\n      lt\n        /* \"#utility.yul\":17400:17520   */\n      iszero\n      tag_421\n      jumpi\n        /* \"#utility.yul\":17471:17510   */\n      tag_422\n        /* \"#utility.yul\":17508:17509   */\n      0x00\n        /* \"#utility.yul\":17501:17506   */\n      dup3\n        /* \"#utility.yul\":17471:17510   */\n      tag_227\n      jump\t// in\n    tag_422:\n        /* \"#utility.yul\":17444:17445   */\n      0x01\n        /* \"#utility.yul\":17437:17442   */\n      dup2\n        /* \"#utility.yul\":17433:17446   */\n      add\n        /* \"#utility.yul\":17424:17446   */\n      swap1\n      pop\n        /* \"#utility.yul\":17400:17520   */\n      jump(tag_419)\n    tag_421:\n        /* \"#utility.yul\":17340:17526   */\n      pop\n      pop\n      jump\t// out\n        /* \"#utility.yul\":17532:18075   */\n    tag_229:\n        /* \"#utility.yul\":17633:17635   */\n      0x1f\n        /* \"#utility.yul\":17628:17631   */\n      dup3\n        /* \"#utility.yul\":17625:17636   */\n      gt\n        /* \"#utility.yul\":17622:18068   */\n      iszero\n      tag_424\n      jumpi\n        /* \"#utility.yul\":17667:17705   */\n      tag_425\n        /* \"#utility.yul\":17699:17704   */\n      dup2\n        /* \"#utility.yul\":17667:17705   */\n      tag_218\n      jump\t// in\n    tag_425:\n        /* \"#utility.yul\":17751:17780   */\n      tag_426\n        /* \"#utility.yul\":17769:17779   */\n      dup5\n        /* \"#utility.yul\":17751:17780   */\n      tag_219\n      jump\t// in\n    tag_426:\n        /* \"#utility.yul\":17741:17749   */\n      dup2\n        /* \"#utility.yul\":17737:17781   */\n      add\n        /* \"#utility.yul\":17934:17936   */\n      0x20\n        /* \"#utility.yul\":17922:17932   */\n      dup6\n        /* \"#utility.yul\":17919:17937   */\n      lt\n        /* \"#utility.yul\":17916:17965   */\n      iszero\n      tag_427\n      jumpi\n        /* \"#utility.yul\":17955:17963   */\n      dup2\n        /* \"#utility.yul\":17940:17963   */\n      swap1\n      pop\n        /* \"#utility.yul\":17916:17965   */\n    tag_427:\n        /* \"#utility.yul\":17978:18058   */\n      tag_428\n        /* \"#utility.yul\":18034:18056   */\n      tag_429\n        /* \"#utility.yul\":18052:18055   */\n      dup6\n        /* \"#utility.yul\":18034:18056   */\n      tag_219\n      jump\t// in\n    tag_429:\n        /* \"#utility.yul\":18024:18032   */\n      dup4\n        /* \"#utility.yul\":18020:18057   */\n      add\n        /* \"#utility.yul\":18007:18018   */\n      dup3\n        /* \"#utility.yul\":17978:18058   */\n      tag_228\n      jump\t// in\n    tag_428:\n        /* \"#utility.yul\":17637:18068   */\n      pop\n      pop\n        /* \"#utility.yul\":17622:18068   */\n    tag_424:\n        /* \"#utility.yul\":17532:18075   */\n      pop\n      pop\n      pop\n      jump\t// out\n        /* \"#utility.yul\":18081:18198   */\n    tag_230:\n        /* \"#utility.yul\":18135:18143   */\n      0x00\n        /* \"#utility.yul\":18185:18190   */\n      dup3\n        /* \"#utility.yul\":18179:18183   */\n      dup3\n        /* \"#utility.yul\":18175:18191   */\n      shr\n        /* \"#utility.yul\":18154:18191   */\n      swap1\n      pop\n        /* \"#utility.yul\":18081:18198   */\n      swap3\n      swap2\n      pop\n      pop\n      jump\t// out\n        /* \"#utility.yul\":18204:18373   */\n    tag_231:\n        /* \"#utility.yul\":18248:18254   */\n      0x00\n        /* \"#utility.yul\":18281:18332   */\n      tag_432\n        /* \"#utility.yul\":18329:18330   */\n      0x00\n        /* \"#utility.yul\":18325:18331   */\n      not\n        /* \"#utility.yul\":18317:18322   */\n      dup5\n        /* \"#utility.yul\":18314:18315   */\n      0x08\n        /* \"#utility.yul\":18310:18323   */\n      mul\n        /* \"#utility.yul\":18281:18332   */\n      tag_230\n      jump\t// in\n    tag_432:\n        /* \"#utility.yul\":18277:18333   */\n      not\n        /* \"#utility.yul\":18362:18366   */\n      dup1\n        /* \"#utility.yul\":18356:18360   */\n      dup4\n        /* \"#utility.yul\":18352:18367   */\n      and\n        /* \"#utility.yul\":18342:18367   */\n      swap2\n      pop\n        /* \"#utility.yul\":18255:18373   */\n      pop\n        /* \"#utility.yul\":18204:18373   */\n      swap3\n      swap2\n      pop\n      pop\n      jump\t// out\n        /* \"#utility.yul\":18378:18673   */\n    tag_232:\n        /* \"#utility.yul\":18454:18458   */\n      0x00\n        /* \"#utility.yul\":18600:18629   */\n      tag_434\n        /* \"#utility.yul\":18625:18628   */\n      dup4\n        /* \"#utility.yul\":18619:18623   */\n      dup4\n        /* \"#utility.yul\":18600:18629   */\n      tag_231\n      jump\t// in\n    tag_434:\n        /* \"#utility.yul\":18592:18629   */\n      swap2\n      pop\n        /* \"#utility.yul\":18662:18665   */\n      dup3\n        /* \"#utility.yul\":18659:18660   */\n      0x02\n        /* \"#utility.yul\":18655:18666   */\n      mul\n        /* \"#utility.yul\":18649:18653   */\n      dup3\n        /* \"#utility.yul\":18646:18667   */\n      or\n        /* \"#utility.yul\":18638:18667   */\n      swap1\n      pop\n        /* \"#utility.yul\":18378:18673   */\n      swap3\n      swap2\n      pop\n      pop\n      jump\t// out\n        /* \"#utility.yul\":18678:20073   */\n    tag_106:\n        /* \"#utility.yul\":18795:18832   */\n      tag_436\n        /* \"#utility.yul\":18828:18831   */\n      dup3\n        /* \"#utility.yul\":18795:18832   */\n      tag_180\n      jump\t// in\n    tag_436:\n        /* \"#utility.yul\":18897:18915   */\n      0xffffffffffffffff\n        /* \"#utility.yul\":18889:18895   */\n      dup2\n        /* \"#utility.yul\":18886:18916   */\n      gt\n        /* \"#utility.yul\":18883:18939   */\n      iszero\n      tag_437\n      jumpi\n        /* \"#utility.yul\":18919:18937   */\n      tag_438\n      tag_111\n      jump\t// in\n    tag_438:\n        /* \"#utility.yul\":18883:18939   */\n    tag_437:\n        /* \"#utility.yul\":18963:19001   */\n      tag_439\n        /* \"#utility.yul\":18995:18999   */\n      dup3\n        /* \"#utility.yul\":18989:19000   */\n      sload\n        /* \"#utility.yul\":18963:19001   */\n      tag_78\n      jump\t// in\n    tag_439:\n        /* \"#utility.yul\":19048:19115   */\n      tag_440\n        /* \"#utility.yul\":19108:19114   */\n      dup3\n        /* \"#utility.yul\":19100:19106   */\n      dup3\n        /* \"#utility.yul\":19094:19098   */\n      dup6\n        /* \"#utility.yul\":19048:19115   */\n      tag_229\n      jump\t// in\n    tag_440:\n        /* \"#utility.yul\":19142:19143   */\n      0x00\n        /* \"#utility.yul\":19166:19170   */\n      0x20\n        /* \"#utility.yul\":19153:19170   */\n      swap1\n      pop\n        /* \"#utility.yul\":19198:19200   */\n      0x1f\n        /* \"#utility.yul\":19190:19196   */\n      dup4\n        /* \"#utility.yul\":19187:19201   */\n      gt\n        /* \"#utility.yul\":19215:19216   */\n      0x01\n        /* \"#utility.yul\":19210:19828   */\n      dup2\n      eq\n      tag_442\n      jumpi\n        /* \"#utility.yul\":19872:19873   */\n      0x00\n        /* \"#utility.yul\":19889:19895   */\n      dup5\n        /* \"#utility.yul\":19886:19963   */\n      iszero\n      tag_443\n      jumpi\n        /* \"#utility.yul\":19938:19947   */\n      dup3\n        /* \"#utility.yul\":19933:19936   */\n      dup8\n        /* \"#utility.yul\":19929:19948   */\n      add\n        /* \"#utility.yul\":19923:19949   */\n      mload\n        /* \"#utility.yul\":19914:19949   */\n      swap1\n      pop\n        /* \"#utility.yul\":19886:19963   */\n    tag_443:\n        /* \"#utility.yul\":19989:20056   */\n      tag_444\n        /* \"#utility.yul\":20049:20055   */\n      dup6\n        /* \"#utility.yul\":20042:20047   */\n      dup3\n        /* \"#utility.yul\":19989:20056   */\n      tag_232\n      jump\t// in\n    tag_444:\n        /* \"#utility.yul\":19983:19987   */\n      dup7\n        /* \"#utility.yul\":19976:20057   */\n      sstore\n        /* \"#utility.yul\":19845:20067   */\n      pop\n        /* \"#utility.yul\":19180:20067   */\n      jump(tag_441)\n        /* \"#utility.yul\":19210:19828   */\n    tag_442:\n        /* \"#utility.yul\":19262:19266   */\n      0x1f\n        /* \"#utility.yul\":19258:19267   */\n      not\n        /* \"#utility.yul\":19250:19256   */\n      dup5\n        /* \"#utility.yul\":19246:19268   */\n      and\n        /* \"#utility.yul\":19296:19333   */\n      tag_445\n        /* \"#utility.yul\":19328:19332   */\n      dup7\n        /* \"#utility.yul\":19296:19333   */\n      tag_218\n      jump\t// in\n    tag_445:\n        /* \"#utility.yul\":19355:19356   */\n      0x00\n        /* \"#utility.yul\":19369:19577   */\n    tag_446:\n        /* \"#utility.yul\":19383:19390   */\n      dup3\n        /* \"#utility.yul\":19380:19381   */\n      dup2\n        /* \"#utility.yul\":19377:19391   */\n      lt\n        /* \"#utility.yul\":19369:19577   */\n      iszero\n      tag_448\n      jumpi\n        /* \"#utility.yul\":19462:19471   */\n      dup5\n        /* \"#utility.yul\":19457:19460   */\n      dup10\n        /* \"#utility.yul\":19453:19472   */\n      add\n        /* \"#utility.yul\":19447:19473   */\n      mload\n        /* \"#utility.yul\":19439:19445   */\n      dup3\n        /* \"#utility.yul\":19432:19474   */\n      sstore\n        /* \"#utility.yul\":19513:19514   */\n      0x01\n        /* \"#utility.yul\":19505:19511   */\n      dup3\n        /* \"#utility.yul\":19501:19515   */\n      add\n        /* \"#utility.yul\":19491:19515   */\n      swap2\n      pop\n        /* \"#utility.yul\":19560:19562   */\n      0x20\n        /* \"#utility.yul\":19549:19558   */\n      dup6\n        /* \"#utility.yul\":19545:19563   */\n      add\n        /* \"#utility.yul\":19532:19563   */\n      swap5\n      pop\n        /* \"#utility.yul\":19406:19410   */\n      0x20\n        /* \"#utility.yul\":19403:19404   */\n      dup2\n        /* \"#utility.yul\":19399:19411   */\n      add\n        /* \"#utility.yul\":19394:19411   */\n      swap1\n      pop\n        /* \"#utility.yul\":19369:19577   */\n      jump(tag_446)\n    tag_448:\n        /* \"#utility.yul\":19605:19611   */\n      dup7\n        /* \"#utility.yul\":19596:19603   */\n      dup4\n        /* \"#utility.yul\":19593:19612   */\n      lt\n        /* \"#utility.yul\":19590:19769   */\n      iszero\n      tag_449\n      jumpi\n        /* \"#utility.yul\":19663:19672   */\n      dup5\n        /* \"#utility.yul\":19658:19661   */\n      dup10\n        /* \"#utility.yul\":19654:19673   */\n      add\n        /* \"#utility.yul\":19648:19674   */\n      mload\n        /* \"#utility.yul\":19706:19754   */\n      tag_450\n        /* \"#utility.yul\":19748:19752   */\n      0x1f\n        /* \"#utility.yul\":19740:19746   */\n      dup10\n        /* \"#utility.yul\":19736:19753   */\n      and\n        /* \"#utility.yul\":19725:19734   */\n      dup3\n        /* \"#utility.yul\":19706:19754   */\n      tag_231\n      jump\t// in\n    tag_450:\n        /* \"#utility.yul\":19698:19704   */\n      dup4\n        /* \"#utility.yul\":19691:19755   */\n      sstore\n        /* \"#utility.yul\":19613:19769   */\n      pop\n        /* \"#utility.yul\":19590:19769   */\n    tag_449:\n        /* \"#utility.yul\":19815:19816   */\n      0x01\n        /* \"#utility.yul\":19811:19812   */\n      0x02\n        /* \"#utility.yul\":19803:19809   */\n      dup9\n        /* \"#utility.yul\":19799:19813   */\n      mul\n        /* \"#utility.yul\":19795:19817   */\n      add\n        /* \"#utility.yul\":19789:19793   */\n      dup9\n        /* \"#utility.yul\":19782:19818   */\n      sstore\n        /* \"#utility.yul\":19217:19828   */\n      pop\n      pop\n      pop\n        /* \"#utility.yul\":19180:20067   */\n    tag_441:\n      pop\n        /* \"#utility.yul\":18770:20073   */\n      pop\n      pop\n      pop\n        /* \"#utility.yul\":18678:20073   */\n      pop\n      pop\n      jump\t// out\n        /* \"#utility.yul\":20079:20259   */\n    tag_118:\n        /* \"#utility.yul\":20127:20204   */\n      0x4e487b7100000000000000000000000000000000000000000000000000000000\n        /* \"#utility.yul\":20124:20125   */\n      0x00\n        /* \"#utility.yul\":20117:20205   */\n      mstore\n        /* \"#utility.yul\":20224:20228   */\n      0x32\n        /* \"#utility.yul\":20221:20222   */\n      0x04\n        /* \"#utility.yul\":20214:20229   */\n      mstore\n        /* \"#utility.yul\":20248:20252   */\n      0x24\n        /* \"#utility.yul\":20245:20246   */\n      0x00\n        /* \"#utility.yul\":20238:20253   */\n      revert\n        /* \"#utility.yul\":20265:20597   */\n    tag_142:\n        /* \"#utility.yul\":20386:20390   */\n      0x00\n        /* \"#utility.yul\":20424:20426   */\n      0x40\n        /* \"#utility.yul\":20413:20422   */\n      dup3\n        /* \"#utility.yul\":20409:20427   */\n      add\n        /* \"#utility.yul\":20401:20427   */\n      swap1\n      pop\n        /* \"#utility.yul\":20437:20508   */\n      tag_453\n        /* \"#utility.yul\":20505:20506   */\n      0x00\n        /* \"#utility.yul\":20494:20503   */\n      dup4\n        /* \"#utility.yul\":20490:20507   */\n      add\n        /* \"#utility.yul\":20481:20487   */\n      dup6\n        /* \"#utility.yul\":20437:20508   */\n      tag_193\n      jump\t// in\n    tag_453:\n        /* \"#utility.yul\":20518:20590   */\n      tag_454\n        /* \"#utility.yul\":20586:20588   */\n      0x20\n        /* \"#utility.yul\":20575:20584   */\n      dup4\n        /* \"#utility.yul\":20571:20589   */\n      add\n        /* \"#utility.yul\":20562:20568   */\n      dup5\n        /* \"#utility.yul\":20518:20590   */\n      tag_193\n      jump\t// in\n    tag_454:\n        /* \"#utility.yul\":20265:20597   */\n      swap4\n      swap3\n      pop\n      pop\n      pop\n      jump\t// out\n        /* \"#utility.yul\":20603:21045   */\n    tag_170:\n        /* \"#utility.yul\":20752:20756   */\n      0x00\n        /* \"#utility.yul\":20790:20792   */\n      0x60\n        /* \"#utility.yul\":20779:20788   */\n      dup3\n        /* \"#utility.yul\":20775:20793   */\n      add\n        /* \"#utility.yul\":20767:20793   */\n      swap1\n      pop\n        /* \"#utility.yul\":20803:20874   */\n      tag_456\n        /* \"#utility.yul\":20871:20872   */\n      0x00\n        /* \"#utility.yul\":20860:20869   */\n      dup4\n        /* \"#utility.yul\":20856:20873   */\n      add\n        /* \"#utility.yul\":20847:20853   */\n      dup7\n        /* \"#utility.yul\":20803:20874   */\n      tag_193\n      jump\t// in\n    tag_456:\n        /* \"#utility.yul\":20884:20956   */\n      tag_457\n        /* \"#utility.yul\":20952:20954   */\n      0x20\n        /* \"#utility.yul\":20941:20950   */\n      dup4\n        /* \"#utility.yul\":20937:20955   */\n      add\n        /* \"#utility.yul\":20928:20934   */\n      dup6\n        /* \"#utility.yul\":20884:20956   */\n      tag_193\n      jump\t// in\n    tag_457:\n        /* \"#utility.yul\":20966:21038   */\n      tag_458\n        /* \"#utility.yul\":21034:21036   */\n      0x40\n        /* \"#utility.yul\":21023:21032   */\n      dup4\n        /* \"#utility.yul\":21019:21037   */\n      add\n        /* \"#utility.yul\":21010:21016   */\n      dup5\n        /* \"#utility.yul\":20966:21038   */\n      tag_196\n      jump\t// in\n    tag_458:\n        /* \"#utility.yul\":20603:21045   */\n      swap5\n      swap4\n      pop\n      pop\n      pop\n      pop\n      jump\t// out\n        /* \"#utility.yul\":21051:21273   */\n    tag_177:\n        /* \"#utility.yul\":21144:21148   */\n      0x00\n        /* \"#utility.yul\":21182:21184   */\n      0x20\n        /* \"#utility.yul\":21171:21180   */\n      dup3\n        /* \"#utility.yul\":21167:21185   */\n      add\n        /* \"#utility.yul\":21159:21185   */\n      swap1\n      pop\n        /* \"#utility.yul\":21195:21266   */\n      tag_460\n        /* \"#utility.yul\":21263:21264   */\n      0x00\n        /* \"#utility.yul\":21252:21261   */\n      dup4\n        /* \"#utility.yul\":21248:21265   */\n      add\n        /* \"#utility.yul\":21239:21245   */\n      dup5\n        /* \"#utility.yul\":21195:21266   */\n      tag_193\n      jump\t// in\n    tag_460:\n        /* \"#utility.yul\":21051:21273   */\n      swap3\n      swap2\n      pop\n      pop\n      jump\t// out\n\n    auxdata: 0xa26469706673582212208698cbf83dea53235204944866f296f75cc475736d311e1efad90e6f4ad7ecdb64736f6c63430008110033\n}\n",
				"bytecode": {
					"linkReferences": {},
					"object": "60806040523480156200001157600080fd5b506040518060400160405280601081526020017f436f6d467265652050726f746f636f6c000000000000000000000000000000008152506000908162000058919062000320565b506040518060400160405280600781526020017f436f6d6672656500000000000000000000000000000000000000000000000000815250600190816200009f919062000320565b5062000407565b600081519050919050565b7f4e487b7100000000000000000000000000000000000000000000000000000000600052604160045260246000fd5b7f4e487b7100000000000000000000000000000000000000000000000000000000600052602260045260246000fd5b600060028204905060018216806200012857607f821691505b6020821081036200013e576200013d620000e0565b5b50919050565b60008190508160005260206000209050919050565b60006020601f8301049050919050565b600082821b905092915050565b600060088302620001a87fffffffffffffffffffffffffffffffffffffffffffffffffffffffffffffffff8262000169565b620001b4868362000169565b95508019841693508086168417925050509392505050565b6000819050919050565b6000819050919050565b600062000201620001fb620001f584620001cc565b620001d6565b620001cc565b9050919050565b6000819050919050565b6200021d83620001e0565b620002356200022c8262000208565b84845462000176565b825550505050565b600090565b6200024c6200023d565b6200025981848462000212565b505050565b5b8181101562000281576200027560008262000242565b6001810190506200025f565b5050565b601f821115620002d0576200029a8162000144565b620002a58462000159565b81016020851015620002b5578190505b620002cd620002c48562000159565b8301826200025e565b50505b505050565b600082821c905092915050565b6000620002f560001984600802620002d5565b1980831691505092915050565b6000620003108383620002e2565b9150826002028217905092915050565b6200032b82620000a6565b67ffffffffffffffff811115620003475762000346620000b1565b5b6200035382546200010f565b6200036082828562000285565b600060209050601f83116001811462000398576000841562000383578287015190505b6200038f858262000302565b865550620003ff565b601f198416620003a88662000144565b60005b82811015620003d257848901518255600182019150602085019450602081019050620003ab565b86831015620003f25784890151620003ee601f891682620002e2565b8355505b6001600288020188555050505b505050505050565b611e1b80620004176000396000f3fe6080604052600436106100a75760003560e01c8063871457f611610064578063871457f6146101f057806395d89b411461021b578063b81c877b14610246578063dab62bed1461026f578063ef6cb5811461029a578063fb2bbcd3146102ca576100a7565b806306fdde03146100ac5780633ad1ce1f146100d757806353a68691146101005780635496623a14610140578063554d8bb6146101835780635e230c90146101c7575b600080fd5b3480156100b857600080fd5b506100c16102f3565b6040516100ce91906112d4565b60405180910390f35b3480156100e357600080fd5b506100fe60048036038101906100f99190611340565b610381565b005b34801561010c57600080fd5b5061012760048036038101906101229190611340565b6104d6565b6040516101379493929190611388565b60405180910390f35b34801561014c57600080fd5b5061016760048036038101906101629190611340565b61053a565b60405161017a979695949392919061141d565b60405180910390f35b34801561018f57600080fd5b506101aa60048036038101906101a59190611340565b6106d9565b6040516101be98979695949392919061149a565b60405180910390f35b3480156101d357600080fd5b506101ee60048036038101906101e99190611680565b6107f6565b005b3480156101fc57600080fd5b5061020561097c565b60405161021291906117f1565b60405180910390f35b34801561022757600080fd5b50610230610ae5565b60405161023d91906112d4565b60405180910390f35b34801561025257600080fd5b5061026d6004803603810190610268919061183f565b610b73565b005b34801561027b57600080fd5b50610284610d91565b60405161029191906117f1565b60405180910390f35b6102b460048036038101906102af91906118e8565b610f2a565b6040516102c1919061193b565b60405180910390f35b3480156102d657600080fd5b506102f160048036038101906102ec9190611956565b61104b565b005b60008054610300906119ec565b80601f016020809104026020016040519081016040528092919081815260200182805461032c906119ec565b80156103795780601f1061034e57610100808354040283529160200191610379565b820191906000526020600020905b81548152906001019060200180831161035c57829003601f168201915b505050505081565b60006003600083815260200190815260200160002060060160009054906101000a900460ff16905060011515811515146103ba57600080fd5b60006004600084815260200190815260200160002060000160006101000a81548160ff02191690831515021790555060006004600084815260200190815260200160002060000160016101000a81548160ff02191690831515021790555060006004600084815260200190815260200160002060000160026101000a81548160ff02191690831515021790555060006004600084815260200190815260200160002060000160036101000a81548160ff0219169083151502179055507f0985068d1545f3a3582c605476bc5fe6aaf9acc51845acef22cb74694222ea2e826004600085815260200190815260200160002060000160009054906101000a900460ff166040516104ca929190611a1d565b60405180910390a15050565b60046020528060005260406000206000915090508060000160009054906101000a900460ff16908060000160019054906101000a900460ff16908060000160029054906101000a900460ff16908060000160039054906101000a900460ff16905084565b60026020528060005260406000206000915090508060000154908060010160009054906101000a900473ffffffffffffffffffffffffffffffffffffffff16908060020160009054906101000a900473ffffffffffffffffffffffffffffffffffffffff16908060030180546105af906119ec565b80601f01602080910402602001604051908101604052809291908181526020018280546105db906119ec565b80156106285780601f106105fd57610100808354040283529160200191610628565b820191906000526020600020905b81548152906001019060200180831161060b57829003601f168201915b50505050509080600401805461063d906119ec565b80601f0160208091040260200160405190810160405280929190818152602001828054610669906119ec565b80156106b65780601f1061068b576101008083540402835291602001916106b6565b820191906000526020600020905b81548152906001019060200180831161069957829003601f168201915b5050505050908060050154908060060160009054906101000a900460ff16905087565b60036020528060005260406000206000915090508060000154908060010154908060020160009054906101000a900473ffffffffffffffffffffffffffffffffffffffff16908060030160009054906101000a900473ffffffffffffffffffffffffffffffffffffffff1690806004018054610754906119ec565b80601f0160208091040260200160405190810160405280929190818152602001828054610780906119ec565b80156107cd5780601f106107a2576101008083540402835291602001916107cd565b820191906000526020600020905b8154815290600101906020018083116107b057829003601f168201915b5050505050908060050154908060060160009054906101000a900460ff16908060070154905088565b6006600081548092919061080990611a75565b9190505550600654600260006006548152602001908152602001600020600001819055508360026000600654815260200190815260200160002060010160006101000a81548173ffffffffffffffffffffffffffffffffffffffff021916908373ffffffffffffffffffffffffffffffffffffffff1602179055508460026000600654815260200190815260200160002060020160006101000a81548173ffffffffffffffffffffffffffffffffffffffff021916908373ffffffffffffffffffffffffffffffffffffffff1602179055508260026000600654815260200190815260200160002060030190816109009190611c69565b508160026000600654815260200190815260200160002060040190816109269190611c69565b508060026000600654815260200190815260200160002060050181905550600060026000600654815260200190815260200160002060060160006101000a81548160ff0219169083151502179055505050505050565b6060600060085467ffffffffffffffff81111561099c5761099b611555565b5b6040519080825280602002602001820160405280156109ca5781602001602082028036833780820191505090505b509050600080600190505b6008548111610a35576003600082815260200190815260200160002060000154838381518110610a0857610a07611d3b565b5b6020026020010181815250508180610a1f90611a75565b9250508080610a2d90611a75565b9150506109d5565b5060008167ffffffffffffffff811115610a5257610a51611555565b5b604051908082528060200260200182016040528015610a805781602001602082028036833780820191505090505b50905060005b82811015610adb57838181518110610aa157610aa0611d3b565b5b6020026020010151828281518110610abc57610abb611d3b565b5b6020026020010181815250508080610ad390611a75565b915050610a86565b5080935050505090565b60018054610af2906119ec565b80601f0160208091040260200160405190810160405280929190818152602001828054610b1e906119ec565b8015610b6b5780601f10610b4057610100808354040283529160200191610b6b565b820191906000526020600020905b815481529060010190602001808311610b4e57829003601f168201915b505050505081565b8373ffffffffffffffffffffffffffffffffffffffff163373ffffffffffffffffffffffffffffffffffffffff1603610bab57600080fd5b60086000815480929190610bbe90611a75565b91905055506008546003600060085481526020019081526020016000206000018190555085600360006008548152602001908152602001600020600101819055508460036000600854815260200190815260200160002060020160006101000a81548173ffffffffffffffffffffffffffffffffffffffff021916908373ffffffffffffffffffffffffffffffffffffffff1602179055508360036000600854815260200190815260200160002060030160006101000a81548173ffffffffffffffffffffffffffffffffffffffff021916908373ffffffffffffffffffffffffffffffffffffffff160217905550826003600060085481526020019081526020016000206004019081610cd29190611c69565b5081600360006008548152602001908152602001600020600501819055508060036000600854815260200190815260200160002060060160006101000a81548160ff0219169083151502179055508373ffffffffffffffffffffffffffffffffffffffff168573ffffffffffffffffffffffffffffffffffffffff167fd7717a251aa6b58c031ecb17600f5fd443e3e40f6689d9c3ef687ce7f4b4e61660085485604051610d81929190611d6a565b60405180910390a3505050505050565b6060600060065467ffffffffffffffff811115610db157610db0611555565b5b604051908082528060200260200182016040528015610ddf5781602001602082028036833780820191505090505b509050600080600190505b6006548111610e7a57600015156002600083815260200190815260200160002060060160009054906101000a900460ff16151503610e67576002600082815260200190815260200160002060000154838381518110610e4c57610e4b611d3b565b5b6020026020010181815250508180610e6390611a75565b9250505b8080610e7290611a75565b915050610dea565b5060008167ffffffffffffffff811115610e9757610e96611555565b5b604051908082528060200260200182016040528015610ec55781602001602082028036833780820191505090505b50905060005b82811015610f2057838181518110610ee657610ee5611d3b565b5b6020026020010151828281518110610f0157610f00611d3b565b5b6020026020010181815250508080610f1890611a75565b915050610ecb565b5080935050505090565b6000826003600086815260200190815260200160002060060160006101000a81548160ff02191690831515021790555060016002600084815260200190815260200160002060060160006101000a81548160ff0219169083151502179055506003600085815260200190815260200160002060030160009054906101000a900473ffffffffffffffffffffffffffffffffffffffff1673ffffffffffffffffffffffffffffffffffffffff166108fc349081150290604051600060405180830381858888f19350505050158015611005573d6000803e3d6000fd5b507fcb229072cbcd1d5410a56504f86a872c0eac1578c7eb4463ec190b52d3b669e282343360405161103993929190611d93565b60405180910390a18290509392505050565b826004600086815260200190815260200160002060000160016101000a81548160ff021916908315150217905550816004600086815260200190815260200160002060000160026101000a81548160ff021916908315150217905550806004600086815260200190815260200160002060000160036101000a81548160ff021916908315150217905550600115156004600086815260200190815260200160002060000160019054906101000a900460ff1615151480156111335750600115156004600086815260200190815260200160002060000160029054906101000a900460ff161515145b80156111665750600115156004600086815260200190815260200160002060000160039054906101000a900460ff161515145b1561119b5760016004600086815260200190815260200160002060000160006101000a81548160ff0219169083151502179055505b600115156004600086815260200190815260200160002060000160009054906101000a900460ff16151503611206577fbed19c48ffbfb01ca0faa826d3e3844746b0628593a6c4aeea7290af66735d20846040516111f99190611dca565b60405180910390a161123e565b7f1f0c1db71d57570daa726bc2aa30a91e34f107443dfdbfc1bed51f3810ce362e846040516112359190611dca565b60405180910390a15b50505050565b600081519050919050565b600082825260208201905092915050565b60005b8381101561127e578082015181840152602081019050611263565b60008484015250505050565b6000601f19601f8301169050919050565b60006112a682611244565b6112b0818561124f565b93506112c0818560208601611260565b6112c98161128a565b840191505092915050565b600060208201905081810360008301526112ee818461129b565b905092915050565b6000604051905090565b600080fd5b600080fd5b6000819050919050565b61131d8161130a565b811461132857600080fd5b50565b60008135905061133a81611314565b92915050565b60006020828403121561135657611355611300565b5b60006113648482850161132b565b91505092915050565b60008115159050919050565b6113828161136d565b82525050565b600060808201905061139d6000830187611379565b6113aa6020830186611379565b6113b76040830185611379565b6113c46060830184611379565b95945050505050565b6113d68161130a565b82525050565b600073ffffffffffffffffffffffffffffffffffffffff82169050919050565b6000611407826113dc565b9050919050565b611417816113fc565b82525050565b600060e082019050611432600083018a6113cd565b61143f602083018961140e565b61144c604083018861140e565b818103606083015261145e818761129b565b90508181036080830152611472818661129b565b905061148160a08301856113cd565b61148e60c0830184611379565b98975050505050505050565b6000610100820190506114b0600083018b6113cd565b6114bd602083018a6113cd565b6114ca604083018961140e565b6114d7606083018861140e565b81810360808301526114e9818761129b565b90506114f860a08301866113cd565b61150560c0830185611379565b61151260e08301846113cd565b9998505050505050505050565b611528816113fc565b811461153357600080fd5b50565b6000813590506115458161151f565b92915050565b600080fd5b600080fd5b7f4e487b7100000000000000000000000000000000000000000000000000000000600052604160045260246000fd5b61158d8261128a565b810181811067ffffffffffffffff821117156115ac576115ab611555565b5b80604052505050565b60006115bf6112f6565b90506115cb8282611584565b919050565b600067ffffffffffffffff8211156115eb576115ea611555565b5b6115f48261128a565b9050602081019050919050565b82818337600083830152505050565b600061162361161e846115d0565b6115b5565b90508281526020810184848401111561163f5761163e611550565b5b61164a848285611601565b509392505050565b600082601f8301126116675761166661154b565b5b8135611677848260208601611610565b91505092915050565b600080600080600060a0868803121561169c5761169b611300565b5b60006116aa88828901611536565b95505060206116bb88828901611536565b945050604086013567ffffffffffffffff8111156116dc576116db611305565b5b6116e888828901611652565b935050606086013567ffffffffffffffff81111561170957611708611305565b5b61171588828901611652565b92505060806117268882890161132b565b9150509295509295909350565b600081519050919050565b600082825260208201905092915050565b6000819050602082019050919050565b6117688161130a565b82525050565b600061177a838361175f565b60208301905092915050565b6000602082019050919050565b600061179e82611733565b6117a8818561173e565b93506117b38361174f565b8060005b838110156117e45781516117cb888261176e565b97506117d683611786565b9250506001810190506117b7565b5085935050505092915050565b6000602082019050818103600083015261180b8184611793565b905092915050565b61181c8161136d565b811461182757600080fd5b50565b60008135905061183981611813565b92915050565b60008060008060008060c0878903121561185c5761185b611300565b5b600061186a89828a0161132b565b965050602061187b89828a01611536565b955050604061188c89828a01611536565b945050606087013567ffffffffffffffff8111156118ad576118ac611305565b5b6118b989828a01611652565b93505060806118ca89828a0161132b565b92505060a06118db89828a0161182a565b9150509295509295509295565b60008060006060848603121561190157611900611300565b5b600061190f8682870161132b565b93505060206119208682870161182a565b92505060406119318682870161132b565b9150509250925092565b60006020820190506119506000830184611379565b92915050565b600080600080608085870312156119705761196f611300565b5b600061197e8782880161132b565b945050602061198f8782880161182a565b93505060406119a08782880161182a565b92505060606119b18782880161182a565b91505092959194509250565b7f4e487b7100000000000000000000000000000000000000000000000000000000600052602260045260246000fd5b60006002820490506001821680611a0457607f821691505b602082108103611a1757611a166119bd565b5b50919050565b6000604082019050611a3260008301856113cd565b611a3f6020830184611379565b9392505050565b7f4e487b7100000000000000000000000000000000000000000000000000000000600052601160045260246000fd5b6000611a808261130a565b91507fffffffffffffffffffffffffffffffffffffffffffffffffffffffffffffffff8203611ab257611ab1611a46565b5b600182019050919050565b60008190508160005260206000209050919050565b60006020601f8301049050919050565b600082821b905092915050565b600060088302611b1f7fffffffffffffffffffffffffffffffffffffffffffffffffffffffffffffffff82611ae2565b611b298683611ae2565b95508019841693508086168417925050509392505050565b6000819050919050565b6000611b66611b61611b5c8461130a565b611b41565b61130a565b9050919050565b6000819050919050565b611b8083611b4b565b611b94611b8c82611b6d565b848454611aef565b825550505050565b600090565b611ba9611b9c565b611bb4818484611b77565b505050565b5b81811015611bd857611bcd600082611ba1565b600181019050611bba565b5050565b601f821115611c1d57611bee81611abd565b611bf784611ad2565b81016020851015611c06578190505b611c1a611c1285611ad2565b830182611bb9565b50505b505050565b600082821c905092915050565b6000611c4060001984600802611c22565b1980831691505092915050565b6000611c598383611c2f565b9150826002028217905092915050565b611c7282611244565b67ffffffffffffffff811115611c8b57611c8a611555565b5b611c9582546119ec565b611ca0828285611bdc565b600060209050601f831160018114611cd35760008415611cc1578287015190505b611ccb8582611c4d565b865550611d33565b601f198416611ce186611abd565b60005b82811015611d0957848901518255600182019150602085019450602081019050611ce4565b86831015611d265784890151611d22601f891682611c2f565b8355505b6001600288020188555050505b505050505050565b7f4e487b7100000000000000000000000000000000000000000000000000000000600052603260045260246000fd5b6000604082019050611d7f60008301856113cd565b611d8c60208301846113cd565b9392505050565b6000606082019050611da860008301866113cd565b611db560208301856113cd565b611dc2604083018461140e565b949350505050565b6000602082019050611ddf60008301846113cd565b9291505056fea26469706673582212208698cbf83dea53235204944866f296f75cc475736d311e1efad90e6f4ad7ecdb64736f6c63430008110033",
					"opcodes": "PUSH1 0x80 PUSH1 0x40 MSTORE CALLVALUE DUP1 ISZERO PUSH3 0x11 JUMPI PUSH1 0x0 DUP1 REVERT JUMPDEST POP PUSH1 0x40 MLOAD DUP1 PUSH1 0x40 ADD PUSH1 0x40 MSTORE DUP1 PUSH1 0x10 DUP2 MSTORE PUSH1 0x20 ADD PUSH32 0x436F6D467265652050726F746F636F6C00000000000000000000000000000000 DUP2 MSTORE POP PUSH1 0x0 SWAP1 DUP2 PUSH3 0x58 SWAP2 SWAP1 PUSH3 0x320 JUMP JUMPDEST POP PUSH1 0x40 MLOAD DUP1 PUSH1 0x40 ADD PUSH1 0x40 MSTORE DUP1 PUSH1 0x7 DUP2 MSTORE PUSH1 0x20 ADD PUSH32 0x436F6D6672656500000000000000000000000000000000000000000000000000 DUP2 MSTORE POP PUSH1 0x1 SWAP1 DUP2 PUSH3 0x9F SWAP2 SWAP1 PUSH3 0x320 JUMP JUMPDEST POP PUSH3 0x407 JUMP JUMPDEST PUSH1 0x0 DUP2 MLOAD SWAP1 POP SWAP2 SWAP1 POP JUMP JUMPDEST PUSH32 0x4E487B7100000000000000000000000000000000000000000000000000000000 PUSH1 0x0 MSTORE PUSH1 0x41 PUSH1 0x4 MSTORE PUSH1 0x24 PUSH1 0x0 REVERT JUMPDEST PUSH32 0x4E487B7100000000000000000000000000000000000000000000000000000000 PUSH1 0x0 MSTORE PUSH1 0x22 PUSH1 0x4 MSTORE PUSH1 0x24 PUSH1 0x0 REVERT JUMPDEST PUSH1 0x0 PUSH1 0x2 DUP3 DIV SWAP1 POP PUSH1 0x1 DUP3 AND DUP1 PUSH3 0x128 JUMPI PUSH1 0x7F DUP3 AND SWAP2 POP JUMPDEST PUSH1 0x20 DUP3 LT DUP2 SUB PUSH3 0x13E JUMPI PUSH3 0x13D PUSH3 0xE0 JUMP JUMPDEST JUMPDEST POP SWAP2 SWAP1 POP JUMP JUMPDEST PUSH1 0x0 DUP2 SWAP1 POP DUP2 PUSH1 0x0 MSTORE PUSH1 0x20 PUSH1 0x0 KECCAK256 SWAP1 POP SWAP2 SWAP1 POP JUMP JUMPDEST PUSH1 0x0 PUSH1 0x20 PUSH1 0x1F DUP4 ADD DIV SWAP1 POP SWAP2 SWAP1 POP JUMP JUMPDEST PUSH1 0x0 DUP3 DUP3 SHL SWAP1 POP SWAP3 SWAP2 POP POP JUMP JUMPDEST PUSH1 0x0 PUSH1 0x8 DUP4 MUL PUSH3 0x1A8 PUSH32 0xFFFFFFFFFFFFFFFFFFFFFFFFFFFFFFFFFFFFFFFFFFFFFFFFFFFFFFFFFFFFFFFF DUP3 PUSH3 0x169 JUMP JUMPDEST PUSH3 0x1B4 DUP7 DUP4 PUSH3 0x169 JUMP JUMPDEST SWAP6 POP DUP1 NOT DUP5 AND SWAP4 POP DUP1 DUP7 AND DUP5 OR SWAP3 POP POP POP SWAP4 SWAP3 POP POP POP JUMP JUMPDEST PUSH1 0x0 DUP2 SWAP1 POP SWAP2 SWAP1 POP JUMP JUMPDEST PUSH1 0x0 DUP2 SWAP1 POP SWAP2 SWAP1 POP JUMP JUMPDEST PUSH1 0x0 PUSH3 0x201 PUSH3 0x1FB PUSH3 0x1F5 DUP5 PUSH3 0x1CC JUMP JUMPDEST PUSH3 0x1D6 JUMP JUMPDEST PUSH3 0x1CC JUMP JUMPDEST SWAP1 POP SWAP2 SWAP1 POP JUMP JUMPDEST PUSH1 0x0 DUP2 SWAP1 POP SWAP2 SWAP1 POP JUMP JUMPDEST PUSH3 0x21D DUP4 PUSH3 0x1E0 JUMP JUMPDEST PUSH3 0x235 PUSH3 0x22C DUP3 PUSH3 0x208 JUMP JUMPDEST DUP5 DUP5 SLOAD PUSH3 0x176 JUMP JUMPDEST DUP3 SSTORE POP POP POP POP JUMP JUMPDEST PUSH1 0x0 SWAP1 JUMP JUMPDEST PUSH3 0x24C PUSH3 0x23D JUMP JUMPDEST PUSH3 0x259 DUP2 DUP5 DUP5 PUSH3 0x212 JUMP JUMPDEST POP POP POP JUMP JUMPDEST JUMPDEST DUP2 DUP2 LT ISZERO PUSH3 0x281 JUMPI PUSH3 0x275 PUSH1 0x0 DUP3 PUSH3 0x242 JUMP JUMPDEST PUSH1 0x1 DUP2 ADD SWAP1 POP PUSH3 0x25F JUMP JUMPDEST POP POP JUMP JUMPDEST PUSH1 0x1F DUP3 GT ISZERO PUSH3 0x2D0 JUMPI PUSH3 0x29A DUP2 PUSH3 0x144 JUMP JUMPDEST PUSH3 0x2A5 DUP5 PUSH3 0x159 JUMP JUMPDEST DUP2 ADD PUSH1 0x20 DUP6 LT ISZERO PUSH3 0x2B5 JUMPI DUP2 SWAP1 POP JUMPDEST PUSH3 0x2CD PUSH3 0x2C4 DUP6 PUSH3 0x159 JUMP JUMPDEST DUP4 ADD DUP3 PUSH3 0x25E JUMP JUMPDEST POP POP JUMPDEST POP POP POP JUMP JUMPDEST PUSH1 0x0 DUP3 DUP3 SHR SWAP1 POP SWAP3 SWAP2 POP POP JUMP JUMPDEST PUSH1 0x0 PUSH3 0x2F5 PUSH1 0x0 NOT DUP5 PUSH1 0x8 MUL PUSH3 0x2D5 JUMP JUMPDEST NOT DUP1 DUP4 AND SWAP2 POP POP SWAP3 SWAP2 POP POP JUMP JUMPDEST PUSH1 0x0 PUSH3 0x310 DUP4 DUP4 PUSH3 0x2E2 JUMP JUMPDEST SWAP2 POP DUP3 PUSH1 0x2 MUL DUP3 OR SWAP1 POP SWAP3 SWAP2 POP POP JUMP JUMPDEST PUSH3 0x32B DUP3 PUSH3 0xA6 JUMP JUMPDEST PUSH8 0xFFFFFFFFFFFFFFFF DUP2 GT ISZERO PUSH3 0x347 JUMPI PUSH3 0x346 PUSH3 0xB1 JUMP JUMPDEST JUMPDEST PUSH3 0x353 DUP3 SLOAD PUSH3 0x10F JUMP JUMPDEST PUSH3 0x360 DUP3 DUP3 DUP6 PUSH3 0x285 JUMP JUMPDEST PUSH1 0x0 PUSH1 0x20 SWAP1 POP PUSH1 0x1F DUP4 GT PUSH1 0x1 DUP2 EQ PUSH3 0x398 JUMPI PUSH1 0x0 DUP5 ISZERO PUSH3 0x383 JUMPI DUP3 DUP8 ADD MLOAD SWAP1 POP JUMPDEST PUSH3 0x38F DUP6 DUP3 PUSH3 0x302 JUMP JUMPDEST DUP7 SSTORE POP PUSH3 0x3FF JUMP JUMPDEST PUSH1 0x1F NOT DUP5 AND PUSH3 0x3A8 DUP7 PUSH3 0x144 JUMP JUMPDEST PUSH1 0x0 JUMPDEST DUP3 DUP2 LT ISZERO PUSH3 0x3D2 JUMPI DUP5 DUP10 ADD MLOAD DUP3 SSTORE PUSH1 0x1 DUP3 ADD SWAP2 POP PUSH1 0x20 DUP6 ADD SWAP5 POP PUSH1 0x20 DUP2 ADD SWAP1 POP PUSH3 0x3AB JUMP JUMPDEST DUP7 DUP4 LT ISZERO PUSH3 0x3F2 JUMPI DUP5 DUP10 ADD MLOAD PUSH3 0x3EE PUSH1 0x1F DUP10 AND DUP3 PUSH3 0x2E2 JUMP JUMPDEST DUP4 SSTORE POP JUMPDEST PUSH1 0x1 PUSH1 0x2 DUP9 MUL ADD DUP9 SSTORE POP POP POP JUMPDEST POP POP POP POP POP POP JUMP JUMPDEST PUSH2 0x1E1B DUP1 PUSH3 0x417 PUSH1 0x0 CODECOPY PUSH1 0x0 RETURN INVALID PUSH1 0x80 PUSH1 0x40 MSTORE PUSH1 0x4 CALLDATASIZE LT PUSH2 0xA7 JUMPI PUSH1 0x0 CALLDATALOAD PUSH1 0xE0 SHR DUP1 PUSH4 0x871457F6 GT PUSH2 0x64 JUMPI DUP1 PUSH4 0x871457F6 EQ PUSH2 0x1F0 JUMPI DUP1 PUSH4 0x95D89B41 EQ PUSH2 0x21B JUMPI DUP1 PUSH4 0xB81C877B EQ PUSH2 0x246 JUMPI DUP1 PUSH4 0xDAB62BED EQ PUSH2 0x26F JUMPI DUP1 PUSH4 0xEF6CB581 EQ PUSH2 0x29A JUMPI DUP1 PUSH4 0xFB2BBCD3 EQ PUSH2 0x2CA JUMPI PUSH2 0xA7 JUMP JUMPDEST DUP1 PUSH4 0x6FDDE03 EQ PUSH2 0xAC JUMPI DUP1 PUSH4 0x3AD1CE1F EQ PUSH2 0xD7 JUMPI DUP1 PUSH4 0x53A68691 EQ PUSH2 0x100 JUMPI DUP1 PUSH4 0x5496623A EQ PUSH2 0x140 JUMPI DUP1 PUSH4 0x554D8BB6 EQ PUSH2 0x183 JUMPI DUP1 PUSH4 0x5E230C90 EQ PUSH2 0x1C7 JUMPI JUMPDEST PUSH1 0x0 DUP1 REVERT JUMPDEST CALLVALUE DUP1 ISZERO PUSH2 0xB8 JUMPI PUSH1 0x0 DUP1 REVERT JUMPDEST POP PUSH2 0xC1 PUSH2 0x2F3 JUMP JUMPDEST PUSH1 0x40 MLOAD PUSH2 0xCE SWAP2 SWAP1 PUSH2 0x12D4 JUMP JUMPDEST PUSH1 0x40 MLOAD DUP1 SWAP2 SUB SWAP1 RETURN JUMPDEST CALLVALUE DUP1 ISZERO PUSH2 0xE3 JUMPI PUSH1 0x0 DUP1 REVERT JUMPDEST POP PUSH2 0xFE PUSH1 0x4 DUP1 CALLDATASIZE SUB DUP2 ADD SWAP1 PUSH2 0xF9 SWAP2 SWAP1 PUSH2 0x1340 JUMP JUMPDEST PUSH2 0x381 JUMP JUMPDEST STOP JUMPDEST CALLVALUE DUP1 ISZERO PUSH2 0x10C JUMPI PUSH1 0x0 DUP1 REVERT JUMPDEST POP PUSH2 0x127 PUSH1 0x4 DUP1 CALLDATASIZE SUB DUP2 ADD SWAP1 PUSH2 0x122 SWAP2 SWAP1 PUSH2 0x1340 JUMP JUMPDEST PUSH2 0x4D6 JUMP JUMPDEST PUSH1 0x40 MLOAD PUSH2 0x137 SWAP5 SWAP4 SWAP3 SWAP2 SWAP1 PUSH2 0x1388 JUMP JUMPDEST PUSH1 0x40 MLOAD DUP1 SWAP2 SUB SWAP1 RETURN JUMPDEST CALLVALUE DUP1 ISZERO PUSH2 0x14C JUMPI PUSH1 0x0 DUP1 REVERT JUMPDEST POP PUSH2 0x167 PUSH1 0x4 DUP1 CALLDATASIZE SUB DUP2 ADD SWAP1 PUSH2 0x162 SWAP2 SWAP1 PUSH2 0x1340 JUMP JUMPDEST PUSH2 0x53A JUMP JUMPDEST PUSH1 0x40 MLOAD PUSH2 0x17A SWAP8 SWAP7 SWAP6 SWAP5 SWAP4 SWAP3 SWAP2 SWAP1 PUSH2 0x141D JUMP JUMPDEST PUSH1 0x40 MLOAD DUP1 SWAP2 SUB SWAP1 RETURN JUMPDEST CALLVALUE DUP1 ISZERO PUSH2 0x18F JUMPI PUSH1 0x0 DUP1 REVERT JUMPDEST POP PUSH2 0x1AA PUSH1 0x4 DUP1 CALLDATASIZE SUB DUP2 ADD SWAP1 PUSH2 0x1A5 SWAP2 SWAP1 PUSH2 0x1340 JUMP JUMPDEST PUSH2 0x6D9 JUMP JUMPDEST PUSH1 0x40 MLOAD PUSH2 0x1BE SWAP9 SWAP8 SWAP7 SWAP6 SWAP5 SWAP4 SWAP3 SWAP2 SWAP1 PUSH2 0x149A JUMP JUMPDEST PUSH1 0x40 MLOAD DUP1 SWAP2 SUB SWAP1 RETURN JUMPDEST CALLVALUE DUP1 ISZERO PUSH2 0x1D3 JUMPI PUSH1 0x0 DUP1 REVERT JUMPDEST POP PUSH2 0x1EE PUSH1 0x4 DUP1 CALLDATASIZE SUB DUP2 ADD SWAP1 PUSH2 0x1E9 SWAP2 SWAP1 PUSH2 0x1680 JUMP JUMPDEST PUSH2 0x7F6 JUMP JUMPDEST STOP JUMPDEST CALLVALUE DUP1 ISZERO PUSH2 0x1FC JUMPI PUSH1 0x0 DUP1 REVERT JUMPDEST POP PUSH2 0x205 PUSH2 0x97C JUMP JUMPDEST PUSH1 0x40 MLOAD PUSH2 0x212 SWAP2 SWAP1 PUSH2 0x17F1 JUMP JUMPDEST PUSH1 0x40 MLOAD DUP1 SWAP2 SUB SWAP1 RETURN JUMPDEST CALLVALUE DUP1 ISZERO PUSH2 0x227 JUMPI PUSH1 0x0 DUP1 REVERT JUMPDEST POP PUSH2 0x230 PUSH2 0xAE5 JUMP JUMPDEST PUSH1 0x40 MLOAD PUSH2 0x23D SWAP2 SWAP1 PUSH2 0x12D4 JUMP JUMPDEST PUSH1 0x40 MLOAD DUP1 SWAP2 SUB SWAP1 RETURN JUMPDEST CALLVALUE DUP1 ISZERO PUSH2 0x252 JUMPI PUSH1 0x0 DUP1 REVERT JUMPDEST POP PUSH2 0x26D PUSH1 0x4 DUP1 CALLDATASIZE SUB DUP2 ADD SWAP1 PUSH2 0x268 SWAP2 SWAP1 PUSH2 0x183F JUMP JUMPDEST PUSH2 0xB73 JUMP JUMPDEST STOP JUMPDEST CALLVALUE DUP1 ISZERO PUSH2 0x27B JUMPI PUSH1 0x0 DUP1 REVERT JUMPDEST POP PUSH2 0x284 PUSH2 0xD91 JUMP JUMPDEST PUSH1 0x40 MLOAD PUSH2 0x291 SWAP2 SWAP1 PUSH2 0x17F1 JUMP JUMPDEST PUSH1 0x40 MLOAD DUP1 SWAP2 SUB SWAP1 RETURN JUMPDEST PUSH2 0x2B4 PUSH1 0x4 DUP1 CALLDATASIZE SUB DUP2 ADD SWAP1 PUSH2 0x2AF SWAP2 SWAP1 PUSH2 0x18E8 JUMP JUMPDEST PUSH2 0xF2A JUMP JUMPDEST PUSH1 0x40 MLOAD PUSH2 0x2C1 SWAP2 SWAP1 PUSH2 0x193B JUMP JUMPDEST PUSH1 0x40 MLOAD DUP1 SWAP2 SUB SWAP1 RETURN JUMPDEST CALLVALUE DUP1 ISZERO PUSH2 0x2D6 JUMPI PUSH1 0x0 DUP1 REVERT JUMPDEST POP PUSH2 0x2F1 PUSH1 0x4 DUP1 CALLDATASIZE SUB DUP2 ADD SWAP1 PUSH2 0x2EC SWAP2 SWAP1 PUSH2 0x1956 JUMP JUMPDEST PUSH2 0x104B JUMP JUMPDEST STOP JUMPDEST PUSH1 0x0 DUP1 SLOAD PUSH2 0x300 SWAP1 PUSH2 0x19EC JUMP JUMPDEST DUP1 PUSH1 0x1F ADD PUSH1 0x20 DUP1 SWAP2 DIV MUL PUSH1 0x20 ADD PUSH1 0x40 MLOAD SWAP1 DUP2 ADD PUSH1 0x40 MSTORE DUP1 SWAP3 SWAP2 SWAP1 DUP2 DUP2 MSTORE PUSH1 0x20 ADD DUP3 DUP1 SLOAD PUSH2 0x32C SWAP1 PUSH2 0x19EC JUMP JUMPDEST DUP1 ISZERO PUSH2 0x379 JUMPI DUP1 PUSH1 0x1F LT PUSH2 0x34E JUMPI PUSH2 0x100 DUP1 DUP4 SLOAD DIV MUL DUP4 MSTORE SWAP2 PUSH1 0x20 ADD SWAP2 PUSH2 0x379 JUMP JUMPDEST DUP3 ADD SWAP2 SWAP1 PUSH1 0x0 MSTORE PUSH1 0x20 PUSH1 0x0 KECCAK256 SWAP1 JUMPDEST DUP2 SLOAD DUP2 MSTORE SWAP1 PUSH1 0x1 ADD SWAP1 PUSH1 0x20 ADD DUP1 DUP4 GT PUSH2 0x35C JUMPI DUP3 SWAP1 SUB PUSH1 0x1F AND DUP3 ADD SWAP2 JUMPDEST POP POP POP POP POP DUP2 JUMP JUMPDEST PUSH1 0x0 PUSH1 0x3 PUSH1 0x0 DUP4 DUP2 MSTORE PUSH1 0x20 ADD SWAP1 DUP2 MSTORE PUSH1 0x20 ADD PUSH1 0x0 KECCAK256 PUSH1 0x6 ADD PUSH1 0x0 SWAP1 SLOAD SWAP1 PUSH2 0x100 EXP SWAP1 DIV PUSH1 0xFF AND SWAP1 POP PUSH1 0x1 ISZERO ISZERO DUP2 ISZERO ISZERO EQ PUSH2 0x3BA JUMPI PUSH1 0x0 DUP1 REVERT JUMPDEST PUSH1 0x0 PUSH1 0x4 PUSH1 0x0 DUP5 DUP2 MSTORE PUSH1 0x20 ADD SWAP1 DUP2 MSTORE PUSH1 0x20 ADD PUSH1 0x0 KECCAK256 PUSH1 0x0 ADD PUSH1 0x0 PUSH2 0x100 EXP DUP2 SLOAD DUP2 PUSH1 0xFF MUL NOT AND SWAP1 DUP4 ISZERO ISZERO MUL OR SWAP1 SSTORE POP PUSH1 0x0 PUSH1 0x4 PUSH1 0x0 DUP5 DUP2 MSTORE PUSH1 0x20 ADD SWAP1 DUP2 MSTORE PUSH1 0x20 ADD PUSH1 0x0 KECCAK256 PUSH1 0x0 ADD PUSH1 0x1 PUSH2 0x100 EXP DUP2 SLOAD DUP2 PUSH1 0xFF MUL NOT AND SWAP1 DUP4 ISZERO ISZERO MUL OR SWAP1 SSTORE POP PUSH1 0x0 PUSH1 0x4 PUSH1 0x0 DUP5 DUP2 MSTORE PUSH1 0x20 ADD SWAP1 DUP2 MSTORE PUSH1 0x20 ADD PUSH1 0x0 KECCAK256 PUSH1 0x0 ADD PUSH1 0x2 PUSH2 0x100 EXP DUP2 SLOAD DUP2 PUSH1 0xFF MUL NOT AND SWAP1 DUP4 ISZERO ISZERO MUL OR SWAP1 SSTORE POP PUSH1 0x0 PUSH1 0x4 PUSH1 0x0 DUP5 DUP2 MSTORE PUSH1 0x20 ADD SWAP1 DUP2 MSTORE PUSH1 0x20 ADD PUSH1 0x0 KECCAK256 PUSH1 0x0 ADD PUSH1 0x3 PUSH2 0x100 EXP DUP2 SLOAD DUP2 PUSH1 0xFF MUL NOT AND SWAP1 DUP4 ISZERO ISZERO MUL OR SWAP1 SSTORE POP PUSH32 0x985068D1545F3A3582C605476BC5FE6AAF9ACC51845ACEF22CB74694222EA2E DUP3 PUSH1 0x4 PUSH1 0x0 DUP6 DUP2 MSTORE PUSH1 0x20 ADD SWAP1 DUP2 MSTORE PUSH1 0x20 ADD PUSH1 0x0 KECCAK256 PUSH1 0x0 ADD PUSH1 0x0 SWAP1 SLOAD SWAP1 PUSH2 0x100 EXP SWAP1 DIV PUSH1 0xFF AND PUSH1 0x40 MLOAD PUSH2 0x4CA SWAP3 SWAP2 SWAP1 PUSH2 0x1A1D JUMP JUMPDEST PUSH1 0x40 MLOAD DUP1 SWAP2 SUB SWAP1 LOG1 POP POP JUMP JUMPDEST PUSH1 0x4 PUSH1 0x20 MSTORE DUP1 PUSH1 0x0 MSTORE PUSH1 0x40 PUSH1 0x0 KECCAK256 PUSH1 0x0 SWAP2 POP SWAP1 POP DUP1 PUSH1 0x0 ADD PUSH1 0x0 SWAP1 SLOAD SWAP1 PUSH2 0x100 EXP SWAP1 DIV PUSH1 0xFF AND SWAP1 DUP1 PUSH1 0x0 ADD PUSH1 0x1 SWAP1 SLOAD SWAP1 PUSH2 0x100 EXP SWAP1 DIV PUSH1 0xFF AND SWAP1 DUP1 PUSH1 0x0 ADD PUSH1 0x2 SWAP1 SLOAD SWAP1 PUSH2 0x100 EXP SWAP1 DIV PUSH1 0xFF AND SWAP1 DUP1 PUSH1 0x0 ADD PUSH1 0x3 SWAP1 SLOAD SWAP1 PUSH2 0x100 EXP SWAP1 DIV PUSH1 0xFF AND SWAP1 POP DUP5 JUMP JUMPDEST PUSH1 0x2 PUSH1 0x20 MSTORE DUP1 PUSH1 0x0 MSTORE PUSH1 0x40 PUSH1 0x0 KECCAK256 PUSH1 0x0 SWAP2 POP SWAP1 POP DUP1 PUSH1 0x0 ADD SLOAD SWAP1 DUP1 PUSH1 0x1 ADD PUSH1 0x0 SWAP1 SLOAD SWAP1 PUSH2 0x100 EXP SWAP1 DIV PUSH20 0xFFFFFFFFFFFFFFFFFFFFFFFFFFFFFFFFFFFFFFFF AND SWAP1 DUP1 PUSH1 0x2 ADD PUSH1 0x0 SWAP1 SLOAD SWAP1 PUSH2 0x100 EXP SWAP1 DIV PUSH20 0xFFFFFFFFFFFFFFFFFFFFFFFFFFFFFFFFFFFFFFFF AND SWAP1 DUP1 PUSH1 0x3 ADD DUP1 SLOAD PUSH2 0x5AF SWAP1 PUSH2 0x19EC JUMP JUMPDEST DUP1 PUSH1 0x1F ADD PUSH1 0x20 DUP1 SWAP2 DIV MUL PUSH1 0x20 ADD PUSH1 0x40 MLOAD SWAP1 DUP2 ADD PUSH1 0x40 MSTORE DUP1 SWAP3 SWAP2 SWAP1 DUP2 DUP2 MSTORE PUSH1 0x20 ADD DUP3 DUP1 SLOAD PUSH2 0x5DB SWAP1 PUSH2 0x19EC JUMP JUMPDEST DUP1 ISZERO PUSH2 0x628 JUMPI DUP1 PUSH1 0x1F LT PUSH2 0x5FD JUMPI PUSH2 0x100 DUP1 DUP4 SLOAD DIV MUL DUP4 MSTORE SWAP2 PUSH1 0x20 ADD SWAP2 PUSH2 0x628 JUMP JUMPDEST DUP3 ADD SWAP2 SWAP1 PUSH1 0x0 MSTORE PUSH1 0x20 PUSH1 0x0 KECCAK256 SWAP1 JUMPDEST DUP2 SLOAD DUP2 MSTORE SWAP1 PUSH1 0x1 ADD SWAP1 PUSH1 0x20 ADD DUP1 DUP4 GT PUSH2 0x60B JUMPI DUP3 SWAP1 SUB PUSH1 0x1F AND DUP3 ADD SWAP2 JUMPDEST POP POP POP POP POP SWAP1 DUP1 PUSH1 0x4 ADD DUP1 SLOAD PUSH2 0x63D SWAP1 PUSH2 0x19EC JUMP JUMPDEST DUP1 PUSH1 0x1F ADD PUSH1 0x20 DUP1 SWAP2 DIV MUL PUSH1 0x20 ADD PUSH1 0x40 MLOAD SWAP1 DUP2 ADD PUSH1 0x40 MSTORE DUP1 SWAP3 SWAP2 SWAP1 DUP2 DUP2 MSTORE PUSH1 0x20 ADD DUP3 DUP1 SLOAD PUSH2 0x669 SWAP1 PUSH2 0x19EC JUMP JUMPDEST DUP1 ISZERO PUSH2 0x6B6 JUMPI DUP1 PUSH1 0x1F LT PUSH2 0x68B JUMPI PUSH2 0x100 DUP1 DUP4 SLOAD DIV MUL DUP4 MSTORE SWAP2 PUSH1 0x20 ADD SWAP2 PUSH2 0x6B6 JUMP JUMPDEST DUP3 ADD SWAP2 SWAP1 PUSH1 0x0 MSTORE PUSH1 0x20 PUSH1 0x0 KECCAK256 SWAP1 JUMPDEST DUP2 SLOAD DUP2 MSTORE SWAP1 PUSH1 0x1 ADD SWAP1 PUSH1 0x20 ADD DUP1 DUP4 GT PUSH2 0x699 JUMPI DUP3 SWAP1 SUB PUSH1 0x1F AND DUP3 ADD SWAP2 JUMPDEST POP POP POP POP POP SWAP1 DUP1 PUSH1 0x5 ADD SLOAD SWAP1 DUP1 PUSH1 0x6 ADD PUSH1 0x0 SWAP1 SLOAD SWAP1 PUSH2 0x100 EXP SWAP1 DIV PUSH1 0xFF AND SWAP1 POP DUP8 JUMP JUMPDEST PUSH1 0x3 PUSH1 0x20 MSTORE DUP1 PUSH1 0x0 MSTORE PUSH1 0x40 PUSH1 0x0 KECCAK256 PUSH1 0x0 SWAP2 POP SWAP1 POP DUP1 PUSH1 0x0 ADD SLOAD SWAP1 DUP1 PUSH1 0x1 ADD SLOAD SWAP1 DUP1 PUSH1 0x2 ADD PUSH1 0x0 SWAP1 SLOAD SWAP1 PUSH2 0x100 EXP SWAP1 DIV PUSH20 0xFFFFFFFFFFFFFFFFFFFFFFFFFFFFFFFFFFFFFFFF AND SWAP1 DUP1 PUSH1 0x3 ADD PUSH1 0x0 SWAP1 SLOAD SWAP1 PUSH2 0x100 EXP SWAP1 DIV PUSH20 0xFFFFFFFFFFFFFFFFFFFFFFFFFFFFFFFFFFFFFFFF AND SWAP1 DUP1 PUSH1 0x4 ADD DUP1 SLOAD PUSH2 0x754 SWAP1 PUSH2 0x19EC JUMP JUMPDEST DUP1 PUSH1 0x1F ADD PUSH1 0x20 DUP1 SWAP2 DIV MUL PUSH1 0x20 ADD PUSH1 0x40 MLOAD SWAP1 DUP2 ADD PUSH1 0x40 MSTORE DUP1 SWAP3 SWAP2 SWAP1 DUP2 DUP2 MSTORE PUSH1 0x20 ADD DUP3 DUP1 SLOAD PUSH2 0x780 SWAP1 PUSH2 0x19EC JUMP JUMPDEST DUP1 ISZERO PUSH2 0x7CD JUMPI DUP1 PUSH1 0x1F LT PUSH2 0x7A2 JUMPI PUSH2 0x100 DUP1 DUP4 SLOAD DIV MUL DUP4 MSTORE SWAP2 PUSH1 0x20 ADD SWAP2 PUSH2 0x7CD JUMP JUMPDEST DUP3 ADD SWAP2 SWAP1 PUSH1 0x0 MSTORE PUSH1 0x20 PUSH1 0x0 KECCAK256 SWAP1 JUMPDEST DUP2 SLOAD DUP2 MSTORE SWAP1 PUSH1 0x1 ADD SWAP1 PUSH1 0x20 ADD DUP1 DUP4 GT PUSH2 0x7B0 JUMPI DUP3 SWAP1 SUB PUSH1 0x1F AND DUP3 ADD SWAP2 JUMPDEST POP POP POP POP POP SWAP1 DUP1 PUSH1 0x5 ADD SLOAD SWAP1 DUP1 PUSH1 0x6 ADD PUSH1 0x0 SWAP1 SLOAD SWAP1 PUSH2 0x100 EXP SWAP1 DIV PUSH1 0xFF AND SWAP1 DUP1 PUSH1 0x7 ADD SLOAD SWAP1 POP DUP9 JUMP JUMPDEST PUSH1 0x6 PUSH1 0x0 DUP2 SLOAD DUP1 SWAP3 SWAP2 SWAP1 PUSH2 0x809 SWAP1 PUSH2 0x1A75 JUMP JUMPDEST SWAP2 SWAP1 POP SSTORE POP PUSH1 0x6 SLOAD PUSH1 0x2 PUSH1 0x0 PUSH1 0x6 SLOAD DUP2 MSTORE PUSH1 0x20 ADD SWAP1 DUP2 MSTORE PUSH1 0x20 ADD PUSH1 0x0 KECCAK256 PUSH1 0x0 ADD DUP2 SWAP1 SSTORE POP DUP4 PUSH1 0x2 PUSH1 0x0 PUSH1 0x6 SLOAD DUP2 MSTORE PUSH1 0x20 ADD SWAP1 DUP2 MSTORE PUSH1 0x20 ADD PUSH1 0x0 KECCAK256 PUSH1 0x1 ADD PUSH1 0x0 PUSH2 0x100 EXP DUP2 SLOAD DUP2 PUSH20 0xFFFFFFFFFFFFFFFFFFFFFFFFFFFFFFFFFFFFFFFF MUL NOT AND SWAP1 DUP4 PUSH20 0xFFFFFFFFFFFFFFFFFFFFFFFFFFFFFFFFFFFFFFFF AND MUL OR SWAP1 SSTORE POP DUP5 PUSH1 0x2 PUSH1 0x0 PUSH1 0x6 SLOAD DUP2 MSTORE PUSH1 0x20 ADD SWAP1 DUP2 MSTORE PUSH1 0x20 ADD PUSH1 0x0 KECCAK256 PUSH1 0x2 ADD PUSH1 0x0 PUSH2 0x100 EXP DUP2 SLOAD DUP2 PUSH20 0xFFFFFFFFFFFFFFFFFFFFFFFFFFFFFFFFFFFFFFFF MUL NOT AND SWAP1 DUP4 PUSH20 0xFFFFFFFFFFFFFFFFFFFFFFFFFFFFFFFFFFFFFFFF AND MUL OR SWAP1 SSTORE POP DUP3 PUSH1 0x2 PUSH1 0x0 PUSH1 0x6 SLOAD DUP2 MSTORE PUSH1 0x20 ADD SWAP1 DUP2 MSTORE PUSH1 0x20 ADD PUSH1 0x0 KECCAK256 PUSH1 0x3 ADD SWAP1 DUP2 PUSH2 0x900 SWAP2 SWAP1 PUSH2 0x1C69 JUMP JUMPDEST POP DUP2 PUSH1 0x2 PUSH1 0x0 PUSH1 0x6 SLOAD DUP2 MSTORE PUSH1 0x20 ADD SWAP1 DUP2 MSTORE PUSH1 0x20 ADD PUSH1 0x0 KECCAK256 PUSH1 0x4 ADD SWAP1 DUP2 PUSH2 0x926 SWAP2 SWAP1 PUSH2 0x1C69 JUMP JUMPDEST POP DUP1 PUSH1 0x2 PUSH1 0x0 PUSH1 0x6 SLOAD DUP2 MSTORE PUSH1 0x20 ADD SWAP1 DUP2 MSTORE PUSH1 0x20 ADD PUSH1 0x0 KECCAK256 PUSH1 0x5 ADD DUP2 SWAP1 SSTORE POP PUSH1 0x0 PUSH1 0x2 PUSH1 0x0 PUSH1 0x6 SLOAD DUP2 MSTORE PUSH1 0x20 ADD SWAP1 DUP2 MSTORE PUSH1 0x20 ADD PUSH1 0x0 KECCAK256 PUSH1 0x6 ADD PUSH1 0x0 PUSH2 0x100 EXP DUP2 SLOAD DUP2 PUSH1 0xFF MUL NOT AND SWAP1 DUP4 ISZERO ISZERO MUL OR SWAP1 SSTORE POP POP POP POP POP POP JUMP JUMPDEST PUSH1 0x60 PUSH1 0x0 PUSH1 0x8 SLOAD PUSH8 0xFFFFFFFFFFFFFFFF DUP2 GT ISZERO PUSH2 0x99C JUMPI PUSH2 0x99B PUSH2 0x1555 JUMP JUMPDEST JUMPDEST PUSH1 0x40 MLOAD SWAP1 DUP1 DUP3 MSTORE DUP1 PUSH1 0x20 MUL PUSH1 0x20 ADD DUP3 ADD PUSH1 0x40 MSTORE DUP1 ISZERO PUSH2 0x9CA JUMPI DUP2 PUSH1 0x20 ADD PUSH1 0x20 DUP3 MUL DUP1 CALLDATASIZE DUP4 CALLDATACOPY DUP1 DUP3 ADD SWAP2 POP POP SWAP1 POP JUMPDEST POP SWAP1 POP PUSH1 0x0 DUP1 PUSH1 0x1 SWAP1 POP JUMPDEST PUSH1 0x8 SLOAD DUP2 GT PUSH2 0xA35 JUMPI PUSH1 0x3 PUSH1 0x0 DUP3 DUP2 MSTORE PUSH1 0x20 ADD SWAP1 DUP2 MSTORE PUSH1 0x20 ADD PUSH1 0x0 KECCAK256 PUSH1 0x0 ADD SLOAD DUP4 DUP4 DUP2 MLOAD DUP2 LT PUSH2 0xA08 JUMPI PUSH2 0xA07 PUSH2 0x1D3B JUMP JUMPDEST JUMPDEST PUSH1 0x20 MUL PUSH1 0x20 ADD ADD DUP2 DUP2 MSTORE POP POP DUP2 DUP1 PUSH2 0xA1F SWAP1 PUSH2 0x1A75 JUMP JUMPDEST SWAP3 POP POP DUP1 DUP1 PUSH2 0xA2D SWAP1 PUSH2 0x1A75 JUMP JUMPDEST SWAP2 POP POP PUSH2 0x9D5 JUMP JUMPDEST POP PUSH1 0x0 DUP2 PUSH8 0xFFFFFFFFFFFFFFFF DUP2 GT ISZERO PUSH2 0xA52 JUMPI PUSH2 0xA51 PUSH2 0x1555 JUMP JUMPDEST JUMPDEST PUSH1 0x40 MLOAD SWAP1 DUP1 DUP3 MSTORE DUP1 PUSH1 0x20 MUL PUSH1 0x20 ADD DUP3 ADD PUSH1 0x40 MSTORE DUP1 ISZERO PUSH2 0xA80 JUMPI DUP2 PUSH1 0x20 ADD PUSH1 0x20 DUP3 MUL DUP1 CALLDATASIZE DUP4 CALLDATACOPY DUP1 DUP3 ADD SWAP2 POP POP SWAP1 POP JUMPDEST POP SWAP1 POP PUSH1 0x0 JUMPDEST DUP3 DUP2 LT ISZERO PUSH2 0xADB JUMPI DUP4 DUP2 DUP2 MLOAD DUP2 LT PUSH2 0xAA1 JUMPI PUSH2 0xAA0 PUSH2 0x1D3B JUMP JUMPDEST JUMPDEST PUSH1 0x20 MUL PUSH1 0x20 ADD ADD MLOAD DUP3 DUP3 DUP2 MLOAD DUP2 LT PUSH2 0xABC JUMPI PUSH2 0xABB PUSH2 0x1D3B JUMP JUMPDEST JUMPDEST PUSH1 0x20 MUL PUSH1 0x20 ADD ADD DUP2 DUP2 MSTORE POP POP DUP1 DUP1 PUSH2 0xAD3 SWAP1 PUSH2 0x1A75 JUMP JUMPDEST SWAP2 POP POP PUSH2 0xA86 JUMP JUMPDEST POP DUP1 SWAP4 POP POP POP POP SWAP1 JUMP JUMPDEST PUSH1 0x1 DUP1 SLOAD PUSH2 0xAF2 SWAP1 PUSH2 0x19EC JUMP JUMPDEST DUP1 PUSH1 0x1F ADD PUSH1 0x20 DUP1 SWAP2 DIV MUL PUSH1 0x20 ADD PUSH1 0x40 MLOAD SWAP1 DUP2 ADD PUSH1 0x40 MSTORE DUP1 SWAP3 SWAP2 SWAP1 DUP2 DUP2 MSTORE PUSH1 0x20 ADD DUP3 DUP1 SLOAD PUSH2 0xB1E SWAP1 PUSH2 0x19EC JUMP JUMPDEST DUP1 ISZERO PUSH2 0xB6B JUMPI DUP1 PUSH1 0x1F LT PUSH2 0xB40 JUMPI PUSH2 0x100 DUP1 DUP4 SLOAD DIV MUL DUP4 MSTORE SWAP2 PUSH1 0x20 ADD SWAP2 PUSH2 0xB6B JUMP JUMPDEST DUP3 ADD SWAP2 SWAP1 PUSH1 0x0 MSTORE PUSH1 0x20 PUSH1 0x0 KECCAK256 SWAP1 JUMPDEST DUP2 SLOAD DUP2 MSTORE SWAP1 PUSH1 0x1 ADD SWAP1 PUSH1 0x20 ADD DUP1 DUP4 GT PUSH2 0xB4E JUMPI DUP3 SWAP1 SUB PUSH1 0x1F AND DUP3 ADD SWAP2 JUMPDEST POP POP POP POP POP DUP2 JUMP JUMPDEST DUP4 PUSH20 0xFFFFFFFFFFFFFFFFFFFFFFFFFFFFFFFFFFFFFFFF AND CALLER PUSH20 0xFFFFFFFFFFFFFFFFFFFFFFFFFFFFFFFFFFFFFFFF AND SUB PUSH2 0xBAB JUMPI PUSH1 0x0 DUP1 REVERT JUMPDEST PUSH1 0x8 PUSH1 0x0 DUP2 SLOAD DUP1 SWAP3 SWAP2 SWAP1 PUSH2 0xBBE SWAP1 PUSH2 0x1A75 JUMP JUMPDEST SWAP2 SWAP1 POP SSTORE POP PUSH1 0x8 SLOAD PUSH1 0x3 PUSH1 0x0 PUSH1 0x8 SLOAD DUP2 MSTORE PUSH1 0x20 ADD SWAP1 DUP2 MSTORE PUSH1 0x20 ADD PUSH1 0x0 KECCAK256 PUSH1 0x0 ADD DUP2 SWAP1 SSTORE POP DUP6 PUSH1 0x3 PUSH1 0x0 PUSH1 0x8 SLOAD DUP2 MSTORE PUSH1 0x20 ADD SWAP1 DUP2 MSTORE PUSH1 0x20 ADD PUSH1 0x0 KECCAK256 PUSH1 0x1 ADD DUP2 SWAP1 SSTORE POP DUP5 PUSH1 0x3 PUSH1 0x0 PUSH1 0x8 SLOAD DUP2 MSTORE PUSH1 0x20 ADD SWAP1 DUP2 MSTORE PUSH1 0x20 ADD PUSH1 0x0 KECCAK256 PUSH1 0x2 ADD PUSH1 0x0 PUSH2 0x100 EXP DUP2 SLOAD DUP2 PUSH20 0xFFFFFFFFFFFFFFFFFFFFFFFFFFFFFFFFFFFFFFFF MUL NOT AND SWAP1 DUP4 PUSH20 0xFFFFFFFFFFFFFFFFFFFFFFFFFFFFFFFFFFFFFFFF AND MUL OR SWAP1 SSTORE POP DUP4 PUSH1 0x3 PUSH1 0x0 PUSH1 0x8 SLOAD DUP2 MSTORE PUSH1 0x20 ADD SWAP1 DUP2 MSTORE PUSH1 0x20 ADD PUSH1 0x0 KECCAK256 PUSH1 0x3 ADD PUSH1 0x0 PUSH2 0x100 EXP DUP2 SLOAD DUP2 PUSH20 0xFFFFFFFFFFFFFFFFFFFFFFFFFFFFFFFFFFFFFFFF MUL NOT AND SWAP1 DUP4 PUSH20 0xFFFFFFFFFFFFFFFFFFFFFFFFFFFFFFFFFFFFFFFF AND MUL OR SWAP1 SSTORE POP DUP3 PUSH1 0x3 PUSH1 0x0 PUSH1 0x8 SLOAD DUP2 MSTORE PUSH1 0x20 ADD SWAP1 DUP2 MSTORE PUSH1 0x20 ADD PUSH1 0x0 KECCAK256 PUSH1 0x4 ADD SWAP1 DUP2 PUSH2 0xCD2 SWAP2 SWAP1 PUSH2 0x1C69 JUMP JUMPDEST POP DUP2 PUSH1 0x3 PUSH1 0x0 PUSH1 0x8 SLOAD DUP2 MSTORE PUSH1 0x20 ADD SWAP1 DUP2 MSTORE PUSH1 0x20 ADD PUSH1 0x0 KECCAK256 PUSH1 0x5 ADD DUP2 SWAP1 SSTORE POP DUP1 PUSH1 0x3 PUSH1 0x0 PUSH1 0x8 SLOAD DUP2 MSTORE PUSH1 0x20 ADD SWAP1 DUP2 MSTORE PUSH1 0x20 ADD PUSH1 0x0 KECCAK256 PUSH1 0x6 ADD PUSH1 0x0 PUSH2 0x100 EXP DUP2 SLOAD DUP2 PUSH1 0xFF MUL NOT AND SWAP1 DUP4 ISZERO ISZERO MUL OR SWAP1 SSTORE POP DUP4 PUSH20 0xFFFFFFFFFFFFFFFFFFFFFFFFFFFFFFFFFFFFFFFF AND DUP6 PUSH20 0xFFFFFFFFFFFFFFFFFFFFFFFFFFFFFFFFFFFFFFFF AND PUSH32 0xD7717A251AA6B58C031ECB17600F5FD443E3E40F6689D9C3EF687CE7F4B4E616 PUSH1 0x8 SLOAD DUP6 PUSH1 0x40 MLOAD PUSH2 0xD81 SWAP3 SWAP2 SWAP1 PUSH2 0x1D6A JUMP JUMPDEST PUSH1 0x40 MLOAD DUP1 SWAP2 SUB SWAP1 LOG3 POP POP POP POP POP POP JUMP JUMPDEST PUSH1 0x60 PUSH1 0x0 PUSH1 0x6 SLOAD PUSH8 0xFFFFFFFFFFFFFFFF DUP2 GT ISZERO PUSH2 0xDB1 JUMPI PUSH2 0xDB0 PUSH2 0x1555 JUMP JUMPDEST JUMPDEST PUSH1 0x40 MLOAD SWAP1 DUP1 DUP3 MSTORE DUP1 PUSH1 0x20 MUL PUSH1 0x20 ADD DUP3 ADD PUSH1 0x40 MSTORE DUP1 ISZERO PUSH2 0xDDF JUMPI DUP2 PUSH1 0x20 ADD PUSH1 0x20 DUP3 MUL DUP1 CALLDATASIZE DUP4 CALLDATACOPY DUP1 DUP3 ADD SWAP2 POP POP SWAP1 POP JUMPDEST POP SWAP1 POP PUSH1 0x0 DUP1 PUSH1 0x1 SWAP1 POP JUMPDEST PUSH1 0x6 SLOAD DUP2 GT PUSH2 0xE7A JUMPI PUSH1 0x0 ISZERO ISZERO PUSH1 0x2 PUSH1 0x0 DUP4 DUP2 MSTORE PUSH1 0x20 ADD SWAP1 DUP2 MSTORE PUSH1 0x20 ADD PUSH1 0x0 KECCAK256 PUSH1 0x6 ADD PUSH1 0x0 SWAP1 SLOAD SWAP1 PUSH2 0x100 EXP SWAP1 DIV PUSH1 0xFF AND ISZERO ISZERO SUB PUSH2 0xE67 JUMPI PUSH1 0x2 PUSH1 0x0 DUP3 DUP2 MSTORE PUSH1 0x20 ADD SWAP1 DUP2 MSTORE PUSH1 0x20 ADD PUSH1 0x0 KECCAK256 PUSH1 0x0 ADD SLOAD DUP4 DUP4 DUP2 MLOAD DUP2 LT PUSH2 0xE4C JUMPI PUSH2 0xE4B PUSH2 0x1D3B JUMP JUMPDEST JUMPDEST PUSH1 0x20 MUL PUSH1 0x20 ADD ADD DUP2 DUP2 MSTORE POP POP DUP2 DUP1 PUSH2 0xE63 SWAP1 PUSH2 0x1A75 JUMP JUMPDEST SWAP3 POP POP JUMPDEST DUP1 DUP1 PUSH2 0xE72 SWAP1 PUSH2 0x1A75 JUMP JUMPDEST SWAP2 POP POP PUSH2 0xDEA JUMP JUMPDEST POP PUSH1 0x0 DUP2 PUSH8 0xFFFFFFFFFFFFFFFF DUP2 GT ISZERO PUSH2 0xE97 JUMPI PUSH2 0xE96 PUSH2 0x1555 JUMP JUMPDEST JUMPDEST PUSH1 0x40 MLOAD SWAP1 DUP1 DUP3 MSTORE DUP1 PUSH1 0x20 MUL PUSH1 0x20 ADD DUP3 ADD PUSH1 0x40 MSTORE DUP1 ISZERO PUSH2 0xEC5 JUMPI DUP2 PUSH1 0x20 ADD PUSH1 0x20 DUP3 MUL DUP1 CALLDATASIZE DUP4 CALLDATACOPY DUP1 DUP3 ADD SWAP2 POP POP SWAP1 POP JUMPDEST POP SWAP1 POP PUSH1 0x0 JUMPDEST DUP3 DUP2 LT ISZERO PUSH2 0xF20 JUMPI DUP4 DUP2 DUP2 MLOAD DUP2 LT PUSH2 0xEE6 JUMPI PUSH2 0xEE5 PUSH2 0x1D3B JUMP JUMPDEST JUMPDEST PUSH1 0x20 MUL PUSH1 0x20 ADD ADD MLOAD DUP3 DUP3 DUP2 MLOAD DUP2 LT PUSH2 0xF01 JUMPI PUSH2 0xF00 PUSH2 0x1D3B JUMP JUMPDEST JUMPDEST PUSH1 0x20 MUL PUSH1 0x20 ADD ADD DUP2 DUP2 MSTORE POP POP DUP1 DUP1 PUSH2 0xF18 SWAP1 PUSH2 0x1A75 JUMP JUMPDEST SWAP2 POP POP PUSH2 0xECB JUMP JUMPDEST POP DUP1 SWAP4 POP POP POP POP SWAP1 JUMP JUMPDEST PUSH1 0x0 DUP3 PUSH1 0x3 PUSH1 0x0 DUP7 DUP2 MSTORE PUSH1 0x20 ADD SWAP1 DUP2 MSTORE PUSH1 0x20 ADD PUSH1 0x0 KECCAK256 PUSH1 0x6 ADD PUSH1 0x0 PUSH2 0x100 EXP DUP2 SLOAD DUP2 PUSH1 0xFF MUL NOT AND SWAP1 DUP4 ISZERO ISZERO MUL OR SWAP1 SSTORE POP PUSH1 0x1 PUSH1 0x2 PUSH1 0x0 DUP5 DUP2 MSTORE PUSH1 0x20 ADD SWAP1 DUP2 MSTORE PUSH1 0x20 ADD PUSH1 0x0 KECCAK256 PUSH1 0x6 ADD PUSH1 0x0 PUSH2 0x100 EXP DUP2 SLOAD DUP2 PUSH1 0xFF MUL NOT AND SWAP1 DUP4 ISZERO ISZERO MUL OR SWAP1 SSTORE POP PUSH1 0x3 PUSH1 0x0 DUP6 DUP2 MSTORE PUSH1 0x20 ADD SWAP1 DUP2 MSTORE PUSH1 0x20 ADD PUSH1 0x0 KECCAK256 PUSH1 0x3 ADD PUSH1 0x0 SWAP1 SLOAD SWAP1 PUSH2 0x100 EXP SWAP1 DIV PUSH20 0xFFFFFFFFFFFFFFFFFFFFFFFFFFFFFFFFFFFFFFFF AND PUSH20 0xFFFFFFFFFFFFFFFFFFFFFFFFFFFFFFFFFFFFFFFF AND PUSH2 0x8FC CALLVALUE SWAP1 DUP2 ISZERO MUL SWAP1 PUSH1 0x40 MLOAD PUSH1 0x0 PUSH1 0x40 MLOAD DUP1 DUP4 SUB DUP2 DUP6 DUP9 DUP9 CALL SWAP4 POP POP POP POP ISZERO DUP1 ISZERO PUSH2 0x1005 JUMPI RETURNDATASIZE PUSH1 0x0 DUP1 RETURNDATACOPY RETURNDATASIZE PUSH1 0x0 REVERT JUMPDEST POP PUSH32 0xCB229072CBCD1D5410A56504F86A872C0EAC1578C7EB4463EC190B52D3B669E2 DUP3 CALLVALUE CALLER PUSH1 0x40 MLOAD PUSH2 0x1039 SWAP4 SWAP3 SWAP2 SWAP1 PUSH2 0x1D93 JUMP JUMPDEST PUSH1 0x40 MLOAD DUP1 SWAP2 SUB SWAP1 LOG1 DUP3 SWAP1 POP SWAP4 SWAP3 POP POP POP JUMP JUMPDEST DUP3 PUSH1 0x4 PUSH1 0x0 DUP7 DUP2 MSTORE PUSH1 0x20 ADD SWAP1 DUP2 MSTORE PUSH1 0x20 ADD PUSH1 0x0 KECCAK256 PUSH1 0x0 ADD PUSH1 0x1 PUSH2 0x100 EXP DUP2 SLOAD DUP2 PUSH1 0xFF MUL NOT AND SWAP1 DUP4 ISZERO ISZERO MUL OR SWAP1 SSTORE POP DUP2 PUSH1 0x4 PUSH1 0x0 DUP7 DUP2 MSTORE PUSH1 0x20 ADD SWAP1 DUP2 MSTORE PUSH1 0x20 ADD PUSH1 0x0 KECCAK256 PUSH1 0x0 ADD PUSH1 0x2 PUSH2 0x100 EXP DUP2 SLOAD DUP2 PUSH1 0xFF MUL NOT AND SWAP1 DUP4 ISZERO ISZERO MUL OR SWAP1 SSTORE POP DUP1 PUSH1 0x4 PUSH1 0x0 DUP7 DUP2 MSTORE PUSH1 0x20 ADD SWAP1 DUP2 MSTORE PUSH1 0x20 ADD PUSH1 0x0 KECCAK256 PUSH1 0x0 ADD PUSH1 0x3 PUSH2 0x100 EXP DUP2 SLOAD DUP2 PUSH1 0xFF MUL NOT AND SWAP1 DUP4 ISZERO ISZERO MUL OR SWAP1 SSTORE POP PUSH1 0x1 ISZERO ISZERO PUSH1 0x4 PUSH1 0x0 DUP7 DUP2 MSTORE PUSH1 0x20 ADD SWAP1 DUP2 MSTORE PUSH1 0x20 ADD PUSH1 0x0 KECCAK256 PUSH1 0x0 ADD PUSH1 0x1 SWAP1 SLOAD SWAP1 PUSH2 0x100 EXP SWAP1 DIV PUSH1 0xFF AND ISZERO ISZERO EQ DUP1 ISZERO PUSH2 0x1133 JUMPI POP PUSH1 0x1 ISZERO ISZERO PUSH1 0x4 PUSH1 0x0 DUP7 DUP2 MSTORE PUSH1 0x20 ADD SWAP1 DUP2 MSTORE PUSH1 0x20 ADD PUSH1 0x0 KECCAK256 PUSH1 0x0 ADD PUSH1 0x2 SWAP1 SLOAD SWAP1 PUSH2 0x100 EXP SWAP1 DIV PUSH1 0xFF AND ISZERO ISZERO EQ JUMPDEST DUP1 ISZERO PUSH2 0x1166 JUMPI POP PUSH1 0x1 ISZERO ISZERO PUSH1 0x4 PUSH1 0x0 DUP7 DUP2 MSTORE PUSH1 0x20 ADD SWAP1 DUP2 MSTORE PUSH1 0x20 ADD PUSH1 0x0 KECCAK256 PUSH1 0x0 ADD PUSH1 0x3 SWAP1 SLOAD SWAP1 PUSH2 0x100 EXP SWAP1 DIV PUSH1 0xFF AND ISZERO ISZERO EQ JUMPDEST ISZERO PUSH2 0x119B JUMPI PUSH1 0x1 PUSH1 0x4 PUSH1 0x0 DUP7 DUP2 MSTORE PUSH1 0x20 ADD SWAP1 DUP2 MSTORE PUSH1 0x20 ADD PUSH1 0x0 KECCAK256 PUSH1 0x0 ADD PUSH1 0x0 PUSH2 0x100 EXP DUP2 SLOAD DUP2 PUSH1 0xFF MUL NOT AND SWAP1 DUP4 ISZERO ISZERO MUL OR SWAP1 SSTORE POP JUMPDEST PUSH1 0x1 ISZERO ISZERO PUSH1 0x4 PUSH1 0x0 DUP7 DUP2 MSTORE PUSH1 0x20 ADD SWAP1 DUP2 MSTORE PUSH1 0x20 ADD PUSH1 0x0 KECCAK256 PUSH1 0x0 ADD PUSH1 0x0 SWAP1 SLOAD SWAP1 PUSH2 0x100 EXP SWAP1 DIV PUSH1 0xFF AND ISZERO ISZERO SUB PUSH2 0x1206 JUMPI PUSH32 0xBED19C48FFBFB01CA0FAA826D3E3844746B0628593A6C4AEEA7290AF66735D20 DUP5 PUSH1 0x40 MLOAD PUSH2 0x11F9 SWAP2 SWAP1 PUSH2 0x1DCA JUMP JUMPDEST PUSH1 0x40 MLOAD DUP1 SWAP2 SUB SWAP1 LOG1 PUSH2 0x123E JUMP JUMPDEST PUSH32 0x1F0C1DB71D57570DAA726BC2AA30A91E34F107443DFDBFC1BED51F3810CE362E DUP5 PUSH1 0x40 MLOAD PUSH2 0x1235 SWAP2 SWAP1 PUSH2 0x1DCA JUMP JUMPDEST PUSH1 0x40 MLOAD DUP1 SWAP2 SUB SWAP1 LOG1 JUMPDEST POP POP POP POP JUMP JUMPDEST PUSH1 0x0 DUP2 MLOAD SWAP1 POP SWAP2 SWAP1 POP JUMP JUMPDEST PUSH1 0x0 DUP3 DUP3 MSTORE PUSH1 0x20 DUP3 ADD SWAP1 POP SWAP3 SWAP2 POP POP JUMP JUMPDEST PUSH1 0x0 JUMPDEST DUP4 DUP2 LT ISZERO PUSH2 0x127E JUMPI DUP1 DUP3 ADD MLOAD DUP2 DUP5 ADD MSTORE PUSH1 0x20 DUP2 ADD SWAP1 POP PUSH2 0x1263 JUMP JUMPDEST PUSH1 0x0 DUP5 DUP5 ADD MSTORE POP POP POP POP JUMP JUMPDEST PUSH1 0x0 PUSH1 0x1F NOT PUSH1 0x1F DUP4 ADD AND SWAP1 POP SWAP2 SWAP1 POP JUMP JUMPDEST PUSH1 0x0 PUSH2 0x12A6 DUP3 PUSH2 0x1244 JUMP JUMPDEST PUSH2 0x12B0 DUP2 DUP6 PUSH2 0x124F JUMP JUMPDEST SWAP4 POP PUSH2 0x12C0 DUP2 DUP6 PUSH1 0x20 DUP7 ADD PUSH2 0x1260 JUMP JUMPDEST PUSH2 0x12C9 DUP2 PUSH2 0x128A JUMP JUMPDEST DUP5 ADD SWAP2 POP POP SWAP3 SWAP2 POP POP JUMP JUMPDEST PUSH1 0x0 PUSH1 0x20 DUP3 ADD SWAP1 POP DUP2 DUP2 SUB PUSH1 0x0 DUP4 ADD MSTORE PUSH2 0x12EE DUP2 DUP5 PUSH2 0x129B JUMP JUMPDEST SWAP1 POP SWAP3 SWAP2 POP POP JUMP JUMPDEST PUSH1 0x0 PUSH1 0x40 MLOAD SWAP1 POP SWAP1 JUMP JUMPDEST PUSH1 0x0 DUP1 REVERT JUMPDEST PUSH1 0x0 DUP1 REVERT JUMPDEST PUSH1 0x0 DUP2 SWAP1 POP SWAP2 SWAP1 POP JUMP JUMPDEST PUSH2 0x131D DUP2 PUSH2 0x130A JUMP JUMPDEST DUP2 EQ PUSH2 0x1328 JUMPI PUSH1 0x0 DUP1 REVERT JUMPDEST POP JUMP JUMPDEST PUSH1 0x0 DUP2 CALLDATALOAD SWAP1 POP PUSH2 0x133A DUP2 PUSH2 0x1314 JUMP JUMPDEST SWAP3 SWAP2 POP POP JUMP JUMPDEST PUSH1 0x0 PUSH1 0x20 DUP3 DUP5 SUB SLT ISZERO PUSH2 0x1356 JUMPI PUSH2 0x1355 PUSH2 0x1300 JUMP JUMPDEST JUMPDEST PUSH1 0x0 PUSH2 0x1364 DUP5 DUP3 DUP6 ADD PUSH2 0x132B JUMP JUMPDEST SWAP2 POP POP SWAP3 SWAP2 POP POP JUMP JUMPDEST PUSH1 0x0 DUP2 ISZERO ISZERO SWAP1 POP SWAP2 SWAP1 POP JUMP JUMPDEST PUSH2 0x1382 DUP2 PUSH2 0x136D JUMP JUMPDEST DUP3 MSTORE POP POP JUMP JUMPDEST PUSH1 0x0 PUSH1 0x80 DUP3 ADD SWAP1 POP PUSH2 0x139D PUSH1 0x0 DUP4 ADD DUP8 PUSH2 0x1379 JUMP JUMPDEST PUSH2 0x13AA PUSH1 0x20 DUP4 ADD DUP7 PUSH2 0x1379 JUMP JUMPDEST PUSH2 0x13B7 PUSH1 0x40 DUP4 ADD DUP6 PUSH2 0x1379 JUMP JUMPDEST PUSH2 0x13C4 PUSH1 0x60 DUP4 ADD DUP5 PUSH2 0x1379 JUMP JUMPDEST SWAP6 SWAP5 POP POP POP POP POP JUMP JUMPDEST PUSH2 0x13D6 DUP2 PUSH2 0x130A JUMP JUMPDEST DUP3 MSTORE POP POP JUMP JUMPDEST PUSH1 0x0 PUSH20 0xFFFFFFFFFFFFFFFFFFFFFFFFFFFFFFFFFFFFFFFF DUP3 AND SWAP1 POP SWAP2 SWAP1 POP JUMP JUMPDEST PUSH1 0x0 PUSH2 0x1407 DUP3 PUSH2 0x13DC JUMP JUMPDEST SWAP1 POP SWAP2 SWAP1 POP JUMP JUMPDEST PUSH2 0x1417 DUP2 PUSH2 0x13FC JUMP JUMPDEST DUP3 MSTORE POP POP JUMP JUMPDEST PUSH1 0x0 PUSH1 0xE0 DUP3 ADD SWAP1 POP PUSH2 0x1432 PUSH1 0x0 DUP4 ADD DUP11 PUSH2 0x13CD JUMP JUMPDEST PUSH2 0x143F PUSH1 0x20 DUP4 ADD DUP10 PUSH2 0x140E JUMP JUMPDEST PUSH2 0x144C PUSH1 0x40 DUP4 ADD DUP9 PUSH2 0x140E JUMP JUMPDEST DUP2 DUP2 SUB PUSH1 0x60 DUP4 ADD MSTORE PUSH2 0x145E DUP2 DUP8 PUSH2 0x129B JUMP JUMPDEST SWAP1 POP DUP2 DUP2 SUB PUSH1 0x80 DUP4 ADD MSTORE PUSH2 0x1472 DUP2 DUP7 PUSH2 0x129B JUMP JUMPDEST SWAP1 POP PUSH2 0x1481 PUSH1 0xA0 DUP4 ADD DUP6 PUSH2 0x13CD JUMP JUMPDEST PUSH2 0x148E PUSH1 0xC0 DUP4 ADD DUP5 PUSH2 0x1379 JUMP JUMPDEST SWAP9 SWAP8 POP POP POP POP POP POP POP POP JUMP JUMPDEST PUSH1 0x0 PUSH2 0x100 DUP3 ADD SWAP1 POP PUSH2 0x14B0 PUSH1 0x0 DUP4 ADD DUP12 PUSH2 0x13CD JUMP JUMPDEST PUSH2 0x14BD PUSH1 0x20 DUP4 ADD DUP11 PUSH2 0x13CD JUMP JUMPDEST PUSH2 0x14CA PUSH1 0x40 DUP4 ADD DUP10 PUSH2 0x140E JUMP JUMPDEST PUSH2 0x14D7 PUSH1 0x60 DUP4 ADD DUP9 PUSH2 0x140E JUMP JUMPDEST DUP2 DUP2 SUB PUSH1 0x80 DUP4 ADD MSTORE PUSH2 0x14E9 DUP2 DUP8 PUSH2 0x129B JUMP JUMPDEST SWAP1 POP PUSH2 0x14F8 PUSH1 0xA0 DUP4 ADD DUP7 PUSH2 0x13CD JUMP JUMPDEST PUSH2 0x1505 PUSH1 0xC0 DUP4 ADD DUP6 PUSH2 0x1379 JUMP JUMPDEST PUSH2 0x1512 PUSH1 0xE0 DUP4 ADD DUP5 PUSH2 0x13CD JUMP JUMPDEST SWAP10 SWAP9 POP POP POP POP POP POP POP POP POP JUMP JUMPDEST PUSH2 0x1528 DUP2 PUSH2 0x13FC JUMP JUMPDEST DUP2 EQ PUSH2 0x1533 JUMPI PUSH1 0x0 DUP1 REVERT JUMPDEST POP JUMP JUMPDEST PUSH1 0x0 DUP2 CALLDATALOAD SWAP1 POP PUSH2 0x1545 DUP2 PUSH2 0x151F JUMP JUMPDEST SWAP3 SWAP2 POP POP JUMP JUMPDEST PUSH1 0x0 DUP1 REVERT JUMPDEST PUSH1 0x0 DUP1 REVERT JUMPDEST PUSH32 0x4E487B7100000000000000000000000000000000000000000000000000000000 PUSH1 0x0 MSTORE PUSH1 0x41 PUSH1 0x4 MSTORE PUSH1 0x24 PUSH1 0x0 REVERT JUMPDEST PUSH2 0x158D DUP3 PUSH2 0x128A JUMP JUMPDEST DUP2 ADD DUP2 DUP2 LT PUSH8 0xFFFFFFFFFFFFFFFF DUP3 GT OR ISZERO PUSH2 0x15AC JUMPI PUSH2 0x15AB PUSH2 0x1555 JUMP JUMPDEST JUMPDEST DUP1 PUSH1 0x40 MSTORE POP POP POP JUMP JUMPDEST PUSH1 0x0 PUSH2 0x15BF PUSH2 0x12F6 JUMP JUMPDEST SWAP1 POP PUSH2 0x15CB DUP3 DUP3 PUSH2 0x1584 JUMP JUMPDEST SWAP2 SWAP1 POP JUMP JUMPDEST PUSH1 0x0 PUSH8 0xFFFFFFFFFFFFFFFF DUP3 GT ISZERO PUSH2 0x15EB JUMPI PUSH2 0x15EA PUSH2 0x1555 JUMP JUMPDEST JUMPDEST PUSH2 0x15F4 DUP3 PUSH2 0x128A JUMP JUMPDEST SWAP1 POP PUSH1 0x20 DUP2 ADD SWAP1 POP SWAP2 SWAP1 POP JUMP JUMPDEST DUP3 DUP2 DUP4 CALLDATACOPY PUSH1 0x0 DUP4 DUP4 ADD MSTORE POP POP POP JUMP JUMPDEST PUSH1 0x0 PUSH2 0x1623 PUSH2 0x161E DUP5 PUSH2 0x15D0 JUMP JUMPDEST PUSH2 0x15B5 JUMP JUMPDEST SWAP1 POP DUP3 DUP2 MSTORE PUSH1 0x20 DUP2 ADD DUP5 DUP5 DUP5 ADD GT ISZERO PUSH2 0x163F JUMPI PUSH2 0x163E PUSH2 0x1550 JUMP JUMPDEST JUMPDEST PUSH2 0x164A DUP5 DUP3 DUP6 PUSH2 0x1601 JUMP JUMPDEST POP SWAP4 SWAP3 POP POP POP JUMP JUMPDEST PUSH1 0x0 DUP3 PUSH1 0x1F DUP4 ADD SLT PUSH2 0x1667 JUMPI PUSH2 0x1666 PUSH2 0x154B JUMP JUMPDEST JUMPDEST DUP2 CALLDATALOAD PUSH2 0x1677 DUP5 DUP3 PUSH1 0x20 DUP7 ADD PUSH2 0x1610 JUMP JUMPDEST SWAP2 POP POP SWAP3 SWAP2 POP POP JUMP JUMPDEST PUSH1 0x0 DUP1 PUSH1 0x0 DUP1 PUSH1 0x0 PUSH1 0xA0 DUP7 DUP9 SUB SLT ISZERO PUSH2 0x169C JUMPI PUSH2 0x169B PUSH2 0x1300 JUMP JUMPDEST JUMPDEST PUSH1 0x0 PUSH2 0x16AA DUP9 DUP3 DUP10 ADD PUSH2 0x1536 JUMP JUMPDEST SWAP6 POP POP PUSH1 0x20 PUSH2 0x16BB DUP9 DUP3 DUP10 ADD PUSH2 0x1536 JUMP JUMPDEST SWAP5 POP POP PUSH1 0x40 DUP7 ADD CALLDATALOAD PUSH8 0xFFFFFFFFFFFFFFFF DUP2 GT ISZERO PUSH2 0x16DC JUMPI PUSH2 0x16DB PUSH2 0x1305 JUMP JUMPDEST JUMPDEST PUSH2 0x16E8 DUP9 DUP3 DUP10 ADD PUSH2 0x1652 JUMP JUMPDEST SWAP4 POP POP PUSH1 0x60 DUP7 ADD CALLDATALOAD PUSH8 0xFFFFFFFFFFFFFFFF DUP2 GT ISZERO PUSH2 0x1709 JUMPI PUSH2 0x1708 PUSH2 0x1305 JUMP JUMPDEST JUMPDEST PUSH2 0x1715 DUP9 DUP3 DUP10 ADD PUSH2 0x1652 JUMP JUMPDEST SWAP3 POP POP PUSH1 0x80 PUSH2 0x1726 DUP9 DUP3 DUP10 ADD PUSH2 0x132B JUMP JUMPDEST SWAP2 POP POP SWAP3 SWAP6 POP SWAP3 SWAP6 SWAP1 SWAP4 POP JUMP JUMPDEST PUSH1 0x0 DUP2 MLOAD SWAP1 POP SWAP2 SWAP1 POP JUMP JUMPDEST PUSH1 0x0 DUP3 DUP3 MSTORE PUSH1 0x20 DUP3 ADD SWAP1 POP SWAP3 SWAP2 POP POP JUMP JUMPDEST PUSH1 0x0 DUP2 SWAP1 POP PUSH1 0x20 DUP3 ADD SWAP1 POP SWAP2 SWAP1 POP JUMP JUMPDEST PUSH2 0x1768 DUP2 PUSH2 0x130A JUMP JUMPDEST DUP3 MSTORE POP POP JUMP JUMPDEST PUSH1 0x0 PUSH2 0x177A DUP4 DUP4 PUSH2 0x175F JUMP JUMPDEST PUSH1 0x20 DUP4 ADD SWAP1 POP SWAP3 SWAP2 POP POP JUMP JUMPDEST PUSH1 0x0 PUSH1 0x20 DUP3 ADD SWAP1 POP SWAP2 SWAP1 POP JUMP JUMPDEST PUSH1 0x0 PUSH2 0x179E DUP3 PUSH2 0x1733 JUMP JUMPDEST PUSH2 0x17A8 DUP2 DUP6 PUSH2 0x173E JUMP JUMPDEST SWAP4 POP PUSH2 0x17B3 DUP4 PUSH2 0x174F JUMP JUMPDEST DUP1 PUSH1 0x0 JUMPDEST DUP4 DUP2 LT ISZERO PUSH2 0x17E4 JUMPI DUP2 MLOAD PUSH2 0x17CB DUP9 DUP3 PUSH2 0x176E JUMP JUMPDEST SWAP8 POP PUSH2 0x17D6 DUP4 PUSH2 0x1786 JUMP JUMPDEST SWAP3 POP POP PUSH1 0x1 DUP2 ADD SWAP1 POP PUSH2 0x17B7 JUMP JUMPDEST POP DUP6 SWAP4 POP POP POP POP SWAP3 SWAP2 POP POP JUMP JUMPDEST PUSH1 0x0 PUSH1 0x20 DUP3 ADD SWAP1 POP DUP2 DUP2 SUB PUSH1 0x0 DUP4 ADD MSTORE PUSH2 0x180B DUP2 DUP5 PUSH2 0x1793 JUMP JUMPDEST SWAP1 POP SWAP3 SWAP2 POP POP JUMP JUMPDEST PUSH2 0x181C DUP2 PUSH2 0x136D JUMP JUMPDEST DUP2 EQ PUSH2 0x1827 JUMPI PUSH1 0x0 DUP1 REVERT JUMPDEST POP JUMP JUMPDEST PUSH1 0x0 DUP2 CALLDATALOAD SWAP1 POP PUSH2 0x1839 DUP2 PUSH2 0x1813 JUMP JUMPDEST SWAP3 SWAP2 POP POP JUMP JUMPDEST PUSH1 0x0 DUP1 PUSH1 0x0 DUP1 PUSH1 0x0 DUP1 PUSH1 0xC0 DUP8 DUP10 SUB SLT ISZERO PUSH2 0x185C JUMPI PUSH2 0x185B PUSH2 0x1300 JUMP JUMPDEST JUMPDEST PUSH1 0x0 PUSH2 0x186A DUP10 DUP3 DUP11 ADD PUSH2 0x132B JUMP JUMPDEST SWAP7 POP POP PUSH1 0x20 PUSH2 0x187B DUP10 DUP3 DUP11 ADD PUSH2 0x1536 JUMP JUMPDEST SWAP6 POP POP PUSH1 0x40 PUSH2 0x188C DUP10 DUP3 DUP11 ADD PUSH2 0x1536 JUMP JUMPDEST SWAP5 POP POP PUSH1 0x60 DUP8 ADD CALLDATALOAD PUSH8 0xFFFFFFFFFFFFFFFF DUP2 GT ISZERO PUSH2 0x18AD JUMPI PUSH2 0x18AC PUSH2 0x1305 JUMP JUMPDEST JUMPDEST PUSH2 0x18B9 DUP10 DUP3 DUP11 ADD PUSH2 0x1652 JUMP JUMPDEST SWAP4 POP POP PUSH1 0x80 PUSH2 0x18CA DUP10 DUP3 DUP11 ADD PUSH2 0x132B JUMP JUMPDEST SWAP3 POP POP PUSH1 0xA0 PUSH2 0x18DB DUP10 DUP3 DUP11 ADD PUSH2 0x182A JUMP JUMPDEST SWAP2 POP POP SWAP3 SWAP6 POP SWAP3 SWAP6 POP SWAP3 SWAP6 JUMP JUMPDEST PUSH1 0x0 DUP1 PUSH1 0x0 PUSH1 0x60 DUP5 DUP7 SUB SLT ISZERO PUSH2 0x1901 JUMPI PUSH2 0x1900 PUSH2 0x1300 JUMP JUMPDEST JUMPDEST PUSH1 0x0 PUSH2 0x190F DUP7 DUP3 DUP8 ADD PUSH2 0x132B JUMP JUMPDEST SWAP4 POP POP PUSH1 0x20 PUSH2 0x1920 DUP7 DUP3 DUP8 ADD PUSH2 0x182A JUMP JUMPDEST SWAP3 POP POP PUSH1 0x40 PUSH2 0x1931 DUP7 DUP3 DUP8 ADD PUSH2 0x132B JUMP JUMPDEST SWAP2 POP POP SWAP3 POP SWAP3 POP SWAP3 JUMP JUMPDEST PUSH1 0x0 PUSH1 0x20 DUP3 ADD SWAP1 POP PUSH2 0x1950 PUSH1 0x0 DUP4 ADD DUP5 PUSH2 0x1379 JUMP JUMPDEST SWAP3 SWAP2 POP POP JUMP JUMPDEST PUSH1 0x0 DUP1 PUSH1 0x0 DUP1 PUSH1 0x80 DUP6 DUP8 SUB SLT ISZERO PUSH2 0x1970 JUMPI PUSH2 0x196F PUSH2 0x1300 JUMP JUMPDEST JUMPDEST PUSH1 0x0 PUSH2 0x197E DUP8 DUP3 DUP9 ADD PUSH2 0x132B JUMP JUMPDEST SWAP5 POP POP PUSH1 0x20 PUSH2 0x198F DUP8 DUP3 DUP9 ADD PUSH2 0x182A JUMP JUMPDEST SWAP4 POP POP PUSH1 0x40 PUSH2 0x19A0 DUP8 DUP3 DUP9 ADD PUSH2 0x182A JUMP JUMPDEST SWAP3 POP POP PUSH1 0x60 PUSH2 0x19B1 DUP8 DUP3 DUP9 ADD PUSH2 0x182A JUMP JUMPDEST SWAP2 POP POP SWAP3 SWAP6 SWAP2 SWAP5 POP SWAP3 POP JUMP JUMPDEST PUSH32 0x4E487B7100000000000000000000000000000000000000000000000000000000 PUSH1 0x0 MSTORE PUSH1 0x22 PUSH1 0x4 MSTORE PUSH1 0x24 PUSH1 0x0 REVERT JUMPDEST PUSH1 0x0 PUSH1 0x2 DUP3 DIV SWAP1 POP PUSH1 0x1 DUP3 AND DUP1 PUSH2 0x1A04 JUMPI PUSH1 0x7F DUP3 AND SWAP2 POP JUMPDEST PUSH1 0x20 DUP3 LT DUP2 SUB PUSH2 0x1A17 JUMPI PUSH2 0x1A16 PUSH2 0x19BD JUMP JUMPDEST JUMPDEST POP SWAP2 SWAP1 POP JUMP JUMPDEST PUSH1 0x0 PUSH1 0x40 DUP3 ADD SWAP1 POP PUSH2 0x1A32 PUSH1 0x0 DUP4 ADD DUP6 PUSH2 0x13CD JUMP JUMPDEST PUSH2 0x1A3F PUSH1 0x20 DUP4 ADD DUP5 PUSH2 0x1379 JUMP JUMPDEST SWAP4 SWAP3 POP POP POP JUMP JUMPDEST PUSH32 0x4E487B7100000000000000000000000000000000000000000000000000000000 PUSH1 0x0 MSTORE PUSH1 0x11 PUSH1 0x4 MSTORE PUSH1 0x24 PUSH1 0x0 REVERT JUMPDEST PUSH1 0x0 PUSH2 0x1A80 DUP3 PUSH2 0x130A JUMP JUMPDEST SWAP2 POP PUSH32 0xFFFFFFFFFFFFFFFFFFFFFFFFFFFFFFFFFFFFFFFFFFFFFFFFFFFFFFFFFFFFFFFF DUP3 SUB PUSH2 0x1AB2 JUMPI PUSH2 0x1AB1 PUSH2 0x1A46 JUMP JUMPDEST JUMPDEST PUSH1 0x1 DUP3 ADD SWAP1 POP SWAP2 SWAP1 POP JUMP JUMPDEST PUSH1 0x0 DUP2 SWAP1 POP DUP2 PUSH1 0x0 MSTORE PUSH1 0x20 PUSH1 0x0 KECCAK256 SWAP1 POP SWAP2 SWAP1 POP JUMP JUMPDEST PUSH1 0x0 PUSH1 0x20 PUSH1 0x1F DUP4 ADD DIV SWAP1 POP SWAP2 SWAP1 POP JUMP JUMPDEST PUSH1 0x0 DUP3 DUP3 SHL SWAP1 POP SWAP3 SWAP2 POP POP JUMP JUMPDEST PUSH1 0x0 PUSH1 0x8 DUP4 MUL PUSH2 0x1B1F PUSH32 0xFFFFFFFFFFFFFFFFFFFFFFFFFFFFFFFFFFFFFFFFFFFFFFFFFFFFFFFFFFFFFFFF DUP3 PUSH2 0x1AE2 JUMP JUMPDEST PUSH2 0x1B29 DUP7 DUP4 PUSH2 0x1AE2 JUMP JUMPDEST SWAP6 POP DUP1 NOT DUP5 AND SWAP4 POP DUP1 DUP7 AND DUP5 OR SWAP3 POP POP POP SWAP4 SWAP3 POP POP POP JUMP JUMPDEST PUSH1 0x0 DUP2 SWAP1 POP SWAP2 SWAP1 POP JUMP JUMPDEST PUSH1 0x0 PUSH2 0x1B66 PUSH2 0x1B61 PUSH2 0x1B5C DUP5 PUSH2 0x130A JUMP JUMPDEST PUSH2 0x1B41 JUMP JUMPDEST PUSH2 0x130A JUMP JUMPDEST SWAP1 POP SWAP2 SWAP1 POP JUMP JUMPDEST PUSH1 0x0 DUP2 SWAP1 POP SWAP2 SWAP1 POP JUMP JUMPDEST PUSH2 0x1B80 DUP4 PUSH2 0x1B4B JUMP JUMPDEST PUSH2 0x1B94 PUSH2 0x1B8C DUP3 PUSH2 0x1B6D JUMP JUMPDEST DUP5 DUP5 SLOAD PUSH2 0x1AEF JUMP JUMPDEST DUP3 SSTORE POP POP POP POP JUMP JUMPDEST PUSH1 0x0 SWAP1 JUMP JUMPDEST PUSH2 0x1BA9 PUSH2 0x1B9C JUMP JUMPDEST PUSH2 0x1BB4 DUP2 DUP5 DUP5 PUSH2 0x1B77 JUMP JUMPDEST POP POP POP JUMP JUMPDEST JUMPDEST DUP2 DUP2 LT ISZERO PUSH2 0x1BD8 JUMPI PUSH2 0x1BCD PUSH1 0x0 DUP3 PUSH2 0x1BA1 JUMP JUMPDEST PUSH1 0x1 DUP2 ADD SWAP1 POP PUSH2 0x1BBA JUMP JUMPDEST POP POP JUMP JUMPDEST PUSH1 0x1F DUP3 GT ISZERO PUSH2 0x1C1D JUMPI PUSH2 0x1BEE DUP2 PUSH2 0x1ABD JUMP JUMPDEST PUSH2 0x1BF7 DUP5 PUSH2 0x1AD2 JUMP JUMPDEST DUP2 ADD PUSH1 0x20 DUP6 LT ISZERO PUSH2 0x1C06 JUMPI DUP2 SWAP1 POP JUMPDEST PUSH2 0x1C1A PUSH2 0x1C12 DUP6 PUSH2 0x1AD2 JUMP JUMPDEST DUP4 ADD DUP3 PUSH2 0x1BB9 JUMP JUMPDEST POP POP JUMPDEST POP POP POP JUMP JUMPDEST PUSH1 0x0 DUP3 DUP3 SHR SWAP1 POP SWAP3 SWAP2 POP POP JUMP JUMPDEST PUSH1 0x0 PUSH2 0x1C40 PUSH1 0x0 NOT DUP5 PUSH1 0x8 MUL PUSH2 0x1C22 JUMP JUMPDEST NOT DUP1 DUP4 AND SWAP2 POP POP SWAP3 SWAP2 POP POP JUMP JUMPDEST PUSH1 0x0 PUSH2 0x1C59 DUP4 DUP4 PUSH2 0x1C2F JUMP JUMPDEST SWAP2 POP DUP3 PUSH1 0x2 MUL DUP3 OR SWAP1 POP SWAP3 SWAP2 POP POP JUMP JUMPDEST PUSH2 0x1C72 DUP3 PUSH2 0x1244 JUMP JUMPDEST PUSH8 0xFFFFFFFFFFFFFFFF DUP2 GT ISZERO PUSH2 0x1C8B JUMPI PUSH2 0x1C8A PUSH2 0x1555 JUMP JUMPDEST JUMPDEST PUSH2 0x1C95 DUP3 SLOAD PUSH2 0x19EC JUMP JUMPDEST PUSH2 0x1CA0 DUP3 DUP3 DUP6 PUSH2 0x1BDC JUMP JUMPDEST PUSH1 0x0 PUSH1 0x20 SWAP1 POP PUSH1 0x1F DUP4 GT PUSH1 0x1 DUP2 EQ PUSH2 0x1CD3 JUMPI PUSH1 0x0 DUP5 ISZERO PUSH2 0x1CC1 JUMPI DUP3 DUP8 ADD MLOAD SWAP1 POP JUMPDEST PUSH2 0x1CCB DUP6 DUP3 PUSH2 0x1C4D JUMP JUMPDEST DUP7 SSTORE POP PUSH2 0x1D33 JUMP JUMPDEST PUSH1 0x1F NOT DUP5 AND PUSH2 0x1CE1 DUP7 PUSH2 0x1ABD JUMP JUMPDEST PUSH1 0x0 JUMPDEST DUP3 DUP2 LT ISZERO PUSH2 0x1D09 JUMPI DUP5 DUP10 ADD MLOAD DUP3 SSTORE PUSH1 0x1 DUP3 ADD SWAP2 POP PUSH1 0x20 DUP6 ADD SWAP5 POP PUSH1 0x20 DUP2 ADD SWAP1 POP PUSH2 0x1CE4 JUMP JUMPDEST DUP7 DUP4 LT ISZERO PUSH2 0x1D26 JUMPI DUP5 DUP10 ADD MLOAD PUSH2 0x1D22 PUSH1 0x1F DUP10 AND DUP3 PUSH2 0x1C2F JUMP JUMPDEST DUP4 SSTORE POP JUMPDEST PUSH1 0x1 PUSH1 0x2 DUP9 MUL ADD DUP9 SSTORE POP POP POP JUMPDEST POP POP POP POP POP POP JUMP JUMPDEST PUSH32 0x4E487B7100000000000000000000000000000000000000000000000000000000 PUSH1 0x0 MSTORE PUSH1 0x32 PUSH1 0x4 MSTORE PUSH1 0x24 PUSH1 0x0 REVERT JUMPDEST PUSH1 0x0 PUSH1 0x40 DUP3 ADD SWAP1 POP PUSH2 0x1D7F PUSH1 0x0 DUP4 ADD DUP6 PUSH2 0x13CD JUMP JUMPDEST PUSH2 0x1D8C PUSH1 0x20 DUP4 ADD DUP5 PUSH2 0x13CD JUMP JUMPDEST SWAP4 SWAP3 POP POP POP JUMP JUMPDEST PUSH1 0x0 PUSH1 0x60 DUP3 ADD SWAP1 POP PUSH2 0x1DA8 PUSH1 0x0 DUP4 ADD DUP7 PUSH2 0x13CD JUMP JUMPDEST PUSH2 0x1DB5 PUSH1 0x20 DUP4 ADD DUP6 PUSH2 0x13CD JUMP JUMPDEST PUSH2 0x1DC2 PUSH1 0x40 DUP4 ADD DUP5 PUSH2 0x140E JUMP JUMPDEST SWAP5 SWAP4 POP POP POP POP JUMP JUMPDEST PUSH1 0x0 PUSH1 0x20 DUP3 ADD SWAP1 POP PUSH2 0x1DDF PUSH1 0x0 DUP4 ADD DUP5 PUSH2 0x13CD JUMP JUMPDEST SWAP3 SWAP2 POP POP JUMP INVALID LOG2 PUSH5 0x6970667358 0x22 SLT KECCAK256 DUP7 SWAP9 0xCB 0xF8 RETURNDATASIZE 0xEA MSTORE8 0x23 MSTORE DIV SWAP5 BASEFEE PUSH7 0xF296F75CC47573 PUSH14 0x311E1EFAD90E6F4AD7ECDB64736F PUSH13 0x63430008110033000000000000 "
				},
				"gasEstimates": {
					"creation": {
						"codeDepositCost": "1541400",
						"executionCost": "infinite",
						"totalCost": "infinite"
					},
					"external": {
						"_conditionList(uint256)": "infinite",
						"_homesForSale(uint256)": "infinite",
						"_listOfOfferContracts(uint256)": "infinite",
						"accept(uint256,bool,uint256)": "infinite",
						"addPropertyForSale(address,address,string,string,uint256)": "infinite",
						"createConditionList(uint256)": "infinite",
						"createOfferContract(uint256,address,address,string,uint256,bool)": "infinite",
						"getHomesForSale()": "infinite",
						"getOfferContractDetailsById()": "infinite",
						"manageConditions(uint256,bool,bool,bool)": "infinite",
						"name()": "infinite",
						"symbol()": "infinite"
					}
				},
				"methodIdentifiers": {
					"_conditionList(uint256)": "53a68691",
					"_homesForSale(uint256)": "5496623a",
					"_listOfOfferContracts(uint256)": "554d8bb6",
					"accept(uint256,bool,uint256)": "ef6cb581",
					"addPropertyForSale(address,address,string,string,uint256)": "5e230c90",
					"createConditionList(uint256)": "3ad1ce1f",
					"createOfferContract(uint256,address,address,string,uint256,bool)": "b81c877b",
					"getHomesForSale()": "dab62bed",
					"getOfferContractDetailsById()": "871457f6",
					"manageConditions(uint256,bool,bool,bool)": "fb2bbcd3",
					"name()": "06fdde03",
					"symbol()": "95d89b41"
				}
			},
			"storageLayout": {
				"storage": [
					{
						"astId": 3,
						"contract": "contracts/Comfree.sol:ComfreeProtocol",
						"label": "name",
						"offset": 0,
						"slot": "0",
						"type": "t_string_storage"
					},
					{
						"astId": 5,
						"contract": "contracts/Comfree.sol:ComfreeProtocol",
						"label": "symbol",
						"offset": 0,
						"slot": "1",
						"type": "t_string_storage"
					},
					{
						"astId": 63,
						"contract": "contracts/Comfree.sol:ComfreeProtocol",
						"label": "_homesForSale",
						"offset": 0,
						"slot": "2",
						"type": "t_mapping(t_uint256,t_struct(homeForSale)32_storage)"
					},
					{
						"astId": 68,
						"contract": "contracts/Comfree.sol:ComfreeProtocol",
						"label": "_listOfOfferContracts",
						"offset": 0,
						"slot": "3",
						"type": "t_mapping(t_uint256,t_struct(offerContract)49_storage)"
					},
					{
						"astId": 73,
						"contract": "contracts/Comfree.sol:ComfreeProtocol",
						"label": "_conditionList",
						"offset": 0,
						"slot": "4",
						"type": "t_mapping(t_uint256,t_struct(conditionList)58_storage)"
					},
					{
						"astId": 75,
						"contract": "contracts/Comfree.sol:ComfreeProtocol",
						"label": "homesForSaleCounter",
						"offset": 0,
						"slot": "5",
						"type": "t_uint256"
					},
					{
						"astId": 77,
						"contract": "contracts/Comfree.sol:ComfreeProtocol",
						"label": "listingCounter",
						"offset": 0,
						"slot": "6",
						"type": "t_uint256"
					},
					{
						"astId": 79,
						"contract": "contracts/Comfree.sol:ComfreeProtocol",
						"label": "conditionListCounter",
						"offset": 0,
						"slot": "7",
						"type": "t_uint256"
					},
					{
						"astId": 81,
						"contract": "contracts/Comfree.sol:ComfreeProtocol",
						"label": "offerContractCounter",
						"offset": 0,
						"slot": "8",
						"type": "t_uint256"
					}
				],
				"types": {
					"t_address": {
						"encoding": "inplace",
						"label": "address",
						"numberOfBytes": "20"
					},
					"t_bool": {
						"encoding": "inplace",
						"label": "bool",
						"numberOfBytes": "1"
					},
					"t_mapping(t_uint256,t_struct(conditionList)58_storage)": {
						"encoding": "mapping",
						"key": "t_uint256",
						"label": "mapping(uint256 => struct ComfreeProtocol.conditionList)",
						"numberOfBytes": "32",
						"value": "t_struct(conditionList)58_storage"
					},
					"t_mapping(t_uint256,t_struct(homeForSale)32_storage)": {
						"encoding": "mapping",
						"key": "t_uint256",
						"label": "mapping(uint256 => struct ComfreeProtocol.homeForSale)",
						"numberOfBytes": "32",
						"value": "t_struct(homeForSale)32_storage"
					},
					"t_mapping(t_uint256,t_struct(offerContract)49_storage)": {
						"encoding": "mapping",
						"key": "t_uint256",
						"label": "mapping(uint256 => struct ComfreeProtocol.offerContract)",
						"numberOfBytes": "32",
						"value": "t_struct(offerContract)49_storage"
					},
					"t_string_storage": {
						"encoding": "bytes",
						"label": "string",
						"numberOfBytes": "32"
					},
					"t_struct(conditionList)58_storage": {
						"encoding": "inplace",
						"label": "struct ComfreeProtocol.conditionList",
						"members": [
							{
								"astId": 51,
								"contract": "contracts/Comfree.sol:ComfreeProtocol",
								"label": "conditionMet",
								"offset": 0,
								"slot": "0",
								"type": "t_bool"
							},
							{
								"astId": 53,
								"contract": "contracts/Comfree.sol:ComfreeProtocol",
								"label": "WallsPainted",
								"offset": 1,
								"slot": "0",
								"type": "t_bool"
							},
							{
								"astId": 55,
								"contract": "contracts/Comfree.sol:ComfreeProtocol",
								"label": "CarpetCleaned",
								"offset": 2,
								"slot": "0",
								"type": "t_bool"
							},
							{
								"astId": 57,
								"contract": "contracts/Comfree.sol:ComfreeProtocol",
								"label": "WindowsWashed",
								"offset": 3,
								"slot": "0",
								"type": "t_bool"
							}
						],
						"numberOfBytes": "32"
					},
					"t_struct(homeForSale)32_storage": {
						"encoding": "inplace",
						"label": "struct ComfreeProtocol.homeForSale",
						"members": [
							{
								"astId": 19,
								"contract": "contracts/Comfree.sol:ComfreeProtocol",
								"label": "id",
								"offset": 0,
								"slot": "0",
								"type": "t_uint256"
							},
							{
								"astId": 21,
								"contract": "contracts/Comfree.sol:ComfreeProtocol",
								"label": "seller",
								"offset": 0,
								"slot": "1",
								"type": "t_address"
							},
							{
								"astId": 23,
								"contract": "contracts/Comfree.sol:ComfreeProtocol",
								"label": "buyer",
								"offset": 0,
								"slot": "2",
								"type": "t_address"
							},
							{
								"astId": 25,
								"contract": "contracts/Comfree.sol:ComfreeProtocol",
								"label": "imgurl",
								"offset": 0,
								"slot": "3",
								"type": "t_string_storage"
							},
							{
								"astId": 27,
								"contract": "contracts/Comfree.sol:ComfreeProtocol",
								"label": "propertyaddress",
								"offset": 0,
								"slot": "4",
								"type": "t_string_storage"
							},
							{
								"astId": 29,
								"contract": "contracts/Comfree.sol:ComfreeProtocol",
								"label": "ethprice",
								"offset": 0,
								"slot": "5",
								"type": "t_uint256"
							},
							{
								"astId": 31,
								"contract": "contracts/Comfree.sol:ComfreeProtocol",
								"label": "inescrow",
								"offset": 0,
								"slot": "6",
								"type": "t_bool"
							}
						],
						"numberOfBytes": "224"
					},
					"t_struct(offerContract)49_storage": {
						"encoding": "inplace",
						"label": "struct ComfreeProtocol.offerContract",
						"members": [
							{
								"astId": 34,
								"contract": "contracts/Comfree.sol:ComfreeProtocol",
								"label": "id",
								"offset": 0,
								"slot": "0",
								"type": "t_uint256"
							},
							{
								"astId": 36,
								"contract": "contracts/Comfree.sol:ComfreeProtocol",
								"label": "propertyid",
								"offset": 0,
								"slot": "1",
								"type": "t_uint256"
							},
							{
								"astId": 38,
								"contract": "contracts/Comfree.sol:ComfreeProtocol",
								"label": "buyerAddress",
								"offset": 0,
								"slot": "2",
								"type": "t_address"
							},
							{
								"astId": 40,
								"contract": "contracts/Comfree.sol:ComfreeProtocol",
								"label": "sellerAddress",
								"offset": 0,
								"slot": "3",
								"type": "t_address"
							},
							{
								"astId": 42,
								"contract": "contracts/Comfree.sol:ComfreeProtocol",
								"label": "imgurl",
								"offset": 0,
								"slot": "4",
								"type": "t_string_storage"
							},
							{
								"astId": 44,
								"contract": "contracts/Comfree.sol:ComfreeProtocol",
								"label": "offerAmount",
								"offset": 0,
								"slot": "5",
								"type": "t_uint256"
							},
							{
								"astId": 46,
								"contract": "contracts/Comfree.sol:ComfreeProtocol",
								"label": "accepted",
								"offset": 0,
								"slot": "6",
								"type": "t_bool"
							},
							{
								"astId": 48,
								"contract": "contracts/Comfree.sol:ComfreeProtocol",
								"label": "conditionListId",
								"offset": 0,
								"slot": "7",
								"type": "t_uint256"
							}
						],
						"numberOfBytes": "256"
					},
					"t_uint256": {
						"encoding": "inplace",
						"label": "uint256",
						"numberOfBytes": "32"
					}
				}
			},
			"userdoc": {
				"kind": "user",
				"methods": {},
				"version": 1
			}
		}
	}
}