{
	"contracts/Qbii.sol": {
		"Qbii": {
			"abi": [
				{
					"inputs": [],
					"stateMutability": "nonpayable",
					"type": "constructor"
				},
				{
					"anonymous": false,
					"inputs": [
						{
							"indexed": true,
							"internalType": "address",
							"name": "owner",
							"type": "address"
						},
						{
							"indexed": true,
							"internalType": "address",
							"name": "spender",
							"type": "address"
						},
						{
							"indexed": false,
							"internalType": "uint256",
							"name": "value",
							"type": "uint256"
						}
					],
					"name": "Approval",
					"type": "event"
				},
				{
					"anonymous": false,
					"inputs": [
						{
							"indexed": true,
							"internalType": "address",
							"name": "previousOwner",
							"type": "address"
						},
						{
							"indexed": true,
							"internalType": "address",
							"name": "newOwner",
							"type": "address"
						}
					],
					"name": "OwnershipTransferred",
					"type": "event"
				},
				{
					"anonymous": false,
					"inputs": [
						{
							"indexed": true,
							"internalType": "address",
							"name": "from",
							"type": "address"
						},
						{
							"indexed": true,
							"internalType": "address",
							"name": "to",
							"type": "address"
						},
						{
							"indexed": false,
							"internalType": "uint256",
							"name": "value",
							"type": "uint256"
						}
					],
					"name": "Transfer",
					"type": "event"
				},
				{
					"inputs": [
						{
							"internalType": "address",
							"name": "owner",
							"type": "address"
						},
						{
							"internalType": "address",
							"name": "spender",
							"type": "address"
						}
					],
					"name": "allowance",
					"outputs": [
						{
							"internalType": "uint256",
							"name": "",
							"type": "uint256"
						}
					],
					"stateMutability": "view",
					"type": "function"
				},
				{
					"inputs": [
						{
							"internalType": "address",
							"name": "spender",
							"type": "address"
						},
						{
							"internalType": "uint256",
							"name": "amount",
							"type": "uint256"
						}
					],
					"name": "approve",
					"outputs": [
						{
							"internalType": "bool",
							"name": "",
							"type": "bool"
						}
					],
					"stateMutability": "nonpayable",
					"type": "function"
				},
				{
					"inputs": [
						{
							"internalType": "address",
							"name": "account",
							"type": "address"
						}
					],
					"name": "balanceOf",
					"outputs": [
						{
							"internalType": "uint256",
							"name": "",
							"type": "uint256"
						}
					],
					"stateMutability": "view",
					"type": "function"
				},
				{
					"inputs": [
						{
							"internalType": "uint256",
							"name": "amount",
							"type": "uint256"
						}
					],
					"name": "burn",
					"outputs": [
						{
							"internalType": "bool",
							"name": "",
							"type": "bool"
						}
					],
					"stateMutability": "nonpayable",
					"type": "function"
				},
				{
					"inputs": [],
					"name": "decimals",
					"outputs": [
						{
							"internalType": "uint8",
							"name": "",
							"type": "uint8"
						}
					],
					"stateMutability": "view",
					"type": "function"
				},
				{
					"inputs": [
						{
							"internalType": "address",
							"name": "spender",
							"type": "address"
						},
						{
							"internalType": "uint256",
							"name": "subtractedValue",
							"type": "uint256"
						}
					],
					"name": "decreaseAllowance",
					"outputs": [
						{
							"internalType": "bool",
							"name": "",
							"type": "bool"
						}
					],
					"stateMutability": "nonpayable",
					"type": "function"
				},
				{
					"inputs": [],
					"name": "getOwner",
					"outputs": [
						{
							"internalType": "address",
							"name": "",
							"type": "address"
						}
					],
					"stateMutability": "view",
					"type": "function"
				},
				{
					"inputs": [
						{
							"internalType": "address",
							"name": "spender",
							"type": "address"
						},
						{
							"internalType": "uint256",
							"name": "addedValue",
							"type": "uint256"
						}
					],
					"name": "increaseAllowance",
					"outputs": [
						{
							"internalType": "bool",
							"name": "",
							"type": "bool"
						}
					],
					"stateMutability": "nonpayable",
					"type": "function"
				},
				{
					"inputs": [
						{
							"internalType": "uint256",
							"name": "amount",
							"type": "uint256"
						}
					],
					"name": "mint",
					"outputs": [
						{
							"internalType": "bool",
							"name": "",
							"type": "bool"
						}
					],
					"stateMutability": "nonpayable",
					"type": "function"
				},
				{
					"inputs": [],
					"name": "mintable",
					"outputs": [
						{
							"internalType": "bool",
							"name": "",
							"type": "bool"
						}
					],
					"stateMutability": "view",
					"type": "function"
				},
				{
					"inputs": [],
					"name": "name",
					"outputs": [
						{
							"internalType": "string",
							"name": "",
							"type": "string"
						}
					],
					"stateMutability": "view",
					"type": "function"
				},
				{
					"inputs": [],
					"name": "renounceOwnership",
					"outputs": [],
					"stateMutability": "nonpayable",
					"type": "function"
				},
				{
					"inputs": [],
					"name": "symbol",
					"outputs": [
						{
							"internalType": "string",
							"name": "",
							"type": "string"
						}
					],
					"stateMutability": "view",
					"type": "function"
				},
				{
					"inputs": [],
					"name": "totalSupply",
					"outputs": [
						{
							"internalType": "uint256",
							"name": "",
							"type": "uint256"
						}
					],
					"stateMutability": "view",
					"type": "function"
				},
				{
					"inputs": [
						{
							"internalType": "address",
							"name": "recipient",
							"type": "address"
						},
						{
							"internalType": "uint256",
							"name": "amount",
							"type": "uint256"
						}
					],
					"name": "transfer",
					"outputs": [
						{
							"internalType": "bool",
							"name": "",
							"type": "bool"
						}
					],
					"stateMutability": "nonpayable",
					"type": "function"
				},
				{
					"inputs": [
						{
							"internalType": "address",
							"name": "sender",
							"type": "address"
						},
						{
							"internalType": "address",
							"name": "recipient",
							"type": "address"
						},
						{
							"internalType": "uint256",
							"name": "amount",
							"type": "uint256"
						}
					],
					"name": "transferFrom",
					"outputs": [
						{
							"internalType": "bool",
							"name": "",
							"type": "bool"
						}
					],
					"stateMutability": "nonpayable",
					"type": "function"
				},
				{
					"inputs": [
						{
							"internalType": "address",
							"name": "newOwner",
							"type": "address"
						}
					],
					"name": "transferOwnership",
					"outputs": [],
					"stateMutability": "nonpayable",
					"type": "function"
				}
			],
			"devdoc": {
				"kind": "dev",
				"methods": {
					"allowance(address,address)": {
						"details": "See {ERC20-allowance}."
					},
					"approve(address,uint256)": {
						"details": "See {ERC20-approve}. Requirements: - `spender` cannot be the zero address."
					},
					"balanceOf(address)": {
						"details": "See {ERC20-balanceOf}."
					},
					"burn(uint256)": {
						"details": "Burn `amount` tokens and decreasing the total supply."
					},
					"constructor": {
						"details": "sets initials supply and the owner"
					},
					"decimals()": {
						"details": "Returns the token decimals."
					},
					"decreaseAllowance(address,uint256)": {
						"details": "Atomically decreases the allowance granted to `spender` by the caller. This is an alternative to {approve} that can be used as a mitigation for problems described in {ERC20-approve}. Emits an {Approval} event indicating the updated allowance. Requirements: - `spender` cannot be the zero address. - `spender` must have allowance for the caller of at least `subtractedValue`."
					},
					"getOwner()": {
						"details": "Returns the bep token owner."
					},
					"increaseAllowance(address,uint256)": {
						"details": "Atomically increases the allowance granted to `spender` by the caller. This is an alternative to {approve} that can be used as a mitigation for problems described in {ERC20-approve}. Emits an {Approval} event indicating the updated allowance. Requirements: - `spender` cannot be the zero address."
					},
					"mint(uint256)": {
						"details": "Creates `amount` tokens and assigns them to `msg.sender`, increasing the total supply. Requirements - `msg.sender` must be the token owner - `_mintable` must be true"
					},
					"mintable()": {
						"details": "Returns if the token is mintable or not"
					},
					"name()": {
						"details": "Returns the token name."
					},
					"renounceOwnership()": {
						"details": "Leaves the contract without owner. It will not be possible to call `onlyOwner` functions anymore. Can only be called by the current owner. NOTE: Renouncing ownership will leave the contract without an owner, thereby removing any functionality that is only available to the owner."
					},
					"symbol()": {
						"details": "Returns the token symbol."
					},
					"totalSupply()": {
						"details": "See {ERC20-totalSupply}."
					},
					"transfer(address,uint256)": {
						"details": "See {ERC20-transfer}. Requirements: - `recipient` cannot be the zero address. - the caller must have a balance of at least `amount`."
					},
					"transferFrom(address,address,uint256)": {
						"details": "See {ERC20-transferFrom}. Emits an {Approval} event indicating the updated allowance. This is not required by the EIP. See the note at the beginning of {ERC20}; Requirements: - `sender` and `recipient` cannot be the zero address. - `sender` must have a balance of at least `amount`. - the caller must have allowance for `sender`'s tokens of at least `amount`."
					},
					"transferOwnership(address)": {
						"details": "Transfers ownership of the contract to a new account (`newOwner`). Can only be called by the current owner."
					}
				},
				"version": 1
			},
			"evm": {
				"assembly": "    /* \"contracts/Qbii.sol\":8354:18213  contract Qbii is IERC20 {... */\n  mstore(0x40, 0x80)\n    /* \"contracts/Qbii.sol\":8580:8589  500000000 */\n  0x1dcd6500\n    /* \"contracts/Qbii.sol\":8549:8589  uint256 private _totalSupply = 500000000 */\n  0x02\n  sstore\n    /* \"contracts/Qbii.sol\":8595:8624  string private _name = \"Qbii\" */\n  mload(0x40)\n  dup1\n  0x40\n  add\n  0x40\n  mstore\n  dup1\n  0x04\n  dup2\n  mstore\n  0x20\n  add\n  0x5162696900000000000000000000000000000000000000000000000000000000\n  dup2\n  mstore\n  pop\n  0x03\n  swap1\n  dup1\n  mload\n  swap1\n  0x20\n  add\n  swap1\n  tag_1\n  swap3\n  swap2\n  swap1\n  tag_2\n  jump\t// in\ntag_1:\n  pop\n    /* \"contracts/Qbii.sol\":8630:8661  string private _symbol = \"QBII\" */\n  mload(0x40)\n  dup1\n  0x40\n  add\n  0x40\n  mstore\n  dup1\n  0x04\n  dup2\n  mstore\n  0x20\n  add\n  0x5142494900000000000000000000000000000000000000000000000000000000\n  dup2\n  mstore\n  pop\n  0x04\n  swap1\n  dup1\n  mload\n  swap1\n  0x20\n  add\n  swap1\n  tag_3\n  swap3\n  swap2\n  swap1\n  tag_2\n  jump\t// in\ntag_3:\n  pop\n    /* \"contracts/Qbii.sol\":8693:8695  18 */\n  0x12\n    /* \"contracts/Qbii.sol\":8667:8695  uint8 private _decimals = 18 */\n  0x05\n  exp(0x0100, 0x00)\n  dup2\n  sload\n  dup2\n  0xff\n  mul\n  not\n  and\n  swap1\n  dup4\n  0xff\n  and\n  mul\n  or\n  swap1\n  sstore\n  pop\n    /* \"contracts/Qbii.sol\":8734:8743  500000000 */\n  0x1dcd6500\n    /* \"contracts/Qbii.sol\":8701:8743  uint256 private _initialSupply = 500000000 */\n  0x06\n  sstore\n    /* \"contracts/Qbii.sol\":8774:8778  true */\n  0x01\n    /* \"contracts/Qbii.sol\":8749:8778  bool private _mintable = true */\n  0x07\n  exp(0x0100, 0x00)\n  dup2\n  sload\n  dup2\n  0xff\n  mul\n  not\n  and\n  swap1\n  dup4\n  iszero\n  iszero\n  mul\n  or\n  swap1\n  sstore\n  pop\n    /* \"contracts/Qbii.sol\":9178:9337  constructor() {... */\n  callvalue\n  dup1\n  iszero\n  tag_4\n  jumpi\n  0x00\n  dup1\n  revert\ntag_4:\n  pop\n    /* \"contracts/Qbii.sol\":9211:9221  msg.sender */\n  caller\n    /* \"contracts/Qbii.sol\":9202:9208  _owner */\n  0x07\n  0x01\n    /* \"contracts/Qbii.sol\":9202:9221  _owner = msg.sender */\n  0x0100\n  exp\n  dup2\n  sload\n  dup2\n  0xffffffffffffffffffffffffffffffffffffffff\n  mul\n  not\n  and\n  swap1\n  dup4\n  0xffffffffffffffffffffffffffffffffffffffff\n  and\n  mul\n  or\n  swap1\n  sstore\n  pop\n    /* \"contracts/Qbii.sol\":9280:9289  _decimals */\n  0x05\n  0x00\n  swap1\n  sload\n  swap1\n  0x0100\n  exp\n  swap1\n  div\n  0xff\n  and\n    /* \"contracts/Qbii.sol\":9272:9290  uint256(_decimals) */\n  0xff\n  and\n    /* \"contracts/Qbii.sol\":9266:9268  10 */\n  0x0a\n    /* \"contracts/Qbii.sol\":9266:9290  10 ** uint256(_decimals) */\n  tag_7\n  swap2\n  swap1\n  tag_8\n  jump\t// in\ntag_7:\n    /* \"contracts/Qbii.sol\":9248:9262  _initialSupply */\n  sload(0x06)\n    /* \"contracts/Qbii.sol\":9248:9291  _initialSupply * (10 ** uint256(_decimals)) */\n  tag_9\n  swap2\n  swap1\n  tag_10\n  jump\t// in\ntag_9:\n    /* \"contracts/Qbii.sol\":9231:9245  _initialSupply */\n  0x06\n    /* \"contracts/Qbii.sol\":9231:9291  _initialSupply = _initialSupply * (10 ** uint256(_decimals)) */\n  dup2\n  swap1\n  sstore\n  pop\n    /* \"contracts/Qbii.sol\":9301:9330  _mint(_owner, _initialSupply) */\n  tag_11\n    /* \"contracts/Qbii.sol\":9307:9313  _owner */\n  0x07\n  0x01\n  swap1\n  sload\n  swap1\n  0x0100\n  exp\n  swap1\n  div\n  0xffffffffffffffffffffffffffffffffffffffff\n  and\n    /* \"contracts/Qbii.sol\":9315:9329  _initialSupply */\n  sload(0x06)\n    /* \"contracts/Qbii.sol\":9301:9306  _mint */\n  shl(0x20, tag_12)\n    /* \"contracts/Qbii.sol\":9301:9330  _mint(_owner, _initialSupply) */\n  0x20\n  shr\n  jump\t// in\ntag_11:\n    /* \"contracts/Qbii.sol\":8354:18213  contract Qbii is IERC20 {... */\n  jump(tag_13)\n    /* \"contracts/Qbii.sol\":16088:16390  function _mint(address account, uint256 amount) internal {... */\ntag_12:\n    /* \"contracts/Qbii.sol\":16182:16183  0 */\n  0x00\n    /* \"contracts/Qbii.sol\":16163:16184  account != address(0) */\n  0xffffffffffffffffffffffffffffffffffffffff\n  and\n    /* \"contracts/Qbii.sol\":16163:16170  account */\n  dup3\n    /* \"contracts/Qbii.sol\":16163:16184  account != address(0) */\n  0xffffffffffffffffffffffffffffffffffffffff\n  and\n  sub\n    /* \"contracts/Qbii.sol\":16155:16220  require(account != address(0), \"ERC20: mint to the zero address\") */\n  tag_15\n  jumpi\n  mload(0x40)\n  0x08c379a000000000000000000000000000000000000000000000000000000000\n  dup2\n  mstore\n  0x04\n  add\n  tag_16\n  swap1\n  tag_17\n  jump\t// in\ntag_16:\n  mload(0x40)\n  dup1\n  swap2\n  sub\n  swap1\n  revert\ntag_15:\n    /* \"contracts/Qbii.sol\":16246:16270  _totalSupply.add(amount) */\n  tag_18\n    /* \"contracts/Qbii.sol\":16263:16269  amount */\n  dup2\n    /* \"contracts/Qbii.sol\":16246:16258  _totalSupply */\n  sload(0x02)\n    /* \"contracts/Qbii.sol\":16246:16262  _totalSupply.add */\n  or(tag_0_92, shl(0x20, tag_19))\n  swap1\n    /* \"contracts/Qbii.sol\":16246:16270  _totalSupply.add(amount) */\n  swap2\n  swap1\n  0x20\n  shr\n  jump\t// in\ntag_18:\n    /* \"contracts/Qbii.sol\":16231:16243  _totalSupply */\n  0x02\n    /* \"contracts/Qbii.sol\":16231:16270  _totalSupply = _totalSupply.add(amount) */\n  dup2\n  swap1\n  sstore\n  pop\n    /* \"contracts/Qbii.sol\":16301:16331  _balances[account].add(amount) */\n  tag_20\n    /* \"contracts/Qbii.sol\":16324:16330  amount */\n  dup2\n    /* \"contracts/Qbii.sol\":16301:16310  _balances */\n  0x00\n    /* \"contracts/Qbii.sol\":16301:16319  _balances[account] */\n  dup1\n    /* \"contracts/Qbii.sol\":16311:16318  account */\n  dup6\n    /* \"contracts/Qbii.sol\":16301:16319  _balances[account] */\n  0xffffffffffffffffffffffffffffffffffffffff\n  and\n  0xffffffffffffffffffffffffffffffffffffffff\n  and\n  dup2\n  mstore\n  0x20\n  add\n  swap1\n  dup2\n  mstore\n  0x20\n  add\n  0x00\n  keccak256\n  sload\n    /* \"contracts/Qbii.sol\":16301:16323  _balances[account].add */\n  or(tag_0_92, shl(0x20, tag_19))\n  swap1\n    /* \"contracts/Qbii.sol\":16301:16331  _balances[account].add(amount) */\n  swap2\n  swap1\n  0x20\n  shr\n  jump\t// in\ntag_20:\n    /* \"contracts/Qbii.sol\":16280:16289  _balances */\n  0x00\n    /* \"contracts/Qbii.sol\":16280:16298  _balances[account] */\n  dup1\n    /* \"contracts/Qbii.sol\":16290:16297  account */\n  dup5\n    /* \"contracts/Qbii.sol\":16280:16298  _balances[account] */\n  0xffffffffffffffffffffffffffffffffffffffff\n  and\n  0xffffffffffffffffffffffffffffffffffffffff\n  and\n  dup2\n  mstore\n  0x20\n  add\n  swap1\n  dup2\n  mstore\n  0x20\n  add\n  0x00\n  keccak256\n    /* \"contracts/Qbii.sol\":16280:16331  _balances[account] = _balances[account].add(amount) */\n  dup2\n  swap1\n  sstore\n  pop\n    /* \"contracts/Qbii.sol\":16367:16374  account */\n  dup2\n    /* \"contracts/Qbii.sol\":16346:16383  Transfer(address(0), account, amount) */\n  0xffffffffffffffffffffffffffffffffffffffff\n  and\n    /* \"contracts/Qbii.sol\":16363:16364  0 */\n  0x00\n    /* \"contracts/Qbii.sol\":16346:16383  Transfer(address(0), account, amount) */\n  0xffffffffffffffffffffffffffffffffffffffff\n  and\n  0xddf252ad1be2c89b69c2b068fc378daa952ba7f163c4a11628f55a4df523b3ef\n    /* \"contracts/Qbii.sol\":16376:16382  amount */\n  dup4\n    /* \"contracts/Qbii.sol\":16346:16383  Transfer(address(0), account, amount) */\n  mload(0x40)\n  tag_21\n  swap2\n  swap1\n  tag_22\n  jump\t// in\ntag_21:\n  mload(0x40)\n  dup1\n  swap2\n  sub\n  swap1\n  log3\n    /* \"contracts/Qbii.sol\":16088:16390  function _mint(address account, uint256 amount) internal {... */\n  pop\n  pop\n  jump\t// out\n    /* \"contracts/Qbii.sol\":4000:4176  function add(uint256 a, uint256 b) internal pure returns (uint256) {... */\ntag_19:\n    /* \"contracts/Qbii.sol\":4058:4065  uint256 */\n  0x00\n    /* \"contracts/Qbii.sol\":4077:4086  uint256 c */\n  dup1\n    /* \"contracts/Qbii.sol\":4093:4094  b */\n  dup3\n    /* \"contracts/Qbii.sol\":4089:4090  a */\n  dup5\n    /* \"contracts/Qbii.sol\":4089:4094  a + b */\n  tag_24\n  swap2\n  swap1\n  tag_25\n  jump\t// in\ntag_24:\n    /* \"contracts/Qbii.sol\":4077:4094  uint256 c = a + b */\n  swap1\n  pop\n    /* \"contracts/Qbii.sol\":4117:4118  a */\n  dup4\n    /* \"contracts/Qbii.sol\":4112:4113  c */\n  dup2\n    /* \"contracts/Qbii.sol\":4112:4118  c >= a */\n  lt\n  iszero\n    /* \"contracts/Qbii.sol\":4104:4150  require(c >= a, \"SafeMath: addition overflow\") */\n  tag_26\n  jumpi\n  mload(0x40)\n  0x08c379a000000000000000000000000000000000000000000000000000000000\n  dup2\n  mstore\n  0x04\n  add\n  tag_27\n  swap1\n  tag_28\n  jump\t// in\ntag_27:\n  mload(0x40)\n  dup1\n  swap2\n  sub\n  swap1\n  revert\ntag_26:\n    /* \"contracts/Qbii.sol\":4168:4169  c */\n  dup1\n    /* \"contracts/Qbii.sol\":4161:4169  return c */\n  swap2\n  pop\n  pop\n    /* \"contracts/Qbii.sol\":4000:4176  function add(uint256 a, uint256 b) internal pure returns (uint256) {... */\n  swap3\n  swap2\n  pop\n  pop\n  jump\t// out\n    /* \"contracts/Qbii.sol\":8354:18213  contract Qbii is IERC20 {... */\ntag_2:\n  dup3\n  dup1\n  sload\n  tag_29\n  swap1\n  tag_30\n  jump\t// in\ntag_29:\n  swap1\n  0x00\n  mstore\n  keccak256(0x00, 0x20)\n  swap1\n  0x1f\n  add\n  0x20\n  swap1\n  div\n  dup2\n  add\n  swap3\n  dup3\n  tag_32\n  jumpi\n  0x00\n  dup6\n  sstore\n  jump(tag_31)\ntag_32:\n  dup3\n  0x1f\n  lt\n  tag_33\n  jumpi\n  dup1\n  mload\n  not(0xff)\n  and\n  dup4\n  dup1\n  add\n  or\n  dup6\n  sstore\n  jump(tag_31)\ntag_33:\n  dup3\n  dup1\n  add\n  0x01\n  add\n  dup6\n  sstore\n  dup3\n  iszero\n  tag_31\n  jumpi\n  swap2\n  dup3\n  add\ntag_34:\n  dup3\n  dup2\n  gt\n  iszero\n  tag_35\n  jumpi\n  dup3\n  mload\n  dup3\n  sstore\n  swap2\n  0x20\n  add\n  swap2\n  swap1\n  0x01\n  add\n  swap1\n  jump(tag_34)\ntag_35:\ntag_31:\n  pop\n  swap1\n  pop\n  tag_36\n  swap2\n  swap1\n  tag_37\n  jump\t// in\ntag_36:\n  pop\n  swap1\n  jump\t// out\ntag_37:\ntag_38:\n  dup1\n  dup3\n  gt\n  iszero\n  tag_39\n  jumpi\n  0x00\n  dup2\n  0x00\n  swap1\n  sstore\n  pop\n  0x01\n  add\n  jump(tag_38)\ntag_39:\n  pop\n  swap1\n  jump\t// out\n    /* \"#utility.yul\":7:187   */\ntag_40:\n    /* \"#utility.yul\":55:132   */\n  0x4e487b7100000000000000000000000000000000000000000000000000000000\n    /* \"#utility.yul\":52:53   */\n  0x00\n    /* \"#utility.yul\":45:133   */\n  mstore\n    /* \"#utility.yul\":152:156   */\n  0x11\n    /* \"#utility.yul\":149:150   */\n  0x04\n    /* \"#utility.yul\":142:157   */\n  mstore\n    /* \"#utility.yul\":176:180   */\n  0x24\n    /* \"#utility.yul\":173:174   */\n  0x00\n    /* \"#utility.yul\":166:181   */\n  revert\n    /* \"#utility.yul\":193:295   */\ntag_41:\n    /* \"#utility.yul\":235:243   */\n  0x00\n    /* \"#utility.yul\":282:287   */\n  dup2\n    /* \"#utility.yul\":279:280   */\n  0x01\n    /* \"#utility.yul\":275:288   */\n  shr\n    /* \"#utility.yul\":254:288   */\n  swap1\n  pop\n    /* \"#utility.yul\":193:295   */\n  swap2\n  swap1\n  pop\n  jump\t// out\n    /* \"#utility.yul\":301:1149   */\ntag_42:\n    /* \"#utility.yul\":362:367   */\n  0x00\n    /* \"#utility.yul\":369:373   */\n  dup1\n    /* \"#utility.yul\":393:399   */\n  dup3\n    /* \"#utility.yul\":384:399   */\n  swap2\n  pop\n    /* \"#utility.yul\":417:422   */\n  dup4\n    /* \"#utility.yul\":408:422   */\n  swap1\n  pop\n    /* \"#utility.yul\":431:1143   */\ntag_56:\n    /* \"#utility.yul\":452:453   */\n  0x01\n    /* \"#utility.yul\":442:450   */\n  dup6\n    /* \"#utility.yul\":439:454   */\n  gt\n    /* \"#utility.yul\":431:1143   */\n  iszero\n  tag_58\n  jumpi\n    /* \"#utility.yul\":547:551   */\n  dup1\n    /* \"#utility.yul\":542:545   */\n  dup7\n    /* \"#utility.yul\":538:552   */\n  div\n    /* \"#utility.yul\":532:536   */\n  dup2\n    /* \"#utility.yul\":529:553   */\n  gt\n    /* \"#utility.yul\":526:576   */\n  iszero\n  tag_59\n  jumpi\n    /* \"#utility.yul\":556:574   */\n  tag_60\n  tag_40\n  jump\t// in\ntag_60:\n    /* \"#utility.yul\":526:576   */\ntag_59:\n    /* \"#utility.yul\":606:607   */\n  0x01\n    /* \"#utility.yul\":596:604   */\n  dup6\n    /* \"#utility.yul\":592:608   */\n  and\n    /* \"#utility.yul\":589:1040   */\n  iszero\n  tag_61\n  jumpi\n    /* \"#utility.yul\":1021:1025   */\n  dup1\n    /* \"#utility.yul\":1014:1019   */\n  dup3\n    /* \"#utility.yul\":1010:1026   */\n  mul\n    /* \"#utility.yul\":1001:1026   */\n  swap2\n  pop\n    /* \"#utility.yul\":589:1040   */\ntag_61:\n    /* \"#utility.yul\":1071:1075   */\n  dup1\n    /* \"#utility.yul\":1065:1069   */\n  dup2\n    /* \"#utility.yul\":1061:1076   */\n  mul\n    /* \"#utility.yul\":1053:1076   */\n  swap1\n  pop\n    /* \"#utility.yul\":1101:1133   */\n  tag_62\n    /* \"#utility.yul\":1124:1132   */\n  dup6\n    /* \"#utility.yul\":1101:1133   */\n  tag_41\n  jump\t// in\ntag_62:\n    /* \"#utility.yul\":1089:1133   */\n  swap5\n  pop\n    /* \"#utility.yul\":431:1143   */\n  jump(tag_56)\ntag_58:\n    /* \"#utility.yul\":301:1149   */\n  swap5\n  pop\n  swap5\n  swap3\n  pop\n  pop\n  pop\n  jump\t// out\n    /* \"#utility.yul\":1155:2228   */\ntag_43:\n    /* \"#utility.yul\":1209:1214   */\n  0x00\n    /* \"#utility.yul\":1400:1408   */\n  dup3\n    /* \"#utility.yul\":1390:1430   */\n  tag_64\n  jumpi\n    /* \"#utility.yul\":1421:1422   */\n  0x01\n    /* \"#utility.yul\":1412:1422   */\n  swap1\n  pop\n    /* \"#utility.yul\":1423:1428   */\n  jump(tag_63)\n    /* \"#utility.yul\":1390:1430   */\ntag_64:\n    /* \"#utility.yul\":1449:1453   */\n  dup2\n    /* \"#utility.yul\":1439:1475   */\n  tag_65\n  jumpi\n    /* \"#utility.yul\":1466:1467   */\n  0x00\n    /* \"#utility.yul\":1457:1467   */\n  swap1\n  pop\n    /* \"#utility.yul\":1468:1473   */\n  jump(tag_63)\n    /* \"#utility.yul\":1439:1475   */\ntag_65:\n    /* \"#utility.yul\":1535:1539   */\n  dup2\n    /* \"#utility.yul\":1583:1584   */\n  0x01\n    /* \"#utility.yul\":1578:1605   */\n  dup2\n  eq\n  tag_67\n  jumpi\n    /* \"#utility.yul\":1619:1620   */\n  0x02\n    /* \"#utility.yul\":1614:1805   */\n  dup2\n  eq\n  tag_68\n  jumpi\n    /* \"#utility.yul\":1528:1805   */\n  jump(tag_66)\n    /* \"#utility.yul\":1578:1605   */\ntag_67:\n    /* \"#utility.yul\":1596:1597   */\n  0x01\n    /* \"#utility.yul\":1587:1597   */\n  swap2\n  pop\n    /* \"#utility.yul\":1598:1603   */\n  pop\n  jump(tag_63)\n    /* \"#utility.yul\":1614:1805   */\ntag_68:\n    /* \"#utility.yul\":1659:1662   */\n  0xff\n    /* \"#utility.yul\":1649:1657   */\n  dup5\n    /* \"#utility.yul\":1646:1663   */\n  gt\n    /* \"#utility.yul\":1643:1686   */\n  iszero\n  tag_69\n  jumpi\n    /* \"#utility.yul\":1666:1684   */\n  tag_70\n  tag_40\n  jump\t// in\ntag_70:\n    /* \"#utility.yul\":1643:1686   */\ntag_69:\n    /* \"#utility.yul\":1715:1723   */\n  dup4\n    /* \"#utility.yul\":1712:1713   */\n  0x02\n    /* \"#utility.yul\":1708:1724   */\n  exp\n    /* \"#utility.yul\":1699:1724   */\n  swap2\n  pop\n    /* \"#utility.yul\":1750:1753   */\n  dup5\n    /* \"#utility.yul\":1743:1748   */\n  dup3\n    /* \"#utility.yul\":1740:1754   */\n  gt\n    /* \"#utility.yul\":1737:1777   */\n  iszero\n  tag_71\n  jumpi\n    /* \"#utility.yul\":1757:1775   */\n  tag_72\n  tag_40\n  jump\t// in\ntag_72:\n    /* \"#utility.yul\":1737:1777   */\ntag_71:\n    /* \"#utility.yul\":1790:1795   */\n  pop\n  jump(tag_63)\n    /* \"#utility.yul\":1528:1805   */\ntag_66:\n  pop\n    /* \"#utility.yul\":1914:1916   */\n  0x20\n    /* \"#utility.yul\":1904:1912   */\n  dup4\n    /* \"#utility.yul\":1901:1917   */\n  lt\n    /* \"#utility.yul\":1895:1898   */\n  0x0133\n    /* \"#utility.yul\":1889:1893   */\n  dup4\n    /* \"#utility.yul\":1886:1899   */\n  lt\n    /* \"#utility.yul\":1882:1918   */\n  and\n    /* \"#utility.yul\":1864:1866   */\n  0x4e\n    /* \"#utility.yul\":1854:1862   */\n  dup5\n    /* \"#utility.yul\":1851:1867   */\n  lt\n    /* \"#utility.yul\":1846:1848   */\n  0x0b\n    /* \"#utility.yul\":1840:1844   */\n  dup5\n    /* \"#utility.yul\":1837:1849   */\n  lt\n    /* \"#utility.yul\":1833:1868   */\n  and\n    /* \"#utility.yul\":1817:1928   */\n  or\n    /* \"#utility.yul\":1814:2060   */\n  iszero\n  tag_73\n  jumpi\n    /* \"#utility.yul\":1970:1978   */\n  dup3\n    /* \"#utility.yul\":1964:1968   */\n  dup3\n    /* \"#utility.yul\":1960:1979   */\n  exp\n    /* \"#utility.yul\":1951:1979   */\n  swap1\n  pop\n    /* \"#utility.yul\":2005:2008   */\n  dup4\n    /* \"#utility.yul\":1998:2003   */\n  dup2\n    /* \"#utility.yul\":1995:2009   */\n  gt\n    /* \"#utility.yul\":1992:2032   */\n  iszero\n  tag_74\n  jumpi\n    /* \"#utility.yul\":2012:2030   */\n  tag_75\n  tag_40\n  jump\t// in\ntag_75:\n    /* \"#utility.yul\":1992:2032   */\ntag_74:\n    /* \"#utility.yul\":2045:2050   */\n  jump(tag_63)\n    /* \"#utility.yul\":1814:2060   */\ntag_73:\n    /* \"#utility.yul\":2085:2127   */\n  tag_76\n    /* \"#utility.yul\":2123:2126   */\n  dup5\n    /* \"#utility.yul\":2113:2121   */\n  dup5\n    /* \"#utility.yul\":2107:2111   */\n  dup5\n    /* \"#utility.yul\":2104:2105   */\n  0x01\n    /* \"#utility.yul\":2085:2127   */\n  tag_42\n  jump\t// in\ntag_76:\n    /* \"#utility.yul\":2070:2127   */\n  swap3\n  pop\n  swap1\n  pop\n    /* \"#utility.yul\":2159:2163   */\n  dup2\n    /* \"#utility.yul\":2154:2157   */\n  dup5\n    /* \"#utility.yul\":2150:2164   */\n  div\n    /* \"#utility.yul\":2143:2148   */\n  dup2\n    /* \"#utility.yul\":2140:2165   */\n  gt\n    /* \"#utility.yul\":2137:2188   */\n  iszero\n  tag_77\n  jumpi\n    /* \"#utility.yul\":2168:2186   */\n  tag_78\n  tag_40\n  jump\t// in\ntag_78:\n    /* \"#utility.yul\":2137:2188   */\ntag_77:\n    /* \"#utility.yul\":2217:2221   */\n  dup2\n    /* \"#utility.yul\":2210:2215   */\n  dup2\n    /* \"#utility.yul\":2206:2222   */\n  mul\n    /* \"#utility.yul\":2197:2222   */\n  swap1\n  pop\n    /* \"#utility.yul\":1155:2228   */\ntag_63:\n  swap4\n  swap3\n  pop\n  pop\n  pop\n  jump\t// out\n    /* \"#utility.yul\":2234:2311   */\ntag_44:\n    /* \"#utility.yul\":2271:2278   */\n  0x00\n    /* \"#utility.yul\":2300:2305   */\n  dup2\n    /* \"#utility.yul\":2289:2305   */\n  swap1\n  pop\n    /* \"#utility.yul\":2234:2311   */\n  swap2\n  swap1\n  pop\n  jump\t// out\n    /* \"#utility.yul\":2317:2602   */\ntag_8:\n    /* \"#utility.yul\":2377:2382   */\n  0x00\n    /* \"#utility.yul\":2401:2424   */\n  tag_81\n    /* \"#utility.yul\":2419:2423   */\n  dup3\n    /* \"#utility.yul\":2401:2424   */\n  tag_44\n  jump\t// in\ntag_81:\n    /* \"#utility.yul\":2393:2424   */\n  swap2\n  pop\n    /* \"#utility.yul\":2445:2472   */\n  tag_82\n    /* \"#utility.yul\":2463:2471   */\n  dup4\n    /* \"#utility.yul\":2445:2472   */\n  tag_44\n  jump\t// in\ntag_82:\n    /* \"#utility.yul\":2433:2472   */\n  swap3\n  pop\n    /* \"#utility.yul\":2491:2595   */\n  tag_83\n    /* \"#utility.yul\":2528:2594   */\n  0xffffffffffffffffffffffffffffffffffffffffffffffffffffffffffffffff\n    /* \"#utility.yul\":2518:2526   */\n  dup5\n    /* \"#utility.yul\":2512:2516   */\n  dup5\n    /* \"#utility.yul\":2491:2595   */\n  tag_43\n  jump\t// in\ntag_83:\n    /* \"#utility.yul\":2482:2595   */\n  swap1\n  pop\n    /* \"#utility.yul\":2317:2602   */\n  swap3\n  swap2\n  pop\n  pop\n  jump\t// out\n    /* \"#utility.yul\":2608:2956   */\ntag_10:\n    /* \"#utility.yul\":2648:2655   */\n  0x00\n    /* \"#utility.yul\":2671:2691   */\n  tag_85\n    /* \"#utility.yul\":2689:2690   */\n  dup3\n    /* \"#utility.yul\":2671:2691   */\n  tag_44\n  jump\t// in\ntag_85:\n    /* \"#utility.yul\":2666:2691   */\n  swap2\n  pop\n    /* \"#utility.yul\":2705:2725   */\n  tag_86\n    /* \"#utility.yul\":2723:2724   */\n  dup4\n    /* \"#utility.yul\":2705:2725   */\n  tag_44\n  jump\t// in\ntag_86:\n    /* \"#utility.yul\":2700:2725   */\n  swap3\n  pop\n    /* \"#utility.yul\":2893:2894   */\n  dup2\n    /* \"#utility.yul\":2825:2891   */\n  0xffffffffffffffffffffffffffffffffffffffffffffffffffffffffffffffff\n    /* \"#utility.yul\":2821:2895   */\n  div\n    /* \"#utility.yul\":2818:2819   */\n  dup4\n    /* \"#utility.yul\":2815:2896   */\n  gt\n    /* \"#utility.yul\":2810:2811   */\n  dup3\n    /* \"#utility.yul\":2803:2812   */\n  iszero\n    /* \"#utility.yul\":2796:2813   */\n  iszero\n    /* \"#utility.yul\":2792:2897   */\n  and\n    /* \"#utility.yul\":2789:2920   */\n  iszero\n  tag_87\n  jumpi\n    /* \"#utility.yul\":2900:2918   */\n  tag_88\n  tag_40\n  jump\t// in\ntag_88:\n    /* \"#utility.yul\":2789:2920   */\ntag_87:\n    /* \"#utility.yul\":2948:2949   */\n  dup3\n    /* \"#utility.yul\":2945:2946   */\n  dup3\n    /* \"#utility.yul\":2941:2950   */\n  mul\n    /* \"#utility.yul\":2930:2950   */\n  swap1\n  pop\n    /* \"#utility.yul\":2608:2956   */\n  swap3\n  swap2\n  pop\n  pop\n  jump\t// out\n    /* \"#utility.yul\":2962:3131   */\ntag_45:\n    /* \"#utility.yul\":3046:3057   */\n  0x00\n    /* \"#utility.yul\":3080:3086   */\n  dup3\n    /* \"#utility.yul\":3075:3078   */\n  dup3\n    /* \"#utility.yul\":3068:3087   */\n  mstore\n    /* \"#utility.yul\":3120:3124   */\n  0x20\n    /* \"#utility.yul\":3115:3118   */\n  dup3\n    /* \"#utility.yul\":3111:3125   */\n  add\n    /* \"#utility.yul\":3096:3125   */\n  swap1\n  pop\n    /* \"#utility.yul\":2962:3131   */\n  swap3\n  swap2\n  pop\n  pop\n  jump\t// out\n    /* \"#utility.yul\":3137:3318   */\ntag_46:\n    /* \"#utility.yul\":3277:3310   */\n  0x45524332303a206d696e7420746f20746865207a65726f206164647265737300\n    /* \"#utility.yul\":3273:3274   */\n  0x00\n    /* \"#utility.yul\":3265:3271   */\n  dup3\n    /* \"#utility.yul\":3261:3275   */\n  add\n    /* \"#utility.yul\":3254:3311   */\n  mstore\n    /* \"#utility.yul\":3137:3318   */\n  pop\n  jump\t// out\n    /* \"#utility.yul\":3324:3690   */\ntag_47:\n    /* \"#utility.yul\":3466:3469   */\n  0x00\n    /* \"#utility.yul\":3487:3554   */\n  tag_92\n    /* \"#utility.yul\":3551:3553   */\n  0x1f\n    /* \"#utility.yul\":3546:3549   */\n  dup4\n    /* \"#utility.yul\":3487:3554   */\n  tag_45\n  jump\t// in\ntag_92:\n    /* \"#utility.yul\":3480:3554   */\n  swap2\n  pop\n    /* \"#utility.yul\":3563:3656   */\n  tag_93\n    /* \"#utility.yul\":3652:3655   */\n  dup3\n    /* \"#utility.yul\":3563:3656   */\n  tag_46\n  jump\t// in\ntag_93:\n    /* \"#utility.yul\":3681:3683   */\n  0x20\n    /* \"#utility.yul\":3676:3679   */\n  dup3\n    /* \"#utility.yul\":3672:3684   */\n  add\n    /* \"#utility.yul\":3665:3684   */\n  swap1\n  pop\n    /* \"#utility.yul\":3324:3690   */\n  swap2\n  swap1\n  pop\n  jump\t// out\n    /* \"#utility.yul\":3696:4115   */\ntag_17:\n    /* \"#utility.yul\":3862:3866   */\n  0x00\n    /* \"#utility.yul\":3900:3902   */\n  0x20\n    /* \"#utility.yul\":3889:3898   */\n  dup3\n    /* \"#utility.yul\":3885:3903   */\n  add\n    /* \"#utility.yul\":3877:3903   */\n  swap1\n  pop\n    /* \"#utility.yul\":3949:3958   */\n  dup2\n    /* \"#utility.yul\":3943:3947   */\n  dup2\n    /* \"#utility.yul\":3939:3959   */\n  sub\n    /* \"#utility.yul\":3935:3936   */\n  0x00\n    /* \"#utility.yul\":3924:3933   */\n  dup4\n    /* \"#utility.yul\":3920:3937   */\n  add\n    /* \"#utility.yul\":3913:3960   */\n  mstore\n    /* \"#utility.yul\":3977:4108   */\n  tag_95\n    /* \"#utility.yul\":4103:4107   */\n  dup2\n    /* \"#utility.yul\":3977:4108   */\n  tag_47\n  jump\t// in\ntag_95:\n    /* \"#utility.yul\":3969:4108   */\n  swap1\n  pop\n    /* \"#utility.yul\":3696:4115   */\n  swap2\n  swap1\n  pop\n  jump\t// out\n    /* \"#utility.yul\":4121:4239   */\ntag_48:\n    /* \"#utility.yul\":4208:4232   */\n  tag_97\n    /* \"#utility.yul\":4226:4231   */\n  dup2\n    /* \"#utility.yul\":4208:4232   */\n  tag_44\n  jump\t// in\ntag_97:\n    /* \"#utility.yul\":4203:4206   */\n  dup3\n    /* \"#utility.yul\":4196:4233   */\n  mstore\n    /* \"#utility.yul\":4121:4239   */\n  pop\n  pop\n  jump\t// out\n    /* \"#utility.yul\":4245:4467   */\ntag_22:\n    /* \"#utility.yul\":4338:4342   */\n  0x00\n    /* \"#utility.yul\":4376:4378   */\n  0x20\n    /* \"#utility.yul\":4365:4374   */\n  dup3\n    /* \"#utility.yul\":4361:4379   */\n  add\n    /* \"#utility.yul\":4353:4379   */\n  swap1\n  pop\n    /* \"#utility.yul\":4389:4460   */\n  tag_99\n    /* \"#utility.yul\":4457:4458   */\n  0x00\n    /* \"#utility.yul\":4446:4455   */\n  dup4\n    /* \"#utility.yul\":4442:4459   */\n  add\n    /* \"#utility.yul\":4433:4439   */\n  dup5\n    /* \"#utility.yul\":4389:4460   */\n  tag_48\n  jump\t// in\ntag_99:\n    /* \"#utility.yul\":4245:4467   */\n  swap3\n  swap2\n  pop\n  pop\n  jump\t// out\n    /* \"#utility.yul\":4473:4778   */\ntag_25:\n    /* \"#utility.yul\":4513:4516   */\n  0x00\n    /* \"#utility.yul\":4532:4552   */\n  tag_101\n    /* \"#utility.yul\":4550:4551   */\n  dup3\n    /* \"#utility.yul\":4532:4552   */\n  tag_44\n  jump\t// in\ntag_101:\n    /* \"#utility.yul\":4527:4552   */\n  swap2\n  pop\n    /* \"#utility.yul\":4566:4586   */\n  tag_102\n    /* \"#utility.yul\":4584:4585   */\n  dup4\n    /* \"#utility.yul\":4566:4586   */\n  tag_44\n  jump\t// in\ntag_102:\n    /* \"#utility.yul\":4561:4586   */\n  swap3\n  pop\n    /* \"#utility.yul\":4720:4721   */\n  dup3\n    /* \"#utility.yul\":4652:4718   */\n  0xffffffffffffffffffffffffffffffffffffffffffffffffffffffffffffffff\n    /* \"#utility.yul\":4648:4722   */\n  sub\n    /* \"#utility.yul\":4645:4646   */\n  dup3\n    /* \"#utility.yul\":4642:4723   */\n  gt\n    /* \"#utility.yul\":4639:4746   */\n  iszero\n  tag_103\n  jumpi\n    /* \"#utility.yul\":4726:4744   */\n  tag_104\n  tag_40\n  jump\t// in\ntag_104:\n    /* \"#utility.yul\":4639:4746   */\ntag_103:\n    /* \"#utility.yul\":4770:4771   */\n  dup3\n    /* \"#utility.yul\":4767:4768   */\n  dup3\n    /* \"#utility.yul\":4763:4772   */\n  add\n    /* \"#utility.yul\":4756:4772   */\n  swap1\n  pop\n    /* \"#utility.yul\":4473:4778   */\n  swap3\n  swap2\n  pop\n  pop\n  jump\t// out\n    /* \"#utility.yul\":4784:4961   */\ntag_49:\n    /* \"#utility.yul\":4924:4953   */\n  0x536166654d6174683a206164646974696f6e206f766572666c6f770000000000\n    /* \"#utility.yul\":4920:4921   */\n  0x00\n    /* \"#utility.yul\":4912:4918   */\n  dup3\n    /* \"#utility.yul\":4908:4922   */\n  add\n    /* \"#utility.yul\":4901:4954   */\n  mstore\n    /* \"#utility.yul\":4784:4961   */\n  pop\n  jump\t// out\n    /* \"#utility.yul\":4967:5333   */\ntag_50:\n    /* \"#utility.yul\":5109:5112   */\n  0x00\n    /* \"#utility.yul\":5130:5197   */\n  tag_107\n    /* \"#utility.yul\":5194:5196   */\n  0x1b\n    /* \"#utility.yul\":5189:5192   */\n  dup4\n    /* \"#utility.yul\":5130:5197   */\n  tag_45\n  jump\t// in\ntag_107:\n    /* \"#utility.yul\":5123:5197   */\n  swap2\n  pop\n    /* \"#utility.yul\":5206:5299   */\n  tag_108\n    /* \"#utility.yul\":5295:5298   */\n  dup3\n    /* \"#utility.yul\":5206:5299   */\n  tag_49\n  jump\t// in\ntag_108:\n    /* \"#utility.yul\":5324:5326   */\n  0x20\n    /* \"#utility.yul\":5319:5322   */\n  dup3\n    /* \"#utility.yul\":5315:5327   */\n  add\n    /* \"#utility.yul\":5308:5327   */\n  swap1\n  pop\n    /* \"#utility.yul\":4967:5333   */\n  swap2\n  swap1\n  pop\n  jump\t// out\n    /* \"#utility.yul\":5339:5758   */\ntag_28:\n    /* \"#utility.yul\":5505:5509   */\n  0x00\n    /* \"#utility.yul\":5543:5545   */\n  0x20\n    /* \"#utility.yul\":5532:5541   */\n  dup3\n    /* \"#utility.yul\":5528:5546   */\n  add\n    /* \"#utility.yul\":5520:5546   */\n  swap1\n  pop\n    /* \"#utility.yul\":5592:5601   */\n  dup2\n    /* \"#utility.yul\":5586:5590   */\n  dup2\n    /* \"#utility.yul\":5582:5602   */\n  sub\n    /* \"#utility.yul\":5578:5579   */\n  0x00\n    /* \"#utility.yul\":5567:5576   */\n  dup4\n    /* \"#utility.yul\":5563:5580   */\n  add\n    /* \"#utility.yul\":5556:5603   */\n  mstore\n    /* \"#utility.yul\":5620:5751   */\n  tag_110\n    /* \"#utility.yul\":5746:5750   */\n  dup2\n    /* \"#utility.yul\":5620:5751   */\n  tag_50\n  jump\t// in\ntag_110:\n    /* \"#utility.yul\":5612:5751   */\n  swap1\n  pop\n    /* \"#utility.yul\":5339:5758   */\n  swap2\n  swap1\n  pop\n  jump\t// out\n    /* \"#utility.yul\":5764:5944   */\ntag_51:\n    /* \"#utility.yul\":5812:5889   */\n  0x4e487b7100000000000000000000000000000000000000000000000000000000\n    /* \"#utility.yul\":5809:5810   */\n  0x00\n    /* \"#utility.yul\":5802:5890   */\n  mstore\n    /* \"#utility.yul\":5909:5913   */\n  0x22\n    /* \"#utility.yul\":5906:5907   */\n  0x04\n    /* \"#utility.yul\":5899:5914   */\n  mstore\n    /* \"#utility.yul\":5933:5937   */\n  0x24\n    /* \"#utility.yul\":5930:5931   */\n  0x00\n    /* \"#utility.yul\":5923:5938   */\n  revert\n    /* \"#utility.yul\":5950:6270   */\ntag_30:\n    /* \"#utility.yul\":5994:6000   */\n  0x00\n    /* \"#utility.yul\":6031:6032   */\n  0x02\n    /* \"#utility.yul\":6025:6029   */\n  dup3\n    /* \"#utility.yul\":6021:6033   */\n  div\n    /* \"#utility.yul\":6011:6033   */\n  swap1\n  pop\n    /* \"#utility.yul\":6078:6079   */\n  0x01\n    /* \"#utility.yul\":6072:6076   */\n  dup3\n    /* \"#utility.yul\":6068:6080   */\n  and\n    /* \"#utility.yul\":6099:6117   */\n  dup1\n    /* \"#utility.yul\":6089:6170   */\n  tag_113\n  jumpi\n    /* \"#utility.yul\":6155:6159   */\n  0x7f\n    /* \"#utility.yul\":6147:6153   */\n  dup3\n    /* \"#utility.yul\":6143:6160   */\n  and\n    /* \"#utility.yul\":6133:6160   */\n  swap2\n  pop\n    /* \"#utility.yul\":6089:6170   */\ntag_113:\n    /* \"#utility.yul\":6217:6219   */\n  0x20\n    /* \"#utility.yul\":6209:6215   */\n  dup3\n    /* \"#utility.yul\":6206:6220   */\n  lt\n    /* \"#utility.yul\":6186:6204   */\n  dup2\n    /* \"#utility.yul\":6183:6221   */\n  sub\n    /* \"#utility.yul\":6180:6264   */\n  tag_114\n  jumpi\n    /* \"#utility.yul\":6236:6254   */\n  tag_115\n  tag_51\n  jump\t// in\ntag_115:\n    /* \"#utility.yul\":6180:6264   */\ntag_114:\n    /* \"#utility.yul\":6001:6270   */\n  pop\n    /* \"#utility.yul\":5950:6270   */\n  swap2\n  swap1\n  pop\n  jump\t// out\n    /* \"contracts/Qbii.sol\":8354:18213  contract Qbii is IERC20 {... */\ntag_13:\n  dataSize(sub_0)\n  dup1\n  dataOffset(sub_0)\n  0x00\n  codecopy\n  0x00\n  return\nstop\n\nsub_0: assembly {\n        /* \"contracts/Qbii.sol\":8354:18213  contract Qbii is IERC20 {... */\n      mstore(0x40, 0x80)\n      callvalue\n      dup1\n      iszero\n      tag_1\n      jumpi\n      0x00\n      dup1\n      revert\n    tag_1:\n      pop\n      jumpi(tag_2, lt(calldatasize, 0x04))\n      shr(0xe0, calldataload(0x00))\n      dup1\n      0x70a08231\n      gt\n      tag_20\n      jumpi\n      dup1\n      0xa0712d68\n      gt\n      tag_21\n      jumpi\n      dup1\n      0xa0712d68\n      eq\n      tag_15\n      jumpi\n      dup1\n      0xa457c2d7\n      eq\n      tag_16\n      jumpi\n      dup1\n      0xa9059cbb\n      eq\n      tag_17\n      jumpi\n      dup1\n      0xdd62ed3e\n      eq\n      tag_18\n      jumpi\n      dup1\n      0xf2fde38b\n      eq\n      tag_19\n      jumpi\n      jump(tag_2)\n    tag_21:\n      dup1\n      0x70a08231\n      eq\n      tag_11\n      jumpi\n      dup1\n      0x715018a6\n      eq\n      tag_12\n      jumpi\n      dup1\n      0x893d20e8\n      eq\n      tag_13\n      jumpi\n      dup1\n      0x95d89b41\n      eq\n      tag_14\n      jumpi\n      jump(tag_2)\n    tag_20:\n      dup1\n      0x313ce567\n      gt\n      tag_22\n      jumpi\n      dup1\n      0x313ce567\n      eq\n      tag_7\n      jumpi\n      dup1\n      0x39509351\n      eq\n      tag_8\n      jumpi\n      dup1\n      0x42966c68\n      eq\n      tag_9\n      jumpi\n      dup1\n      0x4bf365df\n      eq\n      tag_10\n      jumpi\n      jump(tag_2)\n    tag_22:\n      dup1\n      0x06fdde03\n      eq\n      tag_3\n      jumpi\n      dup1\n      0x095ea7b3\n      eq\n      tag_4\n      jumpi\n      dup1\n      0x18160ddd\n      eq\n      tag_5\n      jumpi\n      dup1\n      0x23b872dd\n      eq\n      tag_6\n      jumpi\n    tag_2:\n      0x00\n      dup1\n      revert\n        /* \"contracts/Qbii.sol\":10867:10959  function name() external override view returns (string memory) {... */\n    tag_3:\n      tag_23\n      tag_24\n      jump\t// in\n    tag_23:\n      mload(0x40)\n      tag_25\n      swap2\n      swap1\n      tag_26\n      jump\t// in\n    tag_25:\n      mload(0x40)\n      dup1\n      swap2\n      sub\n      swap1\n      return\n        /* \"contracts/Qbii.sol\":11997:12155  function approve(address spender, uint256 amount) external override returns (bool) {... */\n    tag_4:\n      tag_27\n      0x04\n      dup1\n      calldatasize\n      sub\n      dup2\n      add\n      swap1\n      tag_28\n      swap2\n      swap1\n      tag_29\n      jump\t// in\n    tag_28:\n      tag_30\n      jump\t// in\n    tag_27:\n      mload(0x40)\n      tag_31\n      swap2\n      swap1\n      tag_32\n      jump\t// in\n    tag_31:\n      mload(0x40)\n      dup1\n      swap2\n      sub\n      swap1\n      return\n        /* \"contracts/Qbii.sol\":11018:11118  function totalSupply() external override view returns (uint256) {... */\n    tag_5:\n      tag_33\n      tag_34\n      jump\t// in\n    tag_33:\n      mload(0x40)\n      tag_35\n      swap2\n      swap1\n      tag_36\n      jump\t// in\n    tag_35:\n      mload(0x40)\n      dup1\n      swap2\n      sub\n      swap1\n      return\n        /* \"contracts/Qbii.sol\":12612:12919  function transferFrom(address sender, address recipient, uint256 amount) external override returns (bool) {... */\n    tag_6:\n      tag_37\n      0x04\n      dup1\n      calldatasize\n      sub\n      dup2\n      add\n      swap1\n      tag_38\n      swap2\n      swap1\n      tag_39\n      jump\t// in\n    tag_38:\n      tag_40\n      jump\t// in\n    tag_37:\n      mload(0x40)\n      tag_41\n      swap2\n      swap1\n      tag_32\n      jump\t// in\n    tag_41:\n      mload(0x40)\n      dup1\n      swap2\n      sub\n      swap1\n      return\n        /* \"contracts/Qbii.sol\":10563:10655  function decimals() external override view returns (uint8) {... */\n    tag_7:\n      tag_42\n      tag_43\n      jump\t// in\n    tag_42:\n      mload(0x40)\n      tag_44\n      swap2\n      swap1\n      tag_45\n      jump\t// in\n    tag_44:\n      mload(0x40)\n      dup1\n      swap2\n      sub\n      swap1\n      return\n        /* \"contracts/Qbii.sol\":13313:13516  function increaseAllowance(address spender, uint256 addedValue) public returns (bool) {... */\n    tag_8:\n      tag_46\n      0x04\n      dup1\n      calldatasize\n      sub\n      dup2\n      add\n      swap1\n      tag_47\n      swap2\n      swap1\n      tag_29\n      jump\t// in\n    tag_47:\n      tag_48\n      jump\t// in\n    tag_46:\n      mload(0x40)\n      tag_49\n      swap2\n      swap1\n      tag_32\n      jump\t// in\n    tag_49:\n      mload(0x40)\n      dup1\n      swap2\n      sub\n      swap1\n      return\n        /* \"contracts/Qbii.sol\":14765:14880  function burn(uint256 amount) public returns (bool) {... */\n    tag_9:\n      tag_50\n      0x04\n      dup1\n      calldatasize\n      sub\n      dup2\n      add\n      swap1\n      tag_51\n      swap2\n      swap1\n      tag_52\n      jump\t// in\n    tag_51:\n      tag_53\n      jump\t// in\n    tag_50:\n      mload(0x40)\n      tag_54\n      swap2\n      swap1\n      tag_32\n      jump\t// in\n    tag_54:\n      mload(0x40)\n      dup1\n      swap2\n      sub\n      swap1\n      return\n        /* \"contracts/Qbii.sol\":10265:10347  function mintable() external view returns (bool) {... */\n    tag_10:\n      tag_55\n      tag_56\n      jump\t// in\n    tag_55:\n      mload(0x40)\n      tag_57\n      swap2\n      swap1\n      tag_32\n      jump\t// in\n    tag_57:\n      mload(0x40)\n      dup1\n      swap2\n      sub\n      swap1\n      return\n        /* \"contracts/Qbii.sol\":11175:11294  function balanceOf(address account) external override view returns (uint256) {... */\n    tag_11:\n      tag_58\n      0x04\n      dup1\n      calldatasize\n      sub\n      dup2\n      add\n      swap1\n      tag_59\n      swap2\n      swap1\n      tag_60\n      jump\t// in\n    tag_59:\n      tag_61\n      jump\t// in\n    tag_58:\n      mload(0x40)\n      tag_62\n      swap2\n      swap1\n      tag_36\n      jump\t// in\n    tag_62:\n      mload(0x40)\n      dup1\n      swap2\n      sub\n      swap1\n      return\n        /* \"contracts/Qbii.sol\":9673:9810  function renounceOwnership() public onlyOwner {... */\n    tag_12:\n      tag_63\n      tag_64\n      jump\t// in\n    tag_63:\n      stop\n        /* \"contracts/Qbii.sol\":10410:10501  function getOwner() external override view returns (address) {... */\n    tag_13:\n      tag_65\n      tag_66\n      jump\t// in\n    tag_65:\n      mload(0x40)\n      tag_67\n      swap2\n      swap1\n      tag_68\n      jump\t// in\n    tag_67:\n      mload(0x40)\n      dup1\n      swap2\n      sub\n      swap1\n      return\n        /* \"contracts/Qbii.sol\":10715:10811  function symbol() external override view returns (string memory) {... */\n    tag_14:\n      tag_69\n      tag_70\n      jump\t// in\n    tag_69:\n      mload(0x40)\n      tag_71\n      swap2\n      swap1\n      tag_26\n      jump\t// in\n    tag_71:\n      mload(0x40)\n      dup1\n      swap2\n      sub\n      swap1\n      return\n        /* \"contracts/Qbii.sol\":14498:14681  function mint(uint256 amount) public onlyOwner returns (bool) {... */\n    tag_15:\n      tag_72\n      0x04\n      dup1\n      calldatasize\n      sub\n      dup2\n      add\n      swap1\n      tag_73\n      swap2\n      swap1\n      tag_52\n      jump\t// in\n    tag_73:\n      tag_74\n      jump\t// in\n    tag_72:\n      mload(0x40)\n      tag_75\n      swap2\n      swap1\n      tag_32\n      jump\t// in\n    tag_75:\n      mload(0x40)\n      dup1\n      swap2\n      sub\n      swap1\n      return\n        /* \"contracts/Qbii.sol\":14002:14256  function decreaseAllowance(address spender, uint256 subtractedValue) public returns (bool) {... */\n    tag_16:\n      tag_76\n      0x04\n      dup1\n      calldatasize\n      sub\n      dup2\n      add\n      swap1\n      tag_77\n      swap2\n      swap1\n      tag_29\n      jump\t// in\n    tag_77:\n      tag_78\n      jump\t// in\n    tag_76:\n      mload(0x40)\n      tag_79\n      swap2\n      swap1\n      tag_32\n      jump\t// in\n    tag_79:\n      mload(0x40)\n      dup1\n      swap2\n      sub\n      swap1\n      return\n        /* \"contracts/Qbii.sol\":11496:11660  function transfer(address recipient, uint256 amount) external override returns (bool) {... */\n    tag_17:\n      tag_80\n      0x04\n      dup1\n      calldatasize\n      sub\n      dup2\n      add\n      swap1\n      tag_81\n      swap2\n      swap1\n      tag_29\n      jump\t// in\n    tag_81:\n      tag_82\n      jump\t// in\n    tag_80:\n      mload(0x40)\n      tag_83\n      swap2\n      swap1\n      tag_32\n      jump\t// in\n    tag_83:\n      mload(0x40)\n      dup1\n      swap2\n      sub\n      swap1\n      return\n        /* \"contracts/Qbii.sol\":11717:11860  function allowance(address owner, address spender) external override view returns (uint256) {... */\n    tag_18:\n      tag_84\n      0x04\n      dup1\n      calldatasize\n      sub\n      dup2\n      add\n      swap1\n      tag_85\n      swap2\n      swap1\n      tag_86\n      jump\t// in\n    tag_85:\n      tag_87\n      jump\t// in\n    tag_84:\n      mload(0x40)\n      tag_88\n      swap2\n      swap1\n      tag_36\n      jump\t// in\n    tag_88:\n      mload(0x40)\n      dup1\n      swap2\n      sub\n      swap1\n      return\n        /* \"contracts/Qbii.sol\":9959:10191  function transferOwnership(address newOwner) public onlyOwner {... */\n    tag_19:\n      tag_89\n      0x04\n      dup1\n      calldatasize\n      sub\n      dup2\n      add\n      swap1\n      tag_90\n      swap2\n      swap1\n      tag_60\n      jump\t// in\n    tag_90:\n      tag_91\n      jump\t// in\n    tag_89:\n      stop\n        /* \"contracts/Qbii.sol\":10867:10959  function name() external override view returns (string memory) {... */\n    tag_24:\n        /* \"contracts/Qbii.sol\":10915:10928  string memory */\n      0x60\n        /* \"contracts/Qbii.sol\":10947:10952  _name */\n      0x03\n        /* \"contracts/Qbii.sol\":10940:10952  return _name */\n      dup1\n      sload\n      tag_94\n      swap1\n      tag_95\n      jump\t// in\n    tag_94:\n      dup1\n      0x1f\n      add\n      0x20\n      dup1\n      swap2\n      div\n      mul\n      0x20\n      add\n      mload(0x40)\n      swap1\n      dup2\n      add\n      0x40\n      mstore\n      dup1\n      swap3\n      swap2\n      swap1\n      dup2\n      dup2\n      mstore\n      0x20\n      add\n      dup3\n      dup1\n      sload\n      tag_96\n      swap1\n      tag_95\n      jump\t// in\n    tag_96:\n      dup1\n      iszero\n      tag_97\n      jumpi\n      dup1\n      0x1f\n      lt\n      tag_98\n      jumpi\n      0x0100\n      dup1\n      dup4\n      sload\n      div\n      mul\n      dup4\n      mstore\n      swap2\n      0x20\n      add\n      swap2\n      jump(tag_97)\n    tag_98:\n      dup3\n      add\n      swap2\n      swap1\n      0x00\n      mstore\n      keccak256(0x00, 0x20)\n      swap1\n    tag_99:\n      dup2\n      sload\n      dup2\n      mstore\n      swap1\n      0x01\n      add\n      swap1\n      0x20\n      add\n      dup1\n      dup4\n      gt\n      tag_99\n      jumpi\n      dup3\n      swap1\n      sub\n      0x1f\n      and\n      dup3\n      add\n      swap2\n    tag_97:\n      pop\n      pop\n      pop\n      pop\n      pop\n      swap1\n      pop\n        /* \"contracts/Qbii.sol\":10867:10959  function name() external override view returns (string memory) {... */\n      swap1\n      jump\t// out\n        /* \"contracts/Qbii.sol\":11997:12155  function approve(address spender, uint256 amount) external override returns (bool) {... */\n    tag_30:\n        /* \"contracts/Qbii.sol\":12074:12078  bool */\n      0x00\n        /* \"contracts/Qbii.sol\":12090:12127  _approve(msg.sender, spender, amount) */\n      tag_101\n        /* \"contracts/Qbii.sol\":12099:12109  msg.sender */\n      caller\n        /* \"contracts/Qbii.sol\":12111:12118  spender */\n      dup5\n        /* \"contracts/Qbii.sol\":12120:12126  amount */\n      dup5\n        /* \"contracts/Qbii.sol\":12090:12098  _approve */\n      tag_102\n        /* \"contracts/Qbii.sol\":12090:12127  _approve(msg.sender, spender, amount) */\n      jump\t// in\n    tag_101:\n        /* \"contracts/Qbii.sol\":12144:12148  true */\n      0x01\n        /* \"contracts/Qbii.sol\":12137:12148  return true */\n      swap1\n      pop\n        /* \"contracts/Qbii.sol\":11997:12155  function approve(address spender, uint256 amount) external override returns (bool) {... */\n      swap3\n      swap2\n      pop\n      pop\n      jump\t// out\n        /* \"contracts/Qbii.sol\":11018:11118  function totalSupply() external override view returns (uint256) {... */\n    tag_34:\n        /* \"contracts/Qbii.sol\":11073:11080  uint256 */\n      0x00\n        /* \"contracts/Qbii.sol\":11099:11111  _totalSupply */\n      sload(0x02)\n        /* \"contracts/Qbii.sol\":11092:11111  return _totalSupply */\n      swap1\n      pop\n        /* \"contracts/Qbii.sol\":11018:11118  function totalSupply() external override view returns (uint256) {... */\n      swap1\n      jump\t// out\n        /* \"contracts/Qbii.sol\":12612:12919  function transferFrom(address sender, address recipient, uint256 amount) external override returns (bool) {... */\n    tag_40:\n        /* \"contracts/Qbii.sol\":12712:12716  bool */\n      0x00\n        /* \"contracts/Qbii.sol\":12728:12764  _transfer(sender, recipient, amount) */\n      tag_105\n        /* \"contracts/Qbii.sol\":12738:12744  sender */\n      dup5\n        /* \"contracts/Qbii.sol\":12746:12755  recipient */\n      dup5\n        /* \"contracts/Qbii.sol\":12757:12763  amount */\n      dup5\n        /* \"contracts/Qbii.sol\":12728:12737  _transfer */\n      tag_106\n        /* \"contracts/Qbii.sol\":12728:12764  _transfer(sender, recipient, amount) */\n      jump\t// in\n    tag_105:\n        /* \"contracts/Qbii.sol\":12774:12891  _approve(sender, msg.sender, _allowances[sender][msg.sender].sub(amount, \"ERC20: transfer amount exceeds allowance\")) */\n      tag_107\n        /* \"contracts/Qbii.sol\":12783:12789  sender */\n      dup5\n        /* \"contracts/Qbii.sol\":12791:12801  msg.sender */\n      caller\n        /* \"contracts/Qbii.sol\":12803:12890  _allowances[sender][msg.sender].sub(amount, \"ERC20: transfer amount exceeds allowance\") */\n      tag_108\n        /* \"contracts/Qbii.sol\":12839:12845  amount */\n      dup6\n        /* \"contracts/Qbii.sol\":12803:12890  _allowances[sender][msg.sender].sub(amount, \"ERC20: transfer amount exceeds allowance\") */\n      mload(0x40)\n      dup1\n      0x60\n      add\n      0x40\n      mstore\n      dup1\n      0x28\n      dup2\n      mstore\n      0x20\n      add\n      data_974d1b4421da69cc60b481194f0dad36a5bb4e23da810da7a7fb30cdba178330\n      0x28\n      swap2\n      codecopy\n        /* \"contracts/Qbii.sol\":12803:12814  _allowances */\n      0x01\n        /* \"contracts/Qbii.sol\":12803:12822  _allowances[sender] */\n      0x00\n        /* \"contracts/Qbii.sol\":12815:12821  sender */\n      dup12\n        /* \"contracts/Qbii.sol\":12803:12822  _allowances[sender] */\n      0xffffffffffffffffffffffffffffffffffffffff\n      and\n      0xffffffffffffffffffffffffffffffffffffffff\n      and\n      dup2\n      mstore\n      0x20\n      add\n      swap1\n      dup2\n      mstore\n      0x20\n      add\n      0x00\n      keccak256\n        /* \"contracts/Qbii.sol\":12803:12834  _allowances[sender][msg.sender] */\n      0x00\n        /* \"contracts/Qbii.sol\":12823:12833  msg.sender */\n      caller\n        /* \"contracts/Qbii.sol\":12803:12834  _allowances[sender][msg.sender] */\n      0xffffffffffffffffffffffffffffffffffffffff\n      and\n      0xffffffffffffffffffffffffffffffffffffffff\n      and\n      dup2\n      mstore\n      0x20\n      add\n      swap1\n      dup2\n      mstore\n      0x20\n      add\n      0x00\n      keccak256\n      sload\n        /* \"contracts/Qbii.sol\":12803:12838  _allowances[sender][msg.sender].sub */\n      tag_109\n      swap1\n        /* \"contracts/Qbii.sol\":12803:12890  _allowances[sender][msg.sender].sub(amount, \"ERC20: transfer amount exceeds allowance\") */\n      swap3\n      swap2\n      swap1\n      0xffffffff\n      and\n      jump\t// in\n    tag_108:\n        /* \"contracts/Qbii.sol\":12774:12782  _approve */\n      tag_102\n        /* \"contracts/Qbii.sol\":12774:12891  _approve(sender, msg.sender, _allowances[sender][msg.sender].sub(amount, \"ERC20: transfer amount exceeds allowance\")) */\n      jump\t// in\n    tag_107:\n        /* \"contracts/Qbii.sol\":12908:12912  true */\n      0x01\n        /* \"contracts/Qbii.sol\":12901:12912  return true */\n      swap1\n      pop\n        /* \"contracts/Qbii.sol\":12612:12919  function transferFrom(address sender, address recipient, uint256 amount) external override returns (bool) {... */\n      swap4\n      swap3\n      pop\n      pop\n      pop\n      jump\t// out\n        /* \"contracts/Qbii.sol\":10563:10655  function decimals() external override view returns (uint8) {... */\n    tag_43:\n        /* \"contracts/Qbii.sol\":10615:10620  uint8 */\n      0x00\n        /* \"contracts/Qbii.sol\":10639:10648  _decimals */\n      0x05\n      0x00\n      swap1\n      sload\n      swap1\n      0x0100\n      exp\n      swap1\n      div\n      0xff\n      and\n        /* \"contracts/Qbii.sol\":10632:10648  return _decimals */\n      swap1\n      pop\n        /* \"contracts/Qbii.sol\":10563:10655  function decimals() external override view returns (uint8) {... */\n      swap1\n      jump\t// out\n        /* \"contracts/Qbii.sol\":13313:13516  function increaseAllowance(address spender, uint256 addedValue) public returns (bool) {... */\n    tag_48:\n        /* \"contracts/Qbii.sol\":13393:13397  bool */\n      0x00\n        /* \"contracts/Qbii.sol\":13409:13488  _approve(msg.sender, spender, _allowances[msg.sender][spender].add(addedValue)) */\n      tag_112\n        /* \"contracts/Qbii.sol\":13418:13428  msg.sender */\n      caller\n        /* \"contracts/Qbii.sol\":13430:13437  spender */\n      dup5\n        /* \"contracts/Qbii.sol\":13439:13487  _allowances[msg.sender][spender].add(addedValue) */\n      tag_113\n        /* \"contracts/Qbii.sol\":13476:13486  addedValue */\n      dup6\n        /* \"contracts/Qbii.sol\":13439:13450  _allowances */\n      0x01\n        /* \"contracts/Qbii.sol\":13439:13462  _allowances[msg.sender] */\n      0x00\n        /* \"contracts/Qbii.sol\":13451:13461  msg.sender */\n      caller\n        /* \"contracts/Qbii.sol\":13439:13462  _allowances[msg.sender] */\n      0xffffffffffffffffffffffffffffffffffffffff\n      and\n      0xffffffffffffffffffffffffffffffffffffffff\n      and\n      dup2\n      mstore\n      0x20\n      add\n      swap1\n      dup2\n      mstore\n      0x20\n      add\n      0x00\n      keccak256\n        /* \"contracts/Qbii.sol\":13439:13471  _allowances[msg.sender][spender] */\n      0x00\n        /* \"contracts/Qbii.sol\":13463:13470  spender */\n      dup10\n        /* \"contracts/Qbii.sol\":13439:13471  _allowances[msg.sender][spender] */\n      0xffffffffffffffffffffffffffffffffffffffff\n      and\n      0xffffffffffffffffffffffffffffffffffffffff\n      and\n      dup2\n      mstore\n      0x20\n      add\n      swap1\n      dup2\n      mstore\n      0x20\n      add\n      0x00\n      keccak256\n      sload\n        /* \"contracts/Qbii.sol\":13439:13475  _allowances[msg.sender][spender].add */\n      tag_92\n      swap1\n        /* \"contracts/Qbii.sol\":13439:13487  _allowances[msg.sender][spender].add(addedValue) */\n      swap2\n      swap1\n      0xffffffff\n      and\n      jump\t// in\n    tag_113:\n        /* \"contracts/Qbii.sol\":13409:13417  _approve */\n      tag_102\n        /* \"contracts/Qbii.sol\":13409:13488  _approve(msg.sender, spender, _allowances[msg.sender][spender].add(addedValue)) */\n      jump\t// in\n    tag_112:\n        /* \"contracts/Qbii.sol\":13505:13509  true */\n      0x01\n        /* \"contracts/Qbii.sol\":13498:13509  return true */\n      swap1\n      pop\n        /* \"contracts/Qbii.sol\":13313:13516  function increaseAllowance(address spender, uint256 addedValue) public returns (bool) {... */\n      swap3\n      swap2\n      pop\n      pop\n      jump\t// out\n        /* \"contracts/Qbii.sol\":14765:14880  function burn(uint256 amount) public returns (bool) {... */\n    tag_53:\n        /* \"contracts/Qbii.sol\":14811:14815  bool */\n      0x00\n        /* \"contracts/Qbii.sol\":14827:14852  _burn(msg.sender, amount) */\n      tag_115\n        /* \"contracts/Qbii.sol\":14833:14843  msg.sender */\n      caller\n        /* \"contracts/Qbii.sol\":14845:14851  amount */\n      dup4\n        /* \"contracts/Qbii.sol\":14827:14832  _burn */\n      tag_116\n        /* \"contracts/Qbii.sol\":14827:14852  _burn(msg.sender, amount) */\n      jump\t// in\n    tag_115:\n        /* \"contracts/Qbii.sol\":14869:14873  true */\n      0x01\n        /* \"contracts/Qbii.sol\":14862:14873  return true */\n      swap1\n      pop\n        /* \"contracts/Qbii.sol\":14765:14880  function burn(uint256 amount) public returns (bool) {... */\n      swap2\n      swap1\n      pop\n      jump\t// out\n        /* \"contracts/Qbii.sol\":10265:10347  function mintable() external view returns (bool) {... */\n    tag_56:\n        /* \"contracts/Qbii.sol\":10308:10312  bool */\n      0x00\n        /* \"contracts/Qbii.sol\":10331:10340  _mintable */\n      0x07\n      0x00\n      swap1\n      sload\n      swap1\n      0x0100\n      exp\n      swap1\n      div\n      0xff\n      and\n        /* \"contracts/Qbii.sol\":10324:10340  return _mintable */\n      swap1\n      pop\n        /* \"contracts/Qbii.sol\":10265:10347  function mintable() external view returns (bool) {... */\n      swap1\n      jump\t// out\n        /* \"contracts/Qbii.sol\":11175:11294  function balanceOf(address account) external override view returns (uint256) {... */\n    tag_61:\n        /* \"contracts/Qbii.sol\":11243:11250  uint256 */\n      0x00\n        /* \"contracts/Qbii.sol\":11269:11278  _balances */\n      dup1\n        /* \"contracts/Qbii.sol\":11269:11287  _balances[account] */\n      0x00\n        /* \"contracts/Qbii.sol\":11279:11286  account */\n      dup4\n        /* \"contracts/Qbii.sol\":11269:11287  _balances[account] */\n      0xffffffffffffffffffffffffffffffffffffffff\n      and\n      0xffffffffffffffffffffffffffffffffffffffff\n      and\n      dup2\n      mstore\n      0x20\n      add\n      swap1\n      dup2\n      mstore\n      0x20\n      add\n      0x00\n      keccak256\n      sload\n        /* \"contracts/Qbii.sol\":11262:11287  return _balances[account] */\n      swap1\n      pop\n        /* \"contracts/Qbii.sol\":11175:11294  function balanceOf(address account) external override view returns (uint256) {... */\n      swap2\n      swap1\n      pop\n      jump\t// out\n        /* \"contracts/Qbii.sol\":9673:9810  function renounceOwnership() public onlyOwner {... */\n    tag_64:\n        /* \"contracts/Qbii.sol\":9044:9054  msg.sender */\n      caller\n        /* \"contracts/Qbii.sol\":9034:9054  _owner == msg.sender */\n      0xffffffffffffffffffffffffffffffffffffffff\n      and\n        /* \"contracts/Qbii.sol\":9034:9040  _owner */\n      0x07\n      0x01\n      swap1\n      sload\n      swap1\n      0x0100\n      exp\n      swap1\n      div\n      0xffffffffffffffffffffffffffffffffffffffff\n      and\n        /* \"contracts/Qbii.sol\":9034:9054  _owner == msg.sender */\n      0xffffffffffffffffffffffffffffffffffffffff\n      and\n      eq\n        /* \"contracts/Qbii.sol\":9026:9091  require(_owner == msg.sender, \"Ownable: caller is not the owner\") */\n      tag_120\n      jumpi\n      mload(0x40)\n      0x08c379a000000000000000000000000000000000000000000000000000000000\n      dup2\n      mstore\n      0x04\n      add\n      tag_121\n      swap1\n      tag_122\n      jump\t// in\n    tag_121:\n      mload(0x40)\n      dup1\n      swap2\n      sub\n      swap1\n      revert\n    tag_120:\n        /* \"contracts/Qbii.sol\":9771:9772  0 */\n      0x00\n        /* \"contracts/Qbii.sol\":9734:9774  OwnershipTransferred(_owner, address(0)) */\n      0xffffffffffffffffffffffffffffffffffffffff\n      and\n        /* \"contracts/Qbii.sol\":9755:9761  _owner */\n      0x07\n      0x01\n      swap1\n      sload\n      swap1\n      0x0100\n      exp\n      swap1\n      div\n      0xffffffffffffffffffffffffffffffffffffffff\n      and\n        /* \"contracts/Qbii.sol\":9734:9774  OwnershipTransferred(_owner, address(0)) */\n      0xffffffffffffffffffffffffffffffffffffffff\n      and\n      0x8be0079c531659141344cd1fd0a4f28419497f9722a3daafe3b4186f6b6457e0\n      mload(0x40)\n      mload(0x40)\n      dup1\n      swap2\n      sub\n      swap1\n      log3\n        /* \"contracts/Qbii.sol\":9801:9802  0 */\n      0x00\n        /* \"contracts/Qbii.sol\":9784:9790  _owner */\n      0x07\n      0x01\n        /* \"contracts/Qbii.sol\":9784:9803  _owner = address(0) */\n      0x0100\n      exp\n      dup2\n      sload\n      dup2\n      0xffffffffffffffffffffffffffffffffffffffff\n      mul\n      not\n      and\n      swap1\n      dup4\n      0xffffffffffffffffffffffffffffffffffffffff\n      and\n      mul\n      or\n      swap1\n      sstore\n      pop\n        /* \"contracts/Qbii.sol\":9673:9810  function renounceOwnership() public onlyOwner {... */\n      jump\t// out\n        /* \"contracts/Qbii.sol\":10410:10501  function getOwner() external override view returns (address) {... */\n    tag_66:\n        /* \"contracts/Qbii.sol\":10462:10469  address */\n      0x00\n        /* \"contracts/Qbii.sol\":10488:10494  _owner */\n      0x07\n      0x01\n      swap1\n      sload\n      swap1\n      0x0100\n      exp\n      swap1\n      div\n      0xffffffffffffffffffffffffffffffffffffffff\n      and\n        /* \"contracts/Qbii.sol\":10481:10494  return _owner */\n      swap1\n      pop\n        /* \"contracts/Qbii.sol\":10410:10501  function getOwner() external override view returns (address) {... */\n      swap1\n      jump\t// out\n        /* \"contracts/Qbii.sol\":10715:10811  function symbol() external override view returns (string memory) {... */\n    tag_70:\n        /* \"contracts/Qbii.sol\":10765:10778  string memory */\n      0x60\n        /* \"contracts/Qbii.sol\":10797:10804  _symbol */\n      0x04\n        /* \"contracts/Qbii.sol\":10790:10804  return _symbol */\n      dup1\n      sload\n      tag_126\n      swap1\n      tag_95\n      jump\t// in\n    tag_126:\n      dup1\n      0x1f\n      add\n      0x20\n      dup1\n      swap2\n      div\n      mul\n      0x20\n      add\n      mload(0x40)\n      swap1\n      dup2\n      add\n      0x40\n      mstore\n      dup1\n      swap3\n      swap2\n      swap1\n      dup2\n      dup2\n      mstore\n      0x20\n      add\n      dup3\n      dup1\n      sload\n      tag_127\n      swap1\n      tag_95\n      jump\t// in\n    tag_127:\n      dup1\n      iszero\n      tag_128\n      jumpi\n      dup1\n      0x1f\n      lt\n      tag_129\n      jumpi\n      0x0100\n      dup1\n      dup4\n      sload\n      div\n      mul\n      dup4\n      mstore\n      swap2\n      0x20\n      add\n      swap2\n      jump(tag_128)\n    tag_129:\n      dup3\n      add\n      swap2\n      swap1\n      0x00\n      mstore\n      keccak256(0x00, 0x20)\n      swap1\n    tag_130:\n      dup2\n      sload\n      dup2\n      mstore\n      swap1\n      0x01\n      add\n      swap1\n      0x20\n      add\n      dup1\n      dup4\n      gt\n      tag_130\n      jumpi\n      dup3\n      swap1\n      sub\n      0x1f\n      and\n      dup3\n      add\n      swap2\n    tag_128:\n      pop\n      pop\n      pop\n      pop\n      pop\n      swap1\n      pop\n        /* \"contracts/Qbii.sol\":10715:10811  function symbol() external override view returns (string memory) {... */\n      swap1\n      jump\t// out\n        /* \"contracts/Qbii.sol\":14498:14681  function mint(uint256 amount) public onlyOwner returns (bool) {... */\n    tag_74:\n        /* \"contracts/Qbii.sol\":14554:14558  bool */\n      0x00\n        /* \"contracts/Qbii.sol\":9044:9054  msg.sender */\n      caller\n        /* \"contracts/Qbii.sol\":9034:9054  _owner == msg.sender */\n      0xffffffffffffffffffffffffffffffffffffffff\n      and\n        /* \"contracts/Qbii.sol\":9034:9040  _owner */\n      0x07\n      0x01\n      swap1\n      sload\n      swap1\n      0x0100\n      exp\n      swap1\n      div\n      0xffffffffffffffffffffffffffffffffffffffff\n      and\n        /* \"contracts/Qbii.sol\":9034:9054  _owner == msg.sender */\n      0xffffffffffffffffffffffffffffffffffffffff\n      and\n      eq\n        /* \"contracts/Qbii.sol\":9026:9091  require(_owner == msg.sender, \"Ownable: caller is not the owner\") */\n      tag_132\n      jumpi\n      mload(0x40)\n      0x08c379a000000000000000000000000000000000000000000000000000000000\n      dup2\n      mstore\n      0x04\n      add\n      tag_133\n      swap1\n      tag_122\n      jump\t// in\n    tag_133:\n      mload(0x40)\n      dup1\n      swap2\n      sub\n      swap1\n      revert\n    tag_132:\n        /* \"contracts/Qbii.sol\":14578:14587  _mintable */\n      0x07\n      0x00\n      swap1\n      sload\n      swap1\n      0x0100\n      exp\n      swap1\n      div\n      0xff\n      and\n        /* \"contracts/Qbii.sol\":14570:14618  require(_mintable, \"this token is not mintable\") */\n      tag_135\n      jumpi\n      mload(0x40)\n      0x08c379a000000000000000000000000000000000000000000000000000000000\n      dup2\n      mstore\n      0x04\n      add\n      tag_136\n      swap1\n      tag_137\n      jump\t// in\n    tag_136:\n      mload(0x40)\n      dup1\n      swap2\n      sub\n      swap1\n      revert\n    tag_135:\n        /* \"contracts/Qbii.sol\":14628:14653  _mint(msg.sender, amount) */\n      tag_138\n        /* \"contracts/Qbii.sol\":14634:14644  msg.sender */\n      caller\n        /* \"contracts/Qbii.sol\":14646:14652  amount */\n      dup4\n        /* \"contracts/Qbii.sol\":14628:14633  _mint */\n      tag_139\n        /* \"contracts/Qbii.sol\":14628:14653  _mint(msg.sender, amount) */\n      jump\t// in\n    tag_138:\n        /* \"contracts/Qbii.sol\":14670:14674  true */\n      0x01\n        /* \"contracts/Qbii.sol\":14663:14674  return true */\n      swap1\n      pop\n        /* \"contracts/Qbii.sol\":14498:14681  function mint(uint256 amount) public onlyOwner returns (bool) {... */\n      swap2\n      swap1\n      pop\n      jump\t// out\n        /* \"contracts/Qbii.sol\":14002:14256  function decreaseAllowance(address spender, uint256 subtractedValue) public returns (bool) {... */\n    tag_78:\n        /* \"contracts/Qbii.sol\":14087:14091  bool */\n      0x00\n        /* \"contracts/Qbii.sol\":14103:14228  _approve(msg.sender, spender, _allowances[msg.sender][spender].sub(subtractedValue, \"ERC20: decreased allowance below zero\")) */\n      tag_141\n        /* \"contracts/Qbii.sol\":14112:14122  msg.sender */\n      caller\n        /* \"contracts/Qbii.sol\":14124:14131  spender */\n      dup5\n        /* \"contracts/Qbii.sol\":14133:14227  _allowances[msg.sender][spender].sub(subtractedValue, \"ERC20: decreased allowance below zero\") */\n      tag_142\n        /* \"contracts/Qbii.sol\":14170:14185  subtractedValue */\n      dup6\n        /* \"contracts/Qbii.sol\":14133:14227  _allowances[msg.sender][spender].sub(subtractedValue, \"ERC20: decreased allowance below zero\") */\n      mload(0x40)\n      dup1\n      0x60\n      add\n      0x40\n      mstore\n      dup1\n      0x25\n      dup2\n      mstore\n      0x20\n      add\n      data_f8b476f7d28209d77d4a4ac1fe36b9f8259aa1bb6bddfa6e89de7e51615cf8a8\n      0x25\n      swap2\n      codecopy\n        /* \"contracts/Qbii.sol\":14133:14144  _allowances */\n      0x01\n        /* \"contracts/Qbii.sol\":14133:14156  _allowances[msg.sender] */\n      0x00\n        /* \"contracts/Qbii.sol\":14145:14155  msg.sender */\n      caller\n        /* \"contracts/Qbii.sol\":14133:14156  _allowances[msg.sender] */\n      0xffffffffffffffffffffffffffffffffffffffff\n      and\n      0xffffffffffffffffffffffffffffffffffffffff\n      and\n      dup2\n      mstore\n      0x20\n      add\n      swap1\n      dup2\n      mstore\n      0x20\n      add\n      0x00\n      keccak256\n        /* \"contracts/Qbii.sol\":14133:14165  _allowances[msg.sender][spender] */\n      0x00\n        /* \"contracts/Qbii.sol\":14157:14164  spender */\n      dup11\n        /* \"contracts/Qbii.sol\":14133:14165  _allowances[msg.sender][spender] */\n      0xffffffffffffffffffffffffffffffffffffffff\n      and\n      0xffffffffffffffffffffffffffffffffffffffff\n      and\n      dup2\n      mstore\n      0x20\n      add\n      swap1\n      dup2\n      mstore\n      0x20\n      add\n      0x00\n      keccak256\n      sload\n        /* \"contracts/Qbii.sol\":14133:14169  _allowances[msg.sender][spender].sub */\n      tag_109\n      swap1\n        /* \"contracts/Qbii.sol\":14133:14227  _allowances[msg.sender][spender].sub(subtractedValue, \"ERC20: decreased allowance below zero\") */\n      swap3\n      swap2\n      swap1\n      0xffffffff\n      and\n      jump\t// in\n    tag_142:\n        /* \"contracts/Qbii.sol\":14103:14111  _approve */\n      tag_102\n        /* \"contracts/Qbii.sol\":14103:14228  _approve(msg.sender, spender, _allowances[msg.sender][spender].sub(subtractedValue, \"ERC20: decreased allowance below zero\")) */\n      jump\t// in\n    tag_141:\n        /* \"contracts/Qbii.sol\":14245:14249  true */\n      0x01\n        /* \"contracts/Qbii.sol\":14238:14249  return true */\n      swap1\n      pop\n        /* \"contracts/Qbii.sol\":14002:14256  function decreaseAllowance(address spender, uint256 subtractedValue) public returns (bool) {... */\n      swap3\n      swap2\n      pop\n      pop\n      jump\t// out\n        /* \"contracts/Qbii.sol\":11496:11660  function transfer(address recipient, uint256 amount) external override returns (bool) {... */\n    tag_82:\n        /* \"contracts/Qbii.sol\":11576:11580  bool */\n      0x00\n        /* \"contracts/Qbii.sol\":11592:11632  _transfer(msg.sender, recipient, amount) */\n      tag_144\n        /* \"contracts/Qbii.sol\":11602:11612  msg.sender */\n      caller\n        /* \"contracts/Qbii.sol\":11614:11623  recipient */\n      dup5\n        /* \"contracts/Qbii.sol\":11625:11631  amount */\n      dup5\n        /* \"contracts/Qbii.sol\":11592:11601  _transfer */\n      tag_106\n        /* \"contracts/Qbii.sol\":11592:11632  _transfer(msg.sender, recipient, amount) */\n      jump\t// in\n    tag_144:\n        /* \"contracts/Qbii.sol\":11649:11653  true */\n      0x01\n        /* \"contracts/Qbii.sol\":11642:11653  return true */\n      swap1\n      pop\n        /* \"contracts/Qbii.sol\":11496:11660  function transfer(address recipient, uint256 amount) external override returns (bool) {... */\n      swap3\n      swap2\n      pop\n      pop\n      jump\t// out\n        /* \"contracts/Qbii.sol\":11717:11860  function allowance(address owner, address spender) external override view returns (uint256) {... */\n    tag_87:\n        /* \"contracts/Qbii.sol\":11800:11807  uint256 */\n      0x00\n        /* \"contracts/Qbii.sol\":11826:11837  _allowances */\n      0x01\n        /* \"contracts/Qbii.sol\":11826:11844  _allowances[owner] */\n      0x00\n        /* \"contracts/Qbii.sol\":11838:11843  owner */\n      dup5\n        /* \"contracts/Qbii.sol\":11826:11844  _allowances[owner] */\n      0xffffffffffffffffffffffffffffffffffffffff\n      and\n      0xffffffffffffffffffffffffffffffffffffffff\n      and\n      dup2\n      mstore\n      0x20\n      add\n      swap1\n      dup2\n      mstore\n      0x20\n      add\n      0x00\n      keccak256\n        /* \"contracts/Qbii.sol\":11826:11853  _allowances[owner][spender] */\n      0x00\n        /* \"contracts/Qbii.sol\":11845:11852  spender */\n      dup4\n        /* \"contracts/Qbii.sol\":11826:11853  _allowances[owner][spender] */\n      0xffffffffffffffffffffffffffffffffffffffff\n      and\n      0xffffffffffffffffffffffffffffffffffffffff\n      and\n      dup2\n      mstore\n      0x20\n      add\n      swap1\n      dup2\n      mstore\n      0x20\n      add\n      0x00\n      keccak256\n      sload\n        /* \"contracts/Qbii.sol\":11819:11853  return _allowances[owner][spender] */\n      swap1\n      pop\n        /* \"contracts/Qbii.sol\":11717:11860  function allowance(address owner, address spender) external override view returns (uint256) {... */\n      swap3\n      swap2\n      pop\n      pop\n      jump\t// out\n        /* \"contracts/Qbii.sol\":9959:10191  function transferOwnership(address newOwner) public onlyOwner {... */\n    tag_91:\n        /* \"contracts/Qbii.sol\":9044:9054  msg.sender */\n      caller\n        /* \"contracts/Qbii.sol\":9034:9054  _owner == msg.sender */\n      0xffffffffffffffffffffffffffffffffffffffff\n      and\n        /* \"contracts/Qbii.sol\":9034:9040  _owner */\n      0x07\n      0x01\n      swap1\n      sload\n      swap1\n      0x0100\n      exp\n      swap1\n      div\n      0xffffffffffffffffffffffffffffffffffffffff\n      and\n        /* \"contracts/Qbii.sol\":9034:9054  _owner == msg.sender */\n      0xffffffffffffffffffffffffffffffffffffffff\n      and\n      eq\n        /* \"contracts/Qbii.sol\":9026:9091  require(_owner == msg.sender, \"Ownable: caller is not the owner\") */\n      tag_147\n      jumpi\n      mload(0x40)\n      0x08c379a000000000000000000000000000000000000000000000000000000000\n      dup2\n      mstore\n      0x04\n      add\n      tag_148\n      swap1\n      tag_122\n      jump\t// in\n    tag_148:\n      mload(0x40)\n      dup1\n      swap2\n      sub\n      swap1\n      revert\n    tag_147:\n        /* \"contracts/Qbii.sol\":10059:10060  0 */\n      0x00\n        /* \"contracts/Qbii.sol\":10039:10061  newOwner != address(0) */\n      0xffffffffffffffffffffffffffffffffffffffff\n      and\n        /* \"contracts/Qbii.sol\":10039:10047  newOwner */\n      dup2\n        /* \"contracts/Qbii.sol\":10039:10061  newOwner != address(0) */\n      0xffffffffffffffffffffffffffffffffffffffff\n      and\n      sub\n        /* \"contracts/Qbii.sol\":10031:10104  require(newOwner != address(0), \"Ownable: new owner is the zero address\") */\n      tag_150\n      jumpi\n      mload(0x40)\n      0x08c379a000000000000000000000000000000000000000000000000000000000\n      dup2\n      mstore\n      0x04\n      add\n      tag_151\n      swap1\n      tag_152\n      jump\t// in\n    tag_151:\n      mload(0x40)\n      dup1\n      swap2\n      sub\n      swap1\n      revert\n    tag_150:\n        /* \"contracts/Qbii.sol\":10148:10156  newOwner */\n      dup1\n        /* \"contracts/Qbii.sol\":10119:10157  OwnershipTransferred(_owner, newOwner) */\n      0xffffffffffffffffffffffffffffffffffffffff\n      and\n        /* \"contracts/Qbii.sol\":10140:10146  _owner */\n      0x07\n      0x01\n      swap1\n      sload\n      swap1\n      0x0100\n      exp\n      swap1\n      div\n      0xffffffffffffffffffffffffffffffffffffffff\n      and\n        /* \"contracts/Qbii.sol\":10119:10157  OwnershipTransferred(_owner, newOwner) */\n      0xffffffffffffffffffffffffffffffffffffffff\n      and\n      0x8be0079c531659141344cd1fd0a4f28419497f9722a3daafe3b4186f6b6457e0\n      mload(0x40)\n      mload(0x40)\n      dup1\n      swap2\n      sub\n      swap1\n      log3\n        /* \"contracts/Qbii.sol\":10176:10184  newOwner */\n      dup1\n        /* \"contracts/Qbii.sol\":10167:10173  _owner */\n      0x07\n      0x01\n        /* \"contracts/Qbii.sol\":10167:10184  _owner = newOwner */\n      0x0100\n      exp\n      dup2\n      sload\n      dup2\n      0xffffffffffffffffffffffffffffffffffffffff\n      mul\n      not\n      and\n      swap1\n      dup4\n      0xffffffffffffffffffffffffffffffffffffffff\n      and\n      mul\n      or\n      swap1\n      sstore\n      pop\n        /* \"contracts/Qbii.sol\":9959:10191  function transferOwnership(address newOwner) public onlyOwner {... */\n      pop\n      jump\t// out\n        /* \"contracts/Qbii.sol\":4000:4176  function add(uint256 a, uint256 b) internal pure returns (uint256) {... */\n    tag_92:\n        /* \"contracts/Qbii.sol\":4058:4065  uint256 */\n      0x00\n        /* \"contracts/Qbii.sol\":4077:4086  uint256 c */\n      dup1\n        /* \"contracts/Qbii.sol\":4093:4094  b */\n      dup3\n        /* \"contracts/Qbii.sol\":4089:4090  a */\n      dup5\n        /* \"contracts/Qbii.sol\":4089:4094  a + b */\n      tag_154\n      swap2\n      swap1\n      tag_155\n      jump\t// in\n    tag_154:\n        /* \"contracts/Qbii.sol\":4077:4094  uint256 c = a + b */\n      swap1\n      pop\n        /* \"contracts/Qbii.sol\":4117:4118  a */\n      dup4\n        /* \"contracts/Qbii.sol\":4112:4113  c */\n      dup2\n        /* \"contracts/Qbii.sol\":4112:4118  c >= a */\n      lt\n      iszero\n        /* \"contracts/Qbii.sol\":4104:4150  require(c >= a, \"SafeMath: addition overflow\") */\n      tag_156\n      jumpi\n      mload(0x40)\n      0x08c379a000000000000000000000000000000000000000000000000000000000\n      dup2\n      mstore\n      0x04\n      add\n      tag_157\n      swap1\n      tag_158\n      jump\t// in\n    tag_157:\n      mload(0x40)\n      dup1\n      swap2\n      sub\n      swap1\n      revert\n    tag_156:\n        /* \"contracts/Qbii.sol\":4168:4169  c */\n      dup1\n        /* \"contracts/Qbii.sol\":4161:4169  return c */\n      swap2\n      pop\n      pop\n        /* \"contracts/Qbii.sol\":4000:4176  function add(uint256 a, uint256 b) internal pure returns (uint256) {... */\n      swap3\n      swap2\n      pop\n      pop\n      jump\t// out\n        /* \"contracts/Qbii.sol\":17476:17808  function _approve(address owner, address spender, uint256 amount) internal {... */\n    tag_102:\n        /* \"contracts/Qbii.sol\":17586:17587  0 */\n      0x00\n        /* \"contracts/Qbii.sol\":17569:17588  owner != address(0) */\n      0xffffffffffffffffffffffffffffffffffffffff\n      and\n        /* \"contracts/Qbii.sol\":17569:17574  owner */\n      dup4\n        /* \"contracts/Qbii.sol\":17569:17588  owner != address(0) */\n      0xffffffffffffffffffffffffffffffffffffffff\n      and\n      sub\n        /* \"contracts/Qbii.sol\":17561:17629  require(owner != address(0), \"ERC20: approve from the zero address\") */\n      tag_160\n      jumpi\n      mload(0x40)\n      0x08c379a000000000000000000000000000000000000000000000000000000000\n      dup2\n      mstore\n      0x04\n      add\n      tag_161\n      swap1\n      tag_162\n      jump\t// in\n    tag_161:\n      mload(0x40)\n      dup1\n      swap2\n      sub\n      swap1\n      revert\n    tag_160:\n        /* \"contracts/Qbii.sol\":17666:17667  0 */\n      0x00\n        /* \"contracts/Qbii.sol\":17647:17668  spender != address(0) */\n      0xffffffffffffffffffffffffffffffffffffffff\n      and\n        /* \"contracts/Qbii.sol\":17647:17654  spender */\n      dup3\n        /* \"contracts/Qbii.sol\":17647:17668  spender != address(0) */\n      0xffffffffffffffffffffffffffffffffffffffff\n      and\n      sub\n        /* \"contracts/Qbii.sol\":17639:17707  require(spender != address(0), \"ERC20: approve to the zero address\") */\n      tag_163\n      jumpi\n      mload(0x40)\n      0x08c379a000000000000000000000000000000000000000000000000000000000\n      dup2\n      mstore\n      0x04\n      add\n      tag_164\n      swap1\n      tag_165\n      jump\t// in\n    tag_164:\n      mload(0x40)\n      dup1\n      swap2\n      sub\n      swap1\n      revert\n    tag_163:\n        /* \"contracts/Qbii.sol\":17748:17754  amount */\n      dup1\n        /* \"contracts/Qbii.sol\":17718:17729  _allowances */\n      0x01\n        /* \"contracts/Qbii.sol\":17718:17736  _allowances[owner] */\n      0x00\n        /* \"contracts/Qbii.sol\":17730:17735  owner */\n      dup6\n        /* \"contracts/Qbii.sol\":17718:17736  _allowances[owner] */\n      0xffffffffffffffffffffffffffffffffffffffff\n      and\n      0xffffffffffffffffffffffffffffffffffffffff\n      and\n      dup2\n      mstore\n      0x20\n      add\n      swap1\n      dup2\n      mstore\n      0x20\n      add\n      0x00\n      keccak256\n        /* \"contracts/Qbii.sol\":17718:17745  _allowances[owner][spender] */\n      0x00\n        /* \"contracts/Qbii.sol\":17737:17744  spender */\n      dup5\n        /* \"contracts/Qbii.sol\":17718:17745  _allowances[owner][spender] */\n      0xffffffffffffffffffffffffffffffffffffffff\n      and\n      0xffffffffffffffffffffffffffffffffffffffff\n      and\n      dup2\n      mstore\n      0x20\n      add\n      swap1\n      dup2\n      mstore\n      0x20\n      add\n      0x00\n      keccak256\n        /* \"contracts/Qbii.sol\":17718:17754  _allowances[owner][spender] = amount */\n      dup2\n      swap1\n      sstore\n      pop\n        /* \"contracts/Qbii.sol\":17785:17792  spender */\n      dup2\n        /* \"contracts/Qbii.sol\":17769:17801  Approval(owner, spender, amount) */\n      0xffffffffffffffffffffffffffffffffffffffff\n      and\n        /* \"contracts/Qbii.sol\":17778:17783  owner */\n      dup4\n        /* \"contracts/Qbii.sol\":17769:17801  Approval(owner, spender, amount) */\n      0xffffffffffffffffffffffffffffffffffffffff\n      and\n      0x8c5be1e5ebec7d5bd14f71427d1e84f3dd0314c0f7b2291e5b200ac8c7c3b925\n        /* \"contracts/Qbii.sol\":17794:17800  amount */\n      dup4\n        /* \"contracts/Qbii.sol\":17769:17801  Approval(owner, spender, amount) */\n      mload(0x40)\n      tag_166\n      swap2\n      swap1\n      tag_36\n      jump\t// in\n    tag_166:\n      mload(0x40)\n      dup1\n      swap2\n      sub\n      swap1\n      log3\n        /* \"contracts/Qbii.sol\":17476:17808  function _approve(address owner, address spender, uint256 amount) internal {... */\n      pop\n      pop\n      pop\n      jump\t// out\n        /* \"contracts/Qbii.sol\":15354:15818  function _transfer(address sender, address recipient, uint256 amount) internal {... */\n    tag_106:\n        /* \"contracts/Qbii.sol\":15469:15470  0 */\n      0x00\n        /* \"contracts/Qbii.sol\":15451:15471  sender != address(0) */\n      0xffffffffffffffffffffffffffffffffffffffff\n      and\n        /* \"contracts/Qbii.sol\":15451:15457  sender */\n      dup4\n        /* \"contracts/Qbii.sol\":15451:15471  sender != address(0) */\n      0xffffffffffffffffffffffffffffffffffffffff\n      and\n      sub\n        /* \"contracts/Qbii.sol\":15443:15513  require(sender != address(0), \"ERC20: transfer from the zero address\") */\n      tag_168\n      jumpi\n      mload(0x40)\n      0x08c379a000000000000000000000000000000000000000000000000000000000\n      dup2\n      mstore\n      0x04\n      add\n      tag_169\n      swap1\n      tag_170\n      jump\t// in\n    tag_169:\n      mload(0x40)\n      dup1\n      swap2\n      sub\n      swap1\n      revert\n    tag_168:\n        /* \"contracts/Qbii.sol\":15552:15553  0 */\n      0x00\n        /* \"contracts/Qbii.sol\":15531:15554  recipient != address(0) */\n      0xffffffffffffffffffffffffffffffffffffffff\n      and\n        /* \"contracts/Qbii.sol\":15531:15540  recipient */\n      dup3\n        /* \"contracts/Qbii.sol\":15531:15554  recipient != address(0) */\n      0xffffffffffffffffffffffffffffffffffffffff\n      and\n      sub\n        /* \"contracts/Qbii.sol\":15523:15594  require(recipient != address(0), \"ERC20: transfer to the zero address\") */\n      tag_171\n      jumpi\n      mload(0x40)\n      0x08c379a000000000000000000000000000000000000000000000000000000000\n      dup2\n      mstore\n      0x04\n      add\n      tag_172\n      swap1\n      tag_173\n      jump\t// in\n    tag_172:\n      mload(0x40)\n      dup1\n      swap2\n      sub\n      swap1\n      revert\n    tag_171:\n        /* \"contracts/Qbii.sol\":15625:15696  _balances[sender].sub(amount, \"ERC20: transfer amount exceeds balance\") */\n      tag_174\n        /* \"contracts/Qbii.sol\":15647:15653  amount */\n      dup2\n        /* \"contracts/Qbii.sol\":15625:15696  _balances[sender].sub(amount, \"ERC20: transfer amount exceeds balance\") */\n      mload(0x40)\n      dup1\n      0x60\n      add\n      0x40\n      mstore\n      dup1\n      0x26\n      dup2\n      mstore\n      0x20\n      add\n      data_4107e8a8b9e94bf8ff83080ddec1c0bffe897ebc2241b89d44f66b3d274088b6\n      0x26\n      swap2\n      codecopy\n        /* \"contracts/Qbii.sol\":15625:15634  _balances */\n      0x00\n        /* \"contracts/Qbii.sol\":15625:15642  _balances[sender] */\n      dup1\n        /* \"contracts/Qbii.sol\":15635:15641  sender */\n      dup8\n        /* \"contracts/Qbii.sol\":15625:15642  _balances[sender] */\n      0xffffffffffffffffffffffffffffffffffffffff\n      and\n      0xffffffffffffffffffffffffffffffffffffffff\n      and\n      dup2\n      mstore\n      0x20\n      add\n      swap1\n      dup2\n      mstore\n      0x20\n      add\n      0x00\n      keccak256\n      sload\n        /* \"contracts/Qbii.sol\":15625:15646  _balances[sender].sub */\n      tag_109\n      swap1\n        /* \"contracts/Qbii.sol\":15625:15696  _balances[sender].sub(amount, \"ERC20: transfer amount exceeds balance\") */\n      swap3\n      swap2\n      swap1\n      0xffffffff\n      and\n      jump\t// in\n    tag_174:\n        /* \"contracts/Qbii.sol\":15605:15614  _balances */\n      0x00\n        /* \"contracts/Qbii.sol\":15605:15622  _balances[sender] */\n      dup1\n        /* \"contracts/Qbii.sol\":15615:15621  sender */\n      dup6\n        /* \"contracts/Qbii.sol\":15605:15622  _balances[sender] */\n      0xffffffffffffffffffffffffffffffffffffffff\n      and\n      0xffffffffffffffffffffffffffffffffffffffff\n      and\n      dup2\n      mstore\n      0x20\n      add\n      swap1\n      dup2\n      mstore\n      0x20\n      add\n      0x00\n      keccak256\n        /* \"contracts/Qbii.sol\":15605:15696  _balances[sender] = _balances[sender].sub(amount, \"ERC20: transfer amount exceeds balance\") */\n      dup2\n      swap1\n      sstore\n      pop\n        /* \"contracts/Qbii.sol\":15729:15761  _balances[recipient].add(amount) */\n      tag_175\n        /* \"contracts/Qbii.sol\":15754:15760  amount */\n      dup2\n        /* \"contracts/Qbii.sol\":15729:15738  _balances */\n      0x00\n        /* \"contracts/Qbii.sol\":15729:15749  _balances[recipient] */\n      dup1\n        /* \"contracts/Qbii.sol\":15739:15748  recipient */\n      dup6\n        /* \"contracts/Qbii.sol\":15729:15749  _balances[recipient] */\n      0xffffffffffffffffffffffffffffffffffffffff\n      and\n      0xffffffffffffffffffffffffffffffffffffffff\n      and\n      dup2\n      mstore\n      0x20\n      add\n      swap1\n      dup2\n      mstore\n      0x20\n      add\n      0x00\n      keccak256\n      sload\n        /* \"contracts/Qbii.sol\":15729:15753  _balances[recipient].add */\n      tag_92\n      swap1\n        /* \"contracts/Qbii.sol\":15729:15761  _balances[recipient].add(amount) */\n      swap2\n      swap1\n      0xffffffff\n      and\n      jump\t// in\n    tag_175:\n        /* \"contracts/Qbii.sol\":15706:15715  _balances */\n      0x00\n        /* \"contracts/Qbii.sol\":15706:15726  _balances[recipient] */\n      dup1\n        /* \"contracts/Qbii.sol\":15716:15725  recipient */\n      dup5\n        /* \"contracts/Qbii.sol\":15706:15726  _balances[recipient] */\n      0xffffffffffffffffffffffffffffffffffffffff\n      and\n      0xffffffffffffffffffffffffffffffffffffffff\n      and\n      dup2\n      mstore\n      0x20\n      add\n      swap1\n      dup2\n      mstore\n      0x20\n      add\n      0x00\n      keccak256\n        /* \"contracts/Qbii.sol\":15706:15761  _balances[recipient] = _balances[recipient].add(amount) */\n      dup2\n      swap1\n      sstore\n      pop\n        /* \"contracts/Qbii.sol\":15793:15802  recipient */\n      dup2\n        /* \"contracts/Qbii.sol\":15776:15811  Transfer(sender, recipient, amount) */\n      0xffffffffffffffffffffffffffffffffffffffff\n      and\n        /* \"contracts/Qbii.sol\":15785:15791  sender */\n      dup4\n        /* \"contracts/Qbii.sol\":15776:15811  Transfer(sender, recipient, amount) */\n      0xffffffffffffffffffffffffffffffffffffffff\n      and\n      0xddf252ad1be2c89b69c2b068fc378daa952ba7f163c4a11628f55a4df523b3ef\n        /* \"contracts/Qbii.sol\":15804:15810  amount */\n      dup4\n        /* \"contracts/Qbii.sol\":15776:15811  Transfer(sender, recipient, amount) */\n      mload(0x40)\n      tag_176\n      swap2\n      swap1\n      tag_36\n      jump\t// in\n    tag_176:\n      mload(0x40)\n      dup1\n      swap2\n      sub\n      swap1\n      log3\n        /* \"contracts/Qbii.sol\":15354:15818  function _transfer(address sender, address recipient, uint256 amount) internal {... */\n      pop\n      pop\n      pop\n      jump\t// out\n        /* \"contracts/Qbii.sol\":4872:5059  function sub(uint256 a, uint256 b, string memory errorMessage) internal pure returns (uint256) {... */\n    tag_109:\n        /* \"contracts/Qbii.sol\":4958:4965  uint256 */\n      0x00\n        /* \"contracts/Qbii.sol\":4990:4991  a */\n      dup4\n        /* \"contracts/Qbii.sol\":4985:4986  b */\n      dup4\n        /* \"contracts/Qbii.sol\":4985:4991  b <= a */\n      gt\n      iszero\n        /* \"contracts/Qbii.sol\":4993:5005  errorMessage */\n      dup3\n        /* \"contracts/Qbii.sol\":4977:5006  require(b <= a, errorMessage) */\n      swap1\n      tag_178\n      jumpi\n      mload(0x40)\n      0x08c379a000000000000000000000000000000000000000000000000000000000\n      dup2\n      mstore\n      0x04\n      add\n      tag_179\n      swap2\n      swap1\n      tag_26\n      jump\t// in\n    tag_179:\n      mload(0x40)\n      dup1\n      swap2\n      sub\n      swap1\n      revert\n    tag_178:\n      pop\n        /* \"contracts/Qbii.sol\":5016:5025  uint256 c */\n      0x00\n        /* \"contracts/Qbii.sol\":5032:5033  b */\n      dup4\n        /* \"contracts/Qbii.sol\":5028:5029  a */\n      dup6\n        /* \"contracts/Qbii.sol\":5028:5033  a - b */\n      tag_180\n      swap2\n      swap1\n      tag_181\n      jump\t// in\n    tag_180:\n        /* \"contracts/Qbii.sol\":5016:5033  uint256 c = a - b */\n      swap1\n      pop\n        /* \"contracts/Qbii.sol\":5051:5052  c */\n      dup1\n        /* \"contracts/Qbii.sol\":5044:5052  return c */\n      swap2\n      pop\n      pop\n        /* \"contracts/Qbii.sol\":4872:5059  function sub(uint256 a, uint256 b, string memory errorMessage) internal pure returns (uint256) {... */\n      swap4\n      swap3\n      pop\n      pop\n      pop\n      jump\t// out\n        /* \"contracts/Qbii.sol\":16709:17051  function _burn(address account, uint256 amount) internal {... */\n    tag_116:\n        /* \"contracts/Qbii.sol\":16803:16804  0 */\n      0x00\n        /* \"contracts/Qbii.sol\":16784:16805  account != address(0) */\n      0xffffffffffffffffffffffffffffffffffffffff\n      and\n        /* \"contracts/Qbii.sol\":16784:16791  account */\n      dup3\n        /* \"contracts/Qbii.sol\":16784:16805  account != address(0) */\n      0xffffffffffffffffffffffffffffffffffffffff\n      and\n      sub\n        /* \"contracts/Qbii.sol\":16776:16843  require(account != address(0), \"ERC20: burn from the zero address\") */\n      tag_183\n      jumpi\n      mload(0x40)\n      0x08c379a000000000000000000000000000000000000000000000000000000000\n      dup2\n      mstore\n      0x04\n      add\n      tag_184\n      swap1\n      tag_185\n      jump\t// in\n    tag_184:\n      mload(0x40)\n      dup1\n      swap2\n      sub\n      swap1\n      revert\n    tag_183:\n        /* \"contracts/Qbii.sol\":16875:16943  _balances[account].sub(amount, \"ERC20: burn amount exceeds balance\") */\n      tag_186\n        /* \"contracts/Qbii.sol\":16898:16904  amount */\n      dup2\n        /* \"contracts/Qbii.sol\":16875:16943  _balances[account].sub(amount, \"ERC20: burn amount exceeds balance\") */\n      mload(0x40)\n      dup1\n      0x60\n      add\n      0x40\n      mstore\n      dup1\n      0x22\n      dup2\n      mstore\n      0x20\n      add\n      data_149b126e7125232b4200af45303d04fba8b74653b1a295a6a561a528c33fefdd\n      0x22\n      swap2\n      codecopy\n        /* \"contracts/Qbii.sol\":16875:16884  _balances */\n      0x00\n        /* \"contracts/Qbii.sol\":16875:16893  _balances[account] */\n      dup1\n        /* \"contracts/Qbii.sol\":16885:16892  account */\n      dup7\n        /* \"contracts/Qbii.sol\":16875:16893  _balances[account] */\n      0xffffffffffffffffffffffffffffffffffffffff\n      and\n      0xffffffffffffffffffffffffffffffffffffffff\n      and\n      dup2\n      mstore\n      0x20\n      add\n      swap1\n      dup2\n      mstore\n      0x20\n      add\n      0x00\n      keccak256\n      sload\n        /* \"contracts/Qbii.sol\":16875:16897  _balances[account].sub */\n      tag_109\n      swap1\n        /* \"contracts/Qbii.sol\":16875:16943  _balances[account].sub(amount, \"ERC20: burn amount exceeds balance\") */\n      swap3\n      swap2\n      swap1\n      0xffffffff\n      and\n      jump\t// in\n    tag_186:\n        /* \"contracts/Qbii.sol\":16854:16863  _balances */\n      0x00\n        /* \"contracts/Qbii.sol\":16854:16872  _balances[account] */\n      dup1\n        /* \"contracts/Qbii.sol\":16864:16871  account */\n      dup5\n        /* \"contracts/Qbii.sol\":16854:16872  _balances[account] */\n      0xffffffffffffffffffffffffffffffffffffffff\n      and\n      0xffffffffffffffffffffffffffffffffffffffff\n      and\n      dup2\n      mstore\n      0x20\n      add\n      swap1\n      dup2\n      mstore\n      0x20\n      add\n      0x00\n      keccak256\n        /* \"contracts/Qbii.sol\":16854:16943  _balances[account] = _balances[account].sub(amount, \"ERC20: burn amount exceeds balance\") */\n      dup2\n      swap1\n      sstore\n      pop\n        /* \"contracts/Qbii.sol\":16968:16992  _totalSupply.sub(amount) */\n      tag_187\n        /* \"contracts/Qbii.sol\":16985:16991  amount */\n      dup2\n        /* \"contracts/Qbii.sol\":16968:16980  _totalSupply */\n      sload(0x02)\n        /* \"contracts/Qbii.sol\":16968:16984  _totalSupply.sub */\n      tag_188\n      swap1\n        /* \"contracts/Qbii.sol\":16968:16992  _totalSupply.sub(amount) */\n      swap2\n      swap1\n      0xffffffff\n      and\n      jump\t// in\n    tag_187:\n        /* \"contracts/Qbii.sol\":16953:16965  _totalSupply */\n      0x02\n        /* \"contracts/Qbii.sol\":16953:16992  _totalSupply = _totalSupply.sub(amount) */\n      dup2\n      swap1\n      sstore\n      pop\n        /* \"contracts/Qbii.sol\":17033:17034  0 */\n      0x00\n        /* \"contracts/Qbii.sol\":17007:17044  Transfer(account, address(0), amount) */\n      0xffffffffffffffffffffffffffffffffffffffff\n      and\n        /* \"contracts/Qbii.sol\":17016:17023  account */\n      dup3\n        /* \"contracts/Qbii.sol\":17007:17044  Transfer(account, address(0), amount) */\n      0xffffffffffffffffffffffffffffffffffffffff\n      and\n      0xddf252ad1be2c89b69c2b068fc378daa952ba7f163c4a11628f55a4df523b3ef\n        /* \"contracts/Qbii.sol\":17037:17043  amount */\n      dup4\n        /* \"contracts/Qbii.sol\":17007:17044  Transfer(account, address(0), amount) */\n      mload(0x40)\n      tag_189\n      swap2\n      swap1\n      tag_36\n      jump\t// in\n    tag_189:\n      mload(0x40)\n      dup1\n      swap2\n      sub\n      swap1\n      log3\n        /* \"contracts/Qbii.sol\":16709:17051  function _burn(address account, uint256 amount) internal {... */\n      pop\n      pop\n      jump\t// out\n        /* \"contracts/Qbii.sol\":16088:16390  function _mint(address account, uint256 amount) internal {... */\n    tag_139:\n        /* \"contracts/Qbii.sol\":16182:16183  0 */\n      0x00\n        /* \"contracts/Qbii.sol\":16163:16184  account != address(0) */\n      0xffffffffffffffffffffffffffffffffffffffff\n      and\n        /* \"contracts/Qbii.sol\":16163:16170  account */\n      dup3\n        /* \"contracts/Qbii.sol\":16163:16184  account != address(0) */\n      0xffffffffffffffffffffffffffffffffffffffff\n      and\n      sub\n        /* \"contracts/Qbii.sol\":16155:16220  require(account != address(0), \"ERC20: mint to the zero address\") */\n      tag_191\n      jumpi\n      mload(0x40)\n      0x08c379a000000000000000000000000000000000000000000000000000000000\n      dup2\n      mstore\n      0x04\n      add\n      tag_192\n      swap1\n      tag_193\n      jump\t// in\n    tag_192:\n      mload(0x40)\n      dup1\n      swap2\n      sub\n      swap1\n      revert\n    tag_191:\n        /* \"contracts/Qbii.sol\":16246:16270  _totalSupply.add(amount) */\n      tag_194\n        /* \"contracts/Qbii.sol\":16263:16269  amount */\n      dup2\n        /* \"contracts/Qbii.sol\":16246:16258  _totalSupply */\n      sload(0x02)\n        /* \"contracts/Qbii.sol\":16246:16262  _totalSupply.add */\n      tag_92\n      swap1\n        /* \"contracts/Qbii.sol\":16246:16270  _totalSupply.add(amount) */\n      swap2\n      swap1\n      0xffffffff\n      and\n      jump\t// in\n    tag_194:\n        /* \"contracts/Qbii.sol\":16231:16243  _totalSupply */\n      0x02\n        /* \"contracts/Qbii.sol\":16231:16270  _totalSupply = _totalSupply.add(amount) */\n      dup2\n      swap1\n      sstore\n      pop\n        /* \"contracts/Qbii.sol\":16301:16331  _balances[account].add(amount) */\n      tag_195\n        /* \"contracts/Qbii.sol\":16324:16330  amount */\n      dup2\n        /* \"contracts/Qbii.sol\":16301:16310  _balances */\n      0x00\n        /* \"contracts/Qbii.sol\":16301:16319  _balances[account] */\n      dup1\n        /* \"contracts/Qbii.sol\":16311:16318  account */\n      dup6\n        /* \"contracts/Qbii.sol\":16301:16319  _balances[account] */\n      0xffffffffffffffffffffffffffffffffffffffff\n      and\n      0xffffffffffffffffffffffffffffffffffffffff\n      and\n      dup2\n      mstore\n      0x20\n      add\n      swap1\n      dup2\n      mstore\n      0x20\n      add\n      0x00\n      keccak256\n      sload\n        /* \"contracts/Qbii.sol\":16301:16323  _balances[account].add */\n      tag_92\n      swap1\n        /* \"contracts/Qbii.sol\":16301:16331  _balances[account].add(amount) */\n      swap2\n      swap1\n      0xffffffff\n      and\n      jump\t// in\n    tag_195:\n        /* \"contracts/Qbii.sol\":16280:16289  _balances */\n      0x00\n        /* \"contracts/Qbii.sol\":16280:16298  _balances[account] */\n      dup1\n        /* \"contracts/Qbii.sol\":16290:16297  account */\n      dup5\n        /* \"contracts/Qbii.sol\":16280:16298  _balances[account] */\n      0xffffffffffffffffffffffffffffffffffffffff\n      and\n      0xffffffffffffffffffffffffffffffffffffffff\n      and\n      dup2\n      mstore\n      0x20\n      add\n      swap1\n      dup2\n      mstore\n      0x20\n      add\n      0x00\n      keccak256\n        /* \"contracts/Qbii.sol\":16280:16331  _balances[account] = _balances[account].add(amount) */\n      dup2\n      swap1\n      sstore\n      pop\n        /* \"contracts/Qbii.sol\":16367:16374  account */\n      dup2\n        /* \"contracts/Qbii.sol\":16346:16383  Transfer(address(0), account, amount) */\n      0xffffffffffffffffffffffffffffffffffffffff\n      and\n        /* \"contracts/Qbii.sol\":16363:16364  0 */\n      0x00\n        /* \"contracts/Qbii.sol\":16346:16383  Transfer(address(0), account, amount) */\n      0xffffffffffffffffffffffffffffffffffffffff\n      and\n      0xddf252ad1be2c89b69c2b068fc378daa952ba7f163c4a11628f55a4df523b3ef\n        /* \"contracts/Qbii.sol\":16376:16382  amount */\n      dup4\n        /* \"contracts/Qbii.sol\":16346:16383  Transfer(address(0), account, amount) */\n      mload(0x40)\n      tag_196\n      swap2\n      swap1\n      tag_36\n      jump\t// in\n    tag_196:\n      mload(0x40)\n      dup1\n      swap2\n      sub\n      swap1\n      log3\n        /* \"contracts/Qbii.sol\":16088:16390  function _mint(address account, uint256 amount) internal {... */\n      pop\n      pop\n      jump\t// out\n        /* \"contracts/Qbii.sol\":4447:4581  function sub(uint256 a, uint256 b) internal pure returns (uint256) {... */\n    tag_188:\n        /* \"contracts/Qbii.sol\":4505:4512  uint256 */\n      0x00\n        /* \"contracts/Qbii.sol\":4531:4574  sub(a, b, \"SafeMath: subtraction overflow\") */\n      tag_198\n        /* \"contracts/Qbii.sol\":4535:4536  a */\n      dup4\n        /* \"contracts/Qbii.sol\":4538:4539  b */\n      dup4\n        /* \"contracts/Qbii.sol\":4531:4574  sub(a, b, \"SafeMath: subtraction overflow\") */\n      mload(0x40)\n      dup1\n      0x40\n      add\n      0x40\n      mstore\n      dup1\n      0x1e\n      dup2\n      mstore\n      0x20\n      add\n      0x536166654d6174683a207375627472616374696f6e206f766572666c6f770000\n      dup2\n      mstore\n      pop\n        /* \"contracts/Qbii.sol\":4531:4534  sub */\n      tag_109\n        /* \"contracts/Qbii.sol\":4531:4574  sub(a, b, \"SafeMath: subtraction overflow\") */\n      jump\t// in\n    tag_198:\n        /* \"contracts/Qbii.sol\":4524:4574  return sub(a, b, \"SafeMath: subtraction overflow\") */\n      swap1\n      pop\n        /* \"contracts/Qbii.sol\":4447:4581  function sub(uint256 a, uint256 b) internal pure returns (uint256) {... */\n      swap3\n      swap2\n      pop\n      pop\n      jump\t// out\n        /* \"#utility.yul\":7:106   */\n    tag_199:\n        /* \"#utility.yul\":59:65   */\n      0x00\n        /* \"#utility.yul\":93:98   */\n      dup2\n        /* \"#utility.yul\":87:99   */\n      mload\n        /* \"#utility.yul\":77:99   */\n      swap1\n      pop\n        /* \"#utility.yul\":7:106   */\n      swap2\n      swap1\n      pop\n      jump\t// out\n        /* \"#utility.yul\":112:281   */\n    tag_200:\n        /* \"#utility.yul\":196:207   */\n      0x00\n        /* \"#utility.yul\":230:236   */\n      dup3\n        /* \"#utility.yul\":225:228   */\n      dup3\n        /* \"#utility.yul\":218:237   */\n      mstore\n        /* \"#utility.yul\":270:274   */\n      0x20\n        /* \"#utility.yul\":265:268   */\n      dup3\n        /* \"#utility.yul\":261:275   */\n      add\n        /* \"#utility.yul\":246:275   */\n      swap1\n      pop\n        /* \"#utility.yul\":112:281   */\n      swap3\n      swap2\n      pop\n      pop\n      jump\t// out\n        /* \"#utility.yul\":287:594   */\n    tag_201:\n        /* \"#utility.yul\":355:356   */\n      0x00\n        /* \"#utility.yul\":365:478   */\n    tag_246:\n        /* \"#utility.yul\":379:385   */\n      dup4\n        /* \"#utility.yul\":376:377   */\n      dup2\n        /* \"#utility.yul\":373:386   */\n      lt\n        /* \"#utility.yul\":365:478   */\n      iszero\n      tag_248\n      jumpi\n        /* \"#utility.yul\":464:465   */\n      dup1\n        /* \"#utility.yul\":459:462   */\n      dup3\n        /* \"#utility.yul\":455:466   */\n      add\n        /* \"#utility.yul\":449:467   */\n      mload\n        /* \"#utility.yul\":445:446   */\n      dup2\n        /* \"#utility.yul\":440:443   */\n      dup5\n        /* \"#utility.yul\":436:447   */\n      add\n        /* \"#utility.yul\":429:468   */\n      mstore\n        /* \"#utility.yul\":401:403   */\n      0x20\n        /* \"#utility.yul\":398:399   */\n      dup2\n        /* \"#utility.yul\":394:404   */\n      add\n        /* \"#utility.yul\":389:404   */\n      swap1\n      pop\n        /* \"#utility.yul\":365:478   */\n      jump(tag_246)\n    tag_248:\n        /* \"#utility.yul\":496:502   */\n      dup4\n        /* \"#utility.yul\":493:494   */\n      dup2\n        /* \"#utility.yul\":490:503   */\n      gt\n        /* \"#utility.yul\":487:588   */\n      iszero\n      tag_249\n      jumpi\n        /* \"#utility.yul\":576:577   */\n      0x00\n        /* \"#utility.yul\":567:573   */\n      dup5\n        /* \"#utility.yul\":562:565   */\n      dup5\n        /* \"#utility.yul\":558:574   */\n      add\n        /* \"#utility.yul\":551:578   */\n      mstore\n        /* \"#utility.yul\":487:588   */\n    tag_249:\n        /* \"#utility.yul\":336:594   */\n      pop\n        /* \"#utility.yul\":287:594   */\n      pop\n      pop\n      pop\n      jump\t// out\n        /* \"#utility.yul\":600:702   */\n    tag_202:\n        /* \"#utility.yul\":641:647   */\n      0x00\n        /* \"#utility.yul\":692:694   */\n      0x1f\n        /* \"#utility.yul\":688:695   */\n      not\n        /* \"#utility.yul\":683:685   */\n      0x1f\n        /* \"#utility.yul\":676:681   */\n      dup4\n        /* \"#utility.yul\":672:686   */\n      add\n        /* \"#utility.yul\":668:696   */\n      and\n        /* \"#utility.yul\":658:696   */\n      swap1\n      pop\n        /* \"#utility.yul\":600:702   */\n      swap2\n      swap1\n      pop\n      jump\t// out\n        /* \"#utility.yul\":708:1072   */\n    tag_203:\n        /* \"#utility.yul\":796:799   */\n      0x00\n        /* \"#utility.yul\":824:863   */\n      tag_252\n        /* \"#utility.yul\":857:862   */\n      dup3\n        /* \"#utility.yul\":824:863   */\n      tag_199\n      jump\t// in\n    tag_252:\n        /* \"#utility.yul\":879:950   */\n      tag_253\n        /* \"#utility.yul\":943:949   */\n      dup2\n        /* \"#utility.yul\":938:941   */\n      dup6\n        /* \"#utility.yul\":879:950   */\n      tag_200\n      jump\t// in\n    tag_253:\n        /* \"#utility.yul\":872:950   */\n      swap4\n      pop\n        /* \"#utility.yul\":959:1011   */\n      tag_254\n        /* \"#utility.yul\":1004:1010   */\n      dup2\n        /* \"#utility.yul\":999:1002   */\n      dup6\n        /* \"#utility.yul\":992:996   */\n      0x20\n        /* \"#utility.yul\":985:990   */\n      dup7\n        /* \"#utility.yul\":981:997   */\n      add\n        /* \"#utility.yul\":959:1011   */\n      tag_201\n      jump\t// in\n    tag_254:\n        /* \"#utility.yul\":1036:1065   */\n      tag_255\n        /* \"#utility.yul\":1058:1064   */\n      dup2\n        /* \"#utility.yul\":1036:1065   */\n      tag_202\n      jump\t// in\n    tag_255:\n        /* \"#utility.yul\":1031:1034   */\n      dup5\n        /* \"#utility.yul\":1027:1066   */\n      add\n        /* \"#utility.yul\":1020:1066   */\n      swap2\n      pop\n        /* \"#utility.yul\":800:1072   */\n      pop\n        /* \"#utility.yul\":708:1072   */\n      swap3\n      swap2\n      pop\n      pop\n      jump\t// out\n        /* \"#utility.yul\":1078:1391   */\n    tag_26:\n        /* \"#utility.yul\":1191:1195   */\n      0x00\n        /* \"#utility.yul\":1229:1231   */\n      0x20\n        /* \"#utility.yul\":1218:1227   */\n      dup3\n        /* \"#utility.yul\":1214:1232   */\n      add\n        /* \"#utility.yul\":1206:1232   */\n      swap1\n      pop\n        /* \"#utility.yul\":1278:1287   */\n      dup2\n        /* \"#utility.yul\":1272:1276   */\n      dup2\n        /* \"#utility.yul\":1268:1288   */\n      sub\n        /* \"#utility.yul\":1264:1265   */\n      0x00\n        /* \"#utility.yul\":1253:1262   */\n      dup4\n        /* \"#utility.yul\":1249:1266   */\n      add\n        /* \"#utility.yul\":1242:1289   */\n      mstore\n        /* \"#utility.yul\":1306:1384   */\n      tag_257\n        /* \"#utility.yul\":1379:1383   */\n      dup2\n        /* \"#utility.yul\":1370:1376   */\n      dup5\n        /* \"#utility.yul\":1306:1384   */\n      tag_203\n      jump\t// in\n    tag_257:\n        /* \"#utility.yul\":1298:1384   */\n      swap1\n      pop\n        /* \"#utility.yul\":1078:1391   */\n      swap3\n      swap2\n      pop\n      pop\n      jump\t// out\n        /* \"#utility.yul\":1478:1595   */\n    tag_205:\n        /* \"#utility.yul\":1587:1588   */\n      0x00\n        /* \"#utility.yul\":1584:1585   */\n      dup1\n        /* \"#utility.yul\":1577:1589   */\n      revert\n        /* \"#utility.yul\":1724:1850   */\n    tag_207:\n        /* \"#utility.yul\":1761:1768   */\n      0x00\n        /* \"#utility.yul\":1801:1843   */\n      0xffffffffffffffffffffffffffffffffffffffff\n        /* \"#utility.yul\":1794:1799   */\n      dup3\n        /* \"#utility.yul\":1790:1844   */\n      and\n        /* \"#utility.yul\":1779:1844   */\n      swap1\n      pop\n        /* \"#utility.yul\":1724:1850   */\n      swap2\n      swap1\n      pop\n      jump\t// out\n        /* \"#utility.yul\":1856:1952   */\n    tag_208:\n        /* \"#utility.yul\":1893:1900   */\n      0x00\n        /* \"#utility.yul\":1922:1946   */\n      tag_263\n        /* \"#utility.yul\":1940:1945   */\n      dup3\n        /* \"#utility.yul\":1922:1946   */\n      tag_207\n      jump\t// in\n    tag_263:\n        /* \"#utility.yul\":1911:1946   */\n      swap1\n      pop\n        /* \"#utility.yul\":1856:1952   */\n      swap2\n      swap1\n      pop\n      jump\t// out\n        /* \"#utility.yul\":1958:2080   */\n    tag_209:\n        /* \"#utility.yul\":2031:2055   */\n      tag_265\n        /* \"#utility.yul\":2049:2054   */\n      dup2\n        /* \"#utility.yul\":2031:2055   */\n      tag_208\n      jump\t// in\n    tag_265:\n        /* \"#utility.yul\":2024:2029   */\n      dup2\n        /* \"#utility.yul\":2021:2056   */\n      eq\n        /* \"#utility.yul\":2011:2074   */\n      tag_266\n      jumpi\n        /* \"#utility.yul\":2070:2071   */\n      0x00\n        /* \"#utility.yul\":2067:2068   */\n      dup1\n        /* \"#utility.yul\":2060:2072   */\n      revert\n        /* \"#utility.yul\":2011:2074   */\n    tag_266:\n        /* \"#utility.yul\":1958:2080   */\n      pop\n      jump\t// out\n        /* \"#utility.yul\":2086:2225   */\n    tag_210:\n        /* \"#utility.yul\":2132:2137   */\n      0x00\n        /* \"#utility.yul\":2170:2176   */\n      dup2\n        /* \"#utility.yul\":2157:2177   */\n      calldataload\n        /* \"#utility.yul\":2148:2177   */\n      swap1\n      pop\n        /* \"#utility.yul\":2186:2219   */\n      tag_268\n        /* \"#utility.yul\":2213:2218   */\n      dup2\n        /* \"#utility.yul\":2186:2219   */\n      tag_209\n      jump\t// in\n    tag_268:\n        /* \"#utility.yul\":2086:2225   */\n      swap3\n      swap2\n      pop\n      pop\n      jump\t// out\n        /* \"#utility.yul\":2231:2308   */\n    tag_211:\n        /* \"#utility.yul\":2268:2275   */\n      0x00\n        /* \"#utility.yul\":2297:2302   */\n      dup2\n        /* \"#utility.yul\":2286:2302   */\n      swap1\n      pop\n        /* \"#utility.yul\":2231:2308   */\n      swap2\n      swap1\n      pop\n      jump\t// out\n        /* \"#utility.yul\":2314:2436   */\n    tag_212:\n        /* \"#utility.yul\":2387:2411   */\n      tag_271\n        /* \"#utility.yul\":2405:2410   */\n      dup2\n        /* \"#utility.yul\":2387:2411   */\n      tag_211\n      jump\t// in\n    tag_271:\n        /* \"#utility.yul\":2380:2385   */\n      dup2\n        /* \"#utility.yul\":2377:2412   */\n      eq\n        /* \"#utility.yul\":2367:2430   */\n      tag_272\n      jumpi\n        /* \"#utility.yul\":2426:2427   */\n      0x00\n        /* \"#utility.yul\":2423:2424   */\n      dup1\n        /* \"#utility.yul\":2416:2428   */\n      revert\n        /* \"#utility.yul\":2367:2430   */\n    tag_272:\n        /* \"#utility.yul\":2314:2436   */\n      pop\n      jump\t// out\n        /* \"#utility.yul\":2442:2581   */\n    tag_213:\n        /* \"#utility.yul\":2488:2493   */\n      0x00\n        /* \"#utility.yul\":2526:2532   */\n      dup2\n        /* \"#utility.yul\":2513:2533   */\n      calldataload\n        /* \"#utility.yul\":2504:2533   */\n      swap1\n      pop\n        /* \"#utility.yul\":2542:2575   */\n      tag_274\n        /* \"#utility.yul\":2569:2574   */\n      dup2\n        /* \"#utility.yul\":2542:2575   */\n      tag_212\n      jump\t// in\n    tag_274:\n        /* \"#utility.yul\":2442:2581   */\n      swap3\n      swap2\n      pop\n      pop\n      jump\t// out\n        /* \"#utility.yul\":2587:3061   */\n    tag_29:\n        /* \"#utility.yul\":2655:2661   */\n      0x00\n        /* \"#utility.yul\":2663:2669   */\n      dup1\n        /* \"#utility.yul\":2712:2714   */\n      0x40\n        /* \"#utility.yul\":2700:2709   */\n      dup4\n        /* \"#utility.yul\":2691:2698   */\n      dup6\n        /* \"#utility.yul\":2687:2710   */\n      sub\n        /* \"#utility.yul\":2683:2715   */\n      slt\n        /* \"#utility.yul\":2680:2799   */\n      iszero\n      tag_276\n      jumpi\n        /* \"#utility.yul\":2718:2797   */\n      tag_277\n      tag_205\n      jump\t// in\n    tag_277:\n        /* \"#utility.yul\":2680:2799   */\n    tag_276:\n        /* \"#utility.yul\":2838:2839   */\n      0x00\n        /* \"#utility.yul\":2863:2916   */\n      tag_278\n        /* \"#utility.yul\":2908:2915   */\n      dup6\n        /* \"#utility.yul\":2899:2905   */\n      dup3\n        /* \"#utility.yul\":2888:2897   */\n      dup7\n        /* \"#utility.yul\":2884:2906   */\n      add\n        /* \"#utility.yul\":2863:2916   */\n      tag_210\n      jump\t// in\n    tag_278:\n        /* \"#utility.yul\":2853:2916   */\n      swap3\n      pop\n        /* \"#utility.yul\":2809:2926   */\n      pop\n        /* \"#utility.yul\":2965:2967   */\n      0x20\n        /* \"#utility.yul\":2991:3044   */\n      tag_279\n        /* \"#utility.yul\":3036:3043   */\n      dup6\n        /* \"#utility.yul\":3027:3033   */\n      dup3\n        /* \"#utility.yul\":3016:3025   */\n      dup7\n        /* \"#utility.yul\":3012:3034   */\n      add\n        /* \"#utility.yul\":2991:3044   */\n      tag_213\n      jump\t// in\n    tag_279:\n        /* \"#utility.yul\":2981:3044   */\n      swap2\n      pop\n        /* \"#utility.yul\":2936:3054   */\n      pop\n        /* \"#utility.yul\":2587:3061   */\n      swap3\n      pop\n      swap3\n      swap1\n      pop\n      jump\t// out\n        /* \"#utility.yul\":3067:3157   */\n    tag_214:\n        /* \"#utility.yul\":3101:3108   */\n      0x00\n        /* \"#utility.yul\":3144:3149   */\n      dup2\n        /* \"#utility.yul\":3137:3150   */\n      iszero\n        /* \"#utility.yul\":3130:3151   */\n      iszero\n        /* \"#utility.yul\":3119:3151   */\n      swap1\n      pop\n        /* \"#utility.yul\":3067:3157   */\n      swap2\n      swap1\n      pop\n      jump\t// out\n        /* \"#utility.yul\":3163:3272   */\n    tag_215:\n        /* \"#utility.yul\":3244:3265   */\n      tag_282\n        /* \"#utility.yul\":3259:3264   */\n      dup2\n        /* \"#utility.yul\":3244:3265   */\n      tag_214\n      jump\t// in\n    tag_282:\n        /* \"#utility.yul\":3239:3242   */\n      dup3\n        /* \"#utility.yul\":3232:3266   */\n      mstore\n        /* \"#utility.yul\":3163:3272   */\n      pop\n      pop\n      jump\t// out\n        /* \"#utility.yul\":3278:3488   */\n    tag_32:\n        /* \"#utility.yul\":3365:3369   */\n      0x00\n        /* \"#utility.yul\":3403:3405   */\n      0x20\n        /* \"#utility.yul\":3392:3401   */\n      dup3\n        /* \"#utility.yul\":3388:3406   */\n      add\n        /* \"#utility.yul\":3380:3406   */\n      swap1\n      pop\n        /* \"#utility.yul\":3416:3481   */\n      tag_284\n        /* \"#utility.yul\":3478:3479   */\n      0x00\n        /* \"#utility.yul\":3467:3476   */\n      dup4\n        /* \"#utility.yul\":3463:3480   */\n      add\n        /* \"#utility.yul\":3454:3460   */\n      dup5\n        /* \"#utility.yul\":3416:3481   */\n      tag_215\n      jump\t// in\n    tag_284:\n        /* \"#utility.yul\":3278:3488   */\n      swap3\n      swap2\n      pop\n      pop\n      jump\t// out\n        /* \"#utility.yul\":3494:3612   */\n    tag_216:\n        /* \"#utility.yul\":3581:3605   */\n      tag_286\n        /* \"#utility.yul\":3599:3604   */\n      dup2\n        /* \"#utility.yul\":3581:3605   */\n      tag_211\n      jump\t// in\n    tag_286:\n        /* \"#utility.yul\":3576:3579   */\n      dup3\n        /* \"#utility.yul\":3569:3606   */\n      mstore\n        /* \"#utility.yul\":3494:3612   */\n      pop\n      pop\n      jump\t// out\n        /* \"#utility.yul\":3618:3840   */\n    tag_36:\n        /* \"#utility.yul\":3711:3715   */\n      0x00\n        /* \"#utility.yul\":3749:3751   */\n      0x20\n        /* \"#utility.yul\":3738:3747   */\n      dup3\n        /* \"#utility.yul\":3734:3752   */\n      add\n        /* \"#utility.yul\":3726:3752   */\n      swap1\n      pop\n        /* \"#utility.yul\":3762:3833   */\n      tag_288\n        /* \"#utility.yul\":3830:3831   */\n      0x00\n        /* \"#utility.yul\":3819:3828   */\n      dup4\n        /* \"#utility.yul\":3815:3832   */\n      add\n        /* \"#utility.yul\":3806:3812   */\n      dup5\n        /* \"#utility.yul\":3762:3833   */\n      tag_216\n      jump\t// in\n    tag_288:\n        /* \"#utility.yul\":3618:3840   */\n      swap3\n      swap2\n      pop\n      pop\n      jump\t// out\n        /* \"#utility.yul\":3846:4465   */\n    tag_39:\n        /* \"#utility.yul\":3923:3929   */\n      0x00\n        /* \"#utility.yul\":3931:3937   */\n      dup1\n        /* \"#utility.yul\":3939:3945   */\n      0x00\n        /* \"#utility.yul\":3988:3990   */\n      0x60\n        /* \"#utility.yul\":3976:3985   */\n      dup5\n        /* \"#utility.yul\":3967:3974   */\n      dup7\n        /* \"#utility.yul\":3963:3986   */\n      sub\n        /* \"#utility.yul\":3959:3991   */\n      slt\n        /* \"#utility.yul\":3956:4075   */\n      iszero\n      tag_290\n      jumpi\n        /* \"#utility.yul\":3994:4073   */\n      tag_291\n      tag_205\n      jump\t// in\n    tag_291:\n        /* \"#utility.yul\":3956:4075   */\n    tag_290:\n        /* \"#utility.yul\":4114:4115   */\n      0x00\n        /* \"#utility.yul\":4139:4192   */\n      tag_292\n        /* \"#utility.yul\":4184:4191   */\n      dup7\n        /* \"#utility.yul\":4175:4181   */\n      dup3\n        /* \"#utility.yul\":4164:4173   */\n      dup8\n        /* \"#utility.yul\":4160:4182   */\n      add\n        /* \"#utility.yul\":4139:4192   */\n      tag_210\n      jump\t// in\n    tag_292:\n        /* \"#utility.yul\":4129:4192   */\n      swap4\n      pop\n        /* \"#utility.yul\":4085:4202   */\n      pop\n        /* \"#utility.yul\":4241:4243   */\n      0x20\n        /* \"#utility.yul\":4267:4320   */\n      tag_293\n        /* \"#utility.yul\":4312:4319   */\n      dup7\n        /* \"#utility.yul\":4303:4309   */\n      dup3\n        /* \"#utility.yul\":4292:4301   */\n      dup8\n        /* \"#utility.yul\":4288:4310   */\n      add\n        /* \"#utility.yul\":4267:4320   */\n      tag_210\n      jump\t// in\n    tag_293:\n        /* \"#utility.yul\":4257:4320   */\n      swap3\n      pop\n        /* \"#utility.yul\":4212:4330   */\n      pop\n        /* \"#utility.yul\":4369:4371   */\n      0x40\n        /* \"#utility.yul\":4395:4448   */\n      tag_294\n        /* \"#utility.yul\":4440:4447   */\n      dup7\n        /* \"#utility.yul\":4431:4437   */\n      dup3\n        /* \"#utility.yul\":4420:4429   */\n      dup8\n        /* \"#utility.yul\":4416:4438   */\n      add\n        /* \"#utility.yul\":4395:4448   */\n      tag_213\n      jump\t// in\n    tag_294:\n        /* \"#utility.yul\":4385:4448   */\n      swap2\n      pop\n        /* \"#utility.yul\":4340:4458   */\n      pop\n        /* \"#utility.yul\":3846:4465   */\n      swap3\n      pop\n      swap3\n      pop\n      swap3\n      jump\t// out\n        /* \"#utility.yul\":4471:4557   */\n    tag_217:\n        /* \"#utility.yul\":4506:4513   */\n      0x00\n        /* \"#utility.yul\":4546:4550   */\n      0xff\n        /* \"#utility.yul\":4539:4544   */\n      dup3\n        /* \"#utility.yul\":4535:4551   */\n      and\n        /* \"#utility.yul\":4524:4551   */\n      swap1\n      pop\n        /* \"#utility.yul\":4471:4557   */\n      swap2\n      swap1\n      pop\n      jump\t// out\n        /* \"#utility.yul\":4563:4675   */\n    tag_218:\n        /* \"#utility.yul\":4646:4668   */\n      tag_297\n        /* \"#utility.yul\":4662:4667   */\n      dup2\n        /* \"#utility.yul\":4646:4668   */\n      tag_217\n      jump\t// in\n    tag_297:\n        /* \"#utility.yul\":4641:4644   */\n      dup3\n        /* \"#utility.yul\":4634:4669   */\n      mstore\n        /* \"#utility.yul\":4563:4675   */\n      pop\n      pop\n      jump\t// out\n        /* \"#utility.yul\":4681:4895   */\n    tag_45:\n        /* \"#utility.yul\":4770:4774   */\n      0x00\n        /* \"#utility.yul\":4808:4810   */\n      0x20\n        /* \"#utility.yul\":4797:4806   */\n      dup3\n        /* \"#utility.yul\":4793:4811   */\n      add\n        /* \"#utility.yul\":4785:4811   */\n      swap1\n      pop\n        /* \"#utility.yul\":4821:4888   */\n      tag_299\n        /* \"#utility.yul\":4885:4886   */\n      0x00\n        /* \"#utility.yul\":4874:4883   */\n      dup4\n        /* \"#utility.yul\":4870:4887   */\n      add\n        /* \"#utility.yul\":4861:4867   */\n      dup5\n        /* \"#utility.yul\":4821:4888   */\n      tag_218\n      jump\t// in\n    tag_299:\n        /* \"#utility.yul\":4681:4895   */\n      swap3\n      swap2\n      pop\n      pop\n      jump\t// out\n        /* \"#utility.yul\":4901:5230   */\n    tag_52:\n        /* \"#utility.yul\":4960:4966   */\n      0x00\n        /* \"#utility.yul\":5009:5011   */\n      0x20\n        /* \"#utility.yul\":4997:5006   */\n      dup3\n        /* \"#utility.yul\":4988:4995   */\n      dup5\n        /* \"#utility.yul\":4984:5007   */\n      sub\n        /* \"#utility.yul\":4980:5012   */\n      slt\n        /* \"#utility.yul\":4977:5096   */\n      iszero\n      tag_301\n      jumpi\n        /* \"#utility.yul\":5015:5094   */\n      tag_302\n      tag_205\n      jump\t// in\n    tag_302:\n        /* \"#utility.yul\":4977:5096   */\n    tag_301:\n        /* \"#utility.yul\":5135:5136   */\n      0x00\n        /* \"#utility.yul\":5160:5213   */\n      tag_303\n        /* \"#utility.yul\":5205:5212   */\n      dup5\n        /* \"#utility.yul\":5196:5202   */\n      dup3\n        /* \"#utility.yul\":5185:5194   */\n      dup6\n        /* \"#utility.yul\":5181:5203   */\n      add\n        /* \"#utility.yul\":5160:5213   */\n      tag_213\n      jump\t// in\n    tag_303:\n        /* \"#utility.yul\":5150:5213   */\n      swap2\n      pop\n        /* \"#utility.yul\":5106:5223   */\n      pop\n        /* \"#utility.yul\":4901:5230   */\n      swap3\n      swap2\n      pop\n      pop\n      jump\t// out\n        /* \"#utility.yul\":5236:5565   */\n    tag_60:\n        /* \"#utility.yul\":5295:5301   */\n      0x00\n        /* \"#utility.yul\":5344:5346   */\n      0x20\n        /* \"#utility.yul\":5332:5341   */\n      dup3\n        /* \"#utility.yul\":5323:5330   */\n      dup5\n        /* \"#utility.yul\":5319:5342   */\n      sub\n        /* \"#utility.yul\":5315:5347   */\n      slt\n        /* \"#utility.yul\":5312:5431   */\n      iszero\n      tag_305\n      jumpi\n        /* \"#utility.yul\":5350:5429   */\n      tag_306\n      tag_205\n      jump\t// in\n    tag_306:\n        /* \"#utility.yul\":5312:5431   */\n    tag_305:\n        /* \"#utility.yul\":5470:5471   */\n      0x00\n        /* \"#utility.yul\":5495:5548   */\n      tag_307\n        /* \"#utility.yul\":5540:5547   */\n      dup5\n        /* \"#utility.yul\":5531:5537   */\n      dup3\n        /* \"#utility.yul\":5520:5529   */\n      dup6\n        /* \"#utility.yul\":5516:5538   */\n      add\n        /* \"#utility.yul\":5495:5548   */\n      tag_210\n      jump\t// in\n    tag_307:\n        /* \"#utility.yul\":5485:5548   */\n      swap2\n      pop\n        /* \"#utility.yul\":5441:5558   */\n      pop\n        /* \"#utility.yul\":5236:5565   */\n      swap3\n      swap2\n      pop\n      pop\n      jump\t// out\n        /* \"#utility.yul\":5571:5689   */\n    tag_219:\n        /* \"#utility.yul\":5658:5682   */\n      tag_309\n        /* \"#utility.yul\":5676:5681   */\n      dup2\n        /* \"#utility.yul\":5658:5682   */\n      tag_208\n      jump\t// in\n    tag_309:\n        /* \"#utility.yul\":5653:5656   */\n      dup3\n        /* \"#utility.yul\":5646:5683   */\n      mstore\n        /* \"#utility.yul\":5571:5689   */\n      pop\n      pop\n      jump\t// out\n        /* \"#utility.yul\":5695:5917   */\n    tag_68:\n        /* \"#utility.yul\":5788:5792   */\n      0x00\n        /* \"#utility.yul\":5826:5828   */\n      0x20\n        /* \"#utility.yul\":5815:5824   */\n      dup3\n        /* \"#utility.yul\":5811:5829   */\n      add\n        /* \"#utility.yul\":5803:5829   */\n      swap1\n      pop\n        /* \"#utility.yul\":5839:5910   */\n      tag_311\n        /* \"#utility.yul\":5907:5908   */\n      0x00\n        /* \"#utility.yul\":5896:5905   */\n      dup4\n        /* \"#utility.yul\":5892:5909   */\n      add\n        /* \"#utility.yul\":5883:5889   */\n      dup5\n        /* \"#utility.yul\":5839:5910   */\n      tag_219\n      jump\t// in\n    tag_311:\n        /* \"#utility.yul\":5695:5917   */\n      swap3\n      swap2\n      pop\n      pop\n      jump\t// out\n        /* \"#utility.yul\":5923:6397   */\n    tag_86:\n        /* \"#utility.yul\":5991:5997   */\n      0x00\n        /* \"#utility.yul\":5999:6005   */\n      dup1\n        /* \"#utility.yul\":6048:6050   */\n      0x40\n        /* \"#utility.yul\":6036:6045   */\n      dup4\n        /* \"#utility.yul\":6027:6034   */\n      dup6\n        /* \"#utility.yul\":6023:6046   */\n      sub\n        /* \"#utility.yul\":6019:6051   */\n      slt\n        /* \"#utility.yul\":6016:6135   */\n      iszero\n      tag_313\n      jumpi\n        /* \"#utility.yul\":6054:6133   */\n      tag_314\n      tag_205\n      jump\t// in\n    tag_314:\n        /* \"#utility.yul\":6016:6135   */\n    tag_313:\n        /* \"#utility.yul\":6174:6175   */\n      0x00\n        /* \"#utility.yul\":6199:6252   */\n      tag_315\n        /* \"#utility.yul\":6244:6251   */\n      dup6\n        /* \"#utility.yul\":6235:6241   */\n      dup3\n        /* \"#utility.yul\":6224:6233   */\n      dup7\n        /* \"#utility.yul\":6220:6242   */\n      add\n        /* \"#utility.yul\":6199:6252   */\n      tag_210\n      jump\t// in\n    tag_315:\n        /* \"#utility.yul\":6189:6252   */\n      swap3\n      pop\n        /* \"#utility.yul\":6145:6262   */\n      pop\n        /* \"#utility.yul\":6301:6303   */\n      0x20\n        /* \"#utility.yul\":6327:6380   */\n      tag_316\n        /* \"#utility.yul\":6372:6379   */\n      dup6\n        /* \"#utility.yul\":6363:6369   */\n      dup3\n        /* \"#utility.yul\":6352:6361   */\n      dup7\n        /* \"#utility.yul\":6348:6370   */\n      add\n        /* \"#utility.yul\":6327:6380   */\n      tag_210\n      jump\t// in\n    tag_316:\n        /* \"#utility.yul\":6317:6380   */\n      swap2\n      pop\n        /* \"#utility.yul\":6272:6390   */\n      pop\n        /* \"#utility.yul\":5923:6397   */\n      swap3\n      pop\n      swap3\n      swap1\n      pop\n      jump\t// out\n        /* \"#utility.yul\":6403:6583   */\n    tag_220:\n        /* \"#utility.yul\":6451:6528   */\n      0x4e487b7100000000000000000000000000000000000000000000000000000000\n        /* \"#utility.yul\":6448:6449   */\n      0x00\n        /* \"#utility.yul\":6441:6529   */\n      mstore\n        /* \"#utility.yul\":6548:6552   */\n      0x22\n        /* \"#utility.yul\":6545:6546   */\n      0x04\n        /* \"#utility.yul\":6538:6553   */\n      mstore\n        /* \"#utility.yul\":6572:6576   */\n      0x24\n        /* \"#utility.yul\":6569:6570   */\n      0x00\n        /* \"#utility.yul\":6562:6577   */\n      revert\n        /* \"#utility.yul\":6589:6909   */\n    tag_95:\n        /* \"#utility.yul\":6633:6639   */\n      0x00\n        /* \"#utility.yul\":6670:6671   */\n      0x02\n        /* \"#utility.yul\":6664:6668   */\n      dup3\n        /* \"#utility.yul\":6660:6672   */\n      div\n        /* \"#utility.yul\":6650:6672   */\n      swap1\n      pop\n        /* \"#utility.yul\":6717:6718   */\n      0x01\n        /* \"#utility.yul\":6711:6715   */\n      dup3\n        /* \"#utility.yul\":6707:6719   */\n      and\n        /* \"#utility.yul\":6738:6756   */\n      dup1\n        /* \"#utility.yul\":6728:6809   */\n      tag_319\n      jumpi\n        /* \"#utility.yul\":6794:6798   */\n      0x7f\n        /* \"#utility.yul\":6786:6792   */\n      dup3\n        /* \"#utility.yul\":6782:6799   */\n      and\n        /* \"#utility.yul\":6772:6799   */\n      swap2\n      pop\n        /* \"#utility.yul\":6728:6809   */\n    tag_319:\n        /* \"#utility.yul\":6856:6858   */\n      0x20\n        /* \"#utility.yul\":6848:6854   */\n      dup3\n        /* \"#utility.yul\":6845:6859   */\n      lt\n        /* \"#utility.yul\":6825:6843   */\n      dup2\n        /* \"#utility.yul\":6822:6860   */\n      sub\n        /* \"#utility.yul\":6819:6903   */\n      tag_320\n      jumpi\n        /* \"#utility.yul\":6875:6893   */\n      tag_321\n      tag_220\n      jump\t// in\n    tag_321:\n        /* \"#utility.yul\":6819:6903   */\n    tag_320:\n        /* \"#utility.yul\":6640:6909   */\n      pop\n        /* \"#utility.yul\":6589:6909   */\n      swap2\n      swap1\n      pop\n      jump\t// out\n        /* \"#utility.yul\":6915:7097   */\n    tag_221:\n        /* \"#utility.yul\":7055:7089   */\n      0x4f776e61626c653a2063616c6c6572206973206e6f7420746865206f776e6572\n        /* \"#utility.yul\":7051:7052   */\n      0x00\n        /* \"#utility.yul\":7043:7049   */\n      dup3\n        /* \"#utility.yul\":7039:7053   */\n      add\n        /* \"#utility.yul\":7032:7090   */\n      mstore\n        /* \"#utility.yul\":6915:7097   */\n      pop\n      jump\t// out\n        /* \"#utility.yul\":7103:7469   */\n    tag_222:\n        /* \"#utility.yul\":7245:7248   */\n      0x00\n        /* \"#utility.yul\":7266:7333   */\n      tag_324\n        /* \"#utility.yul\":7330:7332   */\n      0x20\n        /* \"#utility.yul\":7325:7328   */\n      dup4\n        /* \"#utility.yul\":7266:7333   */\n      tag_200\n      jump\t// in\n    tag_324:\n        /* \"#utility.yul\":7259:7333   */\n      swap2\n      pop\n        /* \"#utility.yul\":7342:7435   */\n      tag_325\n        /* \"#utility.yul\":7431:7434   */\n      dup3\n        /* \"#utility.yul\":7342:7435   */\n      tag_221\n      jump\t// in\n    tag_325:\n        /* \"#utility.yul\":7460:7462   */\n      0x20\n        /* \"#utility.yul\":7455:7458   */\n      dup3\n        /* \"#utility.yul\":7451:7463   */\n      add\n        /* \"#utility.yul\":7444:7463   */\n      swap1\n      pop\n        /* \"#utility.yul\":7103:7469   */\n      swap2\n      swap1\n      pop\n      jump\t// out\n        /* \"#utility.yul\":7475:7894   */\n    tag_122:\n        /* \"#utility.yul\":7641:7645   */\n      0x00\n        /* \"#utility.yul\":7679:7681   */\n      0x20\n        /* \"#utility.yul\":7668:7677   */\n      dup3\n        /* \"#utility.yul\":7664:7682   */\n      add\n        /* \"#utility.yul\":7656:7682   */\n      swap1\n      pop\n        /* \"#utility.yul\":7728:7737   */\n      dup2\n        /* \"#utility.yul\":7722:7726   */\n      dup2\n        /* \"#utility.yul\":7718:7738   */\n      sub\n        /* \"#utility.yul\":7714:7715   */\n      0x00\n        /* \"#utility.yul\":7703:7712   */\n      dup4\n        /* \"#utility.yul\":7699:7716   */\n      add\n        /* \"#utility.yul\":7692:7739   */\n      mstore\n        /* \"#utility.yul\":7756:7887   */\n      tag_327\n        /* \"#utility.yul\":7882:7886   */\n      dup2\n        /* \"#utility.yul\":7756:7887   */\n      tag_222\n      jump\t// in\n    tag_327:\n        /* \"#utility.yul\":7748:7887   */\n      swap1\n      pop\n        /* \"#utility.yul\":7475:7894   */\n      swap2\n      swap1\n      pop\n      jump\t// out\n        /* \"#utility.yul\":7900:8076   */\n    tag_223:\n        /* \"#utility.yul\":8040:8068   */\n      0x7468697320746f6b656e206973206e6f74206d696e7461626c65000000000000\n        /* \"#utility.yul\":8036:8037   */\n      0x00\n        /* \"#utility.yul\":8028:8034   */\n      dup3\n        /* \"#utility.yul\":8024:8038   */\n      add\n        /* \"#utility.yul\":8017:8069   */\n      mstore\n        /* \"#utility.yul\":7900:8076   */\n      pop\n      jump\t// out\n        /* \"#utility.yul\":8082:8448   */\n    tag_224:\n        /* \"#utility.yul\":8224:8227   */\n      0x00\n        /* \"#utility.yul\":8245:8312   */\n      tag_330\n        /* \"#utility.yul\":8309:8311   */\n      0x1a\n        /* \"#utility.yul\":8304:8307   */\n      dup4\n        /* \"#utility.yul\":8245:8312   */\n      tag_200\n      jump\t// in\n    tag_330:\n        /* \"#utility.yul\":8238:8312   */\n      swap2\n      pop\n        /* \"#utility.yul\":8321:8414   */\n      tag_331\n        /* \"#utility.yul\":8410:8413   */\n      dup3\n        /* \"#utility.yul\":8321:8414   */\n      tag_223\n      jump\t// in\n    tag_331:\n        /* \"#utility.yul\":8439:8441   */\n      0x20\n        /* \"#utility.yul\":8434:8437   */\n      dup3\n        /* \"#utility.yul\":8430:8442   */\n      add\n        /* \"#utility.yul\":8423:8442   */\n      swap1\n      pop\n        /* \"#utility.yul\":8082:8448   */\n      swap2\n      swap1\n      pop\n      jump\t// out\n        /* \"#utility.yul\":8454:8873   */\n    tag_137:\n        /* \"#utility.yul\":8620:8624   */\n      0x00\n        /* \"#utility.yul\":8658:8660   */\n      0x20\n        /* \"#utility.yul\":8647:8656   */\n      dup3\n        /* \"#utility.yul\":8643:8661   */\n      add\n        /* \"#utility.yul\":8635:8661   */\n      swap1\n      pop\n        /* \"#utility.yul\":8707:8716   */\n      dup2\n        /* \"#utility.yul\":8701:8705   */\n      dup2\n        /* \"#utility.yul\":8697:8717   */\n      sub\n        /* \"#utility.yul\":8693:8694   */\n      0x00\n        /* \"#utility.yul\":8682:8691   */\n      dup4\n        /* \"#utility.yul\":8678:8695   */\n      add\n        /* \"#utility.yul\":8671:8718   */\n      mstore\n        /* \"#utility.yul\":8735:8866   */\n      tag_333\n        /* \"#utility.yul\":8861:8865   */\n      dup2\n        /* \"#utility.yul\":8735:8866   */\n      tag_224\n      jump\t// in\n    tag_333:\n        /* \"#utility.yul\":8727:8866   */\n      swap1\n      pop\n        /* \"#utility.yul\":8454:8873   */\n      swap2\n      swap1\n      pop\n      jump\t// out\n        /* \"#utility.yul\":8879:9104   */\n    tag_225:\n        /* \"#utility.yul\":9019:9053   */\n      0x4f776e61626c653a206e6577206f776e657220697320746865207a65726f2061\n        /* \"#utility.yul\":9015:9016   */\n      0x00\n        /* \"#utility.yul\":9007:9013   */\n      dup3\n        /* \"#utility.yul\":9003:9017   */\n      add\n        /* \"#utility.yul\":8996:9054   */\n      mstore\n        /* \"#utility.yul\":9088:9096   */\n      0x6464726573730000000000000000000000000000000000000000000000000000\n        /* \"#utility.yul\":9083:9085   */\n      0x20\n        /* \"#utility.yul\":9075:9081   */\n      dup3\n        /* \"#utility.yul\":9071:9086   */\n      add\n        /* \"#utility.yul\":9064:9097   */\n      mstore\n        /* \"#utility.yul\":8879:9104   */\n      pop\n      jump\t// out\n        /* \"#utility.yul\":9110:9476   */\n    tag_226:\n        /* \"#utility.yul\":9252:9255   */\n      0x00\n        /* \"#utility.yul\":9273:9340   */\n      tag_336\n        /* \"#utility.yul\":9337:9339   */\n      0x26\n        /* \"#utility.yul\":9332:9335   */\n      dup4\n        /* \"#utility.yul\":9273:9340   */\n      tag_200\n      jump\t// in\n    tag_336:\n        /* \"#utility.yul\":9266:9340   */\n      swap2\n      pop\n        /* \"#utility.yul\":9349:9442   */\n      tag_337\n        /* \"#utility.yul\":9438:9441   */\n      dup3\n        /* \"#utility.yul\":9349:9442   */\n      tag_225\n      jump\t// in\n    tag_337:\n        /* \"#utility.yul\":9467:9469   */\n      0x40\n        /* \"#utility.yul\":9462:9465   */\n      dup3\n        /* \"#utility.yul\":9458:9470   */\n      add\n        /* \"#utility.yul\":9451:9470   */\n      swap1\n      pop\n        /* \"#utility.yul\":9110:9476   */\n      swap2\n      swap1\n      pop\n      jump\t// out\n        /* \"#utility.yul\":9482:9901   */\n    tag_152:\n        /* \"#utility.yul\":9648:9652   */\n      0x00\n        /* \"#utility.yul\":9686:9688   */\n      0x20\n        /* \"#utility.yul\":9675:9684   */\n      dup3\n        /* \"#utility.yul\":9671:9689   */\n      add\n        /* \"#utility.yul\":9663:9689   */\n      swap1\n      pop\n        /* \"#utility.yul\":9735:9744   */\n      dup2\n        /* \"#utility.yul\":9729:9733   */\n      dup2\n        /* \"#utility.yul\":9725:9745   */\n      sub\n        /* \"#utility.yul\":9721:9722   */\n      0x00\n        /* \"#utility.yul\":9710:9719   */\n      dup4\n        /* \"#utility.yul\":9706:9723   */\n      add\n        /* \"#utility.yul\":9699:9746   */\n      mstore\n        /* \"#utility.yul\":9763:9894   */\n      tag_339\n        /* \"#utility.yul\":9889:9893   */\n      dup2\n        /* \"#utility.yul\":9763:9894   */\n      tag_226\n      jump\t// in\n    tag_339:\n        /* \"#utility.yul\":9755:9894   */\n      swap1\n      pop\n        /* \"#utility.yul\":9482:9901   */\n      swap2\n      swap1\n      pop\n      jump\t// out\n        /* \"#utility.yul\":9907:10087   */\n    tag_227:\n        /* \"#utility.yul\":9955:10032   */\n      0x4e487b7100000000000000000000000000000000000000000000000000000000\n        /* \"#utility.yul\":9952:9953   */\n      0x00\n        /* \"#utility.yul\":9945:10033   */\n      mstore\n        /* \"#utility.yul\":10052:10056   */\n      0x11\n        /* \"#utility.yul\":10049:10050   */\n      0x04\n        /* \"#utility.yul\":10042:10057   */\n      mstore\n        /* \"#utility.yul\":10076:10080   */\n      0x24\n        /* \"#utility.yul\":10073:10074   */\n      0x00\n        /* \"#utility.yul\":10066:10081   */\n      revert\n        /* \"#utility.yul\":10093:10398   */\n    tag_155:\n        /* \"#utility.yul\":10133:10136   */\n      0x00\n        /* \"#utility.yul\":10152:10172   */\n      tag_342\n        /* \"#utility.yul\":10170:10171   */\n      dup3\n        /* \"#utility.yul\":10152:10172   */\n      tag_211\n      jump\t// in\n    tag_342:\n        /* \"#utility.yul\":10147:10172   */\n      swap2\n      pop\n        /* \"#utility.yul\":10186:10206   */\n      tag_343\n        /* \"#utility.yul\":10204:10205   */\n      dup4\n        /* \"#utility.yul\":10186:10206   */\n      tag_211\n      jump\t// in\n    tag_343:\n        /* \"#utility.yul\":10181:10206   */\n      swap3\n      pop\n        /* \"#utility.yul\":10340:10341   */\n      dup3\n        /* \"#utility.yul\":10272:10338   */\n      0xffffffffffffffffffffffffffffffffffffffffffffffffffffffffffffffff\n        /* \"#utility.yul\":10268:10342   */\n      sub\n        /* \"#utility.yul\":10265:10266   */\n      dup3\n        /* \"#utility.yul\":10262:10343   */\n      gt\n        /* \"#utility.yul\":10259:10366   */\n      iszero\n      tag_344\n      jumpi\n        /* \"#utility.yul\":10346:10364   */\n      tag_345\n      tag_227\n      jump\t// in\n    tag_345:\n        /* \"#utility.yul\":10259:10366   */\n    tag_344:\n        /* \"#utility.yul\":10390:10391   */\n      dup3\n        /* \"#utility.yul\":10387:10388   */\n      dup3\n        /* \"#utility.yul\":10383:10392   */\n      add\n        /* \"#utility.yul\":10376:10392   */\n      swap1\n      pop\n        /* \"#utility.yul\":10093:10398   */\n      swap3\n      swap2\n      pop\n      pop\n      jump\t// out\n        /* \"#utility.yul\":10404:10581   */\n    tag_228:\n        /* \"#utility.yul\":10544:10573   */\n      0x536166654d6174683a206164646974696f6e206f766572666c6f770000000000\n        /* \"#utility.yul\":10540:10541   */\n      0x00\n        /* \"#utility.yul\":10532:10538   */\n      dup3\n        /* \"#utility.yul\":10528:10542   */\n      add\n        /* \"#utility.yul\":10521:10574   */\n      mstore\n        /* \"#utility.yul\":10404:10581   */\n      pop\n      jump\t// out\n        /* \"#utility.yul\":10587:10953   */\n    tag_229:\n        /* \"#utility.yul\":10729:10732   */\n      0x00\n        /* \"#utility.yul\":10750:10817   */\n      tag_348\n        /* \"#utility.yul\":10814:10816   */\n      0x1b\n        /* \"#utility.yul\":10809:10812   */\n      dup4\n        /* \"#utility.yul\":10750:10817   */\n      tag_200\n      jump\t// in\n    tag_348:\n        /* \"#utility.yul\":10743:10817   */\n      swap2\n      pop\n        /* \"#utility.yul\":10826:10919   */\n      tag_349\n        /* \"#utility.yul\":10915:10918   */\n      dup3\n        /* \"#utility.yul\":10826:10919   */\n      tag_228\n      jump\t// in\n    tag_349:\n        /* \"#utility.yul\":10944:10946   */\n      0x20\n        /* \"#utility.yul\":10939:10942   */\n      dup3\n        /* \"#utility.yul\":10935:10947   */\n      add\n        /* \"#utility.yul\":10928:10947   */\n      swap1\n      pop\n        /* \"#utility.yul\":10587:10953   */\n      swap2\n      swap1\n      pop\n      jump\t// out\n        /* \"#utility.yul\":10959:11378   */\n    tag_158:\n        /* \"#utility.yul\":11125:11129   */\n      0x00\n        /* \"#utility.yul\":11163:11165   */\n      0x20\n        /* \"#utility.yul\":11152:11161   */\n      dup3\n        /* \"#utility.yul\":11148:11166   */\n      add\n        /* \"#utility.yul\":11140:11166   */\n      swap1\n      pop\n        /* \"#utility.yul\":11212:11221   */\n      dup2\n        /* \"#utility.yul\":11206:11210   */\n      dup2\n        /* \"#utility.yul\":11202:11222   */\n      sub\n        /* \"#utility.yul\":11198:11199   */\n      0x00\n        /* \"#utility.yul\":11187:11196   */\n      dup4\n        /* \"#utility.yul\":11183:11200   */\n      add\n        /* \"#utility.yul\":11176:11223   */\n      mstore\n        /* \"#utility.yul\":11240:11371   */\n      tag_351\n        /* \"#utility.yul\":11366:11370   */\n      dup2\n        /* \"#utility.yul\":11240:11371   */\n      tag_229\n      jump\t// in\n    tag_351:\n        /* \"#utility.yul\":11232:11371   */\n      swap1\n      pop\n        /* \"#utility.yul\":10959:11378   */\n      swap2\n      swap1\n      pop\n      jump\t// out\n        /* \"#utility.yul\":11384:11607   */\n    tag_230:\n        /* \"#utility.yul\":11524:11558   */\n      0x45524332303a20617070726f76652066726f6d20746865207a65726f20616464\n        /* \"#utility.yul\":11520:11521   */\n      0x00\n        /* \"#utility.yul\":11512:11518   */\n      dup3\n        /* \"#utility.yul\":11508:11522   */\n      add\n        /* \"#utility.yul\":11501:11559   */\n      mstore\n        /* \"#utility.yul\":11593:11599   */\n      0x7265737300000000000000000000000000000000000000000000000000000000\n        /* \"#utility.yul\":11588:11590   */\n      0x20\n        /* \"#utility.yul\":11580:11586   */\n      dup3\n        /* \"#utility.yul\":11576:11591   */\n      add\n        /* \"#utility.yul\":11569:11600   */\n      mstore\n        /* \"#utility.yul\":11384:11607   */\n      pop\n      jump\t// out\n        /* \"#utility.yul\":11613:11979   */\n    tag_231:\n        /* \"#utility.yul\":11755:11758   */\n      0x00\n        /* \"#utility.yul\":11776:11843   */\n      tag_354\n        /* \"#utility.yul\":11840:11842   */\n      0x24\n        /* \"#utility.yul\":11835:11838   */\n      dup4\n        /* \"#utility.yul\":11776:11843   */\n      tag_200\n      jump\t// in\n    tag_354:\n        /* \"#utility.yul\":11769:11843   */\n      swap2\n      pop\n        /* \"#utility.yul\":11852:11945   */\n      tag_355\n        /* \"#utility.yul\":11941:11944   */\n      dup3\n        /* \"#utility.yul\":11852:11945   */\n      tag_230\n      jump\t// in\n    tag_355:\n        /* \"#utility.yul\":11970:11972   */\n      0x40\n        /* \"#utility.yul\":11965:11968   */\n      dup3\n        /* \"#utility.yul\":11961:11973   */\n      add\n        /* \"#utility.yul\":11954:11973   */\n      swap1\n      pop\n        /* \"#utility.yul\":11613:11979   */\n      swap2\n      swap1\n      pop\n      jump\t// out\n        /* \"#utility.yul\":11985:12404   */\n    tag_162:\n        /* \"#utility.yul\":12151:12155   */\n      0x00\n        /* \"#utility.yul\":12189:12191   */\n      0x20\n        /* \"#utility.yul\":12178:12187   */\n      dup3\n        /* \"#utility.yul\":12174:12192   */\n      add\n        /* \"#utility.yul\":12166:12192   */\n      swap1\n      pop\n        /* \"#utility.yul\":12238:12247   */\n      dup2\n        /* \"#utility.yul\":12232:12236   */\n      dup2\n        /* \"#utility.yul\":12228:12248   */\n      sub\n        /* \"#utility.yul\":12224:12225   */\n      0x00\n        /* \"#utility.yul\":12213:12222   */\n      dup4\n        /* \"#utility.yul\":12209:12226   */\n      add\n        /* \"#utility.yul\":12202:12249   */\n      mstore\n        /* \"#utility.yul\":12266:12397   */\n      tag_357\n        /* \"#utility.yul\":12392:12396   */\n      dup2\n        /* \"#utility.yul\":12266:12397   */\n      tag_231\n      jump\t// in\n    tag_357:\n        /* \"#utility.yul\":12258:12397   */\n      swap1\n      pop\n        /* \"#utility.yul\":11985:12404   */\n      swap2\n      swap1\n      pop\n      jump\t// out\n        /* \"#utility.yul\":12410:12631   */\n    tag_232:\n        /* \"#utility.yul\":12550:12584   */\n      0x45524332303a20617070726f766520746f20746865207a65726f206164647265\n        /* \"#utility.yul\":12546:12547   */\n      0x00\n        /* \"#utility.yul\":12538:12544   */\n      dup3\n        /* \"#utility.yul\":12534:12548   */\n      add\n        /* \"#utility.yul\":12527:12585   */\n      mstore\n        /* \"#utility.yul\":12619:12623   */\n      0x7373000000000000000000000000000000000000000000000000000000000000\n        /* \"#utility.yul\":12614:12616   */\n      0x20\n        /* \"#utility.yul\":12606:12612   */\n      dup3\n        /* \"#utility.yul\":12602:12617   */\n      add\n        /* \"#utility.yul\":12595:12624   */\n      mstore\n        /* \"#utility.yul\":12410:12631   */\n      pop\n      jump\t// out\n        /* \"#utility.yul\":12637:13003   */\n    tag_233:\n        /* \"#utility.yul\":12779:12782   */\n      0x00\n        /* \"#utility.yul\":12800:12867   */\n      tag_360\n        /* \"#utility.yul\":12864:12866   */\n      0x22\n        /* \"#utility.yul\":12859:12862   */\n      dup4\n        /* \"#utility.yul\":12800:12867   */\n      tag_200\n      jump\t// in\n    tag_360:\n        /* \"#utility.yul\":12793:12867   */\n      swap2\n      pop\n        /* \"#utility.yul\":12876:12969   */\n      tag_361\n        /* \"#utility.yul\":12965:12968   */\n      dup3\n        /* \"#utility.yul\":12876:12969   */\n      tag_232\n      jump\t// in\n    tag_361:\n        /* \"#utility.yul\":12994:12996   */\n      0x40\n        /* \"#utility.yul\":12989:12992   */\n      dup3\n        /* \"#utility.yul\":12985:12997   */\n      add\n        /* \"#utility.yul\":12978:12997   */\n      swap1\n      pop\n        /* \"#utility.yul\":12637:13003   */\n      swap2\n      swap1\n      pop\n      jump\t// out\n        /* \"#utility.yul\":13009:13428   */\n    tag_165:\n        /* \"#utility.yul\":13175:13179   */\n      0x00\n        /* \"#utility.yul\":13213:13215   */\n      0x20\n        /* \"#utility.yul\":13202:13211   */\n      dup3\n        /* \"#utility.yul\":13198:13216   */\n      add\n        /* \"#utility.yul\":13190:13216   */\n      swap1\n      pop\n        /* \"#utility.yul\":13262:13271   */\n      dup2\n        /* \"#utility.yul\":13256:13260   */\n      dup2\n        /* \"#utility.yul\":13252:13272   */\n      sub\n        /* \"#utility.yul\":13248:13249   */\n      0x00\n        /* \"#utility.yul\":13237:13246   */\n      dup4\n        /* \"#utility.yul\":13233:13250   */\n      add\n        /* \"#utility.yul\":13226:13273   */\n      mstore\n        /* \"#utility.yul\":13290:13421   */\n      tag_363\n        /* \"#utility.yul\":13416:13420   */\n      dup2\n        /* \"#utility.yul\":13290:13421   */\n      tag_233\n      jump\t// in\n    tag_363:\n        /* \"#utility.yul\":13282:13421   */\n      swap1\n      pop\n        /* \"#utility.yul\":13009:13428   */\n      swap2\n      swap1\n      pop\n      jump\t// out\n        /* \"#utility.yul\":13434:13658   */\n    tag_234:\n        /* \"#utility.yul\":13574:13608   */\n      0x45524332303a207472616e736665722066726f6d20746865207a65726f206164\n        /* \"#utility.yul\":13570:13571   */\n      0x00\n        /* \"#utility.yul\":13562:13568   */\n      dup3\n        /* \"#utility.yul\":13558:13572   */\n      add\n        /* \"#utility.yul\":13551:13609   */\n      mstore\n        /* \"#utility.yul\":13643:13650   */\n      0x6472657373000000000000000000000000000000000000000000000000000000\n        /* \"#utility.yul\":13638:13640   */\n      0x20\n        /* \"#utility.yul\":13630:13636   */\n      dup3\n        /* \"#utility.yul\":13626:13641   */\n      add\n        /* \"#utility.yul\":13619:13651   */\n      mstore\n        /* \"#utility.yul\":13434:13658   */\n      pop\n      jump\t// out\n        /* \"#utility.yul\":13664:14030   */\n    tag_235:\n        /* \"#utility.yul\":13806:13809   */\n      0x00\n        /* \"#utility.yul\":13827:13894   */\n      tag_366\n        /* \"#utility.yul\":13891:13893   */\n      0x25\n        /* \"#utility.yul\":13886:13889   */\n      dup4\n        /* \"#utility.yul\":13827:13894   */\n      tag_200\n      jump\t// in\n    tag_366:\n        /* \"#utility.yul\":13820:13894   */\n      swap2\n      pop\n        /* \"#utility.yul\":13903:13996   */\n      tag_367\n        /* \"#utility.yul\":13992:13995   */\n      dup3\n        /* \"#utility.yul\":13903:13996   */\n      tag_234\n      jump\t// in\n    tag_367:\n        /* \"#utility.yul\":14021:14023   */\n      0x40\n        /* \"#utility.yul\":14016:14019   */\n      dup3\n        /* \"#utility.yul\":14012:14024   */\n      add\n        /* \"#utility.yul\":14005:14024   */\n      swap1\n      pop\n        /* \"#utility.yul\":13664:14030   */\n      swap2\n      swap1\n      pop\n      jump\t// out\n        /* \"#utility.yul\":14036:14455   */\n    tag_170:\n        /* \"#utility.yul\":14202:14206   */\n      0x00\n        /* \"#utility.yul\":14240:14242   */\n      0x20\n        /* \"#utility.yul\":14229:14238   */\n      dup3\n        /* \"#utility.yul\":14225:14243   */\n      add\n        /* \"#utility.yul\":14217:14243   */\n      swap1\n      pop\n        /* \"#utility.yul\":14289:14298   */\n      dup2\n        /* \"#utility.yul\":14283:14287   */\n      dup2\n        /* \"#utility.yul\":14279:14299   */\n      sub\n        /* \"#utility.yul\":14275:14276   */\n      0x00\n        /* \"#utility.yul\":14264:14273   */\n      dup4\n        /* \"#utility.yul\":14260:14277   */\n      add\n        /* \"#utility.yul\":14253:14300   */\n      mstore\n        /* \"#utility.yul\":14317:14448   */\n      tag_369\n        /* \"#utility.yul\":14443:14447   */\n      dup2\n        /* \"#utility.yul\":14317:14448   */\n      tag_235\n      jump\t// in\n    tag_369:\n        /* \"#utility.yul\":14309:14448   */\n      swap1\n      pop\n        /* \"#utility.yul\":14036:14455   */\n      swap2\n      swap1\n      pop\n      jump\t// out\n        /* \"#utility.yul\":14461:14683   */\n    tag_236:\n        /* \"#utility.yul\":14601:14635   */\n      0x45524332303a207472616e7366657220746f20746865207a65726f2061646472\n        /* \"#utility.yul\":14597:14598   */\n      0x00\n        /* \"#utility.yul\":14589:14595   */\n      dup3\n        /* \"#utility.yul\":14585:14599   */\n      add\n        /* \"#utility.yul\":14578:14636   */\n      mstore\n        /* \"#utility.yul\":14670:14675   */\n      0x6573730000000000000000000000000000000000000000000000000000000000\n        /* \"#utility.yul\":14665:14667   */\n      0x20\n        /* \"#utility.yul\":14657:14663   */\n      dup3\n        /* \"#utility.yul\":14653:14668   */\n      add\n        /* \"#utility.yul\":14646:14676   */\n      mstore\n        /* \"#utility.yul\":14461:14683   */\n      pop\n      jump\t// out\n        /* \"#utility.yul\":14689:15055   */\n    tag_237:\n        /* \"#utility.yul\":14831:14834   */\n      0x00\n        /* \"#utility.yul\":14852:14919   */\n      tag_372\n        /* \"#utility.yul\":14916:14918   */\n      0x23\n        /* \"#utility.yul\":14911:14914   */\n      dup4\n        /* \"#utility.yul\":14852:14919   */\n      tag_200\n      jump\t// in\n    tag_372:\n        /* \"#utility.yul\":14845:14919   */\n      swap2\n      pop\n        /* \"#utility.yul\":14928:15021   */\n      tag_373\n        /* \"#utility.yul\":15017:15020   */\n      dup3\n        /* \"#utility.yul\":14928:15021   */\n      tag_236\n      jump\t// in\n    tag_373:\n        /* \"#utility.yul\":15046:15048   */\n      0x40\n        /* \"#utility.yul\":15041:15044   */\n      dup3\n        /* \"#utility.yul\":15037:15049   */\n      add\n        /* \"#utility.yul\":15030:15049   */\n      swap1\n      pop\n        /* \"#utility.yul\":14689:15055   */\n      swap2\n      swap1\n      pop\n      jump\t// out\n        /* \"#utility.yul\":15061:15480   */\n    tag_173:\n        /* \"#utility.yul\":15227:15231   */\n      0x00\n        /* \"#utility.yul\":15265:15267   */\n      0x20\n        /* \"#utility.yul\":15254:15263   */\n      dup3\n        /* \"#utility.yul\":15250:15268   */\n      add\n        /* \"#utility.yul\":15242:15268   */\n      swap1\n      pop\n        /* \"#utility.yul\":15314:15323   */\n      dup2\n        /* \"#utility.yul\":15308:15312   */\n      dup2\n        /* \"#utility.yul\":15304:15324   */\n      sub\n        /* \"#utility.yul\":15300:15301   */\n      0x00\n        /* \"#utility.yul\":15289:15298   */\n      dup4\n        /* \"#utility.yul\":15285:15302   */\n      add\n        /* \"#utility.yul\":15278:15325   */\n      mstore\n        /* \"#utility.yul\":15342:15473   */\n      tag_375\n        /* \"#utility.yul\":15468:15472   */\n      dup2\n        /* \"#utility.yul\":15342:15473   */\n      tag_237\n      jump\t// in\n    tag_375:\n        /* \"#utility.yul\":15334:15473   */\n      swap1\n      pop\n        /* \"#utility.yul\":15061:15480   */\n      swap2\n      swap1\n      pop\n      jump\t// out\n        /* \"#utility.yul\":15486:15677   */\n    tag_181:\n        /* \"#utility.yul\":15526:15530   */\n      0x00\n        /* \"#utility.yul\":15546:15566   */\n      tag_377\n        /* \"#utility.yul\":15564:15565   */\n      dup3\n        /* \"#utility.yul\":15546:15566   */\n      tag_211\n      jump\t// in\n    tag_377:\n        /* \"#utility.yul\":15541:15566   */\n      swap2\n      pop\n        /* \"#utility.yul\":15580:15600   */\n      tag_378\n        /* \"#utility.yul\":15598:15599   */\n      dup4\n        /* \"#utility.yul\":15580:15600   */\n      tag_211\n      jump\t// in\n    tag_378:\n        /* \"#utility.yul\":15575:15600   */\n      swap3\n      pop\n        /* \"#utility.yul\":15619:15620   */\n      dup3\n        /* \"#utility.yul\":15616:15617   */\n      dup3\n        /* \"#utility.yul\":15613:15621   */\n      lt\n        /* \"#utility.yul\":15610:15644   */\n      iszero\n      tag_379\n      jumpi\n        /* \"#utility.yul\":15624:15642   */\n      tag_380\n      tag_227\n      jump\t// in\n    tag_380:\n        /* \"#utility.yul\":15610:15644   */\n    tag_379:\n        /* \"#utility.yul\":15669:15670   */\n      dup3\n        /* \"#utility.yul\":15666:15667   */\n      dup3\n        /* \"#utility.yul\":15662:15671   */\n      sub\n        /* \"#utility.yul\":15654:15671   */\n      swap1\n      pop\n        /* \"#utility.yul\":15486:15677   */\n      swap3\n      swap2\n      pop\n      pop\n      jump\t// out\n        /* \"#utility.yul\":15683:15903   */\n    tag_238:\n        /* \"#utility.yul\":15823:15857   */\n      0x45524332303a206275726e2066726f6d20746865207a65726f20616464726573\n        /* \"#utility.yul\":15819:15820   */\n      0x00\n        /* \"#utility.yul\":15811:15817   */\n      dup3\n        /* \"#utility.yul\":15807:15821   */\n      add\n        /* \"#utility.yul\":15800:15858   */\n      mstore\n        /* \"#utility.yul\":15892:15895   */\n      0x7300000000000000000000000000000000000000000000000000000000000000\n        /* \"#utility.yul\":15887:15889   */\n      0x20\n        /* \"#utility.yul\":15879:15885   */\n      dup3\n        /* \"#utility.yul\":15875:15890   */\n      add\n        /* \"#utility.yul\":15868:15896   */\n      mstore\n        /* \"#utility.yul\":15683:15903   */\n      pop\n      jump\t// out\n        /* \"#utility.yul\":15909:16275   */\n    tag_239:\n        /* \"#utility.yul\":16051:16054   */\n      0x00\n        /* \"#utility.yul\":16072:16139   */\n      tag_383\n        /* \"#utility.yul\":16136:16138   */\n      0x21\n        /* \"#utility.yul\":16131:16134   */\n      dup4\n        /* \"#utility.yul\":16072:16139   */\n      tag_200\n      jump\t// in\n    tag_383:\n        /* \"#utility.yul\":16065:16139   */\n      swap2\n      pop\n        /* \"#utility.yul\":16148:16241   */\n      tag_384\n        /* \"#utility.yul\":16237:16240   */\n      dup3\n        /* \"#utility.yul\":16148:16241   */\n      tag_238\n      jump\t// in\n    tag_384:\n        /* \"#utility.yul\":16266:16268   */\n      0x40\n        /* \"#utility.yul\":16261:16264   */\n      dup3\n        /* \"#utility.yul\":16257:16269   */\n      add\n        /* \"#utility.yul\":16250:16269   */\n      swap1\n      pop\n        /* \"#utility.yul\":15909:16275   */\n      swap2\n      swap1\n      pop\n      jump\t// out\n        /* \"#utility.yul\":16281:16700   */\n    tag_185:\n        /* \"#utility.yul\":16447:16451   */\n      0x00\n        /* \"#utility.yul\":16485:16487   */\n      0x20\n        /* \"#utility.yul\":16474:16483   */\n      dup3\n        /* \"#utility.yul\":16470:16488   */\n      add\n        /* \"#utility.yul\":16462:16488   */\n      swap1\n      pop\n        /* \"#utility.yul\":16534:16543   */\n      dup2\n        /* \"#utility.yul\":16528:16532   */\n      dup2\n        /* \"#utility.yul\":16524:16544   */\n      sub\n        /* \"#utility.yul\":16520:16521   */\n      0x00\n        /* \"#utility.yul\":16509:16518   */\n      dup4\n        /* \"#utility.yul\":16505:16522   */\n      add\n        /* \"#utility.yul\":16498:16545   */\n      mstore\n        /* \"#utility.yul\":16562:16693   */\n      tag_386\n        /* \"#utility.yul\":16688:16692   */\n      dup2\n        /* \"#utility.yul\":16562:16693   */\n      tag_239\n      jump\t// in\n    tag_386:\n        /* \"#utility.yul\":16554:16693   */\n      swap1\n      pop\n        /* \"#utility.yul\":16281:16700   */\n      swap2\n      swap1\n      pop\n      jump\t// out\n        /* \"#utility.yul\":16706:16887   */\n    tag_240:\n        /* \"#utility.yul\":16846:16879   */\n      0x45524332303a206d696e7420746f20746865207a65726f206164647265737300\n        /* \"#utility.yul\":16842:16843   */\n      0x00\n        /* \"#utility.yul\":16834:16840   */\n      dup3\n        /* \"#utility.yul\":16830:16844   */\n      add\n        /* \"#utility.yul\":16823:16880   */\n      mstore\n        /* \"#utility.yul\":16706:16887   */\n      pop\n      jump\t// out\n        /* \"#utility.yul\":16893:17259   */\n    tag_241:\n        /* \"#utility.yul\":17035:17038   */\n      0x00\n        /* \"#utility.yul\":17056:17123   */\n      tag_389\n        /* \"#utility.yul\":17120:17122   */\n      0x1f\n        /* \"#utility.yul\":17115:17118   */\n      dup4\n        /* \"#utility.yul\":17056:17123   */\n      tag_200\n      jump\t// in\n    tag_389:\n        /* \"#utility.yul\":17049:17123   */\n      swap2\n      pop\n        /* \"#utility.yul\":17132:17225   */\n      tag_390\n        /* \"#utility.yul\":17221:17224   */\n      dup3\n        /* \"#utility.yul\":17132:17225   */\n      tag_240\n      jump\t// in\n    tag_390:\n        /* \"#utility.yul\":17250:17252   */\n      0x20\n        /* \"#utility.yul\":17245:17248   */\n      dup3\n        /* \"#utility.yul\":17241:17253   */\n      add\n        /* \"#utility.yul\":17234:17253   */\n      swap1\n      pop\n        /* \"#utility.yul\":16893:17259   */\n      swap2\n      swap1\n      pop\n      jump\t// out\n        /* \"#utility.yul\":17265:17684   */\n    tag_193:\n        /* \"#utility.yul\":17431:17435   */\n      0x00\n        /* \"#utility.yul\":17469:17471   */\n      0x20\n        /* \"#utility.yul\":17458:17467   */\n      dup3\n        /* \"#utility.yul\":17454:17472   */\n      add\n        /* \"#utility.yul\":17446:17472   */\n      swap1\n      pop\n        /* \"#utility.yul\":17518:17527   */\n      dup2\n        /* \"#utility.yul\":17512:17516   */\n      dup2\n        /* \"#utility.yul\":17508:17528   */\n      sub\n        /* \"#utility.yul\":17504:17505   */\n      0x00\n        /* \"#utility.yul\":17493:17502   */\n      dup4\n        /* \"#utility.yul\":17489:17506   */\n      add\n        /* \"#utility.yul\":17482:17529   */\n      mstore\n        /* \"#utility.yul\":17546:17677   */\n      tag_392\n        /* \"#utility.yul\":17672:17676   */\n      dup2\n        /* \"#utility.yul\":17546:17677   */\n      tag_241\n      jump\t// in\n    tag_392:\n        /* \"#utility.yul\":17538:17677   */\n      swap1\n      pop\n        /* \"#utility.yul\":17265:17684   */\n      swap2\n      swap1\n      pop\n      jump\t// out\n    stop\n    data_149b126e7125232b4200af45303d04fba8b74653b1a295a6a561a528c33fefdd 45524332303a206275726e20616d6f756e7420657863656564732062616c616e6365\n    data_4107e8a8b9e94bf8ff83080ddec1c0bffe897ebc2241b89d44f66b3d274088b6 45524332303a207472616e7366657220616d6f756e7420657863656564732062616c616e6365\n    data_974d1b4421da69cc60b481194f0dad36a5bb4e23da810da7a7fb30cdba178330 45524332303a207472616e7366657220616d6f756e74206578636565647320616c6c6f77616e6365\n    data_f8b476f7d28209d77d4a4ac1fe36b9f8259aa1bb6bddfa6e89de7e51615cf8a8 45524332303a2064656372656173656420616c6c6f77616e63652062656c6f77207a65726f\n\n    auxdata: 0xa26469706673582212201ff7c31d1fe7ce0a8cfd2a08c5ddb0931938d00f0b965136743f694e1dae4f3d64736f6c634300080d0033\n}\n",
				"bytecode": {
					"linkReferences": {},
					"object": "6080604052631dcd65006002556040518060400160405280600481526020017f51626969000000000000000000000000000000000000000000000000000000008152506003908051906020019062000059929190620003a5565b506040518060400160405280600481526020017f514249490000000000000000000000000000000000000000000000000000000081525060049080519060200190620000a7929190620003a5565b506012600560006101000a81548160ff021916908360ff160217905550631dcd65006006556001600760006101000a81548160ff021916908315150217905550348015620000f457600080fd5b5033600760016101000a81548173ffffffffffffffffffffffffffffffffffffffff021916908373ffffffffffffffffffffffffffffffffffffffff160217905550600560009054906101000a900460ff1660ff16600a620001579190620005e2565b60065462000166919062000633565b600681905550620001a2600760019054906101000a900473ffffffffffffffffffffffffffffffffffffffff16600654620001a860201b60201c565b62000878565b600073ffffffffffffffffffffffffffffffffffffffff168273ffffffffffffffffffffffffffffffffffffffff16036200021a576040517f08c379a00000000000000000000000000000000000000000000000000000000081526004016200021190620006f5565b60405180910390fd5b62000236816002546200034260201b62000c651790919060201c565b60028190555062000294816000808573ffffffffffffffffffffffffffffffffffffffff1673ffffffffffffffffffffffffffffffffffffffff168152602001908152602001600020546200034260201b62000c651790919060201c565b6000808473ffffffffffffffffffffffffffffffffffffffff1673ffffffffffffffffffffffffffffffffffffffff168152602001908152602001600020819055508173ffffffffffffffffffffffffffffffffffffffff16600073ffffffffffffffffffffffffffffffffffffffff167fddf252ad1be2c89b69c2b068fc378daa952ba7f163c4a11628f55a4df523b3ef8360405162000336919062000728565b60405180910390a35050565b600080828462000353919062000745565b9050838110156200039b576040517f08c379a00000000000000000000000000000000000000000000000000000000081526004016200039290620007f2565b60405180910390fd5b8091505092915050565b828054620003b39062000843565b90600052602060002090601f016020900481019282620003d7576000855562000423565b82601f10620003f257805160ff191683800117855562000423565b8280016001018555821562000423579182015b828111156200042257825182559160200191906001019062000405565b5b50905062000432919062000436565b5090565b5b808211156200045157600081600090555060010162000437565b5090565b7f4e487b7100000000000000000000000000000000000000000000000000000000600052601160045260246000fd5b60008160011c9050919050565b6000808291508390505b6001851115620004e357808604811115620004bb57620004ba62000455565b5b6001851615620004cb5780820291505b8081029050620004db8562000484565b94506200049b565b94509492505050565b600082620004fe5760019050620005d1565b816200050e5760009050620005d1565b8160018114620005275760028114620005325762000568565b6001915050620005d1565b60ff84111562000547576200054662000455565b5b8360020a91508482111562000561576200056062000455565b5b50620005d1565b5060208310610133831016604e8410600b8410161715620005a25782820a9050838111156200059c576200059b62000455565b5b620005d1565b620005b1848484600162000491565b92509050818404811115620005cb57620005ca62000455565b5b81810290505b9392505050565b6000819050919050565b6000620005ef82620005d8565b9150620005fc83620005d8565b92506200062b7fffffffffffffffffffffffffffffffffffffffffffffffffffffffffffffffff8484620004ec565b905092915050565b60006200064082620005d8565b91506200064d83620005d8565b9250817fffffffffffffffffffffffffffffffffffffffffffffffffffffffffffffffff048311821515161562000689576200068862000455565b5b828202905092915050565b600082825260208201905092915050565b7f45524332303a206d696e7420746f20746865207a65726f206164647265737300600082015250565b6000620006dd601f8362000694565b9150620006ea82620006a5565b602082019050919050565b600060208201905081810360008301526200071081620006ce565b9050919050565b6200072281620005d8565b82525050565b60006020820190506200073f600083018462000717565b92915050565b60006200075282620005d8565b91506200075f83620005d8565b9250827fffffffffffffffffffffffffffffffffffffffffffffffffffffffffffffffff0382111562000797576200079662000455565b5b828201905092915050565b7f536166654d6174683a206164646974696f6e206f766572666c6f770000000000600082015250565b6000620007da601b8362000694565b9150620007e782620007a2565b602082019050919050565b600060208201905081810360008301526200080d81620007cb565b9050919050565b7f4e487b7100000000000000000000000000000000000000000000000000000000600052602260045260246000fd5b600060028204905060018216806200085c57607f821691505b60208210810362000872576200087162000814565b5b50919050565b611f2c80620008886000396000f3fe608060405234801561001057600080fd5b506004361061010b5760003560e01c806370a08231116100a2578063a0712d6811610071578063a0712d68146102be578063a457c2d7146102ee578063a9059cbb1461031e578063dd62ed3e1461034e578063f2fde38b1461037e5761010b565b806370a0823114610248578063715018a614610278578063893d20e81461028257806395d89b41146102a05761010b565b8063313ce567116100de578063313ce567146101ac57806339509351146101ca57806342966c68146101fa5780634bf365df1461022a5761010b565b806306fdde0314610110578063095ea7b31461012e57806318160ddd1461015e57806323b872dd1461017c575b600080fd5b61011861039a565b6040516101259190611583565b60405180910390f35b6101486004803603810190610143919061163e565b61042c565b6040516101559190611699565b60405180910390f35b610166610443565b60405161017391906116c3565b60405180910390f35b610196600480360381019061019191906116de565b61044d565b6040516101a39190611699565b60405180910390f35b6101b4610518565b6040516101c1919061174d565b60405180910390f35b6101e460048036038101906101df919061163e565b61052f565b6040516101f19190611699565b60405180910390f35b610214600480360381019061020f9190611768565b6105d4565b6040516102219190611699565b60405180910390f35b6102326105e9565b60405161023f9190611699565b60405180910390f35b610262600480360381019061025d9190611795565b610600565b60405161026f91906116c3565b60405180910390f35b610280610648565b005b61028a610799565b60405161029791906117d1565b60405180910390f35b6102a86107c3565b6040516102b59190611583565b60405180910390f35b6102d860048036038101906102d39190611768565b610855565b6040516102e59190611699565b60405180910390f35b6103086004803603810190610303919061163e565b610949565b6040516103159190611699565b60405180910390f35b6103386004803603810190610333919061163e565b610a08565b6040516103459190611699565b60405180910390f35b610368600480360381019061036391906117ec565b610a1f565b60405161037591906116c3565b60405180910390f35b61039860048036038101906103939190611795565b610aa6565b005b6060600380546103a99061185b565b80601f01602080910402602001604051908101604052809291908181526020018280546103d59061185b565b80156104225780601f106103f757610100808354040283529160200191610422565b820191906000526020600020905b81548152906001019060200180831161040557829003601f168201915b5050505050905090565b6000610439338484610cc3565b6001905092915050565b6000600254905090565b600061045a848484610e8c565b61050d843361050885604051806060016040528060288152602001611eaa60289139600160008b73ffffffffffffffffffffffffffffffffffffffff1673ffffffffffffffffffffffffffffffffffffffff16815260200190815260200160002060003373ffffffffffffffffffffffffffffffffffffffff1673ffffffffffffffffffffffffffffffffffffffff168152602001908152602001600020546111149092919063ffffffff16565b610cc3565b600190509392505050565b6000600560009054906101000a900460ff16905090565b60006105ca33846105c585600160003373ffffffffffffffffffffffffffffffffffffffff1673ffffffffffffffffffffffffffffffffffffffff16815260200190815260200160002060008973ffffffffffffffffffffffffffffffffffffffff1673ffffffffffffffffffffffffffffffffffffffff16815260200190815260200160002054610c6590919063ffffffff16565b610cc3565b6001905092915050565b60006105e03383611178565b60019050919050565b6000600760009054906101000a900460ff16905090565b60008060008373ffffffffffffffffffffffffffffffffffffffff1673ffffffffffffffffffffffffffffffffffffffff168152602001908152602001600020549050919050565b3373ffffffffffffffffffffffffffffffffffffffff16600760019054906101000a900473ffffffffffffffffffffffffffffffffffffffff1673ffffffffffffffffffffffffffffffffffffffff16146106d8576040517f08c379a00000000000000000000000000000000000000000000000000000000081526004016106cf906118d8565b60405180910390fd5b600073ffffffffffffffffffffffffffffffffffffffff16600760019054906101000a900473ffffffffffffffffffffffffffffffffffffffff1673ffffffffffffffffffffffffffffffffffffffff167f8be0079c531659141344cd1fd0a4f28419497f9722a3daafe3b4186f6b6457e060405160405180910390a36000600760016101000a81548173ffffffffffffffffffffffffffffffffffffffff021916908373ffffffffffffffffffffffffffffffffffffffff160217905550565b6000600760019054906101000a900473ffffffffffffffffffffffffffffffffffffffff16905090565b6060600480546107d29061185b565b80601f01602080910402602001604051908101604052809291908181526020018280546107fe9061185b565b801561084b5780601f106108205761010080835404028352916020019161084b565b820191906000526020600020905b81548152906001019060200180831161082e57829003601f168201915b5050505050905090565b60003373ffffffffffffffffffffffffffffffffffffffff16600760019054906101000a900473ffffffffffffffffffffffffffffffffffffffff1673ffffffffffffffffffffffffffffffffffffffff16146108e7576040517f08c379a00000000000000000000000000000000000000000000000000000000081526004016108de906118d8565b60405180910390fd5b600760009054906101000a900460ff16610936576040517f08c379a000000000000000000000000000000000000000000000000000000000815260040161092d90611944565b60405180910390fd5b6109403383611319565b60019050919050565b60006109fe33846109f985604051806060016040528060258152602001611ed260259139600160003373ffffffffffffffffffffffffffffffffffffffff1673ffffffffffffffffffffffffffffffffffffffff16815260200190815260200160002060008a73ffffffffffffffffffffffffffffffffffffffff1673ffffffffffffffffffffffffffffffffffffffff168152602001908152602001600020546111149092919063ffffffff16565b610cc3565b6001905092915050565b6000610a15338484610e8c565b6001905092915050565b6000600160008473ffffffffffffffffffffffffffffffffffffffff1673ffffffffffffffffffffffffffffffffffffffff16815260200190815260200160002060008373ffffffffffffffffffffffffffffffffffffffff1673ffffffffffffffffffffffffffffffffffffffff16815260200190815260200160002054905092915050565b3373ffffffffffffffffffffffffffffffffffffffff16600760019054906101000a900473ffffffffffffffffffffffffffffffffffffffff1673ffffffffffffffffffffffffffffffffffffffff1614610b36576040517f08c379a0000000000000000000000000000000000000000000000000000000008152600401610b2d906118d8565b60405180910390fd5b600073ffffffffffffffffffffffffffffffffffffffff168173ffffffffffffffffffffffffffffffffffffffff1603610ba5576040517f08c379a0000000000000000000000000000000000000000000000000000000008152600401610b9c906119d6565b60405180910390fd5b8073ffffffffffffffffffffffffffffffffffffffff16600760019054906101000a900473ffffffffffffffffffffffffffffffffffffffff1673ffffffffffffffffffffffffffffffffffffffff167f8be0079c531659141344cd1fd0a4f28419497f9722a3daafe3b4186f6b6457e060405160405180910390a380600760016101000a81548173ffffffffffffffffffffffffffffffffffffffff021916908373ffffffffffffffffffffffffffffffffffffffff16021790555050565b6000808284610c749190611a25565b905083811015610cb9576040517f08c379a0000000000000000000000000000000000000000000000000000000008152600401610cb090611ac7565b60405180910390fd5b8091505092915050565b600073ffffffffffffffffffffffffffffffffffffffff168373ffffffffffffffffffffffffffffffffffffffff1603610d32576040517f08c379a0000000000000000000000000000000000000000000000000000000008152600401610d2990611b59565b60405180910390fd5b600073ffffffffffffffffffffffffffffffffffffffff168273ffffffffffffffffffffffffffffffffffffffff1603610da1576040517f08c379a0000000000000000000000000000000000000000000000000000000008152600401610d9890611beb565b60405180910390fd5b80600160008573ffffffffffffffffffffffffffffffffffffffff1673ffffffffffffffffffffffffffffffffffffffff16815260200190815260200160002060008473ffffffffffffffffffffffffffffffffffffffff1673ffffffffffffffffffffffffffffffffffffffff168152602001908152602001600020819055508173ffffffffffffffffffffffffffffffffffffffff168373ffffffffffffffffffffffffffffffffffffffff167f8c5be1e5ebec7d5bd14f71427d1e84f3dd0314c0f7b2291e5b200ac8c7c3b92583604051610e7f91906116c3565b60405180910390a3505050565b600073ffffffffffffffffffffffffffffffffffffffff168373ffffffffffffffffffffffffffffffffffffffff1603610efb576040517f08c379a0000000000000000000000000000000000000000000000000000000008152600401610ef290611c7d565b60405180910390fd5b600073ffffffffffffffffffffffffffffffffffffffff168273ffffffffffffffffffffffffffffffffffffffff1603610f6a576040517f08c379a0000000000000000000000000000000000000000000000000000000008152600401610f6190611d0f565b60405180910390fd5b610fd581604051806060016040528060268152602001611e84602691396000808773ffffffffffffffffffffffffffffffffffffffff1673ffffffffffffffffffffffffffffffffffffffff168152602001908152602001600020546111149092919063ffffffff16565b6000808573ffffffffffffffffffffffffffffffffffffffff1673ffffffffffffffffffffffffffffffffffffffff16815260200190815260200160002081905550611068816000808573ffffffffffffffffffffffffffffffffffffffff1673ffffffffffffffffffffffffffffffffffffffff16815260200190815260200160002054610c6590919063ffffffff16565b6000808473ffffffffffffffffffffffffffffffffffffffff1673ffffffffffffffffffffffffffffffffffffffff168152602001908152602001600020819055508173ffffffffffffffffffffffffffffffffffffffff168373ffffffffffffffffffffffffffffffffffffffff167fddf252ad1be2c89b69c2b068fc378daa952ba7f163c4a11628f55a4df523b3ef8360405161110791906116c3565b60405180910390a3505050565b600083831115829061115c576040517f08c379a00000000000000000000000000000000000000000000000000000000081526004016111539190611583565b60405180910390fd5b506000838561116b9190611d2f565b9050809150509392505050565b600073ffffffffffffffffffffffffffffffffffffffff168273ffffffffffffffffffffffffffffffffffffffff16036111e7576040517f08c379a00000000000000000000000000000000000000000000000000000000081526004016111de90611dd5565b60405180910390fd5b61125281604051806060016040528060228152602001611e62602291396000808673ffffffffffffffffffffffffffffffffffffffff1673ffffffffffffffffffffffffffffffffffffffff168152602001908152602001600020546111149092919063ffffffff16565b6000808473ffffffffffffffffffffffffffffffffffffffff1673ffffffffffffffffffffffffffffffffffffffff168152602001908152602001600020819055506112a9816002546114a090919063ffffffff16565b600281905550600073ffffffffffffffffffffffffffffffffffffffff168273ffffffffffffffffffffffffffffffffffffffff167fddf252ad1be2c89b69c2b068fc378daa952ba7f163c4a11628f55a4df523b3ef8360405161130d91906116c3565b60405180910390a35050565b600073ffffffffffffffffffffffffffffffffffffffff168273ffffffffffffffffffffffffffffffffffffffff1603611388576040517f08c379a000000000000000000000000000000000000000000000000000000000815260040161137f90611e41565b60405180910390fd5b61139d81600254610c6590919063ffffffff16565b6002819055506113f4816000808573ffffffffffffffffffffffffffffffffffffffff1673ffffffffffffffffffffffffffffffffffffffff16815260200190815260200160002054610c6590919063ffffffff16565b6000808473ffffffffffffffffffffffffffffffffffffffff1673ffffffffffffffffffffffffffffffffffffffff168152602001908152602001600020819055508173ffffffffffffffffffffffffffffffffffffffff16600073ffffffffffffffffffffffffffffffffffffffff167fddf252ad1be2c89b69c2b068fc378daa952ba7f163c4a11628f55a4df523b3ef8360405161149491906116c3565b60405180910390a35050565b60006114e283836040518060400160405280601e81526020017f536166654d6174683a207375627472616374696f6e206f766572666c6f770000815250611114565b905092915050565b600081519050919050565b600082825260208201905092915050565b60005b83811015611524578082015181840152602081019050611509565b83811115611533576000848401525b50505050565b6000601f19601f8301169050919050565b6000611555826114ea565b61155f81856114f5565b935061156f818560208601611506565b61157881611539565b840191505092915050565b6000602082019050818103600083015261159d818461154a565b905092915050565b600080fd5b600073ffffffffffffffffffffffffffffffffffffffff82169050919050565b60006115d5826115aa565b9050919050565b6115e5816115ca565b81146115f057600080fd5b50565b600081359050611602816115dc565b92915050565b6000819050919050565b61161b81611608565b811461162657600080fd5b50565b60008135905061163881611612565b92915050565b60008060408385031215611655576116546115a5565b5b6000611663858286016115f3565b925050602061167485828601611629565b9150509250929050565b60008115159050919050565b6116938161167e565b82525050565b60006020820190506116ae600083018461168a565b92915050565b6116bd81611608565b82525050565b60006020820190506116d860008301846116b4565b92915050565b6000806000606084860312156116f7576116f66115a5565b5b6000611705868287016115f3565b9350506020611716868287016115f3565b925050604061172786828701611629565b9150509250925092565b600060ff82169050919050565b61174781611731565b82525050565b6000602082019050611762600083018461173e565b92915050565b60006020828403121561177e5761177d6115a5565b5b600061178c84828501611629565b91505092915050565b6000602082840312156117ab576117aa6115a5565b5b60006117b9848285016115f3565b91505092915050565b6117cb816115ca565b82525050565b60006020820190506117e660008301846117c2565b92915050565b60008060408385031215611803576118026115a5565b5b6000611811858286016115f3565b9250506020611822858286016115f3565b9150509250929050565b7f4e487b7100000000000000000000000000000000000000000000000000000000600052602260045260246000fd5b6000600282049050600182168061187357607f821691505b6020821081036118865761188561182c565b5b50919050565b7f4f776e61626c653a2063616c6c6572206973206e6f7420746865206f776e6572600082015250565b60006118c26020836114f5565b91506118cd8261188c565b602082019050919050565b600060208201905081810360008301526118f1816118b5565b9050919050565b7f7468697320746f6b656e206973206e6f74206d696e7461626c65000000000000600082015250565b600061192e601a836114f5565b9150611939826118f8565b602082019050919050565b6000602082019050818103600083015261195d81611921565b9050919050565b7f4f776e61626c653a206e6577206f776e657220697320746865207a65726f206160008201527f6464726573730000000000000000000000000000000000000000000000000000602082015250565b60006119c06026836114f5565b91506119cb82611964565b604082019050919050565b600060208201905081810360008301526119ef816119b3565b9050919050565b7f4e487b7100000000000000000000000000000000000000000000000000000000600052601160045260246000fd5b6000611a3082611608565b9150611a3b83611608565b9250827fffffffffffffffffffffffffffffffffffffffffffffffffffffffffffffffff03821115611a7057611a6f6119f6565b5b828201905092915050565b7f536166654d6174683a206164646974696f6e206f766572666c6f770000000000600082015250565b6000611ab1601b836114f5565b9150611abc82611a7b565b602082019050919050565b60006020820190508181036000830152611ae081611aa4565b9050919050565b7f45524332303a20617070726f76652066726f6d20746865207a65726f2061646460008201527f7265737300000000000000000000000000000000000000000000000000000000602082015250565b6000611b436024836114f5565b9150611b4e82611ae7565b604082019050919050565b60006020820190508181036000830152611b7281611b36565b9050919050565b7f45524332303a20617070726f766520746f20746865207a65726f20616464726560008201527f7373000000000000000000000000000000000000000000000000000000000000602082015250565b6000611bd56022836114f5565b9150611be082611b79565b604082019050919050565b60006020820190508181036000830152611c0481611bc8565b9050919050565b7f45524332303a207472616e736665722066726f6d20746865207a65726f20616460008201527f6472657373000000000000000000000000000000000000000000000000000000602082015250565b6000611c676025836114f5565b9150611c7282611c0b565b604082019050919050565b60006020820190508181036000830152611c9681611c5a565b9050919050565b7f45524332303a207472616e7366657220746f20746865207a65726f206164647260008201527f6573730000000000000000000000000000000000000000000000000000000000602082015250565b6000611cf96023836114f5565b9150611d0482611c9d565b604082019050919050565b60006020820190508181036000830152611d2881611cec565b9050919050565b6000611d3a82611608565b9150611d4583611608565b925082821015611d5857611d576119f6565b5b828203905092915050565b7f45524332303a206275726e2066726f6d20746865207a65726f2061646472657360008201527f7300000000000000000000000000000000000000000000000000000000000000602082015250565b6000611dbf6021836114f5565b9150611dca82611d63565b604082019050919050565b60006020820190508181036000830152611dee81611db2565b9050919050565b7f45524332303a206d696e7420746f20746865207a65726f206164647265737300600082015250565b6000611e2b601f836114f5565b9150611e3682611df5565b602082019050919050565b60006020820190508181036000830152611e5a81611e1e565b905091905056fe45524332303a206275726e20616d6f756e7420657863656564732062616c616e636545524332303a207472616e7366657220616d6f756e7420657863656564732062616c616e636545524332303a207472616e7366657220616d6f756e74206578636565647320616c6c6f77616e636545524332303a2064656372656173656420616c6c6f77616e63652062656c6f77207a65726fa26469706673582212201ff7c31d1fe7ce0a8cfd2a08c5ddb0931938d00f0b965136743f694e1dae4f3d64736f6c634300080d0033",
					"opcodes": "PUSH1 0x80 PUSH1 0x40 MSTORE PUSH4 0x1DCD6500 PUSH1 0x2 SSTORE PUSH1 0x40 MLOAD DUP1 PUSH1 0x40 ADD PUSH1 0x40 MSTORE DUP1 PUSH1 0x4 DUP2 MSTORE PUSH1 0x20 ADD PUSH32 0x5162696900000000000000000000000000000000000000000000000000000000 DUP2 MSTORE POP PUSH1 0x3 SWAP1 DUP1 MLOAD SWAP1 PUSH1 0x20 ADD SWAP1 PUSH3 0x59 SWAP3 SWAP2 SWAP1 PUSH3 0x3A5 JUMP JUMPDEST POP PUSH1 0x40 MLOAD DUP1 PUSH1 0x40 ADD PUSH1 0x40 MSTORE DUP1 PUSH1 0x4 DUP2 MSTORE PUSH1 0x20 ADD PUSH32 0x5142494900000000000000000000000000000000000000000000000000000000 DUP2 MSTORE POP PUSH1 0x4 SWAP1 DUP1 MLOAD SWAP1 PUSH1 0x20 ADD SWAP1 PUSH3 0xA7 SWAP3 SWAP2 SWAP1 PUSH3 0x3A5 JUMP JUMPDEST POP PUSH1 0x12 PUSH1 0x5 PUSH1 0x0 PUSH2 0x100 EXP DUP2 SLOAD DUP2 PUSH1 0xFF MUL NOT AND SWAP1 DUP4 PUSH1 0xFF AND MUL OR SWAP1 SSTORE POP PUSH4 0x1DCD6500 PUSH1 0x6 SSTORE PUSH1 0x1 PUSH1 0x7 PUSH1 0x0 PUSH2 0x100 EXP DUP2 SLOAD DUP2 PUSH1 0xFF MUL NOT AND SWAP1 DUP4 ISZERO ISZERO MUL OR SWAP1 SSTORE POP CALLVALUE DUP1 ISZERO PUSH3 0xF4 JUMPI PUSH1 0x0 DUP1 REVERT JUMPDEST POP CALLER PUSH1 0x7 PUSH1 0x1 PUSH2 0x100 EXP DUP2 SLOAD DUP2 PUSH20 0xFFFFFFFFFFFFFFFFFFFFFFFFFFFFFFFFFFFFFFFF MUL NOT AND SWAP1 DUP4 PUSH20 0xFFFFFFFFFFFFFFFFFFFFFFFFFFFFFFFFFFFFFFFF AND MUL OR SWAP1 SSTORE POP PUSH1 0x5 PUSH1 0x0 SWAP1 SLOAD SWAP1 PUSH2 0x100 EXP SWAP1 DIV PUSH1 0xFF AND PUSH1 0xFF AND PUSH1 0xA PUSH3 0x157 SWAP2 SWAP1 PUSH3 0x5E2 JUMP JUMPDEST PUSH1 0x6 SLOAD PUSH3 0x166 SWAP2 SWAP1 PUSH3 0x633 JUMP JUMPDEST PUSH1 0x6 DUP2 SWAP1 SSTORE POP PUSH3 0x1A2 PUSH1 0x7 PUSH1 0x1 SWAP1 SLOAD SWAP1 PUSH2 0x100 EXP SWAP1 DIV PUSH20 0xFFFFFFFFFFFFFFFFFFFFFFFFFFFFFFFFFFFFFFFF AND PUSH1 0x6 SLOAD PUSH3 0x1A8 PUSH1 0x20 SHL PUSH1 0x20 SHR JUMP JUMPDEST PUSH3 0x878 JUMP JUMPDEST PUSH1 0x0 PUSH20 0xFFFFFFFFFFFFFFFFFFFFFFFFFFFFFFFFFFFFFFFF AND DUP3 PUSH20 0xFFFFFFFFFFFFFFFFFFFFFFFFFFFFFFFFFFFFFFFF AND SUB PUSH3 0x21A JUMPI PUSH1 0x40 MLOAD PUSH32 0x8C379A000000000000000000000000000000000000000000000000000000000 DUP2 MSTORE PUSH1 0x4 ADD PUSH3 0x211 SWAP1 PUSH3 0x6F5 JUMP JUMPDEST PUSH1 0x40 MLOAD DUP1 SWAP2 SUB SWAP1 REVERT JUMPDEST PUSH3 0x236 DUP2 PUSH1 0x2 SLOAD PUSH3 0x342 PUSH1 0x20 SHL PUSH3 0xC65 OR SWAP1 SWAP2 SWAP1 PUSH1 0x20 SHR JUMP JUMPDEST PUSH1 0x2 DUP2 SWAP1 SSTORE POP PUSH3 0x294 DUP2 PUSH1 0x0 DUP1 DUP6 PUSH20 0xFFFFFFFFFFFFFFFFFFFFFFFFFFFFFFFFFFFFFFFF AND PUSH20 0xFFFFFFFFFFFFFFFFFFFFFFFFFFFFFFFFFFFFFFFF AND DUP2 MSTORE PUSH1 0x20 ADD SWAP1 DUP2 MSTORE PUSH1 0x20 ADD PUSH1 0x0 KECCAK256 SLOAD PUSH3 0x342 PUSH1 0x20 SHL PUSH3 0xC65 OR SWAP1 SWAP2 SWAP1 PUSH1 0x20 SHR JUMP JUMPDEST PUSH1 0x0 DUP1 DUP5 PUSH20 0xFFFFFFFFFFFFFFFFFFFFFFFFFFFFFFFFFFFFFFFF AND PUSH20 0xFFFFFFFFFFFFFFFFFFFFFFFFFFFFFFFFFFFFFFFF AND DUP2 MSTORE PUSH1 0x20 ADD SWAP1 DUP2 MSTORE PUSH1 0x20 ADD PUSH1 0x0 KECCAK256 DUP2 SWAP1 SSTORE POP DUP2 PUSH20 0xFFFFFFFFFFFFFFFFFFFFFFFFFFFFFFFFFFFFFFFF AND PUSH1 0x0 PUSH20 0xFFFFFFFFFFFFFFFFFFFFFFFFFFFFFFFFFFFFFFFF AND PUSH32 0xDDF252AD1BE2C89B69C2B068FC378DAA952BA7F163C4A11628F55A4DF523B3EF DUP4 PUSH1 0x40 MLOAD PUSH3 0x336 SWAP2 SWAP1 PUSH3 0x728 JUMP JUMPDEST PUSH1 0x40 MLOAD DUP1 SWAP2 SUB SWAP1 LOG3 POP POP JUMP JUMPDEST PUSH1 0x0 DUP1 DUP3 DUP5 PUSH3 0x353 SWAP2 SWAP1 PUSH3 0x745 JUMP JUMPDEST SWAP1 POP DUP4 DUP2 LT ISZERO PUSH3 0x39B JUMPI PUSH1 0x40 MLOAD PUSH32 0x8C379A000000000000000000000000000000000000000000000000000000000 DUP2 MSTORE PUSH1 0x4 ADD PUSH3 0x392 SWAP1 PUSH3 0x7F2 JUMP JUMPDEST PUSH1 0x40 MLOAD DUP1 SWAP2 SUB SWAP1 REVERT JUMPDEST DUP1 SWAP2 POP POP SWAP3 SWAP2 POP POP JUMP JUMPDEST DUP3 DUP1 SLOAD PUSH3 0x3B3 SWAP1 PUSH3 0x843 JUMP JUMPDEST SWAP1 PUSH1 0x0 MSTORE PUSH1 0x20 PUSH1 0x0 KECCAK256 SWAP1 PUSH1 0x1F ADD PUSH1 0x20 SWAP1 DIV DUP2 ADD SWAP3 DUP3 PUSH3 0x3D7 JUMPI PUSH1 0x0 DUP6 SSTORE PUSH3 0x423 JUMP JUMPDEST DUP3 PUSH1 0x1F LT PUSH3 0x3F2 JUMPI DUP1 MLOAD PUSH1 0xFF NOT AND DUP4 DUP1 ADD OR DUP6 SSTORE PUSH3 0x423 JUMP JUMPDEST DUP3 DUP1 ADD PUSH1 0x1 ADD DUP6 SSTORE DUP3 ISZERO PUSH3 0x423 JUMPI SWAP2 DUP3 ADD JUMPDEST DUP3 DUP2 GT ISZERO PUSH3 0x422 JUMPI DUP3 MLOAD DUP3 SSTORE SWAP2 PUSH1 0x20 ADD SWAP2 SWAP1 PUSH1 0x1 ADD SWAP1 PUSH3 0x405 JUMP JUMPDEST JUMPDEST POP SWAP1 POP PUSH3 0x432 SWAP2 SWAP1 PUSH3 0x436 JUMP JUMPDEST POP SWAP1 JUMP JUMPDEST JUMPDEST DUP1 DUP3 GT ISZERO PUSH3 0x451 JUMPI PUSH1 0x0 DUP2 PUSH1 0x0 SWAP1 SSTORE POP PUSH1 0x1 ADD PUSH3 0x437 JUMP JUMPDEST POP SWAP1 JUMP JUMPDEST PUSH32 0x4E487B7100000000000000000000000000000000000000000000000000000000 PUSH1 0x0 MSTORE PUSH1 0x11 PUSH1 0x4 MSTORE PUSH1 0x24 PUSH1 0x0 REVERT JUMPDEST PUSH1 0x0 DUP2 PUSH1 0x1 SHR SWAP1 POP SWAP2 SWAP1 POP JUMP JUMPDEST PUSH1 0x0 DUP1 DUP3 SWAP2 POP DUP4 SWAP1 POP JUMPDEST PUSH1 0x1 DUP6 GT ISZERO PUSH3 0x4E3 JUMPI DUP1 DUP7 DIV DUP2 GT ISZERO PUSH3 0x4BB JUMPI PUSH3 0x4BA PUSH3 0x455 JUMP JUMPDEST JUMPDEST PUSH1 0x1 DUP6 AND ISZERO PUSH3 0x4CB JUMPI DUP1 DUP3 MUL SWAP2 POP JUMPDEST DUP1 DUP2 MUL SWAP1 POP PUSH3 0x4DB DUP6 PUSH3 0x484 JUMP JUMPDEST SWAP5 POP PUSH3 0x49B JUMP JUMPDEST SWAP5 POP SWAP5 SWAP3 POP POP POP JUMP JUMPDEST PUSH1 0x0 DUP3 PUSH3 0x4FE JUMPI PUSH1 0x1 SWAP1 POP PUSH3 0x5D1 JUMP JUMPDEST DUP2 PUSH3 0x50E JUMPI PUSH1 0x0 SWAP1 POP PUSH3 0x5D1 JUMP JUMPDEST DUP2 PUSH1 0x1 DUP2 EQ PUSH3 0x527 JUMPI PUSH1 0x2 DUP2 EQ PUSH3 0x532 JUMPI PUSH3 0x568 JUMP JUMPDEST PUSH1 0x1 SWAP2 POP POP PUSH3 0x5D1 JUMP JUMPDEST PUSH1 0xFF DUP5 GT ISZERO PUSH3 0x547 JUMPI PUSH3 0x546 PUSH3 0x455 JUMP JUMPDEST JUMPDEST DUP4 PUSH1 0x2 EXP SWAP2 POP DUP5 DUP3 GT ISZERO PUSH3 0x561 JUMPI PUSH3 0x560 PUSH3 0x455 JUMP JUMPDEST JUMPDEST POP PUSH3 0x5D1 JUMP JUMPDEST POP PUSH1 0x20 DUP4 LT PUSH2 0x133 DUP4 LT AND PUSH1 0x4E DUP5 LT PUSH1 0xB DUP5 LT AND OR ISZERO PUSH3 0x5A2 JUMPI DUP3 DUP3 EXP SWAP1 POP DUP4 DUP2 GT ISZERO PUSH3 0x59C JUMPI PUSH3 0x59B PUSH3 0x455 JUMP JUMPDEST JUMPDEST PUSH3 0x5D1 JUMP JUMPDEST PUSH3 0x5B1 DUP5 DUP5 DUP5 PUSH1 0x1 PUSH3 0x491 JUMP JUMPDEST SWAP3 POP SWAP1 POP DUP2 DUP5 DIV DUP2 GT ISZERO PUSH3 0x5CB JUMPI PUSH3 0x5CA PUSH3 0x455 JUMP JUMPDEST JUMPDEST DUP2 DUP2 MUL SWAP1 POP JUMPDEST SWAP4 SWAP3 POP POP POP JUMP JUMPDEST PUSH1 0x0 DUP2 SWAP1 POP SWAP2 SWAP1 POP JUMP JUMPDEST PUSH1 0x0 PUSH3 0x5EF DUP3 PUSH3 0x5D8 JUMP JUMPDEST SWAP2 POP PUSH3 0x5FC DUP4 PUSH3 0x5D8 JUMP JUMPDEST SWAP3 POP PUSH3 0x62B PUSH32 0xFFFFFFFFFFFFFFFFFFFFFFFFFFFFFFFFFFFFFFFFFFFFFFFFFFFFFFFFFFFFFFFF DUP5 DUP5 PUSH3 0x4EC JUMP JUMPDEST SWAP1 POP SWAP3 SWAP2 POP POP JUMP JUMPDEST PUSH1 0x0 PUSH3 0x640 DUP3 PUSH3 0x5D8 JUMP JUMPDEST SWAP2 POP PUSH3 0x64D DUP4 PUSH3 0x5D8 JUMP JUMPDEST SWAP3 POP DUP2 PUSH32 0xFFFFFFFFFFFFFFFFFFFFFFFFFFFFFFFFFFFFFFFFFFFFFFFFFFFFFFFFFFFFFFFF DIV DUP4 GT DUP3 ISZERO ISZERO AND ISZERO PUSH3 0x689 JUMPI PUSH3 0x688 PUSH3 0x455 JUMP JUMPDEST JUMPDEST DUP3 DUP3 MUL SWAP1 POP SWAP3 SWAP2 POP POP JUMP JUMPDEST PUSH1 0x0 DUP3 DUP3 MSTORE PUSH1 0x20 DUP3 ADD SWAP1 POP SWAP3 SWAP2 POP POP JUMP JUMPDEST PUSH32 0x45524332303A206D696E7420746F20746865207A65726F206164647265737300 PUSH1 0x0 DUP3 ADD MSTORE POP JUMP JUMPDEST PUSH1 0x0 PUSH3 0x6DD PUSH1 0x1F DUP4 PUSH3 0x694 JUMP JUMPDEST SWAP2 POP PUSH3 0x6EA DUP3 PUSH3 0x6A5 JUMP JUMPDEST PUSH1 0x20 DUP3 ADD SWAP1 POP SWAP2 SWAP1 POP JUMP JUMPDEST PUSH1 0x0 PUSH1 0x20 DUP3 ADD SWAP1 POP DUP2 DUP2 SUB PUSH1 0x0 DUP4 ADD MSTORE PUSH3 0x710 DUP2 PUSH3 0x6CE JUMP JUMPDEST SWAP1 POP SWAP2 SWAP1 POP JUMP JUMPDEST PUSH3 0x722 DUP2 PUSH3 0x5D8 JUMP JUMPDEST DUP3 MSTORE POP POP JUMP JUMPDEST PUSH1 0x0 PUSH1 0x20 DUP3 ADD SWAP1 POP PUSH3 0x73F PUSH1 0x0 DUP4 ADD DUP5 PUSH3 0x717 JUMP JUMPDEST SWAP3 SWAP2 POP POP JUMP JUMPDEST PUSH1 0x0 PUSH3 0x752 DUP3 PUSH3 0x5D8 JUMP JUMPDEST SWAP2 POP PUSH3 0x75F DUP4 PUSH3 0x5D8 JUMP JUMPDEST SWAP3 POP DUP3 PUSH32 0xFFFFFFFFFFFFFFFFFFFFFFFFFFFFFFFFFFFFFFFFFFFFFFFFFFFFFFFFFFFFFFFF SUB DUP3 GT ISZERO PUSH3 0x797 JUMPI PUSH3 0x796 PUSH3 0x455 JUMP JUMPDEST JUMPDEST DUP3 DUP3 ADD SWAP1 POP SWAP3 SWAP2 POP POP JUMP JUMPDEST PUSH32 0x536166654D6174683A206164646974696F6E206F766572666C6F770000000000 PUSH1 0x0 DUP3 ADD MSTORE POP JUMP JUMPDEST PUSH1 0x0 PUSH3 0x7DA PUSH1 0x1B DUP4 PUSH3 0x694 JUMP JUMPDEST SWAP2 POP PUSH3 0x7E7 DUP3 PUSH3 0x7A2 JUMP JUMPDEST PUSH1 0x20 DUP3 ADD SWAP1 POP SWAP2 SWAP1 POP JUMP JUMPDEST PUSH1 0x0 PUSH1 0x20 DUP3 ADD SWAP1 POP DUP2 DUP2 SUB PUSH1 0x0 DUP4 ADD MSTORE PUSH3 0x80D DUP2 PUSH3 0x7CB JUMP JUMPDEST SWAP1 POP SWAP2 SWAP1 POP JUMP JUMPDEST PUSH32 0x4E487B7100000000000000000000000000000000000000000000000000000000 PUSH1 0x0 MSTORE PUSH1 0x22 PUSH1 0x4 MSTORE PUSH1 0x24 PUSH1 0x0 REVERT JUMPDEST PUSH1 0x0 PUSH1 0x2 DUP3 DIV SWAP1 POP PUSH1 0x1 DUP3 AND DUP1 PUSH3 0x85C JUMPI PUSH1 0x7F DUP3 AND SWAP2 POP JUMPDEST PUSH1 0x20 DUP3 LT DUP2 SUB PUSH3 0x872 JUMPI PUSH3 0x871 PUSH3 0x814 JUMP JUMPDEST JUMPDEST POP SWAP2 SWAP1 POP JUMP JUMPDEST PUSH2 0x1F2C DUP1 PUSH3 0x888 PUSH1 0x0 CODECOPY PUSH1 0x0 RETURN INVALID PUSH1 0x80 PUSH1 0x40 MSTORE CALLVALUE DUP1 ISZERO PUSH2 0x10 JUMPI PUSH1 0x0 DUP1 REVERT JUMPDEST POP PUSH1 0x4 CALLDATASIZE LT PUSH2 0x10B JUMPI PUSH1 0x0 CALLDATALOAD PUSH1 0xE0 SHR DUP1 PUSH4 0x70A08231 GT PUSH2 0xA2 JUMPI DUP1 PUSH4 0xA0712D68 GT PUSH2 0x71 JUMPI DUP1 PUSH4 0xA0712D68 EQ PUSH2 0x2BE JUMPI DUP1 PUSH4 0xA457C2D7 EQ PUSH2 0x2EE JUMPI DUP1 PUSH4 0xA9059CBB EQ PUSH2 0x31E JUMPI DUP1 PUSH4 0xDD62ED3E EQ PUSH2 0x34E JUMPI DUP1 PUSH4 0xF2FDE38B EQ PUSH2 0x37E JUMPI PUSH2 0x10B JUMP JUMPDEST DUP1 PUSH4 0x70A08231 EQ PUSH2 0x248 JUMPI DUP1 PUSH4 0x715018A6 EQ PUSH2 0x278 JUMPI DUP1 PUSH4 0x893D20E8 EQ PUSH2 0x282 JUMPI DUP1 PUSH4 0x95D89B41 EQ PUSH2 0x2A0 JUMPI PUSH2 0x10B JUMP JUMPDEST DUP1 PUSH4 0x313CE567 GT PUSH2 0xDE JUMPI DUP1 PUSH4 0x313CE567 EQ PUSH2 0x1AC JUMPI DUP1 PUSH4 0x39509351 EQ PUSH2 0x1CA JUMPI DUP1 PUSH4 0x42966C68 EQ PUSH2 0x1FA JUMPI DUP1 PUSH4 0x4BF365DF EQ PUSH2 0x22A JUMPI PUSH2 0x10B JUMP JUMPDEST DUP1 PUSH4 0x6FDDE03 EQ PUSH2 0x110 JUMPI DUP1 PUSH4 0x95EA7B3 EQ PUSH2 0x12E JUMPI DUP1 PUSH4 0x18160DDD EQ PUSH2 0x15E JUMPI DUP1 PUSH4 0x23B872DD EQ PUSH2 0x17C JUMPI JUMPDEST PUSH1 0x0 DUP1 REVERT JUMPDEST PUSH2 0x118 PUSH2 0x39A JUMP JUMPDEST PUSH1 0x40 MLOAD PUSH2 0x125 SWAP2 SWAP1 PUSH2 0x1583 JUMP JUMPDEST PUSH1 0x40 MLOAD DUP1 SWAP2 SUB SWAP1 RETURN JUMPDEST PUSH2 0x148 PUSH1 0x4 DUP1 CALLDATASIZE SUB DUP2 ADD SWAP1 PUSH2 0x143 SWAP2 SWAP1 PUSH2 0x163E JUMP JUMPDEST PUSH2 0x42C JUMP JUMPDEST PUSH1 0x40 MLOAD PUSH2 0x155 SWAP2 SWAP1 PUSH2 0x1699 JUMP JUMPDEST PUSH1 0x40 MLOAD DUP1 SWAP2 SUB SWAP1 RETURN JUMPDEST PUSH2 0x166 PUSH2 0x443 JUMP JUMPDEST PUSH1 0x40 MLOAD PUSH2 0x173 SWAP2 SWAP1 PUSH2 0x16C3 JUMP JUMPDEST PUSH1 0x40 MLOAD DUP1 SWAP2 SUB SWAP1 RETURN JUMPDEST PUSH2 0x196 PUSH1 0x4 DUP1 CALLDATASIZE SUB DUP2 ADD SWAP1 PUSH2 0x191 SWAP2 SWAP1 PUSH2 0x16DE JUMP JUMPDEST PUSH2 0x44D JUMP JUMPDEST PUSH1 0x40 MLOAD PUSH2 0x1A3 SWAP2 SWAP1 PUSH2 0x1699 JUMP JUMPDEST PUSH1 0x40 MLOAD DUP1 SWAP2 SUB SWAP1 RETURN JUMPDEST PUSH2 0x1B4 PUSH2 0x518 JUMP JUMPDEST PUSH1 0x40 MLOAD PUSH2 0x1C1 SWAP2 SWAP1 PUSH2 0x174D JUMP JUMPDEST PUSH1 0x40 MLOAD DUP1 SWAP2 SUB SWAP1 RETURN JUMPDEST PUSH2 0x1E4 PUSH1 0x4 DUP1 CALLDATASIZE SUB DUP2 ADD SWAP1 PUSH2 0x1DF SWAP2 SWAP1 PUSH2 0x163E JUMP JUMPDEST PUSH2 0x52F JUMP JUMPDEST PUSH1 0x40 MLOAD PUSH2 0x1F1 SWAP2 SWAP1 PUSH2 0x1699 JUMP JUMPDEST PUSH1 0x40 MLOAD DUP1 SWAP2 SUB SWAP1 RETURN JUMPDEST PUSH2 0x214 PUSH1 0x4 DUP1 CALLDATASIZE SUB DUP2 ADD SWAP1 PUSH2 0x20F SWAP2 SWAP1 PUSH2 0x1768 JUMP JUMPDEST PUSH2 0x5D4 JUMP JUMPDEST PUSH1 0x40 MLOAD PUSH2 0x221 SWAP2 SWAP1 PUSH2 0x1699 JUMP JUMPDEST PUSH1 0x40 MLOAD DUP1 SWAP2 SUB SWAP1 RETURN JUMPDEST PUSH2 0x232 PUSH2 0x5E9 JUMP JUMPDEST PUSH1 0x40 MLOAD PUSH2 0x23F SWAP2 SWAP1 PUSH2 0x1699 JUMP JUMPDEST PUSH1 0x40 MLOAD DUP1 SWAP2 SUB SWAP1 RETURN JUMPDEST PUSH2 0x262 PUSH1 0x4 DUP1 CALLDATASIZE SUB DUP2 ADD SWAP1 PUSH2 0x25D SWAP2 SWAP1 PUSH2 0x1795 JUMP JUMPDEST PUSH2 0x600 JUMP JUMPDEST PUSH1 0x40 MLOAD PUSH2 0x26F SWAP2 SWAP1 PUSH2 0x16C3 JUMP JUMPDEST PUSH1 0x40 MLOAD DUP1 SWAP2 SUB SWAP1 RETURN JUMPDEST PUSH2 0x280 PUSH2 0x648 JUMP JUMPDEST STOP JUMPDEST PUSH2 0x28A PUSH2 0x799 JUMP JUMPDEST PUSH1 0x40 MLOAD PUSH2 0x297 SWAP2 SWAP1 PUSH2 0x17D1 JUMP JUMPDEST PUSH1 0x40 MLOAD DUP1 SWAP2 SUB SWAP1 RETURN JUMPDEST PUSH2 0x2A8 PUSH2 0x7C3 JUMP JUMPDEST PUSH1 0x40 MLOAD PUSH2 0x2B5 SWAP2 SWAP1 PUSH2 0x1583 JUMP JUMPDEST PUSH1 0x40 MLOAD DUP1 SWAP2 SUB SWAP1 RETURN JUMPDEST PUSH2 0x2D8 PUSH1 0x4 DUP1 CALLDATASIZE SUB DUP2 ADD SWAP1 PUSH2 0x2D3 SWAP2 SWAP1 PUSH2 0x1768 JUMP JUMPDEST PUSH2 0x855 JUMP JUMPDEST PUSH1 0x40 MLOAD PUSH2 0x2E5 SWAP2 SWAP1 PUSH2 0x1699 JUMP JUMPDEST PUSH1 0x40 MLOAD DUP1 SWAP2 SUB SWAP1 RETURN JUMPDEST PUSH2 0x308 PUSH1 0x4 DUP1 CALLDATASIZE SUB DUP2 ADD SWAP1 PUSH2 0x303 SWAP2 SWAP1 PUSH2 0x163E JUMP JUMPDEST PUSH2 0x949 JUMP JUMPDEST PUSH1 0x40 MLOAD PUSH2 0x315 SWAP2 SWAP1 PUSH2 0x1699 JUMP JUMPDEST PUSH1 0x40 MLOAD DUP1 SWAP2 SUB SWAP1 RETURN JUMPDEST PUSH2 0x338 PUSH1 0x4 DUP1 CALLDATASIZE SUB DUP2 ADD SWAP1 PUSH2 0x333 SWAP2 SWAP1 PUSH2 0x163E JUMP JUMPDEST PUSH2 0xA08 JUMP JUMPDEST PUSH1 0x40 MLOAD PUSH2 0x345 SWAP2 SWAP1 PUSH2 0x1699 JUMP JUMPDEST PUSH1 0x40 MLOAD DUP1 SWAP2 SUB SWAP1 RETURN JUMPDEST PUSH2 0x368 PUSH1 0x4 DUP1 CALLDATASIZE SUB DUP2 ADD SWAP1 PUSH2 0x363 SWAP2 SWAP1 PUSH2 0x17EC JUMP JUMPDEST PUSH2 0xA1F JUMP JUMPDEST PUSH1 0x40 MLOAD PUSH2 0x375 SWAP2 SWAP1 PUSH2 0x16C3 JUMP JUMPDEST PUSH1 0x40 MLOAD DUP1 SWAP2 SUB SWAP1 RETURN JUMPDEST PUSH2 0x398 PUSH1 0x4 DUP1 CALLDATASIZE SUB DUP2 ADD SWAP1 PUSH2 0x393 SWAP2 SWAP1 PUSH2 0x1795 JUMP JUMPDEST PUSH2 0xAA6 JUMP JUMPDEST STOP JUMPDEST PUSH1 0x60 PUSH1 0x3 DUP1 SLOAD PUSH2 0x3A9 SWAP1 PUSH2 0x185B JUMP JUMPDEST DUP1 PUSH1 0x1F ADD PUSH1 0x20 DUP1 SWAP2 DIV MUL PUSH1 0x20 ADD PUSH1 0x40 MLOAD SWAP1 DUP2 ADD PUSH1 0x40 MSTORE DUP1 SWAP3 SWAP2 SWAP1 DUP2 DUP2 MSTORE PUSH1 0x20 ADD DUP3 DUP1 SLOAD PUSH2 0x3D5 SWAP1 PUSH2 0x185B JUMP JUMPDEST DUP1 ISZERO PUSH2 0x422 JUMPI DUP1 PUSH1 0x1F LT PUSH2 0x3F7 JUMPI PUSH2 0x100 DUP1 DUP4 SLOAD DIV MUL DUP4 MSTORE SWAP2 PUSH1 0x20 ADD SWAP2 PUSH2 0x422 JUMP JUMPDEST DUP3 ADD SWAP2 SWAP1 PUSH1 0x0 MSTORE PUSH1 0x20 PUSH1 0x0 KECCAK256 SWAP1 JUMPDEST DUP2 SLOAD DUP2 MSTORE SWAP1 PUSH1 0x1 ADD SWAP1 PUSH1 0x20 ADD DUP1 DUP4 GT PUSH2 0x405 JUMPI DUP3 SWAP1 SUB PUSH1 0x1F AND DUP3 ADD SWAP2 JUMPDEST POP POP POP POP POP SWAP1 POP SWAP1 JUMP JUMPDEST PUSH1 0x0 PUSH2 0x439 CALLER DUP5 DUP5 PUSH2 0xCC3 JUMP JUMPDEST PUSH1 0x1 SWAP1 POP SWAP3 SWAP2 POP POP JUMP JUMPDEST PUSH1 0x0 PUSH1 0x2 SLOAD SWAP1 POP SWAP1 JUMP JUMPDEST PUSH1 0x0 PUSH2 0x45A DUP5 DUP5 DUP5 PUSH2 0xE8C JUMP JUMPDEST PUSH2 0x50D DUP5 CALLER PUSH2 0x508 DUP6 PUSH1 0x40 MLOAD DUP1 PUSH1 0x60 ADD PUSH1 0x40 MSTORE DUP1 PUSH1 0x28 DUP2 MSTORE PUSH1 0x20 ADD PUSH2 0x1EAA PUSH1 0x28 SWAP2 CODECOPY PUSH1 0x1 PUSH1 0x0 DUP12 PUSH20 0xFFFFFFFFFFFFFFFFFFFFFFFFFFFFFFFFFFFFFFFF AND PUSH20 0xFFFFFFFFFFFFFFFFFFFFFFFFFFFFFFFFFFFFFFFF AND DUP2 MSTORE PUSH1 0x20 ADD SWAP1 DUP2 MSTORE PUSH1 0x20 ADD PUSH1 0x0 KECCAK256 PUSH1 0x0 CALLER PUSH20 0xFFFFFFFFFFFFFFFFFFFFFFFFFFFFFFFFFFFFFFFF AND PUSH20 0xFFFFFFFFFFFFFFFFFFFFFFFFFFFFFFFFFFFFFFFF AND DUP2 MSTORE PUSH1 0x20 ADD SWAP1 DUP2 MSTORE PUSH1 0x20 ADD PUSH1 0x0 KECCAK256 SLOAD PUSH2 0x1114 SWAP1 SWAP3 SWAP2 SWAP1 PUSH4 0xFFFFFFFF AND JUMP JUMPDEST PUSH2 0xCC3 JUMP JUMPDEST PUSH1 0x1 SWAP1 POP SWAP4 SWAP3 POP POP POP JUMP JUMPDEST PUSH1 0x0 PUSH1 0x5 PUSH1 0x0 SWAP1 SLOAD SWAP1 PUSH2 0x100 EXP SWAP1 DIV PUSH1 0xFF AND SWAP1 POP SWAP1 JUMP JUMPDEST PUSH1 0x0 PUSH2 0x5CA CALLER DUP5 PUSH2 0x5C5 DUP6 PUSH1 0x1 PUSH1 0x0 CALLER PUSH20 0xFFFFFFFFFFFFFFFFFFFFFFFFFFFFFFFFFFFFFFFF AND PUSH20 0xFFFFFFFFFFFFFFFFFFFFFFFFFFFFFFFFFFFFFFFF AND DUP2 MSTORE PUSH1 0x20 ADD SWAP1 DUP2 MSTORE PUSH1 0x20 ADD PUSH1 0x0 KECCAK256 PUSH1 0x0 DUP10 PUSH20 0xFFFFFFFFFFFFFFFFFFFFFFFFFFFFFFFFFFFFFFFF AND PUSH20 0xFFFFFFFFFFFFFFFFFFFFFFFFFFFFFFFFFFFFFFFF AND DUP2 MSTORE PUSH1 0x20 ADD SWAP1 DUP2 MSTORE PUSH1 0x20 ADD PUSH1 0x0 KECCAK256 SLOAD PUSH2 0xC65 SWAP1 SWAP2 SWAP1 PUSH4 0xFFFFFFFF AND JUMP JUMPDEST PUSH2 0xCC3 JUMP JUMPDEST PUSH1 0x1 SWAP1 POP SWAP3 SWAP2 POP POP JUMP JUMPDEST PUSH1 0x0 PUSH2 0x5E0 CALLER DUP4 PUSH2 0x1178 JUMP JUMPDEST PUSH1 0x1 SWAP1 POP SWAP2 SWAP1 POP JUMP JUMPDEST PUSH1 0x0 PUSH1 0x7 PUSH1 0x0 SWAP1 SLOAD SWAP1 PUSH2 0x100 EXP SWAP1 DIV PUSH1 0xFF AND SWAP1 POP SWAP1 JUMP JUMPDEST PUSH1 0x0 DUP1 PUSH1 0x0 DUP4 PUSH20 0xFFFFFFFFFFFFFFFFFFFFFFFFFFFFFFFFFFFFFFFF AND PUSH20 0xFFFFFFFFFFFFFFFFFFFFFFFFFFFFFFFFFFFFFFFF AND DUP2 MSTORE PUSH1 0x20 ADD SWAP1 DUP2 MSTORE PUSH1 0x20 ADD PUSH1 0x0 KECCAK256 SLOAD SWAP1 POP SWAP2 SWAP1 POP JUMP JUMPDEST CALLER PUSH20 0xFFFFFFFFFFFFFFFFFFFFFFFFFFFFFFFFFFFFFFFF AND PUSH1 0x7 PUSH1 0x1 SWAP1 SLOAD SWAP1 PUSH2 0x100 EXP SWAP1 DIV PUSH20 0xFFFFFFFFFFFFFFFFFFFFFFFFFFFFFFFFFFFFFFFF AND PUSH20 0xFFFFFFFFFFFFFFFFFFFFFFFFFFFFFFFFFFFFFFFF AND EQ PUSH2 0x6D8 JUMPI PUSH1 0x40 MLOAD PUSH32 0x8C379A000000000000000000000000000000000000000000000000000000000 DUP2 MSTORE PUSH1 0x4 ADD PUSH2 0x6CF SWAP1 PUSH2 0x18D8 JUMP JUMPDEST PUSH1 0x40 MLOAD DUP1 SWAP2 SUB SWAP1 REVERT JUMPDEST PUSH1 0x0 PUSH20 0xFFFFFFFFFFFFFFFFFFFFFFFFFFFFFFFFFFFFFFFF AND PUSH1 0x7 PUSH1 0x1 SWAP1 SLOAD SWAP1 PUSH2 0x100 EXP SWAP1 DIV PUSH20 0xFFFFFFFFFFFFFFFFFFFFFFFFFFFFFFFFFFFFFFFF AND PUSH20 0xFFFFFFFFFFFFFFFFFFFFFFFFFFFFFFFFFFFFFFFF AND PUSH32 0x8BE0079C531659141344CD1FD0A4F28419497F9722A3DAAFE3B4186F6B6457E0 PUSH1 0x40 MLOAD PUSH1 0x40 MLOAD DUP1 SWAP2 SUB SWAP1 LOG3 PUSH1 0x0 PUSH1 0x7 PUSH1 0x1 PUSH2 0x100 EXP DUP2 SLOAD DUP2 PUSH20 0xFFFFFFFFFFFFFFFFFFFFFFFFFFFFFFFFFFFFFFFF MUL NOT AND SWAP1 DUP4 PUSH20 0xFFFFFFFFFFFFFFFFFFFFFFFFFFFFFFFFFFFFFFFF AND MUL OR SWAP1 SSTORE POP JUMP JUMPDEST PUSH1 0x0 PUSH1 0x7 PUSH1 0x1 SWAP1 SLOAD SWAP1 PUSH2 0x100 EXP SWAP1 DIV PUSH20 0xFFFFFFFFFFFFFFFFFFFFFFFFFFFFFFFFFFFFFFFF AND SWAP1 POP SWAP1 JUMP JUMPDEST PUSH1 0x60 PUSH1 0x4 DUP1 SLOAD PUSH2 0x7D2 SWAP1 PUSH2 0x185B JUMP JUMPDEST DUP1 PUSH1 0x1F ADD PUSH1 0x20 DUP1 SWAP2 DIV MUL PUSH1 0x20 ADD PUSH1 0x40 MLOAD SWAP1 DUP2 ADD PUSH1 0x40 MSTORE DUP1 SWAP3 SWAP2 SWAP1 DUP2 DUP2 MSTORE PUSH1 0x20 ADD DUP3 DUP1 SLOAD PUSH2 0x7FE SWAP1 PUSH2 0x185B JUMP JUMPDEST DUP1 ISZERO PUSH2 0x84B JUMPI DUP1 PUSH1 0x1F LT PUSH2 0x820 JUMPI PUSH2 0x100 DUP1 DUP4 SLOAD DIV MUL DUP4 MSTORE SWAP2 PUSH1 0x20 ADD SWAP2 PUSH2 0x84B JUMP JUMPDEST DUP3 ADD SWAP2 SWAP1 PUSH1 0x0 MSTORE PUSH1 0x20 PUSH1 0x0 KECCAK256 SWAP1 JUMPDEST DUP2 SLOAD DUP2 MSTORE SWAP1 PUSH1 0x1 ADD SWAP1 PUSH1 0x20 ADD DUP1 DUP4 GT PUSH2 0x82E JUMPI DUP3 SWAP1 SUB PUSH1 0x1F AND DUP3 ADD SWAP2 JUMPDEST POP POP POP POP POP SWAP1 POP SWAP1 JUMP JUMPDEST PUSH1 0x0 CALLER PUSH20 0xFFFFFFFFFFFFFFFFFFFFFFFFFFFFFFFFFFFFFFFF AND PUSH1 0x7 PUSH1 0x1 SWAP1 SLOAD SWAP1 PUSH2 0x100 EXP SWAP1 DIV PUSH20 0xFFFFFFFFFFFFFFFFFFFFFFFFFFFFFFFFFFFFFFFF AND PUSH20 0xFFFFFFFFFFFFFFFFFFFFFFFFFFFFFFFFFFFFFFFF AND EQ PUSH2 0x8E7 JUMPI PUSH1 0x40 MLOAD PUSH32 0x8C379A000000000000000000000000000000000000000000000000000000000 DUP2 MSTORE PUSH1 0x4 ADD PUSH2 0x8DE SWAP1 PUSH2 0x18D8 JUMP JUMPDEST PUSH1 0x40 MLOAD DUP1 SWAP2 SUB SWAP1 REVERT JUMPDEST PUSH1 0x7 PUSH1 0x0 SWAP1 SLOAD SWAP1 PUSH2 0x100 EXP SWAP1 DIV PUSH1 0xFF AND PUSH2 0x936 JUMPI PUSH1 0x40 MLOAD PUSH32 0x8C379A000000000000000000000000000000000000000000000000000000000 DUP2 MSTORE PUSH1 0x4 ADD PUSH2 0x92D SWAP1 PUSH2 0x1944 JUMP JUMPDEST PUSH1 0x40 MLOAD DUP1 SWAP2 SUB SWAP1 REVERT JUMPDEST PUSH2 0x940 CALLER DUP4 PUSH2 0x1319 JUMP JUMPDEST PUSH1 0x1 SWAP1 POP SWAP2 SWAP1 POP JUMP JUMPDEST PUSH1 0x0 PUSH2 0x9FE CALLER DUP5 PUSH2 0x9F9 DUP6 PUSH1 0x40 MLOAD DUP1 PUSH1 0x60 ADD PUSH1 0x40 MSTORE DUP1 PUSH1 0x25 DUP2 MSTORE PUSH1 0x20 ADD PUSH2 0x1ED2 PUSH1 0x25 SWAP2 CODECOPY PUSH1 0x1 PUSH1 0x0 CALLER PUSH20 0xFFFFFFFFFFFFFFFFFFFFFFFFFFFFFFFFFFFFFFFF AND PUSH20 0xFFFFFFFFFFFFFFFFFFFFFFFFFFFFFFFFFFFFFFFF AND DUP2 MSTORE PUSH1 0x20 ADD SWAP1 DUP2 MSTORE PUSH1 0x20 ADD PUSH1 0x0 KECCAK256 PUSH1 0x0 DUP11 PUSH20 0xFFFFFFFFFFFFFFFFFFFFFFFFFFFFFFFFFFFFFFFF AND PUSH20 0xFFFFFFFFFFFFFFFFFFFFFFFFFFFFFFFFFFFFFFFF AND DUP2 MSTORE PUSH1 0x20 ADD SWAP1 DUP2 MSTORE PUSH1 0x20 ADD PUSH1 0x0 KECCAK256 SLOAD PUSH2 0x1114 SWAP1 SWAP3 SWAP2 SWAP1 PUSH4 0xFFFFFFFF AND JUMP JUMPDEST PUSH2 0xCC3 JUMP JUMPDEST PUSH1 0x1 SWAP1 POP SWAP3 SWAP2 POP POP JUMP JUMPDEST PUSH1 0x0 PUSH2 0xA15 CALLER DUP5 DUP5 PUSH2 0xE8C JUMP JUMPDEST PUSH1 0x1 SWAP1 POP SWAP3 SWAP2 POP POP JUMP JUMPDEST PUSH1 0x0 PUSH1 0x1 PUSH1 0x0 DUP5 PUSH20 0xFFFFFFFFFFFFFFFFFFFFFFFFFFFFFFFFFFFFFFFF AND PUSH20 0xFFFFFFFFFFFFFFFFFFFFFFFFFFFFFFFFFFFFFFFF AND DUP2 MSTORE PUSH1 0x20 ADD SWAP1 DUP2 MSTORE PUSH1 0x20 ADD PUSH1 0x0 KECCAK256 PUSH1 0x0 DUP4 PUSH20 0xFFFFFFFFFFFFFFFFFFFFFFFFFFFFFFFFFFFFFFFF AND PUSH20 0xFFFFFFFFFFFFFFFFFFFFFFFFFFFFFFFFFFFFFFFF AND DUP2 MSTORE PUSH1 0x20 ADD SWAP1 DUP2 MSTORE PUSH1 0x20 ADD PUSH1 0x0 KECCAK256 SLOAD SWAP1 POP SWAP3 SWAP2 POP POP JUMP JUMPDEST CALLER PUSH20 0xFFFFFFFFFFFFFFFFFFFFFFFFFFFFFFFFFFFFFFFF AND PUSH1 0x7 PUSH1 0x1 SWAP1 SLOAD SWAP1 PUSH2 0x100 EXP SWAP1 DIV PUSH20 0xFFFFFFFFFFFFFFFFFFFFFFFFFFFFFFFFFFFFFFFF AND PUSH20 0xFFFFFFFFFFFFFFFFFFFFFFFFFFFFFFFFFFFFFFFF AND EQ PUSH2 0xB36 JUMPI PUSH1 0x40 MLOAD PUSH32 0x8C379A000000000000000000000000000000000000000000000000000000000 DUP2 MSTORE PUSH1 0x4 ADD PUSH2 0xB2D SWAP1 PUSH2 0x18D8 JUMP JUMPDEST PUSH1 0x40 MLOAD DUP1 SWAP2 SUB SWAP1 REVERT JUMPDEST PUSH1 0x0 PUSH20 0xFFFFFFFFFFFFFFFFFFFFFFFFFFFFFFFFFFFFFFFF AND DUP2 PUSH20 0xFFFFFFFFFFFFFFFFFFFFFFFFFFFFFFFFFFFFFFFF AND SUB PUSH2 0xBA5 JUMPI PUSH1 0x40 MLOAD PUSH32 0x8C379A000000000000000000000000000000000000000000000000000000000 DUP2 MSTORE PUSH1 0x4 ADD PUSH2 0xB9C SWAP1 PUSH2 0x19D6 JUMP JUMPDEST PUSH1 0x40 MLOAD DUP1 SWAP2 SUB SWAP1 REVERT JUMPDEST DUP1 PUSH20 0xFFFFFFFFFFFFFFFFFFFFFFFFFFFFFFFFFFFFFFFF AND PUSH1 0x7 PUSH1 0x1 SWAP1 SLOAD SWAP1 PUSH2 0x100 EXP SWAP1 DIV PUSH20 0xFFFFFFFFFFFFFFFFFFFFFFFFFFFFFFFFFFFFFFFF AND PUSH20 0xFFFFFFFFFFFFFFFFFFFFFFFFFFFFFFFFFFFFFFFF AND PUSH32 0x8BE0079C531659141344CD1FD0A4F28419497F9722A3DAAFE3B4186F6B6457E0 PUSH1 0x40 MLOAD PUSH1 0x40 MLOAD DUP1 SWAP2 SUB SWAP1 LOG3 DUP1 PUSH1 0x7 PUSH1 0x1 PUSH2 0x100 EXP DUP2 SLOAD DUP2 PUSH20 0xFFFFFFFFFFFFFFFFFFFFFFFFFFFFFFFFFFFFFFFF MUL NOT AND SWAP1 DUP4 PUSH20 0xFFFFFFFFFFFFFFFFFFFFFFFFFFFFFFFFFFFFFFFF AND MUL OR SWAP1 SSTORE POP POP JUMP JUMPDEST PUSH1 0x0 DUP1 DUP3 DUP5 PUSH2 0xC74 SWAP2 SWAP1 PUSH2 0x1A25 JUMP JUMPDEST SWAP1 POP DUP4 DUP2 LT ISZERO PUSH2 0xCB9 JUMPI PUSH1 0x40 MLOAD PUSH32 0x8C379A000000000000000000000000000000000000000000000000000000000 DUP2 MSTORE PUSH1 0x4 ADD PUSH2 0xCB0 SWAP1 PUSH2 0x1AC7 JUMP JUMPDEST PUSH1 0x40 MLOAD DUP1 SWAP2 SUB SWAP1 REVERT JUMPDEST DUP1 SWAP2 POP POP SWAP3 SWAP2 POP POP JUMP JUMPDEST PUSH1 0x0 PUSH20 0xFFFFFFFFFFFFFFFFFFFFFFFFFFFFFFFFFFFFFFFF AND DUP4 PUSH20 0xFFFFFFFFFFFFFFFFFFFFFFFFFFFFFFFFFFFFFFFF AND SUB PUSH2 0xD32 JUMPI PUSH1 0x40 MLOAD PUSH32 0x8C379A000000000000000000000000000000000000000000000000000000000 DUP2 MSTORE PUSH1 0x4 ADD PUSH2 0xD29 SWAP1 PUSH2 0x1B59 JUMP JUMPDEST PUSH1 0x40 MLOAD DUP1 SWAP2 SUB SWAP1 REVERT JUMPDEST PUSH1 0x0 PUSH20 0xFFFFFFFFFFFFFFFFFFFFFFFFFFFFFFFFFFFFFFFF AND DUP3 PUSH20 0xFFFFFFFFFFFFFFFFFFFFFFFFFFFFFFFFFFFFFFFF AND SUB PUSH2 0xDA1 JUMPI PUSH1 0x40 MLOAD PUSH32 0x8C379A000000000000000000000000000000000000000000000000000000000 DUP2 MSTORE PUSH1 0x4 ADD PUSH2 0xD98 SWAP1 PUSH2 0x1BEB JUMP JUMPDEST PUSH1 0x40 MLOAD DUP1 SWAP2 SUB SWAP1 REVERT JUMPDEST DUP1 PUSH1 0x1 PUSH1 0x0 DUP6 PUSH20 0xFFFFFFFFFFFFFFFFFFFFFFFFFFFFFFFFFFFFFFFF AND PUSH20 0xFFFFFFFFFFFFFFFFFFFFFFFFFFFFFFFFFFFFFFFF AND DUP2 MSTORE PUSH1 0x20 ADD SWAP1 DUP2 MSTORE PUSH1 0x20 ADD PUSH1 0x0 KECCAK256 PUSH1 0x0 DUP5 PUSH20 0xFFFFFFFFFFFFFFFFFFFFFFFFFFFFFFFFFFFFFFFF AND PUSH20 0xFFFFFFFFFFFFFFFFFFFFFFFFFFFFFFFFFFFFFFFF AND DUP2 MSTORE PUSH1 0x20 ADD SWAP1 DUP2 MSTORE PUSH1 0x20 ADD PUSH1 0x0 KECCAK256 DUP2 SWAP1 SSTORE POP DUP2 PUSH20 0xFFFFFFFFFFFFFFFFFFFFFFFFFFFFFFFFFFFFFFFF AND DUP4 PUSH20 0xFFFFFFFFFFFFFFFFFFFFFFFFFFFFFFFFFFFFFFFF AND PUSH32 0x8C5BE1E5EBEC7D5BD14F71427D1E84F3DD0314C0F7B2291E5B200AC8C7C3B925 DUP4 PUSH1 0x40 MLOAD PUSH2 0xE7F SWAP2 SWAP1 PUSH2 0x16C3 JUMP JUMPDEST PUSH1 0x40 MLOAD DUP1 SWAP2 SUB SWAP1 LOG3 POP POP POP JUMP JUMPDEST PUSH1 0x0 PUSH20 0xFFFFFFFFFFFFFFFFFFFFFFFFFFFFFFFFFFFFFFFF AND DUP4 PUSH20 0xFFFFFFFFFFFFFFFFFFFFFFFFFFFFFFFFFFFFFFFF AND SUB PUSH2 0xEFB JUMPI PUSH1 0x40 MLOAD PUSH32 0x8C379A000000000000000000000000000000000000000000000000000000000 DUP2 MSTORE PUSH1 0x4 ADD PUSH2 0xEF2 SWAP1 PUSH2 0x1C7D JUMP JUMPDEST PUSH1 0x40 MLOAD DUP1 SWAP2 SUB SWAP1 REVERT JUMPDEST PUSH1 0x0 PUSH20 0xFFFFFFFFFFFFFFFFFFFFFFFFFFFFFFFFFFFFFFFF AND DUP3 PUSH20 0xFFFFFFFFFFFFFFFFFFFFFFFFFFFFFFFFFFFFFFFF AND SUB PUSH2 0xF6A JUMPI PUSH1 0x40 MLOAD PUSH32 0x8C379A000000000000000000000000000000000000000000000000000000000 DUP2 MSTORE PUSH1 0x4 ADD PUSH2 0xF61 SWAP1 PUSH2 0x1D0F JUMP JUMPDEST PUSH1 0x40 MLOAD DUP1 SWAP2 SUB SWAP1 REVERT JUMPDEST PUSH2 0xFD5 DUP2 PUSH1 0x40 MLOAD DUP1 PUSH1 0x60 ADD PUSH1 0x40 MSTORE DUP1 PUSH1 0x26 DUP2 MSTORE PUSH1 0x20 ADD PUSH2 0x1E84 PUSH1 0x26 SWAP2 CODECOPY PUSH1 0x0 DUP1 DUP8 PUSH20 0xFFFFFFFFFFFFFFFFFFFFFFFFFFFFFFFFFFFFFFFF AND PUSH20 0xFFFFFFFFFFFFFFFFFFFFFFFFFFFFFFFFFFFFFFFF AND DUP2 MSTORE PUSH1 0x20 ADD SWAP1 DUP2 MSTORE PUSH1 0x20 ADD PUSH1 0x0 KECCAK256 SLOAD PUSH2 0x1114 SWAP1 SWAP3 SWAP2 SWAP1 PUSH4 0xFFFFFFFF AND JUMP JUMPDEST PUSH1 0x0 DUP1 DUP6 PUSH20 0xFFFFFFFFFFFFFFFFFFFFFFFFFFFFFFFFFFFFFFFF AND PUSH20 0xFFFFFFFFFFFFFFFFFFFFFFFFFFFFFFFFFFFFFFFF AND DUP2 MSTORE PUSH1 0x20 ADD SWAP1 DUP2 MSTORE PUSH1 0x20 ADD PUSH1 0x0 KECCAK256 DUP2 SWAP1 SSTORE POP PUSH2 0x1068 DUP2 PUSH1 0x0 DUP1 DUP6 PUSH20 0xFFFFFFFFFFFFFFFFFFFFFFFFFFFFFFFFFFFFFFFF AND PUSH20 0xFFFFFFFFFFFFFFFFFFFFFFFFFFFFFFFFFFFFFFFF AND DUP2 MSTORE PUSH1 0x20 ADD SWAP1 DUP2 MSTORE PUSH1 0x20 ADD PUSH1 0x0 KECCAK256 SLOAD PUSH2 0xC65 SWAP1 SWAP2 SWAP1 PUSH4 0xFFFFFFFF AND JUMP JUMPDEST PUSH1 0x0 DUP1 DUP5 PUSH20 0xFFFFFFFFFFFFFFFFFFFFFFFFFFFFFFFFFFFFFFFF AND PUSH20 0xFFFFFFFFFFFFFFFFFFFFFFFFFFFFFFFFFFFFFFFF AND DUP2 MSTORE PUSH1 0x20 ADD SWAP1 DUP2 MSTORE PUSH1 0x20 ADD PUSH1 0x0 KECCAK256 DUP2 SWAP1 SSTORE POP DUP2 PUSH20 0xFFFFFFFFFFFFFFFFFFFFFFFFFFFFFFFFFFFFFFFF AND DUP4 PUSH20 0xFFFFFFFFFFFFFFFFFFFFFFFFFFFFFFFFFFFFFFFF AND PUSH32 0xDDF252AD1BE2C89B69C2B068FC378DAA952BA7F163C4A11628F55A4DF523B3EF DUP4 PUSH1 0x40 MLOAD PUSH2 0x1107 SWAP2 SWAP1 PUSH2 0x16C3 JUMP JUMPDEST PUSH1 0x40 MLOAD DUP1 SWAP2 SUB SWAP1 LOG3 POP POP POP JUMP JUMPDEST PUSH1 0x0 DUP4 DUP4 GT ISZERO DUP3 SWAP1 PUSH2 0x115C JUMPI PUSH1 0x40 MLOAD PUSH32 0x8C379A000000000000000000000000000000000000000000000000000000000 DUP2 MSTORE PUSH1 0x4 ADD PUSH2 0x1153 SWAP2 SWAP1 PUSH2 0x1583 JUMP JUMPDEST PUSH1 0x40 MLOAD DUP1 SWAP2 SUB SWAP1 REVERT JUMPDEST POP PUSH1 0x0 DUP4 DUP6 PUSH2 0x116B SWAP2 SWAP1 PUSH2 0x1D2F JUMP JUMPDEST SWAP1 POP DUP1 SWAP2 POP POP SWAP4 SWAP3 POP POP POP JUMP JUMPDEST PUSH1 0x0 PUSH20 0xFFFFFFFFFFFFFFFFFFFFFFFFFFFFFFFFFFFFFFFF AND DUP3 PUSH20 0xFFFFFFFFFFFFFFFFFFFFFFFFFFFFFFFFFFFFFFFF AND SUB PUSH2 0x11E7 JUMPI PUSH1 0x40 MLOAD PUSH32 0x8C379A000000000000000000000000000000000000000000000000000000000 DUP2 MSTORE PUSH1 0x4 ADD PUSH2 0x11DE SWAP1 PUSH2 0x1DD5 JUMP JUMPDEST PUSH1 0x40 MLOAD DUP1 SWAP2 SUB SWAP1 REVERT JUMPDEST PUSH2 0x1252 DUP2 PUSH1 0x40 MLOAD DUP1 PUSH1 0x60 ADD PUSH1 0x40 MSTORE DUP1 PUSH1 0x22 DUP2 MSTORE PUSH1 0x20 ADD PUSH2 0x1E62 PUSH1 0x22 SWAP2 CODECOPY PUSH1 0x0 DUP1 DUP7 PUSH20 0xFFFFFFFFFFFFFFFFFFFFFFFFFFFFFFFFFFFFFFFF AND PUSH20 0xFFFFFFFFFFFFFFFFFFFFFFFFFFFFFFFFFFFFFFFF AND DUP2 MSTORE PUSH1 0x20 ADD SWAP1 DUP2 MSTORE PUSH1 0x20 ADD PUSH1 0x0 KECCAK256 SLOAD PUSH2 0x1114 SWAP1 SWAP3 SWAP2 SWAP1 PUSH4 0xFFFFFFFF AND JUMP JUMPDEST PUSH1 0x0 DUP1 DUP5 PUSH20 0xFFFFFFFFFFFFFFFFFFFFFFFFFFFFFFFFFFFFFFFF AND PUSH20 0xFFFFFFFFFFFFFFFFFFFFFFFFFFFFFFFFFFFFFFFF AND DUP2 MSTORE PUSH1 0x20 ADD SWAP1 DUP2 MSTORE PUSH1 0x20 ADD PUSH1 0x0 KECCAK256 DUP2 SWAP1 SSTORE POP PUSH2 0x12A9 DUP2 PUSH1 0x2 SLOAD PUSH2 0x14A0 SWAP1 SWAP2 SWAP1 PUSH4 0xFFFFFFFF AND JUMP JUMPDEST PUSH1 0x2 DUP2 SWAP1 SSTORE POP PUSH1 0x0 PUSH20 0xFFFFFFFFFFFFFFFFFFFFFFFFFFFFFFFFFFFFFFFF AND DUP3 PUSH20 0xFFFFFFFFFFFFFFFFFFFFFFFFFFFFFFFFFFFFFFFF AND PUSH32 0xDDF252AD1BE2C89B69C2B068FC378DAA952BA7F163C4A11628F55A4DF523B3EF DUP4 PUSH1 0x40 MLOAD PUSH2 0x130D SWAP2 SWAP1 PUSH2 0x16C3 JUMP JUMPDEST PUSH1 0x40 MLOAD DUP1 SWAP2 SUB SWAP1 LOG3 POP POP JUMP JUMPDEST PUSH1 0x0 PUSH20 0xFFFFFFFFFFFFFFFFFFFFFFFFFFFFFFFFFFFFFFFF AND DUP3 PUSH20 0xFFFFFFFFFFFFFFFFFFFFFFFFFFFFFFFFFFFFFFFF AND SUB PUSH2 0x1388 JUMPI PUSH1 0x40 MLOAD PUSH32 0x8C379A000000000000000000000000000000000000000000000000000000000 DUP2 MSTORE PUSH1 0x4 ADD PUSH2 0x137F SWAP1 PUSH2 0x1E41 JUMP JUMPDEST PUSH1 0x40 MLOAD DUP1 SWAP2 SUB SWAP1 REVERT JUMPDEST PUSH2 0x139D DUP2 PUSH1 0x2 SLOAD PUSH2 0xC65 SWAP1 SWAP2 SWAP1 PUSH4 0xFFFFFFFF AND JUMP JUMPDEST PUSH1 0x2 DUP2 SWAP1 SSTORE POP PUSH2 0x13F4 DUP2 PUSH1 0x0 DUP1 DUP6 PUSH20 0xFFFFFFFFFFFFFFFFFFFFFFFFFFFFFFFFFFFFFFFF AND PUSH20 0xFFFFFFFFFFFFFFFFFFFFFFFFFFFFFFFFFFFFFFFF AND DUP2 MSTORE PUSH1 0x20 ADD SWAP1 DUP2 MSTORE PUSH1 0x20 ADD PUSH1 0x0 KECCAK256 SLOAD PUSH2 0xC65 SWAP1 SWAP2 SWAP1 PUSH4 0xFFFFFFFF AND JUMP JUMPDEST PUSH1 0x0 DUP1 DUP5 PUSH20 0xFFFFFFFFFFFFFFFFFFFFFFFFFFFFFFFFFFFFFFFF AND PUSH20 0xFFFFFFFFFFFFFFFFFFFFFFFFFFFFFFFFFFFFFFFF AND DUP2 MSTORE PUSH1 0x20 ADD SWAP1 DUP2 MSTORE PUSH1 0x20 ADD PUSH1 0x0 KECCAK256 DUP2 SWAP1 SSTORE POP DUP2 PUSH20 0xFFFFFFFFFFFFFFFFFFFFFFFFFFFFFFFFFFFFFFFF AND PUSH1 0x0 PUSH20 0xFFFFFFFFFFFFFFFFFFFFFFFFFFFFFFFFFFFFFFFF AND PUSH32 0xDDF252AD1BE2C89B69C2B068FC378DAA952BA7F163C4A11628F55A4DF523B3EF DUP4 PUSH1 0x40 MLOAD PUSH2 0x1494 SWAP2 SWAP1 PUSH2 0x16C3 JUMP JUMPDEST PUSH1 0x40 MLOAD DUP1 SWAP2 SUB SWAP1 LOG3 POP POP JUMP JUMPDEST PUSH1 0x0 PUSH2 0x14E2 DUP4 DUP4 PUSH1 0x40 MLOAD DUP1 PUSH1 0x40 ADD PUSH1 0x40 MSTORE DUP1 PUSH1 0x1E DUP2 MSTORE PUSH1 0x20 ADD PUSH32 0x536166654D6174683A207375627472616374696F6E206F766572666C6F770000 DUP2 MSTORE POP PUSH2 0x1114 JUMP JUMPDEST SWAP1 POP SWAP3 SWAP2 POP POP JUMP JUMPDEST PUSH1 0x0 DUP2 MLOAD SWAP1 POP SWAP2 SWAP1 POP JUMP JUMPDEST PUSH1 0x0 DUP3 DUP3 MSTORE PUSH1 0x20 DUP3 ADD SWAP1 POP SWAP3 SWAP2 POP POP JUMP JUMPDEST PUSH1 0x0 JUMPDEST DUP4 DUP2 LT ISZERO PUSH2 0x1524 JUMPI DUP1 DUP3 ADD MLOAD DUP2 DUP5 ADD MSTORE PUSH1 0x20 DUP2 ADD SWAP1 POP PUSH2 0x1509 JUMP JUMPDEST DUP4 DUP2 GT ISZERO PUSH2 0x1533 JUMPI PUSH1 0x0 DUP5 DUP5 ADD MSTORE JUMPDEST POP POP POP POP JUMP JUMPDEST PUSH1 0x0 PUSH1 0x1F NOT PUSH1 0x1F DUP4 ADD AND SWAP1 POP SWAP2 SWAP1 POP JUMP JUMPDEST PUSH1 0x0 PUSH2 0x1555 DUP3 PUSH2 0x14EA JUMP JUMPDEST PUSH2 0x155F DUP2 DUP6 PUSH2 0x14F5 JUMP JUMPDEST SWAP4 POP PUSH2 0x156F DUP2 DUP6 PUSH1 0x20 DUP7 ADD PUSH2 0x1506 JUMP JUMPDEST PUSH2 0x1578 DUP2 PUSH2 0x1539 JUMP JUMPDEST DUP5 ADD SWAP2 POP POP SWAP3 SWAP2 POP POP JUMP JUMPDEST PUSH1 0x0 PUSH1 0x20 DUP3 ADD SWAP1 POP DUP2 DUP2 SUB PUSH1 0x0 DUP4 ADD MSTORE PUSH2 0x159D DUP2 DUP5 PUSH2 0x154A JUMP JUMPDEST SWAP1 POP SWAP3 SWAP2 POP POP JUMP JUMPDEST PUSH1 0x0 DUP1 REVERT JUMPDEST PUSH1 0x0 PUSH20 0xFFFFFFFFFFFFFFFFFFFFFFFFFFFFFFFFFFFFFFFF DUP3 AND SWAP1 POP SWAP2 SWAP1 POP JUMP JUMPDEST PUSH1 0x0 PUSH2 0x15D5 DUP3 PUSH2 0x15AA JUMP JUMPDEST SWAP1 POP SWAP2 SWAP1 POP JUMP JUMPDEST PUSH2 0x15E5 DUP2 PUSH2 0x15CA JUMP JUMPDEST DUP2 EQ PUSH2 0x15F0 JUMPI PUSH1 0x0 DUP1 REVERT JUMPDEST POP JUMP JUMPDEST PUSH1 0x0 DUP2 CALLDATALOAD SWAP1 POP PUSH2 0x1602 DUP2 PUSH2 0x15DC JUMP JUMPDEST SWAP3 SWAP2 POP POP JUMP JUMPDEST PUSH1 0x0 DUP2 SWAP1 POP SWAP2 SWAP1 POP JUMP JUMPDEST PUSH2 0x161B DUP2 PUSH2 0x1608 JUMP JUMPDEST DUP2 EQ PUSH2 0x1626 JUMPI PUSH1 0x0 DUP1 REVERT JUMPDEST POP JUMP JUMPDEST PUSH1 0x0 DUP2 CALLDATALOAD SWAP1 POP PUSH2 0x1638 DUP2 PUSH2 0x1612 JUMP JUMPDEST SWAP3 SWAP2 POP POP JUMP JUMPDEST PUSH1 0x0 DUP1 PUSH1 0x40 DUP4 DUP6 SUB SLT ISZERO PUSH2 0x1655 JUMPI PUSH2 0x1654 PUSH2 0x15A5 JUMP JUMPDEST JUMPDEST PUSH1 0x0 PUSH2 0x1663 DUP6 DUP3 DUP7 ADD PUSH2 0x15F3 JUMP JUMPDEST SWAP3 POP POP PUSH1 0x20 PUSH2 0x1674 DUP6 DUP3 DUP7 ADD PUSH2 0x1629 JUMP JUMPDEST SWAP2 POP POP SWAP3 POP SWAP3 SWAP1 POP JUMP JUMPDEST PUSH1 0x0 DUP2 ISZERO ISZERO SWAP1 POP SWAP2 SWAP1 POP JUMP JUMPDEST PUSH2 0x1693 DUP2 PUSH2 0x167E JUMP JUMPDEST DUP3 MSTORE POP POP JUMP JUMPDEST PUSH1 0x0 PUSH1 0x20 DUP3 ADD SWAP1 POP PUSH2 0x16AE PUSH1 0x0 DUP4 ADD DUP5 PUSH2 0x168A JUMP JUMPDEST SWAP3 SWAP2 POP POP JUMP JUMPDEST PUSH2 0x16BD DUP2 PUSH2 0x1608 JUMP JUMPDEST DUP3 MSTORE POP POP JUMP JUMPDEST PUSH1 0x0 PUSH1 0x20 DUP3 ADD SWAP1 POP PUSH2 0x16D8 PUSH1 0x0 DUP4 ADD DUP5 PUSH2 0x16B4 JUMP JUMPDEST SWAP3 SWAP2 POP POP JUMP JUMPDEST PUSH1 0x0 DUP1 PUSH1 0x0 PUSH1 0x60 DUP5 DUP7 SUB SLT ISZERO PUSH2 0x16F7 JUMPI PUSH2 0x16F6 PUSH2 0x15A5 JUMP JUMPDEST JUMPDEST PUSH1 0x0 PUSH2 0x1705 DUP7 DUP3 DUP8 ADD PUSH2 0x15F3 JUMP JUMPDEST SWAP4 POP POP PUSH1 0x20 PUSH2 0x1716 DUP7 DUP3 DUP8 ADD PUSH2 0x15F3 JUMP JUMPDEST SWAP3 POP POP PUSH1 0x40 PUSH2 0x1727 DUP7 DUP3 DUP8 ADD PUSH2 0x1629 JUMP JUMPDEST SWAP2 POP POP SWAP3 POP SWAP3 POP SWAP3 JUMP JUMPDEST PUSH1 0x0 PUSH1 0xFF DUP3 AND SWAP1 POP SWAP2 SWAP1 POP JUMP JUMPDEST PUSH2 0x1747 DUP2 PUSH2 0x1731 JUMP JUMPDEST DUP3 MSTORE POP POP JUMP JUMPDEST PUSH1 0x0 PUSH1 0x20 DUP3 ADD SWAP1 POP PUSH2 0x1762 PUSH1 0x0 DUP4 ADD DUP5 PUSH2 0x173E JUMP JUMPDEST SWAP3 SWAP2 POP POP JUMP JUMPDEST PUSH1 0x0 PUSH1 0x20 DUP3 DUP5 SUB SLT ISZERO PUSH2 0x177E JUMPI PUSH2 0x177D PUSH2 0x15A5 JUMP JUMPDEST JUMPDEST PUSH1 0x0 PUSH2 0x178C DUP5 DUP3 DUP6 ADD PUSH2 0x1629 JUMP JUMPDEST SWAP2 POP POP SWAP3 SWAP2 POP POP JUMP JUMPDEST PUSH1 0x0 PUSH1 0x20 DUP3 DUP5 SUB SLT ISZERO PUSH2 0x17AB JUMPI PUSH2 0x17AA PUSH2 0x15A5 JUMP JUMPDEST JUMPDEST PUSH1 0x0 PUSH2 0x17B9 DUP5 DUP3 DUP6 ADD PUSH2 0x15F3 JUMP JUMPDEST SWAP2 POP POP SWAP3 SWAP2 POP POP JUMP JUMPDEST PUSH2 0x17CB DUP2 PUSH2 0x15CA JUMP JUMPDEST DUP3 MSTORE POP POP JUMP JUMPDEST PUSH1 0x0 PUSH1 0x20 DUP3 ADD SWAP1 POP PUSH2 0x17E6 PUSH1 0x0 DUP4 ADD DUP5 PUSH2 0x17C2 JUMP JUMPDEST SWAP3 SWAP2 POP POP JUMP JUMPDEST PUSH1 0x0 DUP1 PUSH1 0x40 DUP4 DUP6 SUB SLT ISZERO PUSH2 0x1803 JUMPI PUSH2 0x1802 PUSH2 0x15A5 JUMP JUMPDEST JUMPDEST PUSH1 0x0 PUSH2 0x1811 DUP6 DUP3 DUP7 ADD PUSH2 0x15F3 JUMP JUMPDEST SWAP3 POP POP PUSH1 0x20 PUSH2 0x1822 DUP6 DUP3 DUP7 ADD PUSH2 0x15F3 JUMP JUMPDEST SWAP2 POP POP SWAP3 POP SWAP3 SWAP1 POP JUMP JUMPDEST PUSH32 0x4E487B7100000000000000000000000000000000000000000000000000000000 PUSH1 0x0 MSTORE PUSH1 0x22 PUSH1 0x4 MSTORE PUSH1 0x24 PUSH1 0x0 REVERT JUMPDEST PUSH1 0x0 PUSH1 0x2 DUP3 DIV SWAP1 POP PUSH1 0x1 DUP3 AND DUP1 PUSH2 0x1873 JUMPI PUSH1 0x7F DUP3 AND SWAP2 POP JUMPDEST PUSH1 0x20 DUP3 LT DUP2 SUB PUSH2 0x1886 JUMPI PUSH2 0x1885 PUSH2 0x182C JUMP JUMPDEST JUMPDEST POP SWAP2 SWAP1 POP JUMP JUMPDEST PUSH32 0x4F776E61626C653A2063616C6C6572206973206E6F7420746865206F776E6572 PUSH1 0x0 DUP3 ADD MSTORE POP JUMP JUMPDEST PUSH1 0x0 PUSH2 0x18C2 PUSH1 0x20 DUP4 PUSH2 0x14F5 JUMP JUMPDEST SWAP2 POP PUSH2 0x18CD DUP3 PUSH2 0x188C JUMP JUMPDEST PUSH1 0x20 DUP3 ADD SWAP1 POP SWAP2 SWAP1 POP JUMP JUMPDEST PUSH1 0x0 PUSH1 0x20 DUP3 ADD SWAP1 POP DUP2 DUP2 SUB PUSH1 0x0 DUP4 ADD MSTORE PUSH2 0x18F1 DUP2 PUSH2 0x18B5 JUMP JUMPDEST SWAP1 POP SWAP2 SWAP1 POP JUMP JUMPDEST PUSH32 0x7468697320746F6B656E206973206E6F74206D696E7461626C65000000000000 PUSH1 0x0 DUP3 ADD MSTORE POP JUMP JUMPDEST PUSH1 0x0 PUSH2 0x192E PUSH1 0x1A DUP4 PUSH2 0x14F5 JUMP JUMPDEST SWAP2 POP PUSH2 0x1939 DUP3 PUSH2 0x18F8 JUMP JUMPDEST PUSH1 0x20 DUP3 ADD SWAP1 POP SWAP2 SWAP1 POP JUMP JUMPDEST PUSH1 0x0 PUSH1 0x20 DUP3 ADD SWAP1 POP DUP2 DUP2 SUB PUSH1 0x0 DUP4 ADD MSTORE PUSH2 0x195D DUP2 PUSH2 0x1921 JUMP JUMPDEST SWAP1 POP SWAP2 SWAP1 POP JUMP JUMPDEST PUSH32 0x4F776E61626C653A206E6577206F776E657220697320746865207A65726F2061 PUSH1 0x0 DUP3 ADD MSTORE PUSH32 0x6464726573730000000000000000000000000000000000000000000000000000 PUSH1 0x20 DUP3 ADD MSTORE POP JUMP JUMPDEST PUSH1 0x0 PUSH2 0x19C0 PUSH1 0x26 DUP4 PUSH2 0x14F5 JUMP JUMPDEST SWAP2 POP PUSH2 0x19CB DUP3 PUSH2 0x1964 JUMP JUMPDEST PUSH1 0x40 DUP3 ADD SWAP1 POP SWAP2 SWAP1 POP JUMP JUMPDEST PUSH1 0x0 PUSH1 0x20 DUP3 ADD SWAP1 POP DUP2 DUP2 SUB PUSH1 0x0 DUP4 ADD MSTORE PUSH2 0x19EF DUP2 PUSH2 0x19B3 JUMP JUMPDEST SWAP1 POP SWAP2 SWAP1 POP JUMP JUMPDEST PUSH32 0x4E487B7100000000000000000000000000000000000000000000000000000000 PUSH1 0x0 MSTORE PUSH1 0x11 PUSH1 0x4 MSTORE PUSH1 0x24 PUSH1 0x0 REVERT JUMPDEST PUSH1 0x0 PUSH2 0x1A30 DUP3 PUSH2 0x1608 JUMP JUMPDEST SWAP2 POP PUSH2 0x1A3B DUP4 PUSH2 0x1608 JUMP JUMPDEST SWAP3 POP DUP3 PUSH32 0xFFFFFFFFFFFFFFFFFFFFFFFFFFFFFFFFFFFFFFFFFFFFFFFFFFFFFFFFFFFFFFFF SUB DUP3 GT ISZERO PUSH2 0x1A70 JUMPI PUSH2 0x1A6F PUSH2 0x19F6 JUMP JUMPDEST JUMPDEST DUP3 DUP3 ADD SWAP1 POP SWAP3 SWAP2 POP POP JUMP JUMPDEST PUSH32 0x536166654D6174683A206164646974696F6E206F766572666C6F770000000000 PUSH1 0x0 DUP3 ADD MSTORE POP JUMP JUMPDEST PUSH1 0x0 PUSH2 0x1AB1 PUSH1 0x1B DUP4 PUSH2 0x14F5 JUMP JUMPDEST SWAP2 POP PUSH2 0x1ABC DUP3 PUSH2 0x1A7B JUMP JUMPDEST PUSH1 0x20 DUP3 ADD SWAP1 POP SWAP2 SWAP1 POP JUMP JUMPDEST PUSH1 0x0 PUSH1 0x20 DUP3 ADD SWAP1 POP DUP2 DUP2 SUB PUSH1 0x0 DUP4 ADD MSTORE PUSH2 0x1AE0 DUP2 PUSH2 0x1AA4 JUMP JUMPDEST SWAP1 POP SWAP2 SWAP1 POP JUMP JUMPDEST PUSH32 0x45524332303A20617070726F76652066726F6D20746865207A65726F20616464 PUSH1 0x0 DUP3 ADD MSTORE PUSH32 0x7265737300000000000000000000000000000000000000000000000000000000 PUSH1 0x20 DUP3 ADD MSTORE POP JUMP JUMPDEST PUSH1 0x0 PUSH2 0x1B43 PUSH1 0x24 DUP4 PUSH2 0x14F5 JUMP JUMPDEST SWAP2 POP PUSH2 0x1B4E DUP3 PUSH2 0x1AE7 JUMP JUMPDEST PUSH1 0x40 DUP3 ADD SWAP1 POP SWAP2 SWAP1 POP JUMP JUMPDEST PUSH1 0x0 PUSH1 0x20 DUP3 ADD SWAP1 POP DUP2 DUP2 SUB PUSH1 0x0 DUP4 ADD MSTORE PUSH2 0x1B72 DUP2 PUSH2 0x1B36 JUMP JUMPDEST SWAP1 POP SWAP2 SWAP1 POP JUMP JUMPDEST PUSH32 0x45524332303A20617070726F766520746F20746865207A65726F206164647265 PUSH1 0x0 DUP3 ADD MSTORE PUSH32 0x7373000000000000000000000000000000000000000000000000000000000000 PUSH1 0x20 DUP3 ADD MSTORE POP JUMP JUMPDEST PUSH1 0x0 PUSH2 0x1BD5 PUSH1 0x22 DUP4 PUSH2 0x14F5 JUMP JUMPDEST SWAP2 POP PUSH2 0x1BE0 DUP3 PUSH2 0x1B79 JUMP JUMPDEST PUSH1 0x40 DUP3 ADD SWAP1 POP SWAP2 SWAP1 POP JUMP JUMPDEST PUSH1 0x0 PUSH1 0x20 DUP3 ADD SWAP1 POP DUP2 DUP2 SUB PUSH1 0x0 DUP4 ADD MSTORE PUSH2 0x1C04 DUP2 PUSH2 0x1BC8 JUMP JUMPDEST SWAP1 POP SWAP2 SWAP1 POP JUMP JUMPDEST PUSH32 0x45524332303A207472616E736665722066726F6D20746865207A65726F206164 PUSH1 0x0 DUP3 ADD MSTORE PUSH32 0x6472657373000000000000000000000000000000000000000000000000000000 PUSH1 0x20 DUP3 ADD MSTORE POP JUMP JUMPDEST PUSH1 0x0 PUSH2 0x1C67 PUSH1 0x25 DUP4 PUSH2 0x14F5 JUMP JUMPDEST SWAP2 POP PUSH2 0x1C72 DUP3 PUSH2 0x1C0B JUMP JUMPDEST PUSH1 0x40 DUP3 ADD SWAP1 POP SWAP2 SWAP1 POP JUMP JUMPDEST PUSH1 0x0 PUSH1 0x20 DUP3 ADD SWAP1 POP DUP2 DUP2 SUB PUSH1 0x0 DUP4 ADD MSTORE PUSH2 0x1C96 DUP2 PUSH2 0x1C5A JUMP JUMPDEST SWAP1 POP SWAP2 SWAP1 POP JUMP JUMPDEST PUSH32 0x45524332303A207472616E7366657220746F20746865207A65726F2061646472 PUSH1 0x0 DUP3 ADD MSTORE PUSH32 0x6573730000000000000000000000000000000000000000000000000000000000 PUSH1 0x20 DUP3 ADD MSTORE POP JUMP JUMPDEST PUSH1 0x0 PUSH2 0x1CF9 PUSH1 0x23 DUP4 PUSH2 0x14F5 JUMP JUMPDEST SWAP2 POP PUSH2 0x1D04 DUP3 PUSH2 0x1C9D JUMP JUMPDEST PUSH1 0x40 DUP3 ADD SWAP1 POP SWAP2 SWAP1 POP JUMP JUMPDEST PUSH1 0x0 PUSH1 0x20 DUP3 ADD SWAP1 POP DUP2 DUP2 SUB PUSH1 0x0 DUP4 ADD MSTORE PUSH2 0x1D28 DUP2 PUSH2 0x1CEC JUMP JUMPDEST SWAP1 POP SWAP2 SWAP1 POP JUMP JUMPDEST PUSH1 0x0 PUSH2 0x1D3A DUP3 PUSH2 0x1608 JUMP JUMPDEST SWAP2 POP PUSH2 0x1D45 DUP4 PUSH2 0x1608 JUMP JUMPDEST SWAP3 POP DUP3 DUP3 LT ISZERO PUSH2 0x1D58 JUMPI PUSH2 0x1D57 PUSH2 0x19F6 JUMP JUMPDEST JUMPDEST DUP3 DUP3 SUB SWAP1 POP SWAP3 SWAP2 POP POP JUMP JUMPDEST PUSH32 0x45524332303A206275726E2066726F6D20746865207A65726F20616464726573 PUSH1 0x0 DUP3 ADD MSTORE PUSH32 0x7300000000000000000000000000000000000000000000000000000000000000 PUSH1 0x20 DUP3 ADD MSTORE POP JUMP JUMPDEST PUSH1 0x0 PUSH2 0x1DBF PUSH1 0x21 DUP4 PUSH2 0x14F5 JUMP JUMPDEST SWAP2 POP PUSH2 0x1DCA DUP3 PUSH2 0x1D63 JUMP JUMPDEST PUSH1 0x40 DUP3 ADD SWAP1 POP SWAP2 SWAP1 POP JUMP JUMPDEST PUSH1 0x0 PUSH1 0x20 DUP3 ADD SWAP1 POP DUP2 DUP2 SUB PUSH1 0x0 DUP4 ADD MSTORE PUSH2 0x1DEE DUP2 PUSH2 0x1DB2 JUMP JUMPDEST SWAP1 POP SWAP2 SWAP1 POP JUMP JUMPDEST PUSH32 0x45524332303A206D696E7420746F20746865207A65726F206164647265737300 PUSH1 0x0 DUP3 ADD MSTORE POP JUMP JUMPDEST PUSH1 0x0 PUSH2 0x1E2B PUSH1 0x1F DUP4 PUSH2 0x14F5 JUMP JUMPDEST SWAP2 POP PUSH2 0x1E36 DUP3 PUSH2 0x1DF5 JUMP JUMPDEST PUSH1 0x20 DUP3 ADD SWAP1 POP SWAP2 SWAP1 POP JUMP JUMPDEST PUSH1 0x0 PUSH1 0x20 DUP3 ADD SWAP1 POP DUP2 DUP2 SUB PUSH1 0x0 DUP4 ADD MSTORE PUSH2 0x1E5A DUP2 PUSH2 0x1E1E JUMP JUMPDEST SWAP1 POP SWAP2 SWAP1 POP JUMP INVALID GASLIMIT MSTORE NUMBER ORIGIN ADDRESS GASPRICE KECCAK256 PUSH3 0x75726E KECCAK256 PUSH2 0x6D6F PUSH22 0x6E7420657863656564732062616C616E636545524332 ADDRESS GASPRICE KECCAK256 PUSH21 0x72616E7366657220616D6F756E7420657863656564 PUSH20 0x2062616C616E636545524332303A207472616E73 PUSH7 0x657220616D6F75 PUSH15 0x74206578636565647320616C6C6F77 PUSH2 0x6E63 PUSH6 0x45524332303A KECCAK256 PUSH5 0x6563726561 PUSH20 0x656420616C6C6F77616E63652062656C6F77207A PUSH6 0x726FA2646970 PUSH7 0x73582212201FF7 0xC3 SAR 0x1F 0xE7 0xCE EXP DUP13 REVERT 0x2A ADDMOD 0xC5 0xDD 0xB0 SWAP4 NOT CODESIZE 0xD0 0xF SIGNEXTEND SWAP7 MLOAD CALLDATASIZE PUSH21 0x3F694E1DAE4F3D64736F6C634300080D0033000000 "
				},
				"gasEstimates": {
					"creation": {
						"codeDepositCost": "1596000",
						"executionCost": "infinite",
						"totalCost": "infinite"
					},
					"external": {
						"allowance(address,address)": "infinite",
						"approve(address,uint256)": "infinite",
						"balanceOf(address)": "2864",
						"burn(uint256)": "infinite",
						"decimals()": "2502",
						"decreaseAllowance(address,uint256)": "infinite",
						"getOwner()": "2639",
						"increaseAllowance(address,uint256)": "infinite",
						"mint(uint256)": "infinite",
						"mintable()": "2568",
						"name()": "infinite",
						"renounceOwnership()": "30457",
						"symbol()": "infinite",
						"totalSupply()": "2505",
						"transfer(address,uint256)": "infinite",
						"transferFrom(address,address,uint256)": "infinite",
						"transferOwnership(address)": "30868"
					},
					"internal": {
						"_approve(address,address,uint256)": "infinite",
						"_burn(address,uint256)": "infinite",
						"_burnFrom(address,uint256)": "infinite",
						"_mint(address,uint256)": "infinite",
						"_transfer(address,address,uint256)": "infinite"
					}
				},
				"methodIdentifiers": {
					"allowance(address,address)": "dd62ed3e",
					"approve(address,uint256)": "095ea7b3",
					"balanceOf(address)": "70a08231",
					"burn(uint256)": "42966c68",
					"decimals()": "313ce567",
					"decreaseAllowance(address,uint256)": "a457c2d7",
					"getOwner()": "893d20e8",
					"increaseAllowance(address,uint256)": "39509351",
					"mint(uint256)": "a0712d68",
					"mintable()": "4bf365df",
					"name()": "06fdde03",
					"renounceOwnership()": "715018a6",
					"symbol()": "95d89b41",
					"totalSupply()": "18160ddd",
					"transfer(address,uint256)": "a9059cbb",
					"transferFrom(address,address,uint256)": "23b872dd",
					"transferOwnership(address)": "f2fde38b"
				}
			},
			"storageLayout": {
				"storage": [
					{
						"astId": 305,
						"contract": "contracts/Qbii.sol:Qbii",
						"label": "_balances",
						"offset": 0,
						"slot": "0",
						"type": "t_mapping(t_address,t_uint256)"
					},
					{
						"astId": 311,
						"contract": "contracts/Qbii.sol:Qbii",
						"label": "_allowances",
						"offset": 0,
						"slot": "1",
						"type": "t_mapping(t_address,t_mapping(t_address,t_uint256))"
					},
					{
						"astId": 314,
						"contract": "contracts/Qbii.sol:Qbii",
						"label": "_totalSupply",
						"offset": 0,
						"slot": "2",
						"type": "t_uint256"
					},
					{
						"astId": 317,
						"contract": "contracts/Qbii.sol:Qbii",
						"label": "_name",
						"offset": 0,
						"slot": "3",
						"type": "t_string_storage"
					},
					{
						"astId": 320,
						"contract": "contracts/Qbii.sol:Qbii",
						"label": "_symbol",
						"offset": 0,
						"slot": "4",
						"type": "t_string_storage"
					},
					{
						"astId": 323,
						"contract": "contracts/Qbii.sol:Qbii",
						"label": "_decimals",
						"offset": 0,
						"slot": "5",
						"type": "t_uint8"
					},
					{
						"astId": 326,
						"contract": "contracts/Qbii.sol:Qbii",
						"label": "_initialSupply",
						"offset": 0,
						"slot": "6",
						"type": "t_uint256"
					},
					{
						"astId": 329,
						"contract": "contracts/Qbii.sol:Qbii",
						"label": "_mintable",
						"offset": 0,
						"slot": "7",
						"type": "t_bool"
					},
					{
						"astId": 331,
						"contract": "contracts/Qbii.sol:Qbii",
						"label": "_owner",
						"offset": 1,
						"slot": "7",
						"type": "t_address"
					}
				],
				"types": {
					"t_address": {
						"encoding": "inplace",
						"label": "address",
						"numberOfBytes": "20"
					},
					"t_bool": {
						"encoding": "inplace",
						"label": "bool",
						"numberOfBytes": "1"
					},
					"t_mapping(t_address,t_mapping(t_address,t_uint256))": {
						"encoding": "mapping",
						"key": "t_address",
						"label": "mapping(address => mapping(address => uint256))",
						"numberOfBytes": "32",
						"value": "t_mapping(t_address,t_uint256)"
					},
					"t_mapping(t_address,t_uint256)": {
						"encoding": "mapping",
						"key": "t_address",
						"label": "mapping(address => uint256)",
						"numberOfBytes": "32",
						"value": "t_uint256"
					},
					"t_string_storage": {
						"encoding": "bytes",
						"label": "string",
						"numberOfBytes": "32"
					},
					"t_uint256": {
						"encoding": "inplace",
						"label": "uint256",
						"numberOfBytes": "32"
					},
					"t_uint8": {
						"encoding": "inplace",
						"label": "uint8",
						"numberOfBytes": "1"
					}
				}
			},
			"userdoc": {
				"kind": "user",
				"methods": {},
				"version": 1
			}
		}
	}
}