{
	"contracts/Comfree.sol": {
		"ComfreeProtocol": {
			"abi": [
				{
					"inputs": [],
					"stateMutability": "nonpayable",
					"type": "constructor"
				},
				{
					"anonymous": false,
					"inputs": [
						{
							"indexed": false,
							"internalType": "uint256",
							"name": "_offerContractId",
							"type": "uint256"
						},
						{
							"indexed": false,
							"internalType": "bool",
							"name": "_conditionMet",
							"type": "bool"
						}
					],
					"name": "ConditionListCreate",
					"type": "event"
				},
				{
					"anonymous": false,
					"inputs": [
						{
							"indexed": false,
							"internalType": "uint256",
							"name": "_offerId",
							"type": "uint256"
						}
					],
					"name": "ConditionMet",
					"type": "event"
				},
				{
					"anonymous": false,
					"inputs": [
						{
							"indexed": false,
							"internalType": "uint256",
							"name": "_offerId",
							"type": "uint256"
						}
					],
					"name": "ConditionNotMet",
					"type": "event"
				},
				{
					"anonymous": false,
					"inputs": [
						{
							"indexed": false,
							"internalType": "uint256",
							"name": "id",
							"type": "uint256"
						},
						{
							"indexed": true,
							"internalType": "address",
							"name": "buyerAddress",
							"type": "address"
						},
						{
							"indexed": true,
							"internalType": "address",
							"name": "sellerAddress",
							"type": "address"
						},
						{
							"indexed": false,
							"internalType": "uint256",
							"name": "offerAmount",
							"type": "uint256"
						}
					],
					"name": "OfferCreated",
					"type": "event"
				},
				{
					"inputs": [
						{
							"internalType": "uint256",
							"name": "",
							"type": "uint256"
						}
					],
					"name": "_conditionList",
					"outputs": [
						{
							"internalType": "bool",
							"name": "conditionMet",
							"type": "bool"
						},
						{
							"internalType": "bool",
							"name": "WallsPainted",
							"type": "bool"
						},
						{
							"internalType": "bool",
							"name": "CarpetCleaned",
							"type": "bool"
						},
						{
							"internalType": "bool",
							"name": "WindowsWashed",
							"type": "bool"
						}
					],
					"stateMutability": "view",
					"type": "function"
				},
				{
					"inputs": [
						{
							"internalType": "uint256",
							"name": "",
							"type": "uint256"
						}
					],
					"name": "_listOfOfferContracts",
					"outputs": [
						{
							"internalType": "uint256",
							"name": "id",
							"type": "uint256"
						},
						{
							"internalType": "address",
							"name": "buyerAddress",
							"type": "address"
						},
						{
							"internalType": "address",
							"name": "sellerAddress",
							"type": "address"
						},
						{
							"internalType": "uint256",
							"name": "offerAmount",
							"type": "uint256"
						},
						{
							"internalType": "bool",
							"name": "accepted",
							"type": "bool"
						},
						{
							"internalType": "uint256",
							"name": "conditionListId",
							"type": "uint256"
						}
					],
					"stateMutability": "view",
					"type": "function"
				},
				{
					"inputs": [
						{
							"internalType": "uint256",
							"name": "_id",
							"type": "uint256"
						},
						{
							"internalType": "bool",
							"name": "_value",
							"type": "bool"
						}
					],
					"name": "accept",
					"outputs": [
						{
							"internalType": "bool",
							"name": "",
							"type": "bool"
						}
					],
					"stateMutability": "nonpayable",
					"type": "function"
				},
				{
					"inputs": [
						{
							"internalType": "uint256",
							"name": "_offerId",
							"type": "uint256"
						}
					],
					"name": "createConditionList",
					"outputs": [],
					"stateMutability": "nonpayable",
					"type": "function"
				},
				{
					"inputs": [
						{
							"internalType": "address",
							"name": "_buyerAddress",
							"type": "address"
						},
						{
							"internalType": "address",
							"name": "_sellerAddress",
							"type": "address"
						},
						{
							"internalType": "uint256",
							"name": "_offerAmount",
							"type": "uint256"
						},
						{
							"internalType": "bool",
							"name": "_accepted",
							"type": "bool"
						}
					],
					"name": "createOfferContract",
					"outputs": [],
					"stateMutability": "nonpayable",
					"type": "function"
				},
				{
					"inputs": [],
					"name": "getOfferContractDetailsById",
					"outputs": [
						{
							"internalType": "uint256[]",
							"name": "",
							"type": "uint256[]"
						}
					],
					"stateMutability": "view",
					"type": "function"
				},
				{
					"inputs": [
						{
							"internalType": "uint256",
							"name": "_offerId",
							"type": "uint256"
						},
						{
							"internalType": "bool",
							"name": "_wallsPainted",
							"type": "bool"
						},
						{
							"internalType": "bool",
							"name": "_CarpetCleaned",
							"type": "bool"
						},
						{
							"internalType": "bool",
							"name": "_WindowsWashed",
							"type": "bool"
						}
					],
					"name": "manageConditions",
					"outputs": [],
					"stateMutability": "nonpayable",
					"type": "function"
				},
				{
					"inputs": [],
					"name": "name",
					"outputs": [
						{
							"internalType": "string",
							"name": "",
							"type": "string"
						}
					],
					"stateMutability": "view",
					"type": "function"
				},
				{
					"inputs": [],
					"name": "symbol",
					"outputs": [
						{
							"internalType": "string",
							"name": "",
							"type": "string"
						}
					],
					"stateMutability": "view",
					"type": "function"
				}
			],
			"devdoc": {
				"kind": "dev",
				"methods": {},
				"version": 1
			},
			"evm": {
				"assembly": "    /* \"contracts/Comfree.sol\":118:4504  contract ComfreeProtocol {... */\n  mstore(0x40, 0x80)\n    /* \"contracts/Comfree.sol\":201:286  constructor() {... */\n  callvalue\n  dup1\n  iszero\n  tag_1\n  jumpi\n  0x00\n  dup1\n  revert\ntag_1:\n  pop\n    /* \"contracts/Comfree.sol\":225:250  name = \"ComFree Protocol\" */\n  mload(0x40)\n  dup1\n  0x40\n  add\n  0x40\n  mstore\n  dup1\n  0x10\n  dup2\n  mstore\n  0x20\n  add\n  0x436f6d467265652050726f746f636f6c00000000000000000000000000000000\n  dup2\n  mstore\n  pop\n    /* \"contracts/Comfree.sol\":225:229  name */\n  0x00\n    /* \"contracts/Comfree.sol\":225:250  name = \"ComFree Protocol\" */\n  swap1\n  dup2\n  tag_4\n  swap2\n  swap1\n  tag_5\n  jump\t// in\ntag_4:\n  pop\n    /* \"contracts/Comfree.sol\":261:279  symbol = \"Comfree\" */\n  mload(0x40)\n  dup1\n  0x40\n  add\n  0x40\n  mstore\n  dup1\n  0x07\n  dup2\n  mstore\n  0x20\n  add\n  0x436f6d6672656500000000000000000000000000000000000000000000000000\n  dup2\n  mstore\n  pop\n    /* \"contracts/Comfree.sol\":261:267  symbol */\n  0x01\n    /* \"contracts/Comfree.sol\":261:279  symbol = \"Comfree\" */\n  swap1\n  dup2\n  tag_6\n  swap2\n  swap1\n  tag_5\n  jump\t// in\ntag_6:\n  pop\n    /* \"contracts/Comfree.sol\":118:4504  contract ComfreeProtocol {... */\n  jump(tag_7)\n    /* \"#utility.yul\":7:106   */\ntag_8:\n    /* \"#utility.yul\":59:65   */\n  0x00\n    /* \"#utility.yul\":93:98   */\n  dup2\n    /* \"#utility.yul\":87:99   */\n  mload\n    /* \"#utility.yul\":77:99   */\n  swap1\n  pop\n    /* \"#utility.yul\":7:106   */\n  swap2\n  swap1\n  pop\n  jump\t// out\n    /* \"#utility.yul\":112:292   */\ntag_9:\n    /* \"#utility.yul\":160:237   */\n  0x4e487b7100000000000000000000000000000000000000000000000000000000\n    /* \"#utility.yul\":157:158   */\n  0x00\n    /* \"#utility.yul\":150:238   */\n  mstore\n    /* \"#utility.yul\":257:261   */\n  0x41\n    /* \"#utility.yul\":254:255   */\n  0x04\n    /* \"#utility.yul\":247:262   */\n  mstore\n    /* \"#utility.yul\":281:285   */\n  0x24\n    /* \"#utility.yul\":278:279   */\n  0x00\n    /* \"#utility.yul\":271:286   */\n  revert\n    /* \"#utility.yul\":298:478   */\ntag_10:\n    /* \"#utility.yul\":346:423   */\n  0x4e487b7100000000000000000000000000000000000000000000000000000000\n    /* \"#utility.yul\":343:344   */\n  0x00\n    /* \"#utility.yul\":336:424   */\n  mstore\n    /* \"#utility.yul\":443:447   */\n  0x22\n    /* \"#utility.yul\":440:441   */\n  0x04\n    /* \"#utility.yul\":433:448   */\n  mstore\n    /* \"#utility.yul\":467:471   */\n  0x24\n    /* \"#utility.yul\":464:465   */\n  0x00\n    /* \"#utility.yul\":457:472   */\n  revert\n    /* \"#utility.yul\":484:804   */\ntag_11:\n    /* \"#utility.yul\":528:534   */\n  0x00\n    /* \"#utility.yul\":565:566   */\n  0x02\n    /* \"#utility.yul\":559:563   */\n  dup3\n    /* \"#utility.yul\":555:567   */\n  div\n    /* \"#utility.yul\":545:567   */\n  swap1\n  pop\n    /* \"#utility.yul\":612:613   */\n  0x01\n    /* \"#utility.yul\":606:610   */\n  dup3\n    /* \"#utility.yul\":602:614   */\n  and\n    /* \"#utility.yul\":633:651   */\n  dup1\n    /* \"#utility.yul\":623:704   */\n  tag_33\n  jumpi\n    /* \"#utility.yul\":689:693   */\n  0x7f\n    /* \"#utility.yul\":681:687   */\n  dup3\n    /* \"#utility.yul\":677:694   */\n  and\n    /* \"#utility.yul\":667:694   */\n  swap2\n  pop\n    /* \"#utility.yul\":623:704   */\ntag_33:\n    /* \"#utility.yul\":751:753   */\n  0x20\n    /* \"#utility.yul\":743:749   */\n  dup3\n    /* \"#utility.yul\":740:754   */\n  lt\n    /* \"#utility.yul\":720:738   */\n  dup2\n    /* \"#utility.yul\":717:755   */\n  sub\n    /* \"#utility.yul\":714:798   */\n  tag_34\n  jumpi\n    /* \"#utility.yul\":770:788   */\n  tag_35\n  tag_10\n  jump\t// in\ntag_35:\n    /* \"#utility.yul\":714:798   */\ntag_34:\n    /* \"#utility.yul\":535:804   */\n  pop\n    /* \"#utility.yul\":484:804   */\n  swap2\n  swap1\n  pop\n  jump\t// out\n    /* \"#utility.yul\":810:951   */\ntag_12:\n    /* \"#utility.yul\":859:863   */\n  0x00\n    /* \"#utility.yul\":882:885   */\n  dup2\n    /* \"#utility.yul\":874:885   */\n  swap1\n  pop\n    /* \"#utility.yul\":905:908   */\n  dup2\n    /* \"#utility.yul\":902:903   */\n  0x00\n    /* \"#utility.yul\":895:909   */\n  mstore\n    /* \"#utility.yul\":939:943   */\n  0x20\n    /* \"#utility.yul\":936:937   */\n  0x00\n    /* \"#utility.yul\":926:944   */\n  keccak256\n    /* \"#utility.yul\":918:944   */\n  swap1\n  pop\n    /* \"#utility.yul\":810:951   */\n  swap2\n  swap1\n  pop\n  jump\t// out\n    /* \"#utility.yul\":957:1050   */\ntag_13:\n    /* \"#utility.yul\":994:1000   */\n  0x00\n    /* \"#utility.yul\":1041:1043   */\n  0x20\n    /* \"#utility.yul\":1036:1038   */\n  0x1f\n    /* \"#utility.yul\":1029:1034   */\n  dup4\n    /* \"#utility.yul\":1025:1039   */\n  add\n    /* \"#utility.yul\":1021:1044   */\n  div\n    /* \"#utility.yul\":1011:1044   */\n  swap1\n  pop\n    /* \"#utility.yul\":957:1050   */\n  swap2\n  swap1\n  pop\n  jump\t// out\n    /* \"#utility.yul\":1056:1163   */\ntag_14:\n    /* \"#utility.yul\":1100:1108   */\n  0x00\n    /* \"#utility.yul\":1150:1155   */\n  dup3\n    /* \"#utility.yul\":1144:1148   */\n  dup3\n    /* \"#utility.yul\":1140:1156   */\n  shl\n    /* \"#utility.yul\":1119:1156   */\n  swap1\n  pop\n    /* \"#utility.yul\":1056:1163   */\n  swap3\n  swap2\n  pop\n  pop\n  jump\t// out\n    /* \"#utility.yul\":1169:1562   */\ntag_15:\n    /* \"#utility.yul\":1238:1244   */\n  0x00\n    /* \"#utility.yul\":1288:1289   */\n  0x08\n    /* \"#utility.yul\":1276:1286   */\n  dup4\n    /* \"#utility.yul\":1272:1290   */\n  mul\n    /* \"#utility.yul\":1311:1408   */\n  tag_40\n    /* \"#utility.yul\":1341:1407   */\n  0xffffffffffffffffffffffffffffffffffffffffffffffffffffffffffffffff\n    /* \"#utility.yul\":1330:1339   */\n  dup3\n    /* \"#utility.yul\":1311:1408   */\n  tag_14\n  jump\t// in\ntag_40:\n    /* \"#utility.yul\":1429:1468   */\n  tag_41\n    /* \"#utility.yul\":1459:1467   */\n  dup7\n    /* \"#utility.yul\":1448:1457   */\n  dup4\n    /* \"#utility.yul\":1429:1468   */\n  tag_14\n  jump\t// in\ntag_41:\n    /* \"#utility.yul\":1417:1468   */\n  swap6\n  pop\n    /* \"#utility.yul\":1501:1505   */\n  dup1\n    /* \"#utility.yul\":1497:1506   */\n  not\n    /* \"#utility.yul\":1490:1495   */\n  dup5\n    /* \"#utility.yul\":1486:1507   */\n  and\n    /* \"#utility.yul\":1477:1507   */\n  swap4\n  pop\n    /* \"#utility.yul\":1550:1554   */\n  dup1\n    /* \"#utility.yul\":1540:1548   */\n  dup7\n    /* \"#utility.yul\":1536:1555   */\n  and\n    /* \"#utility.yul\":1529:1534   */\n  dup5\n    /* \"#utility.yul\":1526:1556   */\n  or\n    /* \"#utility.yul\":1516:1556   */\n  swap3\n  pop\n    /* \"#utility.yul\":1245:1562   */\n  pop\n  pop\n    /* \"#utility.yul\":1169:1562   */\n  swap4\n  swap3\n  pop\n  pop\n  pop\n  jump\t// out\n    /* \"#utility.yul\":1568:1645   */\ntag_16:\n    /* \"#utility.yul\":1605:1612   */\n  0x00\n    /* \"#utility.yul\":1634:1639   */\n  dup2\n    /* \"#utility.yul\":1623:1639   */\n  swap1\n  pop\n    /* \"#utility.yul\":1568:1645   */\n  swap2\n  swap1\n  pop\n  jump\t// out\n    /* \"#utility.yul\":1651:1711   */\ntag_17:\n    /* \"#utility.yul\":1679:1682   */\n  0x00\n    /* \"#utility.yul\":1700:1705   */\n  dup2\n    /* \"#utility.yul\":1693:1705   */\n  swap1\n  pop\n    /* \"#utility.yul\":1651:1711   */\n  swap2\n  swap1\n  pop\n  jump\t// out\n    /* \"#utility.yul\":1717:1859   */\ntag_18:\n    /* \"#utility.yul\":1767:1776   */\n  0x00\n    /* \"#utility.yul\":1800:1853   */\n  tag_45\n    /* \"#utility.yul\":1818:1852   */\n  tag_46\n    /* \"#utility.yul\":1827:1851   */\n  tag_47\n    /* \"#utility.yul\":1845:1850   */\n  dup5\n    /* \"#utility.yul\":1827:1851   */\n  tag_16\n  jump\t// in\ntag_47:\n    /* \"#utility.yul\":1818:1852   */\n  tag_17\n  jump\t// in\ntag_46:\n    /* \"#utility.yul\":1800:1853   */\n  tag_16\n  jump\t// in\ntag_45:\n    /* \"#utility.yul\":1787:1853   */\n  swap1\n  pop\n    /* \"#utility.yul\":1717:1859   */\n  swap2\n  swap1\n  pop\n  jump\t// out\n    /* \"#utility.yul\":1865:1940   */\ntag_19:\n    /* \"#utility.yul\":1908:1911   */\n  0x00\n    /* \"#utility.yul\":1929:1934   */\n  dup2\n    /* \"#utility.yul\":1922:1934   */\n  swap1\n  pop\n    /* \"#utility.yul\":1865:1940   */\n  swap2\n  swap1\n  pop\n  jump\t// out\n    /* \"#utility.yul\":1946:2215   */\ntag_20:\n    /* \"#utility.yul\":2056:2095   */\n  tag_50\n    /* \"#utility.yul\":2087:2094   */\n  dup4\n    /* \"#utility.yul\":2056:2095   */\n  tag_18\n  jump\t// in\ntag_50:\n    /* \"#utility.yul\":2117:2208   */\n  tag_51\n    /* \"#utility.yul\":2166:2207   */\n  tag_52\n    /* \"#utility.yul\":2190:2206   */\n  dup3\n    /* \"#utility.yul\":2166:2207   */\n  tag_19\n  jump\t// in\ntag_52:\n    /* \"#utility.yul\":2158:2164   */\n  dup5\n    /* \"#utility.yul\":2151:2155   */\n  dup5\n    /* \"#utility.yul\":2145:2156   */\n  sload\n    /* \"#utility.yul\":2117:2208   */\n  tag_15\n  jump\t// in\ntag_51:\n    /* \"#utility.yul\":2111:2115   */\n  dup3\n    /* \"#utility.yul\":2104:2209   */\n  sstore\n    /* \"#utility.yul\":2022:2215   */\n  pop\n    /* \"#utility.yul\":1946:2215   */\n  pop\n  pop\n  pop\n  jump\t// out\n    /* \"#utility.yul\":2221:2294   */\ntag_21:\n    /* \"#utility.yul\":2266:2269   */\n  0x00\n    /* \"#utility.yul\":2221:2294   */\n  swap1\n  jump\t// out\n    /* \"#utility.yul\":2300:2489   */\ntag_22:\n    /* \"#utility.yul\":2377:2409   */\n  tag_55\n  tag_21\n  jump\t// in\ntag_55:\n    /* \"#utility.yul\":2418:2483   */\n  tag_56\n    /* \"#utility.yul\":2476:2482   */\n  dup2\n    /* \"#utility.yul\":2468:2474   */\n  dup5\n    /* \"#utility.yul\":2462:2466   */\n  dup5\n    /* \"#utility.yul\":2418:2483   */\n  tag_20\n  jump\t// in\ntag_56:\n    /* \"#utility.yul\":2353:2489   */\n  pop\n    /* \"#utility.yul\":2300:2489   */\n  pop\n  pop\n  jump\t// out\n    /* \"#utility.yul\":2495:2681   */\ntag_23:\n    /* \"#utility.yul\":2555:2675   */\ntag_58:\n    /* \"#utility.yul\":2572:2575   */\n  dup2\n    /* \"#utility.yul\":2565:2570   */\n  dup2\n    /* \"#utility.yul\":2562:2576   */\n  lt\n    /* \"#utility.yul\":2555:2675   */\n  iszero\n  tag_60\n  jumpi\n    /* \"#utility.yul\":2626:2665   */\n  tag_61\n    /* \"#utility.yul\":2663:2664   */\n  0x00\n    /* \"#utility.yul\":2656:2661   */\n  dup3\n    /* \"#utility.yul\":2626:2665   */\n  tag_22\n  jump\t// in\ntag_61:\n    /* \"#utility.yul\":2599:2600   */\n  0x01\n    /* \"#utility.yul\":2592:2597   */\n  dup2\n    /* \"#utility.yul\":2588:2601   */\n  add\n    /* \"#utility.yul\":2579:2601   */\n  swap1\n  pop\n    /* \"#utility.yul\":2555:2675   */\n  jump(tag_58)\ntag_60:\n    /* \"#utility.yul\":2495:2681   */\n  pop\n  pop\n  jump\t// out\n    /* \"#utility.yul\":2687:3230   */\ntag_24:\n    /* \"#utility.yul\":2788:2790   */\n  0x1f\n    /* \"#utility.yul\":2783:2786   */\n  dup3\n    /* \"#utility.yul\":2780:2791   */\n  gt\n    /* \"#utility.yul\":2777:3223   */\n  iszero\n  tag_63\n  jumpi\n    /* \"#utility.yul\":2822:2860   */\n  tag_64\n    /* \"#utility.yul\":2854:2859   */\n  dup2\n    /* \"#utility.yul\":2822:2860   */\n  tag_12\n  jump\t// in\ntag_64:\n    /* \"#utility.yul\":2906:2935   */\n  tag_65\n    /* \"#utility.yul\":2924:2934   */\n  dup5\n    /* \"#utility.yul\":2906:2935   */\n  tag_13\n  jump\t// in\ntag_65:\n    /* \"#utility.yul\":2896:2904   */\n  dup2\n    /* \"#utility.yul\":2892:2936   */\n  add\n    /* \"#utility.yul\":3089:3091   */\n  0x20\n    /* \"#utility.yul\":3077:3087   */\n  dup6\n    /* \"#utility.yul\":3074:3092   */\n  lt\n    /* \"#utility.yul\":3071:3120   */\n  iszero\n  tag_66\n  jumpi\n    /* \"#utility.yul\":3110:3118   */\n  dup2\n    /* \"#utility.yul\":3095:3118   */\n  swap1\n  pop\n    /* \"#utility.yul\":3071:3120   */\ntag_66:\n    /* \"#utility.yul\":3133:3213   */\n  tag_67\n    /* \"#utility.yul\":3189:3211   */\n  tag_68\n    /* \"#utility.yul\":3207:3210   */\n  dup6\n    /* \"#utility.yul\":3189:3211   */\n  tag_13\n  jump\t// in\ntag_68:\n    /* \"#utility.yul\":3179:3187   */\n  dup4\n    /* \"#utility.yul\":3175:3212   */\n  add\n    /* \"#utility.yul\":3162:3173   */\n  dup3\n    /* \"#utility.yul\":3133:3213   */\n  tag_23\n  jump\t// in\ntag_67:\n    /* \"#utility.yul\":2792:3223   */\n  pop\n  pop\n    /* \"#utility.yul\":2777:3223   */\ntag_63:\n    /* \"#utility.yul\":2687:3230   */\n  pop\n  pop\n  pop\n  jump\t// out\n    /* \"#utility.yul\":3236:3353   */\ntag_25:\n    /* \"#utility.yul\":3290:3298   */\n  0x00\n    /* \"#utility.yul\":3340:3345   */\n  dup3\n    /* \"#utility.yul\":3334:3338   */\n  dup3\n    /* \"#utility.yul\":3330:3346   */\n  shr\n    /* \"#utility.yul\":3309:3346   */\n  swap1\n  pop\n    /* \"#utility.yul\":3236:3353   */\n  swap3\n  swap2\n  pop\n  pop\n  jump\t// out\n    /* \"#utility.yul\":3359:3528   */\ntag_26:\n    /* \"#utility.yul\":3403:3409   */\n  0x00\n    /* \"#utility.yul\":3436:3487   */\n  tag_71\n    /* \"#utility.yul\":3484:3485   */\n  0x00\n    /* \"#utility.yul\":3480:3486   */\n  not\n    /* \"#utility.yul\":3472:3477   */\n  dup5\n    /* \"#utility.yul\":3469:3470   */\n  0x08\n    /* \"#utility.yul\":3465:3478   */\n  mul\n    /* \"#utility.yul\":3436:3487   */\n  tag_25\n  jump\t// in\ntag_71:\n    /* \"#utility.yul\":3432:3488   */\n  not\n    /* \"#utility.yul\":3517:3521   */\n  dup1\n    /* \"#utility.yul\":3511:3515   */\n  dup4\n    /* \"#utility.yul\":3507:3522   */\n  and\n    /* \"#utility.yul\":3497:3522   */\n  swap2\n  pop\n    /* \"#utility.yul\":3410:3528   */\n  pop\n    /* \"#utility.yul\":3359:3528   */\n  swap3\n  swap2\n  pop\n  pop\n  jump\t// out\n    /* \"#utility.yul\":3533:3828   */\ntag_27:\n    /* \"#utility.yul\":3609:3613   */\n  0x00\n    /* \"#utility.yul\":3755:3784   */\n  tag_73\n    /* \"#utility.yul\":3780:3783   */\n  dup4\n    /* \"#utility.yul\":3774:3778   */\n  dup4\n    /* \"#utility.yul\":3755:3784   */\n  tag_26\n  jump\t// in\ntag_73:\n    /* \"#utility.yul\":3747:3784   */\n  swap2\n  pop\n    /* \"#utility.yul\":3817:3820   */\n  dup3\n    /* \"#utility.yul\":3814:3815   */\n  0x02\n    /* \"#utility.yul\":3810:3821   */\n  mul\n    /* \"#utility.yul\":3804:3808   */\n  dup3\n    /* \"#utility.yul\":3801:3822   */\n  or\n    /* \"#utility.yul\":3793:3822   */\n  swap1\n  pop\n    /* \"#utility.yul\":3533:3828   */\n  swap3\n  swap2\n  pop\n  pop\n  jump\t// out\n    /* \"#utility.yul\":3833:5228   */\ntag_5:\n    /* \"#utility.yul\":3950:3987   */\n  tag_75\n    /* \"#utility.yul\":3983:3986   */\n  dup3\n    /* \"#utility.yul\":3950:3987   */\n  tag_8\n  jump\t// in\ntag_75:\n    /* \"#utility.yul\":4052:4070   */\n  0xffffffffffffffff\n    /* \"#utility.yul\":4044:4050   */\n  dup2\n    /* \"#utility.yul\":4041:4071   */\n  gt\n    /* \"#utility.yul\":4038:4094   */\n  iszero\n  tag_76\n  jumpi\n    /* \"#utility.yul\":4074:4092   */\n  tag_77\n  tag_9\n  jump\t// in\ntag_77:\n    /* \"#utility.yul\":4038:4094   */\ntag_76:\n    /* \"#utility.yul\":4118:4156   */\n  tag_78\n    /* \"#utility.yul\":4150:4154   */\n  dup3\n    /* \"#utility.yul\":4144:4155   */\n  sload\n    /* \"#utility.yul\":4118:4156   */\n  tag_11\n  jump\t// in\ntag_78:\n    /* \"#utility.yul\":4203:4270   */\n  tag_79\n    /* \"#utility.yul\":4263:4269   */\n  dup3\n    /* \"#utility.yul\":4255:4261   */\n  dup3\n    /* \"#utility.yul\":4249:4253   */\n  dup6\n    /* \"#utility.yul\":4203:4270   */\n  tag_24\n  jump\t// in\ntag_79:\n    /* \"#utility.yul\":4297:4298   */\n  0x00\n    /* \"#utility.yul\":4321:4325   */\n  0x20\n    /* \"#utility.yul\":4308:4325   */\n  swap1\n  pop\n    /* \"#utility.yul\":4353:4355   */\n  0x1f\n    /* \"#utility.yul\":4345:4351   */\n  dup4\n    /* \"#utility.yul\":4342:4356   */\n  gt\n    /* \"#utility.yul\":4370:4371   */\n  0x01\n    /* \"#utility.yul\":4365:4983   */\n  dup2\n  eq\n  tag_81\n  jumpi\n    /* \"#utility.yul\":5027:5028   */\n  0x00\n    /* \"#utility.yul\":5044:5050   */\n  dup5\n    /* \"#utility.yul\":5041:5118   */\n  iszero\n  tag_82\n  jumpi\n    /* \"#utility.yul\":5093:5102   */\n  dup3\n    /* \"#utility.yul\":5088:5091   */\n  dup8\n    /* \"#utility.yul\":5084:5103   */\n  add\n    /* \"#utility.yul\":5078:5104   */\n  mload\n    /* \"#utility.yul\":5069:5104   */\n  swap1\n  pop\n    /* \"#utility.yul\":5041:5118   */\ntag_82:\n    /* \"#utility.yul\":5144:5211   */\n  tag_83\n    /* \"#utility.yul\":5204:5210   */\n  dup6\n    /* \"#utility.yul\":5197:5202   */\n  dup3\n    /* \"#utility.yul\":5144:5211   */\n  tag_27\n  jump\t// in\ntag_83:\n    /* \"#utility.yul\":5138:5142   */\n  dup7\n    /* \"#utility.yul\":5131:5212   */\n  sstore\n    /* \"#utility.yul\":5000:5222   */\n  pop\n    /* \"#utility.yul\":4335:5222   */\n  jump(tag_80)\n    /* \"#utility.yul\":4365:4983   */\ntag_81:\n    /* \"#utility.yul\":4417:4421   */\n  0x1f\n    /* \"#utility.yul\":4413:4422   */\n  not\n    /* \"#utility.yul\":4405:4411   */\n  dup5\n    /* \"#utility.yul\":4401:4423   */\n  and\n    /* \"#utility.yul\":4451:4488   */\n  tag_84\n    /* \"#utility.yul\":4483:4487   */\n  dup7\n    /* \"#utility.yul\":4451:4488   */\n  tag_12\n  jump\t// in\ntag_84:\n    /* \"#utility.yul\":4510:4511   */\n  0x00\n    /* \"#utility.yul\":4524:4732   */\ntag_85:\n    /* \"#utility.yul\":4538:4545   */\n  dup3\n    /* \"#utility.yul\":4535:4536   */\n  dup2\n    /* \"#utility.yul\":4532:4546   */\n  lt\n    /* \"#utility.yul\":4524:4732   */\n  iszero\n  tag_87\n  jumpi\n    /* \"#utility.yul\":4617:4626   */\n  dup5\n    /* \"#utility.yul\":4612:4615   */\n  dup10\n    /* \"#utility.yul\":4608:4627   */\n  add\n    /* \"#utility.yul\":4602:4628   */\n  mload\n    /* \"#utility.yul\":4594:4600   */\n  dup3\n    /* \"#utility.yul\":4587:4629   */\n  sstore\n    /* \"#utility.yul\":4668:4669   */\n  0x01\n    /* \"#utility.yul\":4660:4666   */\n  dup3\n    /* \"#utility.yul\":4656:4670   */\n  add\n    /* \"#utility.yul\":4646:4670   */\n  swap2\n  pop\n    /* \"#utility.yul\":4715:4717   */\n  0x20\n    /* \"#utility.yul\":4704:4713   */\n  dup6\n    /* \"#utility.yul\":4700:4718   */\n  add\n    /* \"#utility.yul\":4687:4718   */\n  swap5\n  pop\n    /* \"#utility.yul\":4561:4565   */\n  0x20\n    /* \"#utility.yul\":4558:4559   */\n  dup2\n    /* \"#utility.yul\":4554:4566   */\n  add\n    /* \"#utility.yul\":4549:4566   */\n  swap1\n  pop\n    /* \"#utility.yul\":4524:4732   */\n  jump(tag_85)\ntag_87:\n    /* \"#utility.yul\":4760:4766   */\n  dup7\n    /* \"#utility.yul\":4751:4758   */\n  dup4\n    /* \"#utility.yul\":4748:4767   */\n  lt\n    /* \"#utility.yul\":4745:4924   */\n  iszero\n  tag_88\n  jumpi\n    /* \"#utility.yul\":4818:4827   */\n  dup5\n    /* \"#utility.yul\":4813:4816   */\n  dup10\n    /* \"#utility.yul\":4809:4828   */\n  add\n    /* \"#utility.yul\":4803:4829   */\n  mload\n    /* \"#utility.yul\":4861:4909   */\n  tag_89\n    /* \"#utility.yul\":4903:4907   */\n  0x1f\n    /* \"#utility.yul\":4895:4901   */\n  dup10\n    /* \"#utility.yul\":4891:4908   */\n  and\n    /* \"#utility.yul\":4880:4889   */\n  dup3\n    /* \"#utility.yul\":4861:4909   */\n  tag_26\n  jump\t// in\ntag_89:\n    /* \"#utility.yul\":4853:4859   */\n  dup4\n    /* \"#utility.yul\":4846:4910   */\n  sstore\n    /* \"#utility.yul\":4768:4924   */\n  pop\n    /* \"#utility.yul\":4745:4924   */\ntag_88:\n    /* \"#utility.yul\":4970:4971   */\n  0x01\n    /* \"#utility.yul\":4966:4967   */\n  0x02\n    /* \"#utility.yul\":4958:4964   */\n  dup9\n    /* \"#utility.yul\":4954:4968   */\n  mul\n    /* \"#utility.yul\":4950:4972   */\n  add\n    /* \"#utility.yul\":4944:4948   */\n  dup9\n    /* \"#utility.yul\":4937:4973   */\n  sstore\n    /* \"#utility.yul\":4372:4983   */\n  pop\n  pop\n  pop\n    /* \"#utility.yul\":4335:5222   */\ntag_80:\n  pop\n    /* \"#utility.yul\":3925:5228   */\n  pop\n  pop\n  pop\n    /* \"#utility.yul\":3833:5228   */\n  pop\n  pop\n  jump\t// out\n    /* \"contracts/Comfree.sol\":118:4504  contract ComfreeProtocol {... */\ntag_7:\n  dataSize(sub_0)\n  dup1\n  dataOffset(sub_0)\n  0x00\n  codecopy\n  0x00\n  return\nstop\n\nsub_0: assembly {\n        /* \"contracts/Comfree.sol\":118:4504  contract ComfreeProtocol {... */\n      mstore(0x40, 0x80)\n      callvalue\n      dup1\n      iszero\n      tag_1\n      jumpi\n      0x00\n      dup1\n      revert\n    tag_1:\n      pop\n      jumpi(tag_2, lt(calldatasize, 0x04))\n      shr(0xe0, calldataload(0x00))\n      dup1\n      0x53a68691\n      gt\n      tag_12\n      jumpi\n      dup1\n      0x53a68691\n      eq\n      tag_7\n      jumpi\n      dup1\n      0x554d8bb6\n      eq\n      tag_8\n      jumpi\n      dup1\n      0x871457f6\n      eq\n      tag_9\n      jumpi\n      dup1\n      0x95d89b41\n      eq\n      tag_10\n      jumpi\n      dup1\n      0xfb2bbcd3\n      eq\n      tag_11\n      jumpi\n      jump(tag_2)\n    tag_12:\n      dup1\n      0x06fdde03\n      eq\n      tag_3\n      jumpi\n      dup1\n      0x3ad1ce1f\n      eq\n      tag_4\n      jumpi\n      dup1\n      0x3b41e19c\n      eq\n      tag_5\n      jumpi\n      dup1\n      0x43af9a8d\n      eq\n      tag_6\n      jumpi\n    tag_2:\n      0x00\n      dup1\n      revert\n        /* \"contracts/Comfree.sol\":150:168  string public name */\n    tag_3:\n      tag_13\n      tag_14\n      jump\t// in\n    tag_13:\n      mload(0x40)\n      tag_15\n      swap2\n      swap1\n      tag_16\n      jump\t// in\n    tag_15:\n      mload(0x40)\n      dup1\n      swap2\n      sub\n      swap1\n      return\n        /* \"contracts/Comfree.sol\":2176:2645  function createConditionList(uint _offerId) public {... */\n    tag_4:\n      tag_17\n      0x04\n      dup1\n      calldatasize\n      sub\n      dup2\n      add\n      swap1\n      tag_18\n      swap2\n      swap1\n      tag_19\n      jump\t// in\n    tag_18:\n      tag_20\n      jump\t// in\n    tag_17:\n      stop\n        /* \"contracts/Comfree.sol\":3342:3881  function accept(uint _id, bool _value) public returns(bool) {... */\n    tag_5:\n      tag_21\n      0x04\n      dup1\n      calldatasize\n      sub\n      dup2\n      add\n      swap1\n      tag_22\n      swap2\n      swap1\n      tag_23\n      jump\t// in\n    tag_22:\n      tag_24\n      jump\t// in\n    tag_21:\n      mload(0x40)\n      tag_25\n      swap2\n      swap1\n      tag_26\n      jump\t// in\n    tag_25:\n      mload(0x40)\n      dup1\n      swap2\n      sub\n      swap1\n      return\n        /* \"contracts/Comfree.sol\":2660:3336  function createOfferContract(address _buyerAddress, address _sellerAddress, uint _offerAmount,bool _accepted) public  {... */\n    tag_6:\n      tag_27\n      0x04\n      dup1\n      calldatasize\n      sub\n      dup2\n      add\n      swap1\n      tag_28\n      swap2\n      swap1\n      tag_29\n      jump\t// in\n    tag_28:\n      tag_30\n      jump\t// in\n    tag_27:\n      stop\n        /* \"contracts/Comfree.sol\":912:965  mapping (uint => conditionList) public _conditionList */\n    tag_7:\n      tag_31\n      0x04\n      dup1\n      calldatasize\n      sub\n      dup2\n      add\n      swap1\n      tag_32\n      swap2\n      swap1\n      tag_19\n      jump\t// in\n    tag_32:\n      tag_33\n      jump\t// in\n    tag_31:\n      mload(0x40)\n      tag_34\n      swap5\n      swap4\n      swap3\n      swap2\n      swap1\n      tag_35\n      jump\t// in\n    tag_34:\n      mload(0x40)\n      dup1\n      swap2\n      sub\n      swap1\n      return\n        /* \"contracts/Comfree.sol\":846:906  mapping (uint => offerContract) public _listOfOfferContracts */\n    tag_8:\n      tag_36\n      0x04\n      dup1\n      calldatasize\n      sub\n      dup2\n      add\n      swap1\n      tag_37\n      swap2\n      swap1\n      tag_19\n      jump\t// in\n    tag_37:\n      tag_38\n      jump\t// in\n    tag_36:\n      mload(0x40)\n      tag_39\n      swap7\n      swap6\n      swap5\n      swap4\n      swap3\n      swap2\n      swap1\n      tag_40\n      jump\t// in\n    tag_39:\n      mload(0x40)\n      dup1\n      swap2\n      sub\n      swap1\n      return\n        /* \"contracts/Comfree.sol\":3887:4501  function getOfferContractDetailsById() public view returns(uint[] memory) {... */\n    tag_9:\n      tag_41\n      tag_42\n      jump\t// in\n    tag_41:\n      mload(0x40)\n      tag_43\n      swap2\n      swap1\n      tag_44\n      jump\t// in\n    tag_43:\n      mload(0x40)\n      dup1\n      swap2\n      sub\n      swap1\n      return\n        /* \"contracts/Comfree.sol\":174:194  string public symbol */\n    tag_10:\n      tag_45\n      tag_46\n      jump\t// in\n    tag_45:\n      mload(0x40)\n      tag_47\n      swap2\n      swap1\n      tag_16\n      jump\t// in\n    tag_47:\n      mload(0x40)\n      dup1\n      swap2\n      sub\n      swap1\n      return\n        /* \"contracts/Comfree.sol\":1357:2170  function manageConditions(uint _offerId, bool _wallsPainted, bool _CarpetCleaned, bool _WindowsWashed) public {... */\n    tag_11:\n      tag_48\n      0x04\n      dup1\n      calldatasize\n      sub\n      dup2\n      add\n      swap1\n      tag_49\n      swap2\n      swap1\n      tag_50\n      jump\t// in\n    tag_49:\n      tag_51\n      jump\t// in\n    tag_48:\n      stop\n        /* \"contracts/Comfree.sol\":150:168  string public name */\n    tag_14:\n      0x00\n      dup1\n      sload\n      tag_52\n      swap1\n      tag_53\n      jump\t// in\n    tag_52:\n      dup1\n      0x1f\n      add\n      0x20\n      dup1\n      swap2\n      div\n      mul\n      0x20\n      add\n      mload(0x40)\n      swap1\n      dup2\n      add\n      0x40\n      mstore\n      dup1\n      swap3\n      swap2\n      swap1\n      dup2\n      dup2\n      mstore\n      0x20\n      add\n      dup3\n      dup1\n      sload\n      tag_54\n      swap1\n      tag_53\n      jump\t// in\n    tag_54:\n      dup1\n      iszero\n      tag_55\n      jumpi\n      dup1\n      0x1f\n      lt\n      tag_56\n      jumpi\n      0x0100\n      dup1\n      dup4\n      sload\n      div\n      mul\n      dup4\n      mstore\n      swap2\n      0x20\n      add\n      swap2\n      jump(tag_55)\n    tag_56:\n      dup3\n      add\n      swap2\n      swap1\n      0x00\n      mstore\n      keccak256(0x00, 0x20)\n      swap1\n    tag_57:\n      dup2\n      sload\n      dup2\n      mstore\n      swap1\n      0x01\n      add\n      swap1\n      0x20\n      add\n      dup1\n      dup4\n      gt\n      tag_57\n      jumpi\n      dup3\n      swap1\n      sub\n      0x1f\n      and\n      dup3\n      add\n      swap2\n    tag_55:\n      pop\n      pop\n      pop\n      pop\n      pop\n      dup2\n      jump\t// out\n        /* \"contracts/Comfree.sol\":2176:2645  function createConditionList(uint _offerId) public {... */\n    tag_20:\n        /* \"contracts/Comfree.sol\":2237:2252  bool isAccepted */\n      0x00\n        /* \"contracts/Comfree.sol\":2255:2276  _listOfOfferContracts */\n      0x02\n        /* \"contracts/Comfree.sol\":2255:2286  _listOfOfferContracts[_offerId] */\n      0x00\n        /* \"contracts/Comfree.sol\":2277:2285  _offerId */\n      dup4\n        /* \"contracts/Comfree.sol\":2255:2286  _listOfOfferContracts[_offerId] */\n      dup2\n      mstore\n      0x20\n      add\n      swap1\n      dup2\n      mstore\n      0x20\n      add\n      0x00\n      keccak256\n        /* \"contracts/Comfree.sol\":2255:2295  _listOfOfferContracts[_offerId].accepted */\n      0x04\n      add\n      0x00\n      swap1\n      sload\n      swap1\n      0x0100\n      exp\n      swap1\n      div\n      0xff\n      and\n        /* \"contracts/Comfree.sol\":2237:2295  bool isAccepted = _listOfOfferContracts[_offerId].accepted */\n      swap1\n      pop\n        /* \"contracts/Comfree.sol\":2327:2331  true */\n      0x01\n        /* \"contracts/Comfree.sol\":2313:2331  isAccepted == true */\n      iszero\n      iszero\n        /* \"contracts/Comfree.sol\":2313:2323  isAccepted */\n      dup2\n        /* \"contracts/Comfree.sol\":2313:2331  isAccepted == true */\n      iszero\n      iszero\n      eq\n        /* \"contracts/Comfree.sol\":2305:2332  require(isAccepted == true) */\n      tag_59\n      jumpi\n      0x00\n      dup1\n      revert\n    tag_59:\n        /* \"contracts/Comfree.sol\":2382:2387  false */\n      0x00\n        /* \"contracts/Comfree.sol\":2342:2356  _conditionList */\n      0x03\n        /* \"contracts/Comfree.sol\":2342:2366  _conditionList[_offerId] */\n      0x00\n        /* \"contracts/Comfree.sol\":2357:2365  _offerId */\n      dup5\n        /* \"contracts/Comfree.sol\":2342:2366  _conditionList[_offerId] */\n      dup2\n      mstore\n      0x20\n      add\n      swap1\n      dup2\n      mstore\n      0x20\n      add\n      0x00\n      keccak256\n        /* \"contracts/Comfree.sol\":2342:2379  _conditionList[_offerId].conditionMet */\n      0x00\n      add\n      0x00\n        /* \"contracts/Comfree.sol\":2342:2387  _conditionList[_offerId].conditionMet = false */\n      0x0100\n      exp\n      dup2\n      sload\n      dup2\n      0xff\n      mul\n      not\n      and\n      swap1\n      dup4\n      iszero\n      iszero\n      mul\n      or\n      swap1\n      sstore\n      pop\n        /* \"contracts/Comfree.sol\":2437:2442  false */\n      0x00\n        /* \"contracts/Comfree.sol\":2397:2411  _conditionList */\n      0x03\n        /* \"contracts/Comfree.sol\":2397:2421  _conditionList[_offerId] */\n      0x00\n        /* \"contracts/Comfree.sol\":2412:2420  _offerId */\n      dup5\n        /* \"contracts/Comfree.sol\":2397:2421  _conditionList[_offerId] */\n      dup2\n      mstore\n      0x20\n      add\n      swap1\n      dup2\n      mstore\n      0x20\n      add\n      0x00\n      keccak256\n        /* \"contracts/Comfree.sol\":2397:2434  _conditionList[_offerId].WallsPainted */\n      0x00\n      add\n      0x01\n        /* \"contracts/Comfree.sol\":2397:2442  _conditionList[_offerId].WallsPainted = false */\n      0x0100\n      exp\n      dup2\n      sload\n      dup2\n      0xff\n      mul\n      not\n      and\n      swap1\n      dup4\n      iszero\n      iszero\n      mul\n      or\n      swap1\n      sstore\n      pop\n        /* \"contracts/Comfree.sol\":2493:2498  false */\n      0x00\n        /* \"contracts/Comfree.sol\":2452:2466  _conditionList */\n      0x03\n        /* \"contracts/Comfree.sol\":2452:2476  _conditionList[_offerId] */\n      0x00\n        /* \"contracts/Comfree.sol\":2467:2475  _offerId */\n      dup5\n        /* \"contracts/Comfree.sol\":2452:2476  _conditionList[_offerId] */\n      dup2\n      mstore\n      0x20\n      add\n      swap1\n      dup2\n      mstore\n      0x20\n      add\n      0x00\n      keccak256\n        /* \"contracts/Comfree.sol\":2452:2490  _conditionList[_offerId].CarpetCleaned */\n      0x00\n      add\n      0x02\n        /* \"contracts/Comfree.sol\":2452:2498  _conditionList[_offerId].CarpetCleaned = false */\n      0x0100\n      exp\n      dup2\n      sload\n      dup2\n      0xff\n      mul\n      not\n      and\n      swap1\n      dup4\n      iszero\n      iszero\n      mul\n      or\n      swap1\n      sstore\n      pop\n        /* \"contracts/Comfree.sol\":2549:2554  false */\n      0x00\n        /* \"contracts/Comfree.sol\":2508:2522  _conditionList */\n      0x03\n        /* \"contracts/Comfree.sol\":2508:2532  _conditionList[_offerId] */\n      0x00\n        /* \"contracts/Comfree.sol\":2523:2531  _offerId */\n      dup5\n        /* \"contracts/Comfree.sol\":2508:2532  _conditionList[_offerId] */\n      dup2\n      mstore\n      0x20\n      add\n      swap1\n      dup2\n      mstore\n      0x20\n      add\n      0x00\n      keccak256\n        /* \"contracts/Comfree.sol\":2508:2546  _conditionList[_offerId].WindowsWashed */\n      0x00\n      add\n      0x03\n        /* \"contracts/Comfree.sol\":2508:2554  _conditionList[_offerId].WindowsWashed = false */\n      0x0100\n      exp\n      dup2\n      sload\n      dup2\n      0xff\n      mul\n      not\n      and\n      swap1\n      dup4\n      iszero\n      iszero\n      mul\n      or\n      swap1\n      sstore\n      pop\n        /* \"contracts/Comfree.sol\":2570:2638  ConditionListCreate(_offerId, _conditionList[_offerId].conditionMet) */\n      0x0985068d1545f3a3582c605476bc5fe6aaf9acc51845acef22cb74694222ea2e\n        /* \"contracts/Comfree.sol\":2590:2598  _offerId */\n      dup3\n        /* \"contracts/Comfree.sol\":2600:2614  _conditionList */\n      0x03\n        /* \"contracts/Comfree.sol\":2600:2624  _conditionList[_offerId] */\n      0x00\n        /* \"contracts/Comfree.sol\":2615:2623  _offerId */\n      dup6\n        /* \"contracts/Comfree.sol\":2600:2624  _conditionList[_offerId] */\n      dup2\n      mstore\n      0x20\n      add\n      swap1\n      dup2\n      mstore\n      0x20\n      add\n      0x00\n      keccak256\n        /* \"contracts/Comfree.sol\":2600:2637  _conditionList[_offerId].conditionMet */\n      0x00\n      add\n      0x00\n      swap1\n      sload\n      swap1\n      0x0100\n      exp\n      swap1\n      div\n      0xff\n      and\n        /* \"contracts/Comfree.sol\":2570:2638  ConditionListCreate(_offerId, _conditionList[_offerId].conditionMet) */\n      mload(0x40)\n      tag_60\n      swap3\n      swap2\n      swap1\n      tag_61\n      jump\t// in\n    tag_60:\n      mload(0x40)\n      dup1\n      swap2\n      sub\n      swap1\n      log1\n        /* \"contracts/Comfree.sol\":2227:2645  {... */\n      pop\n        /* \"contracts/Comfree.sol\":2176:2645  function createConditionList(uint _offerId) public {... */\n      pop\n      jump\t// out\n        /* \"contracts/Comfree.sol\":3342:3881  function accept(uint _id, bool _value) public returns(bool) {... */\n    tag_24:\n        /* \"contracts/Comfree.sol\":3396:3400  bool */\n      0x00\n        /* \"contracts/Comfree.sol\":3746:3756  msg.sender */\n      caller\n        /* \"contracts/Comfree.sol\":3702:3756  _listOfOfferContracts[_id].sellerAddress != msg.sender */\n      0xffffffffffffffffffffffffffffffffffffffff\n      and\n        /* \"contracts/Comfree.sol\":3702:3723  _listOfOfferContracts */\n      0x02\n        /* \"contracts/Comfree.sol\":3702:3728  _listOfOfferContracts[_id] */\n      0x00\n        /* \"contracts/Comfree.sol\":3724:3727  _id */\n      dup6\n        /* \"contracts/Comfree.sol\":3702:3728  _listOfOfferContracts[_id] */\n      dup2\n      mstore\n      0x20\n      add\n      swap1\n      dup2\n      mstore\n      0x20\n      add\n      0x00\n      keccak256\n        /* \"contracts/Comfree.sol\":3702:3742  _listOfOfferContracts[_id].sellerAddress */\n      0x02\n      add\n      0x00\n      swap1\n      sload\n      swap1\n      0x0100\n      exp\n      swap1\n      div\n      0xffffffffffffffffffffffffffffffffffffffff\n      and\n        /* \"contracts/Comfree.sol\":3702:3756  _listOfOfferContracts[_id].sellerAddress != msg.sender */\n      0xffffffffffffffffffffffffffffffffffffffff\n      and\n      sub\n        /* \"contracts/Comfree.sol\":3694:3757  require(_listOfOfferContracts[_id].sellerAddress != msg.sender) */\n      tag_63\n      jumpi\n      0x00\n      dup1\n      revert\n    tag_63:\n        /* \"contracts/Comfree.sol\":3805:3811  _value */\n      dup2\n        /* \"contracts/Comfree.sol\":3767:3788  _listOfOfferContracts */\n      0x02\n        /* \"contracts/Comfree.sol\":3767:3793  _listOfOfferContracts[_id] */\n      0x00\n        /* \"contracts/Comfree.sol\":3789:3792  _id */\n      dup6\n        /* \"contracts/Comfree.sol\":3767:3793  _listOfOfferContracts[_id] */\n      dup2\n      mstore\n      0x20\n      add\n      swap1\n      dup2\n      mstore\n      0x20\n      add\n      0x00\n      keccak256\n        /* \"contracts/Comfree.sol\":3767:3802  _listOfOfferContracts[_id].accepted */\n      0x04\n      add\n      0x00\n        /* \"contracts/Comfree.sol\":3767:3811  _listOfOfferContracts[_id].accepted = _value */\n      0x0100\n      exp\n      dup2\n      sload\n      dup2\n      0xff\n      mul\n      not\n      and\n      swap1\n      dup4\n      iszero\n      iszero\n      mul\n      or\n      swap1\n      sstore\n      pop\n        /* \"contracts/Comfree.sol\":3828:3834  _value */\n      dup2\n        /* \"contracts/Comfree.sol\":3821:3834  return _value */\n      swap1\n      pop\n        /* \"contracts/Comfree.sol\":3342:3881  function accept(uint _id, bool _value) public returns(bool) {... */\n      swap3\n      swap2\n      pop\n      pop\n      jump\t// out\n        /* \"contracts/Comfree.sol\":2660:3336  function createOfferContract(address _buyerAddress, address _sellerAddress, uint _offerAmount,bool _accepted) public  {... */\n    tag_30:\n        /* \"contracts/Comfree.sol\":2789:2809  offerContractCounter */\n      0x05\n      0x00\n        /* \"contracts/Comfree.sol\":2789:2811  offerContractCounter++ */\n      dup2\n      sload\n      dup1\n      swap3\n      swap2\n      swap1\n      tag_65\n      swap1\n      tag_66\n      jump\t// in\n    tag_65:\n      swap2\n      swap1\n      pop\n      sstore\n      pop\n        /* \"contracts/Comfree.sol\":2874:2894  offerContractCounter */\n      sload(0x05)\n        /* \"contracts/Comfree.sol\":2825:2846  _listOfOfferContracts */\n      0x02\n        /* \"contracts/Comfree.sol\":2825:2868  _listOfOfferContracts[offerContractCounter] */\n      0x00\n        /* \"contracts/Comfree.sol\":2847:2867  offerContractCounter */\n      sload(0x05)\n        /* \"contracts/Comfree.sol\":2825:2868  _listOfOfferContracts[offerContractCounter] */\n      dup2\n      mstore\n      0x20\n      add\n      swap1\n      dup2\n      mstore\n      0x20\n      add\n      0x00\n      keccak256\n        /* \"contracts/Comfree.sol\":2825:2871  _listOfOfferContracts[offerContractCounter].id */\n      0x00\n      add\n        /* \"contracts/Comfree.sol\":2825:2894  _listOfOfferContracts[offerContractCounter].id = offerContractCounter */\n      dup2\n      swap1\n      sstore\n      pop\n        /* \"contracts/Comfree.sol\":2967:2980  _buyerAddress */\n      dup4\n        /* \"contracts/Comfree.sol\":2908:2929  _listOfOfferContracts */\n      0x02\n        /* \"contracts/Comfree.sol\":2908:2951  _listOfOfferContracts[offerContractCounter] */\n      0x00\n        /* \"contracts/Comfree.sol\":2930:2950  offerContractCounter */\n      sload(0x05)\n        /* \"contracts/Comfree.sol\":2908:2951  _listOfOfferContracts[offerContractCounter] */\n      dup2\n      mstore\n      0x20\n      add\n      swap1\n      dup2\n      mstore\n      0x20\n      add\n      0x00\n      keccak256\n        /* \"contracts/Comfree.sol\":2908:2964  _listOfOfferContracts[offerContractCounter].buyerAddress */\n      0x01\n      add\n      0x00\n        /* \"contracts/Comfree.sol\":2908:2980  _listOfOfferContracts[offerContractCounter].buyerAddress = _buyerAddress */\n      0x0100\n      exp\n      dup2\n      sload\n      dup2\n      0xffffffffffffffffffffffffffffffffffffffff\n      mul\n      not\n      and\n      swap1\n      dup4\n      0xffffffffffffffffffffffffffffffffffffffff\n      and\n      mul\n      or\n      swap1\n      sstore\n      pop\n        /* \"contracts/Comfree.sol\":3054:3068  _sellerAddress */\n      dup3\n        /* \"contracts/Comfree.sol\":2994:3015  _listOfOfferContracts */\n      0x02\n        /* \"contracts/Comfree.sol\":2994:3037  _listOfOfferContracts[offerContractCounter] */\n      0x00\n        /* \"contracts/Comfree.sol\":3016:3036  offerContractCounter */\n      sload(0x05)\n        /* \"contracts/Comfree.sol\":2994:3037  _listOfOfferContracts[offerContractCounter] */\n      dup2\n      mstore\n      0x20\n      add\n      swap1\n      dup2\n      mstore\n      0x20\n      add\n      0x00\n      keccak256\n        /* \"contracts/Comfree.sol\":2994:3051  _listOfOfferContracts[offerContractCounter].sellerAddress */\n      0x02\n      add\n      0x00\n        /* \"contracts/Comfree.sol\":2994:3068  _listOfOfferContracts[offerContractCounter].sellerAddress = _sellerAddress */\n      0x0100\n      exp\n      dup2\n      sload\n      dup2\n      0xffffffffffffffffffffffffffffffffffffffff\n      mul\n      not\n      and\n      swap1\n      dup4\n      0xffffffffffffffffffffffffffffffffffffffff\n      and\n      mul\n      or\n      swap1\n      sstore\n      pop\n        /* \"contracts/Comfree.sol\":3140:3152  _offerAmount */\n      dup2\n        /* \"contracts/Comfree.sol\":3082:3103  _listOfOfferContracts */\n      0x02\n        /* \"contracts/Comfree.sol\":3082:3125  _listOfOfferContracts[offerContractCounter] */\n      0x00\n        /* \"contracts/Comfree.sol\":3104:3124  offerContractCounter */\n      sload(0x05)\n        /* \"contracts/Comfree.sol\":3082:3125  _listOfOfferContracts[offerContractCounter] */\n      dup2\n      mstore\n      0x20\n      add\n      swap1\n      dup2\n      mstore\n      0x20\n      add\n      0x00\n      keccak256\n        /* \"contracts/Comfree.sol\":3082:3137  _listOfOfferContracts[offerContractCounter].offerAmount */\n      0x03\n      add\n        /* \"contracts/Comfree.sol\":3082:3152  _listOfOfferContracts[offerContractCounter].offerAmount = _offerAmount */\n      dup2\n      swap1\n      sstore\n      pop\n        /* \"contracts/Comfree.sol\":3221:3230  _accepted */\n      dup1\n        /* \"contracts/Comfree.sol\":3166:3187  _listOfOfferContracts */\n      0x02\n        /* \"contracts/Comfree.sol\":3166:3209  _listOfOfferContracts[offerContractCounter] */\n      0x00\n        /* \"contracts/Comfree.sol\":3188:3208  offerContractCounter */\n      sload(0x05)\n        /* \"contracts/Comfree.sol\":3166:3209  _listOfOfferContracts[offerContractCounter] */\n      dup2\n      mstore\n      0x20\n      add\n      swap1\n      dup2\n      mstore\n      0x20\n      add\n      0x00\n      keccak256\n        /* \"contracts/Comfree.sol\":3166:3218  _listOfOfferContracts[offerContractCounter].accepted */\n      0x04\n      add\n      0x00\n        /* \"contracts/Comfree.sol\":3166:3230  _listOfOfferContracts[offerContractCounter].accepted = _accepted */\n      0x0100\n      exp\n      dup2\n      sload\n      dup2\n      0xff\n      mul\n      not\n      and\n      swap1\n      dup4\n      iszero\n      iszero\n      mul\n      or\n      swap1\n      sstore\n      pop\n        /* \"contracts/Comfree.sol\":3299:3313  _sellerAddress */\n      dup3\n        /* \"contracts/Comfree.sol\":3249:3328  OfferCreated(offerContractCounter, _buyerAddress, _sellerAddress, _offerAmount) */\n      0xffffffffffffffffffffffffffffffffffffffff\n      and\n        /* \"contracts/Comfree.sol\":3284:3297  _buyerAddress */\n      dup5\n        /* \"contracts/Comfree.sol\":3249:3328  OfferCreated(offerContractCounter, _buyerAddress, _sellerAddress, _offerAmount) */\n      0xffffffffffffffffffffffffffffffffffffffff\n      and\n      0xd7717a251aa6b58c031ecb17600f5fd443e3e40f6689d9c3ef687ce7f4b4e616\n        /* \"contracts/Comfree.sol\":3262:3282  offerContractCounter */\n      sload(0x05)\n        /* \"contracts/Comfree.sol\":3315:3327  _offerAmount */\n      dup6\n        /* \"contracts/Comfree.sol\":3249:3328  OfferCreated(offerContractCounter, _buyerAddress, _sellerAddress, _offerAmount) */\n      mload(0x40)\n      tag_67\n      swap3\n      swap2\n      swap1\n      tag_68\n      jump\t// in\n    tag_67:\n      mload(0x40)\n      dup1\n      swap2\n      sub\n      swap1\n      log3\n        /* \"contracts/Comfree.sol\":2660:3336  function createOfferContract(address _buyerAddress, address _sellerAddress, uint _offerAmount,bool _accepted) public  {... */\n      pop\n      pop\n      pop\n      pop\n      jump\t// out\n        /* \"contracts/Comfree.sol\":912:965  mapping (uint => conditionList) public _conditionList */\n    tag_33:\n      mstore(0x20, 0x03)\n      dup1\n      0x00\n      mstore\n      keccak256(0x00, 0x40)\n      0x00\n      swap2\n      pop\n      swap1\n      pop\n      dup1\n      0x00\n      add\n      0x00\n      swap1\n      sload\n      swap1\n      0x0100\n      exp\n      swap1\n      div\n      0xff\n      and\n      swap1\n      dup1\n      0x00\n      add\n      0x01\n      swap1\n      sload\n      swap1\n      0x0100\n      exp\n      swap1\n      div\n      0xff\n      and\n      swap1\n      dup1\n      0x00\n      add\n      0x02\n      swap1\n      sload\n      swap1\n      0x0100\n      exp\n      swap1\n      div\n      0xff\n      and\n      swap1\n      dup1\n      0x00\n      add\n      0x03\n      swap1\n      sload\n      swap1\n      0x0100\n      exp\n      swap1\n      div\n      0xff\n      and\n      swap1\n      pop\n      dup5\n      jump\t// out\n        /* \"contracts/Comfree.sol\":846:906  mapping (uint => offerContract) public _listOfOfferContracts */\n    tag_38:\n      mstore(0x20, 0x02)\n      dup1\n      0x00\n      mstore\n      keccak256(0x00, 0x40)\n      0x00\n      swap2\n      pop\n      swap1\n      pop\n      dup1\n      0x00\n      add\n      sload\n      swap1\n      dup1\n      0x01\n      add\n      0x00\n      swap1\n      sload\n      swap1\n      0x0100\n      exp\n      swap1\n      div\n      0xffffffffffffffffffffffffffffffffffffffff\n      and\n      swap1\n      dup1\n      0x02\n      add\n      0x00\n      swap1\n      sload\n      swap1\n      0x0100\n      exp\n      swap1\n      div\n      0xffffffffffffffffffffffffffffffffffffffff\n      and\n      swap1\n      dup1\n      0x03\n      add\n      sload\n      swap1\n      dup1\n      0x04\n      add\n      0x00\n      swap1\n      sload\n      swap1\n      0x0100\n      exp\n      swap1\n      div\n      0xff\n      and\n      swap1\n      dup1\n      0x05\n      add\n      sload\n      swap1\n      pop\n      dup7\n      jump\t// out\n        /* \"contracts/Comfree.sol\":3887:4501  function getOfferContractDetailsById() public view returns(uint[] memory) {... */\n    tag_42:\n        /* \"contracts/Comfree.sol\":3946:3959  uint[] memory */\n      0x60\n        /* \"contracts/Comfree.sol\":3971:3993  uint[] memory offerIds */\n      0x00\n        /* \"contracts/Comfree.sol\":4007:4027  offerContractCounter */\n      sload(0x05)\n        /* \"contracts/Comfree.sol\":3996:4028  new uint[](offerContractCounter) */\n      0xffffffffffffffff\n      dup2\n      gt\n      iszero\n      tag_70\n      jumpi\n      tag_71\n      tag_72\n      jump\t// in\n    tag_71:\n    tag_70:\n      mload(0x40)\n      swap1\n      dup1\n      dup3\n      mstore\n      dup1\n      0x20\n      mul\n      0x20\n      add\n      dup3\n      add\n      0x40\n      mstore\n      dup1\n      iszero\n      tag_73\n      jumpi\n      dup2\n      0x20\n      add\n      0x20\n      dup3\n      mul\n      dup1\n      calldatasize\n      dup4\n      calldatacopy\n      dup1\n      dup3\n      add\n      swap2\n      pop\n      pop\n      swap1\n      pop\n    tag_73:\n      pop\n        /* \"contracts/Comfree.sol\":3971:4028  uint[] memory offerIds = new uint[](offerContractCounter) */\n      swap1\n      pop\n        /* \"contracts/Comfree.sol\":4039:4069  uint numberOfPropertiesForSale */\n      0x00\n        /* \"contracts/Comfree.sol\":4105:4111  uint i */\n      dup1\n        /* \"contracts/Comfree.sol\":4114:4115  1 */\n      0x01\n        /* \"contracts/Comfree.sol\":4105:4115  uint i = 1 */\n      swap1\n      pop\n        /* \"contracts/Comfree.sol\":4101:4289  for(uint i = 1; i <= offerContractCounter; i++) {... */\n    tag_74:\n        /* \"contracts/Comfree.sol\":4122:4142  offerContractCounter */\n      sload(0x05)\n        /* \"contracts/Comfree.sol\":4117:4118  i */\n      dup2\n        /* \"contracts/Comfree.sol\":4117:4142  i <= offerContractCounter */\n      gt\n        /* \"contracts/Comfree.sol\":4101:4289  for(uint i = 1; i <= offerContractCounter; i++) {... */\n      tag_75\n      jumpi\n        /* \"contracts/Comfree.sol\":4206:4227  _listOfOfferContracts */\n      0x02\n        /* \"contracts/Comfree.sol\":4206:4230  _listOfOfferContracts[i] */\n      0x00\n        /* \"contracts/Comfree.sol\":4228:4229  i */\n      dup3\n        /* \"contracts/Comfree.sol\":4206:4230  _listOfOfferContracts[i] */\n      dup2\n      mstore\n      0x20\n      add\n      swap1\n      dup2\n      mstore\n      0x20\n      add\n      0x00\n      keccak256\n        /* \"contracts/Comfree.sol\":4206:4233  _listOfOfferContracts[i].id */\n      0x00\n      add\n      sload\n        /* \"contracts/Comfree.sol\":4167:4175  offerIds */\n      dup4\n        /* \"contracts/Comfree.sol\":4176:4201  numberOfPropertiesForSale */\n      dup4\n        /* \"contracts/Comfree.sol\":4167:4202  offerIds[numberOfPropertiesForSale] */\n      dup2\n      mload\n      dup2\n      lt\n      tag_77\n      jumpi\n      tag_78\n      tag_79\n      jump\t// in\n    tag_78:\n    tag_77:\n      0x20\n      mul\n      0x20\n      add\n      add\n        /* \"contracts/Comfree.sol\":4167:4233  offerIds[numberOfPropertiesForSale] =  _listOfOfferContracts[i].id */\n      dup2\n      dup2\n      mstore\n      pop\n      pop\n        /* \"contracts/Comfree.sol\":4251:4278  numberOfPropertiesForSale++ */\n      dup2\n      dup1\n      tag_80\n      swap1\n      tag_66\n      jump\t// in\n    tag_80:\n      swap3\n      pop\n      pop\n        /* \"contracts/Comfree.sol\":4144:4147  i++ */\n      dup1\n      dup1\n      tag_81\n      swap1\n      tag_66\n      jump\t// in\n    tag_81:\n      swap2\n      pop\n      pop\n        /* \"contracts/Comfree.sol\":4101:4289  for(uint i = 1; i <= offerContractCounter; i++) {... */\n      jump(tag_74)\n    tag_75:\n      pop\n        /* \"contracts/Comfree.sol\":4299:4320  uint[] memory forSale */\n      0x00\n        /* \"contracts/Comfree.sol\":4334:4359  numberOfPropertiesForSale */\n      dup2\n        /* \"contracts/Comfree.sol\":4323:4360  new uint[](numberOfPropertiesForSale) */\n      0xffffffffffffffff\n      dup2\n      gt\n      iszero\n      tag_82\n      jumpi\n      tag_83\n      tag_72\n      jump\t// in\n    tag_83:\n    tag_82:\n      mload(0x40)\n      swap1\n      dup1\n      dup3\n      mstore\n      dup1\n      0x20\n      mul\n      0x20\n      add\n      dup3\n      add\n      0x40\n      mstore\n      dup1\n      iszero\n      tag_84\n      jumpi\n      dup2\n      0x20\n      add\n      0x20\n      dup3\n      mul\n      dup1\n      calldatasize\n      dup4\n      calldatacopy\n      dup1\n      dup3\n      add\n      swap2\n      pop\n      pop\n      swap1\n      pop\n    tag_84:\n      pop\n        /* \"contracts/Comfree.sol\":4299:4360  uint[] memory forSale = new uint[](numberOfPropertiesForSale) */\n      swap1\n      pop\n        /* \"contracts/Comfree.sol\":4374:4380  uint j */\n      0x00\n        /* \"contracts/Comfree.sol\":4370:4471  for(uint j = 0; j < numberOfPropertiesForSale; j++) {... */\n    tag_85:\n        /* \"contracts/Comfree.sol\":4390:4415  numberOfPropertiesForSale */\n      dup3\n        /* \"contracts/Comfree.sol\":4386:4387  j */\n      dup2\n        /* \"contracts/Comfree.sol\":4386:4415  j < numberOfPropertiesForSale */\n      lt\n        /* \"contracts/Comfree.sol\":4370:4471  for(uint j = 0; j < numberOfPropertiesForSale; j++) {... */\n      iszero\n      tag_86\n      jumpi\n        /* \"contracts/Comfree.sol\":4449:4457  offerIds */\n      dup4\n        /* \"contracts/Comfree.sol\":4458:4459  j */\n      dup2\n        /* \"contracts/Comfree.sol\":4449:4460  offerIds[j] */\n      dup2\n      mload\n      dup2\n      lt\n      tag_88\n      jumpi\n      tag_89\n      tag_79\n      jump\t// in\n    tag_89:\n    tag_88:\n      0x20\n      mul\n      0x20\n      add\n      add\n      mload\n        /* \"contracts/Comfree.sol\":4436:4443  forSale */\n      dup3\n        /* \"contracts/Comfree.sol\":4444:4445  j */\n      dup3\n        /* \"contracts/Comfree.sol\":4436:4446  forSale[j] */\n      dup2\n      mload\n      dup2\n      lt\n      tag_90\n      jumpi\n      tag_91\n      tag_79\n      jump\t// in\n    tag_91:\n    tag_90:\n      0x20\n      mul\n      0x20\n      add\n      add\n        /* \"contracts/Comfree.sol\":4436:4460  forSale[j] = offerIds[j] */\n      dup2\n      dup2\n      mstore\n      pop\n      pop\n        /* \"contracts/Comfree.sol\":4417:4420  j++ */\n      dup1\n      dup1\n      tag_92\n      swap1\n      tag_66\n      jump\t// in\n    tag_92:\n      swap2\n      pop\n      pop\n        /* \"contracts/Comfree.sol\":4370:4471  for(uint j = 0; j < numberOfPropertiesForSale; j++) {... */\n      jump(tag_85)\n    tag_86:\n      pop\n        /* \"contracts/Comfree.sol\":4487:4494  forSale */\n      dup1\n        /* \"contracts/Comfree.sol\":4480:4494  return forSale */\n      swap4\n      pop\n      pop\n      pop\n      pop\n        /* \"contracts/Comfree.sol\":3887:4501  function getOfferContractDetailsById() public view returns(uint[] memory) {... */\n      swap1\n      jump\t// out\n        /* \"contracts/Comfree.sol\":174:194  string public symbol */\n    tag_46:\n      0x01\n      dup1\n      sload\n      tag_93\n      swap1\n      tag_53\n      jump\t// in\n    tag_93:\n      dup1\n      0x1f\n      add\n      0x20\n      dup1\n      swap2\n      div\n      mul\n      0x20\n      add\n      mload(0x40)\n      swap1\n      dup2\n      add\n      0x40\n      mstore\n      dup1\n      swap3\n      swap2\n      swap1\n      dup2\n      dup2\n      mstore\n      0x20\n      add\n      dup3\n      dup1\n      sload\n      tag_94\n      swap1\n      tag_53\n      jump\t// in\n    tag_94:\n      dup1\n      iszero\n      tag_95\n      jumpi\n      dup1\n      0x1f\n      lt\n      tag_96\n      jumpi\n      0x0100\n      dup1\n      dup4\n      sload\n      div\n      mul\n      dup4\n      mstore\n      swap2\n      0x20\n      add\n      swap2\n      jump(tag_95)\n    tag_96:\n      dup3\n      add\n      swap2\n      swap1\n      0x00\n      mstore\n      keccak256(0x00, 0x20)\n      swap1\n    tag_97:\n      dup2\n      sload\n      dup2\n      mstore\n      swap1\n      0x01\n      add\n      swap1\n      0x20\n      add\n      dup1\n      dup4\n      gt\n      tag_97\n      jumpi\n      dup3\n      swap1\n      sub\n      0x1f\n      and\n      dup3\n      add\n      swap2\n    tag_95:\n      pop\n      pop\n      pop\n      pop\n      pop\n      dup2\n      jump\t// out\n        /* \"contracts/Comfree.sol\":1357:2170  function manageConditions(uint _offerId, bool _wallsPainted, bool _CarpetCleaned, bool _WindowsWashed) public {... */\n    tag_51:\n        /* \"contracts/Comfree.sol\":1517:1530  _wallsPainted */\n      dup3\n        /* \"contracts/Comfree.sol\":1477:1491  _conditionList */\n      0x03\n        /* \"contracts/Comfree.sol\":1477:1501  _conditionList[_offerId] */\n      0x00\n        /* \"contracts/Comfree.sol\":1492:1500  _offerId */\n      dup7\n        /* \"contracts/Comfree.sol\":1477:1501  _conditionList[_offerId] */\n      dup2\n      mstore\n      0x20\n      add\n      swap1\n      dup2\n      mstore\n      0x20\n      add\n      0x00\n      keccak256\n        /* \"contracts/Comfree.sol\":1477:1514  _conditionList[_offerId].WallsPainted */\n      0x00\n      add\n      0x01\n        /* \"contracts/Comfree.sol\":1477:1530  _conditionList[_offerId].WallsPainted = _wallsPainted */\n      0x0100\n      exp\n      dup2\n      sload\n      dup2\n      0xff\n      mul\n      not\n      and\n      swap1\n      dup4\n      iszero\n      iszero\n      mul\n      or\n      swap1\n      sstore\n      pop\n        /* \"contracts/Comfree.sol\":1581:1595  _CarpetCleaned */\n      dup2\n        /* \"contracts/Comfree.sol\":1540:1554  _conditionList */\n      0x03\n        /* \"contracts/Comfree.sol\":1540:1564  _conditionList[_offerId] */\n      0x00\n        /* \"contracts/Comfree.sol\":1555:1563  _offerId */\n      dup7\n        /* \"contracts/Comfree.sol\":1540:1564  _conditionList[_offerId] */\n      dup2\n      mstore\n      0x20\n      add\n      swap1\n      dup2\n      mstore\n      0x20\n      add\n      0x00\n      keccak256\n        /* \"contracts/Comfree.sol\":1540:1578  _conditionList[_offerId].CarpetCleaned */\n      0x00\n      add\n      0x02\n        /* \"contracts/Comfree.sol\":1540:1595  _conditionList[_offerId].CarpetCleaned = _CarpetCleaned */\n      0x0100\n      exp\n      dup2\n      sload\n      dup2\n      0xff\n      mul\n      not\n      and\n      swap1\n      dup4\n      iszero\n      iszero\n      mul\n      or\n      swap1\n      sstore\n      pop\n        /* \"contracts/Comfree.sol\":1646:1660  _WindowsWashed */\n      dup1\n        /* \"contracts/Comfree.sol\":1605:1619  _conditionList */\n      0x03\n        /* \"contracts/Comfree.sol\":1605:1629  _conditionList[_offerId] */\n      0x00\n        /* \"contracts/Comfree.sol\":1620:1628  _offerId */\n      dup7\n        /* \"contracts/Comfree.sol\":1605:1629  _conditionList[_offerId] */\n      dup2\n      mstore\n      0x20\n      add\n      swap1\n      dup2\n      mstore\n      0x20\n      add\n      0x00\n      keccak256\n        /* \"contracts/Comfree.sol\":1605:1643  _conditionList[_offerId].WindowsWashed */\n      0x00\n      add\n      0x03\n        /* \"contracts/Comfree.sol\":1605:1660  _conditionList[_offerId].WindowsWashed = _WindowsWashed */\n      0x0100\n      exp\n      dup2\n      sload\n      dup2\n      0xff\n      mul\n      not\n      and\n      swap1\n      dup4\n      iszero\n      iszero\n      mul\n      or\n      swap1\n      sstore\n      pop\n        /* \"contracts/Comfree.sol\":1800:1804  true */\n      0x01\n        /* \"contracts/Comfree.sol\":1759:1804  _conditionList[_offerId].WallsPainted == true */\n      iszero\n      iszero\n        /* \"contracts/Comfree.sol\":1759:1773  _conditionList */\n      0x03\n        /* \"contracts/Comfree.sol\":1759:1783  _conditionList[_offerId] */\n      0x00\n        /* \"contracts/Comfree.sol\":1774:1782  _offerId */\n      dup7\n        /* \"contracts/Comfree.sol\":1759:1783  _conditionList[_offerId] */\n      dup2\n      mstore\n      0x20\n      add\n      swap1\n      dup2\n      mstore\n      0x20\n      add\n      0x00\n      keccak256\n        /* \"contracts/Comfree.sol\":1759:1796  _conditionList[_offerId].WallsPainted */\n      0x00\n      add\n      0x01\n      swap1\n      sload\n      swap1\n      0x0100\n      exp\n      swap1\n      div\n      0xff\n      and\n        /* \"contracts/Comfree.sol\":1759:1804  _conditionList[_offerId].WallsPainted == true */\n      iszero\n      iszero\n      eq\n        /* \"contracts/Comfree.sol\":1759:1854  _conditionList[_offerId].WallsPainted == true && _conditionList[_offerId].CarpetCleaned == true */\n      dup1\n      iszero\n      tag_99\n      jumpi\n      pop\n        /* \"contracts/Comfree.sol\":1850:1854  true */\n      0x01\n        /* \"contracts/Comfree.sol\":1808:1854  _conditionList[_offerId].CarpetCleaned == true */\n      iszero\n      iszero\n        /* \"contracts/Comfree.sol\":1808:1822  _conditionList */\n      0x03\n        /* \"contracts/Comfree.sol\":1808:1832  _conditionList[_offerId] */\n      0x00\n        /* \"contracts/Comfree.sol\":1823:1831  _offerId */\n      dup7\n        /* \"contracts/Comfree.sol\":1808:1832  _conditionList[_offerId] */\n      dup2\n      mstore\n      0x20\n      add\n      swap1\n      dup2\n      mstore\n      0x20\n      add\n      0x00\n      keccak256\n        /* \"contracts/Comfree.sol\":1808:1846  _conditionList[_offerId].CarpetCleaned */\n      0x00\n      add\n      0x02\n      swap1\n      sload\n      swap1\n      0x0100\n      exp\n      swap1\n      div\n      0xff\n      and\n        /* \"contracts/Comfree.sol\":1808:1854  _conditionList[_offerId].CarpetCleaned == true */\n      iszero\n      iszero\n      eq\n        /* \"contracts/Comfree.sol\":1759:1854  _conditionList[_offerId].WallsPainted == true && _conditionList[_offerId].CarpetCleaned == true */\n    tag_99:\n        /* \"contracts/Comfree.sol\":1759:1904  _conditionList[_offerId].WallsPainted == true && _conditionList[_offerId].CarpetCleaned == true && _conditionList[_offerId].WindowsWashed == true */\n      dup1\n      iszero\n      tag_100\n      jumpi\n      pop\n        /* \"contracts/Comfree.sol\":1900:1904  true */\n      0x01\n        /* \"contracts/Comfree.sol\":1858:1904  _conditionList[_offerId].WindowsWashed == true */\n      iszero\n      iszero\n        /* \"contracts/Comfree.sol\":1858:1872  _conditionList */\n      0x03\n        /* \"contracts/Comfree.sol\":1858:1882  _conditionList[_offerId] */\n      0x00\n        /* \"contracts/Comfree.sol\":1873:1881  _offerId */\n      dup7\n        /* \"contracts/Comfree.sol\":1858:1882  _conditionList[_offerId] */\n      dup2\n      mstore\n      0x20\n      add\n      swap1\n      dup2\n      mstore\n      0x20\n      add\n      0x00\n      keccak256\n        /* \"contracts/Comfree.sol\":1858:1896  _conditionList[_offerId].WindowsWashed */\n      0x00\n      add\n      0x03\n      swap1\n      sload\n      swap1\n      0x0100\n      exp\n      swap1\n      div\n      0xff\n      and\n        /* \"contracts/Comfree.sol\":1858:1904  _conditionList[_offerId].WindowsWashed == true */\n      iszero\n      iszero\n      eq\n        /* \"contracts/Comfree.sol\":1759:1904  _conditionList[_offerId].WallsPainted == true && _conditionList[_offerId].CarpetCleaned == true && _conditionList[_offerId].WindowsWashed == true */\n    tag_100:\n        /* \"contracts/Comfree.sol\":1755:1975  if( _conditionList[_offerId].WallsPainted == true && _conditionList[_offerId].CarpetCleaned == true && _conditionList[_offerId].WindowsWashed == true) {... */\n      iszero\n      tag_101\n      jumpi\n        /* \"contracts/Comfree.sol\":1960:1964  true */\n      0x01\n        /* \"contracts/Comfree.sol\":1920:1934  _conditionList */\n      0x03\n        /* \"contracts/Comfree.sol\":1920:1944  _conditionList[_offerId] */\n      0x00\n        /* \"contracts/Comfree.sol\":1935:1943  _offerId */\n      dup7\n        /* \"contracts/Comfree.sol\":1920:1944  _conditionList[_offerId] */\n      dup2\n      mstore\n      0x20\n      add\n      swap1\n      dup2\n      mstore\n      0x20\n      add\n      0x00\n      keccak256\n        /* \"contracts/Comfree.sol\":1920:1957  _conditionList[_offerId].conditionMet */\n      0x00\n      add\n      0x00\n        /* \"contracts/Comfree.sol\":1920:1964  _conditionList[_offerId].conditionMet = true */\n      0x0100\n      exp\n      dup2\n      sload\n      dup2\n      0xff\n      mul\n      not\n      and\n      swap1\n      dup4\n      iszero\n      iszero\n      mul\n      or\n      swap1\n      sstore\n      pop\n        /* \"contracts/Comfree.sol\":1755:1975  if( _conditionList[_offerId].WallsPainted == true && _conditionList[_offerId].CarpetCleaned == true && _conditionList[_offerId].WindowsWashed == true) {... */\n    tag_101:\n        /* \"contracts/Comfree.sol\":2028:2032  true */\n      0x01\n        /* \"contracts/Comfree.sol\":1987:2032  _conditionList[_offerId].conditionMet == true */\n      iszero\n      iszero\n        /* \"contracts/Comfree.sol\":1987:2001  _conditionList */\n      0x03\n        /* \"contracts/Comfree.sol\":1987:2011  _conditionList[_offerId] */\n      0x00\n        /* \"contracts/Comfree.sol\":2002:2010  _offerId */\n      dup7\n        /* \"contracts/Comfree.sol\":1987:2011  _conditionList[_offerId] */\n      dup2\n      mstore\n      0x20\n      add\n      swap1\n      dup2\n      mstore\n      0x20\n      add\n      0x00\n      keccak256\n        /* \"contracts/Comfree.sol\":1987:2024  _conditionList[_offerId].conditionMet */\n      0x00\n      add\n      0x00\n      swap1\n      sload\n      swap1\n      0x0100\n      exp\n      swap1\n      div\n      0xff\n      and\n        /* \"contracts/Comfree.sol\":1987:2032  _conditionList[_offerId].conditionMet == true */\n      iszero\n      iszero\n      sub\n        /* \"contracts/Comfree.sol\":1984:2155  if(_conditionList[_offerId].conditionMet == true) {... */\n      tag_102\n      jumpi\n        /* \"contracts/Comfree.sol\":2053:2075  ConditionMet(_offerId) */\n      0xbed19c48ffbfb01ca0faa826d3e3844746b0628593a6c4aeea7290af66735d20\n        /* \"contracts/Comfree.sol\":2066:2074  _offerId */\n      dup5\n        /* \"contracts/Comfree.sol\":2053:2075  ConditionMet(_offerId) */\n      mload(0x40)\n      tag_103\n      swap2\n      swap1\n      tag_104\n      jump\t// in\n    tag_103:\n      mload(0x40)\n      dup1\n      swap2\n      sub\n      swap1\n      log1\n        /* \"contracts/Comfree.sol\":1984:2155  if(_conditionList[_offerId].conditionMet == true) {... */\n      jump(tag_105)\n    tag_102:\n        /* \"contracts/Comfree.sol\":2119:2144  ConditionNotMet(_offerId) */\n      0x1f0c1db71d57570daa726bc2aa30a91e34f107443dfdbfc1bed51f3810ce362e\n        /* \"contracts/Comfree.sol\":2135:2143  _offerId */\n      dup5\n        /* \"contracts/Comfree.sol\":2119:2144  ConditionNotMet(_offerId) */\n      mload(0x40)\n      tag_106\n      swap2\n      swap1\n      tag_104\n      jump\t// in\n    tag_106:\n      mload(0x40)\n      dup1\n      swap2\n      sub\n      swap1\n      log1\n        /* \"contracts/Comfree.sol\":1984:2155  if(_conditionList[_offerId].conditionMet == true) {... */\n    tag_105:\n        /* \"contracts/Comfree.sol\":1357:2170  function manageConditions(uint _offerId, bool _wallsPainted, bool _CarpetCleaned, bool _WindowsWashed) public {... */\n      pop\n      pop\n      pop\n      pop\n      jump\t// out\n        /* \"#utility.yul\":7:106   */\n    tag_107:\n        /* \"#utility.yul\":59:65   */\n      0x00\n        /* \"#utility.yul\":93:98   */\n      dup2\n        /* \"#utility.yul\":87:99   */\n      mload\n        /* \"#utility.yul\":77:99   */\n      swap1\n      pop\n        /* \"#utility.yul\":7:106   */\n      swap2\n      swap1\n      pop\n      jump\t// out\n        /* \"#utility.yul\":112:281   */\n    tag_108:\n        /* \"#utility.yul\":196:207   */\n      0x00\n        /* \"#utility.yul\":230:236   */\n      dup3\n        /* \"#utility.yul\":225:228   */\n      dup3\n        /* \"#utility.yul\":218:237   */\n      mstore\n        /* \"#utility.yul\":270:274   */\n      0x20\n        /* \"#utility.yul\":265:268   */\n      dup3\n        /* \"#utility.yul\":261:275   */\n      add\n        /* \"#utility.yul\":246:275   */\n      swap1\n      pop\n        /* \"#utility.yul\":112:281   */\n      swap3\n      swap2\n      pop\n      pop\n      jump\t// out\n        /* \"#utility.yul\":287:533   */\n    tag_109:\n        /* \"#utility.yul\":368:369   */\n      0x00\n        /* \"#utility.yul\":378:491   */\n    tag_141:\n        /* \"#utility.yul\":392:398   */\n      dup4\n        /* \"#utility.yul\":389:390   */\n      dup2\n        /* \"#utility.yul\":386:399   */\n      lt\n        /* \"#utility.yul\":378:491   */\n      iszero\n      tag_143\n      jumpi\n        /* \"#utility.yul\":477:478   */\n      dup1\n        /* \"#utility.yul\":472:475   */\n      dup3\n        /* \"#utility.yul\":468:479   */\n      add\n        /* \"#utility.yul\":462:480   */\n      mload\n        /* \"#utility.yul\":458:459   */\n      dup2\n        /* \"#utility.yul\":453:456   */\n      dup5\n        /* \"#utility.yul\":449:460   */\n      add\n        /* \"#utility.yul\":442:481   */\n      mstore\n        /* \"#utility.yul\":414:416   */\n      0x20\n        /* \"#utility.yul\":411:412   */\n      dup2\n        /* \"#utility.yul\":407:417   */\n      add\n        /* \"#utility.yul\":402:417   */\n      swap1\n      pop\n        /* \"#utility.yul\":378:491   */\n      jump(tag_141)\n    tag_143:\n        /* \"#utility.yul\":525:526   */\n      0x00\n        /* \"#utility.yul\":516:522   */\n      dup5\n        /* \"#utility.yul\":511:514   */\n      dup5\n        /* \"#utility.yul\":507:523   */\n      add\n        /* \"#utility.yul\":500:527   */\n      mstore\n        /* \"#utility.yul\":349:533   */\n      pop\n        /* \"#utility.yul\":287:533   */\n      pop\n      pop\n      pop\n      jump\t// out\n        /* \"#utility.yul\":539:641   */\n    tag_110:\n        /* \"#utility.yul\":580:586   */\n      0x00\n        /* \"#utility.yul\":631:633   */\n      0x1f\n        /* \"#utility.yul\":627:634   */\n      not\n        /* \"#utility.yul\":622:624   */\n      0x1f\n        /* \"#utility.yul\":615:620   */\n      dup4\n        /* \"#utility.yul\":611:625   */\n      add\n        /* \"#utility.yul\":607:635   */\n      and\n        /* \"#utility.yul\":597:635   */\n      swap1\n      pop\n        /* \"#utility.yul\":539:641   */\n      swap2\n      swap1\n      pop\n      jump\t// out\n        /* \"#utility.yul\":647:1024   */\n    tag_111:\n        /* \"#utility.yul\":735:738   */\n      0x00\n        /* \"#utility.yul\":763:802   */\n      tag_146\n        /* \"#utility.yul\":796:801   */\n      dup3\n        /* \"#utility.yul\":763:802   */\n      tag_107\n      jump\t// in\n    tag_146:\n        /* \"#utility.yul\":818:889   */\n      tag_147\n        /* \"#utility.yul\":882:888   */\n      dup2\n        /* \"#utility.yul\":877:880   */\n      dup6\n        /* \"#utility.yul\":818:889   */\n      tag_108\n      jump\t// in\n    tag_147:\n        /* \"#utility.yul\":811:889   */\n      swap4\n      pop\n        /* \"#utility.yul\":898:963   */\n      tag_148\n        /* \"#utility.yul\":956:962   */\n      dup2\n        /* \"#utility.yul\":951:954   */\n      dup6\n        /* \"#utility.yul\":944:948   */\n      0x20\n        /* \"#utility.yul\":937:942   */\n      dup7\n        /* \"#utility.yul\":933:949   */\n      add\n        /* \"#utility.yul\":898:963   */\n      tag_109\n      jump\t// in\n    tag_148:\n        /* \"#utility.yul\":988:1017   */\n      tag_149\n        /* \"#utility.yul\":1010:1016   */\n      dup2\n        /* \"#utility.yul\":988:1017   */\n      tag_110\n      jump\t// in\n    tag_149:\n        /* \"#utility.yul\":983:986   */\n      dup5\n        /* \"#utility.yul\":979:1018   */\n      add\n        /* \"#utility.yul\":972:1018   */\n      swap2\n      pop\n        /* \"#utility.yul\":739:1024   */\n      pop\n        /* \"#utility.yul\":647:1024   */\n      swap3\n      swap2\n      pop\n      pop\n      jump\t// out\n        /* \"#utility.yul\":1030:1343   */\n    tag_16:\n        /* \"#utility.yul\":1143:1147   */\n      0x00\n        /* \"#utility.yul\":1181:1183   */\n      0x20\n        /* \"#utility.yul\":1170:1179   */\n      dup3\n        /* \"#utility.yul\":1166:1184   */\n      add\n        /* \"#utility.yul\":1158:1184   */\n      swap1\n      pop\n        /* \"#utility.yul\":1230:1239   */\n      dup2\n        /* \"#utility.yul\":1224:1228   */\n      dup2\n        /* \"#utility.yul\":1220:1240   */\n      sub\n        /* \"#utility.yul\":1216:1217   */\n      0x00\n        /* \"#utility.yul\":1205:1214   */\n      dup4\n        /* \"#utility.yul\":1201:1218   */\n      add\n        /* \"#utility.yul\":1194:1241   */\n      mstore\n        /* \"#utility.yul\":1258:1336   */\n      tag_151\n        /* \"#utility.yul\":1331:1335   */\n      dup2\n        /* \"#utility.yul\":1322:1328   */\n      dup5\n        /* \"#utility.yul\":1258:1336   */\n      tag_111\n      jump\t// in\n    tag_151:\n        /* \"#utility.yul\":1250:1336   */\n      swap1\n      pop\n        /* \"#utility.yul\":1030:1343   */\n      swap3\n      swap2\n      pop\n      pop\n      jump\t// out\n        /* \"#utility.yul\":1430:1547   */\n    tag_113:\n        /* \"#utility.yul\":1539:1540   */\n      0x00\n        /* \"#utility.yul\":1536:1537   */\n      dup1\n        /* \"#utility.yul\":1529:1541   */\n      revert\n        /* \"#utility.yul\":1676:1753   */\n    tag_115:\n        /* \"#utility.yul\":1713:1720   */\n      0x00\n        /* \"#utility.yul\":1742:1747   */\n      dup2\n        /* \"#utility.yul\":1731:1747   */\n      swap1\n      pop\n        /* \"#utility.yul\":1676:1753   */\n      swap2\n      swap1\n      pop\n      jump\t// out\n        /* \"#utility.yul\":1759:1881   */\n    tag_116:\n        /* \"#utility.yul\":1832:1856   */\n      tag_157\n        /* \"#utility.yul\":1850:1855   */\n      dup2\n        /* \"#utility.yul\":1832:1856   */\n      tag_115\n      jump\t// in\n    tag_157:\n        /* \"#utility.yul\":1825:1830   */\n      dup2\n        /* \"#utility.yul\":1822:1857   */\n      eq\n        /* \"#utility.yul\":1812:1875   */\n      tag_158\n      jumpi\n        /* \"#utility.yul\":1871:1872   */\n      0x00\n        /* \"#utility.yul\":1868:1869   */\n      dup1\n        /* \"#utility.yul\":1861:1873   */\n      revert\n        /* \"#utility.yul\":1812:1875   */\n    tag_158:\n        /* \"#utility.yul\":1759:1881   */\n      pop\n      jump\t// out\n        /* \"#utility.yul\":1887:2026   */\n    tag_117:\n        /* \"#utility.yul\":1933:1938   */\n      0x00\n        /* \"#utility.yul\":1971:1977   */\n      dup2\n        /* \"#utility.yul\":1958:1978   */\n      calldataload\n        /* \"#utility.yul\":1949:1978   */\n      swap1\n      pop\n        /* \"#utility.yul\":1987:2020   */\n      tag_160\n        /* \"#utility.yul\":2014:2019   */\n      dup2\n        /* \"#utility.yul\":1987:2020   */\n      tag_116\n      jump\t// in\n    tag_160:\n        /* \"#utility.yul\":1887:2026   */\n      swap3\n      swap2\n      pop\n      pop\n      jump\t// out\n        /* \"#utility.yul\":2032:2361   */\n    tag_19:\n        /* \"#utility.yul\":2091:2097   */\n      0x00\n        /* \"#utility.yul\":2140:2142   */\n      0x20\n        /* \"#utility.yul\":2128:2137   */\n      dup3\n        /* \"#utility.yul\":2119:2126   */\n      dup5\n        /* \"#utility.yul\":2115:2138   */\n      sub\n        /* \"#utility.yul\":2111:2143   */\n      slt\n        /* \"#utility.yul\":2108:2227   */\n      iszero\n      tag_162\n      jumpi\n        /* \"#utility.yul\":2146:2225   */\n      tag_163\n      tag_113\n      jump\t// in\n    tag_163:\n        /* \"#utility.yul\":2108:2227   */\n    tag_162:\n        /* \"#utility.yul\":2266:2267   */\n      0x00\n        /* \"#utility.yul\":2291:2344   */\n      tag_164\n        /* \"#utility.yul\":2336:2343   */\n      dup5\n        /* \"#utility.yul\":2327:2333   */\n      dup3\n        /* \"#utility.yul\":2316:2325   */\n      dup6\n        /* \"#utility.yul\":2312:2334   */\n      add\n        /* \"#utility.yul\":2291:2344   */\n      tag_117\n      jump\t// in\n    tag_164:\n        /* \"#utility.yul\":2281:2344   */\n      swap2\n      pop\n        /* \"#utility.yul\":2237:2354   */\n      pop\n        /* \"#utility.yul\":2032:2361   */\n      swap3\n      swap2\n      pop\n      pop\n      jump\t// out\n        /* \"#utility.yul\":2367:2457   */\n    tag_118:\n        /* \"#utility.yul\":2401:2408   */\n      0x00\n        /* \"#utility.yul\":2444:2449   */\n      dup2\n        /* \"#utility.yul\":2437:2450   */\n      iszero\n        /* \"#utility.yul\":2430:2451   */\n      iszero\n        /* \"#utility.yul\":2419:2451   */\n      swap1\n      pop\n        /* \"#utility.yul\":2367:2457   */\n      swap2\n      swap1\n      pop\n      jump\t// out\n        /* \"#utility.yul\":2463:2579   */\n    tag_119:\n        /* \"#utility.yul\":2533:2554   */\n      tag_167\n        /* \"#utility.yul\":2548:2553   */\n      dup2\n        /* \"#utility.yul\":2533:2554   */\n      tag_118\n      jump\t// in\n    tag_167:\n        /* \"#utility.yul\":2526:2531   */\n      dup2\n        /* \"#utility.yul\":2523:2555   */\n      eq\n        /* \"#utility.yul\":2513:2573   */\n      tag_168\n      jumpi\n        /* \"#utility.yul\":2569:2570   */\n      0x00\n        /* \"#utility.yul\":2566:2567   */\n      dup1\n        /* \"#utility.yul\":2559:2571   */\n      revert\n        /* \"#utility.yul\":2513:2573   */\n    tag_168:\n        /* \"#utility.yul\":2463:2579   */\n      pop\n      jump\t// out\n        /* \"#utility.yul\":2585:2718   */\n    tag_120:\n        /* \"#utility.yul\":2628:2633   */\n      0x00\n        /* \"#utility.yul\":2666:2672   */\n      dup2\n        /* \"#utility.yul\":2653:2673   */\n      calldataload\n        /* \"#utility.yul\":2644:2673   */\n      swap1\n      pop\n        /* \"#utility.yul\":2682:2712   */\n      tag_170\n        /* \"#utility.yul\":2706:2711   */\n      dup2\n        /* \"#utility.yul\":2682:2712   */\n      tag_119\n      jump\t// in\n    tag_170:\n        /* \"#utility.yul\":2585:2718   */\n      swap3\n      swap2\n      pop\n      pop\n      jump\t// out\n        /* \"#utility.yul\":2724:3192   */\n    tag_23:\n        /* \"#utility.yul\":2789:2795   */\n      0x00\n        /* \"#utility.yul\":2797:2803   */\n      dup1\n        /* \"#utility.yul\":2846:2848   */\n      0x40\n        /* \"#utility.yul\":2834:2843   */\n      dup4\n        /* \"#utility.yul\":2825:2832   */\n      dup6\n        /* \"#utility.yul\":2821:2844   */\n      sub\n        /* \"#utility.yul\":2817:2849   */\n      slt\n        /* \"#utility.yul\":2814:2933   */\n      iszero\n      tag_172\n      jumpi\n        /* \"#utility.yul\":2852:2931   */\n      tag_173\n      tag_113\n      jump\t// in\n    tag_173:\n        /* \"#utility.yul\":2814:2933   */\n    tag_172:\n        /* \"#utility.yul\":2972:2973   */\n      0x00\n        /* \"#utility.yul\":2997:3050   */\n      tag_174\n        /* \"#utility.yul\":3042:3049   */\n      dup6\n        /* \"#utility.yul\":3033:3039   */\n      dup3\n        /* \"#utility.yul\":3022:3031   */\n      dup7\n        /* \"#utility.yul\":3018:3040   */\n      add\n        /* \"#utility.yul\":2997:3050   */\n      tag_117\n      jump\t// in\n    tag_174:\n        /* \"#utility.yul\":2987:3050   */\n      swap3\n      pop\n        /* \"#utility.yul\":2943:3060   */\n      pop\n        /* \"#utility.yul\":3099:3101   */\n      0x20\n        /* \"#utility.yul\":3125:3175   */\n      tag_175\n        /* \"#utility.yul\":3167:3174   */\n      dup6\n        /* \"#utility.yul\":3158:3164   */\n      dup3\n        /* \"#utility.yul\":3147:3156   */\n      dup7\n        /* \"#utility.yul\":3143:3165   */\n      add\n        /* \"#utility.yul\":3125:3175   */\n      tag_120\n      jump\t// in\n    tag_175:\n        /* \"#utility.yul\":3115:3175   */\n      swap2\n      pop\n        /* \"#utility.yul\":3070:3185   */\n      pop\n        /* \"#utility.yul\":2724:3192   */\n      swap3\n      pop\n      swap3\n      swap1\n      pop\n      jump\t// out\n        /* \"#utility.yul\":3198:3307   */\n    tag_121:\n        /* \"#utility.yul\":3279:3300   */\n      tag_177\n        /* \"#utility.yul\":3294:3299   */\n      dup2\n        /* \"#utility.yul\":3279:3300   */\n      tag_118\n      jump\t// in\n    tag_177:\n        /* \"#utility.yul\":3274:3277   */\n      dup3\n        /* \"#utility.yul\":3267:3301   */\n      mstore\n        /* \"#utility.yul\":3198:3307   */\n      pop\n      pop\n      jump\t// out\n        /* \"#utility.yul\":3313:3523   */\n    tag_26:\n        /* \"#utility.yul\":3400:3404   */\n      0x00\n        /* \"#utility.yul\":3438:3440   */\n      0x20\n        /* \"#utility.yul\":3427:3436   */\n      dup3\n        /* \"#utility.yul\":3423:3441   */\n      add\n        /* \"#utility.yul\":3415:3441   */\n      swap1\n      pop\n        /* \"#utility.yul\":3451:3516   */\n      tag_179\n        /* \"#utility.yul\":3513:3514   */\n      0x00\n        /* \"#utility.yul\":3502:3511   */\n      dup4\n        /* \"#utility.yul\":3498:3515   */\n      add\n        /* \"#utility.yul\":3489:3495   */\n      dup5\n        /* \"#utility.yul\":3451:3516   */\n      tag_121\n      jump\t// in\n    tag_179:\n        /* \"#utility.yul\":3313:3523   */\n      swap3\n      swap2\n      pop\n      pop\n      jump\t// out\n        /* \"#utility.yul\":3529:3655   */\n    tag_122:\n        /* \"#utility.yul\":3566:3573   */\n      0x00\n        /* \"#utility.yul\":3606:3648   */\n      0xffffffffffffffffffffffffffffffffffffffff\n        /* \"#utility.yul\":3599:3604   */\n      dup3\n        /* \"#utility.yul\":3595:3649   */\n      and\n        /* \"#utility.yul\":3584:3649   */\n      swap1\n      pop\n        /* \"#utility.yul\":3529:3655   */\n      swap2\n      swap1\n      pop\n      jump\t// out\n        /* \"#utility.yul\":3661:3757   */\n    tag_123:\n        /* \"#utility.yul\":3698:3705   */\n      0x00\n        /* \"#utility.yul\":3727:3751   */\n      tag_182\n        /* \"#utility.yul\":3745:3750   */\n      dup3\n        /* \"#utility.yul\":3727:3751   */\n      tag_122\n      jump\t// in\n    tag_182:\n        /* \"#utility.yul\":3716:3751   */\n      swap1\n      pop\n        /* \"#utility.yul\":3661:3757   */\n      swap2\n      swap1\n      pop\n      jump\t// out\n        /* \"#utility.yul\":3763:3885   */\n    tag_124:\n        /* \"#utility.yul\":3836:3860   */\n      tag_184\n        /* \"#utility.yul\":3854:3859   */\n      dup2\n        /* \"#utility.yul\":3836:3860   */\n      tag_123\n      jump\t// in\n    tag_184:\n        /* \"#utility.yul\":3829:3834   */\n      dup2\n        /* \"#utility.yul\":3826:3861   */\n      eq\n        /* \"#utility.yul\":3816:3879   */\n      tag_185\n      jumpi\n        /* \"#utility.yul\":3875:3876   */\n      0x00\n        /* \"#utility.yul\":3872:3873   */\n      dup1\n        /* \"#utility.yul\":3865:3877   */\n      revert\n        /* \"#utility.yul\":3816:3879   */\n    tag_185:\n        /* \"#utility.yul\":3763:3885   */\n      pop\n      jump\t// out\n        /* \"#utility.yul\":3891:4030   */\n    tag_125:\n        /* \"#utility.yul\":3937:3942   */\n      0x00\n        /* \"#utility.yul\":3975:3981   */\n      dup2\n        /* \"#utility.yul\":3962:3982   */\n      calldataload\n        /* \"#utility.yul\":3953:3982   */\n      swap1\n      pop\n        /* \"#utility.yul\":3991:4024   */\n      tag_187\n        /* \"#utility.yul\":4018:4023   */\n      dup2\n        /* \"#utility.yul\":3991:4024   */\n      tag_124\n      jump\t// in\n    tag_187:\n        /* \"#utility.yul\":3891:4030   */\n      swap3\n      swap2\n      pop\n      pop\n      jump\t// out\n        /* \"#utility.yul\":4036:4795   */\n    tag_29:\n        /* \"#utility.yul\":4119:4125   */\n      0x00\n        /* \"#utility.yul\":4127:4133   */\n      dup1\n        /* \"#utility.yul\":4135:4141   */\n      0x00\n        /* \"#utility.yul\":4143:4149   */\n      dup1\n        /* \"#utility.yul\":4192:4195   */\n      0x80\n        /* \"#utility.yul\":4180:4189   */\n      dup6\n        /* \"#utility.yul\":4171:4178   */\n      dup8\n        /* \"#utility.yul\":4167:4190   */\n      sub\n        /* \"#utility.yul\":4163:4196   */\n      slt\n        /* \"#utility.yul\":4160:4280   */\n      iszero\n      tag_189\n      jumpi\n        /* \"#utility.yul\":4199:4278   */\n      tag_190\n      tag_113\n      jump\t// in\n    tag_190:\n        /* \"#utility.yul\":4160:4280   */\n    tag_189:\n        /* \"#utility.yul\":4319:4320   */\n      0x00\n        /* \"#utility.yul\":4344:4397   */\n      tag_191\n        /* \"#utility.yul\":4389:4396   */\n      dup8\n        /* \"#utility.yul\":4380:4386   */\n      dup3\n        /* \"#utility.yul\":4369:4378   */\n      dup9\n        /* \"#utility.yul\":4365:4387   */\n      add\n        /* \"#utility.yul\":4344:4397   */\n      tag_125\n      jump\t// in\n    tag_191:\n        /* \"#utility.yul\":4334:4397   */\n      swap5\n      pop\n        /* \"#utility.yul\":4290:4407   */\n      pop\n        /* \"#utility.yul\":4446:4448   */\n      0x20\n        /* \"#utility.yul\":4472:4525   */\n      tag_192\n        /* \"#utility.yul\":4517:4524   */\n      dup8\n        /* \"#utility.yul\":4508:4514   */\n      dup3\n        /* \"#utility.yul\":4497:4506   */\n      dup9\n        /* \"#utility.yul\":4493:4515   */\n      add\n        /* \"#utility.yul\":4472:4525   */\n      tag_125\n      jump\t// in\n    tag_192:\n        /* \"#utility.yul\":4462:4525   */\n      swap4\n      pop\n        /* \"#utility.yul\":4417:4535   */\n      pop\n        /* \"#utility.yul\":4574:4576   */\n      0x40\n        /* \"#utility.yul\":4600:4653   */\n      tag_193\n        /* \"#utility.yul\":4645:4652   */\n      dup8\n        /* \"#utility.yul\":4636:4642   */\n      dup3\n        /* \"#utility.yul\":4625:4634   */\n      dup9\n        /* \"#utility.yul\":4621:4643   */\n      add\n        /* \"#utility.yul\":4600:4653   */\n      tag_117\n      jump\t// in\n    tag_193:\n        /* \"#utility.yul\":4590:4653   */\n      swap3\n      pop\n        /* \"#utility.yul\":4545:4663   */\n      pop\n        /* \"#utility.yul\":4702:4704   */\n      0x60\n        /* \"#utility.yul\":4728:4778   */\n      tag_194\n        /* \"#utility.yul\":4770:4777   */\n      dup8\n        /* \"#utility.yul\":4761:4767   */\n      dup3\n        /* \"#utility.yul\":4750:4759   */\n      dup9\n        /* \"#utility.yul\":4746:4768   */\n      add\n        /* \"#utility.yul\":4728:4778   */\n      tag_120\n      jump\t// in\n    tag_194:\n        /* \"#utility.yul\":4718:4778   */\n      swap2\n      pop\n        /* \"#utility.yul\":4673:4788   */\n      pop\n        /* \"#utility.yul\":4036:4795   */\n      swap3\n      swap6\n      swap2\n      swap5\n      pop\n      swap3\n      pop\n      jump\t// out\n        /* \"#utility.yul\":4801:5306   */\n    tag_35:\n        /* \"#utility.yul\":4954:4958   */\n      0x00\n        /* \"#utility.yul\":4992:4995   */\n      0x80\n        /* \"#utility.yul\":4981:4990   */\n      dup3\n        /* \"#utility.yul\":4977:4996   */\n      add\n        /* \"#utility.yul\":4969:4996   */\n      swap1\n      pop\n        /* \"#utility.yul\":5006:5071   */\n      tag_196\n        /* \"#utility.yul\":5068:5069   */\n      0x00\n        /* \"#utility.yul\":5057:5066   */\n      dup4\n        /* \"#utility.yul\":5053:5070   */\n      add\n        /* \"#utility.yul\":5044:5050   */\n      dup8\n        /* \"#utility.yul\":5006:5071   */\n      tag_121\n      jump\t// in\n    tag_196:\n        /* \"#utility.yul\":5081:5147   */\n      tag_197\n        /* \"#utility.yul\":5143:5145   */\n      0x20\n        /* \"#utility.yul\":5132:5141   */\n      dup4\n        /* \"#utility.yul\":5128:5146   */\n      add\n        /* \"#utility.yul\":5119:5125   */\n      dup7\n        /* \"#utility.yul\":5081:5147   */\n      tag_121\n      jump\t// in\n    tag_197:\n        /* \"#utility.yul\":5157:5223   */\n      tag_198\n        /* \"#utility.yul\":5219:5221   */\n      0x40\n        /* \"#utility.yul\":5208:5217   */\n      dup4\n        /* \"#utility.yul\":5204:5222   */\n      add\n        /* \"#utility.yul\":5195:5201   */\n      dup6\n        /* \"#utility.yul\":5157:5223   */\n      tag_121\n      jump\t// in\n    tag_198:\n        /* \"#utility.yul\":5233:5299   */\n      tag_199\n        /* \"#utility.yul\":5295:5297   */\n      0x60\n        /* \"#utility.yul\":5284:5293   */\n      dup4\n        /* \"#utility.yul\":5280:5298   */\n      add\n        /* \"#utility.yul\":5271:5277   */\n      dup5\n        /* \"#utility.yul\":5233:5299   */\n      tag_121\n      jump\t// in\n    tag_199:\n        /* \"#utility.yul\":4801:5306   */\n      swap6\n      swap5\n      pop\n      pop\n      pop\n      pop\n      pop\n      jump\t// out\n        /* \"#utility.yul\":5312:5430   */\n    tag_126:\n        /* \"#utility.yul\":5399:5423   */\n      tag_201\n        /* \"#utility.yul\":5417:5422   */\n      dup2\n        /* \"#utility.yul\":5399:5423   */\n      tag_115\n      jump\t// in\n    tag_201:\n        /* \"#utility.yul\":5394:5397   */\n      dup3\n        /* \"#utility.yul\":5387:5424   */\n      mstore\n        /* \"#utility.yul\":5312:5430   */\n      pop\n      pop\n      jump\t// out\n        /* \"#utility.yul\":5436:5554   */\n    tag_127:\n        /* \"#utility.yul\":5523:5547   */\n      tag_203\n        /* \"#utility.yul\":5541:5546   */\n      dup2\n        /* \"#utility.yul\":5523:5547   */\n      tag_123\n      jump\t// in\n    tag_203:\n        /* \"#utility.yul\":5518:5521   */\n      dup3\n        /* \"#utility.yul\":5511:5548   */\n      mstore\n        /* \"#utility.yul\":5436:5554   */\n      pop\n      pop\n      jump\t// out\n        /* \"#utility.yul\":5560:6323   */\n    tag_40:\n        /* \"#utility.yul\":5787:5791   */\n      0x00\n        /* \"#utility.yul\":5825:5828   */\n      0xc0\n        /* \"#utility.yul\":5814:5823   */\n      dup3\n        /* \"#utility.yul\":5810:5829   */\n      add\n        /* \"#utility.yul\":5802:5829   */\n      swap1\n      pop\n        /* \"#utility.yul\":5839:5910   */\n      tag_205\n        /* \"#utility.yul\":5907:5908   */\n      0x00\n        /* \"#utility.yul\":5896:5905   */\n      dup4\n        /* \"#utility.yul\":5892:5909   */\n      add\n        /* \"#utility.yul\":5883:5889   */\n      dup10\n        /* \"#utility.yul\":5839:5910   */\n      tag_126\n      jump\t// in\n    tag_205:\n        /* \"#utility.yul\":5920:5992   */\n      tag_206\n        /* \"#utility.yul\":5988:5990   */\n      0x20\n        /* \"#utility.yul\":5977:5986   */\n      dup4\n        /* \"#utility.yul\":5973:5991   */\n      add\n        /* \"#utility.yul\":5964:5970   */\n      dup9\n        /* \"#utility.yul\":5920:5992   */\n      tag_127\n      jump\t// in\n    tag_206:\n        /* \"#utility.yul\":6002:6074   */\n      tag_207\n        /* \"#utility.yul\":6070:6072   */\n      0x40\n        /* \"#utility.yul\":6059:6068   */\n      dup4\n        /* \"#utility.yul\":6055:6073   */\n      add\n        /* \"#utility.yul\":6046:6052   */\n      dup8\n        /* \"#utility.yul\":6002:6074   */\n      tag_127\n      jump\t// in\n    tag_207:\n        /* \"#utility.yul\":6084:6156   */\n      tag_208\n        /* \"#utility.yul\":6152:6154   */\n      0x60\n        /* \"#utility.yul\":6141:6150   */\n      dup4\n        /* \"#utility.yul\":6137:6155   */\n      add\n        /* \"#utility.yul\":6128:6134   */\n      dup7\n        /* \"#utility.yul\":6084:6156   */\n      tag_126\n      jump\t// in\n    tag_208:\n        /* \"#utility.yul\":6166:6233   */\n      tag_209\n        /* \"#utility.yul\":6228:6231   */\n      0x80\n        /* \"#utility.yul\":6217:6226   */\n      dup4\n        /* \"#utility.yul\":6213:6232   */\n      add\n        /* \"#utility.yul\":6204:6210   */\n      dup6\n        /* \"#utility.yul\":6166:6233   */\n      tag_121\n      jump\t// in\n    tag_209:\n        /* \"#utility.yul\":6243:6316   */\n      tag_210\n        /* \"#utility.yul\":6311:6314   */\n      0xa0\n        /* \"#utility.yul\":6300:6309   */\n      dup4\n        /* \"#utility.yul\":6296:6315   */\n      add\n        /* \"#utility.yul\":6287:6293   */\n      dup5\n        /* \"#utility.yul\":6243:6316   */\n      tag_126\n      jump\t// in\n    tag_210:\n        /* \"#utility.yul\":5560:6323   */\n      swap8\n      swap7\n      pop\n      pop\n      pop\n      pop\n      pop\n      pop\n      pop\n      jump\t// out\n        /* \"#utility.yul\":6329:6443   */\n    tag_128:\n        /* \"#utility.yul\":6396:6402   */\n      0x00\n        /* \"#utility.yul\":6430:6435   */\n      dup2\n        /* \"#utility.yul\":6424:6436   */\n      mload\n        /* \"#utility.yul\":6414:6436   */\n      swap1\n      pop\n        /* \"#utility.yul\":6329:6443   */\n      swap2\n      swap1\n      pop\n      jump\t// out\n        /* \"#utility.yul\":6449:6633   */\n    tag_129:\n        /* \"#utility.yul\":6548:6559   */\n      0x00\n        /* \"#utility.yul\":6582:6588   */\n      dup3\n        /* \"#utility.yul\":6577:6580   */\n      dup3\n        /* \"#utility.yul\":6570:6589   */\n      mstore\n        /* \"#utility.yul\":6622:6626   */\n      0x20\n        /* \"#utility.yul\":6617:6620   */\n      dup3\n        /* \"#utility.yul\":6613:6627   */\n      add\n        /* \"#utility.yul\":6598:6627   */\n      swap1\n      pop\n        /* \"#utility.yul\":6449:6633   */\n      swap3\n      swap2\n      pop\n      pop\n      jump\t// out\n        /* \"#utility.yul\":6639:6771   */\n    tag_130:\n        /* \"#utility.yul\":6706:6710   */\n      0x00\n        /* \"#utility.yul\":6729:6732   */\n      dup2\n        /* \"#utility.yul\":6721:6732   */\n      swap1\n      pop\n        /* \"#utility.yul\":6759:6763   */\n      0x20\n        /* \"#utility.yul\":6754:6757   */\n      dup3\n        /* \"#utility.yul\":6750:6764   */\n      add\n        /* \"#utility.yul\":6742:6764   */\n      swap1\n      pop\n        /* \"#utility.yul\":6639:6771   */\n      swap2\n      swap1\n      pop\n      jump\t// out\n        /* \"#utility.yul\":6777:6885   */\n    tag_131:\n        /* \"#utility.yul\":6854:6878   */\n      tag_215\n        /* \"#utility.yul\":6872:6877   */\n      dup2\n        /* \"#utility.yul\":6854:6878   */\n      tag_115\n      jump\t// in\n    tag_215:\n        /* \"#utility.yul\":6849:6852   */\n      dup3\n        /* \"#utility.yul\":6842:6879   */\n      mstore\n        /* \"#utility.yul\":6777:6885   */\n      pop\n      pop\n      jump\t// out\n        /* \"#utility.yul\":6891:7070   */\n    tag_132:\n        /* \"#utility.yul\":6960:6970   */\n      0x00\n        /* \"#utility.yul\":6981:7027   */\n      tag_217\n        /* \"#utility.yul\":7023:7026   */\n      dup4\n        /* \"#utility.yul\":7015:7021   */\n      dup4\n        /* \"#utility.yul\":6981:7027   */\n      tag_131\n      jump\t// in\n    tag_217:\n        /* \"#utility.yul\":7059:7063   */\n      0x20\n        /* \"#utility.yul\":7054:7057   */\n      dup4\n        /* \"#utility.yul\":7050:7064   */\n      add\n        /* \"#utility.yul\":7036:7064   */\n      swap1\n      pop\n        /* \"#utility.yul\":6891:7070   */\n      swap3\n      swap2\n      pop\n      pop\n      jump\t// out\n        /* \"#utility.yul\":7076:7189   */\n    tag_133:\n        /* \"#utility.yul\":7146:7150   */\n      0x00\n        /* \"#utility.yul\":7178:7182   */\n      0x20\n        /* \"#utility.yul\":7173:7176   */\n      dup3\n        /* \"#utility.yul\":7169:7183   */\n      add\n        /* \"#utility.yul\":7161:7183   */\n      swap1\n      pop\n        /* \"#utility.yul\":7076:7189   */\n      swap2\n      swap1\n      pop\n      jump\t// out\n        /* \"#utility.yul\":7225:7957   */\n    tag_134:\n        /* \"#utility.yul\":7344:7347   */\n      0x00\n        /* \"#utility.yul\":7373:7427   */\n      tag_220\n        /* \"#utility.yul\":7421:7426   */\n      dup3\n        /* \"#utility.yul\":7373:7427   */\n      tag_128\n      jump\t// in\n    tag_220:\n        /* \"#utility.yul\":7443:7529   */\n      tag_221\n        /* \"#utility.yul\":7522:7528   */\n      dup2\n        /* \"#utility.yul\":7517:7520   */\n      dup6\n        /* \"#utility.yul\":7443:7529   */\n      tag_129\n      jump\t// in\n    tag_221:\n        /* \"#utility.yul\":7436:7529   */\n      swap4\n      pop\n        /* \"#utility.yul\":7553:7609   */\n      tag_222\n        /* \"#utility.yul\":7603:7608   */\n      dup4\n        /* \"#utility.yul\":7553:7609   */\n      tag_130\n      jump\t// in\n    tag_222:\n        /* \"#utility.yul\":7632:7639   */\n      dup1\n        /* \"#utility.yul\":7663:7664   */\n      0x00\n        /* \"#utility.yul\":7648:7932   */\n    tag_223:\n        /* \"#utility.yul\":7673:7679   */\n      dup4\n        /* \"#utility.yul\":7670:7671   */\n      dup2\n        /* \"#utility.yul\":7667:7680   */\n      lt\n        /* \"#utility.yul\":7648:7932   */\n      iszero\n      tag_225\n      jumpi\n        /* \"#utility.yul\":7749:7755   */\n      dup2\n        /* \"#utility.yul\":7743:7756   */\n      mload\n        /* \"#utility.yul\":7776:7839   */\n      tag_226\n        /* \"#utility.yul\":7835:7838   */\n      dup9\n        /* \"#utility.yul\":7820:7833   */\n      dup3\n        /* \"#utility.yul\":7776:7839   */\n      tag_132\n      jump\t// in\n    tag_226:\n        /* \"#utility.yul\":7769:7839   */\n      swap8\n      pop\n        /* \"#utility.yul\":7862:7922   */\n      tag_227\n        /* \"#utility.yul\":7915:7921   */\n      dup4\n        /* \"#utility.yul\":7862:7922   */\n      tag_133\n      jump\t// in\n    tag_227:\n        /* \"#utility.yul\":7852:7922   */\n      swap3\n      pop\n        /* \"#utility.yul\":7708:7932   */\n      pop\n        /* \"#utility.yul\":7695:7696   */\n      0x01\n        /* \"#utility.yul\":7692:7693   */\n      dup2\n        /* \"#utility.yul\":7688:7697   */\n      add\n        /* \"#utility.yul\":7683:7697   */\n      swap1\n      pop\n        /* \"#utility.yul\":7648:7932   */\n      jump(tag_223)\n    tag_225:\n        /* \"#utility.yul\":7652:7666   */\n      pop\n        /* \"#utility.yul\":7948:7951   */\n      dup6\n        /* \"#utility.yul\":7941:7951   */\n      swap4\n      pop\n        /* \"#utility.yul\":7349:7957   */\n      pop\n      pop\n      pop\n        /* \"#utility.yul\":7225:7957   */\n      swap3\n      swap2\n      pop\n      pop\n      jump\t// out\n        /* \"#utility.yul\":7963:8336   */\n    tag_44:\n        /* \"#utility.yul\":8106:8110   */\n      0x00\n        /* \"#utility.yul\":8144:8146   */\n      0x20\n        /* \"#utility.yul\":8133:8142   */\n      dup3\n        /* \"#utility.yul\":8129:8147   */\n      add\n        /* \"#utility.yul\":8121:8147   */\n      swap1\n      pop\n        /* \"#utility.yul\":8193:8202   */\n      dup2\n        /* \"#utility.yul\":8187:8191   */\n      dup2\n        /* \"#utility.yul\":8183:8203   */\n      sub\n        /* \"#utility.yul\":8179:8180   */\n      0x00\n        /* \"#utility.yul\":8168:8177   */\n      dup4\n        /* \"#utility.yul\":8164:8181   */\n      add\n        /* \"#utility.yul\":8157:8204   */\n      mstore\n        /* \"#utility.yul\":8221:8329   */\n      tag_229\n        /* \"#utility.yul\":8324:8328   */\n      dup2\n        /* \"#utility.yul\":8315:8321   */\n      dup5\n        /* \"#utility.yul\":8221:8329   */\n      tag_134\n      jump\t// in\n    tag_229:\n        /* \"#utility.yul\":8213:8329   */\n      swap1\n      pop\n        /* \"#utility.yul\":7963:8336   */\n      swap3\n      swap2\n      pop\n      pop\n      jump\t// out\n        /* \"#utility.yul\":8342:9089   */\n    tag_50:\n        /* \"#utility.yul\":8419:8425   */\n      0x00\n        /* \"#utility.yul\":8427:8433   */\n      dup1\n        /* \"#utility.yul\":8435:8441   */\n      0x00\n        /* \"#utility.yul\":8443:8449   */\n      dup1\n        /* \"#utility.yul\":8492:8495   */\n      0x80\n        /* \"#utility.yul\":8480:8489   */\n      dup6\n        /* \"#utility.yul\":8471:8478   */\n      dup8\n        /* \"#utility.yul\":8467:8490   */\n      sub\n        /* \"#utility.yul\":8463:8496   */\n      slt\n        /* \"#utility.yul\":8460:8580   */\n      iszero\n      tag_231\n      jumpi\n        /* \"#utility.yul\":8499:8578   */\n      tag_232\n      tag_113\n      jump\t// in\n    tag_232:\n        /* \"#utility.yul\":8460:8580   */\n    tag_231:\n        /* \"#utility.yul\":8619:8620   */\n      0x00\n        /* \"#utility.yul\":8644:8697   */\n      tag_233\n        /* \"#utility.yul\":8689:8696   */\n      dup8\n        /* \"#utility.yul\":8680:8686   */\n      dup3\n        /* \"#utility.yul\":8669:8678   */\n      dup9\n        /* \"#utility.yul\":8665:8687   */\n      add\n        /* \"#utility.yul\":8644:8697   */\n      tag_117\n      jump\t// in\n    tag_233:\n        /* \"#utility.yul\":8634:8697   */\n      swap5\n      pop\n        /* \"#utility.yul\":8590:8707   */\n      pop\n        /* \"#utility.yul\":8746:8748   */\n      0x20\n        /* \"#utility.yul\":8772:8822   */\n      tag_234\n        /* \"#utility.yul\":8814:8821   */\n      dup8\n        /* \"#utility.yul\":8805:8811   */\n      dup3\n        /* \"#utility.yul\":8794:8803   */\n      dup9\n        /* \"#utility.yul\":8790:8812   */\n      add\n        /* \"#utility.yul\":8772:8822   */\n      tag_120\n      jump\t// in\n    tag_234:\n        /* \"#utility.yul\":8762:8822   */\n      swap4\n      pop\n        /* \"#utility.yul\":8717:8832   */\n      pop\n        /* \"#utility.yul\":8871:8873   */\n      0x40\n        /* \"#utility.yul\":8897:8947   */\n      tag_235\n        /* \"#utility.yul\":8939:8946   */\n      dup8\n        /* \"#utility.yul\":8930:8936   */\n      dup3\n        /* \"#utility.yul\":8919:8928   */\n      dup9\n        /* \"#utility.yul\":8915:8937   */\n      add\n        /* \"#utility.yul\":8897:8947   */\n      tag_120\n      jump\t// in\n    tag_235:\n        /* \"#utility.yul\":8887:8947   */\n      swap3\n      pop\n        /* \"#utility.yul\":8842:8957   */\n      pop\n        /* \"#utility.yul\":8996:8998   */\n      0x60\n        /* \"#utility.yul\":9022:9072   */\n      tag_236\n        /* \"#utility.yul\":9064:9071   */\n      dup8\n        /* \"#utility.yul\":9055:9061   */\n      dup3\n        /* \"#utility.yul\":9044:9053   */\n      dup9\n        /* \"#utility.yul\":9040:9062   */\n      add\n        /* \"#utility.yul\":9022:9072   */\n      tag_120\n      jump\t// in\n    tag_236:\n        /* \"#utility.yul\":9012:9072   */\n      swap2\n      pop\n        /* \"#utility.yul\":8967:9082   */\n      pop\n        /* \"#utility.yul\":8342:9089   */\n      swap3\n      swap6\n      swap2\n      swap5\n      pop\n      swap3\n      pop\n      jump\t// out\n        /* \"#utility.yul\":9095:9275   */\n    tag_135:\n        /* \"#utility.yul\":9143:9220   */\n      0x4e487b7100000000000000000000000000000000000000000000000000000000\n        /* \"#utility.yul\":9140:9141   */\n      0x00\n        /* \"#utility.yul\":9133:9221   */\n      mstore\n        /* \"#utility.yul\":9240:9244   */\n      0x22\n        /* \"#utility.yul\":9237:9238   */\n      0x04\n        /* \"#utility.yul\":9230:9245   */\n      mstore\n        /* \"#utility.yul\":9264:9268   */\n      0x24\n        /* \"#utility.yul\":9261:9262   */\n      0x00\n        /* \"#utility.yul\":9254:9269   */\n      revert\n        /* \"#utility.yul\":9281:9601   */\n    tag_53:\n        /* \"#utility.yul\":9325:9331   */\n      0x00\n        /* \"#utility.yul\":9362:9363   */\n      0x02\n        /* \"#utility.yul\":9356:9360   */\n      dup3\n        /* \"#utility.yul\":9352:9364   */\n      div\n        /* \"#utility.yul\":9342:9364   */\n      swap1\n      pop\n        /* \"#utility.yul\":9409:9410   */\n      0x01\n        /* \"#utility.yul\":9403:9407   */\n      dup3\n        /* \"#utility.yul\":9399:9411   */\n      and\n        /* \"#utility.yul\":9430:9448   */\n      dup1\n        /* \"#utility.yul\":9420:9501   */\n      tag_239\n      jumpi\n        /* \"#utility.yul\":9486:9490   */\n      0x7f\n        /* \"#utility.yul\":9478:9484   */\n      dup3\n        /* \"#utility.yul\":9474:9491   */\n      and\n        /* \"#utility.yul\":9464:9491   */\n      swap2\n      pop\n        /* \"#utility.yul\":9420:9501   */\n    tag_239:\n        /* \"#utility.yul\":9548:9550   */\n      0x20\n        /* \"#utility.yul\":9540:9546   */\n      dup3\n        /* \"#utility.yul\":9537:9551   */\n      lt\n        /* \"#utility.yul\":9517:9535   */\n      dup2\n        /* \"#utility.yul\":9514:9552   */\n      sub\n        /* \"#utility.yul\":9511:9595   */\n      tag_240\n      jumpi\n        /* \"#utility.yul\":9567:9585   */\n      tag_241\n      tag_135\n      jump\t// in\n    tag_241:\n        /* \"#utility.yul\":9511:9595   */\n    tag_240:\n        /* \"#utility.yul\":9332:9601   */\n      pop\n        /* \"#utility.yul\":9281:9601   */\n      swap2\n      swap1\n      pop\n      jump\t// out\n        /* \"#utility.yul\":9607:9927   */\n    tag_61:\n        /* \"#utility.yul\":9722:9726   */\n      0x00\n        /* \"#utility.yul\":9760:9762   */\n      0x40\n        /* \"#utility.yul\":9749:9758   */\n      dup3\n        /* \"#utility.yul\":9745:9763   */\n      add\n        /* \"#utility.yul\":9737:9763   */\n      swap1\n      pop\n        /* \"#utility.yul\":9773:9844   */\n      tag_243\n        /* \"#utility.yul\":9841:9842   */\n      0x00\n        /* \"#utility.yul\":9830:9839   */\n      dup4\n        /* \"#utility.yul\":9826:9843   */\n      add\n        /* \"#utility.yul\":9817:9823   */\n      dup6\n        /* \"#utility.yul\":9773:9844   */\n      tag_126\n      jump\t// in\n    tag_243:\n        /* \"#utility.yul\":9854:9920   */\n      tag_244\n        /* \"#utility.yul\":9916:9918   */\n      0x20\n        /* \"#utility.yul\":9905:9914   */\n      dup4\n        /* \"#utility.yul\":9901:9919   */\n      add\n        /* \"#utility.yul\":9892:9898   */\n      dup5\n        /* \"#utility.yul\":9854:9920   */\n      tag_121\n      jump\t// in\n    tag_244:\n        /* \"#utility.yul\":9607:9927   */\n      swap4\n      swap3\n      pop\n      pop\n      pop\n      jump\t// out\n        /* \"#utility.yul\":9933:10113   */\n    tag_136:\n        /* \"#utility.yul\":9981:10058   */\n      0x4e487b7100000000000000000000000000000000000000000000000000000000\n        /* \"#utility.yul\":9978:9979   */\n      0x00\n        /* \"#utility.yul\":9971:10059   */\n      mstore\n        /* \"#utility.yul\":10078:10082   */\n      0x11\n        /* \"#utility.yul\":10075:10076   */\n      0x04\n        /* \"#utility.yul\":10068:10083   */\n      mstore\n        /* \"#utility.yul\":10102:10106   */\n      0x24\n        /* \"#utility.yul\":10099:10100   */\n      0x00\n        /* \"#utility.yul\":10092:10107   */\n      revert\n        /* \"#utility.yul\":10119:10352   */\n    tag_66:\n        /* \"#utility.yul\":10158:10161   */\n      0x00\n        /* \"#utility.yul\":10181:10205   */\n      tag_247\n        /* \"#utility.yul\":10199:10204   */\n      dup3\n        /* \"#utility.yul\":10181:10205   */\n      tag_115\n      jump\t// in\n    tag_247:\n        /* \"#utility.yul\":10172:10205   */\n      swap2\n      pop\n        /* \"#utility.yul\":10227:10293   */\n      0xffffffffffffffffffffffffffffffffffffffffffffffffffffffffffffffff\n        /* \"#utility.yul\":10220:10225   */\n      dup3\n        /* \"#utility.yul\":10217:10294   */\n      sub\n        /* \"#utility.yul\":10214:10317   */\n      tag_248\n      jumpi\n        /* \"#utility.yul\":10297:10315   */\n      tag_249\n      tag_136\n      jump\t// in\n    tag_249:\n        /* \"#utility.yul\":10214:10317   */\n    tag_248:\n        /* \"#utility.yul\":10344:10345   */\n      0x01\n        /* \"#utility.yul\":10337:10342   */\n      dup3\n        /* \"#utility.yul\":10333:10346   */\n      add\n        /* \"#utility.yul\":10326:10346   */\n      swap1\n      pop\n        /* \"#utility.yul\":10119:10352   */\n      swap2\n      swap1\n      pop\n      jump\t// out\n        /* \"#utility.yul\":10358:10690   */\n    tag_68:\n        /* \"#utility.yul\":10479:10483   */\n      0x00\n        /* \"#utility.yul\":10517:10519   */\n      0x40\n        /* \"#utility.yul\":10506:10515   */\n      dup3\n        /* \"#utility.yul\":10502:10520   */\n      add\n        /* \"#utility.yul\":10494:10520   */\n      swap1\n      pop\n        /* \"#utility.yul\":10530:10601   */\n      tag_251\n        /* \"#utility.yul\":10598:10599   */\n      0x00\n        /* \"#utility.yul\":10587:10596   */\n      dup4\n        /* \"#utility.yul\":10583:10600   */\n      add\n        /* \"#utility.yul\":10574:10580   */\n      dup6\n        /* \"#utility.yul\":10530:10601   */\n      tag_126\n      jump\t// in\n    tag_251:\n        /* \"#utility.yul\":10611:10683   */\n      tag_252\n        /* \"#utility.yul\":10679:10681   */\n      0x20\n        /* \"#utility.yul\":10668:10677   */\n      dup4\n        /* \"#utility.yul\":10664:10682   */\n      add\n        /* \"#utility.yul\":10655:10661   */\n      dup5\n        /* \"#utility.yul\":10611:10683   */\n      tag_126\n      jump\t// in\n    tag_252:\n        /* \"#utility.yul\":10358:10690   */\n      swap4\n      swap3\n      pop\n      pop\n      pop\n      jump\t// out\n        /* \"#utility.yul\":10696:10876   */\n    tag_72:\n        /* \"#utility.yul\":10744:10821   */\n      0x4e487b7100000000000000000000000000000000000000000000000000000000\n        /* \"#utility.yul\":10741:10742   */\n      0x00\n        /* \"#utility.yul\":10734:10822   */\n      mstore\n        /* \"#utility.yul\":10841:10845   */\n      0x41\n        /* \"#utility.yul\":10838:10839   */\n      0x04\n        /* \"#utility.yul\":10831:10846   */\n      mstore\n        /* \"#utility.yul\":10865:10869   */\n      0x24\n        /* \"#utility.yul\":10862:10863   */\n      0x00\n        /* \"#utility.yul\":10855:10870   */\n      revert\n        /* \"#utility.yul\":10882:11062   */\n    tag_79:\n        /* \"#utility.yul\":10930:11007   */\n      0x4e487b7100000000000000000000000000000000000000000000000000000000\n        /* \"#utility.yul\":10927:10928   */\n      0x00\n        /* \"#utility.yul\":10920:11008   */\n      mstore\n        /* \"#utility.yul\":11027:11031   */\n      0x32\n        /* \"#utility.yul\":11024:11025   */\n      0x04\n        /* \"#utility.yul\":11017:11032   */\n      mstore\n        /* \"#utility.yul\":11051:11055   */\n      0x24\n        /* \"#utility.yul\":11048:11049   */\n      0x00\n        /* \"#utility.yul\":11041:11056   */\n      revert\n        /* \"#utility.yul\":11068:11290   */\n    tag_104:\n        /* \"#utility.yul\":11161:11165   */\n      0x00\n        /* \"#utility.yul\":11199:11201   */\n      0x20\n        /* \"#utility.yul\":11188:11197   */\n      dup3\n        /* \"#utility.yul\":11184:11202   */\n      add\n        /* \"#utility.yul\":11176:11202   */\n      swap1\n      pop\n        /* \"#utility.yul\":11212:11283   */\n      tag_256\n        /* \"#utility.yul\":11280:11281   */\n      0x00\n        /* \"#utility.yul\":11269:11278   */\n      dup4\n        /* \"#utility.yul\":11265:11282   */\n      add\n        /* \"#utility.yul\":11256:11262   */\n      dup5\n        /* \"#utility.yul\":11212:11283   */\n      tag_126\n      jump\t// in\n    tag_256:\n        /* \"#utility.yul\":11068:11290   */\n      swap3\n      swap2\n      pop\n      pop\n      jump\t// out\n\n    auxdata: 0xa2646970667358221220c085481d33803cac42fb59e618f1261135b806cc708cb6491a5e77b0b1be85a464736f6c63430008110033\n}\n",
				"bytecode": {
					"linkReferences": {},
					"object": "60806040523480156200001157600080fd5b506040518060400160405280601081526020017f436f6d467265652050726f746f636f6c000000000000000000000000000000008152506000908162000058919062000320565b506040518060400160405280600781526020017f436f6d6672656500000000000000000000000000000000000000000000000000815250600190816200009f919062000320565b5062000407565b600081519050919050565b7f4e487b7100000000000000000000000000000000000000000000000000000000600052604160045260246000fd5b7f4e487b7100000000000000000000000000000000000000000000000000000000600052602260045260246000fd5b600060028204905060018216806200012857607f821691505b6020821081036200013e576200013d620000e0565b5b50919050565b60008190508160005260206000209050919050565b60006020601f8301049050919050565b600082821b905092915050565b600060088302620001a87fffffffffffffffffffffffffffffffffffffffffffffffffffffffffffffffff8262000169565b620001b4868362000169565b95508019841693508086168417925050509392505050565b6000819050919050565b6000819050919050565b600062000201620001fb620001f584620001cc565b620001d6565b620001cc565b9050919050565b6000819050919050565b6200021d83620001e0565b620002356200022c8262000208565b84845462000176565b825550505050565b600090565b6200024c6200023d565b6200025981848462000212565b505050565b5b8181101562000281576200027560008262000242565b6001810190506200025f565b5050565b601f821115620002d0576200029a8162000144565b620002a58462000159565b81016020851015620002b5578190505b620002cd620002c48562000159565b8301826200025e565b50505b505050565b600082821c905092915050565b6000620002f560001984600802620002d5565b1980831691505092915050565b6000620003108383620002e2565b9150826002028217905092915050565b6200032b82620000a6565b67ffffffffffffffff811115620003475762000346620000b1565b5b6200035382546200010f565b6200036082828562000285565b600060209050601f83116001811462000398576000841562000383578287015190505b6200038f858262000302565b865550620003ff565b601f198416620003a88662000144565b60005b82811015620003d257848901518255600182019150602085019450602081019050620003ab565b86831015620003f25784890151620003ee601f891682620002e2565b8355505b6001600288020188555050505b505050505050565b61114a80620004176000396000f3fe608060405234801561001057600080fd5b50600436106100935760003560e01c806353a686911161006657806353a686911461011e578063554d8bb614610151578063871457f61461018657806395d89b41146101a4578063fb2bbcd3146101c257610093565b806306fdde03146100985780633ad1ce1f146100b65780633b41e19c146100d257806343af9a8d14610102575b600080fd5b6100a06101de565b6040516100ad9190610b76565b60405180910390f35b6100d060048036038101906100cb9190610bd3565b61026c565b005b6100ec60048036038101906100e79190610c38565b6103c1565b6040516100f99190610c87565b60405180910390f35b61011c60048036038101906101179190610d00565b610468565b005b61013860048036038101906101339190610bd3565b610609565b6040516101489493929190610d67565b60405180910390f35b61016b60048036038101906101669190610bd3565b61066d565b60405161017d96959493929190610dca565b60405180910390f35b61018e6106f6565b60405161019b9190610ee9565b60405180910390f35b6101ac61085f565b6040516101b99190610b76565b60405180910390f35b6101dc60048036038101906101d79190610f0b565b6108ed565b005b600080546101eb90610fa1565b80601f016020809104026020016040519081016040528092919081815260200182805461021790610fa1565b80156102645780601f1061023957610100808354040283529160200191610264565b820191906000526020600020905b81548152906001019060200180831161024757829003601f168201915b505050505081565b60006002600083815260200190815260200160002060040160009054906101000a900460ff16905060011515811515146102a557600080fd5b60006003600084815260200190815260200160002060000160006101000a81548160ff02191690831515021790555060006003600084815260200190815260200160002060000160016101000a81548160ff02191690831515021790555060006003600084815260200190815260200160002060000160026101000a81548160ff02191690831515021790555060006003600084815260200190815260200160002060000160036101000a81548160ff0219169083151502179055507f0985068d1545f3a3582c605476bc5fe6aaf9acc51845acef22cb74694222ea2e826003600085815260200190815260200160002060000160009054906101000a900460ff166040516103b5929190610fd2565b60405180910390a15050565b60003373ffffffffffffffffffffffffffffffffffffffff166002600085815260200190815260200160002060020160009054906101000a900473ffffffffffffffffffffffffffffffffffffffff1673ffffffffffffffffffffffffffffffffffffffff160361043157600080fd5b816002600085815260200190815260200160002060040160006101000a81548160ff02191690831515021790555081905092915050565b6005600081548092919061047b9061102a565b9190505550600554600260006005548152602001908152602001600020600001819055508360026000600554815260200190815260200160002060010160006101000a81548173ffffffffffffffffffffffffffffffffffffffff021916908373ffffffffffffffffffffffffffffffffffffffff1602179055508260026000600554815260200190815260200160002060020160006101000a81548173ffffffffffffffffffffffffffffffffffffffff021916908373ffffffffffffffffffffffffffffffffffffffff16021790555081600260006005548152602001908152602001600020600301819055508060026000600554815260200190815260200160002060040160006101000a81548160ff0219169083151502179055508273ffffffffffffffffffffffffffffffffffffffff168473ffffffffffffffffffffffffffffffffffffffff167fd7717a251aa6b58c031ecb17600f5fd443e3e40f6689d9c3ef687ce7f4b4e616600554856040516105fb929190611072565b60405180910390a350505050565b60036020528060005260406000206000915090508060000160009054906101000a900460ff16908060000160019054906101000a900460ff16908060000160029054906101000a900460ff16908060000160039054906101000a900460ff16905084565b60026020528060005260406000206000915090508060000154908060010160009054906101000a900473ffffffffffffffffffffffffffffffffffffffff16908060020160009054906101000a900473ffffffffffffffffffffffffffffffffffffffff16908060030154908060040160009054906101000a900460ff16908060050154905086565b6060600060055467ffffffffffffffff8111156107165761071561109b565b5b6040519080825280602002602001820160405280156107445781602001602082028036833780820191505090505b509050600080600190505b60055481116107af576002600082815260200190815260200160002060000154838381518110610782576107816110ca565b5b60200260200101818152505081806107999061102a565b92505080806107a79061102a565b91505061074f565b5060008167ffffffffffffffff8111156107cc576107cb61109b565b5b6040519080825280602002602001820160405280156107fa5781602001602082028036833780820191505090505b50905060005b828110156108555783818151811061081b5761081a6110ca565b5b6020026020010151828281518110610836576108356110ca565b5b602002602001018181525050808061084d9061102a565b915050610800565b5080935050505090565b6001805461086c90610fa1565b80601f016020809104026020016040519081016040528092919081815260200182805461089890610fa1565b80156108e55780601f106108ba576101008083540402835291602001916108e5565b820191906000526020600020905b8154815290600101906020018083116108c857829003601f168201915b505050505081565b826003600086815260200190815260200160002060000160016101000a81548160ff021916908315150217905550816003600086815260200190815260200160002060000160026101000a81548160ff021916908315150217905550806003600086815260200190815260200160002060000160036101000a81548160ff021916908315150217905550600115156003600086815260200190815260200160002060000160019054906101000a900460ff1615151480156109d55750600115156003600086815260200190815260200160002060000160029054906101000a900460ff161515145b8015610a085750600115156003600086815260200190815260200160002060000160039054906101000a900460ff161515145b15610a3d5760016003600086815260200190815260200160002060000160006101000a81548160ff0219169083151502179055505b600115156003600086815260200190815260200160002060000160009054906101000a900460ff16151503610aa8577fbed19c48ffbfb01ca0faa826d3e3844746b0628593a6c4aeea7290af66735d2084604051610a9b91906110f9565b60405180910390a1610ae0565b7f1f0c1db71d57570daa726bc2aa30a91e34f107443dfdbfc1bed51f3810ce362e84604051610ad791906110f9565b60405180910390a15b50505050565b600081519050919050565b600082825260208201905092915050565b60005b83811015610b20578082015181840152602081019050610b05565b60008484015250505050565b6000601f19601f8301169050919050565b6000610b4882610ae6565b610b528185610af1565b9350610b62818560208601610b02565b610b6b81610b2c565b840191505092915050565b60006020820190508181036000830152610b908184610b3d565b905092915050565b600080fd5b6000819050919050565b610bb081610b9d565b8114610bbb57600080fd5b50565b600081359050610bcd81610ba7565b92915050565b600060208284031215610be957610be8610b98565b5b6000610bf784828501610bbe565b91505092915050565b60008115159050919050565b610c1581610c00565b8114610c2057600080fd5b50565b600081359050610c3281610c0c565b92915050565b60008060408385031215610c4f57610c4e610b98565b5b6000610c5d85828601610bbe565b9250506020610c6e85828601610c23565b9150509250929050565b610c8181610c00565b82525050565b6000602082019050610c9c6000830184610c78565b92915050565b600073ffffffffffffffffffffffffffffffffffffffff82169050919050565b6000610ccd82610ca2565b9050919050565b610cdd81610cc2565b8114610ce857600080fd5b50565b600081359050610cfa81610cd4565b92915050565b60008060008060808587031215610d1a57610d19610b98565b5b6000610d2887828801610ceb565b9450506020610d3987828801610ceb565b9350506040610d4a87828801610bbe565b9250506060610d5b87828801610c23565b91505092959194509250565b6000608082019050610d7c6000830187610c78565b610d896020830186610c78565b610d966040830185610c78565b610da36060830184610c78565b95945050505050565b610db581610b9d565b82525050565b610dc481610cc2565b82525050565b600060c082019050610ddf6000830189610dac565b610dec6020830188610dbb565b610df96040830187610dbb565b610e066060830186610dac565b610e136080830185610c78565b610e2060a0830184610dac565b979650505050505050565b600081519050919050565b600082825260208201905092915050565b6000819050602082019050919050565b610e6081610b9d565b82525050565b6000610e728383610e57565b60208301905092915050565b6000602082019050919050565b6000610e9682610e2b565b610ea08185610e36565b9350610eab83610e47565b8060005b83811015610edc578151610ec38882610e66565b9750610ece83610e7e565b925050600181019050610eaf565b5085935050505092915050565b60006020820190508181036000830152610f038184610e8b565b905092915050565b60008060008060808587031215610f2557610f24610b98565b5b6000610f3387828801610bbe565b9450506020610f4487828801610c23565b9350506040610f5587828801610c23565b9250506060610f6687828801610c23565b91505092959194509250565b7f4e487b7100000000000000000000000000000000000000000000000000000000600052602260045260246000fd5b60006002820490506001821680610fb957607f821691505b602082108103610fcc57610fcb610f72565b5b50919050565b6000604082019050610fe76000830185610dac565b610ff46020830184610c78565b9392505050565b7f4e487b7100000000000000000000000000000000000000000000000000000000600052601160045260246000fd5b600061103582610b9d565b91507fffffffffffffffffffffffffffffffffffffffffffffffffffffffffffffffff820361106757611066610ffb565b5b600182019050919050565b60006040820190506110876000830185610dac565b6110946020830184610dac565b9392505050565b7f4e487b7100000000000000000000000000000000000000000000000000000000600052604160045260246000fd5b7f4e487b7100000000000000000000000000000000000000000000000000000000600052603260045260246000fd5b600060208201905061110e6000830184610dac565b9291505056fea2646970667358221220c085481d33803cac42fb59e618f1261135b806cc708cb6491a5e77b0b1be85a464736f6c63430008110033",
					"opcodes": "PUSH1 0x80 PUSH1 0x40 MSTORE CALLVALUE DUP1 ISZERO PUSH3 0x11 JUMPI PUSH1 0x0 DUP1 REVERT JUMPDEST POP PUSH1 0x40 MLOAD DUP1 PUSH1 0x40 ADD PUSH1 0x40 MSTORE DUP1 PUSH1 0x10 DUP2 MSTORE PUSH1 0x20 ADD PUSH32 0x436F6D467265652050726F746F636F6C00000000000000000000000000000000 DUP2 MSTORE POP PUSH1 0x0 SWAP1 DUP2 PUSH3 0x58 SWAP2 SWAP1 PUSH3 0x320 JUMP JUMPDEST POP PUSH1 0x40 MLOAD DUP1 PUSH1 0x40 ADD PUSH1 0x40 MSTORE DUP1 PUSH1 0x7 DUP2 MSTORE PUSH1 0x20 ADD PUSH32 0x436F6D6672656500000000000000000000000000000000000000000000000000 DUP2 MSTORE POP PUSH1 0x1 SWAP1 DUP2 PUSH3 0x9F SWAP2 SWAP1 PUSH3 0x320 JUMP JUMPDEST POP PUSH3 0x407 JUMP JUMPDEST PUSH1 0x0 DUP2 MLOAD SWAP1 POP SWAP2 SWAP1 POP JUMP JUMPDEST PUSH32 0x4E487B7100000000000000000000000000000000000000000000000000000000 PUSH1 0x0 MSTORE PUSH1 0x41 PUSH1 0x4 MSTORE PUSH1 0x24 PUSH1 0x0 REVERT JUMPDEST PUSH32 0x4E487B7100000000000000000000000000000000000000000000000000000000 PUSH1 0x0 MSTORE PUSH1 0x22 PUSH1 0x4 MSTORE PUSH1 0x24 PUSH1 0x0 REVERT JUMPDEST PUSH1 0x0 PUSH1 0x2 DUP3 DIV SWAP1 POP PUSH1 0x1 DUP3 AND DUP1 PUSH3 0x128 JUMPI PUSH1 0x7F DUP3 AND SWAP2 POP JUMPDEST PUSH1 0x20 DUP3 LT DUP2 SUB PUSH3 0x13E JUMPI PUSH3 0x13D PUSH3 0xE0 JUMP JUMPDEST JUMPDEST POP SWAP2 SWAP1 POP JUMP JUMPDEST PUSH1 0x0 DUP2 SWAP1 POP DUP2 PUSH1 0x0 MSTORE PUSH1 0x20 PUSH1 0x0 KECCAK256 SWAP1 POP SWAP2 SWAP1 POP JUMP JUMPDEST PUSH1 0x0 PUSH1 0x20 PUSH1 0x1F DUP4 ADD DIV SWAP1 POP SWAP2 SWAP1 POP JUMP JUMPDEST PUSH1 0x0 DUP3 DUP3 SHL SWAP1 POP SWAP3 SWAP2 POP POP JUMP JUMPDEST PUSH1 0x0 PUSH1 0x8 DUP4 MUL PUSH3 0x1A8 PUSH32 0xFFFFFFFFFFFFFFFFFFFFFFFFFFFFFFFFFFFFFFFFFFFFFFFFFFFFFFFFFFFFFFFF DUP3 PUSH3 0x169 JUMP JUMPDEST PUSH3 0x1B4 DUP7 DUP4 PUSH3 0x169 JUMP JUMPDEST SWAP6 POP DUP1 NOT DUP5 AND SWAP4 POP DUP1 DUP7 AND DUP5 OR SWAP3 POP POP POP SWAP4 SWAP3 POP POP POP JUMP JUMPDEST PUSH1 0x0 DUP2 SWAP1 POP SWAP2 SWAP1 POP JUMP JUMPDEST PUSH1 0x0 DUP2 SWAP1 POP SWAP2 SWAP1 POP JUMP JUMPDEST PUSH1 0x0 PUSH3 0x201 PUSH3 0x1FB PUSH3 0x1F5 DUP5 PUSH3 0x1CC JUMP JUMPDEST PUSH3 0x1D6 JUMP JUMPDEST PUSH3 0x1CC JUMP JUMPDEST SWAP1 POP SWAP2 SWAP1 POP JUMP JUMPDEST PUSH1 0x0 DUP2 SWAP1 POP SWAP2 SWAP1 POP JUMP JUMPDEST PUSH3 0x21D DUP4 PUSH3 0x1E0 JUMP JUMPDEST PUSH3 0x235 PUSH3 0x22C DUP3 PUSH3 0x208 JUMP JUMPDEST DUP5 DUP5 SLOAD PUSH3 0x176 JUMP JUMPDEST DUP3 SSTORE POP POP POP POP JUMP JUMPDEST PUSH1 0x0 SWAP1 JUMP JUMPDEST PUSH3 0x24C PUSH3 0x23D JUMP JUMPDEST PUSH3 0x259 DUP2 DUP5 DUP5 PUSH3 0x212 JUMP JUMPDEST POP POP POP JUMP JUMPDEST JUMPDEST DUP2 DUP2 LT ISZERO PUSH3 0x281 JUMPI PUSH3 0x275 PUSH1 0x0 DUP3 PUSH3 0x242 JUMP JUMPDEST PUSH1 0x1 DUP2 ADD SWAP1 POP PUSH3 0x25F JUMP JUMPDEST POP POP JUMP JUMPDEST PUSH1 0x1F DUP3 GT ISZERO PUSH3 0x2D0 JUMPI PUSH3 0x29A DUP2 PUSH3 0x144 JUMP JUMPDEST PUSH3 0x2A5 DUP5 PUSH3 0x159 JUMP JUMPDEST DUP2 ADD PUSH1 0x20 DUP6 LT ISZERO PUSH3 0x2B5 JUMPI DUP2 SWAP1 POP JUMPDEST PUSH3 0x2CD PUSH3 0x2C4 DUP6 PUSH3 0x159 JUMP JUMPDEST DUP4 ADD DUP3 PUSH3 0x25E JUMP JUMPDEST POP POP JUMPDEST POP POP POP JUMP JUMPDEST PUSH1 0x0 DUP3 DUP3 SHR SWAP1 POP SWAP3 SWAP2 POP POP JUMP JUMPDEST PUSH1 0x0 PUSH3 0x2F5 PUSH1 0x0 NOT DUP5 PUSH1 0x8 MUL PUSH3 0x2D5 JUMP JUMPDEST NOT DUP1 DUP4 AND SWAP2 POP POP SWAP3 SWAP2 POP POP JUMP JUMPDEST PUSH1 0x0 PUSH3 0x310 DUP4 DUP4 PUSH3 0x2E2 JUMP JUMPDEST SWAP2 POP DUP3 PUSH1 0x2 MUL DUP3 OR SWAP1 POP SWAP3 SWAP2 POP POP JUMP JUMPDEST PUSH3 0x32B DUP3 PUSH3 0xA6 JUMP JUMPDEST PUSH8 0xFFFFFFFFFFFFFFFF DUP2 GT ISZERO PUSH3 0x347 JUMPI PUSH3 0x346 PUSH3 0xB1 JUMP JUMPDEST JUMPDEST PUSH3 0x353 DUP3 SLOAD PUSH3 0x10F JUMP JUMPDEST PUSH3 0x360 DUP3 DUP3 DUP6 PUSH3 0x285 JUMP JUMPDEST PUSH1 0x0 PUSH1 0x20 SWAP1 POP PUSH1 0x1F DUP4 GT PUSH1 0x1 DUP2 EQ PUSH3 0x398 JUMPI PUSH1 0x0 DUP5 ISZERO PUSH3 0x383 JUMPI DUP3 DUP8 ADD MLOAD SWAP1 POP JUMPDEST PUSH3 0x38F DUP6 DUP3 PUSH3 0x302 JUMP JUMPDEST DUP7 SSTORE POP PUSH3 0x3FF JUMP JUMPDEST PUSH1 0x1F NOT DUP5 AND PUSH3 0x3A8 DUP7 PUSH3 0x144 JUMP JUMPDEST PUSH1 0x0 JUMPDEST DUP3 DUP2 LT ISZERO PUSH3 0x3D2 JUMPI DUP5 DUP10 ADD MLOAD DUP3 SSTORE PUSH1 0x1 DUP3 ADD SWAP2 POP PUSH1 0x20 DUP6 ADD SWAP5 POP PUSH1 0x20 DUP2 ADD SWAP1 POP PUSH3 0x3AB JUMP JUMPDEST DUP7 DUP4 LT ISZERO PUSH3 0x3F2 JUMPI DUP5 DUP10 ADD MLOAD PUSH3 0x3EE PUSH1 0x1F DUP10 AND DUP3 PUSH3 0x2E2 JUMP JUMPDEST DUP4 SSTORE POP JUMPDEST PUSH1 0x1 PUSH1 0x2 DUP9 MUL ADD DUP9 SSTORE POP POP POP JUMPDEST POP POP POP POP POP POP JUMP JUMPDEST PUSH2 0x114A DUP1 PUSH3 0x417 PUSH1 0x0 CODECOPY PUSH1 0x0 RETURN INVALID PUSH1 0x80 PUSH1 0x40 MSTORE CALLVALUE DUP1 ISZERO PUSH2 0x10 JUMPI PUSH1 0x0 DUP1 REVERT JUMPDEST POP PUSH1 0x4 CALLDATASIZE LT PUSH2 0x93 JUMPI PUSH1 0x0 CALLDATALOAD PUSH1 0xE0 SHR DUP1 PUSH4 0x53A68691 GT PUSH2 0x66 JUMPI DUP1 PUSH4 0x53A68691 EQ PUSH2 0x11E JUMPI DUP1 PUSH4 0x554D8BB6 EQ PUSH2 0x151 JUMPI DUP1 PUSH4 0x871457F6 EQ PUSH2 0x186 JUMPI DUP1 PUSH4 0x95D89B41 EQ PUSH2 0x1A4 JUMPI DUP1 PUSH4 0xFB2BBCD3 EQ PUSH2 0x1C2 JUMPI PUSH2 0x93 JUMP JUMPDEST DUP1 PUSH4 0x6FDDE03 EQ PUSH2 0x98 JUMPI DUP1 PUSH4 0x3AD1CE1F EQ PUSH2 0xB6 JUMPI DUP1 PUSH4 0x3B41E19C EQ PUSH2 0xD2 JUMPI DUP1 PUSH4 0x43AF9A8D EQ PUSH2 0x102 JUMPI JUMPDEST PUSH1 0x0 DUP1 REVERT JUMPDEST PUSH2 0xA0 PUSH2 0x1DE JUMP JUMPDEST PUSH1 0x40 MLOAD PUSH2 0xAD SWAP2 SWAP1 PUSH2 0xB76 JUMP JUMPDEST PUSH1 0x40 MLOAD DUP1 SWAP2 SUB SWAP1 RETURN JUMPDEST PUSH2 0xD0 PUSH1 0x4 DUP1 CALLDATASIZE SUB DUP2 ADD SWAP1 PUSH2 0xCB SWAP2 SWAP1 PUSH2 0xBD3 JUMP JUMPDEST PUSH2 0x26C JUMP JUMPDEST STOP JUMPDEST PUSH2 0xEC PUSH1 0x4 DUP1 CALLDATASIZE SUB DUP2 ADD SWAP1 PUSH2 0xE7 SWAP2 SWAP1 PUSH2 0xC38 JUMP JUMPDEST PUSH2 0x3C1 JUMP JUMPDEST PUSH1 0x40 MLOAD PUSH2 0xF9 SWAP2 SWAP1 PUSH2 0xC87 JUMP JUMPDEST PUSH1 0x40 MLOAD DUP1 SWAP2 SUB SWAP1 RETURN JUMPDEST PUSH2 0x11C PUSH1 0x4 DUP1 CALLDATASIZE SUB DUP2 ADD SWAP1 PUSH2 0x117 SWAP2 SWAP1 PUSH2 0xD00 JUMP JUMPDEST PUSH2 0x468 JUMP JUMPDEST STOP JUMPDEST PUSH2 0x138 PUSH1 0x4 DUP1 CALLDATASIZE SUB DUP2 ADD SWAP1 PUSH2 0x133 SWAP2 SWAP1 PUSH2 0xBD3 JUMP JUMPDEST PUSH2 0x609 JUMP JUMPDEST PUSH1 0x40 MLOAD PUSH2 0x148 SWAP5 SWAP4 SWAP3 SWAP2 SWAP1 PUSH2 0xD67 JUMP JUMPDEST PUSH1 0x40 MLOAD DUP1 SWAP2 SUB SWAP1 RETURN JUMPDEST PUSH2 0x16B PUSH1 0x4 DUP1 CALLDATASIZE SUB DUP2 ADD SWAP1 PUSH2 0x166 SWAP2 SWAP1 PUSH2 0xBD3 JUMP JUMPDEST PUSH2 0x66D JUMP JUMPDEST PUSH1 0x40 MLOAD PUSH2 0x17D SWAP7 SWAP6 SWAP5 SWAP4 SWAP3 SWAP2 SWAP1 PUSH2 0xDCA JUMP JUMPDEST PUSH1 0x40 MLOAD DUP1 SWAP2 SUB SWAP1 RETURN JUMPDEST PUSH2 0x18E PUSH2 0x6F6 JUMP JUMPDEST PUSH1 0x40 MLOAD PUSH2 0x19B SWAP2 SWAP1 PUSH2 0xEE9 JUMP JUMPDEST PUSH1 0x40 MLOAD DUP1 SWAP2 SUB SWAP1 RETURN JUMPDEST PUSH2 0x1AC PUSH2 0x85F JUMP JUMPDEST PUSH1 0x40 MLOAD PUSH2 0x1B9 SWAP2 SWAP1 PUSH2 0xB76 JUMP JUMPDEST PUSH1 0x40 MLOAD DUP1 SWAP2 SUB SWAP1 RETURN JUMPDEST PUSH2 0x1DC PUSH1 0x4 DUP1 CALLDATASIZE SUB DUP2 ADD SWAP1 PUSH2 0x1D7 SWAP2 SWAP1 PUSH2 0xF0B JUMP JUMPDEST PUSH2 0x8ED JUMP JUMPDEST STOP JUMPDEST PUSH1 0x0 DUP1 SLOAD PUSH2 0x1EB SWAP1 PUSH2 0xFA1 JUMP JUMPDEST DUP1 PUSH1 0x1F ADD PUSH1 0x20 DUP1 SWAP2 DIV MUL PUSH1 0x20 ADD PUSH1 0x40 MLOAD SWAP1 DUP2 ADD PUSH1 0x40 MSTORE DUP1 SWAP3 SWAP2 SWAP1 DUP2 DUP2 MSTORE PUSH1 0x20 ADD DUP3 DUP1 SLOAD PUSH2 0x217 SWAP1 PUSH2 0xFA1 JUMP JUMPDEST DUP1 ISZERO PUSH2 0x264 JUMPI DUP1 PUSH1 0x1F LT PUSH2 0x239 JUMPI PUSH2 0x100 DUP1 DUP4 SLOAD DIV MUL DUP4 MSTORE SWAP2 PUSH1 0x20 ADD SWAP2 PUSH2 0x264 JUMP JUMPDEST DUP3 ADD SWAP2 SWAP1 PUSH1 0x0 MSTORE PUSH1 0x20 PUSH1 0x0 KECCAK256 SWAP1 JUMPDEST DUP2 SLOAD DUP2 MSTORE SWAP1 PUSH1 0x1 ADD SWAP1 PUSH1 0x20 ADD DUP1 DUP4 GT PUSH2 0x247 JUMPI DUP3 SWAP1 SUB PUSH1 0x1F AND DUP3 ADD SWAP2 JUMPDEST POP POP POP POP POP DUP2 JUMP JUMPDEST PUSH1 0x0 PUSH1 0x2 PUSH1 0x0 DUP4 DUP2 MSTORE PUSH1 0x20 ADD SWAP1 DUP2 MSTORE PUSH1 0x20 ADD PUSH1 0x0 KECCAK256 PUSH1 0x4 ADD PUSH1 0x0 SWAP1 SLOAD SWAP1 PUSH2 0x100 EXP SWAP1 DIV PUSH1 0xFF AND SWAP1 POP PUSH1 0x1 ISZERO ISZERO DUP2 ISZERO ISZERO EQ PUSH2 0x2A5 JUMPI PUSH1 0x0 DUP1 REVERT JUMPDEST PUSH1 0x0 PUSH1 0x3 PUSH1 0x0 DUP5 DUP2 MSTORE PUSH1 0x20 ADD SWAP1 DUP2 MSTORE PUSH1 0x20 ADD PUSH1 0x0 KECCAK256 PUSH1 0x0 ADD PUSH1 0x0 PUSH2 0x100 EXP DUP2 SLOAD DUP2 PUSH1 0xFF MUL NOT AND SWAP1 DUP4 ISZERO ISZERO MUL OR SWAP1 SSTORE POP PUSH1 0x0 PUSH1 0x3 PUSH1 0x0 DUP5 DUP2 MSTORE PUSH1 0x20 ADD SWAP1 DUP2 MSTORE PUSH1 0x20 ADD PUSH1 0x0 KECCAK256 PUSH1 0x0 ADD PUSH1 0x1 PUSH2 0x100 EXP DUP2 SLOAD DUP2 PUSH1 0xFF MUL NOT AND SWAP1 DUP4 ISZERO ISZERO MUL OR SWAP1 SSTORE POP PUSH1 0x0 PUSH1 0x3 PUSH1 0x0 DUP5 DUP2 MSTORE PUSH1 0x20 ADD SWAP1 DUP2 MSTORE PUSH1 0x20 ADD PUSH1 0x0 KECCAK256 PUSH1 0x0 ADD PUSH1 0x2 PUSH2 0x100 EXP DUP2 SLOAD DUP2 PUSH1 0xFF MUL NOT AND SWAP1 DUP4 ISZERO ISZERO MUL OR SWAP1 SSTORE POP PUSH1 0x0 PUSH1 0x3 PUSH1 0x0 DUP5 DUP2 MSTORE PUSH1 0x20 ADD SWAP1 DUP2 MSTORE PUSH1 0x20 ADD PUSH1 0x0 KECCAK256 PUSH1 0x0 ADD PUSH1 0x3 PUSH2 0x100 EXP DUP2 SLOAD DUP2 PUSH1 0xFF MUL NOT AND SWAP1 DUP4 ISZERO ISZERO MUL OR SWAP1 SSTORE POP PUSH32 0x985068D1545F3A3582C605476BC5FE6AAF9ACC51845ACEF22CB74694222EA2E DUP3 PUSH1 0x3 PUSH1 0x0 DUP6 DUP2 MSTORE PUSH1 0x20 ADD SWAP1 DUP2 MSTORE PUSH1 0x20 ADD PUSH1 0x0 KECCAK256 PUSH1 0x0 ADD PUSH1 0x0 SWAP1 SLOAD SWAP1 PUSH2 0x100 EXP SWAP1 DIV PUSH1 0xFF AND PUSH1 0x40 MLOAD PUSH2 0x3B5 SWAP3 SWAP2 SWAP1 PUSH2 0xFD2 JUMP JUMPDEST PUSH1 0x40 MLOAD DUP1 SWAP2 SUB SWAP1 LOG1 POP POP JUMP JUMPDEST PUSH1 0x0 CALLER PUSH20 0xFFFFFFFFFFFFFFFFFFFFFFFFFFFFFFFFFFFFFFFF AND PUSH1 0x2 PUSH1 0x0 DUP6 DUP2 MSTORE PUSH1 0x20 ADD SWAP1 DUP2 MSTORE PUSH1 0x20 ADD PUSH1 0x0 KECCAK256 PUSH1 0x2 ADD PUSH1 0x0 SWAP1 SLOAD SWAP1 PUSH2 0x100 EXP SWAP1 DIV PUSH20 0xFFFFFFFFFFFFFFFFFFFFFFFFFFFFFFFFFFFFFFFF AND PUSH20 0xFFFFFFFFFFFFFFFFFFFFFFFFFFFFFFFFFFFFFFFF AND SUB PUSH2 0x431 JUMPI PUSH1 0x0 DUP1 REVERT JUMPDEST DUP2 PUSH1 0x2 PUSH1 0x0 DUP6 DUP2 MSTORE PUSH1 0x20 ADD SWAP1 DUP2 MSTORE PUSH1 0x20 ADD PUSH1 0x0 KECCAK256 PUSH1 0x4 ADD PUSH1 0x0 PUSH2 0x100 EXP DUP2 SLOAD DUP2 PUSH1 0xFF MUL NOT AND SWAP1 DUP4 ISZERO ISZERO MUL OR SWAP1 SSTORE POP DUP2 SWAP1 POP SWAP3 SWAP2 POP POP JUMP JUMPDEST PUSH1 0x5 PUSH1 0x0 DUP2 SLOAD DUP1 SWAP3 SWAP2 SWAP1 PUSH2 0x47B SWAP1 PUSH2 0x102A JUMP JUMPDEST SWAP2 SWAP1 POP SSTORE POP PUSH1 0x5 SLOAD PUSH1 0x2 PUSH1 0x0 PUSH1 0x5 SLOAD DUP2 MSTORE PUSH1 0x20 ADD SWAP1 DUP2 MSTORE PUSH1 0x20 ADD PUSH1 0x0 KECCAK256 PUSH1 0x0 ADD DUP2 SWAP1 SSTORE POP DUP4 PUSH1 0x2 PUSH1 0x0 PUSH1 0x5 SLOAD DUP2 MSTORE PUSH1 0x20 ADD SWAP1 DUP2 MSTORE PUSH1 0x20 ADD PUSH1 0x0 KECCAK256 PUSH1 0x1 ADD PUSH1 0x0 PUSH2 0x100 EXP DUP2 SLOAD DUP2 PUSH20 0xFFFFFFFFFFFFFFFFFFFFFFFFFFFFFFFFFFFFFFFF MUL NOT AND SWAP1 DUP4 PUSH20 0xFFFFFFFFFFFFFFFFFFFFFFFFFFFFFFFFFFFFFFFF AND MUL OR SWAP1 SSTORE POP DUP3 PUSH1 0x2 PUSH1 0x0 PUSH1 0x5 SLOAD DUP2 MSTORE PUSH1 0x20 ADD SWAP1 DUP2 MSTORE PUSH1 0x20 ADD PUSH1 0x0 KECCAK256 PUSH1 0x2 ADD PUSH1 0x0 PUSH2 0x100 EXP DUP2 SLOAD DUP2 PUSH20 0xFFFFFFFFFFFFFFFFFFFFFFFFFFFFFFFFFFFFFFFF MUL NOT AND SWAP1 DUP4 PUSH20 0xFFFFFFFFFFFFFFFFFFFFFFFFFFFFFFFFFFFFFFFF AND MUL OR SWAP1 SSTORE POP DUP2 PUSH1 0x2 PUSH1 0x0 PUSH1 0x5 SLOAD DUP2 MSTORE PUSH1 0x20 ADD SWAP1 DUP2 MSTORE PUSH1 0x20 ADD PUSH1 0x0 KECCAK256 PUSH1 0x3 ADD DUP2 SWAP1 SSTORE POP DUP1 PUSH1 0x2 PUSH1 0x0 PUSH1 0x5 SLOAD DUP2 MSTORE PUSH1 0x20 ADD SWAP1 DUP2 MSTORE PUSH1 0x20 ADD PUSH1 0x0 KECCAK256 PUSH1 0x4 ADD PUSH1 0x0 PUSH2 0x100 EXP DUP2 SLOAD DUP2 PUSH1 0xFF MUL NOT AND SWAP1 DUP4 ISZERO ISZERO MUL OR SWAP1 SSTORE POP DUP3 PUSH20 0xFFFFFFFFFFFFFFFFFFFFFFFFFFFFFFFFFFFFFFFF AND DUP5 PUSH20 0xFFFFFFFFFFFFFFFFFFFFFFFFFFFFFFFFFFFFFFFF AND PUSH32 0xD7717A251AA6B58C031ECB17600F5FD443E3E40F6689D9C3EF687CE7F4B4E616 PUSH1 0x5 SLOAD DUP6 PUSH1 0x40 MLOAD PUSH2 0x5FB SWAP3 SWAP2 SWAP1 PUSH2 0x1072 JUMP JUMPDEST PUSH1 0x40 MLOAD DUP1 SWAP2 SUB SWAP1 LOG3 POP POP POP POP JUMP JUMPDEST PUSH1 0x3 PUSH1 0x20 MSTORE DUP1 PUSH1 0x0 MSTORE PUSH1 0x40 PUSH1 0x0 KECCAK256 PUSH1 0x0 SWAP2 POP SWAP1 POP DUP1 PUSH1 0x0 ADD PUSH1 0x0 SWAP1 SLOAD SWAP1 PUSH2 0x100 EXP SWAP1 DIV PUSH1 0xFF AND SWAP1 DUP1 PUSH1 0x0 ADD PUSH1 0x1 SWAP1 SLOAD SWAP1 PUSH2 0x100 EXP SWAP1 DIV PUSH1 0xFF AND SWAP1 DUP1 PUSH1 0x0 ADD PUSH1 0x2 SWAP1 SLOAD SWAP1 PUSH2 0x100 EXP SWAP1 DIV PUSH1 0xFF AND SWAP1 DUP1 PUSH1 0x0 ADD PUSH1 0x3 SWAP1 SLOAD SWAP1 PUSH2 0x100 EXP SWAP1 DIV PUSH1 0xFF AND SWAP1 POP DUP5 JUMP JUMPDEST PUSH1 0x2 PUSH1 0x20 MSTORE DUP1 PUSH1 0x0 MSTORE PUSH1 0x40 PUSH1 0x0 KECCAK256 PUSH1 0x0 SWAP2 POP SWAP1 POP DUP1 PUSH1 0x0 ADD SLOAD SWAP1 DUP1 PUSH1 0x1 ADD PUSH1 0x0 SWAP1 SLOAD SWAP1 PUSH2 0x100 EXP SWAP1 DIV PUSH20 0xFFFFFFFFFFFFFFFFFFFFFFFFFFFFFFFFFFFFFFFF AND SWAP1 DUP1 PUSH1 0x2 ADD PUSH1 0x0 SWAP1 SLOAD SWAP1 PUSH2 0x100 EXP SWAP1 DIV PUSH20 0xFFFFFFFFFFFFFFFFFFFFFFFFFFFFFFFFFFFFFFFF AND SWAP1 DUP1 PUSH1 0x3 ADD SLOAD SWAP1 DUP1 PUSH1 0x4 ADD PUSH1 0x0 SWAP1 SLOAD SWAP1 PUSH2 0x100 EXP SWAP1 DIV PUSH1 0xFF AND SWAP1 DUP1 PUSH1 0x5 ADD SLOAD SWAP1 POP DUP7 JUMP JUMPDEST PUSH1 0x60 PUSH1 0x0 PUSH1 0x5 SLOAD PUSH8 0xFFFFFFFFFFFFFFFF DUP2 GT ISZERO PUSH2 0x716 JUMPI PUSH2 0x715 PUSH2 0x109B JUMP JUMPDEST JUMPDEST PUSH1 0x40 MLOAD SWAP1 DUP1 DUP3 MSTORE DUP1 PUSH1 0x20 MUL PUSH1 0x20 ADD DUP3 ADD PUSH1 0x40 MSTORE DUP1 ISZERO PUSH2 0x744 JUMPI DUP2 PUSH1 0x20 ADD PUSH1 0x20 DUP3 MUL DUP1 CALLDATASIZE DUP4 CALLDATACOPY DUP1 DUP3 ADD SWAP2 POP POP SWAP1 POP JUMPDEST POP SWAP1 POP PUSH1 0x0 DUP1 PUSH1 0x1 SWAP1 POP JUMPDEST PUSH1 0x5 SLOAD DUP2 GT PUSH2 0x7AF JUMPI PUSH1 0x2 PUSH1 0x0 DUP3 DUP2 MSTORE PUSH1 0x20 ADD SWAP1 DUP2 MSTORE PUSH1 0x20 ADD PUSH1 0x0 KECCAK256 PUSH1 0x0 ADD SLOAD DUP4 DUP4 DUP2 MLOAD DUP2 LT PUSH2 0x782 JUMPI PUSH2 0x781 PUSH2 0x10CA JUMP JUMPDEST JUMPDEST PUSH1 0x20 MUL PUSH1 0x20 ADD ADD DUP2 DUP2 MSTORE POP POP DUP2 DUP1 PUSH2 0x799 SWAP1 PUSH2 0x102A JUMP JUMPDEST SWAP3 POP POP DUP1 DUP1 PUSH2 0x7A7 SWAP1 PUSH2 0x102A JUMP JUMPDEST SWAP2 POP POP PUSH2 0x74F JUMP JUMPDEST POP PUSH1 0x0 DUP2 PUSH8 0xFFFFFFFFFFFFFFFF DUP2 GT ISZERO PUSH2 0x7CC JUMPI PUSH2 0x7CB PUSH2 0x109B JUMP JUMPDEST JUMPDEST PUSH1 0x40 MLOAD SWAP1 DUP1 DUP3 MSTORE DUP1 PUSH1 0x20 MUL PUSH1 0x20 ADD DUP3 ADD PUSH1 0x40 MSTORE DUP1 ISZERO PUSH2 0x7FA JUMPI DUP2 PUSH1 0x20 ADD PUSH1 0x20 DUP3 MUL DUP1 CALLDATASIZE DUP4 CALLDATACOPY DUP1 DUP3 ADD SWAP2 POP POP SWAP1 POP JUMPDEST POP SWAP1 POP PUSH1 0x0 JUMPDEST DUP3 DUP2 LT ISZERO PUSH2 0x855 JUMPI DUP4 DUP2 DUP2 MLOAD DUP2 LT PUSH2 0x81B JUMPI PUSH2 0x81A PUSH2 0x10CA JUMP JUMPDEST JUMPDEST PUSH1 0x20 MUL PUSH1 0x20 ADD ADD MLOAD DUP3 DUP3 DUP2 MLOAD DUP2 LT PUSH2 0x836 JUMPI PUSH2 0x835 PUSH2 0x10CA JUMP JUMPDEST JUMPDEST PUSH1 0x20 MUL PUSH1 0x20 ADD ADD DUP2 DUP2 MSTORE POP POP DUP1 DUP1 PUSH2 0x84D SWAP1 PUSH2 0x102A JUMP JUMPDEST SWAP2 POP POP PUSH2 0x800 JUMP JUMPDEST POP DUP1 SWAP4 POP POP POP POP SWAP1 JUMP JUMPDEST PUSH1 0x1 DUP1 SLOAD PUSH2 0x86C SWAP1 PUSH2 0xFA1 JUMP JUMPDEST DUP1 PUSH1 0x1F ADD PUSH1 0x20 DUP1 SWAP2 DIV MUL PUSH1 0x20 ADD PUSH1 0x40 MLOAD SWAP1 DUP2 ADD PUSH1 0x40 MSTORE DUP1 SWAP3 SWAP2 SWAP1 DUP2 DUP2 MSTORE PUSH1 0x20 ADD DUP3 DUP1 SLOAD PUSH2 0x898 SWAP1 PUSH2 0xFA1 JUMP JUMPDEST DUP1 ISZERO PUSH2 0x8E5 JUMPI DUP1 PUSH1 0x1F LT PUSH2 0x8BA JUMPI PUSH2 0x100 DUP1 DUP4 SLOAD DIV MUL DUP4 MSTORE SWAP2 PUSH1 0x20 ADD SWAP2 PUSH2 0x8E5 JUMP JUMPDEST DUP3 ADD SWAP2 SWAP1 PUSH1 0x0 MSTORE PUSH1 0x20 PUSH1 0x0 KECCAK256 SWAP1 JUMPDEST DUP2 SLOAD DUP2 MSTORE SWAP1 PUSH1 0x1 ADD SWAP1 PUSH1 0x20 ADD DUP1 DUP4 GT PUSH2 0x8C8 JUMPI DUP3 SWAP1 SUB PUSH1 0x1F AND DUP3 ADD SWAP2 JUMPDEST POP POP POP POP POP DUP2 JUMP JUMPDEST DUP3 PUSH1 0x3 PUSH1 0x0 DUP7 DUP2 MSTORE PUSH1 0x20 ADD SWAP1 DUP2 MSTORE PUSH1 0x20 ADD PUSH1 0x0 KECCAK256 PUSH1 0x0 ADD PUSH1 0x1 PUSH2 0x100 EXP DUP2 SLOAD DUP2 PUSH1 0xFF MUL NOT AND SWAP1 DUP4 ISZERO ISZERO MUL OR SWAP1 SSTORE POP DUP2 PUSH1 0x3 PUSH1 0x0 DUP7 DUP2 MSTORE PUSH1 0x20 ADD SWAP1 DUP2 MSTORE PUSH1 0x20 ADD PUSH1 0x0 KECCAK256 PUSH1 0x0 ADD PUSH1 0x2 PUSH2 0x100 EXP DUP2 SLOAD DUP2 PUSH1 0xFF MUL NOT AND SWAP1 DUP4 ISZERO ISZERO MUL OR SWAP1 SSTORE POP DUP1 PUSH1 0x3 PUSH1 0x0 DUP7 DUP2 MSTORE PUSH1 0x20 ADD SWAP1 DUP2 MSTORE PUSH1 0x20 ADD PUSH1 0x0 KECCAK256 PUSH1 0x0 ADD PUSH1 0x3 PUSH2 0x100 EXP DUP2 SLOAD DUP2 PUSH1 0xFF MUL NOT AND SWAP1 DUP4 ISZERO ISZERO MUL OR SWAP1 SSTORE POP PUSH1 0x1 ISZERO ISZERO PUSH1 0x3 PUSH1 0x0 DUP7 DUP2 MSTORE PUSH1 0x20 ADD SWAP1 DUP2 MSTORE PUSH1 0x20 ADD PUSH1 0x0 KECCAK256 PUSH1 0x0 ADD PUSH1 0x1 SWAP1 SLOAD SWAP1 PUSH2 0x100 EXP SWAP1 DIV PUSH1 0xFF AND ISZERO ISZERO EQ DUP1 ISZERO PUSH2 0x9D5 JUMPI POP PUSH1 0x1 ISZERO ISZERO PUSH1 0x3 PUSH1 0x0 DUP7 DUP2 MSTORE PUSH1 0x20 ADD SWAP1 DUP2 MSTORE PUSH1 0x20 ADD PUSH1 0x0 KECCAK256 PUSH1 0x0 ADD PUSH1 0x2 SWAP1 SLOAD SWAP1 PUSH2 0x100 EXP SWAP1 DIV PUSH1 0xFF AND ISZERO ISZERO EQ JUMPDEST DUP1 ISZERO PUSH2 0xA08 JUMPI POP PUSH1 0x1 ISZERO ISZERO PUSH1 0x3 PUSH1 0x0 DUP7 DUP2 MSTORE PUSH1 0x20 ADD SWAP1 DUP2 MSTORE PUSH1 0x20 ADD PUSH1 0x0 KECCAK256 PUSH1 0x0 ADD PUSH1 0x3 SWAP1 SLOAD SWAP1 PUSH2 0x100 EXP SWAP1 DIV PUSH1 0xFF AND ISZERO ISZERO EQ JUMPDEST ISZERO PUSH2 0xA3D JUMPI PUSH1 0x1 PUSH1 0x3 PUSH1 0x0 DUP7 DUP2 MSTORE PUSH1 0x20 ADD SWAP1 DUP2 MSTORE PUSH1 0x20 ADD PUSH1 0x0 KECCAK256 PUSH1 0x0 ADD PUSH1 0x0 PUSH2 0x100 EXP DUP2 SLOAD DUP2 PUSH1 0xFF MUL NOT AND SWAP1 DUP4 ISZERO ISZERO MUL OR SWAP1 SSTORE POP JUMPDEST PUSH1 0x1 ISZERO ISZERO PUSH1 0x3 PUSH1 0x0 DUP7 DUP2 MSTORE PUSH1 0x20 ADD SWAP1 DUP2 MSTORE PUSH1 0x20 ADD PUSH1 0x0 KECCAK256 PUSH1 0x0 ADD PUSH1 0x0 SWAP1 SLOAD SWAP1 PUSH2 0x100 EXP SWAP1 DIV PUSH1 0xFF AND ISZERO ISZERO SUB PUSH2 0xAA8 JUMPI PUSH32 0xBED19C48FFBFB01CA0FAA826D3E3844746B0628593A6C4AEEA7290AF66735D20 DUP5 PUSH1 0x40 MLOAD PUSH2 0xA9B SWAP2 SWAP1 PUSH2 0x10F9 JUMP JUMPDEST PUSH1 0x40 MLOAD DUP1 SWAP2 SUB SWAP1 LOG1 PUSH2 0xAE0 JUMP JUMPDEST PUSH32 0x1F0C1DB71D57570DAA726BC2AA30A91E34F107443DFDBFC1BED51F3810CE362E DUP5 PUSH1 0x40 MLOAD PUSH2 0xAD7 SWAP2 SWAP1 PUSH2 0x10F9 JUMP JUMPDEST PUSH1 0x40 MLOAD DUP1 SWAP2 SUB SWAP1 LOG1 JUMPDEST POP POP POP POP JUMP JUMPDEST PUSH1 0x0 DUP2 MLOAD SWAP1 POP SWAP2 SWAP1 POP JUMP JUMPDEST PUSH1 0x0 DUP3 DUP3 MSTORE PUSH1 0x20 DUP3 ADD SWAP1 POP SWAP3 SWAP2 POP POP JUMP JUMPDEST PUSH1 0x0 JUMPDEST DUP4 DUP2 LT ISZERO PUSH2 0xB20 JUMPI DUP1 DUP3 ADD MLOAD DUP2 DUP5 ADD MSTORE PUSH1 0x20 DUP2 ADD SWAP1 POP PUSH2 0xB05 JUMP JUMPDEST PUSH1 0x0 DUP5 DUP5 ADD MSTORE POP POP POP POP JUMP JUMPDEST PUSH1 0x0 PUSH1 0x1F NOT PUSH1 0x1F DUP4 ADD AND SWAP1 POP SWAP2 SWAP1 POP JUMP JUMPDEST PUSH1 0x0 PUSH2 0xB48 DUP3 PUSH2 0xAE6 JUMP JUMPDEST PUSH2 0xB52 DUP2 DUP6 PUSH2 0xAF1 JUMP JUMPDEST SWAP4 POP PUSH2 0xB62 DUP2 DUP6 PUSH1 0x20 DUP7 ADD PUSH2 0xB02 JUMP JUMPDEST PUSH2 0xB6B DUP2 PUSH2 0xB2C JUMP JUMPDEST DUP5 ADD SWAP2 POP POP SWAP3 SWAP2 POP POP JUMP JUMPDEST PUSH1 0x0 PUSH1 0x20 DUP3 ADD SWAP1 POP DUP2 DUP2 SUB PUSH1 0x0 DUP4 ADD MSTORE PUSH2 0xB90 DUP2 DUP5 PUSH2 0xB3D JUMP JUMPDEST SWAP1 POP SWAP3 SWAP2 POP POP JUMP JUMPDEST PUSH1 0x0 DUP1 REVERT JUMPDEST PUSH1 0x0 DUP2 SWAP1 POP SWAP2 SWAP1 POP JUMP JUMPDEST PUSH2 0xBB0 DUP2 PUSH2 0xB9D JUMP JUMPDEST DUP2 EQ PUSH2 0xBBB JUMPI PUSH1 0x0 DUP1 REVERT JUMPDEST POP JUMP JUMPDEST PUSH1 0x0 DUP2 CALLDATALOAD SWAP1 POP PUSH2 0xBCD DUP2 PUSH2 0xBA7 JUMP JUMPDEST SWAP3 SWAP2 POP POP JUMP JUMPDEST PUSH1 0x0 PUSH1 0x20 DUP3 DUP5 SUB SLT ISZERO PUSH2 0xBE9 JUMPI PUSH2 0xBE8 PUSH2 0xB98 JUMP JUMPDEST JUMPDEST PUSH1 0x0 PUSH2 0xBF7 DUP5 DUP3 DUP6 ADD PUSH2 0xBBE JUMP JUMPDEST SWAP2 POP POP SWAP3 SWAP2 POP POP JUMP JUMPDEST PUSH1 0x0 DUP2 ISZERO ISZERO SWAP1 POP SWAP2 SWAP1 POP JUMP JUMPDEST PUSH2 0xC15 DUP2 PUSH2 0xC00 JUMP JUMPDEST DUP2 EQ PUSH2 0xC20 JUMPI PUSH1 0x0 DUP1 REVERT JUMPDEST POP JUMP JUMPDEST PUSH1 0x0 DUP2 CALLDATALOAD SWAP1 POP PUSH2 0xC32 DUP2 PUSH2 0xC0C JUMP JUMPDEST SWAP3 SWAP2 POP POP JUMP JUMPDEST PUSH1 0x0 DUP1 PUSH1 0x40 DUP4 DUP6 SUB SLT ISZERO PUSH2 0xC4F JUMPI PUSH2 0xC4E PUSH2 0xB98 JUMP JUMPDEST JUMPDEST PUSH1 0x0 PUSH2 0xC5D DUP6 DUP3 DUP7 ADD PUSH2 0xBBE JUMP JUMPDEST SWAP3 POP POP PUSH1 0x20 PUSH2 0xC6E DUP6 DUP3 DUP7 ADD PUSH2 0xC23 JUMP JUMPDEST SWAP2 POP POP SWAP3 POP SWAP3 SWAP1 POP JUMP JUMPDEST PUSH2 0xC81 DUP2 PUSH2 0xC00 JUMP JUMPDEST DUP3 MSTORE POP POP JUMP JUMPDEST PUSH1 0x0 PUSH1 0x20 DUP3 ADD SWAP1 POP PUSH2 0xC9C PUSH1 0x0 DUP4 ADD DUP5 PUSH2 0xC78 JUMP JUMPDEST SWAP3 SWAP2 POP POP JUMP JUMPDEST PUSH1 0x0 PUSH20 0xFFFFFFFFFFFFFFFFFFFFFFFFFFFFFFFFFFFFFFFF DUP3 AND SWAP1 POP SWAP2 SWAP1 POP JUMP JUMPDEST PUSH1 0x0 PUSH2 0xCCD DUP3 PUSH2 0xCA2 JUMP JUMPDEST SWAP1 POP SWAP2 SWAP1 POP JUMP JUMPDEST PUSH2 0xCDD DUP2 PUSH2 0xCC2 JUMP JUMPDEST DUP2 EQ PUSH2 0xCE8 JUMPI PUSH1 0x0 DUP1 REVERT JUMPDEST POP JUMP JUMPDEST PUSH1 0x0 DUP2 CALLDATALOAD SWAP1 POP PUSH2 0xCFA DUP2 PUSH2 0xCD4 JUMP JUMPDEST SWAP3 SWAP2 POP POP JUMP JUMPDEST PUSH1 0x0 DUP1 PUSH1 0x0 DUP1 PUSH1 0x80 DUP6 DUP8 SUB SLT ISZERO PUSH2 0xD1A JUMPI PUSH2 0xD19 PUSH2 0xB98 JUMP JUMPDEST JUMPDEST PUSH1 0x0 PUSH2 0xD28 DUP8 DUP3 DUP9 ADD PUSH2 0xCEB JUMP JUMPDEST SWAP5 POP POP PUSH1 0x20 PUSH2 0xD39 DUP8 DUP3 DUP9 ADD PUSH2 0xCEB JUMP JUMPDEST SWAP4 POP POP PUSH1 0x40 PUSH2 0xD4A DUP8 DUP3 DUP9 ADD PUSH2 0xBBE JUMP JUMPDEST SWAP3 POP POP PUSH1 0x60 PUSH2 0xD5B DUP8 DUP3 DUP9 ADD PUSH2 0xC23 JUMP JUMPDEST SWAP2 POP POP SWAP3 SWAP6 SWAP2 SWAP5 POP SWAP3 POP JUMP JUMPDEST PUSH1 0x0 PUSH1 0x80 DUP3 ADD SWAP1 POP PUSH2 0xD7C PUSH1 0x0 DUP4 ADD DUP8 PUSH2 0xC78 JUMP JUMPDEST PUSH2 0xD89 PUSH1 0x20 DUP4 ADD DUP7 PUSH2 0xC78 JUMP JUMPDEST PUSH2 0xD96 PUSH1 0x40 DUP4 ADD DUP6 PUSH2 0xC78 JUMP JUMPDEST PUSH2 0xDA3 PUSH1 0x60 DUP4 ADD DUP5 PUSH2 0xC78 JUMP JUMPDEST SWAP6 SWAP5 POP POP POP POP POP JUMP JUMPDEST PUSH2 0xDB5 DUP2 PUSH2 0xB9D JUMP JUMPDEST DUP3 MSTORE POP POP JUMP JUMPDEST PUSH2 0xDC4 DUP2 PUSH2 0xCC2 JUMP JUMPDEST DUP3 MSTORE POP POP JUMP JUMPDEST PUSH1 0x0 PUSH1 0xC0 DUP3 ADD SWAP1 POP PUSH2 0xDDF PUSH1 0x0 DUP4 ADD DUP10 PUSH2 0xDAC JUMP JUMPDEST PUSH2 0xDEC PUSH1 0x20 DUP4 ADD DUP9 PUSH2 0xDBB JUMP JUMPDEST PUSH2 0xDF9 PUSH1 0x40 DUP4 ADD DUP8 PUSH2 0xDBB JUMP JUMPDEST PUSH2 0xE06 PUSH1 0x60 DUP4 ADD DUP7 PUSH2 0xDAC JUMP JUMPDEST PUSH2 0xE13 PUSH1 0x80 DUP4 ADD DUP6 PUSH2 0xC78 JUMP JUMPDEST PUSH2 0xE20 PUSH1 0xA0 DUP4 ADD DUP5 PUSH2 0xDAC JUMP JUMPDEST SWAP8 SWAP7 POP POP POP POP POP POP POP JUMP JUMPDEST PUSH1 0x0 DUP2 MLOAD SWAP1 POP SWAP2 SWAP1 POP JUMP JUMPDEST PUSH1 0x0 DUP3 DUP3 MSTORE PUSH1 0x20 DUP3 ADD SWAP1 POP SWAP3 SWAP2 POP POP JUMP JUMPDEST PUSH1 0x0 DUP2 SWAP1 POP PUSH1 0x20 DUP3 ADD SWAP1 POP SWAP2 SWAP1 POP JUMP JUMPDEST PUSH2 0xE60 DUP2 PUSH2 0xB9D JUMP JUMPDEST DUP3 MSTORE POP POP JUMP JUMPDEST PUSH1 0x0 PUSH2 0xE72 DUP4 DUP4 PUSH2 0xE57 JUMP JUMPDEST PUSH1 0x20 DUP4 ADD SWAP1 POP SWAP3 SWAP2 POP POP JUMP JUMPDEST PUSH1 0x0 PUSH1 0x20 DUP3 ADD SWAP1 POP SWAP2 SWAP1 POP JUMP JUMPDEST PUSH1 0x0 PUSH2 0xE96 DUP3 PUSH2 0xE2B JUMP JUMPDEST PUSH2 0xEA0 DUP2 DUP6 PUSH2 0xE36 JUMP JUMPDEST SWAP4 POP PUSH2 0xEAB DUP4 PUSH2 0xE47 JUMP JUMPDEST DUP1 PUSH1 0x0 JUMPDEST DUP4 DUP2 LT ISZERO PUSH2 0xEDC JUMPI DUP2 MLOAD PUSH2 0xEC3 DUP9 DUP3 PUSH2 0xE66 JUMP JUMPDEST SWAP8 POP PUSH2 0xECE DUP4 PUSH2 0xE7E JUMP JUMPDEST SWAP3 POP POP PUSH1 0x1 DUP2 ADD SWAP1 POP PUSH2 0xEAF JUMP JUMPDEST POP DUP6 SWAP4 POP POP POP POP SWAP3 SWAP2 POP POP JUMP JUMPDEST PUSH1 0x0 PUSH1 0x20 DUP3 ADD SWAP1 POP DUP2 DUP2 SUB PUSH1 0x0 DUP4 ADD MSTORE PUSH2 0xF03 DUP2 DUP5 PUSH2 0xE8B JUMP JUMPDEST SWAP1 POP SWAP3 SWAP2 POP POP JUMP JUMPDEST PUSH1 0x0 DUP1 PUSH1 0x0 DUP1 PUSH1 0x80 DUP6 DUP8 SUB SLT ISZERO PUSH2 0xF25 JUMPI PUSH2 0xF24 PUSH2 0xB98 JUMP JUMPDEST JUMPDEST PUSH1 0x0 PUSH2 0xF33 DUP8 DUP3 DUP9 ADD PUSH2 0xBBE JUMP JUMPDEST SWAP5 POP POP PUSH1 0x20 PUSH2 0xF44 DUP8 DUP3 DUP9 ADD PUSH2 0xC23 JUMP JUMPDEST SWAP4 POP POP PUSH1 0x40 PUSH2 0xF55 DUP8 DUP3 DUP9 ADD PUSH2 0xC23 JUMP JUMPDEST SWAP3 POP POP PUSH1 0x60 PUSH2 0xF66 DUP8 DUP3 DUP9 ADD PUSH2 0xC23 JUMP JUMPDEST SWAP2 POP POP SWAP3 SWAP6 SWAP2 SWAP5 POP SWAP3 POP JUMP JUMPDEST PUSH32 0x4E487B7100000000000000000000000000000000000000000000000000000000 PUSH1 0x0 MSTORE PUSH1 0x22 PUSH1 0x4 MSTORE PUSH1 0x24 PUSH1 0x0 REVERT JUMPDEST PUSH1 0x0 PUSH1 0x2 DUP3 DIV SWAP1 POP PUSH1 0x1 DUP3 AND DUP1 PUSH2 0xFB9 JUMPI PUSH1 0x7F DUP3 AND SWAP2 POP JUMPDEST PUSH1 0x20 DUP3 LT DUP2 SUB PUSH2 0xFCC JUMPI PUSH2 0xFCB PUSH2 0xF72 JUMP JUMPDEST JUMPDEST POP SWAP2 SWAP1 POP JUMP JUMPDEST PUSH1 0x0 PUSH1 0x40 DUP3 ADD SWAP1 POP PUSH2 0xFE7 PUSH1 0x0 DUP4 ADD DUP6 PUSH2 0xDAC JUMP JUMPDEST PUSH2 0xFF4 PUSH1 0x20 DUP4 ADD DUP5 PUSH2 0xC78 JUMP JUMPDEST SWAP4 SWAP3 POP POP POP JUMP JUMPDEST PUSH32 0x4E487B7100000000000000000000000000000000000000000000000000000000 PUSH1 0x0 MSTORE PUSH1 0x11 PUSH1 0x4 MSTORE PUSH1 0x24 PUSH1 0x0 REVERT JUMPDEST PUSH1 0x0 PUSH2 0x1035 DUP3 PUSH2 0xB9D JUMP JUMPDEST SWAP2 POP PUSH32 0xFFFFFFFFFFFFFFFFFFFFFFFFFFFFFFFFFFFFFFFFFFFFFFFFFFFFFFFFFFFFFFFF DUP3 SUB PUSH2 0x1067 JUMPI PUSH2 0x1066 PUSH2 0xFFB JUMP JUMPDEST JUMPDEST PUSH1 0x1 DUP3 ADD SWAP1 POP SWAP2 SWAP1 POP JUMP JUMPDEST PUSH1 0x0 PUSH1 0x40 DUP3 ADD SWAP1 POP PUSH2 0x1087 PUSH1 0x0 DUP4 ADD DUP6 PUSH2 0xDAC JUMP JUMPDEST PUSH2 0x1094 PUSH1 0x20 DUP4 ADD DUP5 PUSH2 0xDAC JUMP JUMPDEST SWAP4 SWAP3 POP POP POP JUMP JUMPDEST PUSH32 0x4E487B7100000000000000000000000000000000000000000000000000000000 PUSH1 0x0 MSTORE PUSH1 0x41 PUSH1 0x4 MSTORE PUSH1 0x24 PUSH1 0x0 REVERT JUMPDEST PUSH32 0x4E487B7100000000000000000000000000000000000000000000000000000000 PUSH1 0x0 MSTORE PUSH1 0x32 PUSH1 0x4 MSTORE PUSH1 0x24 PUSH1 0x0 REVERT JUMPDEST PUSH1 0x0 PUSH1 0x20 DUP3 ADD SWAP1 POP PUSH2 0x110E PUSH1 0x0 DUP4 ADD DUP5 PUSH2 0xDAC JUMP JUMPDEST SWAP3 SWAP2 POP POP JUMP INVALID LOG2 PUSH5 0x6970667358 0x22 SLT KECCAK256 0xC0 DUP6 BASEFEE SAR CALLER DUP1 EXTCODECOPY 0xAC TIMESTAMP 0xFB MSIZE 0xE6 XOR CALL 0x26 GT CALLDATALOAD 0xB8 MOD 0xCC PUSH17 0x8CB6491A5E77B0B1BE85A464736F6C6343 STOP ADDMOD GT STOP CALLER "
				},
				"gasEstimates": {
					"creation": {
						"codeDepositCost": "885200",
						"executionCost": "infinite",
						"totalCost": "infinite"
					},
					"external": {
						"_conditionList(uint256)": "infinite",
						"_listOfOfferContracts(uint256)": "infinite",
						"accept(uint256,bool)": "infinite",
						"createConditionList(uint256)": "infinite",
						"createOfferContract(address,address,uint256,bool)": "infinite",
						"getOfferContractDetailsById()": "infinite",
						"manageConditions(uint256,bool,bool,bool)": "infinite",
						"name()": "infinite",
						"symbol()": "infinite"
					}
				},
				"methodIdentifiers": {
					"_conditionList(uint256)": "53a68691",
					"_listOfOfferContracts(uint256)": "554d8bb6",
					"accept(uint256,bool)": "3b41e19c",
					"createConditionList(uint256)": "3ad1ce1f",
					"createOfferContract(address,address,uint256,bool)": "43af9a8d",
					"getOfferContractDetailsById()": "871457f6",
					"manageConditions(uint256,bool,bool,bool)": "fb2bbcd3",
					"name()": "06fdde03",
					"symbol()": "95d89b41"
				}
			},
			"storageLayout": {
				"storage": [
					{
						"astId": 3,
						"contract": "contracts/Comfree.sol:ComfreeProtocol",
						"label": "name",
						"offset": 0,
						"slot": "0",
						"type": "t_string_storage"
					},
					{
						"astId": 5,
						"contract": "contracts/Comfree.sol:ComfreeProtocol",
						"label": "symbol",
						"offset": 0,
						"slot": "1",
						"type": "t_string_storage"
					},
					{
						"astId": 44,
						"contract": "contracts/Comfree.sol:ComfreeProtocol",
						"label": "_listOfOfferContracts",
						"offset": 0,
						"slot": "2",
						"type": "t_mapping(t_uint256,t_struct(offerContract)30_storage)"
					},
					{
						"astId": 49,
						"contract": "contracts/Comfree.sol:ComfreeProtocol",
						"label": "_conditionList",
						"offset": 0,
						"slot": "3",
						"type": "t_mapping(t_uint256,t_struct(conditionList)39_storage)"
					},
					{
						"astId": 51,
						"contract": "contracts/Comfree.sol:ComfreeProtocol",
						"label": "conditionListCounter",
						"offset": 0,
						"slot": "4",
						"type": "t_uint256"
					},
					{
						"astId": 53,
						"contract": "contracts/Comfree.sol:ComfreeProtocol",
						"label": "offerContractCounter",
						"offset": 0,
						"slot": "5",
						"type": "t_uint256"
					}
				],
				"types": {
					"t_address": {
						"encoding": "inplace",
						"label": "address",
						"numberOfBytes": "20"
					},
					"t_bool": {
						"encoding": "inplace",
						"label": "bool",
						"numberOfBytes": "1"
					},
					"t_mapping(t_uint256,t_struct(conditionList)39_storage)": {
						"encoding": "mapping",
						"key": "t_uint256",
						"label": "mapping(uint256 => struct ComfreeProtocol.conditionList)",
						"numberOfBytes": "32",
						"value": "t_struct(conditionList)39_storage"
					},
					"t_mapping(t_uint256,t_struct(offerContract)30_storage)": {
						"encoding": "mapping",
						"key": "t_uint256",
						"label": "mapping(uint256 => struct ComfreeProtocol.offerContract)",
						"numberOfBytes": "32",
						"value": "t_struct(offerContract)30_storage"
					},
					"t_string_storage": {
						"encoding": "bytes",
						"label": "string",
						"numberOfBytes": "32"
					},
					"t_struct(conditionList)39_storage": {
						"encoding": "inplace",
						"label": "struct ComfreeProtocol.conditionList",
						"members": [
							{
								"astId": 32,
								"contract": "contracts/Comfree.sol:ComfreeProtocol",
								"label": "conditionMet",
								"offset": 0,
								"slot": "0",
								"type": "t_bool"
							},
							{
								"astId": 34,
								"contract": "contracts/Comfree.sol:ComfreeProtocol",
								"label": "WallsPainted",
								"offset": 1,
								"slot": "0",
								"type": "t_bool"
							},
							{
								"astId": 36,
								"contract": "contracts/Comfree.sol:ComfreeProtocol",
								"label": "CarpetCleaned",
								"offset": 2,
								"slot": "0",
								"type": "t_bool"
							},
							{
								"astId": 38,
								"contract": "contracts/Comfree.sol:ComfreeProtocol",
								"label": "WindowsWashed",
								"offset": 3,
								"slot": "0",
								"type": "t_bool"
							}
						],
						"numberOfBytes": "32"
					},
					"t_struct(offerContract)30_storage": {
						"encoding": "inplace",
						"label": "struct ComfreeProtocol.offerContract",
						"members": [
							{
								"astId": 19,
								"contract": "contracts/Comfree.sol:ComfreeProtocol",
								"label": "id",
								"offset": 0,
								"slot": "0",
								"type": "t_uint256"
							},
							{
								"astId": 21,
								"contract": "contracts/Comfree.sol:ComfreeProtocol",
								"label": "buyerAddress",
								"offset": 0,
								"slot": "1",
								"type": "t_address"
							},
							{
								"astId": 23,
								"contract": "contracts/Comfree.sol:ComfreeProtocol",
								"label": "sellerAddress",
								"offset": 0,
								"slot": "2",
								"type": "t_address"
							},
							{
								"astId": 25,
								"contract": "contracts/Comfree.sol:ComfreeProtocol",
								"label": "offerAmount",
								"offset": 0,
								"slot": "3",
								"type": "t_uint256"
							},
							{
								"astId": 27,
								"contract": "contracts/Comfree.sol:ComfreeProtocol",
								"label": "accepted",
								"offset": 0,
								"slot": "4",
								"type": "t_bool"
							},
							{
								"astId": 29,
								"contract": "contracts/Comfree.sol:ComfreeProtocol",
								"label": "conditionListId",
								"offset": 0,
								"slot": "5",
								"type": "t_uint256"
							}
						],
						"numberOfBytes": "192"
					},
					"t_uint256": {
						"encoding": "inplace",
						"label": "uint256",
						"numberOfBytes": "32"
					}
				}
			},
			"userdoc": {
				"kind": "user",
				"methods": {},
				"version": 1
			}
		}
	}
}