{
	"contracts/Comfree.sol": {
		"ComfreeProtocol": {
			"abi": [
				{
					"inputs": [],
					"stateMutability": "nonpayable",
					"type": "constructor"
				},
				{
					"anonymous": false,
					"inputs": [
						{
							"indexed": false,
							"internalType": "uint256",
							"name": "_offerContractId",
							"type": "uint256"
						},
						{
							"indexed": false,
							"internalType": "bool",
							"name": "_conditionMet",
							"type": "bool"
						}
					],
					"name": "ConditionListCreate",
					"type": "event"
				},
				{
					"anonymous": false,
					"inputs": [
						{
							"indexed": false,
							"internalType": "uint256",
							"name": "_offerId",
							"type": "uint256"
						}
					],
					"name": "ConditionMet",
					"type": "event"
				},
				{
					"anonymous": false,
					"inputs": [
						{
							"indexed": false,
							"internalType": "uint256",
							"name": "_offerId",
							"type": "uint256"
						}
					],
					"name": "ConditionNotMet",
					"type": "event"
				},
				{
					"anonymous": false,
					"inputs": [
						{
							"indexed": false,
							"internalType": "uint256",
							"name": "id",
							"type": "uint256"
						},
						{
							"indexed": true,
							"internalType": "address",
							"name": "sellerAddress",
							"type": "address"
						},
						{
							"indexed": true,
							"internalType": "address",
							"name": "buyerAddress",
							"type": "address"
						},
						{
							"indexed": false,
							"internalType": "uint256",
							"name": "priceAmount",
							"type": "uint256"
						}
					],
					"name": "OfferCreated",
					"type": "event"
				},
				{
					"inputs": [
						{
							"internalType": "uint256",
							"name": "",
							"type": "uint256"
						}
					],
					"name": "_conditionList",
					"outputs": [
						{
							"internalType": "bool",
							"name": "conditionMet",
							"type": "bool"
						},
						{
							"internalType": "bool",
							"name": "WallsPainted",
							"type": "bool"
						},
						{
							"internalType": "bool",
							"name": "CarpetCleaned",
							"type": "bool"
						},
						{
							"internalType": "bool",
							"name": "WindowsWashed",
							"type": "bool"
						}
					],
					"stateMutability": "view",
					"type": "function"
				},
				{
					"inputs": [
						{
							"internalType": "uint256",
							"name": "",
							"type": "uint256"
						}
					],
					"name": "_homesForSale",
					"outputs": [
						{
							"internalType": "uint256",
							"name": "id",
							"type": "uint256"
						},
						{
							"internalType": "address",
							"name": "seller",
							"type": "address"
						},
						{
							"internalType": "address",
							"name": "buyer",
							"type": "address"
						},
						{
							"internalType": "string",
							"name": "imgurl",
							"type": "string"
						},
						{
							"internalType": "string",
							"name": "propertyaddress",
							"type": "string"
						},
						{
							"internalType": "uint256",
							"name": "ethprice",
							"type": "uint256"
						}
					],
					"stateMutability": "view",
					"type": "function"
				},
				{
					"inputs": [
						{
							"internalType": "uint256",
							"name": "",
							"type": "uint256"
						}
					],
					"name": "_listOfOfferContracts",
					"outputs": [
						{
							"internalType": "uint256",
							"name": "id",
							"type": "uint256"
						},
						{
							"internalType": "address",
							"name": "buyerAddress",
							"type": "address"
						},
						{
							"internalType": "address",
							"name": "sellerAddress",
							"type": "address"
						},
						{
							"internalType": "uint256",
							"name": "offerAmount",
							"type": "uint256"
						},
						{
							"internalType": "bool",
							"name": "accepted",
							"type": "bool"
						},
						{
							"internalType": "uint256",
							"name": "conditionListId",
							"type": "uint256"
						}
					],
					"stateMutability": "view",
					"type": "function"
				},
				{
					"inputs": [
						{
							"internalType": "uint256",
							"name": "_id",
							"type": "uint256"
						},
						{
							"internalType": "bool",
							"name": "_value",
							"type": "bool"
						}
					],
					"name": "accept",
					"outputs": [
						{
							"internalType": "bool",
							"name": "",
							"type": "bool"
						}
					],
					"stateMutability": "nonpayable",
					"type": "function"
				},
				{
					"inputs": [
						{
							"internalType": "address",
							"name": "_buyerAddress",
							"type": "address"
						},
						{
							"internalType": "address",
							"name": "_sellerAddress",
							"type": "address"
						},
						{
							"internalType": "string",
							"name": "imgurl",
							"type": "string"
						},
						{
							"internalType": "string",
							"name": "propertyaddress",
							"type": "string"
						},
						{
							"internalType": "uint256",
							"name": "_ethprice",
							"type": "uint256"
						}
					],
					"name": "addPropertyForSale",
					"outputs": [],
					"stateMutability": "nonpayable",
					"type": "function"
				},
				{
					"inputs": [
						{
							"internalType": "uint256",
							"name": "_offerId",
							"type": "uint256"
						}
					],
					"name": "createConditionList",
					"outputs": [],
					"stateMutability": "nonpayable",
					"type": "function"
				},
				{
					"inputs": [
						{
							"internalType": "address",
							"name": "_buyerAddress",
							"type": "address"
						},
						{
							"internalType": "address",
							"name": "_sellerAddress",
							"type": "address"
						},
						{
							"internalType": "uint256",
							"name": "_offerAmount",
							"type": "uint256"
						},
						{
							"internalType": "bool",
							"name": "_accepted",
							"type": "bool"
						}
					],
					"name": "createOfferContract",
					"outputs": [],
					"stateMutability": "nonpayable",
					"type": "function"
				},
				{
					"inputs": [],
					"name": "getHomesForSale",
					"outputs": [
						{
							"internalType": "uint256[]",
							"name": "",
							"type": "uint256[]"
						}
					],
					"stateMutability": "view",
					"type": "function"
				},
				{
					"inputs": [],
					"name": "getOfferContractDetailsById",
					"outputs": [
						{
							"internalType": "uint256[]",
							"name": "",
							"type": "uint256[]"
						}
					],
					"stateMutability": "view",
					"type": "function"
				},
				{
					"inputs": [
						{
							"internalType": "uint256",
							"name": "_offerId",
							"type": "uint256"
						},
						{
							"internalType": "bool",
							"name": "_wallsPainted",
							"type": "bool"
						},
						{
							"internalType": "bool",
							"name": "_CarpetCleaned",
							"type": "bool"
						},
						{
							"internalType": "bool",
							"name": "_WindowsWashed",
							"type": "bool"
						}
					],
					"name": "manageConditions",
					"outputs": [],
					"stateMutability": "nonpayable",
					"type": "function"
				},
				{
					"inputs": [],
					"name": "name",
					"outputs": [
						{
							"internalType": "string",
							"name": "",
							"type": "string"
						}
					],
					"stateMutability": "view",
					"type": "function"
				},
				{
					"inputs": [],
					"name": "symbol",
					"outputs": [
						{
							"internalType": "string",
							"name": "",
							"type": "string"
						}
					],
					"stateMutability": "view",
					"type": "function"
				}
			],
			"devdoc": {
				"kind": "dev",
				"methods": {},
				"version": 1
			},
			"evm": {
				"assembly": "    /* \"contracts/Comfree.sol\":118:5939  contract ComfreeProtocol {... */\n  mstore(0x40, 0x80)\n    /* \"contracts/Comfree.sol\":201:286  constructor() {... */\n  callvalue\n  dup1\n  iszero\n  tag_1\n  jumpi\n  0x00\n  dup1\n  revert\ntag_1:\n  pop\n    /* \"contracts/Comfree.sol\":225:250  name = \"ComFree Protocol\" */\n  mload(0x40)\n  dup1\n  0x40\n  add\n  0x40\n  mstore\n  dup1\n  0x10\n  dup2\n  mstore\n  0x20\n  add\n  0x436f6d467265652050726f746f636f6c00000000000000000000000000000000\n  dup2\n  mstore\n  pop\n    /* \"contracts/Comfree.sol\":225:229  name */\n  0x00\n    /* \"contracts/Comfree.sol\":225:250  name = \"ComFree Protocol\" */\n  swap1\n  dup2\n  tag_4\n  swap2\n  swap1\n  tag_5\n  jump\t// in\ntag_4:\n  pop\n    /* \"contracts/Comfree.sol\":261:279  symbol = \"Comfree\" */\n  mload(0x40)\n  dup1\n  0x40\n  add\n  0x40\n  mstore\n  dup1\n  0x07\n  dup2\n  mstore\n  0x20\n  add\n  0x436f6d6672656500000000000000000000000000000000000000000000000000\n  dup2\n  mstore\n  pop\n    /* \"contracts/Comfree.sol\":261:267  symbol */\n  0x01\n    /* \"contracts/Comfree.sol\":261:279  symbol = \"Comfree\" */\n  swap1\n  dup2\n  tag_6\n  swap2\n  swap1\n  tag_5\n  jump\t// in\ntag_6:\n  pop\n    /* \"contracts/Comfree.sol\":118:5939  contract ComfreeProtocol {... */\n  jump(tag_7)\n    /* \"#utility.yul\":7:106   */\ntag_8:\n    /* \"#utility.yul\":59:65   */\n  0x00\n    /* \"#utility.yul\":93:98   */\n  dup2\n    /* \"#utility.yul\":87:99   */\n  mload\n    /* \"#utility.yul\":77:99   */\n  swap1\n  pop\n    /* \"#utility.yul\":7:106   */\n  swap2\n  swap1\n  pop\n  jump\t// out\n    /* \"#utility.yul\":112:292   */\ntag_9:\n    /* \"#utility.yul\":160:237   */\n  0x4e487b7100000000000000000000000000000000000000000000000000000000\n    /* \"#utility.yul\":157:158   */\n  0x00\n    /* \"#utility.yul\":150:238   */\n  mstore\n    /* \"#utility.yul\":257:261   */\n  0x41\n    /* \"#utility.yul\":254:255   */\n  0x04\n    /* \"#utility.yul\":247:262   */\n  mstore\n    /* \"#utility.yul\":281:285   */\n  0x24\n    /* \"#utility.yul\":278:279   */\n  0x00\n    /* \"#utility.yul\":271:286   */\n  revert\n    /* \"#utility.yul\":298:478   */\ntag_10:\n    /* \"#utility.yul\":346:423   */\n  0x4e487b7100000000000000000000000000000000000000000000000000000000\n    /* \"#utility.yul\":343:344   */\n  0x00\n    /* \"#utility.yul\":336:424   */\n  mstore\n    /* \"#utility.yul\":443:447   */\n  0x22\n    /* \"#utility.yul\":440:441   */\n  0x04\n    /* \"#utility.yul\":433:448   */\n  mstore\n    /* \"#utility.yul\":467:471   */\n  0x24\n    /* \"#utility.yul\":464:465   */\n  0x00\n    /* \"#utility.yul\":457:472   */\n  revert\n    /* \"#utility.yul\":484:804   */\ntag_11:\n    /* \"#utility.yul\":528:534   */\n  0x00\n    /* \"#utility.yul\":565:566   */\n  0x02\n    /* \"#utility.yul\":559:563   */\n  dup3\n    /* \"#utility.yul\":555:567   */\n  div\n    /* \"#utility.yul\":545:567   */\n  swap1\n  pop\n    /* \"#utility.yul\":612:613   */\n  0x01\n    /* \"#utility.yul\":606:610   */\n  dup3\n    /* \"#utility.yul\":602:614   */\n  and\n    /* \"#utility.yul\":633:651   */\n  dup1\n    /* \"#utility.yul\":623:704   */\n  tag_33\n  jumpi\n    /* \"#utility.yul\":689:693   */\n  0x7f\n    /* \"#utility.yul\":681:687   */\n  dup3\n    /* \"#utility.yul\":677:694   */\n  and\n    /* \"#utility.yul\":667:694   */\n  swap2\n  pop\n    /* \"#utility.yul\":623:704   */\ntag_33:\n    /* \"#utility.yul\":751:753   */\n  0x20\n    /* \"#utility.yul\":743:749   */\n  dup3\n    /* \"#utility.yul\":740:754   */\n  lt\n    /* \"#utility.yul\":720:738   */\n  dup2\n    /* \"#utility.yul\":717:755   */\n  sub\n    /* \"#utility.yul\":714:798   */\n  tag_34\n  jumpi\n    /* \"#utility.yul\":770:788   */\n  tag_35\n  tag_10\n  jump\t// in\ntag_35:\n    /* \"#utility.yul\":714:798   */\ntag_34:\n    /* \"#utility.yul\":535:804   */\n  pop\n    /* \"#utility.yul\":484:804   */\n  swap2\n  swap1\n  pop\n  jump\t// out\n    /* \"#utility.yul\":810:951   */\ntag_12:\n    /* \"#utility.yul\":859:863   */\n  0x00\n    /* \"#utility.yul\":882:885   */\n  dup2\n    /* \"#utility.yul\":874:885   */\n  swap1\n  pop\n    /* \"#utility.yul\":905:908   */\n  dup2\n    /* \"#utility.yul\":902:903   */\n  0x00\n    /* \"#utility.yul\":895:909   */\n  mstore\n    /* \"#utility.yul\":939:943   */\n  0x20\n    /* \"#utility.yul\":936:937   */\n  0x00\n    /* \"#utility.yul\":926:944   */\n  keccak256\n    /* \"#utility.yul\":918:944   */\n  swap1\n  pop\n    /* \"#utility.yul\":810:951   */\n  swap2\n  swap1\n  pop\n  jump\t// out\n    /* \"#utility.yul\":957:1050   */\ntag_13:\n    /* \"#utility.yul\":994:1000   */\n  0x00\n    /* \"#utility.yul\":1041:1043   */\n  0x20\n    /* \"#utility.yul\":1036:1038   */\n  0x1f\n    /* \"#utility.yul\":1029:1034   */\n  dup4\n    /* \"#utility.yul\":1025:1039   */\n  add\n    /* \"#utility.yul\":1021:1044   */\n  div\n    /* \"#utility.yul\":1011:1044   */\n  swap1\n  pop\n    /* \"#utility.yul\":957:1050   */\n  swap2\n  swap1\n  pop\n  jump\t// out\n    /* \"#utility.yul\":1056:1163   */\ntag_14:\n    /* \"#utility.yul\":1100:1108   */\n  0x00\n    /* \"#utility.yul\":1150:1155   */\n  dup3\n    /* \"#utility.yul\":1144:1148   */\n  dup3\n    /* \"#utility.yul\":1140:1156   */\n  shl\n    /* \"#utility.yul\":1119:1156   */\n  swap1\n  pop\n    /* \"#utility.yul\":1056:1163   */\n  swap3\n  swap2\n  pop\n  pop\n  jump\t// out\n    /* \"#utility.yul\":1169:1562   */\ntag_15:\n    /* \"#utility.yul\":1238:1244   */\n  0x00\n    /* \"#utility.yul\":1288:1289   */\n  0x08\n    /* \"#utility.yul\":1276:1286   */\n  dup4\n    /* \"#utility.yul\":1272:1290   */\n  mul\n    /* \"#utility.yul\":1311:1408   */\n  tag_40\n    /* \"#utility.yul\":1341:1407   */\n  0xffffffffffffffffffffffffffffffffffffffffffffffffffffffffffffffff\n    /* \"#utility.yul\":1330:1339   */\n  dup3\n    /* \"#utility.yul\":1311:1408   */\n  tag_14\n  jump\t// in\ntag_40:\n    /* \"#utility.yul\":1429:1468   */\n  tag_41\n    /* \"#utility.yul\":1459:1467   */\n  dup7\n    /* \"#utility.yul\":1448:1457   */\n  dup4\n    /* \"#utility.yul\":1429:1468   */\n  tag_14\n  jump\t// in\ntag_41:\n    /* \"#utility.yul\":1417:1468   */\n  swap6\n  pop\n    /* \"#utility.yul\":1501:1505   */\n  dup1\n    /* \"#utility.yul\":1497:1506   */\n  not\n    /* \"#utility.yul\":1490:1495   */\n  dup5\n    /* \"#utility.yul\":1486:1507   */\n  and\n    /* \"#utility.yul\":1477:1507   */\n  swap4\n  pop\n    /* \"#utility.yul\":1550:1554   */\n  dup1\n    /* \"#utility.yul\":1540:1548   */\n  dup7\n    /* \"#utility.yul\":1536:1555   */\n  and\n    /* \"#utility.yul\":1529:1534   */\n  dup5\n    /* \"#utility.yul\":1526:1556   */\n  or\n    /* \"#utility.yul\":1516:1556   */\n  swap3\n  pop\n    /* \"#utility.yul\":1245:1562   */\n  pop\n  pop\n    /* \"#utility.yul\":1169:1562   */\n  swap4\n  swap3\n  pop\n  pop\n  pop\n  jump\t// out\n    /* \"#utility.yul\":1568:1645   */\ntag_16:\n    /* \"#utility.yul\":1605:1612   */\n  0x00\n    /* \"#utility.yul\":1634:1639   */\n  dup2\n    /* \"#utility.yul\":1623:1639   */\n  swap1\n  pop\n    /* \"#utility.yul\":1568:1645   */\n  swap2\n  swap1\n  pop\n  jump\t// out\n    /* \"#utility.yul\":1651:1711   */\ntag_17:\n    /* \"#utility.yul\":1679:1682   */\n  0x00\n    /* \"#utility.yul\":1700:1705   */\n  dup2\n    /* \"#utility.yul\":1693:1705   */\n  swap1\n  pop\n    /* \"#utility.yul\":1651:1711   */\n  swap2\n  swap1\n  pop\n  jump\t// out\n    /* \"#utility.yul\":1717:1859   */\ntag_18:\n    /* \"#utility.yul\":1767:1776   */\n  0x00\n    /* \"#utility.yul\":1800:1853   */\n  tag_45\n    /* \"#utility.yul\":1818:1852   */\n  tag_46\n    /* \"#utility.yul\":1827:1851   */\n  tag_47\n    /* \"#utility.yul\":1845:1850   */\n  dup5\n    /* \"#utility.yul\":1827:1851   */\n  tag_16\n  jump\t// in\ntag_47:\n    /* \"#utility.yul\":1818:1852   */\n  tag_17\n  jump\t// in\ntag_46:\n    /* \"#utility.yul\":1800:1853   */\n  tag_16\n  jump\t// in\ntag_45:\n    /* \"#utility.yul\":1787:1853   */\n  swap1\n  pop\n    /* \"#utility.yul\":1717:1859   */\n  swap2\n  swap1\n  pop\n  jump\t// out\n    /* \"#utility.yul\":1865:1940   */\ntag_19:\n    /* \"#utility.yul\":1908:1911   */\n  0x00\n    /* \"#utility.yul\":1929:1934   */\n  dup2\n    /* \"#utility.yul\":1922:1934   */\n  swap1\n  pop\n    /* \"#utility.yul\":1865:1940   */\n  swap2\n  swap1\n  pop\n  jump\t// out\n    /* \"#utility.yul\":1946:2215   */\ntag_20:\n    /* \"#utility.yul\":2056:2095   */\n  tag_50\n    /* \"#utility.yul\":2087:2094   */\n  dup4\n    /* \"#utility.yul\":2056:2095   */\n  tag_18\n  jump\t// in\ntag_50:\n    /* \"#utility.yul\":2117:2208   */\n  tag_51\n    /* \"#utility.yul\":2166:2207   */\n  tag_52\n    /* \"#utility.yul\":2190:2206   */\n  dup3\n    /* \"#utility.yul\":2166:2207   */\n  tag_19\n  jump\t// in\ntag_52:\n    /* \"#utility.yul\":2158:2164   */\n  dup5\n    /* \"#utility.yul\":2151:2155   */\n  dup5\n    /* \"#utility.yul\":2145:2156   */\n  sload\n    /* \"#utility.yul\":2117:2208   */\n  tag_15\n  jump\t// in\ntag_51:\n    /* \"#utility.yul\":2111:2115   */\n  dup3\n    /* \"#utility.yul\":2104:2209   */\n  sstore\n    /* \"#utility.yul\":2022:2215   */\n  pop\n    /* \"#utility.yul\":1946:2215   */\n  pop\n  pop\n  pop\n  jump\t// out\n    /* \"#utility.yul\":2221:2294   */\ntag_21:\n    /* \"#utility.yul\":2266:2269   */\n  0x00\n    /* \"#utility.yul\":2221:2294   */\n  swap1\n  jump\t// out\n    /* \"#utility.yul\":2300:2489   */\ntag_22:\n    /* \"#utility.yul\":2377:2409   */\n  tag_55\n  tag_21\n  jump\t// in\ntag_55:\n    /* \"#utility.yul\":2418:2483   */\n  tag_56\n    /* \"#utility.yul\":2476:2482   */\n  dup2\n    /* \"#utility.yul\":2468:2474   */\n  dup5\n    /* \"#utility.yul\":2462:2466   */\n  dup5\n    /* \"#utility.yul\":2418:2483   */\n  tag_20\n  jump\t// in\ntag_56:\n    /* \"#utility.yul\":2353:2489   */\n  pop\n    /* \"#utility.yul\":2300:2489   */\n  pop\n  pop\n  jump\t// out\n    /* \"#utility.yul\":2495:2681   */\ntag_23:\n    /* \"#utility.yul\":2555:2675   */\ntag_58:\n    /* \"#utility.yul\":2572:2575   */\n  dup2\n    /* \"#utility.yul\":2565:2570   */\n  dup2\n    /* \"#utility.yul\":2562:2576   */\n  lt\n    /* \"#utility.yul\":2555:2675   */\n  iszero\n  tag_60\n  jumpi\n    /* \"#utility.yul\":2626:2665   */\n  tag_61\n    /* \"#utility.yul\":2663:2664   */\n  0x00\n    /* \"#utility.yul\":2656:2661   */\n  dup3\n    /* \"#utility.yul\":2626:2665   */\n  tag_22\n  jump\t// in\ntag_61:\n    /* \"#utility.yul\":2599:2600   */\n  0x01\n    /* \"#utility.yul\":2592:2597   */\n  dup2\n    /* \"#utility.yul\":2588:2601   */\n  add\n    /* \"#utility.yul\":2579:2601   */\n  swap1\n  pop\n    /* \"#utility.yul\":2555:2675   */\n  jump(tag_58)\ntag_60:\n    /* \"#utility.yul\":2495:2681   */\n  pop\n  pop\n  jump\t// out\n    /* \"#utility.yul\":2687:3230   */\ntag_24:\n    /* \"#utility.yul\":2788:2790   */\n  0x1f\n    /* \"#utility.yul\":2783:2786   */\n  dup3\n    /* \"#utility.yul\":2780:2791   */\n  gt\n    /* \"#utility.yul\":2777:3223   */\n  iszero\n  tag_63\n  jumpi\n    /* \"#utility.yul\":2822:2860   */\n  tag_64\n    /* \"#utility.yul\":2854:2859   */\n  dup2\n    /* \"#utility.yul\":2822:2860   */\n  tag_12\n  jump\t// in\ntag_64:\n    /* \"#utility.yul\":2906:2935   */\n  tag_65\n    /* \"#utility.yul\":2924:2934   */\n  dup5\n    /* \"#utility.yul\":2906:2935   */\n  tag_13\n  jump\t// in\ntag_65:\n    /* \"#utility.yul\":2896:2904   */\n  dup2\n    /* \"#utility.yul\":2892:2936   */\n  add\n    /* \"#utility.yul\":3089:3091   */\n  0x20\n    /* \"#utility.yul\":3077:3087   */\n  dup6\n    /* \"#utility.yul\":3074:3092   */\n  lt\n    /* \"#utility.yul\":3071:3120   */\n  iszero\n  tag_66\n  jumpi\n    /* \"#utility.yul\":3110:3118   */\n  dup2\n    /* \"#utility.yul\":3095:3118   */\n  swap1\n  pop\n    /* \"#utility.yul\":3071:3120   */\ntag_66:\n    /* \"#utility.yul\":3133:3213   */\n  tag_67\n    /* \"#utility.yul\":3189:3211   */\n  tag_68\n    /* \"#utility.yul\":3207:3210   */\n  dup6\n    /* \"#utility.yul\":3189:3211   */\n  tag_13\n  jump\t// in\ntag_68:\n    /* \"#utility.yul\":3179:3187   */\n  dup4\n    /* \"#utility.yul\":3175:3212   */\n  add\n    /* \"#utility.yul\":3162:3173   */\n  dup3\n    /* \"#utility.yul\":3133:3213   */\n  tag_23\n  jump\t// in\ntag_67:\n    /* \"#utility.yul\":2792:3223   */\n  pop\n  pop\n    /* \"#utility.yul\":2777:3223   */\ntag_63:\n    /* \"#utility.yul\":2687:3230   */\n  pop\n  pop\n  pop\n  jump\t// out\n    /* \"#utility.yul\":3236:3353   */\ntag_25:\n    /* \"#utility.yul\":3290:3298   */\n  0x00\n    /* \"#utility.yul\":3340:3345   */\n  dup3\n    /* \"#utility.yul\":3334:3338   */\n  dup3\n    /* \"#utility.yul\":3330:3346   */\n  shr\n    /* \"#utility.yul\":3309:3346   */\n  swap1\n  pop\n    /* \"#utility.yul\":3236:3353   */\n  swap3\n  swap2\n  pop\n  pop\n  jump\t// out\n    /* \"#utility.yul\":3359:3528   */\ntag_26:\n    /* \"#utility.yul\":3403:3409   */\n  0x00\n    /* \"#utility.yul\":3436:3487   */\n  tag_71\n    /* \"#utility.yul\":3484:3485   */\n  0x00\n    /* \"#utility.yul\":3480:3486   */\n  not\n    /* \"#utility.yul\":3472:3477   */\n  dup5\n    /* \"#utility.yul\":3469:3470   */\n  0x08\n    /* \"#utility.yul\":3465:3478   */\n  mul\n    /* \"#utility.yul\":3436:3487   */\n  tag_25\n  jump\t// in\ntag_71:\n    /* \"#utility.yul\":3432:3488   */\n  not\n    /* \"#utility.yul\":3517:3521   */\n  dup1\n    /* \"#utility.yul\":3511:3515   */\n  dup4\n    /* \"#utility.yul\":3507:3522   */\n  and\n    /* \"#utility.yul\":3497:3522   */\n  swap2\n  pop\n    /* \"#utility.yul\":3410:3528   */\n  pop\n    /* \"#utility.yul\":3359:3528   */\n  swap3\n  swap2\n  pop\n  pop\n  jump\t// out\n    /* \"#utility.yul\":3533:3828   */\ntag_27:\n    /* \"#utility.yul\":3609:3613   */\n  0x00\n    /* \"#utility.yul\":3755:3784   */\n  tag_73\n    /* \"#utility.yul\":3780:3783   */\n  dup4\n    /* \"#utility.yul\":3774:3778   */\n  dup4\n    /* \"#utility.yul\":3755:3784   */\n  tag_26\n  jump\t// in\ntag_73:\n    /* \"#utility.yul\":3747:3784   */\n  swap2\n  pop\n    /* \"#utility.yul\":3817:3820   */\n  dup3\n    /* \"#utility.yul\":3814:3815   */\n  0x02\n    /* \"#utility.yul\":3810:3821   */\n  mul\n    /* \"#utility.yul\":3804:3808   */\n  dup3\n    /* \"#utility.yul\":3801:3822   */\n  or\n    /* \"#utility.yul\":3793:3822   */\n  swap1\n  pop\n    /* \"#utility.yul\":3533:3828   */\n  swap3\n  swap2\n  pop\n  pop\n  jump\t// out\n    /* \"#utility.yul\":3833:5228   */\ntag_5:\n    /* \"#utility.yul\":3950:3987   */\n  tag_75\n    /* \"#utility.yul\":3983:3986   */\n  dup3\n    /* \"#utility.yul\":3950:3987   */\n  tag_8\n  jump\t// in\ntag_75:\n    /* \"#utility.yul\":4052:4070   */\n  0xffffffffffffffff\n    /* \"#utility.yul\":4044:4050   */\n  dup2\n    /* \"#utility.yul\":4041:4071   */\n  gt\n    /* \"#utility.yul\":4038:4094   */\n  iszero\n  tag_76\n  jumpi\n    /* \"#utility.yul\":4074:4092   */\n  tag_77\n  tag_9\n  jump\t// in\ntag_77:\n    /* \"#utility.yul\":4038:4094   */\ntag_76:\n    /* \"#utility.yul\":4118:4156   */\n  tag_78\n    /* \"#utility.yul\":4150:4154   */\n  dup3\n    /* \"#utility.yul\":4144:4155   */\n  sload\n    /* \"#utility.yul\":4118:4156   */\n  tag_11\n  jump\t// in\ntag_78:\n    /* \"#utility.yul\":4203:4270   */\n  tag_79\n    /* \"#utility.yul\":4263:4269   */\n  dup3\n    /* \"#utility.yul\":4255:4261   */\n  dup3\n    /* \"#utility.yul\":4249:4253   */\n  dup6\n    /* \"#utility.yul\":4203:4270   */\n  tag_24\n  jump\t// in\ntag_79:\n    /* \"#utility.yul\":4297:4298   */\n  0x00\n    /* \"#utility.yul\":4321:4325   */\n  0x20\n    /* \"#utility.yul\":4308:4325   */\n  swap1\n  pop\n    /* \"#utility.yul\":4353:4355   */\n  0x1f\n    /* \"#utility.yul\":4345:4351   */\n  dup4\n    /* \"#utility.yul\":4342:4356   */\n  gt\n    /* \"#utility.yul\":4370:4371   */\n  0x01\n    /* \"#utility.yul\":4365:4983   */\n  dup2\n  eq\n  tag_81\n  jumpi\n    /* \"#utility.yul\":5027:5028   */\n  0x00\n    /* \"#utility.yul\":5044:5050   */\n  dup5\n    /* \"#utility.yul\":5041:5118   */\n  iszero\n  tag_82\n  jumpi\n    /* \"#utility.yul\":5093:5102   */\n  dup3\n    /* \"#utility.yul\":5088:5091   */\n  dup8\n    /* \"#utility.yul\":5084:5103   */\n  add\n    /* \"#utility.yul\":5078:5104   */\n  mload\n    /* \"#utility.yul\":5069:5104   */\n  swap1\n  pop\n    /* \"#utility.yul\":5041:5118   */\ntag_82:\n    /* \"#utility.yul\":5144:5211   */\n  tag_83\n    /* \"#utility.yul\":5204:5210   */\n  dup6\n    /* \"#utility.yul\":5197:5202   */\n  dup3\n    /* \"#utility.yul\":5144:5211   */\n  tag_27\n  jump\t// in\ntag_83:\n    /* \"#utility.yul\":5138:5142   */\n  dup7\n    /* \"#utility.yul\":5131:5212   */\n  sstore\n    /* \"#utility.yul\":5000:5222   */\n  pop\n    /* \"#utility.yul\":4335:5222   */\n  jump(tag_80)\n    /* \"#utility.yul\":4365:4983   */\ntag_81:\n    /* \"#utility.yul\":4417:4421   */\n  0x1f\n    /* \"#utility.yul\":4413:4422   */\n  not\n    /* \"#utility.yul\":4405:4411   */\n  dup5\n    /* \"#utility.yul\":4401:4423   */\n  and\n    /* \"#utility.yul\":4451:4488   */\n  tag_84\n    /* \"#utility.yul\":4483:4487   */\n  dup7\n    /* \"#utility.yul\":4451:4488   */\n  tag_12\n  jump\t// in\ntag_84:\n    /* \"#utility.yul\":4510:4511   */\n  0x00\n    /* \"#utility.yul\":4524:4732   */\ntag_85:\n    /* \"#utility.yul\":4538:4545   */\n  dup3\n    /* \"#utility.yul\":4535:4536   */\n  dup2\n    /* \"#utility.yul\":4532:4546   */\n  lt\n    /* \"#utility.yul\":4524:4732   */\n  iszero\n  tag_87\n  jumpi\n    /* \"#utility.yul\":4617:4626   */\n  dup5\n    /* \"#utility.yul\":4612:4615   */\n  dup10\n    /* \"#utility.yul\":4608:4627   */\n  add\n    /* \"#utility.yul\":4602:4628   */\n  mload\n    /* \"#utility.yul\":4594:4600   */\n  dup3\n    /* \"#utility.yul\":4587:4629   */\n  sstore\n    /* \"#utility.yul\":4668:4669   */\n  0x01\n    /* \"#utility.yul\":4660:4666   */\n  dup3\n    /* \"#utility.yul\":4656:4670   */\n  add\n    /* \"#utility.yul\":4646:4670   */\n  swap2\n  pop\n    /* \"#utility.yul\":4715:4717   */\n  0x20\n    /* \"#utility.yul\":4704:4713   */\n  dup6\n    /* \"#utility.yul\":4700:4718   */\n  add\n    /* \"#utility.yul\":4687:4718   */\n  swap5\n  pop\n    /* \"#utility.yul\":4561:4565   */\n  0x20\n    /* \"#utility.yul\":4558:4559   */\n  dup2\n    /* \"#utility.yul\":4554:4566   */\n  add\n    /* \"#utility.yul\":4549:4566   */\n  swap1\n  pop\n    /* \"#utility.yul\":4524:4732   */\n  jump(tag_85)\ntag_87:\n    /* \"#utility.yul\":4760:4766   */\n  dup7\n    /* \"#utility.yul\":4751:4758   */\n  dup4\n    /* \"#utility.yul\":4748:4767   */\n  lt\n    /* \"#utility.yul\":4745:4924   */\n  iszero\n  tag_88\n  jumpi\n    /* \"#utility.yul\":4818:4827   */\n  dup5\n    /* \"#utility.yul\":4813:4816   */\n  dup10\n    /* \"#utility.yul\":4809:4828   */\n  add\n    /* \"#utility.yul\":4803:4829   */\n  mload\n    /* \"#utility.yul\":4861:4909   */\n  tag_89\n    /* \"#utility.yul\":4903:4907   */\n  0x1f\n    /* \"#utility.yul\":4895:4901   */\n  dup10\n    /* \"#utility.yul\":4891:4908   */\n  and\n    /* \"#utility.yul\":4880:4889   */\n  dup3\n    /* \"#utility.yul\":4861:4909   */\n  tag_26\n  jump\t// in\ntag_89:\n    /* \"#utility.yul\":4853:4859   */\n  dup4\n    /* \"#utility.yul\":4846:4910   */\n  sstore\n    /* \"#utility.yul\":4768:4924   */\n  pop\n    /* \"#utility.yul\":4745:4924   */\ntag_88:\n    /* \"#utility.yul\":4970:4971   */\n  0x01\n    /* \"#utility.yul\":4966:4967   */\n  0x02\n    /* \"#utility.yul\":4958:4964   */\n  dup9\n    /* \"#utility.yul\":4954:4968   */\n  mul\n    /* \"#utility.yul\":4950:4972   */\n  add\n    /* \"#utility.yul\":4944:4948   */\n  dup9\n    /* \"#utility.yul\":4937:4973   */\n  sstore\n    /* \"#utility.yul\":4372:4983   */\n  pop\n  pop\n  pop\n    /* \"#utility.yul\":4335:5222   */\ntag_80:\n  pop\n    /* \"#utility.yul\":3925:5228   */\n  pop\n  pop\n  pop\n    /* \"#utility.yul\":3833:5228   */\n  pop\n  pop\n  jump\t// out\n    /* \"contracts/Comfree.sol\":118:5939  contract ComfreeProtocol {... */\ntag_7:\n  dataSize(sub_0)\n  dup1\n  dataOffset(sub_0)\n  0x00\n  codecopy\n  0x00\n  return\nstop\n\nsub_0: assembly {\n        /* \"contracts/Comfree.sol\":118:5939  contract ComfreeProtocol {... */\n      mstore(0x40, 0x80)\n      callvalue\n      dup1\n      iszero\n      tag_1\n      jumpi\n      0x00\n      dup1\n      revert\n    tag_1:\n      pop\n      jumpi(tag_2, lt(calldatasize, 0x04))\n      shr(0xe0, calldataload(0x00))\n      dup1\n      0x554d8bb6\n      gt\n      tag_15\n      jumpi\n      dup1\n      0x554d8bb6\n      eq\n      tag_9\n      jumpi\n      dup1\n      0x5e230c90\n      eq\n      tag_10\n      jumpi\n      dup1\n      0x871457f6\n      eq\n      tag_11\n      jumpi\n      dup1\n      0x95d89b41\n      eq\n      tag_12\n      jumpi\n      dup1\n      0xdab62bed\n      eq\n      tag_13\n      jumpi\n      dup1\n      0xfb2bbcd3\n      eq\n      tag_14\n      jumpi\n      jump(tag_2)\n    tag_15:\n      dup1\n      0x06fdde03\n      eq\n      tag_3\n      jumpi\n      dup1\n      0x3ad1ce1f\n      eq\n      tag_4\n      jumpi\n      dup1\n      0x3b41e19c\n      eq\n      tag_5\n      jumpi\n      dup1\n      0x43af9a8d\n      eq\n      tag_6\n      jumpi\n      dup1\n      0x53a68691\n      eq\n      tag_7\n      jumpi\n      dup1\n      0x5496623a\n      eq\n      tag_8\n      jumpi\n    tag_2:\n      0x00\n      dup1\n      revert\n        /* \"contracts/Comfree.sol\":150:168  string public name */\n    tag_3:\n      tag_16\n      tag_17\n      jump\t// in\n    tag_16:\n      mload(0x40)\n      tag_18\n      swap2\n      swap1\n      tag_19\n      jump\t// in\n    tag_18:\n      mload(0x40)\n      dup1\n      swap2\n      sub\n      swap1\n      return\n        /* \"contracts/Comfree.sol\":3611:4080  function createConditionList(uint _offerId) public {... */\n    tag_4:\n      tag_20\n      0x04\n      dup1\n      calldatasize\n      sub\n      dup2\n      add\n      swap1\n      tag_21\n      swap2\n      swap1\n      tag_22\n      jump\t// in\n    tag_21:\n      tag_23\n      jump\t// in\n    tag_20:\n      stop\n        /* \"contracts/Comfree.sol\":4777:5316  function accept(uint _id, bool _value) public returns(bool) {... */\n    tag_5:\n      tag_24\n      0x04\n      dup1\n      calldatasize\n      sub\n      dup2\n      add\n      swap1\n      tag_25\n      swap2\n      swap1\n      tag_26\n      jump\t// in\n    tag_25:\n      tag_27\n      jump\t// in\n    tag_24:\n      mload(0x40)\n      tag_28\n      swap2\n      swap1\n      tag_29\n      jump\t// in\n    tag_28:\n      mload(0x40)\n      dup1\n      swap2\n      sub\n      swap1\n      return\n        /* \"contracts/Comfree.sol\":4095:4771  function createOfferContract(address _buyerAddress, address _sellerAddress, uint _offerAmount,bool _accepted) public  {... */\n    tag_6:\n      tag_30\n      0x04\n      dup1\n      calldatasize\n      sub\n      dup2\n      add\n      swap1\n      tag_31\n      swap2\n      swap1\n      tag_32\n      jump\t// in\n    tag_31:\n      tag_33\n      jump\t// in\n    tag_30:\n      stop\n        /* \"contracts/Comfree.sol\":1142:1195  mapping (uint => conditionList) public _conditionList */\n    tag_7:\n      tag_34\n      0x04\n      dup1\n      calldatasize\n      sub\n      dup2\n      add\n      swap1\n      tag_35\n      swap2\n      swap1\n      tag_22\n      jump\t// in\n    tag_35:\n      tag_36\n      jump\t// in\n    tag_34:\n      mload(0x40)\n      tag_37\n      swap5\n      swap4\n      swap3\n      swap2\n      swap1\n      tag_38\n      jump\t// in\n    tag_37:\n      mload(0x40)\n      dup1\n      swap2\n      sub\n      swap1\n      return\n        /* \"contracts/Comfree.sol\":1020:1070  mapping (uint => homeForSale) public _homesForSale */\n    tag_8:\n      tag_39\n      0x04\n      dup1\n      calldatasize\n      sub\n      dup2\n      add\n      swap1\n      tag_40\n      swap2\n      swap1\n      tag_22\n      jump\t// in\n    tag_40:\n      tag_41\n      jump\t// in\n    tag_39:\n      mload(0x40)\n      tag_42\n      swap7\n      swap6\n      swap5\n      swap4\n      swap3\n      swap2\n      swap1\n      tag_43\n      jump\t// in\n    tag_42:\n      mload(0x40)\n      dup1\n      swap2\n      sub\n      swap1\n      return\n        /* \"contracts/Comfree.sol\":1076:1136  mapping (uint => offerContract) public _listOfOfferContracts */\n    tag_9:\n      tag_44\n      0x04\n      dup1\n      calldatasize\n      sub\n      dup2\n      add\n      swap1\n      tag_45\n      swap2\n      swap1\n      tag_22\n      jump\t// in\n    tag_45:\n      tag_46\n      jump\t// in\n    tag_44:\n      mload(0x40)\n      tag_47\n      swap7\n      swap6\n      swap5\n      swap4\n      swap3\n      swap2\n      swap1\n      tag_48\n      jump\t// in\n    tag_47:\n      mload(0x40)\n      dup1\n      swap2\n      sub\n      swap1\n      return\n        /* \"contracts/Comfree.sol\":1647:2228  function addPropertyForSale(address _buyerAddress, address _sellerAddress, string memory imgurl, string memory propertyaddress, uint _ethprice) public  {... */\n    tag_10:\n      tag_49\n      0x04\n      dup1\n      calldatasize\n      sub\n      dup2\n      add\n      swap1\n      tag_50\n      swap2\n      swap1\n      tag_51\n      jump\t// in\n    tag_50:\n      tag_52\n      jump\t// in\n    tag_49:\n      stop\n        /* \"contracts/Comfree.sol\":5322:5936  function getOfferContractDetailsById() public view returns(uint[] memory) {... */\n    tag_11:\n      tag_53\n      tag_54\n      jump\t// in\n    tag_53:\n      mload(0x40)\n      tag_55\n      swap2\n      swap1\n      tag_56\n      jump\t// in\n    tag_55:\n      mload(0x40)\n      dup1\n      swap2\n      sub\n      swap1\n      return\n        /* \"contracts/Comfree.sol\":174:194  string public symbol */\n    tag_12:\n      tag_57\n      tag_58\n      jump\t// in\n    tag_57:\n      mload(0x40)\n      tag_59\n      swap2\n      swap1\n      tag_19\n      jump\t// in\n    tag_59:\n      mload(0x40)\n      dup1\n      swap2\n      sub\n      swap1\n      return\n        /* \"contracts/Comfree.sol\":2234:2786  function getHomesForSale() public view returns(uint[] memory) {... */\n    tag_13:\n      tag_60\n      tag_61\n      jump\t// in\n    tag_60:\n      mload(0x40)\n      tag_62\n      swap2\n      swap1\n      tag_56\n      jump\t// in\n    tag_62:\n      mload(0x40)\n      dup1\n      swap2\n      sub\n      swap1\n      return\n        /* \"contracts/Comfree.sol\":2792:3605  function manageConditions(uint _offerId, bool _wallsPainted, bool _CarpetCleaned, bool _WindowsWashed) public {... */\n    tag_14:\n      tag_63\n      0x04\n      dup1\n      calldatasize\n      sub\n      dup2\n      add\n      swap1\n      tag_64\n      swap2\n      swap1\n      tag_65\n      jump\t// in\n    tag_64:\n      tag_66\n      jump\t// in\n    tag_63:\n      stop\n        /* \"contracts/Comfree.sol\":150:168  string public name */\n    tag_17:\n      0x00\n      dup1\n      sload\n      tag_67\n      swap1\n      tag_68\n      jump\t// in\n    tag_67:\n      dup1\n      0x1f\n      add\n      0x20\n      dup1\n      swap2\n      div\n      mul\n      0x20\n      add\n      mload(0x40)\n      swap1\n      dup2\n      add\n      0x40\n      mstore\n      dup1\n      swap3\n      swap2\n      swap1\n      dup2\n      dup2\n      mstore\n      0x20\n      add\n      dup3\n      dup1\n      sload\n      tag_69\n      swap1\n      tag_68\n      jump\t// in\n    tag_69:\n      dup1\n      iszero\n      tag_70\n      jumpi\n      dup1\n      0x1f\n      lt\n      tag_71\n      jumpi\n      0x0100\n      dup1\n      dup4\n      sload\n      div\n      mul\n      dup4\n      mstore\n      swap2\n      0x20\n      add\n      swap2\n      jump(tag_70)\n    tag_71:\n      dup3\n      add\n      swap2\n      swap1\n      0x00\n      mstore\n      keccak256(0x00, 0x20)\n      swap1\n    tag_72:\n      dup2\n      sload\n      dup2\n      mstore\n      swap1\n      0x01\n      add\n      swap1\n      0x20\n      add\n      dup1\n      dup4\n      gt\n      tag_72\n      jumpi\n      dup3\n      swap1\n      sub\n      0x1f\n      and\n      dup3\n      add\n      swap2\n    tag_70:\n      pop\n      pop\n      pop\n      pop\n      pop\n      dup2\n      jump\t// out\n        /* \"contracts/Comfree.sol\":3611:4080  function createConditionList(uint _offerId) public {... */\n    tag_23:\n        /* \"contracts/Comfree.sol\":3672:3687  bool isAccepted */\n      0x00\n        /* \"contracts/Comfree.sol\":3690:3711  _listOfOfferContracts */\n      0x03\n        /* \"contracts/Comfree.sol\":3690:3721  _listOfOfferContracts[_offerId] */\n      0x00\n        /* \"contracts/Comfree.sol\":3712:3720  _offerId */\n      dup4\n        /* \"contracts/Comfree.sol\":3690:3721  _listOfOfferContracts[_offerId] */\n      dup2\n      mstore\n      0x20\n      add\n      swap1\n      dup2\n      mstore\n      0x20\n      add\n      0x00\n      keccak256\n        /* \"contracts/Comfree.sol\":3690:3730  _listOfOfferContracts[_offerId].accepted */\n      0x04\n      add\n      0x00\n      swap1\n      sload\n      swap1\n      0x0100\n      exp\n      swap1\n      div\n      0xff\n      and\n        /* \"contracts/Comfree.sol\":3672:3730  bool isAccepted = _listOfOfferContracts[_offerId].accepted */\n      swap1\n      pop\n        /* \"contracts/Comfree.sol\":3762:3766  true */\n      0x01\n        /* \"contracts/Comfree.sol\":3748:3766  isAccepted == true */\n      iszero\n      iszero\n        /* \"contracts/Comfree.sol\":3748:3758  isAccepted */\n      dup2\n        /* \"contracts/Comfree.sol\":3748:3766  isAccepted == true */\n      iszero\n      iszero\n      eq\n        /* \"contracts/Comfree.sol\":3740:3767  require(isAccepted == true) */\n      tag_74\n      jumpi\n      0x00\n      dup1\n      revert\n    tag_74:\n        /* \"contracts/Comfree.sol\":3817:3822  false */\n      0x00\n        /* \"contracts/Comfree.sol\":3777:3791  _conditionList */\n      0x04\n        /* \"contracts/Comfree.sol\":3777:3801  _conditionList[_offerId] */\n      0x00\n        /* \"contracts/Comfree.sol\":3792:3800  _offerId */\n      dup5\n        /* \"contracts/Comfree.sol\":3777:3801  _conditionList[_offerId] */\n      dup2\n      mstore\n      0x20\n      add\n      swap1\n      dup2\n      mstore\n      0x20\n      add\n      0x00\n      keccak256\n        /* \"contracts/Comfree.sol\":3777:3814  _conditionList[_offerId].conditionMet */\n      0x00\n      add\n      0x00\n        /* \"contracts/Comfree.sol\":3777:3822  _conditionList[_offerId].conditionMet = false */\n      0x0100\n      exp\n      dup2\n      sload\n      dup2\n      0xff\n      mul\n      not\n      and\n      swap1\n      dup4\n      iszero\n      iszero\n      mul\n      or\n      swap1\n      sstore\n      pop\n        /* \"contracts/Comfree.sol\":3872:3877  false */\n      0x00\n        /* \"contracts/Comfree.sol\":3832:3846  _conditionList */\n      0x04\n        /* \"contracts/Comfree.sol\":3832:3856  _conditionList[_offerId] */\n      0x00\n        /* \"contracts/Comfree.sol\":3847:3855  _offerId */\n      dup5\n        /* \"contracts/Comfree.sol\":3832:3856  _conditionList[_offerId] */\n      dup2\n      mstore\n      0x20\n      add\n      swap1\n      dup2\n      mstore\n      0x20\n      add\n      0x00\n      keccak256\n        /* \"contracts/Comfree.sol\":3832:3869  _conditionList[_offerId].WallsPainted */\n      0x00\n      add\n      0x01\n        /* \"contracts/Comfree.sol\":3832:3877  _conditionList[_offerId].WallsPainted = false */\n      0x0100\n      exp\n      dup2\n      sload\n      dup2\n      0xff\n      mul\n      not\n      and\n      swap1\n      dup4\n      iszero\n      iszero\n      mul\n      or\n      swap1\n      sstore\n      pop\n        /* \"contracts/Comfree.sol\":3928:3933  false */\n      0x00\n        /* \"contracts/Comfree.sol\":3887:3901  _conditionList */\n      0x04\n        /* \"contracts/Comfree.sol\":3887:3911  _conditionList[_offerId] */\n      0x00\n        /* \"contracts/Comfree.sol\":3902:3910  _offerId */\n      dup5\n        /* \"contracts/Comfree.sol\":3887:3911  _conditionList[_offerId] */\n      dup2\n      mstore\n      0x20\n      add\n      swap1\n      dup2\n      mstore\n      0x20\n      add\n      0x00\n      keccak256\n        /* \"contracts/Comfree.sol\":3887:3925  _conditionList[_offerId].CarpetCleaned */\n      0x00\n      add\n      0x02\n        /* \"contracts/Comfree.sol\":3887:3933  _conditionList[_offerId].CarpetCleaned = false */\n      0x0100\n      exp\n      dup2\n      sload\n      dup2\n      0xff\n      mul\n      not\n      and\n      swap1\n      dup4\n      iszero\n      iszero\n      mul\n      or\n      swap1\n      sstore\n      pop\n        /* \"contracts/Comfree.sol\":3984:3989  false */\n      0x00\n        /* \"contracts/Comfree.sol\":3943:3957  _conditionList */\n      0x04\n        /* \"contracts/Comfree.sol\":3943:3967  _conditionList[_offerId] */\n      0x00\n        /* \"contracts/Comfree.sol\":3958:3966  _offerId */\n      dup5\n        /* \"contracts/Comfree.sol\":3943:3967  _conditionList[_offerId] */\n      dup2\n      mstore\n      0x20\n      add\n      swap1\n      dup2\n      mstore\n      0x20\n      add\n      0x00\n      keccak256\n        /* \"contracts/Comfree.sol\":3943:3981  _conditionList[_offerId].WindowsWashed */\n      0x00\n      add\n      0x03\n        /* \"contracts/Comfree.sol\":3943:3989  _conditionList[_offerId].WindowsWashed = false */\n      0x0100\n      exp\n      dup2\n      sload\n      dup2\n      0xff\n      mul\n      not\n      and\n      swap1\n      dup4\n      iszero\n      iszero\n      mul\n      or\n      swap1\n      sstore\n      pop\n        /* \"contracts/Comfree.sol\":4005:4073  ConditionListCreate(_offerId, _conditionList[_offerId].conditionMet) */\n      0x0985068d1545f3a3582c605476bc5fe6aaf9acc51845acef22cb74694222ea2e\n        /* \"contracts/Comfree.sol\":4025:4033  _offerId */\n      dup3\n        /* \"contracts/Comfree.sol\":4035:4049  _conditionList */\n      0x04\n        /* \"contracts/Comfree.sol\":4035:4059  _conditionList[_offerId] */\n      0x00\n        /* \"contracts/Comfree.sol\":4050:4058  _offerId */\n      dup6\n        /* \"contracts/Comfree.sol\":4035:4059  _conditionList[_offerId] */\n      dup2\n      mstore\n      0x20\n      add\n      swap1\n      dup2\n      mstore\n      0x20\n      add\n      0x00\n      keccak256\n        /* \"contracts/Comfree.sol\":4035:4072  _conditionList[_offerId].conditionMet */\n      0x00\n      add\n      0x00\n      swap1\n      sload\n      swap1\n      0x0100\n      exp\n      swap1\n      div\n      0xff\n      and\n        /* \"contracts/Comfree.sol\":4005:4073  ConditionListCreate(_offerId, _conditionList[_offerId].conditionMet) */\n      mload(0x40)\n      tag_75\n      swap3\n      swap2\n      swap1\n      tag_76\n      jump\t// in\n    tag_75:\n      mload(0x40)\n      dup1\n      swap2\n      sub\n      swap1\n      log1\n        /* \"contracts/Comfree.sol\":3662:4080  {... */\n      pop\n        /* \"contracts/Comfree.sol\":3611:4080  function createConditionList(uint _offerId) public {... */\n      pop\n      jump\t// out\n        /* \"contracts/Comfree.sol\":4777:5316  function accept(uint _id, bool _value) public returns(bool) {... */\n    tag_27:\n        /* \"contracts/Comfree.sol\":4831:4835  bool */\n      0x00\n        /* \"contracts/Comfree.sol\":5181:5191  msg.sender */\n      caller\n        /* \"contracts/Comfree.sol\":5137:5191  _listOfOfferContracts[_id].sellerAddress != msg.sender */\n      0xffffffffffffffffffffffffffffffffffffffff\n      and\n        /* \"contracts/Comfree.sol\":5137:5158  _listOfOfferContracts */\n      0x03\n        /* \"contracts/Comfree.sol\":5137:5163  _listOfOfferContracts[_id] */\n      0x00\n        /* \"contracts/Comfree.sol\":5159:5162  _id */\n      dup6\n        /* \"contracts/Comfree.sol\":5137:5163  _listOfOfferContracts[_id] */\n      dup2\n      mstore\n      0x20\n      add\n      swap1\n      dup2\n      mstore\n      0x20\n      add\n      0x00\n      keccak256\n        /* \"contracts/Comfree.sol\":5137:5177  _listOfOfferContracts[_id].sellerAddress */\n      0x02\n      add\n      0x00\n      swap1\n      sload\n      swap1\n      0x0100\n      exp\n      swap1\n      div\n      0xffffffffffffffffffffffffffffffffffffffff\n      and\n        /* \"contracts/Comfree.sol\":5137:5191  _listOfOfferContracts[_id].sellerAddress != msg.sender */\n      0xffffffffffffffffffffffffffffffffffffffff\n      and\n      sub\n        /* \"contracts/Comfree.sol\":5129:5192  require(_listOfOfferContracts[_id].sellerAddress != msg.sender) */\n      tag_78\n      jumpi\n      0x00\n      dup1\n      revert\n    tag_78:\n        /* \"contracts/Comfree.sol\":5240:5246  _value */\n      dup2\n        /* \"contracts/Comfree.sol\":5202:5223  _listOfOfferContracts */\n      0x03\n        /* \"contracts/Comfree.sol\":5202:5228  _listOfOfferContracts[_id] */\n      0x00\n        /* \"contracts/Comfree.sol\":5224:5227  _id */\n      dup6\n        /* \"contracts/Comfree.sol\":5202:5228  _listOfOfferContracts[_id] */\n      dup2\n      mstore\n      0x20\n      add\n      swap1\n      dup2\n      mstore\n      0x20\n      add\n      0x00\n      keccak256\n        /* \"contracts/Comfree.sol\":5202:5237  _listOfOfferContracts[_id].accepted */\n      0x04\n      add\n      0x00\n        /* \"contracts/Comfree.sol\":5202:5246  _listOfOfferContracts[_id].accepted = _value */\n      0x0100\n      exp\n      dup2\n      sload\n      dup2\n      0xff\n      mul\n      not\n      and\n      swap1\n      dup4\n      iszero\n      iszero\n      mul\n      or\n      swap1\n      sstore\n      pop\n        /* \"contracts/Comfree.sol\":5263:5269  _value */\n      dup2\n        /* \"contracts/Comfree.sol\":5256:5269  return _value */\n      swap1\n      pop\n        /* \"contracts/Comfree.sol\":4777:5316  function accept(uint _id, bool _value) public returns(bool) {... */\n      swap3\n      swap2\n      pop\n      pop\n      jump\t// out\n        /* \"contracts/Comfree.sol\":4095:4771  function createOfferContract(address _buyerAddress, address _sellerAddress, uint _offerAmount,bool _accepted) public  {... */\n    tag_33:\n        /* \"contracts/Comfree.sol\":4224:4244  offerContractCounter */\n      0x08\n      0x00\n        /* \"contracts/Comfree.sol\":4224:4246  offerContractCounter++ */\n      dup2\n      sload\n      dup1\n      swap3\n      swap2\n      swap1\n      tag_80\n      swap1\n      tag_81\n      jump\t// in\n    tag_80:\n      swap2\n      swap1\n      pop\n      sstore\n      pop\n        /* \"contracts/Comfree.sol\":4309:4329  offerContractCounter */\n      sload(0x08)\n        /* \"contracts/Comfree.sol\":4260:4281  _listOfOfferContracts */\n      0x03\n        /* \"contracts/Comfree.sol\":4260:4303  _listOfOfferContracts[offerContractCounter] */\n      0x00\n        /* \"contracts/Comfree.sol\":4282:4302  offerContractCounter */\n      sload(0x08)\n        /* \"contracts/Comfree.sol\":4260:4303  _listOfOfferContracts[offerContractCounter] */\n      dup2\n      mstore\n      0x20\n      add\n      swap1\n      dup2\n      mstore\n      0x20\n      add\n      0x00\n      keccak256\n        /* \"contracts/Comfree.sol\":4260:4306  _listOfOfferContracts[offerContractCounter].id */\n      0x00\n      add\n        /* \"contracts/Comfree.sol\":4260:4329  _listOfOfferContracts[offerContractCounter].id = offerContractCounter */\n      dup2\n      swap1\n      sstore\n      pop\n        /* \"contracts/Comfree.sol\":4402:4415  _buyerAddress */\n      dup4\n        /* \"contracts/Comfree.sol\":4343:4364  _listOfOfferContracts */\n      0x03\n        /* \"contracts/Comfree.sol\":4343:4386  _listOfOfferContracts[offerContractCounter] */\n      0x00\n        /* \"contracts/Comfree.sol\":4365:4385  offerContractCounter */\n      sload(0x08)\n        /* \"contracts/Comfree.sol\":4343:4386  _listOfOfferContracts[offerContractCounter] */\n      dup2\n      mstore\n      0x20\n      add\n      swap1\n      dup2\n      mstore\n      0x20\n      add\n      0x00\n      keccak256\n        /* \"contracts/Comfree.sol\":4343:4399  _listOfOfferContracts[offerContractCounter].buyerAddress */\n      0x01\n      add\n      0x00\n        /* \"contracts/Comfree.sol\":4343:4415  _listOfOfferContracts[offerContractCounter].buyerAddress = _buyerAddress */\n      0x0100\n      exp\n      dup2\n      sload\n      dup2\n      0xffffffffffffffffffffffffffffffffffffffff\n      mul\n      not\n      and\n      swap1\n      dup4\n      0xffffffffffffffffffffffffffffffffffffffff\n      and\n      mul\n      or\n      swap1\n      sstore\n      pop\n        /* \"contracts/Comfree.sol\":4489:4503  _sellerAddress */\n      dup3\n        /* \"contracts/Comfree.sol\":4429:4450  _listOfOfferContracts */\n      0x03\n        /* \"contracts/Comfree.sol\":4429:4472  _listOfOfferContracts[offerContractCounter] */\n      0x00\n        /* \"contracts/Comfree.sol\":4451:4471  offerContractCounter */\n      sload(0x08)\n        /* \"contracts/Comfree.sol\":4429:4472  _listOfOfferContracts[offerContractCounter] */\n      dup2\n      mstore\n      0x20\n      add\n      swap1\n      dup2\n      mstore\n      0x20\n      add\n      0x00\n      keccak256\n        /* \"contracts/Comfree.sol\":4429:4486  _listOfOfferContracts[offerContractCounter].sellerAddress */\n      0x02\n      add\n      0x00\n        /* \"contracts/Comfree.sol\":4429:4503  _listOfOfferContracts[offerContractCounter].sellerAddress = _sellerAddress */\n      0x0100\n      exp\n      dup2\n      sload\n      dup2\n      0xffffffffffffffffffffffffffffffffffffffff\n      mul\n      not\n      and\n      swap1\n      dup4\n      0xffffffffffffffffffffffffffffffffffffffff\n      and\n      mul\n      or\n      swap1\n      sstore\n      pop\n        /* \"contracts/Comfree.sol\":4575:4587  _offerAmount */\n      dup2\n        /* \"contracts/Comfree.sol\":4517:4538  _listOfOfferContracts */\n      0x03\n        /* \"contracts/Comfree.sol\":4517:4560  _listOfOfferContracts[offerContractCounter] */\n      0x00\n        /* \"contracts/Comfree.sol\":4539:4559  offerContractCounter */\n      sload(0x08)\n        /* \"contracts/Comfree.sol\":4517:4560  _listOfOfferContracts[offerContractCounter] */\n      dup2\n      mstore\n      0x20\n      add\n      swap1\n      dup2\n      mstore\n      0x20\n      add\n      0x00\n      keccak256\n        /* \"contracts/Comfree.sol\":4517:4572  _listOfOfferContracts[offerContractCounter].offerAmount */\n      0x03\n      add\n        /* \"contracts/Comfree.sol\":4517:4587  _listOfOfferContracts[offerContractCounter].offerAmount = _offerAmount */\n      dup2\n      swap1\n      sstore\n      pop\n        /* \"contracts/Comfree.sol\":4656:4665  _accepted */\n      dup1\n        /* \"contracts/Comfree.sol\":4601:4622  _listOfOfferContracts */\n      0x03\n        /* \"contracts/Comfree.sol\":4601:4644  _listOfOfferContracts[offerContractCounter] */\n      0x00\n        /* \"contracts/Comfree.sol\":4623:4643  offerContractCounter */\n      sload(0x08)\n        /* \"contracts/Comfree.sol\":4601:4644  _listOfOfferContracts[offerContractCounter] */\n      dup2\n      mstore\n      0x20\n      add\n      swap1\n      dup2\n      mstore\n      0x20\n      add\n      0x00\n      keccak256\n        /* \"contracts/Comfree.sol\":4601:4653  _listOfOfferContracts[offerContractCounter].accepted */\n      0x04\n      add\n      0x00\n        /* \"contracts/Comfree.sol\":4601:4665  _listOfOfferContracts[offerContractCounter].accepted = _accepted */\n      0x0100\n      exp\n      dup2\n      sload\n      dup2\n      0xff\n      mul\n      not\n      and\n      swap1\n      dup4\n      iszero\n      iszero\n      mul\n      or\n      swap1\n      sstore\n      pop\n        /* \"contracts/Comfree.sol\":4734:4748  _sellerAddress */\n      dup3\n        /* \"contracts/Comfree.sol\":4684:4763  OfferCreated(offerContractCounter, _buyerAddress, _sellerAddress, _offerAmount) */\n      0xffffffffffffffffffffffffffffffffffffffff\n      and\n        /* \"contracts/Comfree.sol\":4719:4732  _buyerAddress */\n      dup5\n        /* \"contracts/Comfree.sol\":4684:4763  OfferCreated(offerContractCounter, _buyerAddress, _sellerAddress, _offerAmount) */\n      0xffffffffffffffffffffffffffffffffffffffff\n      and\n      0xd7717a251aa6b58c031ecb17600f5fd443e3e40f6689d9c3ef687ce7f4b4e616\n        /* \"contracts/Comfree.sol\":4697:4717  offerContractCounter */\n      sload(0x08)\n        /* \"contracts/Comfree.sol\":4750:4762  _offerAmount */\n      dup6\n        /* \"contracts/Comfree.sol\":4684:4763  OfferCreated(offerContractCounter, _buyerAddress, _sellerAddress, _offerAmount) */\n      mload(0x40)\n      tag_82\n      swap3\n      swap2\n      swap1\n      tag_83\n      jump\t// in\n    tag_82:\n      mload(0x40)\n      dup1\n      swap2\n      sub\n      swap1\n      log3\n        /* \"contracts/Comfree.sol\":4095:4771  function createOfferContract(address _buyerAddress, address _sellerAddress, uint _offerAmount,bool _accepted) public  {... */\n      pop\n      pop\n      pop\n      pop\n      jump\t// out\n        /* \"contracts/Comfree.sol\":1142:1195  mapping (uint => conditionList) public _conditionList */\n    tag_36:\n      mstore(0x20, 0x04)\n      dup1\n      0x00\n      mstore\n      keccak256(0x00, 0x40)\n      0x00\n      swap2\n      pop\n      swap1\n      pop\n      dup1\n      0x00\n      add\n      0x00\n      swap1\n      sload\n      swap1\n      0x0100\n      exp\n      swap1\n      div\n      0xff\n      and\n      swap1\n      dup1\n      0x00\n      add\n      0x01\n      swap1\n      sload\n      swap1\n      0x0100\n      exp\n      swap1\n      div\n      0xff\n      and\n      swap1\n      dup1\n      0x00\n      add\n      0x02\n      swap1\n      sload\n      swap1\n      0x0100\n      exp\n      swap1\n      div\n      0xff\n      and\n      swap1\n      dup1\n      0x00\n      add\n      0x03\n      swap1\n      sload\n      swap1\n      0x0100\n      exp\n      swap1\n      div\n      0xff\n      and\n      swap1\n      pop\n      dup5\n      jump\t// out\n        /* \"contracts/Comfree.sol\":1020:1070  mapping (uint => homeForSale) public _homesForSale */\n    tag_41:\n      mstore(0x20, 0x02)\n      dup1\n      0x00\n      mstore\n      keccak256(0x00, 0x40)\n      0x00\n      swap2\n      pop\n      swap1\n      pop\n      dup1\n      0x00\n      add\n      sload\n      swap1\n      dup1\n      0x01\n      add\n      0x00\n      swap1\n      sload\n      swap1\n      0x0100\n      exp\n      swap1\n      div\n      0xffffffffffffffffffffffffffffffffffffffff\n      and\n      swap1\n      dup1\n      0x02\n      add\n      0x00\n      swap1\n      sload\n      swap1\n      0x0100\n      exp\n      swap1\n      div\n      0xffffffffffffffffffffffffffffffffffffffff\n      and\n      swap1\n      dup1\n      0x03\n      add\n      dup1\n      sload\n      tag_84\n      swap1\n      tag_68\n      jump\t// in\n    tag_84:\n      dup1\n      0x1f\n      add\n      0x20\n      dup1\n      swap2\n      div\n      mul\n      0x20\n      add\n      mload(0x40)\n      swap1\n      dup2\n      add\n      0x40\n      mstore\n      dup1\n      swap3\n      swap2\n      swap1\n      dup2\n      dup2\n      mstore\n      0x20\n      add\n      dup3\n      dup1\n      sload\n      tag_85\n      swap1\n      tag_68\n      jump\t// in\n    tag_85:\n      dup1\n      iszero\n      tag_86\n      jumpi\n      dup1\n      0x1f\n      lt\n      tag_87\n      jumpi\n      0x0100\n      dup1\n      dup4\n      sload\n      div\n      mul\n      dup4\n      mstore\n      swap2\n      0x20\n      add\n      swap2\n      jump(tag_86)\n    tag_87:\n      dup3\n      add\n      swap2\n      swap1\n      0x00\n      mstore\n      keccak256(0x00, 0x20)\n      swap1\n    tag_88:\n      dup2\n      sload\n      dup2\n      mstore\n      swap1\n      0x01\n      add\n      swap1\n      0x20\n      add\n      dup1\n      dup4\n      gt\n      tag_88\n      jumpi\n      dup3\n      swap1\n      sub\n      0x1f\n      and\n      dup3\n      add\n      swap2\n    tag_86:\n      pop\n      pop\n      pop\n      pop\n      pop\n      swap1\n      dup1\n      0x04\n      add\n      dup1\n      sload\n      tag_89\n      swap1\n      tag_68\n      jump\t// in\n    tag_89:\n      dup1\n      0x1f\n      add\n      0x20\n      dup1\n      swap2\n      div\n      mul\n      0x20\n      add\n      mload(0x40)\n      swap1\n      dup2\n      add\n      0x40\n      mstore\n      dup1\n      swap3\n      swap2\n      swap1\n      dup2\n      dup2\n      mstore\n      0x20\n      add\n      dup3\n      dup1\n      sload\n      tag_90\n      swap1\n      tag_68\n      jump\t// in\n    tag_90:\n      dup1\n      iszero\n      tag_91\n      jumpi\n      dup1\n      0x1f\n      lt\n      tag_92\n      jumpi\n      0x0100\n      dup1\n      dup4\n      sload\n      div\n      mul\n      dup4\n      mstore\n      swap2\n      0x20\n      add\n      swap2\n      jump(tag_91)\n    tag_92:\n      dup3\n      add\n      swap2\n      swap1\n      0x00\n      mstore\n      keccak256(0x00, 0x20)\n      swap1\n    tag_93:\n      dup2\n      sload\n      dup2\n      mstore\n      swap1\n      0x01\n      add\n      swap1\n      0x20\n      add\n      dup1\n      dup4\n      gt\n      tag_93\n      jumpi\n      dup3\n      swap1\n      sub\n      0x1f\n      and\n      dup3\n      add\n      swap2\n    tag_91:\n      pop\n      pop\n      pop\n      pop\n      pop\n      swap1\n      dup1\n      0x05\n      add\n      sload\n      swap1\n      pop\n      dup7\n      jump\t// out\n        /* \"contracts/Comfree.sol\":1076:1136  mapping (uint => offerContract) public _listOfOfferContracts */\n    tag_46:\n      mstore(0x20, 0x03)\n      dup1\n      0x00\n      mstore\n      keccak256(0x00, 0x40)\n      0x00\n      swap2\n      pop\n      swap1\n      pop\n      dup1\n      0x00\n      add\n      sload\n      swap1\n      dup1\n      0x01\n      add\n      0x00\n      swap1\n      sload\n      swap1\n      0x0100\n      exp\n      swap1\n      div\n      0xffffffffffffffffffffffffffffffffffffffff\n      and\n      swap1\n      dup1\n      0x02\n      add\n      0x00\n      swap1\n      sload\n      swap1\n      0x0100\n      exp\n      swap1\n      div\n      0xffffffffffffffffffffffffffffffffffffffff\n      and\n      swap1\n      dup1\n      0x03\n      add\n      sload\n      swap1\n      dup1\n      0x04\n      add\n      0x00\n      swap1\n      sload\n      swap1\n      0x0100\n      exp\n      swap1\n      div\n      0xff\n      and\n      swap1\n      dup1\n      0x05\n      add\n      sload\n      swap1\n      pop\n      dup7\n      jump\t// out\n        /* \"contracts/Comfree.sol\":1647:2228  function addPropertyForSale(address _buyerAddress, address _sellerAddress, string memory imgurl, string memory propertyaddress, uint _ethprice) public  {... */\n    tag_52:\n        /* \"contracts/Comfree.sol\":1810:1824  listingCounter */\n      0x06\n      0x00\n        /* \"contracts/Comfree.sol\":1810:1826  listingCounter++ */\n      dup2\n      sload\n      dup1\n      swap3\n      swap2\n      swap1\n      tag_95\n      swap1\n      tag_81\n      jump\t// in\n    tag_95:\n      swap2\n      swap1\n      pop\n      sstore\n      pop\n        /* \"contracts/Comfree.sol\":1875:1889  listingCounter */\n      sload(0x06)\n        /* \"contracts/Comfree.sol\":1840:1853  _homesForSale */\n      0x02\n        /* \"contracts/Comfree.sol\":1840:1869  _homesForSale[listingCounter] */\n      0x00\n        /* \"contracts/Comfree.sol\":1854:1868  listingCounter */\n      sload(0x06)\n        /* \"contracts/Comfree.sol\":1840:1869  _homesForSale[listingCounter] */\n      dup2\n      mstore\n      0x20\n      add\n      swap1\n      dup2\n      mstore\n      0x20\n      add\n      0x00\n      keccak256\n        /* \"contracts/Comfree.sol\":1840:1872  _homesForSale[listingCounter].id */\n      0x00\n      add\n        /* \"contracts/Comfree.sol\":1840:1889  _homesForSale[listingCounter].id = listingCounter */\n      dup2\n      swap1\n      sstore\n      pop\n        /* \"contracts/Comfree.sol\":1942:1956  _sellerAddress */\n      dup4\n        /* \"contracts/Comfree.sol\":1903:1916  _homesForSale */\n      0x02\n        /* \"contracts/Comfree.sol\":1903:1932  _homesForSale[listingCounter] */\n      0x00\n        /* \"contracts/Comfree.sol\":1917:1931  listingCounter */\n      sload(0x06)\n        /* \"contracts/Comfree.sol\":1903:1932  _homesForSale[listingCounter] */\n      dup2\n      mstore\n      0x20\n      add\n      swap1\n      dup2\n      mstore\n      0x20\n      add\n      0x00\n      keccak256\n        /* \"contracts/Comfree.sol\":1903:1939  _homesForSale[listingCounter].seller */\n      0x01\n      add\n      0x00\n        /* \"contracts/Comfree.sol\":1903:1956  _homesForSale[listingCounter].seller = _sellerAddress */\n      0x0100\n      exp\n      dup2\n      sload\n      dup2\n      0xffffffffffffffffffffffffffffffffffffffff\n      mul\n      not\n      and\n      swap1\n      dup4\n      0xffffffffffffffffffffffffffffffffffffffff\n      and\n      mul\n      or\n      swap1\n      sstore\n      pop\n        /* \"contracts/Comfree.sol\":2008:2021  _buyerAddress */\n      dup5\n        /* \"contracts/Comfree.sol\":1970:1983  _homesForSale */\n      0x02\n        /* \"contracts/Comfree.sol\":1970:1999  _homesForSale[listingCounter] */\n      0x00\n        /* \"contracts/Comfree.sol\":1984:1998  listingCounter */\n      sload(0x06)\n        /* \"contracts/Comfree.sol\":1970:1999  _homesForSale[listingCounter] */\n      dup2\n      mstore\n      0x20\n      add\n      swap1\n      dup2\n      mstore\n      0x20\n      add\n      0x00\n      keccak256\n        /* \"contracts/Comfree.sol\":1970:2005  _homesForSale[listingCounter].buyer */\n      0x02\n      add\n      0x00\n        /* \"contracts/Comfree.sol\":1970:2021  _homesForSale[listingCounter].buyer = _buyerAddress */\n      0x0100\n      exp\n      dup2\n      sload\n      dup2\n      0xffffffffffffffffffffffffffffffffffffffff\n      mul\n      not\n      and\n      swap1\n      dup4\n      0xffffffffffffffffffffffffffffffffffffffff\n      and\n      mul\n      or\n      swap1\n      sstore\n      pop\n        /* \"contracts/Comfree.sol\":2074:2080  imgurl */\n      dup3\n        /* \"contracts/Comfree.sol\":2035:2048  _homesForSale */\n      0x02\n        /* \"contracts/Comfree.sol\":2035:2064  _homesForSale[listingCounter] */\n      0x00\n        /* \"contracts/Comfree.sol\":2049:2063  listingCounter */\n      sload(0x06)\n        /* \"contracts/Comfree.sol\":2035:2064  _homesForSale[listingCounter] */\n      dup2\n      mstore\n      0x20\n      add\n      swap1\n      dup2\n      mstore\n      0x20\n      add\n      0x00\n      keccak256\n        /* \"contracts/Comfree.sol\":2035:2071  _homesForSale[listingCounter].imgurl */\n      0x03\n      add\n        /* \"contracts/Comfree.sol\":2035:2080  _homesForSale[listingCounter].imgurl = imgurl */\n      swap1\n      dup2\n      tag_96\n      swap2\n      swap1\n      tag_97\n      jump\t// in\n    tag_96:\n      pop\n        /* \"contracts/Comfree.sol\":2142:2157  propertyaddress */\n      dup2\n        /* \"contracts/Comfree.sol\":2094:2107  _homesForSale */\n      0x02\n        /* \"contracts/Comfree.sol\":2094:2123  _homesForSale[listingCounter] */\n      0x00\n        /* \"contracts/Comfree.sol\":2108:2122  listingCounter */\n      sload(0x06)\n        /* \"contracts/Comfree.sol\":2094:2123  _homesForSale[listingCounter] */\n      dup2\n      mstore\n      0x20\n      add\n      swap1\n      dup2\n      mstore\n      0x20\n      add\n      0x00\n      keccak256\n        /* \"contracts/Comfree.sol\":2094:2139  _homesForSale[listingCounter].propertyaddress */\n      0x04\n      add\n        /* \"contracts/Comfree.sol\":2094:2157  _homesForSale[listingCounter].propertyaddress = propertyaddress */\n      swap1\n      dup2\n      tag_98\n      swap2\n      swap1\n      tag_97\n      jump\t// in\n    tag_98:\n      pop\n        /* \"contracts/Comfree.sol\":2212:2221  _ethprice */\n      dup1\n        /* \"contracts/Comfree.sol\":2171:2184  _homesForSale */\n      0x02\n        /* \"contracts/Comfree.sol\":2171:2200  _homesForSale[listingCounter] */\n      0x00\n        /* \"contracts/Comfree.sol\":2185:2199  listingCounter */\n      sload(0x06)\n        /* \"contracts/Comfree.sol\":2171:2200  _homesForSale[listingCounter] */\n      dup2\n      mstore\n      0x20\n      add\n      swap1\n      dup2\n      mstore\n      0x20\n      add\n      0x00\n      keccak256\n        /* \"contracts/Comfree.sol\":2171:2209  _homesForSale[listingCounter].ethprice */\n      0x05\n      add\n        /* \"contracts/Comfree.sol\":2171:2221  _homesForSale[listingCounter].ethprice = _ethprice */\n      dup2\n      swap1\n      sstore\n      pop\n        /* \"contracts/Comfree.sol\":1647:2228  function addPropertyForSale(address _buyerAddress, address _sellerAddress, string memory imgurl, string memory propertyaddress, uint _ethprice) public  {... */\n      pop\n      pop\n      pop\n      pop\n      pop\n      jump\t// out\n        /* \"contracts/Comfree.sol\":5322:5936  function getOfferContractDetailsById() public view returns(uint[] memory) {... */\n    tag_54:\n        /* \"contracts/Comfree.sol\":5381:5394  uint[] memory */\n      0x60\n        /* \"contracts/Comfree.sol\":5406:5428  uint[] memory offerIds */\n      0x00\n        /* \"contracts/Comfree.sol\":5442:5462  offerContractCounter */\n      sload(0x08)\n        /* \"contracts/Comfree.sol\":5431:5463  new uint[](offerContractCounter) */\n      0xffffffffffffffff\n      dup2\n      gt\n      iszero\n      tag_100\n      jumpi\n      tag_101\n      tag_102\n      jump\t// in\n    tag_101:\n    tag_100:\n      mload(0x40)\n      swap1\n      dup1\n      dup3\n      mstore\n      dup1\n      0x20\n      mul\n      0x20\n      add\n      dup3\n      add\n      0x40\n      mstore\n      dup1\n      iszero\n      tag_103\n      jumpi\n      dup2\n      0x20\n      add\n      0x20\n      dup3\n      mul\n      dup1\n      calldatasize\n      dup4\n      calldatacopy\n      dup1\n      dup3\n      add\n      swap2\n      pop\n      pop\n      swap1\n      pop\n    tag_103:\n      pop\n        /* \"contracts/Comfree.sol\":5406:5463  uint[] memory offerIds = new uint[](offerContractCounter) */\n      swap1\n      pop\n        /* \"contracts/Comfree.sol\":5474:5504  uint numberOfPropertiesForSale */\n      0x00\n        /* \"contracts/Comfree.sol\":5540:5546  uint i */\n      dup1\n        /* \"contracts/Comfree.sol\":5549:5550  1 */\n      0x01\n        /* \"contracts/Comfree.sol\":5540:5550  uint i = 1 */\n      swap1\n      pop\n        /* \"contracts/Comfree.sol\":5536:5724  for(uint i = 1; i <= offerContractCounter; i++) {... */\n    tag_104:\n        /* \"contracts/Comfree.sol\":5557:5577  offerContractCounter */\n      sload(0x08)\n        /* \"contracts/Comfree.sol\":5552:5553  i */\n      dup2\n        /* \"contracts/Comfree.sol\":5552:5577  i <= offerContractCounter */\n      gt\n        /* \"contracts/Comfree.sol\":5536:5724  for(uint i = 1; i <= offerContractCounter; i++) {... */\n      tag_105\n      jumpi\n        /* \"contracts/Comfree.sol\":5641:5662  _listOfOfferContracts */\n      0x03\n        /* \"contracts/Comfree.sol\":5641:5665  _listOfOfferContracts[i] */\n      0x00\n        /* \"contracts/Comfree.sol\":5663:5664  i */\n      dup3\n        /* \"contracts/Comfree.sol\":5641:5665  _listOfOfferContracts[i] */\n      dup2\n      mstore\n      0x20\n      add\n      swap1\n      dup2\n      mstore\n      0x20\n      add\n      0x00\n      keccak256\n        /* \"contracts/Comfree.sol\":5641:5668  _listOfOfferContracts[i].id */\n      0x00\n      add\n      sload\n        /* \"contracts/Comfree.sol\":5602:5610  offerIds */\n      dup4\n        /* \"contracts/Comfree.sol\":5611:5636  numberOfPropertiesForSale */\n      dup4\n        /* \"contracts/Comfree.sol\":5602:5637  offerIds[numberOfPropertiesForSale] */\n      dup2\n      mload\n      dup2\n      lt\n      tag_107\n      jumpi\n      tag_108\n      tag_109\n      jump\t// in\n    tag_108:\n    tag_107:\n      0x20\n      mul\n      0x20\n      add\n      add\n        /* \"contracts/Comfree.sol\":5602:5668  offerIds[numberOfPropertiesForSale] =  _listOfOfferContracts[i].id */\n      dup2\n      dup2\n      mstore\n      pop\n      pop\n        /* \"contracts/Comfree.sol\":5686:5713  numberOfPropertiesForSale++ */\n      dup2\n      dup1\n      tag_110\n      swap1\n      tag_81\n      jump\t// in\n    tag_110:\n      swap3\n      pop\n      pop\n        /* \"contracts/Comfree.sol\":5579:5582  i++ */\n      dup1\n      dup1\n      tag_111\n      swap1\n      tag_81\n      jump\t// in\n    tag_111:\n      swap2\n      pop\n      pop\n        /* \"contracts/Comfree.sol\":5536:5724  for(uint i = 1; i <= offerContractCounter; i++) {... */\n      jump(tag_104)\n    tag_105:\n      pop\n        /* \"contracts/Comfree.sol\":5734:5755  uint[] memory forSale */\n      0x00\n        /* \"contracts/Comfree.sol\":5769:5794  numberOfPropertiesForSale */\n      dup2\n        /* \"contracts/Comfree.sol\":5758:5795  new uint[](numberOfPropertiesForSale) */\n      0xffffffffffffffff\n      dup2\n      gt\n      iszero\n      tag_112\n      jumpi\n      tag_113\n      tag_102\n      jump\t// in\n    tag_113:\n    tag_112:\n      mload(0x40)\n      swap1\n      dup1\n      dup3\n      mstore\n      dup1\n      0x20\n      mul\n      0x20\n      add\n      dup3\n      add\n      0x40\n      mstore\n      dup1\n      iszero\n      tag_114\n      jumpi\n      dup2\n      0x20\n      add\n      0x20\n      dup3\n      mul\n      dup1\n      calldatasize\n      dup4\n      calldatacopy\n      dup1\n      dup3\n      add\n      swap2\n      pop\n      pop\n      swap1\n      pop\n    tag_114:\n      pop\n        /* \"contracts/Comfree.sol\":5734:5795  uint[] memory forSale = new uint[](numberOfPropertiesForSale) */\n      swap1\n      pop\n        /* \"contracts/Comfree.sol\":5809:5815  uint j */\n      0x00\n        /* \"contracts/Comfree.sol\":5805:5906  for(uint j = 0; j < numberOfPropertiesForSale; j++) {... */\n    tag_115:\n        /* \"contracts/Comfree.sol\":5825:5850  numberOfPropertiesForSale */\n      dup3\n        /* \"contracts/Comfree.sol\":5821:5822  j */\n      dup2\n        /* \"contracts/Comfree.sol\":5821:5850  j < numberOfPropertiesForSale */\n      lt\n        /* \"contracts/Comfree.sol\":5805:5906  for(uint j = 0; j < numberOfPropertiesForSale; j++) {... */\n      iszero\n      tag_116\n      jumpi\n        /* \"contracts/Comfree.sol\":5884:5892  offerIds */\n      dup4\n        /* \"contracts/Comfree.sol\":5893:5894  j */\n      dup2\n        /* \"contracts/Comfree.sol\":5884:5895  offerIds[j] */\n      dup2\n      mload\n      dup2\n      lt\n      tag_118\n      jumpi\n      tag_119\n      tag_109\n      jump\t// in\n    tag_119:\n    tag_118:\n      0x20\n      mul\n      0x20\n      add\n      add\n      mload\n        /* \"contracts/Comfree.sol\":5871:5878  forSale */\n      dup3\n        /* \"contracts/Comfree.sol\":5879:5880  j */\n      dup3\n        /* \"contracts/Comfree.sol\":5871:5881  forSale[j] */\n      dup2\n      mload\n      dup2\n      lt\n      tag_120\n      jumpi\n      tag_121\n      tag_109\n      jump\t// in\n    tag_121:\n    tag_120:\n      0x20\n      mul\n      0x20\n      add\n      add\n        /* \"contracts/Comfree.sol\":5871:5895  forSale[j] = offerIds[j] */\n      dup2\n      dup2\n      mstore\n      pop\n      pop\n        /* \"contracts/Comfree.sol\":5852:5855  j++ */\n      dup1\n      dup1\n      tag_122\n      swap1\n      tag_81\n      jump\t// in\n    tag_122:\n      swap2\n      pop\n      pop\n        /* \"contracts/Comfree.sol\":5805:5906  for(uint j = 0; j < numberOfPropertiesForSale; j++) {... */\n      jump(tag_115)\n    tag_116:\n      pop\n        /* \"contracts/Comfree.sol\":5922:5929  forSale */\n      dup1\n        /* \"contracts/Comfree.sol\":5915:5929  return forSale */\n      swap4\n      pop\n      pop\n      pop\n      pop\n        /* \"contracts/Comfree.sol\":5322:5936  function getOfferContractDetailsById() public view returns(uint[] memory) {... */\n      swap1\n      jump\t// out\n        /* \"contracts/Comfree.sol\":174:194  string public symbol */\n    tag_58:\n      0x01\n      dup1\n      sload\n      tag_123\n      swap1\n      tag_68\n      jump\t// in\n    tag_123:\n      dup1\n      0x1f\n      add\n      0x20\n      dup1\n      swap2\n      div\n      mul\n      0x20\n      add\n      mload(0x40)\n      swap1\n      dup2\n      add\n      0x40\n      mstore\n      dup1\n      swap3\n      swap2\n      swap1\n      dup2\n      dup2\n      mstore\n      0x20\n      add\n      dup3\n      dup1\n      sload\n      tag_124\n      swap1\n      tag_68\n      jump\t// in\n    tag_124:\n      dup1\n      iszero\n      tag_125\n      jumpi\n      dup1\n      0x1f\n      lt\n      tag_126\n      jumpi\n      0x0100\n      dup1\n      dup4\n      sload\n      div\n      mul\n      dup4\n      mstore\n      swap2\n      0x20\n      add\n      swap2\n      jump(tag_125)\n    tag_126:\n      dup3\n      add\n      swap2\n      swap1\n      0x00\n      mstore\n      keccak256(0x00, 0x20)\n      swap1\n    tag_127:\n      dup2\n      sload\n      dup2\n      mstore\n      swap1\n      0x01\n      add\n      swap1\n      0x20\n      add\n      dup1\n      dup4\n      gt\n      tag_127\n      jumpi\n      dup3\n      swap1\n      sub\n      0x1f\n      and\n      dup3\n      add\n      swap2\n    tag_125:\n      pop\n      pop\n      pop\n      pop\n      pop\n      dup2\n      jump\t// out\n        /* \"contracts/Comfree.sol\":2234:2786  function getHomesForSale() public view returns(uint[] memory) {... */\n    tag_61:\n        /* \"contracts/Comfree.sol\":2281:2294  uint[] memory */\n      0x60\n        /* \"contracts/Comfree.sol\":2306:2323  uint[] memory Ids */\n      0x00\n        /* \"contracts/Comfree.sol\":2337:2351  listingCounter */\n      sload(0x06)\n        /* \"contracts/Comfree.sol\":2326:2352  new uint[](listingCounter) */\n      0xffffffffffffffff\n      dup2\n      gt\n      iszero\n      tag_129\n      jumpi\n      tag_130\n      tag_102\n      jump\t// in\n    tag_130:\n    tag_129:\n      mload(0x40)\n      swap1\n      dup1\n      dup3\n      mstore\n      dup1\n      0x20\n      mul\n      0x20\n      add\n      dup3\n      add\n      0x40\n      mstore\n      dup1\n      iszero\n      tag_131\n      jumpi\n      dup2\n      0x20\n      add\n      0x20\n      dup3\n      mul\n      dup1\n      calldatasize\n      dup4\n      calldatacopy\n      dup1\n      dup3\n      add\n      swap2\n      pop\n      pop\n      swap1\n      pop\n    tag_131:\n      pop\n        /* \"contracts/Comfree.sol\":2306:2352  uint[] memory Ids = new uint[](listingCounter) */\n      swap1\n      pop\n        /* \"contracts/Comfree.sol\":2363:2390  uint numberOflistingCounter */\n      0x00\n        /* \"contracts/Comfree.sol\":2426:2432  uint i */\n      dup1\n        /* \"contracts/Comfree.sol\":2435:2436  1 */\n      0x01\n        /* \"contracts/Comfree.sol\":2426:2436  uint i = 1 */\n      swap1\n      pop\n        /* \"contracts/Comfree.sol\":2422:2585  for(uint i = 1; i <= listingCounter; i++) {... */\n    tag_132:\n        /* \"contracts/Comfree.sol\":2443:2457  listingCounter */\n      sload(0x06)\n        /* \"contracts/Comfree.sol\":2438:2439  i */\n      dup2\n        /* \"contracts/Comfree.sol\":2438:2457  i <= listingCounter */\n      gt\n        /* \"contracts/Comfree.sol\":2422:2585  for(uint i = 1; i <= listingCounter; i++) {... */\n      tag_133\n      jumpi\n        /* \"contracts/Comfree.sol\":2513:2526  _homesForSale */\n      0x02\n        /* \"contracts/Comfree.sol\":2513:2529  _homesForSale[i] */\n      0x00\n        /* \"contracts/Comfree.sol\":2527:2528  i */\n      dup3\n        /* \"contracts/Comfree.sol\":2513:2529  _homesForSale[i] */\n      dup2\n      mstore\n      0x20\n      add\n      swap1\n      dup2\n      mstore\n      0x20\n      add\n      0x00\n      keccak256\n        /* \"contracts/Comfree.sol\":2513:2532  _homesForSale[i].id */\n      0x00\n      add\n      sload\n        /* \"contracts/Comfree.sol\":2482:2485  Ids */\n      dup4\n        /* \"contracts/Comfree.sol\":2486:2508  numberOflistingCounter */\n      dup4\n        /* \"contracts/Comfree.sol\":2482:2509  Ids[numberOflistingCounter] */\n      dup2\n      mload\n      dup2\n      lt\n      tag_135\n      jumpi\n      tag_136\n      tag_109\n      jump\t// in\n    tag_136:\n    tag_135:\n      0x20\n      mul\n      0x20\n      add\n      add\n        /* \"contracts/Comfree.sol\":2482:2532  Ids[numberOflistingCounter] =  _homesForSale[i].id */\n      dup2\n      dup2\n      mstore\n      pop\n      pop\n        /* \"contracts/Comfree.sol\":2550:2574  numberOflistingCounter++ */\n      dup2\n      dup1\n      tag_137\n      swap1\n      tag_81\n      jump\t// in\n    tag_137:\n      swap3\n      pop\n      pop\n        /* \"contracts/Comfree.sol\":2459:2462  i++ */\n      dup1\n      dup1\n      tag_138\n      swap1\n      tag_81\n      jump\t// in\n    tag_138:\n      swap2\n      pop\n      pop\n        /* \"contracts/Comfree.sol\":2422:2585  for(uint i = 1; i <= listingCounter; i++) {... */\n      jump(tag_132)\n    tag_133:\n      pop\n        /* \"contracts/Comfree.sol\":2595:2616  uint[] memory forSale */\n      0x00\n        /* \"contracts/Comfree.sol\":2630:2652  numberOflistingCounter */\n      dup2\n        /* \"contracts/Comfree.sol\":2619:2653  new uint[](numberOflistingCounter) */\n      0xffffffffffffffff\n      dup2\n      gt\n      iszero\n      tag_139\n      jumpi\n      tag_140\n      tag_102\n      jump\t// in\n    tag_140:\n    tag_139:\n      mload(0x40)\n      swap1\n      dup1\n      dup3\n      mstore\n      dup1\n      0x20\n      mul\n      0x20\n      add\n      dup3\n      add\n      0x40\n      mstore\n      dup1\n      iszero\n      tag_141\n      jumpi\n      dup2\n      0x20\n      add\n      0x20\n      dup3\n      mul\n      dup1\n      calldatasize\n      dup4\n      calldatacopy\n      dup1\n      dup3\n      add\n      swap2\n      pop\n      pop\n      swap1\n      pop\n    tag_141:\n      pop\n        /* \"contracts/Comfree.sol\":2595:2653  uint[] memory forSale = new uint[](numberOflistingCounter) */\n      swap1\n      pop\n        /* \"contracts/Comfree.sol\":2667:2673  uint j */\n      0x00\n        /* \"contracts/Comfree.sol\":2663:2756  for(uint j = 0; j < numberOflistingCounter; j++) {... */\n    tag_142:\n        /* \"contracts/Comfree.sol\":2683:2705  numberOflistingCounter */\n      dup3\n        /* \"contracts/Comfree.sol\":2679:2680  j */\n      dup2\n        /* \"contracts/Comfree.sol\":2679:2705  j < numberOflistingCounter */\n      lt\n        /* \"contracts/Comfree.sol\":2663:2756  for(uint j = 0; j < numberOflistingCounter; j++) {... */\n      iszero\n      tag_143\n      jumpi\n        /* \"contracts/Comfree.sol\":2739:2742  Ids */\n      dup4\n        /* \"contracts/Comfree.sol\":2743:2744  j */\n      dup2\n        /* \"contracts/Comfree.sol\":2739:2745  Ids[j] */\n      dup2\n      mload\n      dup2\n      lt\n      tag_145\n      jumpi\n      tag_146\n      tag_109\n      jump\t// in\n    tag_146:\n    tag_145:\n      0x20\n      mul\n      0x20\n      add\n      add\n      mload\n        /* \"contracts/Comfree.sol\":2726:2733  forSale */\n      dup3\n        /* \"contracts/Comfree.sol\":2734:2735  j */\n      dup3\n        /* \"contracts/Comfree.sol\":2726:2736  forSale[j] */\n      dup2\n      mload\n      dup2\n      lt\n      tag_147\n      jumpi\n      tag_148\n      tag_109\n      jump\t// in\n    tag_148:\n    tag_147:\n      0x20\n      mul\n      0x20\n      add\n      add\n        /* \"contracts/Comfree.sol\":2726:2745  forSale[j] = Ids[j] */\n      dup2\n      dup2\n      mstore\n      pop\n      pop\n        /* \"contracts/Comfree.sol\":2707:2710  j++ */\n      dup1\n      dup1\n      tag_149\n      swap1\n      tag_81\n      jump\t// in\n    tag_149:\n      swap2\n      pop\n      pop\n        /* \"contracts/Comfree.sol\":2663:2756  for(uint j = 0; j < numberOflistingCounter; j++) {... */\n      jump(tag_142)\n    tag_143:\n      pop\n        /* \"contracts/Comfree.sol\":2772:2779  forSale */\n      dup1\n        /* \"contracts/Comfree.sol\":2765:2779  return forSale */\n      swap4\n      pop\n      pop\n      pop\n      pop\n        /* \"contracts/Comfree.sol\":2234:2786  function getHomesForSale() public view returns(uint[] memory) {... */\n      swap1\n      jump\t// out\n        /* \"contracts/Comfree.sol\":2792:3605  function manageConditions(uint _offerId, bool _wallsPainted, bool _CarpetCleaned, bool _WindowsWashed) public {... */\n    tag_66:\n        /* \"contracts/Comfree.sol\":2952:2965  _wallsPainted */\n      dup3\n        /* \"contracts/Comfree.sol\":2912:2926  _conditionList */\n      0x04\n        /* \"contracts/Comfree.sol\":2912:2936  _conditionList[_offerId] */\n      0x00\n        /* \"contracts/Comfree.sol\":2927:2935  _offerId */\n      dup7\n        /* \"contracts/Comfree.sol\":2912:2936  _conditionList[_offerId] */\n      dup2\n      mstore\n      0x20\n      add\n      swap1\n      dup2\n      mstore\n      0x20\n      add\n      0x00\n      keccak256\n        /* \"contracts/Comfree.sol\":2912:2949  _conditionList[_offerId].WallsPainted */\n      0x00\n      add\n      0x01\n        /* \"contracts/Comfree.sol\":2912:2965  _conditionList[_offerId].WallsPainted = _wallsPainted */\n      0x0100\n      exp\n      dup2\n      sload\n      dup2\n      0xff\n      mul\n      not\n      and\n      swap1\n      dup4\n      iszero\n      iszero\n      mul\n      or\n      swap1\n      sstore\n      pop\n        /* \"contracts/Comfree.sol\":3016:3030  _CarpetCleaned */\n      dup2\n        /* \"contracts/Comfree.sol\":2975:2989  _conditionList */\n      0x04\n        /* \"contracts/Comfree.sol\":2975:2999  _conditionList[_offerId] */\n      0x00\n        /* \"contracts/Comfree.sol\":2990:2998  _offerId */\n      dup7\n        /* \"contracts/Comfree.sol\":2975:2999  _conditionList[_offerId] */\n      dup2\n      mstore\n      0x20\n      add\n      swap1\n      dup2\n      mstore\n      0x20\n      add\n      0x00\n      keccak256\n        /* \"contracts/Comfree.sol\":2975:3013  _conditionList[_offerId].CarpetCleaned */\n      0x00\n      add\n      0x02\n        /* \"contracts/Comfree.sol\":2975:3030  _conditionList[_offerId].CarpetCleaned = _CarpetCleaned */\n      0x0100\n      exp\n      dup2\n      sload\n      dup2\n      0xff\n      mul\n      not\n      and\n      swap1\n      dup4\n      iszero\n      iszero\n      mul\n      or\n      swap1\n      sstore\n      pop\n        /* \"contracts/Comfree.sol\":3081:3095  _WindowsWashed */\n      dup1\n        /* \"contracts/Comfree.sol\":3040:3054  _conditionList */\n      0x04\n        /* \"contracts/Comfree.sol\":3040:3064  _conditionList[_offerId] */\n      0x00\n        /* \"contracts/Comfree.sol\":3055:3063  _offerId */\n      dup7\n        /* \"contracts/Comfree.sol\":3040:3064  _conditionList[_offerId] */\n      dup2\n      mstore\n      0x20\n      add\n      swap1\n      dup2\n      mstore\n      0x20\n      add\n      0x00\n      keccak256\n        /* \"contracts/Comfree.sol\":3040:3078  _conditionList[_offerId].WindowsWashed */\n      0x00\n      add\n      0x03\n        /* \"contracts/Comfree.sol\":3040:3095  _conditionList[_offerId].WindowsWashed = _WindowsWashed */\n      0x0100\n      exp\n      dup2\n      sload\n      dup2\n      0xff\n      mul\n      not\n      and\n      swap1\n      dup4\n      iszero\n      iszero\n      mul\n      or\n      swap1\n      sstore\n      pop\n        /* \"contracts/Comfree.sol\":3235:3239  true */\n      0x01\n        /* \"contracts/Comfree.sol\":3194:3239  _conditionList[_offerId].WallsPainted == true */\n      iszero\n      iszero\n        /* \"contracts/Comfree.sol\":3194:3208  _conditionList */\n      0x04\n        /* \"contracts/Comfree.sol\":3194:3218  _conditionList[_offerId] */\n      0x00\n        /* \"contracts/Comfree.sol\":3209:3217  _offerId */\n      dup7\n        /* \"contracts/Comfree.sol\":3194:3218  _conditionList[_offerId] */\n      dup2\n      mstore\n      0x20\n      add\n      swap1\n      dup2\n      mstore\n      0x20\n      add\n      0x00\n      keccak256\n        /* \"contracts/Comfree.sol\":3194:3231  _conditionList[_offerId].WallsPainted */\n      0x00\n      add\n      0x01\n      swap1\n      sload\n      swap1\n      0x0100\n      exp\n      swap1\n      div\n      0xff\n      and\n        /* \"contracts/Comfree.sol\":3194:3239  _conditionList[_offerId].WallsPainted == true */\n      iszero\n      iszero\n      eq\n        /* \"contracts/Comfree.sol\":3194:3289  _conditionList[_offerId].WallsPainted == true && _conditionList[_offerId].CarpetCleaned == true */\n      dup1\n      iszero\n      tag_151\n      jumpi\n      pop\n        /* \"contracts/Comfree.sol\":3285:3289  true */\n      0x01\n        /* \"contracts/Comfree.sol\":3243:3289  _conditionList[_offerId].CarpetCleaned == true */\n      iszero\n      iszero\n        /* \"contracts/Comfree.sol\":3243:3257  _conditionList */\n      0x04\n        /* \"contracts/Comfree.sol\":3243:3267  _conditionList[_offerId] */\n      0x00\n        /* \"contracts/Comfree.sol\":3258:3266  _offerId */\n      dup7\n        /* \"contracts/Comfree.sol\":3243:3267  _conditionList[_offerId] */\n      dup2\n      mstore\n      0x20\n      add\n      swap1\n      dup2\n      mstore\n      0x20\n      add\n      0x00\n      keccak256\n        /* \"contracts/Comfree.sol\":3243:3281  _conditionList[_offerId].CarpetCleaned */\n      0x00\n      add\n      0x02\n      swap1\n      sload\n      swap1\n      0x0100\n      exp\n      swap1\n      div\n      0xff\n      and\n        /* \"contracts/Comfree.sol\":3243:3289  _conditionList[_offerId].CarpetCleaned == true */\n      iszero\n      iszero\n      eq\n        /* \"contracts/Comfree.sol\":3194:3289  _conditionList[_offerId].WallsPainted == true && _conditionList[_offerId].CarpetCleaned == true */\n    tag_151:\n        /* \"contracts/Comfree.sol\":3194:3339  _conditionList[_offerId].WallsPainted == true && _conditionList[_offerId].CarpetCleaned == true && _conditionList[_offerId].WindowsWashed == true */\n      dup1\n      iszero\n      tag_152\n      jumpi\n      pop\n        /* \"contracts/Comfree.sol\":3335:3339  true */\n      0x01\n        /* \"contracts/Comfree.sol\":3293:3339  _conditionList[_offerId].WindowsWashed == true */\n      iszero\n      iszero\n        /* \"contracts/Comfree.sol\":3293:3307  _conditionList */\n      0x04\n        /* \"contracts/Comfree.sol\":3293:3317  _conditionList[_offerId] */\n      0x00\n        /* \"contracts/Comfree.sol\":3308:3316  _offerId */\n      dup7\n        /* \"contracts/Comfree.sol\":3293:3317  _conditionList[_offerId] */\n      dup2\n      mstore\n      0x20\n      add\n      swap1\n      dup2\n      mstore\n      0x20\n      add\n      0x00\n      keccak256\n        /* \"contracts/Comfree.sol\":3293:3331  _conditionList[_offerId].WindowsWashed */\n      0x00\n      add\n      0x03\n      swap1\n      sload\n      swap1\n      0x0100\n      exp\n      swap1\n      div\n      0xff\n      and\n        /* \"contracts/Comfree.sol\":3293:3339  _conditionList[_offerId].WindowsWashed == true */\n      iszero\n      iszero\n      eq\n        /* \"contracts/Comfree.sol\":3194:3339  _conditionList[_offerId].WallsPainted == true && _conditionList[_offerId].CarpetCleaned == true && _conditionList[_offerId].WindowsWashed == true */\n    tag_152:\n        /* \"contracts/Comfree.sol\":3190:3410  if( _conditionList[_offerId].WallsPainted == true && _conditionList[_offerId].CarpetCleaned == true && _conditionList[_offerId].WindowsWashed == true) {... */\n      iszero\n      tag_153\n      jumpi\n        /* \"contracts/Comfree.sol\":3395:3399  true */\n      0x01\n        /* \"contracts/Comfree.sol\":3355:3369  _conditionList */\n      0x04\n        /* \"contracts/Comfree.sol\":3355:3379  _conditionList[_offerId] */\n      0x00\n        /* \"contracts/Comfree.sol\":3370:3378  _offerId */\n      dup7\n        /* \"contracts/Comfree.sol\":3355:3379  _conditionList[_offerId] */\n      dup2\n      mstore\n      0x20\n      add\n      swap1\n      dup2\n      mstore\n      0x20\n      add\n      0x00\n      keccak256\n        /* \"contracts/Comfree.sol\":3355:3392  _conditionList[_offerId].conditionMet */\n      0x00\n      add\n      0x00\n        /* \"contracts/Comfree.sol\":3355:3399  _conditionList[_offerId].conditionMet = true */\n      0x0100\n      exp\n      dup2\n      sload\n      dup2\n      0xff\n      mul\n      not\n      and\n      swap1\n      dup4\n      iszero\n      iszero\n      mul\n      or\n      swap1\n      sstore\n      pop\n        /* \"contracts/Comfree.sol\":3190:3410  if( _conditionList[_offerId].WallsPainted == true && _conditionList[_offerId].CarpetCleaned == true && _conditionList[_offerId].WindowsWashed == true) {... */\n    tag_153:\n        /* \"contracts/Comfree.sol\":3463:3467  true */\n      0x01\n        /* \"contracts/Comfree.sol\":3422:3467  _conditionList[_offerId].conditionMet == true */\n      iszero\n      iszero\n        /* \"contracts/Comfree.sol\":3422:3436  _conditionList */\n      0x04\n        /* \"contracts/Comfree.sol\":3422:3446  _conditionList[_offerId] */\n      0x00\n        /* \"contracts/Comfree.sol\":3437:3445  _offerId */\n      dup7\n        /* \"contracts/Comfree.sol\":3422:3446  _conditionList[_offerId] */\n      dup2\n      mstore\n      0x20\n      add\n      swap1\n      dup2\n      mstore\n      0x20\n      add\n      0x00\n      keccak256\n        /* \"contracts/Comfree.sol\":3422:3459  _conditionList[_offerId].conditionMet */\n      0x00\n      add\n      0x00\n      swap1\n      sload\n      swap1\n      0x0100\n      exp\n      swap1\n      div\n      0xff\n      and\n        /* \"contracts/Comfree.sol\":3422:3467  _conditionList[_offerId].conditionMet == true */\n      iszero\n      iszero\n      sub\n        /* \"contracts/Comfree.sol\":3419:3590  if(_conditionList[_offerId].conditionMet == true) {... */\n      tag_154\n      jumpi\n        /* \"contracts/Comfree.sol\":3488:3510  ConditionMet(_offerId) */\n      0xbed19c48ffbfb01ca0faa826d3e3844746b0628593a6c4aeea7290af66735d20\n        /* \"contracts/Comfree.sol\":3501:3509  _offerId */\n      dup5\n        /* \"contracts/Comfree.sol\":3488:3510  ConditionMet(_offerId) */\n      mload(0x40)\n      tag_155\n      swap2\n      swap1\n      tag_156\n      jump\t// in\n    tag_155:\n      mload(0x40)\n      dup1\n      swap2\n      sub\n      swap1\n      log1\n        /* \"contracts/Comfree.sol\":3419:3590  if(_conditionList[_offerId].conditionMet == true) {... */\n      jump(tag_157)\n    tag_154:\n        /* \"contracts/Comfree.sol\":3554:3579  ConditionNotMet(_offerId) */\n      0x1f0c1db71d57570daa726bc2aa30a91e34f107443dfdbfc1bed51f3810ce362e\n        /* \"contracts/Comfree.sol\":3570:3578  _offerId */\n      dup5\n        /* \"contracts/Comfree.sol\":3554:3579  ConditionNotMet(_offerId) */\n      mload(0x40)\n      tag_158\n      swap2\n      swap1\n      tag_156\n      jump\t// in\n    tag_158:\n      mload(0x40)\n      dup1\n      swap2\n      sub\n      swap1\n      log1\n        /* \"contracts/Comfree.sol\":3419:3590  if(_conditionList[_offerId].conditionMet == true) {... */\n    tag_157:\n        /* \"contracts/Comfree.sol\":2792:3605  function manageConditions(uint _offerId, bool _wallsPainted, bool _CarpetCleaned, bool _WindowsWashed) public {... */\n      pop\n      pop\n      pop\n      pop\n      jump\t// out\n        /* \"#utility.yul\":7:106   */\n    tag_159:\n        /* \"#utility.yul\":59:65   */\n      0x00\n        /* \"#utility.yul\":93:98   */\n      dup2\n        /* \"#utility.yul\":87:99   */\n      mload\n        /* \"#utility.yul\":77:99   */\n      swap1\n      pop\n        /* \"#utility.yul\":7:106   */\n      swap2\n      swap1\n      pop\n      jump\t// out\n        /* \"#utility.yul\":112:281   */\n    tag_160:\n        /* \"#utility.yul\":196:207   */\n      0x00\n        /* \"#utility.yul\":230:236   */\n      dup3\n        /* \"#utility.yul\":225:228   */\n      dup3\n        /* \"#utility.yul\":218:237   */\n      mstore\n        /* \"#utility.yul\":270:274   */\n      0x20\n        /* \"#utility.yul\":265:268   */\n      dup3\n        /* \"#utility.yul\":261:275   */\n      add\n        /* \"#utility.yul\":246:275   */\n      swap1\n      pop\n        /* \"#utility.yul\":112:281   */\n      swap3\n      swap2\n      pop\n      pop\n      jump\t// out\n        /* \"#utility.yul\":287:533   */\n    tag_161:\n        /* \"#utility.yul\":368:369   */\n      0x00\n        /* \"#utility.yul\":378:491   */\n    tag_216:\n        /* \"#utility.yul\":392:398   */\n      dup4\n        /* \"#utility.yul\":389:390   */\n      dup2\n        /* \"#utility.yul\":386:399   */\n      lt\n        /* \"#utility.yul\":378:491   */\n      iszero\n      tag_218\n      jumpi\n        /* \"#utility.yul\":477:478   */\n      dup1\n        /* \"#utility.yul\":472:475   */\n      dup3\n        /* \"#utility.yul\":468:479   */\n      add\n        /* \"#utility.yul\":462:480   */\n      mload\n        /* \"#utility.yul\":458:459   */\n      dup2\n        /* \"#utility.yul\":453:456   */\n      dup5\n        /* \"#utility.yul\":449:460   */\n      add\n        /* \"#utility.yul\":442:481   */\n      mstore\n        /* \"#utility.yul\":414:416   */\n      0x20\n        /* \"#utility.yul\":411:412   */\n      dup2\n        /* \"#utility.yul\":407:417   */\n      add\n        /* \"#utility.yul\":402:417   */\n      swap1\n      pop\n        /* \"#utility.yul\":378:491   */\n      jump(tag_216)\n    tag_218:\n        /* \"#utility.yul\":525:526   */\n      0x00\n        /* \"#utility.yul\":516:522   */\n      dup5\n        /* \"#utility.yul\":511:514   */\n      dup5\n        /* \"#utility.yul\":507:523   */\n      add\n        /* \"#utility.yul\":500:527   */\n      mstore\n        /* \"#utility.yul\":349:533   */\n      pop\n        /* \"#utility.yul\":287:533   */\n      pop\n      pop\n      pop\n      jump\t// out\n        /* \"#utility.yul\":539:641   */\n    tag_162:\n        /* \"#utility.yul\":580:586   */\n      0x00\n        /* \"#utility.yul\":631:633   */\n      0x1f\n        /* \"#utility.yul\":627:634   */\n      not\n        /* \"#utility.yul\":622:624   */\n      0x1f\n        /* \"#utility.yul\":615:620   */\n      dup4\n        /* \"#utility.yul\":611:625   */\n      add\n        /* \"#utility.yul\":607:635   */\n      and\n        /* \"#utility.yul\":597:635   */\n      swap1\n      pop\n        /* \"#utility.yul\":539:641   */\n      swap2\n      swap1\n      pop\n      jump\t// out\n        /* \"#utility.yul\":647:1024   */\n    tag_163:\n        /* \"#utility.yul\":735:738   */\n      0x00\n        /* \"#utility.yul\":763:802   */\n      tag_221\n        /* \"#utility.yul\":796:801   */\n      dup3\n        /* \"#utility.yul\":763:802   */\n      tag_159\n      jump\t// in\n    tag_221:\n        /* \"#utility.yul\":818:889   */\n      tag_222\n        /* \"#utility.yul\":882:888   */\n      dup2\n        /* \"#utility.yul\":877:880   */\n      dup6\n        /* \"#utility.yul\":818:889   */\n      tag_160\n      jump\t// in\n    tag_222:\n        /* \"#utility.yul\":811:889   */\n      swap4\n      pop\n        /* \"#utility.yul\":898:963   */\n      tag_223\n        /* \"#utility.yul\":956:962   */\n      dup2\n        /* \"#utility.yul\":951:954   */\n      dup6\n        /* \"#utility.yul\":944:948   */\n      0x20\n        /* \"#utility.yul\":937:942   */\n      dup7\n        /* \"#utility.yul\":933:949   */\n      add\n        /* \"#utility.yul\":898:963   */\n      tag_161\n      jump\t// in\n    tag_223:\n        /* \"#utility.yul\":988:1017   */\n      tag_224\n        /* \"#utility.yul\":1010:1016   */\n      dup2\n        /* \"#utility.yul\":988:1017   */\n      tag_162\n      jump\t// in\n    tag_224:\n        /* \"#utility.yul\":983:986   */\n      dup5\n        /* \"#utility.yul\":979:1018   */\n      add\n        /* \"#utility.yul\":972:1018   */\n      swap2\n      pop\n        /* \"#utility.yul\":739:1024   */\n      pop\n        /* \"#utility.yul\":647:1024   */\n      swap3\n      swap2\n      pop\n      pop\n      jump\t// out\n        /* \"#utility.yul\":1030:1343   */\n    tag_19:\n        /* \"#utility.yul\":1143:1147   */\n      0x00\n        /* \"#utility.yul\":1181:1183   */\n      0x20\n        /* \"#utility.yul\":1170:1179   */\n      dup3\n        /* \"#utility.yul\":1166:1184   */\n      add\n        /* \"#utility.yul\":1158:1184   */\n      swap1\n      pop\n        /* \"#utility.yul\":1230:1239   */\n      dup2\n        /* \"#utility.yul\":1224:1228   */\n      dup2\n        /* \"#utility.yul\":1220:1240   */\n      sub\n        /* \"#utility.yul\":1216:1217   */\n      0x00\n        /* \"#utility.yul\":1205:1214   */\n      dup4\n        /* \"#utility.yul\":1201:1218   */\n      add\n        /* \"#utility.yul\":1194:1241   */\n      mstore\n        /* \"#utility.yul\":1258:1336   */\n      tag_226\n        /* \"#utility.yul\":1331:1335   */\n      dup2\n        /* \"#utility.yul\":1322:1328   */\n      dup5\n        /* \"#utility.yul\":1258:1336   */\n      tag_163\n      jump\t// in\n    tag_226:\n        /* \"#utility.yul\":1250:1336   */\n      swap1\n      pop\n        /* \"#utility.yul\":1030:1343   */\n      swap3\n      swap2\n      pop\n      pop\n      jump\t// out\n        /* \"#utility.yul\":1349:1424   */\n    tag_164:\n        /* \"#utility.yul\":1382:1388   */\n      0x00\n        /* \"#utility.yul\":1415:1417   */\n      0x40\n        /* \"#utility.yul\":1409:1418   */\n      mload\n        /* \"#utility.yul\":1399:1418   */\n      swap1\n      pop\n        /* \"#utility.yul\":1349:1424   */\n      swap1\n      jump\t// out\n        /* \"#utility.yul\":1430:1547   */\n    tag_165:\n        /* \"#utility.yul\":1539:1540   */\n      0x00\n        /* \"#utility.yul\":1536:1537   */\n      dup1\n        /* \"#utility.yul\":1529:1541   */\n      revert\n        /* \"#utility.yul\":1553:1670   */\n    tag_166:\n        /* \"#utility.yul\":1662:1663   */\n      0x00\n        /* \"#utility.yul\":1659:1660   */\n      dup1\n        /* \"#utility.yul\":1652:1664   */\n      revert\n        /* \"#utility.yul\":1676:1753   */\n    tag_167:\n        /* \"#utility.yul\":1713:1720   */\n      0x00\n        /* \"#utility.yul\":1742:1747   */\n      dup2\n        /* \"#utility.yul\":1731:1747   */\n      swap1\n      pop\n        /* \"#utility.yul\":1676:1753   */\n      swap2\n      swap1\n      pop\n      jump\t// out\n        /* \"#utility.yul\":1759:1881   */\n    tag_168:\n        /* \"#utility.yul\":1832:1856   */\n      tag_232\n        /* \"#utility.yul\":1850:1855   */\n      dup2\n        /* \"#utility.yul\":1832:1856   */\n      tag_167\n      jump\t// in\n    tag_232:\n        /* \"#utility.yul\":1825:1830   */\n      dup2\n        /* \"#utility.yul\":1822:1857   */\n      eq\n        /* \"#utility.yul\":1812:1875   */\n      tag_233\n      jumpi\n        /* \"#utility.yul\":1871:1872   */\n      0x00\n        /* \"#utility.yul\":1868:1869   */\n      dup1\n        /* \"#utility.yul\":1861:1873   */\n      revert\n        /* \"#utility.yul\":1812:1875   */\n    tag_233:\n        /* \"#utility.yul\":1759:1881   */\n      pop\n      jump\t// out\n        /* \"#utility.yul\":1887:2026   */\n    tag_169:\n        /* \"#utility.yul\":1933:1938   */\n      0x00\n        /* \"#utility.yul\":1971:1977   */\n      dup2\n        /* \"#utility.yul\":1958:1978   */\n      calldataload\n        /* \"#utility.yul\":1949:1978   */\n      swap1\n      pop\n        /* \"#utility.yul\":1987:2020   */\n      tag_235\n        /* \"#utility.yul\":2014:2019   */\n      dup2\n        /* \"#utility.yul\":1987:2020   */\n      tag_168\n      jump\t// in\n    tag_235:\n        /* \"#utility.yul\":1887:2026   */\n      swap3\n      swap2\n      pop\n      pop\n      jump\t// out\n        /* \"#utility.yul\":2032:2361   */\n    tag_22:\n        /* \"#utility.yul\":2091:2097   */\n      0x00\n        /* \"#utility.yul\":2140:2142   */\n      0x20\n        /* \"#utility.yul\":2128:2137   */\n      dup3\n        /* \"#utility.yul\":2119:2126   */\n      dup5\n        /* \"#utility.yul\":2115:2138   */\n      sub\n        /* \"#utility.yul\":2111:2143   */\n      slt\n        /* \"#utility.yul\":2108:2227   */\n      iszero\n      tag_237\n      jumpi\n        /* \"#utility.yul\":2146:2225   */\n      tag_238\n      tag_165\n      jump\t// in\n    tag_238:\n        /* \"#utility.yul\":2108:2227   */\n    tag_237:\n        /* \"#utility.yul\":2266:2267   */\n      0x00\n        /* \"#utility.yul\":2291:2344   */\n      tag_239\n        /* \"#utility.yul\":2336:2343   */\n      dup5\n        /* \"#utility.yul\":2327:2333   */\n      dup3\n        /* \"#utility.yul\":2316:2325   */\n      dup6\n        /* \"#utility.yul\":2312:2334   */\n      add\n        /* \"#utility.yul\":2291:2344   */\n      tag_169\n      jump\t// in\n    tag_239:\n        /* \"#utility.yul\":2281:2344   */\n      swap2\n      pop\n        /* \"#utility.yul\":2237:2354   */\n      pop\n        /* \"#utility.yul\":2032:2361   */\n      swap3\n      swap2\n      pop\n      pop\n      jump\t// out\n        /* \"#utility.yul\":2367:2457   */\n    tag_170:\n        /* \"#utility.yul\":2401:2408   */\n      0x00\n        /* \"#utility.yul\":2444:2449   */\n      dup2\n        /* \"#utility.yul\":2437:2450   */\n      iszero\n        /* \"#utility.yul\":2430:2451   */\n      iszero\n        /* \"#utility.yul\":2419:2451   */\n      swap1\n      pop\n        /* \"#utility.yul\":2367:2457   */\n      swap2\n      swap1\n      pop\n      jump\t// out\n        /* \"#utility.yul\":2463:2579   */\n    tag_171:\n        /* \"#utility.yul\":2533:2554   */\n      tag_242\n        /* \"#utility.yul\":2548:2553   */\n      dup2\n        /* \"#utility.yul\":2533:2554   */\n      tag_170\n      jump\t// in\n    tag_242:\n        /* \"#utility.yul\":2526:2531   */\n      dup2\n        /* \"#utility.yul\":2523:2555   */\n      eq\n        /* \"#utility.yul\":2513:2573   */\n      tag_243\n      jumpi\n        /* \"#utility.yul\":2569:2570   */\n      0x00\n        /* \"#utility.yul\":2566:2567   */\n      dup1\n        /* \"#utility.yul\":2559:2571   */\n      revert\n        /* \"#utility.yul\":2513:2573   */\n    tag_243:\n        /* \"#utility.yul\":2463:2579   */\n      pop\n      jump\t// out\n        /* \"#utility.yul\":2585:2718   */\n    tag_172:\n        /* \"#utility.yul\":2628:2633   */\n      0x00\n        /* \"#utility.yul\":2666:2672   */\n      dup2\n        /* \"#utility.yul\":2653:2673   */\n      calldataload\n        /* \"#utility.yul\":2644:2673   */\n      swap1\n      pop\n        /* \"#utility.yul\":2682:2712   */\n      tag_245\n        /* \"#utility.yul\":2706:2711   */\n      dup2\n        /* \"#utility.yul\":2682:2712   */\n      tag_171\n      jump\t// in\n    tag_245:\n        /* \"#utility.yul\":2585:2718   */\n      swap3\n      swap2\n      pop\n      pop\n      jump\t// out\n        /* \"#utility.yul\":2724:3192   */\n    tag_26:\n        /* \"#utility.yul\":2789:2795   */\n      0x00\n        /* \"#utility.yul\":2797:2803   */\n      dup1\n        /* \"#utility.yul\":2846:2848   */\n      0x40\n        /* \"#utility.yul\":2834:2843   */\n      dup4\n        /* \"#utility.yul\":2825:2832   */\n      dup6\n        /* \"#utility.yul\":2821:2844   */\n      sub\n        /* \"#utility.yul\":2817:2849   */\n      slt\n        /* \"#utility.yul\":2814:2933   */\n      iszero\n      tag_247\n      jumpi\n        /* \"#utility.yul\":2852:2931   */\n      tag_248\n      tag_165\n      jump\t// in\n    tag_248:\n        /* \"#utility.yul\":2814:2933   */\n    tag_247:\n        /* \"#utility.yul\":2972:2973   */\n      0x00\n        /* \"#utility.yul\":2997:3050   */\n      tag_249\n        /* \"#utility.yul\":3042:3049   */\n      dup6\n        /* \"#utility.yul\":3033:3039   */\n      dup3\n        /* \"#utility.yul\":3022:3031   */\n      dup7\n        /* \"#utility.yul\":3018:3040   */\n      add\n        /* \"#utility.yul\":2997:3050   */\n      tag_169\n      jump\t// in\n    tag_249:\n        /* \"#utility.yul\":2987:3050   */\n      swap3\n      pop\n        /* \"#utility.yul\":2943:3060   */\n      pop\n        /* \"#utility.yul\":3099:3101   */\n      0x20\n        /* \"#utility.yul\":3125:3175   */\n      tag_250\n        /* \"#utility.yul\":3167:3174   */\n      dup6\n        /* \"#utility.yul\":3158:3164   */\n      dup3\n        /* \"#utility.yul\":3147:3156   */\n      dup7\n        /* \"#utility.yul\":3143:3165   */\n      add\n        /* \"#utility.yul\":3125:3175   */\n      tag_172\n      jump\t// in\n    tag_250:\n        /* \"#utility.yul\":3115:3175   */\n      swap2\n      pop\n        /* \"#utility.yul\":3070:3185   */\n      pop\n        /* \"#utility.yul\":2724:3192   */\n      swap3\n      pop\n      swap3\n      swap1\n      pop\n      jump\t// out\n        /* \"#utility.yul\":3198:3307   */\n    tag_173:\n        /* \"#utility.yul\":3279:3300   */\n      tag_252\n        /* \"#utility.yul\":3294:3299   */\n      dup2\n        /* \"#utility.yul\":3279:3300   */\n      tag_170\n      jump\t// in\n    tag_252:\n        /* \"#utility.yul\":3274:3277   */\n      dup3\n        /* \"#utility.yul\":3267:3301   */\n      mstore\n        /* \"#utility.yul\":3198:3307   */\n      pop\n      pop\n      jump\t// out\n        /* \"#utility.yul\":3313:3523   */\n    tag_29:\n        /* \"#utility.yul\":3400:3404   */\n      0x00\n        /* \"#utility.yul\":3438:3440   */\n      0x20\n        /* \"#utility.yul\":3427:3436   */\n      dup3\n        /* \"#utility.yul\":3423:3441   */\n      add\n        /* \"#utility.yul\":3415:3441   */\n      swap1\n      pop\n        /* \"#utility.yul\":3451:3516   */\n      tag_254\n        /* \"#utility.yul\":3513:3514   */\n      0x00\n        /* \"#utility.yul\":3502:3511   */\n      dup4\n        /* \"#utility.yul\":3498:3515   */\n      add\n        /* \"#utility.yul\":3489:3495   */\n      dup5\n        /* \"#utility.yul\":3451:3516   */\n      tag_173\n      jump\t// in\n    tag_254:\n        /* \"#utility.yul\":3313:3523   */\n      swap3\n      swap2\n      pop\n      pop\n      jump\t// out\n        /* \"#utility.yul\":3529:3655   */\n    tag_174:\n        /* \"#utility.yul\":3566:3573   */\n      0x00\n        /* \"#utility.yul\":3606:3648   */\n      0xffffffffffffffffffffffffffffffffffffffff\n        /* \"#utility.yul\":3599:3604   */\n      dup3\n        /* \"#utility.yul\":3595:3649   */\n      and\n        /* \"#utility.yul\":3584:3649   */\n      swap1\n      pop\n        /* \"#utility.yul\":3529:3655   */\n      swap2\n      swap1\n      pop\n      jump\t// out\n        /* \"#utility.yul\":3661:3757   */\n    tag_175:\n        /* \"#utility.yul\":3698:3705   */\n      0x00\n        /* \"#utility.yul\":3727:3751   */\n      tag_257\n        /* \"#utility.yul\":3745:3750   */\n      dup3\n        /* \"#utility.yul\":3727:3751   */\n      tag_174\n      jump\t// in\n    tag_257:\n        /* \"#utility.yul\":3716:3751   */\n      swap1\n      pop\n        /* \"#utility.yul\":3661:3757   */\n      swap2\n      swap1\n      pop\n      jump\t// out\n        /* \"#utility.yul\":3763:3885   */\n    tag_176:\n        /* \"#utility.yul\":3836:3860   */\n      tag_259\n        /* \"#utility.yul\":3854:3859   */\n      dup2\n        /* \"#utility.yul\":3836:3860   */\n      tag_175\n      jump\t// in\n    tag_259:\n        /* \"#utility.yul\":3829:3834   */\n      dup2\n        /* \"#utility.yul\":3826:3861   */\n      eq\n        /* \"#utility.yul\":3816:3879   */\n      tag_260\n      jumpi\n        /* \"#utility.yul\":3875:3876   */\n      0x00\n        /* \"#utility.yul\":3872:3873   */\n      dup1\n        /* \"#utility.yul\":3865:3877   */\n      revert\n        /* \"#utility.yul\":3816:3879   */\n    tag_260:\n        /* \"#utility.yul\":3763:3885   */\n      pop\n      jump\t// out\n        /* \"#utility.yul\":3891:4030   */\n    tag_177:\n        /* \"#utility.yul\":3937:3942   */\n      0x00\n        /* \"#utility.yul\":3975:3981   */\n      dup2\n        /* \"#utility.yul\":3962:3982   */\n      calldataload\n        /* \"#utility.yul\":3953:3982   */\n      swap1\n      pop\n        /* \"#utility.yul\":3991:4024   */\n      tag_262\n        /* \"#utility.yul\":4018:4023   */\n      dup2\n        /* \"#utility.yul\":3991:4024   */\n      tag_176\n      jump\t// in\n    tag_262:\n        /* \"#utility.yul\":3891:4030   */\n      swap3\n      swap2\n      pop\n      pop\n      jump\t// out\n        /* \"#utility.yul\":4036:4795   */\n    tag_32:\n        /* \"#utility.yul\":4119:4125   */\n      0x00\n        /* \"#utility.yul\":4127:4133   */\n      dup1\n        /* \"#utility.yul\":4135:4141   */\n      0x00\n        /* \"#utility.yul\":4143:4149   */\n      dup1\n        /* \"#utility.yul\":4192:4195   */\n      0x80\n        /* \"#utility.yul\":4180:4189   */\n      dup6\n        /* \"#utility.yul\":4171:4178   */\n      dup8\n        /* \"#utility.yul\":4167:4190   */\n      sub\n        /* \"#utility.yul\":4163:4196   */\n      slt\n        /* \"#utility.yul\":4160:4280   */\n      iszero\n      tag_264\n      jumpi\n        /* \"#utility.yul\":4199:4278   */\n      tag_265\n      tag_165\n      jump\t// in\n    tag_265:\n        /* \"#utility.yul\":4160:4280   */\n    tag_264:\n        /* \"#utility.yul\":4319:4320   */\n      0x00\n        /* \"#utility.yul\":4344:4397   */\n      tag_266\n        /* \"#utility.yul\":4389:4396   */\n      dup8\n        /* \"#utility.yul\":4380:4386   */\n      dup3\n        /* \"#utility.yul\":4369:4378   */\n      dup9\n        /* \"#utility.yul\":4365:4387   */\n      add\n        /* \"#utility.yul\":4344:4397   */\n      tag_177\n      jump\t// in\n    tag_266:\n        /* \"#utility.yul\":4334:4397   */\n      swap5\n      pop\n        /* \"#utility.yul\":4290:4407   */\n      pop\n        /* \"#utility.yul\":4446:4448   */\n      0x20\n        /* \"#utility.yul\":4472:4525   */\n      tag_267\n        /* \"#utility.yul\":4517:4524   */\n      dup8\n        /* \"#utility.yul\":4508:4514   */\n      dup3\n        /* \"#utility.yul\":4497:4506   */\n      dup9\n        /* \"#utility.yul\":4493:4515   */\n      add\n        /* \"#utility.yul\":4472:4525   */\n      tag_177\n      jump\t// in\n    tag_267:\n        /* \"#utility.yul\":4462:4525   */\n      swap4\n      pop\n        /* \"#utility.yul\":4417:4535   */\n      pop\n        /* \"#utility.yul\":4574:4576   */\n      0x40\n        /* \"#utility.yul\":4600:4653   */\n      tag_268\n        /* \"#utility.yul\":4645:4652   */\n      dup8\n        /* \"#utility.yul\":4636:4642   */\n      dup3\n        /* \"#utility.yul\":4625:4634   */\n      dup9\n        /* \"#utility.yul\":4621:4643   */\n      add\n        /* \"#utility.yul\":4600:4653   */\n      tag_169\n      jump\t// in\n    tag_268:\n        /* \"#utility.yul\":4590:4653   */\n      swap3\n      pop\n        /* \"#utility.yul\":4545:4663   */\n      pop\n        /* \"#utility.yul\":4702:4704   */\n      0x60\n        /* \"#utility.yul\":4728:4778   */\n      tag_269\n        /* \"#utility.yul\":4770:4777   */\n      dup8\n        /* \"#utility.yul\":4761:4767   */\n      dup3\n        /* \"#utility.yul\":4750:4759   */\n      dup9\n        /* \"#utility.yul\":4746:4768   */\n      add\n        /* \"#utility.yul\":4728:4778   */\n      tag_172\n      jump\t// in\n    tag_269:\n        /* \"#utility.yul\":4718:4778   */\n      swap2\n      pop\n        /* \"#utility.yul\":4673:4788   */\n      pop\n        /* \"#utility.yul\":4036:4795   */\n      swap3\n      swap6\n      swap2\n      swap5\n      pop\n      swap3\n      pop\n      jump\t// out\n        /* \"#utility.yul\":4801:5306   */\n    tag_38:\n        /* \"#utility.yul\":4954:4958   */\n      0x00\n        /* \"#utility.yul\":4992:4995   */\n      0x80\n        /* \"#utility.yul\":4981:4990   */\n      dup3\n        /* \"#utility.yul\":4977:4996   */\n      add\n        /* \"#utility.yul\":4969:4996   */\n      swap1\n      pop\n        /* \"#utility.yul\":5006:5071   */\n      tag_271\n        /* \"#utility.yul\":5068:5069   */\n      0x00\n        /* \"#utility.yul\":5057:5066   */\n      dup4\n        /* \"#utility.yul\":5053:5070   */\n      add\n        /* \"#utility.yul\":5044:5050   */\n      dup8\n        /* \"#utility.yul\":5006:5071   */\n      tag_173\n      jump\t// in\n    tag_271:\n        /* \"#utility.yul\":5081:5147   */\n      tag_272\n        /* \"#utility.yul\":5143:5145   */\n      0x20\n        /* \"#utility.yul\":5132:5141   */\n      dup4\n        /* \"#utility.yul\":5128:5146   */\n      add\n        /* \"#utility.yul\":5119:5125   */\n      dup7\n        /* \"#utility.yul\":5081:5147   */\n      tag_173\n      jump\t// in\n    tag_272:\n        /* \"#utility.yul\":5157:5223   */\n      tag_273\n        /* \"#utility.yul\":5219:5221   */\n      0x40\n        /* \"#utility.yul\":5208:5217   */\n      dup4\n        /* \"#utility.yul\":5204:5222   */\n      add\n        /* \"#utility.yul\":5195:5201   */\n      dup6\n        /* \"#utility.yul\":5157:5223   */\n      tag_173\n      jump\t// in\n    tag_273:\n        /* \"#utility.yul\":5233:5299   */\n      tag_274\n        /* \"#utility.yul\":5295:5297   */\n      0x60\n        /* \"#utility.yul\":5284:5293   */\n      dup4\n        /* \"#utility.yul\":5280:5298   */\n      add\n        /* \"#utility.yul\":5271:5277   */\n      dup5\n        /* \"#utility.yul\":5233:5299   */\n      tag_173\n      jump\t// in\n    tag_274:\n        /* \"#utility.yul\":4801:5306   */\n      swap6\n      swap5\n      pop\n      pop\n      pop\n      pop\n      pop\n      jump\t// out\n        /* \"#utility.yul\":5312:5430   */\n    tag_178:\n        /* \"#utility.yul\":5399:5423   */\n      tag_276\n        /* \"#utility.yul\":5417:5422   */\n      dup2\n        /* \"#utility.yul\":5399:5423   */\n      tag_167\n      jump\t// in\n    tag_276:\n        /* \"#utility.yul\":5394:5397   */\n      dup3\n        /* \"#utility.yul\":5387:5424   */\n      mstore\n        /* \"#utility.yul\":5312:5430   */\n      pop\n      pop\n      jump\t// out\n        /* \"#utility.yul\":5436:5554   */\n    tag_179:\n        /* \"#utility.yul\":5523:5547   */\n      tag_278\n        /* \"#utility.yul\":5541:5546   */\n      dup2\n        /* \"#utility.yul\":5523:5547   */\n      tag_175\n      jump\t// in\n    tag_278:\n        /* \"#utility.yul\":5518:5521   */\n      dup3\n        /* \"#utility.yul\":5511:5548   */\n      mstore\n        /* \"#utility.yul\":5436:5554   */\n      pop\n      pop\n      jump\t// out\n        /* \"#utility.yul\":5560:6517   */\n    tag_43:\n        /* \"#utility.yul\":5833:5837   */\n      0x00\n        /* \"#utility.yul\":5871:5874   */\n      0xc0\n        /* \"#utility.yul\":5860:5869   */\n      dup3\n        /* \"#utility.yul\":5856:5875   */\n      add\n        /* \"#utility.yul\":5848:5875   */\n      swap1\n      pop\n        /* \"#utility.yul\":5885:5956   */\n      tag_280\n        /* \"#utility.yul\":5953:5954   */\n      0x00\n        /* \"#utility.yul\":5942:5951   */\n      dup4\n        /* \"#utility.yul\":5938:5955   */\n      add\n        /* \"#utility.yul\":5929:5935   */\n      dup10\n        /* \"#utility.yul\":5885:5956   */\n      tag_178\n      jump\t// in\n    tag_280:\n        /* \"#utility.yul\":5966:6038   */\n      tag_281\n        /* \"#utility.yul\":6034:6036   */\n      0x20\n        /* \"#utility.yul\":6023:6032   */\n      dup4\n        /* \"#utility.yul\":6019:6037   */\n      add\n        /* \"#utility.yul\":6010:6016   */\n      dup9\n        /* \"#utility.yul\":5966:6038   */\n      tag_179\n      jump\t// in\n    tag_281:\n        /* \"#utility.yul\":6048:6120   */\n      tag_282\n        /* \"#utility.yul\":6116:6118   */\n      0x40\n        /* \"#utility.yul\":6105:6114   */\n      dup4\n        /* \"#utility.yul\":6101:6119   */\n      add\n        /* \"#utility.yul\":6092:6098   */\n      dup8\n        /* \"#utility.yul\":6048:6120   */\n      tag_179\n      jump\t// in\n    tag_282:\n        /* \"#utility.yul\":6167:6176   */\n      dup2\n        /* \"#utility.yul\":6161:6165   */\n      dup2\n        /* \"#utility.yul\":6157:6177   */\n      sub\n        /* \"#utility.yul\":6152:6154   */\n      0x60\n        /* \"#utility.yul\":6141:6150   */\n      dup4\n        /* \"#utility.yul\":6137:6155   */\n      add\n        /* \"#utility.yul\":6130:6178   */\n      mstore\n        /* \"#utility.yul\":6195:6273   */\n      tag_283\n        /* \"#utility.yul\":6268:6272   */\n      dup2\n        /* \"#utility.yul\":6259:6265   */\n      dup7\n        /* \"#utility.yul\":6195:6273   */\n      tag_163\n      jump\t// in\n    tag_283:\n        /* \"#utility.yul\":6187:6273   */\n      swap1\n      pop\n        /* \"#utility.yul\":6321:6330   */\n      dup2\n        /* \"#utility.yul\":6315:6319   */\n      dup2\n        /* \"#utility.yul\":6311:6331   */\n      sub\n        /* \"#utility.yul\":6305:6308   */\n      0x80\n        /* \"#utility.yul\":6294:6303   */\n      dup4\n        /* \"#utility.yul\":6290:6309   */\n      add\n        /* \"#utility.yul\":6283:6332   */\n      mstore\n        /* \"#utility.yul\":6349:6427   */\n      tag_284\n        /* \"#utility.yul\":6422:6426   */\n      dup2\n        /* \"#utility.yul\":6413:6419   */\n      dup6\n        /* \"#utility.yul\":6349:6427   */\n      tag_163\n      jump\t// in\n    tag_284:\n        /* \"#utility.yul\":6341:6427   */\n      swap1\n      pop\n        /* \"#utility.yul\":6437:6510   */\n      tag_285\n        /* \"#utility.yul\":6505:6508   */\n      0xa0\n        /* \"#utility.yul\":6494:6503   */\n      dup4\n        /* \"#utility.yul\":6490:6509   */\n      add\n        /* \"#utility.yul\":6481:6487   */\n      dup5\n        /* \"#utility.yul\":6437:6510   */\n      tag_178\n      jump\t// in\n    tag_285:\n        /* \"#utility.yul\":5560:6517   */\n      swap8\n      swap7\n      pop\n      pop\n      pop\n      pop\n      pop\n      pop\n      pop\n      jump\t// out\n        /* \"#utility.yul\":6523:7286   */\n    tag_48:\n        /* \"#utility.yul\":6750:6754   */\n      0x00\n        /* \"#utility.yul\":6788:6791   */\n      0xc0\n        /* \"#utility.yul\":6777:6786   */\n      dup3\n        /* \"#utility.yul\":6773:6792   */\n      add\n        /* \"#utility.yul\":6765:6792   */\n      swap1\n      pop\n        /* \"#utility.yul\":6802:6873   */\n      tag_287\n        /* \"#utility.yul\":6870:6871   */\n      0x00\n        /* \"#utility.yul\":6859:6868   */\n      dup4\n        /* \"#utility.yul\":6855:6872   */\n      add\n        /* \"#utility.yul\":6846:6852   */\n      dup10\n        /* \"#utility.yul\":6802:6873   */\n      tag_178\n      jump\t// in\n    tag_287:\n        /* \"#utility.yul\":6883:6955   */\n      tag_288\n        /* \"#utility.yul\":6951:6953   */\n      0x20\n        /* \"#utility.yul\":6940:6949   */\n      dup4\n        /* \"#utility.yul\":6936:6954   */\n      add\n        /* \"#utility.yul\":6927:6933   */\n      dup9\n        /* \"#utility.yul\":6883:6955   */\n      tag_179\n      jump\t// in\n    tag_288:\n        /* \"#utility.yul\":6965:7037   */\n      tag_289\n        /* \"#utility.yul\":7033:7035   */\n      0x40\n        /* \"#utility.yul\":7022:7031   */\n      dup4\n        /* \"#utility.yul\":7018:7036   */\n      add\n        /* \"#utility.yul\":7009:7015   */\n      dup8\n        /* \"#utility.yul\":6965:7037   */\n      tag_179\n      jump\t// in\n    tag_289:\n        /* \"#utility.yul\":7047:7119   */\n      tag_290\n        /* \"#utility.yul\":7115:7117   */\n      0x60\n        /* \"#utility.yul\":7104:7113   */\n      dup4\n        /* \"#utility.yul\":7100:7118   */\n      add\n        /* \"#utility.yul\":7091:7097   */\n      dup7\n        /* \"#utility.yul\":7047:7119   */\n      tag_178\n      jump\t// in\n    tag_290:\n        /* \"#utility.yul\":7129:7196   */\n      tag_291\n        /* \"#utility.yul\":7191:7194   */\n      0x80\n        /* \"#utility.yul\":7180:7189   */\n      dup4\n        /* \"#utility.yul\":7176:7195   */\n      add\n        /* \"#utility.yul\":7167:7173   */\n      dup6\n        /* \"#utility.yul\":7129:7196   */\n      tag_173\n      jump\t// in\n    tag_291:\n        /* \"#utility.yul\":7206:7279   */\n      tag_292\n        /* \"#utility.yul\":7274:7277   */\n      0xa0\n        /* \"#utility.yul\":7263:7272   */\n      dup4\n        /* \"#utility.yul\":7259:7278   */\n      add\n        /* \"#utility.yul\":7250:7256   */\n      dup5\n        /* \"#utility.yul\":7206:7279   */\n      tag_178\n      jump\t// in\n    tag_292:\n        /* \"#utility.yul\":6523:7286   */\n      swap8\n      swap7\n      pop\n      pop\n      pop\n      pop\n      pop\n      pop\n      pop\n      jump\t// out\n        /* \"#utility.yul\":7292:7409   */\n    tag_180:\n        /* \"#utility.yul\":7401:7402   */\n      0x00\n        /* \"#utility.yul\":7398:7399   */\n      dup1\n        /* \"#utility.yul\":7391:7403   */\n      revert\n        /* \"#utility.yul\":7415:7532   */\n    tag_181:\n        /* \"#utility.yul\":7524:7525   */\n      0x00\n        /* \"#utility.yul\":7521:7522   */\n      dup1\n        /* \"#utility.yul\":7514:7526   */\n      revert\n        /* \"#utility.yul\":7538:7718   */\n    tag_102:\n        /* \"#utility.yul\":7586:7663   */\n      0x4e487b7100000000000000000000000000000000000000000000000000000000\n        /* \"#utility.yul\":7583:7584   */\n      0x00\n        /* \"#utility.yul\":7576:7664   */\n      mstore\n        /* \"#utility.yul\":7683:7687   */\n      0x41\n        /* \"#utility.yul\":7680:7681   */\n      0x04\n        /* \"#utility.yul\":7673:7688   */\n      mstore\n        /* \"#utility.yul\":7707:7711   */\n      0x24\n        /* \"#utility.yul\":7704:7705   */\n      0x00\n        /* \"#utility.yul\":7697:7712   */\n      revert\n        /* \"#utility.yul\":7724:8005   */\n    tag_182:\n        /* \"#utility.yul\":7807:7834   */\n      tag_297\n        /* \"#utility.yul\":7829:7833   */\n      dup3\n        /* \"#utility.yul\":7807:7834   */\n      tag_162\n      jump\t// in\n    tag_297:\n        /* \"#utility.yul\":7799:7805   */\n      dup2\n        /* \"#utility.yul\":7795:7835   */\n      add\n        /* \"#utility.yul\":7937:7943   */\n      dup2\n        /* \"#utility.yul\":7925:7935   */\n      dup2\n        /* \"#utility.yul\":7922:7944   */\n      lt\n        /* \"#utility.yul\":7901:7919   */\n      0xffffffffffffffff\n        /* \"#utility.yul\":7889:7899   */\n      dup3\n        /* \"#utility.yul\":7886:7920   */\n      gt\n        /* \"#utility.yul\":7883:7945   */\n      or\n        /* \"#utility.yul\":7880:7968   */\n      iszero\n      tag_298\n      jumpi\n        /* \"#utility.yul\":7948:7966   */\n      tag_299\n      tag_102\n      jump\t// in\n    tag_299:\n        /* \"#utility.yul\":7880:7968   */\n    tag_298:\n        /* \"#utility.yul\":7988:7998   */\n      dup1\n        /* \"#utility.yul\":7984:7986   */\n      0x40\n        /* \"#utility.yul\":7977:7999   */\n      mstore\n        /* \"#utility.yul\":7767:8005   */\n      pop\n        /* \"#utility.yul\":7724:8005   */\n      pop\n      pop\n      jump\t// out\n        /* \"#utility.yul\":8011:8140   */\n    tag_183:\n        /* \"#utility.yul\":8045:8051   */\n      0x00\n        /* \"#utility.yul\":8072:8092   */\n      tag_301\n      tag_164\n      jump\t// in\n    tag_301:\n        /* \"#utility.yul\":8062:8092   */\n      swap1\n      pop\n        /* \"#utility.yul\":8101:8134   */\n      tag_302\n        /* \"#utility.yul\":8129:8133   */\n      dup3\n        /* \"#utility.yul\":8121:8127   */\n      dup3\n        /* \"#utility.yul\":8101:8134   */\n      tag_182\n      jump\t// in\n    tag_302:\n        /* \"#utility.yul\":8011:8140   */\n      swap2\n      swap1\n      pop\n      jump\t// out\n        /* \"#utility.yul\":8146:8454   */\n    tag_184:\n        /* \"#utility.yul\":8208:8212   */\n      0x00\n        /* \"#utility.yul\":8298:8316   */\n      0xffffffffffffffff\n        /* \"#utility.yul\":8290:8296   */\n      dup3\n        /* \"#utility.yul\":8287:8317   */\n      gt\n        /* \"#utility.yul\":8284:8340   */\n      iszero\n      tag_304\n      jumpi\n        /* \"#utility.yul\":8320:8338   */\n      tag_305\n      tag_102\n      jump\t// in\n    tag_305:\n        /* \"#utility.yul\":8284:8340   */\n    tag_304:\n        /* \"#utility.yul\":8358:8387   */\n      tag_306\n        /* \"#utility.yul\":8380:8386   */\n      dup3\n        /* \"#utility.yul\":8358:8387   */\n      tag_162\n      jump\t// in\n    tag_306:\n        /* \"#utility.yul\":8350:8387   */\n      swap1\n      pop\n        /* \"#utility.yul\":8442:8446   */\n      0x20\n        /* \"#utility.yul\":8436:8440   */\n      dup2\n        /* \"#utility.yul\":8432:8447   */\n      add\n        /* \"#utility.yul\":8424:8447   */\n      swap1\n      pop\n        /* \"#utility.yul\":8146:8454   */\n      swap2\n      swap1\n      pop\n      jump\t// out\n        /* \"#utility.yul\":8460:8606   */\n    tag_185:\n        /* \"#utility.yul\":8557:8563   */\n      dup3\n        /* \"#utility.yul\":8552:8555   */\n      dup2\n        /* \"#utility.yul\":8547:8550   */\n      dup4\n        /* \"#utility.yul\":8534:8564   */\n      calldatacopy\n        /* \"#utility.yul\":8598:8599   */\n      0x00\n        /* \"#utility.yul\":8589:8595   */\n      dup4\n        /* \"#utility.yul\":8584:8587   */\n      dup4\n        /* \"#utility.yul\":8580:8596   */\n      add\n        /* \"#utility.yul\":8573:8600   */\n      mstore\n        /* \"#utility.yul\":8460:8606   */\n      pop\n      pop\n      pop\n      jump\t// out\n        /* \"#utility.yul\":8612:9037   */\n    tag_186:\n        /* \"#utility.yul\":8690:8695   */\n      0x00\n        /* \"#utility.yul\":8715:8781   */\n      tag_309\n        /* \"#utility.yul\":8731:8780   */\n      tag_310\n        /* \"#utility.yul\":8773:8779   */\n      dup5\n        /* \"#utility.yul\":8731:8780   */\n      tag_184\n      jump\t// in\n    tag_310:\n        /* \"#utility.yul\":8715:8781   */\n      tag_183\n      jump\t// in\n    tag_309:\n        /* \"#utility.yul\":8706:8781   */\n      swap1\n      pop\n        /* \"#utility.yul\":8804:8810   */\n      dup3\n        /* \"#utility.yul\":8797:8802   */\n      dup2\n        /* \"#utility.yul\":8790:8811   */\n      mstore\n        /* \"#utility.yul\":8842:8846   */\n      0x20\n        /* \"#utility.yul\":8835:8840   */\n      dup2\n        /* \"#utility.yul\":8831:8847   */\n      add\n        /* \"#utility.yul\":8880:8883   */\n      dup5\n        /* \"#utility.yul\":8871:8877   */\n      dup5\n        /* \"#utility.yul\":8866:8869   */\n      dup5\n        /* \"#utility.yul\":8862:8878   */\n      add\n        /* \"#utility.yul\":8859:8884   */\n      gt\n        /* \"#utility.yul\":8856:8968   */\n      iszero\n      tag_311\n      jumpi\n        /* \"#utility.yul\":8887:8966   */\n      tag_312\n      tag_181\n      jump\t// in\n    tag_312:\n        /* \"#utility.yul\":8856:8968   */\n    tag_311:\n        /* \"#utility.yul\":8977:9031   */\n      tag_313\n        /* \"#utility.yul\":9024:9030   */\n      dup5\n        /* \"#utility.yul\":9019:9022   */\n      dup3\n        /* \"#utility.yul\":9014:9017   */\n      dup6\n        /* \"#utility.yul\":8977:9031   */\n      tag_185\n      jump\t// in\n    tag_313:\n        /* \"#utility.yul\":8696:9037   */\n      pop\n        /* \"#utility.yul\":8612:9037   */\n      swap4\n      swap3\n      pop\n      pop\n      pop\n      jump\t// out\n        /* \"#utility.yul\":9057:9397   */\n    tag_187:\n        /* \"#utility.yul\":9113:9118   */\n      0x00\n        /* \"#utility.yul\":9162:9165   */\n      dup3\n        /* \"#utility.yul\":9155:9159   */\n      0x1f\n        /* \"#utility.yul\":9147:9153   */\n      dup4\n        /* \"#utility.yul\":9143:9160   */\n      add\n        /* \"#utility.yul\":9139:9166   */\n      slt\n        /* \"#utility.yul\":9129:9251   */\n      tag_315\n      jumpi\n        /* \"#utility.yul\":9170:9249   */\n      tag_316\n      tag_180\n      jump\t// in\n    tag_316:\n        /* \"#utility.yul\":9129:9251   */\n    tag_315:\n        /* \"#utility.yul\":9287:9293   */\n      dup2\n        /* \"#utility.yul\":9274:9294   */\n      calldataload\n        /* \"#utility.yul\":9312:9391   */\n      tag_317\n        /* \"#utility.yul\":9387:9390   */\n      dup5\n        /* \"#utility.yul\":9379:9385   */\n      dup3\n        /* \"#utility.yul\":9372:9376   */\n      0x20\n        /* \"#utility.yul\":9364:9370   */\n      dup7\n        /* \"#utility.yul\":9360:9377   */\n      add\n        /* \"#utility.yul\":9312:9391   */\n      tag_186\n      jump\t// in\n    tag_317:\n        /* \"#utility.yul\":9303:9391   */\n      swap2\n      pop\n        /* \"#utility.yul\":9119:9397   */\n      pop\n        /* \"#utility.yul\":9057:9397   */\n      swap3\n      swap2\n      pop\n      pop\n      jump\t// out\n        /* \"#utility.yul\":9403:10674   */\n    tag_51:\n        /* \"#utility.yul\":9518:9524   */\n      0x00\n        /* \"#utility.yul\":9526:9532   */\n      dup1\n        /* \"#utility.yul\":9534:9540   */\n      0x00\n        /* \"#utility.yul\":9542:9548   */\n      dup1\n        /* \"#utility.yul\":9550:9556   */\n      0x00\n        /* \"#utility.yul\":9599:9602   */\n      0xa0\n        /* \"#utility.yul\":9587:9596   */\n      dup7\n        /* \"#utility.yul\":9578:9585   */\n      dup9\n        /* \"#utility.yul\":9574:9597   */\n      sub\n        /* \"#utility.yul\":9570:9603   */\n      slt\n        /* \"#utility.yul\":9567:9687   */\n      iszero\n      tag_319\n      jumpi\n        /* \"#utility.yul\":9606:9685   */\n      tag_320\n      tag_165\n      jump\t// in\n    tag_320:\n        /* \"#utility.yul\":9567:9687   */\n    tag_319:\n        /* \"#utility.yul\":9726:9727   */\n      0x00\n        /* \"#utility.yul\":9751:9804   */\n      tag_321\n        /* \"#utility.yul\":9796:9803   */\n      dup9\n        /* \"#utility.yul\":9787:9793   */\n      dup3\n        /* \"#utility.yul\":9776:9785   */\n      dup10\n        /* \"#utility.yul\":9772:9794   */\n      add\n        /* \"#utility.yul\":9751:9804   */\n      tag_177\n      jump\t// in\n    tag_321:\n        /* \"#utility.yul\":9741:9804   */\n      swap6\n      pop\n        /* \"#utility.yul\":9697:9814   */\n      pop\n        /* \"#utility.yul\":9853:9855   */\n      0x20\n        /* \"#utility.yul\":9879:9932   */\n      tag_322\n        /* \"#utility.yul\":9924:9931   */\n      dup9\n        /* \"#utility.yul\":9915:9921   */\n      dup3\n        /* \"#utility.yul\":9904:9913   */\n      dup10\n        /* \"#utility.yul\":9900:9922   */\n      add\n        /* \"#utility.yul\":9879:9932   */\n      tag_177\n      jump\t// in\n    tag_322:\n        /* \"#utility.yul\":9869:9932   */\n      swap5\n      pop\n        /* \"#utility.yul\":9824:9942   */\n      pop\n        /* \"#utility.yul\":10009:10011   */\n      0x40\n        /* \"#utility.yul\":9998:10007   */\n      dup7\n        /* \"#utility.yul\":9994:10012   */\n      add\n        /* \"#utility.yul\":9981:10013   */\n      calldataload\n        /* \"#utility.yul\":10040:10058   */\n      0xffffffffffffffff\n        /* \"#utility.yul\":10032:10038   */\n      dup2\n        /* \"#utility.yul\":10029:10059   */\n      gt\n        /* \"#utility.yul\":10026:10143   */\n      iszero\n      tag_323\n      jumpi\n        /* \"#utility.yul\":10062:10141   */\n      tag_324\n      tag_166\n      jump\t// in\n    tag_324:\n        /* \"#utility.yul\":10026:10143   */\n    tag_323:\n        /* \"#utility.yul\":10167:10230   */\n      tag_325\n        /* \"#utility.yul\":10222:10229   */\n      dup9\n        /* \"#utility.yul\":10213:10219   */\n      dup3\n        /* \"#utility.yul\":10202:10211   */\n      dup10\n        /* \"#utility.yul\":10198:10220   */\n      add\n        /* \"#utility.yul\":10167:10230   */\n      tag_187\n      jump\t// in\n    tag_325:\n        /* \"#utility.yul\":10157:10230   */\n      swap4\n      pop\n        /* \"#utility.yul\":9952:10240   */\n      pop\n        /* \"#utility.yul\":10307:10309   */\n      0x60\n        /* \"#utility.yul\":10296:10305   */\n      dup7\n        /* \"#utility.yul\":10292:10310   */\n      add\n        /* \"#utility.yul\":10279:10311   */\n      calldataload\n        /* \"#utility.yul\":10338:10356   */\n      0xffffffffffffffff\n        /* \"#utility.yul\":10330:10336   */\n      dup2\n        /* \"#utility.yul\":10327:10357   */\n      gt\n        /* \"#utility.yul\":10324:10441   */\n      iszero\n      tag_326\n      jumpi\n        /* \"#utility.yul\":10360:10439   */\n      tag_327\n      tag_166\n      jump\t// in\n    tag_327:\n        /* \"#utility.yul\":10324:10441   */\n    tag_326:\n        /* \"#utility.yul\":10465:10528   */\n      tag_328\n        /* \"#utility.yul\":10520:10527   */\n      dup9\n        /* \"#utility.yul\":10511:10517   */\n      dup3\n        /* \"#utility.yul\":10500:10509   */\n      dup10\n        /* \"#utility.yul\":10496:10518   */\n      add\n        /* \"#utility.yul\":10465:10528   */\n      tag_187\n      jump\t// in\n    tag_328:\n        /* \"#utility.yul\":10455:10528   */\n      swap3\n      pop\n        /* \"#utility.yul\":10250:10538   */\n      pop\n        /* \"#utility.yul\":10577:10580   */\n      0x80\n        /* \"#utility.yul\":10604:10657   */\n      tag_329\n        /* \"#utility.yul\":10649:10656   */\n      dup9\n        /* \"#utility.yul\":10640:10646   */\n      dup3\n        /* \"#utility.yul\":10629:10638   */\n      dup10\n        /* \"#utility.yul\":10625:10647   */\n      add\n        /* \"#utility.yul\":10604:10657   */\n      tag_169\n      jump\t// in\n    tag_329:\n        /* \"#utility.yul\":10594:10657   */\n      swap2\n      pop\n        /* \"#utility.yul\":10548:10667   */\n      pop\n        /* \"#utility.yul\":9403:10674   */\n      swap3\n      swap6\n      pop\n      swap3\n      swap6\n      swap1\n      swap4\n      pop\n      jump\t// out\n        /* \"#utility.yul\":10680:10794   */\n    tag_188:\n        /* \"#utility.yul\":10747:10753   */\n      0x00\n        /* \"#utility.yul\":10781:10786   */\n      dup2\n        /* \"#utility.yul\":10775:10787   */\n      mload\n        /* \"#utility.yul\":10765:10787   */\n      swap1\n      pop\n        /* \"#utility.yul\":10680:10794   */\n      swap2\n      swap1\n      pop\n      jump\t// out\n        /* \"#utility.yul\":10800:10984   */\n    tag_189:\n        /* \"#utility.yul\":10899:10910   */\n      0x00\n        /* \"#utility.yul\":10933:10939   */\n      dup3\n        /* \"#utility.yul\":10928:10931   */\n      dup3\n        /* \"#utility.yul\":10921:10940   */\n      mstore\n        /* \"#utility.yul\":10973:10977   */\n      0x20\n        /* \"#utility.yul\":10968:10971   */\n      dup3\n        /* \"#utility.yul\":10964:10978   */\n      add\n        /* \"#utility.yul\":10949:10978   */\n      swap1\n      pop\n        /* \"#utility.yul\":10800:10984   */\n      swap3\n      swap2\n      pop\n      pop\n      jump\t// out\n        /* \"#utility.yul\":10990:11122   */\n    tag_190:\n        /* \"#utility.yul\":11057:11061   */\n      0x00\n        /* \"#utility.yul\":11080:11083   */\n      dup2\n        /* \"#utility.yul\":11072:11083   */\n      swap1\n      pop\n        /* \"#utility.yul\":11110:11114   */\n      0x20\n        /* \"#utility.yul\":11105:11108   */\n      dup3\n        /* \"#utility.yul\":11101:11115   */\n      add\n        /* \"#utility.yul\":11093:11115   */\n      swap1\n      pop\n        /* \"#utility.yul\":10990:11122   */\n      swap2\n      swap1\n      pop\n      jump\t// out\n        /* \"#utility.yul\":11128:11236   */\n    tag_191:\n        /* \"#utility.yul\":11205:11229   */\n      tag_334\n        /* \"#utility.yul\":11223:11228   */\n      dup2\n        /* \"#utility.yul\":11205:11229   */\n      tag_167\n      jump\t// in\n    tag_334:\n        /* \"#utility.yul\":11200:11203   */\n      dup3\n        /* \"#utility.yul\":11193:11230   */\n      mstore\n        /* \"#utility.yul\":11128:11236   */\n      pop\n      pop\n      jump\t// out\n        /* \"#utility.yul\":11242:11421   */\n    tag_192:\n        /* \"#utility.yul\":11311:11321   */\n      0x00\n        /* \"#utility.yul\":11332:11378   */\n      tag_336\n        /* \"#utility.yul\":11374:11377   */\n      dup4\n        /* \"#utility.yul\":11366:11372   */\n      dup4\n        /* \"#utility.yul\":11332:11378   */\n      tag_191\n      jump\t// in\n    tag_336:\n        /* \"#utility.yul\":11410:11414   */\n      0x20\n        /* \"#utility.yul\":11405:11408   */\n      dup4\n        /* \"#utility.yul\":11401:11415   */\n      add\n        /* \"#utility.yul\":11387:11415   */\n      swap1\n      pop\n        /* \"#utility.yul\":11242:11421   */\n      swap3\n      swap2\n      pop\n      pop\n      jump\t// out\n        /* \"#utility.yul\":11427:11540   */\n    tag_193:\n        /* \"#utility.yul\":11497:11501   */\n      0x00\n        /* \"#utility.yul\":11529:11533   */\n      0x20\n        /* \"#utility.yul\":11524:11527   */\n      dup3\n        /* \"#utility.yul\":11520:11534   */\n      add\n        /* \"#utility.yul\":11512:11534   */\n      swap1\n      pop\n        /* \"#utility.yul\":11427:11540   */\n      swap2\n      swap1\n      pop\n      jump\t// out\n        /* \"#utility.yul\":11576:12308   */\n    tag_194:\n        /* \"#utility.yul\":11695:11698   */\n      0x00\n        /* \"#utility.yul\":11724:11778   */\n      tag_339\n        /* \"#utility.yul\":11772:11777   */\n      dup3\n        /* \"#utility.yul\":11724:11778   */\n      tag_188\n      jump\t// in\n    tag_339:\n        /* \"#utility.yul\":11794:11880   */\n      tag_340\n        /* \"#utility.yul\":11873:11879   */\n      dup2\n        /* \"#utility.yul\":11868:11871   */\n      dup6\n        /* \"#utility.yul\":11794:11880   */\n      tag_189\n      jump\t// in\n    tag_340:\n        /* \"#utility.yul\":11787:11880   */\n      swap4\n      pop\n        /* \"#utility.yul\":11904:11960   */\n      tag_341\n        /* \"#utility.yul\":11954:11959   */\n      dup4\n        /* \"#utility.yul\":11904:11960   */\n      tag_190\n      jump\t// in\n    tag_341:\n        /* \"#utility.yul\":11983:11990   */\n      dup1\n        /* \"#utility.yul\":12014:12015   */\n      0x00\n        /* \"#utility.yul\":11999:12283   */\n    tag_342:\n        /* \"#utility.yul\":12024:12030   */\n      dup4\n        /* \"#utility.yul\":12021:12022   */\n      dup2\n        /* \"#utility.yul\":12018:12031   */\n      lt\n        /* \"#utility.yul\":11999:12283   */\n      iszero\n      tag_344\n      jumpi\n        /* \"#utility.yul\":12100:12106   */\n      dup2\n        /* \"#utility.yul\":12094:12107   */\n      mload\n        /* \"#utility.yul\":12127:12190   */\n      tag_345\n        /* \"#utility.yul\":12186:12189   */\n      dup9\n        /* \"#utility.yul\":12171:12184   */\n      dup3\n        /* \"#utility.yul\":12127:12190   */\n      tag_192\n      jump\t// in\n    tag_345:\n        /* \"#utility.yul\":12120:12190   */\n      swap8\n      pop\n        /* \"#utility.yul\":12213:12273   */\n      tag_346\n        /* \"#utility.yul\":12266:12272   */\n      dup4\n        /* \"#utility.yul\":12213:12273   */\n      tag_193\n      jump\t// in\n    tag_346:\n        /* \"#utility.yul\":12203:12273   */\n      swap3\n      pop\n        /* \"#utility.yul\":12059:12283   */\n      pop\n        /* \"#utility.yul\":12046:12047   */\n      0x01\n        /* \"#utility.yul\":12043:12044   */\n      dup2\n        /* \"#utility.yul\":12039:12048   */\n      add\n        /* \"#utility.yul\":12034:12048   */\n      swap1\n      pop\n        /* \"#utility.yul\":11999:12283   */\n      jump(tag_342)\n    tag_344:\n        /* \"#utility.yul\":12003:12017   */\n      pop\n        /* \"#utility.yul\":12299:12302   */\n      dup6\n        /* \"#utility.yul\":12292:12302   */\n      swap4\n      pop\n        /* \"#utility.yul\":11700:12308   */\n      pop\n      pop\n      pop\n        /* \"#utility.yul\":11576:12308   */\n      swap3\n      swap2\n      pop\n      pop\n      jump\t// out\n        /* \"#utility.yul\":12314:12687   */\n    tag_56:\n        /* \"#utility.yul\":12457:12461   */\n      0x00\n        /* \"#utility.yul\":12495:12497   */\n      0x20\n        /* \"#utility.yul\":12484:12493   */\n      dup3\n        /* \"#utility.yul\":12480:12498   */\n      add\n        /* \"#utility.yul\":12472:12498   */\n      swap1\n      pop\n        /* \"#utility.yul\":12544:12553   */\n      dup2\n        /* \"#utility.yul\":12538:12542   */\n      dup2\n        /* \"#utility.yul\":12534:12554   */\n      sub\n        /* \"#utility.yul\":12530:12531   */\n      0x00\n        /* \"#utility.yul\":12519:12528   */\n      dup4\n        /* \"#utility.yul\":12515:12532   */\n      add\n        /* \"#utility.yul\":12508:12555   */\n      mstore\n        /* \"#utility.yul\":12572:12680   */\n      tag_348\n        /* \"#utility.yul\":12675:12679   */\n      dup2\n        /* \"#utility.yul\":12666:12672   */\n      dup5\n        /* \"#utility.yul\":12572:12680   */\n      tag_194\n      jump\t// in\n    tag_348:\n        /* \"#utility.yul\":12564:12680   */\n      swap1\n      pop\n        /* \"#utility.yul\":12314:12687   */\n      swap3\n      swap2\n      pop\n      pop\n      jump\t// out\n        /* \"#utility.yul\":12693:13440   */\n    tag_65:\n        /* \"#utility.yul\":12770:12776   */\n      0x00\n        /* \"#utility.yul\":12778:12784   */\n      dup1\n        /* \"#utility.yul\":12786:12792   */\n      0x00\n        /* \"#utility.yul\":12794:12800   */\n      dup1\n        /* \"#utility.yul\":12843:12846   */\n      0x80\n        /* \"#utility.yul\":12831:12840   */\n      dup6\n        /* \"#utility.yul\":12822:12829   */\n      dup8\n        /* \"#utility.yul\":12818:12841   */\n      sub\n        /* \"#utility.yul\":12814:12847   */\n      slt\n        /* \"#utility.yul\":12811:12931   */\n      iszero\n      tag_350\n      jumpi\n        /* \"#utility.yul\":12850:12929   */\n      tag_351\n      tag_165\n      jump\t// in\n    tag_351:\n        /* \"#utility.yul\":12811:12931   */\n    tag_350:\n        /* \"#utility.yul\":12970:12971   */\n      0x00\n        /* \"#utility.yul\":12995:13048   */\n      tag_352\n        /* \"#utility.yul\":13040:13047   */\n      dup8\n        /* \"#utility.yul\":13031:13037   */\n      dup3\n        /* \"#utility.yul\":13020:13029   */\n      dup9\n        /* \"#utility.yul\":13016:13038   */\n      add\n        /* \"#utility.yul\":12995:13048   */\n      tag_169\n      jump\t// in\n    tag_352:\n        /* \"#utility.yul\":12985:13048   */\n      swap5\n      pop\n        /* \"#utility.yul\":12941:13058   */\n      pop\n        /* \"#utility.yul\":13097:13099   */\n      0x20\n        /* \"#utility.yul\":13123:13173   */\n      tag_353\n        /* \"#utility.yul\":13165:13172   */\n      dup8\n        /* \"#utility.yul\":13156:13162   */\n      dup3\n        /* \"#utility.yul\":13145:13154   */\n      dup9\n        /* \"#utility.yul\":13141:13163   */\n      add\n        /* \"#utility.yul\":13123:13173   */\n      tag_172\n      jump\t// in\n    tag_353:\n        /* \"#utility.yul\":13113:13173   */\n      swap4\n      pop\n        /* \"#utility.yul\":13068:13183   */\n      pop\n        /* \"#utility.yul\":13222:13224   */\n      0x40\n        /* \"#utility.yul\":13248:13298   */\n      tag_354\n        /* \"#utility.yul\":13290:13297   */\n      dup8\n        /* \"#utility.yul\":13281:13287   */\n      dup3\n        /* \"#utility.yul\":13270:13279   */\n      dup9\n        /* \"#utility.yul\":13266:13288   */\n      add\n        /* \"#utility.yul\":13248:13298   */\n      tag_172\n      jump\t// in\n    tag_354:\n        /* \"#utility.yul\":13238:13298   */\n      swap3\n      pop\n        /* \"#utility.yul\":13193:13308   */\n      pop\n        /* \"#utility.yul\":13347:13349   */\n      0x60\n        /* \"#utility.yul\":13373:13423   */\n      tag_355\n        /* \"#utility.yul\":13415:13422   */\n      dup8\n        /* \"#utility.yul\":13406:13412   */\n      dup3\n        /* \"#utility.yul\":13395:13404   */\n      dup9\n        /* \"#utility.yul\":13391:13413   */\n      add\n        /* \"#utility.yul\":13373:13423   */\n      tag_172\n      jump\t// in\n    tag_355:\n        /* \"#utility.yul\":13363:13423   */\n      swap2\n      pop\n        /* \"#utility.yul\":13318:13433   */\n      pop\n        /* \"#utility.yul\":12693:13440   */\n      swap3\n      swap6\n      swap2\n      swap5\n      pop\n      swap3\n      pop\n      jump\t// out\n        /* \"#utility.yul\":13446:13626   */\n    tag_195:\n        /* \"#utility.yul\":13494:13571   */\n      0x4e487b7100000000000000000000000000000000000000000000000000000000\n        /* \"#utility.yul\":13491:13492   */\n      0x00\n        /* \"#utility.yul\":13484:13572   */\n      mstore\n        /* \"#utility.yul\":13591:13595   */\n      0x22\n        /* \"#utility.yul\":13588:13589   */\n      0x04\n        /* \"#utility.yul\":13581:13596   */\n      mstore\n        /* \"#utility.yul\":13615:13619   */\n      0x24\n        /* \"#utility.yul\":13612:13613   */\n      0x00\n        /* \"#utility.yul\":13605:13620   */\n      revert\n        /* \"#utility.yul\":13632:13952   */\n    tag_68:\n        /* \"#utility.yul\":13676:13682   */\n      0x00\n        /* \"#utility.yul\":13713:13714   */\n      0x02\n        /* \"#utility.yul\":13707:13711   */\n      dup3\n        /* \"#utility.yul\":13703:13715   */\n      div\n        /* \"#utility.yul\":13693:13715   */\n      swap1\n      pop\n        /* \"#utility.yul\":13760:13761   */\n      0x01\n        /* \"#utility.yul\":13754:13758   */\n      dup3\n        /* \"#utility.yul\":13750:13762   */\n      and\n        /* \"#utility.yul\":13781:13799   */\n      dup1\n        /* \"#utility.yul\":13771:13852   */\n      tag_358\n      jumpi\n        /* \"#utility.yul\":13837:13841   */\n      0x7f\n        /* \"#utility.yul\":13829:13835   */\n      dup3\n        /* \"#utility.yul\":13825:13842   */\n      and\n        /* \"#utility.yul\":13815:13842   */\n      swap2\n      pop\n        /* \"#utility.yul\":13771:13852   */\n    tag_358:\n        /* \"#utility.yul\":13899:13901   */\n      0x20\n        /* \"#utility.yul\":13891:13897   */\n      dup3\n        /* \"#utility.yul\":13888:13902   */\n      lt\n        /* \"#utility.yul\":13868:13886   */\n      dup2\n        /* \"#utility.yul\":13865:13903   */\n      sub\n        /* \"#utility.yul\":13862:13946   */\n      tag_359\n      jumpi\n        /* \"#utility.yul\":13918:13936   */\n      tag_360\n      tag_195\n      jump\t// in\n    tag_360:\n        /* \"#utility.yul\":13862:13946   */\n    tag_359:\n        /* \"#utility.yul\":13683:13952   */\n      pop\n        /* \"#utility.yul\":13632:13952   */\n      swap2\n      swap1\n      pop\n      jump\t// out\n        /* \"#utility.yul\":13958:14278   */\n    tag_76:\n        /* \"#utility.yul\":14073:14077   */\n      0x00\n        /* \"#utility.yul\":14111:14113   */\n      0x40\n        /* \"#utility.yul\":14100:14109   */\n      dup3\n        /* \"#utility.yul\":14096:14114   */\n      add\n        /* \"#utility.yul\":14088:14114   */\n      swap1\n      pop\n        /* \"#utility.yul\":14124:14195   */\n      tag_362\n        /* \"#utility.yul\":14192:14193   */\n      0x00\n        /* \"#utility.yul\":14181:14190   */\n      dup4\n        /* \"#utility.yul\":14177:14194   */\n      add\n        /* \"#utility.yul\":14168:14174   */\n      dup6\n        /* \"#utility.yul\":14124:14195   */\n      tag_178\n      jump\t// in\n    tag_362:\n        /* \"#utility.yul\":14205:14271   */\n      tag_363\n        /* \"#utility.yul\":14267:14269   */\n      0x20\n        /* \"#utility.yul\":14256:14265   */\n      dup4\n        /* \"#utility.yul\":14252:14270   */\n      add\n        /* \"#utility.yul\":14243:14249   */\n      dup5\n        /* \"#utility.yul\":14205:14271   */\n      tag_173\n      jump\t// in\n    tag_363:\n        /* \"#utility.yul\":13958:14278   */\n      swap4\n      swap3\n      pop\n      pop\n      pop\n      jump\t// out\n        /* \"#utility.yul\":14284:14464   */\n    tag_196:\n        /* \"#utility.yul\":14332:14409   */\n      0x4e487b7100000000000000000000000000000000000000000000000000000000\n        /* \"#utility.yul\":14329:14330   */\n      0x00\n        /* \"#utility.yul\":14322:14410   */\n      mstore\n        /* \"#utility.yul\":14429:14433   */\n      0x11\n        /* \"#utility.yul\":14426:14427   */\n      0x04\n        /* \"#utility.yul\":14419:14434   */\n      mstore\n        /* \"#utility.yul\":14453:14457   */\n      0x24\n        /* \"#utility.yul\":14450:14451   */\n      0x00\n        /* \"#utility.yul\":14443:14458   */\n      revert\n        /* \"#utility.yul\":14470:14703   */\n    tag_81:\n        /* \"#utility.yul\":14509:14512   */\n      0x00\n        /* \"#utility.yul\":14532:14556   */\n      tag_366\n        /* \"#utility.yul\":14550:14555   */\n      dup3\n        /* \"#utility.yul\":14532:14556   */\n      tag_167\n      jump\t// in\n    tag_366:\n        /* \"#utility.yul\":14523:14556   */\n      swap2\n      pop\n        /* \"#utility.yul\":14578:14644   */\n      0xffffffffffffffffffffffffffffffffffffffffffffffffffffffffffffffff\n        /* \"#utility.yul\":14571:14576   */\n      dup3\n        /* \"#utility.yul\":14568:14645   */\n      sub\n        /* \"#utility.yul\":14565:14668   */\n      tag_367\n      jumpi\n        /* \"#utility.yul\":14648:14666   */\n      tag_368\n      tag_196\n      jump\t// in\n    tag_368:\n        /* \"#utility.yul\":14565:14668   */\n    tag_367:\n        /* \"#utility.yul\":14695:14696   */\n      0x01\n        /* \"#utility.yul\":14688:14693   */\n      dup3\n        /* \"#utility.yul\":14684:14697   */\n      add\n        /* \"#utility.yul\":14677:14697   */\n      swap1\n      pop\n        /* \"#utility.yul\":14470:14703   */\n      swap2\n      swap1\n      pop\n      jump\t// out\n        /* \"#utility.yul\":14709:15041   */\n    tag_83:\n        /* \"#utility.yul\":14830:14834   */\n      0x00\n        /* \"#utility.yul\":14868:14870   */\n      0x40\n        /* \"#utility.yul\":14857:14866   */\n      dup3\n        /* \"#utility.yul\":14853:14871   */\n      add\n        /* \"#utility.yul\":14845:14871   */\n      swap1\n      pop\n        /* \"#utility.yul\":14881:14952   */\n      tag_370\n        /* \"#utility.yul\":14949:14950   */\n      0x00\n        /* \"#utility.yul\":14938:14947   */\n      dup4\n        /* \"#utility.yul\":14934:14951   */\n      add\n        /* \"#utility.yul\":14925:14931   */\n      dup6\n        /* \"#utility.yul\":14881:14952   */\n      tag_178\n      jump\t// in\n    tag_370:\n        /* \"#utility.yul\":14962:15034   */\n      tag_371\n        /* \"#utility.yul\":15030:15032   */\n      0x20\n        /* \"#utility.yul\":15019:15028   */\n      dup4\n        /* \"#utility.yul\":15015:15033   */\n      add\n        /* \"#utility.yul\":15006:15012   */\n      dup5\n        /* \"#utility.yul\":14962:15034   */\n      tag_178\n      jump\t// in\n    tag_371:\n        /* \"#utility.yul\":14709:15041   */\n      swap4\n      swap3\n      pop\n      pop\n      pop\n      jump\t// out\n        /* \"#utility.yul\":15047:15188   */\n    tag_197:\n        /* \"#utility.yul\":15096:15100   */\n      0x00\n        /* \"#utility.yul\":15119:15122   */\n      dup2\n        /* \"#utility.yul\":15111:15122   */\n      swap1\n      pop\n        /* \"#utility.yul\":15142:15145   */\n      dup2\n        /* \"#utility.yul\":15139:15140   */\n      0x00\n        /* \"#utility.yul\":15132:15146   */\n      mstore\n        /* \"#utility.yul\":15176:15180   */\n      0x20\n        /* \"#utility.yul\":15173:15174   */\n      0x00\n        /* \"#utility.yul\":15163:15181   */\n      keccak256\n        /* \"#utility.yul\":15155:15181   */\n      swap1\n      pop\n        /* \"#utility.yul\":15047:15188   */\n      swap2\n      swap1\n      pop\n      jump\t// out\n        /* \"#utility.yul\":15194:15287   */\n    tag_198:\n        /* \"#utility.yul\":15231:15237   */\n      0x00\n        /* \"#utility.yul\":15278:15280   */\n      0x20\n        /* \"#utility.yul\":15273:15275   */\n      0x1f\n        /* \"#utility.yul\":15266:15271   */\n      dup4\n        /* \"#utility.yul\":15262:15276   */\n      add\n        /* \"#utility.yul\":15258:15281   */\n      div\n        /* \"#utility.yul\":15248:15281   */\n      swap1\n      pop\n        /* \"#utility.yul\":15194:15287   */\n      swap2\n      swap1\n      pop\n      jump\t// out\n        /* \"#utility.yul\":15293:15400   */\n    tag_199:\n        /* \"#utility.yul\":15337:15345   */\n      0x00\n        /* \"#utility.yul\":15387:15392   */\n      dup3\n        /* \"#utility.yul\":15381:15385   */\n      dup3\n        /* \"#utility.yul\":15377:15393   */\n      shl\n        /* \"#utility.yul\":15356:15393   */\n      swap1\n      pop\n        /* \"#utility.yul\":15293:15400   */\n      swap3\n      swap2\n      pop\n      pop\n      jump\t// out\n        /* \"#utility.yul\":15406:15799   */\n    tag_200:\n        /* \"#utility.yul\":15475:15481   */\n      0x00\n        /* \"#utility.yul\":15525:15526   */\n      0x08\n        /* \"#utility.yul\":15513:15523   */\n      dup4\n        /* \"#utility.yul\":15509:15527   */\n      mul\n        /* \"#utility.yul\":15548:15645   */\n      tag_376\n        /* \"#utility.yul\":15578:15644   */\n      0xffffffffffffffffffffffffffffffffffffffffffffffffffffffffffffffff\n        /* \"#utility.yul\":15567:15576   */\n      dup3\n        /* \"#utility.yul\":15548:15645   */\n      tag_199\n      jump\t// in\n    tag_376:\n        /* \"#utility.yul\":15666:15705   */\n      tag_377\n        /* \"#utility.yul\":15696:15704   */\n      dup7\n        /* \"#utility.yul\":15685:15694   */\n      dup4\n        /* \"#utility.yul\":15666:15705   */\n      tag_199\n      jump\t// in\n    tag_377:\n        /* \"#utility.yul\":15654:15705   */\n      swap6\n      pop\n        /* \"#utility.yul\":15738:15742   */\n      dup1\n        /* \"#utility.yul\":15734:15743   */\n      not\n        /* \"#utility.yul\":15727:15732   */\n      dup5\n        /* \"#utility.yul\":15723:15744   */\n      and\n        /* \"#utility.yul\":15714:15744   */\n      swap4\n      pop\n        /* \"#utility.yul\":15787:15791   */\n      dup1\n        /* \"#utility.yul\":15777:15785   */\n      dup7\n        /* \"#utility.yul\":15773:15792   */\n      and\n        /* \"#utility.yul\":15766:15771   */\n      dup5\n        /* \"#utility.yul\":15763:15793   */\n      or\n        /* \"#utility.yul\":15753:15793   */\n      swap3\n      pop\n        /* \"#utility.yul\":15482:15799   */\n      pop\n      pop\n        /* \"#utility.yul\":15406:15799   */\n      swap4\n      swap3\n      pop\n      pop\n      pop\n      jump\t// out\n        /* \"#utility.yul\":15805:15865   */\n    tag_201:\n        /* \"#utility.yul\":15833:15836   */\n      0x00\n        /* \"#utility.yul\":15854:15859   */\n      dup2\n        /* \"#utility.yul\":15847:15859   */\n      swap1\n      pop\n        /* \"#utility.yul\":15805:15865   */\n      swap2\n      swap1\n      pop\n      jump\t// out\n        /* \"#utility.yul\":15871:16013   */\n    tag_202:\n        /* \"#utility.yul\":15921:15930   */\n      0x00\n        /* \"#utility.yul\":15954:16007   */\n      tag_380\n        /* \"#utility.yul\":15972:16006   */\n      tag_381\n        /* \"#utility.yul\":15981:16005   */\n      tag_382\n        /* \"#utility.yul\":15999:16004   */\n      dup5\n        /* \"#utility.yul\":15981:16005   */\n      tag_167\n      jump\t// in\n    tag_382:\n        /* \"#utility.yul\":15972:16006   */\n      tag_201\n      jump\t// in\n    tag_381:\n        /* \"#utility.yul\":15954:16007   */\n      tag_167\n      jump\t// in\n    tag_380:\n        /* \"#utility.yul\":15941:16007   */\n      swap1\n      pop\n        /* \"#utility.yul\":15871:16013   */\n      swap2\n      swap1\n      pop\n      jump\t// out\n        /* \"#utility.yul\":16019:16094   */\n    tag_203:\n        /* \"#utility.yul\":16062:16065   */\n      0x00\n        /* \"#utility.yul\":16083:16088   */\n      dup2\n        /* \"#utility.yul\":16076:16088   */\n      swap1\n      pop\n        /* \"#utility.yul\":16019:16094   */\n      swap2\n      swap1\n      pop\n      jump\t// out\n        /* \"#utility.yul\":16100:16369   */\n    tag_204:\n        /* \"#utility.yul\":16210:16249   */\n      tag_385\n        /* \"#utility.yul\":16241:16248   */\n      dup4\n        /* \"#utility.yul\":16210:16249   */\n      tag_202\n      jump\t// in\n    tag_385:\n        /* \"#utility.yul\":16271:16362   */\n      tag_386\n        /* \"#utility.yul\":16320:16361   */\n      tag_387\n        /* \"#utility.yul\":16344:16360   */\n      dup3\n        /* \"#utility.yul\":16320:16361   */\n      tag_203\n      jump\t// in\n    tag_387:\n        /* \"#utility.yul\":16312:16318   */\n      dup5\n        /* \"#utility.yul\":16305:16309   */\n      dup5\n        /* \"#utility.yul\":16299:16310   */\n      sload\n        /* \"#utility.yul\":16271:16362   */\n      tag_200\n      jump\t// in\n    tag_386:\n        /* \"#utility.yul\":16265:16269   */\n      dup3\n        /* \"#utility.yul\":16258:16363   */\n      sstore\n        /* \"#utility.yul\":16176:16369   */\n      pop\n        /* \"#utility.yul\":16100:16369   */\n      pop\n      pop\n      pop\n      jump\t// out\n        /* \"#utility.yul\":16375:16448   */\n    tag_205:\n        /* \"#utility.yul\":16420:16423   */\n      0x00\n        /* \"#utility.yul\":16375:16448   */\n      swap1\n      jump\t// out\n        /* \"#utility.yul\":16454:16643   */\n    tag_206:\n        /* \"#utility.yul\":16531:16563   */\n      tag_390\n      tag_205\n      jump\t// in\n    tag_390:\n        /* \"#utility.yul\":16572:16637   */\n      tag_391\n        /* \"#utility.yul\":16630:16636   */\n      dup2\n        /* \"#utility.yul\":16622:16628   */\n      dup5\n        /* \"#utility.yul\":16616:16620   */\n      dup5\n        /* \"#utility.yul\":16572:16637   */\n      tag_204\n      jump\t// in\n    tag_391:\n        /* \"#utility.yul\":16507:16643   */\n      pop\n        /* \"#utility.yul\":16454:16643   */\n      pop\n      pop\n      jump\t// out\n        /* \"#utility.yul\":16649:16835   */\n    tag_207:\n        /* \"#utility.yul\":16709:16829   */\n    tag_393:\n        /* \"#utility.yul\":16726:16729   */\n      dup2\n        /* \"#utility.yul\":16719:16724   */\n      dup2\n        /* \"#utility.yul\":16716:16730   */\n      lt\n        /* \"#utility.yul\":16709:16829   */\n      iszero\n      tag_395\n      jumpi\n        /* \"#utility.yul\":16780:16819   */\n      tag_396\n        /* \"#utility.yul\":16817:16818   */\n      0x00\n        /* \"#utility.yul\":16810:16815   */\n      dup3\n        /* \"#utility.yul\":16780:16819   */\n      tag_206\n      jump\t// in\n    tag_396:\n        /* \"#utility.yul\":16753:16754   */\n      0x01\n        /* \"#utility.yul\":16746:16751   */\n      dup2\n        /* \"#utility.yul\":16742:16755   */\n      add\n        /* \"#utility.yul\":16733:16755   */\n      swap1\n      pop\n        /* \"#utility.yul\":16709:16829   */\n      jump(tag_393)\n    tag_395:\n        /* \"#utility.yul\":16649:16835   */\n      pop\n      pop\n      jump\t// out\n        /* \"#utility.yul\":16841:17384   */\n    tag_208:\n        /* \"#utility.yul\":16942:16944   */\n      0x1f\n        /* \"#utility.yul\":16937:16940   */\n      dup3\n        /* \"#utility.yul\":16934:16945   */\n      gt\n        /* \"#utility.yul\":16931:17377   */\n      iszero\n      tag_398\n      jumpi\n        /* \"#utility.yul\":16976:17014   */\n      tag_399\n        /* \"#utility.yul\":17008:17013   */\n      dup2\n        /* \"#utility.yul\":16976:17014   */\n      tag_197\n      jump\t// in\n    tag_399:\n        /* \"#utility.yul\":17060:17089   */\n      tag_400\n        /* \"#utility.yul\":17078:17088   */\n      dup5\n        /* \"#utility.yul\":17060:17089   */\n      tag_198\n      jump\t// in\n    tag_400:\n        /* \"#utility.yul\":17050:17058   */\n      dup2\n        /* \"#utility.yul\":17046:17090   */\n      add\n        /* \"#utility.yul\":17243:17245   */\n      0x20\n        /* \"#utility.yul\":17231:17241   */\n      dup6\n        /* \"#utility.yul\":17228:17246   */\n      lt\n        /* \"#utility.yul\":17225:17274   */\n      iszero\n      tag_401\n      jumpi\n        /* \"#utility.yul\":17264:17272   */\n      dup2\n        /* \"#utility.yul\":17249:17272   */\n      swap1\n      pop\n        /* \"#utility.yul\":17225:17274   */\n    tag_401:\n        /* \"#utility.yul\":17287:17367   */\n      tag_402\n        /* \"#utility.yul\":17343:17365   */\n      tag_403\n        /* \"#utility.yul\":17361:17364   */\n      dup6\n        /* \"#utility.yul\":17343:17365   */\n      tag_198\n      jump\t// in\n    tag_403:\n        /* \"#utility.yul\":17333:17341   */\n      dup4\n        /* \"#utility.yul\":17329:17366   */\n      add\n        /* \"#utility.yul\":17316:17327   */\n      dup3\n        /* \"#utility.yul\":17287:17367   */\n      tag_207\n      jump\t// in\n    tag_402:\n        /* \"#utility.yul\":16946:17377   */\n      pop\n      pop\n        /* \"#utility.yul\":16931:17377   */\n    tag_398:\n        /* \"#utility.yul\":16841:17384   */\n      pop\n      pop\n      pop\n      jump\t// out\n        /* \"#utility.yul\":17390:17507   */\n    tag_209:\n        /* \"#utility.yul\":17444:17452   */\n      0x00\n        /* \"#utility.yul\":17494:17499   */\n      dup3\n        /* \"#utility.yul\":17488:17492   */\n      dup3\n        /* \"#utility.yul\":17484:17500   */\n      shr\n        /* \"#utility.yul\":17463:17500   */\n      swap1\n      pop\n        /* \"#utility.yul\":17390:17507   */\n      swap3\n      swap2\n      pop\n      pop\n      jump\t// out\n        /* \"#utility.yul\":17513:17682   */\n    tag_210:\n        /* \"#utility.yul\":17557:17563   */\n      0x00\n        /* \"#utility.yul\":17590:17641   */\n      tag_406\n        /* \"#utility.yul\":17638:17639   */\n      0x00\n        /* \"#utility.yul\":17634:17640   */\n      not\n        /* \"#utility.yul\":17626:17631   */\n      dup5\n        /* \"#utility.yul\":17623:17624   */\n      0x08\n        /* \"#utility.yul\":17619:17632   */\n      mul\n        /* \"#utility.yul\":17590:17641   */\n      tag_209\n      jump\t// in\n    tag_406:\n        /* \"#utility.yul\":17586:17642   */\n      not\n        /* \"#utility.yul\":17671:17675   */\n      dup1\n        /* \"#utility.yul\":17665:17669   */\n      dup4\n        /* \"#utility.yul\":17661:17676   */\n      and\n        /* \"#utility.yul\":17651:17676   */\n      swap2\n      pop\n        /* \"#utility.yul\":17564:17682   */\n      pop\n        /* \"#utility.yul\":17513:17682   */\n      swap3\n      swap2\n      pop\n      pop\n      jump\t// out\n        /* \"#utility.yul\":17687:17982   */\n    tag_211:\n        /* \"#utility.yul\":17763:17767   */\n      0x00\n        /* \"#utility.yul\":17909:17938   */\n      tag_408\n        /* \"#utility.yul\":17934:17937   */\n      dup4\n        /* \"#utility.yul\":17928:17932   */\n      dup4\n        /* \"#utility.yul\":17909:17938   */\n      tag_210\n      jump\t// in\n    tag_408:\n        /* \"#utility.yul\":17901:17938   */\n      swap2\n      pop\n        /* \"#utility.yul\":17971:17974   */\n      dup3\n        /* \"#utility.yul\":17968:17969   */\n      0x02\n        /* \"#utility.yul\":17964:17975   */\n      mul\n        /* \"#utility.yul\":17958:17962   */\n      dup3\n        /* \"#utility.yul\":17955:17976   */\n      or\n        /* \"#utility.yul\":17947:17976   */\n      swap1\n      pop\n        /* \"#utility.yul\":17687:17982   */\n      swap3\n      swap2\n      pop\n      pop\n      jump\t// out\n        /* \"#utility.yul\":17987:19382   */\n    tag_97:\n        /* \"#utility.yul\":18104:18141   */\n      tag_410\n        /* \"#utility.yul\":18137:18140   */\n      dup3\n        /* \"#utility.yul\":18104:18141   */\n      tag_159\n      jump\t// in\n    tag_410:\n        /* \"#utility.yul\":18206:18224   */\n      0xffffffffffffffff\n        /* \"#utility.yul\":18198:18204   */\n      dup2\n        /* \"#utility.yul\":18195:18225   */\n      gt\n        /* \"#utility.yul\":18192:18248   */\n      iszero\n      tag_411\n      jumpi\n        /* \"#utility.yul\":18228:18246   */\n      tag_412\n      tag_102\n      jump\t// in\n    tag_412:\n        /* \"#utility.yul\":18192:18248   */\n    tag_411:\n        /* \"#utility.yul\":18272:18310   */\n      tag_413\n        /* \"#utility.yul\":18304:18308   */\n      dup3\n        /* \"#utility.yul\":18298:18309   */\n      sload\n        /* \"#utility.yul\":18272:18310   */\n      tag_68\n      jump\t// in\n    tag_413:\n        /* \"#utility.yul\":18357:18424   */\n      tag_414\n        /* \"#utility.yul\":18417:18423   */\n      dup3\n        /* \"#utility.yul\":18409:18415   */\n      dup3\n        /* \"#utility.yul\":18403:18407   */\n      dup6\n        /* \"#utility.yul\":18357:18424   */\n      tag_208\n      jump\t// in\n    tag_414:\n        /* \"#utility.yul\":18451:18452   */\n      0x00\n        /* \"#utility.yul\":18475:18479   */\n      0x20\n        /* \"#utility.yul\":18462:18479   */\n      swap1\n      pop\n        /* \"#utility.yul\":18507:18509   */\n      0x1f\n        /* \"#utility.yul\":18499:18505   */\n      dup4\n        /* \"#utility.yul\":18496:18510   */\n      gt\n        /* \"#utility.yul\":18524:18525   */\n      0x01\n        /* \"#utility.yul\":18519:19137   */\n      dup2\n      eq\n      tag_416\n      jumpi\n        /* \"#utility.yul\":19181:19182   */\n      0x00\n        /* \"#utility.yul\":19198:19204   */\n      dup5\n        /* \"#utility.yul\":19195:19272   */\n      iszero\n      tag_417\n      jumpi\n        /* \"#utility.yul\":19247:19256   */\n      dup3\n        /* \"#utility.yul\":19242:19245   */\n      dup8\n        /* \"#utility.yul\":19238:19257   */\n      add\n        /* \"#utility.yul\":19232:19258   */\n      mload\n        /* \"#utility.yul\":19223:19258   */\n      swap1\n      pop\n        /* \"#utility.yul\":19195:19272   */\n    tag_417:\n        /* \"#utility.yul\":19298:19365   */\n      tag_418\n        /* \"#utility.yul\":19358:19364   */\n      dup6\n        /* \"#utility.yul\":19351:19356   */\n      dup3\n        /* \"#utility.yul\":19298:19365   */\n      tag_211\n      jump\t// in\n    tag_418:\n        /* \"#utility.yul\":19292:19296   */\n      dup7\n        /* \"#utility.yul\":19285:19366   */\n      sstore\n        /* \"#utility.yul\":19154:19376   */\n      pop\n        /* \"#utility.yul\":18489:19376   */\n      jump(tag_415)\n        /* \"#utility.yul\":18519:19137   */\n    tag_416:\n        /* \"#utility.yul\":18571:18575   */\n      0x1f\n        /* \"#utility.yul\":18567:18576   */\n      not\n        /* \"#utility.yul\":18559:18565   */\n      dup5\n        /* \"#utility.yul\":18555:18577   */\n      and\n        /* \"#utility.yul\":18605:18642   */\n      tag_419\n        /* \"#utility.yul\":18637:18641   */\n      dup7\n        /* \"#utility.yul\":18605:18642   */\n      tag_197\n      jump\t// in\n    tag_419:\n        /* \"#utility.yul\":18664:18665   */\n      0x00\n        /* \"#utility.yul\":18678:18886   */\n    tag_420:\n        /* \"#utility.yul\":18692:18699   */\n      dup3\n        /* \"#utility.yul\":18689:18690   */\n      dup2\n        /* \"#utility.yul\":18686:18700   */\n      lt\n        /* \"#utility.yul\":18678:18886   */\n      iszero\n      tag_422\n      jumpi\n        /* \"#utility.yul\":18771:18780   */\n      dup5\n        /* \"#utility.yul\":18766:18769   */\n      dup10\n        /* \"#utility.yul\":18762:18781   */\n      add\n        /* \"#utility.yul\":18756:18782   */\n      mload\n        /* \"#utility.yul\":18748:18754   */\n      dup3\n        /* \"#utility.yul\":18741:18783   */\n      sstore\n        /* \"#utility.yul\":18822:18823   */\n      0x01\n        /* \"#utility.yul\":18814:18820   */\n      dup3\n        /* \"#utility.yul\":18810:18824   */\n      add\n        /* \"#utility.yul\":18800:18824   */\n      swap2\n      pop\n        /* \"#utility.yul\":18869:18871   */\n      0x20\n        /* \"#utility.yul\":18858:18867   */\n      dup6\n        /* \"#utility.yul\":18854:18872   */\n      add\n        /* \"#utility.yul\":18841:18872   */\n      swap5\n      pop\n        /* \"#utility.yul\":18715:18719   */\n      0x20\n        /* \"#utility.yul\":18712:18713   */\n      dup2\n        /* \"#utility.yul\":18708:18720   */\n      add\n        /* \"#utility.yul\":18703:18720   */\n      swap1\n      pop\n        /* \"#utility.yul\":18678:18886   */\n      jump(tag_420)\n    tag_422:\n        /* \"#utility.yul\":18914:18920   */\n      dup7\n        /* \"#utility.yul\":18905:18912   */\n      dup4\n        /* \"#utility.yul\":18902:18921   */\n      lt\n        /* \"#utility.yul\":18899:19078   */\n      iszero\n      tag_423\n      jumpi\n        /* \"#utility.yul\":18972:18981   */\n      dup5\n        /* \"#utility.yul\":18967:18970   */\n      dup10\n        /* \"#utility.yul\":18963:18982   */\n      add\n        /* \"#utility.yul\":18957:18983   */\n      mload\n        /* \"#utility.yul\":19015:19063   */\n      tag_424\n        /* \"#utility.yul\":19057:19061   */\n      0x1f\n        /* \"#utility.yul\":19049:19055   */\n      dup10\n        /* \"#utility.yul\":19045:19062   */\n      and\n        /* \"#utility.yul\":19034:19043   */\n      dup3\n        /* \"#utility.yul\":19015:19063   */\n      tag_210\n      jump\t// in\n    tag_424:\n        /* \"#utility.yul\":19007:19013   */\n      dup4\n        /* \"#utility.yul\":19000:19064   */\n      sstore\n        /* \"#utility.yul\":18922:19078   */\n      pop\n        /* \"#utility.yul\":18899:19078   */\n    tag_423:\n        /* \"#utility.yul\":19124:19125   */\n      0x01\n        /* \"#utility.yul\":19120:19121   */\n      0x02\n        /* \"#utility.yul\":19112:19118   */\n      dup9\n        /* \"#utility.yul\":19108:19122   */\n      mul\n        /* \"#utility.yul\":19104:19126   */\n      add\n        /* \"#utility.yul\":19098:19102   */\n      dup9\n        /* \"#utility.yul\":19091:19127   */\n      sstore\n        /* \"#utility.yul\":18526:19137   */\n      pop\n      pop\n      pop\n        /* \"#utility.yul\":18489:19376   */\n    tag_415:\n      pop\n        /* \"#utility.yul\":18079:19382   */\n      pop\n      pop\n      pop\n        /* \"#utility.yul\":17987:19382   */\n      pop\n      pop\n      jump\t// out\n        /* \"#utility.yul\":19388:19568   */\n    tag_109:\n        /* \"#utility.yul\":19436:19513   */\n      0x4e487b7100000000000000000000000000000000000000000000000000000000\n        /* \"#utility.yul\":19433:19434   */\n      0x00\n        /* \"#utility.yul\":19426:19514   */\n      mstore\n        /* \"#utility.yul\":19533:19537   */\n      0x32\n        /* \"#utility.yul\":19530:19531   */\n      0x04\n        /* \"#utility.yul\":19523:19538   */\n      mstore\n        /* \"#utility.yul\":19557:19561   */\n      0x24\n        /* \"#utility.yul\":19554:19555   */\n      0x00\n        /* \"#utility.yul\":19547:19562   */\n      revert\n        /* \"#utility.yul\":19574:19796   */\n    tag_156:\n        /* \"#utility.yul\":19667:19671   */\n      0x00\n        /* \"#utility.yul\":19705:19707   */\n      0x20\n        /* \"#utility.yul\":19694:19703   */\n      dup3\n        /* \"#utility.yul\":19690:19708   */\n      add\n        /* \"#utility.yul\":19682:19708   */\n      swap1\n      pop\n        /* \"#utility.yul\":19718:19789   */\n      tag_427\n        /* \"#utility.yul\":19786:19787   */\n      0x00\n        /* \"#utility.yul\":19775:19784   */\n      dup4\n        /* \"#utility.yul\":19771:19788   */\n      add\n        /* \"#utility.yul\":19762:19768   */\n      dup5\n        /* \"#utility.yul\":19718:19789   */\n      tag_178\n      jump\t// in\n    tag_427:\n        /* \"#utility.yul\":19574:19796   */\n      swap3\n      swap2\n      pop\n      pop\n      jump\t// out\n\n    auxdata: 0xa2646970667358221220022edcbb7c6595f6759b61d1677da24ad033c2b2c58c4c2bca831f1196c9d4b064736f6c63430008110033\n}\n",
				"bytecode": {
					"linkReferences": {},
					"object": "60806040523480156200001157600080fd5b506040518060400160405280601081526020017f436f6d467265652050726f746f636f6c000000000000000000000000000000008152506000908162000058919062000320565b506040518060400160405280600781526020017f436f6d6672656500000000000000000000000000000000000000000000000000815250600190816200009f919062000320565b5062000407565b600081519050919050565b7f4e487b7100000000000000000000000000000000000000000000000000000000600052604160045260246000fd5b7f4e487b7100000000000000000000000000000000000000000000000000000000600052602260045260246000fd5b600060028204905060018216806200012857607f821691505b6020821081036200013e576200013d620000e0565b5b50919050565b60008190508160005260206000209050919050565b60006020601f8301049050919050565b600082821b905092915050565b600060088302620001a87fffffffffffffffffffffffffffffffffffffffffffffffffffffffffffffffff8262000169565b620001b4868362000169565b95508019841693508086168417925050509392505050565b6000819050919050565b6000819050919050565b600062000201620001fb620001f584620001cc565b620001d6565b620001cc565b9050919050565b6000819050919050565b6200021d83620001e0565b620002356200022c8262000208565b84845462000176565b825550505050565b600090565b6200024c6200023d565b6200025981848462000212565b505050565b5b8181101562000281576200027560008262000242565b6001810190506200025f565b5050565b601f821115620002d0576200029a8162000144565b620002a58462000159565b81016020851015620002b5578190505b620002cd620002c48562000159565b8301826200025e565b50505b505050565b600082821c905092915050565b6000620002f560001984600802620002d5565b1980831691505092915050565b6000620003108383620002e2565b9150826002028217905092915050565b6200032b82620000a6565b67ffffffffffffffff811115620003475762000346620000b1565b5b6200035382546200010f565b6200036082828562000285565b600060209050601f83116001811462000398576000841562000383578287015190505b6200038f858262000302565b865550620003ff565b601f198416620003a88662000144565b60005b82811015620003d257848901518255600182019150602085019450602081019050620003ab565b86831015620003f25784890151620003ee601f891682620002e2565b8355505b6001600288020188555050505b505050505050565b611ad980620004176000396000f3fe608060405234801561001057600080fd5b50600436106100b45760003560e01c8063554d8bb611610071578063554d8bb6146101a75780635e230c90146101dc578063871457f6146101f857806395d89b4114610216578063dab62bed14610234578063fb2bbcd314610252576100b4565b806306fdde03146100b95780633ad1ce1f146100d75780633b41e19c146100f357806343af9a8d1461012357806353a686911461013f5780635496623a14610172575b600080fd5b6100c161026e565b6040516100ce9190611050565b60405180910390f35b6100f160048036038101906100ec91906110bc565b6102fc565b005b61010d60048036038101906101089190611121565b610451565b60405161011a9190611170565b60405180910390f35b61013d600480360381019061013891906111e9565b6104f8565b005b610159600480360381019061015491906110bc565b610699565b6040516101699493929190611250565b60405180910390f35b61018c600480360381019061018791906110bc565b6106fd565b60405161019e969594939291906112b3565b60405180910390f35b6101c160048036038101906101bc91906110bc565b610889565b6040516101d396959493929190611322565b60405180910390f35b6101f660048036038101906101f191906114b8565b610912565b005b610200610a67565b60405161020d9190611629565b60405180910390f35b61021e610bd0565b60405161022b9190611050565b60405180910390f35b61023c610c5e565b6040516102499190611629565b60405180910390f35b61026c6004803603810190610267919061164b565b610dc7565b005b6000805461027b906116e1565b80601f01602080910402602001604051908101604052809291908181526020018280546102a7906116e1565b80156102f45780601f106102c9576101008083540402835291602001916102f4565b820191906000526020600020905b8154815290600101906020018083116102d757829003601f168201915b505050505081565b60006003600083815260200190815260200160002060040160009054906101000a900460ff169050600115158115151461033557600080fd5b60006004600084815260200190815260200160002060000160006101000a81548160ff02191690831515021790555060006004600084815260200190815260200160002060000160016101000a81548160ff02191690831515021790555060006004600084815260200190815260200160002060000160026101000a81548160ff02191690831515021790555060006004600084815260200190815260200160002060000160036101000a81548160ff0219169083151502179055507f0985068d1545f3a3582c605476bc5fe6aaf9acc51845acef22cb74694222ea2e826004600085815260200190815260200160002060000160009054906101000a900460ff16604051610445929190611712565b60405180910390a15050565b60003373ffffffffffffffffffffffffffffffffffffffff166003600085815260200190815260200160002060020160009054906101000a900473ffffffffffffffffffffffffffffffffffffffff1673ffffffffffffffffffffffffffffffffffffffff16036104c157600080fd5b816003600085815260200190815260200160002060040160006101000a81548160ff02191690831515021790555081905092915050565b6008600081548092919061050b9061176a565b9190505550600854600360006008548152602001908152602001600020600001819055508360036000600854815260200190815260200160002060010160006101000a81548173ffffffffffffffffffffffffffffffffffffffff021916908373ffffffffffffffffffffffffffffffffffffffff1602179055508260036000600854815260200190815260200160002060020160006101000a81548173ffffffffffffffffffffffffffffffffffffffff021916908373ffffffffffffffffffffffffffffffffffffffff16021790555081600360006008548152602001908152602001600020600301819055508060036000600854815260200190815260200160002060040160006101000a81548160ff0219169083151502179055508273ffffffffffffffffffffffffffffffffffffffff168473ffffffffffffffffffffffffffffffffffffffff167fd7717a251aa6b58c031ecb17600f5fd443e3e40f6689d9c3ef687ce7f4b4e6166008548560405161068b9291906117b2565b60405180910390a350505050565b60046020528060005260406000206000915090508060000160009054906101000a900460ff16908060000160019054906101000a900460ff16908060000160029054906101000a900460ff16908060000160039054906101000a900460ff16905084565b60026020528060005260406000206000915090508060000154908060010160009054906101000a900473ffffffffffffffffffffffffffffffffffffffff16908060020160009054906101000a900473ffffffffffffffffffffffffffffffffffffffff1690806003018054610772906116e1565b80601f016020809104026020016040519081016040528092919081815260200182805461079e906116e1565b80156107eb5780601f106107c0576101008083540402835291602001916107eb565b820191906000526020600020905b8154815290600101906020018083116107ce57829003601f168201915b505050505090806004018054610800906116e1565b80601f016020809104026020016040519081016040528092919081815260200182805461082c906116e1565b80156108795780601f1061084e57610100808354040283529160200191610879565b820191906000526020600020905b81548152906001019060200180831161085c57829003601f168201915b5050505050908060050154905086565b60036020528060005260406000206000915090508060000154908060010160009054906101000a900473ffffffffffffffffffffffffffffffffffffffff16908060020160009054906101000a900473ffffffffffffffffffffffffffffffffffffffff16908060030154908060040160009054906101000a900460ff16908060050154905086565b600660008154809291906109259061176a565b9190505550600654600260006006548152602001908152602001600020600001819055508360026000600654815260200190815260200160002060010160006101000a81548173ffffffffffffffffffffffffffffffffffffffff021916908373ffffffffffffffffffffffffffffffffffffffff1602179055508460026000600654815260200190815260200160002060020160006101000a81548173ffffffffffffffffffffffffffffffffffffffff021916908373ffffffffffffffffffffffffffffffffffffffff160217905550826002600060065481526020019081526020016000206003019081610a1c9190611987565b50816002600060065481526020019081526020016000206004019081610a429190611987565b5080600260006006548152602001908152602001600020600501819055505050505050565b6060600060085467ffffffffffffffff811115610a8757610a8661138d565b5b604051908082528060200260200182016040528015610ab55781602001602082028036833780820191505090505b509050600080600190505b6008548111610b20576003600082815260200190815260200160002060000154838381518110610af357610af2611a59565b5b6020026020010181815250508180610b0a9061176a565b9250508080610b189061176a565b915050610ac0565b5060008167ffffffffffffffff811115610b3d57610b3c61138d565b5b604051908082528060200260200182016040528015610b6b5781602001602082028036833780820191505090505b50905060005b82811015610bc657838181518110610b8c57610b8b611a59565b5b6020026020010151828281518110610ba757610ba6611a59565b5b6020026020010181815250508080610bbe9061176a565b915050610b71565b5080935050505090565b60018054610bdd906116e1565b80601f0160208091040260200160405190810160405280929190818152602001828054610c09906116e1565b8015610c565780601f10610c2b57610100808354040283529160200191610c56565b820191906000526020600020905b815481529060010190602001808311610c3957829003601f168201915b505050505081565b6060600060065467ffffffffffffffff811115610c7e57610c7d61138d565b5b604051908082528060200260200182016040528015610cac5781602001602082028036833780820191505090505b509050600080600190505b6006548111610d17576002600082815260200190815260200160002060000154838381518110610cea57610ce9611a59565b5b6020026020010181815250508180610d019061176a565b9250508080610d0f9061176a565b915050610cb7565b5060008167ffffffffffffffff811115610d3457610d3361138d565b5b604051908082528060200260200182016040528015610d625781602001602082028036833780820191505090505b50905060005b82811015610dbd57838181518110610d8357610d82611a59565b5b6020026020010151828281518110610d9e57610d9d611a59565b5b6020026020010181815250508080610db59061176a565b915050610d68565b5080935050505090565b826004600086815260200190815260200160002060000160016101000a81548160ff021916908315150217905550816004600086815260200190815260200160002060000160026101000a81548160ff021916908315150217905550806004600086815260200190815260200160002060000160036101000a81548160ff021916908315150217905550600115156004600086815260200190815260200160002060000160019054906101000a900460ff161515148015610eaf5750600115156004600086815260200190815260200160002060000160029054906101000a900460ff161515145b8015610ee25750600115156004600086815260200190815260200160002060000160039054906101000a900460ff161515145b15610f175760016004600086815260200190815260200160002060000160006101000a81548160ff0219169083151502179055505b600115156004600086815260200190815260200160002060000160009054906101000a900460ff16151503610f82577fbed19c48ffbfb01ca0faa826d3e3844746b0628593a6c4aeea7290af66735d2084604051610f759190611a88565b60405180910390a1610fba565b7f1f0c1db71d57570daa726bc2aa30a91e34f107443dfdbfc1bed51f3810ce362e84604051610fb19190611a88565b60405180910390a15b50505050565b600081519050919050565b600082825260208201905092915050565b60005b83811015610ffa578082015181840152602081019050610fdf565b60008484015250505050565b6000601f19601f8301169050919050565b600061102282610fc0565b61102c8185610fcb565b935061103c818560208601610fdc565b61104581611006565b840191505092915050565b6000602082019050818103600083015261106a8184611017565b905092915050565b6000604051905090565b600080fd5b600080fd5b6000819050919050565b61109981611086565b81146110a457600080fd5b50565b6000813590506110b681611090565b92915050565b6000602082840312156110d2576110d161107c565b5b60006110e0848285016110a7565b91505092915050565b60008115159050919050565b6110fe816110e9565b811461110957600080fd5b50565b60008135905061111b816110f5565b92915050565b600080604083850312156111385761113761107c565b5b6000611146858286016110a7565b92505060206111578582860161110c565b9150509250929050565b61116a816110e9565b82525050565b60006020820190506111856000830184611161565b92915050565b600073ffffffffffffffffffffffffffffffffffffffff82169050919050565b60006111b68261118b565b9050919050565b6111c6816111ab565b81146111d157600080fd5b50565b6000813590506111e3816111bd565b92915050565b600080600080608085870312156112035761120261107c565b5b6000611211878288016111d4565b9450506020611222878288016111d4565b9350506040611233878288016110a7565b92505060606112448782880161110c565b91505092959194509250565b60006080820190506112656000830187611161565b6112726020830186611161565b61127f6040830185611161565b61128c6060830184611161565b95945050505050565b61129e81611086565b82525050565b6112ad816111ab565b82525050565b600060c0820190506112c86000830189611295565b6112d560208301886112a4565b6112e260408301876112a4565b81810360608301526112f48186611017565b905081810360808301526113088185611017565b905061131760a0830184611295565b979650505050505050565b600060c0820190506113376000830189611295565b61134460208301886112a4565b61135160408301876112a4565b61135e6060830186611295565b61136b6080830185611161565b61137860a0830184611295565b979650505050505050565b600080fd5b600080fd5b7f4e487b7100000000000000000000000000000000000000000000000000000000600052604160045260246000fd5b6113c582611006565b810181811067ffffffffffffffff821117156113e4576113e361138d565b5b80604052505050565b60006113f7611072565b905061140382826113bc565b919050565b600067ffffffffffffffff8211156114235761142261138d565b5b61142c82611006565b9050602081019050919050565b82818337600083830152505050565b600061145b61145684611408565b6113ed565b90508281526020810184848401111561147757611476611388565b5b611482848285611439565b509392505050565b600082601f83011261149f5761149e611383565b5b81356114af848260208601611448565b91505092915050565b600080600080600060a086880312156114d4576114d361107c565b5b60006114e2888289016111d4565b95505060206114f3888289016111d4565b945050604086013567ffffffffffffffff81111561151457611513611081565b5b6115208882890161148a565b935050606086013567ffffffffffffffff81111561154157611540611081565b5b61154d8882890161148a565b925050608061155e888289016110a7565b9150509295509295909350565b600081519050919050565b600082825260208201905092915050565b6000819050602082019050919050565b6115a081611086565b82525050565b60006115b28383611597565b60208301905092915050565b6000602082019050919050565b60006115d68261156b565b6115e08185611576565b93506115eb83611587565b8060005b8381101561161c57815161160388826115a6565b975061160e836115be565b9250506001810190506115ef565b5085935050505092915050565b6000602082019050818103600083015261164381846115cb565b905092915050565b600080600080608085870312156116655761166461107c565b5b6000611673878288016110a7565b94505060206116848782880161110c565b93505060406116958782880161110c565b92505060606116a68782880161110c565b91505092959194509250565b7f4e487b7100000000000000000000000000000000000000000000000000000000600052602260045260246000fd5b600060028204905060018216806116f957607f821691505b60208210810361170c5761170b6116b2565b5b50919050565b60006040820190506117276000830185611295565b6117346020830184611161565b9392505050565b7f4e487b7100000000000000000000000000000000000000000000000000000000600052601160045260246000fd5b600061177582611086565b91507fffffffffffffffffffffffffffffffffffffffffffffffffffffffffffffffff82036117a7576117a661173b565b5b600182019050919050565b60006040820190506117c76000830185611295565b6117d46020830184611295565b9392505050565b60008190508160005260206000209050919050565b60006020601f8301049050919050565b600082821b905092915050565b60006008830261183d7fffffffffffffffffffffffffffffffffffffffffffffffffffffffffffffffff82611800565b6118478683611800565b95508019841693508086168417925050509392505050565b6000819050919050565b600061188461187f61187a84611086565b61185f565b611086565b9050919050565b6000819050919050565b61189e83611869565b6118b26118aa8261188b565b84845461180d565b825550505050565b600090565b6118c76118ba565b6118d2818484611895565b505050565b5b818110156118f6576118eb6000826118bf565b6001810190506118d8565b5050565b601f82111561193b5761190c816117db565b611915846117f0565b81016020851015611924578190505b611938611930856117f0565b8301826118d7565b50505b505050565b600082821c905092915050565b600061195e60001984600802611940565b1980831691505092915050565b6000611977838361194d565b9150826002028217905092915050565b61199082610fc0565b67ffffffffffffffff8111156119a9576119a861138d565b5b6119b382546116e1565b6119be8282856118fa565b600060209050601f8311600181146119f157600084156119df578287015190505b6119e9858261196b565b865550611a51565b601f1984166119ff866117db565b60005b82811015611a2757848901518255600182019150602085019450602081019050611a02565b86831015611a445784890151611a40601f89168261194d565b8355505b6001600288020188555050505b505050505050565b7f4e487b7100000000000000000000000000000000000000000000000000000000600052603260045260246000fd5b6000602082019050611a9d6000830184611295565b9291505056fea2646970667358221220022edcbb7c6595f6759b61d1677da24ad033c2b2c58c4c2bca831f1196c9d4b064736f6c63430008110033",
					"opcodes": "PUSH1 0x80 PUSH1 0x40 MSTORE CALLVALUE DUP1 ISZERO PUSH3 0x11 JUMPI PUSH1 0x0 DUP1 REVERT JUMPDEST POP PUSH1 0x40 MLOAD DUP1 PUSH1 0x40 ADD PUSH1 0x40 MSTORE DUP1 PUSH1 0x10 DUP2 MSTORE PUSH1 0x20 ADD PUSH32 0x436F6D467265652050726F746F636F6C00000000000000000000000000000000 DUP2 MSTORE POP PUSH1 0x0 SWAP1 DUP2 PUSH3 0x58 SWAP2 SWAP1 PUSH3 0x320 JUMP JUMPDEST POP PUSH1 0x40 MLOAD DUP1 PUSH1 0x40 ADD PUSH1 0x40 MSTORE DUP1 PUSH1 0x7 DUP2 MSTORE PUSH1 0x20 ADD PUSH32 0x436F6D6672656500000000000000000000000000000000000000000000000000 DUP2 MSTORE POP PUSH1 0x1 SWAP1 DUP2 PUSH3 0x9F SWAP2 SWAP1 PUSH3 0x320 JUMP JUMPDEST POP PUSH3 0x407 JUMP JUMPDEST PUSH1 0x0 DUP2 MLOAD SWAP1 POP SWAP2 SWAP1 POP JUMP JUMPDEST PUSH32 0x4E487B7100000000000000000000000000000000000000000000000000000000 PUSH1 0x0 MSTORE PUSH1 0x41 PUSH1 0x4 MSTORE PUSH1 0x24 PUSH1 0x0 REVERT JUMPDEST PUSH32 0x4E487B7100000000000000000000000000000000000000000000000000000000 PUSH1 0x0 MSTORE PUSH1 0x22 PUSH1 0x4 MSTORE PUSH1 0x24 PUSH1 0x0 REVERT JUMPDEST PUSH1 0x0 PUSH1 0x2 DUP3 DIV SWAP1 POP PUSH1 0x1 DUP3 AND DUP1 PUSH3 0x128 JUMPI PUSH1 0x7F DUP3 AND SWAP2 POP JUMPDEST PUSH1 0x20 DUP3 LT DUP2 SUB PUSH3 0x13E JUMPI PUSH3 0x13D PUSH3 0xE0 JUMP JUMPDEST JUMPDEST POP SWAP2 SWAP1 POP JUMP JUMPDEST PUSH1 0x0 DUP2 SWAP1 POP DUP2 PUSH1 0x0 MSTORE PUSH1 0x20 PUSH1 0x0 KECCAK256 SWAP1 POP SWAP2 SWAP1 POP JUMP JUMPDEST PUSH1 0x0 PUSH1 0x20 PUSH1 0x1F DUP4 ADD DIV SWAP1 POP SWAP2 SWAP1 POP JUMP JUMPDEST PUSH1 0x0 DUP3 DUP3 SHL SWAP1 POP SWAP3 SWAP2 POP POP JUMP JUMPDEST PUSH1 0x0 PUSH1 0x8 DUP4 MUL PUSH3 0x1A8 PUSH32 0xFFFFFFFFFFFFFFFFFFFFFFFFFFFFFFFFFFFFFFFFFFFFFFFFFFFFFFFFFFFFFFFF DUP3 PUSH3 0x169 JUMP JUMPDEST PUSH3 0x1B4 DUP7 DUP4 PUSH3 0x169 JUMP JUMPDEST SWAP6 POP DUP1 NOT DUP5 AND SWAP4 POP DUP1 DUP7 AND DUP5 OR SWAP3 POP POP POP SWAP4 SWAP3 POP POP POP JUMP JUMPDEST PUSH1 0x0 DUP2 SWAP1 POP SWAP2 SWAP1 POP JUMP JUMPDEST PUSH1 0x0 DUP2 SWAP1 POP SWAP2 SWAP1 POP JUMP JUMPDEST PUSH1 0x0 PUSH3 0x201 PUSH3 0x1FB PUSH3 0x1F5 DUP5 PUSH3 0x1CC JUMP JUMPDEST PUSH3 0x1D6 JUMP JUMPDEST PUSH3 0x1CC JUMP JUMPDEST SWAP1 POP SWAP2 SWAP1 POP JUMP JUMPDEST PUSH1 0x0 DUP2 SWAP1 POP SWAP2 SWAP1 POP JUMP JUMPDEST PUSH3 0x21D DUP4 PUSH3 0x1E0 JUMP JUMPDEST PUSH3 0x235 PUSH3 0x22C DUP3 PUSH3 0x208 JUMP JUMPDEST DUP5 DUP5 SLOAD PUSH3 0x176 JUMP JUMPDEST DUP3 SSTORE POP POP POP POP JUMP JUMPDEST PUSH1 0x0 SWAP1 JUMP JUMPDEST PUSH3 0x24C PUSH3 0x23D JUMP JUMPDEST PUSH3 0x259 DUP2 DUP5 DUP5 PUSH3 0x212 JUMP JUMPDEST POP POP POP JUMP JUMPDEST JUMPDEST DUP2 DUP2 LT ISZERO PUSH3 0x281 JUMPI PUSH3 0x275 PUSH1 0x0 DUP3 PUSH3 0x242 JUMP JUMPDEST PUSH1 0x1 DUP2 ADD SWAP1 POP PUSH3 0x25F JUMP JUMPDEST POP POP JUMP JUMPDEST PUSH1 0x1F DUP3 GT ISZERO PUSH3 0x2D0 JUMPI PUSH3 0x29A DUP2 PUSH3 0x144 JUMP JUMPDEST PUSH3 0x2A5 DUP5 PUSH3 0x159 JUMP JUMPDEST DUP2 ADD PUSH1 0x20 DUP6 LT ISZERO PUSH3 0x2B5 JUMPI DUP2 SWAP1 POP JUMPDEST PUSH3 0x2CD PUSH3 0x2C4 DUP6 PUSH3 0x159 JUMP JUMPDEST DUP4 ADD DUP3 PUSH3 0x25E JUMP JUMPDEST POP POP JUMPDEST POP POP POP JUMP JUMPDEST PUSH1 0x0 DUP3 DUP3 SHR SWAP1 POP SWAP3 SWAP2 POP POP JUMP JUMPDEST PUSH1 0x0 PUSH3 0x2F5 PUSH1 0x0 NOT DUP5 PUSH1 0x8 MUL PUSH3 0x2D5 JUMP JUMPDEST NOT DUP1 DUP4 AND SWAP2 POP POP SWAP3 SWAP2 POP POP JUMP JUMPDEST PUSH1 0x0 PUSH3 0x310 DUP4 DUP4 PUSH3 0x2E2 JUMP JUMPDEST SWAP2 POP DUP3 PUSH1 0x2 MUL DUP3 OR SWAP1 POP SWAP3 SWAP2 POP POP JUMP JUMPDEST PUSH3 0x32B DUP3 PUSH3 0xA6 JUMP JUMPDEST PUSH8 0xFFFFFFFFFFFFFFFF DUP2 GT ISZERO PUSH3 0x347 JUMPI PUSH3 0x346 PUSH3 0xB1 JUMP JUMPDEST JUMPDEST PUSH3 0x353 DUP3 SLOAD PUSH3 0x10F JUMP JUMPDEST PUSH3 0x360 DUP3 DUP3 DUP6 PUSH3 0x285 JUMP JUMPDEST PUSH1 0x0 PUSH1 0x20 SWAP1 POP PUSH1 0x1F DUP4 GT PUSH1 0x1 DUP2 EQ PUSH3 0x398 JUMPI PUSH1 0x0 DUP5 ISZERO PUSH3 0x383 JUMPI DUP3 DUP8 ADD MLOAD SWAP1 POP JUMPDEST PUSH3 0x38F DUP6 DUP3 PUSH3 0x302 JUMP JUMPDEST DUP7 SSTORE POP PUSH3 0x3FF JUMP JUMPDEST PUSH1 0x1F NOT DUP5 AND PUSH3 0x3A8 DUP7 PUSH3 0x144 JUMP JUMPDEST PUSH1 0x0 JUMPDEST DUP3 DUP2 LT ISZERO PUSH3 0x3D2 JUMPI DUP5 DUP10 ADD MLOAD DUP3 SSTORE PUSH1 0x1 DUP3 ADD SWAP2 POP PUSH1 0x20 DUP6 ADD SWAP5 POP PUSH1 0x20 DUP2 ADD SWAP1 POP PUSH3 0x3AB JUMP JUMPDEST DUP7 DUP4 LT ISZERO PUSH3 0x3F2 JUMPI DUP5 DUP10 ADD MLOAD PUSH3 0x3EE PUSH1 0x1F DUP10 AND DUP3 PUSH3 0x2E2 JUMP JUMPDEST DUP4 SSTORE POP JUMPDEST PUSH1 0x1 PUSH1 0x2 DUP9 MUL ADD DUP9 SSTORE POP POP POP JUMPDEST POP POP POP POP POP POP JUMP JUMPDEST PUSH2 0x1AD9 DUP1 PUSH3 0x417 PUSH1 0x0 CODECOPY PUSH1 0x0 RETURN INVALID PUSH1 0x80 PUSH1 0x40 MSTORE CALLVALUE DUP1 ISZERO PUSH2 0x10 JUMPI PUSH1 0x0 DUP1 REVERT JUMPDEST POP PUSH1 0x4 CALLDATASIZE LT PUSH2 0xB4 JUMPI PUSH1 0x0 CALLDATALOAD PUSH1 0xE0 SHR DUP1 PUSH4 0x554D8BB6 GT PUSH2 0x71 JUMPI DUP1 PUSH4 0x554D8BB6 EQ PUSH2 0x1A7 JUMPI DUP1 PUSH4 0x5E230C90 EQ PUSH2 0x1DC JUMPI DUP1 PUSH4 0x871457F6 EQ PUSH2 0x1F8 JUMPI DUP1 PUSH4 0x95D89B41 EQ PUSH2 0x216 JUMPI DUP1 PUSH4 0xDAB62BED EQ PUSH2 0x234 JUMPI DUP1 PUSH4 0xFB2BBCD3 EQ PUSH2 0x252 JUMPI PUSH2 0xB4 JUMP JUMPDEST DUP1 PUSH4 0x6FDDE03 EQ PUSH2 0xB9 JUMPI DUP1 PUSH4 0x3AD1CE1F EQ PUSH2 0xD7 JUMPI DUP1 PUSH4 0x3B41E19C EQ PUSH2 0xF3 JUMPI DUP1 PUSH4 0x43AF9A8D EQ PUSH2 0x123 JUMPI DUP1 PUSH4 0x53A68691 EQ PUSH2 0x13F JUMPI DUP1 PUSH4 0x5496623A EQ PUSH2 0x172 JUMPI JUMPDEST PUSH1 0x0 DUP1 REVERT JUMPDEST PUSH2 0xC1 PUSH2 0x26E JUMP JUMPDEST PUSH1 0x40 MLOAD PUSH2 0xCE SWAP2 SWAP1 PUSH2 0x1050 JUMP JUMPDEST PUSH1 0x40 MLOAD DUP1 SWAP2 SUB SWAP1 RETURN JUMPDEST PUSH2 0xF1 PUSH1 0x4 DUP1 CALLDATASIZE SUB DUP2 ADD SWAP1 PUSH2 0xEC SWAP2 SWAP1 PUSH2 0x10BC JUMP JUMPDEST PUSH2 0x2FC JUMP JUMPDEST STOP JUMPDEST PUSH2 0x10D PUSH1 0x4 DUP1 CALLDATASIZE SUB DUP2 ADD SWAP1 PUSH2 0x108 SWAP2 SWAP1 PUSH2 0x1121 JUMP JUMPDEST PUSH2 0x451 JUMP JUMPDEST PUSH1 0x40 MLOAD PUSH2 0x11A SWAP2 SWAP1 PUSH2 0x1170 JUMP JUMPDEST PUSH1 0x40 MLOAD DUP1 SWAP2 SUB SWAP1 RETURN JUMPDEST PUSH2 0x13D PUSH1 0x4 DUP1 CALLDATASIZE SUB DUP2 ADD SWAP1 PUSH2 0x138 SWAP2 SWAP1 PUSH2 0x11E9 JUMP JUMPDEST PUSH2 0x4F8 JUMP JUMPDEST STOP JUMPDEST PUSH2 0x159 PUSH1 0x4 DUP1 CALLDATASIZE SUB DUP2 ADD SWAP1 PUSH2 0x154 SWAP2 SWAP1 PUSH2 0x10BC JUMP JUMPDEST PUSH2 0x699 JUMP JUMPDEST PUSH1 0x40 MLOAD PUSH2 0x169 SWAP5 SWAP4 SWAP3 SWAP2 SWAP1 PUSH2 0x1250 JUMP JUMPDEST PUSH1 0x40 MLOAD DUP1 SWAP2 SUB SWAP1 RETURN JUMPDEST PUSH2 0x18C PUSH1 0x4 DUP1 CALLDATASIZE SUB DUP2 ADD SWAP1 PUSH2 0x187 SWAP2 SWAP1 PUSH2 0x10BC JUMP JUMPDEST PUSH2 0x6FD JUMP JUMPDEST PUSH1 0x40 MLOAD PUSH2 0x19E SWAP7 SWAP6 SWAP5 SWAP4 SWAP3 SWAP2 SWAP1 PUSH2 0x12B3 JUMP JUMPDEST PUSH1 0x40 MLOAD DUP1 SWAP2 SUB SWAP1 RETURN JUMPDEST PUSH2 0x1C1 PUSH1 0x4 DUP1 CALLDATASIZE SUB DUP2 ADD SWAP1 PUSH2 0x1BC SWAP2 SWAP1 PUSH2 0x10BC JUMP JUMPDEST PUSH2 0x889 JUMP JUMPDEST PUSH1 0x40 MLOAD PUSH2 0x1D3 SWAP7 SWAP6 SWAP5 SWAP4 SWAP3 SWAP2 SWAP1 PUSH2 0x1322 JUMP JUMPDEST PUSH1 0x40 MLOAD DUP1 SWAP2 SUB SWAP1 RETURN JUMPDEST PUSH2 0x1F6 PUSH1 0x4 DUP1 CALLDATASIZE SUB DUP2 ADD SWAP1 PUSH2 0x1F1 SWAP2 SWAP1 PUSH2 0x14B8 JUMP JUMPDEST PUSH2 0x912 JUMP JUMPDEST STOP JUMPDEST PUSH2 0x200 PUSH2 0xA67 JUMP JUMPDEST PUSH1 0x40 MLOAD PUSH2 0x20D SWAP2 SWAP1 PUSH2 0x1629 JUMP JUMPDEST PUSH1 0x40 MLOAD DUP1 SWAP2 SUB SWAP1 RETURN JUMPDEST PUSH2 0x21E PUSH2 0xBD0 JUMP JUMPDEST PUSH1 0x40 MLOAD PUSH2 0x22B SWAP2 SWAP1 PUSH2 0x1050 JUMP JUMPDEST PUSH1 0x40 MLOAD DUP1 SWAP2 SUB SWAP1 RETURN JUMPDEST PUSH2 0x23C PUSH2 0xC5E JUMP JUMPDEST PUSH1 0x40 MLOAD PUSH2 0x249 SWAP2 SWAP1 PUSH2 0x1629 JUMP JUMPDEST PUSH1 0x40 MLOAD DUP1 SWAP2 SUB SWAP1 RETURN JUMPDEST PUSH2 0x26C PUSH1 0x4 DUP1 CALLDATASIZE SUB DUP2 ADD SWAP1 PUSH2 0x267 SWAP2 SWAP1 PUSH2 0x164B JUMP JUMPDEST PUSH2 0xDC7 JUMP JUMPDEST STOP JUMPDEST PUSH1 0x0 DUP1 SLOAD PUSH2 0x27B SWAP1 PUSH2 0x16E1 JUMP JUMPDEST DUP1 PUSH1 0x1F ADD PUSH1 0x20 DUP1 SWAP2 DIV MUL PUSH1 0x20 ADD PUSH1 0x40 MLOAD SWAP1 DUP2 ADD PUSH1 0x40 MSTORE DUP1 SWAP3 SWAP2 SWAP1 DUP2 DUP2 MSTORE PUSH1 0x20 ADD DUP3 DUP1 SLOAD PUSH2 0x2A7 SWAP1 PUSH2 0x16E1 JUMP JUMPDEST DUP1 ISZERO PUSH2 0x2F4 JUMPI DUP1 PUSH1 0x1F LT PUSH2 0x2C9 JUMPI PUSH2 0x100 DUP1 DUP4 SLOAD DIV MUL DUP4 MSTORE SWAP2 PUSH1 0x20 ADD SWAP2 PUSH2 0x2F4 JUMP JUMPDEST DUP3 ADD SWAP2 SWAP1 PUSH1 0x0 MSTORE PUSH1 0x20 PUSH1 0x0 KECCAK256 SWAP1 JUMPDEST DUP2 SLOAD DUP2 MSTORE SWAP1 PUSH1 0x1 ADD SWAP1 PUSH1 0x20 ADD DUP1 DUP4 GT PUSH2 0x2D7 JUMPI DUP3 SWAP1 SUB PUSH1 0x1F AND DUP3 ADD SWAP2 JUMPDEST POP POP POP POP POP DUP2 JUMP JUMPDEST PUSH1 0x0 PUSH1 0x3 PUSH1 0x0 DUP4 DUP2 MSTORE PUSH1 0x20 ADD SWAP1 DUP2 MSTORE PUSH1 0x20 ADD PUSH1 0x0 KECCAK256 PUSH1 0x4 ADD PUSH1 0x0 SWAP1 SLOAD SWAP1 PUSH2 0x100 EXP SWAP1 DIV PUSH1 0xFF AND SWAP1 POP PUSH1 0x1 ISZERO ISZERO DUP2 ISZERO ISZERO EQ PUSH2 0x335 JUMPI PUSH1 0x0 DUP1 REVERT JUMPDEST PUSH1 0x0 PUSH1 0x4 PUSH1 0x0 DUP5 DUP2 MSTORE PUSH1 0x20 ADD SWAP1 DUP2 MSTORE PUSH1 0x20 ADD PUSH1 0x0 KECCAK256 PUSH1 0x0 ADD PUSH1 0x0 PUSH2 0x100 EXP DUP2 SLOAD DUP2 PUSH1 0xFF MUL NOT AND SWAP1 DUP4 ISZERO ISZERO MUL OR SWAP1 SSTORE POP PUSH1 0x0 PUSH1 0x4 PUSH1 0x0 DUP5 DUP2 MSTORE PUSH1 0x20 ADD SWAP1 DUP2 MSTORE PUSH1 0x20 ADD PUSH1 0x0 KECCAK256 PUSH1 0x0 ADD PUSH1 0x1 PUSH2 0x100 EXP DUP2 SLOAD DUP2 PUSH1 0xFF MUL NOT AND SWAP1 DUP4 ISZERO ISZERO MUL OR SWAP1 SSTORE POP PUSH1 0x0 PUSH1 0x4 PUSH1 0x0 DUP5 DUP2 MSTORE PUSH1 0x20 ADD SWAP1 DUP2 MSTORE PUSH1 0x20 ADD PUSH1 0x0 KECCAK256 PUSH1 0x0 ADD PUSH1 0x2 PUSH2 0x100 EXP DUP2 SLOAD DUP2 PUSH1 0xFF MUL NOT AND SWAP1 DUP4 ISZERO ISZERO MUL OR SWAP1 SSTORE POP PUSH1 0x0 PUSH1 0x4 PUSH1 0x0 DUP5 DUP2 MSTORE PUSH1 0x20 ADD SWAP1 DUP2 MSTORE PUSH1 0x20 ADD PUSH1 0x0 KECCAK256 PUSH1 0x0 ADD PUSH1 0x3 PUSH2 0x100 EXP DUP2 SLOAD DUP2 PUSH1 0xFF MUL NOT AND SWAP1 DUP4 ISZERO ISZERO MUL OR SWAP1 SSTORE POP PUSH32 0x985068D1545F3A3582C605476BC5FE6AAF9ACC51845ACEF22CB74694222EA2E DUP3 PUSH1 0x4 PUSH1 0x0 DUP6 DUP2 MSTORE PUSH1 0x20 ADD SWAP1 DUP2 MSTORE PUSH1 0x20 ADD PUSH1 0x0 KECCAK256 PUSH1 0x0 ADD PUSH1 0x0 SWAP1 SLOAD SWAP1 PUSH2 0x100 EXP SWAP1 DIV PUSH1 0xFF AND PUSH1 0x40 MLOAD PUSH2 0x445 SWAP3 SWAP2 SWAP1 PUSH2 0x1712 JUMP JUMPDEST PUSH1 0x40 MLOAD DUP1 SWAP2 SUB SWAP1 LOG1 POP POP JUMP JUMPDEST PUSH1 0x0 CALLER PUSH20 0xFFFFFFFFFFFFFFFFFFFFFFFFFFFFFFFFFFFFFFFF AND PUSH1 0x3 PUSH1 0x0 DUP6 DUP2 MSTORE PUSH1 0x20 ADD SWAP1 DUP2 MSTORE PUSH1 0x20 ADD PUSH1 0x0 KECCAK256 PUSH1 0x2 ADD PUSH1 0x0 SWAP1 SLOAD SWAP1 PUSH2 0x100 EXP SWAP1 DIV PUSH20 0xFFFFFFFFFFFFFFFFFFFFFFFFFFFFFFFFFFFFFFFF AND PUSH20 0xFFFFFFFFFFFFFFFFFFFFFFFFFFFFFFFFFFFFFFFF AND SUB PUSH2 0x4C1 JUMPI PUSH1 0x0 DUP1 REVERT JUMPDEST DUP2 PUSH1 0x3 PUSH1 0x0 DUP6 DUP2 MSTORE PUSH1 0x20 ADD SWAP1 DUP2 MSTORE PUSH1 0x20 ADD PUSH1 0x0 KECCAK256 PUSH1 0x4 ADD PUSH1 0x0 PUSH2 0x100 EXP DUP2 SLOAD DUP2 PUSH1 0xFF MUL NOT AND SWAP1 DUP4 ISZERO ISZERO MUL OR SWAP1 SSTORE POP DUP2 SWAP1 POP SWAP3 SWAP2 POP POP JUMP JUMPDEST PUSH1 0x8 PUSH1 0x0 DUP2 SLOAD DUP1 SWAP3 SWAP2 SWAP1 PUSH2 0x50B SWAP1 PUSH2 0x176A JUMP JUMPDEST SWAP2 SWAP1 POP SSTORE POP PUSH1 0x8 SLOAD PUSH1 0x3 PUSH1 0x0 PUSH1 0x8 SLOAD DUP2 MSTORE PUSH1 0x20 ADD SWAP1 DUP2 MSTORE PUSH1 0x20 ADD PUSH1 0x0 KECCAK256 PUSH1 0x0 ADD DUP2 SWAP1 SSTORE POP DUP4 PUSH1 0x3 PUSH1 0x0 PUSH1 0x8 SLOAD DUP2 MSTORE PUSH1 0x20 ADD SWAP1 DUP2 MSTORE PUSH1 0x20 ADD PUSH1 0x0 KECCAK256 PUSH1 0x1 ADD PUSH1 0x0 PUSH2 0x100 EXP DUP2 SLOAD DUP2 PUSH20 0xFFFFFFFFFFFFFFFFFFFFFFFFFFFFFFFFFFFFFFFF MUL NOT AND SWAP1 DUP4 PUSH20 0xFFFFFFFFFFFFFFFFFFFFFFFFFFFFFFFFFFFFFFFF AND MUL OR SWAP1 SSTORE POP DUP3 PUSH1 0x3 PUSH1 0x0 PUSH1 0x8 SLOAD DUP2 MSTORE PUSH1 0x20 ADD SWAP1 DUP2 MSTORE PUSH1 0x20 ADD PUSH1 0x0 KECCAK256 PUSH1 0x2 ADD PUSH1 0x0 PUSH2 0x100 EXP DUP2 SLOAD DUP2 PUSH20 0xFFFFFFFFFFFFFFFFFFFFFFFFFFFFFFFFFFFFFFFF MUL NOT AND SWAP1 DUP4 PUSH20 0xFFFFFFFFFFFFFFFFFFFFFFFFFFFFFFFFFFFFFFFF AND MUL OR SWAP1 SSTORE POP DUP2 PUSH1 0x3 PUSH1 0x0 PUSH1 0x8 SLOAD DUP2 MSTORE PUSH1 0x20 ADD SWAP1 DUP2 MSTORE PUSH1 0x20 ADD PUSH1 0x0 KECCAK256 PUSH1 0x3 ADD DUP2 SWAP1 SSTORE POP DUP1 PUSH1 0x3 PUSH1 0x0 PUSH1 0x8 SLOAD DUP2 MSTORE PUSH1 0x20 ADD SWAP1 DUP2 MSTORE PUSH1 0x20 ADD PUSH1 0x0 KECCAK256 PUSH1 0x4 ADD PUSH1 0x0 PUSH2 0x100 EXP DUP2 SLOAD DUP2 PUSH1 0xFF MUL NOT AND SWAP1 DUP4 ISZERO ISZERO MUL OR SWAP1 SSTORE POP DUP3 PUSH20 0xFFFFFFFFFFFFFFFFFFFFFFFFFFFFFFFFFFFFFFFF AND DUP5 PUSH20 0xFFFFFFFFFFFFFFFFFFFFFFFFFFFFFFFFFFFFFFFF AND PUSH32 0xD7717A251AA6B58C031ECB17600F5FD443E3E40F6689D9C3EF687CE7F4B4E616 PUSH1 0x8 SLOAD DUP6 PUSH1 0x40 MLOAD PUSH2 0x68B SWAP3 SWAP2 SWAP1 PUSH2 0x17B2 JUMP JUMPDEST PUSH1 0x40 MLOAD DUP1 SWAP2 SUB SWAP1 LOG3 POP POP POP POP JUMP JUMPDEST PUSH1 0x4 PUSH1 0x20 MSTORE DUP1 PUSH1 0x0 MSTORE PUSH1 0x40 PUSH1 0x0 KECCAK256 PUSH1 0x0 SWAP2 POP SWAP1 POP DUP1 PUSH1 0x0 ADD PUSH1 0x0 SWAP1 SLOAD SWAP1 PUSH2 0x100 EXP SWAP1 DIV PUSH1 0xFF AND SWAP1 DUP1 PUSH1 0x0 ADD PUSH1 0x1 SWAP1 SLOAD SWAP1 PUSH2 0x100 EXP SWAP1 DIV PUSH1 0xFF AND SWAP1 DUP1 PUSH1 0x0 ADD PUSH1 0x2 SWAP1 SLOAD SWAP1 PUSH2 0x100 EXP SWAP1 DIV PUSH1 0xFF AND SWAP1 DUP1 PUSH1 0x0 ADD PUSH1 0x3 SWAP1 SLOAD SWAP1 PUSH2 0x100 EXP SWAP1 DIV PUSH1 0xFF AND SWAP1 POP DUP5 JUMP JUMPDEST PUSH1 0x2 PUSH1 0x20 MSTORE DUP1 PUSH1 0x0 MSTORE PUSH1 0x40 PUSH1 0x0 KECCAK256 PUSH1 0x0 SWAP2 POP SWAP1 POP DUP1 PUSH1 0x0 ADD SLOAD SWAP1 DUP1 PUSH1 0x1 ADD PUSH1 0x0 SWAP1 SLOAD SWAP1 PUSH2 0x100 EXP SWAP1 DIV PUSH20 0xFFFFFFFFFFFFFFFFFFFFFFFFFFFFFFFFFFFFFFFF AND SWAP1 DUP1 PUSH1 0x2 ADD PUSH1 0x0 SWAP1 SLOAD SWAP1 PUSH2 0x100 EXP SWAP1 DIV PUSH20 0xFFFFFFFFFFFFFFFFFFFFFFFFFFFFFFFFFFFFFFFF AND SWAP1 DUP1 PUSH1 0x3 ADD DUP1 SLOAD PUSH2 0x772 SWAP1 PUSH2 0x16E1 JUMP JUMPDEST DUP1 PUSH1 0x1F ADD PUSH1 0x20 DUP1 SWAP2 DIV MUL PUSH1 0x20 ADD PUSH1 0x40 MLOAD SWAP1 DUP2 ADD PUSH1 0x40 MSTORE DUP1 SWAP3 SWAP2 SWAP1 DUP2 DUP2 MSTORE PUSH1 0x20 ADD DUP3 DUP1 SLOAD PUSH2 0x79E SWAP1 PUSH2 0x16E1 JUMP JUMPDEST DUP1 ISZERO PUSH2 0x7EB JUMPI DUP1 PUSH1 0x1F LT PUSH2 0x7C0 JUMPI PUSH2 0x100 DUP1 DUP4 SLOAD DIV MUL DUP4 MSTORE SWAP2 PUSH1 0x20 ADD SWAP2 PUSH2 0x7EB JUMP JUMPDEST DUP3 ADD SWAP2 SWAP1 PUSH1 0x0 MSTORE PUSH1 0x20 PUSH1 0x0 KECCAK256 SWAP1 JUMPDEST DUP2 SLOAD DUP2 MSTORE SWAP1 PUSH1 0x1 ADD SWAP1 PUSH1 0x20 ADD DUP1 DUP4 GT PUSH2 0x7CE JUMPI DUP3 SWAP1 SUB PUSH1 0x1F AND DUP3 ADD SWAP2 JUMPDEST POP POP POP POP POP SWAP1 DUP1 PUSH1 0x4 ADD DUP1 SLOAD PUSH2 0x800 SWAP1 PUSH2 0x16E1 JUMP JUMPDEST DUP1 PUSH1 0x1F ADD PUSH1 0x20 DUP1 SWAP2 DIV MUL PUSH1 0x20 ADD PUSH1 0x40 MLOAD SWAP1 DUP2 ADD PUSH1 0x40 MSTORE DUP1 SWAP3 SWAP2 SWAP1 DUP2 DUP2 MSTORE PUSH1 0x20 ADD DUP3 DUP1 SLOAD PUSH2 0x82C SWAP1 PUSH2 0x16E1 JUMP JUMPDEST DUP1 ISZERO PUSH2 0x879 JUMPI DUP1 PUSH1 0x1F LT PUSH2 0x84E JUMPI PUSH2 0x100 DUP1 DUP4 SLOAD DIV MUL DUP4 MSTORE SWAP2 PUSH1 0x20 ADD SWAP2 PUSH2 0x879 JUMP JUMPDEST DUP3 ADD SWAP2 SWAP1 PUSH1 0x0 MSTORE PUSH1 0x20 PUSH1 0x0 KECCAK256 SWAP1 JUMPDEST DUP2 SLOAD DUP2 MSTORE SWAP1 PUSH1 0x1 ADD SWAP1 PUSH1 0x20 ADD DUP1 DUP4 GT PUSH2 0x85C JUMPI DUP3 SWAP1 SUB PUSH1 0x1F AND DUP3 ADD SWAP2 JUMPDEST POP POP POP POP POP SWAP1 DUP1 PUSH1 0x5 ADD SLOAD SWAP1 POP DUP7 JUMP JUMPDEST PUSH1 0x3 PUSH1 0x20 MSTORE DUP1 PUSH1 0x0 MSTORE PUSH1 0x40 PUSH1 0x0 KECCAK256 PUSH1 0x0 SWAP2 POP SWAP1 POP DUP1 PUSH1 0x0 ADD SLOAD SWAP1 DUP1 PUSH1 0x1 ADD PUSH1 0x0 SWAP1 SLOAD SWAP1 PUSH2 0x100 EXP SWAP1 DIV PUSH20 0xFFFFFFFFFFFFFFFFFFFFFFFFFFFFFFFFFFFFFFFF AND SWAP1 DUP1 PUSH1 0x2 ADD PUSH1 0x0 SWAP1 SLOAD SWAP1 PUSH2 0x100 EXP SWAP1 DIV PUSH20 0xFFFFFFFFFFFFFFFFFFFFFFFFFFFFFFFFFFFFFFFF AND SWAP1 DUP1 PUSH1 0x3 ADD SLOAD SWAP1 DUP1 PUSH1 0x4 ADD PUSH1 0x0 SWAP1 SLOAD SWAP1 PUSH2 0x100 EXP SWAP1 DIV PUSH1 0xFF AND SWAP1 DUP1 PUSH1 0x5 ADD SLOAD SWAP1 POP DUP7 JUMP JUMPDEST PUSH1 0x6 PUSH1 0x0 DUP2 SLOAD DUP1 SWAP3 SWAP2 SWAP1 PUSH2 0x925 SWAP1 PUSH2 0x176A JUMP JUMPDEST SWAP2 SWAP1 POP SSTORE POP PUSH1 0x6 SLOAD PUSH1 0x2 PUSH1 0x0 PUSH1 0x6 SLOAD DUP2 MSTORE PUSH1 0x20 ADD SWAP1 DUP2 MSTORE PUSH1 0x20 ADD PUSH1 0x0 KECCAK256 PUSH1 0x0 ADD DUP2 SWAP1 SSTORE POP DUP4 PUSH1 0x2 PUSH1 0x0 PUSH1 0x6 SLOAD DUP2 MSTORE PUSH1 0x20 ADD SWAP1 DUP2 MSTORE PUSH1 0x20 ADD PUSH1 0x0 KECCAK256 PUSH1 0x1 ADD PUSH1 0x0 PUSH2 0x100 EXP DUP2 SLOAD DUP2 PUSH20 0xFFFFFFFFFFFFFFFFFFFFFFFFFFFFFFFFFFFFFFFF MUL NOT AND SWAP1 DUP4 PUSH20 0xFFFFFFFFFFFFFFFFFFFFFFFFFFFFFFFFFFFFFFFF AND MUL OR SWAP1 SSTORE POP DUP5 PUSH1 0x2 PUSH1 0x0 PUSH1 0x6 SLOAD DUP2 MSTORE PUSH1 0x20 ADD SWAP1 DUP2 MSTORE PUSH1 0x20 ADD PUSH1 0x0 KECCAK256 PUSH1 0x2 ADD PUSH1 0x0 PUSH2 0x100 EXP DUP2 SLOAD DUP2 PUSH20 0xFFFFFFFFFFFFFFFFFFFFFFFFFFFFFFFFFFFFFFFF MUL NOT AND SWAP1 DUP4 PUSH20 0xFFFFFFFFFFFFFFFFFFFFFFFFFFFFFFFFFFFFFFFF AND MUL OR SWAP1 SSTORE POP DUP3 PUSH1 0x2 PUSH1 0x0 PUSH1 0x6 SLOAD DUP2 MSTORE PUSH1 0x20 ADD SWAP1 DUP2 MSTORE PUSH1 0x20 ADD PUSH1 0x0 KECCAK256 PUSH1 0x3 ADD SWAP1 DUP2 PUSH2 0xA1C SWAP2 SWAP1 PUSH2 0x1987 JUMP JUMPDEST POP DUP2 PUSH1 0x2 PUSH1 0x0 PUSH1 0x6 SLOAD DUP2 MSTORE PUSH1 0x20 ADD SWAP1 DUP2 MSTORE PUSH1 0x20 ADD PUSH1 0x0 KECCAK256 PUSH1 0x4 ADD SWAP1 DUP2 PUSH2 0xA42 SWAP2 SWAP1 PUSH2 0x1987 JUMP JUMPDEST POP DUP1 PUSH1 0x2 PUSH1 0x0 PUSH1 0x6 SLOAD DUP2 MSTORE PUSH1 0x20 ADD SWAP1 DUP2 MSTORE PUSH1 0x20 ADD PUSH1 0x0 KECCAK256 PUSH1 0x5 ADD DUP2 SWAP1 SSTORE POP POP POP POP POP POP JUMP JUMPDEST PUSH1 0x60 PUSH1 0x0 PUSH1 0x8 SLOAD PUSH8 0xFFFFFFFFFFFFFFFF DUP2 GT ISZERO PUSH2 0xA87 JUMPI PUSH2 0xA86 PUSH2 0x138D JUMP JUMPDEST JUMPDEST PUSH1 0x40 MLOAD SWAP1 DUP1 DUP3 MSTORE DUP1 PUSH1 0x20 MUL PUSH1 0x20 ADD DUP3 ADD PUSH1 0x40 MSTORE DUP1 ISZERO PUSH2 0xAB5 JUMPI DUP2 PUSH1 0x20 ADD PUSH1 0x20 DUP3 MUL DUP1 CALLDATASIZE DUP4 CALLDATACOPY DUP1 DUP3 ADD SWAP2 POP POP SWAP1 POP JUMPDEST POP SWAP1 POP PUSH1 0x0 DUP1 PUSH1 0x1 SWAP1 POP JUMPDEST PUSH1 0x8 SLOAD DUP2 GT PUSH2 0xB20 JUMPI PUSH1 0x3 PUSH1 0x0 DUP3 DUP2 MSTORE PUSH1 0x20 ADD SWAP1 DUP2 MSTORE PUSH1 0x20 ADD PUSH1 0x0 KECCAK256 PUSH1 0x0 ADD SLOAD DUP4 DUP4 DUP2 MLOAD DUP2 LT PUSH2 0xAF3 JUMPI PUSH2 0xAF2 PUSH2 0x1A59 JUMP JUMPDEST JUMPDEST PUSH1 0x20 MUL PUSH1 0x20 ADD ADD DUP2 DUP2 MSTORE POP POP DUP2 DUP1 PUSH2 0xB0A SWAP1 PUSH2 0x176A JUMP JUMPDEST SWAP3 POP POP DUP1 DUP1 PUSH2 0xB18 SWAP1 PUSH2 0x176A JUMP JUMPDEST SWAP2 POP POP PUSH2 0xAC0 JUMP JUMPDEST POP PUSH1 0x0 DUP2 PUSH8 0xFFFFFFFFFFFFFFFF DUP2 GT ISZERO PUSH2 0xB3D JUMPI PUSH2 0xB3C PUSH2 0x138D JUMP JUMPDEST JUMPDEST PUSH1 0x40 MLOAD SWAP1 DUP1 DUP3 MSTORE DUP1 PUSH1 0x20 MUL PUSH1 0x20 ADD DUP3 ADD PUSH1 0x40 MSTORE DUP1 ISZERO PUSH2 0xB6B JUMPI DUP2 PUSH1 0x20 ADD PUSH1 0x20 DUP3 MUL DUP1 CALLDATASIZE DUP4 CALLDATACOPY DUP1 DUP3 ADD SWAP2 POP POP SWAP1 POP JUMPDEST POP SWAP1 POP PUSH1 0x0 JUMPDEST DUP3 DUP2 LT ISZERO PUSH2 0xBC6 JUMPI DUP4 DUP2 DUP2 MLOAD DUP2 LT PUSH2 0xB8C JUMPI PUSH2 0xB8B PUSH2 0x1A59 JUMP JUMPDEST JUMPDEST PUSH1 0x20 MUL PUSH1 0x20 ADD ADD MLOAD DUP3 DUP3 DUP2 MLOAD DUP2 LT PUSH2 0xBA7 JUMPI PUSH2 0xBA6 PUSH2 0x1A59 JUMP JUMPDEST JUMPDEST PUSH1 0x20 MUL PUSH1 0x20 ADD ADD DUP2 DUP2 MSTORE POP POP DUP1 DUP1 PUSH2 0xBBE SWAP1 PUSH2 0x176A JUMP JUMPDEST SWAP2 POP POP PUSH2 0xB71 JUMP JUMPDEST POP DUP1 SWAP4 POP POP POP POP SWAP1 JUMP JUMPDEST PUSH1 0x1 DUP1 SLOAD PUSH2 0xBDD SWAP1 PUSH2 0x16E1 JUMP JUMPDEST DUP1 PUSH1 0x1F ADD PUSH1 0x20 DUP1 SWAP2 DIV MUL PUSH1 0x20 ADD PUSH1 0x40 MLOAD SWAP1 DUP2 ADD PUSH1 0x40 MSTORE DUP1 SWAP3 SWAP2 SWAP1 DUP2 DUP2 MSTORE PUSH1 0x20 ADD DUP3 DUP1 SLOAD PUSH2 0xC09 SWAP1 PUSH2 0x16E1 JUMP JUMPDEST DUP1 ISZERO PUSH2 0xC56 JUMPI DUP1 PUSH1 0x1F LT PUSH2 0xC2B JUMPI PUSH2 0x100 DUP1 DUP4 SLOAD DIV MUL DUP4 MSTORE SWAP2 PUSH1 0x20 ADD SWAP2 PUSH2 0xC56 JUMP JUMPDEST DUP3 ADD SWAP2 SWAP1 PUSH1 0x0 MSTORE PUSH1 0x20 PUSH1 0x0 KECCAK256 SWAP1 JUMPDEST DUP2 SLOAD DUP2 MSTORE SWAP1 PUSH1 0x1 ADD SWAP1 PUSH1 0x20 ADD DUP1 DUP4 GT PUSH2 0xC39 JUMPI DUP3 SWAP1 SUB PUSH1 0x1F AND DUP3 ADD SWAP2 JUMPDEST POP POP POP POP POP DUP2 JUMP JUMPDEST PUSH1 0x60 PUSH1 0x0 PUSH1 0x6 SLOAD PUSH8 0xFFFFFFFFFFFFFFFF DUP2 GT ISZERO PUSH2 0xC7E JUMPI PUSH2 0xC7D PUSH2 0x138D JUMP JUMPDEST JUMPDEST PUSH1 0x40 MLOAD SWAP1 DUP1 DUP3 MSTORE DUP1 PUSH1 0x20 MUL PUSH1 0x20 ADD DUP3 ADD PUSH1 0x40 MSTORE DUP1 ISZERO PUSH2 0xCAC JUMPI DUP2 PUSH1 0x20 ADD PUSH1 0x20 DUP3 MUL DUP1 CALLDATASIZE DUP4 CALLDATACOPY DUP1 DUP3 ADD SWAP2 POP POP SWAP1 POP JUMPDEST POP SWAP1 POP PUSH1 0x0 DUP1 PUSH1 0x1 SWAP1 POP JUMPDEST PUSH1 0x6 SLOAD DUP2 GT PUSH2 0xD17 JUMPI PUSH1 0x2 PUSH1 0x0 DUP3 DUP2 MSTORE PUSH1 0x20 ADD SWAP1 DUP2 MSTORE PUSH1 0x20 ADD PUSH1 0x0 KECCAK256 PUSH1 0x0 ADD SLOAD DUP4 DUP4 DUP2 MLOAD DUP2 LT PUSH2 0xCEA JUMPI PUSH2 0xCE9 PUSH2 0x1A59 JUMP JUMPDEST JUMPDEST PUSH1 0x20 MUL PUSH1 0x20 ADD ADD DUP2 DUP2 MSTORE POP POP DUP2 DUP1 PUSH2 0xD01 SWAP1 PUSH2 0x176A JUMP JUMPDEST SWAP3 POP POP DUP1 DUP1 PUSH2 0xD0F SWAP1 PUSH2 0x176A JUMP JUMPDEST SWAP2 POP POP PUSH2 0xCB7 JUMP JUMPDEST POP PUSH1 0x0 DUP2 PUSH8 0xFFFFFFFFFFFFFFFF DUP2 GT ISZERO PUSH2 0xD34 JUMPI PUSH2 0xD33 PUSH2 0x138D JUMP JUMPDEST JUMPDEST PUSH1 0x40 MLOAD SWAP1 DUP1 DUP3 MSTORE DUP1 PUSH1 0x20 MUL PUSH1 0x20 ADD DUP3 ADD PUSH1 0x40 MSTORE DUP1 ISZERO PUSH2 0xD62 JUMPI DUP2 PUSH1 0x20 ADD PUSH1 0x20 DUP3 MUL DUP1 CALLDATASIZE DUP4 CALLDATACOPY DUP1 DUP3 ADD SWAP2 POP POP SWAP1 POP JUMPDEST POP SWAP1 POP PUSH1 0x0 JUMPDEST DUP3 DUP2 LT ISZERO PUSH2 0xDBD JUMPI DUP4 DUP2 DUP2 MLOAD DUP2 LT PUSH2 0xD83 JUMPI PUSH2 0xD82 PUSH2 0x1A59 JUMP JUMPDEST JUMPDEST PUSH1 0x20 MUL PUSH1 0x20 ADD ADD MLOAD DUP3 DUP3 DUP2 MLOAD DUP2 LT PUSH2 0xD9E JUMPI PUSH2 0xD9D PUSH2 0x1A59 JUMP JUMPDEST JUMPDEST PUSH1 0x20 MUL PUSH1 0x20 ADD ADD DUP2 DUP2 MSTORE POP POP DUP1 DUP1 PUSH2 0xDB5 SWAP1 PUSH2 0x176A JUMP JUMPDEST SWAP2 POP POP PUSH2 0xD68 JUMP JUMPDEST POP DUP1 SWAP4 POP POP POP POP SWAP1 JUMP JUMPDEST DUP3 PUSH1 0x4 PUSH1 0x0 DUP7 DUP2 MSTORE PUSH1 0x20 ADD SWAP1 DUP2 MSTORE PUSH1 0x20 ADD PUSH1 0x0 KECCAK256 PUSH1 0x0 ADD PUSH1 0x1 PUSH2 0x100 EXP DUP2 SLOAD DUP2 PUSH1 0xFF MUL NOT AND SWAP1 DUP4 ISZERO ISZERO MUL OR SWAP1 SSTORE POP DUP2 PUSH1 0x4 PUSH1 0x0 DUP7 DUP2 MSTORE PUSH1 0x20 ADD SWAP1 DUP2 MSTORE PUSH1 0x20 ADD PUSH1 0x0 KECCAK256 PUSH1 0x0 ADD PUSH1 0x2 PUSH2 0x100 EXP DUP2 SLOAD DUP2 PUSH1 0xFF MUL NOT AND SWAP1 DUP4 ISZERO ISZERO MUL OR SWAP1 SSTORE POP DUP1 PUSH1 0x4 PUSH1 0x0 DUP7 DUP2 MSTORE PUSH1 0x20 ADD SWAP1 DUP2 MSTORE PUSH1 0x20 ADD PUSH1 0x0 KECCAK256 PUSH1 0x0 ADD PUSH1 0x3 PUSH2 0x100 EXP DUP2 SLOAD DUP2 PUSH1 0xFF MUL NOT AND SWAP1 DUP4 ISZERO ISZERO MUL OR SWAP1 SSTORE POP PUSH1 0x1 ISZERO ISZERO PUSH1 0x4 PUSH1 0x0 DUP7 DUP2 MSTORE PUSH1 0x20 ADD SWAP1 DUP2 MSTORE PUSH1 0x20 ADD PUSH1 0x0 KECCAK256 PUSH1 0x0 ADD PUSH1 0x1 SWAP1 SLOAD SWAP1 PUSH2 0x100 EXP SWAP1 DIV PUSH1 0xFF AND ISZERO ISZERO EQ DUP1 ISZERO PUSH2 0xEAF JUMPI POP PUSH1 0x1 ISZERO ISZERO PUSH1 0x4 PUSH1 0x0 DUP7 DUP2 MSTORE PUSH1 0x20 ADD SWAP1 DUP2 MSTORE PUSH1 0x20 ADD PUSH1 0x0 KECCAK256 PUSH1 0x0 ADD PUSH1 0x2 SWAP1 SLOAD SWAP1 PUSH2 0x100 EXP SWAP1 DIV PUSH1 0xFF AND ISZERO ISZERO EQ JUMPDEST DUP1 ISZERO PUSH2 0xEE2 JUMPI POP PUSH1 0x1 ISZERO ISZERO PUSH1 0x4 PUSH1 0x0 DUP7 DUP2 MSTORE PUSH1 0x20 ADD SWAP1 DUP2 MSTORE PUSH1 0x20 ADD PUSH1 0x0 KECCAK256 PUSH1 0x0 ADD PUSH1 0x3 SWAP1 SLOAD SWAP1 PUSH2 0x100 EXP SWAP1 DIV PUSH1 0xFF AND ISZERO ISZERO EQ JUMPDEST ISZERO PUSH2 0xF17 JUMPI PUSH1 0x1 PUSH1 0x4 PUSH1 0x0 DUP7 DUP2 MSTORE PUSH1 0x20 ADD SWAP1 DUP2 MSTORE PUSH1 0x20 ADD PUSH1 0x0 KECCAK256 PUSH1 0x0 ADD PUSH1 0x0 PUSH2 0x100 EXP DUP2 SLOAD DUP2 PUSH1 0xFF MUL NOT AND SWAP1 DUP4 ISZERO ISZERO MUL OR SWAP1 SSTORE POP JUMPDEST PUSH1 0x1 ISZERO ISZERO PUSH1 0x4 PUSH1 0x0 DUP7 DUP2 MSTORE PUSH1 0x20 ADD SWAP1 DUP2 MSTORE PUSH1 0x20 ADD PUSH1 0x0 KECCAK256 PUSH1 0x0 ADD PUSH1 0x0 SWAP1 SLOAD SWAP1 PUSH2 0x100 EXP SWAP1 DIV PUSH1 0xFF AND ISZERO ISZERO SUB PUSH2 0xF82 JUMPI PUSH32 0xBED19C48FFBFB01CA0FAA826D3E3844746B0628593A6C4AEEA7290AF66735D20 DUP5 PUSH1 0x40 MLOAD PUSH2 0xF75 SWAP2 SWAP1 PUSH2 0x1A88 JUMP JUMPDEST PUSH1 0x40 MLOAD DUP1 SWAP2 SUB SWAP1 LOG1 PUSH2 0xFBA JUMP JUMPDEST PUSH32 0x1F0C1DB71D57570DAA726BC2AA30A91E34F107443DFDBFC1BED51F3810CE362E DUP5 PUSH1 0x40 MLOAD PUSH2 0xFB1 SWAP2 SWAP1 PUSH2 0x1A88 JUMP JUMPDEST PUSH1 0x40 MLOAD DUP1 SWAP2 SUB SWAP1 LOG1 JUMPDEST POP POP POP POP JUMP JUMPDEST PUSH1 0x0 DUP2 MLOAD SWAP1 POP SWAP2 SWAP1 POP JUMP JUMPDEST PUSH1 0x0 DUP3 DUP3 MSTORE PUSH1 0x20 DUP3 ADD SWAP1 POP SWAP3 SWAP2 POP POP JUMP JUMPDEST PUSH1 0x0 JUMPDEST DUP4 DUP2 LT ISZERO PUSH2 0xFFA JUMPI DUP1 DUP3 ADD MLOAD DUP2 DUP5 ADD MSTORE PUSH1 0x20 DUP2 ADD SWAP1 POP PUSH2 0xFDF JUMP JUMPDEST PUSH1 0x0 DUP5 DUP5 ADD MSTORE POP POP POP POP JUMP JUMPDEST PUSH1 0x0 PUSH1 0x1F NOT PUSH1 0x1F DUP4 ADD AND SWAP1 POP SWAP2 SWAP1 POP JUMP JUMPDEST PUSH1 0x0 PUSH2 0x1022 DUP3 PUSH2 0xFC0 JUMP JUMPDEST PUSH2 0x102C DUP2 DUP6 PUSH2 0xFCB JUMP JUMPDEST SWAP4 POP PUSH2 0x103C DUP2 DUP6 PUSH1 0x20 DUP7 ADD PUSH2 0xFDC JUMP JUMPDEST PUSH2 0x1045 DUP2 PUSH2 0x1006 JUMP JUMPDEST DUP5 ADD SWAP2 POP POP SWAP3 SWAP2 POP POP JUMP JUMPDEST PUSH1 0x0 PUSH1 0x20 DUP3 ADD SWAP1 POP DUP2 DUP2 SUB PUSH1 0x0 DUP4 ADD MSTORE PUSH2 0x106A DUP2 DUP5 PUSH2 0x1017 JUMP JUMPDEST SWAP1 POP SWAP3 SWAP2 POP POP JUMP JUMPDEST PUSH1 0x0 PUSH1 0x40 MLOAD SWAP1 POP SWAP1 JUMP JUMPDEST PUSH1 0x0 DUP1 REVERT JUMPDEST PUSH1 0x0 DUP1 REVERT JUMPDEST PUSH1 0x0 DUP2 SWAP1 POP SWAP2 SWAP1 POP JUMP JUMPDEST PUSH2 0x1099 DUP2 PUSH2 0x1086 JUMP JUMPDEST DUP2 EQ PUSH2 0x10A4 JUMPI PUSH1 0x0 DUP1 REVERT JUMPDEST POP JUMP JUMPDEST PUSH1 0x0 DUP2 CALLDATALOAD SWAP1 POP PUSH2 0x10B6 DUP2 PUSH2 0x1090 JUMP JUMPDEST SWAP3 SWAP2 POP POP JUMP JUMPDEST PUSH1 0x0 PUSH1 0x20 DUP3 DUP5 SUB SLT ISZERO PUSH2 0x10D2 JUMPI PUSH2 0x10D1 PUSH2 0x107C JUMP JUMPDEST JUMPDEST PUSH1 0x0 PUSH2 0x10E0 DUP5 DUP3 DUP6 ADD PUSH2 0x10A7 JUMP JUMPDEST SWAP2 POP POP SWAP3 SWAP2 POP POP JUMP JUMPDEST PUSH1 0x0 DUP2 ISZERO ISZERO SWAP1 POP SWAP2 SWAP1 POP JUMP JUMPDEST PUSH2 0x10FE DUP2 PUSH2 0x10E9 JUMP JUMPDEST DUP2 EQ PUSH2 0x1109 JUMPI PUSH1 0x0 DUP1 REVERT JUMPDEST POP JUMP JUMPDEST PUSH1 0x0 DUP2 CALLDATALOAD SWAP1 POP PUSH2 0x111B DUP2 PUSH2 0x10F5 JUMP JUMPDEST SWAP3 SWAP2 POP POP JUMP JUMPDEST PUSH1 0x0 DUP1 PUSH1 0x40 DUP4 DUP6 SUB SLT ISZERO PUSH2 0x1138 JUMPI PUSH2 0x1137 PUSH2 0x107C JUMP JUMPDEST JUMPDEST PUSH1 0x0 PUSH2 0x1146 DUP6 DUP3 DUP7 ADD PUSH2 0x10A7 JUMP JUMPDEST SWAP3 POP POP PUSH1 0x20 PUSH2 0x1157 DUP6 DUP3 DUP7 ADD PUSH2 0x110C JUMP JUMPDEST SWAP2 POP POP SWAP3 POP SWAP3 SWAP1 POP JUMP JUMPDEST PUSH2 0x116A DUP2 PUSH2 0x10E9 JUMP JUMPDEST DUP3 MSTORE POP POP JUMP JUMPDEST PUSH1 0x0 PUSH1 0x20 DUP3 ADD SWAP1 POP PUSH2 0x1185 PUSH1 0x0 DUP4 ADD DUP5 PUSH2 0x1161 JUMP JUMPDEST SWAP3 SWAP2 POP POP JUMP JUMPDEST PUSH1 0x0 PUSH20 0xFFFFFFFFFFFFFFFFFFFFFFFFFFFFFFFFFFFFFFFF DUP3 AND SWAP1 POP SWAP2 SWAP1 POP JUMP JUMPDEST PUSH1 0x0 PUSH2 0x11B6 DUP3 PUSH2 0x118B JUMP JUMPDEST SWAP1 POP SWAP2 SWAP1 POP JUMP JUMPDEST PUSH2 0x11C6 DUP2 PUSH2 0x11AB JUMP JUMPDEST DUP2 EQ PUSH2 0x11D1 JUMPI PUSH1 0x0 DUP1 REVERT JUMPDEST POP JUMP JUMPDEST PUSH1 0x0 DUP2 CALLDATALOAD SWAP1 POP PUSH2 0x11E3 DUP2 PUSH2 0x11BD JUMP JUMPDEST SWAP3 SWAP2 POP POP JUMP JUMPDEST PUSH1 0x0 DUP1 PUSH1 0x0 DUP1 PUSH1 0x80 DUP6 DUP8 SUB SLT ISZERO PUSH2 0x1203 JUMPI PUSH2 0x1202 PUSH2 0x107C JUMP JUMPDEST JUMPDEST PUSH1 0x0 PUSH2 0x1211 DUP8 DUP3 DUP9 ADD PUSH2 0x11D4 JUMP JUMPDEST SWAP5 POP POP PUSH1 0x20 PUSH2 0x1222 DUP8 DUP3 DUP9 ADD PUSH2 0x11D4 JUMP JUMPDEST SWAP4 POP POP PUSH1 0x40 PUSH2 0x1233 DUP8 DUP3 DUP9 ADD PUSH2 0x10A7 JUMP JUMPDEST SWAP3 POP POP PUSH1 0x60 PUSH2 0x1244 DUP8 DUP3 DUP9 ADD PUSH2 0x110C JUMP JUMPDEST SWAP2 POP POP SWAP3 SWAP6 SWAP2 SWAP5 POP SWAP3 POP JUMP JUMPDEST PUSH1 0x0 PUSH1 0x80 DUP3 ADD SWAP1 POP PUSH2 0x1265 PUSH1 0x0 DUP4 ADD DUP8 PUSH2 0x1161 JUMP JUMPDEST PUSH2 0x1272 PUSH1 0x20 DUP4 ADD DUP7 PUSH2 0x1161 JUMP JUMPDEST PUSH2 0x127F PUSH1 0x40 DUP4 ADD DUP6 PUSH2 0x1161 JUMP JUMPDEST PUSH2 0x128C PUSH1 0x60 DUP4 ADD DUP5 PUSH2 0x1161 JUMP JUMPDEST SWAP6 SWAP5 POP POP POP POP POP JUMP JUMPDEST PUSH2 0x129E DUP2 PUSH2 0x1086 JUMP JUMPDEST DUP3 MSTORE POP POP JUMP JUMPDEST PUSH2 0x12AD DUP2 PUSH2 0x11AB JUMP JUMPDEST DUP3 MSTORE POP POP JUMP JUMPDEST PUSH1 0x0 PUSH1 0xC0 DUP3 ADD SWAP1 POP PUSH2 0x12C8 PUSH1 0x0 DUP4 ADD DUP10 PUSH2 0x1295 JUMP JUMPDEST PUSH2 0x12D5 PUSH1 0x20 DUP4 ADD DUP9 PUSH2 0x12A4 JUMP JUMPDEST PUSH2 0x12E2 PUSH1 0x40 DUP4 ADD DUP8 PUSH2 0x12A4 JUMP JUMPDEST DUP2 DUP2 SUB PUSH1 0x60 DUP4 ADD MSTORE PUSH2 0x12F4 DUP2 DUP7 PUSH2 0x1017 JUMP JUMPDEST SWAP1 POP DUP2 DUP2 SUB PUSH1 0x80 DUP4 ADD MSTORE PUSH2 0x1308 DUP2 DUP6 PUSH2 0x1017 JUMP JUMPDEST SWAP1 POP PUSH2 0x1317 PUSH1 0xA0 DUP4 ADD DUP5 PUSH2 0x1295 JUMP JUMPDEST SWAP8 SWAP7 POP POP POP POP POP POP POP JUMP JUMPDEST PUSH1 0x0 PUSH1 0xC0 DUP3 ADD SWAP1 POP PUSH2 0x1337 PUSH1 0x0 DUP4 ADD DUP10 PUSH2 0x1295 JUMP JUMPDEST PUSH2 0x1344 PUSH1 0x20 DUP4 ADD DUP9 PUSH2 0x12A4 JUMP JUMPDEST PUSH2 0x1351 PUSH1 0x40 DUP4 ADD DUP8 PUSH2 0x12A4 JUMP JUMPDEST PUSH2 0x135E PUSH1 0x60 DUP4 ADD DUP7 PUSH2 0x1295 JUMP JUMPDEST PUSH2 0x136B PUSH1 0x80 DUP4 ADD DUP6 PUSH2 0x1161 JUMP JUMPDEST PUSH2 0x1378 PUSH1 0xA0 DUP4 ADD DUP5 PUSH2 0x1295 JUMP JUMPDEST SWAP8 SWAP7 POP POP POP POP POP POP POP JUMP JUMPDEST PUSH1 0x0 DUP1 REVERT JUMPDEST PUSH1 0x0 DUP1 REVERT JUMPDEST PUSH32 0x4E487B7100000000000000000000000000000000000000000000000000000000 PUSH1 0x0 MSTORE PUSH1 0x41 PUSH1 0x4 MSTORE PUSH1 0x24 PUSH1 0x0 REVERT JUMPDEST PUSH2 0x13C5 DUP3 PUSH2 0x1006 JUMP JUMPDEST DUP2 ADD DUP2 DUP2 LT PUSH8 0xFFFFFFFFFFFFFFFF DUP3 GT OR ISZERO PUSH2 0x13E4 JUMPI PUSH2 0x13E3 PUSH2 0x138D JUMP JUMPDEST JUMPDEST DUP1 PUSH1 0x40 MSTORE POP POP POP JUMP JUMPDEST PUSH1 0x0 PUSH2 0x13F7 PUSH2 0x1072 JUMP JUMPDEST SWAP1 POP PUSH2 0x1403 DUP3 DUP3 PUSH2 0x13BC JUMP JUMPDEST SWAP2 SWAP1 POP JUMP JUMPDEST PUSH1 0x0 PUSH8 0xFFFFFFFFFFFFFFFF DUP3 GT ISZERO PUSH2 0x1423 JUMPI PUSH2 0x1422 PUSH2 0x138D JUMP JUMPDEST JUMPDEST PUSH2 0x142C DUP3 PUSH2 0x1006 JUMP JUMPDEST SWAP1 POP PUSH1 0x20 DUP2 ADD SWAP1 POP SWAP2 SWAP1 POP JUMP JUMPDEST DUP3 DUP2 DUP4 CALLDATACOPY PUSH1 0x0 DUP4 DUP4 ADD MSTORE POP POP POP JUMP JUMPDEST PUSH1 0x0 PUSH2 0x145B PUSH2 0x1456 DUP5 PUSH2 0x1408 JUMP JUMPDEST PUSH2 0x13ED JUMP JUMPDEST SWAP1 POP DUP3 DUP2 MSTORE PUSH1 0x20 DUP2 ADD DUP5 DUP5 DUP5 ADD GT ISZERO PUSH2 0x1477 JUMPI PUSH2 0x1476 PUSH2 0x1388 JUMP JUMPDEST JUMPDEST PUSH2 0x1482 DUP5 DUP3 DUP6 PUSH2 0x1439 JUMP JUMPDEST POP SWAP4 SWAP3 POP POP POP JUMP JUMPDEST PUSH1 0x0 DUP3 PUSH1 0x1F DUP4 ADD SLT PUSH2 0x149F JUMPI PUSH2 0x149E PUSH2 0x1383 JUMP JUMPDEST JUMPDEST DUP2 CALLDATALOAD PUSH2 0x14AF DUP5 DUP3 PUSH1 0x20 DUP7 ADD PUSH2 0x1448 JUMP JUMPDEST SWAP2 POP POP SWAP3 SWAP2 POP POP JUMP JUMPDEST PUSH1 0x0 DUP1 PUSH1 0x0 DUP1 PUSH1 0x0 PUSH1 0xA0 DUP7 DUP9 SUB SLT ISZERO PUSH2 0x14D4 JUMPI PUSH2 0x14D3 PUSH2 0x107C JUMP JUMPDEST JUMPDEST PUSH1 0x0 PUSH2 0x14E2 DUP9 DUP3 DUP10 ADD PUSH2 0x11D4 JUMP JUMPDEST SWAP6 POP POP PUSH1 0x20 PUSH2 0x14F3 DUP9 DUP3 DUP10 ADD PUSH2 0x11D4 JUMP JUMPDEST SWAP5 POP POP PUSH1 0x40 DUP7 ADD CALLDATALOAD PUSH8 0xFFFFFFFFFFFFFFFF DUP2 GT ISZERO PUSH2 0x1514 JUMPI PUSH2 0x1513 PUSH2 0x1081 JUMP JUMPDEST JUMPDEST PUSH2 0x1520 DUP9 DUP3 DUP10 ADD PUSH2 0x148A JUMP JUMPDEST SWAP4 POP POP PUSH1 0x60 DUP7 ADD CALLDATALOAD PUSH8 0xFFFFFFFFFFFFFFFF DUP2 GT ISZERO PUSH2 0x1541 JUMPI PUSH2 0x1540 PUSH2 0x1081 JUMP JUMPDEST JUMPDEST PUSH2 0x154D DUP9 DUP3 DUP10 ADD PUSH2 0x148A JUMP JUMPDEST SWAP3 POP POP PUSH1 0x80 PUSH2 0x155E DUP9 DUP3 DUP10 ADD PUSH2 0x10A7 JUMP JUMPDEST SWAP2 POP POP SWAP3 SWAP6 POP SWAP3 SWAP6 SWAP1 SWAP4 POP JUMP JUMPDEST PUSH1 0x0 DUP2 MLOAD SWAP1 POP SWAP2 SWAP1 POP JUMP JUMPDEST PUSH1 0x0 DUP3 DUP3 MSTORE PUSH1 0x20 DUP3 ADD SWAP1 POP SWAP3 SWAP2 POP POP JUMP JUMPDEST PUSH1 0x0 DUP2 SWAP1 POP PUSH1 0x20 DUP3 ADD SWAP1 POP SWAP2 SWAP1 POP JUMP JUMPDEST PUSH2 0x15A0 DUP2 PUSH2 0x1086 JUMP JUMPDEST DUP3 MSTORE POP POP JUMP JUMPDEST PUSH1 0x0 PUSH2 0x15B2 DUP4 DUP4 PUSH2 0x1597 JUMP JUMPDEST PUSH1 0x20 DUP4 ADD SWAP1 POP SWAP3 SWAP2 POP POP JUMP JUMPDEST PUSH1 0x0 PUSH1 0x20 DUP3 ADD SWAP1 POP SWAP2 SWAP1 POP JUMP JUMPDEST PUSH1 0x0 PUSH2 0x15D6 DUP3 PUSH2 0x156B JUMP JUMPDEST PUSH2 0x15E0 DUP2 DUP6 PUSH2 0x1576 JUMP JUMPDEST SWAP4 POP PUSH2 0x15EB DUP4 PUSH2 0x1587 JUMP JUMPDEST DUP1 PUSH1 0x0 JUMPDEST DUP4 DUP2 LT ISZERO PUSH2 0x161C JUMPI DUP2 MLOAD PUSH2 0x1603 DUP9 DUP3 PUSH2 0x15A6 JUMP JUMPDEST SWAP8 POP PUSH2 0x160E DUP4 PUSH2 0x15BE JUMP JUMPDEST SWAP3 POP POP PUSH1 0x1 DUP2 ADD SWAP1 POP PUSH2 0x15EF JUMP JUMPDEST POP DUP6 SWAP4 POP POP POP POP SWAP3 SWAP2 POP POP JUMP JUMPDEST PUSH1 0x0 PUSH1 0x20 DUP3 ADD SWAP1 POP DUP2 DUP2 SUB PUSH1 0x0 DUP4 ADD MSTORE PUSH2 0x1643 DUP2 DUP5 PUSH2 0x15CB JUMP JUMPDEST SWAP1 POP SWAP3 SWAP2 POP POP JUMP JUMPDEST PUSH1 0x0 DUP1 PUSH1 0x0 DUP1 PUSH1 0x80 DUP6 DUP8 SUB SLT ISZERO PUSH2 0x1665 JUMPI PUSH2 0x1664 PUSH2 0x107C JUMP JUMPDEST JUMPDEST PUSH1 0x0 PUSH2 0x1673 DUP8 DUP3 DUP9 ADD PUSH2 0x10A7 JUMP JUMPDEST SWAP5 POP POP PUSH1 0x20 PUSH2 0x1684 DUP8 DUP3 DUP9 ADD PUSH2 0x110C JUMP JUMPDEST SWAP4 POP POP PUSH1 0x40 PUSH2 0x1695 DUP8 DUP3 DUP9 ADD PUSH2 0x110C JUMP JUMPDEST SWAP3 POP POP PUSH1 0x60 PUSH2 0x16A6 DUP8 DUP3 DUP9 ADD PUSH2 0x110C JUMP JUMPDEST SWAP2 POP POP SWAP3 SWAP6 SWAP2 SWAP5 POP SWAP3 POP JUMP JUMPDEST PUSH32 0x4E487B7100000000000000000000000000000000000000000000000000000000 PUSH1 0x0 MSTORE PUSH1 0x22 PUSH1 0x4 MSTORE PUSH1 0x24 PUSH1 0x0 REVERT JUMPDEST PUSH1 0x0 PUSH1 0x2 DUP3 DIV SWAP1 POP PUSH1 0x1 DUP3 AND DUP1 PUSH2 0x16F9 JUMPI PUSH1 0x7F DUP3 AND SWAP2 POP JUMPDEST PUSH1 0x20 DUP3 LT DUP2 SUB PUSH2 0x170C JUMPI PUSH2 0x170B PUSH2 0x16B2 JUMP JUMPDEST JUMPDEST POP SWAP2 SWAP1 POP JUMP JUMPDEST PUSH1 0x0 PUSH1 0x40 DUP3 ADD SWAP1 POP PUSH2 0x1727 PUSH1 0x0 DUP4 ADD DUP6 PUSH2 0x1295 JUMP JUMPDEST PUSH2 0x1734 PUSH1 0x20 DUP4 ADD DUP5 PUSH2 0x1161 JUMP JUMPDEST SWAP4 SWAP3 POP POP POP JUMP JUMPDEST PUSH32 0x4E487B7100000000000000000000000000000000000000000000000000000000 PUSH1 0x0 MSTORE PUSH1 0x11 PUSH1 0x4 MSTORE PUSH1 0x24 PUSH1 0x0 REVERT JUMPDEST PUSH1 0x0 PUSH2 0x1775 DUP3 PUSH2 0x1086 JUMP JUMPDEST SWAP2 POP PUSH32 0xFFFFFFFFFFFFFFFFFFFFFFFFFFFFFFFFFFFFFFFFFFFFFFFFFFFFFFFFFFFFFFFF DUP3 SUB PUSH2 0x17A7 JUMPI PUSH2 0x17A6 PUSH2 0x173B JUMP JUMPDEST JUMPDEST PUSH1 0x1 DUP3 ADD SWAP1 POP SWAP2 SWAP1 POP JUMP JUMPDEST PUSH1 0x0 PUSH1 0x40 DUP3 ADD SWAP1 POP PUSH2 0x17C7 PUSH1 0x0 DUP4 ADD DUP6 PUSH2 0x1295 JUMP JUMPDEST PUSH2 0x17D4 PUSH1 0x20 DUP4 ADD DUP5 PUSH2 0x1295 JUMP JUMPDEST SWAP4 SWAP3 POP POP POP JUMP JUMPDEST PUSH1 0x0 DUP2 SWAP1 POP DUP2 PUSH1 0x0 MSTORE PUSH1 0x20 PUSH1 0x0 KECCAK256 SWAP1 POP SWAP2 SWAP1 POP JUMP JUMPDEST PUSH1 0x0 PUSH1 0x20 PUSH1 0x1F DUP4 ADD DIV SWAP1 POP SWAP2 SWAP1 POP JUMP JUMPDEST PUSH1 0x0 DUP3 DUP3 SHL SWAP1 POP SWAP3 SWAP2 POP POP JUMP JUMPDEST PUSH1 0x0 PUSH1 0x8 DUP4 MUL PUSH2 0x183D PUSH32 0xFFFFFFFFFFFFFFFFFFFFFFFFFFFFFFFFFFFFFFFFFFFFFFFFFFFFFFFFFFFFFFFF DUP3 PUSH2 0x1800 JUMP JUMPDEST PUSH2 0x1847 DUP7 DUP4 PUSH2 0x1800 JUMP JUMPDEST SWAP6 POP DUP1 NOT DUP5 AND SWAP4 POP DUP1 DUP7 AND DUP5 OR SWAP3 POP POP POP SWAP4 SWAP3 POP POP POP JUMP JUMPDEST PUSH1 0x0 DUP2 SWAP1 POP SWAP2 SWAP1 POP JUMP JUMPDEST PUSH1 0x0 PUSH2 0x1884 PUSH2 0x187F PUSH2 0x187A DUP5 PUSH2 0x1086 JUMP JUMPDEST PUSH2 0x185F JUMP JUMPDEST PUSH2 0x1086 JUMP JUMPDEST SWAP1 POP SWAP2 SWAP1 POP JUMP JUMPDEST PUSH1 0x0 DUP2 SWAP1 POP SWAP2 SWAP1 POP JUMP JUMPDEST PUSH2 0x189E DUP4 PUSH2 0x1869 JUMP JUMPDEST PUSH2 0x18B2 PUSH2 0x18AA DUP3 PUSH2 0x188B JUMP JUMPDEST DUP5 DUP5 SLOAD PUSH2 0x180D JUMP JUMPDEST DUP3 SSTORE POP POP POP POP JUMP JUMPDEST PUSH1 0x0 SWAP1 JUMP JUMPDEST PUSH2 0x18C7 PUSH2 0x18BA JUMP JUMPDEST PUSH2 0x18D2 DUP2 DUP5 DUP5 PUSH2 0x1895 JUMP JUMPDEST POP POP POP JUMP JUMPDEST JUMPDEST DUP2 DUP2 LT ISZERO PUSH2 0x18F6 JUMPI PUSH2 0x18EB PUSH1 0x0 DUP3 PUSH2 0x18BF JUMP JUMPDEST PUSH1 0x1 DUP2 ADD SWAP1 POP PUSH2 0x18D8 JUMP JUMPDEST POP POP JUMP JUMPDEST PUSH1 0x1F DUP3 GT ISZERO PUSH2 0x193B JUMPI PUSH2 0x190C DUP2 PUSH2 0x17DB JUMP JUMPDEST PUSH2 0x1915 DUP5 PUSH2 0x17F0 JUMP JUMPDEST DUP2 ADD PUSH1 0x20 DUP6 LT ISZERO PUSH2 0x1924 JUMPI DUP2 SWAP1 POP JUMPDEST PUSH2 0x1938 PUSH2 0x1930 DUP6 PUSH2 0x17F0 JUMP JUMPDEST DUP4 ADD DUP3 PUSH2 0x18D7 JUMP JUMPDEST POP POP JUMPDEST POP POP POP JUMP JUMPDEST PUSH1 0x0 DUP3 DUP3 SHR SWAP1 POP SWAP3 SWAP2 POP POP JUMP JUMPDEST PUSH1 0x0 PUSH2 0x195E PUSH1 0x0 NOT DUP5 PUSH1 0x8 MUL PUSH2 0x1940 JUMP JUMPDEST NOT DUP1 DUP4 AND SWAP2 POP POP SWAP3 SWAP2 POP POP JUMP JUMPDEST PUSH1 0x0 PUSH2 0x1977 DUP4 DUP4 PUSH2 0x194D JUMP JUMPDEST SWAP2 POP DUP3 PUSH1 0x2 MUL DUP3 OR SWAP1 POP SWAP3 SWAP2 POP POP JUMP JUMPDEST PUSH2 0x1990 DUP3 PUSH2 0xFC0 JUMP JUMPDEST PUSH8 0xFFFFFFFFFFFFFFFF DUP2 GT ISZERO PUSH2 0x19A9 JUMPI PUSH2 0x19A8 PUSH2 0x138D JUMP JUMPDEST JUMPDEST PUSH2 0x19B3 DUP3 SLOAD PUSH2 0x16E1 JUMP JUMPDEST PUSH2 0x19BE DUP3 DUP3 DUP6 PUSH2 0x18FA JUMP JUMPDEST PUSH1 0x0 PUSH1 0x20 SWAP1 POP PUSH1 0x1F DUP4 GT PUSH1 0x1 DUP2 EQ PUSH2 0x19F1 JUMPI PUSH1 0x0 DUP5 ISZERO PUSH2 0x19DF JUMPI DUP3 DUP8 ADD MLOAD SWAP1 POP JUMPDEST PUSH2 0x19E9 DUP6 DUP3 PUSH2 0x196B JUMP JUMPDEST DUP7 SSTORE POP PUSH2 0x1A51 JUMP JUMPDEST PUSH1 0x1F NOT DUP5 AND PUSH2 0x19FF DUP7 PUSH2 0x17DB JUMP JUMPDEST PUSH1 0x0 JUMPDEST DUP3 DUP2 LT ISZERO PUSH2 0x1A27 JUMPI DUP5 DUP10 ADD MLOAD DUP3 SSTORE PUSH1 0x1 DUP3 ADD SWAP2 POP PUSH1 0x20 DUP6 ADD SWAP5 POP PUSH1 0x20 DUP2 ADD SWAP1 POP PUSH2 0x1A02 JUMP JUMPDEST DUP7 DUP4 LT ISZERO PUSH2 0x1A44 JUMPI DUP5 DUP10 ADD MLOAD PUSH2 0x1A40 PUSH1 0x1F DUP10 AND DUP3 PUSH2 0x194D JUMP JUMPDEST DUP4 SSTORE POP JUMPDEST PUSH1 0x1 PUSH1 0x2 DUP9 MUL ADD DUP9 SSTORE POP POP POP JUMPDEST POP POP POP POP POP POP JUMP JUMPDEST PUSH32 0x4E487B7100000000000000000000000000000000000000000000000000000000 PUSH1 0x0 MSTORE PUSH1 0x32 PUSH1 0x4 MSTORE PUSH1 0x24 PUSH1 0x0 REVERT JUMPDEST PUSH1 0x0 PUSH1 0x20 DUP3 ADD SWAP1 POP PUSH2 0x1A9D PUSH1 0x0 DUP4 ADD DUP5 PUSH2 0x1295 JUMP JUMPDEST SWAP3 SWAP2 POP POP JUMP INVALID LOG2 PUSH5 0x6970667358 0x22 SLT KECCAK256 MUL 0x2E 0xDC 0xBB PUSH29 0x6595F6759B61D1677DA24AD033C2B2C58C4C2BCA831F1196C9D4B06473 PUSH16 0x6C634300081100330000000000000000 "
				},
				"gasEstimates": {
					"creation": {
						"codeDepositCost": "1374600",
						"executionCost": "infinite",
						"totalCost": "infinite"
					},
					"external": {
						"_conditionList(uint256)": "infinite",
						"_homesForSale(uint256)": "infinite",
						"_listOfOfferContracts(uint256)": "infinite",
						"accept(uint256,bool)": "infinite",
						"addPropertyForSale(address,address,string,string,uint256)": "infinite",
						"createConditionList(uint256)": "infinite",
						"createOfferContract(address,address,uint256,bool)": "infinite",
						"getHomesForSale()": "infinite",
						"getOfferContractDetailsById()": "infinite",
						"manageConditions(uint256,bool,bool,bool)": "infinite",
						"name()": "infinite",
						"symbol()": "infinite"
					}
				},
				"methodIdentifiers": {
					"_conditionList(uint256)": "53a68691",
					"_homesForSale(uint256)": "5496623a",
					"_listOfOfferContracts(uint256)": "554d8bb6",
					"accept(uint256,bool)": "3b41e19c",
					"addPropertyForSale(address,address,string,string,uint256)": "5e230c90",
					"createConditionList(uint256)": "3ad1ce1f",
					"createOfferContract(address,address,uint256,bool)": "43af9a8d",
					"getHomesForSale()": "dab62bed",
					"getOfferContractDetailsById()": "871457f6",
					"manageConditions(uint256,bool,bool,bool)": "fb2bbcd3",
					"name()": "06fdde03",
					"symbol()": "95d89b41"
				}
			},
			"storageLayout": {
				"storage": [
					{
						"astId": 3,
						"contract": "contracts/Comfree.sol:ComfreeProtocol",
						"label": "name",
						"offset": 0,
						"slot": "0",
						"type": "t_string_storage"
					},
					{
						"astId": 5,
						"contract": "contracts/Comfree.sol:ComfreeProtocol",
						"label": "symbol",
						"offset": 0,
						"slot": "1",
						"type": "t_string_storage"
					},
					{
						"astId": 57,
						"contract": "contracts/Comfree.sol:ComfreeProtocol",
						"label": "_homesForSale",
						"offset": 0,
						"slot": "2",
						"type": "t_mapping(t_uint256,t_struct(homeForSale)30_storage)"
					},
					{
						"astId": 62,
						"contract": "contracts/Comfree.sol:ComfreeProtocol",
						"label": "_listOfOfferContracts",
						"offset": 0,
						"slot": "3",
						"type": "t_mapping(t_uint256,t_struct(offerContract)43_storage)"
					},
					{
						"astId": 67,
						"contract": "contracts/Comfree.sol:ComfreeProtocol",
						"label": "_conditionList",
						"offset": 0,
						"slot": "4",
						"type": "t_mapping(t_uint256,t_struct(conditionList)52_storage)"
					},
					{
						"astId": 69,
						"contract": "contracts/Comfree.sol:ComfreeProtocol",
						"label": "homesForSaleCounter",
						"offset": 0,
						"slot": "5",
						"type": "t_uint256"
					},
					{
						"astId": 71,
						"contract": "contracts/Comfree.sol:ComfreeProtocol",
						"label": "listingCounter",
						"offset": 0,
						"slot": "6",
						"type": "t_uint256"
					},
					{
						"astId": 73,
						"contract": "contracts/Comfree.sol:ComfreeProtocol",
						"label": "conditionListCounter",
						"offset": 0,
						"slot": "7",
						"type": "t_uint256"
					},
					{
						"astId": 75,
						"contract": "contracts/Comfree.sol:ComfreeProtocol",
						"label": "offerContractCounter",
						"offset": 0,
						"slot": "8",
						"type": "t_uint256"
					}
				],
				"types": {
					"t_address": {
						"encoding": "inplace",
						"label": "address",
						"numberOfBytes": "20"
					},
					"t_bool": {
						"encoding": "inplace",
						"label": "bool",
						"numberOfBytes": "1"
					},
					"t_mapping(t_uint256,t_struct(conditionList)52_storage)": {
						"encoding": "mapping",
						"key": "t_uint256",
						"label": "mapping(uint256 => struct ComfreeProtocol.conditionList)",
						"numberOfBytes": "32",
						"value": "t_struct(conditionList)52_storage"
					},
					"t_mapping(t_uint256,t_struct(homeForSale)30_storage)": {
						"encoding": "mapping",
						"key": "t_uint256",
						"label": "mapping(uint256 => struct ComfreeProtocol.homeForSale)",
						"numberOfBytes": "32",
						"value": "t_struct(homeForSale)30_storage"
					},
					"t_mapping(t_uint256,t_struct(offerContract)43_storage)": {
						"encoding": "mapping",
						"key": "t_uint256",
						"label": "mapping(uint256 => struct ComfreeProtocol.offerContract)",
						"numberOfBytes": "32",
						"value": "t_struct(offerContract)43_storage"
					},
					"t_string_storage": {
						"encoding": "bytes",
						"label": "string",
						"numberOfBytes": "32"
					},
					"t_struct(conditionList)52_storage": {
						"encoding": "inplace",
						"label": "struct ComfreeProtocol.conditionList",
						"members": [
							{
								"astId": 45,
								"contract": "contracts/Comfree.sol:ComfreeProtocol",
								"label": "conditionMet",
								"offset": 0,
								"slot": "0",
								"type": "t_bool"
							},
							{
								"astId": 47,
								"contract": "contracts/Comfree.sol:ComfreeProtocol",
								"label": "WallsPainted",
								"offset": 1,
								"slot": "0",
								"type": "t_bool"
							},
							{
								"astId": 49,
								"contract": "contracts/Comfree.sol:ComfreeProtocol",
								"label": "CarpetCleaned",
								"offset": 2,
								"slot": "0",
								"type": "t_bool"
							},
							{
								"astId": 51,
								"contract": "contracts/Comfree.sol:ComfreeProtocol",
								"label": "WindowsWashed",
								"offset": 3,
								"slot": "0",
								"type": "t_bool"
							}
						],
						"numberOfBytes": "32"
					},
					"t_struct(homeForSale)30_storage": {
						"encoding": "inplace",
						"label": "struct ComfreeProtocol.homeForSale",
						"members": [
							{
								"astId": 19,
								"contract": "contracts/Comfree.sol:ComfreeProtocol",
								"label": "id",
								"offset": 0,
								"slot": "0",
								"type": "t_uint256"
							},
							{
								"astId": 21,
								"contract": "contracts/Comfree.sol:ComfreeProtocol",
								"label": "seller",
								"offset": 0,
								"slot": "1",
								"type": "t_address"
							},
							{
								"astId": 23,
								"contract": "contracts/Comfree.sol:ComfreeProtocol",
								"label": "buyer",
								"offset": 0,
								"slot": "2",
								"type": "t_address"
							},
							{
								"astId": 25,
								"contract": "contracts/Comfree.sol:ComfreeProtocol",
								"label": "imgurl",
								"offset": 0,
								"slot": "3",
								"type": "t_string_storage"
							},
							{
								"astId": 27,
								"contract": "contracts/Comfree.sol:ComfreeProtocol",
								"label": "propertyaddress",
								"offset": 0,
								"slot": "4",
								"type": "t_string_storage"
							},
							{
								"astId": 29,
								"contract": "contracts/Comfree.sol:ComfreeProtocol",
								"label": "ethprice",
								"offset": 0,
								"slot": "5",
								"type": "t_uint256"
							}
						],
						"numberOfBytes": "192"
					},
					"t_struct(offerContract)43_storage": {
						"encoding": "inplace",
						"label": "struct ComfreeProtocol.offerContract",
						"members": [
							{
								"astId": 32,
								"contract": "contracts/Comfree.sol:ComfreeProtocol",
								"label": "id",
								"offset": 0,
								"slot": "0",
								"type": "t_uint256"
							},
							{
								"astId": 34,
								"contract": "contracts/Comfree.sol:ComfreeProtocol",
								"label": "buyerAddress",
								"offset": 0,
								"slot": "1",
								"type": "t_address"
							},
							{
								"astId": 36,
								"contract": "contracts/Comfree.sol:ComfreeProtocol",
								"label": "sellerAddress",
								"offset": 0,
								"slot": "2",
								"type": "t_address"
							},
							{
								"astId": 38,
								"contract": "contracts/Comfree.sol:ComfreeProtocol",
								"label": "offerAmount",
								"offset": 0,
								"slot": "3",
								"type": "t_uint256"
							},
							{
								"astId": 40,
								"contract": "contracts/Comfree.sol:ComfreeProtocol",
								"label": "accepted",
								"offset": 0,
								"slot": "4",
								"type": "t_bool"
							},
							{
								"astId": 42,
								"contract": "contracts/Comfree.sol:ComfreeProtocol",
								"label": "conditionListId",
								"offset": 0,
								"slot": "5",
								"type": "t_uint256"
							}
						],
						"numberOfBytes": "192"
					},
					"t_uint256": {
						"encoding": "inplace",
						"label": "uint256",
						"numberOfBytes": "32"
					}
				}
			},
			"userdoc": {
				"kind": "user",
				"methods": {},
				"version": 1
			}
		}
	}
}