{
	"data": {
		"bytecode": {
			"linkReferences": {},
			"object": "60806040523480156200001157600080fd5b506040518060400160405280601081526020017f436f6d467265652050726f746f636f6c000000000000000000000000000000008152506000908162000058919062000320565b506040518060400160405280600781526020017f436f6d6672656500000000000000000000000000000000000000000000000000815250600190816200009f919062000320565b5062000407565b600081519050919050565b7f4e487b7100000000000000000000000000000000000000000000000000000000600052604160045260246000fd5b7f4e487b7100000000000000000000000000000000000000000000000000000000600052602260045260246000fd5b600060028204905060018216806200012857607f821691505b6020821081036200013e576200013d620000e0565b5b50919050565b60008190508160005260206000209050919050565b60006020601f8301049050919050565b600082821b905092915050565b600060088302620001a87fffffffffffffffffffffffffffffffffffffffffffffffffffffffffffffffff8262000169565b620001b4868362000169565b95508019841693508086168417925050509392505050565b6000819050919050565b6000819050919050565b600062000201620001fb620001f584620001cc565b620001d6565b620001cc565b9050919050565b6000819050919050565b6200021d83620001e0565b620002356200022c8262000208565b84845462000176565b825550505050565b600090565b6200024c6200023d565b6200025981848462000212565b505050565b5b8181101562000281576200027560008262000242565b6001810190506200025f565b5050565b601f821115620002d0576200029a8162000144565b620002a58462000159565b81016020851015620002b5578190505b620002cd620002c48562000159565b8301826200025e565b50505b505050565b600082821c905092915050565b6000620002f560001984600802620002d5565b1980831691505092915050565b6000620003108383620002e2565b9150826002028217905092915050565b6200032b82620000a6565b67ffffffffffffffff811115620003475762000346620000b1565b5b6200035382546200010f565b6200036082828562000285565b600060209050601f83116001811462000398576000841562000383578287015190505b6200038f858262000302565b865550620003ff565b601f198416620003a88662000144565b60005b82811015620003d257848901518255600182019150602085019450602081019050620003ab565b86831015620003f25784890151620003ee601f891682620002e2565b8355505b6001600288020188555050505b505050505050565b61118280620004176000396000f3fe608060405234801561001057600080fd5b50600436106100935760003560e01c806353a686911161006657806353a686911461011e578063554d8bb614610151578063871457f61461018957806395d89b41146101a7578063fb2bbcd3146101c557610093565b806306fdde031461009857806336f4ac6b146100b65780633ad1ce1f146100d25780633b41e19c146100ee575b600080fd5b6100a06101e1565b6040516100ad9190610b46565b60405180910390f35b6100d060048036038101906100cb9190610c39565b61026f565b005b6100ec60048036038101906100e79190610cdb565b61046e565b005b61010860048036038101906101039190610d08565b6105c3565b6040516101159190610d57565b60405180910390f35b61013860048036038101906101339190610cdb565b61066a565b6040516101489493929190610d72565b60405180910390f35b61016b60048036038101906101669190610cdb565b6106ce565b60405161018099989796959493929190610dd5565b60405180910390f35b610191610769565b60405161019e9190610f20565b60405180910390f35b6101af6108d2565b6040516101bc9190610b46565b60405180910390f35b6101df60048036038101906101da9190610f42565b610960565b005b600080546101ee90610fd8565b80601f016020809104026020016040519081016040528092919081815260200182805461021a90610fd8565b80156102675780601f1061023c57610100808354040283529160200191610267565b820191906000526020600020905b81548152906001019060200180831161024a57829003601f168201915b505050505081565b6005600081548092919061028290611038565b9190505550600554600260006005548152602001908152602001600020600001819055508660026000600554815260200190815260200160002060010160006101000a81548173ffffffffffffffffffffffffffffffffffffffff021916908373ffffffffffffffffffffffffffffffffffffffff1602179055508560026000600554815260200190815260200160002060020160006101000a81548173ffffffffffffffffffffffffffffffffffffffff021916908373ffffffffffffffffffffffffffffffffffffffff16021790555084600260006005548152602001908152602001600020600301819055508260026000600554815260200190815260200160002060040181905550836002600060055481526020019081526020016000206005018190555081600260006005548152602001908152602001600020600601819055508060026000600554815260200190815260200160002060070160006101000a81548160ff0219169083151502179055508573ffffffffffffffffffffffffffffffffffffffff168773ffffffffffffffffffffffffffffffffffffffff167fa5b221016d244158f755de9c5739283f750d2f7285cde6af0a9e11aafa1d602260055485888860405161045d9493929190611080565b60405180910390a350505050505050565b60006002600083815260200190815260200160002060070160009054906101000a900460ff16905060011515811515146104a757600080fd5b60006003600084815260200190815260200160002060000160006101000a81548160ff02191690831515021790555060006003600084815260200190815260200160002060000160016101000a81548160ff02191690831515021790555060006003600084815260200190815260200160002060000160026101000a81548160ff02191690831515021790555060006003600084815260200190815260200160002060000160036101000a81548160ff0219169083151502179055507f0985068d1545f3a3582c605476bc5fe6aaf9acc51845acef22cb74694222ea2e826003600085815260200190815260200160002060000160009054906101000a900460ff166040516105b79291906110c5565b60405180910390a15050565b60003373ffffffffffffffffffffffffffffffffffffffff166002600085815260200190815260200160002060020160009054906101000a900473ffffffffffffffffffffffffffffffffffffffff1673ffffffffffffffffffffffffffffffffffffffff160361063357600080fd5b816002600085815260200190815260200160002060070160006101000a81548160ff02191690831515021790555081905092915050565b60036020528060005260406000206000915090508060000160009054906101000a900460ff16908060000160019054906101000a900460ff16908060000160029054906101000a900460ff16908060000160039054906101000a900460ff16905084565b60026020528060005260406000206000915090508060000154908060010160009054906101000a900473ffffffffffffffffffffffffffffffffffffffff16908060020160009054906101000a900473ffffffffffffffffffffffffffffffffffffffff16908060030154908060040154908060050154908060060154908060070160009054906101000a900460ff16908060080154905089565b6060600060055467ffffffffffffffff811115610789576107886110ee565b5b6040519080825280602002602001820160405280156107b75781602001602082028036833780820191505090505b509050600080600190505b60055481116108225760026000828152602001908152602001600020600001548383815181106107f5576107f461111d565b5b602002602001018181525050818061080c90611038565b925050808061081a90611038565b9150506107c2565b5060008167ffffffffffffffff81111561083f5761083e6110ee565b5b60405190808252806020026020018201604052801561086d5781602001602082028036833780820191505090505b50905060005b828110156108c85783818151811061088e5761088d61111d565b5b60200260200101518282815181106108a9576108a861111d565b5b60200260200101818152505080806108c090611038565b915050610873565b5080935050505090565b600180546108df90610fd8565b80601f016020809104026020016040519081016040528092919081815260200182805461090b90610fd8565b80156109585780601f1061092d57610100808354040283529160200191610958565b820191906000526020600020905b81548152906001019060200180831161093b57829003601f168201915b505050505081565b826003600086815260200190815260200160002060000160016101000a81548160ff021916908315150217905550816003600086815260200190815260200160002060000160026101000a81548160ff021916908315150217905550806003600086815260200190815260200160002060000160036101000a81548160ff021916908315150217905550600115156003600086815260200190815260200160002060000160019054906101000a900460ff161515148015610a485750600115156003600086815260200190815260200160002060000160029054906101000a900460ff161515145b8015610a7b5750600115156003600086815260200190815260200160002060000160039054906101000a900460ff161515145b15610ab05760016003600086815260200190815260200160002060000160006101000a81548160ff0219169083151502179055505b50505050565b600081519050919050565b600082825260208201905092915050565b60005b83811015610af0578082015181840152602081019050610ad5565b60008484015250505050565b6000601f19601f8301169050919050565b6000610b1882610ab6565b610b228185610ac1565b9350610b32818560208601610ad2565b610b3b81610afc565b840191505092915050565b60006020820190508181036000830152610b608184610b0d565b905092915050565b600080fd5b600073ffffffffffffffffffffffffffffffffffffffff82169050919050565b6000610b9882610b6d565b9050919050565b610ba881610b8d565b8114610bb357600080fd5b50565b600081359050610bc581610b9f565b92915050565b6000819050919050565b610bde81610bcb565b8114610be957600080fd5b50565b600081359050610bfb81610bd5565b92915050565b60008115159050919050565b610c1681610c01565b8114610c2157600080fd5b50565b600081359050610c3381610c0d565b92915050565b600080600080600080600060e0888a031215610c5857610c57610b68565b5b6000610c668a828b01610bb6565b9750506020610c778a828b01610bb6565b9650506040610c888a828b01610bec565b9550506060610c998a828b01610bec565b9450506080610caa8a828b01610bec565b93505060a0610cbb8a828b01610bec565b92505060c0610ccc8a828b01610c24565b91505092959891949750929550565b600060208284031215610cf157610cf0610b68565b5b6000610cff84828501610bec565b91505092915050565b60008060408385031215610d1f57610d1e610b68565b5b6000610d2d85828601610bec565b9250506020610d3e85828601610c24565b9150509250929050565b610d5181610c01565b82525050565b6000602082019050610d6c6000830184610d48565b92915050565b6000608082019050610d876000830187610d48565b610d946020830186610d48565b610da16040830185610d48565b610dae6060830184610d48565b95945050505050565b610dc081610bcb565b82525050565b610dcf81610b8d565b82525050565b600061012082019050610deb600083018c610db7565b610df8602083018b610dc6565b610e05604083018a610dc6565b610e126060830189610db7565b610e1f6080830188610db7565b610e2c60a0830187610db7565b610e3960c0830186610db7565b610e4660e0830185610d48565b610e54610100830184610db7565b9a9950505050505050505050565b600081519050919050565b600082825260208201905092915050565b6000819050602082019050919050565b610e9781610bcb565b82525050565b6000610ea98383610e8e565b60208301905092915050565b6000602082019050919050565b6000610ecd82610e62565b610ed78185610e6d565b9350610ee283610e7e565b8060005b83811015610f13578151610efa8882610e9d565b9750610f0583610eb5565b925050600181019050610ee6565b5085935050505092915050565b60006020820190508181036000830152610f3a8184610ec2565b905092915050565b60008060008060808587031215610f5c57610f5b610b68565b5b6000610f6a87828801610bec565b9450506020610f7b87828801610c24565b9350506040610f8c87828801610c24565b9250506060610f9d87828801610c24565b91505092959194509250565b7f4e487b7100000000000000000000000000000000000000000000000000000000600052602260045260246000fd5b60006002820490506001821680610ff057607f821691505b60208210810361100357611002610fa9565b5b50919050565b7f4e487b7100000000000000000000000000000000000000000000000000000000600052601160045260246000fd5b600061104382610bcb565b91507fffffffffffffffffffffffffffffffffffffffffffffffffffffffffffffffff820361107557611074611009565b5b600182019050919050565b60006080820190506110956000830187610db7565b6110a26020830186610db7565b6110af6040830185610db7565b6110bc6060830184610db7565b95945050505050565b60006040820190506110da6000830185610db7565b6110e76020830184610d48565b9392505050565b7f4e487b7100000000000000000000000000000000000000000000000000000000600052604160045260246000fd5b7f4e487b7100000000000000000000000000000000000000000000000000000000600052603260045260246000fdfea2646970667358221220cfe6939f32fe3c391db4de016a411eebeae24a360df30533d3d3429294fa053b64736f6c63430008110033",
			"opcodes": "PUSH1 0x80 PUSH1 0x40 MSTORE CALLVALUE DUP1 ISZERO PUSH3 0x11 JUMPI PUSH1 0x0 DUP1 REVERT JUMPDEST POP PUSH1 0x40 MLOAD DUP1 PUSH1 0x40 ADD PUSH1 0x40 MSTORE DUP1 PUSH1 0x10 DUP2 MSTORE PUSH1 0x20 ADD PUSH32 0x436F6D467265652050726F746F636F6C00000000000000000000000000000000 DUP2 MSTORE POP PUSH1 0x0 SWAP1 DUP2 PUSH3 0x58 SWAP2 SWAP1 PUSH3 0x320 JUMP JUMPDEST POP PUSH1 0x40 MLOAD DUP1 PUSH1 0x40 ADD PUSH1 0x40 MSTORE DUP1 PUSH1 0x7 DUP2 MSTORE PUSH1 0x20 ADD PUSH32 0x436F6D6672656500000000000000000000000000000000000000000000000000 DUP2 MSTORE POP PUSH1 0x1 SWAP1 DUP2 PUSH3 0x9F SWAP2 SWAP1 PUSH3 0x320 JUMP JUMPDEST POP PUSH3 0x407 JUMP JUMPDEST PUSH1 0x0 DUP2 MLOAD SWAP1 POP SWAP2 SWAP1 POP JUMP JUMPDEST PUSH32 0x4E487B7100000000000000000000000000000000000000000000000000000000 PUSH1 0x0 MSTORE PUSH1 0x41 PUSH1 0x4 MSTORE PUSH1 0x24 PUSH1 0x0 REVERT JUMPDEST PUSH32 0x4E487B7100000000000000000000000000000000000000000000000000000000 PUSH1 0x0 MSTORE PUSH1 0x22 PUSH1 0x4 MSTORE PUSH1 0x24 PUSH1 0x0 REVERT JUMPDEST PUSH1 0x0 PUSH1 0x2 DUP3 DIV SWAP1 POP PUSH1 0x1 DUP3 AND DUP1 PUSH3 0x128 JUMPI PUSH1 0x7F DUP3 AND SWAP2 POP JUMPDEST PUSH1 0x20 DUP3 LT DUP2 SUB PUSH3 0x13E JUMPI PUSH3 0x13D PUSH3 0xE0 JUMP JUMPDEST JUMPDEST POP SWAP2 SWAP1 POP JUMP JUMPDEST PUSH1 0x0 DUP2 SWAP1 POP DUP2 PUSH1 0x0 MSTORE PUSH1 0x20 PUSH1 0x0 KECCAK256 SWAP1 POP SWAP2 SWAP1 POP JUMP JUMPDEST PUSH1 0x0 PUSH1 0x20 PUSH1 0x1F DUP4 ADD DIV SWAP1 POP SWAP2 SWAP1 POP JUMP JUMPDEST PUSH1 0x0 DUP3 DUP3 SHL SWAP1 POP SWAP3 SWAP2 POP POP JUMP JUMPDEST PUSH1 0x0 PUSH1 0x8 DUP4 MUL PUSH3 0x1A8 PUSH32 0xFFFFFFFFFFFFFFFFFFFFFFFFFFFFFFFFFFFFFFFFFFFFFFFFFFFFFFFFFFFFFFFF DUP3 PUSH3 0x169 JUMP JUMPDEST PUSH3 0x1B4 DUP7 DUP4 PUSH3 0x169 JUMP JUMPDEST SWAP6 POP DUP1 NOT DUP5 AND SWAP4 POP DUP1 DUP7 AND DUP5 OR SWAP3 POP POP POP SWAP4 SWAP3 POP POP POP JUMP JUMPDEST PUSH1 0x0 DUP2 SWAP1 POP SWAP2 SWAP1 POP JUMP JUMPDEST PUSH1 0x0 DUP2 SWAP1 POP SWAP2 SWAP1 POP JUMP JUMPDEST PUSH1 0x0 PUSH3 0x201 PUSH3 0x1FB PUSH3 0x1F5 DUP5 PUSH3 0x1CC JUMP JUMPDEST PUSH3 0x1D6 JUMP JUMPDEST PUSH3 0x1CC JUMP JUMPDEST SWAP1 POP SWAP2 SWAP1 POP JUMP JUMPDEST PUSH1 0x0 DUP2 SWAP1 POP SWAP2 SWAP1 POP JUMP JUMPDEST PUSH3 0x21D DUP4 PUSH3 0x1E0 JUMP JUMPDEST PUSH3 0x235 PUSH3 0x22C DUP3 PUSH3 0x208 JUMP JUMPDEST DUP5 DUP5 SLOAD PUSH3 0x176 JUMP JUMPDEST DUP3 SSTORE POP POP POP POP JUMP JUMPDEST PUSH1 0x0 SWAP1 JUMP JUMPDEST PUSH3 0x24C PUSH3 0x23D JUMP JUMPDEST PUSH3 0x259 DUP2 DUP5 DUP5 PUSH3 0x212 JUMP JUMPDEST POP POP POP JUMP JUMPDEST JUMPDEST DUP2 DUP2 LT ISZERO PUSH3 0x281 JUMPI PUSH3 0x275 PUSH1 0x0 DUP3 PUSH3 0x242 JUMP JUMPDEST PUSH1 0x1 DUP2 ADD SWAP1 POP PUSH3 0x25F JUMP JUMPDEST POP POP JUMP JUMPDEST PUSH1 0x1F DUP3 GT ISZERO PUSH3 0x2D0 JUMPI PUSH3 0x29A DUP2 PUSH3 0x144 JUMP JUMPDEST PUSH3 0x2A5 DUP5 PUSH3 0x159 JUMP JUMPDEST DUP2 ADD PUSH1 0x20 DUP6 LT ISZERO PUSH3 0x2B5 JUMPI DUP2 SWAP1 POP JUMPDEST PUSH3 0x2CD PUSH3 0x2C4 DUP6 PUSH3 0x159 JUMP JUMPDEST DUP4 ADD DUP3 PUSH3 0x25E JUMP JUMPDEST POP POP JUMPDEST POP POP POP JUMP JUMPDEST PUSH1 0x0 DUP3 DUP3 SHR SWAP1 POP SWAP3 SWAP2 POP POP JUMP JUMPDEST PUSH1 0x0 PUSH3 0x2F5 PUSH1 0x0 NOT DUP5 PUSH1 0x8 MUL PUSH3 0x2D5 JUMP JUMPDEST NOT DUP1 DUP4 AND SWAP2 POP POP SWAP3 SWAP2 POP POP JUMP JUMPDEST PUSH1 0x0 PUSH3 0x310 DUP4 DUP4 PUSH3 0x2E2 JUMP JUMPDEST SWAP2 POP DUP3 PUSH1 0x2 MUL DUP3 OR SWAP1 POP SWAP3 SWAP2 POP POP JUMP JUMPDEST PUSH3 0x32B DUP3 PUSH3 0xA6 JUMP JUMPDEST PUSH8 0xFFFFFFFFFFFFFFFF DUP2 GT ISZERO PUSH3 0x347 JUMPI PUSH3 0x346 PUSH3 0xB1 JUMP JUMPDEST JUMPDEST PUSH3 0x353 DUP3 SLOAD PUSH3 0x10F JUMP JUMPDEST PUSH3 0x360 DUP3 DUP3 DUP6 PUSH3 0x285 JUMP JUMPDEST PUSH1 0x0 PUSH1 0x20 SWAP1 POP PUSH1 0x1F DUP4 GT PUSH1 0x1 DUP2 EQ PUSH3 0x398 JUMPI PUSH1 0x0 DUP5 ISZERO PUSH3 0x383 JUMPI DUP3 DUP8 ADD MLOAD SWAP1 POP JUMPDEST PUSH3 0x38F DUP6 DUP3 PUSH3 0x302 JUMP JUMPDEST DUP7 SSTORE POP PUSH3 0x3FF JUMP JUMPDEST PUSH1 0x1F NOT DUP5 AND PUSH3 0x3A8 DUP7 PUSH3 0x144 JUMP JUMPDEST PUSH1 0x0 JUMPDEST DUP3 DUP2 LT ISZERO PUSH3 0x3D2 JUMPI DUP5 DUP10 ADD MLOAD DUP3 SSTORE PUSH1 0x1 DUP3 ADD SWAP2 POP PUSH1 0x20 DUP6 ADD SWAP5 POP PUSH1 0x20 DUP2 ADD SWAP1 POP PUSH3 0x3AB JUMP JUMPDEST DUP7 DUP4 LT ISZERO PUSH3 0x3F2 JUMPI DUP5 DUP10 ADD MLOAD PUSH3 0x3EE PUSH1 0x1F DUP10 AND DUP3 PUSH3 0x2E2 JUMP JUMPDEST DUP4 SSTORE POP JUMPDEST PUSH1 0x1 PUSH1 0x2 DUP9 MUL ADD DUP9 SSTORE POP POP POP JUMPDEST POP POP POP POP POP POP JUMP JUMPDEST PUSH2 0x1182 DUP1 PUSH3 0x417 PUSH1 0x0 CODECOPY PUSH1 0x0 RETURN INVALID PUSH1 0x80 PUSH1 0x40 MSTORE CALLVALUE DUP1 ISZERO PUSH2 0x10 JUMPI PUSH1 0x0 DUP1 REVERT JUMPDEST POP PUSH1 0x4 CALLDATASIZE LT PUSH2 0x93 JUMPI PUSH1 0x0 CALLDATALOAD PUSH1 0xE0 SHR DUP1 PUSH4 0x53A68691 GT PUSH2 0x66 JUMPI DUP1 PUSH4 0x53A68691 EQ PUSH2 0x11E JUMPI DUP1 PUSH4 0x554D8BB6 EQ PUSH2 0x151 JUMPI DUP1 PUSH4 0x871457F6 EQ PUSH2 0x189 JUMPI DUP1 PUSH4 0x95D89B41 EQ PUSH2 0x1A7 JUMPI DUP1 PUSH4 0xFB2BBCD3 EQ PUSH2 0x1C5 JUMPI PUSH2 0x93 JUMP JUMPDEST DUP1 PUSH4 0x6FDDE03 EQ PUSH2 0x98 JUMPI DUP1 PUSH4 0x36F4AC6B EQ PUSH2 0xB6 JUMPI DUP1 PUSH4 0x3AD1CE1F EQ PUSH2 0xD2 JUMPI DUP1 PUSH4 0x3B41E19C EQ PUSH2 0xEE JUMPI JUMPDEST PUSH1 0x0 DUP1 REVERT JUMPDEST PUSH2 0xA0 PUSH2 0x1E1 JUMP JUMPDEST PUSH1 0x40 MLOAD PUSH2 0xAD SWAP2 SWAP1 PUSH2 0xB46 JUMP JUMPDEST PUSH1 0x40 MLOAD DUP1 SWAP2 SUB SWAP1 RETURN JUMPDEST PUSH2 0xD0 PUSH1 0x4 DUP1 CALLDATASIZE SUB DUP2 ADD SWAP1 PUSH2 0xCB SWAP2 SWAP1 PUSH2 0xC39 JUMP JUMPDEST PUSH2 0x26F JUMP JUMPDEST STOP JUMPDEST PUSH2 0xEC PUSH1 0x4 DUP1 CALLDATASIZE SUB DUP2 ADD SWAP1 PUSH2 0xE7 SWAP2 SWAP1 PUSH2 0xCDB JUMP JUMPDEST PUSH2 0x46E JUMP JUMPDEST STOP JUMPDEST PUSH2 0x108 PUSH1 0x4 DUP1 CALLDATASIZE SUB DUP2 ADD SWAP1 PUSH2 0x103 SWAP2 SWAP1 PUSH2 0xD08 JUMP JUMPDEST PUSH2 0x5C3 JUMP JUMPDEST PUSH1 0x40 MLOAD PUSH2 0x115 SWAP2 SWAP1 PUSH2 0xD57 JUMP JUMPDEST PUSH1 0x40 MLOAD DUP1 SWAP2 SUB SWAP1 RETURN JUMPDEST PUSH2 0x138 PUSH1 0x4 DUP1 CALLDATASIZE SUB DUP2 ADD SWAP1 PUSH2 0x133 SWAP2 SWAP1 PUSH2 0xCDB JUMP JUMPDEST PUSH2 0x66A JUMP JUMPDEST PUSH1 0x40 MLOAD PUSH2 0x148 SWAP5 SWAP4 SWAP3 SWAP2 SWAP1 PUSH2 0xD72 JUMP JUMPDEST PUSH1 0x40 MLOAD DUP1 SWAP2 SUB SWAP1 RETURN JUMPDEST PUSH2 0x16B PUSH1 0x4 DUP1 CALLDATASIZE SUB DUP2 ADD SWAP1 PUSH2 0x166 SWAP2 SWAP1 PUSH2 0xCDB JUMP JUMPDEST PUSH2 0x6CE JUMP JUMPDEST PUSH1 0x40 MLOAD PUSH2 0x180 SWAP10 SWAP9 SWAP8 SWAP7 SWAP6 SWAP5 SWAP4 SWAP3 SWAP2 SWAP1 PUSH2 0xDD5 JUMP JUMPDEST PUSH1 0x40 MLOAD DUP1 SWAP2 SUB SWAP1 RETURN JUMPDEST PUSH2 0x191 PUSH2 0x769 JUMP JUMPDEST PUSH1 0x40 MLOAD PUSH2 0x19E SWAP2 SWAP1 PUSH2 0xF20 JUMP JUMPDEST PUSH1 0x40 MLOAD DUP1 SWAP2 SUB SWAP1 RETURN JUMPDEST PUSH2 0x1AF PUSH2 0x8D2 JUMP JUMPDEST PUSH1 0x40 MLOAD PUSH2 0x1BC SWAP2 SWAP1 PUSH2 0xB46 JUMP JUMPDEST PUSH1 0x40 MLOAD DUP1 SWAP2 SUB SWAP1 RETURN JUMPDEST PUSH2 0x1DF PUSH1 0x4 DUP1 CALLDATASIZE SUB DUP2 ADD SWAP1 PUSH2 0x1DA SWAP2 SWAP1 PUSH2 0xF42 JUMP JUMPDEST PUSH2 0x960 JUMP JUMPDEST STOP JUMPDEST PUSH1 0x0 DUP1 SLOAD PUSH2 0x1EE SWAP1 PUSH2 0xFD8 JUMP JUMPDEST DUP1 PUSH1 0x1F ADD PUSH1 0x20 DUP1 SWAP2 DIV MUL PUSH1 0x20 ADD PUSH1 0x40 MLOAD SWAP1 DUP2 ADD PUSH1 0x40 MSTORE DUP1 SWAP3 SWAP2 SWAP1 DUP2 DUP2 MSTORE PUSH1 0x20 ADD DUP3 DUP1 SLOAD PUSH2 0x21A SWAP1 PUSH2 0xFD8 JUMP JUMPDEST DUP1 ISZERO PUSH2 0x267 JUMPI DUP1 PUSH1 0x1F LT PUSH2 0x23C JUMPI PUSH2 0x100 DUP1 DUP4 SLOAD DIV MUL DUP4 MSTORE SWAP2 PUSH1 0x20 ADD SWAP2 PUSH2 0x267 JUMP JUMPDEST DUP3 ADD SWAP2 SWAP1 PUSH1 0x0 MSTORE PUSH1 0x20 PUSH1 0x0 KECCAK256 SWAP1 JUMPDEST DUP2 SLOAD DUP2 MSTORE SWAP1 PUSH1 0x1 ADD SWAP1 PUSH1 0x20 ADD DUP1 DUP4 GT PUSH2 0x24A JUMPI DUP3 SWAP1 SUB PUSH1 0x1F AND DUP3 ADD SWAP2 JUMPDEST POP POP POP POP POP DUP2 JUMP JUMPDEST PUSH1 0x5 PUSH1 0x0 DUP2 SLOAD DUP1 SWAP3 SWAP2 SWAP1 PUSH2 0x282 SWAP1 PUSH2 0x1038 JUMP JUMPDEST SWAP2 SWAP1 POP SSTORE POP PUSH1 0x5 SLOAD PUSH1 0x2 PUSH1 0x0 PUSH1 0x5 SLOAD DUP2 MSTORE PUSH1 0x20 ADD SWAP1 DUP2 MSTORE PUSH1 0x20 ADD PUSH1 0x0 KECCAK256 PUSH1 0x0 ADD DUP2 SWAP1 SSTORE POP DUP7 PUSH1 0x2 PUSH1 0x0 PUSH1 0x5 SLOAD DUP2 MSTORE PUSH1 0x20 ADD SWAP1 DUP2 MSTORE PUSH1 0x20 ADD PUSH1 0x0 KECCAK256 PUSH1 0x1 ADD PUSH1 0x0 PUSH2 0x100 EXP DUP2 SLOAD DUP2 PUSH20 0xFFFFFFFFFFFFFFFFFFFFFFFFFFFFFFFFFFFFFFFF MUL NOT AND SWAP1 DUP4 PUSH20 0xFFFFFFFFFFFFFFFFFFFFFFFFFFFFFFFFFFFFFFFF AND MUL OR SWAP1 SSTORE POP DUP6 PUSH1 0x2 PUSH1 0x0 PUSH1 0x5 SLOAD DUP2 MSTORE PUSH1 0x20 ADD SWAP1 DUP2 MSTORE PUSH1 0x20 ADD PUSH1 0x0 KECCAK256 PUSH1 0x2 ADD PUSH1 0x0 PUSH2 0x100 EXP DUP2 SLOAD DUP2 PUSH20 0xFFFFFFFFFFFFFFFFFFFFFFFFFFFFFFFFFFFFFFFF MUL NOT AND SWAP1 DUP4 PUSH20 0xFFFFFFFFFFFFFFFFFFFFFFFFFFFFFFFFFFFFFFFF AND MUL OR SWAP1 SSTORE POP DUP5 PUSH1 0x2 PUSH1 0x0 PUSH1 0x5 SLOAD DUP2 MSTORE PUSH1 0x20 ADD SWAP1 DUP2 MSTORE PUSH1 0x20 ADD PUSH1 0x0 KECCAK256 PUSH1 0x3 ADD DUP2 SWAP1 SSTORE POP DUP3 PUSH1 0x2 PUSH1 0x0 PUSH1 0x5 SLOAD DUP2 MSTORE PUSH1 0x20 ADD SWAP1 DUP2 MSTORE PUSH1 0x20 ADD PUSH1 0x0 KECCAK256 PUSH1 0x4 ADD DUP2 SWAP1 SSTORE POP DUP4 PUSH1 0x2 PUSH1 0x0 PUSH1 0x5 SLOAD DUP2 MSTORE PUSH1 0x20 ADD SWAP1 DUP2 MSTORE PUSH1 0x20 ADD PUSH1 0x0 KECCAK256 PUSH1 0x5 ADD DUP2 SWAP1 SSTORE POP DUP2 PUSH1 0x2 PUSH1 0x0 PUSH1 0x5 SLOAD DUP2 MSTORE PUSH1 0x20 ADD SWAP1 DUP2 MSTORE PUSH1 0x20 ADD PUSH1 0x0 KECCAK256 PUSH1 0x6 ADD DUP2 SWAP1 SSTORE POP DUP1 PUSH1 0x2 PUSH1 0x0 PUSH1 0x5 SLOAD DUP2 MSTORE PUSH1 0x20 ADD SWAP1 DUP2 MSTORE PUSH1 0x20 ADD PUSH1 0x0 KECCAK256 PUSH1 0x7 ADD PUSH1 0x0 PUSH2 0x100 EXP DUP2 SLOAD DUP2 PUSH1 0xFF MUL NOT AND SWAP1 DUP4 ISZERO ISZERO MUL OR SWAP1 SSTORE POP DUP6 PUSH20 0xFFFFFFFFFFFFFFFFFFFFFFFFFFFFFFFFFFFFFFFF AND DUP8 PUSH20 0xFFFFFFFFFFFFFFFFFFFFFFFFFFFFFFFFFFFFFFFF AND PUSH32 0xA5B221016D244158F755DE9C5739283F750D2F7285CDE6AF0A9E11AAFA1D6022 PUSH1 0x5 SLOAD DUP6 DUP9 DUP9 PUSH1 0x40 MLOAD PUSH2 0x45D SWAP5 SWAP4 SWAP3 SWAP2 SWAP1 PUSH2 0x1080 JUMP JUMPDEST PUSH1 0x40 MLOAD DUP1 SWAP2 SUB SWAP1 LOG3 POP POP POP POP POP POP POP JUMP JUMPDEST PUSH1 0x0 PUSH1 0x2 PUSH1 0x0 DUP4 DUP2 MSTORE PUSH1 0x20 ADD SWAP1 DUP2 MSTORE PUSH1 0x20 ADD PUSH1 0x0 KECCAK256 PUSH1 0x7 ADD PUSH1 0x0 SWAP1 SLOAD SWAP1 PUSH2 0x100 EXP SWAP1 DIV PUSH1 0xFF AND SWAP1 POP PUSH1 0x1 ISZERO ISZERO DUP2 ISZERO ISZERO EQ PUSH2 0x4A7 JUMPI PUSH1 0x0 DUP1 REVERT JUMPDEST PUSH1 0x0 PUSH1 0x3 PUSH1 0x0 DUP5 DUP2 MSTORE PUSH1 0x20 ADD SWAP1 DUP2 MSTORE PUSH1 0x20 ADD PUSH1 0x0 KECCAK256 PUSH1 0x0 ADD PUSH1 0x0 PUSH2 0x100 EXP DUP2 SLOAD DUP2 PUSH1 0xFF MUL NOT AND SWAP1 DUP4 ISZERO ISZERO MUL OR SWAP1 SSTORE POP PUSH1 0x0 PUSH1 0x3 PUSH1 0x0 DUP5 DUP2 MSTORE PUSH1 0x20 ADD SWAP1 DUP2 MSTORE PUSH1 0x20 ADD PUSH1 0x0 KECCAK256 PUSH1 0x0 ADD PUSH1 0x1 PUSH2 0x100 EXP DUP2 SLOAD DUP2 PUSH1 0xFF MUL NOT AND SWAP1 DUP4 ISZERO ISZERO MUL OR SWAP1 SSTORE POP PUSH1 0x0 PUSH1 0x3 PUSH1 0x0 DUP5 DUP2 MSTORE PUSH1 0x20 ADD SWAP1 DUP2 MSTORE PUSH1 0x20 ADD PUSH1 0x0 KECCAK256 PUSH1 0x0 ADD PUSH1 0x2 PUSH2 0x100 EXP DUP2 SLOAD DUP2 PUSH1 0xFF MUL NOT AND SWAP1 DUP4 ISZERO ISZERO MUL OR SWAP1 SSTORE POP PUSH1 0x0 PUSH1 0x3 PUSH1 0x0 DUP5 DUP2 MSTORE PUSH1 0x20 ADD SWAP1 DUP2 MSTORE PUSH1 0x20 ADD PUSH1 0x0 KECCAK256 PUSH1 0x0 ADD PUSH1 0x3 PUSH2 0x100 EXP DUP2 SLOAD DUP2 PUSH1 0xFF MUL NOT AND SWAP1 DUP4 ISZERO ISZERO MUL OR SWAP1 SSTORE POP PUSH32 0x985068D1545F3A3582C605476BC5FE6AAF9ACC51845ACEF22CB74694222EA2E DUP3 PUSH1 0x3 PUSH1 0x0 DUP6 DUP2 MSTORE PUSH1 0x20 ADD SWAP1 DUP2 MSTORE PUSH1 0x20 ADD PUSH1 0x0 KECCAK256 PUSH1 0x0 ADD PUSH1 0x0 SWAP1 SLOAD SWAP1 PUSH2 0x100 EXP SWAP1 DIV PUSH1 0xFF AND PUSH1 0x40 MLOAD PUSH2 0x5B7 SWAP3 SWAP2 SWAP1 PUSH2 0x10C5 JUMP JUMPDEST PUSH1 0x40 MLOAD DUP1 SWAP2 SUB SWAP1 LOG1 POP POP JUMP JUMPDEST PUSH1 0x0 CALLER PUSH20 0xFFFFFFFFFFFFFFFFFFFFFFFFFFFFFFFFFFFFFFFF AND PUSH1 0x2 PUSH1 0x0 DUP6 DUP2 MSTORE PUSH1 0x20 ADD SWAP1 DUP2 MSTORE PUSH1 0x20 ADD PUSH1 0x0 KECCAK256 PUSH1 0x2 ADD PUSH1 0x0 SWAP1 SLOAD SWAP1 PUSH2 0x100 EXP SWAP1 DIV PUSH20 0xFFFFFFFFFFFFFFFFFFFFFFFFFFFFFFFFFFFFFFFF AND PUSH20 0xFFFFFFFFFFFFFFFFFFFFFFFFFFFFFFFFFFFFFFFF AND SUB PUSH2 0x633 JUMPI PUSH1 0x0 DUP1 REVERT JUMPDEST DUP2 PUSH1 0x2 PUSH1 0x0 DUP6 DUP2 MSTORE PUSH1 0x20 ADD SWAP1 DUP2 MSTORE PUSH1 0x20 ADD PUSH1 0x0 KECCAK256 PUSH1 0x7 ADD PUSH1 0x0 PUSH2 0x100 EXP DUP2 SLOAD DUP2 PUSH1 0xFF MUL NOT AND SWAP1 DUP4 ISZERO ISZERO MUL OR SWAP1 SSTORE POP DUP2 SWAP1 POP SWAP3 SWAP2 POP POP JUMP JUMPDEST PUSH1 0x3 PUSH1 0x20 MSTORE DUP1 PUSH1 0x0 MSTORE PUSH1 0x40 PUSH1 0x0 KECCAK256 PUSH1 0x0 SWAP2 POP SWAP1 POP DUP1 PUSH1 0x0 ADD PUSH1 0x0 SWAP1 SLOAD SWAP1 PUSH2 0x100 EXP SWAP1 DIV PUSH1 0xFF AND SWAP1 DUP1 PUSH1 0x0 ADD PUSH1 0x1 SWAP1 SLOAD SWAP1 PUSH2 0x100 EXP SWAP1 DIV PUSH1 0xFF AND SWAP1 DUP1 PUSH1 0x0 ADD PUSH1 0x2 SWAP1 SLOAD SWAP1 PUSH2 0x100 EXP SWAP1 DIV PUSH1 0xFF AND SWAP1 DUP1 PUSH1 0x0 ADD PUSH1 0x3 SWAP1 SLOAD SWAP1 PUSH2 0x100 EXP SWAP1 DIV PUSH1 0xFF AND SWAP1 POP DUP5 JUMP JUMPDEST PUSH1 0x2 PUSH1 0x20 MSTORE DUP1 PUSH1 0x0 MSTORE PUSH1 0x40 PUSH1 0x0 KECCAK256 PUSH1 0x0 SWAP2 POP SWAP1 POP DUP1 PUSH1 0x0 ADD SLOAD SWAP1 DUP1 PUSH1 0x1 ADD PUSH1 0x0 SWAP1 SLOAD SWAP1 PUSH2 0x100 EXP SWAP1 DIV PUSH20 0xFFFFFFFFFFFFFFFFFFFFFFFFFFFFFFFFFFFFFFFF AND SWAP1 DUP1 PUSH1 0x2 ADD PUSH1 0x0 SWAP1 SLOAD SWAP1 PUSH2 0x100 EXP SWAP1 DIV PUSH20 0xFFFFFFFFFFFFFFFFFFFFFFFFFFFFFFFFFFFFFFFF AND SWAP1 DUP1 PUSH1 0x3 ADD SLOAD SWAP1 DUP1 PUSH1 0x4 ADD SLOAD SWAP1 DUP1 PUSH1 0x5 ADD SLOAD SWAP1 DUP1 PUSH1 0x6 ADD SLOAD SWAP1 DUP1 PUSH1 0x7 ADD PUSH1 0x0 SWAP1 SLOAD SWAP1 PUSH2 0x100 EXP SWAP1 DIV PUSH1 0xFF AND SWAP1 DUP1 PUSH1 0x8 ADD SLOAD SWAP1 POP DUP10 JUMP JUMPDEST PUSH1 0x60 PUSH1 0x0 PUSH1 0x5 SLOAD PUSH8 0xFFFFFFFFFFFFFFFF DUP2 GT ISZERO PUSH2 0x789 JUMPI PUSH2 0x788 PUSH2 0x10EE JUMP JUMPDEST JUMPDEST PUSH1 0x40 MLOAD SWAP1 DUP1 DUP3 MSTORE DUP1 PUSH1 0x20 MUL PUSH1 0x20 ADD DUP3 ADD PUSH1 0x40 MSTORE DUP1 ISZERO PUSH2 0x7B7 JUMPI DUP2 PUSH1 0x20 ADD PUSH1 0x20 DUP3 MUL DUP1 CALLDATASIZE DUP4 CALLDATACOPY DUP1 DUP3 ADD SWAP2 POP POP SWAP1 POP JUMPDEST POP SWAP1 POP PUSH1 0x0 DUP1 PUSH1 0x1 SWAP1 POP JUMPDEST PUSH1 0x5 SLOAD DUP2 GT PUSH2 0x822 JUMPI PUSH1 0x2 PUSH1 0x0 DUP3 DUP2 MSTORE PUSH1 0x20 ADD SWAP1 DUP2 MSTORE PUSH1 0x20 ADD PUSH1 0x0 KECCAK256 PUSH1 0x0 ADD SLOAD DUP4 DUP4 DUP2 MLOAD DUP2 LT PUSH2 0x7F5 JUMPI PUSH2 0x7F4 PUSH2 0x111D JUMP JUMPDEST JUMPDEST PUSH1 0x20 MUL PUSH1 0x20 ADD ADD DUP2 DUP2 MSTORE POP POP DUP2 DUP1 PUSH2 0x80C SWAP1 PUSH2 0x1038 JUMP JUMPDEST SWAP3 POP POP DUP1 DUP1 PUSH2 0x81A SWAP1 PUSH2 0x1038 JUMP JUMPDEST SWAP2 POP POP PUSH2 0x7C2 JUMP JUMPDEST POP PUSH1 0x0 DUP2 PUSH8 0xFFFFFFFFFFFFFFFF DUP2 GT ISZERO PUSH2 0x83F JUMPI PUSH2 0x83E PUSH2 0x10EE JUMP JUMPDEST JUMPDEST PUSH1 0x40 MLOAD SWAP1 DUP1 DUP3 MSTORE DUP1 PUSH1 0x20 MUL PUSH1 0x20 ADD DUP3 ADD PUSH1 0x40 MSTORE DUP1 ISZERO PUSH2 0x86D JUMPI DUP2 PUSH1 0x20 ADD PUSH1 0x20 DUP3 MUL DUP1 CALLDATASIZE DUP4 CALLDATACOPY DUP1 DUP3 ADD SWAP2 POP POP SWAP1 POP JUMPDEST POP SWAP1 POP PUSH1 0x0 JUMPDEST DUP3 DUP2 LT ISZERO PUSH2 0x8C8 JUMPI DUP4 DUP2 DUP2 MLOAD DUP2 LT PUSH2 0x88E JUMPI PUSH2 0x88D PUSH2 0x111D JUMP JUMPDEST JUMPDEST PUSH1 0x20 MUL PUSH1 0x20 ADD ADD MLOAD DUP3 DUP3 DUP2 MLOAD DUP2 LT PUSH2 0x8A9 JUMPI PUSH2 0x8A8 PUSH2 0x111D JUMP JUMPDEST JUMPDEST PUSH1 0x20 MUL PUSH1 0x20 ADD ADD DUP2 DUP2 MSTORE POP POP DUP1 DUP1 PUSH2 0x8C0 SWAP1 PUSH2 0x1038 JUMP JUMPDEST SWAP2 POP POP PUSH2 0x873 JUMP JUMPDEST POP DUP1 SWAP4 POP POP POP POP SWAP1 JUMP JUMPDEST PUSH1 0x1 DUP1 SLOAD PUSH2 0x8DF SWAP1 PUSH2 0xFD8 JUMP JUMPDEST DUP1 PUSH1 0x1F ADD PUSH1 0x20 DUP1 SWAP2 DIV MUL PUSH1 0x20 ADD PUSH1 0x40 MLOAD SWAP1 DUP2 ADD PUSH1 0x40 MSTORE DUP1 SWAP3 SWAP2 SWAP1 DUP2 DUP2 MSTORE PUSH1 0x20 ADD DUP3 DUP1 SLOAD PUSH2 0x90B SWAP1 PUSH2 0xFD8 JUMP JUMPDEST DUP1 ISZERO PUSH2 0x958 JUMPI DUP1 PUSH1 0x1F LT PUSH2 0x92D JUMPI PUSH2 0x100 DUP1 DUP4 SLOAD DIV MUL DUP4 MSTORE SWAP2 PUSH1 0x20 ADD SWAP2 PUSH2 0x958 JUMP JUMPDEST DUP3 ADD SWAP2 SWAP1 PUSH1 0x0 MSTORE PUSH1 0x20 PUSH1 0x0 KECCAK256 SWAP1 JUMPDEST DUP2 SLOAD DUP2 MSTORE SWAP1 PUSH1 0x1 ADD SWAP1 PUSH1 0x20 ADD DUP1 DUP4 GT PUSH2 0x93B JUMPI DUP3 SWAP1 SUB PUSH1 0x1F AND DUP3 ADD SWAP2 JUMPDEST POP POP POP POP POP DUP2 JUMP JUMPDEST DUP3 PUSH1 0x3 PUSH1 0x0 DUP7 DUP2 MSTORE PUSH1 0x20 ADD SWAP1 DUP2 MSTORE PUSH1 0x20 ADD PUSH1 0x0 KECCAK256 PUSH1 0x0 ADD PUSH1 0x1 PUSH2 0x100 EXP DUP2 SLOAD DUP2 PUSH1 0xFF MUL NOT AND SWAP1 DUP4 ISZERO ISZERO MUL OR SWAP1 SSTORE POP DUP2 PUSH1 0x3 PUSH1 0x0 DUP7 DUP2 MSTORE PUSH1 0x20 ADD SWAP1 DUP2 MSTORE PUSH1 0x20 ADD PUSH1 0x0 KECCAK256 PUSH1 0x0 ADD PUSH1 0x2 PUSH2 0x100 EXP DUP2 SLOAD DUP2 PUSH1 0xFF MUL NOT AND SWAP1 DUP4 ISZERO ISZERO MUL OR SWAP1 SSTORE POP DUP1 PUSH1 0x3 PUSH1 0x0 DUP7 DUP2 MSTORE PUSH1 0x20 ADD SWAP1 DUP2 MSTORE PUSH1 0x20 ADD PUSH1 0x0 KECCAK256 PUSH1 0x0 ADD PUSH1 0x3 PUSH2 0x100 EXP DUP2 SLOAD DUP2 PUSH1 0xFF MUL NOT AND SWAP1 DUP4 ISZERO ISZERO MUL OR SWAP1 SSTORE POP PUSH1 0x1 ISZERO ISZERO PUSH1 0x3 PUSH1 0x0 DUP7 DUP2 MSTORE PUSH1 0x20 ADD SWAP1 DUP2 MSTORE PUSH1 0x20 ADD PUSH1 0x0 KECCAK256 PUSH1 0x0 ADD PUSH1 0x1 SWAP1 SLOAD SWAP1 PUSH2 0x100 EXP SWAP1 DIV PUSH1 0xFF AND ISZERO ISZERO EQ DUP1 ISZERO PUSH2 0xA48 JUMPI POP PUSH1 0x1 ISZERO ISZERO PUSH1 0x3 PUSH1 0x0 DUP7 DUP2 MSTORE PUSH1 0x20 ADD SWAP1 DUP2 MSTORE PUSH1 0x20 ADD PUSH1 0x0 KECCAK256 PUSH1 0x0 ADD PUSH1 0x2 SWAP1 SLOAD SWAP1 PUSH2 0x100 EXP SWAP1 DIV PUSH1 0xFF AND ISZERO ISZERO EQ JUMPDEST DUP1 ISZERO PUSH2 0xA7B JUMPI POP PUSH1 0x1 ISZERO ISZERO PUSH1 0x3 PUSH1 0x0 DUP7 DUP2 MSTORE PUSH1 0x20 ADD SWAP1 DUP2 MSTORE PUSH1 0x20 ADD PUSH1 0x0 KECCAK256 PUSH1 0x0 ADD PUSH1 0x3 SWAP1 SLOAD SWAP1 PUSH2 0x100 EXP SWAP1 DIV PUSH1 0xFF AND ISZERO ISZERO EQ JUMPDEST ISZERO PUSH2 0xAB0 JUMPI PUSH1 0x1 PUSH1 0x3 PUSH1 0x0 DUP7 DUP2 MSTORE PUSH1 0x20 ADD SWAP1 DUP2 MSTORE PUSH1 0x20 ADD PUSH1 0x0 KECCAK256 PUSH1 0x0 ADD PUSH1 0x0 PUSH2 0x100 EXP DUP2 SLOAD DUP2 PUSH1 0xFF MUL NOT AND SWAP1 DUP4 ISZERO ISZERO MUL OR SWAP1 SSTORE POP JUMPDEST POP POP POP POP JUMP JUMPDEST PUSH1 0x0 DUP2 MLOAD SWAP1 POP SWAP2 SWAP1 POP JUMP JUMPDEST PUSH1 0x0 DUP3 DUP3 MSTORE PUSH1 0x20 DUP3 ADD SWAP1 POP SWAP3 SWAP2 POP POP JUMP JUMPDEST PUSH1 0x0 JUMPDEST DUP4 DUP2 LT ISZERO PUSH2 0xAF0 JUMPI DUP1 DUP3 ADD MLOAD DUP2 DUP5 ADD MSTORE PUSH1 0x20 DUP2 ADD SWAP1 POP PUSH2 0xAD5 JUMP JUMPDEST PUSH1 0x0 DUP5 DUP5 ADD MSTORE POP POP POP POP JUMP JUMPDEST PUSH1 0x0 PUSH1 0x1F NOT PUSH1 0x1F DUP4 ADD AND SWAP1 POP SWAP2 SWAP1 POP JUMP JUMPDEST PUSH1 0x0 PUSH2 0xB18 DUP3 PUSH2 0xAB6 JUMP JUMPDEST PUSH2 0xB22 DUP2 DUP6 PUSH2 0xAC1 JUMP JUMPDEST SWAP4 POP PUSH2 0xB32 DUP2 DUP6 PUSH1 0x20 DUP7 ADD PUSH2 0xAD2 JUMP JUMPDEST PUSH2 0xB3B DUP2 PUSH2 0xAFC JUMP JUMPDEST DUP5 ADD SWAP2 POP POP SWAP3 SWAP2 POP POP JUMP JUMPDEST PUSH1 0x0 PUSH1 0x20 DUP3 ADD SWAP1 POP DUP2 DUP2 SUB PUSH1 0x0 DUP4 ADD MSTORE PUSH2 0xB60 DUP2 DUP5 PUSH2 0xB0D JUMP JUMPDEST SWAP1 POP SWAP3 SWAP2 POP POP JUMP JUMPDEST PUSH1 0x0 DUP1 REVERT JUMPDEST PUSH1 0x0 PUSH20 0xFFFFFFFFFFFFFFFFFFFFFFFFFFFFFFFFFFFFFFFF DUP3 AND SWAP1 POP SWAP2 SWAP1 POP JUMP JUMPDEST PUSH1 0x0 PUSH2 0xB98 DUP3 PUSH2 0xB6D JUMP JUMPDEST SWAP1 POP SWAP2 SWAP1 POP JUMP JUMPDEST PUSH2 0xBA8 DUP2 PUSH2 0xB8D JUMP JUMPDEST DUP2 EQ PUSH2 0xBB3 JUMPI PUSH1 0x0 DUP1 REVERT JUMPDEST POP JUMP JUMPDEST PUSH1 0x0 DUP2 CALLDATALOAD SWAP1 POP PUSH2 0xBC5 DUP2 PUSH2 0xB9F JUMP JUMPDEST SWAP3 SWAP2 POP POP JUMP JUMPDEST PUSH1 0x0 DUP2 SWAP1 POP SWAP2 SWAP1 POP JUMP JUMPDEST PUSH2 0xBDE DUP2 PUSH2 0xBCB JUMP JUMPDEST DUP2 EQ PUSH2 0xBE9 JUMPI PUSH1 0x0 DUP1 REVERT JUMPDEST POP JUMP JUMPDEST PUSH1 0x0 DUP2 CALLDATALOAD SWAP1 POP PUSH2 0xBFB DUP2 PUSH2 0xBD5 JUMP JUMPDEST SWAP3 SWAP2 POP POP JUMP JUMPDEST PUSH1 0x0 DUP2 ISZERO ISZERO SWAP1 POP SWAP2 SWAP1 POP JUMP JUMPDEST PUSH2 0xC16 DUP2 PUSH2 0xC01 JUMP JUMPDEST DUP2 EQ PUSH2 0xC21 JUMPI PUSH1 0x0 DUP1 REVERT JUMPDEST POP JUMP JUMPDEST PUSH1 0x0 DUP2 CALLDATALOAD SWAP1 POP PUSH2 0xC33 DUP2 PUSH2 0xC0D JUMP JUMPDEST SWAP3 SWAP2 POP POP JUMP JUMPDEST PUSH1 0x0 DUP1 PUSH1 0x0 DUP1 PUSH1 0x0 DUP1 PUSH1 0x0 PUSH1 0xE0 DUP9 DUP11 SUB SLT ISZERO PUSH2 0xC58 JUMPI PUSH2 0xC57 PUSH2 0xB68 JUMP JUMPDEST JUMPDEST PUSH1 0x0 PUSH2 0xC66 DUP11 DUP3 DUP12 ADD PUSH2 0xBB6 JUMP JUMPDEST SWAP8 POP POP PUSH1 0x20 PUSH2 0xC77 DUP11 DUP3 DUP12 ADD PUSH2 0xBB6 JUMP JUMPDEST SWAP7 POP POP PUSH1 0x40 PUSH2 0xC88 DUP11 DUP3 DUP12 ADD PUSH2 0xBEC JUMP JUMPDEST SWAP6 POP POP PUSH1 0x60 PUSH2 0xC99 DUP11 DUP3 DUP12 ADD PUSH2 0xBEC JUMP JUMPDEST SWAP5 POP POP PUSH1 0x80 PUSH2 0xCAA DUP11 DUP3 DUP12 ADD PUSH2 0xBEC JUMP JUMPDEST SWAP4 POP POP PUSH1 0xA0 PUSH2 0xCBB DUP11 DUP3 DUP12 ADD PUSH2 0xBEC JUMP JUMPDEST SWAP3 POP POP PUSH1 0xC0 PUSH2 0xCCC DUP11 DUP3 DUP12 ADD PUSH2 0xC24 JUMP JUMPDEST SWAP2 POP POP SWAP3 SWAP6 SWAP9 SWAP2 SWAP5 SWAP8 POP SWAP3 SWAP6 POP JUMP JUMPDEST PUSH1 0x0 PUSH1 0x20 DUP3 DUP5 SUB SLT ISZERO PUSH2 0xCF1 JUMPI PUSH2 0xCF0 PUSH2 0xB68 JUMP JUMPDEST JUMPDEST PUSH1 0x0 PUSH2 0xCFF DUP5 DUP3 DUP6 ADD PUSH2 0xBEC JUMP JUMPDEST SWAP2 POP POP SWAP3 SWAP2 POP POP JUMP JUMPDEST PUSH1 0x0 DUP1 PUSH1 0x40 DUP4 DUP6 SUB SLT ISZERO PUSH2 0xD1F JUMPI PUSH2 0xD1E PUSH2 0xB68 JUMP JUMPDEST JUMPDEST PUSH1 0x0 PUSH2 0xD2D DUP6 DUP3 DUP7 ADD PUSH2 0xBEC JUMP JUMPDEST SWAP3 POP POP PUSH1 0x20 PUSH2 0xD3E DUP6 DUP3 DUP7 ADD PUSH2 0xC24 JUMP JUMPDEST SWAP2 POP POP SWAP3 POP SWAP3 SWAP1 POP JUMP JUMPDEST PUSH2 0xD51 DUP2 PUSH2 0xC01 JUMP JUMPDEST DUP3 MSTORE POP POP JUMP JUMPDEST PUSH1 0x0 PUSH1 0x20 DUP3 ADD SWAP1 POP PUSH2 0xD6C PUSH1 0x0 DUP4 ADD DUP5 PUSH2 0xD48 JUMP JUMPDEST SWAP3 SWAP2 POP POP JUMP JUMPDEST PUSH1 0x0 PUSH1 0x80 DUP3 ADD SWAP1 POP PUSH2 0xD87 PUSH1 0x0 DUP4 ADD DUP8 PUSH2 0xD48 JUMP JUMPDEST PUSH2 0xD94 PUSH1 0x20 DUP4 ADD DUP7 PUSH2 0xD48 JUMP JUMPDEST PUSH2 0xDA1 PUSH1 0x40 DUP4 ADD DUP6 PUSH2 0xD48 JUMP JUMPDEST PUSH2 0xDAE PUSH1 0x60 DUP4 ADD DUP5 PUSH2 0xD48 JUMP JUMPDEST SWAP6 SWAP5 POP POP POP POP POP JUMP JUMPDEST PUSH2 0xDC0 DUP2 PUSH2 0xBCB JUMP JUMPDEST DUP3 MSTORE POP POP JUMP JUMPDEST PUSH2 0xDCF DUP2 PUSH2 0xB8D JUMP JUMPDEST DUP3 MSTORE POP POP JUMP JUMPDEST PUSH1 0x0 PUSH2 0x120 DUP3 ADD SWAP1 POP PUSH2 0xDEB PUSH1 0x0 DUP4 ADD DUP13 PUSH2 0xDB7 JUMP JUMPDEST PUSH2 0xDF8 PUSH1 0x20 DUP4 ADD DUP12 PUSH2 0xDC6 JUMP JUMPDEST PUSH2 0xE05 PUSH1 0x40 DUP4 ADD DUP11 PUSH2 0xDC6 JUMP JUMPDEST PUSH2 0xE12 PUSH1 0x60 DUP4 ADD DUP10 PUSH2 0xDB7 JUMP JUMPDEST PUSH2 0xE1F PUSH1 0x80 DUP4 ADD DUP9 PUSH2 0xDB7 JUMP JUMPDEST PUSH2 0xE2C PUSH1 0xA0 DUP4 ADD DUP8 PUSH2 0xDB7 JUMP JUMPDEST PUSH2 0xE39 PUSH1 0xC0 DUP4 ADD DUP7 PUSH2 0xDB7 JUMP JUMPDEST PUSH2 0xE46 PUSH1 0xE0 DUP4 ADD DUP6 PUSH2 0xD48 JUMP JUMPDEST PUSH2 0xE54 PUSH2 0x100 DUP4 ADD DUP5 PUSH2 0xDB7 JUMP JUMPDEST SWAP11 SWAP10 POP POP POP POP POP POP POP POP POP POP JUMP JUMPDEST PUSH1 0x0 DUP2 MLOAD SWAP1 POP SWAP2 SWAP1 POP JUMP JUMPDEST PUSH1 0x0 DUP3 DUP3 MSTORE PUSH1 0x20 DUP3 ADD SWAP1 POP SWAP3 SWAP2 POP POP JUMP JUMPDEST PUSH1 0x0 DUP2 SWAP1 POP PUSH1 0x20 DUP3 ADD SWAP1 POP SWAP2 SWAP1 POP JUMP JUMPDEST PUSH2 0xE97 DUP2 PUSH2 0xBCB JUMP JUMPDEST DUP3 MSTORE POP POP JUMP JUMPDEST PUSH1 0x0 PUSH2 0xEA9 DUP4 DUP4 PUSH2 0xE8E JUMP JUMPDEST PUSH1 0x20 DUP4 ADD SWAP1 POP SWAP3 SWAP2 POP POP JUMP JUMPDEST PUSH1 0x0 PUSH1 0x20 DUP3 ADD SWAP1 POP SWAP2 SWAP1 POP JUMP JUMPDEST PUSH1 0x0 PUSH2 0xECD DUP3 PUSH2 0xE62 JUMP JUMPDEST PUSH2 0xED7 DUP2 DUP6 PUSH2 0xE6D JUMP JUMPDEST SWAP4 POP PUSH2 0xEE2 DUP4 PUSH2 0xE7E JUMP JUMPDEST DUP1 PUSH1 0x0 JUMPDEST DUP4 DUP2 LT ISZERO PUSH2 0xF13 JUMPI DUP2 MLOAD PUSH2 0xEFA DUP9 DUP3 PUSH2 0xE9D JUMP JUMPDEST SWAP8 POP PUSH2 0xF05 DUP4 PUSH2 0xEB5 JUMP JUMPDEST SWAP3 POP POP PUSH1 0x1 DUP2 ADD SWAP1 POP PUSH2 0xEE6 JUMP JUMPDEST POP DUP6 SWAP4 POP POP POP POP SWAP3 SWAP2 POP POP JUMP JUMPDEST PUSH1 0x0 PUSH1 0x20 DUP3 ADD SWAP1 POP DUP2 DUP2 SUB PUSH1 0x0 DUP4 ADD MSTORE PUSH2 0xF3A DUP2 DUP5 PUSH2 0xEC2 JUMP JUMPDEST SWAP1 POP SWAP3 SWAP2 POP POP JUMP JUMPDEST PUSH1 0x0 DUP1 PUSH1 0x0 DUP1 PUSH1 0x80 DUP6 DUP8 SUB SLT ISZERO PUSH2 0xF5C JUMPI PUSH2 0xF5B PUSH2 0xB68 JUMP JUMPDEST JUMPDEST PUSH1 0x0 PUSH2 0xF6A DUP8 DUP3 DUP9 ADD PUSH2 0xBEC JUMP JUMPDEST SWAP5 POP POP PUSH1 0x20 PUSH2 0xF7B DUP8 DUP3 DUP9 ADD PUSH2 0xC24 JUMP JUMPDEST SWAP4 POP POP PUSH1 0x40 PUSH2 0xF8C DUP8 DUP3 DUP9 ADD PUSH2 0xC24 JUMP JUMPDEST SWAP3 POP POP PUSH1 0x60 PUSH2 0xF9D DUP8 DUP3 DUP9 ADD PUSH2 0xC24 JUMP JUMPDEST SWAP2 POP POP SWAP3 SWAP6 SWAP2 SWAP5 POP SWAP3 POP JUMP JUMPDEST PUSH32 0x4E487B7100000000000000000000000000000000000000000000000000000000 PUSH1 0x0 MSTORE PUSH1 0x22 PUSH1 0x4 MSTORE PUSH1 0x24 PUSH1 0x0 REVERT JUMPDEST PUSH1 0x0 PUSH1 0x2 DUP3 DIV SWAP1 POP PUSH1 0x1 DUP3 AND DUP1 PUSH2 0xFF0 JUMPI PUSH1 0x7F DUP3 AND SWAP2 POP JUMPDEST PUSH1 0x20 DUP3 LT DUP2 SUB PUSH2 0x1003 JUMPI PUSH2 0x1002 PUSH2 0xFA9 JUMP JUMPDEST JUMPDEST POP SWAP2 SWAP1 POP JUMP JUMPDEST PUSH32 0x4E487B7100000000000000000000000000000000000000000000000000000000 PUSH1 0x0 MSTORE PUSH1 0x11 PUSH1 0x4 MSTORE PUSH1 0x24 PUSH1 0x0 REVERT JUMPDEST PUSH1 0x0 PUSH2 0x1043 DUP3 PUSH2 0xBCB JUMP JUMPDEST SWAP2 POP PUSH32 0xFFFFFFFFFFFFFFFFFFFFFFFFFFFFFFFFFFFFFFFFFFFFFFFFFFFFFFFFFFFFFFFF DUP3 SUB PUSH2 0x1075 JUMPI PUSH2 0x1074 PUSH2 0x1009 JUMP JUMPDEST JUMPDEST PUSH1 0x1 DUP3 ADD SWAP1 POP SWAP2 SWAP1 POP JUMP JUMPDEST PUSH1 0x0 PUSH1 0x80 DUP3 ADD SWAP1 POP PUSH2 0x1095 PUSH1 0x0 DUP4 ADD DUP8 PUSH2 0xDB7 JUMP JUMPDEST PUSH2 0x10A2 PUSH1 0x20 DUP4 ADD DUP7 PUSH2 0xDB7 JUMP JUMPDEST PUSH2 0x10AF PUSH1 0x40 DUP4 ADD DUP6 PUSH2 0xDB7 JUMP JUMPDEST PUSH2 0x10BC PUSH1 0x60 DUP4 ADD DUP5 PUSH2 0xDB7 JUMP JUMPDEST SWAP6 SWAP5 POP POP POP POP POP JUMP JUMPDEST PUSH1 0x0 PUSH1 0x40 DUP3 ADD SWAP1 POP PUSH2 0x10DA PUSH1 0x0 DUP4 ADD DUP6 PUSH2 0xDB7 JUMP JUMPDEST PUSH2 0x10E7 PUSH1 0x20 DUP4 ADD DUP5 PUSH2 0xD48 JUMP JUMPDEST SWAP4 SWAP3 POP POP POP JUMP JUMPDEST PUSH32 0x4E487B7100000000000000000000000000000000000000000000000000000000 PUSH1 0x0 MSTORE PUSH1 0x41 PUSH1 0x4 MSTORE PUSH1 0x24 PUSH1 0x0 REVERT JUMPDEST PUSH32 0x4E487B7100000000000000000000000000000000000000000000000000000000 PUSH1 0x0 MSTORE PUSH1 0x32 PUSH1 0x4 MSTORE PUSH1 0x24 PUSH1 0x0 REVERT INVALID LOG2 PUSH5 0x6970667358 0x22 SLT KECCAK256 0xCF 0xE6 SWAP4 SWAP16 ORIGIN INVALID EXTCODECOPY CODECOPY SAR 0xB4 0xDE ADD PUSH11 0x411EEBEAE24A360DF30533 0xD3 0xD3 TIMESTAMP SWAP3 SWAP5 STATICCALL SDIV EXTCODESIZE PUSH5 0x736F6C6343 STOP ADDMOD GT STOP CALLER "
		},
		"gasEstimates": {
			"creation": {
				"codeDepositCost": "896400",
				"executionCost": "infinite",
				"totalCost": "infinite"
			},
			"external": {
				"_conditionList(uint256)": "infinite",
				"_listOfOfferContracts(uint256)": "infinite",
				"accept(uint256,bool)": "infinite",
				"createConditionList(uint256)": "infinite",
				"createOfferContract(address,address,uint256,uint256,uint256,uint256,bool)": "infinite",
				"getOfferContractDetailsById()": "infinite",
				"manageConditions(uint256,bool,bool,bool)": "infinite",
				"name()": "infinite",
				"symbol()": "infinite"
			}
		},
		"methodIdentifiers": {
			"_conditionList(uint256)": "53a68691",
			"_listOfOfferContracts(uint256)": "554d8bb6",
			"accept(uint256,bool)": "3b41e19c",
			"createConditionList(uint256)": "3ad1ce1f",
			"createOfferContract(address,address,uint256,uint256,uint256,uint256,bool)": "36f4ac6b",
			"getOfferContractDetailsById()": "871457f6",
			"manageConditions(uint256,bool,bool,bool)": "fb2bbcd3",
			"name()": "06fdde03",
			"symbol()": "95d89b41"
		}
	},
	"abi": [
		{
			"inputs": [],
			"stateMutability": "nonpayable",
			"type": "constructor"
		},
		{
			"anonymous": false,
			"inputs": [
				{
					"indexed": false,
					"internalType": "uint256",
					"name": "_offerContractId",
					"type": "uint256"
				},
				{
					"indexed": false,
					"internalType": "bool",
					"name": "_conditionMet",
					"type": "bool"
				}
			],
			"name": "ConditionListCreate",
			"type": "event"
		},
		{
			"anonymous": false,
			"inputs": [
				{
					"indexed": false,
					"internalType": "uint256",
					"name": "id",
					"type": "uint256"
				},
				{
					"indexed": true,
					"internalType": "address",
					"name": "buyerAddress",
					"type": "address"
				},
				{
					"indexed": true,
					"internalType": "address",
					"name": "sellerAddress",
					"type": "address"
				},
				{
					"indexed": false,
					"internalType": "uint256",
					"name": "offerAmount",
					"type": "uint256"
				},
				{
					"indexed": false,
					"internalType": "uint256",
					"name": "currentDate",
					"type": "uint256"
				},
				{
					"indexed": false,
					"internalType": "uint256",
					"name": "expiredDate",
					"type": "uint256"
				}
			],
			"name": "OfferCreated",
			"type": "event"
		},
		{
			"inputs": [
				{
					"internalType": "uint256",
					"name": "",
					"type": "uint256"
				}
			],
			"name": "_conditionList",
			"outputs": [
				{
					"internalType": "bool",
					"name": "conditionMet",
					"type": "bool"
				},
				{
					"internalType": "bool",
					"name": "WallsPainted",
					"type": "bool"
				},
				{
					"internalType": "bool",
					"name": "CarpetCleaned",
					"type": "bool"
				},
				{
					"internalType": "bool",
					"name": "WindowsWashed",
					"type": "bool"
				}
			],
			"stateMutability": "view",
			"type": "function"
		},
		{
			"inputs": [
				{
					"internalType": "uint256",
					"name": "",
					"type": "uint256"
				}
			],
			"name": "_listOfOfferContracts",
			"outputs": [
				{
					"internalType": "uint256",
					"name": "id",
					"type": "uint256"
				},
				{
					"internalType": "address",
					"name": "buyerAddress",
					"type": "address"
				},
				{
					"internalType": "address",
					"name": "sellerAddress",
					"type": "address"
				},
				{
					"internalType": "uint256",
					"name": "offerDate",
					"type": "uint256"
				},
				{
					"internalType": "uint256",
					"name": "expiredDate",
					"type": "uint256"
				},
				{
					"internalType": "uint256",
					"name": "currentDate",
					"type": "uint256"
				},
				{
					"internalType": "uint256",
					"name": "offerAmount",
					"type": "uint256"
				},
				{
					"internalType": "bool",
					"name": "accepted",
					"type": "bool"
				},
				{
					"internalType": "uint256",
					"name": "conditionListId",
					"type": "uint256"
				}
			],
			"stateMutability": "view",
			"type": "function"
		},
		{
			"inputs": [
				{
					"internalType": "uint256",
					"name": "_id",
					"type": "uint256"
				},
				{
					"internalType": "bool",
					"name": "_value",
					"type": "bool"
				}
			],
			"name": "accept",
			"outputs": [
				{
					"internalType": "bool",
					"name": "",
					"type": "bool"
				}
			],
			"stateMutability": "nonpayable",
			"type": "function"
		},
		{
			"inputs": [
				{
					"internalType": "uint256",
					"name": "_offerId",
					"type": "uint256"
				}
			],
			"name": "createConditionList",
			"outputs": [],
			"stateMutability": "nonpayable",
			"type": "function"
		},
		{
			"inputs": [
				{
					"internalType": "address",
					"name": "_buyerAddress",
					"type": "address"
				},
				{
					"internalType": "address",
					"name": "_sellerAddress",
					"type": "address"
				},
				{
					"internalType": "uint256",
					"name": "_offerDate",
					"type": "uint256"
				},
				{
					"internalType": "uint256",
					"name": "_currentDate",
					"type": "uint256"
				},
				{
					"internalType": "uint256",
					"name": "_expiredDate",
					"type": "uint256"
				},
				{
					"internalType": "uint256",
					"name": "_offerAmount",
					"type": "uint256"
				},
				{
					"internalType": "bool",
					"name": "_accepted",
					"type": "bool"
				}
			],
			"name": "createOfferContract",
			"outputs": [],
			"stateMutability": "nonpayable",
			"type": "function"
		},
		{
			"inputs": [],
			"name": "getOfferContractDetailsById",
			"outputs": [
				{
					"internalType": "uint256[]",
					"name": "",
					"type": "uint256[]"
				}
			],
			"stateMutability": "view",
			"type": "function"
		},
		{
			"inputs": [
				{
					"internalType": "uint256",
					"name": "_offerId",
					"type": "uint256"
				},
				{
					"internalType": "bool",
					"name": "_wallsPainted",
					"type": "bool"
				},
				{
					"internalType": "bool",
					"name": "_CarpetCleaned",
					"type": "bool"
				},
				{
					"internalType": "bool",
					"name": "_WindowsWashed",
					"type": "bool"
				}
			],
			"name": "manageConditions",
			"outputs": [],
			"stateMutability": "nonpayable",
			"type": "function"
		},
		{
			"inputs": [],
			"name": "name",
			"outputs": [
				{
					"internalType": "string",
					"name": "",
					"type": "string"
				}
			],
			"stateMutability": "view",
			"type": "function"
		},
		{
			"inputs": [],
			"name": "symbol",
			"outputs": [
				{
					"internalType": "string",
					"name": "",
					"type": "string"
				}
			],
			"stateMutability": "view",
			"type": "function"
		}
	]
}