{
	"data": {
		"bytecode": {
			"linkReferences": {},
			"object": "6080604052600060065560006007553480156200001b57600080fd5b506200003c620000306200006460201b60201c565b6200006c60201b60201c565b6200005e620000506200006460201b60201c565b60646200013060201b60201c565b6200099e565b600033905090565b60008060009054906101000a900473ffffffffffffffffffffffffffffffffffffffff169050816000806101000a81548173ffffffffffffffffffffffffffffffffffffffff021916908373ffffffffffffffffffffffffffffffffffffffff1602179055508173ffffffffffffffffffffffffffffffffffffffff168173ffffffffffffffffffffffffffffffffffffffff167f8be0079c531659141344cd1fd0a4f28419497f9722a3daafe3b4186f6b6457e060405160405180910390a35050565b62000140620005b460201b60201c565b60008273ffffffffffffffffffffffffffffffffffffffff163b146200019d576040517f08c379a00000000000000000000000000000000000000000000000000000000081526004016200019490620006f5565b60405180910390fd5b600081111562000360576000600360008473ffffffffffffffffffffffffffffffffffffffff1673ffffffffffffffffffffffffffffffffffffffff1681526020019081526020016000205411156200029c5780600360008473ffffffffffffffffffffffffffffffffffffffff1673ffffffffffffffffffffffffffffffffffffffff1681526020019081526020016000205460055462000240919062000750565b6200024c91906200078b565b60058190555080600360008473ffffffffffffffffffffffffffffffffffffffff1673ffffffffffffffffffffffffffffffffffffffff168152602001908152602001600020819055506200035a565b80600554620002ac91906200078b565b60058190555080600360008473ffffffffffffffffffffffffffffffffffffffff1673ffffffffffffffffffffffffffffffffffffffff168152602001908152602001600020819055506004829080600181540180825580915050600190039060005260206000200160009091909190916101000a81548173ffffffffffffffffffffffffffffffffffffffff021916908373ffffffffffffffffffffffffffffffffffffffff1602179055505b620005b0565b6000600360008473ffffffffffffffffffffffffffffffffffffffff1673ffffffffffffffffffffffffffffffffffffffff1681526020019081526020016000205411620003e5576040517f08c379a0000000000000000000000000000000000000000000000000000000008152600401620003dc906200085e565b60405180910390fd5b600360008373ffffffffffffffffffffffffffffffffffffffff1673ffffffffffffffffffffffffffffffffffffffff1681526020019081526020016000205460055462000434919062000750565b60058190555060005b6004805490508110156200056b578273ffffffffffffffffffffffffffffffffffffffff166004828154811062000479576200047862000880565b5b9060005260206000200160009054906101000a900473ffffffffffffffffffffffffffffffffffffffff1673ffffffffffffffffffffffffffffffffffffffff161415620005555760048181548110620004d857620004d762000880565b5b9060005260206000200160006101000a81549073ffffffffffffffffffffffffffffffffffffffff021916905560048054806200051a5762000519620008af565b5b6001900381819060005260206000200160006101000a81549073ffffffffffffffffffffffffffffffffffffffff021916905590556200056b565b80806200056290620008de565b9150506200043d565b50600360008373ffffffffffffffffffffffffffffffffffffffff1673ffffffffffffffffffffffffffffffffffffffff168152602001908152602001600020600090555b5050565b620005c46200006460201b60201c565b73ffffffffffffffffffffffffffffffffffffffff16620005ea6200064560201b60201c565b73ffffffffffffffffffffffffffffffffffffffff161462000643576040517f08c379a00000000000000000000000000000000000000000000000000000000081526004016200063a906200097c565b60405180910390fd5b565b60008060009054906101000a900473ffffffffffffffffffffffffffffffffffffffff16905090565b600082825260208201905092915050565b7f4e4654537761707065723a20736574436f6e7472696275746f723a20636f6e7460008201527f72696275746f722061646472657373206973206e6f74206120454f4100000000602082015250565b6000620006dd603c836200066e565b9150620006ea826200067f565b604082019050919050565b600060208201905081810360008301526200071081620006ce565b9050919050565b6000819050919050565b7f4e487b7100000000000000000000000000000000000000000000000000000000600052601160045260246000fd5b60006200075d8262000717565b91506200076a8362000717565b92508282101562000780576200077f62000721565b5b828203905092915050565b6000620007988262000717565b9150620007a58362000717565b9250827fffffffffffffffffffffffffffffffffffffffffffffffffffffffffffffffff03821115620007dd57620007dc62000721565b5b828201905092915050565b7f4e4654537761707065723a2072656d6f7665436f6e7472696275746f723a206360008201527f6f6e7472696275746f72206e6f7420666f756e64000000000000000000000000602082015250565b6000620008466034836200066e565b91506200085382620007e8565b604082019050919050565b60006020820190508181036000830152620008798162000837565b9050919050565b7f4e487b7100000000000000000000000000000000000000000000000000000000600052603260045260246000fd5b7f4e487b7100000000000000000000000000000000000000000000000000000000600052603160045260246000fd5b6000620008eb8262000717565b91507fffffffffffffffffffffffffffffffffffffffffffffffffffffffffffffffff82141562000921576200092062000721565b5b600182019050919050565b7f4f776e61626c653a2063616c6c6572206973206e6f7420746865206f776e6572600082015250565b6000620009646020836200066e565b915062000971826200092c565b602082019050919050565b60006020820190508181036000830152620009978162000955565b9050919050565b614bec80620009ae6000396000f3fe60806040526004361061014f5760003560e01c80638da5cb5b116100b6578063d5002f2e1161006f578063d5002f2e14610463578063d81671bc1461048e578063e0efc2f5146104b9578063eb57ce55146104e9578063ed470a3a14610512578063f2fde38b1461053b57610156565b80638da5cb5b1461036057806392be2ab81461038b57806394b918de146103b4578063af157c19146103d0578063b6c9b393146103fb578063d4cadf681461043857610156565b80634a0d89ba116101085780634a0d89ba146102545780634b3ab9c51461029157806361784c7a146102ce5780636e214a8e146102f7578063715018a6146103205780637634c6c31461033757610156565b806321c616da1461015857806332a58e791461019557806334e19907146101c05780633801a828146101e95780633ccfd60b1461021457806340e58ee51461022b57610156565b3661015657005b005b34801561016457600080fd5b5061017f600480360381019061017a91906132ae565b610564565b60405161018c91906133a3565b60405180910390f35b3480156101a157600080fd5b506101aa6105fb565b6040516101b791906133d4565b60405180910390f35b3480156101cc57600080fd5b506101e760048036038101906101e2919061341b565b610605565b005b3480156101f557600080fd5b506101fe610617565b60405161020b9190613556565b60405180910390f35b34801561022057600080fd5b506102296106a5565b005b34801561023757600080fd5b50610252600480360381019061024d919061341b565b6108d6565b005b34801561026057600080fd5b5061027b6004803603810190610276919061341b565b610aee565b604051610288919061384e565b60405180910390f35b34801561029d57600080fd5b506102b860048036038101906102b391906132ae565b610e31565b6040516102c591906133d4565b60405180910390f35b3480156102da57600080fd5b506102f560048036038101906102f09190613870565b610f02565b005b34801561030357600080fd5b5061031e6004803603810190610319919061341b565b61135d565b005b34801561032c57600080fd5b50610335611574565b005b34801561034357600080fd5b5061035e600480360381019061035991906138e8565b611588565b005b34801561036c57600080fd5b50610375611ba7565b604051610382919061394a565b60405180910390f35b34801561039757600080fd5b506103b260048036038101906103ad919061341b565b611bd0565b005b6103ce60048036038101906103c9919061341b565b611be2565b005b3480156103dc57600080fd5b506103e561248b565b6040516103f291906139c3565b60405180910390f35b34801561040757600080fd5b50610422600480360381019061041d91906132ae565b6125a2565b60405161042f91906139f4565b60405180910390f35b34801561044457600080fd5b5061044d612725565b60405161045a91906133d4565b60405180910390f35b34801561046f57600080fd5b5061047861272f565b60405161048591906133d4565b60405180910390f35b34801561049a57600080fd5b506104a36127c1565b6040516104b091906133d4565b60405180910390f35b6104d360048036038101906104ce9190613aca565b6127d2565b6040516104e091906133d4565b60405180910390f35b3480156104f557600080fd5b50610510600480360381019061050b91906132ae565b612c8a565b005b34801561051e57600080fd5b50610539600480360381019061053491906132ae565b612de0565b005b34801561054757600080fd5b50610562600480360381019061055d91906132ae565b612ff6565b005b6060600260008373ffffffffffffffffffffffffffffffffffffffff1673ffffffffffffffffffffffffffffffffffffffff1681526020019081526020016000208054806020026020016040519081016040528092919081815260200182805480156105ef57602002820191906000526020600020905b8154815260200190600101908083116105db575b50505050509050919050565b6000600654905090565b61060d61307a565b8060078190555050565b6060600880548060200260200160405190810160405280929190818152602001828054801561069b57602002820191906000526020600020905b8160009054906101000a900473ffffffffffffffffffffffffffffffffffffffff1673ffffffffffffffffffffffffffffffffffffffff1681526020019060010190808311610651575b5050505050905090565b6000600360006106b36130f8565b73ffffffffffffffffffffffffffffffffffffffff1673ffffffffffffffffffffffffffffffffffffffff168152602001908152602001600020541161072e576040517f08c379a000000000000000000000000000000000000000000000000000000000815260040161072590613bf0565b60405180910390fd5b600047905060008111610776576040517f08c379a000000000000000000000000000000000000000000000000000000000815260040161076d90613c5c565b60405180910390fd5b60005b6004805490508110156108875760006004828154811061079c5761079b613c7c565b5b9060005260206000200160009054906101000a900473ffffffffffffffffffffffffffffffffffffffff1690506000600360008373ffffffffffffffffffffffffffffffffffffffff1673ffffffffffffffffffffffffffffffffffffffff1681526020019081526020016000205490506000600554828661081e9190613cda565b6108289190613d63565b90508273ffffffffffffffffffffffffffffffffffffffff166108fc829081150290604051600060405180830381858888f19350505050158015610870573d6000803e3d6000fd5b50505050808061087f90613d94565b915050610779565b50806108916130f8565b73ffffffffffffffffffffffffffffffffffffffff167f0875ab8e60d8ffe0781ba5e1d1adadeb6250bc1bee87d3094cc6ac4eb9f8851260405160405180910390a350565b806000600160008381526020019081526020016000206000015411610930576040517f08c379a000000000000000000000000000000000000000000000000000000000815260040161092790613e29565b60405180910390fd5b816109396130f8565b8073ffffffffffffffffffffffffffffffffffffffff166001600084815260200190815260200160002060010160019054906101000a900473ffffffffffffffffffffffffffffffffffffffff1673ffffffffffffffffffffffffffffffffffffffff16146109dd576040517f08c379a00000000000000000000000000000000000000000000000000000000081526004016109d490613e95565b60405180910390fd5b83600060028111156109f2576109f1613578565b5b6001600083815260200190815260200160002060010160009054906101000a900460ff166002811115610a2857610a27613578565b5b14610a68576040517f08c379a0000000000000000000000000000000000000000000000000000000008152600401610a5f90613f27565b60405180910390fd5b600180600087815260200190815260200160002060010160006101000a81548160ff02191690836002811115610aa157610aa0613578565b5b021790555060016002811115610aba57610ab9613578565b5b857f15211d78a502c0edd03f8cefb0ba09c0bcdb3045a82c5d05dbdfff58efc82f0360405160405180910390a35050505050565b610af66131e8565b816000600160008381526020019081526020016000206000015411610b50576040517f08c379a0000000000000000000000000000000000000000000000000000000008152600401610b4790613e29565b60405180910390fd5b600160008481526020019081526020016000206040518060c0016040529081600082015481526020016001820160009054906101000a900460ff166002811115610b9d57610b9c613578565b5b6002811115610baf57610bae613578565b5b81526020016001820160019054906101000a900473ffffffffffffffffffffffffffffffffffffffff1673ffffffffffffffffffffffffffffffffffffffff1673ffffffffffffffffffffffffffffffffffffffff16815260200160028201805480602002602001604051908101604052809291908181526020016000905b82821015610cca57838290600052602060002090600302016040518060600160405290816000820160009054906101000a900473ffffffffffffffffffffffffffffffffffffffff1673ffffffffffffffffffffffffffffffffffffffff1673ffffffffffffffffffffffffffffffffffffffff1681526020016001820154815260200160028201548152505081526020019060010190610c2e565b50505050815260200160038201805480602002602001604051908101604052809291908181526020018280548015610d5757602002820191906000526020600020905b8160009054906101000a900473ffffffffffffffffffffffffffffffffffffffff1673ffffffffffffffffffffffffffffffffffffffff1681526020019060010190808311610d0d575b5050505050815260200160048201805480602002602001604051908101604052809291908181526020016000905b82821015610e2157838290600052602060002090600302016040518060600160405290816000820160009054906101000a900473ffffffffffffffffffffffffffffffffffffffff1673ffffffffffffffffffffffffffffffffffffffff1673ffffffffffffffffffffffffffffffffffffffff1681526020016001820154815260200160028201548152505081526020019060010190610d85565b5050505081525050915050919050565b60008060036000610e406130f8565b73ffffffffffffffffffffffffffffffffffffffff1673ffffffffffffffffffffffffffffffffffffffff1681526020019081526020016000205411610ebb576040517f08c379a0000000000000000000000000000000000000000000000000000000008152600401610eb290613bf0565b60405180910390fd5b600360008373ffffffffffffffffffffffffffffffffffffffff1673ffffffffffffffffffffffffffffffffffffffff168152602001908152602001600020549050919050565b610f0a61307a565b60008273ffffffffffffffffffffffffffffffffffffffff163b14610f64576040517f08c379a0000000000000000000000000000000000000000000000000000000008152600401610f5b90613fb9565b60405180910390fd5b600081111561111d576000600360008473ffffffffffffffffffffffffffffffffffffffff1673ffffffffffffffffffffffffffffffffffffffff16815260200190815260200160002054111561105c5780600360008473ffffffffffffffffffffffffffffffffffffffff1673ffffffffffffffffffffffffffffffffffffffff168152602001908152602001600020546005546110039190613fd9565b61100d919061400d565b60058190555080600360008473ffffffffffffffffffffffffffffffffffffffff1673ffffffffffffffffffffffffffffffffffffffff16815260200190815260200160002081905550611118565b8060055461106a919061400d565b60058190555080600360008473ffffffffffffffffffffffffffffffffffffffff1673ffffffffffffffffffffffffffffffffffffffff168152602001908152602001600020819055506004829080600181540180825580915050600190039060005260206000200160009091909190916101000a81548173ffffffffffffffffffffffffffffffffffffffff021916908373ffffffffffffffffffffffffffffffffffffffff1602179055505b611359565b6000600360008473ffffffffffffffffffffffffffffffffffffffff1673ffffffffffffffffffffffffffffffffffffffff168152602001908152602001600020541161119f576040517f08c379a0000000000000000000000000000000000000000000000000000000008152600401611196906140d5565b60405180910390fd5b600360008373ffffffffffffffffffffffffffffffffffffffff1673ffffffffffffffffffffffffffffffffffffffff168152602001908152602001600020546005546111ec9190613fd9565b60058190555060005b600480549050811015611314578273ffffffffffffffffffffffffffffffffffffffff166004828154811061122d5761122c613c7c565b5b9060005260206000200160009054906101000a900473ffffffffffffffffffffffffffffffffffffffff1673ffffffffffffffffffffffffffffffffffffffff161415611301576004818154811061128857611287613c7c565b5b9060005260206000200160006101000a81549073ffffffffffffffffffffffffffffffffffffffff021916905560048054806112c7576112c66140f5565b5b6001900381819060005260206000200160006101000a81549073ffffffffffffffffffffffffffffffffffffffff02191690559055611314565b808061130c90613d94565b9150506111f5565b50600360008373ffffffffffffffffffffffffffffffffffffffff1673ffffffffffffffffffffffffffffffffffffffff168152602001908152602001600020600090555b5050565b8060006001600083815260200190815260200160002060000154116113b7576040517f08c379a00000000000000000000000000000000000000000000000000000000081526004016113ae90613e29565b60405180910390fd5b816113c06130f8565b8073ffffffffffffffffffffffffffffffffffffffff166001600084815260200190815260200160002060010160019054906101000a900473ffffffffffffffffffffffffffffffffffffffff1673ffffffffffffffffffffffffffffffffffffffff1614611464576040517f08c379a000000000000000000000000000000000000000000000000000000000815260040161145b90613e95565b60405180910390fd5b6001600281111561147857611477613578565b5b6001600086815260200190815260200160002060010160009054906101000a900460ff1660028111156114ae576114ad613578565b5b146114ee576040517f08c379a00000000000000000000000000000000000000000000000000000000081526004016114e590614196565b60405180910390fd5b60006001600086815260200190815260200160002060010160006101000a81548160ff0219169083600281111561152857611527613578565b5b02179055506000600281111561154157611540613578565b5b847f15211d78a502c0edd03f8cefb0ba09c0bcdb3045a82c5d05dbdfff58efc82f0360405160405180910390a350505050565b61157c61307a565b6115866000613100565b565b8260006001600083815260200190815260200160002060000154116115e2576040517f08c379a00000000000000000000000000000000000000000000000000000000081526004016115d990613e29565b60405180910390fd5b836115eb6130f8565b8073ffffffffffffffffffffffffffffffffffffffff166001600084815260200190815260200160002060010160019054906101000a900473ffffffffffffffffffffffffffffffffffffffff1673ffffffffffffffffffffffffffffffffffffffff161461168f576040517f08c379a000000000000000000000000000000000000000000000000000000000815260040161168690613e95565b60405180910390fd5b600060016000888152602001908152602001600020600301905084156118175760005b8180549050811015611749578673ffffffffffffffffffffffffffffffffffffffff168282815481106116e8576116e7613c7c565b5b9060005260206000200160009054906101000a900473ffffffffffffffffffffffffffffffffffffffff1673ffffffffffffffffffffffffffffffffffffffff161415611736575050611b9f565b808061174190613d94565b9150506116b2565b5080869080600181540180825580915050600190039060005260206000200160009091909190916101000a81548173ffffffffffffffffffffffffffffffffffffffff021916908373ffffffffffffffffffffffffffffffffffffffff160217905550600260008773ffffffffffffffffffffffffffffffffffffffff1673ffffffffffffffffffffffffffffffffffffffff168152602001908152602001600020879080600181540180825580915050600190039060005260206000200160009091909190915055611b9d565b60005b8180549050811015611b9b578673ffffffffffffffffffffffffffffffffffffffff168282815481106118505761184f613c7c565b5b9060005260206000200160009054906101000a900473ffffffffffffffffffffffffffffffffffffffff1673ffffffffffffffffffffffffffffffffffffffff161415611b88578181815481106118aa576118a9613c7c565b5b9060005260206000200160006101000a81549073ffffffffffffffffffffffffffffffffffffffff0219169055818054806118e8576118e76140f5565b5b6001900381819060005260206000200160006101000a81549073ffffffffffffffffffffffffffffffffffffffff0219169055905560005b600260008973ffffffffffffffffffffffffffffffffffffffff1673ffffffffffffffffffffffffffffffffffffffff16815260200190815260200160002080549050811015611aa95788600260008a73ffffffffffffffffffffffffffffffffffffffff1673ffffffffffffffffffffffffffffffffffffffff16815260200190815260200160002082815481106119bc576119bb613c7c565b5b90600052602060002001541415611a9657600260008973ffffffffffffffffffffffffffffffffffffffff1673ffffffffffffffffffffffffffffffffffffffff1681526020019081526020016000208181548110611a1e57611a1d613c7c565b5b9060005260206000200160009055600260008973ffffffffffffffffffffffffffffffffffffffff1673ffffffffffffffffffffffffffffffffffffffff168152602001908152602001600020805480611a7b57611a7a6140f5565b5b60019003818190600052602060002001600090559055611aa9565b8080611aa190613d94565b915050611920565b50600082805490501415611b81578160009080600181540180825580915050600190039060005260206000200160009091909190916101000a81548173ffffffffffffffffffffffffffffffffffffffff021916908373ffffffffffffffffffffffffffffffffffffffff160217905550600260008073ffffffffffffffffffffffffffffffffffffffff1673ffffffffffffffffffffffffffffffffffffffff1681526020019081526020016000208890806001815401808255809150506001900390600052602060002001600090919091909150555b5050611b9f565b8080611b9390613d94565b91505061181a565b505b505b505050505050565b60008060009054906101000a900473ffffffffffffffffffffffffffffffffffffffff16905090565b611bd861307a565b8060068190555050565b806000600160008381526020019081526020016000206000015411611c3c576040517f08c379a0000000000000000000000000000000000000000000000000000000008152600401611c3390613e29565b60405180910390fd5b81611c456130f8565b600060016000848152602001908152602001600020905060005b816003018054905081101561244157600073ffffffffffffffffffffffffffffffffffffffff16826003018281548110611c9c57611c9b613c7c565b5b9060005260206000200160009054906101000a900473ffffffffffffffffffffffffffffffffffffffff1673ffffffffffffffffffffffffffffffffffffffff161480611d5457508273ffffffffffffffffffffffffffffffffffffffff16826003018281548110611d1157611d10613c7c565b5b9060005260206000200160009054906101000a900473ffffffffffffffffffffffffffffffffffffffff1673ffffffffffffffffffffffffffffffffffffffff16145b1561242e578560006002811115611d6e57611d6d613578565b5b6001600083815260200190815260200160002060010160009054906101000a900460ff166002811115611da457611da3613578565b5b14611de4576040517f08c379a0000000000000000000000000000000000000000000000000000000008152600401611ddb90613f27565b60405180910390fd5b611dec612725565b341015611e2e576040517f08c379a0000000000000000000000000000000000000000000000000000000008152600401611e2590614228565b60405180910390fd5b600060016000898152602001908152602001600020905060005b81600401805490508110156120ef576000826004018281548110611e6f57611e6e613c7c565b5b906000526020600020906003020190506000611eae8260000160009054906101000a900473ffffffffffffffffffffffffffffffffffffffff166125a2565b90508073ffffffffffffffffffffffffffffffffffffffff166303850f3b611ed46130f8565b8460000160009054906101000a900473ffffffffffffffffffffffffffffffffffffffff16856001015486600201546040518563ffffffff1660e01b8152600401611f229493929190614257565b60206040518083038186803b158015611f3a57600080fd5b505afa158015611f4e573d6000803e3d6000fd5b505050506040513d601f19601f82011682018060405250810190611f7291906142b1565b611fb1576040517f08c379a0000000000000000000000000000000000000000000000000000000008152600401611fa890614350565b60405180910390fd5b8073ffffffffffffffffffffffffffffffffffffffff1663c6bc20b6611fd56130f8565b8460000160009054906101000a900473ffffffffffffffffffffffffffffffffffffffff16856001015486600201548960010160019054906101000a900473ffffffffffffffffffffffffffffffffffffffff166040518663ffffffff1660e01b8152600401612049959493929190614370565b602060405180830381600087803b15801561206357600080fd5b505af1158015612077573d6000803e3d6000fd5b505050506040513d601f19601f8201168201806040525081019061209b91906142b1565b6120da576040517f08c379a00000000000000000000000000000000000000000000000000000000081526004016120d190614435565b60405180910390fd5b505080806120e790613d94565b915050611e48565b5060005b81600201805490508110156123b757600082600201828154811061211a57612119613c7c565b5b9060005260206000209060030201905060006121598260000160009054906101000a900473ffffffffffffffffffffffffffffffffffffffff166125a2565b90508073ffffffffffffffffffffffffffffffffffffffff166303850f3b8560010160019054906101000a900473ffffffffffffffffffffffffffffffffffffffff168460000160009054906101000a900473ffffffffffffffffffffffffffffffffffffffff16856001015486600201546040518563ffffffff1660e01b81526004016121ea9493929190614257565b60206040518083038186803b15801561220257600080fd5b505afa158015612216573d6000803e3d6000fd5b505050506040513d601f19601f8201168201806040525081019061223a91906142b1565b612279576040517f08c379a0000000000000000000000000000000000000000000000000000000008152600401612270906144c7565b60405180910390fd5b8073ffffffffffffffffffffffffffffffffffffffff1663c6bc20b68560010160019054906101000a900473ffffffffffffffffffffffffffffffffffffffff168460000160009054906101000a900473ffffffffffffffffffffffffffffffffffffffff16856001015486600201546122f16130f8565b6040518663ffffffff1660e01b8152600401612311959493929190614370565b602060405180830381600087803b15801561232b57600080fd5b505af115801561233f573d6000803e3d6000fd5b505050506040513d601f19601f8201168201806040525081019061236391906142b1565b6123a2576040517f08c379a000000000000000000000000000000000000000000000000000000000815260040161239990614559565b60405180910390fd5b505080806123af90613d94565b9150506120f3565b5060028160010160006101000a81548160ff021916908360028111156123e0576123df613578565b5b02179055506002808111156123f8576123f7613578565b5b887f15211d78a502c0edd03f8cefb0ba09c0bcdb3045a82c5d05dbdfff58efc82f0360405160405180910390a350505050612485565b808061243990613d94565b915050611c5f565b506000612483576040517f08c379a000000000000000000000000000000000000000000000000000000000815260040161247a906145c5565b60405180910390fd5b505b50505050565b606060006003600061249b6130f8565b73ffffffffffffffffffffffffffffffffffffffff1673ffffffffffffffffffffffffffffffffffffffff1681526020019081526020016000205411612516576040517f08c379a000000000000000000000000000000000000000000000000000000000815260040161250d90613bf0565b60405180910390fd5b600480548060200260200160405190810160405280929190818152602001828054801561259857602002820191906000526020600020905b8160009054906101000a900473ffffffffffffffffffffffffffffffffffffffff1673ffffffffffffffffffffffffffffffffffffffff168152602001906001019080831161254e575b5050505050905090565b600080600090505b6008805490508110156126dd57600881815481106125cb576125ca613c7c565b5b9060005260206000200160009054906101000a900473ffffffffffffffffffffffffffffffffffffffff1673ffffffffffffffffffffffffffffffffffffffff16630b829275846040518263ffffffff1660e01b815260040161262e919061394a565b60206040518083038186803b15801561264657600080fd5b505afa15801561265a573d6000803e3d6000fd5b505050506040513d601f19601f8201168201806040525081019061267e91906142b1565b156126ca576008818154811061269757612696613c7c565b5b9060005260206000200160009054906101000a900473ffffffffffffffffffffffffffffffffffffffff16915050612720565b80806126d590613d94565b9150506125aa565b50600061271f576040517f08c379a000000000000000000000000000000000000000000000000000000000815260040161271690614657565b60405180910390fd5b5b919050565b6000600754905090565b6000806003600061273e6130f8565b73ffffffffffffffffffffffffffffffffffffffff1673ffffffffffffffffffffffffffffffffffffffff16815260200190815260200160002054116127b9576040517f08c379a00000000000000000000000000000000000000000000000000000000081526004016127b090613bf0565b60405180910390fd5b600554905090565b60006127cd60096131c4565b905090565b60008073ffffffffffffffffffffffffffffffffffffffff168873ffffffffffffffffffffffffffffffffffffffff161415612843576040517f08c379a000000000000000000000000000000000000000000000000000000000815260040161283a906146e9565b60405180910390fd5b61284b6105fb565b34101561288d576040517f08c379a00000000000000000000000000000000000000000000000000000000081526004016128849061477b565b60405180910390fd5b61289760096131d2565b6128a160096131c4565b9050806001600083815260200190815260200160002060000181905550876001600083815260200190815260200160002060010160016101000a81548173ffffffffffffffffffffffffffffffffffffffff021916908373ffffffffffffffffffffffffffffffffffffffff160217905550600260008973ffffffffffffffffffffffffffffffffffffffff1673ffffffffffffffffffffffffffffffffffffffff16815260200190815260200160002081908060018154018082558091505060019003906000526020600020016000909190919091505560005b87879050811015612a34576129ba88888381811061299d5761299c613c7c565b5b90506060020160000160208101906129b591906132ae565b6125a2565b50600160008381526020019081526020016000206002018888838181106129e4576129e3613c7c565b5b90506060020190806001815401808255809150506001900390600052602060002090600302016000909190919091508181612a1f91906149c2565b50508080612a2c90613d94565b91505061297c565b5060005b85859050811015612b815760016000838152602001908152602001600020600301868683818110612a6c57612a6b613c7c565b5b9050602002016020810190612a8191906132ae565b9080600181540180825580915050600190039060005260206000200160009091909190916101000a81548173ffffffffffffffffffffffffffffffffffffffff021916908373ffffffffffffffffffffffffffffffffffffffff16021790555060026000878784818110612af857612af7613c7c565b5b9050602002016020810190612b0d91906132ae565b73ffffffffffffffffffffffffffffffffffffffff1673ffffffffffffffffffffffffffffffffffffffff1681526020019081526020016000208290806001815401808255809150506001900390600052602060002001600090919091909150558080612b7990613d94565b915050612a38565b5060005b83839050811015612c3d57612bc3848483818110612ba657612ba5613c7c565b5b9050606002016000016020810190612bbe91906132ae565b6125a2565b5060016000838152602001908152602001600020600401848483818110612bed57612bec613c7c565b5b90506060020190806001815401808255809150506001900390600052602060002090600302016000909190919091508181612c2891906149c2565b50508080612c3590613d94565b915050612b85565b5060006002811115612c5257612c51613578565b5b817f15211d78a502c0edd03f8cefb0ba09c0bcdb3045a82c5d05dbdfff58efc82f0360405160405180910390a3979650505050505050565b612c9261307a565b8073ffffffffffffffffffffffffffffffffffffffff166301ffc9a77fcf44745f000000000000000000000000000000000000000000000000000000006040518263ffffffff1660e01b8152600401612ceb9190614a0b565b60206040518083038186803b158015612d0357600080fd5b505afa158015612d17573d6000803e3d6000fd5b505050506040513d601f19601f82011682018060405250810190612d3b91906142b1565b612d7a576040517f08c379a0000000000000000000000000000000000000000000000000000000008152600401612d7190614a98565b60405180910390fd5b6008819080600181540180825580915050600190039060005260206000200160009091909190916101000a81548173ffffffffffffffffffffffffffffffffffffffff021916908373ffffffffffffffffffffffffffffffffffffffff16021790555050565b612de861307a565b8073ffffffffffffffffffffffffffffffffffffffff166301ffc9a77fcf44745f000000000000000000000000000000000000000000000000000000006040518263ffffffff1660e01b8152600401612e419190614a0b565b60206040518083038186803b158015612e5957600080fd5b505afa158015612e6d573d6000803e3d6000fd5b505050506040513d601f19601f82011682018060405250810190612e9191906142b1565b612ed0576040517f08c379a0000000000000000000000000000000000000000000000000000000008152600401612ec790614a98565b60405180910390fd5b60005b600880549050811015612ff2578173ffffffffffffffffffffffffffffffffffffffff1660088281548110612f0b57612f0a613c7c565b5b9060005260206000200160009054906101000a900473ffffffffffffffffffffffffffffffffffffffff1673ffffffffffffffffffffffffffffffffffffffff161415612fdf5760088181548110612f6657612f65613c7c565b5b9060005260206000200160006101000a81549073ffffffffffffffffffffffffffffffffffffffff02191690556008805480612fa557612fa46140f5565b5b6001900381819060005260206000200160006101000a81549073ffffffffffffffffffffffffffffffffffffffff02191690559055612ff2565b8080612fea90613d94565b915050612ed3565b5050565b612ffe61307a565b600073ffffffffffffffffffffffffffffffffffffffff168173ffffffffffffffffffffffffffffffffffffffff16141561306e576040517f08c379a000000000000000000000000000000000000000000000000000000000815260040161306590614b2a565b60405180910390fd5b61307781613100565b50565b6130826130f8565b73ffffffffffffffffffffffffffffffffffffffff166130a0611ba7565b73ffffffffffffffffffffffffffffffffffffffff16146130f6576040517f08c379a00000000000000000000000000000000000000000000000000000000081526004016130ed90614b96565b60405180910390fd5b565b600033905090565b60008060009054906101000a900473ffffffffffffffffffffffffffffffffffffffff169050816000806101000a81548173ffffffffffffffffffffffffffffffffffffffff021916908373ffffffffffffffffffffffffffffffffffffffff1602179055508173ffffffffffffffffffffffffffffffffffffffff168173ffffffffffffffffffffffffffffffffffffffff167f8be0079c531659141344cd1fd0a4f28419497f9722a3daafe3b4186f6b6457e060405160405180910390a35050565b600081600001549050919050565b6001816000016000828254019250508190555050565b6040518060c00160405280600081526020016000600281111561320e5761320d613578565b5b8152602001600073ffffffffffffffffffffffffffffffffffffffff1681526020016060815260200160608152602001606081525090565b600080fd5b600080fd5b600073ffffffffffffffffffffffffffffffffffffffff82169050919050565b600061327b82613250565b9050919050565b61328b81613270565b811461329657600080fd5b50565b6000813590506132a881613282565b92915050565b6000602082840312156132c4576132c3613246565b5b60006132d284828501613299565b91505092915050565b600081519050919050565b600082825260208201905092915050565b6000819050602082019050919050565b6000819050919050565b61331a81613307565b82525050565b600061332c8383613311565b60208301905092915050565b6000602082019050919050565b6000613350826132db565b61335a81856132e6565b9350613365836132f7565b8060005b8381101561339657815161337d8882613320565b975061338883613338565b925050600181019050613369565b5085935050505092915050565b600060208201905081810360008301526133bd8184613345565b905092915050565b6133ce81613307565b82525050565b60006020820190506133e960008301846133c5565b92915050565b6133f881613307565b811461340357600080fd5b50565b600081359050613415816133ef565b92915050565b60006020828403121561343157613430613246565b5b600061343f84828501613406565b91505092915050565b600081519050919050565b600082825260208201905092915050565b6000819050602082019050919050565b6000819050919050565b600061349961349461348f84613250565b613474565b613250565b9050919050565b60006134ab8261347e565b9050919050565b60006134bd826134a0565b9050919050565b6134cd816134b2565b82525050565b60006134df83836134c4565b60208301905092915050565b6000602082019050919050565b600061350382613448565b61350d8185613453565b935061351883613464565b8060005b8381101561354957815161353088826134d3565b975061353b836134eb565b92505060018101905061351c565b5085935050505092915050565b6000602082019050818103600083015261357081846134f8565b905092915050565b7f4e487b7100000000000000000000000000000000000000000000000000000000600052602160045260246000fd5b600381106135b8576135b7613578565b5b50565b60008190506135c9826135a7565b919050565b60006135d9826135bb565b9050919050565b6135e9816135ce565b82525050565b6135f881613270565b82525050565b600081519050919050565b600082825260208201905092915050565b6000819050602082019050919050565b6000819050919050565b61363d8161362a565b82525050565b60608201600082015161365960008501826135ef565b50602082015161366c6020850182613634565b50604082015161367f6040850182613311565b50505050565b60006136918383613643565b60608301905092915050565b6000602082019050919050565b60006136b5826135fe565b6136bf8185613609565b93506136ca8361361a565b8060005b838110156136fb5781516136e28882613685565b97506136ed8361369d565b9250506001810190506136ce565b5085935050505092915050565b600081519050919050565b600082825260208201905092915050565b6000819050602082019050919050565b600061374083836135ef565b60208301905092915050565b6000602082019050919050565b600061376482613708565b61376e8185613713565b935061377983613724565b8060005b838110156137aa5781516137918882613734565b975061379c8361374c565b92505060018101905061377d565b5085935050505092915050565b600060c0830160008301516137cf6000860182613311565b5060208301516137e260208601826135e0565b5060408301516137f560408601826135ef565b506060830151848203606086015261380d82826136aa565b915050608083015184820360808601526138278282613759565b91505060a083015184820360a086015261384182826136aa565b9150508091505092915050565b6000602082019050818103600083015261386881846137b7565b905092915050565b6000806040838503121561388757613886613246565b5b600061389585828601613299565b92505060206138a685828601613406565b9150509250929050565b60008115159050919050565b6138c5816138b0565b81146138d057600080fd5b50565b6000813590506138e2816138bc565b92915050565b60008060006060848603121561390157613900613246565b5b600061390f86828701613406565b935050602061392086828701613299565b9250506040613931868287016138d3565b9150509250925092565b61394481613270565b82525050565b600060208201905061395f600083018461393b565b92915050565b600061397082613708565b61397a8185613453565b935061398583613724565b8060005b838110156139b657815161399d8882613734565b97506139a88361374c565b925050600181019050613989565b5085935050505092915050565b600060208201905081810360008301526139dd8184613965565b905092915050565b6139ee816134b2565b82525050565b6000602082019050613a0960008301846139e5565b92915050565b600080fd5b600080fd5b600080fd5b60008083601f840112613a3457613a33613a0f565b5b8235905067ffffffffffffffff811115613a5157613a50613a14565b5b602083019150836060820283011115613a6d57613a6c613a19565b5b9250929050565b60008083601f840112613a8a57613a89613a0f565b5b8235905067ffffffffffffffff811115613aa757613aa6613a14565b5b602083019150836020820283011115613ac357613ac2613a19565b5b9250929050565b60008060008060008060006080888a031215613ae957613ae8613246565b5b6000613af78a828b01613299565b975050602088013567ffffffffffffffff811115613b1857613b1761324b565b5b613b248a828b01613a1e565b9650965050604088013567ffffffffffffffff811115613b4757613b4661324b565b5b613b538a828b01613a74565b9450945050606088013567ffffffffffffffff811115613b7657613b7561324b565b5b613b828a828b01613a1e565b925092505092959891949750929550565b600082825260208201905092915050565b7f4e4654537761707065723a206e6f74206120636f6e7472696275746f72000000600082015250565b6000613bda601d83613b93565b9150613be582613ba4565b602082019050919050565b60006020820190508181036000830152613c0981613bcd565b9050919050565b7f4e4654537761707065723a2077697468647261773a206e6f2062616c616e6365600082015250565b6000613c46602083613b93565b9150613c5182613c10565b602082019050919050565b60006020820190508181036000830152613c7581613c39565b9050919050565b7f4e487b7100000000000000000000000000000000000000000000000000000000600052603260045260246000fd5b7f4e487b7100000000000000000000000000000000000000000000000000000000600052601160045260246000fd5b6000613ce582613307565b9150613cf083613307565b9250817fffffffffffffffffffffffffffffffffffffffffffffffffffffffffffffffff0483118215151615613d2957613d28613cab565b5b828202905092915050565b7f4e487b7100000000000000000000000000000000000000000000000000000000600052601260045260246000fd5b6000613d6e82613307565b9150613d7983613307565b925082613d8957613d88613d34565b5b828204905092915050565b6000613d9f82613307565b91507fffffffffffffffffffffffffffffffffffffffffffffffffffffffffffffffff821415613dd257613dd1613cab565b5b600182019050919050565b7f4e4654537761707065723a20696420646f6573206e6f74206578697374000000600082015250565b6000613e13601d83613b93565b9150613e1e82613ddd565b602082019050919050565b60006020820190508181036000830152613e4281613e06565b9050919050565b7f4e4654537761707065723a206e6f742074686520626964646572000000000000600082015250565b6000613e7f601a83613b93565b9150613e8a82613e49565b602082019050919050565b60006020820190508181036000830152613eae81613e72565b9050919050565b7f4e4654537761707065723a207377617020697320636f6d706c65746564206f7260008201527f2063616e63656c6c656400000000000000000000000000000000000000000000602082015250565b6000613f11602a83613b93565b9150613f1c82613eb5565b604082019050919050565b60006020820190508181036000830152613f4081613f04565b9050919050565b7f4e4654537761707065723a20736574436f6e7472696275746f723a20636f6e7460008201527f72696275746f722061646472657373206973206e6f74206120454f4100000000602082015250565b6000613fa3603c83613b93565b9150613fae82613f47565b604082019050919050565b60006020820190508181036000830152613fd281613f96565b9050919050565b6000613fe482613307565b9150613fef83613307565b92508282101561400257614001613cab565b5b828203905092915050565b600061401882613307565b915061402383613307565b9250827fffffffffffffffffffffffffffffffffffffffffffffffffffffffffffffffff0382111561405857614057613cab565b5b828201905092915050565b7f4e4654537761707065723a2072656d6f7665436f6e7472696275746f723a206360008201527f6f6e7472696275746f72206e6f7420666f756e64000000000000000000000000602082015250565b60006140bf603483613b93565b91506140ca82614063565b604082019050919050565b600060208201905081810360008301526140ee816140b2565b9050919050565b7f4e487b7100000000000000000000000000000000000000000000000000000000600052603160045260246000fd5b7f4e4654537761707065723a20756e63616e63656c3a2073776170206973206e6f60008201527f742063616e63656c6c6564000000000000000000000000000000000000000000602082015250565b6000614180602b83613b93565b915061418b82614124565b604082019050919050565b600060208201905081810360008301526141af81614173565b9050919050565b7f4e4654537761707065723a20737761703a20696e73756666696369656e74207660008201527f616c756520666f72207377617000000000000000000000000000000000000000602082015250565b6000614212602d83613b93565b915061421d826141b6565b604082019050919050565b6000602082019050818103600083015261424181614205565b9050919050565b6142518161362a565b82525050565b600060808201905061426c600083018761393b565b614279602083018661393b565b6142866040830185614248565b61429360608301846133c5565b95945050505050565b6000815190506142ab816138bc565b92915050565b6000602082840312156142c7576142c6613246565b5b60006142d58482850161429c565b91505092915050565b7f4e4654537761707065723a20737761703a2073656e646572206973206e6f742060008201527f746865206f776e6572206f662064656d616e646564204e465473000000000000602082015250565b600061433a603a83613b93565b9150614345826142de565b604082019050919050565b600060208201905081810360008301526143698161432d565b9050919050565b600060a082019050614385600083018861393b565b614392602083018761393b565b61439f6040830186614248565b6143ac60608301856133c5565b6143b9608083018461393b565b9695505050505050565b7f4e4654537761707065723a20737761703a207472616e736665722066726f6d2060008201527f74656e646572656420746f20626964646572206661696c656400000000000000602082015250565b600061441f603983613b93565b915061442a826143c3565b604082019050919050565b6000602082019050818103600083015261444e81614412565b9050919050565b7f4e4654537761707065723a20737761703a20537761702062696464657220697360008201527f206e6f7420746865206f776e6572206f66206f666665726564204e4654730000602082015250565b60006144b1603e83613b93565b91506144bc82614455565b604082019050919050565b600060208201905081810360008301526144e0816144a4565b9050919050565b7f4e4654537761707065723a20737761703a207472616e736665722066726f6d2060008201527f62696464657220746f2074656e6465726564206661696c656400000000000000602082015250565b6000614543603983613b93565b915061454e826144e7565b604082019050919050565b6000602082019050818103600083015261457281614536565b9050919050565b7f4e4654537761707065723a206e6f7420612074656e6465726564000000000000600082015250565b60006145af601a83613b93565b91506145ba82614579565b602082019050919050565b600060208201905081810360008301526145de816145a2565b9050919050565b7f4e4654537761707065723a2067657448616e646c65723a206e6f2068616e646c60008201527f657220666f756e64000000000000000000000000000000000000000000000000602082015250565b6000614641602883613b93565b915061464c826145e5565b604082019050919050565b6000602082019050818103600083015261467081614634565b9050919050565b7f4e4654537761707065723a2072656769737465723a206269646465722069732060008201527f6e6f742076616c69640000000000000000000000000000000000000000000000602082015250565b60006146d3602983613b93565b91506146de82614677565b604082019050919050565b60006020820190508181036000830152614702816146c6565b9050919050565b7f4e4654537761707065723a2072656769737465723a20696e737566666963696560008201527f6e742076616c756520666f722072656769737465720000000000000000000000602082015250565b6000614765603583613b93565b915061477082614709565b604082019050919050565b6000602082019050818103600083015261479481614758565b9050919050565b600081356147a881613282565b80915050919050565b60008160001b9050919050565b600073ffffffffffffffffffffffffffffffffffffffff6147de846147b1565b9350801983169250808416831791505092915050565b60006147ff826134a0565b9050919050565b6000819050919050565b614819826147f4565b61482c61482582614806565b83546147be565b8255505050565b61483c8161362a565b811461484757600080fd5b50565b6000813561485781614833565b80915050919050565b60007fffffffffffffffffffffffffffffffffffffffffffffffffffffffffffffffff61488c846147b1565b9350801983169250808416831791505092915050565b60006148ad8261362a565b9050919050565b60008160001c9050919050565b60006148cc826148b4565b9050919050565b6148dc826148a2565b6148ef6148e8826148c1565b8354614860565b8255505050565b60008135614903816133ef565b80915050919050565b600061492761492261491d84613307565b613474565b613307565b9050919050565b6000819050919050565b6149418261490c565b61495461494d8261492e565b8354614860565b8255505050565b60008101600083018061496d8161479b565b90506149798184614810565b50505060018101602083018061498e8161484a565b905061499a81846148d3565b5050506002810160408301806149af816148f6565b90506149bb8184614938565b5050505050565b6149cc828261495b565b5050565b60007fffffffff0000000000000000000000000000000000000000000000000000000082169050919050565b614a05816149d0565b82525050565b6000602082019050614a2060008301846149fc565b92915050565b7f68616e646c657220646f6573206e6f7420737570706f7274204953776170706560008201527f7248616e646c6572000000000000000000000000000000000000000000000000602082015250565b6000614a82602883613b93565b9150614a8d82614a26565b604082019050919050565b60006020820190508181036000830152614ab181614a75565b9050919050565b7f4f776e61626c653a206e6577206f776e657220697320746865207a65726f206160008201527f6464726573730000000000000000000000000000000000000000000000000000602082015250565b6000614b14602683613b93565b9150614b1f82614ab8565b604082019050919050565b60006020820190508181036000830152614b4381614b07565b9050919050565b7f4f776e61626c653a2063616c6c6572206973206e6f7420746865206f776e6572600082015250565b6000614b80602083613b93565b9150614b8b82614b4a565b602082019050919050565b60006020820190508181036000830152614baf81614b73565b905091905056fea26469706673582212204b10d94e456570729cbef7d4f789d2298397243d475d7d4d0bbf18d6729ded4664736f6c63430008090033",
			"opcodes": "PUSH1 0x80 PUSH1 0x40 MSTORE PUSH1 0x0 PUSH1 0x6 SSTORE PUSH1 0x0 PUSH1 0x7 SSTORE CALLVALUE DUP1 ISZERO PUSH3 0x1B JUMPI PUSH1 0x0 DUP1 REVERT JUMPDEST POP PUSH3 0x3C PUSH3 0x30 PUSH3 0x64 PUSH1 0x20 SHL PUSH1 0x20 SHR JUMP JUMPDEST PUSH3 0x6C PUSH1 0x20 SHL PUSH1 0x20 SHR JUMP JUMPDEST PUSH3 0x5E PUSH3 0x50 PUSH3 0x64 PUSH1 0x20 SHL PUSH1 0x20 SHR JUMP JUMPDEST PUSH1 0x64 PUSH3 0x130 PUSH1 0x20 SHL PUSH1 0x20 SHR JUMP JUMPDEST PUSH3 0x99E JUMP JUMPDEST PUSH1 0x0 CALLER SWAP1 POP SWAP1 JUMP JUMPDEST PUSH1 0x0 DUP1 PUSH1 0x0 SWAP1 SLOAD SWAP1 PUSH2 0x100 EXP SWAP1 DIV PUSH20 0xFFFFFFFFFFFFFFFFFFFFFFFFFFFFFFFFFFFFFFFF AND SWAP1 POP DUP2 PUSH1 0x0 DUP1 PUSH2 0x100 EXP DUP2 SLOAD DUP2 PUSH20 0xFFFFFFFFFFFFFFFFFFFFFFFFFFFFFFFFFFFFFFFF MUL NOT AND SWAP1 DUP4 PUSH20 0xFFFFFFFFFFFFFFFFFFFFFFFFFFFFFFFFFFFFFFFF AND MUL OR SWAP1 SSTORE POP DUP2 PUSH20 0xFFFFFFFFFFFFFFFFFFFFFFFFFFFFFFFFFFFFFFFF AND DUP2 PUSH20 0xFFFFFFFFFFFFFFFFFFFFFFFFFFFFFFFFFFFFFFFF AND PUSH32 0x8BE0079C531659141344CD1FD0A4F28419497F9722A3DAAFE3B4186F6B6457E0 PUSH1 0x40 MLOAD PUSH1 0x40 MLOAD DUP1 SWAP2 SUB SWAP1 LOG3 POP POP JUMP JUMPDEST PUSH3 0x140 PUSH3 0x5B4 PUSH1 0x20 SHL PUSH1 0x20 SHR JUMP JUMPDEST PUSH1 0x0 DUP3 PUSH20 0xFFFFFFFFFFFFFFFFFFFFFFFFFFFFFFFFFFFFFFFF AND EXTCODESIZE EQ PUSH3 0x19D JUMPI PUSH1 0x40 MLOAD PUSH32 0x8C379A000000000000000000000000000000000000000000000000000000000 DUP2 MSTORE PUSH1 0x4 ADD PUSH3 0x194 SWAP1 PUSH3 0x6F5 JUMP JUMPDEST PUSH1 0x40 MLOAD DUP1 SWAP2 SUB SWAP1 REVERT JUMPDEST PUSH1 0x0 DUP2 GT ISZERO PUSH3 0x360 JUMPI PUSH1 0x0 PUSH1 0x3 PUSH1 0x0 DUP5 PUSH20 0xFFFFFFFFFFFFFFFFFFFFFFFFFFFFFFFFFFFFFFFF AND PUSH20 0xFFFFFFFFFFFFFFFFFFFFFFFFFFFFFFFFFFFFFFFF AND DUP2 MSTORE PUSH1 0x20 ADD SWAP1 DUP2 MSTORE PUSH1 0x20 ADD PUSH1 0x0 KECCAK256 SLOAD GT ISZERO PUSH3 0x29C JUMPI DUP1 PUSH1 0x3 PUSH1 0x0 DUP5 PUSH20 0xFFFFFFFFFFFFFFFFFFFFFFFFFFFFFFFFFFFFFFFF AND PUSH20 0xFFFFFFFFFFFFFFFFFFFFFFFFFFFFFFFFFFFFFFFF AND DUP2 MSTORE PUSH1 0x20 ADD SWAP1 DUP2 MSTORE PUSH1 0x20 ADD PUSH1 0x0 KECCAK256 SLOAD PUSH1 0x5 SLOAD PUSH3 0x240 SWAP2 SWAP1 PUSH3 0x750 JUMP JUMPDEST PUSH3 0x24C SWAP2 SWAP1 PUSH3 0x78B JUMP JUMPDEST PUSH1 0x5 DUP2 SWAP1 SSTORE POP DUP1 PUSH1 0x3 PUSH1 0x0 DUP5 PUSH20 0xFFFFFFFFFFFFFFFFFFFFFFFFFFFFFFFFFFFFFFFF AND PUSH20 0xFFFFFFFFFFFFFFFFFFFFFFFFFFFFFFFFFFFFFFFF AND DUP2 MSTORE PUSH1 0x20 ADD SWAP1 DUP2 MSTORE PUSH1 0x20 ADD PUSH1 0x0 KECCAK256 DUP2 SWAP1 SSTORE POP PUSH3 0x35A JUMP JUMPDEST DUP1 PUSH1 0x5 SLOAD PUSH3 0x2AC SWAP2 SWAP1 PUSH3 0x78B JUMP JUMPDEST PUSH1 0x5 DUP2 SWAP1 SSTORE POP DUP1 PUSH1 0x3 PUSH1 0x0 DUP5 PUSH20 0xFFFFFFFFFFFFFFFFFFFFFFFFFFFFFFFFFFFFFFFF AND PUSH20 0xFFFFFFFFFFFFFFFFFFFFFFFFFFFFFFFFFFFFFFFF AND DUP2 MSTORE PUSH1 0x20 ADD SWAP1 DUP2 MSTORE PUSH1 0x20 ADD PUSH1 0x0 KECCAK256 DUP2 SWAP1 SSTORE POP PUSH1 0x4 DUP3 SWAP1 DUP1 PUSH1 0x1 DUP2 SLOAD ADD DUP1 DUP3 SSTORE DUP1 SWAP2 POP POP PUSH1 0x1 SWAP1 SUB SWAP1 PUSH1 0x0 MSTORE PUSH1 0x20 PUSH1 0x0 KECCAK256 ADD PUSH1 0x0 SWAP1 SWAP2 SWAP1 SWAP2 SWAP1 SWAP2 PUSH2 0x100 EXP DUP2 SLOAD DUP2 PUSH20 0xFFFFFFFFFFFFFFFFFFFFFFFFFFFFFFFFFFFFFFFF MUL NOT AND SWAP1 DUP4 PUSH20 0xFFFFFFFFFFFFFFFFFFFFFFFFFFFFFFFFFFFFFFFF AND MUL OR SWAP1 SSTORE POP JUMPDEST PUSH3 0x5B0 JUMP JUMPDEST PUSH1 0x0 PUSH1 0x3 PUSH1 0x0 DUP5 PUSH20 0xFFFFFFFFFFFFFFFFFFFFFFFFFFFFFFFFFFFFFFFF AND PUSH20 0xFFFFFFFFFFFFFFFFFFFFFFFFFFFFFFFFFFFFFFFF AND DUP2 MSTORE PUSH1 0x20 ADD SWAP1 DUP2 MSTORE PUSH1 0x20 ADD PUSH1 0x0 KECCAK256 SLOAD GT PUSH3 0x3E5 JUMPI PUSH1 0x40 MLOAD PUSH32 0x8C379A000000000000000000000000000000000000000000000000000000000 DUP2 MSTORE PUSH1 0x4 ADD PUSH3 0x3DC SWAP1 PUSH3 0x85E JUMP JUMPDEST PUSH1 0x40 MLOAD DUP1 SWAP2 SUB SWAP1 REVERT JUMPDEST PUSH1 0x3 PUSH1 0x0 DUP4 PUSH20 0xFFFFFFFFFFFFFFFFFFFFFFFFFFFFFFFFFFFFFFFF AND PUSH20 0xFFFFFFFFFFFFFFFFFFFFFFFFFFFFFFFFFFFFFFFF AND DUP2 MSTORE PUSH1 0x20 ADD SWAP1 DUP2 MSTORE PUSH1 0x20 ADD PUSH1 0x0 KECCAK256 SLOAD PUSH1 0x5 SLOAD PUSH3 0x434 SWAP2 SWAP1 PUSH3 0x750 JUMP JUMPDEST PUSH1 0x5 DUP2 SWAP1 SSTORE POP PUSH1 0x0 JUMPDEST PUSH1 0x4 DUP1 SLOAD SWAP1 POP DUP2 LT ISZERO PUSH3 0x56B JUMPI DUP3 PUSH20 0xFFFFFFFFFFFFFFFFFFFFFFFFFFFFFFFFFFFFFFFF AND PUSH1 0x4 DUP3 DUP2 SLOAD DUP2 LT PUSH3 0x479 JUMPI PUSH3 0x478 PUSH3 0x880 JUMP JUMPDEST JUMPDEST SWAP1 PUSH1 0x0 MSTORE PUSH1 0x20 PUSH1 0x0 KECCAK256 ADD PUSH1 0x0 SWAP1 SLOAD SWAP1 PUSH2 0x100 EXP SWAP1 DIV PUSH20 0xFFFFFFFFFFFFFFFFFFFFFFFFFFFFFFFFFFFFFFFF AND PUSH20 0xFFFFFFFFFFFFFFFFFFFFFFFFFFFFFFFFFFFFFFFF AND EQ ISZERO PUSH3 0x555 JUMPI PUSH1 0x4 DUP2 DUP2 SLOAD DUP2 LT PUSH3 0x4D8 JUMPI PUSH3 0x4D7 PUSH3 0x880 JUMP JUMPDEST JUMPDEST SWAP1 PUSH1 0x0 MSTORE PUSH1 0x20 PUSH1 0x0 KECCAK256 ADD PUSH1 0x0 PUSH2 0x100 EXP DUP2 SLOAD SWAP1 PUSH20 0xFFFFFFFFFFFFFFFFFFFFFFFFFFFFFFFFFFFFFFFF MUL NOT AND SWAP1 SSTORE PUSH1 0x4 DUP1 SLOAD DUP1 PUSH3 0x51A JUMPI PUSH3 0x519 PUSH3 0x8AF JUMP JUMPDEST JUMPDEST PUSH1 0x1 SWAP1 SUB DUP2 DUP2 SWAP1 PUSH1 0x0 MSTORE PUSH1 0x20 PUSH1 0x0 KECCAK256 ADD PUSH1 0x0 PUSH2 0x100 EXP DUP2 SLOAD SWAP1 PUSH20 0xFFFFFFFFFFFFFFFFFFFFFFFFFFFFFFFFFFFFFFFF MUL NOT AND SWAP1 SSTORE SWAP1 SSTORE PUSH3 0x56B JUMP JUMPDEST DUP1 DUP1 PUSH3 0x562 SWAP1 PUSH3 0x8DE JUMP JUMPDEST SWAP2 POP POP PUSH3 0x43D JUMP JUMPDEST POP PUSH1 0x3 PUSH1 0x0 DUP4 PUSH20 0xFFFFFFFFFFFFFFFFFFFFFFFFFFFFFFFFFFFFFFFF AND PUSH20 0xFFFFFFFFFFFFFFFFFFFFFFFFFFFFFFFFFFFFFFFF AND DUP2 MSTORE PUSH1 0x20 ADD SWAP1 DUP2 MSTORE PUSH1 0x20 ADD PUSH1 0x0 KECCAK256 PUSH1 0x0 SWAP1 SSTORE JUMPDEST POP POP JUMP JUMPDEST PUSH3 0x5C4 PUSH3 0x64 PUSH1 0x20 SHL PUSH1 0x20 SHR JUMP JUMPDEST PUSH20 0xFFFFFFFFFFFFFFFFFFFFFFFFFFFFFFFFFFFFFFFF AND PUSH3 0x5EA PUSH3 0x645 PUSH1 0x20 SHL PUSH1 0x20 SHR JUMP JUMPDEST PUSH20 0xFFFFFFFFFFFFFFFFFFFFFFFFFFFFFFFFFFFFFFFF AND EQ PUSH3 0x643 JUMPI PUSH1 0x40 MLOAD PUSH32 0x8C379A000000000000000000000000000000000000000000000000000000000 DUP2 MSTORE PUSH1 0x4 ADD PUSH3 0x63A SWAP1 PUSH3 0x97C JUMP JUMPDEST PUSH1 0x40 MLOAD DUP1 SWAP2 SUB SWAP1 REVERT JUMPDEST JUMP JUMPDEST PUSH1 0x0 DUP1 PUSH1 0x0 SWAP1 SLOAD SWAP1 PUSH2 0x100 EXP SWAP1 DIV PUSH20 0xFFFFFFFFFFFFFFFFFFFFFFFFFFFFFFFFFFFFFFFF AND SWAP1 POP SWAP1 JUMP JUMPDEST PUSH1 0x0 DUP3 DUP3 MSTORE PUSH1 0x20 DUP3 ADD SWAP1 POP SWAP3 SWAP2 POP POP JUMP JUMPDEST PUSH32 0x4E4654537761707065723A20736574436F6E7472696275746F723A20636F6E74 PUSH1 0x0 DUP3 ADD MSTORE PUSH32 0x72696275746F722061646472657373206973206E6F74206120454F4100000000 PUSH1 0x20 DUP3 ADD MSTORE POP JUMP JUMPDEST PUSH1 0x0 PUSH3 0x6DD PUSH1 0x3C DUP4 PUSH3 0x66E JUMP JUMPDEST SWAP2 POP PUSH3 0x6EA DUP3 PUSH3 0x67F JUMP JUMPDEST PUSH1 0x40 DUP3 ADD SWAP1 POP SWAP2 SWAP1 POP JUMP JUMPDEST PUSH1 0x0 PUSH1 0x20 DUP3 ADD SWAP1 POP DUP2 DUP2 SUB PUSH1 0x0 DUP4 ADD MSTORE PUSH3 0x710 DUP2 PUSH3 0x6CE JUMP JUMPDEST SWAP1 POP SWAP2 SWAP1 POP JUMP JUMPDEST PUSH1 0x0 DUP2 SWAP1 POP SWAP2 SWAP1 POP JUMP JUMPDEST PUSH32 0x4E487B7100000000000000000000000000000000000000000000000000000000 PUSH1 0x0 MSTORE PUSH1 0x11 PUSH1 0x4 MSTORE PUSH1 0x24 PUSH1 0x0 REVERT JUMPDEST PUSH1 0x0 PUSH3 0x75D DUP3 PUSH3 0x717 JUMP JUMPDEST SWAP2 POP PUSH3 0x76A DUP4 PUSH3 0x717 JUMP JUMPDEST SWAP3 POP DUP3 DUP3 LT ISZERO PUSH3 0x780 JUMPI PUSH3 0x77F PUSH3 0x721 JUMP JUMPDEST JUMPDEST DUP3 DUP3 SUB SWAP1 POP SWAP3 SWAP2 POP POP JUMP JUMPDEST PUSH1 0x0 PUSH3 0x798 DUP3 PUSH3 0x717 JUMP JUMPDEST SWAP2 POP PUSH3 0x7A5 DUP4 PUSH3 0x717 JUMP JUMPDEST SWAP3 POP DUP3 PUSH32 0xFFFFFFFFFFFFFFFFFFFFFFFFFFFFFFFFFFFFFFFFFFFFFFFFFFFFFFFFFFFFFFFF SUB DUP3 GT ISZERO PUSH3 0x7DD JUMPI PUSH3 0x7DC PUSH3 0x721 JUMP JUMPDEST JUMPDEST DUP3 DUP3 ADD SWAP1 POP SWAP3 SWAP2 POP POP JUMP JUMPDEST PUSH32 0x4E4654537761707065723A2072656D6F7665436F6E7472696275746F723A2063 PUSH1 0x0 DUP3 ADD MSTORE PUSH32 0x6F6E7472696275746F72206E6F7420666F756E64000000000000000000000000 PUSH1 0x20 DUP3 ADD MSTORE POP JUMP JUMPDEST PUSH1 0x0 PUSH3 0x846 PUSH1 0x34 DUP4 PUSH3 0x66E JUMP JUMPDEST SWAP2 POP PUSH3 0x853 DUP3 PUSH3 0x7E8 JUMP JUMPDEST PUSH1 0x40 DUP3 ADD SWAP1 POP SWAP2 SWAP1 POP JUMP JUMPDEST PUSH1 0x0 PUSH1 0x20 DUP3 ADD SWAP1 POP DUP2 DUP2 SUB PUSH1 0x0 DUP4 ADD MSTORE PUSH3 0x879 DUP2 PUSH3 0x837 JUMP JUMPDEST SWAP1 POP SWAP2 SWAP1 POP JUMP JUMPDEST PUSH32 0x4E487B7100000000000000000000000000000000000000000000000000000000 PUSH1 0x0 MSTORE PUSH1 0x32 PUSH1 0x4 MSTORE PUSH1 0x24 PUSH1 0x0 REVERT JUMPDEST PUSH32 0x4E487B7100000000000000000000000000000000000000000000000000000000 PUSH1 0x0 MSTORE PUSH1 0x31 PUSH1 0x4 MSTORE PUSH1 0x24 PUSH1 0x0 REVERT JUMPDEST PUSH1 0x0 PUSH3 0x8EB DUP3 PUSH3 0x717 JUMP JUMPDEST SWAP2 POP PUSH32 0xFFFFFFFFFFFFFFFFFFFFFFFFFFFFFFFFFFFFFFFFFFFFFFFFFFFFFFFFFFFFFFFF DUP3 EQ ISZERO PUSH3 0x921 JUMPI PUSH3 0x920 PUSH3 0x721 JUMP JUMPDEST JUMPDEST PUSH1 0x1 DUP3 ADD SWAP1 POP SWAP2 SWAP1 POP JUMP JUMPDEST PUSH32 0x4F776E61626C653A2063616C6C6572206973206E6F7420746865206F776E6572 PUSH1 0x0 DUP3 ADD MSTORE POP JUMP JUMPDEST PUSH1 0x0 PUSH3 0x964 PUSH1 0x20 DUP4 PUSH3 0x66E JUMP JUMPDEST SWAP2 POP PUSH3 0x971 DUP3 PUSH3 0x92C JUMP JUMPDEST PUSH1 0x20 DUP3 ADD SWAP1 POP SWAP2 SWAP1 POP JUMP JUMPDEST PUSH1 0x0 PUSH1 0x20 DUP3 ADD SWAP1 POP DUP2 DUP2 SUB PUSH1 0x0 DUP4 ADD MSTORE PUSH3 0x997 DUP2 PUSH3 0x955 JUMP JUMPDEST SWAP1 POP SWAP2 SWAP1 POP JUMP JUMPDEST PUSH2 0x4BEC DUP1 PUSH3 0x9AE PUSH1 0x0 CODECOPY PUSH1 0x0 RETURN INVALID PUSH1 0x80 PUSH1 0x40 MSTORE PUSH1 0x4 CALLDATASIZE LT PUSH2 0x14F JUMPI PUSH1 0x0 CALLDATALOAD PUSH1 0xE0 SHR DUP1 PUSH4 0x8DA5CB5B GT PUSH2 0xB6 JUMPI DUP1 PUSH4 0xD5002F2E GT PUSH2 0x6F JUMPI DUP1 PUSH4 0xD5002F2E EQ PUSH2 0x463 JUMPI DUP1 PUSH4 0xD81671BC EQ PUSH2 0x48E JUMPI DUP1 PUSH4 0xE0EFC2F5 EQ PUSH2 0x4B9 JUMPI DUP1 PUSH4 0xEB57CE55 EQ PUSH2 0x4E9 JUMPI DUP1 PUSH4 0xED470A3A EQ PUSH2 0x512 JUMPI DUP1 PUSH4 0xF2FDE38B EQ PUSH2 0x53B JUMPI PUSH2 0x156 JUMP JUMPDEST DUP1 PUSH4 0x8DA5CB5B EQ PUSH2 0x360 JUMPI DUP1 PUSH4 0x92BE2AB8 EQ PUSH2 0x38B JUMPI DUP1 PUSH4 0x94B918DE EQ PUSH2 0x3B4 JUMPI DUP1 PUSH4 0xAF157C19 EQ PUSH2 0x3D0 JUMPI DUP1 PUSH4 0xB6C9B393 EQ PUSH2 0x3FB JUMPI DUP1 PUSH4 0xD4CADF68 EQ PUSH2 0x438 JUMPI PUSH2 0x156 JUMP JUMPDEST DUP1 PUSH4 0x4A0D89BA GT PUSH2 0x108 JUMPI DUP1 PUSH4 0x4A0D89BA EQ PUSH2 0x254 JUMPI DUP1 PUSH4 0x4B3AB9C5 EQ PUSH2 0x291 JUMPI DUP1 PUSH4 0x61784C7A EQ PUSH2 0x2CE JUMPI DUP1 PUSH4 0x6E214A8E EQ PUSH2 0x2F7 JUMPI DUP1 PUSH4 0x715018A6 EQ PUSH2 0x320 JUMPI DUP1 PUSH4 0x7634C6C3 EQ PUSH2 0x337 JUMPI PUSH2 0x156 JUMP JUMPDEST DUP1 PUSH4 0x21C616DA EQ PUSH2 0x158 JUMPI DUP1 PUSH4 0x32A58E79 EQ PUSH2 0x195 JUMPI DUP1 PUSH4 0x34E19907 EQ PUSH2 0x1C0 JUMPI DUP1 PUSH4 0x3801A828 EQ PUSH2 0x1E9 JUMPI DUP1 PUSH4 0x3CCFD60B EQ PUSH2 0x214 JUMPI DUP1 PUSH4 0x40E58EE5 EQ PUSH2 0x22B JUMPI PUSH2 0x156 JUMP JUMPDEST CALLDATASIZE PUSH2 0x156 JUMPI STOP JUMPDEST STOP JUMPDEST CALLVALUE DUP1 ISZERO PUSH2 0x164 JUMPI PUSH1 0x0 DUP1 REVERT JUMPDEST POP PUSH2 0x17F PUSH1 0x4 DUP1 CALLDATASIZE SUB DUP2 ADD SWAP1 PUSH2 0x17A SWAP2 SWAP1 PUSH2 0x32AE JUMP JUMPDEST PUSH2 0x564 JUMP JUMPDEST PUSH1 0x40 MLOAD PUSH2 0x18C SWAP2 SWAP1 PUSH2 0x33A3 JUMP JUMPDEST PUSH1 0x40 MLOAD DUP1 SWAP2 SUB SWAP1 RETURN JUMPDEST CALLVALUE DUP1 ISZERO PUSH2 0x1A1 JUMPI PUSH1 0x0 DUP1 REVERT JUMPDEST POP PUSH2 0x1AA PUSH2 0x5FB JUMP JUMPDEST PUSH1 0x40 MLOAD PUSH2 0x1B7 SWAP2 SWAP1 PUSH2 0x33D4 JUMP JUMPDEST PUSH1 0x40 MLOAD DUP1 SWAP2 SUB SWAP1 RETURN JUMPDEST CALLVALUE DUP1 ISZERO PUSH2 0x1CC JUMPI PUSH1 0x0 DUP1 REVERT JUMPDEST POP PUSH2 0x1E7 PUSH1 0x4 DUP1 CALLDATASIZE SUB DUP2 ADD SWAP1 PUSH2 0x1E2 SWAP2 SWAP1 PUSH2 0x341B JUMP JUMPDEST PUSH2 0x605 JUMP JUMPDEST STOP JUMPDEST CALLVALUE DUP1 ISZERO PUSH2 0x1F5 JUMPI PUSH1 0x0 DUP1 REVERT JUMPDEST POP PUSH2 0x1FE PUSH2 0x617 JUMP JUMPDEST PUSH1 0x40 MLOAD PUSH2 0x20B SWAP2 SWAP1 PUSH2 0x3556 JUMP JUMPDEST PUSH1 0x40 MLOAD DUP1 SWAP2 SUB SWAP1 RETURN JUMPDEST CALLVALUE DUP1 ISZERO PUSH2 0x220 JUMPI PUSH1 0x0 DUP1 REVERT JUMPDEST POP PUSH2 0x229 PUSH2 0x6A5 JUMP JUMPDEST STOP JUMPDEST CALLVALUE DUP1 ISZERO PUSH2 0x237 JUMPI PUSH1 0x0 DUP1 REVERT JUMPDEST POP PUSH2 0x252 PUSH1 0x4 DUP1 CALLDATASIZE SUB DUP2 ADD SWAP1 PUSH2 0x24D SWAP2 SWAP1 PUSH2 0x341B JUMP JUMPDEST PUSH2 0x8D6 JUMP JUMPDEST STOP JUMPDEST CALLVALUE DUP1 ISZERO PUSH2 0x260 JUMPI PUSH1 0x0 DUP1 REVERT JUMPDEST POP PUSH2 0x27B PUSH1 0x4 DUP1 CALLDATASIZE SUB DUP2 ADD SWAP1 PUSH2 0x276 SWAP2 SWAP1 PUSH2 0x341B JUMP JUMPDEST PUSH2 0xAEE JUMP JUMPDEST PUSH1 0x40 MLOAD PUSH2 0x288 SWAP2 SWAP1 PUSH2 0x384E JUMP JUMPDEST PUSH1 0x40 MLOAD DUP1 SWAP2 SUB SWAP1 RETURN JUMPDEST CALLVALUE DUP1 ISZERO PUSH2 0x29D JUMPI PUSH1 0x0 DUP1 REVERT JUMPDEST POP PUSH2 0x2B8 PUSH1 0x4 DUP1 CALLDATASIZE SUB DUP2 ADD SWAP1 PUSH2 0x2B3 SWAP2 SWAP1 PUSH2 0x32AE JUMP JUMPDEST PUSH2 0xE31 JUMP JUMPDEST PUSH1 0x40 MLOAD PUSH2 0x2C5 SWAP2 SWAP1 PUSH2 0x33D4 JUMP JUMPDEST PUSH1 0x40 MLOAD DUP1 SWAP2 SUB SWAP1 RETURN JUMPDEST CALLVALUE DUP1 ISZERO PUSH2 0x2DA JUMPI PUSH1 0x0 DUP1 REVERT JUMPDEST POP PUSH2 0x2F5 PUSH1 0x4 DUP1 CALLDATASIZE SUB DUP2 ADD SWAP1 PUSH2 0x2F0 SWAP2 SWAP1 PUSH2 0x3870 JUMP JUMPDEST PUSH2 0xF02 JUMP JUMPDEST STOP JUMPDEST CALLVALUE DUP1 ISZERO PUSH2 0x303 JUMPI PUSH1 0x0 DUP1 REVERT JUMPDEST POP PUSH2 0x31E PUSH1 0x4 DUP1 CALLDATASIZE SUB DUP2 ADD SWAP1 PUSH2 0x319 SWAP2 SWAP1 PUSH2 0x341B JUMP JUMPDEST PUSH2 0x135D JUMP JUMPDEST STOP JUMPDEST CALLVALUE DUP1 ISZERO PUSH2 0x32C JUMPI PUSH1 0x0 DUP1 REVERT JUMPDEST POP PUSH2 0x335 PUSH2 0x1574 JUMP JUMPDEST STOP JUMPDEST CALLVALUE DUP1 ISZERO PUSH2 0x343 JUMPI PUSH1 0x0 DUP1 REVERT JUMPDEST POP PUSH2 0x35E PUSH1 0x4 DUP1 CALLDATASIZE SUB DUP2 ADD SWAP1 PUSH2 0x359 SWAP2 SWAP1 PUSH2 0x38E8 JUMP JUMPDEST PUSH2 0x1588 JUMP JUMPDEST STOP JUMPDEST CALLVALUE DUP1 ISZERO PUSH2 0x36C JUMPI PUSH1 0x0 DUP1 REVERT JUMPDEST POP PUSH2 0x375 PUSH2 0x1BA7 JUMP JUMPDEST PUSH1 0x40 MLOAD PUSH2 0x382 SWAP2 SWAP1 PUSH2 0x394A JUMP JUMPDEST PUSH1 0x40 MLOAD DUP1 SWAP2 SUB SWAP1 RETURN JUMPDEST CALLVALUE DUP1 ISZERO PUSH2 0x397 JUMPI PUSH1 0x0 DUP1 REVERT JUMPDEST POP PUSH2 0x3B2 PUSH1 0x4 DUP1 CALLDATASIZE SUB DUP2 ADD SWAP1 PUSH2 0x3AD SWAP2 SWAP1 PUSH2 0x341B JUMP JUMPDEST PUSH2 0x1BD0 JUMP JUMPDEST STOP JUMPDEST PUSH2 0x3CE PUSH1 0x4 DUP1 CALLDATASIZE SUB DUP2 ADD SWAP1 PUSH2 0x3C9 SWAP2 SWAP1 PUSH2 0x341B JUMP JUMPDEST PUSH2 0x1BE2 JUMP JUMPDEST STOP JUMPDEST CALLVALUE DUP1 ISZERO PUSH2 0x3DC JUMPI PUSH1 0x0 DUP1 REVERT JUMPDEST POP PUSH2 0x3E5 PUSH2 0x248B JUMP JUMPDEST PUSH1 0x40 MLOAD PUSH2 0x3F2 SWAP2 SWAP1 PUSH2 0x39C3 JUMP JUMPDEST PUSH1 0x40 MLOAD DUP1 SWAP2 SUB SWAP1 RETURN JUMPDEST CALLVALUE DUP1 ISZERO PUSH2 0x407 JUMPI PUSH1 0x0 DUP1 REVERT JUMPDEST POP PUSH2 0x422 PUSH1 0x4 DUP1 CALLDATASIZE SUB DUP2 ADD SWAP1 PUSH2 0x41D SWAP2 SWAP1 PUSH2 0x32AE JUMP JUMPDEST PUSH2 0x25A2 JUMP JUMPDEST PUSH1 0x40 MLOAD PUSH2 0x42F SWAP2 SWAP1 PUSH2 0x39F4 JUMP JUMPDEST PUSH1 0x40 MLOAD DUP1 SWAP2 SUB SWAP1 RETURN JUMPDEST CALLVALUE DUP1 ISZERO PUSH2 0x444 JUMPI PUSH1 0x0 DUP1 REVERT JUMPDEST POP PUSH2 0x44D PUSH2 0x2725 JUMP JUMPDEST PUSH1 0x40 MLOAD PUSH2 0x45A SWAP2 SWAP1 PUSH2 0x33D4 JUMP JUMPDEST PUSH1 0x40 MLOAD DUP1 SWAP2 SUB SWAP1 RETURN JUMPDEST CALLVALUE DUP1 ISZERO PUSH2 0x46F JUMPI PUSH1 0x0 DUP1 REVERT JUMPDEST POP PUSH2 0x478 PUSH2 0x272F JUMP JUMPDEST PUSH1 0x40 MLOAD PUSH2 0x485 SWAP2 SWAP1 PUSH2 0x33D4 JUMP JUMPDEST PUSH1 0x40 MLOAD DUP1 SWAP2 SUB SWAP1 RETURN JUMPDEST CALLVALUE DUP1 ISZERO PUSH2 0x49A JUMPI PUSH1 0x0 DUP1 REVERT JUMPDEST POP PUSH2 0x4A3 PUSH2 0x27C1 JUMP JUMPDEST PUSH1 0x40 MLOAD PUSH2 0x4B0 SWAP2 SWAP1 PUSH2 0x33D4 JUMP JUMPDEST PUSH1 0x40 MLOAD DUP1 SWAP2 SUB SWAP1 RETURN JUMPDEST PUSH2 0x4D3 PUSH1 0x4 DUP1 CALLDATASIZE SUB DUP2 ADD SWAP1 PUSH2 0x4CE SWAP2 SWAP1 PUSH2 0x3ACA JUMP JUMPDEST PUSH2 0x27D2 JUMP JUMPDEST PUSH1 0x40 MLOAD PUSH2 0x4E0 SWAP2 SWAP1 PUSH2 0x33D4 JUMP JUMPDEST PUSH1 0x40 MLOAD DUP1 SWAP2 SUB SWAP1 RETURN JUMPDEST CALLVALUE DUP1 ISZERO PUSH2 0x4F5 JUMPI PUSH1 0x0 DUP1 REVERT JUMPDEST POP PUSH2 0x510 PUSH1 0x4 DUP1 CALLDATASIZE SUB DUP2 ADD SWAP1 PUSH2 0x50B SWAP2 SWAP1 PUSH2 0x32AE JUMP JUMPDEST PUSH2 0x2C8A JUMP JUMPDEST STOP JUMPDEST CALLVALUE DUP1 ISZERO PUSH2 0x51E JUMPI PUSH1 0x0 DUP1 REVERT JUMPDEST POP PUSH2 0x539 PUSH1 0x4 DUP1 CALLDATASIZE SUB DUP2 ADD SWAP1 PUSH2 0x534 SWAP2 SWAP1 PUSH2 0x32AE JUMP JUMPDEST PUSH2 0x2DE0 JUMP JUMPDEST STOP JUMPDEST CALLVALUE DUP1 ISZERO PUSH2 0x547 JUMPI PUSH1 0x0 DUP1 REVERT JUMPDEST POP PUSH2 0x562 PUSH1 0x4 DUP1 CALLDATASIZE SUB DUP2 ADD SWAP1 PUSH2 0x55D SWAP2 SWAP1 PUSH2 0x32AE JUMP JUMPDEST PUSH2 0x2FF6 JUMP JUMPDEST STOP JUMPDEST PUSH1 0x60 PUSH1 0x2 PUSH1 0x0 DUP4 PUSH20 0xFFFFFFFFFFFFFFFFFFFFFFFFFFFFFFFFFFFFFFFF AND PUSH20 0xFFFFFFFFFFFFFFFFFFFFFFFFFFFFFFFFFFFFFFFF AND DUP2 MSTORE PUSH1 0x20 ADD SWAP1 DUP2 MSTORE PUSH1 0x20 ADD PUSH1 0x0 KECCAK256 DUP1 SLOAD DUP1 PUSH1 0x20 MUL PUSH1 0x20 ADD PUSH1 0x40 MLOAD SWAP1 DUP2 ADD PUSH1 0x40 MSTORE DUP1 SWAP3 SWAP2 SWAP1 DUP2 DUP2 MSTORE PUSH1 0x20 ADD DUP3 DUP1 SLOAD DUP1 ISZERO PUSH2 0x5EF JUMPI PUSH1 0x20 MUL DUP3 ADD SWAP2 SWAP1 PUSH1 0x0 MSTORE PUSH1 0x20 PUSH1 0x0 KECCAK256 SWAP1 JUMPDEST DUP2 SLOAD DUP2 MSTORE PUSH1 0x20 ADD SWAP1 PUSH1 0x1 ADD SWAP1 DUP1 DUP4 GT PUSH2 0x5DB JUMPI JUMPDEST POP POP POP POP POP SWAP1 POP SWAP2 SWAP1 POP JUMP JUMPDEST PUSH1 0x0 PUSH1 0x6 SLOAD SWAP1 POP SWAP1 JUMP JUMPDEST PUSH2 0x60D PUSH2 0x307A JUMP JUMPDEST DUP1 PUSH1 0x7 DUP2 SWAP1 SSTORE POP POP JUMP JUMPDEST PUSH1 0x60 PUSH1 0x8 DUP1 SLOAD DUP1 PUSH1 0x20 MUL PUSH1 0x20 ADD PUSH1 0x40 MLOAD SWAP1 DUP2 ADD PUSH1 0x40 MSTORE DUP1 SWAP3 SWAP2 SWAP1 DUP2 DUP2 MSTORE PUSH1 0x20 ADD DUP3 DUP1 SLOAD DUP1 ISZERO PUSH2 0x69B JUMPI PUSH1 0x20 MUL DUP3 ADD SWAP2 SWAP1 PUSH1 0x0 MSTORE PUSH1 0x20 PUSH1 0x0 KECCAK256 SWAP1 JUMPDEST DUP2 PUSH1 0x0 SWAP1 SLOAD SWAP1 PUSH2 0x100 EXP SWAP1 DIV PUSH20 0xFFFFFFFFFFFFFFFFFFFFFFFFFFFFFFFFFFFFFFFF AND PUSH20 0xFFFFFFFFFFFFFFFFFFFFFFFFFFFFFFFFFFFFFFFF AND DUP2 MSTORE PUSH1 0x20 ADD SWAP1 PUSH1 0x1 ADD SWAP1 DUP1 DUP4 GT PUSH2 0x651 JUMPI JUMPDEST POP POP POP POP POP SWAP1 POP SWAP1 JUMP JUMPDEST PUSH1 0x0 PUSH1 0x3 PUSH1 0x0 PUSH2 0x6B3 PUSH2 0x30F8 JUMP JUMPDEST PUSH20 0xFFFFFFFFFFFFFFFFFFFFFFFFFFFFFFFFFFFFFFFF AND PUSH20 0xFFFFFFFFFFFFFFFFFFFFFFFFFFFFFFFFFFFFFFFF AND DUP2 MSTORE PUSH1 0x20 ADD SWAP1 DUP2 MSTORE PUSH1 0x20 ADD PUSH1 0x0 KECCAK256 SLOAD GT PUSH2 0x72E JUMPI PUSH1 0x40 MLOAD PUSH32 0x8C379A000000000000000000000000000000000000000000000000000000000 DUP2 MSTORE PUSH1 0x4 ADD PUSH2 0x725 SWAP1 PUSH2 0x3BF0 JUMP JUMPDEST PUSH1 0x40 MLOAD DUP1 SWAP2 SUB SWAP1 REVERT JUMPDEST PUSH1 0x0 SELFBALANCE SWAP1 POP PUSH1 0x0 DUP2 GT PUSH2 0x776 JUMPI PUSH1 0x40 MLOAD PUSH32 0x8C379A000000000000000000000000000000000000000000000000000000000 DUP2 MSTORE PUSH1 0x4 ADD PUSH2 0x76D SWAP1 PUSH2 0x3C5C JUMP JUMPDEST PUSH1 0x40 MLOAD DUP1 SWAP2 SUB SWAP1 REVERT JUMPDEST PUSH1 0x0 JUMPDEST PUSH1 0x4 DUP1 SLOAD SWAP1 POP DUP2 LT ISZERO PUSH2 0x887 JUMPI PUSH1 0x0 PUSH1 0x4 DUP3 DUP2 SLOAD DUP2 LT PUSH2 0x79C JUMPI PUSH2 0x79B PUSH2 0x3C7C JUMP JUMPDEST JUMPDEST SWAP1 PUSH1 0x0 MSTORE PUSH1 0x20 PUSH1 0x0 KECCAK256 ADD PUSH1 0x0 SWAP1 SLOAD SWAP1 PUSH2 0x100 EXP SWAP1 DIV PUSH20 0xFFFFFFFFFFFFFFFFFFFFFFFFFFFFFFFFFFFFFFFF AND SWAP1 POP PUSH1 0x0 PUSH1 0x3 PUSH1 0x0 DUP4 PUSH20 0xFFFFFFFFFFFFFFFFFFFFFFFFFFFFFFFFFFFFFFFF AND PUSH20 0xFFFFFFFFFFFFFFFFFFFFFFFFFFFFFFFFFFFFFFFF AND DUP2 MSTORE PUSH1 0x20 ADD SWAP1 DUP2 MSTORE PUSH1 0x20 ADD PUSH1 0x0 KECCAK256 SLOAD SWAP1 POP PUSH1 0x0 PUSH1 0x5 SLOAD DUP3 DUP7 PUSH2 0x81E SWAP2 SWAP1 PUSH2 0x3CDA JUMP JUMPDEST PUSH2 0x828 SWAP2 SWAP1 PUSH2 0x3D63 JUMP JUMPDEST SWAP1 POP DUP3 PUSH20 0xFFFFFFFFFFFFFFFFFFFFFFFFFFFFFFFFFFFFFFFF AND PUSH2 0x8FC DUP3 SWAP1 DUP2 ISZERO MUL SWAP1 PUSH1 0x40 MLOAD PUSH1 0x0 PUSH1 0x40 MLOAD DUP1 DUP4 SUB DUP2 DUP6 DUP9 DUP9 CALL SWAP4 POP POP POP POP ISZERO DUP1 ISZERO PUSH2 0x870 JUMPI RETURNDATASIZE PUSH1 0x0 DUP1 RETURNDATACOPY RETURNDATASIZE PUSH1 0x0 REVERT JUMPDEST POP POP POP POP DUP1 DUP1 PUSH2 0x87F SWAP1 PUSH2 0x3D94 JUMP JUMPDEST SWAP2 POP POP PUSH2 0x779 JUMP JUMPDEST POP DUP1 PUSH2 0x891 PUSH2 0x30F8 JUMP JUMPDEST PUSH20 0xFFFFFFFFFFFFFFFFFFFFFFFFFFFFFFFFFFFFFFFF AND PUSH32 0x875AB8E60D8FFE0781BA5E1D1ADADEB6250BC1BEE87D3094CC6AC4EB9F88512 PUSH1 0x40 MLOAD PUSH1 0x40 MLOAD DUP1 SWAP2 SUB SWAP1 LOG3 POP JUMP JUMPDEST DUP1 PUSH1 0x0 PUSH1 0x1 PUSH1 0x0 DUP4 DUP2 MSTORE PUSH1 0x20 ADD SWAP1 DUP2 MSTORE PUSH1 0x20 ADD PUSH1 0x0 KECCAK256 PUSH1 0x0 ADD SLOAD GT PUSH2 0x930 JUMPI PUSH1 0x40 MLOAD PUSH32 0x8C379A000000000000000000000000000000000000000000000000000000000 DUP2 MSTORE PUSH1 0x4 ADD PUSH2 0x927 SWAP1 PUSH2 0x3E29 JUMP JUMPDEST PUSH1 0x40 MLOAD DUP1 SWAP2 SUB SWAP1 REVERT JUMPDEST DUP2 PUSH2 0x939 PUSH2 0x30F8 JUMP JUMPDEST DUP1 PUSH20 0xFFFFFFFFFFFFFFFFFFFFFFFFFFFFFFFFFFFFFFFF AND PUSH1 0x1 PUSH1 0x0 DUP5 DUP2 MSTORE PUSH1 0x20 ADD SWAP1 DUP2 MSTORE PUSH1 0x20 ADD PUSH1 0x0 KECCAK256 PUSH1 0x1 ADD PUSH1 0x1 SWAP1 SLOAD SWAP1 PUSH2 0x100 EXP SWAP1 DIV PUSH20 0xFFFFFFFFFFFFFFFFFFFFFFFFFFFFFFFFFFFFFFFF AND PUSH20 0xFFFFFFFFFFFFFFFFFFFFFFFFFFFFFFFFFFFFFFFF AND EQ PUSH2 0x9DD JUMPI PUSH1 0x40 MLOAD PUSH32 0x8C379A000000000000000000000000000000000000000000000000000000000 DUP2 MSTORE PUSH1 0x4 ADD PUSH2 0x9D4 SWAP1 PUSH2 0x3E95 JUMP JUMPDEST PUSH1 0x40 MLOAD DUP1 SWAP2 SUB SWAP1 REVERT JUMPDEST DUP4 PUSH1 0x0 PUSH1 0x2 DUP2 GT ISZERO PUSH2 0x9F2 JUMPI PUSH2 0x9F1 PUSH2 0x3578 JUMP JUMPDEST JUMPDEST PUSH1 0x1 PUSH1 0x0 DUP4 DUP2 MSTORE PUSH1 0x20 ADD SWAP1 DUP2 MSTORE PUSH1 0x20 ADD PUSH1 0x0 KECCAK256 PUSH1 0x1 ADD PUSH1 0x0 SWAP1 SLOAD SWAP1 PUSH2 0x100 EXP SWAP1 DIV PUSH1 0xFF AND PUSH1 0x2 DUP2 GT ISZERO PUSH2 0xA28 JUMPI PUSH2 0xA27 PUSH2 0x3578 JUMP JUMPDEST JUMPDEST EQ PUSH2 0xA68 JUMPI PUSH1 0x40 MLOAD PUSH32 0x8C379A000000000000000000000000000000000000000000000000000000000 DUP2 MSTORE PUSH1 0x4 ADD PUSH2 0xA5F SWAP1 PUSH2 0x3F27 JUMP JUMPDEST PUSH1 0x40 MLOAD DUP1 SWAP2 SUB SWAP1 REVERT JUMPDEST PUSH1 0x1 DUP1 PUSH1 0x0 DUP8 DUP2 MSTORE PUSH1 0x20 ADD SWAP1 DUP2 MSTORE PUSH1 0x20 ADD PUSH1 0x0 KECCAK256 PUSH1 0x1 ADD PUSH1 0x0 PUSH2 0x100 EXP DUP2 SLOAD DUP2 PUSH1 0xFF MUL NOT AND SWAP1 DUP4 PUSH1 0x2 DUP2 GT ISZERO PUSH2 0xAA1 JUMPI PUSH2 0xAA0 PUSH2 0x3578 JUMP JUMPDEST JUMPDEST MUL OR SWAP1 SSTORE POP PUSH1 0x1 PUSH1 0x2 DUP2 GT ISZERO PUSH2 0xABA JUMPI PUSH2 0xAB9 PUSH2 0x3578 JUMP JUMPDEST JUMPDEST DUP6 PUSH32 0x15211D78A502C0EDD03F8CEFB0BA09C0BCDB3045A82C5D05DBDFFF58EFC82F03 PUSH1 0x40 MLOAD PUSH1 0x40 MLOAD DUP1 SWAP2 SUB SWAP1 LOG3 POP POP POP POP POP JUMP JUMPDEST PUSH2 0xAF6 PUSH2 0x31E8 JUMP JUMPDEST DUP2 PUSH1 0x0 PUSH1 0x1 PUSH1 0x0 DUP4 DUP2 MSTORE PUSH1 0x20 ADD SWAP1 DUP2 MSTORE PUSH1 0x20 ADD PUSH1 0x0 KECCAK256 PUSH1 0x0 ADD SLOAD GT PUSH2 0xB50 JUMPI PUSH1 0x40 MLOAD PUSH32 0x8C379A000000000000000000000000000000000000000000000000000000000 DUP2 MSTORE PUSH1 0x4 ADD PUSH2 0xB47 SWAP1 PUSH2 0x3E29 JUMP JUMPDEST PUSH1 0x40 MLOAD DUP1 SWAP2 SUB SWAP1 REVERT JUMPDEST PUSH1 0x1 PUSH1 0x0 DUP5 DUP2 MSTORE PUSH1 0x20 ADD SWAP1 DUP2 MSTORE PUSH1 0x20 ADD PUSH1 0x0 KECCAK256 PUSH1 0x40 MLOAD DUP1 PUSH1 0xC0 ADD PUSH1 0x40 MSTORE SWAP1 DUP2 PUSH1 0x0 DUP3 ADD SLOAD DUP2 MSTORE PUSH1 0x20 ADD PUSH1 0x1 DUP3 ADD PUSH1 0x0 SWAP1 SLOAD SWAP1 PUSH2 0x100 EXP SWAP1 DIV PUSH1 0xFF AND PUSH1 0x2 DUP2 GT ISZERO PUSH2 0xB9D JUMPI PUSH2 0xB9C PUSH2 0x3578 JUMP JUMPDEST JUMPDEST PUSH1 0x2 DUP2 GT ISZERO PUSH2 0xBAF JUMPI PUSH2 0xBAE PUSH2 0x3578 JUMP JUMPDEST JUMPDEST DUP2 MSTORE PUSH1 0x20 ADD PUSH1 0x1 DUP3 ADD PUSH1 0x1 SWAP1 SLOAD SWAP1 PUSH2 0x100 EXP SWAP1 DIV PUSH20 0xFFFFFFFFFFFFFFFFFFFFFFFFFFFFFFFFFFFFFFFF AND PUSH20 0xFFFFFFFFFFFFFFFFFFFFFFFFFFFFFFFFFFFFFFFF AND PUSH20 0xFFFFFFFFFFFFFFFFFFFFFFFFFFFFFFFFFFFFFFFF AND DUP2 MSTORE PUSH1 0x20 ADD PUSH1 0x2 DUP3 ADD DUP1 SLOAD DUP1 PUSH1 0x20 MUL PUSH1 0x20 ADD PUSH1 0x40 MLOAD SWAP1 DUP2 ADD PUSH1 0x40 MSTORE DUP1 SWAP3 SWAP2 SWAP1 DUP2 DUP2 MSTORE PUSH1 0x20 ADD PUSH1 0x0 SWAP1 JUMPDEST DUP3 DUP3 LT ISZERO PUSH2 0xCCA JUMPI DUP4 DUP3 SWAP1 PUSH1 0x0 MSTORE PUSH1 0x20 PUSH1 0x0 KECCAK256 SWAP1 PUSH1 0x3 MUL ADD PUSH1 0x40 MLOAD DUP1 PUSH1 0x60 ADD PUSH1 0x40 MSTORE SWAP1 DUP2 PUSH1 0x0 DUP3 ADD PUSH1 0x0 SWAP1 SLOAD SWAP1 PUSH2 0x100 EXP SWAP1 DIV PUSH20 0xFFFFFFFFFFFFFFFFFFFFFFFFFFFFFFFFFFFFFFFF AND PUSH20 0xFFFFFFFFFFFFFFFFFFFFFFFFFFFFFFFFFFFFFFFF AND PUSH20 0xFFFFFFFFFFFFFFFFFFFFFFFFFFFFFFFFFFFFFFFF AND DUP2 MSTORE PUSH1 0x20 ADD PUSH1 0x1 DUP3 ADD SLOAD DUP2 MSTORE PUSH1 0x20 ADD PUSH1 0x2 DUP3 ADD SLOAD DUP2 MSTORE POP POP DUP2 MSTORE PUSH1 0x20 ADD SWAP1 PUSH1 0x1 ADD SWAP1 PUSH2 0xC2E JUMP JUMPDEST POP POP POP POP DUP2 MSTORE PUSH1 0x20 ADD PUSH1 0x3 DUP3 ADD DUP1 SLOAD DUP1 PUSH1 0x20 MUL PUSH1 0x20 ADD PUSH1 0x40 MLOAD SWAP1 DUP2 ADD PUSH1 0x40 MSTORE DUP1 SWAP3 SWAP2 SWAP1 DUP2 DUP2 MSTORE PUSH1 0x20 ADD DUP3 DUP1 SLOAD DUP1 ISZERO PUSH2 0xD57 JUMPI PUSH1 0x20 MUL DUP3 ADD SWAP2 SWAP1 PUSH1 0x0 MSTORE PUSH1 0x20 PUSH1 0x0 KECCAK256 SWAP1 JUMPDEST DUP2 PUSH1 0x0 SWAP1 SLOAD SWAP1 PUSH2 0x100 EXP SWAP1 DIV PUSH20 0xFFFFFFFFFFFFFFFFFFFFFFFFFFFFFFFFFFFFFFFF AND PUSH20 0xFFFFFFFFFFFFFFFFFFFFFFFFFFFFFFFFFFFFFFFF AND DUP2 MSTORE PUSH1 0x20 ADD SWAP1 PUSH1 0x1 ADD SWAP1 DUP1 DUP4 GT PUSH2 0xD0D JUMPI JUMPDEST POP POP POP POP POP DUP2 MSTORE PUSH1 0x20 ADD PUSH1 0x4 DUP3 ADD DUP1 SLOAD DUP1 PUSH1 0x20 MUL PUSH1 0x20 ADD PUSH1 0x40 MLOAD SWAP1 DUP2 ADD PUSH1 0x40 MSTORE DUP1 SWAP3 SWAP2 SWAP1 DUP2 DUP2 MSTORE PUSH1 0x20 ADD PUSH1 0x0 SWAP1 JUMPDEST DUP3 DUP3 LT ISZERO PUSH2 0xE21 JUMPI DUP4 DUP3 SWAP1 PUSH1 0x0 MSTORE PUSH1 0x20 PUSH1 0x0 KECCAK256 SWAP1 PUSH1 0x3 MUL ADD PUSH1 0x40 MLOAD DUP1 PUSH1 0x60 ADD PUSH1 0x40 MSTORE SWAP1 DUP2 PUSH1 0x0 DUP3 ADD PUSH1 0x0 SWAP1 SLOAD SWAP1 PUSH2 0x100 EXP SWAP1 DIV PUSH20 0xFFFFFFFFFFFFFFFFFFFFFFFFFFFFFFFFFFFFFFFF AND PUSH20 0xFFFFFFFFFFFFFFFFFFFFFFFFFFFFFFFFFFFFFFFF AND PUSH20 0xFFFFFFFFFFFFFFFFFFFFFFFFFFFFFFFFFFFFFFFF AND DUP2 MSTORE PUSH1 0x20 ADD PUSH1 0x1 DUP3 ADD SLOAD DUP2 MSTORE PUSH1 0x20 ADD PUSH1 0x2 DUP3 ADD SLOAD DUP2 MSTORE POP POP DUP2 MSTORE PUSH1 0x20 ADD SWAP1 PUSH1 0x1 ADD SWAP1 PUSH2 0xD85 JUMP JUMPDEST POP POP POP POP DUP2 MSTORE POP POP SWAP2 POP POP SWAP2 SWAP1 POP JUMP JUMPDEST PUSH1 0x0 DUP1 PUSH1 0x3 PUSH1 0x0 PUSH2 0xE40 PUSH2 0x30F8 JUMP JUMPDEST PUSH20 0xFFFFFFFFFFFFFFFFFFFFFFFFFFFFFFFFFFFFFFFF AND PUSH20 0xFFFFFFFFFFFFFFFFFFFFFFFFFFFFFFFFFFFFFFFF AND DUP2 MSTORE PUSH1 0x20 ADD SWAP1 DUP2 MSTORE PUSH1 0x20 ADD PUSH1 0x0 KECCAK256 SLOAD GT PUSH2 0xEBB JUMPI PUSH1 0x40 MLOAD PUSH32 0x8C379A000000000000000000000000000000000000000000000000000000000 DUP2 MSTORE PUSH1 0x4 ADD PUSH2 0xEB2 SWAP1 PUSH2 0x3BF0 JUMP JUMPDEST PUSH1 0x40 MLOAD DUP1 SWAP2 SUB SWAP1 REVERT JUMPDEST PUSH1 0x3 PUSH1 0x0 DUP4 PUSH20 0xFFFFFFFFFFFFFFFFFFFFFFFFFFFFFFFFFFFFFFFF AND PUSH20 0xFFFFFFFFFFFFFFFFFFFFFFFFFFFFFFFFFFFFFFFF AND DUP2 MSTORE PUSH1 0x20 ADD SWAP1 DUP2 MSTORE PUSH1 0x20 ADD PUSH1 0x0 KECCAK256 SLOAD SWAP1 POP SWAP2 SWAP1 POP JUMP JUMPDEST PUSH2 0xF0A PUSH2 0x307A JUMP JUMPDEST PUSH1 0x0 DUP3 PUSH20 0xFFFFFFFFFFFFFFFFFFFFFFFFFFFFFFFFFFFFFFFF AND EXTCODESIZE EQ PUSH2 0xF64 JUMPI PUSH1 0x40 MLOAD PUSH32 0x8C379A000000000000000000000000000000000000000000000000000000000 DUP2 MSTORE PUSH1 0x4 ADD PUSH2 0xF5B SWAP1 PUSH2 0x3FB9 JUMP JUMPDEST PUSH1 0x40 MLOAD DUP1 SWAP2 SUB SWAP1 REVERT JUMPDEST PUSH1 0x0 DUP2 GT ISZERO PUSH2 0x111D JUMPI PUSH1 0x0 PUSH1 0x3 PUSH1 0x0 DUP5 PUSH20 0xFFFFFFFFFFFFFFFFFFFFFFFFFFFFFFFFFFFFFFFF AND PUSH20 0xFFFFFFFFFFFFFFFFFFFFFFFFFFFFFFFFFFFFFFFF AND DUP2 MSTORE PUSH1 0x20 ADD SWAP1 DUP2 MSTORE PUSH1 0x20 ADD PUSH1 0x0 KECCAK256 SLOAD GT ISZERO PUSH2 0x105C JUMPI DUP1 PUSH1 0x3 PUSH1 0x0 DUP5 PUSH20 0xFFFFFFFFFFFFFFFFFFFFFFFFFFFFFFFFFFFFFFFF AND PUSH20 0xFFFFFFFFFFFFFFFFFFFFFFFFFFFFFFFFFFFFFFFF AND DUP2 MSTORE PUSH1 0x20 ADD SWAP1 DUP2 MSTORE PUSH1 0x20 ADD PUSH1 0x0 KECCAK256 SLOAD PUSH1 0x5 SLOAD PUSH2 0x1003 SWAP2 SWAP1 PUSH2 0x3FD9 JUMP JUMPDEST PUSH2 0x100D SWAP2 SWAP1 PUSH2 0x400D JUMP JUMPDEST PUSH1 0x5 DUP2 SWAP1 SSTORE POP DUP1 PUSH1 0x3 PUSH1 0x0 DUP5 PUSH20 0xFFFFFFFFFFFFFFFFFFFFFFFFFFFFFFFFFFFFFFFF AND PUSH20 0xFFFFFFFFFFFFFFFFFFFFFFFFFFFFFFFFFFFFFFFF AND DUP2 MSTORE PUSH1 0x20 ADD SWAP1 DUP2 MSTORE PUSH1 0x20 ADD PUSH1 0x0 KECCAK256 DUP2 SWAP1 SSTORE POP PUSH2 0x1118 JUMP JUMPDEST DUP1 PUSH1 0x5 SLOAD PUSH2 0x106A SWAP2 SWAP1 PUSH2 0x400D JUMP JUMPDEST PUSH1 0x5 DUP2 SWAP1 SSTORE POP DUP1 PUSH1 0x3 PUSH1 0x0 DUP5 PUSH20 0xFFFFFFFFFFFFFFFFFFFFFFFFFFFFFFFFFFFFFFFF AND PUSH20 0xFFFFFFFFFFFFFFFFFFFFFFFFFFFFFFFFFFFFFFFF AND DUP2 MSTORE PUSH1 0x20 ADD SWAP1 DUP2 MSTORE PUSH1 0x20 ADD PUSH1 0x0 KECCAK256 DUP2 SWAP1 SSTORE POP PUSH1 0x4 DUP3 SWAP1 DUP1 PUSH1 0x1 DUP2 SLOAD ADD DUP1 DUP3 SSTORE DUP1 SWAP2 POP POP PUSH1 0x1 SWAP1 SUB SWAP1 PUSH1 0x0 MSTORE PUSH1 0x20 PUSH1 0x0 KECCAK256 ADD PUSH1 0x0 SWAP1 SWAP2 SWAP1 SWAP2 SWAP1 SWAP2 PUSH2 0x100 EXP DUP2 SLOAD DUP2 PUSH20 0xFFFFFFFFFFFFFFFFFFFFFFFFFFFFFFFFFFFFFFFF MUL NOT AND SWAP1 DUP4 PUSH20 0xFFFFFFFFFFFFFFFFFFFFFFFFFFFFFFFFFFFFFFFF AND MUL OR SWAP1 SSTORE POP JUMPDEST PUSH2 0x1359 JUMP JUMPDEST PUSH1 0x0 PUSH1 0x3 PUSH1 0x0 DUP5 PUSH20 0xFFFFFFFFFFFFFFFFFFFFFFFFFFFFFFFFFFFFFFFF AND PUSH20 0xFFFFFFFFFFFFFFFFFFFFFFFFFFFFFFFFFFFFFFFF AND DUP2 MSTORE PUSH1 0x20 ADD SWAP1 DUP2 MSTORE PUSH1 0x20 ADD PUSH1 0x0 KECCAK256 SLOAD GT PUSH2 0x119F JUMPI PUSH1 0x40 MLOAD PUSH32 0x8C379A000000000000000000000000000000000000000000000000000000000 DUP2 MSTORE PUSH1 0x4 ADD PUSH2 0x1196 SWAP1 PUSH2 0x40D5 JUMP JUMPDEST PUSH1 0x40 MLOAD DUP1 SWAP2 SUB SWAP1 REVERT JUMPDEST PUSH1 0x3 PUSH1 0x0 DUP4 PUSH20 0xFFFFFFFFFFFFFFFFFFFFFFFFFFFFFFFFFFFFFFFF AND PUSH20 0xFFFFFFFFFFFFFFFFFFFFFFFFFFFFFFFFFFFFFFFF AND DUP2 MSTORE PUSH1 0x20 ADD SWAP1 DUP2 MSTORE PUSH1 0x20 ADD PUSH1 0x0 KECCAK256 SLOAD PUSH1 0x5 SLOAD PUSH2 0x11EC SWAP2 SWAP1 PUSH2 0x3FD9 JUMP JUMPDEST PUSH1 0x5 DUP2 SWAP1 SSTORE POP PUSH1 0x0 JUMPDEST PUSH1 0x4 DUP1 SLOAD SWAP1 POP DUP2 LT ISZERO PUSH2 0x1314 JUMPI DUP3 PUSH20 0xFFFFFFFFFFFFFFFFFFFFFFFFFFFFFFFFFFFFFFFF AND PUSH1 0x4 DUP3 DUP2 SLOAD DUP2 LT PUSH2 0x122D JUMPI PUSH2 0x122C PUSH2 0x3C7C JUMP JUMPDEST JUMPDEST SWAP1 PUSH1 0x0 MSTORE PUSH1 0x20 PUSH1 0x0 KECCAK256 ADD PUSH1 0x0 SWAP1 SLOAD SWAP1 PUSH2 0x100 EXP SWAP1 DIV PUSH20 0xFFFFFFFFFFFFFFFFFFFFFFFFFFFFFFFFFFFFFFFF AND PUSH20 0xFFFFFFFFFFFFFFFFFFFFFFFFFFFFFFFFFFFFFFFF AND EQ ISZERO PUSH2 0x1301 JUMPI PUSH1 0x4 DUP2 DUP2 SLOAD DUP2 LT PUSH2 0x1288 JUMPI PUSH2 0x1287 PUSH2 0x3C7C JUMP JUMPDEST JUMPDEST SWAP1 PUSH1 0x0 MSTORE PUSH1 0x20 PUSH1 0x0 KECCAK256 ADD PUSH1 0x0 PUSH2 0x100 EXP DUP2 SLOAD SWAP1 PUSH20 0xFFFFFFFFFFFFFFFFFFFFFFFFFFFFFFFFFFFFFFFF MUL NOT AND SWAP1 SSTORE PUSH1 0x4 DUP1 SLOAD DUP1 PUSH2 0x12C7 JUMPI PUSH2 0x12C6 PUSH2 0x40F5 JUMP JUMPDEST JUMPDEST PUSH1 0x1 SWAP1 SUB DUP2 DUP2 SWAP1 PUSH1 0x0 MSTORE PUSH1 0x20 PUSH1 0x0 KECCAK256 ADD PUSH1 0x0 PUSH2 0x100 EXP DUP2 SLOAD SWAP1 PUSH20 0xFFFFFFFFFFFFFFFFFFFFFFFFFFFFFFFFFFFFFFFF MUL NOT AND SWAP1 SSTORE SWAP1 SSTORE PUSH2 0x1314 JUMP JUMPDEST DUP1 DUP1 PUSH2 0x130C SWAP1 PUSH2 0x3D94 JUMP JUMPDEST SWAP2 POP POP PUSH2 0x11F5 JUMP JUMPDEST POP PUSH1 0x3 PUSH1 0x0 DUP4 PUSH20 0xFFFFFFFFFFFFFFFFFFFFFFFFFFFFFFFFFFFFFFFF AND PUSH20 0xFFFFFFFFFFFFFFFFFFFFFFFFFFFFFFFFFFFFFFFF AND DUP2 MSTORE PUSH1 0x20 ADD SWAP1 DUP2 MSTORE PUSH1 0x20 ADD PUSH1 0x0 KECCAK256 PUSH1 0x0 SWAP1 SSTORE JUMPDEST POP POP JUMP JUMPDEST DUP1 PUSH1 0x0 PUSH1 0x1 PUSH1 0x0 DUP4 DUP2 MSTORE PUSH1 0x20 ADD SWAP1 DUP2 MSTORE PUSH1 0x20 ADD PUSH1 0x0 KECCAK256 PUSH1 0x0 ADD SLOAD GT PUSH2 0x13B7 JUMPI PUSH1 0x40 MLOAD PUSH32 0x8C379A000000000000000000000000000000000000000000000000000000000 DUP2 MSTORE PUSH1 0x4 ADD PUSH2 0x13AE SWAP1 PUSH2 0x3E29 JUMP JUMPDEST PUSH1 0x40 MLOAD DUP1 SWAP2 SUB SWAP1 REVERT JUMPDEST DUP2 PUSH2 0x13C0 PUSH2 0x30F8 JUMP JUMPDEST DUP1 PUSH20 0xFFFFFFFFFFFFFFFFFFFFFFFFFFFFFFFFFFFFFFFF AND PUSH1 0x1 PUSH1 0x0 DUP5 DUP2 MSTORE PUSH1 0x20 ADD SWAP1 DUP2 MSTORE PUSH1 0x20 ADD PUSH1 0x0 KECCAK256 PUSH1 0x1 ADD PUSH1 0x1 SWAP1 SLOAD SWAP1 PUSH2 0x100 EXP SWAP1 DIV PUSH20 0xFFFFFFFFFFFFFFFFFFFFFFFFFFFFFFFFFFFFFFFF AND PUSH20 0xFFFFFFFFFFFFFFFFFFFFFFFFFFFFFFFFFFFFFFFF AND EQ PUSH2 0x1464 JUMPI PUSH1 0x40 MLOAD PUSH32 0x8C379A000000000000000000000000000000000000000000000000000000000 DUP2 MSTORE PUSH1 0x4 ADD PUSH2 0x145B SWAP1 PUSH2 0x3E95 JUMP JUMPDEST PUSH1 0x40 MLOAD DUP1 SWAP2 SUB SWAP1 REVERT JUMPDEST PUSH1 0x1 PUSH1 0x2 DUP2 GT ISZERO PUSH2 0x1478 JUMPI PUSH2 0x1477 PUSH2 0x3578 JUMP JUMPDEST JUMPDEST PUSH1 0x1 PUSH1 0x0 DUP7 DUP2 MSTORE PUSH1 0x20 ADD SWAP1 DUP2 MSTORE PUSH1 0x20 ADD PUSH1 0x0 KECCAK256 PUSH1 0x1 ADD PUSH1 0x0 SWAP1 SLOAD SWAP1 PUSH2 0x100 EXP SWAP1 DIV PUSH1 0xFF AND PUSH1 0x2 DUP2 GT ISZERO PUSH2 0x14AE JUMPI PUSH2 0x14AD PUSH2 0x3578 JUMP JUMPDEST JUMPDEST EQ PUSH2 0x14EE JUMPI PUSH1 0x40 MLOAD PUSH32 0x8C379A000000000000000000000000000000000000000000000000000000000 DUP2 MSTORE PUSH1 0x4 ADD PUSH2 0x14E5 SWAP1 PUSH2 0x4196 JUMP JUMPDEST PUSH1 0x40 MLOAD DUP1 SWAP2 SUB SWAP1 REVERT JUMPDEST PUSH1 0x0 PUSH1 0x1 PUSH1 0x0 DUP7 DUP2 MSTORE PUSH1 0x20 ADD SWAP1 DUP2 MSTORE PUSH1 0x20 ADD PUSH1 0x0 KECCAK256 PUSH1 0x1 ADD PUSH1 0x0 PUSH2 0x100 EXP DUP2 SLOAD DUP2 PUSH1 0xFF MUL NOT AND SWAP1 DUP4 PUSH1 0x2 DUP2 GT ISZERO PUSH2 0x1528 JUMPI PUSH2 0x1527 PUSH2 0x3578 JUMP JUMPDEST JUMPDEST MUL OR SWAP1 SSTORE POP PUSH1 0x0 PUSH1 0x2 DUP2 GT ISZERO PUSH2 0x1541 JUMPI PUSH2 0x1540 PUSH2 0x3578 JUMP JUMPDEST JUMPDEST DUP5 PUSH32 0x15211D78A502C0EDD03F8CEFB0BA09C0BCDB3045A82C5D05DBDFFF58EFC82F03 PUSH1 0x40 MLOAD PUSH1 0x40 MLOAD DUP1 SWAP2 SUB SWAP1 LOG3 POP POP POP POP JUMP JUMPDEST PUSH2 0x157C PUSH2 0x307A JUMP JUMPDEST PUSH2 0x1586 PUSH1 0x0 PUSH2 0x3100 JUMP JUMPDEST JUMP JUMPDEST DUP3 PUSH1 0x0 PUSH1 0x1 PUSH1 0x0 DUP4 DUP2 MSTORE PUSH1 0x20 ADD SWAP1 DUP2 MSTORE PUSH1 0x20 ADD PUSH1 0x0 KECCAK256 PUSH1 0x0 ADD SLOAD GT PUSH2 0x15E2 JUMPI PUSH1 0x40 MLOAD PUSH32 0x8C379A000000000000000000000000000000000000000000000000000000000 DUP2 MSTORE PUSH1 0x4 ADD PUSH2 0x15D9 SWAP1 PUSH2 0x3E29 JUMP JUMPDEST PUSH1 0x40 MLOAD DUP1 SWAP2 SUB SWAP1 REVERT JUMPDEST DUP4 PUSH2 0x15EB PUSH2 0x30F8 JUMP JUMPDEST DUP1 PUSH20 0xFFFFFFFFFFFFFFFFFFFFFFFFFFFFFFFFFFFFFFFF AND PUSH1 0x1 PUSH1 0x0 DUP5 DUP2 MSTORE PUSH1 0x20 ADD SWAP1 DUP2 MSTORE PUSH1 0x20 ADD PUSH1 0x0 KECCAK256 PUSH1 0x1 ADD PUSH1 0x1 SWAP1 SLOAD SWAP1 PUSH2 0x100 EXP SWAP1 DIV PUSH20 0xFFFFFFFFFFFFFFFFFFFFFFFFFFFFFFFFFFFFFFFF AND PUSH20 0xFFFFFFFFFFFFFFFFFFFFFFFFFFFFFFFFFFFFFFFF AND EQ PUSH2 0x168F JUMPI PUSH1 0x40 MLOAD PUSH32 0x8C379A000000000000000000000000000000000000000000000000000000000 DUP2 MSTORE PUSH1 0x4 ADD PUSH2 0x1686 SWAP1 PUSH2 0x3E95 JUMP JUMPDEST PUSH1 0x40 MLOAD DUP1 SWAP2 SUB SWAP1 REVERT JUMPDEST PUSH1 0x0 PUSH1 0x1 PUSH1 0x0 DUP9 DUP2 MSTORE PUSH1 0x20 ADD SWAP1 DUP2 MSTORE PUSH1 0x20 ADD PUSH1 0x0 KECCAK256 PUSH1 0x3 ADD SWAP1 POP DUP5 ISZERO PUSH2 0x1817 JUMPI PUSH1 0x0 JUMPDEST DUP2 DUP1 SLOAD SWAP1 POP DUP2 LT ISZERO PUSH2 0x1749 JUMPI DUP7 PUSH20 0xFFFFFFFFFFFFFFFFFFFFFFFFFFFFFFFFFFFFFFFF AND DUP3 DUP3 DUP2 SLOAD DUP2 LT PUSH2 0x16E8 JUMPI PUSH2 0x16E7 PUSH2 0x3C7C JUMP JUMPDEST JUMPDEST SWAP1 PUSH1 0x0 MSTORE PUSH1 0x20 PUSH1 0x0 KECCAK256 ADD PUSH1 0x0 SWAP1 SLOAD SWAP1 PUSH2 0x100 EXP SWAP1 DIV PUSH20 0xFFFFFFFFFFFFFFFFFFFFFFFFFFFFFFFFFFFFFFFF AND PUSH20 0xFFFFFFFFFFFFFFFFFFFFFFFFFFFFFFFFFFFFFFFF AND EQ ISZERO PUSH2 0x1736 JUMPI POP POP PUSH2 0x1B9F JUMP JUMPDEST DUP1 DUP1 PUSH2 0x1741 SWAP1 PUSH2 0x3D94 JUMP JUMPDEST SWAP2 POP POP PUSH2 0x16B2 JUMP JUMPDEST POP DUP1 DUP7 SWAP1 DUP1 PUSH1 0x1 DUP2 SLOAD ADD DUP1 DUP3 SSTORE DUP1 SWAP2 POP POP PUSH1 0x1 SWAP1 SUB SWAP1 PUSH1 0x0 MSTORE PUSH1 0x20 PUSH1 0x0 KECCAK256 ADD PUSH1 0x0 SWAP1 SWAP2 SWAP1 SWAP2 SWAP1 SWAP2 PUSH2 0x100 EXP DUP2 SLOAD DUP2 PUSH20 0xFFFFFFFFFFFFFFFFFFFFFFFFFFFFFFFFFFFFFFFF MUL NOT AND SWAP1 DUP4 PUSH20 0xFFFFFFFFFFFFFFFFFFFFFFFFFFFFFFFFFFFFFFFF AND MUL OR SWAP1 SSTORE POP PUSH1 0x2 PUSH1 0x0 DUP8 PUSH20 0xFFFFFFFFFFFFFFFFFFFFFFFFFFFFFFFFFFFFFFFF AND PUSH20 0xFFFFFFFFFFFFFFFFFFFFFFFFFFFFFFFFFFFFFFFF AND DUP2 MSTORE PUSH1 0x20 ADD SWAP1 DUP2 MSTORE PUSH1 0x20 ADD PUSH1 0x0 KECCAK256 DUP8 SWAP1 DUP1 PUSH1 0x1 DUP2 SLOAD ADD DUP1 DUP3 SSTORE DUP1 SWAP2 POP POP PUSH1 0x1 SWAP1 SUB SWAP1 PUSH1 0x0 MSTORE PUSH1 0x20 PUSH1 0x0 KECCAK256 ADD PUSH1 0x0 SWAP1 SWAP2 SWAP1 SWAP2 SWAP1 SWAP2 POP SSTORE PUSH2 0x1B9D JUMP JUMPDEST PUSH1 0x0 JUMPDEST DUP2 DUP1 SLOAD SWAP1 POP DUP2 LT ISZERO PUSH2 0x1B9B JUMPI DUP7 PUSH20 0xFFFFFFFFFFFFFFFFFFFFFFFFFFFFFFFFFFFFFFFF AND DUP3 DUP3 DUP2 SLOAD DUP2 LT PUSH2 0x1850 JUMPI PUSH2 0x184F PUSH2 0x3C7C JUMP JUMPDEST JUMPDEST SWAP1 PUSH1 0x0 MSTORE PUSH1 0x20 PUSH1 0x0 KECCAK256 ADD PUSH1 0x0 SWAP1 SLOAD SWAP1 PUSH2 0x100 EXP SWAP1 DIV PUSH20 0xFFFFFFFFFFFFFFFFFFFFFFFFFFFFFFFFFFFFFFFF AND PUSH20 0xFFFFFFFFFFFFFFFFFFFFFFFFFFFFFFFFFFFFFFFF AND EQ ISZERO PUSH2 0x1B88 JUMPI DUP2 DUP2 DUP2 SLOAD DUP2 LT PUSH2 0x18AA JUMPI PUSH2 0x18A9 PUSH2 0x3C7C JUMP JUMPDEST JUMPDEST SWAP1 PUSH1 0x0 MSTORE PUSH1 0x20 PUSH1 0x0 KECCAK256 ADD PUSH1 0x0 PUSH2 0x100 EXP DUP2 SLOAD SWAP1 PUSH20 0xFFFFFFFFFFFFFFFFFFFFFFFFFFFFFFFFFFFFFFFF MUL NOT AND SWAP1 SSTORE DUP2 DUP1 SLOAD DUP1 PUSH2 0x18E8 JUMPI PUSH2 0x18E7 PUSH2 0x40F5 JUMP JUMPDEST JUMPDEST PUSH1 0x1 SWAP1 SUB DUP2 DUP2 SWAP1 PUSH1 0x0 MSTORE PUSH1 0x20 PUSH1 0x0 KECCAK256 ADD PUSH1 0x0 PUSH2 0x100 EXP DUP2 SLOAD SWAP1 PUSH20 0xFFFFFFFFFFFFFFFFFFFFFFFFFFFFFFFFFFFFFFFF MUL NOT AND SWAP1 SSTORE SWAP1 SSTORE PUSH1 0x0 JUMPDEST PUSH1 0x2 PUSH1 0x0 DUP10 PUSH20 0xFFFFFFFFFFFFFFFFFFFFFFFFFFFFFFFFFFFFFFFF AND PUSH20 0xFFFFFFFFFFFFFFFFFFFFFFFFFFFFFFFFFFFFFFFF AND DUP2 MSTORE PUSH1 0x20 ADD SWAP1 DUP2 MSTORE PUSH1 0x20 ADD PUSH1 0x0 KECCAK256 DUP1 SLOAD SWAP1 POP DUP2 LT ISZERO PUSH2 0x1AA9 JUMPI DUP9 PUSH1 0x2 PUSH1 0x0 DUP11 PUSH20 0xFFFFFFFFFFFFFFFFFFFFFFFFFFFFFFFFFFFFFFFF AND PUSH20 0xFFFFFFFFFFFFFFFFFFFFFFFFFFFFFFFFFFFFFFFF AND DUP2 MSTORE PUSH1 0x20 ADD SWAP1 DUP2 MSTORE PUSH1 0x20 ADD PUSH1 0x0 KECCAK256 DUP3 DUP2 SLOAD DUP2 LT PUSH2 0x19BC JUMPI PUSH2 0x19BB PUSH2 0x3C7C JUMP JUMPDEST JUMPDEST SWAP1 PUSH1 0x0 MSTORE PUSH1 0x20 PUSH1 0x0 KECCAK256 ADD SLOAD EQ ISZERO PUSH2 0x1A96 JUMPI PUSH1 0x2 PUSH1 0x0 DUP10 PUSH20 0xFFFFFFFFFFFFFFFFFFFFFFFFFFFFFFFFFFFFFFFF AND PUSH20 0xFFFFFFFFFFFFFFFFFFFFFFFFFFFFFFFFFFFFFFFF AND DUP2 MSTORE PUSH1 0x20 ADD SWAP1 DUP2 MSTORE PUSH1 0x20 ADD PUSH1 0x0 KECCAK256 DUP2 DUP2 SLOAD DUP2 LT PUSH2 0x1A1E JUMPI PUSH2 0x1A1D PUSH2 0x3C7C JUMP JUMPDEST JUMPDEST SWAP1 PUSH1 0x0 MSTORE PUSH1 0x20 PUSH1 0x0 KECCAK256 ADD PUSH1 0x0 SWAP1 SSTORE PUSH1 0x2 PUSH1 0x0 DUP10 PUSH20 0xFFFFFFFFFFFFFFFFFFFFFFFFFFFFFFFFFFFFFFFF AND PUSH20 0xFFFFFFFFFFFFFFFFFFFFFFFFFFFFFFFFFFFFFFFF AND DUP2 MSTORE PUSH1 0x20 ADD SWAP1 DUP2 MSTORE PUSH1 0x20 ADD PUSH1 0x0 KECCAK256 DUP1 SLOAD DUP1 PUSH2 0x1A7B JUMPI PUSH2 0x1A7A PUSH2 0x40F5 JUMP JUMPDEST JUMPDEST PUSH1 0x1 SWAP1 SUB DUP2 DUP2 SWAP1 PUSH1 0x0 MSTORE PUSH1 0x20 PUSH1 0x0 KECCAK256 ADD PUSH1 0x0 SWAP1 SSTORE SWAP1 SSTORE PUSH2 0x1AA9 JUMP JUMPDEST DUP1 DUP1 PUSH2 0x1AA1 SWAP1 PUSH2 0x3D94 JUMP JUMPDEST SWAP2 POP POP PUSH2 0x1920 JUMP JUMPDEST POP PUSH1 0x0 DUP3 DUP1 SLOAD SWAP1 POP EQ ISZERO PUSH2 0x1B81 JUMPI DUP2 PUSH1 0x0 SWAP1 DUP1 PUSH1 0x1 DUP2 SLOAD ADD DUP1 DUP3 SSTORE DUP1 SWAP2 POP POP PUSH1 0x1 SWAP1 SUB SWAP1 PUSH1 0x0 MSTORE PUSH1 0x20 PUSH1 0x0 KECCAK256 ADD PUSH1 0x0 SWAP1 SWAP2 SWAP1 SWAP2 SWAP1 SWAP2 PUSH2 0x100 EXP DUP2 SLOAD DUP2 PUSH20 0xFFFFFFFFFFFFFFFFFFFFFFFFFFFFFFFFFFFFFFFF MUL NOT AND SWAP1 DUP4 PUSH20 0xFFFFFFFFFFFFFFFFFFFFFFFFFFFFFFFFFFFFFFFF AND MUL OR SWAP1 SSTORE POP PUSH1 0x2 PUSH1 0x0 DUP1 PUSH20 0xFFFFFFFFFFFFFFFFFFFFFFFFFFFFFFFFFFFFFFFF AND PUSH20 0xFFFFFFFFFFFFFFFFFFFFFFFFFFFFFFFFFFFFFFFF AND DUP2 MSTORE PUSH1 0x20 ADD SWAP1 DUP2 MSTORE PUSH1 0x20 ADD PUSH1 0x0 KECCAK256 DUP9 SWAP1 DUP1 PUSH1 0x1 DUP2 SLOAD ADD DUP1 DUP3 SSTORE DUP1 SWAP2 POP POP PUSH1 0x1 SWAP1 SUB SWAP1 PUSH1 0x0 MSTORE PUSH1 0x20 PUSH1 0x0 KECCAK256 ADD PUSH1 0x0 SWAP1 SWAP2 SWAP1 SWAP2 SWAP1 SWAP2 POP SSTORE JUMPDEST POP POP PUSH2 0x1B9F JUMP JUMPDEST DUP1 DUP1 PUSH2 0x1B93 SWAP1 PUSH2 0x3D94 JUMP JUMPDEST SWAP2 POP POP PUSH2 0x181A JUMP JUMPDEST POP JUMPDEST POP JUMPDEST POP POP POP POP POP POP JUMP JUMPDEST PUSH1 0x0 DUP1 PUSH1 0x0 SWAP1 SLOAD SWAP1 PUSH2 0x100 EXP SWAP1 DIV PUSH20 0xFFFFFFFFFFFFFFFFFFFFFFFFFFFFFFFFFFFFFFFF AND SWAP1 POP SWAP1 JUMP JUMPDEST PUSH2 0x1BD8 PUSH2 0x307A JUMP JUMPDEST DUP1 PUSH1 0x6 DUP2 SWAP1 SSTORE POP POP JUMP JUMPDEST DUP1 PUSH1 0x0 PUSH1 0x1 PUSH1 0x0 DUP4 DUP2 MSTORE PUSH1 0x20 ADD SWAP1 DUP2 MSTORE PUSH1 0x20 ADD PUSH1 0x0 KECCAK256 PUSH1 0x0 ADD SLOAD GT PUSH2 0x1C3C JUMPI PUSH1 0x40 MLOAD PUSH32 0x8C379A000000000000000000000000000000000000000000000000000000000 DUP2 MSTORE PUSH1 0x4 ADD PUSH2 0x1C33 SWAP1 PUSH2 0x3E29 JUMP JUMPDEST PUSH1 0x40 MLOAD DUP1 SWAP2 SUB SWAP1 REVERT JUMPDEST DUP2 PUSH2 0x1C45 PUSH2 0x30F8 JUMP JUMPDEST PUSH1 0x0 PUSH1 0x1 PUSH1 0x0 DUP5 DUP2 MSTORE PUSH1 0x20 ADD SWAP1 DUP2 MSTORE PUSH1 0x20 ADD PUSH1 0x0 KECCAK256 SWAP1 POP PUSH1 0x0 JUMPDEST DUP2 PUSH1 0x3 ADD DUP1 SLOAD SWAP1 POP DUP2 LT ISZERO PUSH2 0x2441 JUMPI PUSH1 0x0 PUSH20 0xFFFFFFFFFFFFFFFFFFFFFFFFFFFFFFFFFFFFFFFF AND DUP3 PUSH1 0x3 ADD DUP3 DUP2 SLOAD DUP2 LT PUSH2 0x1C9C JUMPI PUSH2 0x1C9B PUSH2 0x3C7C JUMP JUMPDEST JUMPDEST SWAP1 PUSH1 0x0 MSTORE PUSH1 0x20 PUSH1 0x0 KECCAK256 ADD PUSH1 0x0 SWAP1 SLOAD SWAP1 PUSH2 0x100 EXP SWAP1 DIV PUSH20 0xFFFFFFFFFFFFFFFFFFFFFFFFFFFFFFFFFFFFFFFF AND PUSH20 0xFFFFFFFFFFFFFFFFFFFFFFFFFFFFFFFFFFFFFFFF AND EQ DUP1 PUSH2 0x1D54 JUMPI POP DUP3 PUSH20 0xFFFFFFFFFFFFFFFFFFFFFFFFFFFFFFFFFFFFFFFF AND DUP3 PUSH1 0x3 ADD DUP3 DUP2 SLOAD DUP2 LT PUSH2 0x1D11 JUMPI PUSH2 0x1D10 PUSH2 0x3C7C JUMP JUMPDEST JUMPDEST SWAP1 PUSH1 0x0 MSTORE PUSH1 0x20 PUSH1 0x0 KECCAK256 ADD PUSH1 0x0 SWAP1 SLOAD SWAP1 PUSH2 0x100 EXP SWAP1 DIV PUSH20 0xFFFFFFFFFFFFFFFFFFFFFFFFFFFFFFFFFFFFFFFF AND PUSH20 0xFFFFFFFFFFFFFFFFFFFFFFFFFFFFFFFFFFFFFFFF AND EQ JUMPDEST ISZERO PUSH2 0x242E JUMPI DUP6 PUSH1 0x0 PUSH1 0x2 DUP2 GT ISZERO PUSH2 0x1D6E JUMPI PUSH2 0x1D6D PUSH2 0x3578 JUMP JUMPDEST JUMPDEST PUSH1 0x1 PUSH1 0x0 DUP4 DUP2 MSTORE PUSH1 0x20 ADD SWAP1 DUP2 MSTORE PUSH1 0x20 ADD PUSH1 0x0 KECCAK256 PUSH1 0x1 ADD PUSH1 0x0 SWAP1 SLOAD SWAP1 PUSH2 0x100 EXP SWAP1 DIV PUSH1 0xFF AND PUSH1 0x2 DUP2 GT ISZERO PUSH2 0x1DA4 JUMPI PUSH2 0x1DA3 PUSH2 0x3578 JUMP JUMPDEST JUMPDEST EQ PUSH2 0x1DE4 JUMPI PUSH1 0x40 MLOAD PUSH32 0x8C379A000000000000000000000000000000000000000000000000000000000 DUP2 MSTORE PUSH1 0x4 ADD PUSH2 0x1DDB SWAP1 PUSH2 0x3F27 JUMP JUMPDEST PUSH1 0x40 MLOAD DUP1 SWAP2 SUB SWAP1 REVERT JUMPDEST PUSH2 0x1DEC PUSH2 0x2725 JUMP JUMPDEST CALLVALUE LT ISZERO PUSH2 0x1E2E JUMPI PUSH1 0x40 MLOAD PUSH32 0x8C379A000000000000000000000000000000000000000000000000000000000 DUP2 MSTORE PUSH1 0x4 ADD PUSH2 0x1E25 SWAP1 PUSH2 0x4228 JUMP JUMPDEST PUSH1 0x40 MLOAD DUP1 SWAP2 SUB SWAP1 REVERT JUMPDEST PUSH1 0x0 PUSH1 0x1 PUSH1 0x0 DUP10 DUP2 MSTORE PUSH1 0x20 ADD SWAP1 DUP2 MSTORE PUSH1 0x20 ADD PUSH1 0x0 KECCAK256 SWAP1 POP PUSH1 0x0 JUMPDEST DUP2 PUSH1 0x4 ADD DUP1 SLOAD SWAP1 POP DUP2 LT ISZERO PUSH2 0x20EF JUMPI PUSH1 0x0 DUP3 PUSH1 0x4 ADD DUP3 DUP2 SLOAD DUP2 LT PUSH2 0x1E6F JUMPI PUSH2 0x1E6E PUSH2 0x3C7C JUMP JUMPDEST JUMPDEST SWAP1 PUSH1 0x0 MSTORE PUSH1 0x20 PUSH1 0x0 KECCAK256 SWAP1 PUSH1 0x3 MUL ADD SWAP1 POP PUSH1 0x0 PUSH2 0x1EAE DUP3 PUSH1 0x0 ADD PUSH1 0x0 SWAP1 SLOAD SWAP1 PUSH2 0x100 EXP SWAP1 DIV PUSH20 0xFFFFFFFFFFFFFFFFFFFFFFFFFFFFFFFFFFFFFFFF AND PUSH2 0x25A2 JUMP JUMPDEST SWAP1 POP DUP1 PUSH20 0xFFFFFFFFFFFFFFFFFFFFFFFFFFFFFFFFFFFFFFFF AND PUSH4 0x3850F3B PUSH2 0x1ED4 PUSH2 0x30F8 JUMP JUMPDEST DUP5 PUSH1 0x0 ADD PUSH1 0x0 SWAP1 SLOAD SWAP1 PUSH2 0x100 EXP SWAP1 DIV PUSH20 0xFFFFFFFFFFFFFFFFFFFFFFFFFFFFFFFFFFFFFFFF AND DUP6 PUSH1 0x1 ADD SLOAD DUP7 PUSH1 0x2 ADD SLOAD PUSH1 0x40 MLOAD DUP6 PUSH4 0xFFFFFFFF AND PUSH1 0xE0 SHL DUP2 MSTORE PUSH1 0x4 ADD PUSH2 0x1F22 SWAP5 SWAP4 SWAP3 SWAP2 SWAP1 PUSH2 0x4257 JUMP JUMPDEST PUSH1 0x20 PUSH1 0x40 MLOAD DUP1 DUP4 SUB DUP2 DUP7 DUP1 EXTCODESIZE ISZERO DUP1 ISZERO PUSH2 0x1F3A JUMPI PUSH1 0x0 DUP1 REVERT JUMPDEST POP GAS STATICCALL ISZERO DUP1 ISZERO PUSH2 0x1F4E JUMPI RETURNDATASIZE PUSH1 0x0 DUP1 RETURNDATACOPY RETURNDATASIZE PUSH1 0x0 REVERT JUMPDEST POP POP POP POP PUSH1 0x40 MLOAD RETURNDATASIZE PUSH1 0x1F NOT PUSH1 0x1F DUP3 ADD AND DUP3 ADD DUP1 PUSH1 0x40 MSTORE POP DUP2 ADD SWAP1 PUSH2 0x1F72 SWAP2 SWAP1 PUSH2 0x42B1 JUMP JUMPDEST PUSH2 0x1FB1 JUMPI PUSH1 0x40 MLOAD PUSH32 0x8C379A000000000000000000000000000000000000000000000000000000000 DUP2 MSTORE PUSH1 0x4 ADD PUSH2 0x1FA8 SWAP1 PUSH2 0x4350 JUMP JUMPDEST PUSH1 0x40 MLOAD DUP1 SWAP2 SUB SWAP1 REVERT JUMPDEST DUP1 PUSH20 0xFFFFFFFFFFFFFFFFFFFFFFFFFFFFFFFFFFFFFFFF AND PUSH4 0xC6BC20B6 PUSH2 0x1FD5 PUSH2 0x30F8 JUMP JUMPDEST DUP5 PUSH1 0x0 ADD PUSH1 0x0 SWAP1 SLOAD SWAP1 PUSH2 0x100 EXP SWAP1 DIV PUSH20 0xFFFFFFFFFFFFFFFFFFFFFFFFFFFFFFFFFFFFFFFF AND DUP6 PUSH1 0x1 ADD SLOAD DUP7 PUSH1 0x2 ADD SLOAD DUP10 PUSH1 0x1 ADD PUSH1 0x1 SWAP1 SLOAD SWAP1 PUSH2 0x100 EXP SWAP1 DIV PUSH20 0xFFFFFFFFFFFFFFFFFFFFFFFFFFFFFFFFFFFFFFFF AND PUSH1 0x40 MLOAD DUP7 PUSH4 0xFFFFFFFF AND PUSH1 0xE0 SHL DUP2 MSTORE PUSH1 0x4 ADD PUSH2 0x2049 SWAP6 SWAP5 SWAP4 SWAP3 SWAP2 SWAP1 PUSH2 0x4370 JUMP JUMPDEST PUSH1 0x20 PUSH1 0x40 MLOAD DUP1 DUP4 SUB DUP2 PUSH1 0x0 DUP8 DUP1 EXTCODESIZE ISZERO DUP1 ISZERO PUSH2 0x2063 JUMPI PUSH1 0x0 DUP1 REVERT JUMPDEST POP GAS CALL ISZERO DUP1 ISZERO PUSH2 0x2077 JUMPI RETURNDATASIZE PUSH1 0x0 DUP1 RETURNDATACOPY RETURNDATASIZE PUSH1 0x0 REVERT JUMPDEST POP POP POP POP PUSH1 0x40 MLOAD RETURNDATASIZE PUSH1 0x1F NOT PUSH1 0x1F DUP3 ADD AND DUP3 ADD DUP1 PUSH1 0x40 MSTORE POP DUP2 ADD SWAP1 PUSH2 0x209B SWAP2 SWAP1 PUSH2 0x42B1 JUMP JUMPDEST PUSH2 0x20DA JUMPI PUSH1 0x40 MLOAD PUSH32 0x8C379A000000000000000000000000000000000000000000000000000000000 DUP2 MSTORE PUSH1 0x4 ADD PUSH2 0x20D1 SWAP1 PUSH2 0x4435 JUMP JUMPDEST PUSH1 0x40 MLOAD DUP1 SWAP2 SUB SWAP1 REVERT JUMPDEST POP POP DUP1 DUP1 PUSH2 0x20E7 SWAP1 PUSH2 0x3D94 JUMP JUMPDEST SWAP2 POP POP PUSH2 0x1E48 JUMP JUMPDEST POP PUSH1 0x0 JUMPDEST DUP2 PUSH1 0x2 ADD DUP1 SLOAD SWAP1 POP DUP2 LT ISZERO PUSH2 0x23B7 JUMPI PUSH1 0x0 DUP3 PUSH1 0x2 ADD DUP3 DUP2 SLOAD DUP2 LT PUSH2 0x211A JUMPI PUSH2 0x2119 PUSH2 0x3C7C JUMP JUMPDEST JUMPDEST SWAP1 PUSH1 0x0 MSTORE PUSH1 0x20 PUSH1 0x0 KECCAK256 SWAP1 PUSH1 0x3 MUL ADD SWAP1 POP PUSH1 0x0 PUSH2 0x2159 DUP3 PUSH1 0x0 ADD PUSH1 0x0 SWAP1 SLOAD SWAP1 PUSH2 0x100 EXP SWAP1 DIV PUSH20 0xFFFFFFFFFFFFFFFFFFFFFFFFFFFFFFFFFFFFFFFF AND PUSH2 0x25A2 JUMP JUMPDEST SWAP1 POP DUP1 PUSH20 0xFFFFFFFFFFFFFFFFFFFFFFFFFFFFFFFFFFFFFFFF AND PUSH4 0x3850F3B DUP6 PUSH1 0x1 ADD PUSH1 0x1 SWAP1 SLOAD SWAP1 PUSH2 0x100 EXP SWAP1 DIV PUSH20 0xFFFFFFFFFFFFFFFFFFFFFFFFFFFFFFFFFFFFFFFF AND DUP5 PUSH1 0x0 ADD PUSH1 0x0 SWAP1 SLOAD SWAP1 PUSH2 0x100 EXP SWAP1 DIV PUSH20 0xFFFFFFFFFFFFFFFFFFFFFFFFFFFFFFFFFFFFFFFF AND DUP6 PUSH1 0x1 ADD SLOAD DUP7 PUSH1 0x2 ADD SLOAD PUSH1 0x40 MLOAD DUP6 PUSH4 0xFFFFFFFF AND PUSH1 0xE0 SHL DUP2 MSTORE PUSH1 0x4 ADD PUSH2 0x21EA SWAP5 SWAP4 SWAP3 SWAP2 SWAP1 PUSH2 0x4257 JUMP JUMPDEST PUSH1 0x20 PUSH1 0x40 MLOAD DUP1 DUP4 SUB DUP2 DUP7 DUP1 EXTCODESIZE ISZERO DUP1 ISZERO PUSH2 0x2202 JUMPI PUSH1 0x0 DUP1 REVERT JUMPDEST POP GAS STATICCALL ISZERO DUP1 ISZERO PUSH2 0x2216 JUMPI RETURNDATASIZE PUSH1 0x0 DUP1 RETURNDATACOPY RETURNDATASIZE PUSH1 0x0 REVERT JUMPDEST POP POP POP POP PUSH1 0x40 MLOAD RETURNDATASIZE PUSH1 0x1F NOT PUSH1 0x1F DUP3 ADD AND DUP3 ADD DUP1 PUSH1 0x40 MSTORE POP DUP2 ADD SWAP1 PUSH2 0x223A SWAP2 SWAP1 PUSH2 0x42B1 JUMP JUMPDEST PUSH2 0x2279 JUMPI PUSH1 0x40 MLOAD PUSH32 0x8C379A000000000000000000000000000000000000000000000000000000000 DUP2 MSTORE PUSH1 0x4 ADD PUSH2 0x2270 SWAP1 PUSH2 0x44C7 JUMP JUMPDEST PUSH1 0x40 MLOAD DUP1 SWAP2 SUB SWAP1 REVERT JUMPDEST DUP1 PUSH20 0xFFFFFFFFFFFFFFFFFFFFFFFFFFFFFFFFFFFFFFFF AND PUSH4 0xC6BC20B6 DUP6 PUSH1 0x1 ADD PUSH1 0x1 SWAP1 SLOAD SWAP1 PUSH2 0x100 EXP SWAP1 DIV PUSH20 0xFFFFFFFFFFFFFFFFFFFFFFFFFFFFFFFFFFFFFFFF AND DUP5 PUSH1 0x0 ADD PUSH1 0x0 SWAP1 SLOAD SWAP1 PUSH2 0x100 EXP SWAP1 DIV PUSH20 0xFFFFFFFFFFFFFFFFFFFFFFFFFFFFFFFFFFFFFFFF AND DUP6 PUSH1 0x1 ADD SLOAD DUP7 PUSH1 0x2 ADD SLOAD PUSH2 0x22F1 PUSH2 0x30F8 JUMP JUMPDEST PUSH1 0x40 MLOAD DUP7 PUSH4 0xFFFFFFFF AND PUSH1 0xE0 SHL DUP2 MSTORE PUSH1 0x4 ADD PUSH2 0x2311 SWAP6 SWAP5 SWAP4 SWAP3 SWAP2 SWAP1 PUSH2 0x4370 JUMP JUMPDEST PUSH1 0x20 PUSH1 0x40 MLOAD DUP1 DUP4 SUB DUP2 PUSH1 0x0 DUP8 DUP1 EXTCODESIZE ISZERO DUP1 ISZERO PUSH2 0x232B JUMPI PUSH1 0x0 DUP1 REVERT JUMPDEST POP GAS CALL ISZERO DUP1 ISZERO PUSH2 0x233F JUMPI RETURNDATASIZE PUSH1 0x0 DUP1 RETURNDATACOPY RETURNDATASIZE PUSH1 0x0 REVERT JUMPDEST POP POP POP POP PUSH1 0x40 MLOAD RETURNDATASIZE PUSH1 0x1F NOT PUSH1 0x1F DUP3 ADD AND DUP3 ADD DUP1 PUSH1 0x40 MSTORE POP DUP2 ADD SWAP1 PUSH2 0x2363 SWAP2 SWAP1 PUSH2 0x42B1 JUMP JUMPDEST PUSH2 0x23A2 JUMPI PUSH1 0x40 MLOAD PUSH32 0x8C379A000000000000000000000000000000000000000000000000000000000 DUP2 MSTORE PUSH1 0x4 ADD PUSH2 0x2399 SWAP1 PUSH2 0x4559 JUMP JUMPDEST PUSH1 0x40 MLOAD DUP1 SWAP2 SUB SWAP1 REVERT JUMPDEST POP POP DUP1 DUP1 PUSH2 0x23AF SWAP1 PUSH2 0x3D94 JUMP JUMPDEST SWAP2 POP POP PUSH2 0x20F3 JUMP JUMPDEST POP PUSH1 0x2 DUP2 PUSH1 0x1 ADD PUSH1 0x0 PUSH2 0x100 EXP DUP2 SLOAD DUP2 PUSH1 0xFF MUL NOT AND SWAP1 DUP4 PUSH1 0x2 DUP2 GT ISZERO PUSH2 0x23E0 JUMPI PUSH2 0x23DF PUSH2 0x3578 JUMP JUMPDEST JUMPDEST MUL OR SWAP1 SSTORE POP PUSH1 0x2 DUP1 DUP2 GT ISZERO PUSH2 0x23F8 JUMPI PUSH2 0x23F7 PUSH2 0x3578 JUMP JUMPDEST JUMPDEST DUP9 PUSH32 0x15211D78A502C0EDD03F8CEFB0BA09C0BCDB3045A82C5D05DBDFFF58EFC82F03 PUSH1 0x40 MLOAD PUSH1 0x40 MLOAD DUP1 SWAP2 SUB SWAP1 LOG3 POP POP POP POP PUSH2 0x2485 JUMP JUMPDEST DUP1 DUP1 PUSH2 0x2439 SWAP1 PUSH2 0x3D94 JUMP JUMPDEST SWAP2 POP POP PUSH2 0x1C5F JUMP JUMPDEST POP PUSH1 0x0 PUSH2 0x2483 JUMPI PUSH1 0x40 MLOAD PUSH32 0x8C379A000000000000000000000000000000000000000000000000000000000 DUP2 MSTORE PUSH1 0x4 ADD PUSH2 0x247A SWAP1 PUSH2 0x45C5 JUMP JUMPDEST PUSH1 0x40 MLOAD DUP1 SWAP2 SUB SWAP1 REVERT JUMPDEST POP JUMPDEST POP POP POP POP JUMP JUMPDEST PUSH1 0x60 PUSH1 0x0 PUSH1 0x3 PUSH1 0x0 PUSH2 0x249B PUSH2 0x30F8 JUMP JUMPDEST PUSH20 0xFFFFFFFFFFFFFFFFFFFFFFFFFFFFFFFFFFFFFFFF AND PUSH20 0xFFFFFFFFFFFFFFFFFFFFFFFFFFFFFFFFFFFFFFFF AND DUP2 MSTORE PUSH1 0x20 ADD SWAP1 DUP2 MSTORE PUSH1 0x20 ADD PUSH1 0x0 KECCAK256 SLOAD GT PUSH2 0x2516 JUMPI PUSH1 0x40 MLOAD PUSH32 0x8C379A000000000000000000000000000000000000000000000000000000000 DUP2 MSTORE PUSH1 0x4 ADD PUSH2 0x250D SWAP1 PUSH2 0x3BF0 JUMP JUMPDEST PUSH1 0x40 MLOAD DUP1 SWAP2 SUB SWAP1 REVERT JUMPDEST PUSH1 0x4 DUP1 SLOAD DUP1 PUSH1 0x20 MUL PUSH1 0x20 ADD PUSH1 0x40 MLOAD SWAP1 DUP2 ADD PUSH1 0x40 MSTORE DUP1 SWAP3 SWAP2 SWAP1 DUP2 DUP2 MSTORE PUSH1 0x20 ADD DUP3 DUP1 SLOAD DUP1 ISZERO PUSH2 0x2598 JUMPI PUSH1 0x20 MUL DUP3 ADD SWAP2 SWAP1 PUSH1 0x0 MSTORE PUSH1 0x20 PUSH1 0x0 KECCAK256 SWAP1 JUMPDEST DUP2 PUSH1 0x0 SWAP1 SLOAD SWAP1 PUSH2 0x100 EXP SWAP1 DIV PUSH20 0xFFFFFFFFFFFFFFFFFFFFFFFFFFFFFFFFFFFFFFFF AND PUSH20 0xFFFFFFFFFFFFFFFFFFFFFFFFFFFFFFFFFFFFFFFF AND DUP2 MSTORE PUSH1 0x20 ADD SWAP1 PUSH1 0x1 ADD SWAP1 DUP1 DUP4 GT PUSH2 0x254E JUMPI JUMPDEST POP POP POP POP POP SWAP1 POP SWAP1 JUMP JUMPDEST PUSH1 0x0 DUP1 PUSH1 0x0 SWAP1 POP JUMPDEST PUSH1 0x8 DUP1 SLOAD SWAP1 POP DUP2 LT ISZERO PUSH2 0x26DD JUMPI PUSH1 0x8 DUP2 DUP2 SLOAD DUP2 LT PUSH2 0x25CB JUMPI PUSH2 0x25CA PUSH2 0x3C7C JUMP JUMPDEST JUMPDEST SWAP1 PUSH1 0x0 MSTORE PUSH1 0x20 PUSH1 0x0 KECCAK256 ADD PUSH1 0x0 SWAP1 SLOAD SWAP1 PUSH2 0x100 EXP SWAP1 DIV PUSH20 0xFFFFFFFFFFFFFFFFFFFFFFFFFFFFFFFFFFFFFFFF AND PUSH20 0xFFFFFFFFFFFFFFFFFFFFFFFFFFFFFFFFFFFFFFFF AND PUSH4 0xB829275 DUP5 PUSH1 0x40 MLOAD DUP3 PUSH4 0xFFFFFFFF AND PUSH1 0xE0 SHL DUP2 MSTORE PUSH1 0x4 ADD PUSH2 0x262E SWAP2 SWAP1 PUSH2 0x394A JUMP JUMPDEST PUSH1 0x20 PUSH1 0x40 MLOAD DUP1 DUP4 SUB DUP2 DUP7 DUP1 EXTCODESIZE ISZERO DUP1 ISZERO PUSH2 0x2646 JUMPI PUSH1 0x0 DUP1 REVERT JUMPDEST POP GAS STATICCALL ISZERO DUP1 ISZERO PUSH2 0x265A JUMPI RETURNDATASIZE PUSH1 0x0 DUP1 RETURNDATACOPY RETURNDATASIZE PUSH1 0x0 REVERT JUMPDEST POP POP POP POP PUSH1 0x40 MLOAD RETURNDATASIZE PUSH1 0x1F NOT PUSH1 0x1F DUP3 ADD AND DUP3 ADD DUP1 PUSH1 0x40 MSTORE POP DUP2 ADD SWAP1 PUSH2 0x267E SWAP2 SWAP1 PUSH2 0x42B1 JUMP JUMPDEST ISZERO PUSH2 0x26CA JUMPI PUSH1 0x8 DUP2 DUP2 SLOAD DUP2 LT PUSH2 0x2697 JUMPI PUSH2 0x2696 PUSH2 0x3C7C JUMP JUMPDEST JUMPDEST SWAP1 PUSH1 0x0 MSTORE PUSH1 0x20 PUSH1 0x0 KECCAK256 ADD PUSH1 0x0 SWAP1 SLOAD SWAP1 PUSH2 0x100 EXP SWAP1 DIV PUSH20 0xFFFFFFFFFFFFFFFFFFFFFFFFFFFFFFFFFFFFFFFF AND SWAP2 POP POP PUSH2 0x2720 JUMP JUMPDEST DUP1 DUP1 PUSH2 0x26D5 SWAP1 PUSH2 0x3D94 JUMP JUMPDEST SWAP2 POP POP PUSH2 0x25AA JUMP JUMPDEST POP PUSH1 0x0 PUSH2 0x271F JUMPI PUSH1 0x40 MLOAD PUSH32 0x8C379A000000000000000000000000000000000000000000000000000000000 DUP2 MSTORE PUSH1 0x4 ADD PUSH2 0x2716 SWAP1 PUSH2 0x4657 JUMP JUMPDEST PUSH1 0x40 MLOAD DUP1 SWAP2 SUB SWAP1 REVERT JUMPDEST JUMPDEST SWAP2 SWAP1 POP JUMP JUMPDEST PUSH1 0x0 PUSH1 0x7 SLOAD SWAP1 POP SWAP1 JUMP JUMPDEST PUSH1 0x0 DUP1 PUSH1 0x3 PUSH1 0x0 PUSH2 0x273E PUSH2 0x30F8 JUMP JUMPDEST PUSH20 0xFFFFFFFFFFFFFFFFFFFFFFFFFFFFFFFFFFFFFFFF AND PUSH20 0xFFFFFFFFFFFFFFFFFFFFFFFFFFFFFFFFFFFFFFFF AND DUP2 MSTORE PUSH1 0x20 ADD SWAP1 DUP2 MSTORE PUSH1 0x20 ADD PUSH1 0x0 KECCAK256 SLOAD GT PUSH2 0x27B9 JUMPI PUSH1 0x40 MLOAD PUSH32 0x8C379A000000000000000000000000000000000000000000000000000000000 DUP2 MSTORE PUSH1 0x4 ADD PUSH2 0x27B0 SWAP1 PUSH2 0x3BF0 JUMP JUMPDEST PUSH1 0x40 MLOAD DUP1 SWAP2 SUB SWAP1 REVERT JUMPDEST PUSH1 0x5 SLOAD SWAP1 POP SWAP1 JUMP JUMPDEST PUSH1 0x0 PUSH2 0x27CD PUSH1 0x9 PUSH2 0x31C4 JUMP JUMPDEST SWAP1 POP SWAP1 JUMP JUMPDEST PUSH1 0x0 DUP1 PUSH20 0xFFFFFFFFFFFFFFFFFFFFFFFFFFFFFFFFFFFFFFFF AND DUP9 PUSH20 0xFFFFFFFFFFFFFFFFFFFFFFFFFFFFFFFFFFFFFFFF AND EQ ISZERO PUSH2 0x2843 JUMPI PUSH1 0x40 MLOAD PUSH32 0x8C379A000000000000000000000000000000000000000000000000000000000 DUP2 MSTORE PUSH1 0x4 ADD PUSH2 0x283A SWAP1 PUSH2 0x46E9 JUMP JUMPDEST PUSH1 0x40 MLOAD DUP1 SWAP2 SUB SWAP1 REVERT JUMPDEST PUSH2 0x284B PUSH2 0x5FB JUMP JUMPDEST CALLVALUE LT ISZERO PUSH2 0x288D JUMPI PUSH1 0x40 MLOAD PUSH32 0x8C379A000000000000000000000000000000000000000000000000000000000 DUP2 MSTORE PUSH1 0x4 ADD PUSH2 0x2884 SWAP1 PUSH2 0x477B JUMP JUMPDEST PUSH1 0x40 MLOAD DUP1 SWAP2 SUB SWAP1 REVERT JUMPDEST PUSH2 0x2897 PUSH1 0x9 PUSH2 0x31D2 JUMP JUMPDEST PUSH2 0x28A1 PUSH1 0x9 PUSH2 0x31C4 JUMP JUMPDEST SWAP1 POP DUP1 PUSH1 0x1 PUSH1 0x0 DUP4 DUP2 MSTORE PUSH1 0x20 ADD SWAP1 DUP2 MSTORE PUSH1 0x20 ADD PUSH1 0x0 KECCAK256 PUSH1 0x0 ADD DUP2 SWAP1 SSTORE POP DUP8 PUSH1 0x1 PUSH1 0x0 DUP4 DUP2 MSTORE PUSH1 0x20 ADD SWAP1 DUP2 MSTORE PUSH1 0x20 ADD PUSH1 0x0 KECCAK256 PUSH1 0x1 ADD PUSH1 0x1 PUSH2 0x100 EXP DUP2 SLOAD DUP2 PUSH20 0xFFFFFFFFFFFFFFFFFFFFFFFFFFFFFFFFFFFFFFFF MUL NOT AND SWAP1 DUP4 PUSH20 0xFFFFFFFFFFFFFFFFFFFFFFFFFFFFFFFFFFFFFFFF AND MUL OR SWAP1 SSTORE POP PUSH1 0x2 PUSH1 0x0 DUP10 PUSH20 0xFFFFFFFFFFFFFFFFFFFFFFFFFFFFFFFFFFFFFFFF AND PUSH20 0xFFFFFFFFFFFFFFFFFFFFFFFFFFFFFFFFFFFFFFFF AND DUP2 MSTORE PUSH1 0x20 ADD SWAP1 DUP2 MSTORE PUSH1 0x20 ADD PUSH1 0x0 KECCAK256 DUP2 SWAP1 DUP1 PUSH1 0x1 DUP2 SLOAD ADD DUP1 DUP3 SSTORE DUP1 SWAP2 POP POP PUSH1 0x1 SWAP1 SUB SWAP1 PUSH1 0x0 MSTORE PUSH1 0x20 PUSH1 0x0 KECCAK256 ADD PUSH1 0x0 SWAP1 SWAP2 SWAP1 SWAP2 SWAP1 SWAP2 POP SSTORE PUSH1 0x0 JUMPDEST DUP8 DUP8 SWAP1 POP DUP2 LT ISZERO PUSH2 0x2A34 JUMPI PUSH2 0x29BA DUP9 DUP9 DUP4 DUP2 DUP2 LT PUSH2 0x299D JUMPI PUSH2 0x299C PUSH2 0x3C7C JUMP JUMPDEST JUMPDEST SWAP1 POP PUSH1 0x60 MUL ADD PUSH1 0x0 ADD PUSH1 0x20 DUP2 ADD SWAP1 PUSH2 0x29B5 SWAP2 SWAP1 PUSH2 0x32AE JUMP JUMPDEST PUSH2 0x25A2 JUMP JUMPDEST POP PUSH1 0x1 PUSH1 0x0 DUP4 DUP2 MSTORE PUSH1 0x20 ADD SWAP1 DUP2 MSTORE PUSH1 0x20 ADD PUSH1 0x0 KECCAK256 PUSH1 0x2 ADD DUP9 DUP9 DUP4 DUP2 DUP2 LT PUSH2 0x29E4 JUMPI PUSH2 0x29E3 PUSH2 0x3C7C JUMP JUMPDEST JUMPDEST SWAP1 POP PUSH1 0x60 MUL ADD SWAP1 DUP1 PUSH1 0x1 DUP2 SLOAD ADD DUP1 DUP3 SSTORE DUP1 SWAP2 POP POP PUSH1 0x1 SWAP1 SUB SWAP1 PUSH1 0x0 MSTORE PUSH1 0x20 PUSH1 0x0 KECCAK256 SWAP1 PUSH1 0x3 MUL ADD PUSH1 0x0 SWAP1 SWAP2 SWAP1 SWAP2 SWAP1 SWAP2 POP DUP2 DUP2 PUSH2 0x2A1F SWAP2 SWAP1 PUSH2 0x49C2 JUMP JUMPDEST POP POP DUP1 DUP1 PUSH2 0x2A2C SWAP1 PUSH2 0x3D94 JUMP JUMPDEST SWAP2 POP POP PUSH2 0x297C JUMP JUMPDEST POP PUSH1 0x0 JUMPDEST DUP6 DUP6 SWAP1 POP DUP2 LT ISZERO PUSH2 0x2B81 JUMPI PUSH1 0x1 PUSH1 0x0 DUP4 DUP2 MSTORE PUSH1 0x20 ADD SWAP1 DUP2 MSTORE PUSH1 0x20 ADD PUSH1 0x0 KECCAK256 PUSH1 0x3 ADD DUP7 DUP7 DUP4 DUP2 DUP2 LT PUSH2 0x2A6C JUMPI PUSH2 0x2A6B PUSH2 0x3C7C JUMP JUMPDEST JUMPDEST SWAP1 POP PUSH1 0x20 MUL ADD PUSH1 0x20 DUP2 ADD SWAP1 PUSH2 0x2A81 SWAP2 SWAP1 PUSH2 0x32AE JUMP JUMPDEST SWAP1 DUP1 PUSH1 0x1 DUP2 SLOAD ADD DUP1 DUP3 SSTORE DUP1 SWAP2 POP POP PUSH1 0x1 SWAP1 SUB SWAP1 PUSH1 0x0 MSTORE PUSH1 0x20 PUSH1 0x0 KECCAK256 ADD PUSH1 0x0 SWAP1 SWAP2 SWAP1 SWAP2 SWAP1 SWAP2 PUSH2 0x100 EXP DUP2 SLOAD DUP2 PUSH20 0xFFFFFFFFFFFFFFFFFFFFFFFFFFFFFFFFFFFFFFFF MUL NOT AND SWAP1 DUP4 PUSH20 0xFFFFFFFFFFFFFFFFFFFFFFFFFFFFFFFFFFFFFFFF AND MUL OR SWAP1 SSTORE POP PUSH1 0x2 PUSH1 0x0 DUP8 DUP8 DUP5 DUP2 DUP2 LT PUSH2 0x2AF8 JUMPI PUSH2 0x2AF7 PUSH2 0x3C7C JUMP JUMPDEST JUMPDEST SWAP1 POP PUSH1 0x20 MUL ADD PUSH1 0x20 DUP2 ADD SWAP1 PUSH2 0x2B0D SWAP2 SWAP1 PUSH2 0x32AE JUMP JUMPDEST PUSH20 0xFFFFFFFFFFFFFFFFFFFFFFFFFFFFFFFFFFFFFFFF AND PUSH20 0xFFFFFFFFFFFFFFFFFFFFFFFFFFFFFFFFFFFFFFFF AND DUP2 MSTORE PUSH1 0x20 ADD SWAP1 DUP2 MSTORE PUSH1 0x20 ADD PUSH1 0x0 KECCAK256 DUP3 SWAP1 DUP1 PUSH1 0x1 DUP2 SLOAD ADD DUP1 DUP3 SSTORE DUP1 SWAP2 POP POP PUSH1 0x1 SWAP1 SUB SWAP1 PUSH1 0x0 MSTORE PUSH1 0x20 PUSH1 0x0 KECCAK256 ADD PUSH1 0x0 SWAP1 SWAP2 SWAP1 SWAP2 SWAP1 SWAP2 POP SSTORE DUP1 DUP1 PUSH2 0x2B79 SWAP1 PUSH2 0x3D94 JUMP JUMPDEST SWAP2 POP POP PUSH2 0x2A38 JUMP JUMPDEST POP PUSH1 0x0 JUMPDEST DUP4 DUP4 SWAP1 POP DUP2 LT ISZERO PUSH2 0x2C3D JUMPI PUSH2 0x2BC3 DUP5 DUP5 DUP4 DUP2 DUP2 LT PUSH2 0x2BA6 JUMPI PUSH2 0x2BA5 PUSH2 0x3C7C JUMP JUMPDEST JUMPDEST SWAP1 POP PUSH1 0x60 MUL ADD PUSH1 0x0 ADD PUSH1 0x20 DUP2 ADD SWAP1 PUSH2 0x2BBE SWAP2 SWAP1 PUSH2 0x32AE JUMP JUMPDEST PUSH2 0x25A2 JUMP JUMPDEST POP PUSH1 0x1 PUSH1 0x0 DUP4 DUP2 MSTORE PUSH1 0x20 ADD SWAP1 DUP2 MSTORE PUSH1 0x20 ADD PUSH1 0x0 KECCAK256 PUSH1 0x4 ADD DUP5 DUP5 DUP4 DUP2 DUP2 LT PUSH2 0x2BED JUMPI PUSH2 0x2BEC PUSH2 0x3C7C JUMP JUMPDEST JUMPDEST SWAP1 POP PUSH1 0x60 MUL ADD SWAP1 DUP1 PUSH1 0x1 DUP2 SLOAD ADD DUP1 DUP3 SSTORE DUP1 SWAP2 POP POP PUSH1 0x1 SWAP1 SUB SWAP1 PUSH1 0x0 MSTORE PUSH1 0x20 PUSH1 0x0 KECCAK256 SWAP1 PUSH1 0x3 MUL ADD PUSH1 0x0 SWAP1 SWAP2 SWAP1 SWAP2 SWAP1 SWAP2 POP DUP2 DUP2 PUSH2 0x2C28 SWAP2 SWAP1 PUSH2 0x49C2 JUMP JUMPDEST POP POP DUP1 DUP1 PUSH2 0x2C35 SWAP1 PUSH2 0x3D94 JUMP JUMPDEST SWAP2 POP POP PUSH2 0x2B85 JUMP JUMPDEST POP PUSH1 0x0 PUSH1 0x2 DUP2 GT ISZERO PUSH2 0x2C52 JUMPI PUSH2 0x2C51 PUSH2 0x3578 JUMP JUMPDEST JUMPDEST DUP2 PUSH32 0x15211D78A502C0EDD03F8CEFB0BA09C0BCDB3045A82C5D05DBDFFF58EFC82F03 PUSH1 0x40 MLOAD PUSH1 0x40 MLOAD DUP1 SWAP2 SUB SWAP1 LOG3 SWAP8 SWAP7 POP POP POP POP POP POP POP JUMP JUMPDEST PUSH2 0x2C92 PUSH2 0x307A JUMP JUMPDEST DUP1 PUSH20 0xFFFFFFFFFFFFFFFFFFFFFFFFFFFFFFFFFFFFFFFF AND PUSH4 0x1FFC9A7 PUSH32 0xCF44745F00000000000000000000000000000000000000000000000000000000 PUSH1 0x40 MLOAD DUP3 PUSH4 0xFFFFFFFF AND PUSH1 0xE0 SHL DUP2 MSTORE PUSH1 0x4 ADD PUSH2 0x2CEB SWAP2 SWAP1 PUSH2 0x4A0B JUMP JUMPDEST PUSH1 0x20 PUSH1 0x40 MLOAD DUP1 DUP4 SUB DUP2 DUP7 DUP1 EXTCODESIZE ISZERO DUP1 ISZERO PUSH2 0x2D03 JUMPI PUSH1 0x0 DUP1 REVERT JUMPDEST POP GAS STATICCALL ISZERO DUP1 ISZERO PUSH2 0x2D17 JUMPI RETURNDATASIZE PUSH1 0x0 DUP1 RETURNDATACOPY RETURNDATASIZE PUSH1 0x0 REVERT JUMPDEST POP POP POP POP PUSH1 0x40 MLOAD RETURNDATASIZE PUSH1 0x1F NOT PUSH1 0x1F DUP3 ADD AND DUP3 ADD DUP1 PUSH1 0x40 MSTORE POP DUP2 ADD SWAP1 PUSH2 0x2D3B SWAP2 SWAP1 PUSH2 0x42B1 JUMP JUMPDEST PUSH2 0x2D7A JUMPI PUSH1 0x40 MLOAD PUSH32 0x8C379A000000000000000000000000000000000000000000000000000000000 DUP2 MSTORE PUSH1 0x4 ADD PUSH2 0x2D71 SWAP1 PUSH2 0x4A98 JUMP JUMPDEST PUSH1 0x40 MLOAD DUP1 SWAP2 SUB SWAP1 REVERT JUMPDEST PUSH1 0x8 DUP2 SWAP1 DUP1 PUSH1 0x1 DUP2 SLOAD ADD DUP1 DUP3 SSTORE DUP1 SWAP2 POP POP PUSH1 0x1 SWAP1 SUB SWAP1 PUSH1 0x0 MSTORE PUSH1 0x20 PUSH1 0x0 KECCAK256 ADD PUSH1 0x0 SWAP1 SWAP2 SWAP1 SWAP2 SWAP1 SWAP2 PUSH2 0x100 EXP DUP2 SLOAD DUP2 PUSH20 0xFFFFFFFFFFFFFFFFFFFFFFFFFFFFFFFFFFFFFFFF MUL NOT AND SWAP1 DUP4 PUSH20 0xFFFFFFFFFFFFFFFFFFFFFFFFFFFFFFFFFFFFFFFF AND MUL OR SWAP1 SSTORE POP POP JUMP JUMPDEST PUSH2 0x2DE8 PUSH2 0x307A JUMP JUMPDEST DUP1 PUSH20 0xFFFFFFFFFFFFFFFFFFFFFFFFFFFFFFFFFFFFFFFF AND PUSH4 0x1FFC9A7 PUSH32 0xCF44745F00000000000000000000000000000000000000000000000000000000 PUSH1 0x40 MLOAD DUP3 PUSH4 0xFFFFFFFF AND PUSH1 0xE0 SHL DUP2 MSTORE PUSH1 0x4 ADD PUSH2 0x2E41 SWAP2 SWAP1 PUSH2 0x4A0B JUMP JUMPDEST PUSH1 0x20 PUSH1 0x40 MLOAD DUP1 DUP4 SUB DUP2 DUP7 DUP1 EXTCODESIZE ISZERO DUP1 ISZERO PUSH2 0x2E59 JUMPI PUSH1 0x0 DUP1 REVERT JUMPDEST POP GAS STATICCALL ISZERO DUP1 ISZERO PUSH2 0x2E6D JUMPI RETURNDATASIZE PUSH1 0x0 DUP1 RETURNDATACOPY RETURNDATASIZE PUSH1 0x0 REVERT JUMPDEST POP POP POP POP PUSH1 0x40 MLOAD RETURNDATASIZE PUSH1 0x1F NOT PUSH1 0x1F DUP3 ADD AND DUP3 ADD DUP1 PUSH1 0x40 MSTORE POP DUP2 ADD SWAP1 PUSH2 0x2E91 SWAP2 SWAP1 PUSH2 0x42B1 JUMP JUMPDEST PUSH2 0x2ED0 JUMPI PUSH1 0x40 MLOAD PUSH32 0x8C379A000000000000000000000000000000000000000000000000000000000 DUP2 MSTORE PUSH1 0x4 ADD PUSH2 0x2EC7 SWAP1 PUSH2 0x4A98 JUMP JUMPDEST PUSH1 0x40 MLOAD DUP1 SWAP2 SUB SWAP1 REVERT JUMPDEST PUSH1 0x0 JUMPDEST PUSH1 0x8 DUP1 SLOAD SWAP1 POP DUP2 LT ISZERO PUSH2 0x2FF2 JUMPI DUP2 PUSH20 0xFFFFFFFFFFFFFFFFFFFFFFFFFFFFFFFFFFFFFFFF AND PUSH1 0x8 DUP3 DUP2 SLOAD DUP2 LT PUSH2 0x2F0B JUMPI PUSH2 0x2F0A PUSH2 0x3C7C JUMP JUMPDEST JUMPDEST SWAP1 PUSH1 0x0 MSTORE PUSH1 0x20 PUSH1 0x0 KECCAK256 ADD PUSH1 0x0 SWAP1 SLOAD SWAP1 PUSH2 0x100 EXP SWAP1 DIV PUSH20 0xFFFFFFFFFFFFFFFFFFFFFFFFFFFFFFFFFFFFFFFF AND PUSH20 0xFFFFFFFFFFFFFFFFFFFFFFFFFFFFFFFFFFFFFFFF AND EQ ISZERO PUSH2 0x2FDF JUMPI PUSH1 0x8 DUP2 DUP2 SLOAD DUP2 LT PUSH2 0x2F66 JUMPI PUSH2 0x2F65 PUSH2 0x3C7C JUMP JUMPDEST JUMPDEST SWAP1 PUSH1 0x0 MSTORE PUSH1 0x20 PUSH1 0x0 KECCAK256 ADD PUSH1 0x0 PUSH2 0x100 EXP DUP2 SLOAD SWAP1 PUSH20 0xFFFFFFFFFFFFFFFFFFFFFFFFFFFFFFFFFFFFFFFF MUL NOT AND SWAP1 SSTORE PUSH1 0x8 DUP1 SLOAD DUP1 PUSH2 0x2FA5 JUMPI PUSH2 0x2FA4 PUSH2 0x40F5 JUMP JUMPDEST JUMPDEST PUSH1 0x1 SWAP1 SUB DUP2 DUP2 SWAP1 PUSH1 0x0 MSTORE PUSH1 0x20 PUSH1 0x0 KECCAK256 ADD PUSH1 0x0 PUSH2 0x100 EXP DUP2 SLOAD SWAP1 PUSH20 0xFFFFFFFFFFFFFFFFFFFFFFFFFFFFFFFFFFFFFFFF MUL NOT AND SWAP1 SSTORE SWAP1 SSTORE PUSH2 0x2FF2 JUMP JUMPDEST DUP1 DUP1 PUSH2 0x2FEA SWAP1 PUSH2 0x3D94 JUMP JUMPDEST SWAP2 POP POP PUSH2 0x2ED3 JUMP JUMPDEST POP POP JUMP JUMPDEST PUSH2 0x2FFE PUSH2 0x307A JUMP JUMPDEST PUSH1 0x0 PUSH20 0xFFFFFFFFFFFFFFFFFFFFFFFFFFFFFFFFFFFFFFFF AND DUP2 PUSH20 0xFFFFFFFFFFFFFFFFFFFFFFFFFFFFFFFFFFFFFFFF AND EQ ISZERO PUSH2 0x306E JUMPI PUSH1 0x40 MLOAD PUSH32 0x8C379A000000000000000000000000000000000000000000000000000000000 DUP2 MSTORE PUSH1 0x4 ADD PUSH2 0x3065 SWAP1 PUSH2 0x4B2A JUMP JUMPDEST PUSH1 0x40 MLOAD DUP1 SWAP2 SUB SWAP1 REVERT JUMPDEST PUSH2 0x3077 DUP2 PUSH2 0x3100 JUMP JUMPDEST POP JUMP JUMPDEST PUSH2 0x3082 PUSH2 0x30F8 JUMP JUMPDEST PUSH20 0xFFFFFFFFFFFFFFFFFFFFFFFFFFFFFFFFFFFFFFFF AND PUSH2 0x30A0 PUSH2 0x1BA7 JUMP JUMPDEST PUSH20 0xFFFFFFFFFFFFFFFFFFFFFFFFFFFFFFFFFFFFFFFF AND EQ PUSH2 0x30F6 JUMPI PUSH1 0x40 MLOAD PUSH32 0x8C379A000000000000000000000000000000000000000000000000000000000 DUP2 MSTORE PUSH1 0x4 ADD PUSH2 0x30ED SWAP1 PUSH2 0x4B96 JUMP JUMPDEST PUSH1 0x40 MLOAD DUP1 SWAP2 SUB SWAP1 REVERT JUMPDEST JUMP JUMPDEST PUSH1 0x0 CALLER SWAP1 POP SWAP1 JUMP JUMPDEST PUSH1 0x0 DUP1 PUSH1 0x0 SWAP1 SLOAD SWAP1 PUSH2 0x100 EXP SWAP1 DIV PUSH20 0xFFFFFFFFFFFFFFFFFFFFFFFFFFFFFFFFFFFFFFFF AND SWAP1 POP DUP2 PUSH1 0x0 DUP1 PUSH2 0x100 EXP DUP2 SLOAD DUP2 PUSH20 0xFFFFFFFFFFFFFFFFFFFFFFFFFFFFFFFFFFFFFFFF MUL NOT AND SWAP1 DUP4 PUSH20 0xFFFFFFFFFFFFFFFFFFFFFFFFFFFFFFFFFFFFFFFF AND MUL OR SWAP1 SSTORE POP DUP2 PUSH20 0xFFFFFFFFFFFFFFFFFFFFFFFFFFFFFFFFFFFFFFFF AND DUP2 PUSH20 0xFFFFFFFFFFFFFFFFFFFFFFFFFFFFFFFFFFFFFFFF AND PUSH32 0x8BE0079C531659141344CD1FD0A4F28419497F9722A3DAAFE3B4186F6B6457E0 PUSH1 0x40 MLOAD PUSH1 0x40 MLOAD DUP1 SWAP2 SUB SWAP1 LOG3 POP POP JUMP JUMPDEST PUSH1 0x0 DUP2 PUSH1 0x0 ADD SLOAD SWAP1 POP SWAP2 SWAP1 POP JUMP JUMPDEST PUSH1 0x1 DUP2 PUSH1 0x0 ADD PUSH1 0x0 DUP3 DUP3 SLOAD ADD SWAP3 POP POP DUP2 SWAP1 SSTORE POP POP JUMP JUMPDEST PUSH1 0x40 MLOAD DUP1 PUSH1 0xC0 ADD PUSH1 0x40 MSTORE DUP1 PUSH1 0x0 DUP2 MSTORE PUSH1 0x20 ADD PUSH1 0x0 PUSH1 0x2 DUP2 GT ISZERO PUSH2 0x320E JUMPI PUSH2 0x320D PUSH2 0x3578 JUMP JUMPDEST JUMPDEST DUP2 MSTORE PUSH1 0x20 ADD PUSH1 0x0 PUSH20 0xFFFFFFFFFFFFFFFFFFFFFFFFFFFFFFFFFFFFFFFF AND DUP2 MSTORE PUSH1 0x20 ADD PUSH1 0x60 DUP2 MSTORE PUSH1 0x20 ADD PUSH1 0x60 DUP2 MSTORE PUSH1 0x20 ADD PUSH1 0x60 DUP2 MSTORE POP SWAP1 JUMP JUMPDEST PUSH1 0x0 DUP1 REVERT JUMPDEST PUSH1 0x0 DUP1 REVERT JUMPDEST PUSH1 0x0 PUSH20 0xFFFFFFFFFFFFFFFFFFFFFFFFFFFFFFFFFFFFFFFF DUP3 AND SWAP1 POP SWAP2 SWAP1 POP JUMP JUMPDEST PUSH1 0x0 PUSH2 0x327B DUP3 PUSH2 0x3250 JUMP JUMPDEST SWAP1 POP SWAP2 SWAP1 POP JUMP JUMPDEST PUSH2 0x328B DUP2 PUSH2 0x3270 JUMP JUMPDEST DUP2 EQ PUSH2 0x3296 JUMPI PUSH1 0x0 DUP1 REVERT JUMPDEST POP JUMP JUMPDEST PUSH1 0x0 DUP2 CALLDATALOAD SWAP1 POP PUSH2 0x32A8 DUP2 PUSH2 0x3282 JUMP JUMPDEST SWAP3 SWAP2 POP POP JUMP JUMPDEST PUSH1 0x0 PUSH1 0x20 DUP3 DUP5 SUB SLT ISZERO PUSH2 0x32C4 JUMPI PUSH2 0x32C3 PUSH2 0x3246 JUMP JUMPDEST JUMPDEST PUSH1 0x0 PUSH2 0x32D2 DUP5 DUP3 DUP6 ADD PUSH2 0x3299 JUMP JUMPDEST SWAP2 POP POP SWAP3 SWAP2 POP POP JUMP JUMPDEST PUSH1 0x0 DUP2 MLOAD SWAP1 POP SWAP2 SWAP1 POP JUMP JUMPDEST PUSH1 0x0 DUP3 DUP3 MSTORE PUSH1 0x20 DUP3 ADD SWAP1 POP SWAP3 SWAP2 POP POP JUMP JUMPDEST PUSH1 0x0 DUP2 SWAP1 POP PUSH1 0x20 DUP3 ADD SWAP1 POP SWAP2 SWAP1 POP JUMP JUMPDEST PUSH1 0x0 DUP2 SWAP1 POP SWAP2 SWAP1 POP JUMP JUMPDEST PUSH2 0x331A DUP2 PUSH2 0x3307 JUMP JUMPDEST DUP3 MSTORE POP POP JUMP JUMPDEST PUSH1 0x0 PUSH2 0x332C DUP4 DUP4 PUSH2 0x3311 JUMP JUMPDEST PUSH1 0x20 DUP4 ADD SWAP1 POP SWAP3 SWAP2 POP POP JUMP JUMPDEST PUSH1 0x0 PUSH1 0x20 DUP3 ADD SWAP1 POP SWAP2 SWAP1 POP JUMP JUMPDEST PUSH1 0x0 PUSH2 0x3350 DUP3 PUSH2 0x32DB JUMP JUMPDEST PUSH2 0x335A DUP2 DUP6 PUSH2 0x32E6 JUMP JUMPDEST SWAP4 POP PUSH2 0x3365 DUP4 PUSH2 0x32F7 JUMP JUMPDEST DUP1 PUSH1 0x0 JUMPDEST DUP4 DUP2 LT ISZERO PUSH2 0x3396 JUMPI DUP2 MLOAD PUSH2 0x337D DUP9 DUP3 PUSH2 0x3320 JUMP JUMPDEST SWAP8 POP PUSH2 0x3388 DUP4 PUSH2 0x3338 JUMP JUMPDEST SWAP3 POP POP PUSH1 0x1 DUP2 ADD SWAP1 POP PUSH2 0x3369 JUMP JUMPDEST POP DUP6 SWAP4 POP POP POP POP SWAP3 SWAP2 POP POP JUMP JUMPDEST PUSH1 0x0 PUSH1 0x20 DUP3 ADD SWAP1 POP DUP2 DUP2 SUB PUSH1 0x0 DUP4 ADD MSTORE PUSH2 0x33BD DUP2 DUP5 PUSH2 0x3345 JUMP JUMPDEST SWAP1 POP SWAP3 SWAP2 POP POP JUMP JUMPDEST PUSH2 0x33CE DUP2 PUSH2 0x3307 JUMP JUMPDEST DUP3 MSTORE POP POP JUMP JUMPDEST PUSH1 0x0 PUSH1 0x20 DUP3 ADD SWAP1 POP PUSH2 0x33E9 PUSH1 0x0 DUP4 ADD DUP5 PUSH2 0x33C5 JUMP JUMPDEST SWAP3 SWAP2 POP POP JUMP JUMPDEST PUSH2 0x33F8 DUP2 PUSH2 0x3307 JUMP JUMPDEST DUP2 EQ PUSH2 0x3403 JUMPI PUSH1 0x0 DUP1 REVERT JUMPDEST POP JUMP JUMPDEST PUSH1 0x0 DUP2 CALLDATALOAD SWAP1 POP PUSH2 0x3415 DUP2 PUSH2 0x33EF JUMP JUMPDEST SWAP3 SWAP2 POP POP JUMP JUMPDEST PUSH1 0x0 PUSH1 0x20 DUP3 DUP5 SUB SLT ISZERO PUSH2 0x3431 JUMPI PUSH2 0x3430 PUSH2 0x3246 JUMP JUMPDEST JUMPDEST PUSH1 0x0 PUSH2 0x343F DUP5 DUP3 DUP6 ADD PUSH2 0x3406 JUMP JUMPDEST SWAP2 POP POP SWAP3 SWAP2 POP POP JUMP JUMPDEST PUSH1 0x0 DUP2 MLOAD SWAP1 POP SWAP2 SWAP1 POP JUMP JUMPDEST PUSH1 0x0 DUP3 DUP3 MSTORE PUSH1 0x20 DUP3 ADD SWAP1 POP SWAP3 SWAP2 POP POP JUMP JUMPDEST PUSH1 0x0 DUP2 SWAP1 POP PUSH1 0x20 DUP3 ADD SWAP1 POP SWAP2 SWAP1 POP JUMP JUMPDEST PUSH1 0x0 DUP2 SWAP1 POP SWAP2 SWAP1 POP JUMP JUMPDEST PUSH1 0x0 PUSH2 0x3499 PUSH2 0x3494 PUSH2 0x348F DUP5 PUSH2 0x3250 JUMP JUMPDEST PUSH2 0x3474 JUMP JUMPDEST PUSH2 0x3250 JUMP JUMPDEST SWAP1 POP SWAP2 SWAP1 POP JUMP JUMPDEST PUSH1 0x0 PUSH2 0x34AB DUP3 PUSH2 0x347E JUMP JUMPDEST SWAP1 POP SWAP2 SWAP1 POP JUMP JUMPDEST PUSH1 0x0 PUSH2 0x34BD DUP3 PUSH2 0x34A0 JUMP JUMPDEST SWAP1 POP SWAP2 SWAP1 POP JUMP JUMPDEST PUSH2 0x34CD DUP2 PUSH2 0x34B2 JUMP JUMPDEST DUP3 MSTORE POP POP JUMP JUMPDEST PUSH1 0x0 PUSH2 0x34DF DUP4 DUP4 PUSH2 0x34C4 JUMP JUMPDEST PUSH1 0x20 DUP4 ADD SWAP1 POP SWAP3 SWAP2 POP POP JUMP JUMPDEST PUSH1 0x0 PUSH1 0x20 DUP3 ADD SWAP1 POP SWAP2 SWAP1 POP JUMP JUMPDEST PUSH1 0x0 PUSH2 0x3503 DUP3 PUSH2 0x3448 JUMP JUMPDEST PUSH2 0x350D DUP2 DUP6 PUSH2 0x3453 JUMP JUMPDEST SWAP4 POP PUSH2 0x3518 DUP4 PUSH2 0x3464 JUMP JUMPDEST DUP1 PUSH1 0x0 JUMPDEST DUP4 DUP2 LT ISZERO PUSH2 0x3549 JUMPI DUP2 MLOAD PUSH2 0x3530 DUP9 DUP3 PUSH2 0x34D3 JUMP JUMPDEST SWAP8 POP PUSH2 0x353B DUP4 PUSH2 0x34EB JUMP JUMPDEST SWAP3 POP POP PUSH1 0x1 DUP2 ADD SWAP1 POP PUSH2 0x351C JUMP JUMPDEST POP DUP6 SWAP4 POP POP POP POP SWAP3 SWAP2 POP POP JUMP JUMPDEST PUSH1 0x0 PUSH1 0x20 DUP3 ADD SWAP1 POP DUP2 DUP2 SUB PUSH1 0x0 DUP4 ADD MSTORE PUSH2 0x3570 DUP2 DUP5 PUSH2 0x34F8 JUMP JUMPDEST SWAP1 POP SWAP3 SWAP2 POP POP JUMP JUMPDEST PUSH32 0x4E487B7100000000000000000000000000000000000000000000000000000000 PUSH1 0x0 MSTORE PUSH1 0x21 PUSH1 0x4 MSTORE PUSH1 0x24 PUSH1 0x0 REVERT JUMPDEST PUSH1 0x3 DUP2 LT PUSH2 0x35B8 JUMPI PUSH2 0x35B7 PUSH2 0x3578 JUMP JUMPDEST JUMPDEST POP JUMP JUMPDEST PUSH1 0x0 DUP2 SWAP1 POP PUSH2 0x35C9 DUP3 PUSH2 0x35A7 JUMP JUMPDEST SWAP2 SWAP1 POP JUMP JUMPDEST PUSH1 0x0 PUSH2 0x35D9 DUP3 PUSH2 0x35BB JUMP JUMPDEST SWAP1 POP SWAP2 SWAP1 POP JUMP JUMPDEST PUSH2 0x35E9 DUP2 PUSH2 0x35CE JUMP JUMPDEST DUP3 MSTORE POP POP JUMP JUMPDEST PUSH2 0x35F8 DUP2 PUSH2 0x3270 JUMP JUMPDEST DUP3 MSTORE POP POP JUMP JUMPDEST PUSH1 0x0 DUP2 MLOAD SWAP1 POP SWAP2 SWAP1 POP JUMP JUMPDEST PUSH1 0x0 DUP3 DUP3 MSTORE PUSH1 0x20 DUP3 ADD SWAP1 POP SWAP3 SWAP2 POP POP JUMP JUMPDEST PUSH1 0x0 DUP2 SWAP1 POP PUSH1 0x20 DUP3 ADD SWAP1 POP SWAP2 SWAP1 POP JUMP JUMPDEST PUSH1 0x0 DUP2 SWAP1 POP SWAP2 SWAP1 POP JUMP JUMPDEST PUSH2 0x363D DUP2 PUSH2 0x362A JUMP JUMPDEST DUP3 MSTORE POP POP JUMP JUMPDEST PUSH1 0x60 DUP3 ADD PUSH1 0x0 DUP3 ADD MLOAD PUSH2 0x3659 PUSH1 0x0 DUP6 ADD DUP3 PUSH2 0x35EF JUMP JUMPDEST POP PUSH1 0x20 DUP3 ADD MLOAD PUSH2 0x366C PUSH1 0x20 DUP6 ADD DUP3 PUSH2 0x3634 JUMP JUMPDEST POP PUSH1 0x40 DUP3 ADD MLOAD PUSH2 0x367F PUSH1 0x40 DUP6 ADD DUP3 PUSH2 0x3311 JUMP JUMPDEST POP POP POP POP JUMP JUMPDEST PUSH1 0x0 PUSH2 0x3691 DUP4 DUP4 PUSH2 0x3643 JUMP JUMPDEST PUSH1 0x60 DUP4 ADD SWAP1 POP SWAP3 SWAP2 POP POP JUMP JUMPDEST PUSH1 0x0 PUSH1 0x20 DUP3 ADD SWAP1 POP SWAP2 SWAP1 POP JUMP JUMPDEST PUSH1 0x0 PUSH2 0x36B5 DUP3 PUSH2 0x35FE JUMP JUMPDEST PUSH2 0x36BF DUP2 DUP6 PUSH2 0x3609 JUMP JUMPDEST SWAP4 POP PUSH2 0x36CA DUP4 PUSH2 0x361A JUMP JUMPDEST DUP1 PUSH1 0x0 JUMPDEST DUP4 DUP2 LT ISZERO PUSH2 0x36FB JUMPI DUP2 MLOAD PUSH2 0x36E2 DUP9 DUP3 PUSH2 0x3685 JUMP JUMPDEST SWAP8 POP PUSH2 0x36ED DUP4 PUSH2 0x369D JUMP JUMPDEST SWAP3 POP POP PUSH1 0x1 DUP2 ADD SWAP1 POP PUSH2 0x36CE JUMP JUMPDEST POP DUP6 SWAP4 POP POP POP POP SWAP3 SWAP2 POP POP JUMP JUMPDEST PUSH1 0x0 DUP2 MLOAD SWAP1 POP SWAP2 SWAP1 POP JUMP JUMPDEST PUSH1 0x0 DUP3 DUP3 MSTORE PUSH1 0x20 DUP3 ADD SWAP1 POP SWAP3 SWAP2 POP POP JUMP JUMPDEST PUSH1 0x0 DUP2 SWAP1 POP PUSH1 0x20 DUP3 ADD SWAP1 POP SWAP2 SWAP1 POP JUMP JUMPDEST PUSH1 0x0 PUSH2 0x3740 DUP4 DUP4 PUSH2 0x35EF JUMP JUMPDEST PUSH1 0x20 DUP4 ADD SWAP1 POP SWAP3 SWAP2 POP POP JUMP JUMPDEST PUSH1 0x0 PUSH1 0x20 DUP3 ADD SWAP1 POP SWAP2 SWAP1 POP JUMP JUMPDEST PUSH1 0x0 PUSH2 0x3764 DUP3 PUSH2 0x3708 JUMP JUMPDEST PUSH2 0x376E DUP2 DUP6 PUSH2 0x3713 JUMP JUMPDEST SWAP4 POP PUSH2 0x3779 DUP4 PUSH2 0x3724 JUMP JUMPDEST DUP1 PUSH1 0x0 JUMPDEST DUP4 DUP2 LT ISZERO PUSH2 0x37AA JUMPI DUP2 MLOAD PUSH2 0x3791 DUP9 DUP3 PUSH2 0x3734 JUMP JUMPDEST SWAP8 POP PUSH2 0x379C DUP4 PUSH2 0x374C JUMP JUMPDEST SWAP3 POP POP PUSH1 0x1 DUP2 ADD SWAP1 POP PUSH2 0x377D JUMP JUMPDEST POP DUP6 SWAP4 POP POP POP POP SWAP3 SWAP2 POP POP JUMP JUMPDEST PUSH1 0x0 PUSH1 0xC0 DUP4 ADD PUSH1 0x0 DUP4 ADD MLOAD PUSH2 0x37CF PUSH1 0x0 DUP7 ADD DUP3 PUSH2 0x3311 JUMP JUMPDEST POP PUSH1 0x20 DUP4 ADD MLOAD PUSH2 0x37E2 PUSH1 0x20 DUP7 ADD DUP3 PUSH2 0x35E0 JUMP JUMPDEST POP PUSH1 0x40 DUP4 ADD MLOAD PUSH2 0x37F5 PUSH1 0x40 DUP7 ADD DUP3 PUSH2 0x35EF JUMP JUMPDEST POP PUSH1 0x60 DUP4 ADD MLOAD DUP5 DUP3 SUB PUSH1 0x60 DUP7 ADD MSTORE PUSH2 0x380D DUP3 DUP3 PUSH2 0x36AA JUMP JUMPDEST SWAP2 POP POP PUSH1 0x80 DUP4 ADD MLOAD DUP5 DUP3 SUB PUSH1 0x80 DUP7 ADD MSTORE PUSH2 0x3827 DUP3 DUP3 PUSH2 0x3759 JUMP JUMPDEST SWAP2 POP POP PUSH1 0xA0 DUP4 ADD MLOAD DUP5 DUP3 SUB PUSH1 0xA0 DUP7 ADD MSTORE PUSH2 0x3841 DUP3 DUP3 PUSH2 0x36AA JUMP JUMPDEST SWAP2 POP POP DUP1 SWAP2 POP POP SWAP3 SWAP2 POP POP JUMP JUMPDEST PUSH1 0x0 PUSH1 0x20 DUP3 ADD SWAP1 POP DUP2 DUP2 SUB PUSH1 0x0 DUP4 ADD MSTORE PUSH2 0x3868 DUP2 DUP5 PUSH2 0x37B7 JUMP JUMPDEST SWAP1 POP SWAP3 SWAP2 POP POP JUMP JUMPDEST PUSH1 0x0 DUP1 PUSH1 0x40 DUP4 DUP6 SUB SLT ISZERO PUSH2 0x3887 JUMPI PUSH2 0x3886 PUSH2 0x3246 JUMP JUMPDEST JUMPDEST PUSH1 0x0 PUSH2 0x3895 DUP6 DUP3 DUP7 ADD PUSH2 0x3299 JUMP JUMPDEST SWAP3 POP POP PUSH1 0x20 PUSH2 0x38A6 DUP6 DUP3 DUP7 ADD PUSH2 0x3406 JUMP JUMPDEST SWAP2 POP POP SWAP3 POP SWAP3 SWAP1 POP JUMP JUMPDEST PUSH1 0x0 DUP2 ISZERO ISZERO SWAP1 POP SWAP2 SWAP1 POP JUMP JUMPDEST PUSH2 0x38C5 DUP2 PUSH2 0x38B0 JUMP JUMPDEST DUP2 EQ PUSH2 0x38D0 JUMPI PUSH1 0x0 DUP1 REVERT JUMPDEST POP JUMP JUMPDEST PUSH1 0x0 DUP2 CALLDATALOAD SWAP1 POP PUSH2 0x38E2 DUP2 PUSH2 0x38BC JUMP JUMPDEST SWAP3 SWAP2 POP POP JUMP JUMPDEST PUSH1 0x0 DUP1 PUSH1 0x0 PUSH1 0x60 DUP5 DUP7 SUB SLT ISZERO PUSH2 0x3901 JUMPI PUSH2 0x3900 PUSH2 0x3246 JUMP JUMPDEST JUMPDEST PUSH1 0x0 PUSH2 0x390F DUP7 DUP3 DUP8 ADD PUSH2 0x3406 JUMP JUMPDEST SWAP4 POP POP PUSH1 0x20 PUSH2 0x3920 DUP7 DUP3 DUP8 ADD PUSH2 0x3299 JUMP JUMPDEST SWAP3 POP POP PUSH1 0x40 PUSH2 0x3931 DUP7 DUP3 DUP8 ADD PUSH2 0x38D3 JUMP JUMPDEST SWAP2 POP POP SWAP3 POP SWAP3 POP SWAP3 JUMP JUMPDEST PUSH2 0x3944 DUP2 PUSH2 0x3270 JUMP JUMPDEST DUP3 MSTORE POP POP JUMP JUMPDEST PUSH1 0x0 PUSH1 0x20 DUP3 ADD SWAP1 POP PUSH2 0x395F PUSH1 0x0 DUP4 ADD DUP5 PUSH2 0x393B JUMP JUMPDEST SWAP3 SWAP2 POP POP JUMP JUMPDEST PUSH1 0x0 PUSH2 0x3970 DUP3 PUSH2 0x3708 JUMP JUMPDEST PUSH2 0x397A DUP2 DUP6 PUSH2 0x3453 JUMP JUMPDEST SWAP4 POP PUSH2 0x3985 DUP4 PUSH2 0x3724 JUMP JUMPDEST DUP1 PUSH1 0x0 JUMPDEST DUP4 DUP2 LT ISZERO PUSH2 0x39B6 JUMPI DUP2 MLOAD PUSH2 0x399D DUP9 DUP3 PUSH2 0x3734 JUMP JUMPDEST SWAP8 POP PUSH2 0x39A8 DUP4 PUSH2 0x374C JUMP JUMPDEST SWAP3 POP POP PUSH1 0x1 DUP2 ADD SWAP1 POP PUSH2 0x3989 JUMP JUMPDEST POP DUP6 SWAP4 POP POP POP POP SWAP3 SWAP2 POP POP JUMP JUMPDEST PUSH1 0x0 PUSH1 0x20 DUP3 ADD SWAP1 POP DUP2 DUP2 SUB PUSH1 0x0 DUP4 ADD MSTORE PUSH2 0x39DD DUP2 DUP5 PUSH2 0x3965 JUMP JUMPDEST SWAP1 POP SWAP3 SWAP2 POP POP JUMP JUMPDEST PUSH2 0x39EE DUP2 PUSH2 0x34B2 JUMP JUMPDEST DUP3 MSTORE POP POP JUMP JUMPDEST PUSH1 0x0 PUSH1 0x20 DUP3 ADD SWAP1 POP PUSH2 0x3A09 PUSH1 0x0 DUP4 ADD DUP5 PUSH2 0x39E5 JUMP JUMPDEST SWAP3 SWAP2 POP POP JUMP JUMPDEST PUSH1 0x0 DUP1 REVERT JUMPDEST PUSH1 0x0 DUP1 REVERT JUMPDEST PUSH1 0x0 DUP1 REVERT JUMPDEST PUSH1 0x0 DUP1 DUP4 PUSH1 0x1F DUP5 ADD SLT PUSH2 0x3A34 JUMPI PUSH2 0x3A33 PUSH2 0x3A0F JUMP JUMPDEST JUMPDEST DUP3 CALLDATALOAD SWAP1 POP PUSH8 0xFFFFFFFFFFFFFFFF DUP2 GT ISZERO PUSH2 0x3A51 JUMPI PUSH2 0x3A50 PUSH2 0x3A14 JUMP JUMPDEST JUMPDEST PUSH1 0x20 DUP4 ADD SWAP2 POP DUP4 PUSH1 0x60 DUP3 MUL DUP4 ADD GT ISZERO PUSH2 0x3A6D JUMPI PUSH2 0x3A6C PUSH2 0x3A19 JUMP JUMPDEST JUMPDEST SWAP3 POP SWAP3 SWAP1 POP JUMP JUMPDEST PUSH1 0x0 DUP1 DUP4 PUSH1 0x1F DUP5 ADD SLT PUSH2 0x3A8A JUMPI PUSH2 0x3A89 PUSH2 0x3A0F JUMP JUMPDEST JUMPDEST DUP3 CALLDATALOAD SWAP1 POP PUSH8 0xFFFFFFFFFFFFFFFF DUP2 GT ISZERO PUSH2 0x3AA7 JUMPI PUSH2 0x3AA6 PUSH2 0x3A14 JUMP JUMPDEST JUMPDEST PUSH1 0x20 DUP4 ADD SWAP2 POP DUP4 PUSH1 0x20 DUP3 MUL DUP4 ADD GT ISZERO PUSH2 0x3AC3 JUMPI PUSH2 0x3AC2 PUSH2 0x3A19 JUMP JUMPDEST JUMPDEST SWAP3 POP SWAP3 SWAP1 POP JUMP JUMPDEST PUSH1 0x0 DUP1 PUSH1 0x0 DUP1 PUSH1 0x0 DUP1 PUSH1 0x0 PUSH1 0x80 DUP9 DUP11 SUB SLT ISZERO PUSH2 0x3AE9 JUMPI PUSH2 0x3AE8 PUSH2 0x3246 JUMP JUMPDEST JUMPDEST PUSH1 0x0 PUSH2 0x3AF7 DUP11 DUP3 DUP12 ADD PUSH2 0x3299 JUMP JUMPDEST SWAP8 POP POP PUSH1 0x20 DUP9 ADD CALLDATALOAD PUSH8 0xFFFFFFFFFFFFFFFF DUP2 GT ISZERO PUSH2 0x3B18 JUMPI PUSH2 0x3B17 PUSH2 0x324B JUMP JUMPDEST JUMPDEST PUSH2 0x3B24 DUP11 DUP3 DUP12 ADD PUSH2 0x3A1E JUMP JUMPDEST SWAP7 POP SWAP7 POP POP PUSH1 0x40 DUP9 ADD CALLDATALOAD PUSH8 0xFFFFFFFFFFFFFFFF DUP2 GT ISZERO PUSH2 0x3B47 JUMPI PUSH2 0x3B46 PUSH2 0x324B JUMP JUMPDEST JUMPDEST PUSH2 0x3B53 DUP11 DUP3 DUP12 ADD PUSH2 0x3A74 JUMP JUMPDEST SWAP5 POP SWAP5 POP POP PUSH1 0x60 DUP9 ADD CALLDATALOAD PUSH8 0xFFFFFFFFFFFFFFFF DUP2 GT ISZERO PUSH2 0x3B76 JUMPI PUSH2 0x3B75 PUSH2 0x324B JUMP JUMPDEST JUMPDEST PUSH2 0x3B82 DUP11 DUP3 DUP12 ADD PUSH2 0x3A1E JUMP JUMPDEST SWAP3 POP SWAP3 POP POP SWAP3 SWAP6 SWAP9 SWAP2 SWAP5 SWAP8 POP SWAP3 SWAP6 POP JUMP JUMPDEST PUSH1 0x0 DUP3 DUP3 MSTORE PUSH1 0x20 DUP3 ADD SWAP1 POP SWAP3 SWAP2 POP POP JUMP JUMPDEST PUSH32 0x4E4654537761707065723A206E6F74206120636F6E7472696275746F72000000 PUSH1 0x0 DUP3 ADD MSTORE POP JUMP JUMPDEST PUSH1 0x0 PUSH2 0x3BDA PUSH1 0x1D DUP4 PUSH2 0x3B93 JUMP JUMPDEST SWAP2 POP PUSH2 0x3BE5 DUP3 PUSH2 0x3BA4 JUMP JUMPDEST PUSH1 0x20 DUP3 ADD SWAP1 POP SWAP2 SWAP1 POP JUMP JUMPDEST PUSH1 0x0 PUSH1 0x20 DUP3 ADD SWAP1 POP DUP2 DUP2 SUB PUSH1 0x0 DUP4 ADD MSTORE PUSH2 0x3C09 DUP2 PUSH2 0x3BCD JUMP JUMPDEST SWAP1 POP SWAP2 SWAP1 POP JUMP JUMPDEST PUSH32 0x4E4654537761707065723A2077697468647261773A206E6F2062616C616E6365 PUSH1 0x0 DUP3 ADD MSTORE POP JUMP JUMPDEST PUSH1 0x0 PUSH2 0x3C46 PUSH1 0x20 DUP4 PUSH2 0x3B93 JUMP JUMPDEST SWAP2 POP PUSH2 0x3C51 DUP3 PUSH2 0x3C10 JUMP JUMPDEST PUSH1 0x20 DUP3 ADD SWAP1 POP SWAP2 SWAP1 POP JUMP JUMPDEST PUSH1 0x0 PUSH1 0x20 DUP3 ADD SWAP1 POP DUP2 DUP2 SUB PUSH1 0x0 DUP4 ADD MSTORE PUSH2 0x3C75 DUP2 PUSH2 0x3C39 JUMP JUMPDEST SWAP1 POP SWAP2 SWAP1 POP JUMP JUMPDEST PUSH32 0x4E487B7100000000000000000000000000000000000000000000000000000000 PUSH1 0x0 MSTORE PUSH1 0x32 PUSH1 0x4 MSTORE PUSH1 0x24 PUSH1 0x0 REVERT JUMPDEST PUSH32 0x4E487B7100000000000000000000000000000000000000000000000000000000 PUSH1 0x0 MSTORE PUSH1 0x11 PUSH1 0x4 MSTORE PUSH1 0x24 PUSH1 0x0 REVERT JUMPDEST PUSH1 0x0 PUSH2 0x3CE5 DUP3 PUSH2 0x3307 JUMP JUMPDEST SWAP2 POP PUSH2 0x3CF0 DUP4 PUSH2 0x3307 JUMP JUMPDEST SWAP3 POP DUP2 PUSH32 0xFFFFFFFFFFFFFFFFFFFFFFFFFFFFFFFFFFFFFFFFFFFFFFFFFFFFFFFFFFFFFFFF DIV DUP4 GT DUP3 ISZERO ISZERO AND ISZERO PUSH2 0x3D29 JUMPI PUSH2 0x3D28 PUSH2 0x3CAB JUMP JUMPDEST JUMPDEST DUP3 DUP3 MUL SWAP1 POP SWAP3 SWAP2 POP POP JUMP JUMPDEST PUSH32 0x4E487B7100000000000000000000000000000000000000000000000000000000 PUSH1 0x0 MSTORE PUSH1 0x12 PUSH1 0x4 MSTORE PUSH1 0x24 PUSH1 0x0 REVERT JUMPDEST PUSH1 0x0 PUSH2 0x3D6E DUP3 PUSH2 0x3307 JUMP JUMPDEST SWAP2 POP PUSH2 0x3D79 DUP4 PUSH2 0x3307 JUMP JUMPDEST SWAP3 POP DUP3 PUSH2 0x3D89 JUMPI PUSH2 0x3D88 PUSH2 0x3D34 JUMP JUMPDEST JUMPDEST DUP3 DUP3 DIV SWAP1 POP SWAP3 SWAP2 POP POP JUMP JUMPDEST PUSH1 0x0 PUSH2 0x3D9F DUP3 PUSH2 0x3307 JUMP JUMPDEST SWAP2 POP PUSH32 0xFFFFFFFFFFFFFFFFFFFFFFFFFFFFFFFFFFFFFFFFFFFFFFFFFFFFFFFFFFFFFFFF DUP3 EQ ISZERO PUSH2 0x3DD2 JUMPI PUSH2 0x3DD1 PUSH2 0x3CAB JUMP JUMPDEST JUMPDEST PUSH1 0x1 DUP3 ADD SWAP1 POP SWAP2 SWAP1 POP JUMP JUMPDEST PUSH32 0x4E4654537761707065723A20696420646F6573206E6F74206578697374000000 PUSH1 0x0 DUP3 ADD MSTORE POP JUMP JUMPDEST PUSH1 0x0 PUSH2 0x3E13 PUSH1 0x1D DUP4 PUSH2 0x3B93 JUMP JUMPDEST SWAP2 POP PUSH2 0x3E1E DUP3 PUSH2 0x3DDD JUMP JUMPDEST PUSH1 0x20 DUP3 ADD SWAP1 POP SWAP2 SWAP1 POP JUMP JUMPDEST PUSH1 0x0 PUSH1 0x20 DUP3 ADD SWAP1 POP DUP2 DUP2 SUB PUSH1 0x0 DUP4 ADD MSTORE PUSH2 0x3E42 DUP2 PUSH2 0x3E06 JUMP JUMPDEST SWAP1 POP SWAP2 SWAP1 POP JUMP JUMPDEST PUSH32 0x4E4654537761707065723A206E6F742074686520626964646572000000000000 PUSH1 0x0 DUP3 ADD MSTORE POP JUMP JUMPDEST PUSH1 0x0 PUSH2 0x3E7F PUSH1 0x1A DUP4 PUSH2 0x3B93 JUMP JUMPDEST SWAP2 POP PUSH2 0x3E8A DUP3 PUSH2 0x3E49 JUMP JUMPDEST PUSH1 0x20 DUP3 ADD SWAP1 POP SWAP2 SWAP1 POP JUMP JUMPDEST PUSH1 0x0 PUSH1 0x20 DUP3 ADD SWAP1 POP DUP2 DUP2 SUB PUSH1 0x0 DUP4 ADD MSTORE PUSH2 0x3EAE DUP2 PUSH2 0x3E72 JUMP JUMPDEST SWAP1 POP SWAP2 SWAP1 POP JUMP JUMPDEST PUSH32 0x4E4654537761707065723A207377617020697320636F6D706C65746564206F72 PUSH1 0x0 DUP3 ADD MSTORE PUSH32 0x2063616E63656C6C656400000000000000000000000000000000000000000000 PUSH1 0x20 DUP3 ADD MSTORE POP JUMP JUMPDEST PUSH1 0x0 PUSH2 0x3F11 PUSH1 0x2A DUP4 PUSH2 0x3B93 JUMP JUMPDEST SWAP2 POP PUSH2 0x3F1C DUP3 PUSH2 0x3EB5 JUMP JUMPDEST PUSH1 0x40 DUP3 ADD SWAP1 POP SWAP2 SWAP1 POP JUMP JUMPDEST PUSH1 0x0 PUSH1 0x20 DUP3 ADD SWAP1 POP DUP2 DUP2 SUB PUSH1 0x0 DUP4 ADD MSTORE PUSH2 0x3F40 DUP2 PUSH2 0x3F04 JUMP JUMPDEST SWAP1 POP SWAP2 SWAP1 POP JUMP JUMPDEST PUSH32 0x4E4654537761707065723A20736574436F6E7472696275746F723A20636F6E74 PUSH1 0x0 DUP3 ADD MSTORE PUSH32 0x72696275746F722061646472657373206973206E6F74206120454F4100000000 PUSH1 0x20 DUP3 ADD MSTORE POP JUMP JUMPDEST PUSH1 0x0 PUSH2 0x3FA3 PUSH1 0x3C DUP4 PUSH2 0x3B93 JUMP JUMPDEST SWAP2 POP PUSH2 0x3FAE DUP3 PUSH2 0x3F47 JUMP JUMPDEST PUSH1 0x40 DUP3 ADD SWAP1 POP SWAP2 SWAP1 POP JUMP JUMPDEST PUSH1 0x0 PUSH1 0x20 DUP3 ADD SWAP1 POP DUP2 DUP2 SUB PUSH1 0x0 DUP4 ADD MSTORE PUSH2 0x3FD2 DUP2 PUSH2 0x3F96 JUMP JUMPDEST SWAP1 POP SWAP2 SWAP1 POP JUMP JUMPDEST PUSH1 0x0 PUSH2 0x3FE4 DUP3 PUSH2 0x3307 JUMP JUMPDEST SWAP2 POP PUSH2 0x3FEF DUP4 PUSH2 0x3307 JUMP JUMPDEST SWAP3 POP DUP3 DUP3 LT ISZERO PUSH2 0x4002 JUMPI PUSH2 0x4001 PUSH2 0x3CAB JUMP JUMPDEST JUMPDEST DUP3 DUP3 SUB SWAP1 POP SWAP3 SWAP2 POP POP JUMP JUMPDEST PUSH1 0x0 PUSH2 0x4018 DUP3 PUSH2 0x3307 JUMP JUMPDEST SWAP2 POP PUSH2 0x4023 DUP4 PUSH2 0x3307 JUMP JUMPDEST SWAP3 POP DUP3 PUSH32 0xFFFFFFFFFFFFFFFFFFFFFFFFFFFFFFFFFFFFFFFFFFFFFFFFFFFFFFFFFFFFFFFF SUB DUP3 GT ISZERO PUSH2 0x4058 JUMPI PUSH2 0x4057 PUSH2 0x3CAB JUMP JUMPDEST JUMPDEST DUP3 DUP3 ADD SWAP1 POP SWAP3 SWAP2 POP POP JUMP JUMPDEST PUSH32 0x4E4654537761707065723A2072656D6F7665436F6E7472696275746F723A2063 PUSH1 0x0 DUP3 ADD MSTORE PUSH32 0x6F6E7472696275746F72206E6F7420666F756E64000000000000000000000000 PUSH1 0x20 DUP3 ADD MSTORE POP JUMP JUMPDEST PUSH1 0x0 PUSH2 0x40BF PUSH1 0x34 DUP4 PUSH2 0x3B93 JUMP JUMPDEST SWAP2 POP PUSH2 0x40CA DUP3 PUSH2 0x4063 JUMP JUMPDEST PUSH1 0x40 DUP3 ADD SWAP1 POP SWAP2 SWAP1 POP JUMP JUMPDEST PUSH1 0x0 PUSH1 0x20 DUP3 ADD SWAP1 POP DUP2 DUP2 SUB PUSH1 0x0 DUP4 ADD MSTORE PUSH2 0x40EE DUP2 PUSH2 0x40B2 JUMP JUMPDEST SWAP1 POP SWAP2 SWAP1 POP JUMP JUMPDEST PUSH32 0x4E487B7100000000000000000000000000000000000000000000000000000000 PUSH1 0x0 MSTORE PUSH1 0x31 PUSH1 0x4 MSTORE PUSH1 0x24 PUSH1 0x0 REVERT JUMPDEST PUSH32 0x4E4654537761707065723A20756E63616E63656C3A2073776170206973206E6F PUSH1 0x0 DUP3 ADD MSTORE PUSH32 0x742063616E63656C6C6564000000000000000000000000000000000000000000 PUSH1 0x20 DUP3 ADD MSTORE POP JUMP JUMPDEST PUSH1 0x0 PUSH2 0x4180 PUSH1 0x2B DUP4 PUSH2 0x3B93 JUMP JUMPDEST SWAP2 POP PUSH2 0x418B DUP3 PUSH2 0x4124 JUMP JUMPDEST PUSH1 0x40 DUP3 ADD SWAP1 POP SWAP2 SWAP1 POP JUMP JUMPDEST PUSH1 0x0 PUSH1 0x20 DUP3 ADD SWAP1 POP DUP2 DUP2 SUB PUSH1 0x0 DUP4 ADD MSTORE PUSH2 0x41AF DUP2 PUSH2 0x4173 JUMP JUMPDEST SWAP1 POP SWAP2 SWAP1 POP JUMP JUMPDEST PUSH32 0x4E4654537761707065723A20737761703A20696E73756666696369656E742076 PUSH1 0x0 DUP3 ADD MSTORE PUSH32 0x616C756520666F72207377617000000000000000000000000000000000000000 PUSH1 0x20 DUP3 ADD MSTORE POP JUMP JUMPDEST PUSH1 0x0 PUSH2 0x4212 PUSH1 0x2D DUP4 PUSH2 0x3B93 JUMP JUMPDEST SWAP2 POP PUSH2 0x421D DUP3 PUSH2 0x41B6 JUMP JUMPDEST PUSH1 0x40 DUP3 ADD SWAP1 POP SWAP2 SWAP1 POP JUMP JUMPDEST PUSH1 0x0 PUSH1 0x20 DUP3 ADD SWAP1 POP DUP2 DUP2 SUB PUSH1 0x0 DUP4 ADD MSTORE PUSH2 0x4241 DUP2 PUSH2 0x4205 JUMP JUMPDEST SWAP1 POP SWAP2 SWAP1 POP JUMP JUMPDEST PUSH2 0x4251 DUP2 PUSH2 0x362A JUMP JUMPDEST DUP3 MSTORE POP POP JUMP JUMPDEST PUSH1 0x0 PUSH1 0x80 DUP3 ADD SWAP1 POP PUSH2 0x426C PUSH1 0x0 DUP4 ADD DUP8 PUSH2 0x393B JUMP JUMPDEST PUSH2 0x4279 PUSH1 0x20 DUP4 ADD DUP7 PUSH2 0x393B JUMP JUMPDEST PUSH2 0x4286 PUSH1 0x40 DUP4 ADD DUP6 PUSH2 0x4248 JUMP JUMPDEST PUSH2 0x4293 PUSH1 0x60 DUP4 ADD DUP5 PUSH2 0x33C5 JUMP JUMPDEST SWAP6 SWAP5 POP POP POP POP POP JUMP JUMPDEST PUSH1 0x0 DUP2 MLOAD SWAP1 POP PUSH2 0x42AB DUP2 PUSH2 0x38BC JUMP JUMPDEST SWAP3 SWAP2 POP POP JUMP JUMPDEST PUSH1 0x0 PUSH1 0x20 DUP3 DUP5 SUB SLT ISZERO PUSH2 0x42C7 JUMPI PUSH2 0x42C6 PUSH2 0x3246 JUMP JUMPDEST JUMPDEST PUSH1 0x0 PUSH2 0x42D5 DUP5 DUP3 DUP6 ADD PUSH2 0x429C JUMP JUMPDEST SWAP2 POP POP SWAP3 SWAP2 POP POP JUMP JUMPDEST PUSH32 0x4E4654537761707065723A20737761703A2073656E646572206973206E6F7420 PUSH1 0x0 DUP3 ADD MSTORE PUSH32 0x746865206F776E6572206F662064656D616E646564204E465473000000000000 PUSH1 0x20 DUP3 ADD MSTORE POP JUMP JUMPDEST PUSH1 0x0 PUSH2 0x433A PUSH1 0x3A DUP4 PUSH2 0x3B93 JUMP JUMPDEST SWAP2 POP PUSH2 0x4345 DUP3 PUSH2 0x42DE JUMP JUMPDEST PUSH1 0x40 DUP3 ADD SWAP1 POP SWAP2 SWAP1 POP JUMP JUMPDEST PUSH1 0x0 PUSH1 0x20 DUP3 ADD SWAP1 POP DUP2 DUP2 SUB PUSH1 0x0 DUP4 ADD MSTORE PUSH2 0x4369 DUP2 PUSH2 0x432D JUMP JUMPDEST SWAP1 POP SWAP2 SWAP1 POP JUMP JUMPDEST PUSH1 0x0 PUSH1 0xA0 DUP3 ADD SWAP1 POP PUSH2 0x4385 PUSH1 0x0 DUP4 ADD DUP9 PUSH2 0x393B JUMP JUMPDEST PUSH2 0x4392 PUSH1 0x20 DUP4 ADD DUP8 PUSH2 0x393B JUMP JUMPDEST PUSH2 0x439F PUSH1 0x40 DUP4 ADD DUP7 PUSH2 0x4248 JUMP JUMPDEST PUSH2 0x43AC PUSH1 0x60 DUP4 ADD DUP6 PUSH2 0x33C5 JUMP JUMPDEST PUSH2 0x43B9 PUSH1 0x80 DUP4 ADD DUP5 PUSH2 0x393B JUMP JUMPDEST SWAP7 SWAP6 POP POP POP POP POP POP JUMP JUMPDEST PUSH32 0x4E4654537761707065723A20737761703A207472616E736665722066726F6D20 PUSH1 0x0 DUP3 ADD MSTORE PUSH32 0x74656E646572656420746F20626964646572206661696C656400000000000000 PUSH1 0x20 DUP3 ADD MSTORE POP JUMP JUMPDEST PUSH1 0x0 PUSH2 0x441F PUSH1 0x39 DUP4 PUSH2 0x3B93 JUMP JUMPDEST SWAP2 POP PUSH2 0x442A DUP3 PUSH2 0x43C3 JUMP JUMPDEST PUSH1 0x40 DUP3 ADD SWAP1 POP SWAP2 SWAP1 POP JUMP JUMPDEST PUSH1 0x0 PUSH1 0x20 DUP3 ADD SWAP1 POP DUP2 DUP2 SUB PUSH1 0x0 DUP4 ADD MSTORE PUSH2 0x444E DUP2 PUSH2 0x4412 JUMP JUMPDEST SWAP1 POP SWAP2 SWAP1 POP JUMP JUMPDEST PUSH32 0x4E4654537761707065723A20737761703A205377617020626964646572206973 PUSH1 0x0 DUP3 ADD MSTORE PUSH32 0x206E6F7420746865206F776E6572206F66206F666665726564204E4654730000 PUSH1 0x20 DUP3 ADD MSTORE POP JUMP JUMPDEST PUSH1 0x0 PUSH2 0x44B1 PUSH1 0x3E DUP4 PUSH2 0x3B93 JUMP JUMPDEST SWAP2 POP PUSH2 0x44BC DUP3 PUSH2 0x4455 JUMP JUMPDEST PUSH1 0x40 DUP3 ADD SWAP1 POP SWAP2 SWAP1 POP JUMP JUMPDEST PUSH1 0x0 PUSH1 0x20 DUP3 ADD SWAP1 POP DUP2 DUP2 SUB PUSH1 0x0 DUP4 ADD MSTORE PUSH2 0x44E0 DUP2 PUSH2 0x44A4 JUMP JUMPDEST SWAP1 POP SWAP2 SWAP1 POP JUMP JUMPDEST PUSH32 0x4E4654537761707065723A20737761703A207472616E736665722066726F6D20 PUSH1 0x0 DUP3 ADD MSTORE PUSH32 0x62696464657220746F2074656E6465726564206661696C656400000000000000 PUSH1 0x20 DUP3 ADD MSTORE POP JUMP JUMPDEST PUSH1 0x0 PUSH2 0x4543 PUSH1 0x39 DUP4 PUSH2 0x3B93 JUMP JUMPDEST SWAP2 POP PUSH2 0x454E DUP3 PUSH2 0x44E7 JUMP JUMPDEST PUSH1 0x40 DUP3 ADD SWAP1 POP SWAP2 SWAP1 POP JUMP JUMPDEST PUSH1 0x0 PUSH1 0x20 DUP3 ADD SWAP1 POP DUP2 DUP2 SUB PUSH1 0x0 DUP4 ADD MSTORE PUSH2 0x4572 DUP2 PUSH2 0x4536 JUMP JUMPDEST SWAP1 POP SWAP2 SWAP1 POP JUMP JUMPDEST PUSH32 0x4E4654537761707065723A206E6F7420612074656E6465726564000000000000 PUSH1 0x0 DUP3 ADD MSTORE POP JUMP JUMPDEST PUSH1 0x0 PUSH2 0x45AF PUSH1 0x1A DUP4 PUSH2 0x3B93 JUMP JUMPDEST SWAP2 POP PUSH2 0x45BA DUP3 PUSH2 0x4579 JUMP JUMPDEST PUSH1 0x20 DUP3 ADD SWAP1 POP SWAP2 SWAP1 POP JUMP JUMPDEST PUSH1 0x0 PUSH1 0x20 DUP3 ADD SWAP1 POP DUP2 DUP2 SUB PUSH1 0x0 DUP4 ADD MSTORE PUSH2 0x45DE DUP2 PUSH2 0x45A2 JUMP JUMPDEST SWAP1 POP SWAP2 SWAP1 POP JUMP JUMPDEST PUSH32 0x4E4654537761707065723A2067657448616E646C65723A206E6F2068616E646C PUSH1 0x0 DUP3 ADD MSTORE PUSH32 0x657220666F756E64000000000000000000000000000000000000000000000000 PUSH1 0x20 DUP3 ADD MSTORE POP JUMP JUMPDEST PUSH1 0x0 PUSH2 0x4641 PUSH1 0x28 DUP4 PUSH2 0x3B93 JUMP JUMPDEST SWAP2 POP PUSH2 0x464C DUP3 PUSH2 0x45E5 JUMP JUMPDEST PUSH1 0x40 DUP3 ADD SWAP1 POP SWAP2 SWAP1 POP JUMP JUMPDEST PUSH1 0x0 PUSH1 0x20 DUP3 ADD SWAP1 POP DUP2 DUP2 SUB PUSH1 0x0 DUP4 ADD MSTORE PUSH2 0x4670 DUP2 PUSH2 0x4634 JUMP JUMPDEST SWAP1 POP SWAP2 SWAP1 POP JUMP JUMPDEST PUSH32 0x4E4654537761707065723A2072656769737465723A2062696464657220697320 PUSH1 0x0 DUP3 ADD MSTORE PUSH32 0x6E6F742076616C69640000000000000000000000000000000000000000000000 PUSH1 0x20 DUP3 ADD MSTORE POP JUMP JUMPDEST PUSH1 0x0 PUSH2 0x46D3 PUSH1 0x29 DUP4 PUSH2 0x3B93 JUMP JUMPDEST SWAP2 POP PUSH2 0x46DE DUP3 PUSH2 0x4677 JUMP JUMPDEST PUSH1 0x40 DUP3 ADD SWAP1 POP SWAP2 SWAP1 POP JUMP JUMPDEST PUSH1 0x0 PUSH1 0x20 DUP3 ADD SWAP1 POP DUP2 DUP2 SUB PUSH1 0x0 DUP4 ADD MSTORE PUSH2 0x4702 DUP2 PUSH2 0x46C6 JUMP JUMPDEST SWAP1 POP SWAP2 SWAP1 POP JUMP JUMPDEST PUSH32 0x4E4654537761707065723A2072656769737465723A20696E7375666669636965 PUSH1 0x0 DUP3 ADD MSTORE PUSH32 0x6E742076616C756520666F722072656769737465720000000000000000000000 PUSH1 0x20 DUP3 ADD MSTORE POP JUMP JUMPDEST PUSH1 0x0 PUSH2 0x4765 PUSH1 0x35 DUP4 PUSH2 0x3B93 JUMP JUMPDEST SWAP2 POP PUSH2 0x4770 DUP3 PUSH2 0x4709 JUMP JUMPDEST PUSH1 0x40 DUP3 ADD SWAP1 POP SWAP2 SWAP1 POP JUMP JUMPDEST PUSH1 0x0 PUSH1 0x20 DUP3 ADD SWAP1 POP DUP2 DUP2 SUB PUSH1 0x0 DUP4 ADD MSTORE PUSH2 0x4794 DUP2 PUSH2 0x4758 JUMP JUMPDEST SWAP1 POP SWAP2 SWAP1 POP JUMP JUMPDEST PUSH1 0x0 DUP2 CALLDATALOAD PUSH2 0x47A8 DUP2 PUSH2 0x3282 JUMP JUMPDEST DUP1 SWAP2 POP POP SWAP2 SWAP1 POP JUMP JUMPDEST PUSH1 0x0 DUP2 PUSH1 0x0 SHL SWAP1 POP SWAP2 SWAP1 POP JUMP JUMPDEST PUSH1 0x0 PUSH20 0xFFFFFFFFFFFFFFFFFFFFFFFFFFFFFFFFFFFFFFFF PUSH2 0x47DE DUP5 PUSH2 0x47B1 JUMP JUMPDEST SWAP4 POP DUP1 NOT DUP4 AND SWAP3 POP DUP1 DUP5 AND DUP4 OR SWAP2 POP POP SWAP3 SWAP2 POP POP JUMP JUMPDEST PUSH1 0x0 PUSH2 0x47FF DUP3 PUSH2 0x34A0 JUMP JUMPDEST SWAP1 POP SWAP2 SWAP1 POP JUMP JUMPDEST PUSH1 0x0 DUP2 SWAP1 POP SWAP2 SWAP1 POP JUMP JUMPDEST PUSH2 0x4819 DUP3 PUSH2 0x47F4 JUMP JUMPDEST PUSH2 0x482C PUSH2 0x4825 DUP3 PUSH2 0x4806 JUMP JUMPDEST DUP4 SLOAD PUSH2 0x47BE JUMP JUMPDEST DUP3 SSTORE POP POP POP JUMP JUMPDEST PUSH2 0x483C DUP2 PUSH2 0x362A JUMP JUMPDEST DUP2 EQ PUSH2 0x4847 JUMPI PUSH1 0x0 DUP1 REVERT JUMPDEST POP JUMP JUMPDEST PUSH1 0x0 DUP2 CALLDATALOAD PUSH2 0x4857 DUP2 PUSH2 0x4833 JUMP JUMPDEST DUP1 SWAP2 POP POP SWAP2 SWAP1 POP JUMP JUMPDEST PUSH1 0x0 PUSH32 0xFFFFFFFFFFFFFFFFFFFFFFFFFFFFFFFFFFFFFFFFFFFFFFFFFFFFFFFFFFFFFFFF PUSH2 0x488C DUP5 PUSH2 0x47B1 JUMP JUMPDEST SWAP4 POP DUP1 NOT DUP4 AND SWAP3 POP DUP1 DUP5 AND DUP4 OR SWAP2 POP POP SWAP3 SWAP2 POP POP JUMP JUMPDEST PUSH1 0x0 PUSH2 0x48AD DUP3 PUSH2 0x362A JUMP JUMPDEST SWAP1 POP SWAP2 SWAP1 POP JUMP JUMPDEST PUSH1 0x0 DUP2 PUSH1 0x0 SHR SWAP1 POP SWAP2 SWAP1 POP JUMP JUMPDEST PUSH1 0x0 PUSH2 0x48CC DUP3 PUSH2 0x48B4 JUMP JUMPDEST SWAP1 POP SWAP2 SWAP1 POP JUMP JUMPDEST PUSH2 0x48DC DUP3 PUSH2 0x48A2 JUMP JUMPDEST PUSH2 0x48EF PUSH2 0x48E8 DUP3 PUSH2 0x48C1 JUMP JUMPDEST DUP4 SLOAD PUSH2 0x4860 JUMP JUMPDEST DUP3 SSTORE POP POP POP JUMP JUMPDEST PUSH1 0x0 DUP2 CALLDATALOAD PUSH2 0x4903 DUP2 PUSH2 0x33EF JUMP JUMPDEST DUP1 SWAP2 POP POP SWAP2 SWAP1 POP JUMP JUMPDEST PUSH1 0x0 PUSH2 0x4927 PUSH2 0x4922 PUSH2 0x491D DUP5 PUSH2 0x3307 JUMP JUMPDEST PUSH2 0x3474 JUMP JUMPDEST PUSH2 0x3307 JUMP JUMPDEST SWAP1 POP SWAP2 SWAP1 POP JUMP JUMPDEST PUSH1 0x0 DUP2 SWAP1 POP SWAP2 SWAP1 POP JUMP JUMPDEST PUSH2 0x4941 DUP3 PUSH2 0x490C JUMP JUMPDEST PUSH2 0x4954 PUSH2 0x494D DUP3 PUSH2 0x492E JUMP JUMPDEST DUP4 SLOAD PUSH2 0x4860 JUMP JUMPDEST DUP3 SSTORE POP POP POP JUMP JUMPDEST PUSH1 0x0 DUP2 ADD PUSH1 0x0 DUP4 ADD DUP1 PUSH2 0x496D DUP2 PUSH2 0x479B JUMP JUMPDEST SWAP1 POP PUSH2 0x4979 DUP2 DUP5 PUSH2 0x4810 JUMP JUMPDEST POP POP POP PUSH1 0x1 DUP2 ADD PUSH1 0x20 DUP4 ADD DUP1 PUSH2 0x498E DUP2 PUSH2 0x484A JUMP JUMPDEST SWAP1 POP PUSH2 0x499A DUP2 DUP5 PUSH2 0x48D3 JUMP JUMPDEST POP POP POP PUSH1 0x2 DUP2 ADD PUSH1 0x40 DUP4 ADD DUP1 PUSH2 0x49AF DUP2 PUSH2 0x48F6 JUMP JUMPDEST SWAP1 POP PUSH2 0x49BB DUP2 DUP5 PUSH2 0x4938 JUMP JUMPDEST POP POP POP POP POP JUMP JUMPDEST PUSH2 0x49CC DUP3 DUP3 PUSH2 0x495B JUMP JUMPDEST POP POP JUMP JUMPDEST PUSH1 0x0 PUSH32 0xFFFFFFFF00000000000000000000000000000000000000000000000000000000 DUP3 AND SWAP1 POP SWAP2 SWAP1 POP JUMP JUMPDEST PUSH2 0x4A05 DUP2 PUSH2 0x49D0 JUMP JUMPDEST DUP3 MSTORE POP POP JUMP JUMPDEST PUSH1 0x0 PUSH1 0x20 DUP3 ADD SWAP1 POP PUSH2 0x4A20 PUSH1 0x0 DUP4 ADD DUP5 PUSH2 0x49FC JUMP JUMPDEST SWAP3 SWAP2 POP POP JUMP JUMPDEST PUSH32 0x68616E646C657220646F6573206E6F7420737570706F72742049537761707065 PUSH1 0x0 DUP3 ADD MSTORE PUSH32 0x7248616E646C6572000000000000000000000000000000000000000000000000 PUSH1 0x20 DUP3 ADD MSTORE POP JUMP JUMPDEST PUSH1 0x0 PUSH2 0x4A82 PUSH1 0x28 DUP4 PUSH2 0x3B93 JUMP JUMPDEST SWAP2 POP PUSH2 0x4A8D DUP3 PUSH2 0x4A26 JUMP JUMPDEST PUSH1 0x40 DUP3 ADD SWAP1 POP SWAP2 SWAP1 POP JUMP JUMPDEST PUSH1 0x0 PUSH1 0x20 DUP3 ADD SWAP1 POP DUP2 DUP2 SUB PUSH1 0x0 DUP4 ADD MSTORE PUSH2 0x4AB1 DUP2 PUSH2 0x4A75 JUMP JUMPDEST SWAP1 POP SWAP2 SWAP1 POP JUMP JUMPDEST PUSH32 0x4F776E61626C653A206E6577206F776E657220697320746865207A65726F2061 PUSH1 0x0 DUP3 ADD MSTORE PUSH32 0x6464726573730000000000000000000000000000000000000000000000000000 PUSH1 0x20 DUP3 ADD MSTORE POP JUMP JUMPDEST PUSH1 0x0 PUSH2 0x4B14 PUSH1 0x26 DUP4 PUSH2 0x3B93 JUMP JUMPDEST SWAP2 POP PUSH2 0x4B1F DUP3 PUSH2 0x4AB8 JUMP JUMPDEST PUSH1 0x40 DUP3 ADD SWAP1 POP SWAP2 SWAP1 POP JUMP JUMPDEST PUSH1 0x0 PUSH1 0x20 DUP3 ADD SWAP1 POP DUP2 DUP2 SUB PUSH1 0x0 DUP4 ADD MSTORE PUSH2 0x4B43 DUP2 PUSH2 0x4B07 JUMP JUMPDEST SWAP1 POP SWAP2 SWAP1 POP JUMP JUMPDEST PUSH32 0x4F776E61626C653A2063616C6C6572206973206E6F7420746865206F776E6572 PUSH1 0x0 DUP3 ADD MSTORE POP JUMP JUMPDEST PUSH1 0x0 PUSH2 0x4B80 PUSH1 0x20 DUP4 PUSH2 0x3B93 JUMP JUMPDEST SWAP2 POP PUSH2 0x4B8B DUP3 PUSH2 0x4B4A JUMP JUMPDEST PUSH1 0x20 DUP3 ADD SWAP1 POP SWAP2 SWAP1 POP JUMP JUMPDEST PUSH1 0x0 PUSH1 0x20 DUP3 ADD SWAP1 POP DUP2 DUP2 SUB PUSH1 0x0 DUP4 ADD MSTORE PUSH2 0x4BAF DUP2 PUSH2 0x4B73 JUMP JUMPDEST SWAP1 POP SWAP2 SWAP1 POP JUMP INVALID LOG2 PUSH5 0x6970667358 0x22 SLT KECCAK256 0x4B LT 0xD9 0x4E GASLIMIT PUSH6 0x70729CBEF7D4 0xF7 DUP10 0xD2 0x29 DUP4 SWAP8 0x24 RETURNDATASIZE SELFBALANCE 0x5D PUSH30 0x4D0BBF18D6729DED4664736F6C6343000809003300000000000000000000 "
		},
		"gasEstimates": {
			"creation": {
				"codeDepositCost": "3887200",
				"executionCost": "infinite",
				"totalCost": "infinite"
			},
			"external": {
				"": "241",
				"cancel(uint256)": "33331",
				"getContributors()": "infinite",
				"getHandler(address)": "infinite",
				"getHandlers()": "infinite",
				"getRegisterFee()": "2483",
				"getShare(address)": "5133",
				"getSwap(uint256)": "infinite",
				"getSwapCount()": "2530",
				"getSwapFee()": "2570",
				"getSwaps(address)": "infinite",
				"getTotalShares()": "4706",
				"owner()": "2545",
				"register(address,(address,bytes32,uint256)[],address[],(address,bytes32,uint256)[])": "infinite",
				"renounceOwnership()": "30509",
				"setApprovedTendered(uint256,address,bool)": "infinite",
				"setContributor(address,uint256)": "infinite",
				"setRegisterFee(uint256)": "24829",
				"setSwapFee(uint256)": "24852",
				"supportStandard(address)": "infinite",
				"swap(uint256)": "infinite",
				"transferOwnership(address)": "30879",
				"uncancel(uint256)": "33281",
				"unsupportStandard(address)": "infinite",
				"withdraw()": "infinite"
			}
		},
		"methodIdentifiers": {
			"cancel(uint256)": "40e58ee5",
			"getContributors()": "af157c19",
			"getHandler(address)": "b6c9b393",
			"getHandlers()": "3801a828",
			"getRegisterFee()": "32a58e79",
			"getShare(address)": "4b3ab9c5",
			"getSwap(uint256)": "4a0d89ba",
			"getSwapCount()": "d81671bc",
			"getSwapFee()": "d4cadf68",
			"getSwaps(address)": "21c616da",
			"getTotalShares()": "d5002f2e",
			"owner()": "8da5cb5b",
			"register(address,(address,bytes32,uint256)[],address[],(address,bytes32,uint256)[])": "e0efc2f5",
			"renounceOwnership()": "715018a6",
			"setApprovedTendered(uint256,address,bool)": "7634c6c3",
			"setContributor(address,uint256)": "61784c7a",
			"setRegisterFee(uint256)": "92be2ab8",
			"setSwapFee(uint256)": "34e19907",
			"supportStandard(address)": "eb57ce55",
			"swap(uint256)": "94b918de",
			"transferOwnership(address)": "f2fde38b",
			"uncancel(uint256)": "6e214a8e",
			"unsupportStandard(address)": "ed470a3a",
			"withdraw()": "3ccfd60b"
		}
	},
	"abi": [
		{
			"inputs": [],
			"stateMutability": "nonpayable",
			"type": "constructor"
		},
		{
			"anonymous": false,
			"inputs": [
				{
					"indexed": true,
					"internalType": "address",
					"name": "previousOwner",
					"type": "address"
				},
				{
					"indexed": true,
					"internalType": "address",
					"name": "newOwner",
					"type": "address"
				}
			],
			"name": "OwnershipTransferred",
			"type": "event"
		},
		{
			"anonymous": false,
			"inputs": [
				{
					"indexed": true,
					"internalType": "uint256",
					"name": "id",
					"type": "uint256"
				},
				{
					"indexed": true,
					"internalType": "enum NFTSwapper.SwapState",
					"name": "state",
					"type": "uint8"
				}
			],
			"name": "SwapStateChanged",
			"type": "event"
		},
		{
			"anonymous": false,
			"inputs": [
				{
					"indexed": true,
					"internalType": "address",
					"name": "sender",
					"type": "address"
				},
				{
					"indexed": true,
					"internalType": "uint256",
					"name": "amount",
					"type": "uint256"
				}
			],
			"name": "WithdrawBalance",
			"type": "event"
		},
		{
			"stateMutability": "payable",
			"type": "fallback"
		},
		{
			"inputs": [
				{
					"internalType": "uint256",
					"name": "id",
					"type": "uint256"
				}
			],
			"name": "cancel",
			"outputs": [],
			"stateMutability": "nonpayable",
			"type": "function"
		},
		{
			"inputs": [],
			"name": "getContributors",
			"outputs": [
				{
					"internalType": "address[]",
					"name": "",
					"type": "address[]"
				}
			],
			"stateMutability": "view",
			"type": "function"
		},
		{
			"inputs": [
				{
					"internalType": "address",
					"name": "nft",
					"type": "address"
				}
			],
			"name": "getHandler",
			"outputs": [
				{
					"internalType": "contract ISwapperHandler",
					"name": "handler",
					"type": "address"
				}
			],
			"stateMutability": "view",
			"type": "function"
		},
		{
			"inputs": [],
			"name": "getHandlers",
			"outputs": [
				{
					"internalType": "contract ISwapperHandler[]",
					"name": "",
					"type": "address[]"
				}
			],
			"stateMutability": "view",
			"type": "function"
		},
		{
			"inputs": [],
			"name": "getRegisterFee",
			"outputs": [
				{
					"internalType": "uint256",
					"name": "",
					"type": "uint256"
				}
			],
			"stateMutability": "view",
			"type": "function"
		},
		{
			"inputs": [
				{
					"internalType": "address",
					"name": "constributor",
					"type": "address"
				}
			],
			"name": "getShare",
			"outputs": [
				{
					"internalType": "uint256",
					"name": "",
					"type": "uint256"
				}
			],
			"stateMutability": "view",
			"type": "function"
		},
		{
			"inputs": [
				{
					"internalType": "uint256",
					"name": "id",
					"type": "uint256"
				}
			],
			"name": "getSwap",
			"outputs": [
				{
					"components": [
						{
							"internalType": "uint256",
							"name": "Id",
							"type": "uint256"
						},
						{
							"internalType": "enum NFTSwapper.SwapState",
							"name": "State",
							"type": "uint8"
						},
						{
							"internalType": "address",
							"name": "Bidder",
							"type": "address"
						},
						{
							"components": [
								{
									"internalType": "address",
									"name": "NFT",
									"type": "address"
								},
								{
									"internalType": "bytes32",
									"name": "TokenId",
									"type": "bytes32"
								},
								{
									"internalType": "uint256",
									"name": "Amount",
									"type": "uint256"
								}
							],
							"internalType": "struct NFTSwapper.Token[]",
							"name": "Offer",
							"type": "tuple[]"
						},
						{
							"internalType": "address[]",
							"name": "Tendered",
							"type": "address[]"
						},
						{
							"components": [
								{
									"internalType": "address",
									"name": "NFT",
									"type": "address"
								},
								{
									"internalType": "bytes32",
									"name": "TokenId",
									"type": "bytes32"
								},
								{
									"internalType": "uint256",
									"name": "Amount",
									"type": "uint256"
								}
							],
							"internalType": "struct NFTSwapper.Token[]",
							"name": "Demand",
							"type": "tuple[]"
						}
					],
					"internalType": "struct NFTSwapper.Swap",
					"name": "",
					"type": "tuple"
				}
			],
			"stateMutability": "view",
			"type": "function"
		},
		{
			"inputs": [],
			"name": "getSwapCount",
			"outputs": [
				{
					"internalType": "uint256",
					"name": "",
					"type": "uint256"
				}
			],
			"stateMutability": "view",
			"type": "function"
		},
		{
			"inputs": [],
			"name": "getSwapFee",
			"outputs": [
				{
					"internalType": "uint256",
					"name": "",
					"type": "uint256"
				}
			],
			"stateMutability": "view",
			"type": "function"
		},
		{
			"inputs": [
				{
					"internalType": "address",
					"name": "account",
					"type": "address"
				}
			],
			"name": "getSwaps",
			"outputs": [
				{
					"internalType": "uint256[]",
					"name": "",
					"type": "uint256[]"
				}
			],
			"stateMutability": "view",
			"type": "function"
		},
		{
			"inputs": [],
			"name": "getTotalShares",
			"outputs": [
				{
					"internalType": "uint256",
					"name": "",
					"type": "uint256"
				}
			],
			"stateMutability": "view",
			"type": "function"
		},
		{
			"inputs": [],
			"name": "owner",
			"outputs": [
				{
					"internalType": "address",
					"name": "",
					"type": "address"
				}
			],
			"stateMutability": "view",
			"type": "function"
		},
		{
			"inputs": [
				{
					"internalType": "address",
					"name": "bidder",
					"type": "address"
				},
				{
					"components": [
						{
							"internalType": "address",
							"name": "NFT",
							"type": "address"
						},
						{
							"internalType": "bytes32",
							"name": "TokenId",
							"type": "bytes32"
						},
						{
							"internalType": "uint256",
							"name": "Amount",
							"type": "uint256"
						}
					],
					"internalType": "struct NFTSwapper.Token[]",
					"name": "offer",
					"type": "tuple[]"
				},
				{
					"internalType": "address[]",
					"name": "tendered",
					"type": "address[]"
				},
				{
					"components": [
						{
							"internalType": "address",
							"name": "NFT",
							"type": "address"
						},
						{
							"internalType": "bytes32",
							"name": "TokenId",
							"type": "bytes32"
						},
						{
							"internalType": "uint256",
							"name": "Amount",
							"type": "uint256"
						}
					],
					"internalType": "struct NFTSwapper.Token[]",
					"name": "demand",
					"type": "tuple[]"
				}
			],
			"name": "register",
			"outputs": [
				{
					"internalType": "uint256",
					"name": "id",
					"type": "uint256"
				}
			],
			"stateMutability": "payable",
			"type": "function"
		},
		{
			"inputs": [],
			"name": "renounceOwnership",
			"outputs": [],
			"stateMutability": "nonpayable",
			"type": "function"
		},
		{
			"inputs": [
				{
					"internalType": "uint256",
					"name": "id",
					"type": "uint256"
				},
				{
					"internalType": "address",
					"name": "applicant",
					"type": "address"
				},
				{
					"internalType": "bool",
					"name": "approved",
					"type": "bool"
				}
			],
			"name": "setApprovedTendered",
			"outputs": [],
			"stateMutability": "nonpayable",
			"type": "function"
		},
		{
			"inputs": [
				{
					"internalType": "address",
					"name": "contributor",
					"type": "address"
				},
				{
					"internalType": "uint256",
					"name": "share",
					"type": "uint256"
				}
			],
			"name": "setContributor",
			"outputs": [],
			"stateMutability": "nonpayable",
			"type": "function"
		},
		{
			"inputs": [
				{
					"internalType": "uint256",
					"name": "fee",
					"type": "uint256"
				}
			],
			"name": "setRegisterFee",
			"outputs": [],
			"stateMutability": "nonpayable",
			"type": "function"
		},
		{
			"inputs": [
				{
					"internalType": "uint256",
					"name": "fee",
					"type": "uint256"
				}
			],
			"name": "setSwapFee",
			"outputs": [],
			"stateMutability": "nonpayable",
			"type": "function"
		},
		{
			"inputs": [
				{
					"internalType": "address",
					"name": "handlerAddress",
					"type": "address"
				}
			],
			"name": "supportStandard",
			"outputs": [],
			"stateMutability": "nonpayable",
			"type": "function"
		},
		{
			"inputs": [
				{
					"internalType": "uint256",
					"name": "id",
					"type": "uint256"
				}
			],
			"name": "swap",
			"outputs": [],
			"stateMutability": "payable",
			"type": "function"
		},
		{
			"inputs": [
				{
					"internalType": "address",
					"name": "newOwner",
					"type": "address"
				}
			],
			"name": "transferOwnership",
			"outputs": [],
			"stateMutability": "nonpayable",
			"type": "function"
		},
		{
			"inputs": [
				{
					"internalType": "uint256",
					"name": "id",
					"type": "uint256"
				}
			],
			"name": "uncancel",
			"outputs": [],
			"stateMutability": "nonpayable",
			"type": "function"
		},
		{
			"inputs": [
				{
					"internalType": "address",
					"name": "handlerAddress",
					"type": "address"
				}
			],
			"name": "unsupportStandard",
			"outputs": [],
			"stateMutability": "nonpayable",
			"type": "function"
		},
		{
			"inputs": [],
			"name": "withdraw",
			"outputs": [],
			"stateMutability": "nonpayable",
			"type": "function"
		},
		{
			"stateMutability": "payable",
			"type": "receive"
		}
	]
}